{
	"contracts/core/treasury/MPTreasury.sol": {
		"MPTreasury": {
			"abi": [
				{
					"inputs": [
						{
							"internalType": "address",
							"name": "_register",
							"type": "address"
						}
					],
					"stateMutability": "nonpayable",
					"type": "constructor"
				},
				{
					"inputs": [
						{
							"internalType": "uint256",
							"name": "_positionId",
							"type": "uint256"
						}
					],
					"name": "divest",
					"outputs": [
						{
							"internalType": "uint256",
							"name": "_txId",
							"type": "uint256"
						}
					],
					"stateMutability": "nonpayable",
					"type": "function"
				},
				{
					"inputs": [],
					"name": "getAllowedBondTokens",
					"outputs": [
						{
							"internalType": "address[]",
							"name": "_erc20",
							"type": "address[]"
						}
					],
					"stateMutability": "view",
					"type": "function"
				},
				{
					"inputs": [],
					"name": "getName",
					"outputs": [
						{
							"internalType": "string",
							"name": "_name",
							"type": "string"
						}
					],
					"stateMutability": "pure",
					"type": "function"
				},
				{
					"inputs": [
						{
							"internalType": "uint256",
							"name": "_mPensionId",
							"type": "uint256"
						}
					],
					"name": "getPensionPositionId",
					"outputs": [
						{
							"components": [
								{
									"internalType": "uint256",
									"name": "id",
									"type": "uint256"
								},
								{
									"internalType": "enum PositionStatus",
									"name": "status",
									"type": "uint8"
								},
								{
									"internalType": "uint256",
									"name": "mPensionId",
									"type": "uint256"
								},
								{
									"internalType": "uint256",
									"name": "amount",
									"type": "uint256"
								},
								{
									"internalType": "address",
									"name": "token",
									"type": "address"
								},
								{
									"internalType": "uint256",
									"name": "created",
									"type": "uint256"
								},
								{
									"components": [
										{
											"internalType": "uint256",
											"name": "maxGainPercentage",
											"type": "uint256"
										},
										{
											"internalType": "uint256",
											"name": "maxLossPercentage",
											"type": "uint256"
										}
									],
									"internalType": "struct Tolerance",
									"name": "tolerance",
									"type": "tuple"
								},
								{
									"internalType": "uint256",
									"name": "marketId",
									"type": "uint256"
								}
							],
							"internalType": "struct Position",
							"name": "_position",
							"type": "tuple"
						}
					],
					"stateMutability": "view",
					"type": "function"
				},
				{
					"inputs": [
						{
							"internalType": "uint256",
							"name": "_positionId",
							"type": "uint256"
						}
					],
					"name": "getPosition",
					"outputs": [
						{
							"components": [
								{
									"internalType": "uint256",
									"name": "id",
									"type": "uint256"
								},
								{
									"internalType": "enum PositionStatus",
									"name": "status",
									"type": "uint8"
								},
								{
									"internalType": "uint256",
									"name": "mPensionId",
									"type": "uint256"
								},
								{
									"internalType": "uint256",
									"name": "amount",
									"type": "uint256"
								},
								{
									"internalType": "address",
									"name": "token",
									"type": "address"
								},
								{
									"internalType": "uint256",
									"name": "created",
									"type": "uint256"
								},
								{
									"components": [
										{
											"internalType": "uint256",
											"name": "maxGainPercentage",
											"type": "uint256"
										},
										{
											"internalType": "uint256",
											"name": "maxLossPercentage",
											"type": "uint256"
										}
									],
									"internalType": "struct Tolerance",
									"name": "tolerance",
									"type": "tuple"
								},
								{
									"internalType": "uint256",
									"name": "marketId",
									"type": "uint256"
								}
							],
							"internalType": "struct Position",
							"name": "_position",
							"type": "tuple"
						}
					],
					"stateMutability": "view",
					"type": "function"
				},
				{
					"inputs": [],
					"name": "getPositionIds",
					"outputs": [
						{
							"internalType": "uint256[]",
							"name": "_positionIds",
							"type": "uint256[]"
						}
					],
					"stateMutability": "view",
					"type": "function"
				},
				{
					"inputs": [
						{
							"internalType": "uint256",
							"name": "_positionId",
							"type": "uint256"
						}
					],
					"name": "getTxIdsByPositionId",
					"outputs": [
						{
							"internalType": "uint256[]",
							"name": "_txIds",
							"type": "uint256[]"
						}
					],
					"stateMutability": "view",
					"type": "function"
				},
				{
					"inputs": [],
					"name": "getVersion",
					"outputs": [
						{
							"internalType": "uint256",
							"name": "_version",
							"type": "uint256"
						}
					],
					"stateMutability": "pure",
					"type": "function"
				},
				{
					"inputs": [
						{
							"internalType": "uint256",
							"name": "_bondId",
							"type": "uint256"
						}
					],
					"name": "hasOpenPositions",
					"outputs": [
						{
							"internalType": "bool",
							"name": "_hasOpenPositions",
							"type": "bool"
						}
					],
					"stateMutability": "view",
					"type": "function"
				},
				{
					"inputs": [
						{
							"internalType": "uint256",
							"name": "_mPensionId",
							"type": "uint256"
						},
						{
							"internalType": "uint256",
							"name": "_marketId",
							"type": "uint256"
						}
					],
					"name": "invest",
					"outputs": [
						{
							"internalType": "uint256",
							"name": "_positionId",
							"type": "uint256"
						},
						{
							"internalType": "uint256",
							"name": "_txId",
							"type": "uint256"
						}
					],
					"stateMutability": "nonpayable",
					"type": "function"
				},
				{
					"inputs": [
						{
							"internalType": "address",
							"name": "_erc20",
							"type": "address"
						}
					],
					"name": "isAllowedBondToken",
					"outputs": [
						{
							"internalType": "bool",
							"name": "_isAllowed",
							"type": "bool"
						}
					],
					"stateMutability": "view",
					"type": "function"
				},
				{
					"inputs": [],
					"name": "notifyChangeOfAddress",
					"outputs": [
						{
							"internalType": "bool",
							"name": "_acknowledged",
							"type": "bool"
						}
					],
					"stateMutability": "nonpayable",
					"type": "function"
				}
			],
			"devdoc": {
				"kind": "dev",
				"methods": {},
				"version": 1
			},
			"evm": {
				"assembly": "    /* \"contracts/core/treasury/MPTreasury.sol\":562:8474  contract MPTreasury is IMPTreasury, IVersion { ... */\n  mstore(0x40, 0xa0)\n    /* \"contracts/core/treasury/MPTreasury.sol\":1987:2103  constructor (address _register) { ... */\n  callvalue\n  dup1\n  iszero\n  tag_1\n  jumpi\n  revert(0x00, 0x00)\ntag_1:\n  pop\n  mload(0x40)\n  sub(codesize, bytecodeSize)\n  dup1\n  bytecodeSize\n  dup4\n  codecopy\n  dup2\n  dup2\n  add\n  0x40\n  mstore\n  dup2\n  add\n  swap1\n  tag_2\n  swap2\n  swap1\n  tag_3\n  jump\t// in\ntag_2:\n    /* \"contracts/core/treasury/MPTreasury.sol\":2052:2061  _register */\n  dup1\n    /* \"contracts/core/treasury/MPTreasury.sol\":2031:2039  register */\n  0x00\n  0x00\n    /* \"contracts/core/treasury/MPTreasury.sol\":2031:2062  register = IRegister(_register) */\n  0x0100\n  exp\n  dup2\n  sload\n  dup2\n  0xffffffffffffffffffffffffffffffffffffffff\n  mul\n  not\n  and\n  swap1\n  dup4\n  0xffffffffffffffffffffffffffffffffffffffff\n  and\n  mul\n  or\n  swap1\n  sstore\n  pop\n    /* \"contracts/core/treasury/MPTreasury.sol\":2089:2093  self */\n  mload(0x80)\n    /* \"contracts/core/treasury/MPTreasury.sol\":2074:2094  self = address(self) */\n  0xffffffffffffffffffffffffffffffffffffffff\n  and\n  0x80\n  dup2\n  0xffffffffffffffffffffffffffffffffffffffff\n  and\n  dup2\n  mstore\n  pop\n  pop\n    /* \"contracts/core/treasury/MPTreasury.sol\":1987:2103  constructor (address _register) { ... */\n  pop\n    /* \"contracts/core/treasury/MPTreasury.sol\":562:8474  contract MPTreasury is IMPTreasury, IVersion { ... */\n  jump(tag_6)\n    /* \"#utility.yul\":88:205   */\ntag_8:\n    /* \"#utility.yul\":197:198   */\n  0x00\n    /* \"#utility.yul\":194:195   */\n  0x00\n    /* \"#utility.yul\":187:199   */\n  revert\n    /* \"#utility.yul\":334:460   */\ntag_10:\n    /* \"#utility.yul\":371:378   */\n  0x00\n    /* \"#utility.yul\":411:453   */\n  0xffffffffffffffffffffffffffffffffffffffff\n    /* \"#utility.yul\":404:409   */\n  dup3\n    /* \"#utility.yul\":400:454   */\n  and\n    /* \"#utility.yul\":389:454   */\n  swap1\n  pop\n    /* \"#utility.yul\":334:460   */\n  swap2\n  swap1\n  pop\n  jump\t// out\n    /* \"#utility.yul\":466:562   */\ntag_11:\n    /* \"#utility.yul\":503:510   */\n  0x00\n    /* \"#utility.yul\":532:556   */\n  tag_20\n    /* \"#utility.yul\":550:555   */\n  dup3\n    /* \"#utility.yul\":532:556   */\n  tag_10\n  jump\t// in\ntag_20:\n    /* \"#utility.yul\":521:556   */\n  swap1\n  pop\n    /* \"#utility.yul\":466:562   */\n  swap2\n  swap1\n  pop\n  jump\t// out\n    /* \"#utility.yul\":568:690   */\ntag_12:\n    /* \"#utility.yul\":641:665   */\n  tag_22\n    /* \"#utility.yul\":659:664   */\n  dup2\n    /* \"#utility.yul\":641:665   */\n  tag_11\n  jump\t// in\ntag_22:\n    /* \"#utility.yul\":634:639   */\n  dup2\n    /* \"#utility.yul\":631:666   */\n  eq\n    /* \"#utility.yul\":621:684   */\n  tag_23\n  jumpi\n    /* \"#utility.yul\":680:681   */\n  0x00\n    /* \"#utility.yul\":677:678   */\n  0x00\n    /* \"#utility.yul\":670:682   */\n  revert\n    /* \"#utility.yul\":621:684   */\ntag_23:\n    /* \"#utility.yul\":568:690   */\n  pop\n  jump\t// out\n    /* \"#utility.yul\":696:839   */\ntag_13:\n    /* \"#utility.yul\":753:758   */\n  0x00\n    /* \"#utility.yul\":784:790   */\n  dup2\n    /* \"#utility.yul\":778:791   */\n  mload\n    /* \"#utility.yul\":769:791   */\n  swap1\n  pop\n    /* \"#utility.yul\":800:833   */\n  tag_25\n    /* \"#utility.yul\":827:832   */\n  dup2\n    /* \"#utility.yul\":800:833   */\n  tag_12\n  jump\t// in\ntag_25:\n    /* \"#utility.yul\":696:839   */\n  swap3\n  swap2\n  pop\n  pop\n  jump\t// out\n    /* \"#utility.yul\":845:1196   */\ntag_3:\n    /* \"#utility.yul\":915:921   */\n  0x00\n    /* \"#utility.yul\":964:966   */\n  0x20\n    /* \"#utility.yul\":952:961   */\n  dup3\n    /* \"#utility.yul\":943:950   */\n  dup5\n    /* \"#utility.yul\":939:962   */\n  sub\n    /* \"#utility.yul\":935:967   */\n  slt\n    /* \"#utility.yul\":932:1051   */\n  iszero\n  tag_27\n  jumpi\n    /* \"#utility.yul\":970:1049   */\n  tag_28\n  tag_8\n  jump\t// in\ntag_28:\n    /* \"#utility.yul\":932:1051   */\ntag_27:\n    /* \"#utility.yul\":1090:1091   */\n  0x00\n    /* \"#utility.yul\":1115:1179   */\n  tag_29\n    /* \"#utility.yul\":1171:1178   */\n  dup5\n    /* \"#utility.yul\":1162:1168   */\n  dup3\n    /* \"#utility.yul\":1151:1160   */\n  dup6\n    /* \"#utility.yul\":1147:1169   */\n  add\n    /* \"#utility.yul\":1115:1179   */\n  tag_13\n  jump\t// in\ntag_29:\n    /* \"#utility.yul\":1105:1179   */\n  swap2\n  pop\n    /* \"#utility.yul\":1061:1189   */\n  pop\n    /* \"#utility.yul\":845:1196   */\n  swap3\n  swap2\n  pop\n  pop\n  jump\t// out\n    /* \"contracts/core/treasury/MPTreasury.sol\":562:8474  contract MPTreasury is IMPTreasury, IVersion { ... */\ntag_6:\n  mload(0x80)\n  codecopy(0x00, dataOffset(sub_0), dataSize(sub_0))\n  0x00\n  assignImmutable(\"0x0330c0d84464f890f3c81afbba7a3a05e0e864ec2e31676dedcb075b2bf855a0\")\n  return(0x00, dataSize(sub_0))\nstop\n\nsub_0: assembly {\n        /* \"contracts/core/treasury/MPTreasury.sol\":562:8474  contract MPTreasury is IMPTreasury, IVersion { ... */\n      mstore(0x40, 0x80)\n      callvalue\n      dup1\n      iszero\n      tag_1\n      jumpi\n      revert(0x00, 0x00)\n    tag_1:\n      pop\n      jumpi(tag_2, lt(calldatasize, 0x04))\n      shr(0xe0, calldataload(0x00))\n      dup1\n      0x8a9dda05\n      gt\n      tag_15\n      jumpi\n      dup1\n      0x8a9dda05\n      eq\n      tag_9\n      jumpi\n      dup1\n      0x8ca17995\n      eq\n      tag_10\n      jumpi\n      dup1\n      0xcde4c10c\n      eq\n      tag_11\n      jumpi\n      dup1\n      0xd87aa643\n      eq\n      tag_12\n      jumpi\n      dup1\n      0xe3e803c8\n      eq\n      tag_13\n      jumpi\n      dup1\n      0xeb02c301\n      eq\n      tag_14\n      jumpi\n      jump(tag_2)\n    tag_15:\n      dup1\n      0x29e794\n      eq\n      tag_3\n      jumpi\n      dup1\n      0x0d8e6e2c\n      eq\n      tag_4\n      jumpi\n      dup1\n      0x17d7de7c\n      eq\n      tag_5\n      jumpi\n      dup1\n      0x39131906\n      eq\n      tag_6\n      jumpi\n      dup1\n      0x4ca857da\n      eq\n      tag_7\n      jumpi\n      dup1\n      0x7ad0ab2d\n      eq\n      tag_8\n      jumpi\n    tag_2:\n      revert(0x00, 0x00)\n        /* \"contracts/core/treasury/MPTreasury.sol\":3214:3390  function getPensionPositionId(uint256 _mPensionId) view external returns (Position memory _position) { ... */\n    tag_3:\n      tag_16\n      0x04\n      dup1\n      calldatasize\n      sub\n      dup2\n      add\n      swap1\n      tag_17\n      swap2\n      swap1\n      tag_18\n      jump\t// in\n    tag_17:\n      tag_19\n      jump\t// in\n    tag_16:\n      mload(0x40)\n      tag_20\n      swap2\n      swap1\n      tag_21\n      jump\t// in\n    tag_20:\n      mload(0x40)\n      dup1\n      swap2\n      sub\n      swap1\n      return\n        /* \"contracts/core/treasury/MPTreasury.sol\":2214:2311  function getVersion() pure external returns (uint256 _version){ ... */\n    tag_4:\n      tag_22\n      tag_23\n      jump\t// in\n    tag_22:\n      mload(0x40)\n      tag_24\n      swap2\n      swap1\n      tag_25\n      jump\t// in\n    tag_24:\n      mload(0x40)\n      dup1\n      swap2\n      sub\n      swap1\n      return\n        /* \"contracts/core/treasury/MPTreasury.sol\":2111:2206  function getName() pure external returns (string memory _name) { ... */\n    tag_5:\n      tag_26\n      tag_27\n      jump\t// in\n    tag_26:\n      mload(0x40)\n      tag_28\n      swap2\n      swap1\n      tag_29\n      jump\t// in\n    tag_28:\n      mload(0x40)\n      dup1\n      swap2\n      sub\n      swap1\n      return\n        /* \"contracts/core/treasury/MPTreasury.sol\":2604:2722  function getPositionIds() view external returns (uint256 [] memory _positionIds){... */\n    tag_6:\n      tag_30\n      tag_31\n      jump\t// in\n    tag_30:\n      mload(0x40)\n      tag_32\n      swap2\n      swap1\n      tag_33\n      jump\t// in\n    tag_32:\n      mload(0x40)\n      dup1\n      swap2\n      sub\n      swap1\n      return\n        /* \"contracts/core/treasury/MPTreasury.sol\":3048:3206  function hasOpenPositions(uint256 _bondId) view external returns (bool _hasOpenPositions) {... */\n    tag_7:\n      tag_34\n      0x04\n      dup1\n      calldatasize\n      sub\n      dup2\n      add\n      swap1\n      tag_35\n      swap2\n      swap1\n      tag_18\n      jump\t// in\n    tag_35:\n      tag_36\n      jump\t// in\n    tag_34:\n      mload(0x40)\n      tag_37\n      swap2\n      swap1\n      tag_38\n      jump\t// in\n    tag_37:\n      mload(0x40)\n      dup1\n      swap2\n      sub\n      swap1\n      return\n        /* \"contracts/core/treasury/MPTreasury.sol\":2451:2596  function isAllowedBondToken(address _erc20) view external returns (bool _isAllowed){... */\n    tag_8:\n      tag_39\n      0x04\n      dup1\n      calldatasize\n      sub\n      dup2\n      add\n      swap1\n      tag_40\n      swap2\n      swap1\n      tag_41\n      jump\t// in\n    tag_40:\n      tag_42\n      jump\t// in\n    tag_39:\n      mload(0x40)\n      tag_43\n      swap2\n      swap1\n      tag_38\n      jump\t// in\n    tag_43:\n      mload(0x40)\n      dup1\n      swap2\n      sub\n      swap1\n      return\n        /* \"contracts/core/treasury/MPTreasury.sol\":2319:2443  function getAllowedBondTokens() view external returns (address [] memory _erc20){... */\n    tag_9:\n      tag_44\n      tag_45\n      jump\t// in\n    tag_44:\n      mload(0x40)\n      tag_46\n      swap2\n      swap1\n      tag_47\n      jump\t// in\n    tag_46:\n      mload(0x40)\n      dup1\n      swap2\n      sub\n      swap1\n      return\n        /* \"contracts/core/treasury/MPTreasury.sol\":5714:7499  function divest(uint256 _positionId) external bondHolderOnly returns (uint256 _txId){... */\n    tag_10:\n      tag_48\n      0x04\n      dup1\n      calldatasize\n      sub\n      dup2\n      add\n      swap1\n      tag_49\n      swap2\n      swap1\n      tag_18\n      jump\t// in\n    tag_49:\n      tag_50\n      jump\t// in\n    tag_48:\n      mload(0x40)\n      tag_51\n      swap2\n      swap1\n      tag_25\n      jump\t// in\n    tag_51:\n      mload(0x40)\n      dup1\n      swap2\n      sub\n      swap1\n      return\n        /* \"contracts/core/treasury/MPTreasury.sol\":7507:7685  function notifyChangeOfAddress() external adminOnly returns (bool _acknowledged) { ... */\n    tag_11:\n      tag_52\n      tag_53\n      jump\t// in\n    tag_52:\n      mload(0x40)\n      tag_54\n      swap2\n      swap1\n      tag_38\n      jump\t// in\n    tag_54:\n      mload(0x40)\n      dup1\n      swap2\n      sub\n      swap1\n      return\n        /* \"contracts/core/treasury/MPTreasury.sol\":3398:5706  function invest(uint256 _mPensionId, uint256 _marketId) external bondHolderOnly returns (uint256 _positionId, uint256 _txId){... */\n    tag_12:\n      tag_55\n      0x04\n      dup1\n      calldatasize\n      sub\n      dup2\n      add\n      swap1\n      tag_56\n      swap2\n      swap1\n      tag_57\n      jump\t// in\n    tag_56:\n      tag_58\n      jump\t// in\n    tag_55:\n      mload(0x40)\n      tag_59\n      swap3\n      swap2\n      swap1\n      tag_60\n      jump\t// in\n    tag_59:\n      mload(0x40)\n      dup1\n      swap2\n      sub\n      swap1\n      return\n        /* \"contracts/core/treasury/MPTreasury.sol\":2884:3040  function getTxIdsByPositionId(uint256 _positionId) view external returns (uint256 [] memory _txIds){... */\n    tag_13:\n      tag_61\n      0x04\n      dup1\n      calldatasize\n      sub\n      dup2\n      add\n      swap1\n      tag_62\n      swap2\n      swap1\n      tag_18\n      jump\t// in\n    tag_62:\n      tag_63\n      jump\t// in\n    tag_61:\n      mload(0x40)\n      tag_64\n      swap2\n      swap1\n      tag_33\n      jump\t// in\n    tag_64:\n      mload(0x40)\n      dup1\n      swap2\n      sub\n      swap1\n      return\n        /* \"contracts/core/treasury/MPTreasury.sol\":2730:2872  function getPosition(uint256 _positionId) view external returns (Position memory _position){... */\n    tag_14:\n      tag_65\n      0x04\n      dup1\n      calldatasize\n      sub\n      dup2\n      add\n      swap1\n      tag_66\n      swap2\n      swap1\n      tag_18\n      jump\t// in\n    tag_66:\n      tag_67\n      jump\t// in\n    tag_65:\n      mload(0x40)\n      tag_68\n      swap2\n      swap1\n      tag_21\n      jump\t// in\n    tag_68:\n      mload(0x40)\n      dup1\n      swap2\n      sub\n      swap1\n      return\n        /* \"contracts/core/treasury/MPTreasury.sol\":3214:3390  function getPensionPositionId(uint256 _mPensionId) view external returns (Position memory _position) { ... */\n    tag_19:\n        /* \"contracts/core/treasury/MPTreasury.sol\":3288:3313  Position memory _position */\n      tag_69\n      tag_70\n      jump\t// in\n    tag_69:\n        /* \"contracts/core/treasury/MPTreasury.sol\":3334:3346  positionById */\n      0x05\n        /* \"contracts/core/treasury/MPTreasury.sol\":3334:3382  positionById[positionIdByPensionId[_mPensionId]] */\n      0x00\n        /* \"contracts/core/treasury/MPTreasury.sol\":3347:3368  positionIdByPensionId */\n      0x06\n        /* \"contracts/core/treasury/MPTreasury.sol\":3347:3381  positionIdByPensionId[_mPensionId] */\n      0x00\n        /* \"contracts/core/treasury/MPTreasury.sol\":3369:3380  _mPensionId */\n      dup6\n        /* \"contracts/core/treasury/MPTreasury.sol\":3347:3381  positionIdByPensionId[_mPensionId] */\n      dup2\n      mstore\n      0x20\n      add\n      swap1\n      dup2\n      mstore\n      0x20\n      add\n      0x00\n      keccak256\n      sload\n        /* \"contracts/core/treasury/MPTreasury.sol\":3334:3382  positionById[positionIdByPensionId[_mPensionId]] */\n      dup2\n      mstore\n      0x20\n      add\n      swap1\n      dup2\n      mstore\n      0x20\n      add\n      0x00\n      keccak256\n        /* \"contracts/core/treasury/MPTreasury.sol\":3327:3382  return positionById[positionIdByPensionId[_mPensionId]] */\n      mload(0x40)\n      dup1\n      0x0100\n      add\n      0x40\n      mstore\n      swap1\n      dup2\n      0x00\n      dup3\n      add\n      sload\n      dup2\n      mstore\n      0x20\n      add\n      0x01\n      dup3\n      add\n      0x00\n      swap1\n      sload\n      swap1\n      0x0100\n      exp\n      swap1\n      div\n      0xff\n      and\n      0x01\n      dup2\n      gt\n      iszero\n      tag_72\n      jumpi\n      tag_73\n      tag_74\n      jump\t// in\n    tag_73:\n    tag_72:\n      0x01\n      dup2\n      gt\n      iszero\n      tag_75\n      jumpi\n      tag_76\n      tag_74\n      jump\t// in\n    tag_76:\n    tag_75:\n      dup2\n      mstore\n      0x20\n      add\n      0x02\n      dup3\n      add\n      sload\n      dup2\n      mstore\n      0x20\n      add\n      0x03\n      dup3\n      add\n      sload\n      dup2\n      mstore\n      0x20\n      add\n      0x04\n      dup3\n      add\n      0x00\n      swap1\n      sload\n      swap1\n      0x0100\n      exp\n      swap1\n      div\n      0xffffffffffffffffffffffffffffffffffffffff\n      and\n      0xffffffffffffffffffffffffffffffffffffffff\n      and\n      0xffffffffffffffffffffffffffffffffffffffff\n      and\n      dup2\n      mstore\n      0x20\n      add\n      0x05\n      dup3\n      add\n      sload\n      dup2\n      mstore\n      0x20\n      add\n      0x06\n      dup3\n      add\n      mload(0x40)\n      dup1\n      0x40\n      add\n      0x40\n      mstore\n      swap1\n      dup2\n      0x00\n      dup3\n      add\n      sload\n      dup2\n      mstore\n      0x20\n      add\n      0x01\n      dup3\n      add\n      sload\n      dup2\n      mstore\n      pop\n      pop\n      dup2\n      mstore\n      0x20\n      add\n      0x08\n      dup3\n      add\n      sload\n      dup2\n      mstore\n      pop\n      pop\n      swap1\n      pop\n        /* \"contracts/core/treasury/MPTreasury.sol\":3214:3390  function getPensionPositionId(uint256 _mPensionId) view external returns (Position memory _position) { ... */\n      swap2\n      swap1\n      pop\n      jump\t// out\n        /* \"contracts/core/treasury/MPTreasury.sol\":2214:2311  function getVersion() pure external returns (uint256 _version){ ... */\n    tag_23:\n        /* \"contracts/core/treasury/MPTreasury.sol\":2259:2275  uint256 _version */\n      0x00\n        /* \"contracts/core/treasury/MPTreasury.sol\":1055:1056  1 */\n      0x01\n        /* \"contracts/core/treasury/MPTreasury.sol\":2288:2302  return version */\n      swap1\n      pop\n        /* \"contracts/core/treasury/MPTreasury.sol\":2214:2311  function getVersion() pure external returns (uint256 _version){ ... */\n      swap1\n      jump\t// out\n        /* \"contracts/core/treasury/MPTreasury.sol\":2111:2206  function getName() pure external returns (string memory _name) { ... */\n    tag_27:\n        /* \"contracts/core/treasury/MPTreasury.sol\":2153:2172  string memory _name */\n      0x60\n        /* \"contracts/core/treasury/MPTreasury.sol\":2193:2197  name */\n      mload(0x40)\n      dup1\n      0x40\n      add\n      0x40\n      mstore\n      dup1\n      0x14\n      dup2\n      mstore\n      0x20\n      add\n      0x52455345525645445f4d505f5452454153555259000000000000000000000000\n      dup2\n      mstore\n      pop\n        /* \"contracts/core/treasury/MPTreasury.sol\":2186:2197  return name */\n      swap1\n      pop\n        /* \"contracts/core/treasury/MPTreasury.sol\":2111:2206  function getName() pure external returns (string memory _name) { ... */\n      swap1\n      jump\t// out\n        /* \"contracts/core/treasury/MPTreasury.sol\":2604:2722  function getPositionIds() view external returns (uint256 [] memory _positionIds){... */\n    tag_31:\n        /* \"contracts/core/treasury/MPTreasury.sol\":2653:2683  uint256 [] memory _positionIds */\n      0x60\n        /* \"contracts/core/treasury/MPTreasury.sol\":2702:2713  positionIds */\n      0x04\n        /* \"contracts/core/treasury/MPTreasury.sol\":2695:2713  return positionIds */\n      dup1\n      sload\n      dup1\n      0x20\n      mul\n      0x20\n      add\n      mload(0x40)\n      swap1\n      dup2\n      add\n      0x40\n      mstore\n      dup1\n      swap3\n      swap2\n      swap1\n      dup2\n      dup2\n      mstore\n      0x20\n      add\n      dup3\n      dup1\n      sload\n      dup1\n      iszero\n      tag_80\n      jumpi\n      0x20\n      mul\n      dup3\n      add\n      swap2\n      swap1\n      0x00\n      mstore\n      keccak256(0x00, 0x20)\n      swap1\n    tag_81:\n      dup2\n      sload\n      dup2\n      mstore\n      0x20\n      add\n      swap1\n      0x01\n      add\n      swap1\n      dup1\n      dup4\n      gt\n      tag_81\n      jumpi\n    tag_80:\n      pop\n      pop\n      pop\n      pop\n      pop\n      swap1\n      pop\n        /* \"contracts/core/treasury/MPTreasury.sol\":2604:2722  function getPositionIds() view external returns (uint256 [] memory _positionIds){... */\n      swap1\n      jump\t// out\n        /* \"contracts/core/treasury/MPTreasury.sol\":3048:3206  function hasOpenPositions(uint256 _bondId) view external returns (bool _hasOpenPositions) {... */\n    tag_36:\n        /* \"contracts/core/treasury/MPTreasury.sol\":3114:3136  bool _hasOpenPositions */\n      0x00\n        /* \"contracts/core/treasury/MPTreasury.sol\":3197:3198  0 */\n      0x00\n        /* \"contracts/core/treasury/MPTreasury.sol\":3156:3177  openPositionsByBondId */\n      0x08\n        /* \"contracts/core/treasury/MPTreasury.sol\":3156:3186  openPositionsByBondId[_bondId] */\n      0x00\n        /* \"contracts/core/treasury/MPTreasury.sol\":3178:3185  _bondId */\n      dup5\n        /* \"contracts/core/treasury/MPTreasury.sol\":3156:3186  openPositionsByBondId[_bondId] */\n      dup2\n      mstore\n      0x20\n      add\n      swap1\n      dup2\n      mstore\n      0x20\n      add\n      0x00\n      keccak256\n        /* \"contracts/core/treasury/MPTreasury.sol\":3156:3193  openPositionsByBondId[_bondId].length */\n      dup1\n      sload\n      swap1\n      pop\n        /* \"contracts/core/treasury/MPTreasury.sol\":3156:3198  openPositionsByBondId[_bondId].length != 0 */\n      eq\n      iszero\n        /* \"contracts/core/treasury/MPTreasury.sol\":3149:3198  return openPositionsByBondId[_bondId].length != 0 */\n      swap1\n      pop\n        /* \"contracts/core/treasury/MPTreasury.sol\":3048:3206  function hasOpenPositions(uint256 _bondId) view external returns (bool _hasOpenPositions) {... */\n      swap2\n      swap1\n      pop\n      jump\t// out\n        /* \"contracts/core/treasury/MPTreasury.sol\":2451:2596  function isAllowedBondToken(address _erc20) view external returns (bool _isAllowed){... */\n    tag_42:\n        /* \"contracts/core/treasury/MPTreasury.sol\":2518:2533  bool _isAllowed */\n      0x00\n        /* \"contracts/core/treasury/MPTreasury.sol\":2552:2579  isAllowedBondTokenByAddress */\n      0x02\n        /* \"contracts/core/treasury/MPTreasury.sol\":2552:2587  isAllowedBondTokenByAddress[_erc20] */\n      0x00\n        /* \"contracts/core/treasury/MPTreasury.sol\":2580:2586  _erc20 */\n      dup4\n        /* \"contracts/core/treasury/MPTreasury.sol\":2552:2587  isAllowedBondTokenByAddress[_erc20] */\n      0xffffffffffffffffffffffffffffffffffffffff\n      and\n      0xffffffffffffffffffffffffffffffffffffffff\n      and\n      dup2\n      mstore\n      0x20\n      add\n      swap1\n      dup2\n      mstore\n      0x20\n      add\n      0x00\n      keccak256\n      0x00\n      swap1\n      sload\n      swap1\n      0x0100\n      exp\n      swap1\n      div\n      0xff\n      and\n        /* \"contracts/core/treasury/MPTreasury.sol\":2545:2587  return isAllowedBondTokenByAddress[_erc20] */\n      swap1\n      pop\n        /* \"contracts/core/treasury/MPTreasury.sol\":2451:2596  function isAllowedBondToken(address _erc20) view external returns (bool _isAllowed){... */\n      swap2\n      swap1\n      pop\n      jump\t// out\n        /* \"contracts/core/treasury/MPTreasury.sol\":2319:2443  function getAllowedBondTokens() view external returns (address [] memory _erc20){... */\n    tag_45:\n        /* \"contracts/core/treasury/MPTreasury.sol\":2374:2398  address [] memory _erc20 */\n      0x60\n        /* \"contracts/core/treasury/MPTreasury.sol\":2417:2434  allowedBondTokens */\n      0x01\n        /* \"contracts/core/treasury/MPTreasury.sol\":2410:2434  return allowedBondTokens */\n      dup1\n      sload\n      dup1\n      0x20\n      mul\n      0x20\n      add\n      mload(0x40)\n      swap1\n      dup2\n      add\n      0x40\n      mstore\n      dup1\n      swap3\n      swap2\n      swap1\n      dup2\n      dup2\n      mstore\n      0x20\n      add\n      dup3\n      dup1\n      sload\n      dup1\n      iszero\n      tag_85\n      jumpi\n      0x20\n      mul\n      dup3\n      add\n      swap2\n      swap1\n      0x00\n      mstore\n      keccak256(0x00, 0x20)\n      swap1\n    tag_86:\n      dup2\n      0x00\n      swap1\n      sload\n      swap1\n      0x0100\n      exp\n      swap1\n      div\n      0xffffffffffffffffffffffffffffffffffffffff\n      and\n      0xffffffffffffffffffffffffffffffffffffffff\n      and\n      dup2\n      mstore\n      0x20\n      add\n      swap1\n      0x01\n      add\n      swap1\n      dup1\n      dup4\n      gt\n      tag_86\n      jumpi\n    tag_85:\n      pop\n      pop\n      pop\n      pop\n      pop\n      swap1\n      pop\n        /* \"contracts/core/treasury/MPTreasury.sol\":2319:2443  function getAllowedBondTokens() view external returns (address [] memory _erc20){... */\n      swap1\n      jump\t// out\n        /* \"contracts/core/treasury/MPTreasury.sol\":5714:7499  function divest(uint256 _positionId) external bondHolderOnly returns (uint256 _txId){... */\n    tag_50:\n        /* \"contracts/core/treasury/MPTreasury.sol\":5784:5797  uint256 _txId */\n      0x00\n        /* \"contracts/core/treasury/MPTreasury.sol\":676:684  register */\n      0x00\n      0x00\n      swap1\n      sload\n      swap1\n      0x0100\n      exp\n      swap1\n      div\n      0xffffffffffffffffffffffffffffffffffffffff\n      and\n        /* \"contracts/core/treasury/MPTreasury.sol\":676:695  register.getAddress */\n      0xffffffffffffffffffffffffffffffffffffffff\n      and\n      0xbf40fac1\n        /* \"contracts/core/treasury/MPTreasury.sol\":696:711  BOND_MANAGER_CA */\n      mload(0x40)\n      dup1\n      0x40\n      add\n      0x40\n      mstore\n      dup1\n      0x15\n      dup2\n      mstore\n      0x20\n      add\n      0x52455345525645445f424f4e445f4d414e414745520000000000000000000000\n      dup2\n      mstore\n      pop\n        /* \"contracts/core/treasury/MPTreasury.sol\":676:712  register.getAddress(BOND_MANAGER_CA) */\n      mload(0x40)\n      dup3\n      0xffffffff\n      and\n      0xe0\n      shl\n      dup2\n      mstore\n      0x04\n      add\n      tag_88\n      swap2\n      swap1\n      tag_29\n      jump\t// in\n    tag_88:\n      0x20\n      mload(0x40)\n      dup1\n      dup4\n      sub\n      dup2\n      dup7\n      gas\n      staticcall\n      iszero\n      dup1\n      iszero\n      tag_90\n      jumpi\n      returndatacopy(0x00, 0x00, returndatasize)\n      revert(0x00, returndatasize)\n    tag_90:\n      pop\n      pop\n      pop\n      pop\n      mload(0x40)\n      returndatasize\n      not(0x1f)\n      0x1f\n      dup3\n      add\n      and\n      dup3\n      add\n      dup1\n      0x40\n      mstore\n      pop\n      dup2\n      add\n      swap1\n      tag_91\n      swap2\n      swap1\n      tag_92\n      jump\t// in\n    tag_91:\n        /* \"contracts/core/treasury/MPTreasury.sol\":661:721  IMPBondManager(register.getAddress(BOND_MANAGER_CA)).hasBond */\n      0xffffffffffffffffffffffffffffffffffffffff\n      and\n      0xce862001\n        /* \"contracts/core/treasury/MPTreasury.sol\":722:739  BondType.TREASURY */\n      0x00\n        /* \"contracts/core/treasury/MPTreasury.sol\":741:751  msg.sender */\n      caller\n        /* \"contracts/core/treasury/MPTreasury.sol\":661:752  IMPBondManager(register.getAddress(BOND_MANAGER_CA)).hasBond(BondType.TREASURY, msg.sender) */\n      mload(0x40)\n      dup4\n      0xffffffff\n      and\n      0xe0\n      shl\n      dup2\n      mstore\n      0x04\n      add\n      tag_93\n      swap3\n      swap2\n      swap1\n      tag_94\n      jump\t// in\n    tag_93:\n      0x20\n      mload(0x40)\n      dup1\n      dup4\n      sub\n      dup2\n      dup7\n      gas\n      staticcall\n      iszero\n      dup1\n      iszero\n      tag_96\n      jumpi\n      returndatacopy(0x00, 0x00, returndatasize)\n      revert(0x00, returndatasize)\n    tag_96:\n      pop\n      pop\n      pop\n      pop\n      mload(0x40)\n      returndatasize\n      not(0x1f)\n      0x1f\n      dup3\n      add\n      and\n      dup3\n      add\n      dup1\n      0x40\n      mstore\n      pop\n      dup2\n      add\n      swap1\n      tag_97\n      swap2\n      swap1\n      tag_98\n      jump\t// in\n    tag_97:\n        /* \"contracts/core/treasury/MPTreasury.sol\":653:773  require(IMPBondManager(register.getAddress(BOND_MANAGER_CA)).hasBond(BondType.TREASURY, msg.sender), \"no treasury bond\") */\n      tag_99\n      jumpi\n      mload(0x40)\n      0x08c379a000000000000000000000000000000000000000000000000000000000\n      dup2\n      mstore\n      0x04\n      add\n      tag_100\n      swap1\n      tag_101\n      jump\t// in\n    tag_100:\n      mload(0x40)\n      dup1\n      swap2\n      sub\n      swap1\n      revert\n    tag_99:\n        /* \"contracts/core/treasury/MPTreasury.sol\":5844:5865  PositionStatus.CLOSED */\n      0x01\n        /* \"contracts/core/treasury/MPTreasury.sol\":5809:5821  positionById */\n      0x05\n        /* \"contracts/core/treasury/MPTreasury.sol\":5809:5834  positionById[_positionId] */\n      0x00\n        /* \"contracts/core/treasury/MPTreasury.sol\":5822:5833  _positionId */\n      dup5\n        /* \"contracts/core/treasury/MPTreasury.sol\":5809:5834  positionById[_positionId] */\n      dup2\n      mstore\n      0x20\n      add\n      swap1\n      dup2\n      mstore\n      0x20\n      add\n      0x00\n      keccak256\n        /* \"contracts/core/treasury/MPTreasury.sol\":5809:5841  positionById[_positionId].status */\n      0x01\n      add\n      0x00\n        /* \"contracts/core/treasury/MPTreasury.sol\":5809:5865  positionById[_positionId].status = PositionStatus.CLOSED */\n      0x0100\n      exp\n      dup2\n      sload\n      dup2\n      0xff\n      mul\n      not\n      and\n      swap1\n      dup4\n      0x01\n      dup2\n      gt\n      iszero\n      tag_103\n      jumpi\n      tag_104\n      tag_74\n      jump\t// in\n    tag_104:\n    tag_103:\n      mul\n      or\n      swap1\n      sstore\n      pop\n        /* \"contracts/core/treasury/MPTreasury.sol\":5885:5916  IMPMarketManager marketManager_ */\n      0x00\n        /* \"contracts/core/treasury/MPTreasury.sol\":5936:5944  register */\n      0x00\n      0x00\n      swap1\n      sload\n      swap1\n      0x0100\n      exp\n      swap1\n      div\n      0xffffffffffffffffffffffffffffffffffffffff\n      and\n        /* \"contracts/core/treasury/MPTreasury.sol\":5936:5955  register.getAddress */\n      0xffffffffffffffffffffffffffffffffffffffff\n      and\n      0xbf40fac1\n        /* \"contracts/core/treasury/MPTreasury.sol\":5956:5973  MARKET_MANAGER_CA */\n      mload(0x40)\n      dup1\n      0x40\n      add\n      0x40\n      mstore\n      dup1\n      0x1a\n      dup2\n      mstore\n      0x20\n      add\n      0x52455345525645445f4d505f4d41524b45545f4d414e41474552000000000000\n      dup2\n      mstore\n      pop\n        /* \"contracts/core/treasury/MPTreasury.sol\":5936:5974  register.getAddress(MARKET_MANAGER_CA) */\n      mload(0x40)\n      dup3\n      0xffffffff\n      and\n      0xe0\n      shl\n      dup2\n      mstore\n      0x04\n      add\n      tag_105\n      swap2\n      swap1\n      tag_29\n      jump\t// in\n    tag_105:\n      0x20\n      mload(0x40)\n      dup1\n      dup4\n      sub\n      dup2\n      dup7\n      gas\n      staticcall\n      iszero\n      dup1\n      iszero\n      tag_107\n      jumpi\n      returndatacopy(0x00, 0x00, returndatasize)\n      revert(0x00, returndatasize)\n    tag_107:\n      pop\n      pop\n      pop\n      pop\n      mload(0x40)\n      returndatasize\n      not(0x1f)\n      0x1f\n      dup3\n      add\n      and\n      dup3\n      add\n      dup1\n      0x40\n      mstore\n      pop\n      dup2\n      add\n      swap1\n      tag_108\n      swap2\n      swap1\n      tag_92\n      jump\t// in\n    tag_108:\n        /* \"contracts/core/treasury/MPTreasury.sol\":5885:5975  IMPMarketManager marketManager_ = IMPMarketManager(register.getAddress(MARKET_MANAGER_CA)) */\n      swap1\n      pop\n        /* \"contracts/core/treasury/MPTreasury.sol\":5988:6009  uint256 returnAmount_ */\n      0x00\n        /* \"contracts/core/treasury/MPTreasury.sol\":6011:6024  uint256 txId_ */\n      0x00\n        /* \"contracts/core/treasury/MPTreasury.sol\":6028:6042  marketManager_ */\n      dup3\n        /* \"contracts/core/treasury/MPTreasury.sol\":6028:6056  marketManager_.closePosition */\n      0xffffffffffffffffffffffffffffffffffffffff\n      and\n      0x2d6ce61d\n        /* \"contracts/core/treasury/MPTreasury.sol\":6057:6069  positionById */\n      0x05\n        /* \"contracts/core/treasury/MPTreasury.sol\":6057:6082  positionById[_positionId] */\n      0x00\n        /* \"contracts/core/treasury/MPTreasury.sol\":6070:6081  _positionId */\n      dup9\n        /* \"contracts/core/treasury/MPTreasury.sol\":6057:6082  positionById[_positionId] */\n      dup2\n      mstore\n      0x20\n      add\n      swap1\n      dup2\n      mstore\n      0x20\n      add\n      0x00\n      keccak256\n        /* \"contracts/core/treasury/MPTreasury.sol\":6057:6091  positionById[_positionId].marketId */\n      0x08\n      add\n      sload\n        /* \"contracts/core/treasury/MPTreasury.sol\":6093:6104  _positionId */\n      dup8\n        /* \"contracts/core/treasury/MPTreasury.sol\":6028:6105  marketManager_.closePosition(positionById[_positionId].marketId, _positionId) */\n      mload(0x40)\n      dup4\n      0xffffffff\n      and\n      0xe0\n      shl\n      dup2\n      mstore\n      0x04\n      add\n      tag_109\n      swap3\n      swap2\n      swap1\n      tag_60\n      jump\t// in\n    tag_109:\n      0x40\n      dup1\n      mload\n      dup1\n      dup4\n      sub\n      dup2\n      0x00\n      dup8\n      gas\n      call\n      iszero\n      dup1\n      iszero\n      tag_111\n      jumpi\n      returndatacopy(0x00, 0x00, returndatasize)\n      revert(0x00, returndatasize)\n    tag_111:\n      pop\n      pop\n      pop\n      pop\n      mload(0x40)\n      returndatasize\n      not(0x1f)\n      0x1f\n      dup3\n      add\n      and\n      dup3\n      add\n      dup1\n      0x40\n      mstore\n      pop\n      dup2\n      add\n      swap1\n      tag_112\n      swap2\n      swap1\n      tag_113\n      jump\t// in\n    tag_112:\n        /* \"contracts/core/treasury/MPTreasury.sol\":5987:6105  (uint256 returnAmount_, uint256 txId_) = marketManager_.closePosition(positionById[_positionId].marketId, _positionId) */\n      swap2\n      pop\n      swap2\n      pop\n        /* \"contracts/core/treasury/MPTreasury.sol\":6116:6133  txIdsByPositionId */\n      0x07\n        /* \"contracts/core/treasury/MPTreasury.sol\":6116:6146  txIdsByPositionId[_positionId] */\n      0x00\n        /* \"contracts/core/treasury/MPTreasury.sol\":6134:6145  _positionId */\n      dup7\n        /* \"contracts/core/treasury/MPTreasury.sol\":6116:6146  txIdsByPositionId[_positionId] */\n      dup2\n      mstore\n      0x20\n      add\n      swap1\n      dup2\n      mstore\n      0x20\n      add\n      0x00\n      keccak256\n        /* \"contracts/core/treasury/MPTreasury.sol\":6152:6157  txId_ */\n      dup2\n        /* \"contracts/core/treasury/MPTreasury.sol\":6116:6158  txIdsByPositionId[_positionId].push(txId_) */\n      swap1\n      dup1\n      0x01\n      dup2\n      sload\n      add\n      dup1\n      dup3\n      sstore\n      dup1\n      swap2\n      pop\n      pop\n      0x01\n      swap1\n      sub\n      swap1\n      0x00\n      mstore\n      keccak256(0x00, 0x20)\n      add\n      0x00\n      swap1\n      swap2\n      swap1\n      swap2\n      swap1\n      swap2\n      pop\n      sstore\n        /* \"contracts/core/treasury/MPTreasury.sol\":6214:6284  MPLib.transferIn(positionById[_positionId].token, returnAmount_, self) */\n      tag_115\n        /* \"contracts/core/treasury/MPTreasury.sol\":6231:6243  positionById */\n      0x05\n        /* \"contracts/core/treasury/MPTreasury.sol\":6231:6256  positionById[_positionId] */\n      0x00\n        /* \"contracts/core/treasury/MPTreasury.sol\":6244:6255  _positionId */\n      dup8\n        /* \"contracts/core/treasury/MPTreasury.sol\":6231:6256  positionById[_positionId] */\n      dup2\n      mstore\n      0x20\n      add\n      swap1\n      dup2\n      mstore\n      0x20\n      add\n      0x00\n      keccak256\n        /* \"contracts/core/treasury/MPTreasury.sol\":6231:6262  positionById[_positionId].token */\n      0x04\n      add\n      0x00\n      swap1\n      sload\n      swap1\n      0x0100\n      exp\n      swap1\n      div\n      0xffffffffffffffffffffffffffffffffffffffff\n      and\n        /* \"contracts/core/treasury/MPTreasury.sol\":6264:6277  returnAmount_ */\n      dup4\n        /* \"contracts/core/treasury/MPTreasury.sol\":6279:6283  self */\n      immutable(\"0x0330c0d84464f890f3c81afbba7a3a05e0e864ec2e31676dedcb075b2bf855a0\")\n        /* \"contracts/core/treasury/MPTreasury.sol\":6214:6230  MPLib.transferIn */\n      tag_116\n        /* \"contracts/core/treasury/MPTreasury.sol\":6214:6284  MPLib.transferIn(positionById[_positionId].token, returnAmount_, self) */\n      jump\t// in\n    tag_115:\n      pop\n        /* \"contracts/core/treasury/MPTreasury.sol\":6297:6321  MPension memory pension_ */\n      0x00\n        /* \"contracts/core/treasury/MPTreasury.sol\":6324:6380  getPensionInternal(positionById[_positionId].mPensionId) */\n      tag_117\n        /* \"contracts/core/treasury/MPTreasury.sol\":6343:6355  positionById */\n      0x05\n        /* \"contracts/core/treasury/MPTreasury.sol\":6343:6368  positionById[_positionId] */\n      0x00\n        /* \"contracts/core/treasury/MPTreasury.sol\":6356:6367  _positionId */\n      dup9\n        /* \"contracts/core/treasury/MPTreasury.sol\":6343:6368  positionById[_positionId] */\n      dup2\n      mstore\n      0x20\n      add\n      swap1\n      dup2\n      mstore\n      0x20\n      add\n      0x00\n      keccak256\n        /* \"contracts/core/treasury/MPTreasury.sol\":6343:6379  positionById[_positionId].mPensionId */\n      0x02\n      add\n      sload\n        /* \"contracts/core/treasury/MPTreasury.sol\":6324:6342  getPensionInternal */\n      tag_118\n        /* \"contracts/core/treasury/MPTreasury.sol\":6324:6380  getPensionInternal(positionById[_positionId].mPensionId) */\n      jump\t// in\n    tag_117:\n        /* \"contracts/core/treasury/MPTreasury.sol\":6297:6380  MPension memory pension_ = getPensionInternal(positionById[_positionId].mPensionId) */\n      swap1\n      pop\n        /* \"contracts/core/treasury/MPTreasury.sol\":6391:6412  IMPensionVault vault_ */\n      0x00\n        /* \"contracts/core/treasury/MPTreasury.sol\":6430:6438  pension_ */\n      dup2\n        /* \"contracts/core/treasury/MPTreasury.sol\":6430:6444  pension_.vault */\n      0x60\n      add\n      mload\n        /* \"contracts/core/treasury/MPTreasury.sol\":6391:6445  IMPensionVault vault_ = IMPensionVault(pension_.vault) */\n      swap1\n      pop\n        /* \"contracts/core/treasury/MPTreasury.sol\":6456:6473  uint256 earnings_ */\n      0x00\n        /* \"contracts/core/treasury/MPTreasury.sol\":6492:6504  positionById */\n      0x05\n        /* \"contracts/core/treasury/MPTreasury.sol\":6492:6517  positionById[_positionId] */\n      0x00\n        /* \"contracts/core/treasury/MPTreasury.sol\":6505:6516  _positionId */\n      dup10\n        /* \"contracts/core/treasury/MPTreasury.sol\":6492:6517  positionById[_positionId] */\n      dup2\n      mstore\n      0x20\n      add\n      swap1\n      dup2\n      mstore\n      0x20\n      add\n      0x00\n      keccak256\n        /* \"contracts/core/treasury/MPTreasury.sol\":6492:6524  positionById[_positionId].amount */\n      0x03\n      add\n      sload\n        /* \"contracts/core/treasury/MPTreasury.sol\":6476:6489  returnAmount_ */\n      dup6\n        /* \"contracts/core/treasury/MPTreasury.sol\":6476:6524  returnAmount_ - positionById[_positionId].amount */\n      tag_119\n      swap2\n      swap1\n      tag_120\n      jump\t// in\n    tag_119:\n        /* \"contracts/core/treasury/MPTreasury.sol\":6456:6524  uint256 earnings_ = returnAmount_ - positionById[_positionId].amount */\n      swap1\n      pop\n        /* \"contracts/core/treasury/MPTreasury.sol\":1506:1548  0xEeeeeEeeeEeEeeEeEeEeeEEEeeeeEeeeeeeeEEeE */\n      0xeeeeeeeeeeeeeeeeeeeeeeeeeeeeeeeeeeeeeeee\n        /* \"contracts/core/treasury/MPTreasury.sol\":6591:6632  positionById[_positionId].token == NATIVE */\n      0xffffffffffffffffffffffffffffffffffffffff\n      and\n        /* \"contracts/core/treasury/MPTreasury.sol\":6591:6603  positionById */\n      0x05\n        /* \"contracts/core/treasury/MPTreasury.sol\":6591:6616  positionById[_positionId] */\n      0x00\n        /* \"contracts/core/treasury/MPTreasury.sol\":6604:6615  _positionId */\n      dup11\n        /* \"contracts/core/treasury/MPTreasury.sol\":6591:6616  positionById[_positionId] */\n      dup2\n      mstore\n      0x20\n      add\n      swap1\n      dup2\n      mstore\n      0x20\n      add\n      0x00\n      keccak256\n        /* \"contracts/core/treasury/MPTreasury.sol\":6591:6622  positionById[_positionId].token */\n      0x04\n      add\n      0x00\n      swap1\n      sload\n      swap1\n      0x0100\n      exp\n      swap1\n      div\n      0xffffffffffffffffffffffffffffffffffffffff\n      and\n        /* \"contracts/core/treasury/MPTreasury.sol\":6591:6632  positionById[_positionId].token == NATIVE */\n      0xffffffffffffffffffffffffffffffffffffffff\n      and\n      sub\n        /* \"contracts/core/treasury/MPTreasury.sol\":6588:6997  if(positionById[_positionId].token == NATIVE){... */\n      tag_121\n      jumpi\n        /* \"contracts/core/treasury/MPTreasury.sol\":6648:6654  vault_ */\n      dup2\n        /* \"contracts/core/treasury/MPTreasury.sol\":6648:6659  vault_.push */\n      0xffffffffffffffffffffffffffffffffffffffff\n      and\n      0x9f08c755\n        /* \"contracts/core/treasury/MPTreasury.sol\":6668:6681  returnAmount_ */\n      dup7\n        /* \"contracts/core/treasury/MPTreasury.sol\":6683:6694  _positionId */\n      dup11\n        /* \"contracts/core/treasury/MPTreasury.sol\":6696:6708  positionById */\n      0x05\n        /* \"contracts/core/treasury/MPTreasury.sol\":6696:6721  positionById[_positionId] */\n      0x00\n        /* \"contracts/core/treasury/MPTreasury.sol\":6709:6720  _positionId */\n      dup14\n        /* \"contracts/core/treasury/MPTreasury.sol\":6696:6721  positionById[_positionId] */\n      dup2\n      mstore\n      0x20\n      add\n      swap1\n      dup2\n      mstore\n      0x20\n      add\n      0x00\n      keccak256\n        /* \"contracts/core/treasury/MPTreasury.sol\":6696:6728  positionById[_positionId].amount */\n      0x03\n      add\n      sload\n        /* \"contracts/core/treasury/MPTreasury.sol\":6730:6739  earnings_ */\n      dup6\n        /* \"contracts/core/treasury/MPTreasury.sol\":6648:6741  vault_.push{value : returnAmount_}(_positionId, positionById[_positionId].amount, earnings_ ) */\n      mload(0x40)\n      dup6\n      0xffffffff\n      and\n      0xe0\n      shl\n      dup2\n      mstore\n      0x04\n      add\n      tag_122\n      swap4\n      swap3\n      swap2\n      swap1\n      tag_123\n      jump\t// in\n    tag_122:\n      0x20\n      mload(0x40)\n      dup1\n      dup4\n      sub\n      dup2\n      dup6\n      dup9\n      gas\n      call\n      iszero\n      dup1\n      iszero\n      tag_125\n      jumpi\n      returndatacopy(0x00, 0x00, returndatasize)\n      revert(0x00, returndatasize)\n    tag_125:\n      pop\n      pop\n      pop\n      pop\n      pop\n      mload(0x40)\n      returndatasize\n      not(0x1f)\n      0x1f\n      dup3\n      add\n      and\n      dup3\n      add\n      dup1\n      0x40\n      mstore\n      pop\n      dup2\n      add\n      swap1\n      tag_126\n      swap2\n      swap1\n      tag_127\n      jump\t// in\n    tag_126:\n      pop\n        /* \"contracts/core/treasury/MPTreasury.sol\":6588:6997  if(positionById[_positionId].token == NATIVE){... */\n      jump(tag_128)\n    tag_121:\n        /* \"contracts/core/treasury/MPTreasury.sol\":6783:6796  IERC20 erc20_ */\n      0x00\n        /* \"contracts/core/treasury/MPTreasury.sol\":6806:6818  positionById */\n      0x05\n        /* \"contracts/core/treasury/MPTreasury.sol\":6806:6831  positionById[_positionId] */\n      0x00\n        /* \"contracts/core/treasury/MPTreasury.sol\":6819:6830  _positionId */\n      dup11\n        /* \"contracts/core/treasury/MPTreasury.sol\":6806:6831  positionById[_positionId] */\n      dup2\n      mstore\n      0x20\n      add\n      swap1\n      dup2\n      mstore\n      0x20\n      add\n      0x00\n      keccak256\n        /* \"contracts/core/treasury/MPTreasury.sol\":6806:6837  positionById[_positionId].token */\n      0x04\n      add\n      0x00\n      swap1\n      sload\n      swap1\n      0x0100\n      exp\n      swap1\n      div\n      0xffffffffffffffffffffffffffffffffffffffff\n      and\n        /* \"contracts/core/treasury/MPTreasury.sol\":6783:6838  IERC20 erc20_ = IERC20(positionById[_positionId].token) */\n      swap1\n      pop\n        /* \"contracts/core/treasury/MPTreasury.sol\":6853:6859  erc20_ */\n      dup1\n        /* \"contracts/core/treasury/MPTreasury.sol\":6853:6867  erc20_.approve */\n      0xffffffffffffffffffffffffffffffffffffffff\n      and\n      0x095ea7b3\n        /* \"contracts/core/treasury/MPTreasury.sol\":6876:6882  vault_ */\n      dup5\n        /* \"contracts/core/treasury/MPTreasury.sol\":6885:6898  returnAmount_ */\n      dup9\n        /* \"contracts/core/treasury/MPTreasury.sol\":6853:6899  erc20_.approve(address(vault_), returnAmount_) */\n      mload(0x40)\n      dup4\n      0xffffffff\n      and\n      0xe0\n      shl\n      dup2\n      mstore\n      0x04\n      add\n      tag_129\n      swap3\n      swap2\n      swap1\n      tag_130\n      jump\t// in\n    tag_129:\n      0x20\n      mload(0x40)\n      dup1\n      dup4\n      sub\n      dup2\n      0x00\n      dup8\n      gas\n      call\n      iszero\n      dup1\n      iszero\n      tag_132\n      jumpi\n      returndatacopy(0x00, 0x00, returndatasize)\n      revert(0x00, returndatasize)\n    tag_132:\n      pop\n      pop\n      pop\n      pop\n      mload(0x40)\n      returndatasize\n      not(0x1f)\n      0x1f\n      dup3\n      add\n      and\n      dup3\n      add\n      dup1\n      0x40\n      mstore\n      pop\n      dup2\n      add\n      swap1\n      tag_133\n      swap2\n      swap1\n      tag_98\n      jump\t// in\n    tag_133:\n      pop\n        /* \"contracts/core/treasury/MPTreasury.sol\":6915:6921  vault_ */\n      dup3\n        /* \"contracts/core/treasury/MPTreasury.sol\":6915:6926  vault_.push */\n      0xffffffffffffffffffffffffffffffffffffffff\n      and\n      0x9f08c755\n        /* \"contracts/core/treasury/MPTreasury.sol\":6927:6938  _positionId */\n      dup11\n        /* \"contracts/core/treasury/MPTreasury.sol\":6940:6952  positionById */\n      0x05\n        /* \"contracts/core/treasury/MPTreasury.sol\":6940:6965  positionById[_positionId] */\n      0x00\n        /* \"contracts/core/treasury/MPTreasury.sol\":6953:6964  _positionId */\n      dup14\n        /* \"contracts/core/treasury/MPTreasury.sol\":6940:6965  positionById[_positionId] */\n      dup2\n      mstore\n      0x20\n      add\n      swap1\n      dup2\n      mstore\n      0x20\n      add\n      0x00\n      keccak256\n        /* \"contracts/core/treasury/MPTreasury.sol\":6940:6972  positionById[_positionId].amount */\n      0x03\n      add\n      sload\n        /* \"contracts/core/treasury/MPTreasury.sol\":6974:6983  earnings_ */\n      dup6\n        /* \"contracts/core/treasury/MPTreasury.sol\":6915:6985  vault_.push(_positionId, positionById[_positionId].amount, earnings_ ) */\n      mload(0x40)\n      dup5\n      0xffffffff\n      and\n      0xe0\n      shl\n      dup2\n      mstore\n      0x04\n      add\n      tag_134\n      swap4\n      swap3\n      swap2\n      swap1\n      tag_123\n      jump\t// in\n    tag_134:\n      0x20\n      mload(0x40)\n      dup1\n      dup4\n      sub\n      dup2\n      0x00\n      dup8\n      gas\n      call\n      iszero\n      dup1\n      iszero\n      tag_136\n      jumpi\n      returndatacopy(0x00, 0x00, returndatasize)\n      revert(0x00, returndatasize)\n    tag_136:\n      pop\n      pop\n      pop\n      pop\n      mload(0x40)\n      returndatasize\n      not(0x1f)\n      0x1f\n      dup3\n      add\n      and\n      dup3\n      add\n      dup1\n      0x40\n      mstore\n      pop\n      dup2\n      add\n      swap1\n      tag_137\n      swap2\n      swap1\n      tag_127\n      jump\t// in\n    tag_137:\n      pop\n        /* \"contracts/core/treasury/MPTreasury.sol\":6768:6997  {... */\n      pop\n        /* \"contracts/core/treasury/MPTreasury.sol\":6588:6997  if(positionById[_positionId].token == NATIVE){... */\n    tag_128:\n        /* \"contracts/core/treasury/MPTreasury.sol\":7039:7064  SecurityBond memory bond_ */\n      0x00\n        /* \"contracts/core/treasury/MPTreasury.sol\":7082:7090  register */\n      0x00\n      0x00\n      swap1\n      sload\n      swap1\n      0x0100\n      exp\n      swap1\n      div\n      0xffffffffffffffffffffffffffffffffffffffff\n      and\n        /* \"contracts/core/treasury/MPTreasury.sol\":7082:7101  register.getAddress */\n      0xffffffffffffffffffffffffffffffffffffffff\n      and\n      0xbf40fac1\n        /* \"contracts/core/treasury/MPTreasury.sol\":7102:7117  BOND_MANAGER_CA */\n      mload(0x40)\n      dup1\n      0x40\n      add\n      0x40\n      mstore\n      dup1\n      0x15\n      dup2\n      mstore\n      0x20\n      add\n      0x52455345525645445f424f4e445f4d414e414745520000000000000000000000\n      dup2\n      mstore\n      pop\n        /* \"contracts/core/treasury/MPTreasury.sol\":7082:7118  register.getAddress(BOND_MANAGER_CA) */\n      mload(0x40)\n      dup3\n      0xffffffff\n      and\n      0xe0\n      shl\n      dup2\n      mstore\n      0x04\n      add\n      tag_138\n      swap2\n      swap1\n      tag_29\n      jump\t// in\n    tag_138:\n      0x20\n      mload(0x40)\n      dup1\n      dup4\n      sub\n      dup2\n      dup7\n      gas\n      staticcall\n      iszero\n      dup1\n      iszero\n      tag_140\n      jumpi\n      returndatacopy(0x00, 0x00, returndatasize)\n      revert(0x00, returndatasize)\n    tag_140:\n      pop\n      pop\n      pop\n      pop\n      mload(0x40)\n      returndatasize\n      not(0x1f)\n      0x1f\n      dup3\n      add\n      and\n      dup3\n      add\n      dup1\n      0x40\n      mstore\n      pop\n      dup2\n      add\n      swap1\n      tag_141\n      swap2\n      swap1\n      tag_92\n      jump\t// in\n    tag_141:\n        /* \"contracts/core/treasury/MPTreasury.sol\":7067:7131  IMPBondManager(register.getAddress(BOND_MANAGER_CA)).getUserBond */\n      0xffffffffffffffffffffffffffffffffffffffff\n      and\n      0x012fe794\n        /* \"contracts/core/treasury/MPTreasury.sol\":7132:7149  BondType.TREASURY */\n      0x00\n        /* \"contracts/core/treasury/MPTreasury.sol\":7151:7161  msg.sender */\n      caller\n        /* \"contracts/core/treasury/MPTreasury.sol\":7067:7162  IMPBondManager(register.getAddress(BOND_MANAGER_CA)).getUserBond(BondType.TREASURY, msg.sender) */\n      mload(0x40)\n      dup4\n      0xffffffff\n      and\n      0xe0\n      shl\n      dup2\n      mstore\n      0x04\n      add\n      tag_142\n      swap3\n      swap2\n      swap1\n      tag_94\n      jump\t// in\n    tag_142:\n      0xc0\n      mload(0x40)\n      dup1\n      dup4\n      sub\n      dup2\n      dup7\n      gas\n      staticcall\n      iszero\n      dup1\n      iszero\n      tag_144\n      jumpi\n      returndatacopy(0x00, 0x00, returndatasize)\n      revert(0x00, returndatasize)\n    tag_144:\n      pop\n      pop\n      pop\n      pop\n      mload(0x40)\n      returndatasize\n      not(0x1f)\n      0x1f\n      dup3\n      add\n      and\n      dup3\n      add\n      dup1\n      0x40\n      mstore\n      pop\n      dup2\n      add\n      swap1\n      tag_145\n      swap2\n      swap1\n      tag_146\n      jump\t// in\n    tag_145:\n        /* \"contracts/core/treasury/MPTreasury.sol\":7039:7162  SecurityBond memory bond_ = IMPBondManager(register.getAddress(BOND_MANAGER_CA)).getUserBond(BondType.TREASURY, msg.sender) */\n      swap1\n      pop\n        /* \"contracts/core/treasury/MPTreasury.sol\":7207:7265  MPLib.remove(openPositionsByBondId[bond_.id], _positionId) */\n      tag_147\n        /* \"contracts/core/treasury/MPTreasury.sol\":7220:7241  openPositionsByBondId */\n      0x08\n        /* \"contracts/core/treasury/MPTreasury.sol\":7220:7251  openPositionsByBondId[bond_.id] */\n      0x00\n        /* \"contracts/core/treasury/MPTreasury.sol\":7242:7247  bond_ */\n      dup4\n        /* \"contracts/core/treasury/MPTreasury.sol\":7242:7250  bond_.id */\n      0x00\n      add\n      mload\n        /* \"contracts/core/treasury/MPTreasury.sol\":7220:7251  openPositionsByBondId[bond_.id] */\n      dup2\n      mstore\n      0x20\n      add\n      swap1\n      dup2\n      mstore\n      0x20\n      add\n      0x00\n      keccak256\n        /* \"contracts/core/treasury/MPTreasury.sol\":7207:7265  MPLib.remove(openPositionsByBondId[bond_.id], _positionId) */\n      dup1\n      sload\n      dup1\n      0x20\n      mul\n      0x20\n      add\n      mload(0x40)\n      swap1\n      dup2\n      add\n      0x40\n      mstore\n      dup1\n      swap3\n      swap2\n      swap1\n      dup2\n      dup2\n      mstore\n      0x20\n      add\n      dup3\n      dup1\n      sload\n      dup1\n      iszero\n      tag_148\n      jumpi\n      0x20\n      mul\n      dup3\n      add\n      swap2\n      swap1\n      0x00\n      mstore\n      keccak256(0x00, 0x20)\n      swap1\n    tag_149:\n      dup2\n      sload\n      dup2\n      mstore\n      0x20\n      add\n      swap1\n      0x01\n      add\n      swap1\n      dup1\n      dup4\n      gt\n      tag_149\n      jumpi\n    tag_148:\n      pop\n      pop\n      pop\n      pop\n      pop\n        /* \"contracts/core/treasury/MPTreasury.sol\":7253:7264  _positionId */\n      dup11\n        /* \"contracts/core/treasury/MPTreasury.sol\":7207:7219  MPLib.remove */\n      tag_150\n        /* \"contracts/core/treasury/MPTreasury.sol\":7207:7265  MPLib.remove(openPositionsByBondId[bond_.id], _positionId) */\n      jump\t// in\n    tag_147:\n        /* \"contracts/core/treasury/MPTreasury.sol\":7173:7194  openPositionsByBondId */\n      0x08\n        /* \"contracts/core/treasury/MPTreasury.sol\":7173:7204  openPositionsByBondId[bond_.id] */\n      0x00\n        /* \"contracts/core/treasury/MPTreasury.sol\":7195:7200  bond_ */\n      dup4\n        /* \"contracts/core/treasury/MPTreasury.sol\":7195:7203  bond_.id */\n      0x00\n      add\n      mload\n        /* \"contracts/core/treasury/MPTreasury.sol\":7173:7204  openPositionsByBondId[bond_.id] */\n      dup2\n      mstore\n      0x20\n      add\n      swap1\n      dup2\n      mstore\n      0x20\n      add\n      0x00\n      keccak256\n        /* \"contracts/core/treasury/MPTreasury.sol\":7173:7265  openPositionsByBondId[bond_.id] = MPLib.remove(openPositionsByBondId[bond_.id], _positionId) */\n      swap1\n      dup1\n      mload\n      swap1\n      0x20\n      add\n      swap1\n      tag_151\n      swap3\n      swap2\n      swap1\n      tag_152\n      jump\t// in\n    tag_151:\n      pop\n        /* \"contracts/core/treasury/MPTreasury.sol\":7287:7411  addTx(TxType.DIVEST, ObjType.MPENSION, positionById[_positionId].mPensionId, returnAmount_ ,positionById[_positionId].token) */\n      tag_153\n        /* \"contracts/core/treasury/MPTreasury.sol\":7293:7306  TxType.DIVEST */\n      0x06\n        /* \"contracts/core/treasury/MPTreasury.sol\":7308:7324  ObjType.MPENSION */\n      0x00\n        /* \"contracts/core/treasury/MPTreasury.sol\":7326:7338  positionById */\n      0x05\n        /* \"contracts/core/treasury/MPTreasury.sol\":7326:7351  positionById[_positionId] */\n      0x00\n        /* \"contracts/core/treasury/MPTreasury.sol\":7339:7350  _positionId */\n      dup14\n        /* \"contracts/core/treasury/MPTreasury.sol\":7326:7351  positionById[_positionId] */\n      dup2\n      mstore\n      0x20\n      add\n      swap1\n      dup2\n      mstore\n      0x20\n      add\n      0x00\n      keccak256\n        /* \"contracts/core/treasury/MPTreasury.sol\":7326:7362  positionById[_positionId].mPensionId */\n      0x02\n      add\n      sload\n        /* \"contracts/core/treasury/MPTreasury.sol\":7364:7377  returnAmount_ */\n      dup10\n        /* \"contracts/core/treasury/MPTreasury.sol\":7379:7391  positionById */\n      0x05\n        /* \"contracts/core/treasury/MPTreasury.sol\":7379:7404  positionById[_positionId] */\n      0x00\n        /* \"contracts/core/treasury/MPTreasury.sol\":7392:7403  _positionId */\n      dup16\n        /* \"contracts/core/treasury/MPTreasury.sol\":7379:7404  positionById[_positionId] */\n      dup2\n      mstore\n      0x20\n      add\n      swap1\n      dup2\n      mstore\n      0x20\n      add\n      0x00\n      keccak256\n        /* \"contracts/core/treasury/MPTreasury.sol\":7379:7410  positionById[_positionId].token */\n      0x04\n      add\n      0x00\n      swap1\n      sload\n      swap1\n      0x0100\n      exp\n      swap1\n      div\n      0xffffffffffffffffffffffffffffffffffffffff\n      and\n        /* \"contracts/core/treasury/MPTreasury.sol\":7287:7292  addTx */\n      tag_154\n        /* \"contracts/core/treasury/MPTreasury.sol\":7287:7411  addTx(TxType.DIVEST, ObjType.MPENSION, positionById[_positionId].mPensionId, returnAmount_ ,positionById[_positionId].token) */\n      jump\t// in\n    tag_153:\n        /* \"contracts/core/treasury/MPTreasury.sol\":7279:7411  _txId = addTx(TxType.DIVEST, ObjType.MPENSION, positionById[_positionId].mPensionId, returnAmount_ ,positionById[_positionId].token) */\n      swap8\n      pop\n        /* \"contracts/core/treasury/MPTreasury.sol\":7423:7440  txIdsByPositionId */\n      0x07\n        /* \"contracts/core/treasury/MPTreasury.sol\":7423:7453  txIdsByPositionId[_positionId] */\n      0x00\n        /* \"contracts/core/treasury/MPTreasury.sol\":7441:7452  _positionId */\n      dup11\n        /* \"contracts/core/treasury/MPTreasury.sol\":7423:7453  txIdsByPositionId[_positionId] */\n      dup2\n      mstore\n      0x20\n      add\n      swap1\n      dup2\n      mstore\n      0x20\n      add\n      0x00\n      keccak256\n        /* \"contracts/core/treasury/MPTreasury.sol\":7459:7464  _txId */\n      dup9\n        /* \"contracts/core/treasury/MPTreasury.sol\":7423:7465  txIdsByPositionId[_positionId].push(_txId) */\n      swap1\n      dup1\n      0x01\n      dup2\n      sload\n      add\n      dup1\n      dup3\n      sstore\n      dup1\n      swap2\n      pop\n      pop\n      0x01\n      swap1\n      sub\n      swap1\n      0x00\n      mstore\n      keccak256(0x00, 0x20)\n      add\n      0x00\n      swap1\n      swap2\n      swap1\n      swap2\n      swap1\n      swap2\n      pop\n      sstore\n        /* \"contracts/core/treasury/MPTreasury.sol\":7477:7491  return (_txId) */\n      pop\n      pop\n      pop\n      pop\n      pop\n      pop\n      pop\n        /* \"contracts/core/treasury/MPTreasury.sol\":5714:7499  function divest(uint256 _positionId) external bondHolderOnly returns (uint256 _txId){... */\n      swap2\n      swap1\n      pop\n      jump\t// out\n        /* \"contracts/core/treasury/MPTreasury.sol\":7507:7685  function notifyChangeOfAddress() external adminOnly returns (bool _acknowledged) { ... */\n    tag_53:\n        /* \"contracts/core/treasury/MPTreasury.sol\":7568:7586  bool _acknowledged */\n      0x00\n        /* \"contracts/core/treasury/MPTreasury.sol\":854:862  register */\n      0x00\n      0x00\n      swap1\n      sload\n      swap1\n      0x0100\n      exp\n      swap1\n      div\n      0xffffffffffffffffffffffffffffffffffffffff\n      and\n        /* \"contracts/core/treasury/MPTreasury.sol\":854:873  register.getAddress */\n      0xffffffffffffffffffffffffffffffffffffffff\n      and\n      0xbf40fac1\n        /* \"contracts/core/treasury/MPTreasury.sol\":874:890  PENSION_ADMIN_CA */\n      mload(0x40)\n      dup1\n      0x40\n      add\n      0x40\n      mstore\n      dup1\n      0x11\n      dup2\n      mstore\n      0x20\n      add\n      0x52455345525645445f4d505f41444d494e000000000000000000000000000000\n      dup2\n      mstore\n      pop\n        /* \"contracts/core/treasury/MPTreasury.sol\":854:891  register.getAddress(PENSION_ADMIN_CA) */\n      mload(0x40)\n      dup3\n      0xffffffff\n      and\n      0xe0\n      shl\n      dup2\n      mstore\n      0x04\n      add\n      tag_157\n      swap2\n      swap1\n      tag_29\n      jump\t// in\n    tag_157:\n      0x20\n      mload(0x40)\n      dup1\n      dup4\n      sub\n      dup2\n      dup7\n      gas\n      staticcall\n      iszero\n      dup1\n      iszero\n      tag_159\n      jumpi\n      returndatacopy(0x00, 0x00, returndatasize)\n      revert(0x00, returndatasize)\n    tag_159:\n      pop\n      pop\n      pop\n      pop\n      mload(0x40)\n      returndatasize\n      not(0x1f)\n      0x1f\n      dup3\n      add\n      and\n      dup3\n      add\n      dup1\n      0x40\n      mstore\n      pop\n      dup2\n      add\n      swap1\n      tag_160\n      swap2\n      swap1\n      tag_92\n      jump\t// in\n    tag_160:\n        /* \"contracts/core/treasury/MPTreasury.sol\":840:891  msg.sender == register.getAddress(PENSION_ADMIN_CA) */\n      0xffffffffffffffffffffffffffffffffffffffff\n      and\n        /* \"contracts/core/treasury/MPTreasury.sol\":840:850  msg.sender */\n      caller\n        /* \"contracts/core/treasury/MPTreasury.sol\":840:891  msg.sender == register.getAddress(PENSION_ADMIN_CA) */\n      0xffffffffffffffffffffffffffffffffffffffff\n      and\n      eq\n        /* \"contracts/core/treasury/MPTreasury.sol\":832:925  require(msg.sender == register.getAddress(PENSION_ADMIN_CA), \"medalion peensions admin only\") */\n      tag_161\n      jumpi\n      mload(0x40)\n      0x08c379a000000000000000000000000000000000000000000000000000000000\n      dup2\n      mstore\n      0x04\n      add\n      tag_162\n      swap1\n      tag_163\n      jump\t// in\n    tag_162:\n      mload(0x40)\n      dup1\n      swap2\n      sub\n      swap1\n      revert\n    tag_161:\n        /* \"contracts/core/treasury/MPTreasury.sol\":7621:7629  register */\n      0x00\n      0x00\n      swap1\n      sload\n      swap1\n      0x0100\n      exp\n      swap1\n      div\n      0xffffffffffffffffffffffffffffffffffffffff\n      and\n        /* \"contracts/core/treasury/MPTreasury.sol\":7621:7640  register.getAddress */\n      0xffffffffffffffffffffffffffffffffffffffff\n      and\n      0xbf40fac1\n        /* \"contracts/core/treasury/MPTreasury.sol\":7641:7652  REGISTER_CA */\n      mload(0x40)\n      dup1\n      0x40\n      add\n      0x40\n      mstore\n      dup1\n      0x14\n      dup2\n      mstore\n      0x20\n      add\n      0x52455345525645445f4d505f5245474953544552000000000000000000000000\n      dup2\n      mstore\n      pop\n        /* \"contracts/core/treasury/MPTreasury.sol\":7621:7653  register.getAddress(REGISTER_CA) */\n      mload(0x40)\n      dup3\n      0xffffffff\n      and\n      0xe0\n      shl\n      dup2\n      mstore\n      0x04\n      add\n      tag_165\n      swap2\n      swap1\n      tag_29\n      jump\t// in\n    tag_165:\n      0x20\n      mload(0x40)\n      dup1\n      dup4\n      sub\n      dup2\n      dup7\n      gas\n      staticcall\n      iszero\n      dup1\n      iszero\n      tag_167\n      jumpi\n      returndatacopy(0x00, 0x00, returndatasize)\n      revert(0x00, returndatasize)\n    tag_167:\n      pop\n      pop\n      pop\n      pop\n      mload(0x40)\n      returndatasize\n      not(0x1f)\n      0x1f\n      dup3\n      add\n      and\n      dup3\n      add\n      dup1\n      0x40\n      mstore\n      pop\n      dup2\n      add\n      swap1\n      tag_168\n      swap2\n      swap1\n      tag_92\n      jump\t// in\n    tag_168:\n        /* \"contracts/core/treasury/MPTreasury.sol\":7600:7608  register */\n      0x00\n      0x00\n        /* \"contracts/core/treasury/MPTreasury.sol\":7600:7654  register = IRegister(register.getAddress(REGISTER_CA)) */\n      0x0100\n      exp\n      dup2\n      sload\n      dup2\n      0xffffffffffffffffffffffffffffffffffffffff\n      mul\n      not\n      and\n      swap1\n      dup4\n      0xffffffffffffffffffffffffffffffffffffffff\n      and\n      mul\n      or\n      swap1\n      sstore\n      pop\n        /* \"contracts/core/treasury/MPTreasury.sol\":7672:7676  true */\n      0x01\n        /* \"contracts/core/treasury/MPTreasury.sol\":7665:7676  return true */\n      swap1\n      pop\n        /* \"contracts/core/treasury/MPTreasury.sol\":7507:7685  function notifyChangeOfAddress() external adminOnly returns (bool _acknowledged) { ... */\n      swap1\n      jump\t// out\n        /* \"contracts/core/treasury/MPTreasury.sol\":3398:5706  function invest(uint256 _mPensionId, uint256 _marketId) external bondHolderOnly returns (uint256 _positionId, uint256 _txId){... */\n    tag_58:\n        /* \"contracts/core/treasury/MPTreasury.sol\":3487:3506  uint256 _positionId */\n      0x00\n        /* \"contracts/core/treasury/MPTreasury.sol\":3508:3521  uint256 _txId */\n      0x00\n        /* \"contracts/core/treasury/MPTreasury.sol\":676:684  register */\n      0x00\n      0x00\n      swap1\n      sload\n      swap1\n      0x0100\n      exp\n      swap1\n      div\n      0xffffffffffffffffffffffffffffffffffffffff\n      and\n        /* \"contracts/core/treasury/MPTreasury.sol\":676:695  register.getAddress */\n      0xffffffffffffffffffffffffffffffffffffffff\n      and\n      0xbf40fac1\n        /* \"contracts/core/treasury/MPTreasury.sol\":696:711  BOND_MANAGER_CA */\n      mload(0x40)\n      dup1\n      0x40\n      add\n      0x40\n      mstore\n      dup1\n      0x15\n      dup2\n      mstore\n      0x20\n      add\n      0x52455345525645445f424f4e445f4d414e414745520000000000000000000000\n      dup2\n      mstore\n      pop\n        /* \"contracts/core/treasury/MPTreasury.sol\":676:712  register.getAddress(BOND_MANAGER_CA) */\n      mload(0x40)\n      dup3\n      0xffffffff\n      and\n      0xe0\n      shl\n      dup2\n      mstore\n      0x04\n      add\n      tag_170\n      swap2\n      swap1\n      tag_29\n      jump\t// in\n    tag_170:\n      0x20\n      mload(0x40)\n      dup1\n      dup4\n      sub\n      dup2\n      dup7\n      gas\n      staticcall\n      iszero\n      dup1\n      iszero\n      tag_172\n      jumpi\n      returndatacopy(0x00, 0x00, returndatasize)\n      revert(0x00, returndatasize)\n    tag_172:\n      pop\n      pop\n      pop\n      pop\n      mload(0x40)\n      returndatasize\n      not(0x1f)\n      0x1f\n      dup3\n      add\n      and\n      dup3\n      add\n      dup1\n      0x40\n      mstore\n      pop\n      dup2\n      add\n      swap1\n      tag_173\n      swap2\n      swap1\n      tag_92\n      jump\t// in\n    tag_173:\n        /* \"contracts/core/treasury/MPTreasury.sol\":661:721  IMPBondManager(register.getAddress(BOND_MANAGER_CA)).hasBond */\n      0xffffffffffffffffffffffffffffffffffffffff\n      and\n      0xce862001\n        /* \"contracts/core/treasury/MPTreasury.sol\":722:739  BondType.TREASURY */\n      0x00\n        /* \"contracts/core/treasury/MPTreasury.sol\":741:751  msg.sender */\n      caller\n        /* \"contracts/core/treasury/MPTreasury.sol\":661:752  IMPBondManager(register.getAddress(BOND_MANAGER_CA)).hasBond(BondType.TREASURY, msg.sender) */\n      mload(0x40)\n      dup4\n      0xffffffff\n      and\n      0xe0\n      shl\n      dup2\n      mstore\n      0x04\n      add\n      tag_174\n      swap3\n      swap2\n      swap1\n      tag_94\n      jump\t// in\n    tag_174:\n      0x20\n      mload(0x40)\n      dup1\n      dup4\n      sub\n      dup2\n      dup7\n      gas\n      staticcall\n      iszero\n      dup1\n      iszero\n      tag_176\n      jumpi\n      returndatacopy(0x00, 0x00, returndatasize)\n      revert(0x00, returndatasize)\n    tag_176:\n      pop\n      pop\n      pop\n      pop\n      mload(0x40)\n      returndatasize\n      not(0x1f)\n      0x1f\n      dup3\n      add\n      and\n      dup3\n      add\n      dup1\n      0x40\n      mstore\n      pop\n      dup2\n      add\n      swap1\n      tag_177\n      swap2\n      swap1\n      tag_98\n      jump\t// in\n    tag_177:\n        /* \"contracts/core/treasury/MPTreasury.sol\":653:773  require(IMPBondManager(register.getAddress(BOND_MANAGER_CA)).hasBond(BondType.TREASURY, msg.sender), \"no treasury bond\") */\n      tag_178\n      jumpi\n      mload(0x40)\n      0x08c379a000000000000000000000000000000000000000000000000000000000\n      dup2\n      mstore\n      0x04\n      add\n      tag_179\n      swap1\n      tag_101\n      jump\t// in\n    tag_179:\n      mload(0x40)\n      dup1\n      swap2\n      sub\n      swap1\n      revert\n    tag_178:\n        /* \"contracts/core/treasury/MPTreasury.sol\":3535:3559  MPension memory pension_ */\n      0x00\n        /* \"contracts/core/treasury/MPTreasury.sol\":3562:3593  getPensionInternal(_mPensionId) */\n      tag_181\n        /* \"contracts/core/treasury/MPTreasury.sol\":3581:3592  _mPensionId */\n      dup6\n        /* \"contracts/core/treasury/MPTreasury.sol\":3562:3580  getPensionInternal */\n      tag_118\n        /* \"contracts/core/treasury/MPTreasury.sol\":3562:3593  getPensionInternal(_mPensionId) */\n      jump\t// in\n    tag_181:\n        /* \"contracts/core/treasury/MPTreasury.sol\":3535:3593  MPension memory pension_ = getPensionInternal(_mPensionId) */\n      swap1\n      pop\n        /* \"contracts/core/treasury/MPTreasury.sol\":3604:3625  IMPensionVault vault_ */\n      0x00\n        /* \"contracts/core/treasury/MPTreasury.sol\":3643:3651  pension_ */\n      dup2\n        /* \"contracts/core/treasury/MPTreasury.sol\":3643:3657  pension_.vault */\n      0x60\n      add\n      mload\n        /* \"contracts/core/treasury/MPTreasury.sol\":3604:3658  IMPensionVault vault_ = IMPensionVault(pension_.vault) */\n      swap1\n      pop\n        /* \"contracts/core/treasury/MPTreasury.sol\":3683:3693  getIndex() */\n      tag_182\n        /* \"contracts/core/treasury/MPTreasury.sol\":3683:3691  getIndex */\n      tag_183\n        /* \"contracts/core/treasury/MPTreasury.sol\":3683:3693  getIndex() */\n      jump\t// in\n    tag_182:\n        /* \"contracts/core/treasury/MPTreasury.sol\":3669:3693  _positionId = getIndex() */\n      swap4\n      pop\n        /* \"contracts/core/treasury/MPTreasury.sol\":3705:3716  positionIds */\n      0x04\n        /* \"contracts/core/treasury/MPTreasury.sol\":3722:3733  _positionId */\n      dup5\n        /* \"contracts/core/treasury/MPTreasury.sol\":3705:3734  positionIds.push(_positionId) */\n      swap1\n      dup1\n      0x01\n      dup2\n      sload\n      add\n      dup1\n      dup3\n      sstore\n      dup1\n      swap2\n      pop\n      pop\n      0x01\n      swap1\n      sub\n      swap1\n      0x00\n      mstore\n      keccak256(0x00, 0x20)\n      add\n      0x00\n      swap1\n      swap2\n      swap1\n      swap2\n      swap1\n      swap2\n      pop\n      sstore\n        /* \"contracts/core/treasury/MPTreasury.sol\":3747:3772  SecurityBond memory bond_ */\n      0x00\n        /* \"contracts/core/treasury/MPTreasury.sol\":3790:3798  register */\n      0x00\n      0x00\n      swap1\n      sload\n      swap1\n      0x0100\n      exp\n      swap1\n      div\n      0xffffffffffffffffffffffffffffffffffffffff\n      and\n        /* \"contracts/core/treasury/MPTreasury.sol\":3790:3809  register.getAddress */\n      0xffffffffffffffffffffffffffffffffffffffff\n      and\n      0xbf40fac1\n        /* \"contracts/core/treasury/MPTreasury.sol\":3810:3825  BOND_MANAGER_CA */\n      mload(0x40)\n      dup1\n      0x40\n      add\n      0x40\n      mstore\n      dup1\n      0x15\n      dup2\n      mstore\n      0x20\n      add\n      0x52455345525645445f424f4e445f4d414e414745520000000000000000000000\n      dup2\n      mstore\n      pop\n        /* \"contracts/core/treasury/MPTreasury.sol\":3790:3826  register.getAddress(BOND_MANAGER_CA) */\n      mload(0x40)\n      dup3\n      0xffffffff\n      and\n      0xe0\n      shl\n      dup2\n      mstore\n      0x04\n      add\n      tag_185\n      swap2\n      swap1\n      tag_29\n      jump\t// in\n    tag_185:\n      0x20\n      mload(0x40)\n      dup1\n      dup4\n      sub\n      dup2\n      dup7\n      gas\n      staticcall\n      iszero\n      dup1\n      iszero\n      tag_187\n      jumpi\n      returndatacopy(0x00, 0x00, returndatasize)\n      revert(0x00, returndatasize)\n    tag_187:\n      pop\n      pop\n      pop\n      pop\n      mload(0x40)\n      returndatasize\n      not(0x1f)\n      0x1f\n      dup3\n      add\n      and\n      dup3\n      add\n      dup1\n      0x40\n      mstore\n      pop\n      dup2\n      add\n      swap1\n      tag_188\n      swap2\n      swap1\n      tag_92\n      jump\t// in\n    tag_188:\n        /* \"contracts/core/treasury/MPTreasury.sol\":3775:3839  IMPBondManager(register.getAddress(BOND_MANAGER_CA)).getUserBond */\n      0xffffffffffffffffffffffffffffffffffffffff\n      and\n      0x012fe794\n        /* \"contracts/core/treasury/MPTreasury.sol\":3840:3857  BondType.TREASURY */\n      0x00\n        /* \"contracts/core/treasury/MPTreasury.sol\":3859:3869  msg.sender */\n      caller\n        /* \"contracts/core/treasury/MPTreasury.sol\":3775:3870  IMPBondManager(register.getAddress(BOND_MANAGER_CA)).getUserBond(BondType.TREASURY, msg.sender) */\n      mload(0x40)\n      dup4\n      0xffffffff\n      and\n      0xe0\n      shl\n      dup2\n      mstore\n      0x04\n      add\n      tag_189\n      swap3\n      swap2\n      swap1\n      tag_94\n      jump\t// in\n    tag_189:\n      0xc0\n      mload(0x40)\n      dup1\n      dup4\n      sub\n      dup2\n      dup7\n      gas\n      staticcall\n      iszero\n      dup1\n      iszero\n      tag_191\n      jumpi\n      returndatacopy(0x00, 0x00, returndatasize)\n      revert(0x00, returndatasize)\n    tag_191:\n      pop\n      pop\n      pop\n      pop\n      mload(0x40)\n      returndatasize\n      not(0x1f)\n      0x1f\n      dup3\n      add\n      and\n      dup3\n      add\n      dup1\n      0x40\n      mstore\n      pop\n      dup2\n      add\n      swap1\n      tag_192\n      swap2\n      swap1\n      tag_146\n      jump\t// in\n    tag_192:\n        /* \"contracts/core/treasury/MPTreasury.sol\":3747:3870  SecurityBond memory bond_ = IMPBondManager(register.getAddress(BOND_MANAGER_CA)).getUserBond(BondType.TREASURY, msg.sender) */\n      swap1\n      pop\n        /* \"contracts/core/treasury/MPTreasury.sol\":3881:3902  openPositionsByBondId */\n      0x08\n        /* \"contracts/core/treasury/MPTreasury.sol\":3881:3912  openPositionsByBondId[bond_.id] */\n      0x00\n        /* \"contracts/core/treasury/MPTreasury.sol\":3903:3908  bond_ */\n      dup3\n        /* \"contracts/core/treasury/MPTreasury.sol\":3903:3911  bond_.id */\n      0x00\n      add\n      mload\n        /* \"contracts/core/treasury/MPTreasury.sol\":3881:3912  openPositionsByBondId[bond_.id] */\n      dup2\n      mstore\n      0x20\n      add\n      swap1\n      dup2\n      mstore\n      0x20\n      add\n      0x00\n      keccak256\n        /* \"contracts/core/treasury/MPTreasury.sol\":3918:3929  _positionId */\n      dup6\n        /* \"contracts/core/treasury/MPTreasury.sol\":3881:3930  openPositionsByBondId[bond_.id].push(_positionId) */\n      swap1\n      dup1\n      0x01\n      dup2\n      sload\n      add\n      dup1\n      dup3\n      sstore\n      dup1\n      swap2\n      pop\n      pop\n      0x01\n      swap1\n      sub\n      swap1\n      0x00\n      mstore\n      keccak256(0x00, 0x20)\n      add\n      0x00\n      swap1\n      swap2\n      swap1\n      swap2\n      swap1\n      swap2\n      pop\n      sstore\n        /* \"contracts/core/treasury/MPTreasury.sol\":3949:3968  uint256 pullAmount_ */\n      0x00\n        /* \"contracts/core/treasury/MPTreasury.sol\":3970:3988  uint256 vaultTxId_ */\n      0x00\n        /* \"contracts/core/treasury/MPTreasury.sol\":3992:3998  vault_ */\n      dup4\n        /* \"contracts/core/treasury/MPTreasury.sol\":3992:4003  vault_.pull */\n      0xffffffffffffffffffffffffffffffffffffffff\n      and\n      0x4d0392a8\n        /* \"contracts/core/treasury/MPTreasury.sol\":4004:4015  _positionId */\n      dup9\n        /* \"contracts/core/treasury/MPTreasury.sol\":3992:4016  vault_.pull(_positionId) */\n      mload(0x40)\n      dup3\n      0xffffffff\n      and\n      0xe0\n      shl\n      dup2\n      mstore\n      0x04\n      add\n      tag_194\n      swap2\n      swap1\n      tag_25\n      jump\t// in\n    tag_194:\n      0x40\n      dup1\n      mload\n      dup1\n      dup4\n      sub\n      dup2\n      0x00\n      dup8\n      gas\n      call\n      iszero\n      dup1\n      iszero\n      tag_196\n      jumpi\n      returndatacopy(0x00, 0x00, returndatasize)\n      revert(0x00, returndatasize)\n    tag_196:\n      pop\n      pop\n      pop\n      pop\n      mload(0x40)\n      returndatasize\n      not(0x1f)\n      0x1f\n      dup3\n      add\n      and\n      dup3\n      add\n      dup1\n      0x40\n      mstore\n      pop\n      dup2\n      add\n      swap1\n      tag_197\n      swap2\n      swap1\n      tag_113\n      jump\t// in\n    tag_197:\n        /* \"contracts/core/treasury/MPTreasury.sol\":3948:4016  (uint256 pullAmount_, uint256 vaultTxId_) = vault_.pull(_positionId) */\n      swap2\n      pop\n      swap2\n      pop\n        /* \"contracts/core/treasury/MPTreasury.sol\":4029:4046  txIdsByPositionId */\n      0x07\n        /* \"contracts/core/treasury/MPTreasury.sol\":4029:4059  txIdsByPositionId[_positionId] */\n      0x00\n        /* \"contracts/core/treasury/MPTreasury.sol\":4047:4058  _positionId */\n      dup9\n        /* \"contracts/core/treasury/MPTreasury.sol\":4029:4059  txIdsByPositionId[_positionId] */\n      dup2\n      mstore\n      0x20\n      add\n      swap1\n      dup2\n      mstore\n      0x20\n      add\n      0x00\n      keccak256\n        /* \"contracts/core/treasury/MPTreasury.sol\":4065:4075  vaultTxId_ */\n      dup2\n        /* \"contracts/core/treasury/MPTreasury.sol\":4029:4076  txIdsByPositionId[_positionId].push(vaultTxId_) */\n      swap1\n      dup1\n      0x01\n      dup2\n      sload\n      add\n      dup1\n      dup3\n      sstore\n      dup1\n      swap2\n      pop\n      pop\n      0x01\n      swap1\n      sub\n      swap1\n      0x00\n      mstore\n      keccak256(0x00, 0x20)\n      add\n      0x00\n      swap1\n      swap2\n      swap1\n      swap2\n      swap1\n      swap2\n      pop\n      sstore\n        /* \"contracts/core/treasury/MPTreasury.sol\":4098:4128  IMPMarketManager marketManager */\n      0x00\n        /* \"contracts/core/treasury/MPTreasury.sol\":4148:4156  register */\n      0x00\n      0x00\n      swap1\n      sload\n      swap1\n      0x0100\n      exp\n      swap1\n      div\n      0xffffffffffffffffffffffffffffffffffffffff\n      and\n        /* \"contracts/core/treasury/MPTreasury.sol\":4148:4167  register.getAddress */\n      0xffffffffffffffffffffffffffffffffffffffff\n      and\n      0xbf40fac1\n        /* \"contracts/core/treasury/MPTreasury.sol\":4168:4185  MARKET_MANAGER_CA */\n      mload(0x40)\n      dup1\n      0x40\n      add\n      0x40\n      mstore\n      dup1\n      0x1a\n      dup2\n      mstore\n      0x20\n      add\n      0x52455345525645445f4d505f4d41524b45545f4d414e41474552000000000000\n      dup2\n      mstore\n      pop\n        /* \"contracts/core/treasury/MPTreasury.sol\":4148:4186  register.getAddress(MARKET_MANAGER_CA) */\n      mload(0x40)\n      dup3\n      0xffffffff\n      and\n      0xe0\n      shl\n      dup2\n      mstore\n      0x04\n      add\n      tag_199\n      swap2\n      swap1\n      tag_29\n      jump\t// in\n    tag_199:\n      0x20\n      mload(0x40)\n      dup1\n      dup4\n      sub\n      dup2\n      dup7\n      gas\n      staticcall\n      iszero\n      dup1\n      iszero\n      tag_201\n      jumpi\n      returndatacopy(0x00, 0x00, returndatasize)\n      revert(0x00, returndatasize)\n    tag_201:\n      pop\n      pop\n      pop\n      pop\n      mload(0x40)\n      returndatasize\n      not(0x1f)\n      0x1f\n      dup3\n      add\n      and\n      dup3\n      add\n      dup1\n      0x40\n      mstore\n      pop\n      dup2\n      add\n      swap1\n      tag_202\n      swap2\n      swap1\n      tag_92\n      jump\t// in\n    tag_202:\n        /* \"contracts/core/treasury/MPTreasury.sol\":4098:4187  IMPMarketManager marketManager = IMPMarketManager(register.getAddress(MARKET_MANAGER_CA)) */\n      swap1\n      pop\n        /* \"contracts/core/treasury/MPTreasury.sol\":4199:4220  Market memory market_ */\n      0x00\n        /* \"contracts/core/treasury/MPTreasury.sol\":4223:4236  marketManager */\n      dup2\n        /* \"contracts/core/treasury/MPTreasury.sol\":4223:4246  marketManager.getMarket */\n      0xffffffffffffffffffffffffffffffffffffffff\n      and\n      0xeb44fdd3\n        /* \"contracts/core/treasury/MPTreasury.sol\":4247:4256  _marketId */\n      dup12\n        /* \"contracts/core/treasury/MPTreasury.sol\":4223:4257  marketManager.getMarket(_marketId) */\n      mload(0x40)\n      dup3\n      0xffffffff\n      and\n      0xe0\n      shl\n      dup2\n      mstore\n      0x04\n      add\n      tag_203\n      swap2\n      swap1\n      tag_25\n      jump\t// in\n    tag_203:\n      0x01c0\n      mload(0x40)\n      dup1\n      dup4\n      sub\n      dup2\n      dup7\n      gas\n      staticcall\n      iszero\n      dup1\n      iszero\n      tag_205\n      jumpi\n      returndatacopy(0x00, 0x00, returndatasize)\n      revert(0x00, returndatasize)\n    tag_205:\n      pop\n      pop\n      pop\n      pop\n      mload(0x40)\n      returndatasize\n      not(0x1f)\n      0x1f\n      dup3\n      add\n      and\n      dup3\n      add\n      dup1\n      0x40\n      mstore\n      pop\n      dup2\n      add\n      swap1\n      tag_206\n      swap2\n      swap1\n      tag_207\n      jump\t// in\n    tag_206:\n        /* \"contracts/core/treasury/MPTreasury.sol\":4199:4257  Market memory market_ = marketManager.getMarket(_marketId) */\n      swap1\n      pop\n        /* \"contracts/core/treasury/MPTreasury.sol\":4278:4332  MPLib.transferIn(market_.fromToken, pullAmount_, self) */\n      tag_208\n        /* \"contracts/core/treasury/MPTreasury.sol\":4295:4302  market_ */\n      dup2\n        /* \"contracts/core/treasury/MPTreasury.sol\":4295:4312  market_.fromToken */\n      0x60\n      add\n      mload\n        /* \"contracts/core/treasury/MPTreasury.sol\":4314:4325  pullAmount_ */\n      dup6\n        /* \"contracts/core/treasury/MPTreasury.sol\":4327:4331  self */\n      immutable(\"0x0330c0d84464f890f3c81afbba7a3a05e0e864ec2e31676dedcb075b2bf855a0\")\n        /* \"contracts/core/treasury/MPTreasury.sol\":4278:4294  MPLib.transferIn */\n      tag_116\n        /* \"contracts/core/treasury/MPTreasury.sol\":4278:4332  MPLib.transferIn(market_.fromToken, pullAmount_, self) */\n      jump\t// in\n    tag_208:\n      pop\n        /* \"contracts/core/treasury/MPTreasury.sol\":1506:1548  0xEeeeeEeeeEeEeeEeEeEeeEEEeeeeEeeeeeeeEEeE */\n      0xeeeeeeeeeeeeeeeeeeeeeeeeeeeeeeeeeeeeeeee\n        /* \"contracts/core/treasury/MPTreasury.sol\":4356:4383  market_.fromToken == NATIVE */\n      0xffffffffffffffffffffffffffffffffffffffff\n      and\n        /* \"contracts/core/treasury/MPTreasury.sol\":4356:4363  market_ */\n      dup2\n        /* \"contracts/core/treasury/MPTreasury.sol\":4356:4373  market_.fromToken */\n      0x60\n      add\n      mload\n        /* \"contracts/core/treasury/MPTreasury.sol\":4356:4383  market_.fromToken == NATIVE */\n      0xffffffffffffffffffffffffffffffffffffffff\n      and\n      sub\n        /* \"contracts/core/treasury/MPTreasury.sol\":4353:4725  if(market_.fromToken == NATIVE){... */\n      tag_209\n      jumpi\n        /* \"contracts/core/treasury/MPTreasury.sol\":4399:4412  marketManager */\n      dup2\n        /* \"contracts/core/treasury/MPTreasury.sol\":4399:4425  marketManager.openPosition */\n      0xffffffffffffffffffffffffffffffffffffffff\n      and\n      0x5ece09c5\n        /* \"contracts/core/treasury/MPTreasury.sol\":4434:4445  pullAmount_ */\n      dup6\n        /* \"contracts/core/treasury/MPTreasury.sol\":4447:4458  _positionId */\n      dup12\n        /* \"contracts/core/treasury/MPTreasury.sol\":4460:4469  _marketId */\n      dup14\n        /* \"contracts/core/treasury/MPTreasury.sol\":4471:4482  pullAmount_ */\n      dup9\n        /* \"contracts/core/treasury/MPTreasury.sol\":4399:4483  marketManager.openPosition{value : pullAmount_}(_positionId, _marketId, pullAmount_) */\n      mload(0x40)\n      dup6\n      0xffffffff\n      and\n      0xe0\n      shl\n      dup2\n      mstore\n      0x04\n      add\n      tag_210\n      swap4\n      swap3\n      swap2\n      swap1\n      tag_123\n      jump\t// in\n    tag_210:\n      0x20\n      mload(0x40)\n      dup1\n      dup4\n      sub\n      dup2\n      dup6\n      dup9\n      gas\n      call\n      iszero\n      dup1\n      iszero\n      tag_212\n      jumpi\n      returndatacopy(0x00, 0x00, returndatasize)\n      revert(0x00, returndatasize)\n    tag_212:\n      pop\n      pop\n      pop\n      pop\n      pop\n      mload(0x40)\n      returndatasize\n      not(0x1f)\n      0x1f\n      dup3\n      add\n      and\n      dup3\n      add\n      dup1\n      0x40\n      mstore\n      pop\n      dup2\n      add\n      swap1\n      tag_213\n      swap2\n      swap1\n      tag_127\n      jump\t// in\n    tag_213:\n      pop\n        /* \"contracts/core/treasury/MPTreasury.sol\":4353:4725  if(market_.fromToken == NATIVE){... */\n      jump(tag_214)\n    tag_209:\n        /* \"contracts/core/treasury/MPTreasury.sol\":4526:4539  IERC20 erc20_ */\n      0x00\n        /* \"contracts/core/treasury/MPTreasury.sol\":4549:4556  market_ */\n      dup2\n        /* \"contracts/core/treasury/MPTreasury.sol\":4549:4566  market_.fromToken */\n      0x60\n      add\n      mload\n        /* \"contracts/core/treasury/MPTreasury.sol\":4526:4567  IERC20 erc20_ = IERC20(market_.fromToken) */\n      swap1\n      pop\n        /* \"contracts/core/treasury/MPTreasury.sol\":4582:4588  erc20_ */\n      dup1\n        /* \"contracts/core/treasury/MPTreasury.sol\":4582:4596  erc20_.approve */\n      0xffffffffffffffffffffffffffffffffffffffff\n      and\n      0x095ea7b3\n        /* \"contracts/core/treasury/MPTreasury.sol\":4605:4618  marketManager */\n      dup5\n        /* \"contracts/core/treasury/MPTreasury.sol\":4621:4632  pullAmount_ */\n      dup8\n        /* \"contracts/core/treasury/MPTreasury.sol\":4582:4633  erc20_.approve(address(marketManager), pullAmount_) */\n      mload(0x40)\n      dup4\n      0xffffffff\n      and\n      0xe0\n      shl\n      dup2\n      mstore\n      0x04\n      add\n      tag_215\n      swap3\n      swap2\n      swap1\n      tag_130\n      jump\t// in\n    tag_215:\n      0x20\n      mload(0x40)\n      dup1\n      dup4\n      sub\n      dup2\n      0x00\n      dup8\n      gas\n      call\n      iszero\n      dup1\n      iszero\n      tag_217\n      jumpi\n      returndatacopy(0x00, 0x00, returndatasize)\n      revert(0x00, returndatasize)\n    tag_217:\n      pop\n      pop\n      pop\n      pop\n      mload(0x40)\n      returndatasize\n      not(0x1f)\n      0x1f\n      dup3\n      add\n      and\n      dup3\n      add\n      dup1\n      0x40\n      mstore\n      pop\n      dup2\n      add\n      swap1\n      tag_218\n      swap2\n      swap1\n      tag_98\n      jump\t// in\n    tag_218:\n      pop\n        /* \"contracts/core/treasury/MPTreasury.sol\":4649:4662  marketManager */\n      dup3\n        /* \"contracts/core/treasury/MPTreasury.sol\":4649:4675  marketManager.openPosition */\n      0xffffffffffffffffffffffffffffffffffffffff\n      and\n      0x5ece09c5\n        /* \"contracts/core/treasury/MPTreasury.sol\":4676:4687  _positionId */\n      dup12\n        /* \"contracts/core/treasury/MPTreasury.sol\":4689:4698  _marketId */\n      dup14\n        /* \"contracts/core/treasury/MPTreasury.sol\":4700:4711  pullAmount_ */\n      dup9\n        /* \"contracts/core/treasury/MPTreasury.sol\":4649:4712  marketManager.openPosition(_positionId, _marketId, pullAmount_) */\n      mload(0x40)\n      dup5\n      0xffffffff\n      and\n      0xe0\n      shl\n      dup2\n      mstore\n      0x04\n      add\n      tag_219\n      swap4\n      swap3\n      swap2\n      swap1\n      tag_123\n      jump\t// in\n    tag_219:\n      0x20\n      mload(0x40)\n      dup1\n      dup4\n      sub\n      dup2\n      0x00\n      dup8\n      gas\n      call\n      iszero\n      dup1\n      iszero\n      tag_221\n      jumpi\n      returndatacopy(0x00, 0x00, returndatasize)\n      revert(0x00, returndatasize)\n    tag_221:\n      pop\n      pop\n      pop\n      pop\n      mload(0x40)\n      returndatasize\n      not(0x1f)\n      0x1f\n      dup3\n      add\n      and\n      dup3\n      add\n      dup1\n      0x40\n      mstore\n      pop\n      dup2\n      add\n      swap1\n      tag_222\n      swap2\n      swap1\n      tag_127\n      jump\t// in\n    tag_222:\n      pop\n        /* \"contracts/core/treasury/MPTreasury.sol\":4511:4725  {... */\n      pop\n        /* \"contracts/core/treasury/MPTreasury.sol\":4353:4725  if(market_.fromToken == NATIVE){... */\n    tag_214:\n        /* \"contracts/core/treasury/MPTreasury.sol\":4773:5442  Position ({... */\n      mload(0x40)\n      dup1\n      0x0100\n      add\n      0x40\n      mstore\n      dup1\n        /* \"contracts/core/treasury/MPTreasury.sol\":4839:4850  _positionId */\n      dup11\n        /* \"contracts/core/treasury/MPTreasury.sol\":4773:5442  Position ({... */\n      dup2\n      mstore\n      0x20\n      add\n        /* \"contracts/core/treasury/MPTreasury.sol\":4912:4931  PositionStatus.OPEN */\n      0x00\n        /* \"contracts/core/treasury/MPTreasury.sol\":4773:5442  Position ({... */\n      0x01\n      dup2\n      gt\n      iszero\n      tag_223\n      jumpi\n      tag_224\n      tag_74\n      jump\t// in\n    tag_224:\n    tag_223:\n      dup2\n      mstore\n      0x20\n      add\n        /* \"contracts/core/treasury/MPTreasury.sol\":4995:5006  _mPensionId */\n      dup13\n        /* \"contracts/core/treasury/MPTreasury.sol\":4773:5442  Position ({... */\n      dup2\n      mstore\n      0x20\n      add\n        /* \"contracts/core/treasury/MPTreasury.sol\":5067:5078  pullAmount_ */\n      dup6\n        /* \"contracts/core/treasury/MPTreasury.sol\":4773:5442  Position ({... */\n      dup2\n      mstore\n      0x20\n      add\n        /* \"contracts/core/treasury/MPTreasury.sol\":5138:5145  market_ */\n      dup3\n        /* \"contracts/core/treasury/MPTreasury.sol\":5138:5155  market_.fromToken */\n      0x60\n      add\n      mload\n        /* \"contracts/core/treasury/MPTreasury.sol\":4773:5442  Position ({... */\n      0xffffffffffffffffffffffffffffffffffffffff\n      and\n      dup2\n      mstore\n      0x20\n      add\n        /* \"contracts/core/treasury/MPTreasury.sol\":5216:5231  block.timestamp */\n      timestamp\n        /* \"contracts/core/treasury/MPTreasury.sol\":4773:5442  Position ({... */\n      dup2\n      mstore\n      0x20\n      add\n        /* \"contracts/core/treasury/MPTreasury.sol\":5296:5304  pension_ */\n      dup9\n        /* \"contracts/core/treasury/MPTreasury.sol\":5296:5312  pension_.product */\n      0xc0\n      add\n      mload\n        /* \"contracts/core/treasury/MPTreasury.sol\":5296:5322  pension_.product.tolerance */\n      0x0120\n      add\n      mload\n        /* \"contracts/core/treasury/MPTreasury.sol\":4773:5442  Position ({... */\n      dup2\n      mstore\n      0x20\n      add\n        /* \"contracts/core/treasury/MPTreasury.sol\":5384:5393  _marketId */\n      dup12\n        /* \"contracts/core/treasury/MPTreasury.sol\":4773:5442  Position ({... */\n      dup2\n      mstore\n      pop\n        /* \"contracts/core/treasury/MPTreasury.sol\":4745:4757  positionById */\n      0x05\n        /* \"contracts/core/treasury/MPTreasury.sol\":4745:4770  positionById[_positionId] */\n      0x00\n        /* \"contracts/core/treasury/MPTreasury.sol\":4758:4769  _positionId */\n      dup12\n        /* \"contracts/core/treasury/MPTreasury.sol\":4745:4770  positionById[_positionId] */\n      dup2\n      mstore\n      0x20\n      add\n      swap1\n      dup2\n      mstore\n      0x20\n      add\n      0x00\n      keccak256\n        /* \"contracts/core/treasury/MPTreasury.sol\":4745:5442  positionById[_positionId] = Position ({... */\n      0x00\n      dup3\n      add\n      mload\n      dup2\n      0x00\n      add\n      sstore\n      0x20\n      dup3\n      add\n      mload\n      dup2\n      0x01\n      add\n      exp(0x0100, 0x00)\n      dup2\n      sload\n      dup2\n      0xff\n      mul\n      not\n      and\n      swap1\n      dup4\n      0x01\n      dup2\n      gt\n      iszero\n      tag_225\n      jumpi\n      tag_226\n      tag_74\n      jump\t// in\n    tag_226:\n    tag_225:\n      mul\n      or\n      swap1\n      sstore\n      pop\n      0x40\n      dup3\n      add\n      mload\n      dup2\n      0x02\n      add\n      sstore\n      0x60\n      dup3\n      add\n      mload\n      dup2\n      0x03\n      add\n      sstore\n      0x80\n      dup3\n      add\n      mload\n      dup2\n      0x04\n      add\n      exp(0x0100, 0x00)\n      dup2\n      sload\n      dup2\n      0xffffffffffffffffffffffffffffffffffffffff\n      mul\n      not\n      and\n      swap1\n      dup4\n      0xffffffffffffffffffffffffffffffffffffffff\n      and\n      mul\n      or\n      swap1\n      sstore\n      pop\n      0xa0\n      dup3\n      add\n      mload\n      dup2\n      0x05\n      add\n      sstore\n      0xc0\n      dup3\n      add\n      mload\n      dup2\n      0x06\n      add\n      0x00\n      dup3\n      add\n      mload\n      dup2\n      0x00\n      add\n      sstore\n      0x20\n      dup3\n      add\n      mload\n      dup2\n      0x01\n      add\n      sstore\n      pop\n      pop\n      0xe0\n      dup3\n      add\n      mload\n      dup2\n      0x08\n      add\n      sstore\n      swap1\n      pop\n      pop\n        /* \"contracts/core/treasury/MPTreasury.sol\":5491:5502  _positionId */\n      dup9\n        /* \"contracts/core/treasury/MPTreasury.sol\":5454:5475  positionIdByPensionId */\n      0x06\n        /* \"contracts/core/treasury/MPTreasury.sol\":5454:5488  positionIdByPensionId[_mPensionId] */\n      0x00\n        /* \"contracts/core/treasury/MPTreasury.sol\":5476:5487  _mPensionId */\n      dup14\n        /* \"contracts/core/treasury/MPTreasury.sol\":5454:5488  positionIdByPensionId[_mPensionId] */\n      dup2\n      mstore\n      0x20\n      add\n      swap1\n      dup2\n      mstore\n      0x20\n      add\n      0x00\n      keccak256\n        /* \"contracts/core/treasury/MPTreasury.sol\":5454:5502  positionIdByPensionId[_mPensionId] = _positionId */\n      dup2\n      swap1\n      sstore\n      pop\n        /* \"contracts/core/treasury/MPTreasury.sol\":5522:5606  addTx(TxType.INVEST, ObjType.MPENSION, _mPensionId, pullAmount_ , market_.fromToken) */\n      tag_227\n        /* \"contracts/core/treasury/MPTreasury.sol\":5528:5541  TxType.INVEST */\n      0x05\n        /* \"contracts/core/treasury/MPTreasury.sol\":5543:5559  ObjType.MPENSION */\n      0x00\n        /* \"contracts/core/treasury/MPTreasury.sol\":5561:5572  _mPensionId */\n      dup14\n        /* \"contracts/core/treasury/MPTreasury.sol\":5574:5585  pullAmount_ */\n      dup8\n        /* \"contracts/core/treasury/MPTreasury.sol\":5588:5595  market_ */\n      dup6\n        /* \"contracts/core/treasury/MPTreasury.sol\":5588:5605  market_.fromToken */\n      0x60\n      add\n      mload\n        /* \"contracts/core/treasury/MPTreasury.sol\":5522:5527  addTx */\n      tag_154\n        /* \"contracts/core/treasury/MPTreasury.sol\":5522:5606  addTx(TxType.INVEST, ObjType.MPENSION, _mPensionId, pullAmount_ , market_.fromToken) */\n      jump\t// in\n    tag_227:\n        /* \"contracts/core/treasury/MPTreasury.sol\":5514:5606  _txId = addTx(TxType.INVEST, ObjType.MPENSION, _mPensionId, pullAmount_ , market_.fromToken) */\n      swap8\n      pop\n        /* \"contracts/core/treasury/MPTreasury.sol\":5617:5634  txIdsByPositionId */\n      0x07\n        /* \"contracts/core/treasury/MPTreasury.sol\":5617:5647  txIdsByPositionId[_positionId] */\n      0x00\n        /* \"contracts/core/treasury/MPTreasury.sol\":5635:5646  _positionId */\n      dup11\n        /* \"contracts/core/treasury/MPTreasury.sol\":5617:5647  txIdsByPositionId[_positionId] */\n      dup2\n      mstore\n      0x20\n      add\n      swap1\n      dup2\n      mstore\n      0x20\n      add\n      0x00\n      keccak256\n        /* \"contracts/core/treasury/MPTreasury.sol\":5653:5658  _txId */\n      dup9\n        /* \"contracts/core/treasury/MPTreasury.sol\":5617:5659  txIdsByPositionId[_positionId].push(_txId) */\n      swap1\n      dup1\n      0x01\n      dup2\n      sload\n      add\n      dup1\n      dup3\n      sstore\n      dup1\n      swap2\n      pop\n      pop\n      0x01\n      swap1\n      sub\n      swap1\n      0x00\n      mstore\n      keccak256(0x00, 0x20)\n      add\n      0x00\n      swap1\n      swap2\n      swap1\n      swap2\n      swap1\n      swap2\n      pop\n      sstore\n        /* \"contracts/core/treasury/MPTreasury.sol\":5670:5697  return (_positionId, _txId) */\n      pop\n      pop\n      pop\n      pop\n      pop\n      pop\n      pop\n        /* \"contracts/core/treasury/MPTreasury.sol\":3398:5706  function invest(uint256 _mPensionId, uint256 _marketId) external bondHolderOnly returns (uint256 _positionId, uint256 _txId){... */\n      swap3\n      pop\n      swap3\n      swap1\n      pop\n      jump\t// out\n        /* \"contracts/core/treasury/MPTreasury.sol\":2884:3040  function getTxIdsByPositionId(uint256 _positionId) view external returns (uint256 [] memory _txIds){... */\n    tag_63:\n        /* \"contracts/core/treasury/MPTreasury.sol\":2958:2982  uint256 [] memory _txIds */\n      0x60\n        /* \"contracts/core/treasury/MPTreasury.sol\":3001:3018  txIdsByPositionId */\n      0x07\n        /* \"contracts/core/treasury/MPTreasury.sol\":3001:3031  txIdsByPositionId[_positionId] */\n      0x00\n        /* \"contracts/core/treasury/MPTreasury.sol\":3019:3030  _positionId */\n      dup4\n        /* \"contracts/core/treasury/MPTreasury.sol\":3001:3031  txIdsByPositionId[_positionId] */\n      dup2\n      mstore\n      0x20\n      add\n      swap1\n      dup2\n      mstore\n      0x20\n      add\n      0x00\n      keccak256\n        /* \"contracts/core/treasury/MPTreasury.sol\":2994:3031  return txIdsByPositionId[_positionId] */\n      dup1\n      sload\n      dup1\n      0x20\n      mul\n      0x20\n      add\n      mload(0x40)\n      swap1\n      dup2\n      add\n      0x40\n      mstore\n      dup1\n      swap3\n      swap2\n      swap1\n      dup2\n      dup2\n      mstore\n      0x20\n      add\n      dup3\n      dup1\n      sload\n      dup1\n      iszero\n      tag_230\n      jumpi\n      0x20\n      mul\n      dup3\n      add\n      swap2\n      swap1\n      0x00\n      mstore\n      keccak256(0x00, 0x20)\n      swap1\n    tag_231:\n      dup2\n      sload\n      dup2\n      mstore\n      0x20\n      add\n      swap1\n      0x01\n      add\n      swap1\n      dup1\n      dup4\n      gt\n      tag_231\n      jumpi\n    tag_230:\n      pop\n      pop\n      pop\n      pop\n      pop\n      swap1\n      pop\n        /* \"contracts/core/treasury/MPTreasury.sol\":2884:3040  function getTxIdsByPositionId(uint256 _positionId) view external returns (uint256 [] memory _txIds){... */\n      swap2\n      swap1\n      pop\n      jump\t// out\n        /* \"contracts/core/treasury/MPTreasury.sol\":2730:2872  function getPosition(uint256 _positionId) view external returns (Position memory _position){... */\n    tag_67:\n        /* \"contracts/core/treasury/MPTreasury.sol\":2795:2820  Position memory _position */\n      tag_232\n      tag_70\n      jump\t// in\n    tag_232:\n        /* \"contracts/core/treasury/MPTreasury.sol\":2839:2851  positionById */\n      0x05\n        /* \"contracts/core/treasury/MPTreasury.sol\":2839:2864  positionById[_positionId] */\n      0x00\n        /* \"contracts/core/treasury/MPTreasury.sol\":2852:2863  _positionId */\n      dup4\n        /* \"contracts/core/treasury/MPTreasury.sol\":2839:2864  positionById[_positionId] */\n      dup2\n      mstore\n      0x20\n      add\n      swap1\n      dup2\n      mstore\n      0x20\n      add\n      0x00\n      keccak256\n        /* \"contracts/core/treasury/MPTreasury.sol\":2832:2864  return positionById[_positionId] */\n      mload(0x40)\n      dup1\n      0x0100\n      add\n      0x40\n      mstore\n      swap1\n      dup2\n      0x00\n      dup3\n      add\n      sload\n      dup2\n      mstore\n      0x20\n      add\n      0x01\n      dup3\n      add\n      0x00\n      swap1\n      sload\n      swap1\n      0x0100\n      exp\n      swap1\n      div\n      0xff\n      and\n      0x01\n      dup2\n      gt\n      iszero\n      tag_234\n      jumpi\n      tag_235\n      tag_74\n      jump\t// in\n    tag_235:\n    tag_234:\n      0x01\n      dup2\n      gt\n      iszero\n      tag_236\n      jumpi\n      tag_237\n      tag_74\n      jump\t// in\n    tag_237:\n    tag_236:\n      dup2\n      mstore\n      0x20\n      add\n      0x02\n      dup3\n      add\n      sload\n      dup2\n      mstore\n      0x20\n      add\n      0x03\n      dup3\n      add\n      sload\n      dup2\n      mstore\n      0x20\n      add\n      0x04\n      dup3\n      add\n      0x00\n      swap1\n      sload\n      swap1\n      0x0100\n      exp\n      swap1\n      div\n      0xffffffffffffffffffffffffffffffffffffffff\n      and\n      0xffffffffffffffffffffffffffffffffffffffff\n      and\n      0xffffffffffffffffffffffffffffffffffffffff\n      and\n      dup2\n      mstore\n      0x20\n      add\n      0x05\n      dup3\n      add\n      sload\n      dup2\n      mstore\n      0x20\n      add\n      0x06\n      dup3\n      add\n      mload(0x40)\n      dup1\n      0x40\n      add\n      0x40\n      mstore\n      swap1\n      dup2\n      0x00\n      dup3\n      add\n      sload\n      dup2\n      mstore\n      0x20\n      add\n      0x01\n      dup3\n      add\n      sload\n      dup2\n      mstore\n      pop\n      pop\n      dup2\n      mstore\n      0x20\n      add\n      0x08\n      dup3\n      add\n      sload\n      dup2\n      mstore\n      pop\n      pop\n      swap1\n      pop\n        /* \"contracts/core/treasury/MPTreasury.sol\":2730:2872  function getPosition(uint256 _positionId) view external returns (Position memory _position){... */\n      swap2\n      swap1\n      pop\n      jump\t// out\n        /* \"contracts/lib/MPLib.sol\":277:671  function transferIn(address _erc20, uint256 _amount, address _self) internal returns (uint256 _balance) {... */\n    tag_116:\n        /* \"contracts/lib/MPLib.sol\":363:379  uint256 _balance */\n      0x00\n        /* \"contracts/lib/MPLib.sol\":224:266  0xEeeeeEeeeEeEeeEeEeEeeEEEeeeeEeeeeeeeEEeE */\n      0xeeeeeeeeeeeeeeeeeeeeeeeeeeeeeeeeeeeeeeee\n        /* \"contracts/lib/MPLib.sol\":395:411  _erc20 == NATIVE */\n      0xffffffffffffffffffffffffffffffffffffffff\n      and\n        /* \"contracts/lib/MPLib.sol\":395:401  _erc20 */\n      dup5\n        /* \"contracts/lib/MPLib.sol\":395:411  _erc20 == NATIVE */\n      0xffffffffffffffffffffffffffffffffffffffff\n      and\n      sub\n        /* \"contracts/lib/MPLib.sol\":392:632  if(_erc20 == NATIVE) {... */\n      tag_239\n      jumpi\n        /* \"contracts/lib/MPLib.sol\":449:456  _amount */\n      dup3\n        /* \"contracts/lib/MPLib.sol\":436:445  msg.value */\n      callvalue\n        /* \"contracts/lib/MPLib.sol\":436:456  msg.value >= _amount */\n      lt\n      iszero\n        /* \"contracts/lib/MPLib.sol\":428:483  require(msg.value >= _amount, \"contribution mis-match\") */\n      tag_240\n      jumpi\n      mload(0x40)\n      0x08c379a000000000000000000000000000000000000000000000000000000000\n      dup2\n      mstore\n      0x04\n      add\n      tag_241\n      swap1\n      tag_242\n      jump\t// in\n    tag_241:\n      mload(0x40)\n      dup1\n      swap2\n      sub\n      swap1\n      revert\n    tag_240:\n        /* \"contracts/lib/MPLib.sol\":392:632  if(_erc20 == NATIVE) {... */\n      jump(tag_243)\n    tag_239:\n        /* \"contracts/lib/MPLib.sol\":527:540  IERC20 erc20_ */\n      0x00\n        /* \"contracts/lib/MPLib.sol\":550:556  _erc20 */\n      dup5\n        /* \"contracts/lib/MPLib.sol\":527:557  IERC20 erc20_ = IERC20(_erc20) */\n      swap1\n      pop\n        /* \"contracts/lib/MPLib.sol\":572:578  erc20_ */\n      dup1\n        /* \"contracts/lib/MPLib.sol\":572:591  erc20_.transferFrom */\n      0xffffffffffffffffffffffffffffffffffffffff\n      and\n      0x23b872dd\n        /* \"contracts/lib/MPLib.sol\":592:602  msg.sender */\n      caller\n        /* \"contracts/lib/MPLib.sol\":604:609  _self */\n      dup6\n        /* \"contracts/lib/MPLib.sol\":611:618  _amount */\n      dup8\n        /* \"contracts/lib/MPLib.sol\":572:619  erc20_.transferFrom(msg.sender, _self, _amount) */\n      mload(0x40)\n      dup5\n      0xffffffff\n      and\n      0xe0\n      shl\n      dup2\n      mstore\n      0x04\n      add\n      tag_244\n      swap4\n      swap3\n      swap2\n      swap1\n      tag_245\n      jump\t// in\n    tag_244:\n      0x20\n      mload(0x40)\n      dup1\n      dup4\n      sub\n      dup2\n      0x00\n      dup8\n      gas\n      call\n      iszero\n      dup1\n      iszero\n      tag_247\n      jumpi\n      returndatacopy(0x00, 0x00, returndatasize)\n      revert(0x00, returndatasize)\n    tag_247:\n      pop\n      pop\n      pop\n      pop\n      mload(0x40)\n      returndatasize\n      not(0x1f)\n      0x1f\n      dup3\n      add\n      and\n      dup3\n      add\n      dup1\n      0x40\n      mstore\n      pop\n      dup2\n      add\n      swap1\n      tag_248\n      swap2\n      swap1\n      tag_98\n      jump\t// in\n    tag_248:\n      pop\n        /* \"contracts/lib/MPLib.sol\":511:632  { ... */\n      pop\n        /* \"contracts/lib/MPLib.sol\":392:632  if(_erc20 == NATIVE) {... */\n    tag_243:\n        /* \"contracts/lib/MPLib.sol\":649:654  _self */\n      dup2\n        /* \"contracts/lib/MPLib.sol\":649:662  _self.balance */\n      0xffffffffffffffffffffffffffffffffffffffff\n      and\n      balance\n        /* \"contracts/lib/MPLib.sol\":642:662  return _self.balance */\n      swap1\n      pop\n        /* \"contracts/lib/MPLib.sol\":277:671  function transferIn(address _erc20, uint256 _amount, address _self) internal returns (uint256 _balance) {... */\n      swap4\n      swap3\n      pop\n      pop\n      pop\n      jump\t// out\n        /* \"contracts/core/treasury/MPTreasury.sol\":8101:8346  function getPensionInternal(uint256 _mPensionId) view internal returns (MPension memory _mPension){ ... */\n    tag_118:\n        /* \"contracts/core/treasury/MPTreasury.sol\":8173:8198  MPension memory _mPension */\n      tag_249\n      tag_250\n      jump\t// in\n    tag_249:\n        /* \"contracts/core/treasury/MPTreasury.sol\":8244:8252  register */\n      0x00\n      0x00\n      swap1\n      sload\n      swap1\n      0x0100\n      exp\n      swap1\n      div\n      0xffffffffffffffffffffffffffffffffffffffff\n      and\n        /* \"contracts/core/treasury/MPTreasury.sol\":8244:8263  register.getAddress */\n      0xffffffffffffffffffffffffffffffffffffffff\n      and\n      0xbf40fac1\n        /* \"contracts/core/treasury/MPTreasury.sol\":8264:8284  MEDALION_PENSIONS_CA */\n      mload(0x40)\n      dup1\n      0x40\n      add\n      0x40\n      mstore\n      dup1\n      0x20\n      dup2\n      mstore\n      0x20\n      add\n      0x52455345525645445f4d4544414c4c494f4e5f50454e53494f4e535f434f5245\n      dup2\n      mstore\n      pop\n        /* \"contracts/core/treasury/MPTreasury.sol\":8244:8285  register.getAddress(MEDALION_PENSIONS_CA) */\n      mload(0x40)\n      dup3\n      0xffffffff\n      and\n      0xe0\n      shl\n      dup2\n      mstore\n      0x04\n      add\n      tag_252\n      swap2\n      swap1\n      tag_29\n      jump\t// in\n    tag_252:\n      0x20\n      mload(0x40)\n      dup1\n      dup4\n      sub\n      dup2\n      dup7\n      gas\n      staticcall\n      iszero\n      dup1\n      iszero\n      tag_254\n      jumpi\n      returndatacopy(0x00, 0x00, returndatasize)\n      revert(0x00, returndatasize)\n    tag_254:\n      pop\n      pop\n      pop\n      pop\n      mload(0x40)\n      returndatasize\n      not(0x1f)\n      0x1f\n      dup3\n      add\n      and\n      dup3\n      add\n      dup1\n      0x40\n      mstore\n      pop\n      dup2\n      add\n      swap1\n      tag_255\n      swap2\n      swap1\n      tag_92\n      jump\t// in\n    tag_255:\n        /* \"contracts/core/treasury/MPTreasury.sol\":8225:8297  IMedallionPensions(register.getAddress(MEDALION_PENSIONS_CA)).getPension */\n      0xffffffffffffffffffffffffffffffffffffffff\n      and\n      0x77bdfdf2\n        /* \"contracts/core/treasury/MPTreasury.sol\":8298:8309  _mPensionId */\n      dup4\n        /* \"contracts/core/treasury/MPTreasury.sol\":8225:8310  IMedallionPensions(register.getAddress(MEDALION_PENSIONS_CA)).getPension(_mPensionId) */\n      mload(0x40)\n      dup3\n      0xffffffff\n      and\n      0xe0\n      shl\n      dup2\n      mstore\n      0x04\n      add\n      tag_256\n      swap2\n      swap1\n      tag_25\n      jump\t// in\n    tag_256:\n      0x03c0\n      mload(0x40)\n      dup1\n      dup4\n      sub\n      dup2\n      dup7\n      gas\n      staticcall\n      iszero\n      dup1\n      iszero\n      tag_258\n      jumpi\n      returndatacopy(0x00, 0x00, returndatasize)\n      revert(0x00, returndatasize)\n    tag_258:\n      pop\n      pop\n      pop\n      pop\n      mload(0x40)\n      returndatasize\n      not(0x1f)\n      0x1f\n      dup3\n      add\n      and\n      dup3\n      add\n      dup1\n      0x40\n      mstore\n      pop\n      dup2\n      add\n      swap1\n      tag_259\n      swap2\n      swap1\n      tag_260\n      jump\t// in\n    tag_259:\n        /* \"contracts/core/treasury/MPTreasury.sol\":8213:8310  _mPension = IMedallionPensions(register.getAddress(MEDALION_PENSIONS_CA)).getPension(_mPensionId) */\n      swap1\n      pop\n        /* \"contracts/core/treasury/MPTreasury.sol\":8101:8346  function getPensionInternal(uint256 _mPensionId) view internal returns (MPension memory _mPension){ ... */\n      swap2\n      swap1\n      pop\n      jump\t// out\n        /* \"contracts/lib/MPLib.sol\":1242:1561  function remove(uint256 [] memory a, uint256 b) pure internal returns (uint256 [] memory c){... */\n    tag_150:\n        /* \"contracts/lib/MPLib.sol\":1313:1332  uint256 [] memory c */\n      0x60\n        /* \"contracts/lib/MPLib.sol\":1371:1372  1 */\n      0x01\n        /* \"contracts/lib/MPLib.sol\":1362:1363  a */\n      dup4\n        /* \"contracts/lib/MPLib.sol\":1362:1370  a.length */\n      mload\n        /* \"contracts/lib/MPLib.sol\":1362:1372  a.length-1 */\n      tag_262\n      swap2\n      swap1\n      tag_120\n      jump\t// in\n    tag_262:\n        /* \"contracts/lib/MPLib.sol\":1348:1373  new uint256[](a.length-1) */\n      0xffffffffffffffff\n      dup2\n      gt\n      iszero\n      tag_263\n      jumpi\n      tag_264\n      tag_265\n      jump\t// in\n    tag_264:\n    tag_263:\n      mload(0x40)\n      swap1\n      dup1\n      dup3\n      mstore\n      dup1\n      0x20\n      mul\n      0x20\n      add\n      dup3\n      add\n      0x40\n      mstore\n      dup1\n      iszero\n      tag_266\n      jumpi\n      dup2\n      0x20\n      add\n      0x20\n      dup3\n      mul\n      dup1\n      calldatasize\n      dup4\n      calldatacopy\n      dup1\n      dup3\n      add\n      swap2\n      pop\n      pop\n      swap1\n      pop\n    tag_266:\n      pop\n        /* \"contracts/lib/MPLib.sol\":1344:1373  c = new uint256[](a.length-1) */\n      swap1\n      pop\n        /* \"contracts/lib/MPLib.sol\":1385:1394  uint256 y */\n      0x00\n        /* \"contracts/lib/MPLib.sol\":1397:1398  0 */\n      0x00\n        /* \"contracts/lib/MPLib.sol\":1385:1398  uint256 y = 0 */\n      swap1\n      pop\n        /* \"contracts/lib/MPLib.sol\":1414:1423  uint256 x */\n      0x00\n        /* \"contracts/lib/MPLib.sol\":1426:1427  0 */\n      0x00\n        /* \"contracts/lib/MPLib.sol\":1414:1427  uint256 x = 0 */\n      swap1\n      pop\n        /* \"contracts/lib/MPLib.sol\":1410:1534  for(uint256 x = 0; x < a.length; x++) {... */\n    tag_267:\n        /* \"contracts/lib/MPLib.sol\":1433:1434  a */\n      dup5\n        /* \"contracts/lib/MPLib.sol\":1433:1441  a.length */\n      mload\n        /* \"contracts/lib/MPLib.sol\":1429:1430  x */\n      dup2\n        /* \"contracts/lib/MPLib.sol\":1429:1441  x < a.length */\n      lt\n        /* \"contracts/lib/MPLib.sol\":1410:1534  for(uint256 x = 0; x < a.length; x++) {... */\n      iszero\n      tag_268\n      jumpi\n        /* \"contracts/lib/MPLib.sol\":1474:1475  b */\n      dup4\n        /* \"contracts/lib/MPLib.sol\":1466:1467  a */\n      dup6\n        /* \"contracts/lib/MPLib.sol\":1468:1469  x */\n      dup3\n        /* \"contracts/lib/MPLib.sol\":1466:1470  a[x] */\n      dup2\n      mload\n      dup2\n      lt\n      tag_270\n      jumpi\n      tag_271\n      tag_272\n      jump\t// in\n    tag_271:\n    tag_270:\n      0x20\n      mul\n      0x20\n      add\n      add\n      mload\n        /* \"contracts/lib/MPLib.sol\":1466:1475  a[x] != b */\n      eq\n        /* \"contracts/lib/MPLib.sol\":1463:1523  if(a[x] != b) {... */\n      tag_273\n      jumpi\n        /* \"contracts/lib/MPLib.sol\":1503:1504  a */\n      dup5\n        /* \"contracts/lib/MPLib.sol\":1505:1506  x */\n      dup2\n        /* \"contracts/lib/MPLib.sol\":1503:1507  a[x] */\n      dup2\n      mload\n      dup2\n      lt\n      tag_274\n      jumpi\n      tag_275\n      tag_272\n      jump\t// in\n    tag_275:\n    tag_274:\n      0x20\n      mul\n      0x20\n      add\n      add\n      mload\n        /* \"contracts/lib/MPLib.sol\":1496:1497  c */\n      dup4\n        /* \"contracts/lib/MPLib.sol\":1498:1499  y */\n      dup4\n        /* \"contracts/lib/MPLib.sol\":1496:1500  c[y] */\n      dup2\n      mload\n      dup2\n      lt\n      tag_276\n      jumpi\n      tag_277\n      tag_272\n      jump\t// in\n    tag_277:\n    tag_276:\n      0x20\n      mul\n      0x20\n      add\n      add\n        /* \"contracts/lib/MPLib.sol\":1496:1507  c[y] = a[x] */\n      dup2\n      dup2\n      mstore\n      pop\n      pop\n        /* \"contracts/lib/MPLib.sol\":1463:1523  if(a[x] != b) {... */\n    tag_273:\n        /* \"contracts/lib/MPLib.sol\":1443:1446  x++ */\n      dup1\n      dup1\n      0x01\n      add\n      swap2\n      pop\n      pop\n        /* \"contracts/lib/MPLib.sol\":1410:1534  for(uint256 x = 0; x < a.length; x++) {... */\n      jump(tag_267)\n    tag_268:\n      pop\n        /* \"contracts/lib/MPLib.sol\":1544:1552  return c */\n      pop\n        /* \"contracts/lib/MPLib.sol\":1242:1561  function remove(uint256 [] memory a, uint256 b) pure internal returns (uint256 [] memory c){... */\n      swap3\n      swap2\n      pop\n      pop\n      jump\t// out\n        /* \"contracts/core/treasury/MPTreasury.sol\":7822:8093  function addTx(TxType _txType, ObjType _objType, uint256 _pensionId, uint256 _amount, address _erc20) internal returns (uint256 _txId){... */\n    tag_154:\n        /* \"contracts/core/treasury/MPTreasury.sol\":7942:7955  uint256 _txId */\n      0x00\n        /* \"contracts/core/treasury/MPTreasury.sol\":7988:7996  register */\n      0x00\n      0x00\n      swap1\n      sload\n      swap1\n      0x0100\n      exp\n      swap1\n      div\n      0xffffffffffffffffffffffffffffffffffffffff\n      and\n        /* \"contracts/core/treasury/MPTreasury.sol\":7988:8007  register.getAddress */\n      0xffffffffffffffffffffffffffffffffffffffff\n      and\n      0xbf40fac1\n        /* \"contracts/core/treasury/MPTreasury.sol\":8008:8021  TX_MANAGER_CA */\n      mload(0x40)\n      dup1\n      0x40\n      add\n      0x40\n      mstore\n      dup1\n      0x16\n      dup2\n      mstore\n      0x20\n      add\n      0x52455345525645445f4d505f54585f4d414e4147455200000000000000000000\n      dup2\n      mstore\n      pop\n        /* \"contracts/core/treasury/MPTreasury.sol\":7988:8022  register.getAddress(TX_MANAGER_CA) */\n      mload(0x40)\n      dup3\n      0xffffffff\n      and\n      0xe0\n      shl\n      dup2\n      mstore\n      0x04\n      add\n      tag_279\n      swap2\n      swap1\n      tag_29\n      jump\t// in\n    tag_279:\n      0x20\n      mload(0x40)\n      dup1\n      dup4\n      sub\n      dup2\n      dup7\n      gas\n      staticcall\n      iszero\n      dup1\n      iszero\n      tag_281\n      jumpi\n      returndatacopy(0x00, 0x00, returndatasize)\n      revert(0x00, returndatasize)\n    tag_281:\n      pop\n      pop\n      pop\n      pop\n      mload(0x40)\n      returndatasize\n      not(0x1f)\n      0x1f\n      dup3\n      add\n      and\n      dup3\n      add\n      dup1\n      0x40\n      mstore\n      pop\n      dup2\n      add\n      swap1\n      tag_282\n      swap2\n      swap1\n      tag_92\n      jump\t// in\n    tag_282:\n        /* \"contracts/core/treasury/MPTreasury.sol\":7975:8029  IMPTxManager(register.getAddress(TX_MANAGER_CA)).addTx */\n      0xffffffffffffffffffffffffffffffffffffffff\n      and\n      0xee16e639\n        /* \"contracts/core/treasury/MPTreasury.sol\":8030:8037  _txType */\n      dup8\n        /* \"contracts/core/treasury/MPTreasury.sol\":8040:8048  _objType */\n      dup8\n        /* \"contracts/core/treasury/MPTreasury.sol\":8050:8060  _pensionId */\n      dup8\n        /* \"contracts/core/treasury/MPTreasury.sol\":8062:8066  self */\n      immutable(\"0x0330c0d84464f890f3c81afbba7a3a05e0e864ec2e31676dedcb075b2bf855a0\")\n        /* \"contracts/core/treasury/MPTreasury.sol\":8068:8075  _amount */\n      dup9\n        /* \"contracts/core/treasury/MPTreasury.sol\":8077:8083  _erc20 */\n      dup9\n        /* \"contracts/core/treasury/MPTreasury.sol\":7975:8084  IMPTxManager(register.getAddress(TX_MANAGER_CA)).addTx(_txType,  _objType, _pensionId, self, _amount, _erc20) */\n      mload(0x40)\n      dup8\n      0xffffffff\n      and\n      0xe0\n      shl\n      dup2\n      mstore\n      0x04\n      add\n      tag_283\n      swap7\n      swap6\n      swap5\n      swap4\n      swap3\n      swap2\n      swap1\n      tag_284\n      jump\t// in\n    tag_283:\n      0x20\n      mload(0x40)\n      dup1\n      dup4\n      sub\n      dup2\n      0x00\n      dup8\n      gas\n      call\n      iszero\n      dup1\n      iszero\n      tag_286\n      jumpi\n      returndatacopy(0x00, 0x00, returndatasize)\n      revert(0x00, returndatasize)\n    tag_286:\n      pop\n      pop\n      pop\n      pop\n      mload(0x40)\n      returndatasize\n      not(0x1f)\n      0x1f\n      dup3\n      add\n      and\n      dup3\n      add\n      dup1\n      0x40\n      mstore\n      pop\n      dup2\n      add\n      swap1\n      tag_287\n      swap2\n      swap1\n      tag_127\n      jump\t// in\n    tag_287:\n        /* \"contracts/core/treasury/MPTreasury.sol\":7968:8084  return IMPTxManager(register.getAddress(TX_MANAGER_CA)).addTx(_txType,  _objType, _pensionId, self, _amount, _erc20) */\n      swap1\n      pop\n        /* \"contracts/core/treasury/MPTreasury.sol\":7822:8093  function addTx(TxType _txType, ObjType _objType, uint256 _pensionId, uint256 _amount, address _erc20) internal returns (uint256 _txId){... */\n      swap6\n      swap5\n      pop\n      pop\n      pop\n      pop\n      pop\n      jump\t// out\n        /* \"contracts/core/treasury/MPTreasury.sol\":8354:8469  function getIndex() internal returns (uint256 _index) {... */\n    tag_183:\n        /* \"contracts/core/treasury/MPTreasury.sol\":8392:8406  uint256 _index */\n      0x00\n        /* \"contracts/core/treasury/MPTreasury.sol\":8428:8433  index */\n      0x03\n      0x00\n        /* \"contracts/core/treasury/MPTreasury.sol\":8428:8435  index++ */\n      dup2\n      sload\n      dup1\n      swap3\n      swap2\n      swap1\n      tag_289\n      swap1\n      tag_290\n      jump\t// in\n    tag_289:\n      swap2\n      swap1\n      pop\n      sstore\n        /* \"contracts/core/treasury/MPTreasury.sol\":8419:8435  _index = index++ */\n      swap1\n      pop\n        /* \"contracts/core/treasury/MPTreasury.sol\":8354:8469  function getIndex() internal returns (uint256 _index) {... */\n      swap1\n      jump\t// out\n    tag_70:\n      mload(0x40)\n      dup1\n      0x0100\n      add\n      0x40\n      mstore\n      dup1\n      0x00\n      dup2\n      mstore\n      0x20\n      add\n      0x00\n      0x01\n      dup2\n      gt\n      iszero\n      tag_291\n      jumpi\n      tag_292\n      tag_74\n      jump\t// in\n    tag_292:\n    tag_291:\n      dup2\n      mstore\n      0x20\n      add\n      0x00\n      dup2\n      mstore\n      0x20\n      add\n      0x00\n      dup2\n      mstore\n      0x20\n      add\n      and(0xffffffffffffffffffffffffffffffffffffffff, 0x00)\n      dup2\n      mstore\n      0x20\n      add\n      0x00\n      dup2\n      mstore\n      0x20\n      add\n      tag_293\n      tag_294\n      jump\t// in\n    tag_293:\n      dup2\n      mstore\n      0x20\n      add\n      0x00\n      dup2\n      mstore\n      pop\n      swap1\n      jump\t// out\n    tag_152:\n      dup3\n      dup1\n      sload\n      dup3\n      dup3\n      sstore\n      swap1\n      0x00\n      mstore\n      keccak256(0x00, 0x20)\n      swap1\n      dup2\n      add\n      swap3\n      dup3\n      iszero\n      tag_295\n      jumpi\n      swap2\n      0x20\n      mul\n      dup3\n      add\n    tag_296:\n      dup3\n      dup2\n      gt\n      iszero\n      tag_297\n      jumpi\n      dup3\n      mload\n      dup3\n      sstore\n      swap2\n      0x20\n      add\n      swap2\n      swap1\n      0x01\n      add\n      swap1\n      jump(tag_296)\n    tag_297:\n    tag_295:\n      pop\n      swap1\n      pop\n      tag_298\n      swap2\n      swap1\n      tag_299\n      jump\t// in\n    tag_298:\n      pop\n      swap1\n      jump\t// out\n    tag_250:\n      mload(0x40)\n      dup1\n      0xe0\n      add\n      0x40\n      mstore\n      dup1\n      0x00\n      dup2\n      mstore\n      0x20\n      add\n      and(0xffffffffffffffffffffffffffffffffffffffff, 0x00)\n      dup2\n      mstore\n      0x20\n      add\n      and(0xffffffffffffffffffffffffffffffffffffffff, 0x00)\n      dup2\n      mstore\n      0x20\n      add\n      and(0xffffffffffffffffffffffffffffffffffffffff, 0x00)\n      dup2\n      mstore\n      0x20\n      add\n      0x00\n      dup2\n      mstore\n      0x20\n      add\n      0x00\n      dup2\n      mstore\n      0x20\n      add\n      tag_300\n      tag_301\n      jump\t// in\n    tag_300:\n      dup2\n      mstore\n      pop\n      swap1\n      jump\t// out\n    tag_294:\n      mload(0x40)\n      dup1\n      0x40\n      add\n      0x40\n      mstore\n      dup1\n      0x00\n      dup2\n      mstore\n      0x20\n      add\n      0x00\n      dup2\n      mstore\n      pop\n      swap1\n      jump\t// out\n    tag_299:\n    tag_302:\n      dup1\n      dup3\n      gt\n      iszero\n      tag_303\n      jumpi\n      0x00\n      dup2\n      0x00\n      swap1\n      sstore\n      pop\n      0x01\n      add\n      jump(tag_302)\n    tag_303:\n      pop\n      swap1\n      jump\t// out\n    tag_301:\n      mload(0x40)\n      dup1\n      0x01a0\n      add\n      0x40\n      mstore\n      dup1\n      0x00\n      dup2\n      mstore\n      0x20\n      add\n      and(0xffffffffffffffffffffffffffffffffffffffff, 0x00)\n      dup2\n      mstore\n      0x20\n      add\n      and(0xffffffffffffffffffffffffffffffffffffffff, 0x00)\n      dup2\n      mstore\n      0x20\n      add\n      0x00\n      dup2\n      mstore\n      0x20\n      add\n      0x00\n      dup2\n      mstore\n      0x20\n      add\n      0x00\n      dup2\n      mstore\n      0x20\n      add\n      0x00\n      0x02\n      dup2\n      gt\n      iszero\n      tag_304\n      jumpi\n      tag_305\n      tag_74\n      jump\t// in\n    tag_305:\n    tag_304:\n      dup2\n      mstore\n      0x20\n      add\n      tag_306\n      tag_307\n      jump\t// in\n    tag_306:\n      dup2\n      mstore\n      0x20\n      add\n      tag_308\n      tag_307\n      jump\t// in\n    tag_308:\n      dup2\n      mstore\n      0x20\n      add\n      tag_309\n      tag_294\n      jump\t// in\n    tag_309:\n      dup2\n      mstore\n      0x20\n      add\n      0x00\n      dup2\n      mstore\n      0x20\n      add\n      0x00\n      dup2\n      mstore\n      0x20\n      add\n      0x00\n      dup2\n      mstore\n      pop\n      swap1\n      jump\t// out\n    tag_307:\n      mload(0x40)\n      dup1\n      0xc0\n      add\n      0x40\n      mstore\n      dup1\n      0x00\n      0x03\n      dup2\n      gt\n      iszero\n      tag_310\n      jumpi\n      tag_311\n      tag_74\n      jump\t// in\n    tag_311:\n    tag_310:\n      dup2\n      mstore\n      0x20\n      add\n      0x00\n      dup2\n      mstore\n      0x20\n      add\n      0x00\n      dup2\n      mstore\n      0x20\n      add\n      0x00\n      dup2\n      mstore\n      0x20\n      add\n      0x00\n      dup2\n      mstore\n      0x20\n      add\n      0x00\n      dup2\n      mstore\n      pop\n      swap1\n      jump\t// out\n        /* \"#utility.yul\":7:82   */\n    tag_312:\n        /* \"#utility.yul\":40:46   */\n      0x00\n        /* \"#utility.yul\":73:75   */\n      0x40\n        /* \"#utility.yul\":67:76   */\n      mload\n        /* \"#utility.yul\":57:76   */\n      swap1\n      pop\n        /* \"#utility.yul\":7:82   */\n      swap1\n      jump\t// out\n        /* \"#utility.yul\":88:205   */\n    tag_313:\n        /* \"#utility.yul\":197:198   */\n      0x00\n        /* \"#utility.yul\":194:195   */\n      0x00\n        /* \"#utility.yul\":187:199   */\n      revert\n        /* \"#utility.yul\":334:411   */\n    tag_315:\n        /* \"#utility.yul\":371:378   */\n      0x00\n        /* \"#utility.yul\":400:405   */\n      dup2\n        /* \"#utility.yul\":389:405   */\n      swap1\n      pop\n        /* \"#utility.yul\":334:411   */\n      swap2\n      swap1\n      pop\n      jump\t// out\n        /* \"#utility.yul\":417:539   */\n    tag_316:\n        /* \"#utility.yul\":490:514   */\n      tag_396\n        /* \"#utility.yul\":508:513   */\n      dup2\n        /* \"#utility.yul\":490:514   */\n      tag_315\n      jump\t// in\n    tag_396:\n        /* \"#utility.yul\":483:488   */\n      dup2\n        /* \"#utility.yul\":480:515   */\n      eq\n        /* \"#utility.yul\":470:533   */\n      tag_397\n      jumpi\n        /* \"#utility.yul\":529:530   */\n      0x00\n        /* \"#utility.yul\":526:527   */\n      0x00\n        /* \"#utility.yul\":519:531   */\n      revert\n        /* \"#utility.yul\":470:533   */\n    tag_397:\n        /* \"#utility.yul\":417:539   */\n      pop\n      jump\t// out\n        /* \"#utility.yul\":545:684   */\n    tag_317:\n        /* \"#utility.yul\":591:596   */\n      0x00\n        /* \"#utility.yul\":629:635   */\n      dup2\n        /* \"#utility.yul\":616:636   */\n      calldataload\n        /* \"#utility.yul\":607:636   */\n      swap1\n      pop\n        /* \"#utility.yul\":645:678   */\n      tag_399\n        /* \"#utility.yul\":672:677   */\n      dup2\n        /* \"#utility.yul\":645:678   */\n      tag_316\n      jump\t// in\n    tag_399:\n        /* \"#utility.yul\":545:684   */\n      swap3\n      swap2\n      pop\n      pop\n      jump\t// out\n        /* \"#utility.yul\":690:1019   */\n    tag_18:\n        /* \"#utility.yul\":749:755   */\n      0x00\n        /* \"#utility.yul\":798:800   */\n      0x20\n        /* \"#utility.yul\":786:795   */\n      dup3\n        /* \"#utility.yul\":777:784   */\n      dup5\n        /* \"#utility.yul\":773:796   */\n      sub\n        /* \"#utility.yul\":769:801   */\n      slt\n        /* \"#utility.yul\":766:885   */\n      iszero\n      tag_401\n      jumpi\n        /* \"#utility.yul\":804:883   */\n      tag_402\n      tag_313\n      jump\t// in\n    tag_402:\n        /* \"#utility.yul\":766:885   */\n    tag_401:\n        /* \"#utility.yul\":924:925   */\n      0x00\n        /* \"#utility.yul\":949:1002   */\n      tag_403\n        /* \"#utility.yul\":994:1001   */\n      dup5\n        /* \"#utility.yul\":985:991   */\n      dup3\n        /* \"#utility.yul\":974:983   */\n      dup6\n        /* \"#utility.yul\":970:992   */\n      add\n        /* \"#utility.yul\":949:1002   */\n      tag_317\n      jump\t// in\n    tag_403:\n        /* \"#utility.yul\":939:1002   */\n      swap2\n      pop\n        /* \"#utility.yul\":895:1012   */\n      pop\n        /* \"#utility.yul\":690:1019   */\n      swap3\n      swap2\n      pop\n      pop\n      jump\t// out\n        /* \"#utility.yul\":1025:1133   */\n    tag_318:\n        /* \"#utility.yul\":1102:1126   */\n      tag_405\n        /* \"#utility.yul\":1120:1125   */\n      dup2\n        /* \"#utility.yul\":1102:1126   */\n      tag_315\n      jump\t// in\n    tag_405:\n        /* \"#utility.yul\":1097:1100   */\n      dup3\n        /* \"#utility.yul\":1090:1127   */\n      mstore\n        /* \"#utility.yul\":1025:1133   */\n      pop\n      pop\n      jump\t// out\n        /* \"#utility.yul\":1139:1319   */\n    tag_74:\n        /* \"#utility.yul\":1187:1264   */\n      0x4e487b7100000000000000000000000000000000000000000000000000000000\n        /* \"#utility.yul\":1184:1185   */\n      0x00\n        /* \"#utility.yul\":1177:1265   */\n      mstore\n        /* \"#utility.yul\":1284:1288   */\n      0x21\n        /* \"#utility.yul\":1281:1282   */\n      0x04\n        /* \"#utility.yul\":1274:1289   */\n      mstore\n        /* \"#utility.yul\":1308:1312   */\n      0x24\n        /* \"#utility.yul\":1305:1306   */\n      0x00\n        /* \"#utility.yul\":1298:1313   */\n      revert\n        /* \"#utility.yul\":1325:1449   */\n    tag_319:\n        /* \"#utility.yul\":1417:1418   */\n      0x02\n        /* \"#utility.yul\":1410:1415   */\n      dup2\n        /* \"#utility.yul\":1407:1419   */\n      lt\n        /* \"#utility.yul\":1397:1443   */\n      tag_408\n      jumpi\n        /* \"#utility.yul\":1423:1441   */\n      tag_409\n      tag_74\n      jump\t// in\n    tag_409:\n        /* \"#utility.yul\":1397:1443   */\n    tag_408:\n        /* \"#utility.yul\":1325:1449   */\n      pop\n      jump\t// out\n        /* \"#utility.yul\":1455:1604   */\n    tag_320:\n        /* \"#utility.yul\":1511:1518   */\n      0x00\n        /* \"#utility.yul\":1540:1545   */\n      dup2\n        /* \"#utility.yul\":1529:1545   */\n      swap1\n      pop\n        /* \"#utility.yul\":1546:1598   */\n      tag_411\n        /* \"#utility.yul\":1592:1597   */\n      dup3\n        /* \"#utility.yul\":1546:1598   */\n      tag_319\n      jump\t// in\n    tag_411:\n        /* \"#utility.yul\":1455:1604   */\n      swap2\n      swap1\n      pop\n      jump\t// out\n        /* \"#utility.yul\":1610:1759   */\n    tag_321:\n        /* \"#utility.yul\":1677:1686   */\n      0x00\n        /* \"#utility.yul\":1710:1753   */\n      tag_413\n        /* \"#utility.yul\":1747:1752   */\n      dup3\n        /* \"#utility.yul\":1710:1753   */\n      tag_320\n      jump\t// in\n    tag_413:\n        /* \"#utility.yul\":1697:1753   */\n      swap1\n      pop\n        /* \"#utility.yul\":1610:1759   */\n      swap2\n      swap1\n      pop\n      jump\t// out\n        /* \"#utility.yul\":1765:1920   */\n    tag_322:\n        /* \"#utility.yul\":1859:1913   */\n      tag_415\n        /* \"#utility.yul\":1907:1912   */\n      dup2\n        /* \"#utility.yul\":1859:1913   */\n      tag_321\n      jump\t// in\n    tag_415:\n        /* \"#utility.yul\":1854:1857   */\n      dup3\n        /* \"#utility.yul\":1847:1914   */\n      mstore\n        /* \"#utility.yul\":1765:1920   */\n      pop\n      pop\n      jump\t// out\n        /* \"#utility.yul\":1926:2052   */\n    tag_323:\n        /* \"#utility.yul\":1963:1970   */\n      0x00\n        /* \"#utility.yul\":2003:2045   */\n      0xffffffffffffffffffffffffffffffffffffffff\n        /* \"#utility.yul\":1996:2001   */\n      dup3\n        /* \"#utility.yul\":1992:2046   */\n      and\n        /* \"#utility.yul\":1981:2046   */\n      swap1\n      pop\n        /* \"#utility.yul\":1926:2052   */\n      swap2\n      swap1\n      pop\n      jump\t// out\n        /* \"#utility.yul\":2058:2154   */\n    tag_324:\n        /* \"#utility.yul\":2095:2102   */\n      0x00\n        /* \"#utility.yul\":2124:2148   */\n      tag_418\n        /* \"#utility.yul\":2142:2147   */\n      dup3\n        /* \"#utility.yul\":2124:2148   */\n      tag_323\n      jump\t// in\n    tag_418:\n        /* \"#utility.yul\":2113:2148   */\n      swap1\n      pop\n        /* \"#utility.yul\":2058:2154   */\n      swap2\n      swap1\n      pop\n      jump\t// out\n        /* \"#utility.yul\":2160:2268   */\n    tag_325:\n        /* \"#utility.yul\":2237:2261   */\n      tag_420\n        /* \"#utility.yul\":2255:2260   */\n      dup2\n        /* \"#utility.yul\":2237:2261   */\n      tag_324\n      jump\t// in\n    tag_420:\n        /* \"#utility.yul\":2232:2235   */\n      dup3\n        /* \"#utility.yul\":2225:2262   */\n      mstore\n        /* \"#utility.yul\":2160:2268   */\n      pop\n      pop\n      jump\t// out\n        /* \"#utility.yul\":2318:2845   */\n    tag_326:\n        /* \"#utility.yul\":2459:2463   */\n      0x40\n        /* \"#utility.yul\":2454:2457   */\n      dup3\n        /* \"#utility.yul\":2450:2464   */\n      add\n        /* \"#utility.yul\":2559:2563   */\n      0x00\n        /* \"#utility.yul\":2552:2557   */\n      dup3\n        /* \"#utility.yul\":2548:2564   */\n      add\n        /* \"#utility.yul\":2542:2565   */\n      mload\n        /* \"#utility.yul\":2578:2641   */\n      tag_422\n        /* \"#utility.yul\":2635:2639   */\n      0x00\n        /* \"#utility.yul\":2630:2633   */\n      dup6\n        /* \"#utility.yul\":2626:2640   */\n      add\n        /* \"#utility.yul\":2612:2624   */\n      dup3\n        /* \"#utility.yul\":2578:2641   */\n      tag_318\n      jump\t// in\n    tag_422:\n        /* \"#utility.yul\":2474:2651   */\n      pop\n        /* \"#utility.yul\":2746:2750   */\n      0x20\n        /* \"#utility.yul\":2739:2744   */\n      dup3\n        /* \"#utility.yul\":2735:2751   */\n      add\n        /* \"#utility.yul\":2729:2752   */\n      mload\n        /* \"#utility.yul\":2765:2828   */\n      tag_423\n        /* \"#utility.yul\":2822:2826   */\n      0x20\n        /* \"#utility.yul\":2817:2820   */\n      dup6\n        /* \"#utility.yul\":2813:2827   */\n      add\n        /* \"#utility.yul\":2799:2811   */\n      dup3\n        /* \"#utility.yul\":2765:2828   */\n      tag_318\n      jump\t// in\n    tag_423:\n        /* \"#utility.yul\":2661:2838   */\n      pop\n        /* \"#utility.yul\":2428:2845   */\n      pop\n        /* \"#utility.yul\":2318:2845   */\n      pop\n      pop\n      jump\t// out\n        /* \"#utility.yul\":2893:4542   */\n    tag_327:\n        /* \"#utility.yul\":3042:3048   */\n      0x0120\n        /* \"#utility.yul\":3037:3040   */\n      dup3\n        /* \"#utility.yul\":3033:3049   */\n      add\n        /* \"#utility.yul\":3129:3133   */\n      0x00\n        /* \"#utility.yul\":3122:3127   */\n      dup3\n        /* \"#utility.yul\":3118:3134   */\n      add\n        /* \"#utility.yul\":3112:3135   */\n      mload\n        /* \"#utility.yul\":3148:3211   */\n      tag_425\n        /* \"#utility.yul\":3205:3209   */\n      0x00\n        /* \"#utility.yul\":3200:3203   */\n      dup6\n        /* \"#utility.yul\":3196:3210   */\n      add\n        /* \"#utility.yul\":3182:3194   */\n      dup3\n        /* \"#utility.yul\":3148:3211   */\n      tag_318\n      jump\t// in\n    tag_425:\n        /* \"#utility.yul\":3059:3221   */\n      pop\n        /* \"#utility.yul\":3305:3309   */\n      0x20\n        /* \"#utility.yul\":3298:3303   */\n      dup3\n        /* \"#utility.yul\":3294:3310   */\n      add\n        /* \"#utility.yul\":3288:3311   */\n      mload\n        /* \"#utility.yul\":3324:3404   */\n      tag_426\n        /* \"#utility.yul\":3398:3402   */\n      0x20\n        /* \"#utility.yul\":3393:3396   */\n      dup6\n        /* \"#utility.yul\":3389:3403   */\n      add\n        /* \"#utility.yul\":3375:3387   */\n      dup3\n        /* \"#utility.yul\":3324:3404   */\n      tag_322\n      jump\t// in\n    tag_426:\n        /* \"#utility.yul\":3231:3414   */\n      pop\n        /* \"#utility.yul\":3502:3506   */\n      0x40\n        /* \"#utility.yul\":3495:3500   */\n      dup3\n        /* \"#utility.yul\":3491:3507   */\n      add\n        /* \"#utility.yul\":3485:3508   */\n      mload\n        /* \"#utility.yul\":3521:3584   */\n      tag_427\n        /* \"#utility.yul\":3578:3582   */\n      0x40\n        /* \"#utility.yul\":3573:3576   */\n      dup6\n        /* \"#utility.yul\":3569:3583   */\n      add\n        /* \"#utility.yul\":3555:3567   */\n      dup3\n        /* \"#utility.yul\":3521:3584   */\n      tag_318\n      jump\t// in\n    tag_427:\n        /* \"#utility.yul\":3424:3594   */\n      pop\n        /* \"#utility.yul\":3678:3682   */\n      0x60\n        /* \"#utility.yul\":3671:3676   */\n      dup3\n        /* \"#utility.yul\":3667:3683   */\n      add\n        /* \"#utility.yul\":3661:3684   */\n      mload\n        /* \"#utility.yul\":3697:3760   */\n      tag_428\n        /* \"#utility.yul\":3754:3758   */\n      0x60\n        /* \"#utility.yul\":3749:3752   */\n      dup6\n        /* \"#utility.yul\":3745:3759   */\n      add\n        /* \"#utility.yul\":3731:3743   */\n      dup3\n        /* \"#utility.yul\":3697:3760   */\n      tag_318\n      jump\t// in\n    tag_428:\n        /* \"#utility.yul\":3604:3770   */\n      pop\n        /* \"#utility.yul\":3853:3857   */\n      0x80\n        /* \"#utility.yul\":3846:3851   */\n      dup3\n        /* \"#utility.yul\":3842:3858   */\n      add\n        /* \"#utility.yul\":3836:3859   */\n      mload\n        /* \"#utility.yul\":3872:3935   */\n      tag_429\n        /* \"#utility.yul\":3929:3933   */\n      0x80\n        /* \"#utility.yul\":3924:3927   */\n      dup6\n        /* \"#utility.yul\":3920:3934   */\n      add\n        /* \"#utility.yul\":3906:3918   */\n      dup3\n        /* \"#utility.yul\":3872:3935   */\n      tag_325\n      jump\t// in\n    tag_429:\n        /* \"#utility.yul\":3780:3945   */\n      pop\n        /* \"#utility.yul\":4030:4034   */\n      0xa0\n        /* \"#utility.yul\":4023:4028   */\n      dup3\n        /* \"#utility.yul\":4019:4035   */\n      add\n        /* \"#utility.yul\":4013:4036   */\n      mload\n        /* \"#utility.yul\":4049:4112   */\n      tag_430\n        /* \"#utility.yul\":4106:4110   */\n      0xa0\n        /* \"#utility.yul\":4101:4104   */\n      dup6\n        /* \"#utility.yul\":4097:4111   */\n      add\n        /* \"#utility.yul\":4083:4095   */\n      dup3\n        /* \"#utility.yul\":4049:4112   */\n      tag_318\n      jump\t// in\n    tag_430:\n        /* \"#utility.yul\":3955:4122   */\n      pop\n        /* \"#utility.yul\":4209:4213   */\n      0xc0\n        /* \"#utility.yul\":4202:4207   */\n      dup3\n        /* \"#utility.yul\":4198:4214   */\n      add\n        /* \"#utility.yul\":4192:4215   */\n      mload\n        /* \"#utility.yul\":4228:4345   */\n      tag_431\n        /* \"#utility.yul\":4339:4343   */\n      0xc0\n        /* \"#utility.yul\":4334:4337   */\n      dup6\n        /* \"#utility.yul\":4330:4344   */\n      add\n        /* \"#utility.yul\":4316:4328   */\n      dup3\n        /* \"#utility.yul\":4228:4345   */\n      tag_326\n      jump\t// in\n    tag_431:\n        /* \"#utility.yul\":4132:4355   */\n      pop\n        /* \"#utility.yul\":4441:4445   */\n      0xe0\n        /* \"#utility.yul\":4434:4439   */\n      dup3\n        /* \"#utility.yul\":4430:4446   */\n      add\n        /* \"#utility.yul\":4424:4447   */\n      mload\n        /* \"#utility.yul\":4460:4525   */\n      tag_432\n        /* \"#utility.yul\":4517:4523   */\n      0x0100\n        /* \"#utility.yul\":4512:4515   */\n      dup6\n        /* \"#utility.yul\":4508:4524   */\n      add\n        /* \"#utility.yul\":4494:4506   */\n      dup3\n        /* \"#utility.yul\":4460:4525   */\n      tag_318\n      jump\t// in\n    tag_432:\n        /* \"#utility.yul\":4365:4535   */\n      pop\n        /* \"#utility.yul\":3011:4542   */\n      pop\n        /* \"#utility.yul\":2893:4542   */\n      pop\n      pop\n      jump\t// out\n        /* \"#utility.yul\":4548:4875   */\n    tag_21:\n        /* \"#utility.yul\":4693:4697   */\n      0x00\n        /* \"#utility.yul\":4731:4734   */\n      0x0120\n        /* \"#utility.yul\":4720:4729   */\n      dup3\n        /* \"#utility.yul\":4716:4735   */\n      add\n        /* \"#utility.yul\":4708:4735   */\n      swap1\n      pop\n        /* \"#utility.yul\":4745:4868   */\n      tag_434\n        /* \"#utility.yul\":4865:4866   */\n      0x00\n        /* \"#utility.yul\":4854:4863   */\n      dup4\n        /* \"#utility.yul\":4850:4867   */\n      add\n        /* \"#utility.yul\":4841:4847   */\n      dup5\n        /* \"#utility.yul\":4745:4868   */\n      tag_327\n      jump\t// in\n    tag_434:\n        /* \"#utility.yul\":4548:4875   */\n      swap3\n      swap2\n      pop\n      pop\n      jump\t// out\n        /* \"#utility.yul\":4881:4999   */\n    tag_328:\n        /* \"#utility.yul\":4968:4992   */\n      tag_436\n        /* \"#utility.yul\":4986:4991   */\n      dup2\n        /* \"#utility.yul\":4968:4992   */\n      tag_315\n      jump\t// in\n    tag_436:\n        /* \"#utility.yul\":4963:4966   */\n      dup3\n        /* \"#utility.yul\":4956:4993   */\n      mstore\n        /* \"#utility.yul\":4881:4999   */\n      pop\n      pop\n      jump\t// out\n        /* \"#utility.yul\":5005:5227   */\n    tag_25:\n        /* \"#utility.yul\":5098:5102   */\n      0x00\n        /* \"#utility.yul\":5136:5138   */\n      0x20\n        /* \"#utility.yul\":5125:5134   */\n      dup3\n        /* \"#utility.yul\":5121:5139   */\n      add\n        /* \"#utility.yul\":5113:5139   */\n      swap1\n      pop\n        /* \"#utility.yul\":5149:5220   */\n      tag_438\n        /* \"#utility.yul\":5217:5218   */\n      0x00\n        /* \"#utility.yul\":5206:5215   */\n      dup4\n        /* \"#utility.yul\":5202:5219   */\n      add\n        /* \"#utility.yul\":5193:5199   */\n      dup5\n        /* \"#utility.yul\":5149:5220   */\n      tag_328\n      jump\t// in\n    tag_438:\n        /* \"#utility.yul\":5005:5227   */\n      swap3\n      swap2\n      pop\n      pop\n      jump\t// out\n        /* \"#utility.yul\":5233:5332   */\n    tag_329:\n        /* \"#utility.yul\":5285:5291   */\n      0x00\n        /* \"#utility.yul\":5319:5324   */\n      dup2\n        /* \"#utility.yul\":5313:5325   */\n      mload\n        /* \"#utility.yul\":5303:5325   */\n      swap1\n      pop\n        /* \"#utility.yul\":5233:5332   */\n      swap2\n      swap1\n      pop\n      jump\t// out\n        /* \"#utility.yul\":5338:5507   */\n    tag_330:\n        /* \"#utility.yul\":5422:5433   */\n      0x00\n        /* \"#utility.yul\":5456:5462   */\n      dup3\n        /* \"#utility.yul\":5451:5454   */\n      dup3\n        /* \"#utility.yul\":5444:5463   */\n      mstore\n        /* \"#utility.yul\":5496:5500   */\n      0x20\n        /* \"#utility.yul\":5491:5494   */\n      dup3\n        /* \"#utility.yul\":5487:5501   */\n      add\n        /* \"#utility.yul\":5472:5501   */\n      swap1\n      pop\n        /* \"#utility.yul\":5338:5507   */\n      swap3\n      swap2\n      pop\n      pop\n      jump\t// out\n        /* \"#utility.yul\":5513:5652   */\n    tag_331:\n        /* \"#utility.yul\":5602:5608   */\n      dup3\n        /* \"#utility.yul\":5597:5600   */\n      dup2\n        /* \"#utility.yul\":5592:5595   */\n      dup4\n        /* \"#utility.yul\":5586:5609   */\n      mcopy\n        /* \"#utility.yul\":5643:5644   */\n      0x00\n        /* \"#utility.yul\":5634:5640   */\n      dup4\n        /* \"#utility.yul\":5629:5632   */\n      dup4\n        /* \"#utility.yul\":5625:5641   */\n      add\n        /* \"#utility.yul\":5618:5645   */\n      mstore\n        /* \"#utility.yul\":5513:5652   */\n      pop\n      pop\n      pop\n      jump\t// out\n        /* \"#utility.yul\":5658:5760   */\n    tag_332:\n        /* \"#utility.yul\":5699:5705   */\n      0x00\n        /* \"#utility.yul\":5750:5752   */\n      0x1f\n        /* \"#utility.yul\":5746:5753   */\n      not\n        /* \"#utility.yul\":5741:5743   */\n      0x1f\n        /* \"#utility.yul\":5734:5739   */\n      dup4\n        /* \"#utility.yul\":5730:5744   */\n      add\n        /* \"#utility.yul\":5726:5754   */\n      and\n        /* \"#utility.yul\":5716:5754   */\n      swap1\n      pop\n        /* \"#utility.yul\":5658:5760   */\n      swap2\n      swap1\n      pop\n      jump\t// out\n        /* \"#utility.yul\":5766:6143   */\n    tag_333:\n        /* \"#utility.yul\":5854:5857   */\n      0x00\n        /* \"#utility.yul\":5882:5921   */\n      tag_444\n        /* \"#utility.yul\":5915:5920   */\n      dup3\n        /* \"#utility.yul\":5882:5921   */\n      tag_329\n      jump\t// in\n    tag_444:\n        /* \"#utility.yul\":5937:6008   */\n      tag_445\n        /* \"#utility.yul\":6001:6007   */\n      dup2\n        /* \"#utility.yul\":5996:5999   */\n      dup6\n        /* \"#utility.yul\":5937:6008   */\n      tag_330\n      jump\t// in\n    tag_445:\n        /* \"#utility.yul\":5930:6008   */\n      swap4\n      pop\n        /* \"#utility.yul\":6017:6082   */\n      tag_446\n        /* \"#utility.yul\":6075:6081   */\n      dup2\n        /* \"#utility.yul\":6070:6073   */\n      dup6\n        /* \"#utility.yul\":6063:6067   */\n      0x20\n        /* \"#utility.yul\":6056:6061   */\n      dup7\n        /* \"#utility.yul\":6052:6068   */\n      add\n        /* \"#utility.yul\":6017:6082   */\n      tag_331\n      jump\t// in\n    tag_446:\n        /* \"#utility.yul\":6107:6136   */\n      tag_447\n        /* \"#utility.yul\":6129:6135   */\n      dup2\n        /* \"#utility.yul\":6107:6136   */\n      tag_332\n      jump\t// in\n    tag_447:\n        /* \"#utility.yul\":6102:6105   */\n      dup5\n        /* \"#utility.yul\":6098:6137   */\n      add\n        /* \"#utility.yul\":6091:6137   */\n      swap2\n      pop\n        /* \"#utility.yul\":5858:6143   */\n      pop\n        /* \"#utility.yul\":5766:6143   */\n      swap3\n      swap2\n      pop\n      pop\n      jump\t// out\n        /* \"#utility.yul\":6149:6462   */\n    tag_29:\n        /* \"#utility.yul\":6262:6266   */\n      0x00\n        /* \"#utility.yul\":6300:6302   */\n      0x20\n        /* \"#utility.yul\":6289:6298   */\n      dup3\n        /* \"#utility.yul\":6285:6303   */\n      add\n        /* \"#utility.yul\":6277:6303   */\n      swap1\n      pop\n        /* \"#utility.yul\":6349:6358   */\n      dup2\n        /* \"#utility.yul\":6343:6347   */\n      dup2\n        /* \"#utility.yul\":6339:6359   */\n      sub\n        /* \"#utility.yul\":6335:6336   */\n      0x00\n        /* \"#utility.yul\":6324:6333   */\n      dup4\n        /* \"#utility.yul\":6320:6337   */\n      add\n        /* \"#utility.yul\":6313:6360   */\n      mstore\n        /* \"#utility.yul\":6377:6455   */\n      tag_449\n        /* \"#utility.yul\":6450:6454   */\n      dup2\n        /* \"#utility.yul\":6441:6447   */\n      dup5\n        /* \"#utility.yul\":6377:6455   */\n      tag_333\n      jump\t// in\n    tag_449:\n        /* \"#utility.yul\":6369:6455   */\n      swap1\n      pop\n        /* \"#utility.yul\":6149:6462   */\n      swap3\n      swap2\n      pop\n      pop\n      jump\t// out\n        /* \"#utility.yul\":6468:6582   */\n    tag_334:\n        /* \"#utility.yul\":6535:6541   */\n      0x00\n        /* \"#utility.yul\":6569:6574   */\n      dup2\n        /* \"#utility.yul\":6563:6575   */\n      mload\n        /* \"#utility.yul\":6553:6575   */\n      swap1\n      pop\n        /* \"#utility.yul\":6468:6582   */\n      swap2\n      swap1\n      pop\n      jump\t// out\n        /* \"#utility.yul\":6588:6772   */\n    tag_335:\n        /* \"#utility.yul\":6687:6698   */\n      0x00\n        /* \"#utility.yul\":6721:6727   */\n      dup3\n        /* \"#utility.yul\":6716:6719   */\n      dup3\n        /* \"#utility.yul\":6709:6728   */\n      mstore\n        /* \"#utility.yul\":6761:6765   */\n      0x20\n        /* \"#utility.yul\":6756:6759   */\n      dup3\n        /* \"#utility.yul\":6752:6766   */\n      add\n        /* \"#utility.yul\":6737:6766   */\n      swap1\n      pop\n        /* \"#utility.yul\":6588:6772   */\n      swap3\n      swap2\n      pop\n      pop\n      jump\t// out\n        /* \"#utility.yul\":6778:6910   */\n    tag_336:\n        /* \"#utility.yul\":6845:6849   */\n      0x00\n        /* \"#utility.yul\":6868:6871   */\n      dup2\n        /* \"#utility.yul\":6860:6871   */\n      swap1\n      pop\n        /* \"#utility.yul\":6898:6902   */\n      0x20\n        /* \"#utility.yul\":6893:6896   */\n      dup3\n        /* \"#utility.yul\":6889:6903   */\n      add\n        /* \"#utility.yul\":6881:6903   */\n      swap1\n      pop\n        /* \"#utility.yul\":6778:6910   */\n      swap2\n      swap1\n      pop\n      jump\t// out\n        /* \"#utility.yul\":6916:7095   */\n    tag_337:\n        /* \"#utility.yul\":6985:6995   */\n      0x00\n        /* \"#utility.yul\":7006:7052   */\n      tag_454\n        /* \"#utility.yul\":7048:7051   */\n      dup4\n        /* \"#utility.yul\":7040:7046   */\n      dup4\n        /* \"#utility.yul\":7006:7052   */\n      tag_318\n      jump\t// in\n    tag_454:\n        /* \"#utility.yul\":7084:7088   */\n      0x20\n        /* \"#utility.yul\":7079:7082   */\n      dup4\n        /* \"#utility.yul\":7075:7089   */\n      add\n        /* \"#utility.yul\":7061:7089   */\n      swap1\n      pop\n        /* \"#utility.yul\":6916:7095   */\n      swap3\n      swap2\n      pop\n      pop\n      jump\t// out\n        /* \"#utility.yul\":7101:7214   */\n    tag_338:\n        /* \"#utility.yul\":7171:7175   */\n      0x00\n        /* \"#utility.yul\":7203:7207   */\n      0x20\n        /* \"#utility.yul\":7198:7201   */\n      dup3\n        /* \"#utility.yul\":7194:7208   */\n      add\n        /* \"#utility.yul\":7186:7208   */\n      swap1\n      pop\n        /* \"#utility.yul\":7101:7214   */\n      swap2\n      swap1\n      pop\n      jump\t// out\n        /* \"#utility.yul\":7250:7982   */\n    tag_339:\n        /* \"#utility.yul\":7369:7372   */\n      0x00\n        /* \"#utility.yul\":7398:7452   */\n      tag_457\n        /* \"#utility.yul\":7446:7451   */\n      dup3\n        /* \"#utility.yul\":7398:7452   */\n      tag_334\n      jump\t// in\n    tag_457:\n        /* \"#utility.yul\":7468:7554   */\n      tag_458\n        /* \"#utility.yul\":7547:7553   */\n      dup2\n        /* \"#utility.yul\":7542:7545   */\n      dup6\n        /* \"#utility.yul\":7468:7554   */\n      tag_335\n      jump\t// in\n    tag_458:\n        /* \"#utility.yul\":7461:7554   */\n      swap4\n      pop\n        /* \"#utility.yul\":7578:7634   */\n      tag_459\n        /* \"#utility.yul\":7628:7633   */\n      dup4\n        /* \"#utility.yul\":7578:7634   */\n      tag_336\n      jump\t// in\n    tag_459:\n        /* \"#utility.yul\":7657:7664   */\n      dup1\n        /* \"#utility.yul\":7688:7689   */\n      0x00\n        /* \"#utility.yul\":7673:7957   */\n    tag_460:\n        /* \"#utility.yul\":7698:7704   */\n      dup4\n        /* \"#utility.yul\":7695:7696   */\n      dup2\n        /* \"#utility.yul\":7692:7705   */\n      lt\n        /* \"#utility.yul\":7673:7957   */\n      iszero\n      tag_462\n      jumpi\n        /* \"#utility.yul\":7774:7780   */\n      dup2\n        /* \"#utility.yul\":7768:7781   */\n      mload\n        /* \"#utility.yul\":7801:7864   */\n      tag_463\n        /* \"#utility.yul\":7860:7863   */\n      dup9\n        /* \"#utility.yul\":7845:7858   */\n      dup3\n        /* \"#utility.yul\":7801:7864   */\n      tag_337\n      jump\t// in\n    tag_463:\n        /* \"#utility.yul\":7794:7864   */\n      swap8\n      pop\n        /* \"#utility.yul\":7887:7947   */\n      tag_464\n        /* \"#utility.yul\":7940:7946   */\n      dup4\n        /* \"#utility.yul\":7887:7947   */\n      tag_338\n      jump\t// in\n    tag_464:\n        /* \"#utility.yul\":7877:7947   */\n      swap3\n      pop\n        /* \"#utility.yul\":7733:7957   */\n      pop\n        /* \"#utility.yul\":7720:7721   */\n      0x01\n        /* \"#utility.yul\":7717:7718   */\n      dup2\n        /* \"#utility.yul\":7713:7722   */\n      add\n        /* \"#utility.yul\":7708:7722   */\n      swap1\n      pop\n        /* \"#utility.yul\":7673:7957   */\n      jump(tag_460)\n    tag_462:\n        /* \"#utility.yul\":7677:7691   */\n      pop\n        /* \"#utility.yul\":7973:7976   */\n      dup6\n        /* \"#utility.yul\":7966:7976   */\n      swap4\n      pop\n        /* \"#utility.yul\":7374:7982   */\n      pop\n      pop\n      pop\n        /* \"#utility.yul\":7250:7982   */\n      swap3\n      swap2\n      pop\n      pop\n      jump\t// out\n        /* \"#utility.yul\":7988:8361   */\n    tag_33:\n        /* \"#utility.yul\":8131:8135   */\n      0x00\n        /* \"#utility.yul\":8169:8171   */\n      0x20\n        /* \"#utility.yul\":8158:8167   */\n      dup3\n        /* \"#utility.yul\":8154:8172   */\n      add\n        /* \"#utility.yul\":8146:8172   */\n      swap1\n      pop\n        /* \"#utility.yul\":8218:8227   */\n      dup2\n        /* \"#utility.yul\":8212:8216   */\n      dup2\n        /* \"#utility.yul\":8208:8228   */\n      sub\n        /* \"#utility.yul\":8204:8205   */\n      0x00\n        /* \"#utility.yul\":8193:8202   */\n      dup4\n        /* \"#utility.yul\":8189:8206   */\n      add\n        /* \"#utility.yul\":8182:8229   */\n      mstore\n        /* \"#utility.yul\":8246:8354   */\n      tag_466\n        /* \"#utility.yul\":8349:8353   */\n      dup2\n        /* \"#utility.yul\":8340:8346   */\n      dup5\n        /* \"#utility.yul\":8246:8354   */\n      tag_339\n      jump\t// in\n    tag_466:\n        /* \"#utility.yul\":8238:8354   */\n      swap1\n      pop\n        /* \"#utility.yul\":7988:8361   */\n      swap3\n      swap2\n      pop\n      pop\n      jump\t// out\n        /* \"#utility.yul\":8367:8457   */\n    tag_340:\n        /* \"#utility.yul\":8401:8408   */\n      0x00\n        /* \"#utility.yul\":8444:8449   */\n      dup2\n        /* \"#utility.yul\":8437:8450   */\n      iszero\n        /* \"#utility.yul\":8430:8451   */\n      iszero\n        /* \"#utility.yul\":8419:8451   */\n      swap1\n      pop\n        /* \"#utility.yul\":8367:8457   */\n      swap2\n      swap1\n      pop\n      jump\t// out\n        /* \"#utility.yul\":8463:8572   */\n    tag_341:\n        /* \"#utility.yul\":8544:8565   */\n      tag_469\n        /* \"#utility.yul\":8559:8564   */\n      dup2\n        /* \"#utility.yul\":8544:8565   */\n      tag_340\n      jump\t// in\n    tag_469:\n        /* \"#utility.yul\":8539:8542   */\n      dup3\n        /* \"#utility.yul\":8532:8566   */\n      mstore\n        /* \"#utility.yul\":8463:8572   */\n      pop\n      pop\n      jump\t// out\n        /* \"#utility.yul\":8578:8788   */\n    tag_38:\n        /* \"#utility.yul\":8665:8669   */\n      0x00\n        /* \"#utility.yul\":8703:8705   */\n      0x20\n        /* \"#utility.yul\":8692:8701   */\n      dup3\n        /* \"#utility.yul\":8688:8706   */\n      add\n        /* \"#utility.yul\":8680:8706   */\n      swap1\n      pop\n        /* \"#utility.yul\":8716:8781   */\n      tag_471\n        /* \"#utility.yul\":8778:8779   */\n      0x00\n        /* \"#utility.yul\":8767:8776   */\n      dup4\n        /* \"#utility.yul\":8763:8780   */\n      add\n        /* \"#utility.yul\":8754:8760   */\n      dup5\n        /* \"#utility.yul\":8716:8781   */\n      tag_341\n      jump\t// in\n    tag_471:\n        /* \"#utility.yul\":8578:8788   */\n      swap3\n      swap2\n      pop\n      pop\n      jump\t// out\n        /* \"#utility.yul\":8794:8916   */\n    tag_342:\n        /* \"#utility.yul\":8867:8891   */\n      tag_473\n        /* \"#utility.yul\":8885:8890   */\n      dup2\n        /* \"#utility.yul\":8867:8891   */\n      tag_324\n      jump\t// in\n    tag_473:\n        /* \"#utility.yul\":8860:8865   */\n      dup2\n        /* \"#utility.yul\":8857:8892   */\n      eq\n        /* \"#utility.yul\":8847:8910   */\n      tag_474\n      jumpi\n        /* \"#utility.yul\":8906:8907   */\n      0x00\n        /* \"#utility.yul\":8903:8904   */\n      0x00\n        /* \"#utility.yul\":8896:8908   */\n      revert\n        /* \"#utility.yul\":8847:8910   */\n    tag_474:\n        /* \"#utility.yul\":8794:8916   */\n      pop\n      jump\t// out\n        /* \"#utility.yul\":8922:9061   */\n    tag_343:\n        /* \"#utility.yul\":8968:8973   */\n      0x00\n        /* \"#utility.yul\":9006:9012   */\n      dup2\n        /* \"#utility.yul\":8993:9013   */\n      calldataload\n        /* \"#utility.yul\":8984:9013   */\n      swap1\n      pop\n        /* \"#utility.yul\":9022:9055   */\n      tag_476\n        /* \"#utility.yul\":9049:9054   */\n      dup2\n        /* \"#utility.yul\":9022:9055   */\n      tag_342\n      jump\t// in\n    tag_476:\n        /* \"#utility.yul\":8922:9061   */\n      swap3\n      swap2\n      pop\n      pop\n      jump\t// out\n        /* \"#utility.yul\":9067:9396   */\n    tag_41:\n        /* \"#utility.yul\":9126:9132   */\n      0x00\n        /* \"#utility.yul\":9175:9177   */\n      0x20\n        /* \"#utility.yul\":9163:9172   */\n      dup3\n        /* \"#utility.yul\":9154:9161   */\n      dup5\n        /* \"#utility.yul\":9150:9173   */\n      sub\n        /* \"#utility.yul\":9146:9178   */\n      slt\n        /* \"#utility.yul\":9143:9262   */\n      iszero\n      tag_478\n      jumpi\n        /* \"#utility.yul\":9181:9260   */\n      tag_479\n      tag_313\n      jump\t// in\n    tag_479:\n        /* \"#utility.yul\":9143:9262   */\n    tag_478:\n        /* \"#utility.yul\":9301:9302   */\n      0x00\n        /* \"#utility.yul\":9326:9379   */\n      tag_480\n        /* \"#utility.yul\":9371:9378   */\n      dup5\n        /* \"#utility.yul\":9362:9368   */\n      dup3\n        /* \"#utility.yul\":9351:9360   */\n      dup6\n        /* \"#utility.yul\":9347:9369   */\n      add\n        /* \"#utility.yul\":9326:9379   */\n      tag_343\n      jump\t// in\n    tag_480:\n        /* \"#utility.yul\":9316:9379   */\n      swap2\n      pop\n        /* \"#utility.yul\":9272:9389   */\n      pop\n        /* \"#utility.yul\":9067:9396   */\n      swap3\n      swap2\n      pop\n      pop\n      jump\t// out\n        /* \"#utility.yul\":9402:9516   */\n    tag_344:\n        /* \"#utility.yul\":9469:9475   */\n      0x00\n        /* \"#utility.yul\":9503:9508   */\n      dup2\n        /* \"#utility.yul\":9497:9509   */\n      mload\n        /* \"#utility.yul\":9487:9509   */\n      swap1\n      pop\n        /* \"#utility.yul\":9402:9516   */\n      swap2\n      swap1\n      pop\n      jump\t// out\n        /* \"#utility.yul\":9522:9706   */\n    tag_345:\n        /* \"#utility.yul\":9621:9632   */\n      0x00\n        /* \"#utility.yul\":9655:9661   */\n      dup3\n        /* \"#utility.yul\":9650:9653   */\n      dup3\n        /* \"#utility.yul\":9643:9662   */\n      mstore\n        /* \"#utility.yul\":9695:9699   */\n      0x20\n        /* \"#utility.yul\":9690:9693   */\n      dup3\n        /* \"#utility.yul\":9686:9700   */\n      add\n        /* \"#utility.yul\":9671:9700   */\n      swap1\n      pop\n        /* \"#utility.yul\":9522:9706   */\n      swap3\n      swap2\n      pop\n      pop\n      jump\t// out\n        /* \"#utility.yul\":9712:9844   */\n    tag_346:\n        /* \"#utility.yul\":9779:9783   */\n      0x00\n        /* \"#utility.yul\":9802:9805   */\n      dup2\n        /* \"#utility.yul\":9794:9805   */\n      swap1\n      pop\n        /* \"#utility.yul\":9832:9836   */\n      0x20\n        /* \"#utility.yul\":9827:9830   */\n      dup3\n        /* \"#utility.yul\":9823:9837   */\n      add\n        /* \"#utility.yul\":9815:9837   */\n      swap1\n      pop\n        /* \"#utility.yul\":9712:9844   */\n      swap2\n      swap1\n      pop\n      jump\t// out\n        /* \"#utility.yul\":9850:10029   */\n    tag_347:\n        /* \"#utility.yul\":9919:9929   */\n      0x00\n        /* \"#utility.yul\":9940:9986   */\n      tag_485\n        /* \"#utility.yul\":9982:9985   */\n      dup4\n        /* \"#utility.yul\":9974:9980   */\n      dup4\n        /* \"#utility.yul\":9940:9986   */\n      tag_325\n      jump\t// in\n    tag_485:\n        /* \"#utility.yul\":10018:10022   */\n      0x20\n        /* \"#utility.yul\":10013:10016   */\n      dup4\n        /* \"#utility.yul\":10009:10023   */\n      add\n        /* \"#utility.yul\":9995:10023   */\n      swap1\n      pop\n        /* \"#utility.yul\":9850:10029   */\n      swap3\n      swap2\n      pop\n      pop\n      jump\t// out\n        /* \"#utility.yul\":10035:10148   */\n    tag_348:\n        /* \"#utility.yul\":10105:10109   */\n      0x00\n        /* \"#utility.yul\":10137:10141   */\n      0x20\n        /* \"#utility.yul\":10132:10135   */\n      dup3\n        /* \"#utility.yul\":10128:10142   */\n      add\n        /* \"#utility.yul\":10120:10142   */\n      swap1\n      pop\n        /* \"#utility.yul\":10035:10148   */\n      swap2\n      swap1\n      pop\n      jump\t// out\n        /* \"#utility.yul\":10184:10916   */\n    tag_349:\n        /* \"#utility.yul\":10303:10306   */\n      0x00\n        /* \"#utility.yul\":10332:10386   */\n      tag_488\n        /* \"#utility.yul\":10380:10385   */\n      dup3\n        /* \"#utility.yul\":10332:10386   */\n      tag_344\n      jump\t// in\n    tag_488:\n        /* \"#utility.yul\":10402:10488   */\n      tag_489\n        /* \"#utility.yul\":10481:10487   */\n      dup2\n        /* \"#utility.yul\":10476:10479   */\n      dup6\n        /* \"#utility.yul\":10402:10488   */\n      tag_345\n      jump\t// in\n    tag_489:\n        /* \"#utility.yul\":10395:10488   */\n      swap4\n      pop\n        /* \"#utility.yul\":10512:10568   */\n      tag_490\n        /* \"#utility.yul\":10562:10567   */\n      dup4\n        /* \"#utility.yul\":10512:10568   */\n      tag_346\n      jump\t// in\n    tag_490:\n        /* \"#utility.yul\":10591:10598   */\n      dup1\n        /* \"#utility.yul\":10622:10623   */\n      0x00\n        /* \"#utility.yul\":10607:10891   */\n    tag_491:\n        /* \"#utility.yul\":10632:10638   */\n      dup4\n        /* \"#utility.yul\":10629:10630   */\n      dup2\n        /* \"#utility.yul\":10626:10639   */\n      lt\n        /* \"#utility.yul\":10607:10891   */\n      iszero\n      tag_493\n      jumpi\n        /* \"#utility.yul\":10708:10714   */\n      dup2\n        /* \"#utility.yul\":10702:10715   */\n      mload\n        /* \"#utility.yul\":10735:10798   */\n      tag_494\n        /* \"#utility.yul\":10794:10797   */\n      dup9\n        /* \"#utility.yul\":10779:10792   */\n      dup3\n        /* \"#utility.yul\":10735:10798   */\n      tag_347\n      jump\t// in\n    tag_494:\n        /* \"#utility.yul\":10728:10798   */\n      swap8\n      pop\n        /* \"#utility.yul\":10821:10881   */\n      tag_495\n        /* \"#utility.yul\":10874:10880   */\n      dup4\n        /* \"#utility.yul\":10821:10881   */\n      tag_348\n      jump\t// in\n    tag_495:\n        /* \"#utility.yul\":10811:10881   */\n      swap3\n      pop\n        /* \"#utility.yul\":10667:10891   */\n      pop\n        /* \"#utility.yul\":10654:10655   */\n      0x01\n        /* \"#utility.yul\":10651:10652   */\n      dup2\n        /* \"#utility.yul\":10647:10656   */\n      add\n        /* \"#utility.yul\":10642:10656   */\n      swap1\n      pop\n        /* \"#utility.yul\":10607:10891   */\n      jump(tag_491)\n    tag_493:\n        /* \"#utility.yul\":10611:10625   */\n      pop\n        /* \"#utility.yul\":10907:10910   */\n      dup6\n        /* \"#utility.yul\":10900:10910   */\n      swap4\n      pop\n        /* \"#utility.yul\":10308:10916   */\n      pop\n      pop\n      pop\n        /* \"#utility.yul\":10184:10916   */\n      swap3\n      swap2\n      pop\n      pop\n      jump\t// out\n        /* \"#utility.yul\":10922:11295   */\n    tag_47:\n        /* \"#utility.yul\":11065:11069   */\n      0x00\n        /* \"#utility.yul\":11103:11105   */\n      0x20\n        /* \"#utility.yul\":11092:11101   */\n      dup3\n        /* \"#utility.yul\":11088:11106   */\n      add\n        /* \"#utility.yul\":11080:11106   */\n      swap1\n      pop\n        /* \"#utility.yul\":11152:11161   */\n      dup2\n        /* \"#utility.yul\":11146:11150   */\n      dup2\n        /* \"#utility.yul\":11142:11162   */\n      sub\n        /* \"#utility.yul\":11138:11139   */\n      0x00\n        /* \"#utility.yul\":11127:11136   */\n      dup4\n        /* \"#utility.yul\":11123:11140   */\n      add\n        /* \"#utility.yul\":11116:11163   */\n      mstore\n        /* \"#utility.yul\":11180:11288   */\n      tag_497\n        /* \"#utility.yul\":11283:11287   */\n      dup2\n        /* \"#utility.yul\":11274:11280   */\n      dup5\n        /* \"#utility.yul\":11180:11288   */\n      tag_349\n      jump\t// in\n    tag_497:\n        /* \"#utility.yul\":11172:11288   */\n      swap1\n      pop\n        /* \"#utility.yul\":10922:11295   */\n      swap3\n      swap2\n      pop\n      pop\n      jump\t// out\n        /* \"#utility.yul\":11301:11775   */\n    tag_57:\n        /* \"#utility.yul\":11369:11375   */\n      0x00\n        /* \"#utility.yul\":11377:11383   */\n      0x00\n        /* \"#utility.yul\":11426:11428   */\n      0x40\n        /* \"#utility.yul\":11414:11423   */\n      dup4\n        /* \"#utility.yul\":11405:11412   */\n      dup6\n        /* \"#utility.yul\":11401:11424   */\n      sub\n        /* \"#utility.yul\":11397:11429   */\n      slt\n        /* \"#utility.yul\":11394:11513   */\n      iszero\n      tag_499\n      jumpi\n        /* \"#utility.yul\":11432:11511   */\n      tag_500\n      tag_313\n      jump\t// in\n    tag_500:\n        /* \"#utility.yul\":11394:11513   */\n    tag_499:\n        /* \"#utility.yul\":11552:11553   */\n      0x00\n        /* \"#utility.yul\":11577:11630   */\n      tag_501\n        /* \"#utility.yul\":11622:11629   */\n      dup6\n        /* \"#utility.yul\":11613:11619   */\n      dup3\n        /* \"#utility.yul\":11602:11611   */\n      dup7\n        /* \"#utility.yul\":11598:11620   */\n      add\n        /* \"#utility.yul\":11577:11630   */\n      tag_317\n      jump\t// in\n    tag_501:\n        /* \"#utility.yul\":11567:11630   */\n      swap3\n      pop\n        /* \"#utility.yul\":11523:11640   */\n      pop\n        /* \"#utility.yul\":11679:11681   */\n      0x20\n        /* \"#utility.yul\":11705:11758   */\n      tag_502\n        /* \"#utility.yul\":11750:11757   */\n      dup6\n        /* \"#utility.yul\":11741:11747   */\n      dup3\n        /* \"#utility.yul\":11730:11739   */\n      dup7\n        /* \"#utility.yul\":11726:11748   */\n      add\n        /* \"#utility.yul\":11705:11758   */\n      tag_317\n      jump\t// in\n    tag_502:\n        /* \"#utility.yul\":11695:11758   */\n      swap2\n      pop\n        /* \"#utility.yul\":11650:11768   */\n      pop\n        /* \"#utility.yul\":11301:11775   */\n      swap3\n      pop\n      swap3\n      swap1\n      pop\n      jump\t// out\n        /* \"#utility.yul\":11781:12113   */\n    tag_60:\n        /* \"#utility.yul\":11902:11906   */\n      0x00\n        /* \"#utility.yul\":11940:11942   */\n      0x40\n        /* \"#utility.yul\":11929:11938   */\n      dup3\n        /* \"#utility.yul\":11925:11943   */\n      add\n        /* \"#utility.yul\":11917:11943   */\n      swap1\n      pop\n        /* \"#utility.yul\":11953:12024   */\n      tag_504\n        /* \"#utility.yul\":12021:12022   */\n      0x00\n        /* \"#utility.yul\":12010:12019   */\n      dup4\n        /* \"#utility.yul\":12006:12023   */\n      add\n        /* \"#utility.yul\":11997:12003   */\n      dup6\n        /* \"#utility.yul\":11953:12024   */\n      tag_328\n      jump\t// in\n    tag_504:\n        /* \"#utility.yul\":12034:12106   */\n      tag_505\n        /* \"#utility.yul\":12102:12104   */\n      0x20\n        /* \"#utility.yul\":12091:12100   */\n      dup4\n        /* \"#utility.yul\":12087:12105   */\n      add\n        /* \"#utility.yul\":12078:12084   */\n      dup5\n        /* \"#utility.yul\":12034:12106   */\n      tag_328\n      jump\t// in\n    tag_505:\n        /* \"#utility.yul\":11781:12113   */\n      swap4\n      swap3\n      pop\n      pop\n      pop\n      jump\t// out\n        /* \"#utility.yul\":12119:12262   */\n    tag_350:\n        /* \"#utility.yul\":12176:12181   */\n      0x00\n        /* \"#utility.yul\":12207:12213   */\n      dup2\n        /* \"#utility.yul\":12201:12214   */\n      mload\n        /* \"#utility.yul\":12192:12214   */\n      swap1\n      pop\n        /* \"#utility.yul\":12223:12256   */\n      tag_507\n        /* \"#utility.yul\":12250:12255   */\n      dup2\n        /* \"#utility.yul\":12223:12256   */\n      tag_342\n      jump\t// in\n    tag_507:\n        /* \"#utility.yul\":12119:12262   */\n      swap3\n      swap2\n      pop\n      pop\n      jump\t// out\n        /* \"#utility.yul\":12268:12619   */\n    tag_92:\n        /* \"#utility.yul\":12338:12344   */\n      0x00\n        /* \"#utility.yul\":12387:12389   */\n      0x20\n        /* \"#utility.yul\":12375:12384   */\n      dup3\n        /* \"#utility.yul\":12366:12373   */\n      dup5\n        /* \"#utility.yul\":12362:12385   */\n      sub\n        /* \"#utility.yul\":12358:12390   */\n      slt\n        /* \"#utility.yul\":12355:12474   */\n      iszero\n      tag_509\n      jumpi\n        /* \"#utility.yul\":12393:12472   */\n      tag_510\n      tag_313\n      jump\t// in\n    tag_510:\n        /* \"#utility.yul\":12355:12474   */\n    tag_509:\n        /* \"#utility.yul\":12513:12514   */\n      0x00\n        /* \"#utility.yul\":12538:12602   */\n      tag_511\n        /* \"#utility.yul\":12594:12601   */\n      dup5\n        /* \"#utility.yul\":12585:12591   */\n      dup3\n        /* \"#utility.yul\":12574:12583   */\n      dup6\n        /* \"#utility.yul\":12570:12592   */\n      add\n        /* \"#utility.yul\":12538:12602   */\n      tag_350\n      jump\t// in\n    tag_511:\n        /* \"#utility.yul\":12528:12602   */\n      swap2\n      pop\n        /* \"#utility.yul\":12484:12612   */\n      pop\n        /* \"#utility.yul\":12268:12619   */\n      swap3\n      swap2\n      pop\n      pop\n      jump\t// out\n        /* \"#utility.yul\":12625:12743   */\n    tag_351:\n        /* \"#utility.yul\":12711:12712   */\n      0x02\n        /* \"#utility.yul\":12704:12709   */\n      dup2\n        /* \"#utility.yul\":12701:12713   */\n      lt\n        /* \"#utility.yul\":12691:12737   */\n      tag_513\n      jumpi\n        /* \"#utility.yul\":12717:12735   */\n      tag_514\n      tag_74\n      jump\t// in\n    tag_514:\n        /* \"#utility.yul\":12691:12737   */\n    tag_513:\n        /* \"#utility.yul\":12625:12743   */\n      pop\n      jump\t// out\n        /* \"#utility.yul\":12749:12886   */\n    tag_352:\n        /* \"#utility.yul\":12799:12806   */\n      0x00\n        /* \"#utility.yul\":12828:12833   */\n      dup2\n        /* \"#utility.yul\":12817:12833   */\n      swap1\n      pop\n        /* \"#utility.yul\":12834:12880   */\n      tag_516\n        /* \"#utility.yul\":12874:12879   */\n      dup3\n        /* \"#utility.yul\":12834:12880   */\n      tag_351\n      jump\t// in\n    tag_516:\n        /* \"#utility.yul\":12749:12886   */\n      swap2\n      swap1\n      pop\n      jump\t// out\n        /* \"#utility.yul\":12892:13029   */\n    tag_353:\n        /* \"#utility.yul\":12953:12962   */\n      0x00\n        /* \"#utility.yul\":12986:13023   */\n      tag_518\n        /* \"#utility.yul\":13017:13022   */\n      dup3\n        /* \"#utility.yul\":12986:13023   */\n      tag_352\n      jump\t// in\n    tag_518:\n        /* \"#utility.yul\":12973:13023   */\n      swap1\n      pop\n        /* \"#utility.yul\":12892:13029   */\n      swap2\n      swap1\n      pop\n      jump\t// out\n        /* \"#utility.yul\":13035:13188   */\n    tag_354:\n        /* \"#utility.yul\":13133:13181   */\n      tag_520\n        /* \"#utility.yul\":13175:13180   */\n      dup2\n        /* \"#utility.yul\":13133:13181   */\n      tag_353\n      jump\t// in\n    tag_520:\n        /* \"#utility.yul\":13128:13131   */\n      dup3\n        /* \"#utility.yul\":13121:13182   */\n      mstore\n        /* \"#utility.yul\":13035:13188   */\n      pop\n      pop\n      jump\t// out\n        /* \"#utility.yul\":13194:13312   */\n    tag_355:\n        /* \"#utility.yul\":13281:13305   */\n      tag_522\n        /* \"#utility.yul\":13299:13304   */\n      dup2\n        /* \"#utility.yul\":13281:13305   */\n      tag_324\n      jump\t// in\n    tag_522:\n        /* \"#utility.yul\":13276:13279   */\n      dup3\n        /* \"#utility.yul\":13269:13306   */\n      mstore\n        /* \"#utility.yul\":13194:13312   */\n      pop\n      pop\n      jump\t// out\n        /* \"#utility.yul\":13318:13672   */\n    tag_94:\n        /* \"#utility.yul\":13450:13454   */\n      0x00\n        /* \"#utility.yul\":13488:13490   */\n      0x40\n        /* \"#utility.yul\":13477:13486   */\n      dup3\n        /* \"#utility.yul\":13473:13491   */\n      add\n        /* \"#utility.yul\":13465:13491   */\n      swap1\n      pop\n        /* \"#utility.yul\":13501:13583   */\n      tag_524\n        /* \"#utility.yul\":13580:13581   */\n      0x00\n        /* \"#utility.yul\":13569:13578   */\n      dup4\n        /* \"#utility.yul\":13565:13582   */\n      add\n        /* \"#utility.yul\":13556:13562   */\n      dup6\n        /* \"#utility.yul\":13501:13583   */\n      tag_354\n      jump\t// in\n    tag_524:\n        /* \"#utility.yul\":13593:13665   */\n      tag_525\n        /* \"#utility.yul\":13661:13663   */\n      0x20\n        /* \"#utility.yul\":13650:13659   */\n      dup4\n        /* \"#utility.yul\":13646:13664   */\n      add\n        /* \"#utility.yul\":13637:13643   */\n      dup5\n        /* \"#utility.yul\":13593:13665   */\n      tag_355\n      jump\t// in\n    tag_525:\n        /* \"#utility.yul\":13318:13672   */\n      swap4\n      swap3\n      pop\n      pop\n      pop\n      jump\t// out\n        /* \"#utility.yul\":13678:13794   */\n    tag_356:\n        /* \"#utility.yul\":13748:13769   */\n      tag_527\n        /* \"#utility.yul\":13763:13768   */\n      dup2\n        /* \"#utility.yul\":13748:13769   */\n      tag_340\n      jump\t// in\n    tag_527:\n        /* \"#utility.yul\":13741:13746   */\n      dup2\n        /* \"#utility.yul\":13738:13770   */\n      eq\n        /* \"#utility.yul\":13728:13788   */\n      tag_528\n      jumpi\n        /* \"#utility.yul\":13784:13785   */\n      0x00\n        /* \"#utility.yul\":13781:13782   */\n      0x00\n        /* \"#utility.yul\":13774:13786   */\n      revert\n        /* \"#utility.yul\":13728:13788   */\n    tag_528:\n        /* \"#utility.yul\":13678:13794   */\n      pop\n      jump\t// out\n        /* \"#utility.yul\":13800:13937   */\n    tag_357:\n        /* \"#utility.yul\":13854:13859   */\n      0x00\n        /* \"#utility.yul\":13885:13891   */\n      dup2\n        /* \"#utility.yul\":13879:13892   */\n      mload\n        /* \"#utility.yul\":13870:13892   */\n      swap1\n      pop\n        /* \"#utility.yul\":13901:13931   */\n      tag_530\n        /* \"#utility.yul\":13925:13930   */\n      dup2\n        /* \"#utility.yul\":13901:13931   */\n      tag_356\n      jump\t// in\n    tag_530:\n        /* \"#utility.yul\":13800:13937   */\n      swap3\n      swap2\n      pop\n      pop\n      jump\t// out\n        /* \"#utility.yul\":13943:14288   */\n    tag_98:\n        /* \"#utility.yul\":14010:14016   */\n      0x00\n        /* \"#utility.yul\":14059:14061   */\n      0x20\n        /* \"#utility.yul\":14047:14056   */\n      dup3\n        /* \"#utility.yul\":14038:14045   */\n      dup5\n        /* \"#utility.yul\":14034:14057   */\n      sub\n        /* \"#utility.yul\":14030:14062   */\n      slt\n        /* \"#utility.yul\":14027:14146   */\n      iszero\n      tag_532\n      jumpi\n        /* \"#utility.yul\":14065:14144   */\n      tag_533\n      tag_313\n      jump\t// in\n    tag_533:\n        /* \"#utility.yul\":14027:14146   */\n    tag_532:\n        /* \"#utility.yul\":14185:14186   */\n      0x00\n        /* \"#utility.yul\":14210:14271   */\n      tag_534\n        /* \"#utility.yul\":14263:14270   */\n      dup5\n        /* \"#utility.yul\":14254:14260   */\n      dup3\n        /* \"#utility.yul\":14243:14252   */\n      dup6\n        /* \"#utility.yul\":14239:14261   */\n      add\n        /* \"#utility.yul\":14210:14271   */\n      tag_357\n      jump\t// in\n    tag_534:\n        /* \"#utility.yul\":14200:14271   */\n      swap2\n      pop\n        /* \"#utility.yul\":14156:14281   */\n      pop\n        /* \"#utility.yul\":13943:14288   */\n      swap3\n      swap2\n      pop\n      pop\n      jump\t// out\n        /* \"#utility.yul\":14294:14460   */\n    tag_358:\n        /* \"#utility.yul\":14434:14452   */\n      0x6e6f20747265617375727920626f6e6400000000000000000000000000000000\n        /* \"#utility.yul\":14430:14431   */\n      0x00\n        /* \"#utility.yul\":14422:14428   */\n      dup3\n        /* \"#utility.yul\":14418:14432   */\n      add\n        /* \"#utility.yul\":14411:14453   */\n      mstore\n        /* \"#utility.yul\":14294:14460   */\n      pop\n      jump\t// out\n        /* \"#utility.yul\":14466:14832   */\n    tag_359:\n        /* \"#utility.yul\":14608:14611   */\n      0x00\n        /* \"#utility.yul\":14629:14696   */\n      tag_537\n        /* \"#utility.yul\":14693:14695   */\n      0x10\n        /* \"#utility.yul\":14688:14691   */\n      dup4\n        /* \"#utility.yul\":14629:14696   */\n      tag_330\n      jump\t// in\n    tag_537:\n        /* \"#utility.yul\":14622:14696   */\n      swap2\n      pop\n        /* \"#utility.yul\":14705:14798   */\n      tag_538\n        /* \"#utility.yul\":14794:14797   */\n      dup3\n        /* \"#utility.yul\":14705:14798   */\n      tag_358\n      jump\t// in\n    tag_538:\n        /* \"#utility.yul\":14823:14825   */\n      0x20\n        /* \"#utility.yul\":14818:14821   */\n      dup3\n        /* \"#utility.yul\":14814:14826   */\n      add\n        /* \"#utility.yul\":14807:14826   */\n      swap1\n      pop\n        /* \"#utility.yul\":14466:14832   */\n      swap2\n      swap1\n      pop\n      jump\t// out\n        /* \"#utility.yul\":14838:15257   */\n    tag_101:\n        /* \"#utility.yul\":15004:15008   */\n      0x00\n        /* \"#utility.yul\":15042:15044   */\n      0x20\n        /* \"#utility.yul\":15031:15040   */\n      dup3\n        /* \"#utility.yul\":15027:15045   */\n      add\n        /* \"#utility.yul\":15019:15045   */\n      swap1\n      pop\n        /* \"#utility.yul\":15091:15100   */\n      dup2\n        /* \"#utility.yul\":15085:15089   */\n      dup2\n        /* \"#utility.yul\":15081:15101   */\n      sub\n        /* \"#utility.yul\":15077:15078   */\n      0x00\n        /* \"#utility.yul\":15066:15075   */\n      dup4\n        /* \"#utility.yul\":15062:15079   */\n      add\n        /* \"#utility.yul\":15055:15102   */\n      mstore\n        /* \"#utility.yul\":15119:15250   */\n      tag_540\n        /* \"#utility.yul\":15245:15249   */\n      dup2\n        /* \"#utility.yul\":15119:15250   */\n      tag_359\n      jump\t// in\n    tag_540:\n        /* \"#utility.yul\":15111:15250   */\n      swap1\n      pop\n        /* \"#utility.yul\":14838:15257   */\n      swap2\n      swap1\n      pop\n      jump\t// out\n        /* \"#utility.yul\":15263:15406   */\n    tag_360:\n        /* \"#utility.yul\":15320:15325   */\n      0x00\n        /* \"#utility.yul\":15351:15357   */\n      dup2\n        /* \"#utility.yul\":15345:15358   */\n      mload\n        /* \"#utility.yul\":15336:15358   */\n      swap1\n      pop\n        /* \"#utility.yul\":15367:15400   */\n      tag_542\n        /* \"#utility.yul\":15394:15399   */\n      dup2\n        /* \"#utility.yul\":15367:15400   */\n      tag_316\n      jump\t// in\n    tag_542:\n        /* \"#utility.yul\":15263:15406   */\n      swap3\n      swap2\n      pop\n      pop\n      jump\t// out\n        /* \"#utility.yul\":15412:15919   */\n    tag_113:\n        /* \"#utility.yul\":15491:15497   */\n      0x00\n        /* \"#utility.yul\":15499:15505   */\n      0x00\n        /* \"#utility.yul\":15548:15550   */\n      0x40\n        /* \"#utility.yul\":15536:15545   */\n      dup4\n        /* \"#utility.yul\":15527:15534   */\n      dup6\n        /* \"#utility.yul\":15523:15546   */\n      sub\n        /* \"#utility.yul\":15519:15551   */\n      slt\n        /* \"#utility.yul\":15516:15635   */\n      iszero\n      tag_544\n      jumpi\n        /* \"#utility.yul\":15554:15633   */\n      tag_545\n      tag_313\n      jump\t// in\n    tag_545:\n        /* \"#utility.yul\":15516:15635   */\n    tag_544:\n        /* \"#utility.yul\":15674:15675   */\n      0x00\n        /* \"#utility.yul\":15699:15763   */\n      tag_546\n        /* \"#utility.yul\":15755:15762   */\n      dup6\n        /* \"#utility.yul\":15746:15752   */\n      dup3\n        /* \"#utility.yul\":15735:15744   */\n      dup7\n        /* \"#utility.yul\":15731:15753   */\n      add\n        /* \"#utility.yul\":15699:15763   */\n      tag_360\n      jump\t// in\n    tag_546:\n        /* \"#utility.yul\":15689:15763   */\n      swap3\n      pop\n        /* \"#utility.yul\":15645:15773   */\n      pop\n        /* \"#utility.yul\":15812:15814   */\n      0x20\n        /* \"#utility.yul\":15838:15902   */\n      tag_547\n        /* \"#utility.yul\":15894:15901   */\n      dup6\n        /* \"#utility.yul\":15885:15891   */\n      dup3\n        /* \"#utility.yul\":15874:15883   */\n      dup7\n        /* \"#utility.yul\":15870:15892   */\n      add\n        /* \"#utility.yul\":15838:15902   */\n      tag_360\n      jump\t// in\n    tag_547:\n        /* \"#utility.yul\":15828:15902   */\n      swap2\n      pop\n        /* \"#utility.yul\":15783:15912   */\n      pop\n        /* \"#utility.yul\":15412:15919   */\n      swap3\n      pop\n      swap3\n      swap1\n      pop\n      jump\t// out\n        /* \"#utility.yul\":15925:16105   */\n    tag_361:\n        /* \"#utility.yul\":15973:16050   */\n      0x4e487b7100000000000000000000000000000000000000000000000000000000\n        /* \"#utility.yul\":15970:15971   */\n      0x00\n        /* \"#utility.yul\":15963:16051   */\n      mstore\n        /* \"#utility.yul\":16070:16074   */\n      0x11\n        /* \"#utility.yul\":16067:16068   */\n      0x04\n        /* \"#utility.yul\":16060:16075   */\n      mstore\n        /* \"#utility.yul\":16094:16098   */\n      0x24\n        /* \"#utility.yul\":16091:16092   */\n      0x00\n        /* \"#utility.yul\":16084:16099   */\n      revert\n        /* \"#utility.yul\":16111:16305   */\n    tag_120:\n        /* \"#utility.yul\":16151:16155   */\n      0x00\n        /* \"#utility.yul\":16171:16191   */\n      tag_550\n        /* \"#utility.yul\":16189:16190   */\n      dup3\n        /* \"#utility.yul\":16171:16191   */\n      tag_315\n      jump\t// in\n    tag_550:\n        /* \"#utility.yul\":16166:16191   */\n      swap2\n      pop\n        /* \"#utility.yul\":16205:16225   */\n      tag_551\n        /* \"#utility.yul\":16223:16224   */\n      dup4\n        /* \"#utility.yul\":16205:16225   */\n      tag_315\n      jump\t// in\n    tag_551:\n        /* \"#utility.yul\":16200:16225   */\n      swap3\n      pop\n        /* \"#utility.yul\":16249:16250   */\n      dup3\n        /* \"#utility.yul\":16246:16247   */\n      dup3\n        /* \"#utility.yul\":16242:16251   */\n      sub\n        /* \"#utility.yul\":16234:16251   */\n      swap1\n      pop\n        /* \"#utility.yul\":16273:16274   */\n      dup2\n        /* \"#utility.yul\":16267:16271   */\n      dup2\n        /* \"#utility.yul\":16264:16275   */\n      gt\n        /* \"#utility.yul\":16261:16298   */\n      iszero\n      tag_552\n      jumpi\n        /* \"#utility.yul\":16278:16296   */\n      tag_553\n      tag_361\n      jump\t// in\n    tag_553:\n        /* \"#utility.yul\":16261:16298   */\n    tag_552:\n        /* \"#utility.yul\":16111:16305   */\n      swap3\n      swap2\n      pop\n      pop\n      jump\t// out\n        /* \"#utility.yul\":16311:16753   */\n    tag_123:\n        /* \"#utility.yul\":16460:16464   */\n      0x00\n        /* \"#utility.yul\":16498:16500   */\n      0x60\n        /* \"#utility.yul\":16487:16496   */\n      dup3\n        /* \"#utility.yul\":16483:16501   */\n      add\n        /* \"#utility.yul\":16475:16501   */\n      swap1\n      pop\n        /* \"#utility.yul\":16511:16582   */\n      tag_555\n        /* \"#utility.yul\":16579:16580   */\n      0x00\n        /* \"#utility.yul\":16568:16577   */\n      dup4\n        /* \"#utility.yul\":16564:16581   */\n      add\n        /* \"#utility.yul\":16555:16561   */\n      dup7\n        /* \"#utility.yul\":16511:16582   */\n      tag_328\n      jump\t// in\n    tag_555:\n        /* \"#utility.yul\":16592:16664   */\n      tag_556\n        /* \"#utility.yul\":16660:16662   */\n      0x20\n        /* \"#utility.yul\":16649:16658   */\n      dup4\n        /* \"#utility.yul\":16645:16663   */\n      add\n        /* \"#utility.yul\":16636:16642   */\n      dup6\n        /* \"#utility.yul\":16592:16664   */\n      tag_328\n      jump\t// in\n    tag_556:\n        /* \"#utility.yul\":16674:16746   */\n      tag_557\n        /* \"#utility.yul\":16742:16744   */\n      0x40\n        /* \"#utility.yul\":16731:16740   */\n      dup4\n        /* \"#utility.yul\":16727:16745   */\n      add\n        /* \"#utility.yul\":16718:16724   */\n      dup5\n        /* \"#utility.yul\":16674:16746   */\n      tag_328\n      jump\t// in\n    tag_557:\n        /* \"#utility.yul\":16311:16753   */\n      swap5\n      swap4\n      pop\n      pop\n      pop\n      pop\n      jump\t// out\n        /* \"#utility.yul\":16759:17110   */\n    tag_127:\n        /* \"#utility.yul\":16829:16835   */\n      0x00\n        /* \"#utility.yul\":16878:16880   */\n      0x20\n        /* \"#utility.yul\":16866:16875   */\n      dup3\n        /* \"#utility.yul\":16857:16864   */\n      dup5\n        /* \"#utility.yul\":16853:16876   */\n      sub\n        /* \"#utility.yul\":16849:16881   */\n      slt\n        /* \"#utility.yul\":16846:16965   */\n      iszero\n      tag_559\n      jumpi\n        /* \"#utility.yul\":16884:16963   */\n      tag_560\n      tag_313\n      jump\t// in\n    tag_560:\n        /* \"#utility.yul\":16846:16965   */\n    tag_559:\n        /* \"#utility.yul\":17004:17005   */\n      0x00\n        /* \"#utility.yul\":17029:17093   */\n      tag_561\n        /* \"#utility.yul\":17085:17092   */\n      dup5\n        /* \"#utility.yul\":17076:17082   */\n      dup3\n        /* \"#utility.yul\":17065:17074   */\n      dup6\n        /* \"#utility.yul\":17061:17083   */\n      add\n        /* \"#utility.yul\":17029:17093   */\n      tag_360\n      jump\t// in\n    tag_561:\n        /* \"#utility.yul\":17019:17093   */\n      swap2\n      pop\n        /* \"#utility.yul\":16975:17103   */\n      pop\n        /* \"#utility.yul\":16759:17110   */\n      swap3\n      swap2\n      pop\n      pop\n      jump\t// out\n        /* \"#utility.yul\":17116:17448   */\n    tag_130:\n        /* \"#utility.yul\":17237:17241   */\n      0x00\n        /* \"#utility.yul\":17275:17277   */\n      0x40\n        /* \"#utility.yul\":17264:17273   */\n      dup3\n        /* \"#utility.yul\":17260:17278   */\n      add\n        /* \"#utility.yul\":17252:17278   */\n      swap1\n      pop\n        /* \"#utility.yul\":17288:17359   */\n      tag_563\n        /* \"#utility.yul\":17356:17357   */\n      0x00\n        /* \"#utility.yul\":17345:17354   */\n      dup4\n        /* \"#utility.yul\":17341:17358   */\n      add\n        /* \"#utility.yul\":17332:17338   */\n      dup6\n        /* \"#utility.yul\":17288:17359   */\n      tag_355\n      jump\t// in\n    tag_563:\n        /* \"#utility.yul\":17369:17441   */\n      tag_564\n        /* \"#utility.yul\":17437:17439   */\n      0x20\n        /* \"#utility.yul\":17426:17435   */\n      dup4\n        /* \"#utility.yul\":17422:17440   */\n      add\n        /* \"#utility.yul\":17413:17419   */\n      dup5\n        /* \"#utility.yul\":17369:17441   */\n      tag_328\n      jump\t// in\n    tag_564:\n        /* \"#utility.yul\":17116:17448   */\n      swap4\n      swap3\n      pop\n      pop\n      pop\n      jump\t// out\n        /* \"#utility.yul\":17454:17571   */\n    tag_362:\n        /* \"#utility.yul\":17563:17564   */\n      0x00\n        /* \"#utility.yul\":17560:17561   */\n      0x00\n        /* \"#utility.yul\":17553:17565   */\n      revert\n        /* \"#utility.yul\":17577:17757   */\n    tag_265:\n        /* \"#utility.yul\":17625:17702   */\n      0x4e487b7100000000000000000000000000000000000000000000000000000000\n        /* \"#utility.yul\":17622:17623   */\n      0x00\n        /* \"#utility.yul\":17615:17703   */\n      mstore\n        /* \"#utility.yul\":17722:17726   */\n      0x41\n        /* \"#utility.yul\":17719:17720   */\n      0x04\n        /* \"#utility.yul\":17712:17727   */\n      mstore\n        /* \"#utility.yul\":17746:17750   */\n      0x24\n        /* \"#utility.yul\":17743:17744   */\n      0x00\n        /* \"#utility.yul\":17736:17751   */\n      revert\n        /* \"#utility.yul\":17763:18044   */\n    tag_363:\n        /* \"#utility.yul\":17846:17873   */\n      tag_568\n        /* \"#utility.yul\":17868:17872   */\n      dup3\n        /* \"#utility.yul\":17846:17873   */\n      tag_332\n      jump\t// in\n    tag_568:\n        /* \"#utility.yul\":17838:17844   */\n      dup2\n        /* \"#utility.yul\":17834:17874   */\n      add\n        /* \"#utility.yul\":17976:17982   */\n      dup2\n        /* \"#utility.yul\":17964:17974   */\n      dup2\n        /* \"#utility.yul\":17961:17983   */\n      lt\n        /* \"#utility.yul\":17940:17958   */\n      0xffffffffffffffff\n        /* \"#utility.yul\":17928:17938   */\n      dup3\n        /* \"#utility.yul\":17925:17959   */\n      gt\n        /* \"#utility.yul\":17922:17984   */\n      or\n        /* \"#utility.yul\":17919:18007   */\n      iszero\n      tag_569\n      jumpi\n        /* \"#utility.yul\":17987:18005   */\n      tag_570\n      tag_265\n      jump\t// in\n    tag_570:\n        /* \"#utility.yul\":17919:18007   */\n    tag_569:\n        /* \"#utility.yul\":18027:18037   */\n      dup1\n        /* \"#utility.yul\":18023:18025   */\n      0x40\n        /* \"#utility.yul\":18016:18038   */\n      mstore\n        /* \"#utility.yul\":17806:18044   */\n      pop\n        /* \"#utility.yul\":17763:18044   */\n      pop\n      pop\n      jump\t// out\n        /* \"#utility.yul\":18050:18179   */\n    tag_364:\n        /* \"#utility.yul\":18084:18090   */\n      0x00\n        /* \"#utility.yul\":18111:18131   */\n      tag_572\n      tag_312\n      jump\t// in\n    tag_572:\n        /* \"#utility.yul\":18101:18131   */\n      swap1\n      pop\n        /* \"#utility.yul\":18140:18173   */\n      tag_573\n        /* \"#utility.yul\":18168:18172   */\n      dup3\n        /* \"#utility.yul\":18160:18166   */\n      dup3\n        /* \"#utility.yul\":18140:18173   */\n      tag_363\n      jump\t// in\n    tag_573:\n        /* \"#utility.yul\":18050:18179   */\n      swap2\n      swap1\n      pop\n      jump\t// out\n        /* \"#utility.yul\":18308:18420   */\n    tag_366:\n        /* \"#utility.yul\":18394:18395   */\n      0x02\n        /* \"#utility.yul\":18387:18392   */\n      dup2\n        /* \"#utility.yul\":18384:18396   */\n      lt\n        /* \"#utility.yul\":18374:18414   */\n      tag_576\n      jumpi\n        /* \"#utility.yul\":18410:18411   */\n      0x00\n        /* \"#utility.yul\":18407:18408   */\n      0x00\n        /* \"#utility.yul\":18400:18412   */\n      revert\n        /* \"#utility.yul\":18374:18414   */\n    tag_576:\n        /* \"#utility.yul\":18308:18420   */\n      pop\n      jump\t// out\n        /* \"#utility.yul\":18426:18595   */\n    tag_367:\n        /* \"#utility.yul\":18496:18501   */\n      0x00\n        /* \"#utility.yul\":18527:18533   */\n      dup2\n        /* \"#utility.yul\":18521:18534   */\n      mload\n        /* \"#utility.yul\":18512:18534   */\n      swap1\n      pop\n        /* \"#utility.yul\":18543:18589   */\n      tag_578\n        /* \"#utility.yul\":18583:18588   */\n      dup2\n        /* \"#utility.yul\":18543:18589   */\n      tag_366\n      jump\t// in\n    tag_578:\n        /* \"#utility.yul\":18426:18595   */\n      swap3\n      swap2\n      pop\n      pop\n      jump\t// out\n        /* \"#utility.yul\":18628:19949   */\n    tag_368:\n        /* \"#utility.yul\":18718:18723   */\n      0x00\n        /* \"#utility.yul\":18762:18766   */\n      0xc0\n        /* \"#utility.yul\":18750:18759   */\n      dup3\n        /* \"#utility.yul\":18745:18748   */\n      dup5\n        /* \"#utility.yul\":18741:18760   */\n      sub\n        /* \"#utility.yul\":18737:18767   */\n      slt\n        /* \"#utility.yul\":18734:18851   */\n      iszero\n      tag_580\n      jumpi\n        /* \"#utility.yul\":18770:18849   */\n      tag_581\n      tag_362\n      jump\t// in\n    tag_581:\n        /* \"#utility.yul\":18734:18851   */\n    tag_580:\n        /* \"#utility.yul\":18869:18890   */\n      tag_582\n        /* \"#utility.yul\":18885:18889   */\n      0xc0\n        /* \"#utility.yul\":18869:18890   */\n      tag_364\n      jump\t// in\n    tag_582:\n        /* \"#utility.yul\":18860:18890   */\n      swap1\n      pop\n        /* \"#utility.yul\":18947:18948   */\n      0x00\n        /* \"#utility.yul\":18987:19047   */\n      tag_583\n        /* \"#utility.yul\":19043:19046   */\n      dup5\n        /* \"#utility.yul\":19034:19040   */\n      dup3\n        /* \"#utility.yul\":19023:19032   */\n      dup6\n        /* \"#utility.yul\":19019:19041   */\n      add\n        /* \"#utility.yul\":18987:19047   */\n      tag_360\n      jump\t// in\n    tag_583:\n        /* \"#utility.yul\":18980:18984   */\n      0x00\n        /* \"#utility.yul\":18973:18978   */\n      dup4\n        /* \"#utility.yul\":18969:18985   */\n      add\n        /* \"#utility.yul\":18962:19048   */\n      mstore\n        /* \"#utility.yul\":18900:19059   */\n      pop\n        /* \"#utility.yul\":19119:19121   */\n      0x20\n        /* \"#utility.yul\":19160:19220   */\n      tag_584\n        /* \"#utility.yul\":19216:19219   */\n      dup5\n        /* \"#utility.yul\":19207:19213   */\n      dup3\n        /* \"#utility.yul\":19196:19205   */\n      dup6\n        /* \"#utility.yul\":19192:19214   */\n      add\n        /* \"#utility.yul\":19160:19220   */\n      tag_350\n      jump\t// in\n    tag_584:\n        /* \"#utility.yul\":19153:19157   */\n      0x20\n        /* \"#utility.yul\":19146:19151   */\n      dup4\n        /* \"#utility.yul\":19142:19158   */\n      add\n        /* \"#utility.yul\":19135:19221   */\n      mstore\n        /* \"#utility.yul\":19069:19232   */\n      pop\n        /* \"#utility.yul\":19293:19295   */\n      0x40\n        /* \"#utility.yul\":19334:19394   */\n      tag_585\n        /* \"#utility.yul\":19390:19393   */\n      dup5\n        /* \"#utility.yul\":19381:19387   */\n      dup3\n        /* \"#utility.yul\":19370:19379   */\n      dup6\n        /* \"#utility.yul\":19366:19388   */\n      add\n        /* \"#utility.yul\":19334:19394   */\n      tag_360\n      jump\t// in\n    tag_585:\n        /* \"#utility.yul\":19327:19331   */\n      0x40\n        /* \"#utility.yul\":19320:19325   */\n      dup4\n        /* \"#utility.yul\":19316:19332   */\n      add\n        /* \"#utility.yul\":19309:19395   */\n      mstore\n        /* \"#utility.yul\":19242:19406   */\n      pop\n        /* \"#utility.yul\":19466:19468   */\n      0x60\n        /* \"#utility.yul\":19507:19567   */\n      tag_586\n        /* \"#utility.yul\":19563:19566   */\n      dup5\n        /* \"#utility.yul\":19554:19560   */\n      dup3\n        /* \"#utility.yul\":19543:19552   */\n      dup6\n        /* \"#utility.yul\":19539:19561   */\n      add\n        /* \"#utility.yul\":19507:19567   */\n      tag_350\n      jump\t// in\n    tag_586:\n        /* \"#utility.yul\":19500:19504   */\n      0x60\n        /* \"#utility.yul\":19493:19498   */\n      dup4\n        /* \"#utility.yul\":19489:19505   */\n      add\n        /* \"#utility.yul\":19482:19568   */\n      mstore\n        /* \"#utility.yul\":19416:19579   */\n      pop\n        /* \"#utility.yul\":19641:19644   */\n      0x80\n        /* \"#utility.yul\":19683:19743   */\n      tag_587\n        /* \"#utility.yul\":19739:19742   */\n      dup5\n        /* \"#utility.yul\":19730:19736   */\n      dup3\n        /* \"#utility.yul\":19719:19728   */\n      dup6\n        /* \"#utility.yul\":19715:19737   */\n      add\n        /* \"#utility.yul\":19683:19743   */\n      tag_360\n      jump\t// in\n    tag_587:\n        /* \"#utility.yul\":19676:19680   */\n      0x80\n        /* \"#utility.yul\":19669:19674   */\n      dup4\n        /* \"#utility.yul\":19665:19681   */\n      add\n        /* \"#utility.yul\":19658:19744   */\n      mstore\n        /* \"#utility.yul\":19589:19755   */\n      pop\n        /* \"#utility.yul\":19815:19818   */\n      0xa0\n        /* \"#utility.yul\":19857:19930   */\n      tag_588\n        /* \"#utility.yul\":19926:19929   */\n      dup5\n        /* \"#utility.yul\":19917:19923   */\n      dup3\n        /* \"#utility.yul\":19906:19915   */\n      dup6\n        /* \"#utility.yul\":19902:19924   */\n      add\n        /* \"#utility.yul\":19857:19930   */\n      tag_367\n      jump\t// in\n    tag_588:\n        /* \"#utility.yul\":19850:19854   */\n      0xa0\n        /* \"#utility.yul\":19843:19848   */\n      dup4\n        /* \"#utility.yul\":19839:19855   */\n      add\n        /* \"#utility.yul\":19832:19931   */\n      mstore\n        /* \"#utility.yul\":19765:19942   */\n      pop\n        /* \"#utility.yul\":18628:19949   */\n      swap3\n      swap2\n      pop\n      pop\n      jump\t// out\n        /* \"#utility.yul\":19955:20367   */\n    tag_146:\n        /* \"#utility.yul\":20055:20061   */\n      0x00\n        /* \"#utility.yul\":20104:20107   */\n      0xc0\n        /* \"#utility.yul\":20092:20101   */\n      dup3\n        /* \"#utility.yul\":20083:20090   */\n      dup5\n        /* \"#utility.yul\":20079:20102   */\n      sub\n        /* \"#utility.yul\":20075:20108   */\n      slt\n        /* \"#utility.yul\":20072:20192   */\n      iszero\n      tag_590\n      jumpi\n        /* \"#utility.yul\":20111:20190   */\n      tag_591\n      tag_313\n      jump\t// in\n    tag_591:\n        /* \"#utility.yul\":20072:20192   */\n    tag_590:\n        /* \"#utility.yul\":20231:20232   */\n      0x00\n        /* \"#utility.yul\":20256:20350   */\n      tag_592\n        /* \"#utility.yul\":20342:20349   */\n      dup5\n        /* \"#utility.yul\":20333:20339   */\n      dup3\n        /* \"#utility.yul\":20322:20331   */\n      dup6\n        /* \"#utility.yul\":20318:20340   */\n      add\n        /* \"#utility.yul\":20256:20350   */\n      tag_368\n      jump\t// in\n    tag_592:\n        /* \"#utility.yul\":20246:20350   */\n      swap2\n      pop\n        /* \"#utility.yul\":20202:20360   */\n      pop\n        /* \"#utility.yul\":19955:20367   */\n      swap3\n      swap2\n      pop\n      pop\n      jump\t// out\n        /* \"#utility.yul\":20373:20552   */\n    tag_369:\n        /* \"#utility.yul\":20513:20544   */\n      0x6d6564616c696f6e207065656e73696f6e732061646d696e206f6e6c79000000\n        /* \"#utility.yul\":20509:20510   */\n      0x00\n        /* \"#utility.yul\":20501:20507   */\n      dup3\n        /* \"#utility.yul\":20497:20511   */\n      add\n        /* \"#utility.yul\":20490:20545   */\n      mstore\n        /* \"#utility.yul\":20373:20552   */\n      pop\n      jump\t// out\n        /* \"#utility.yul\":20558:20924   */\n    tag_370:\n        /* \"#utility.yul\":20700:20703   */\n      0x00\n        /* \"#utility.yul\":20721:20788   */\n      tag_595\n        /* \"#utility.yul\":20785:20787   */\n      0x1d\n        /* \"#utility.yul\":20780:20783   */\n      dup4\n        /* \"#utility.yul\":20721:20788   */\n      tag_330\n      jump\t// in\n    tag_595:\n        /* \"#utility.yul\":20714:20788   */\n      swap2\n      pop\n        /* \"#utility.yul\":20797:20890   */\n      tag_596\n        /* \"#utility.yul\":20886:20889   */\n      dup3\n        /* \"#utility.yul\":20797:20890   */\n      tag_369\n      jump\t// in\n    tag_596:\n        /* \"#utility.yul\":20915:20917   */\n      0x20\n        /* \"#utility.yul\":20910:20913   */\n      dup3\n        /* \"#utility.yul\":20906:20918   */\n      add\n        /* \"#utility.yul\":20899:20918   */\n      swap1\n      pop\n        /* \"#utility.yul\":20558:20924   */\n      swap2\n      swap1\n      pop\n      jump\t// out\n        /* \"#utility.yul\":20930:21349   */\n    tag_163:\n        /* \"#utility.yul\":21096:21100   */\n      0x00\n        /* \"#utility.yul\":21134:21136   */\n      0x20\n        /* \"#utility.yul\":21123:21132   */\n      dup3\n        /* \"#utility.yul\":21119:21137   */\n      add\n        /* \"#utility.yul\":21111:21137   */\n      swap1\n      pop\n        /* \"#utility.yul\":21183:21192   */\n      dup2\n        /* \"#utility.yul\":21177:21181   */\n      dup2\n        /* \"#utility.yul\":21173:21193   */\n      sub\n        /* \"#utility.yul\":21169:21170   */\n      0x00\n        /* \"#utility.yul\":21158:21167   */\n      dup4\n        /* \"#utility.yul\":21154:21171   */\n      add\n        /* \"#utility.yul\":21147:21194   */\n      mstore\n        /* \"#utility.yul\":21211:21342   */\n      tag_598\n        /* \"#utility.yul\":21337:21341   */\n      dup2\n        /* \"#utility.yul\":21211:21342   */\n      tag_370\n      jump\t// in\n    tag_598:\n        /* \"#utility.yul\":21203:21342   */\n      swap1\n      pop\n        /* \"#utility.yul\":20930:21349   */\n      swap2\n      swap1\n      pop\n      jump\t// out\n        /* \"#utility.yul\":21355:21467   */\n    tag_371:\n        /* \"#utility.yul\":21441:21442   */\n      0x03\n        /* \"#utility.yul\":21434:21439   */\n      dup2\n        /* \"#utility.yul\":21431:21443   */\n      lt\n        /* \"#utility.yul\":21421:21461   */\n      tag_600\n      jumpi\n        /* \"#utility.yul\":21457:21458   */\n      0x00\n        /* \"#utility.yul\":21454:21455   */\n      0x00\n        /* \"#utility.yul\":21447:21459   */\n      revert\n        /* \"#utility.yul\":21421:21461   */\n    tag_600:\n        /* \"#utility.yul\":21355:21467   */\n      pop\n      jump\t// out\n        /* \"#utility.yul\":21473:21642   */\n    tag_372:\n        /* \"#utility.yul\":21543:21548   */\n      0x00\n        /* \"#utility.yul\":21574:21580   */\n      dup2\n        /* \"#utility.yul\":21568:21581   */\n      mload\n        /* \"#utility.yul\":21559:21581   */\n      swap1\n      pop\n        /* \"#utility.yul\":21590:21636   */\n      tag_602\n        /* \"#utility.yul\":21630:21635   */\n      dup2\n        /* \"#utility.yul\":21590:21636   */\n      tag_371\n      jump\t// in\n    tag_602:\n        /* \"#utility.yul\":21473:21642   */\n      swap3\n      swap2\n      pop\n      pop\n      jump\t// out\n        /* \"#utility.yul\":21669:24440   */\n    tag_373:\n        /* \"#utility.yul\":21753:21758   */\n      0x00\n        /* \"#utility.yul\":21797:21803   */\n      0x01c0\n        /* \"#utility.yul\":21785:21794   */\n      dup3\n        /* \"#utility.yul\":21780:21783   */\n      dup5\n        /* \"#utility.yul\":21776:21795   */\n      sub\n        /* \"#utility.yul\":21772:21804   */\n      slt\n        /* \"#utility.yul\":21769:21888   */\n      iszero\n      tag_604\n      jumpi\n        /* \"#utility.yul\":21807:21886   */\n      tag_605\n      tag_362\n      jump\t// in\n    tag_605:\n        /* \"#utility.yul\":21769:21888   */\n    tag_604:\n        /* \"#utility.yul\":21906:21929   */\n      tag_606\n        /* \"#utility.yul\":21922:21928   */\n      0x01c0\n        /* \"#utility.yul\":21906:21929   */\n      tag_364\n      jump\t// in\n    tag_606:\n        /* \"#utility.yul\":21897:21929   */\n      swap1\n      pop\n        /* \"#utility.yul\":21986:21987   */\n      0x00\n        /* \"#utility.yul\":22026:22086   */\n      tag_607\n        /* \"#utility.yul\":22082:22085   */\n      dup5\n        /* \"#utility.yul\":22073:22079   */\n      dup3\n        /* \"#utility.yul\":22062:22071   */\n      dup6\n        /* \"#utility.yul\":22058:22080   */\n      add\n        /* \"#utility.yul\":22026:22086   */\n      tag_360\n      jump\t// in\n    tag_607:\n        /* \"#utility.yul\":22019:22023   */\n      0x00\n        /* \"#utility.yul\":22012:22017   */\n      dup4\n        /* \"#utility.yul\":22008:22024   */\n      add\n        /* \"#utility.yul\":22001:22087   */\n      mstore\n        /* \"#utility.yul\":21939:22098   */\n      pop\n        /* \"#utility.yul\":22158:22160   */\n      0x20\n        /* \"#utility.yul\":22199:22259   */\n      tag_608\n        /* \"#utility.yul\":22255:22258   */\n      dup5\n        /* \"#utility.yul\":22246:22252   */\n      dup3\n        /* \"#utility.yul\":22235:22244   */\n      dup6\n        /* \"#utility.yul\":22231:22253   */\n      add\n        /* \"#utility.yul\":22199:22259   */\n      tag_350\n      jump\t// in\n    tag_608:\n        /* \"#utility.yul\":22192:22196   */\n      0x20\n        /* \"#utility.yul\":22185:22190   */\n      dup4\n        /* \"#utility.yul\":22181:22197   */\n      add\n        /* \"#utility.yul\":22174:22260   */\n      mstore\n        /* \"#utility.yul\":22108:22271   */\n      pop\n        /* \"#utility.yul\":22334:22336   */\n      0x40\n        /* \"#utility.yul\":22375:22448   */\n      tag_609\n        /* \"#utility.yul\":22444:22447   */\n      dup5\n        /* \"#utility.yul\":22435:22441   */\n      dup3\n        /* \"#utility.yul\":22424:22433   */\n      dup6\n        /* \"#utility.yul\":22420:22442   */\n      add\n        /* \"#utility.yul\":22375:22448   */\n      tag_372\n      jump\t// in\n    tag_609:\n        /* \"#utility.yul\":22368:22372   */\n      0x40\n        /* \"#utility.yul\":22361:22366   */\n      dup4\n        /* \"#utility.yul\":22357:22373   */\n      add\n        /* \"#utility.yul\":22350:22449   */\n      mstore\n        /* \"#utility.yul\":22281:22460   */\n      pop\n        /* \"#utility.yul\":22524:22526   */\n      0x60\n        /* \"#utility.yul\":22565:22625   */\n      tag_610\n        /* \"#utility.yul\":22621:22624   */\n      dup5\n        /* \"#utility.yul\":22612:22618   */\n      dup3\n        /* \"#utility.yul\":22601:22610   */\n      dup6\n        /* \"#utility.yul\":22597:22619   */\n      add\n        /* \"#utility.yul\":22565:22625   */\n      tag_350\n      jump\t// in\n    tag_610:\n        /* \"#utility.yul\":22558:22562   */\n      0x60\n        /* \"#utility.yul\":22551:22556   */\n      dup4\n        /* \"#utility.yul\":22547:22563   */\n      add\n        /* \"#utility.yul\":22540:22626   */\n      mstore\n        /* \"#utility.yul\":22470:22637   */\n      pop\n        /* \"#utility.yul\":22699:22702   */\n      0x80\n        /* \"#utility.yul\":22741:22801   */\n      tag_611\n        /* \"#utility.yul\":22797:22800   */\n      dup5\n        /* \"#utility.yul\":22788:22794   */\n      dup3\n        /* \"#utility.yul\":22777:22786   */\n      dup6\n        /* \"#utility.yul\":22773:22795   */\n      add\n        /* \"#utility.yul\":22741:22801   */\n      tag_350\n      jump\t// in\n    tag_611:\n        /* \"#utility.yul\":22734:22738   */\n      0x80\n        /* \"#utility.yul\":22727:22732   */\n      dup4\n        /* \"#utility.yul\":22723:22739   */\n      add\n        /* \"#utility.yul\":22716:22802   */\n      mstore\n        /* \"#utility.yul\":22647:22813   */\n      pop\n        /* \"#utility.yul\":22879:22882   */\n      0xa0\n        /* \"#utility.yul\":22921:22981   */\n      tag_612\n        /* \"#utility.yul\":22977:22980   */\n      dup5\n        /* \"#utility.yul\":22968:22974   */\n      dup3\n        /* \"#utility.yul\":22957:22966   */\n      dup6\n        /* \"#utility.yul\":22953:22975   */\n      add\n        /* \"#utility.yul\":22921:22981   */\n      tag_360\n      jump\t// in\n    tag_612:\n        /* \"#utility.yul\":22914:22918   */\n      0xa0\n        /* \"#utility.yul\":22907:22912   */\n      dup4\n        /* \"#utility.yul\":22903:22919   */\n      add\n        /* \"#utility.yul\":22896:22982   */\n      mstore\n        /* \"#utility.yul\":22823:22993   */\n      pop\n        /* \"#utility.yul\":23059:23062   */\n      0xc0\n        /* \"#utility.yul\":23101:23161   */\n      tag_613\n        /* \"#utility.yul\":23157:23160   */\n      dup5\n        /* \"#utility.yul\":23148:23154   */\n      dup3\n        /* \"#utility.yul\":23137:23146   */\n      dup6\n        /* \"#utility.yul\":23133:23155   */\n      add\n        /* \"#utility.yul\":23101:23161   */\n      tag_360\n      jump\t// in\n    tag_613:\n        /* \"#utility.yul\":23094:23098   */\n      0xc0\n        /* \"#utility.yul\":23087:23092   */\n      dup4\n        /* \"#utility.yul\":23083:23099   */\n      add\n        /* \"#utility.yul\":23076:23162   */\n      mstore\n        /* \"#utility.yul\":23003:23173   */\n      pop\n        /* \"#utility.yul\":23237:23240   */\n      0xe0\n        /* \"#utility.yul\":23279:23339   */\n      tag_614\n        /* \"#utility.yul\":23335:23338   */\n      dup5\n        /* \"#utility.yul\":23326:23332   */\n      dup3\n        /* \"#utility.yul\":23315:23324   */\n      dup6\n        /* \"#utility.yul\":23311:23333   */\n      add\n        /* \"#utility.yul\":23279:23339   */\n      tag_360\n      jump\t// in\n    tag_614:\n        /* \"#utility.yul\":23272:23276   */\n      0xe0\n        /* \"#utility.yul\":23265:23270   */\n      dup4\n        /* \"#utility.yul\":23261:23277   */\n      add\n        /* \"#utility.yul\":23254:23340   */\n      mstore\n        /* \"#utility.yul\":23183:23351   */\n      pop\n        /* \"#utility.yul\":23415:23418   */\n      0x0100\n        /* \"#utility.yul\":23459:23519   */\n      tag_615\n        /* \"#utility.yul\":23515:23518   */\n      dup5\n        /* \"#utility.yul\":23506:23512   */\n      dup3\n        /* \"#utility.yul\":23495:23504   */\n      dup6\n        /* \"#utility.yul\":23491:23513   */\n      add\n        /* \"#utility.yul\":23459:23519   */\n      tag_360\n      jump\t// in\n    tag_615:\n        /* \"#utility.yul\":23450:23456   */\n      0x0100\n        /* \"#utility.yul\":23443:23448   */\n      dup4\n        /* \"#utility.yul\":23439:23457   */\n      add\n        /* \"#utility.yul\":23432:23520   */\n      mstore\n        /* \"#utility.yul\":23361:23531   */\n      pop\n        /* \"#utility.yul\":23594:23597   */\n      0x0120\n        /* \"#utility.yul\":23638:23698   */\n      tag_616\n        /* \"#utility.yul\":23694:23697   */\n      dup5\n        /* \"#utility.yul\":23685:23691   */\n      dup3\n        /* \"#utility.yul\":23674:23683   */\n      dup6\n        /* \"#utility.yul\":23670:23692   */\n      add\n        /* \"#utility.yul\":23638:23698   */\n      tag_360\n      jump\t// in\n    tag_616:\n        /* \"#utility.yul\":23629:23635   */\n      0x0120\n        /* \"#utility.yul\":23622:23627   */\n      dup4\n        /* \"#utility.yul\":23618:23636   */\n      add\n        /* \"#utility.yul\":23611:23699   */\n      mstore\n        /* \"#utility.yul\":23541:23710   */\n      pop\n        /* \"#utility.yul\":23771:23774   */\n      0x0140\n        /* \"#utility.yul\":23815:23875   */\n      tag_617\n        /* \"#utility.yul\":23871:23874   */\n      dup5\n        /* \"#utility.yul\":23862:23868   */\n      dup3\n        /* \"#utility.yul\":23851:23860   */\n      dup6\n        /* \"#utility.yul\":23847:23869   */\n      add\n        /* \"#utility.yul\":23815:23875   */\n      tag_360\n      jump\t// in\n    tag_617:\n        /* \"#utility.yul\":23806:23812   */\n      0x0140\n        /* \"#utility.yul\":23799:23804   */\n      dup4\n        /* \"#utility.yul\":23795:23813   */\n      add\n        /* \"#utility.yul\":23788:23876   */\n      mstore\n        /* \"#utility.yul\":23720:23887   */\n      pop\n        /* \"#utility.yul\":23952:23955   */\n      0x0160\n        /* \"#utility.yul\":23996:24056   */\n      tag_618\n        /* \"#utility.yul\":24052:24055   */\n      dup5\n        /* \"#utility.yul\":24043:24049   */\n      dup3\n        /* \"#utility.yul\":24032:24041   */\n      dup6\n        /* \"#utility.yul\":24028:24050   */\n      add\n        /* \"#utility.yul\":23996:24056   */\n      tag_360\n      jump\t// in\n    tag_618:\n        /* \"#utility.yul\":23987:23993   */\n      0x0160\n        /* \"#utility.yul\":23980:23985   */\n      dup4\n        /* \"#utility.yul\":23976:23994   */\n      add\n        /* \"#utility.yul\":23969:24057   */\n      mstore\n        /* \"#utility.yul\":23897:24068   */\n      pop\n        /* \"#utility.yul\":24133:24136   */\n      0x0180\n        /* \"#utility.yul\":24177:24237   */\n      tag_619\n        /* \"#utility.yul\":24233:24236   */\n      dup5\n        /* \"#utility.yul\":24224:24230   */\n      dup3\n        /* \"#utility.yul\":24213:24222   */\n      dup6\n        /* \"#utility.yul\":24209:24231   */\n      add\n        /* \"#utility.yul\":24177:24237   */\n      tag_360\n      jump\t// in\n    tag_619:\n        /* \"#utility.yul\":24168:24174   */\n      0x0180\n        /* \"#utility.yul\":24161:24166   */\n      dup4\n        /* \"#utility.yul\":24157:24175   */\n      add\n        /* \"#utility.yul\":24150:24238   */\n      mstore\n        /* \"#utility.yul\":24078:24249   */\n      pop\n        /* \"#utility.yul\":24317:24320   */\n      0x01a0\n        /* \"#utility.yul\":24361:24421   */\n      tag_620\n        /* \"#utility.yul\":24417:24420   */\n      dup5\n        /* \"#utility.yul\":24408:24414   */\n      dup3\n        /* \"#utility.yul\":24397:24406   */\n      dup6\n        /* \"#utility.yul\":24393:24415   */\n      add\n        /* \"#utility.yul\":24361:24421   */\n      tag_360\n      jump\t// in\n    tag_620:\n        /* \"#utility.yul\":24352:24358   */\n      0x01a0\n        /* \"#utility.yul\":24345:24350   */\n      dup4\n        /* \"#utility.yul\":24341:24359   */\n      add\n        /* \"#utility.yul\":24334:24422   */\n      mstore\n        /* \"#utility.yul\":24259:24433   */\n      pop\n        /* \"#utility.yul\":21669:24440   */\n      swap3\n      swap2\n      pop\n      pop\n      jump\t// out\n        /* \"#utility.yul\":24446:24846   */\n    tag_207:\n        /* \"#utility.yul\":24540:24546   */\n      0x00\n        /* \"#utility.yul\":24589:24592   */\n      0x01c0\n        /* \"#utility.yul\":24577:24586   */\n      dup3\n        /* \"#utility.yul\":24568:24575   */\n      dup5\n        /* \"#utility.yul\":24564:24587   */\n      sub\n        /* \"#utility.yul\":24560:24593   */\n      slt\n        /* \"#utility.yul\":24557:24677   */\n      iszero\n      tag_622\n      jumpi\n        /* \"#utility.yul\":24596:24675   */\n      tag_623\n      tag_313\n      jump\t// in\n    tag_623:\n        /* \"#utility.yul\":24557:24677   */\n    tag_622:\n        /* \"#utility.yul\":24716:24717   */\n      0x00\n        /* \"#utility.yul\":24741:24829   */\n      tag_624\n        /* \"#utility.yul\":24821:24828   */\n      dup5\n        /* \"#utility.yul\":24812:24818   */\n      dup3\n        /* \"#utility.yul\":24801:24810   */\n      dup6\n        /* \"#utility.yul\":24797:24819   */\n      add\n        /* \"#utility.yul\":24741:24829   */\n      tag_373\n      jump\t// in\n    tag_624:\n        /* \"#utility.yul\":24731:24829   */\n      swap2\n      pop\n        /* \"#utility.yul\":24687:24839   */\n      pop\n        /* \"#utility.yul\":24446:24846   */\n      swap3\n      swap2\n      pop\n      pop\n      jump\t// out\n        /* \"#utility.yul\":24852:25024   */\n    tag_374:\n        /* \"#utility.yul\":24992:25016   */\n      0x636f6e747269627574696f6e206d69732d6d6174636800000000000000000000\n        /* \"#utility.yul\":24988:24989   */\n      0x00\n        /* \"#utility.yul\":24980:24986   */\n      dup3\n        /* \"#utility.yul\":24976:24990   */\n      add\n        /* \"#utility.yul\":24969:25017   */\n      mstore\n        /* \"#utility.yul\":24852:25024   */\n      pop\n      jump\t// out\n        /* \"#utility.yul\":25030:25396   */\n    tag_375:\n        /* \"#utility.yul\":25172:25175   */\n      0x00\n        /* \"#utility.yul\":25193:25260   */\n      tag_627\n        /* \"#utility.yul\":25257:25259   */\n      0x16\n        /* \"#utility.yul\":25252:25255   */\n      dup4\n        /* \"#utility.yul\":25193:25260   */\n      tag_330\n      jump\t// in\n    tag_627:\n        /* \"#utility.yul\":25186:25260   */\n      swap2\n      pop\n        /* \"#utility.yul\":25269:25362   */\n      tag_628\n        /* \"#utility.yul\":25358:25361   */\n      dup3\n        /* \"#utility.yul\":25269:25362   */\n      tag_374\n      jump\t// in\n    tag_628:\n        /* \"#utility.yul\":25387:25389   */\n      0x20\n        /* \"#utility.yul\":25382:25385   */\n      dup3\n        /* \"#utility.yul\":25378:25390   */\n      add\n        /* \"#utility.yul\":25371:25390   */\n      swap1\n      pop\n        /* \"#utility.yul\":25030:25396   */\n      swap2\n      swap1\n      pop\n      jump\t// out\n        /* \"#utility.yul\":25402:25821   */\n    tag_242:\n        /* \"#utility.yul\":25568:25572   */\n      0x00\n        /* \"#utility.yul\":25606:25608   */\n      0x20\n        /* \"#utility.yul\":25595:25604   */\n      dup3\n        /* \"#utility.yul\":25591:25609   */\n      add\n        /* \"#utility.yul\":25583:25609   */\n      swap1\n      pop\n        /* \"#utility.yul\":25655:25664   */\n      dup2\n        /* \"#utility.yul\":25649:25653   */\n      dup2\n        /* \"#utility.yul\":25645:25665   */\n      sub\n        /* \"#utility.yul\":25641:25642   */\n      0x00\n        /* \"#utility.yul\":25630:25639   */\n      dup4\n        /* \"#utility.yul\":25626:25643   */\n      add\n        /* \"#utility.yul\":25619:25666   */\n      mstore\n        /* \"#utility.yul\":25683:25814   */\n      tag_630\n        /* \"#utility.yul\":25809:25813   */\n      dup2\n        /* \"#utility.yul\":25683:25814   */\n      tag_375\n      jump\t// in\n    tag_630:\n        /* \"#utility.yul\":25675:25814   */\n      swap1\n      pop\n        /* \"#utility.yul\":25402:25821   */\n      swap2\n      swap1\n      pop\n      jump\t// out\n        /* \"#utility.yul\":25827:26269   */\n    tag_245:\n        /* \"#utility.yul\":25976:25980   */\n      0x00\n        /* \"#utility.yul\":26014:26016   */\n      0x60\n        /* \"#utility.yul\":26003:26012   */\n      dup3\n        /* \"#utility.yul\":25999:26017   */\n      add\n        /* \"#utility.yul\":25991:26017   */\n      swap1\n      pop\n        /* \"#utility.yul\":26027:26098   */\n      tag_632\n        /* \"#utility.yul\":26095:26096   */\n      0x00\n        /* \"#utility.yul\":26084:26093   */\n      dup4\n        /* \"#utility.yul\":26080:26097   */\n      add\n        /* \"#utility.yul\":26071:26077   */\n      dup7\n        /* \"#utility.yul\":26027:26098   */\n      tag_355\n      jump\t// in\n    tag_632:\n        /* \"#utility.yul\":26108:26180   */\n      tag_633\n        /* \"#utility.yul\":26176:26178   */\n      0x20\n        /* \"#utility.yul\":26165:26174   */\n      dup4\n        /* \"#utility.yul\":26161:26179   */\n      add\n        /* \"#utility.yul\":26152:26158   */\n      dup6\n        /* \"#utility.yul\":26108:26180   */\n      tag_355\n      jump\t// in\n    tag_633:\n        /* \"#utility.yul\":26190:26262   */\n      tag_634\n        /* \"#utility.yul\":26258:26260   */\n      0x40\n        /* \"#utility.yul\":26247:26256   */\n      dup4\n        /* \"#utility.yul\":26243:26261   */\n      add\n        /* \"#utility.yul\":26234:26240   */\n      dup5\n        /* \"#utility.yul\":26190:26262   */\n      tag_328\n      jump\t// in\n    tag_634:\n        /* \"#utility.yul\":25827:26269   */\n      swap5\n      swap4\n      pop\n      pop\n      pop\n      pop\n      jump\t// out\n        /* \"#utility.yul\":26275:26387   */\n    tag_376:\n        /* \"#utility.yul\":26361:26362   */\n      0x04\n        /* \"#utility.yul\":26354:26359   */\n      dup2\n        /* \"#utility.yul\":26351:26363   */\n      lt\n        /* \"#utility.yul\":26341:26381   */\n      tag_636\n      jumpi\n        /* \"#utility.yul\":26377:26378   */\n      0x00\n        /* \"#utility.yul\":26374:26375   */\n      0x00\n        /* \"#utility.yul\":26367:26379   */\n      revert\n        /* \"#utility.yul\":26341:26381   */\n    tag_636:\n        /* \"#utility.yul\":26275:26387   */\n      pop\n      jump\t// out\n        /* \"#utility.yul\":26393:26562   */\n    tag_377:\n        /* \"#utility.yul\":26463:26468   */\n      0x00\n        /* \"#utility.yul\":26494:26500   */\n      dup2\n        /* \"#utility.yul\":26488:26501   */\n      mload\n        /* \"#utility.yul\":26479:26501   */\n      swap1\n      pop\n        /* \"#utility.yul\":26510:26556   */\n      tag_638\n        /* \"#utility.yul\":26550:26555   */\n      dup2\n        /* \"#utility.yul\":26510:26556   */\n      tag_376\n      jump\t// in\n    tag_638:\n        /* \"#utility.yul\":26393:26562   */\n      swap3\n      swap2\n      pop\n      pop\n      jump\t// out\n        /* \"#utility.yul\":26600:27959   */\n    tag_378:\n        /* \"#utility.yul\":26695:26700   */\n      0x00\n        /* \"#utility.yul\":26739:26743   */\n      0xc0\n        /* \"#utility.yul\":26727:26736   */\n      dup3\n        /* \"#utility.yul\":26722:26725   */\n      dup5\n        /* \"#utility.yul\":26718:26737   */\n      sub\n        /* \"#utility.yul\":26714:26744   */\n      slt\n        /* \"#utility.yul\":26711:26828   */\n      iszero\n      tag_640\n      jumpi\n        /* \"#utility.yul\":26747:26826   */\n      tag_641\n      tag_362\n      jump\t// in\n    tag_641:\n        /* \"#utility.yul\":26711:26828   */\n    tag_640:\n        /* \"#utility.yul\":26846:26867   */\n      tag_642\n        /* \"#utility.yul\":26862:26866   */\n      0xc0\n        /* \"#utility.yul\":26846:26867   */\n      tag_364\n      jump\t// in\n    tag_642:\n        /* \"#utility.yul\":26837:26867   */\n      swap1\n      pop\n        /* \"#utility.yul\":26930:26931   */\n      0x00\n        /* \"#utility.yul\":26970:27043   */\n      tag_643\n        /* \"#utility.yul\":27039:27042   */\n      dup5\n        /* \"#utility.yul\":27030:27036   */\n      dup3\n        /* \"#utility.yul\":27019:27028   */\n      dup6\n        /* \"#utility.yul\":27015:27037   */\n      add\n        /* \"#utility.yul\":26970:27043   */\n      tag_377\n      jump\t// in\n    tag_643:\n        /* \"#utility.yul\":26963:26967   */\n      0x00\n        /* \"#utility.yul\":26956:26961   */\n      dup4\n        /* \"#utility.yul\":26952:26968   */\n      add\n        /* \"#utility.yul\":26945:27044   */\n      mstore\n        /* \"#utility.yul\":26877:27055   */\n      pop\n        /* \"#utility.yul\":27114:27116   */\n      0x20\n        /* \"#utility.yul\":27155:27215   */\n      tag_644\n        /* \"#utility.yul\":27211:27214   */\n      dup5\n        /* \"#utility.yul\":27202:27208   */\n      dup3\n        /* \"#utility.yul\":27191:27200   */\n      dup6\n        /* \"#utility.yul\":27187:27209   */\n      add\n        /* \"#utility.yul\":27155:27215   */\n      tag_360\n      jump\t// in\n    tag_644:\n        /* \"#utility.yul\":27148:27152   */\n      0x20\n        /* \"#utility.yul\":27141:27146   */\n      dup4\n        /* \"#utility.yul\":27137:27153   */\n      add\n        /* \"#utility.yul\":27130:27216   */\n      mstore\n        /* \"#utility.yul\":27065:27227   */\n      pop\n        /* \"#utility.yul\":27295:27297   */\n      0x40\n        /* \"#utility.yul\":27336:27396   */\n      tag_645\n        /* \"#utility.yul\":27392:27395   */\n      dup5\n        /* \"#utility.yul\":27383:27389   */\n      dup3\n        /* \"#utility.yul\":27372:27381   */\n      dup6\n        /* \"#utility.yul\":27368:27390   */\n      add\n        /* \"#utility.yul\":27336:27396   */\n      tag_360\n      jump\t// in\n    tag_645:\n        /* \"#utility.yul\":27329:27333   */\n      0x40\n        /* \"#utility.yul\":27322:27327   */\n      dup4\n        /* \"#utility.yul\":27318:27334   */\n      add\n        /* \"#utility.yul\":27311:27397   */\n      mstore\n        /* \"#utility.yul\":27237:27408   */\n      pop\n        /* \"#utility.yul\":27476:27478   */\n      0x60\n        /* \"#utility.yul\":27517:27577   */\n      tag_646\n        /* \"#utility.yul\":27573:27576   */\n      dup5\n        /* \"#utility.yul\":27564:27570   */\n      dup3\n        /* \"#utility.yul\":27553:27562   */\n      dup6\n        /* \"#utility.yul\":27549:27571   */\n      add\n        /* \"#utility.yul\":27517:27577   */\n      tag_360\n      jump\t// in\n    tag_646:\n        /* \"#utility.yul\":27510:27514   */\n      0x60\n        /* \"#utility.yul\":27503:27508   */\n      dup4\n        /* \"#utility.yul\":27499:27515   */\n      add\n        /* \"#utility.yul\":27492:27578   */\n      mstore\n        /* \"#utility.yul\":27418:27589   */\n      pop\n        /* \"#utility.yul\":27658:27661   */\n      0x80\n        /* \"#utility.yul\":27700:27760   */\n      tag_647\n        /* \"#utility.yul\":27756:27759   */\n      dup5\n        /* \"#utility.yul\":27747:27753   */\n      dup3\n        /* \"#utility.yul\":27736:27745   */\n      dup6\n        /* \"#utility.yul\":27732:27754   */\n      add\n        /* \"#utility.yul\":27700:27760   */\n      tag_360\n      jump\t// in\n    tag_647:\n        /* \"#utility.yul\":27693:27697   */\n      0x80\n        /* \"#utility.yul\":27686:27691   */\n      dup4\n        /* \"#utility.yul\":27682:27698   */\n      add\n        /* \"#utility.yul\":27675:27761   */\n      mstore\n        /* \"#utility.yul\":27599:27772   */\n      pop\n        /* \"#utility.yul\":27838:27841   */\n      0xa0\n        /* \"#utility.yul\":27880:27940   */\n      tag_648\n        /* \"#utility.yul\":27936:27939   */\n      dup5\n        /* \"#utility.yul\":27927:27933   */\n      dup3\n        /* \"#utility.yul\":27916:27925   */\n      dup6\n        /* \"#utility.yul\":27912:27934   */\n      add\n        /* \"#utility.yul\":27880:27940   */\n      tag_360\n      jump\t// in\n    tag_648:\n        /* \"#utility.yul\":27873:27877   */\n      0xa0\n        /* \"#utility.yul\":27866:27871   */\n      dup4\n        /* \"#utility.yul\":27862:27878   */\n      add\n        /* \"#utility.yul\":27855:27941   */\n      mstore\n        /* \"#utility.yul\":27782:27952   */\n      pop\n        /* \"#utility.yul\":26600:27959   */\n      swap3\n      swap2\n      pop\n      pop\n      jump\t// out\n        /* \"#utility.yul\":27989:28624   */\n    tag_379:\n        /* \"#utility.yul\":28076:28081   */\n      0x00\n        /* \"#utility.yul\":28120:28124   */\n      0x40\n        /* \"#utility.yul\":28108:28117   */\n      dup3\n        /* \"#utility.yul\":28103:28106   */\n      dup5\n        /* \"#utility.yul\":28099:28118   */\n      sub\n        /* \"#utility.yul\":28095:28125   */\n      slt\n        /* \"#utility.yul\":28092:28209   */\n      iszero\n      tag_650\n      jumpi\n        /* \"#utility.yul\":28128:28207   */\n      tag_651\n      tag_362\n      jump\t// in\n    tag_651:\n        /* \"#utility.yul\":28092:28209   */\n    tag_650:\n        /* \"#utility.yul\":28227:28248   */\n      tag_652\n        /* \"#utility.yul\":28243:28247   */\n      0x40\n        /* \"#utility.yul\":28227:28248   */\n      tag_364\n      jump\t// in\n    tag_652:\n        /* \"#utility.yul\":28218:28248   */\n      swap1\n      pop\n        /* \"#utility.yul\":28320:28321   */\n      0x00\n        /* \"#utility.yul\":28360:28420   */\n      tag_653\n        /* \"#utility.yul\":28416:28419   */\n      dup5\n        /* \"#utility.yul\":28407:28413   */\n      dup3\n        /* \"#utility.yul\":28396:28405   */\n      dup6\n        /* \"#utility.yul\":28392:28414   */\n      add\n        /* \"#utility.yul\":28360:28420   */\n      tag_360\n      jump\t// in\n    tag_653:\n        /* \"#utility.yul\":28353:28357   */\n      0x00\n        /* \"#utility.yul\":28346:28351   */\n      dup4\n        /* \"#utility.yul\":28342:28358   */\n      add\n        /* \"#utility.yul\":28335:28421   */\n      mstore\n        /* \"#utility.yul\":28258:28432   */\n      pop\n        /* \"#utility.yul\":28504:28506   */\n      0x20\n        /* \"#utility.yul\":28545:28605   */\n      tag_654\n        /* \"#utility.yul\":28601:28604   */\n      dup5\n        /* \"#utility.yul\":28592:28598   */\n      dup3\n        /* \"#utility.yul\":28581:28590   */\n      dup6\n        /* \"#utility.yul\":28577:28599   */\n      add\n        /* \"#utility.yul\":28545:28605   */\n      tag_360\n      jump\t// in\n    tag_654:\n        /* \"#utility.yul\":28538:28542   */\n      0x20\n        /* \"#utility.yul\":28531:28536   */\n      dup4\n        /* \"#utility.yul\":28527:28543   */\n      add\n        /* \"#utility.yul\":28520:28606   */\n      mstore\n        /* \"#utility.yul\":28442:28617   */\n      pop\n        /* \"#utility.yul\":27989:28624   */\n      swap3\n      swap2\n      pop\n      pop\n      jump\t// out\n        /* \"#utility.yul\":28654:31374   */\n    tag_380:\n        /* \"#utility.yul\":28741:28746   */\n      0x00\n        /* \"#utility.yul\":28785:28791   */\n      0x0300\n        /* \"#utility.yul\":28773:28782   */\n      dup3\n        /* \"#utility.yul\":28768:28771   */\n      dup5\n        /* \"#utility.yul\":28764:28783   */\n      sub\n        /* \"#utility.yul\":28760:28792   */\n      slt\n        /* \"#utility.yul\":28757:28876   */\n      iszero\n      tag_656\n      jumpi\n        /* \"#utility.yul\":28795:28874   */\n      tag_657\n      tag_362\n      jump\t// in\n    tag_657:\n        /* \"#utility.yul\":28757:28876   */\n    tag_656:\n        /* \"#utility.yul\":28894:28917   */\n      tag_658\n        /* \"#utility.yul\":28910:28916   */\n      0x01a0\n        /* \"#utility.yul\":28894:28917   */\n      tag_364\n      jump\t// in\n    tag_658:\n        /* \"#utility.yul\":28885:28917   */\n      swap1\n      pop\n        /* \"#utility.yul\":28974:28975   */\n      0x00\n        /* \"#utility.yul\":29014:29074   */\n      tag_659\n        /* \"#utility.yul\":29070:29073   */\n      dup5\n        /* \"#utility.yul\":29061:29067   */\n      dup3\n        /* \"#utility.yul\":29050:29059   */\n      dup6\n        /* \"#utility.yul\":29046:29068   */\n      add\n        /* \"#utility.yul\":29014:29074   */\n      tag_360\n      jump\t// in\n    tag_659:\n        /* \"#utility.yul\":29007:29011   */\n      0x00\n        /* \"#utility.yul\":29000:29005   */\n      dup4\n        /* \"#utility.yul\":28996:29012   */\n      add\n        /* \"#utility.yul\":28989:29075   */\n      mstore\n        /* \"#utility.yul\":28927:29086   */\n      pop\n        /* \"#utility.yul\":29149:29151   */\n      0x20\n        /* \"#utility.yul\":29190:29250   */\n      tag_660\n        /* \"#utility.yul\":29246:29249   */\n      dup5\n        /* \"#utility.yul\":29237:29243   */\n      dup3\n        /* \"#utility.yul\":29226:29235   */\n      dup6\n        /* \"#utility.yul\":29222:29244   */\n      add\n        /* \"#utility.yul\":29190:29250   */\n      tag_350\n      jump\t// in\n    tag_660:\n        /* \"#utility.yul\":29183:29187   */\n      0x20\n        /* \"#utility.yul\":29176:29181   */\n      dup4\n        /* \"#utility.yul\":29172:29188   */\n      add\n        /* \"#utility.yul\":29165:29251   */\n      mstore\n        /* \"#utility.yul\":29096:29262   */\n      pop\n        /* \"#utility.yul\":29322:29324   */\n      0x40\n        /* \"#utility.yul\":29363:29423   */\n      tag_661\n        /* \"#utility.yul\":29419:29422   */\n      dup5\n        /* \"#utility.yul\":29410:29416   */\n      dup3\n        /* \"#utility.yul\":29399:29408   */\n      dup6\n        /* \"#utility.yul\":29395:29417   */\n      add\n        /* \"#utility.yul\":29363:29423   */\n      tag_350\n      jump\t// in\n    tag_661:\n        /* \"#utility.yul\":29356:29360   */\n      0x40\n        /* \"#utility.yul\":29349:29354   */\n      dup4\n        /* \"#utility.yul\":29345:29361   */\n      add\n        /* \"#utility.yul\":29338:29424   */\n      mstore\n        /* \"#utility.yul\":29272:29435   */\n      pop\n        /* \"#utility.yul\":29507:29509   */\n      0x60\n        /* \"#utility.yul\":29548:29608   */\n      tag_662\n        /* \"#utility.yul\":29604:29607   */\n      dup5\n        /* \"#utility.yul\":29595:29601   */\n      dup3\n        /* \"#utility.yul\":29584:29593   */\n      dup6\n        /* \"#utility.yul\":29580:29602   */\n      add\n        /* \"#utility.yul\":29548:29608   */\n      tag_360\n      jump\t// in\n    tag_662:\n        /* \"#utility.yul\":29541:29545   */\n      0x60\n        /* \"#utility.yul\":29534:29539   */\n      dup4\n        /* \"#utility.yul\":29530:29546   */\n      add\n        /* \"#utility.yul\":29523:29609   */\n      mstore\n        /* \"#utility.yul\":29445:29620   */\n      pop\n        /* \"#utility.yul\":29694:29697   */\n      0x80\n        /* \"#utility.yul\":29736:29796   */\n      tag_663\n        /* \"#utility.yul\":29792:29795   */\n      dup5\n        /* \"#utility.yul\":29783:29789   */\n      dup3\n        /* \"#utility.yul\":29772:29781   */\n      dup6\n        /* \"#utility.yul\":29768:29790   */\n      add\n        /* \"#utility.yul\":29736:29796   */\n      tag_360\n      jump\t// in\n    tag_663:\n        /* \"#utility.yul\":29729:29733   */\n      0x80\n        /* \"#utility.yul\":29722:29727   */\n      dup4\n        /* \"#utility.yul\":29718:29734   */\n      add\n        /* \"#utility.yul\":29711:29797   */\n      mstore\n        /* \"#utility.yul\":29630:29808   */\n      pop\n        /* \"#utility.yul\":29871:29874   */\n      0xa0\n        /* \"#utility.yul\":29913:29973   */\n      tag_664\n        /* \"#utility.yul\":29969:29972   */\n      dup5\n        /* \"#utility.yul\":29960:29966   */\n      dup3\n        /* \"#utility.yul\":29949:29958   */\n      dup6\n        /* \"#utility.yul\":29945:29967   */\n      add\n        /* \"#utility.yul\":29913:29973   */\n      tag_360\n      jump\t// in\n    tag_664:\n        /* \"#utility.yul\":29906:29910   */\n      0xa0\n        /* \"#utility.yul\":29899:29904   */\n      dup4\n        /* \"#utility.yul\":29895:29911   */\n      add\n        /* \"#utility.yul\":29888:29974   */\n      mstore\n        /* \"#utility.yul\":29818:29985   */\n      pop\n        /* \"#utility.yul\":30048:30051   */\n      0xc0\n        /* \"#utility.yul\":30090:30163   */\n      tag_665\n        /* \"#utility.yul\":30159:30162   */\n      dup5\n        /* \"#utility.yul\":30150:30156   */\n      dup3\n        /* \"#utility.yul\":30139:30148   */\n      dup6\n        /* \"#utility.yul\":30135:30157   */\n      add\n        /* \"#utility.yul\":30090:30163   */\n      tag_372\n      jump\t// in\n    tag_665:\n        /* \"#utility.yul\":30083:30087   */\n      0xc0\n        /* \"#utility.yul\":30076:30081   */\n      dup4\n        /* \"#utility.yul\":30072:30088   */\n      add\n        /* \"#utility.yul\":30065:30164   */\n      mstore\n        /* \"#utility.yul\":29995:30175   */\n      pop\n        /* \"#utility.yul\":30250:30253   */\n      0xe0\n        /* \"#utility.yul\":30292:30387   */\n      tag_666\n        /* \"#utility.yul\":30383:30386   */\n      dup5\n        /* \"#utility.yul\":30374:30380   */\n      dup3\n        /* \"#utility.yul\":30363:30372   */\n      dup6\n        /* \"#utility.yul\":30359:30381   */\n      add\n        /* \"#utility.yul\":30292:30387   */\n      tag_378\n      jump\t// in\n    tag_666:\n        /* \"#utility.yul\":30285:30289   */\n      0xe0\n        /* \"#utility.yul\":30278:30283   */\n      dup4\n        /* \"#utility.yul\":30274:30290   */\n      add\n        /* \"#utility.yul\":30267:30388   */\n      mstore\n        /* \"#utility.yul\":30185:30399   */\n      pop\n        /* \"#utility.yul\":30470:30473   */\n      0x01a0\n        /* \"#utility.yul\":30514:30609   */\n      tag_667\n        /* \"#utility.yul\":30605:30608   */\n      dup5\n        /* \"#utility.yul\":30596:30602   */\n      dup3\n        /* \"#utility.yul\":30585:30594   */\n      dup6\n        /* \"#utility.yul\":30581:30603   */\n      add\n        /* \"#utility.yul\":30514:30609   */\n      tag_378\n      jump\t// in\n    tag_667:\n        /* \"#utility.yul\":30505:30511   */\n      0x0100\n        /* \"#utility.yul\":30498:30503   */\n      dup4\n        /* \"#utility.yul\":30494:30512   */\n      add\n        /* \"#utility.yul\":30487:30610   */\n      mstore\n        /* \"#utility.yul\":30409:30621   */\n      pop\n        /* \"#utility.yul\":30685:30688   */\n      0x0260\n        /* \"#utility.yul\":30729:30816   */\n      tag_668\n        /* \"#utility.yul\":30812:30815   */\n      dup5\n        /* \"#utility.yul\":30803:30809   */\n      dup3\n        /* \"#utility.yul\":30792:30801   */\n      dup6\n        /* \"#utility.yul\":30788:30810   */\n      add\n        /* \"#utility.yul\":30729:30816   */\n      tag_379\n      jump\t// in\n    tag_668:\n        /* \"#utility.yul\":30720:30726   */\n      0x0120\n        /* \"#utility.yul\":30713:30718   */\n      dup4\n        /* \"#utility.yul\":30709:30727   */\n      add\n        /* \"#utility.yul\":30702:30817   */\n      mstore\n        /* \"#utility.yul\":30631:30828   */\n      pop\n        /* \"#utility.yul\":30894:30897   */\n      0x02a0\n        /* \"#utility.yul\":30938:30998   */\n      tag_669\n        /* \"#utility.yul\":30994:30997   */\n      dup5\n        /* \"#utility.yul\":30985:30991   */\n      dup3\n        /* \"#utility.yul\":30974:30983   */\n      dup6\n        /* \"#utility.yul\":30970:30992   */\n      add\n        /* \"#utility.yul\":30938:30998   */\n      tag_360\n      jump\t// in\n    tag_669:\n        /* \"#utility.yul\":30929:30935   */\n      0x0140\n        /* \"#utility.yul\":30922:30927   */\n      dup4\n        /* \"#utility.yul\":30918:30936   */\n      add\n        /* \"#utility.yul\":30911:30999   */\n      mstore\n        /* \"#utility.yul\":30838:31010   */\n      pop\n        /* \"#utility.yul\":31075:31078   */\n      0x02c0\n        /* \"#utility.yul\":31119:31179   */\n      tag_670\n        /* \"#utility.yul\":31175:31178   */\n      dup5\n        /* \"#utility.yul\":31166:31172   */\n      dup3\n        /* \"#utility.yul\":31155:31164   */\n      dup6\n        /* \"#utility.yul\":31151:31173   */\n      add\n        /* \"#utility.yul\":31119:31179   */\n      tag_360\n      jump\t// in\n    tag_670:\n        /* \"#utility.yul\":31110:31116   */\n      0x0160\n        /* \"#utility.yul\":31103:31108   */\n      dup4\n        /* \"#utility.yul\":31099:31117   */\n      add\n        /* \"#utility.yul\":31092:31180   */\n      mstore\n        /* \"#utility.yul\":31020:31191   */\n      pop\n        /* \"#utility.yul\":31251:31254   */\n      0x02e0\n        /* \"#utility.yul\":31295:31355   */\n      tag_671\n        /* \"#utility.yul\":31351:31354   */\n      dup5\n        /* \"#utility.yul\":31342:31348   */\n      dup3\n        /* \"#utility.yul\":31331:31340   */\n      dup6\n        /* \"#utility.yul\":31327:31349   */\n      add\n        /* \"#utility.yul\":31295:31355   */\n      tag_360\n      jump\t// in\n    tag_671:\n        /* \"#utility.yul\":31286:31292   */\n      0x0180\n        /* \"#utility.yul\":31279:31284   */\n      dup4\n        /* \"#utility.yul\":31275:31293   */\n      add\n        /* \"#utility.yul\":31268:31356   */\n      mstore\n        /* \"#utility.yul\":31201:31367   */\n      pop\n        /* \"#utility.yul\":28654:31374   */\n      swap3\n      swap2\n      pop\n      pop\n      jump\t// out\n        /* \"#utility.yul\":31403:32928   */\n    tag_381:\n        /* \"#utility.yul\":31489:31494   */\n      0x00\n        /* \"#utility.yul\":31533:31539   */\n      0x03c0\n        /* \"#utility.yul\":31521:31530   */\n      dup3\n        /* \"#utility.yul\":31516:31519   */\n      dup5\n        /* \"#utility.yul\":31512:31531   */\n      sub\n        /* \"#utility.yul\":31508:31540   */\n      slt\n        /* \"#utility.yul\":31505:31624   */\n      iszero\n      tag_673\n      jumpi\n        /* \"#utility.yul\":31543:31622   */\n      tag_674\n      tag_362\n      jump\t// in\n    tag_674:\n        /* \"#utility.yul\":31505:31624   */\n    tag_673:\n        /* \"#utility.yul\":31642:31663   */\n      tag_675\n        /* \"#utility.yul\":31658:31662   */\n      0xe0\n        /* \"#utility.yul\":31642:31663   */\n      tag_364\n      jump\t// in\n    tag_675:\n        /* \"#utility.yul\":31633:31663   */\n      swap1\n      pop\n        /* \"#utility.yul\":31720:31721   */\n      0x00\n        /* \"#utility.yul\":31760:31820   */\n      tag_676\n        /* \"#utility.yul\":31816:31819   */\n      dup5\n        /* \"#utility.yul\":31807:31813   */\n      dup3\n        /* \"#utility.yul\":31796:31805   */\n      dup6\n        /* \"#utility.yul\":31792:31814   */\n      add\n        /* \"#utility.yul\":31760:31820   */\n      tag_360\n      jump\t// in\n    tag_676:\n        /* \"#utility.yul\":31753:31757   */\n      0x00\n        /* \"#utility.yul\":31746:31751   */\n      dup4\n        /* \"#utility.yul\":31742:31758   */\n      add\n        /* \"#utility.yul\":31735:31821   */\n      mstore\n        /* \"#utility.yul\":31673:31832   */\n      pop\n        /* \"#utility.yul\":31894:31896   */\n      0x20\n        /* \"#utility.yul\":31935:31995   */\n      tag_677\n        /* \"#utility.yul\":31991:31994   */\n      dup5\n        /* \"#utility.yul\":31982:31988   */\n      dup3\n        /* \"#utility.yul\":31971:31980   */\n      dup6\n        /* \"#utility.yul\":31967:31989   */\n      add\n        /* \"#utility.yul\":31935:31995   */\n      tag_350\n      jump\t// in\n    tag_677:\n        /* \"#utility.yul\":31928:31932   */\n      0x20\n        /* \"#utility.yul\":31921:31926   */\n      dup4\n        /* \"#utility.yul\":31917:31933   */\n      add\n        /* \"#utility.yul\":31910:31996   */\n      mstore\n        /* \"#utility.yul\":31842:32007   */\n      pop\n        /* \"#utility.yul\":32067:32069   */\n      0x40\n        /* \"#utility.yul\":32108:32168   */\n      tag_678\n        /* \"#utility.yul\":32164:32167   */\n      dup5\n        /* \"#utility.yul\":32155:32161   */\n      dup3\n        /* \"#utility.yul\":32144:32153   */\n      dup6\n        /* \"#utility.yul\":32140:32162   */\n      add\n        /* \"#utility.yul\":32108:32168   */\n      tag_350\n      jump\t// in\n    tag_678:\n        /* \"#utility.yul\":32101:32105   */\n      0x40\n        /* \"#utility.yul\":32094:32099   */\n      dup4\n        /* \"#utility.yul\":32090:32106   */\n      add\n        /* \"#utility.yul\":32083:32169   */\n      mstore\n        /* \"#utility.yul\":32017:32180   */\n      pop\n        /* \"#utility.yul\":32240:32242   */\n      0x60\n        /* \"#utility.yul\":32281:32341   */\n      tag_679\n        /* \"#utility.yul\":32337:32340   */\n      dup5\n        /* \"#utility.yul\":32328:32334   */\n      dup3\n        /* \"#utility.yul\":32317:32326   */\n      dup6\n        /* \"#utility.yul\":32313:32335   */\n      add\n        /* \"#utility.yul\":32281:32341   */\n      tag_350\n      jump\t// in\n    tag_679:\n        /* \"#utility.yul\":32274:32278   */\n      0x60\n        /* \"#utility.yul\":32267:32272   */\n      dup4\n        /* \"#utility.yul\":32263:32279   */\n      add\n        /* \"#utility.yul\":32256:32342   */\n      mstore\n        /* \"#utility.yul\":32190:32353   */\n      pop\n        /* \"#utility.yul\":32420:32423   */\n      0x80\n        /* \"#utility.yul\":32462:32522   */\n      tag_680\n        /* \"#utility.yul\":32518:32521   */\n      dup5\n        /* \"#utility.yul\":32509:32515   */\n      dup3\n        /* \"#utility.yul\":32498:32507   */\n      dup6\n        /* \"#utility.yul\":32494:32516   */\n      add\n        /* \"#utility.yul\":32462:32522   */\n      tag_360\n      jump\t// in\n    tag_680:\n        /* \"#utility.yul\":32455:32459   */\n      0x80\n        /* \"#utility.yul\":32448:32453   */\n      dup4\n        /* \"#utility.yul\":32444:32460   */\n      add\n        /* \"#utility.yul\":32437:32523   */\n      mstore\n        /* \"#utility.yul\":32363:32534   */\n      pop\n        /* \"#utility.yul\":32604:32607   */\n      0xa0\n        /* \"#utility.yul\":32646:32706   */\n      tag_681\n        /* \"#utility.yul\":32702:32705   */\n      dup5\n        /* \"#utility.yul\":32693:32699   */\n      dup3\n        /* \"#utility.yul\":32682:32691   */\n      dup6\n        /* \"#utility.yul\":32678:32700   */\n      add\n        /* \"#utility.yul\":32646:32706   */\n      tag_360\n      jump\t// in\n    tag_681:\n        /* \"#utility.yul\":32639:32643   */\n      0xa0\n        /* \"#utility.yul\":32632:32637   */\n      dup4\n        /* \"#utility.yul\":32628:32644   */\n      add\n        /* \"#utility.yul\":32621:32707   */\n      mstore\n        /* \"#utility.yul\":32544:32718   */\n      pop\n        /* \"#utility.yul\":32780:32783   */\n      0xc0\n        /* \"#utility.yul\":32822:32909   */\n      tag_682\n        /* \"#utility.yul\":32905:32908   */\n      dup5\n        /* \"#utility.yul\":32896:32902   */\n      dup3\n        /* \"#utility.yul\":32885:32894   */\n      dup6\n        /* \"#utility.yul\":32881:32903   */\n      add\n        /* \"#utility.yul\":32822:32909   */\n      tag_380\n      jump\t// in\n    tag_682:\n        /* \"#utility.yul\":32815:32819   */\n      0xc0\n        /* \"#utility.yul\":32808:32813   */\n      dup4\n        /* \"#utility.yul\":32804:32820   */\n      add\n        /* \"#utility.yul\":32797:32910   */\n      mstore\n        /* \"#utility.yul\":32728:32921   */\n      pop\n        /* \"#utility.yul\":31403:32928   */\n      swap3\n      swap2\n      pop\n      pop\n      jump\t// out\n        /* \"#utility.yul\":32934:33338   */\n    tag_260:\n        /* \"#utility.yul\":33030:33036   */\n      0x00\n        /* \"#utility.yul\":33079:33082   */\n      0x03c0\n        /* \"#utility.yul\":33067:33076   */\n      dup3\n        /* \"#utility.yul\":33058:33065   */\n      dup5\n        /* \"#utility.yul\":33054:33077   */\n      sub\n        /* \"#utility.yul\":33050:33083   */\n      slt\n        /* \"#utility.yul\":33047:33167   */\n      iszero\n      tag_684\n      jumpi\n        /* \"#utility.yul\":33086:33165   */\n      tag_685\n      tag_313\n      jump\t// in\n    tag_685:\n        /* \"#utility.yul\":33047:33167   */\n    tag_684:\n        /* \"#utility.yul\":33206:33207   */\n      0x00\n        /* \"#utility.yul\":33231:33321   */\n      tag_686\n        /* \"#utility.yul\":33313:33320   */\n      dup5\n        /* \"#utility.yul\":33304:33310   */\n      dup3\n        /* \"#utility.yul\":33293:33302   */\n      dup6\n        /* \"#utility.yul\":33289:33311   */\n      add\n        /* \"#utility.yul\":33231:33321   */\n      tag_381\n      jump\t// in\n    tag_686:\n        /* \"#utility.yul\":33221:33321   */\n      swap2\n      pop\n        /* \"#utility.yul\":33177:33331   */\n      pop\n        /* \"#utility.yul\":32934:33338   */\n      swap3\n      swap2\n      pop\n      pop\n      jump\t// out\n        /* \"#utility.yul\":33344:33524   */\n    tag_272:\n        /* \"#utility.yul\":33392:33469   */\n      0x4e487b7100000000000000000000000000000000000000000000000000000000\n        /* \"#utility.yul\":33389:33390   */\n      0x00\n        /* \"#utility.yul\":33382:33470   */\n      mstore\n        /* \"#utility.yul\":33489:33493   */\n      0x32\n        /* \"#utility.yul\":33486:33487   */\n      0x04\n        /* \"#utility.yul\":33479:33494   */\n      mstore\n        /* \"#utility.yul\":33513:33517   */\n      0x24\n        /* \"#utility.yul\":33510:33511   */\n      0x00\n        /* \"#utility.yul\":33503:33518   */\n      revert\n        /* \"#utility.yul\":33530:33647   */\n    tag_382:\n        /* \"#utility.yul\":33614:33616   */\n      0x0a\n        /* \"#utility.yul\":33607:33612   */\n      dup2\n        /* \"#utility.yul\":33604:33617   */\n      lt\n        /* \"#utility.yul\":33594:33641   */\n      tag_689\n      jumpi\n        /* \"#utility.yul\":33621:33639   */\n      tag_690\n      tag_74\n      jump\t// in\n    tag_690:\n        /* \"#utility.yul\":33594:33641   */\n    tag_689:\n        /* \"#utility.yul\":33530:33647   */\n      pop\n      jump\t// out\n        /* \"#utility.yul\":33653:33786   */\n    tag_383:\n        /* \"#utility.yul\":33701:33708   */\n      0x00\n        /* \"#utility.yul\":33730:33735   */\n      dup2\n        /* \"#utility.yul\":33719:33735   */\n      swap1\n      pop\n        /* \"#utility.yul\":33736:33780   */\n      tag_692\n        /* \"#utility.yul\":33774:33779   */\n      dup3\n        /* \"#utility.yul\":33736:33780   */\n      tag_382\n      jump\t// in\n    tag_692:\n        /* \"#utility.yul\":33653:33786   */\n      swap2\n      swap1\n      pop\n      jump\t// out\n        /* \"#utility.yul\":33792:33925   */\n    tag_384:\n        /* \"#utility.yul\":33851:33860   */\n      0x00\n        /* \"#utility.yul\":33884:33919   */\n      tag_694\n        /* \"#utility.yul\":33913:33918   */\n      dup3\n        /* \"#utility.yul\":33884:33919   */\n      tag_383\n      jump\t// in\n    tag_694:\n        /* \"#utility.yul\":33871:33919   */\n      swap1\n      pop\n        /* \"#utility.yul\":33792:33925   */\n      swap2\n      swap1\n      pop\n      jump\t// out\n        /* \"#utility.yul\":33931:34080   */\n    tag_385:\n        /* \"#utility.yul\":34027:34073   */\n      tag_696\n        /* \"#utility.yul\":34067:34072   */\n      dup2\n        /* \"#utility.yul\":34027:34073   */\n      tag_384\n      jump\t// in\n    tag_696:\n        /* \"#utility.yul\":34022:34025   */\n      dup3\n        /* \"#utility.yul\":34015:34074   */\n      mstore\n        /* \"#utility.yul\":33931:34080   */\n      pop\n      pop\n      jump\t// out\n        /* \"#utility.yul\":34086:34203   */\n    tag_386:\n        /* \"#utility.yul\":34171:34172   */\n      0x06\n        /* \"#utility.yul\":34164:34169   */\n      dup2\n        /* \"#utility.yul\":34161:34173   */\n      lt\n        /* \"#utility.yul\":34151:34197   */\n      tag_698\n      jumpi\n        /* \"#utility.yul\":34177:34195   */\n      tag_699\n      tag_74\n      jump\t// in\n    tag_699:\n        /* \"#utility.yul\":34151:34197   */\n    tag_698:\n        /* \"#utility.yul\":34086:34203   */\n      pop\n      jump\t// out\n        /* \"#utility.yul\":34209:34344   */\n    tag_387:\n        /* \"#utility.yul\":34258:34265   */\n      0x00\n        /* \"#utility.yul\":34287:34292   */\n      dup2\n        /* \"#utility.yul\":34276:34292   */\n      swap1\n      pop\n        /* \"#utility.yul\":34293:34338   */\n      tag_701\n        /* \"#utility.yul\":34332:34337   */\n      dup3\n        /* \"#utility.yul\":34293:34338   */\n      tag_386\n      jump\t// in\n    tag_701:\n        /* \"#utility.yul\":34209:34344   */\n      swap2\n      swap1\n      pop\n      jump\t// out\n        /* \"#utility.yul\":34350:34485   */\n    tag_388:\n        /* \"#utility.yul\":34410:34419   */\n      0x00\n        /* \"#utility.yul\":34443:34479   */\n      tag_703\n        /* \"#utility.yul\":34473:34478   */\n      dup3\n        /* \"#utility.yul\":34443:34479   */\n      tag_387\n      jump\t// in\n    tag_703:\n        /* \"#utility.yul\":34430:34479   */\n      swap1\n      pop\n        /* \"#utility.yul\":34350:34485   */\n      swap2\n      swap1\n      pop\n      jump\t// out\n        /* \"#utility.yul\":34491:34642   */\n    tag_389:\n        /* \"#utility.yul\":34588:34635   */\n      tag_705\n        /* \"#utility.yul\":34629:34634   */\n      dup2\n        /* \"#utility.yul\":34588:34635   */\n      tag_388\n      jump\t// in\n    tag_705:\n        /* \"#utility.yul\":34583:34586   */\n      dup3\n        /* \"#utility.yul\":34576:34636   */\n      mstore\n        /* \"#utility.yul\":34491:34642   */\n      pop\n      pop\n      jump\t// out\n        /* \"#utility.yul\":34648:35461   */\n    tag_284:\n        /* \"#utility.yul\":34900:34904   */\n      0x00\n        /* \"#utility.yul\":34938:34941   */\n      0xc0\n        /* \"#utility.yul\":34927:34936   */\n      dup3\n        /* \"#utility.yul\":34923:34942   */\n      add\n        /* \"#utility.yul\":34915:34942   */\n      swap1\n      pop\n        /* \"#utility.yul\":34952:35032   */\n      tag_707\n        /* \"#utility.yul\":35029:35030   */\n      0x00\n        /* \"#utility.yul\":35018:35027   */\n      dup4\n        /* \"#utility.yul\":35014:35031   */\n      add\n        /* \"#utility.yul\":35005:35011   */\n      dup10\n        /* \"#utility.yul\":34952:35032   */\n      tag_385\n      jump\t// in\n    tag_707:\n        /* \"#utility.yul\":35042:35124   */\n      tag_708\n        /* \"#utility.yul\":35120:35122   */\n      0x20\n        /* \"#utility.yul\":35109:35118   */\n      dup4\n        /* \"#utility.yul\":35105:35123   */\n      add\n        /* \"#utility.yul\":35096:35102   */\n      dup9\n        /* \"#utility.yul\":35042:35124   */\n      tag_389\n      jump\t// in\n    tag_708:\n        /* \"#utility.yul\":35134:35206   */\n      tag_709\n        /* \"#utility.yul\":35202:35204   */\n      0x40\n        /* \"#utility.yul\":35191:35200   */\n      dup4\n        /* \"#utility.yul\":35187:35205   */\n      add\n        /* \"#utility.yul\":35178:35184   */\n      dup8\n        /* \"#utility.yul\":35134:35206   */\n      tag_328\n      jump\t// in\n    tag_709:\n        /* \"#utility.yul\":35216:35288   */\n      tag_710\n        /* \"#utility.yul\":35284:35286   */\n      0x60\n        /* \"#utility.yul\":35273:35282   */\n      dup4\n        /* \"#utility.yul\":35269:35287   */\n      add\n        /* \"#utility.yul\":35260:35266   */\n      dup7\n        /* \"#utility.yul\":35216:35288   */\n      tag_355\n      jump\t// in\n    tag_710:\n        /* \"#utility.yul\":35298:35371   */\n      tag_711\n        /* \"#utility.yul\":35366:35369   */\n      0x80\n        /* \"#utility.yul\":35355:35364   */\n      dup4\n        /* \"#utility.yul\":35351:35370   */\n      add\n        /* \"#utility.yul\":35342:35348   */\n      dup6\n        /* \"#utility.yul\":35298:35371   */\n      tag_328\n      jump\t// in\n    tag_711:\n        /* \"#utility.yul\":35381:35454   */\n      tag_712\n        /* \"#utility.yul\":35449:35452   */\n      0xa0\n        /* \"#utility.yul\":35438:35447   */\n      dup4\n        /* \"#utility.yul\":35434:35453   */\n      add\n        /* \"#utility.yul\":35425:35431   */\n      dup5\n        /* \"#utility.yul\":35381:35454   */\n      tag_355\n      jump\t// in\n    tag_712:\n        /* \"#utility.yul\":34648:35461   */\n      swap8\n      swap7\n      pop\n      pop\n      pop\n      pop\n      pop\n      pop\n      pop\n      jump\t// out\n        /* \"#utility.yul\":35467:35700   */\n    tag_290:\n        /* \"#utility.yul\":35506:35509   */\n      0x00\n        /* \"#utility.yul\":35529:35553   */\n      tag_714\n        /* \"#utility.yul\":35547:35552   */\n      dup3\n        /* \"#utility.yul\":35529:35553   */\n      tag_315\n      jump\t// in\n    tag_714:\n        /* \"#utility.yul\":35520:35553   */\n      swap2\n      pop\n        /* \"#utility.yul\":35575:35641   */\n      0xffffffffffffffffffffffffffffffffffffffffffffffffffffffffffffffff\n        /* \"#utility.yul\":35568:35573   */\n      dup3\n        /* \"#utility.yul\":35565:35642   */\n      sub\n        /* \"#utility.yul\":35562:35665   */\n      tag_715\n      jumpi\n        /* \"#utility.yul\":35645:35663   */\n      tag_716\n      tag_361\n      jump\t// in\n    tag_716:\n        /* \"#utility.yul\":35562:35665   */\n    tag_715:\n        /* \"#utility.yul\":35692:35693   */\n      0x01\n        /* \"#utility.yul\":35685:35690   */\n      dup3\n        /* \"#utility.yul\":35681:35694   */\n      add\n        /* \"#utility.yul\":35674:35694   */\n      swap1\n      pop\n        /* \"#utility.yul\":35467:35700   */\n      swap2\n      swap1\n      pop\n      jump\t// out\n\n    auxdata: 0xa2646970667358221220a42c01efe97f845014ba704dd46372ecb1bcc2c39afe5198e08072df47e9a89464736f6c634300081e0033\n}\n",
				"bytecode": {
					"linkReferences": {},
					"object": "60a060405234801561000f575f5ffd5b506040516134583803806134588339818101604052810190610031919061010a565b805f5f6101000a81548173ffffffffffffffffffffffffffffffffffffffff021916908373ffffffffffffffffffffffffffffffffffffffff16021790555060805173ffffffffffffffffffffffffffffffffffffffff1660808173ffffffffffffffffffffffffffffffffffffffff168152505050610135565b5f5ffd5b5f73ffffffffffffffffffffffffffffffffffffffff82169050919050565b5f6100d9826100b0565b9050919050565b6100e9816100cf565b81146100f3575f5ffd5b50565b5f81519050610104816100e0565b92915050565b5f6020828403121561011f5761011e6100ac565b5b5f61012c848285016100f6565b91505092915050565b6080516132fd61015b5f395f81816108ed015281816115cd0152611f4601526132fd5ff3fe608060405234801561000f575f5ffd5b50600436106100b1575f3560e01c80638a9dda051161006f5780638a9dda051461019f5780638ca17995146101bd578063cde4c10c146101ed578063d87aa6431461020b578063e3e803c81461023c578063eb02c3011461026c576100b1565b806229e794146100b55780630d8e6e2c146100e557806317d7de7c1461010357806339131906146101215780634ca857da1461013f5780637ad0ab2d1461016f575b5f5ffd5b6100cf60048036038101906100ca9190612288565b61029c565b6040516100dc9190612442565b60405180910390f35b6100ed6103c0565b6040516100fa919061246b565b60405180910390f35b61010b6103c8565b60405161011891906124f4565b60405180910390f35b610129610405565b60405161013691906125bc565b60405180910390f35b61015960048036038101906101549190612288565b61045b565b60405161016691906125f6565b60405180910390f35b61018960048036038101906101849190612639565b61047b565b60405161019691906125f6565b60405180910390f35b6101a76104cd565b6040516101b4919061270c565b60405180910390f35b6101d760048036038101906101d29190612288565b610558565b6040516101e4919061246b565b60405180910390f35b6101f5610e2a565b60405161020291906125f6565b60405180910390f35b6102256004803603810190610220919061272c565b611077565b60405161023392919061276a565b60405180910390f35b61025660048036038101906102519190612288565b611978565b60405161026391906125bc565b60405180910390f35b61028660048036038101906102819190612288565b6119df565b6040516102939190612442565b60405180910390f35b6102a4611fef565b60055f60065f8581526020019081526020015f205481526020019081526020015f20604051806101000160405290815f8201548152602001600182015f9054906101000a900460ff1660018111156102ff576102fe6122c2565b5b6001811115610311576103106122c2565b5b81526020016002820154815260200160038201548152602001600482015f9054906101000a900473ffffffffffffffffffffffffffffffffffffffff1673ffffffffffffffffffffffffffffffffffffffff1673ffffffffffffffffffffffffffffffffffffffff16815260200160058201548152602001600682016040518060400160405290815f820154815260200160018201548152505081526020016008820154815250509050919050565b5f6001905090565b60606040518060400160405280601481526020017f52455345525645445f4d505f5452454153555259000000000000000000000000815250905090565b6060600480548060200260200160405190810160405280929190818152602001828054801561045157602002820191905f5260205f20905b81548152602001906001019080831161043d575b5050505050905090565b5f5f60085f8481526020019081526020015f208054905014159050919050565b5f60025f8373ffffffffffffffffffffffffffffffffffffffff1673ffffffffffffffffffffffffffffffffffffffff1681526020019081526020015f205f9054906101000a900460ff169050919050565b6060600180548060200260200160405190810160405280929190818152602001828054801561054e57602002820191905f5260205f20905b815f9054906101000a900473ffffffffffffffffffffffffffffffffffffffff1673ffffffffffffffffffffffffffffffffffffffff1681526020019060010190808311610505575b5050505050905090565b5f5f5f9054906101000a900473ffffffffffffffffffffffffffffffffffffffff1673ffffffffffffffffffffffffffffffffffffffff1663bf40fac16040518060400160405280601581526020017f52455345525645445f424f4e445f4d414e4147455200000000000000000000008152506040518263ffffffff1660e01b81526004016105e791906124f4565b602060405180830381865afa158015610602573d5f5f3e3d5ffd5b505050506040513d601f19601f8201168201806040525081019061062691906127a5565b73ffffffffffffffffffffffffffffffffffffffff1663ce8620015f336040518363ffffffff1660e01b8152600401610660929190612825565b602060405180830381865afa15801561067b573d5f5f3e3d5ffd5b505050506040513d601f19601f8201168201806040525081019061069f9190612876565b6106de576040517f08c379a00000000000000000000000000000000000000000000000000000000081526004016106d5906128eb565b60405180910390fd5b600160055f8481526020019081526020015f206001015f6101000a81548160ff02191690836001811115610715576107146122c2565b5b02179055505f5f5f9054906101000a900473ffffffffffffffffffffffffffffffffffffffff1673ffffffffffffffffffffffffffffffffffffffff1663bf40fac16040518060400160405280601a81526020017f52455345525645445f4d505f4d41524b45545f4d414e414745520000000000008152506040518263ffffffff1660e01b81526004016107a991906124f4565b602060405180830381865afa1580156107c4573d5f5f3e3d5ffd5b505050506040513d601f19601f820116820180604052508101906107e891906127a5565b90505f5f8273ffffffffffffffffffffffffffffffffffffffff16632d6ce61d60055f8881526020019081526020015f2060080154876040518363ffffffff1660e01b815260040161083b92919061276a565b60408051808303815f875af1158015610856573d5f5f3e3d5ffd5b505050506040513d601f19601f8201168201806040525081019061087a919061291d565b9150915060075f8681526020019081526020015f2081908060018154018082558091505060019003905f5260205f20015f909190919091505561091160055f8781526020019081526020015f206004015f9054906101000a900473ffffffffffffffffffffffffffffffffffffffff16837f0000000000000000000000000000000000000000000000000000000000000000611af2565b505f61093060055f8881526020019081526020015f2060020154611c27565b90505f816060015190505f60055f8981526020019081526020015f20600301548561095b9190612988565b905073eeeeeeeeeeeeeeeeeeeeeeeeeeeeeeeeeeeeeeee73ffffffffffffffffffffffffffffffffffffffff1660055f8a81526020019081526020015f206004015f9054906101000a900473ffffffffffffffffffffffffffffffffffffffff1673ffffffffffffffffffffffffffffffffffffffff1603610a70578173ffffffffffffffffffffffffffffffffffffffff16639f08c755868a60055f8d81526020019081526020015f2060030154856040518563ffffffff1660e01b8152600401610a29939291906129bb565b60206040518083038185885af1158015610a45573d5f5f3e3d5ffd5b50505050506040513d601f19601f82011682018060405250810190610a6a91906129f0565b50610bb7565b5f60055f8a81526020019081526020015f206004015f9054906101000a900473ffffffffffffffffffffffffffffffffffffffff1690508073ffffffffffffffffffffffffffffffffffffffff1663095ea7b384886040518363ffffffff1660e01b8152600401610ae2929190612a1b565b6020604051808303815f875af1158015610afe573d5f5f3e3d5ffd5b505050506040513d601f19601f82011682018060405250810190610b229190612876565b508273ffffffffffffffffffffffffffffffffffffffff16639f08c7558a60055f8d81526020019081526020015f2060030154856040518463ffffffff1660e01b8152600401610b74939291906129bb565b6020604051808303815f875af1158015610b90573d5f5f3e3d5ffd5b505050506040513d601f19601f82011682018060405250810190610bb491906129f0565b50505b5f5f5f9054906101000a900473ffffffffffffffffffffffffffffffffffffffff1673ffffffffffffffffffffffffffffffffffffffff1663bf40fac16040518060400160405280601581526020017f52455345525645445f424f4e445f4d414e4147455200000000000000000000008152506040518263ffffffff1660e01b8152600401610c4691906124f4565b602060405180830381865afa158015610c61573d5f5f3e3d5ffd5b505050506040513d601f19601f82011682018060405250810190610c8591906127a5565b73ffffffffffffffffffffffffffffffffffffffff1663012fe7945f336040518363ffffffff1660e01b8152600401610cbf929190612825565b60c060405180830381865afa158015610cda573d5f5f3e3d5ffd5b505050506040513d601f19601f82011682018060405250810190610cfe9190612b7e565b9050610d6a60085f835f015181526020019081526020015f20805480602002602001604051908101604052809291908181526020018280548015610d5f57602002820191905f5260205f20905b815481526020019060010190808311610d4b575b50505050508a611d7b565b60085f835f015181526020019081526020015f209080519060200190610d9192919061205b565b50610de760065f60055f8d81526020019081526020015f20600201548960055f8f81526020019081526020015f206004015f9054906101000a900473ffffffffffffffffffffffffffffffffffffffff16611e58565b975060075f8a81526020019081526020015f2088908060018154018082558091505060019003905f5260205f20015f909190919091505550505050505050919050565b5f5f5f9054906101000a900473ffffffffffffffffffffffffffffffffffffffff1673ffffffffffffffffffffffffffffffffffffffff1663bf40fac16040518060400160405280601181526020017f52455345525645445f4d505f41444d494e0000000000000000000000000000008152506040518263ffffffff1660e01b8152600401610eb991906124f4565b602060405180830381865afa158015610ed4573d5f5f3e3d5ffd5b505050506040513d601f19601f82011682018060405250810190610ef891906127a5565b73ffffffffffffffffffffffffffffffffffffffff163373ffffffffffffffffffffffffffffffffffffffff1614610f65576040517f08c379a0000000000000000000000000000000000000000000000000000000008152600401610f5c90612bf3565b60405180910390fd5b5f5f9054906101000a900473ffffffffffffffffffffffffffffffffffffffff1673ffffffffffffffffffffffffffffffffffffffff1663bf40fac16040518060400160405280601481526020017f52455345525645445f4d505f52454749535445520000000000000000000000008152506040518263ffffffff1660e01b8152600401610ff391906124f4565b602060405180830381865afa15801561100e573d5f5f3e3d5ffd5b505050506040513d601f19601f8201168201806040525081019061103291906127a5565b5f5f6101000a81548173ffffffffffffffffffffffffffffffffffffffff021916908373ffffffffffffffffffffffffffffffffffffffff1602179055506001905090565b5f5f5f5f9054906101000a900473ffffffffffffffffffffffffffffffffffffffff1673ffffffffffffffffffffffffffffffffffffffff1663bf40fac16040518060400160405280601581526020017f52455345525645445f424f4e445f4d414e4147455200000000000000000000008152506040518263ffffffff1660e01b815260040161110791906124f4565b602060405180830381865afa158015611122573d5f5f3e3d5ffd5b505050506040513d601f19601f8201168201806040525081019061114691906127a5565b73ffffffffffffffffffffffffffffffffffffffff1663ce8620015f336040518363ffffffff1660e01b8152600401611180929190612825565b602060405180830381865afa15801561119b573d5f5f3e3d5ffd5b505050506040513d601f19601f820116820180604052508101906111bf9190612876565b6111fe576040517f08c379a00000000000000000000000000000000000000000000000000000000081526004016111f5906128eb565b60405180910390fd5b5f61120885611c27565b90505f8160600151905061121a611fd3565b9350600484908060018154018082558091505060019003905f5260205f20015f90919091909150555f5f5f9054906101000a900473ffffffffffffffffffffffffffffffffffffffff1673ffffffffffffffffffffffffffffffffffffffff1663bf40fac16040518060400160405280601581526020017f52455345525645445f424f4e445f4d414e4147455200000000000000000000008152506040518263ffffffff1660e01b81526004016112d191906124f4565b602060405180830381865afa1580156112ec573d5f5f3e3d5ffd5b505050506040513d601f19601f8201168201806040525081019061131091906127a5565b73ffffffffffffffffffffffffffffffffffffffff1663012fe7945f336040518363ffffffff1660e01b815260040161134a929190612825565b60c060405180830381865afa158015611365573d5f5f3e3d5ffd5b505050506040513d601f19601f820116820180604052508101906113899190612b7e565b905060085f825f015181526020019081526020015f2085908060018154018082558091505060019003905f5260205f20015f90919091909150555f5f8373ffffffffffffffffffffffffffffffffffffffff16634d0392a8886040518263ffffffff1660e01b81526004016113fe919061246b565b60408051808303815f875af1158015611419573d5f5f3e3d5ffd5b505050506040513d601f19601f8201168201806040525081019061143d919061291d565b9150915060075f8881526020019081526020015f2081908060018154018082558091505060019003905f5260205f20015f90919091909150555f5f5f9054906101000a900473ffffffffffffffffffffffffffffffffffffffff1673ffffffffffffffffffffffffffffffffffffffff1663bf40fac16040518060400160405280601a81526020017f52455345525645445f4d505f4d41524b45545f4d414e414745520000000000008152506040518263ffffffff1660e01b815260040161150591906124f4565b602060405180830381865afa158015611520573d5f5f3e3d5ffd5b505050506040513d601f19601f8201168201806040525081019061154491906127a5565b90505f8173ffffffffffffffffffffffffffffffffffffffff1663eb44fdd38b6040518263ffffffff1660e01b8152600401611580919061246b565b6101c060405180830381865afa15801561159c573d5f5f3e3d5ffd5b505050506040513d601f19601f820116820180604052508101906115c09190612d7f565b90506115f18160600151857f0000000000000000000000000000000000000000000000000000000000000000611af2565b5073eeeeeeeeeeeeeeeeeeeeeeeeeeeeeeeeeeeeeeee73ffffffffffffffffffffffffffffffffffffffff16816060015173ffffffffffffffffffffffffffffffffffffffff16036116c2578173ffffffffffffffffffffffffffffffffffffffff16635ece09c5858b8d886040518563ffffffff1660e01b815260040161167b939291906129bb565b60206040518083038185885af1158015611697573d5f5f3e3d5ffd5b50505050506040513d601f19601f820116820180604052508101906116bc91906129f0565b506117c6565b5f816060015190508073ffffffffffffffffffffffffffffffffffffffff1663095ea7b384876040518363ffffffff1660e01b8152600401611705929190612a1b565b6020604051808303815f875af1158015611721573d5f5f3e3d5ffd5b505050506040513d601f19601f820116820180604052508101906117459190612876565b508273ffffffffffffffffffffffffffffffffffffffff16635ece09c58b8d886040518463ffffffff1660e01b8152600401611783939291906129bb565b6020604051808303815f875af115801561179f573d5f5f3e3d5ffd5b505050506040513d601f19601f820116820180604052508101906117c391906129f0565b50505b6040518061010001604052808a81526020015f60018111156117eb576117ea6122c2565b5b81526020018c8152602001858152602001826060015173ffffffffffffffffffffffffffffffffffffffff1681526020014281526020018860c00151610120015181526020018b81525060055f8b81526020019081526020015f205f820151815f01556020820151816001015f6101000a81548160ff02191690836001811115611878576118776122c2565b5b021790555060408201518160020155606082015181600301556080820151816004015f6101000a81548173ffffffffffffffffffffffffffffffffffffffff021916908373ffffffffffffffffffffffffffffffffffffffff16021790555060a0820151816005015560c0820151816006015f820151815f015560208201518160010155505060e082015181600801559050508860065f8d81526020019081526020015f208190555061193360055f8d878560600151611e58565b975060075f8a81526020019081526020015f2088908060018154018082558091505060019003905f5260205f20015f9091909190915055505050505050509250929050565b606060075f8381526020019081526020015f208054806020026020016040519081016040528092919081815260200182805480156119d357602002820191905f5260205f20905b8154815260200190600101908083116119bf575b50505050509050919050565b6119e7611fef565b60055f8381526020019081526020015f20604051806101000160405290815f8201548152602001600182015f9054906101000a900460ff166001811115611a3157611a306122c2565b5b6001811115611a4357611a426122c2565b5b81526020016002820154815260200160038201548152602001600482015f9054906101000a900473ffffffffffffffffffffffffffffffffffffffff1673ffffffffffffffffffffffffffffffffffffffff1673ffffffffffffffffffffffffffffffffffffffff16815260200160058201548152602001600682016040518060400160405290815f820154815260200160018201548152505081526020016008820154815250509050919050565b5f73eeeeeeeeeeeeeeeeeeeeeeeeeeeeeeeeeeeeeeee73ffffffffffffffffffffffffffffffffffffffff168473ffffffffffffffffffffffffffffffffffffffff1603611b825782341015611b7d576040517f08c379a0000000000000000000000000000000000000000000000000000000008152600401611b7490612df5565b60405180910390fd5b611c06565b5f8490508073ffffffffffffffffffffffffffffffffffffffff166323b872dd3385876040518463ffffffff1660e01b8152600401611bc393929190612e13565b6020604051808303815f875af1158015611bdf573d5f5f3e3d5ffd5b505050506040513d601f19601f82011682018060405250810190611c039190612876565b50505b8173ffffffffffffffffffffffffffffffffffffffff163190509392505050565b611c2f6120a6565b5f5f9054906101000a900473ffffffffffffffffffffffffffffffffffffffff1673ffffffffffffffffffffffffffffffffffffffff1663bf40fac16040518060400160405280602081526020017f52455345525645445f4d4544414c4c494f4e5f50454e53494f4e535f434f52458152506040518263ffffffff1660e01b8152600401611cbd91906124f4565b602060405180830381865afa158015611cd8573d5f5f3e3d5ffd5b505050506040513d601f19601f82011682018060405250810190611cfc91906127a5565b73ffffffffffffffffffffffffffffffffffffffff166377bdfdf2836040518263ffffffff1660e01b8152600401611d34919061246b565b6103c060405180830381865afa158015611d50573d5f5f3e3d5ffd5b505050506040513d601f19601f82011682018060405250810190611d74919061313c565b9050919050565b606060018351611d8b9190612988565b67ffffffffffffffff811115611da457611da3612a46565b5b604051908082528060200260200182016040528015611dd25781602001602082028036833780820191505090505b5090505f5f90505f5f90505b8451811015611e505783858281518110611dfb57611dfa613168565b5b602002602001015114611e4357848181518110611e1b57611e1a613168565b5b6020026020010151838381518110611e3657611e35613168565b5b6020026020010181815250505b8080600101915050611dde565b505092915050565b5f5f5f9054906101000a900473ffffffffffffffffffffffffffffffffffffffff1673ffffffffffffffffffffffffffffffffffffffff1663bf40fac16040518060400160405280601681526020017f52455345525645445f4d505f54585f4d414e41474552000000000000000000008152506040518263ffffffff1660e01b8152600401611ee791906124f4565b602060405180830381865afa158015611f02573d5f5f3e3d5ffd5b505050506040513d601f19601f82011682018060405250810190611f2691906127a5565b73ffffffffffffffffffffffffffffffffffffffff1663ee16e6398787877f000000000000000000000000000000000000000000000000000000000000000088886040518763ffffffff1660e01b8152600401611f8896959493929190613221565b6020604051808303815f875af1158015611fa4573d5f5f3e3d5ffd5b505050506040513d601f19601f82011682018060405250810190611fc891906129f0565b905095945050505050565b5f60035f815480929190611fe690613280565b91905055905090565b6040518061010001604052805f81526020015f6001811115612014576120136122c2565b5b81526020015f81526020015f81526020015f73ffffffffffffffffffffffffffffffffffffffff1681526020015f815260200161204f612125565b81526020015f81525090565b828054828255905f5260205f20908101928215612095579160200282015b82811115612094578251825591602001919060010190612079565b5b5090506120a2919061213d565b5090565b6040518060e001604052805f81526020015f73ffffffffffffffffffffffffffffffffffffffff1681526020015f73ffffffffffffffffffffffffffffffffffffffff1681526020015f73ffffffffffffffffffffffffffffffffffffffff1681526020015f81526020015f815260200161211f612158565b81525090565b60405180604001604052805f81526020015f81525090565b5b80821115612154575f815f90555060010161213e565b5090565b604051806101a001604052805f81526020015f73ffffffffffffffffffffffffffffffffffffffff1681526020015f73ffffffffffffffffffffffffffffffffffffffff1681526020015f81526020015f81526020015f81526020015f60028111156121c7576121c66122c2565b5b81526020016121d4612206565b81526020016121e1612206565b81526020016121ee612125565b81526020015f81526020015f81526020015f81525090565b6040518060c001604052805f6003811115612224576122236122c2565b5b81526020015f81526020015f81526020015f81526020015f81526020015f81525090565b5f604051905090565b5f5ffd5b5f819050919050565b61226781612255565b8114612271575f5ffd5b50565b5f813590506122828161225e565b92915050565b5f6020828403121561229d5761229c612251565b5b5f6122aa84828501612274565b91505092915050565b6122bc81612255565b82525050565b7f4e487b71000000000000000000000000000000000000000000000000000000005f52602160045260245ffd5b60028110612300576122ff6122c2565b5b50565b5f819050612310826122ef565b919050565b5f61231f82612303565b9050919050565b61232f81612315565b82525050565b5f73ffffffffffffffffffffffffffffffffffffffff82169050919050565b5f61235e82612335565b9050919050565b61236e81612354565b82525050565b604082015f8201516123885f8501826122b3565b50602082015161239b60208501826122b3565b50505050565b61012082015f8201516123b65f8501826122b3565b5060208201516123c96020850182612326565b5060408201516123dc60408501826122b3565b5060608201516123ef60608501826122b3565b5060808201516124026080850182612365565b5060a082015161241560a08501826122b3565b5060c082015161242860c0850182612374565b5060e082015161243c6101008501826122b3565b50505050565b5f610120820190506124565f8301846123a1565b92915050565b61246581612255565b82525050565b5f60208201905061247e5f83018461245c565b92915050565b5f81519050919050565b5f82825260208201905092915050565b8281835e5f83830152505050565b5f601f19601f8301169050919050565b5f6124c682612484565b6124d0818561248e565b93506124e081856020860161249e565b6124e9816124ac565b840191505092915050565b5f6020820190508181035f83015261250c81846124bc565b905092915050565b5f81519050919050565b5f82825260208201905092915050565b5f819050602082019050919050565b5f61254883836122b3565b60208301905092915050565b5f602082019050919050565b5f61256a82612514565b612574818561251e565b935061257f8361252e565b805f5b838110156125af578151612596888261253d565b97506125a183612554565b925050600181019050612582565b5085935050505092915050565b5f6020820190508181035f8301526125d48184612560565b905092915050565b5f8115159050919050565b6125f0816125dc565b82525050565b5f6020820190506126095f8301846125e7565b92915050565b61261881612354565b8114612622575f5ffd5b50565b5f813590506126338161260f565b92915050565b5f6020828403121561264e5761264d612251565b5b5f61265b84828501612625565b91505092915050565b5f81519050919050565b5f82825260208201905092915050565b5f819050602082019050919050565b5f6126988383612365565b60208301905092915050565b5f602082019050919050565b5f6126ba82612664565b6126c4818561266e565b93506126cf8361267e565b805f5b838110156126ff5781516126e6888261268d565b97506126f1836126a4565b9250506001810190506126d2565b5085935050505092915050565b5f6020820190508181035f83015261272481846126b0565b905092915050565b5f5f6040838503121561274257612741612251565b5b5f61274f85828601612274565b925050602061276085828601612274565b9150509250929050565b5f60408201905061277d5f83018561245c565b61278a602083018461245c565b9392505050565b5f8151905061279f8161260f565b92915050565b5f602082840312156127ba576127b9612251565b5b5f6127c784828501612791565b91505092915050565b600281106127e1576127e06122c2565b5b50565b5f8190506127f1826127d0565b919050565b5f612800826127e4565b9050919050565b612810816127f6565b82525050565b61281f81612354565b82525050565b5f6040820190506128385f830185612807565b6128456020830184612816565b9392505050565b612855816125dc565b811461285f575f5ffd5b50565b5f815190506128708161284c565b92915050565b5f6020828403121561288b5761288a612251565b5b5f61289884828501612862565b91505092915050565b7f6e6f20747265617375727920626f6e64000000000000000000000000000000005f82015250565b5f6128d560108361248e565b91506128e0826128a1565b602082019050919050565b5f6020820190508181035f830152612902816128c9565b9050919050565b5f815190506129178161225e565b92915050565b5f5f6040838503121561293357612932612251565b5b5f61294085828601612909565b925050602061295185828601612909565b9150509250929050565b7f4e487b71000000000000000000000000000000000000000000000000000000005f52601160045260245ffd5b5f61299282612255565b915061299d83612255565b92508282039050818111156129b5576129b461295b565b5b92915050565b5f6060820190506129ce5f83018661245c565b6129db602083018561245c565b6129e8604083018461245c565b949350505050565b5f60208284031215612a0557612a04612251565b5b5f612a1284828501612909565b91505092915050565b5f604082019050612a2e5f830185612816565b612a3b602083018461245c565b9392505050565b5f5ffd5b7f4e487b71000000000000000000000000000000000000000000000000000000005f52604160045260245ffd5b612a7c826124ac565b810181811067ffffffffffffffff82111715612a9b57612a9a612a46565b5b80604052505050565b5f612aad612248565b9050612ab98282612a73565b919050565b60028110612aca575f5ffd5b50565b5f81519050612adb81612abe565b92915050565b5f60c08284031215612af657612af5612a42565b5b612b0060c0612aa4565b90505f612b0f84828501612909565b5f830152506020612b2284828501612791565b6020830152506040612b3684828501612909565b6040830152506060612b4a84828501612791565b6060830152506080612b5e84828501612909565b60808301525060a0612b7284828501612acd565b60a08301525092915050565b5f60c08284031215612b9357612b92612251565b5b5f612ba084828501612ae1565b91505092915050565b7f6d6564616c696f6e207065656e73696f6e732061646d696e206f6e6c790000005f82015250565b5f612bdd601d8361248e565b9150612be882612ba9565b602082019050919050565b5f6020820190508181035f830152612c0a81612bd1565b9050919050565b60038110612c1d575f5ffd5b50565b5f81519050612c2e81612c11565b92915050565b5f6101c08284031215612c4a57612c49612a42565b5b612c556101c0612aa4565b90505f612c6484828501612909565b5f830152506020612c7784828501612791565b6020830152506040612c8b84828501612c20565b6040830152506060612c9f84828501612791565b6060830152506080612cb384828501612791565b60808301525060a0612cc784828501612909565b60a08301525060c0612cdb84828501612909565b60c08301525060e0612cef84828501612909565b60e083015250610100612d0484828501612909565b61010083015250610120612d1a84828501612909565b61012083015250610140612d3084828501612909565b61014083015250610160612d4684828501612909565b61016083015250610180612d5c84828501612909565b610180830152506101a0612d7284828501612909565b6101a08301525092915050565b5f6101c08284031215612d9557612d94612251565b5b5f612da284828501612c34565b91505092915050565b7f636f6e747269627574696f6e206d69732d6d61746368000000000000000000005f82015250565b5f612ddf60168361248e565b9150612dea82612dab565b602082019050919050565b5f6020820190508181035f830152612e0c81612dd3565b9050919050565b5f606082019050612e265f830186612816565b612e336020830185612816565b612e40604083018461245c565b949350505050565b60048110612e54575f5ffd5b50565b5f81519050612e6581612e48565b92915050565b5f60c08284031215612e8057612e7f612a42565b5b612e8a60c0612aa4565b90505f612e9984828501612e57565b5f830152506020612eac84828501612909565b6020830152506040612ec084828501612909565b6040830152506060612ed484828501612909565b6060830152506080612ee884828501612909565b60808301525060a0612efc84828501612909565b60a08301525092915050565b5f60408284031215612f1d57612f1c612a42565b5b612f276040612aa4565b90505f612f3684828501612909565b5f830152506020612f4984828501612909565b60208301525092915050565b5f6103008284031215612f6b57612f6a612a42565b5b612f766101a0612aa4565b90505f612f8584828501612909565b5f830152506020612f9884828501612791565b6020830152506040612fac84828501612791565b6040830152506060612fc084828501612909565b6060830152506080612fd484828501612909565b60808301525060a0612fe884828501612909565b60a08301525060c0612ffc84828501612c20565b60c08301525060e061301084828501612e6b565b60e0830152506101a061302584828501612e6b565b6101008301525061026061303b84828501612f08565b610120830152506102a061305184828501612909565b610140830152506102c061306784828501612909565b610160830152506102e061307d84828501612909565b6101808301525092915050565b5f6103c082840312156130a05761309f612a42565b5b6130aa60e0612aa4565b90505f6130b984828501612909565b5f8301525060206130cc84828501612791565b60208301525060406130e084828501612791565b60408301525060606130f484828501612791565b606083015250608061310884828501612909565b60808301525060a061311c84828501612909565b60a08301525060c061313084828501612f55565b60c08301525092915050565b5f6103c0828403121561315257613151612251565b5b5f61315f8482850161308a565b91505092915050565b7f4e487b71000000000000000000000000000000000000000000000000000000005f52603260045260245ffd5b600a81106131a6576131a56122c2565b5b50565b5f8190506131b682613195565b919050565b5f6131c5826131a9565b9050919050565b6131d5816131bb565b82525050565b600681106131ec576131eb6122c2565b5b50565b5f8190506131fc826131db565b919050565b5f61320b826131ef565b9050919050565b61321b81613201565b82525050565b5f60c0820190506132345f8301896131cc565b6132416020830188613212565b61324e604083018761245c565b61325b6060830186612816565b613268608083018561245c565b61327560a0830184612816565b979650505050505050565b5f61328a82612255565b91507fffffffffffffffffffffffffffffffffffffffffffffffffffffffffffffffff82036132bc576132bb61295b565b5b60018201905091905056fea2646970667358221220a42c01efe97f845014ba704dd46372ecb1bcc2c39afe5198e08072df47e9a89464736f6c634300081e0033",
					"opcodes": "PUSH1 0xA0 PUSH1 0x40 MSTORE CALLVALUE DUP1 ISZERO PUSH2 0xF JUMPI PUSH0 PUSH0 REVERT JUMPDEST POP PUSH1 0x40 MLOAD PUSH2 0x3458 CODESIZE SUB DUP1 PUSH2 0x3458 DUP4 CODECOPY DUP2 DUP2 ADD PUSH1 0x40 MSTORE DUP2 ADD SWAP1 PUSH2 0x31 SWAP2 SWAP1 PUSH2 0x10A JUMP JUMPDEST DUP1 PUSH0 PUSH0 PUSH2 0x100 EXP DUP2 SLOAD DUP2 PUSH20 0xFFFFFFFFFFFFFFFFFFFFFFFFFFFFFFFFFFFFFFFF MUL NOT AND SWAP1 DUP4 PUSH20 0xFFFFFFFFFFFFFFFFFFFFFFFFFFFFFFFFFFFFFFFF AND MUL OR SWAP1 SSTORE POP PUSH1 0x80 MLOAD PUSH20 0xFFFFFFFFFFFFFFFFFFFFFFFFFFFFFFFFFFFFFFFF AND PUSH1 0x80 DUP2 PUSH20 0xFFFFFFFFFFFFFFFFFFFFFFFFFFFFFFFFFFFFFFFF AND DUP2 MSTORE POP POP POP PUSH2 0x135 JUMP JUMPDEST PUSH0 PUSH0 REVERT JUMPDEST PUSH0 PUSH20 0xFFFFFFFFFFFFFFFFFFFFFFFFFFFFFFFFFFFFFFFF DUP3 AND SWAP1 POP SWAP2 SWAP1 POP JUMP JUMPDEST PUSH0 PUSH2 0xD9 DUP3 PUSH2 0xB0 JUMP JUMPDEST SWAP1 POP SWAP2 SWAP1 POP JUMP JUMPDEST PUSH2 0xE9 DUP2 PUSH2 0xCF JUMP JUMPDEST DUP2 EQ PUSH2 0xF3 JUMPI PUSH0 PUSH0 REVERT JUMPDEST POP JUMP JUMPDEST PUSH0 DUP2 MLOAD SWAP1 POP PUSH2 0x104 DUP2 PUSH2 0xE0 JUMP JUMPDEST SWAP3 SWAP2 POP POP JUMP JUMPDEST PUSH0 PUSH1 0x20 DUP3 DUP5 SUB SLT ISZERO PUSH2 0x11F JUMPI PUSH2 0x11E PUSH2 0xAC JUMP JUMPDEST JUMPDEST PUSH0 PUSH2 0x12C DUP5 DUP3 DUP6 ADD PUSH2 0xF6 JUMP JUMPDEST SWAP2 POP POP SWAP3 SWAP2 POP POP JUMP JUMPDEST PUSH1 0x80 MLOAD PUSH2 0x32FD PUSH2 0x15B PUSH0 CODECOPY PUSH0 DUP2 DUP2 PUSH2 0x8ED ADD MSTORE DUP2 DUP2 PUSH2 0x15CD ADD MSTORE PUSH2 0x1F46 ADD MSTORE PUSH2 0x32FD PUSH0 RETURN INVALID PUSH1 0x80 PUSH1 0x40 MSTORE CALLVALUE DUP1 ISZERO PUSH2 0xF JUMPI PUSH0 PUSH0 REVERT JUMPDEST POP PUSH1 0x4 CALLDATASIZE LT PUSH2 0xB1 JUMPI PUSH0 CALLDATALOAD PUSH1 0xE0 SHR DUP1 PUSH4 0x8A9DDA05 GT PUSH2 0x6F JUMPI DUP1 PUSH4 0x8A9DDA05 EQ PUSH2 0x19F JUMPI DUP1 PUSH4 0x8CA17995 EQ PUSH2 0x1BD JUMPI DUP1 PUSH4 0xCDE4C10C EQ PUSH2 0x1ED JUMPI DUP1 PUSH4 0xD87AA643 EQ PUSH2 0x20B JUMPI DUP1 PUSH4 0xE3E803C8 EQ PUSH2 0x23C JUMPI DUP1 PUSH4 0xEB02C301 EQ PUSH2 0x26C JUMPI PUSH2 0xB1 JUMP JUMPDEST DUP1 PUSH3 0x29E794 EQ PUSH2 0xB5 JUMPI DUP1 PUSH4 0xD8E6E2C EQ PUSH2 0xE5 JUMPI DUP1 PUSH4 0x17D7DE7C EQ PUSH2 0x103 JUMPI DUP1 PUSH4 0x39131906 EQ PUSH2 0x121 JUMPI DUP1 PUSH4 0x4CA857DA EQ PUSH2 0x13F JUMPI DUP1 PUSH4 0x7AD0AB2D EQ PUSH2 0x16F JUMPI JUMPDEST PUSH0 PUSH0 REVERT JUMPDEST PUSH2 0xCF PUSH1 0x4 DUP1 CALLDATASIZE SUB DUP2 ADD SWAP1 PUSH2 0xCA SWAP2 SWAP1 PUSH2 0x2288 JUMP JUMPDEST PUSH2 0x29C JUMP JUMPDEST PUSH1 0x40 MLOAD PUSH2 0xDC SWAP2 SWAP1 PUSH2 0x2442 JUMP JUMPDEST PUSH1 0x40 MLOAD DUP1 SWAP2 SUB SWAP1 RETURN JUMPDEST PUSH2 0xED PUSH2 0x3C0 JUMP JUMPDEST PUSH1 0x40 MLOAD PUSH2 0xFA SWAP2 SWAP1 PUSH2 0x246B JUMP JUMPDEST PUSH1 0x40 MLOAD DUP1 SWAP2 SUB SWAP1 RETURN JUMPDEST PUSH2 0x10B PUSH2 0x3C8 JUMP JUMPDEST PUSH1 0x40 MLOAD PUSH2 0x118 SWAP2 SWAP1 PUSH2 0x24F4 JUMP JUMPDEST PUSH1 0x40 MLOAD DUP1 SWAP2 SUB SWAP1 RETURN JUMPDEST PUSH2 0x129 PUSH2 0x405 JUMP JUMPDEST PUSH1 0x40 MLOAD PUSH2 0x136 SWAP2 SWAP1 PUSH2 0x25BC JUMP JUMPDEST PUSH1 0x40 MLOAD DUP1 SWAP2 SUB SWAP1 RETURN JUMPDEST PUSH2 0x159 PUSH1 0x4 DUP1 CALLDATASIZE SUB DUP2 ADD SWAP1 PUSH2 0x154 SWAP2 SWAP1 PUSH2 0x2288 JUMP JUMPDEST PUSH2 0x45B JUMP JUMPDEST PUSH1 0x40 MLOAD PUSH2 0x166 SWAP2 SWAP1 PUSH2 0x25F6 JUMP JUMPDEST PUSH1 0x40 MLOAD DUP1 SWAP2 SUB SWAP1 RETURN JUMPDEST PUSH2 0x189 PUSH1 0x4 DUP1 CALLDATASIZE SUB DUP2 ADD SWAP1 PUSH2 0x184 SWAP2 SWAP1 PUSH2 0x2639 JUMP JUMPDEST PUSH2 0x47B JUMP JUMPDEST PUSH1 0x40 MLOAD PUSH2 0x196 SWAP2 SWAP1 PUSH2 0x25F6 JUMP JUMPDEST PUSH1 0x40 MLOAD DUP1 SWAP2 SUB SWAP1 RETURN JUMPDEST PUSH2 0x1A7 PUSH2 0x4CD JUMP JUMPDEST PUSH1 0x40 MLOAD PUSH2 0x1B4 SWAP2 SWAP1 PUSH2 0x270C JUMP JUMPDEST PUSH1 0x40 MLOAD DUP1 SWAP2 SUB SWAP1 RETURN JUMPDEST PUSH2 0x1D7 PUSH1 0x4 DUP1 CALLDATASIZE SUB DUP2 ADD SWAP1 PUSH2 0x1D2 SWAP2 SWAP1 PUSH2 0x2288 JUMP JUMPDEST PUSH2 0x558 JUMP JUMPDEST PUSH1 0x40 MLOAD PUSH2 0x1E4 SWAP2 SWAP1 PUSH2 0x246B JUMP JUMPDEST PUSH1 0x40 MLOAD DUP1 SWAP2 SUB SWAP1 RETURN JUMPDEST PUSH2 0x1F5 PUSH2 0xE2A JUMP JUMPDEST PUSH1 0x40 MLOAD PUSH2 0x202 SWAP2 SWAP1 PUSH2 0x25F6 JUMP JUMPDEST PUSH1 0x40 MLOAD DUP1 SWAP2 SUB SWAP1 RETURN JUMPDEST PUSH2 0x225 PUSH1 0x4 DUP1 CALLDATASIZE SUB DUP2 ADD SWAP1 PUSH2 0x220 SWAP2 SWAP1 PUSH2 0x272C JUMP JUMPDEST PUSH2 0x1077 JUMP JUMPDEST PUSH1 0x40 MLOAD PUSH2 0x233 SWAP3 SWAP2 SWAP1 PUSH2 0x276A JUMP JUMPDEST PUSH1 0x40 MLOAD DUP1 SWAP2 SUB SWAP1 RETURN JUMPDEST PUSH2 0x256 PUSH1 0x4 DUP1 CALLDATASIZE SUB DUP2 ADD SWAP1 PUSH2 0x251 SWAP2 SWAP1 PUSH2 0x2288 JUMP JUMPDEST PUSH2 0x1978 JUMP JUMPDEST PUSH1 0x40 MLOAD PUSH2 0x263 SWAP2 SWAP1 PUSH2 0x25BC JUMP JUMPDEST PUSH1 0x40 MLOAD DUP1 SWAP2 SUB SWAP1 RETURN JUMPDEST PUSH2 0x286 PUSH1 0x4 DUP1 CALLDATASIZE SUB DUP2 ADD SWAP1 PUSH2 0x281 SWAP2 SWAP1 PUSH2 0x2288 JUMP JUMPDEST PUSH2 0x19DF JUMP JUMPDEST PUSH1 0x40 MLOAD PUSH2 0x293 SWAP2 SWAP1 PUSH2 0x2442 JUMP JUMPDEST PUSH1 0x40 MLOAD DUP1 SWAP2 SUB SWAP1 RETURN JUMPDEST PUSH2 0x2A4 PUSH2 0x1FEF JUMP JUMPDEST PUSH1 0x5 PUSH0 PUSH1 0x6 PUSH0 DUP6 DUP2 MSTORE PUSH1 0x20 ADD SWAP1 DUP2 MSTORE PUSH1 0x20 ADD PUSH0 KECCAK256 SLOAD DUP2 MSTORE PUSH1 0x20 ADD SWAP1 DUP2 MSTORE PUSH1 0x20 ADD PUSH0 KECCAK256 PUSH1 0x40 MLOAD DUP1 PUSH2 0x100 ADD PUSH1 0x40 MSTORE SWAP1 DUP2 PUSH0 DUP3 ADD SLOAD DUP2 MSTORE PUSH1 0x20 ADD PUSH1 0x1 DUP3 ADD PUSH0 SWAP1 SLOAD SWAP1 PUSH2 0x100 EXP SWAP1 DIV PUSH1 0xFF AND PUSH1 0x1 DUP2 GT ISZERO PUSH2 0x2FF JUMPI PUSH2 0x2FE PUSH2 0x22C2 JUMP JUMPDEST JUMPDEST PUSH1 0x1 DUP2 GT ISZERO PUSH2 0x311 JUMPI PUSH2 0x310 PUSH2 0x22C2 JUMP JUMPDEST JUMPDEST DUP2 MSTORE PUSH1 0x20 ADD PUSH1 0x2 DUP3 ADD SLOAD DUP2 MSTORE PUSH1 0x20 ADD PUSH1 0x3 DUP3 ADD SLOAD DUP2 MSTORE PUSH1 0x20 ADD PUSH1 0x4 DUP3 ADD PUSH0 SWAP1 SLOAD SWAP1 PUSH2 0x100 EXP SWAP1 DIV PUSH20 0xFFFFFFFFFFFFFFFFFFFFFFFFFFFFFFFFFFFFFFFF AND PUSH20 0xFFFFFFFFFFFFFFFFFFFFFFFFFFFFFFFFFFFFFFFF AND PUSH20 0xFFFFFFFFFFFFFFFFFFFFFFFFFFFFFFFFFFFFFFFF AND DUP2 MSTORE PUSH1 0x20 ADD PUSH1 0x5 DUP3 ADD SLOAD DUP2 MSTORE PUSH1 0x20 ADD PUSH1 0x6 DUP3 ADD PUSH1 0x40 MLOAD DUP1 PUSH1 0x40 ADD PUSH1 0x40 MSTORE SWAP1 DUP2 PUSH0 DUP3 ADD SLOAD DUP2 MSTORE PUSH1 0x20 ADD PUSH1 0x1 DUP3 ADD SLOAD DUP2 MSTORE POP POP DUP2 MSTORE PUSH1 0x20 ADD PUSH1 0x8 DUP3 ADD SLOAD DUP2 MSTORE POP POP SWAP1 POP SWAP2 SWAP1 POP JUMP JUMPDEST PUSH0 PUSH1 0x1 SWAP1 POP SWAP1 JUMP JUMPDEST PUSH1 0x60 PUSH1 0x40 MLOAD DUP1 PUSH1 0x40 ADD PUSH1 0x40 MSTORE DUP1 PUSH1 0x14 DUP2 MSTORE PUSH1 0x20 ADD PUSH32 0x52455345525645445F4D505F5452454153555259000000000000000000000000 DUP2 MSTORE POP SWAP1 POP SWAP1 JUMP JUMPDEST PUSH1 0x60 PUSH1 0x4 DUP1 SLOAD DUP1 PUSH1 0x20 MUL PUSH1 0x20 ADD PUSH1 0x40 MLOAD SWAP1 DUP2 ADD PUSH1 0x40 MSTORE DUP1 SWAP3 SWAP2 SWAP1 DUP2 DUP2 MSTORE PUSH1 0x20 ADD DUP3 DUP1 SLOAD DUP1 ISZERO PUSH2 0x451 JUMPI PUSH1 0x20 MUL DUP3 ADD SWAP2 SWAP1 PUSH0 MSTORE PUSH1 0x20 PUSH0 KECCAK256 SWAP1 JUMPDEST DUP2 SLOAD DUP2 MSTORE PUSH1 0x20 ADD SWAP1 PUSH1 0x1 ADD SWAP1 DUP1 DUP4 GT PUSH2 0x43D JUMPI JUMPDEST POP POP POP POP POP SWAP1 POP SWAP1 JUMP JUMPDEST PUSH0 PUSH0 PUSH1 0x8 PUSH0 DUP5 DUP2 MSTORE PUSH1 0x20 ADD SWAP1 DUP2 MSTORE PUSH1 0x20 ADD PUSH0 KECCAK256 DUP1 SLOAD SWAP1 POP EQ ISZERO SWAP1 POP SWAP2 SWAP1 POP JUMP JUMPDEST PUSH0 PUSH1 0x2 PUSH0 DUP4 PUSH20 0xFFFFFFFFFFFFFFFFFFFFFFFFFFFFFFFFFFFFFFFF AND PUSH20 0xFFFFFFFFFFFFFFFFFFFFFFFFFFFFFFFFFFFFFFFF AND DUP2 MSTORE PUSH1 0x20 ADD SWAP1 DUP2 MSTORE PUSH1 0x20 ADD PUSH0 KECCAK256 PUSH0 SWAP1 SLOAD SWAP1 PUSH2 0x100 EXP SWAP1 DIV PUSH1 0xFF AND SWAP1 POP SWAP2 SWAP1 POP JUMP JUMPDEST PUSH1 0x60 PUSH1 0x1 DUP1 SLOAD DUP1 PUSH1 0x20 MUL PUSH1 0x20 ADD PUSH1 0x40 MLOAD SWAP1 DUP2 ADD PUSH1 0x40 MSTORE DUP1 SWAP3 SWAP2 SWAP1 DUP2 DUP2 MSTORE PUSH1 0x20 ADD DUP3 DUP1 SLOAD DUP1 ISZERO PUSH2 0x54E JUMPI PUSH1 0x20 MUL DUP3 ADD SWAP2 SWAP1 PUSH0 MSTORE PUSH1 0x20 PUSH0 KECCAK256 SWAP1 JUMPDEST DUP2 PUSH0 SWAP1 SLOAD SWAP1 PUSH2 0x100 EXP SWAP1 DIV PUSH20 0xFFFFFFFFFFFFFFFFFFFFFFFFFFFFFFFFFFFFFFFF AND PUSH20 0xFFFFFFFFFFFFFFFFFFFFFFFFFFFFFFFFFFFFFFFF AND DUP2 MSTORE PUSH1 0x20 ADD SWAP1 PUSH1 0x1 ADD SWAP1 DUP1 DUP4 GT PUSH2 0x505 JUMPI JUMPDEST POP POP POP POP POP SWAP1 POP SWAP1 JUMP JUMPDEST PUSH0 PUSH0 PUSH0 SWAP1 SLOAD SWAP1 PUSH2 0x100 EXP SWAP1 DIV PUSH20 0xFFFFFFFFFFFFFFFFFFFFFFFFFFFFFFFFFFFFFFFF AND PUSH20 0xFFFFFFFFFFFFFFFFFFFFFFFFFFFFFFFFFFFFFFFF AND PUSH4 0xBF40FAC1 PUSH1 0x40 MLOAD DUP1 PUSH1 0x40 ADD PUSH1 0x40 MSTORE DUP1 PUSH1 0x15 DUP2 MSTORE PUSH1 0x20 ADD PUSH32 0x52455345525645445F424F4E445F4D414E414745520000000000000000000000 DUP2 MSTORE POP PUSH1 0x40 MLOAD DUP3 PUSH4 0xFFFFFFFF AND PUSH1 0xE0 SHL DUP2 MSTORE PUSH1 0x4 ADD PUSH2 0x5E7 SWAP2 SWAP1 PUSH2 0x24F4 JUMP JUMPDEST PUSH1 0x20 PUSH1 0x40 MLOAD DUP1 DUP4 SUB DUP2 DUP7 GAS STATICCALL ISZERO DUP1 ISZERO PUSH2 0x602 JUMPI RETURNDATASIZE PUSH0 PUSH0 RETURNDATACOPY RETURNDATASIZE PUSH0 REVERT JUMPDEST POP POP POP POP PUSH1 0x40 MLOAD RETURNDATASIZE PUSH1 0x1F NOT PUSH1 0x1F DUP3 ADD AND DUP3 ADD DUP1 PUSH1 0x40 MSTORE POP DUP2 ADD SWAP1 PUSH2 0x626 SWAP2 SWAP1 PUSH2 0x27A5 JUMP JUMPDEST PUSH20 0xFFFFFFFFFFFFFFFFFFFFFFFFFFFFFFFFFFFFFFFF AND PUSH4 0xCE862001 PUSH0 CALLER PUSH1 0x40 MLOAD DUP4 PUSH4 0xFFFFFFFF AND PUSH1 0xE0 SHL DUP2 MSTORE PUSH1 0x4 ADD PUSH2 0x660 SWAP3 SWAP2 SWAP1 PUSH2 0x2825 JUMP JUMPDEST PUSH1 0x20 PUSH1 0x40 MLOAD DUP1 DUP4 SUB DUP2 DUP7 GAS STATICCALL ISZERO DUP1 ISZERO PUSH2 0x67B JUMPI RETURNDATASIZE PUSH0 PUSH0 RETURNDATACOPY RETURNDATASIZE PUSH0 REVERT JUMPDEST POP POP POP POP PUSH1 0x40 MLOAD RETURNDATASIZE PUSH1 0x1F NOT PUSH1 0x1F DUP3 ADD AND DUP3 ADD DUP1 PUSH1 0x40 MSTORE POP DUP2 ADD SWAP1 PUSH2 0x69F SWAP2 SWAP1 PUSH2 0x2876 JUMP JUMPDEST PUSH2 0x6DE JUMPI PUSH1 0x40 MLOAD PUSH32 0x8C379A000000000000000000000000000000000000000000000000000000000 DUP2 MSTORE PUSH1 0x4 ADD PUSH2 0x6D5 SWAP1 PUSH2 0x28EB JUMP JUMPDEST PUSH1 0x40 MLOAD DUP1 SWAP2 SUB SWAP1 REVERT JUMPDEST PUSH1 0x1 PUSH1 0x5 PUSH0 DUP5 DUP2 MSTORE PUSH1 0x20 ADD SWAP1 DUP2 MSTORE PUSH1 0x20 ADD PUSH0 KECCAK256 PUSH1 0x1 ADD PUSH0 PUSH2 0x100 EXP DUP2 SLOAD DUP2 PUSH1 0xFF MUL NOT AND SWAP1 DUP4 PUSH1 0x1 DUP2 GT ISZERO PUSH2 0x715 JUMPI PUSH2 0x714 PUSH2 0x22C2 JUMP JUMPDEST JUMPDEST MUL OR SWAP1 SSTORE POP PUSH0 PUSH0 PUSH0 SWAP1 SLOAD SWAP1 PUSH2 0x100 EXP SWAP1 DIV PUSH20 0xFFFFFFFFFFFFFFFFFFFFFFFFFFFFFFFFFFFFFFFF AND PUSH20 0xFFFFFFFFFFFFFFFFFFFFFFFFFFFFFFFFFFFFFFFF AND PUSH4 0xBF40FAC1 PUSH1 0x40 MLOAD DUP1 PUSH1 0x40 ADD PUSH1 0x40 MSTORE DUP1 PUSH1 0x1A DUP2 MSTORE PUSH1 0x20 ADD PUSH32 0x52455345525645445F4D505F4D41524B45545F4D414E41474552000000000000 DUP2 MSTORE POP PUSH1 0x40 MLOAD DUP3 PUSH4 0xFFFFFFFF AND PUSH1 0xE0 SHL DUP2 MSTORE PUSH1 0x4 ADD PUSH2 0x7A9 SWAP2 SWAP1 PUSH2 0x24F4 JUMP JUMPDEST PUSH1 0x20 PUSH1 0x40 MLOAD DUP1 DUP4 SUB DUP2 DUP7 GAS STATICCALL ISZERO DUP1 ISZERO PUSH2 0x7C4 JUMPI RETURNDATASIZE PUSH0 PUSH0 RETURNDATACOPY RETURNDATASIZE PUSH0 REVERT JUMPDEST POP POP POP POP PUSH1 0x40 MLOAD RETURNDATASIZE PUSH1 0x1F NOT PUSH1 0x1F DUP3 ADD AND DUP3 ADD DUP1 PUSH1 0x40 MSTORE POP DUP2 ADD SWAP1 PUSH2 0x7E8 SWAP2 SWAP1 PUSH2 0x27A5 JUMP JUMPDEST SWAP1 POP PUSH0 PUSH0 DUP3 PUSH20 0xFFFFFFFFFFFFFFFFFFFFFFFFFFFFFFFFFFFFFFFF AND PUSH4 0x2D6CE61D PUSH1 0x5 PUSH0 DUP9 DUP2 MSTORE PUSH1 0x20 ADD SWAP1 DUP2 MSTORE PUSH1 0x20 ADD PUSH0 KECCAK256 PUSH1 0x8 ADD SLOAD DUP8 PUSH1 0x40 MLOAD DUP4 PUSH4 0xFFFFFFFF AND PUSH1 0xE0 SHL DUP2 MSTORE PUSH1 0x4 ADD PUSH2 0x83B SWAP3 SWAP2 SWAP1 PUSH2 0x276A JUMP JUMPDEST PUSH1 0x40 DUP1 MLOAD DUP1 DUP4 SUB DUP2 PUSH0 DUP8 GAS CALL ISZERO DUP1 ISZERO PUSH2 0x856 JUMPI RETURNDATASIZE PUSH0 PUSH0 RETURNDATACOPY RETURNDATASIZE PUSH0 REVERT JUMPDEST POP POP POP POP PUSH1 0x40 MLOAD RETURNDATASIZE PUSH1 0x1F NOT PUSH1 0x1F DUP3 ADD AND DUP3 ADD DUP1 PUSH1 0x40 MSTORE POP DUP2 ADD SWAP1 PUSH2 0x87A SWAP2 SWAP1 PUSH2 0x291D JUMP JUMPDEST SWAP2 POP SWAP2 POP PUSH1 0x7 PUSH0 DUP7 DUP2 MSTORE PUSH1 0x20 ADD SWAP1 DUP2 MSTORE PUSH1 0x20 ADD PUSH0 KECCAK256 DUP2 SWAP1 DUP1 PUSH1 0x1 DUP2 SLOAD ADD DUP1 DUP3 SSTORE DUP1 SWAP2 POP POP PUSH1 0x1 SWAP1 SUB SWAP1 PUSH0 MSTORE PUSH1 0x20 PUSH0 KECCAK256 ADD PUSH0 SWAP1 SWAP2 SWAP1 SWAP2 SWAP1 SWAP2 POP SSTORE PUSH2 0x911 PUSH1 0x5 PUSH0 DUP8 DUP2 MSTORE PUSH1 0x20 ADD SWAP1 DUP2 MSTORE PUSH1 0x20 ADD PUSH0 KECCAK256 PUSH1 0x4 ADD PUSH0 SWAP1 SLOAD SWAP1 PUSH2 0x100 EXP SWAP1 DIV PUSH20 0xFFFFFFFFFFFFFFFFFFFFFFFFFFFFFFFFFFFFFFFF AND DUP4 PUSH32 0x0 PUSH2 0x1AF2 JUMP JUMPDEST POP PUSH0 PUSH2 0x930 PUSH1 0x5 PUSH0 DUP9 DUP2 MSTORE PUSH1 0x20 ADD SWAP1 DUP2 MSTORE PUSH1 0x20 ADD PUSH0 KECCAK256 PUSH1 0x2 ADD SLOAD PUSH2 0x1C27 JUMP JUMPDEST SWAP1 POP PUSH0 DUP2 PUSH1 0x60 ADD MLOAD SWAP1 POP PUSH0 PUSH1 0x5 PUSH0 DUP10 DUP2 MSTORE PUSH1 0x20 ADD SWAP1 DUP2 MSTORE PUSH1 0x20 ADD PUSH0 KECCAK256 PUSH1 0x3 ADD SLOAD DUP6 PUSH2 0x95B SWAP2 SWAP1 PUSH2 0x2988 JUMP JUMPDEST SWAP1 POP PUSH20 0xEEEEEEEEEEEEEEEEEEEEEEEEEEEEEEEEEEEEEEEE PUSH20 0xFFFFFFFFFFFFFFFFFFFFFFFFFFFFFFFFFFFFFFFF AND PUSH1 0x5 PUSH0 DUP11 DUP2 MSTORE PUSH1 0x20 ADD SWAP1 DUP2 MSTORE PUSH1 0x20 ADD PUSH0 KECCAK256 PUSH1 0x4 ADD PUSH0 SWAP1 SLOAD SWAP1 PUSH2 0x100 EXP SWAP1 DIV PUSH20 0xFFFFFFFFFFFFFFFFFFFFFFFFFFFFFFFFFFFFFFFF AND PUSH20 0xFFFFFFFFFFFFFFFFFFFFFFFFFFFFFFFFFFFFFFFF AND SUB PUSH2 0xA70 JUMPI DUP2 PUSH20 0xFFFFFFFFFFFFFFFFFFFFFFFFFFFFFFFFFFFFFFFF AND PUSH4 0x9F08C755 DUP7 DUP11 PUSH1 0x5 PUSH0 DUP14 DUP2 MSTORE PUSH1 0x20 ADD SWAP1 DUP2 MSTORE PUSH1 0x20 ADD PUSH0 KECCAK256 PUSH1 0x3 ADD SLOAD DUP6 PUSH1 0x40 MLOAD DUP6 PUSH4 0xFFFFFFFF AND PUSH1 0xE0 SHL DUP2 MSTORE PUSH1 0x4 ADD PUSH2 0xA29 SWAP4 SWAP3 SWAP2 SWAP1 PUSH2 0x29BB JUMP JUMPDEST PUSH1 0x20 PUSH1 0x40 MLOAD DUP1 DUP4 SUB DUP2 DUP6 DUP9 GAS CALL ISZERO DUP1 ISZERO PUSH2 0xA45 JUMPI RETURNDATASIZE PUSH0 PUSH0 RETURNDATACOPY RETURNDATASIZE PUSH0 REVERT JUMPDEST POP POP POP POP POP PUSH1 0x40 MLOAD RETURNDATASIZE PUSH1 0x1F NOT PUSH1 0x1F DUP3 ADD AND DUP3 ADD DUP1 PUSH1 0x40 MSTORE POP DUP2 ADD SWAP1 PUSH2 0xA6A SWAP2 SWAP1 PUSH2 0x29F0 JUMP JUMPDEST POP PUSH2 0xBB7 JUMP JUMPDEST PUSH0 PUSH1 0x5 PUSH0 DUP11 DUP2 MSTORE PUSH1 0x20 ADD SWAP1 DUP2 MSTORE PUSH1 0x20 ADD PUSH0 KECCAK256 PUSH1 0x4 ADD PUSH0 SWAP1 SLOAD SWAP1 PUSH2 0x100 EXP SWAP1 DIV PUSH20 0xFFFFFFFFFFFFFFFFFFFFFFFFFFFFFFFFFFFFFFFF AND SWAP1 POP DUP1 PUSH20 0xFFFFFFFFFFFFFFFFFFFFFFFFFFFFFFFFFFFFFFFF AND PUSH4 0x95EA7B3 DUP5 DUP9 PUSH1 0x40 MLOAD DUP4 PUSH4 0xFFFFFFFF AND PUSH1 0xE0 SHL DUP2 MSTORE PUSH1 0x4 ADD PUSH2 0xAE2 SWAP3 SWAP2 SWAP1 PUSH2 0x2A1B JUMP JUMPDEST PUSH1 0x20 PUSH1 0x40 MLOAD DUP1 DUP4 SUB DUP2 PUSH0 DUP8 GAS CALL ISZERO DUP1 ISZERO PUSH2 0xAFE JUMPI RETURNDATASIZE PUSH0 PUSH0 RETURNDATACOPY RETURNDATASIZE PUSH0 REVERT JUMPDEST POP POP POP POP PUSH1 0x40 MLOAD RETURNDATASIZE PUSH1 0x1F NOT PUSH1 0x1F DUP3 ADD AND DUP3 ADD DUP1 PUSH1 0x40 MSTORE POP DUP2 ADD SWAP1 PUSH2 0xB22 SWAP2 SWAP1 PUSH2 0x2876 JUMP JUMPDEST POP DUP3 PUSH20 0xFFFFFFFFFFFFFFFFFFFFFFFFFFFFFFFFFFFFFFFF AND PUSH4 0x9F08C755 DUP11 PUSH1 0x5 PUSH0 DUP14 DUP2 MSTORE PUSH1 0x20 ADD SWAP1 DUP2 MSTORE PUSH1 0x20 ADD PUSH0 KECCAK256 PUSH1 0x3 ADD SLOAD DUP6 PUSH1 0x40 MLOAD DUP5 PUSH4 0xFFFFFFFF AND PUSH1 0xE0 SHL DUP2 MSTORE PUSH1 0x4 ADD PUSH2 0xB74 SWAP4 SWAP3 SWAP2 SWAP1 PUSH2 0x29BB JUMP JUMPDEST PUSH1 0x20 PUSH1 0x40 MLOAD DUP1 DUP4 SUB DUP2 PUSH0 DUP8 GAS CALL ISZERO DUP1 ISZERO PUSH2 0xB90 JUMPI RETURNDATASIZE PUSH0 PUSH0 RETURNDATACOPY RETURNDATASIZE PUSH0 REVERT JUMPDEST POP POP POP POP PUSH1 0x40 MLOAD RETURNDATASIZE PUSH1 0x1F NOT PUSH1 0x1F DUP3 ADD AND DUP3 ADD DUP1 PUSH1 0x40 MSTORE POP DUP2 ADD SWAP1 PUSH2 0xBB4 SWAP2 SWAP1 PUSH2 0x29F0 JUMP JUMPDEST POP POP JUMPDEST PUSH0 PUSH0 PUSH0 SWAP1 SLOAD SWAP1 PUSH2 0x100 EXP SWAP1 DIV PUSH20 0xFFFFFFFFFFFFFFFFFFFFFFFFFFFFFFFFFFFFFFFF AND PUSH20 0xFFFFFFFFFFFFFFFFFFFFFFFFFFFFFFFFFFFFFFFF AND PUSH4 0xBF40FAC1 PUSH1 0x40 MLOAD DUP1 PUSH1 0x40 ADD PUSH1 0x40 MSTORE DUP1 PUSH1 0x15 DUP2 MSTORE PUSH1 0x20 ADD PUSH32 0x52455345525645445F424F4E445F4D414E414745520000000000000000000000 DUP2 MSTORE POP PUSH1 0x40 MLOAD DUP3 PUSH4 0xFFFFFFFF AND PUSH1 0xE0 SHL DUP2 MSTORE PUSH1 0x4 ADD PUSH2 0xC46 SWAP2 SWAP1 PUSH2 0x24F4 JUMP JUMPDEST PUSH1 0x20 PUSH1 0x40 MLOAD DUP1 DUP4 SUB DUP2 DUP7 GAS STATICCALL ISZERO DUP1 ISZERO PUSH2 0xC61 JUMPI RETURNDATASIZE PUSH0 PUSH0 RETURNDATACOPY RETURNDATASIZE PUSH0 REVERT JUMPDEST POP POP POP POP PUSH1 0x40 MLOAD RETURNDATASIZE PUSH1 0x1F NOT PUSH1 0x1F DUP3 ADD AND DUP3 ADD DUP1 PUSH1 0x40 MSTORE POP DUP2 ADD SWAP1 PUSH2 0xC85 SWAP2 SWAP1 PUSH2 0x27A5 JUMP JUMPDEST PUSH20 0xFFFFFFFFFFFFFFFFFFFFFFFFFFFFFFFFFFFFFFFF AND PUSH4 0x12FE794 PUSH0 CALLER PUSH1 0x40 MLOAD DUP4 PUSH4 0xFFFFFFFF AND PUSH1 0xE0 SHL DUP2 MSTORE PUSH1 0x4 ADD PUSH2 0xCBF SWAP3 SWAP2 SWAP1 PUSH2 0x2825 JUMP JUMPDEST PUSH1 0xC0 PUSH1 0x40 MLOAD DUP1 DUP4 SUB DUP2 DUP7 GAS STATICCALL ISZERO DUP1 ISZERO PUSH2 0xCDA JUMPI RETURNDATASIZE PUSH0 PUSH0 RETURNDATACOPY RETURNDATASIZE PUSH0 REVERT JUMPDEST POP POP POP POP PUSH1 0x40 MLOAD RETURNDATASIZE PUSH1 0x1F NOT PUSH1 0x1F DUP3 ADD AND DUP3 ADD DUP1 PUSH1 0x40 MSTORE POP DUP2 ADD SWAP1 PUSH2 0xCFE SWAP2 SWAP1 PUSH2 0x2B7E JUMP JUMPDEST SWAP1 POP PUSH2 0xD6A PUSH1 0x8 PUSH0 DUP4 PUSH0 ADD MLOAD DUP2 MSTORE PUSH1 0x20 ADD SWAP1 DUP2 MSTORE PUSH1 0x20 ADD PUSH0 KECCAK256 DUP1 SLOAD DUP1 PUSH1 0x20 MUL PUSH1 0x20 ADD PUSH1 0x40 MLOAD SWAP1 DUP2 ADD PUSH1 0x40 MSTORE DUP1 SWAP3 SWAP2 SWAP1 DUP2 DUP2 MSTORE PUSH1 0x20 ADD DUP3 DUP1 SLOAD DUP1 ISZERO PUSH2 0xD5F JUMPI PUSH1 0x20 MUL DUP3 ADD SWAP2 SWAP1 PUSH0 MSTORE PUSH1 0x20 PUSH0 KECCAK256 SWAP1 JUMPDEST DUP2 SLOAD DUP2 MSTORE PUSH1 0x20 ADD SWAP1 PUSH1 0x1 ADD SWAP1 DUP1 DUP4 GT PUSH2 0xD4B JUMPI JUMPDEST POP POP POP POP POP DUP11 PUSH2 0x1D7B JUMP JUMPDEST PUSH1 0x8 PUSH0 DUP4 PUSH0 ADD MLOAD DUP2 MSTORE PUSH1 0x20 ADD SWAP1 DUP2 MSTORE PUSH1 0x20 ADD PUSH0 KECCAK256 SWAP1 DUP1 MLOAD SWAP1 PUSH1 0x20 ADD SWAP1 PUSH2 0xD91 SWAP3 SWAP2 SWAP1 PUSH2 0x205B JUMP JUMPDEST POP PUSH2 0xDE7 PUSH1 0x6 PUSH0 PUSH1 0x5 PUSH0 DUP14 DUP2 MSTORE PUSH1 0x20 ADD SWAP1 DUP2 MSTORE PUSH1 0x20 ADD PUSH0 KECCAK256 PUSH1 0x2 ADD SLOAD DUP10 PUSH1 0x5 PUSH0 DUP16 DUP2 MSTORE PUSH1 0x20 ADD SWAP1 DUP2 MSTORE PUSH1 0x20 ADD PUSH0 KECCAK256 PUSH1 0x4 ADD PUSH0 SWAP1 SLOAD SWAP1 PUSH2 0x100 EXP SWAP1 DIV PUSH20 0xFFFFFFFFFFFFFFFFFFFFFFFFFFFFFFFFFFFFFFFF AND PUSH2 0x1E58 JUMP JUMPDEST SWAP8 POP PUSH1 0x7 PUSH0 DUP11 DUP2 MSTORE PUSH1 0x20 ADD SWAP1 DUP2 MSTORE PUSH1 0x20 ADD PUSH0 KECCAK256 DUP9 SWAP1 DUP1 PUSH1 0x1 DUP2 SLOAD ADD DUP1 DUP3 SSTORE DUP1 SWAP2 POP POP PUSH1 0x1 SWAP1 SUB SWAP1 PUSH0 MSTORE PUSH1 0x20 PUSH0 KECCAK256 ADD PUSH0 SWAP1 SWAP2 SWAP1 SWAP2 SWAP1 SWAP2 POP SSTORE POP POP POP POP POP POP POP SWAP2 SWAP1 POP JUMP JUMPDEST PUSH0 PUSH0 PUSH0 SWAP1 SLOAD SWAP1 PUSH2 0x100 EXP SWAP1 DIV PUSH20 0xFFFFFFFFFFFFFFFFFFFFFFFFFFFFFFFFFFFFFFFF AND PUSH20 0xFFFFFFFFFFFFFFFFFFFFFFFFFFFFFFFFFFFFFFFF AND PUSH4 0xBF40FAC1 PUSH1 0x40 MLOAD DUP1 PUSH1 0x40 ADD PUSH1 0x40 MSTORE DUP1 PUSH1 0x11 DUP2 MSTORE PUSH1 0x20 ADD PUSH32 0x52455345525645445F4D505F41444D494E000000000000000000000000000000 DUP2 MSTORE POP PUSH1 0x40 MLOAD DUP3 PUSH4 0xFFFFFFFF AND PUSH1 0xE0 SHL DUP2 MSTORE PUSH1 0x4 ADD PUSH2 0xEB9 SWAP2 SWAP1 PUSH2 0x24F4 JUMP JUMPDEST PUSH1 0x20 PUSH1 0x40 MLOAD DUP1 DUP4 SUB DUP2 DUP7 GAS STATICCALL ISZERO DUP1 ISZERO PUSH2 0xED4 JUMPI RETURNDATASIZE PUSH0 PUSH0 RETURNDATACOPY RETURNDATASIZE PUSH0 REVERT JUMPDEST POP POP POP POP PUSH1 0x40 MLOAD RETURNDATASIZE PUSH1 0x1F NOT PUSH1 0x1F DUP3 ADD AND DUP3 ADD DUP1 PUSH1 0x40 MSTORE POP DUP2 ADD SWAP1 PUSH2 0xEF8 SWAP2 SWAP1 PUSH2 0x27A5 JUMP JUMPDEST PUSH20 0xFFFFFFFFFFFFFFFFFFFFFFFFFFFFFFFFFFFFFFFF AND CALLER PUSH20 0xFFFFFFFFFFFFFFFFFFFFFFFFFFFFFFFFFFFFFFFF AND EQ PUSH2 0xF65 JUMPI PUSH1 0x40 MLOAD PUSH32 0x8C379A000000000000000000000000000000000000000000000000000000000 DUP2 MSTORE PUSH1 0x4 ADD PUSH2 0xF5C SWAP1 PUSH2 0x2BF3 JUMP JUMPDEST PUSH1 0x40 MLOAD DUP1 SWAP2 SUB SWAP1 REVERT JUMPDEST PUSH0 PUSH0 SWAP1 SLOAD SWAP1 PUSH2 0x100 EXP SWAP1 DIV PUSH20 0xFFFFFFFFFFFFFFFFFFFFFFFFFFFFFFFFFFFFFFFF AND PUSH20 0xFFFFFFFFFFFFFFFFFFFFFFFFFFFFFFFFFFFFFFFF AND PUSH4 0xBF40FAC1 PUSH1 0x40 MLOAD DUP1 PUSH1 0x40 ADD PUSH1 0x40 MSTORE DUP1 PUSH1 0x14 DUP2 MSTORE PUSH1 0x20 ADD PUSH32 0x52455345525645445F4D505F5245474953544552000000000000000000000000 DUP2 MSTORE POP PUSH1 0x40 MLOAD DUP3 PUSH4 0xFFFFFFFF AND PUSH1 0xE0 SHL DUP2 MSTORE PUSH1 0x4 ADD PUSH2 0xFF3 SWAP2 SWAP1 PUSH2 0x24F4 JUMP JUMPDEST PUSH1 0x20 PUSH1 0x40 MLOAD DUP1 DUP4 SUB DUP2 DUP7 GAS STATICCALL ISZERO DUP1 ISZERO PUSH2 0x100E JUMPI RETURNDATASIZE PUSH0 PUSH0 RETURNDATACOPY RETURNDATASIZE PUSH0 REVERT JUMPDEST POP POP POP POP PUSH1 0x40 MLOAD RETURNDATASIZE PUSH1 0x1F NOT PUSH1 0x1F DUP3 ADD AND DUP3 ADD DUP1 PUSH1 0x40 MSTORE POP DUP2 ADD SWAP1 PUSH2 0x1032 SWAP2 SWAP1 PUSH2 0x27A5 JUMP JUMPDEST PUSH0 PUSH0 PUSH2 0x100 EXP DUP2 SLOAD DUP2 PUSH20 0xFFFFFFFFFFFFFFFFFFFFFFFFFFFFFFFFFFFFFFFF MUL NOT AND SWAP1 DUP4 PUSH20 0xFFFFFFFFFFFFFFFFFFFFFFFFFFFFFFFFFFFFFFFF AND MUL OR SWAP1 SSTORE POP PUSH1 0x1 SWAP1 POP SWAP1 JUMP JUMPDEST PUSH0 PUSH0 PUSH0 PUSH0 SWAP1 SLOAD SWAP1 PUSH2 0x100 EXP SWAP1 DIV PUSH20 0xFFFFFFFFFFFFFFFFFFFFFFFFFFFFFFFFFFFFFFFF AND PUSH20 0xFFFFFFFFFFFFFFFFFFFFFFFFFFFFFFFFFFFFFFFF AND PUSH4 0xBF40FAC1 PUSH1 0x40 MLOAD DUP1 PUSH1 0x40 ADD PUSH1 0x40 MSTORE DUP1 PUSH1 0x15 DUP2 MSTORE PUSH1 0x20 ADD PUSH32 0x52455345525645445F424F4E445F4D414E414745520000000000000000000000 DUP2 MSTORE POP PUSH1 0x40 MLOAD DUP3 PUSH4 0xFFFFFFFF AND PUSH1 0xE0 SHL DUP2 MSTORE PUSH1 0x4 ADD PUSH2 0x1107 SWAP2 SWAP1 PUSH2 0x24F4 JUMP JUMPDEST PUSH1 0x20 PUSH1 0x40 MLOAD DUP1 DUP4 SUB DUP2 DUP7 GAS STATICCALL ISZERO DUP1 ISZERO PUSH2 0x1122 JUMPI RETURNDATASIZE PUSH0 PUSH0 RETURNDATACOPY RETURNDATASIZE PUSH0 REVERT JUMPDEST POP POP POP POP PUSH1 0x40 MLOAD RETURNDATASIZE PUSH1 0x1F NOT PUSH1 0x1F DUP3 ADD AND DUP3 ADD DUP1 PUSH1 0x40 MSTORE POP DUP2 ADD SWAP1 PUSH2 0x1146 SWAP2 SWAP1 PUSH2 0x27A5 JUMP JUMPDEST PUSH20 0xFFFFFFFFFFFFFFFFFFFFFFFFFFFFFFFFFFFFFFFF AND PUSH4 0xCE862001 PUSH0 CALLER PUSH1 0x40 MLOAD DUP4 PUSH4 0xFFFFFFFF AND PUSH1 0xE0 SHL DUP2 MSTORE PUSH1 0x4 ADD PUSH2 0x1180 SWAP3 SWAP2 SWAP1 PUSH2 0x2825 JUMP JUMPDEST PUSH1 0x20 PUSH1 0x40 MLOAD DUP1 DUP4 SUB DUP2 DUP7 GAS STATICCALL ISZERO DUP1 ISZERO PUSH2 0x119B JUMPI RETURNDATASIZE PUSH0 PUSH0 RETURNDATACOPY RETURNDATASIZE PUSH0 REVERT JUMPDEST POP POP POP POP PUSH1 0x40 MLOAD RETURNDATASIZE PUSH1 0x1F NOT PUSH1 0x1F DUP3 ADD AND DUP3 ADD DUP1 PUSH1 0x40 MSTORE POP DUP2 ADD SWAP1 PUSH2 0x11BF SWAP2 SWAP1 PUSH2 0x2876 JUMP JUMPDEST PUSH2 0x11FE JUMPI PUSH1 0x40 MLOAD PUSH32 0x8C379A000000000000000000000000000000000000000000000000000000000 DUP2 MSTORE PUSH1 0x4 ADD PUSH2 0x11F5 SWAP1 PUSH2 0x28EB JUMP JUMPDEST PUSH1 0x40 MLOAD DUP1 SWAP2 SUB SWAP1 REVERT JUMPDEST PUSH0 PUSH2 0x1208 DUP6 PUSH2 0x1C27 JUMP JUMPDEST SWAP1 POP PUSH0 DUP2 PUSH1 0x60 ADD MLOAD SWAP1 POP PUSH2 0x121A PUSH2 0x1FD3 JUMP JUMPDEST SWAP4 POP PUSH1 0x4 DUP5 SWAP1 DUP1 PUSH1 0x1 DUP2 SLOAD ADD DUP1 DUP3 SSTORE DUP1 SWAP2 POP POP PUSH1 0x1 SWAP1 SUB SWAP1 PUSH0 MSTORE PUSH1 0x20 PUSH0 KECCAK256 ADD PUSH0 SWAP1 SWAP2 SWAP1 SWAP2 SWAP1 SWAP2 POP SSTORE PUSH0 PUSH0 PUSH0 SWAP1 SLOAD SWAP1 PUSH2 0x100 EXP SWAP1 DIV PUSH20 0xFFFFFFFFFFFFFFFFFFFFFFFFFFFFFFFFFFFFFFFF AND PUSH20 0xFFFFFFFFFFFFFFFFFFFFFFFFFFFFFFFFFFFFFFFF AND PUSH4 0xBF40FAC1 PUSH1 0x40 MLOAD DUP1 PUSH1 0x40 ADD PUSH1 0x40 MSTORE DUP1 PUSH1 0x15 DUP2 MSTORE PUSH1 0x20 ADD PUSH32 0x52455345525645445F424F4E445F4D414E414745520000000000000000000000 DUP2 MSTORE POP PUSH1 0x40 MLOAD DUP3 PUSH4 0xFFFFFFFF AND PUSH1 0xE0 SHL DUP2 MSTORE PUSH1 0x4 ADD PUSH2 0x12D1 SWAP2 SWAP1 PUSH2 0x24F4 JUMP JUMPDEST PUSH1 0x20 PUSH1 0x40 MLOAD DUP1 DUP4 SUB DUP2 DUP7 GAS STATICCALL ISZERO DUP1 ISZERO PUSH2 0x12EC JUMPI RETURNDATASIZE PUSH0 PUSH0 RETURNDATACOPY RETURNDATASIZE PUSH0 REVERT JUMPDEST POP POP POP POP PUSH1 0x40 MLOAD RETURNDATASIZE PUSH1 0x1F NOT PUSH1 0x1F DUP3 ADD AND DUP3 ADD DUP1 PUSH1 0x40 MSTORE POP DUP2 ADD SWAP1 PUSH2 0x1310 SWAP2 SWAP1 PUSH2 0x27A5 JUMP JUMPDEST PUSH20 0xFFFFFFFFFFFFFFFFFFFFFFFFFFFFFFFFFFFFFFFF AND PUSH4 0x12FE794 PUSH0 CALLER PUSH1 0x40 MLOAD DUP4 PUSH4 0xFFFFFFFF AND PUSH1 0xE0 SHL DUP2 MSTORE PUSH1 0x4 ADD PUSH2 0x134A SWAP3 SWAP2 SWAP1 PUSH2 0x2825 JUMP JUMPDEST PUSH1 0xC0 PUSH1 0x40 MLOAD DUP1 DUP4 SUB DUP2 DUP7 GAS STATICCALL ISZERO DUP1 ISZERO PUSH2 0x1365 JUMPI RETURNDATASIZE PUSH0 PUSH0 RETURNDATACOPY RETURNDATASIZE PUSH0 REVERT JUMPDEST POP POP POP POP PUSH1 0x40 MLOAD RETURNDATASIZE PUSH1 0x1F NOT PUSH1 0x1F DUP3 ADD AND DUP3 ADD DUP1 PUSH1 0x40 MSTORE POP DUP2 ADD SWAP1 PUSH2 0x1389 SWAP2 SWAP1 PUSH2 0x2B7E JUMP JUMPDEST SWAP1 POP PUSH1 0x8 PUSH0 DUP3 PUSH0 ADD MLOAD DUP2 MSTORE PUSH1 0x20 ADD SWAP1 DUP2 MSTORE PUSH1 0x20 ADD PUSH0 KECCAK256 DUP6 SWAP1 DUP1 PUSH1 0x1 DUP2 SLOAD ADD DUP1 DUP3 SSTORE DUP1 SWAP2 POP POP PUSH1 0x1 SWAP1 SUB SWAP1 PUSH0 MSTORE PUSH1 0x20 PUSH0 KECCAK256 ADD PUSH0 SWAP1 SWAP2 SWAP1 SWAP2 SWAP1 SWAP2 POP SSTORE PUSH0 PUSH0 DUP4 PUSH20 0xFFFFFFFFFFFFFFFFFFFFFFFFFFFFFFFFFFFFFFFF AND PUSH4 0x4D0392A8 DUP9 PUSH1 0x40 MLOAD DUP3 PUSH4 0xFFFFFFFF AND PUSH1 0xE0 SHL DUP2 MSTORE PUSH1 0x4 ADD PUSH2 0x13FE SWAP2 SWAP1 PUSH2 0x246B JUMP JUMPDEST PUSH1 0x40 DUP1 MLOAD DUP1 DUP4 SUB DUP2 PUSH0 DUP8 GAS CALL ISZERO DUP1 ISZERO PUSH2 0x1419 JUMPI RETURNDATASIZE PUSH0 PUSH0 RETURNDATACOPY RETURNDATASIZE PUSH0 REVERT JUMPDEST POP POP POP POP PUSH1 0x40 MLOAD RETURNDATASIZE PUSH1 0x1F NOT PUSH1 0x1F DUP3 ADD AND DUP3 ADD DUP1 PUSH1 0x40 MSTORE POP DUP2 ADD SWAP1 PUSH2 0x143D SWAP2 SWAP1 PUSH2 0x291D JUMP JUMPDEST SWAP2 POP SWAP2 POP PUSH1 0x7 PUSH0 DUP9 DUP2 MSTORE PUSH1 0x20 ADD SWAP1 DUP2 MSTORE PUSH1 0x20 ADD PUSH0 KECCAK256 DUP2 SWAP1 DUP1 PUSH1 0x1 DUP2 SLOAD ADD DUP1 DUP3 SSTORE DUP1 SWAP2 POP POP PUSH1 0x1 SWAP1 SUB SWAP1 PUSH0 MSTORE PUSH1 0x20 PUSH0 KECCAK256 ADD PUSH0 SWAP1 SWAP2 SWAP1 SWAP2 SWAP1 SWAP2 POP SSTORE PUSH0 PUSH0 PUSH0 SWAP1 SLOAD SWAP1 PUSH2 0x100 EXP SWAP1 DIV PUSH20 0xFFFFFFFFFFFFFFFFFFFFFFFFFFFFFFFFFFFFFFFF AND PUSH20 0xFFFFFFFFFFFFFFFFFFFFFFFFFFFFFFFFFFFFFFFF AND PUSH4 0xBF40FAC1 PUSH1 0x40 MLOAD DUP1 PUSH1 0x40 ADD PUSH1 0x40 MSTORE DUP1 PUSH1 0x1A DUP2 MSTORE PUSH1 0x20 ADD PUSH32 0x52455345525645445F4D505F4D41524B45545F4D414E41474552000000000000 DUP2 MSTORE POP PUSH1 0x40 MLOAD DUP3 PUSH4 0xFFFFFFFF AND PUSH1 0xE0 SHL DUP2 MSTORE PUSH1 0x4 ADD PUSH2 0x1505 SWAP2 SWAP1 PUSH2 0x24F4 JUMP JUMPDEST PUSH1 0x20 PUSH1 0x40 MLOAD DUP1 DUP4 SUB DUP2 DUP7 GAS STATICCALL ISZERO DUP1 ISZERO PUSH2 0x1520 JUMPI RETURNDATASIZE PUSH0 PUSH0 RETURNDATACOPY RETURNDATASIZE PUSH0 REVERT JUMPDEST POP POP POP POP PUSH1 0x40 MLOAD RETURNDATASIZE PUSH1 0x1F NOT PUSH1 0x1F DUP3 ADD AND DUP3 ADD DUP1 PUSH1 0x40 MSTORE POP DUP2 ADD SWAP1 PUSH2 0x1544 SWAP2 SWAP1 PUSH2 0x27A5 JUMP JUMPDEST SWAP1 POP PUSH0 DUP2 PUSH20 0xFFFFFFFFFFFFFFFFFFFFFFFFFFFFFFFFFFFFFFFF AND PUSH4 0xEB44FDD3 DUP12 PUSH1 0x40 MLOAD DUP3 PUSH4 0xFFFFFFFF AND PUSH1 0xE0 SHL DUP2 MSTORE PUSH1 0x4 ADD PUSH2 0x1580 SWAP2 SWAP1 PUSH2 0x246B JUMP JUMPDEST PUSH2 0x1C0 PUSH1 0x40 MLOAD DUP1 DUP4 SUB DUP2 DUP7 GAS STATICCALL ISZERO DUP1 ISZERO PUSH2 0x159C JUMPI RETURNDATASIZE PUSH0 PUSH0 RETURNDATACOPY RETURNDATASIZE PUSH0 REVERT JUMPDEST POP POP POP POP PUSH1 0x40 MLOAD RETURNDATASIZE PUSH1 0x1F NOT PUSH1 0x1F DUP3 ADD AND DUP3 ADD DUP1 PUSH1 0x40 MSTORE POP DUP2 ADD SWAP1 PUSH2 0x15C0 SWAP2 SWAP1 PUSH2 0x2D7F JUMP JUMPDEST SWAP1 POP PUSH2 0x15F1 DUP2 PUSH1 0x60 ADD MLOAD DUP6 PUSH32 0x0 PUSH2 0x1AF2 JUMP JUMPDEST POP PUSH20 0xEEEEEEEEEEEEEEEEEEEEEEEEEEEEEEEEEEEEEEEE PUSH20 0xFFFFFFFFFFFFFFFFFFFFFFFFFFFFFFFFFFFFFFFF AND DUP2 PUSH1 0x60 ADD MLOAD PUSH20 0xFFFFFFFFFFFFFFFFFFFFFFFFFFFFFFFFFFFFFFFF AND SUB PUSH2 0x16C2 JUMPI DUP2 PUSH20 0xFFFFFFFFFFFFFFFFFFFFFFFFFFFFFFFFFFFFFFFF AND PUSH4 0x5ECE09C5 DUP6 DUP12 DUP14 DUP9 PUSH1 0x40 MLOAD DUP6 PUSH4 0xFFFFFFFF AND PUSH1 0xE0 SHL DUP2 MSTORE PUSH1 0x4 ADD PUSH2 0x167B SWAP4 SWAP3 SWAP2 SWAP1 PUSH2 0x29BB JUMP JUMPDEST PUSH1 0x20 PUSH1 0x40 MLOAD DUP1 DUP4 SUB DUP2 DUP6 DUP9 GAS CALL ISZERO DUP1 ISZERO PUSH2 0x1697 JUMPI RETURNDATASIZE PUSH0 PUSH0 RETURNDATACOPY RETURNDATASIZE PUSH0 REVERT JUMPDEST POP POP POP POP POP PUSH1 0x40 MLOAD RETURNDATASIZE PUSH1 0x1F NOT PUSH1 0x1F DUP3 ADD AND DUP3 ADD DUP1 PUSH1 0x40 MSTORE POP DUP2 ADD SWAP1 PUSH2 0x16BC SWAP2 SWAP1 PUSH2 0x29F0 JUMP JUMPDEST POP PUSH2 0x17C6 JUMP JUMPDEST PUSH0 DUP2 PUSH1 0x60 ADD MLOAD SWAP1 POP DUP1 PUSH20 0xFFFFFFFFFFFFFFFFFFFFFFFFFFFFFFFFFFFFFFFF AND PUSH4 0x95EA7B3 DUP5 DUP8 PUSH1 0x40 MLOAD DUP4 PUSH4 0xFFFFFFFF AND PUSH1 0xE0 SHL DUP2 MSTORE PUSH1 0x4 ADD PUSH2 0x1705 SWAP3 SWAP2 SWAP1 PUSH2 0x2A1B JUMP JUMPDEST PUSH1 0x20 PUSH1 0x40 MLOAD DUP1 DUP4 SUB DUP2 PUSH0 DUP8 GAS CALL ISZERO DUP1 ISZERO PUSH2 0x1721 JUMPI RETURNDATASIZE PUSH0 PUSH0 RETURNDATACOPY RETURNDATASIZE PUSH0 REVERT JUMPDEST POP POP POP POP PUSH1 0x40 MLOAD RETURNDATASIZE PUSH1 0x1F NOT PUSH1 0x1F DUP3 ADD AND DUP3 ADD DUP1 PUSH1 0x40 MSTORE POP DUP2 ADD SWAP1 PUSH2 0x1745 SWAP2 SWAP1 PUSH2 0x2876 JUMP JUMPDEST POP DUP3 PUSH20 0xFFFFFFFFFFFFFFFFFFFFFFFFFFFFFFFFFFFFFFFF AND PUSH4 0x5ECE09C5 DUP12 DUP14 DUP9 PUSH1 0x40 MLOAD DUP5 PUSH4 0xFFFFFFFF AND PUSH1 0xE0 SHL DUP2 MSTORE PUSH1 0x4 ADD PUSH2 0x1783 SWAP4 SWAP3 SWAP2 SWAP1 PUSH2 0x29BB JUMP JUMPDEST PUSH1 0x20 PUSH1 0x40 MLOAD DUP1 DUP4 SUB DUP2 PUSH0 DUP8 GAS CALL ISZERO DUP1 ISZERO PUSH2 0x179F JUMPI RETURNDATASIZE PUSH0 PUSH0 RETURNDATACOPY RETURNDATASIZE PUSH0 REVERT JUMPDEST POP POP POP POP PUSH1 0x40 MLOAD RETURNDATASIZE PUSH1 0x1F NOT PUSH1 0x1F DUP3 ADD AND DUP3 ADD DUP1 PUSH1 0x40 MSTORE POP DUP2 ADD SWAP1 PUSH2 0x17C3 SWAP2 SWAP1 PUSH2 0x29F0 JUMP JUMPDEST POP POP JUMPDEST PUSH1 0x40 MLOAD DUP1 PUSH2 0x100 ADD PUSH1 0x40 MSTORE DUP1 DUP11 DUP2 MSTORE PUSH1 0x20 ADD PUSH0 PUSH1 0x1 DUP2 GT ISZERO PUSH2 0x17EB JUMPI PUSH2 0x17EA PUSH2 0x22C2 JUMP JUMPDEST JUMPDEST DUP2 MSTORE PUSH1 0x20 ADD DUP13 DUP2 MSTORE PUSH1 0x20 ADD DUP6 DUP2 MSTORE PUSH1 0x20 ADD DUP3 PUSH1 0x60 ADD MLOAD PUSH20 0xFFFFFFFFFFFFFFFFFFFFFFFFFFFFFFFFFFFFFFFF AND DUP2 MSTORE PUSH1 0x20 ADD TIMESTAMP DUP2 MSTORE PUSH1 0x20 ADD DUP9 PUSH1 0xC0 ADD MLOAD PUSH2 0x120 ADD MLOAD DUP2 MSTORE PUSH1 0x20 ADD DUP12 DUP2 MSTORE POP PUSH1 0x5 PUSH0 DUP12 DUP2 MSTORE PUSH1 0x20 ADD SWAP1 DUP2 MSTORE PUSH1 0x20 ADD PUSH0 KECCAK256 PUSH0 DUP3 ADD MLOAD DUP2 PUSH0 ADD SSTORE PUSH1 0x20 DUP3 ADD MLOAD DUP2 PUSH1 0x1 ADD PUSH0 PUSH2 0x100 EXP DUP2 SLOAD DUP2 PUSH1 0xFF MUL NOT AND SWAP1 DUP4 PUSH1 0x1 DUP2 GT ISZERO PUSH2 0x1878 JUMPI PUSH2 0x1877 PUSH2 0x22C2 JUMP JUMPDEST JUMPDEST MUL OR SWAP1 SSTORE POP PUSH1 0x40 DUP3 ADD MLOAD DUP2 PUSH1 0x2 ADD SSTORE PUSH1 0x60 DUP3 ADD MLOAD DUP2 PUSH1 0x3 ADD SSTORE PUSH1 0x80 DUP3 ADD MLOAD DUP2 PUSH1 0x4 ADD PUSH0 PUSH2 0x100 EXP DUP2 SLOAD DUP2 PUSH20 0xFFFFFFFFFFFFFFFFFFFFFFFFFFFFFFFFFFFFFFFF MUL NOT AND SWAP1 DUP4 PUSH20 0xFFFFFFFFFFFFFFFFFFFFFFFFFFFFFFFFFFFFFFFF AND MUL OR SWAP1 SSTORE POP PUSH1 0xA0 DUP3 ADD MLOAD DUP2 PUSH1 0x5 ADD SSTORE PUSH1 0xC0 DUP3 ADD MLOAD DUP2 PUSH1 0x6 ADD PUSH0 DUP3 ADD MLOAD DUP2 PUSH0 ADD SSTORE PUSH1 0x20 DUP3 ADD MLOAD DUP2 PUSH1 0x1 ADD SSTORE POP POP PUSH1 0xE0 DUP3 ADD MLOAD DUP2 PUSH1 0x8 ADD SSTORE SWAP1 POP POP DUP9 PUSH1 0x6 PUSH0 DUP14 DUP2 MSTORE PUSH1 0x20 ADD SWAP1 DUP2 MSTORE PUSH1 0x20 ADD PUSH0 KECCAK256 DUP2 SWAP1 SSTORE POP PUSH2 0x1933 PUSH1 0x5 PUSH0 DUP14 DUP8 DUP6 PUSH1 0x60 ADD MLOAD PUSH2 0x1E58 JUMP JUMPDEST SWAP8 POP PUSH1 0x7 PUSH0 DUP11 DUP2 MSTORE PUSH1 0x20 ADD SWAP1 DUP2 MSTORE PUSH1 0x20 ADD PUSH0 KECCAK256 DUP9 SWAP1 DUP1 PUSH1 0x1 DUP2 SLOAD ADD DUP1 DUP3 SSTORE DUP1 SWAP2 POP POP PUSH1 0x1 SWAP1 SUB SWAP1 PUSH0 MSTORE PUSH1 0x20 PUSH0 KECCAK256 ADD PUSH0 SWAP1 SWAP2 SWAP1 SWAP2 SWAP1 SWAP2 POP SSTORE POP POP POP POP POP POP POP SWAP3 POP SWAP3 SWAP1 POP JUMP JUMPDEST PUSH1 0x60 PUSH1 0x7 PUSH0 DUP4 DUP2 MSTORE PUSH1 0x20 ADD SWAP1 DUP2 MSTORE PUSH1 0x20 ADD PUSH0 KECCAK256 DUP1 SLOAD DUP1 PUSH1 0x20 MUL PUSH1 0x20 ADD PUSH1 0x40 MLOAD SWAP1 DUP2 ADD PUSH1 0x40 MSTORE DUP1 SWAP3 SWAP2 SWAP1 DUP2 DUP2 MSTORE PUSH1 0x20 ADD DUP3 DUP1 SLOAD DUP1 ISZERO PUSH2 0x19D3 JUMPI PUSH1 0x20 MUL DUP3 ADD SWAP2 SWAP1 PUSH0 MSTORE PUSH1 0x20 PUSH0 KECCAK256 SWAP1 JUMPDEST DUP2 SLOAD DUP2 MSTORE PUSH1 0x20 ADD SWAP1 PUSH1 0x1 ADD SWAP1 DUP1 DUP4 GT PUSH2 0x19BF JUMPI JUMPDEST POP POP POP POP POP SWAP1 POP SWAP2 SWAP1 POP JUMP JUMPDEST PUSH2 0x19E7 PUSH2 0x1FEF JUMP JUMPDEST PUSH1 0x5 PUSH0 DUP4 DUP2 MSTORE PUSH1 0x20 ADD SWAP1 DUP2 MSTORE PUSH1 0x20 ADD PUSH0 KECCAK256 PUSH1 0x40 MLOAD DUP1 PUSH2 0x100 ADD PUSH1 0x40 MSTORE SWAP1 DUP2 PUSH0 DUP3 ADD SLOAD DUP2 MSTORE PUSH1 0x20 ADD PUSH1 0x1 DUP3 ADD PUSH0 SWAP1 SLOAD SWAP1 PUSH2 0x100 EXP SWAP1 DIV PUSH1 0xFF AND PUSH1 0x1 DUP2 GT ISZERO PUSH2 0x1A31 JUMPI PUSH2 0x1A30 PUSH2 0x22C2 JUMP JUMPDEST JUMPDEST PUSH1 0x1 DUP2 GT ISZERO PUSH2 0x1A43 JUMPI PUSH2 0x1A42 PUSH2 0x22C2 JUMP JUMPDEST JUMPDEST DUP2 MSTORE PUSH1 0x20 ADD PUSH1 0x2 DUP3 ADD SLOAD DUP2 MSTORE PUSH1 0x20 ADD PUSH1 0x3 DUP3 ADD SLOAD DUP2 MSTORE PUSH1 0x20 ADD PUSH1 0x4 DUP3 ADD PUSH0 SWAP1 SLOAD SWAP1 PUSH2 0x100 EXP SWAP1 DIV PUSH20 0xFFFFFFFFFFFFFFFFFFFFFFFFFFFFFFFFFFFFFFFF AND PUSH20 0xFFFFFFFFFFFFFFFFFFFFFFFFFFFFFFFFFFFFFFFF AND PUSH20 0xFFFFFFFFFFFFFFFFFFFFFFFFFFFFFFFFFFFFFFFF AND DUP2 MSTORE PUSH1 0x20 ADD PUSH1 0x5 DUP3 ADD SLOAD DUP2 MSTORE PUSH1 0x20 ADD PUSH1 0x6 DUP3 ADD PUSH1 0x40 MLOAD DUP1 PUSH1 0x40 ADD PUSH1 0x40 MSTORE SWAP1 DUP2 PUSH0 DUP3 ADD SLOAD DUP2 MSTORE PUSH1 0x20 ADD PUSH1 0x1 DUP3 ADD SLOAD DUP2 MSTORE POP POP DUP2 MSTORE PUSH1 0x20 ADD PUSH1 0x8 DUP3 ADD SLOAD DUP2 MSTORE POP POP SWAP1 POP SWAP2 SWAP1 POP JUMP JUMPDEST PUSH0 PUSH20 0xEEEEEEEEEEEEEEEEEEEEEEEEEEEEEEEEEEEEEEEE PUSH20 0xFFFFFFFFFFFFFFFFFFFFFFFFFFFFFFFFFFFFFFFF AND DUP5 PUSH20 0xFFFFFFFFFFFFFFFFFFFFFFFFFFFFFFFFFFFFFFFF AND SUB PUSH2 0x1B82 JUMPI DUP3 CALLVALUE LT ISZERO PUSH2 0x1B7D JUMPI PUSH1 0x40 MLOAD PUSH32 0x8C379A000000000000000000000000000000000000000000000000000000000 DUP2 MSTORE PUSH1 0x4 ADD PUSH2 0x1B74 SWAP1 PUSH2 0x2DF5 JUMP JUMPDEST PUSH1 0x40 MLOAD DUP1 SWAP2 SUB SWAP1 REVERT JUMPDEST PUSH2 0x1C06 JUMP JUMPDEST PUSH0 DUP5 SWAP1 POP DUP1 PUSH20 0xFFFFFFFFFFFFFFFFFFFFFFFFFFFFFFFFFFFFFFFF AND PUSH4 0x23B872DD CALLER DUP6 DUP8 PUSH1 0x40 MLOAD DUP5 PUSH4 0xFFFFFFFF AND PUSH1 0xE0 SHL DUP2 MSTORE PUSH1 0x4 ADD PUSH2 0x1BC3 SWAP4 SWAP3 SWAP2 SWAP1 PUSH2 0x2E13 JUMP JUMPDEST PUSH1 0x20 PUSH1 0x40 MLOAD DUP1 DUP4 SUB DUP2 PUSH0 DUP8 GAS CALL ISZERO DUP1 ISZERO PUSH2 0x1BDF JUMPI RETURNDATASIZE PUSH0 PUSH0 RETURNDATACOPY RETURNDATASIZE PUSH0 REVERT JUMPDEST POP POP POP POP PUSH1 0x40 MLOAD RETURNDATASIZE PUSH1 0x1F NOT PUSH1 0x1F DUP3 ADD AND DUP3 ADD DUP1 PUSH1 0x40 MSTORE POP DUP2 ADD SWAP1 PUSH2 0x1C03 SWAP2 SWAP1 PUSH2 0x2876 JUMP JUMPDEST POP POP JUMPDEST DUP2 PUSH20 0xFFFFFFFFFFFFFFFFFFFFFFFFFFFFFFFFFFFFFFFF AND BALANCE SWAP1 POP SWAP4 SWAP3 POP POP POP JUMP JUMPDEST PUSH2 0x1C2F PUSH2 0x20A6 JUMP JUMPDEST PUSH0 PUSH0 SWAP1 SLOAD SWAP1 PUSH2 0x100 EXP SWAP1 DIV PUSH20 0xFFFFFFFFFFFFFFFFFFFFFFFFFFFFFFFFFFFFFFFF AND PUSH20 0xFFFFFFFFFFFFFFFFFFFFFFFFFFFFFFFFFFFFFFFF AND PUSH4 0xBF40FAC1 PUSH1 0x40 MLOAD DUP1 PUSH1 0x40 ADD PUSH1 0x40 MSTORE DUP1 PUSH1 0x20 DUP2 MSTORE PUSH1 0x20 ADD PUSH32 0x52455345525645445F4D4544414C4C494F4E5F50454E53494F4E535F434F5245 DUP2 MSTORE POP PUSH1 0x40 MLOAD DUP3 PUSH4 0xFFFFFFFF AND PUSH1 0xE0 SHL DUP2 MSTORE PUSH1 0x4 ADD PUSH2 0x1CBD SWAP2 SWAP1 PUSH2 0x24F4 JUMP JUMPDEST PUSH1 0x20 PUSH1 0x40 MLOAD DUP1 DUP4 SUB DUP2 DUP7 GAS STATICCALL ISZERO DUP1 ISZERO PUSH2 0x1CD8 JUMPI RETURNDATASIZE PUSH0 PUSH0 RETURNDATACOPY RETURNDATASIZE PUSH0 REVERT JUMPDEST POP POP POP POP PUSH1 0x40 MLOAD RETURNDATASIZE PUSH1 0x1F NOT PUSH1 0x1F DUP3 ADD AND DUP3 ADD DUP1 PUSH1 0x40 MSTORE POP DUP2 ADD SWAP1 PUSH2 0x1CFC SWAP2 SWAP1 PUSH2 0x27A5 JUMP JUMPDEST PUSH20 0xFFFFFFFFFFFFFFFFFFFFFFFFFFFFFFFFFFFFFFFF AND PUSH4 0x77BDFDF2 DUP4 PUSH1 0x40 MLOAD DUP3 PUSH4 0xFFFFFFFF AND PUSH1 0xE0 SHL DUP2 MSTORE PUSH1 0x4 ADD PUSH2 0x1D34 SWAP2 SWAP1 PUSH2 0x246B JUMP JUMPDEST PUSH2 0x3C0 PUSH1 0x40 MLOAD DUP1 DUP4 SUB DUP2 DUP7 GAS STATICCALL ISZERO DUP1 ISZERO PUSH2 0x1D50 JUMPI RETURNDATASIZE PUSH0 PUSH0 RETURNDATACOPY RETURNDATASIZE PUSH0 REVERT JUMPDEST POP POP POP POP PUSH1 0x40 MLOAD RETURNDATASIZE PUSH1 0x1F NOT PUSH1 0x1F DUP3 ADD AND DUP3 ADD DUP1 PUSH1 0x40 MSTORE POP DUP2 ADD SWAP1 PUSH2 0x1D74 SWAP2 SWAP1 PUSH2 0x313C JUMP JUMPDEST SWAP1 POP SWAP2 SWAP1 POP JUMP JUMPDEST PUSH1 0x60 PUSH1 0x1 DUP4 MLOAD PUSH2 0x1D8B SWAP2 SWAP1 PUSH2 0x2988 JUMP JUMPDEST PUSH8 0xFFFFFFFFFFFFFFFF DUP2 GT ISZERO PUSH2 0x1DA4 JUMPI PUSH2 0x1DA3 PUSH2 0x2A46 JUMP JUMPDEST JUMPDEST PUSH1 0x40 MLOAD SWAP1 DUP1 DUP3 MSTORE DUP1 PUSH1 0x20 MUL PUSH1 0x20 ADD DUP3 ADD PUSH1 0x40 MSTORE DUP1 ISZERO PUSH2 0x1DD2 JUMPI DUP2 PUSH1 0x20 ADD PUSH1 0x20 DUP3 MUL DUP1 CALLDATASIZE DUP4 CALLDATACOPY DUP1 DUP3 ADD SWAP2 POP POP SWAP1 POP JUMPDEST POP SWAP1 POP PUSH0 PUSH0 SWAP1 POP PUSH0 PUSH0 SWAP1 POP JUMPDEST DUP5 MLOAD DUP2 LT ISZERO PUSH2 0x1E50 JUMPI DUP4 DUP6 DUP3 DUP2 MLOAD DUP2 LT PUSH2 0x1DFB JUMPI PUSH2 0x1DFA PUSH2 0x3168 JUMP JUMPDEST JUMPDEST PUSH1 0x20 MUL PUSH1 0x20 ADD ADD MLOAD EQ PUSH2 0x1E43 JUMPI DUP5 DUP2 DUP2 MLOAD DUP2 LT PUSH2 0x1E1B JUMPI PUSH2 0x1E1A PUSH2 0x3168 JUMP JUMPDEST JUMPDEST PUSH1 0x20 MUL PUSH1 0x20 ADD ADD MLOAD DUP4 DUP4 DUP2 MLOAD DUP2 LT PUSH2 0x1E36 JUMPI PUSH2 0x1E35 PUSH2 0x3168 JUMP JUMPDEST JUMPDEST PUSH1 0x20 MUL PUSH1 0x20 ADD ADD DUP2 DUP2 MSTORE POP POP JUMPDEST DUP1 DUP1 PUSH1 0x1 ADD SWAP2 POP POP PUSH2 0x1DDE JUMP JUMPDEST POP POP SWAP3 SWAP2 POP POP JUMP JUMPDEST PUSH0 PUSH0 PUSH0 SWAP1 SLOAD SWAP1 PUSH2 0x100 EXP SWAP1 DIV PUSH20 0xFFFFFFFFFFFFFFFFFFFFFFFFFFFFFFFFFFFFFFFF AND PUSH20 0xFFFFFFFFFFFFFFFFFFFFFFFFFFFFFFFFFFFFFFFF AND PUSH4 0xBF40FAC1 PUSH1 0x40 MLOAD DUP1 PUSH1 0x40 ADD PUSH1 0x40 MSTORE DUP1 PUSH1 0x16 DUP2 MSTORE PUSH1 0x20 ADD PUSH32 0x52455345525645445F4D505F54585F4D414E4147455200000000000000000000 DUP2 MSTORE POP PUSH1 0x40 MLOAD DUP3 PUSH4 0xFFFFFFFF AND PUSH1 0xE0 SHL DUP2 MSTORE PUSH1 0x4 ADD PUSH2 0x1EE7 SWAP2 SWAP1 PUSH2 0x24F4 JUMP JUMPDEST PUSH1 0x20 PUSH1 0x40 MLOAD DUP1 DUP4 SUB DUP2 DUP7 GAS STATICCALL ISZERO DUP1 ISZERO PUSH2 0x1F02 JUMPI RETURNDATASIZE PUSH0 PUSH0 RETURNDATACOPY RETURNDATASIZE PUSH0 REVERT JUMPDEST POP POP POP POP PUSH1 0x40 MLOAD RETURNDATASIZE PUSH1 0x1F NOT PUSH1 0x1F DUP3 ADD AND DUP3 ADD DUP1 PUSH1 0x40 MSTORE POP DUP2 ADD SWAP1 PUSH2 0x1F26 SWAP2 SWAP1 PUSH2 0x27A5 JUMP JUMPDEST PUSH20 0xFFFFFFFFFFFFFFFFFFFFFFFFFFFFFFFFFFFFFFFF AND PUSH4 0xEE16E639 DUP8 DUP8 DUP8 PUSH32 0x0 DUP9 DUP9 PUSH1 0x40 MLOAD DUP8 PUSH4 0xFFFFFFFF AND PUSH1 0xE0 SHL DUP2 MSTORE PUSH1 0x4 ADD PUSH2 0x1F88 SWAP7 SWAP6 SWAP5 SWAP4 SWAP3 SWAP2 SWAP1 PUSH2 0x3221 JUMP JUMPDEST PUSH1 0x20 PUSH1 0x40 MLOAD DUP1 DUP4 SUB DUP2 PUSH0 DUP8 GAS CALL ISZERO DUP1 ISZERO PUSH2 0x1FA4 JUMPI RETURNDATASIZE PUSH0 PUSH0 RETURNDATACOPY RETURNDATASIZE PUSH0 REVERT JUMPDEST POP POP POP POP PUSH1 0x40 MLOAD RETURNDATASIZE PUSH1 0x1F NOT PUSH1 0x1F DUP3 ADD AND DUP3 ADD DUP1 PUSH1 0x40 MSTORE POP DUP2 ADD SWAP1 PUSH2 0x1FC8 SWAP2 SWAP1 PUSH2 0x29F0 JUMP JUMPDEST SWAP1 POP SWAP6 SWAP5 POP POP POP POP POP JUMP JUMPDEST PUSH0 PUSH1 0x3 PUSH0 DUP2 SLOAD DUP1 SWAP3 SWAP2 SWAP1 PUSH2 0x1FE6 SWAP1 PUSH2 0x3280 JUMP JUMPDEST SWAP2 SWAP1 POP SSTORE SWAP1 POP SWAP1 JUMP JUMPDEST PUSH1 0x40 MLOAD DUP1 PUSH2 0x100 ADD PUSH1 0x40 MSTORE DUP1 PUSH0 DUP2 MSTORE PUSH1 0x20 ADD PUSH0 PUSH1 0x1 DUP2 GT ISZERO PUSH2 0x2014 JUMPI PUSH2 0x2013 PUSH2 0x22C2 JUMP JUMPDEST JUMPDEST DUP2 MSTORE PUSH1 0x20 ADD PUSH0 DUP2 MSTORE PUSH1 0x20 ADD PUSH0 DUP2 MSTORE PUSH1 0x20 ADD PUSH0 PUSH20 0xFFFFFFFFFFFFFFFFFFFFFFFFFFFFFFFFFFFFFFFF AND DUP2 MSTORE PUSH1 0x20 ADD PUSH0 DUP2 MSTORE PUSH1 0x20 ADD PUSH2 0x204F PUSH2 0x2125 JUMP JUMPDEST DUP2 MSTORE PUSH1 0x20 ADD PUSH0 DUP2 MSTORE POP SWAP1 JUMP JUMPDEST DUP3 DUP1 SLOAD DUP3 DUP3 SSTORE SWAP1 PUSH0 MSTORE PUSH1 0x20 PUSH0 KECCAK256 SWAP1 DUP2 ADD SWAP3 DUP3 ISZERO PUSH2 0x2095 JUMPI SWAP2 PUSH1 0x20 MUL DUP3 ADD JUMPDEST DUP3 DUP2 GT ISZERO PUSH2 0x2094 JUMPI DUP3 MLOAD DUP3 SSTORE SWAP2 PUSH1 0x20 ADD SWAP2 SWAP1 PUSH1 0x1 ADD SWAP1 PUSH2 0x2079 JUMP JUMPDEST JUMPDEST POP SWAP1 POP PUSH2 0x20A2 SWAP2 SWAP1 PUSH2 0x213D JUMP JUMPDEST POP SWAP1 JUMP JUMPDEST PUSH1 0x40 MLOAD DUP1 PUSH1 0xE0 ADD PUSH1 0x40 MSTORE DUP1 PUSH0 DUP2 MSTORE PUSH1 0x20 ADD PUSH0 PUSH20 0xFFFFFFFFFFFFFFFFFFFFFFFFFFFFFFFFFFFFFFFF AND DUP2 MSTORE PUSH1 0x20 ADD PUSH0 PUSH20 0xFFFFFFFFFFFFFFFFFFFFFFFFFFFFFFFFFFFFFFFF AND DUP2 MSTORE PUSH1 0x20 ADD PUSH0 PUSH20 0xFFFFFFFFFFFFFFFFFFFFFFFFFFFFFFFFFFFFFFFF AND DUP2 MSTORE PUSH1 0x20 ADD PUSH0 DUP2 MSTORE PUSH1 0x20 ADD PUSH0 DUP2 MSTORE PUSH1 0x20 ADD PUSH2 0x211F PUSH2 0x2158 JUMP JUMPDEST DUP2 MSTORE POP SWAP1 JUMP JUMPDEST PUSH1 0x40 MLOAD DUP1 PUSH1 0x40 ADD PUSH1 0x40 MSTORE DUP1 PUSH0 DUP2 MSTORE PUSH1 0x20 ADD PUSH0 DUP2 MSTORE POP SWAP1 JUMP JUMPDEST JUMPDEST DUP1 DUP3 GT ISZERO PUSH2 0x2154 JUMPI PUSH0 DUP2 PUSH0 SWAP1 SSTORE POP PUSH1 0x1 ADD PUSH2 0x213E JUMP JUMPDEST POP SWAP1 JUMP JUMPDEST PUSH1 0x40 MLOAD DUP1 PUSH2 0x1A0 ADD PUSH1 0x40 MSTORE DUP1 PUSH0 DUP2 MSTORE PUSH1 0x20 ADD PUSH0 PUSH20 0xFFFFFFFFFFFFFFFFFFFFFFFFFFFFFFFFFFFFFFFF AND DUP2 MSTORE PUSH1 0x20 ADD PUSH0 PUSH20 0xFFFFFFFFFFFFFFFFFFFFFFFFFFFFFFFFFFFFFFFF AND DUP2 MSTORE PUSH1 0x20 ADD PUSH0 DUP2 MSTORE PUSH1 0x20 ADD PUSH0 DUP2 MSTORE PUSH1 0x20 ADD PUSH0 DUP2 MSTORE PUSH1 0x20 ADD PUSH0 PUSH1 0x2 DUP2 GT ISZERO PUSH2 0x21C7 JUMPI PUSH2 0x21C6 PUSH2 0x22C2 JUMP JUMPDEST JUMPDEST DUP2 MSTORE PUSH1 0x20 ADD PUSH2 0x21D4 PUSH2 0x2206 JUMP JUMPDEST DUP2 MSTORE PUSH1 0x20 ADD PUSH2 0x21E1 PUSH2 0x2206 JUMP JUMPDEST DUP2 MSTORE PUSH1 0x20 ADD PUSH2 0x21EE PUSH2 0x2125 JUMP JUMPDEST DUP2 MSTORE PUSH1 0x20 ADD PUSH0 DUP2 MSTORE PUSH1 0x20 ADD PUSH0 DUP2 MSTORE PUSH1 0x20 ADD PUSH0 DUP2 MSTORE POP SWAP1 JUMP JUMPDEST PUSH1 0x40 MLOAD DUP1 PUSH1 0xC0 ADD PUSH1 0x40 MSTORE DUP1 PUSH0 PUSH1 0x3 DUP2 GT ISZERO PUSH2 0x2224 JUMPI PUSH2 0x2223 PUSH2 0x22C2 JUMP JUMPDEST JUMPDEST DUP2 MSTORE PUSH1 0x20 ADD PUSH0 DUP2 MSTORE PUSH1 0x20 ADD PUSH0 DUP2 MSTORE PUSH1 0x20 ADD PUSH0 DUP2 MSTORE PUSH1 0x20 ADD PUSH0 DUP2 MSTORE PUSH1 0x20 ADD PUSH0 DUP2 MSTORE POP SWAP1 JUMP JUMPDEST PUSH0 PUSH1 0x40 MLOAD SWAP1 POP SWAP1 JUMP JUMPDEST PUSH0 PUSH0 REVERT JUMPDEST PUSH0 DUP2 SWAP1 POP SWAP2 SWAP1 POP JUMP JUMPDEST PUSH2 0x2267 DUP2 PUSH2 0x2255 JUMP JUMPDEST DUP2 EQ PUSH2 0x2271 JUMPI PUSH0 PUSH0 REVERT JUMPDEST POP JUMP JUMPDEST PUSH0 DUP2 CALLDATALOAD SWAP1 POP PUSH2 0x2282 DUP2 PUSH2 0x225E JUMP JUMPDEST SWAP3 SWAP2 POP POP JUMP JUMPDEST PUSH0 PUSH1 0x20 DUP3 DUP5 SUB SLT ISZERO PUSH2 0x229D JUMPI PUSH2 0x229C PUSH2 0x2251 JUMP JUMPDEST JUMPDEST PUSH0 PUSH2 0x22AA DUP5 DUP3 DUP6 ADD PUSH2 0x2274 JUMP JUMPDEST SWAP2 POP POP SWAP3 SWAP2 POP POP JUMP JUMPDEST PUSH2 0x22BC DUP2 PUSH2 0x2255 JUMP JUMPDEST DUP3 MSTORE POP POP JUMP JUMPDEST PUSH32 0x4E487B7100000000000000000000000000000000000000000000000000000000 PUSH0 MSTORE PUSH1 0x21 PUSH1 0x4 MSTORE PUSH1 0x24 PUSH0 REVERT JUMPDEST PUSH1 0x2 DUP2 LT PUSH2 0x2300 JUMPI PUSH2 0x22FF PUSH2 0x22C2 JUMP JUMPDEST JUMPDEST POP JUMP JUMPDEST PUSH0 DUP2 SWAP1 POP PUSH2 0x2310 DUP3 PUSH2 0x22EF JUMP JUMPDEST SWAP2 SWAP1 POP JUMP JUMPDEST PUSH0 PUSH2 0x231F DUP3 PUSH2 0x2303 JUMP JUMPDEST SWAP1 POP SWAP2 SWAP1 POP JUMP JUMPDEST PUSH2 0x232F DUP2 PUSH2 0x2315 JUMP JUMPDEST DUP3 MSTORE POP POP JUMP JUMPDEST PUSH0 PUSH20 0xFFFFFFFFFFFFFFFFFFFFFFFFFFFFFFFFFFFFFFFF DUP3 AND SWAP1 POP SWAP2 SWAP1 POP JUMP JUMPDEST PUSH0 PUSH2 0x235E DUP3 PUSH2 0x2335 JUMP JUMPDEST SWAP1 POP SWAP2 SWAP1 POP JUMP JUMPDEST PUSH2 0x236E DUP2 PUSH2 0x2354 JUMP JUMPDEST DUP3 MSTORE POP POP JUMP JUMPDEST PUSH1 0x40 DUP3 ADD PUSH0 DUP3 ADD MLOAD PUSH2 0x2388 PUSH0 DUP6 ADD DUP3 PUSH2 0x22B3 JUMP JUMPDEST POP PUSH1 0x20 DUP3 ADD MLOAD PUSH2 0x239B PUSH1 0x20 DUP6 ADD DUP3 PUSH2 0x22B3 JUMP JUMPDEST POP POP POP POP JUMP JUMPDEST PUSH2 0x120 DUP3 ADD PUSH0 DUP3 ADD MLOAD PUSH2 0x23B6 PUSH0 DUP6 ADD DUP3 PUSH2 0x22B3 JUMP JUMPDEST POP PUSH1 0x20 DUP3 ADD MLOAD PUSH2 0x23C9 PUSH1 0x20 DUP6 ADD DUP3 PUSH2 0x2326 JUMP JUMPDEST POP PUSH1 0x40 DUP3 ADD MLOAD PUSH2 0x23DC PUSH1 0x40 DUP6 ADD DUP3 PUSH2 0x22B3 JUMP JUMPDEST POP PUSH1 0x60 DUP3 ADD MLOAD PUSH2 0x23EF PUSH1 0x60 DUP6 ADD DUP3 PUSH2 0x22B3 JUMP JUMPDEST POP PUSH1 0x80 DUP3 ADD MLOAD PUSH2 0x2402 PUSH1 0x80 DUP6 ADD DUP3 PUSH2 0x2365 JUMP JUMPDEST POP PUSH1 0xA0 DUP3 ADD MLOAD PUSH2 0x2415 PUSH1 0xA0 DUP6 ADD DUP3 PUSH2 0x22B3 JUMP JUMPDEST POP PUSH1 0xC0 DUP3 ADD MLOAD PUSH2 0x2428 PUSH1 0xC0 DUP6 ADD DUP3 PUSH2 0x2374 JUMP JUMPDEST POP PUSH1 0xE0 DUP3 ADD MLOAD PUSH2 0x243C PUSH2 0x100 DUP6 ADD DUP3 PUSH2 0x22B3 JUMP JUMPDEST POP POP POP POP JUMP JUMPDEST PUSH0 PUSH2 0x120 DUP3 ADD SWAP1 POP PUSH2 0x2456 PUSH0 DUP4 ADD DUP5 PUSH2 0x23A1 JUMP JUMPDEST SWAP3 SWAP2 POP POP JUMP JUMPDEST PUSH2 0x2465 DUP2 PUSH2 0x2255 JUMP JUMPDEST DUP3 MSTORE POP POP JUMP JUMPDEST PUSH0 PUSH1 0x20 DUP3 ADD SWAP1 POP PUSH2 0x247E PUSH0 DUP4 ADD DUP5 PUSH2 0x245C JUMP JUMPDEST SWAP3 SWAP2 POP POP JUMP JUMPDEST PUSH0 DUP2 MLOAD SWAP1 POP SWAP2 SWAP1 POP JUMP JUMPDEST PUSH0 DUP3 DUP3 MSTORE PUSH1 0x20 DUP3 ADD SWAP1 POP SWAP3 SWAP2 POP POP JUMP JUMPDEST DUP3 DUP2 DUP4 MCOPY PUSH0 DUP4 DUP4 ADD MSTORE POP POP POP JUMP JUMPDEST PUSH0 PUSH1 0x1F NOT PUSH1 0x1F DUP4 ADD AND SWAP1 POP SWAP2 SWAP1 POP JUMP JUMPDEST PUSH0 PUSH2 0x24C6 DUP3 PUSH2 0x2484 JUMP JUMPDEST PUSH2 0x24D0 DUP2 DUP6 PUSH2 0x248E JUMP JUMPDEST SWAP4 POP PUSH2 0x24E0 DUP2 DUP6 PUSH1 0x20 DUP7 ADD PUSH2 0x249E JUMP JUMPDEST PUSH2 0x24E9 DUP2 PUSH2 0x24AC JUMP JUMPDEST DUP5 ADD SWAP2 POP POP SWAP3 SWAP2 POP POP JUMP JUMPDEST PUSH0 PUSH1 0x20 DUP3 ADD SWAP1 POP DUP2 DUP2 SUB PUSH0 DUP4 ADD MSTORE PUSH2 0x250C DUP2 DUP5 PUSH2 0x24BC JUMP JUMPDEST SWAP1 POP SWAP3 SWAP2 POP POP JUMP JUMPDEST PUSH0 DUP2 MLOAD SWAP1 POP SWAP2 SWAP1 POP JUMP JUMPDEST PUSH0 DUP3 DUP3 MSTORE PUSH1 0x20 DUP3 ADD SWAP1 POP SWAP3 SWAP2 POP POP JUMP JUMPDEST PUSH0 DUP2 SWAP1 POP PUSH1 0x20 DUP3 ADD SWAP1 POP SWAP2 SWAP1 POP JUMP JUMPDEST PUSH0 PUSH2 0x2548 DUP4 DUP4 PUSH2 0x22B3 JUMP JUMPDEST PUSH1 0x20 DUP4 ADD SWAP1 POP SWAP3 SWAP2 POP POP JUMP JUMPDEST PUSH0 PUSH1 0x20 DUP3 ADD SWAP1 POP SWAP2 SWAP1 POP JUMP JUMPDEST PUSH0 PUSH2 0x256A DUP3 PUSH2 0x2514 JUMP JUMPDEST PUSH2 0x2574 DUP2 DUP6 PUSH2 0x251E JUMP JUMPDEST SWAP4 POP PUSH2 0x257F DUP4 PUSH2 0x252E JUMP JUMPDEST DUP1 PUSH0 JUMPDEST DUP4 DUP2 LT ISZERO PUSH2 0x25AF JUMPI DUP2 MLOAD PUSH2 0x2596 DUP9 DUP3 PUSH2 0x253D JUMP JUMPDEST SWAP8 POP PUSH2 0x25A1 DUP4 PUSH2 0x2554 JUMP JUMPDEST SWAP3 POP POP PUSH1 0x1 DUP2 ADD SWAP1 POP PUSH2 0x2582 JUMP JUMPDEST POP DUP6 SWAP4 POP POP POP POP SWAP3 SWAP2 POP POP JUMP JUMPDEST PUSH0 PUSH1 0x20 DUP3 ADD SWAP1 POP DUP2 DUP2 SUB PUSH0 DUP4 ADD MSTORE PUSH2 0x25D4 DUP2 DUP5 PUSH2 0x2560 JUMP JUMPDEST SWAP1 POP SWAP3 SWAP2 POP POP JUMP JUMPDEST PUSH0 DUP2 ISZERO ISZERO SWAP1 POP SWAP2 SWAP1 POP JUMP JUMPDEST PUSH2 0x25F0 DUP2 PUSH2 0x25DC JUMP JUMPDEST DUP3 MSTORE POP POP JUMP JUMPDEST PUSH0 PUSH1 0x20 DUP3 ADD SWAP1 POP PUSH2 0x2609 PUSH0 DUP4 ADD DUP5 PUSH2 0x25E7 JUMP JUMPDEST SWAP3 SWAP2 POP POP JUMP JUMPDEST PUSH2 0x2618 DUP2 PUSH2 0x2354 JUMP JUMPDEST DUP2 EQ PUSH2 0x2622 JUMPI PUSH0 PUSH0 REVERT JUMPDEST POP JUMP JUMPDEST PUSH0 DUP2 CALLDATALOAD SWAP1 POP PUSH2 0x2633 DUP2 PUSH2 0x260F JUMP JUMPDEST SWAP3 SWAP2 POP POP JUMP JUMPDEST PUSH0 PUSH1 0x20 DUP3 DUP5 SUB SLT ISZERO PUSH2 0x264E JUMPI PUSH2 0x264D PUSH2 0x2251 JUMP JUMPDEST JUMPDEST PUSH0 PUSH2 0x265B DUP5 DUP3 DUP6 ADD PUSH2 0x2625 JUMP JUMPDEST SWAP2 POP POP SWAP3 SWAP2 POP POP JUMP JUMPDEST PUSH0 DUP2 MLOAD SWAP1 POP SWAP2 SWAP1 POP JUMP JUMPDEST PUSH0 DUP3 DUP3 MSTORE PUSH1 0x20 DUP3 ADD SWAP1 POP SWAP3 SWAP2 POP POP JUMP JUMPDEST PUSH0 DUP2 SWAP1 POP PUSH1 0x20 DUP3 ADD SWAP1 POP SWAP2 SWAP1 POP JUMP JUMPDEST PUSH0 PUSH2 0x2698 DUP4 DUP4 PUSH2 0x2365 JUMP JUMPDEST PUSH1 0x20 DUP4 ADD SWAP1 POP SWAP3 SWAP2 POP POP JUMP JUMPDEST PUSH0 PUSH1 0x20 DUP3 ADD SWAP1 POP SWAP2 SWAP1 POP JUMP JUMPDEST PUSH0 PUSH2 0x26BA DUP3 PUSH2 0x2664 JUMP JUMPDEST PUSH2 0x26C4 DUP2 DUP6 PUSH2 0x266E JUMP JUMPDEST SWAP4 POP PUSH2 0x26CF DUP4 PUSH2 0x267E JUMP JUMPDEST DUP1 PUSH0 JUMPDEST DUP4 DUP2 LT ISZERO PUSH2 0x26FF JUMPI DUP2 MLOAD PUSH2 0x26E6 DUP9 DUP3 PUSH2 0x268D JUMP JUMPDEST SWAP8 POP PUSH2 0x26F1 DUP4 PUSH2 0x26A4 JUMP JUMPDEST SWAP3 POP POP PUSH1 0x1 DUP2 ADD SWAP1 POP PUSH2 0x26D2 JUMP JUMPDEST POP DUP6 SWAP4 POP POP POP POP SWAP3 SWAP2 POP POP JUMP JUMPDEST PUSH0 PUSH1 0x20 DUP3 ADD SWAP1 POP DUP2 DUP2 SUB PUSH0 DUP4 ADD MSTORE PUSH2 0x2724 DUP2 DUP5 PUSH2 0x26B0 JUMP JUMPDEST SWAP1 POP SWAP3 SWAP2 POP POP JUMP JUMPDEST PUSH0 PUSH0 PUSH1 0x40 DUP4 DUP6 SUB SLT ISZERO PUSH2 0x2742 JUMPI PUSH2 0x2741 PUSH2 0x2251 JUMP JUMPDEST JUMPDEST PUSH0 PUSH2 0x274F DUP6 DUP3 DUP7 ADD PUSH2 0x2274 JUMP JUMPDEST SWAP3 POP POP PUSH1 0x20 PUSH2 0x2760 DUP6 DUP3 DUP7 ADD PUSH2 0x2274 JUMP JUMPDEST SWAP2 POP POP SWAP3 POP SWAP3 SWAP1 POP JUMP JUMPDEST PUSH0 PUSH1 0x40 DUP3 ADD SWAP1 POP PUSH2 0x277D PUSH0 DUP4 ADD DUP6 PUSH2 0x245C JUMP JUMPDEST PUSH2 0x278A PUSH1 0x20 DUP4 ADD DUP5 PUSH2 0x245C JUMP JUMPDEST SWAP4 SWAP3 POP POP POP JUMP JUMPDEST PUSH0 DUP2 MLOAD SWAP1 POP PUSH2 0x279F DUP2 PUSH2 0x260F JUMP JUMPDEST SWAP3 SWAP2 POP POP JUMP JUMPDEST PUSH0 PUSH1 0x20 DUP3 DUP5 SUB SLT ISZERO PUSH2 0x27BA JUMPI PUSH2 0x27B9 PUSH2 0x2251 JUMP JUMPDEST JUMPDEST PUSH0 PUSH2 0x27C7 DUP5 DUP3 DUP6 ADD PUSH2 0x2791 JUMP JUMPDEST SWAP2 POP POP SWAP3 SWAP2 POP POP JUMP JUMPDEST PUSH1 0x2 DUP2 LT PUSH2 0x27E1 JUMPI PUSH2 0x27E0 PUSH2 0x22C2 JUMP JUMPDEST JUMPDEST POP JUMP JUMPDEST PUSH0 DUP2 SWAP1 POP PUSH2 0x27F1 DUP3 PUSH2 0x27D0 JUMP JUMPDEST SWAP2 SWAP1 POP JUMP JUMPDEST PUSH0 PUSH2 0x2800 DUP3 PUSH2 0x27E4 JUMP JUMPDEST SWAP1 POP SWAP2 SWAP1 POP JUMP JUMPDEST PUSH2 0x2810 DUP2 PUSH2 0x27F6 JUMP JUMPDEST DUP3 MSTORE POP POP JUMP JUMPDEST PUSH2 0x281F DUP2 PUSH2 0x2354 JUMP JUMPDEST DUP3 MSTORE POP POP JUMP JUMPDEST PUSH0 PUSH1 0x40 DUP3 ADD SWAP1 POP PUSH2 0x2838 PUSH0 DUP4 ADD DUP6 PUSH2 0x2807 JUMP JUMPDEST PUSH2 0x2845 PUSH1 0x20 DUP4 ADD DUP5 PUSH2 0x2816 JUMP JUMPDEST SWAP4 SWAP3 POP POP POP JUMP JUMPDEST PUSH2 0x2855 DUP2 PUSH2 0x25DC JUMP JUMPDEST DUP2 EQ PUSH2 0x285F JUMPI PUSH0 PUSH0 REVERT JUMPDEST POP JUMP JUMPDEST PUSH0 DUP2 MLOAD SWAP1 POP PUSH2 0x2870 DUP2 PUSH2 0x284C JUMP JUMPDEST SWAP3 SWAP2 POP POP JUMP JUMPDEST PUSH0 PUSH1 0x20 DUP3 DUP5 SUB SLT ISZERO PUSH2 0x288B JUMPI PUSH2 0x288A PUSH2 0x2251 JUMP JUMPDEST JUMPDEST PUSH0 PUSH2 0x2898 DUP5 DUP3 DUP6 ADD PUSH2 0x2862 JUMP JUMPDEST SWAP2 POP POP SWAP3 SWAP2 POP POP JUMP JUMPDEST PUSH32 0x6E6F20747265617375727920626F6E6400000000000000000000000000000000 PUSH0 DUP3 ADD MSTORE POP JUMP JUMPDEST PUSH0 PUSH2 0x28D5 PUSH1 0x10 DUP4 PUSH2 0x248E JUMP JUMPDEST SWAP2 POP PUSH2 0x28E0 DUP3 PUSH2 0x28A1 JUMP JUMPDEST PUSH1 0x20 DUP3 ADD SWAP1 POP SWAP2 SWAP1 POP JUMP JUMPDEST PUSH0 PUSH1 0x20 DUP3 ADD SWAP1 POP DUP2 DUP2 SUB PUSH0 DUP4 ADD MSTORE PUSH2 0x2902 DUP2 PUSH2 0x28C9 JUMP JUMPDEST SWAP1 POP SWAP2 SWAP1 POP JUMP JUMPDEST PUSH0 DUP2 MLOAD SWAP1 POP PUSH2 0x2917 DUP2 PUSH2 0x225E JUMP JUMPDEST SWAP3 SWAP2 POP POP JUMP JUMPDEST PUSH0 PUSH0 PUSH1 0x40 DUP4 DUP6 SUB SLT ISZERO PUSH2 0x2933 JUMPI PUSH2 0x2932 PUSH2 0x2251 JUMP JUMPDEST JUMPDEST PUSH0 PUSH2 0x2940 DUP6 DUP3 DUP7 ADD PUSH2 0x2909 JUMP JUMPDEST SWAP3 POP POP PUSH1 0x20 PUSH2 0x2951 DUP6 DUP3 DUP7 ADD PUSH2 0x2909 JUMP JUMPDEST SWAP2 POP POP SWAP3 POP SWAP3 SWAP1 POP JUMP JUMPDEST PUSH32 0x4E487B7100000000000000000000000000000000000000000000000000000000 PUSH0 MSTORE PUSH1 0x11 PUSH1 0x4 MSTORE PUSH1 0x24 PUSH0 REVERT JUMPDEST PUSH0 PUSH2 0x2992 DUP3 PUSH2 0x2255 JUMP JUMPDEST SWAP2 POP PUSH2 0x299D DUP4 PUSH2 0x2255 JUMP JUMPDEST SWAP3 POP DUP3 DUP3 SUB SWAP1 POP DUP2 DUP2 GT ISZERO PUSH2 0x29B5 JUMPI PUSH2 0x29B4 PUSH2 0x295B JUMP JUMPDEST JUMPDEST SWAP3 SWAP2 POP POP JUMP JUMPDEST PUSH0 PUSH1 0x60 DUP3 ADD SWAP1 POP PUSH2 0x29CE PUSH0 DUP4 ADD DUP7 PUSH2 0x245C JUMP JUMPDEST PUSH2 0x29DB PUSH1 0x20 DUP4 ADD DUP6 PUSH2 0x245C JUMP JUMPDEST PUSH2 0x29E8 PUSH1 0x40 DUP4 ADD DUP5 PUSH2 0x245C JUMP JUMPDEST SWAP5 SWAP4 POP POP POP POP JUMP JUMPDEST PUSH0 PUSH1 0x20 DUP3 DUP5 SUB SLT ISZERO PUSH2 0x2A05 JUMPI PUSH2 0x2A04 PUSH2 0x2251 JUMP JUMPDEST JUMPDEST PUSH0 PUSH2 0x2A12 DUP5 DUP3 DUP6 ADD PUSH2 0x2909 JUMP JUMPDEST SWAP2 POP POP SWAP3 SWAP2 POP POP JUMP JUMPDEST PUSH0 PUSH1 0x40 DUP3 ADD SWAP1 POP PUSH2 0x2A2E PUSH0 DUP4 ADD DUP6 PUSH2 0x2816 JUMP JUMPDEST PUSH2 0x2A3B PUSH1 0x20 DUP4 ADD DUP5 PUSH2 0x245C JUMP JUMPDEST SWAP4 SWAP3 POP POP POP JUMP JUMPDEST PUSH0 PUSH0 REVERT JUMPDEST PUSH32 0x4E487B7100000000000000000000000000000000000000000000000000000000 PUSH0 MSTORE PUSH1 0x41 PUSH1 0x4 MSTORE PUSH1 0x24 PUSH0 REVERT JUMPDEST PUSH2 0x2A7C DUP3 PUSH2 0x24AC JUMP JUMPDEST DUP2 ADD DUP2 DUP2 LT PUSH8 0xFFFFFFFFFFFFFFFF DUP3 GT OR ISZERO PUSH2 0x2A9B JUMPI PUSH2 0x2A9A PUSH2 0x2A46 JUMP JUMPDEST JUMPDEST DUP1 PUSH1 0x40 MSTORE POP POP POP JUMP JUMPDEST PUSH0 PUSH2 0x2AAD PUSH2 0x2248 JUMP JUMPDEST SWAP1 POP PUSH2 0x2AB9 DUP3 DUP3 PUSH2 0x2A73 JUMP JUMPDEST SWAP2 SWAP1 POP JUMP JUMPDEST PUSH1 0x2 DUP2 LT PUSH2 0x2ACA JUMPI PUSH0 PUSH0 REVERT JUMPDEST POP JUMP JUMPDEST PUSH0 DUP2 MLOAD SWAP1 POP PUSH2 0x2ADB DUP2 PUSH2 0x2ABE JUMP JUMPDEST SWAP3 SWAP2 POP POP JUMP JUMPDEST PUSH0 PUSH1 0xC0 DUP3 DUP5 SUB SLT ISZERO PUSH2 0x2AF6 JUMPI PUSH2 0x2AF5 PUSH2 0x2A42 JUMP JUMPDEST JUMPDEST PUSH2 0x2B00 PUSH1 0xC0 PUSH2 0x2AA4 JUMP JUMPDEST SWAP1 POP PUSH0 PUSH2 0x2B0F DUP5 DUP3 DUP6 ADD PUSH2 0x2909 JUMP JUMPDEST PUSH0 DUP4 ADD MSTORE POP PUSH1 0x20 PUSH2 0x2B22 DUP5 DUP3 DUP6 ADD PUSH2 0x2791 JUMP JUMPDEST PUSH1 0x20 DUP4 ADD MSTORE POP PUSH1 0x40 PUSH2 0x2B36 DUP5 DUP3 DUP6 ADD PUSH2 0x2909 JUMP JUMPDEST PUSH1 0x40 DUP4 ADD MSTORE POP PUSH1 0x60 PUSH2 0x2B4A DUP5 DUP3 DUP6 ADD PUSH2 0x2791 JUMP JUMPDEST PUSH1 0x60 DUP4 ADD MSTORE POP PUSH1 0x80 PUSH2 0x2B5E DUP5 DUP3 DUP6 ADD PUSH2 0x2909 JUMP JUMPDEST PUSH1 0x80 DUP4 ADD MSTORE POP PUSH1 0xA0 PUSH2 0x2B72 DUP5 DUP3 DUP6 ADD PUSH2 0x2ACD JUMP JUMPDEST PUSH1 0xA0 DUP4 ADD MSTORE POP SWAP3 SWAP2 POP POP JUMP JUMPDEST PUSH0 PUSH1 0xC0 DUP3 DUP5 SUB SLT ISZERO PUSH2 0x2B93 JUMPI PUSH2 0x2B92 PUSH2 0x2251 JUMP JUMPDEST JUMPDEST PUSH0 PUSH2 0x2BA0 DUP5 DUP3 DUP6 ADD PUSH2 0x2AE1 JUMP JUMPDEST SWAP2 POP POP SWAP3 SWAP2 POP POP JUMP JUMPDEST PUSH32 0x6D6564616C696F6E207065656E73696F6E732061646D696E206F6E6C79000000 PUSH0 DUP3 ADD MSTORE POP JUMP JUMPDEST PUSH0 PUSH2 0x2BDD PUSH1 0x1D DUP4 PUSH2 0x248E JUMP JUMPDEST SWAP2 POP PUSH2 0x2BE8 DUP3 PUSH2 0x2BA9 JUMP JUMPDEST PUSH1 0x20 DUP3 ADD SWAP1 POP SWAP2 SWAP1 POP JUMP JUMPDEST PUSH0 PUSH1 0x20 DUP3 ADD SWAP1 POP DUP2 DUP2 SUB PUSH0 DUP4 ADD MSTORE PUSH2 0x2C0A DUP2 PUSH2 0x2BD1 JUMP JUMPDEST SWAP1 POP SWAP2 SWAP1 POP JUMP JUMPDEST PUSH1 0x3 DUP2 LT PUSH2 0x2C1D JUMPI PUSH0 PUSH0 REVERT JUMPDEST POP JUMP JUMPDEST PUSH0 DUP2 MLOAD SWAP1 POP PUSH2 0x2C2E DUP2 PUSH2 0x2C11 JUMP JUMPDEST SWAP3 SWAP2 POP POP JUMP JUMPDEST PUSH0 PUSH2 0x1C0 DUP3 DUP5 SUB SLT ISZERO PUSH2 0x2C4A JUMPI PUSH2 0x2C49 PUSH2 0x2A42 JUMP JUMPDEST JUMPDEST PUSH2 0x2C55 PUSH2 0x1C0 PUSH2 0x2AA4 JUMP JUMPDEST SWAP1 POP PUSH0 PUSH2 0x2C64 DUP5 DUP3 DUP6 ADD PUSH2 0x2909 JUMP JUMPDEST PUSH0 DUP4 ADD MSTORE POP PUSH1 0x20 PUSH2 0x2C77 DUP5 DUP3 DUP6 ADD PUSH2 0x2791 JUMP JUMPDEST PUSH1 0x20 DUP4 ADD MSTORE POP PUSH1 0x40 PUSH2 0x2C8B DUP5 DUP3 DUP6 ADD PUSH2 0x2C20 JUMP JUMPDEST PUSH1 0x40 DUP4 ADD MSTORE POP PUSH1 0x60 PUSH2 0x2C9F DUP5 DUP3 DUP6 ADD PUSH2 0x2791 JUMP JUMPDEST PUSH1 0x60 DUP4 ADD MSTORE POP PUSH1 0x80 PUSH2 0x2CB3 DUP5 DUP3 DUP6 ADD PUSH2 0x2791 JUMP JUMPDEST PUSH1 0x80 DUP4 ADD MSTORE POP PUSH1 0xA0 PUSH2 0x2CC7 DUP5 DUP3 DUP6 ADD PUSH2 0x2909 JUMP JUMPDEST PUSH1 0xA0 DUP4 ADD MSTORE POP PUSH1 0xC0 PUSH2 0x2CDB DUP5 DUP3 DUP6 ADD PUSH2 0x2909 JUMP JUMPDEST PUSH1 0xC0 DUP4 ADD MSTORE POP PUSH1 0xE0 PUSH2 0x2CEF DUP5 DUP3 DUP6 ADD PUSH2 0x2909 JUMP JUMPDEST PUSH1 0xE0 DUP4 ADD MSTORE POP PUSH2 0x100 PUSH2 0x2D04 DUP5 DUP3 DUP6 ADD PUSH2 0x2909 JUMP JUMPDEST PUSH2 0x100 DUP4 ADD MSTORE POP PUSH2 0x120 PUSH2 0x2D1A DUP5 DUP3 DUP6 ADD PUSH2 0x2909 JUMP JUMPDEST PUSH2 0x120 DUP4 ADD MSTORE POP PUSH2 0x140 PUSH2 0x2D30 DUP5 DUP3 DUP6 ADD PUSH2 0x2909 JUMP JUMPDEST PUSH2 0x140 DUP4 ADD MSTORE POP PUSH2 0x160 PUSH2 0x2D46 DUP5 DUP3 DUP6 ADD PUSH2 0x2909 JUMP JUMPDEST PUSH2 0x160 DUP4 ADD MSTORE POP PUSH2 0x180 PUSH2 0x2D5C DUP5 DUP3 DUP6 ADD PUSH2 0x2909 JUMP JUMPDEST PUSH2 0x180 DUP4 ADD MSTORE POP PUSH2 0x1A0 PUSH2 0x2D72 DUP5 DUP3 DUP6 ADD PUSH2 0x2909 JUMP JUMPDEST PUSH2 0x1A0 DUP4 ADD MSTORE POP SWAP3 SWAP2 POP POP JUMP JUMPDEST PUSH0 PUSH2 0x1C0 DUP3 DUP5 SUB SLT ISZERO PUSH2 0x2D95 JUMPI PUSH2 0x2D94 PUSH2 0x2251 JUMP JUMPDEST JUMPDEST PUSH0 PUSH2 0x2DA2 DUP5 DUP3 DUP6 ADD PUSH2 0x2C34 JUMP JUMPDEST SWAP2 POP POP SWAP3 SWAP2 POP POP JUMP JUMPDEST PUSH32 0x636F6E747269627574696F6E206D69732D6D6174636800000000000000000000 PUSH0 DUP3 ADD MSTORE POP JUMP JUMPDEST PUSH0 PUSH2 0x2DDF PUSH1 0x16 DUP4 PUSH2 0x248E JUMP JUMPDEST SWAP2 POP PUSH2 0x2DEA DUP3 PUSH2 0x2DAB JUMP JUMPDEST PUSH1 0x20 DUP3 ADD SWAP1 POP SWAP2 SWAP1 POP JUMP JUMPDEST PUSH0 PUSH1 0x20 DUP3 ADD SWAP1 POP DUP2 DUP2 SUB PUSH0 DUP4 ADD MSTORE PUSH2 0x2E0C DUP2 PUSH2 0x2DD3 JUMP JUMPDEST SWAP1 POP SWAP2 SWAP1 POP JUMP JUMPDEST PUSH0 PUSH1 0x60 DUP3 ADD SWAP1 POP PUSH2 0x2E26 PUSH0 DUP4 ADD DUP7 PUSH2 0x2816 JUMP JUMPDEST PUSH2 0x2E33 PUSH1 0x20 DUP4 ADD DUP6 PUSH2 0x2816 JUMP JUMPDEST PUSH2 0x2E40 PUSH1 0x40 DUP4 ADD DUP5 PUSH2 0x245C JUMP JUMPDEST SWAP5 SWAP4 POP POP POP POP JUMP JUMPDEST PUSH1 0x4 DUP2 LT PUSH2 0x2E54 JUMPI PUSH0 PUSH0 REVERT JUMPDEST POP JUMP JUMPDEST PUSH0 DUP2 MLOAD SWAP1 POP PUSH2 0x2E65 DUP2 PUSH2 0x2E48 JUMP JUMPDEST SWAP3 SWAP2 POP POP JUMP JUMPDEST PUSH0 PUSH1 0xC0 DUP3 DUP5 SUB SLT ISZERO PUSH2 0x2E80 JUMPI PUSH2 0x2E7F PUSH2 0x2A42 JUMP JUMPDEST JUMPDEST PUSH2 0x2E8A PUSH1 0xC0 PUSH2 0x2AA4 JUMP JUMPDEST SWAP1 POP PUSH0 PUSH2 0x2E99 DUP5 DUP3 DUP6 ADD PUSH2 0x2E57 JUMP JUMPDEST PUSH0 DUP4 ADD MSTORE POP PUSH1 0x20 PUSH2 0x2EAC DUP5 DUP3 DUP6 ADD PUSH2 0x2909 JUMP JUMPDEST PUSH1 0x20 DUP4 ADD MSTORE POP PUSH1 0x40 PUSH2 0x2EC0 DUP5 DUP3 DUP6 ADD PUSH2 0x2909 JUMP JUMPDEST PUSH1 0x40 DUP4 ADD MSTORE POP PUSH1 0x60 PUSH2 0x2ED4 DUP5 DUP3 DUP6 ADD PUSH2 0x2909 JUMP JUMPDEST PUSH1 0x60 DUP4 ADD MSTORE POP PUSH1 0x80 PUSH2 0x2EE8 DUP5 DUP3 DUP6 ADD PUSH2 0x2909 JUMP JUMPDEST PUSH1 0x80 DUP4 ADD MSTORE POP PUSH1 0xA0 PUSH2 0x2EFC DUP5 DUP3 DUP6 ADD PUSH2 0x2909 JUMP JUMPDEST PUSH1 0xA0 DUP4 ADD MSTORE POP SWAP3 SWAP2 POP POP JUMP JUMPDEST PUSH0 PUSH1 0x40 DUP3 DUP5 SUB SLT ISZERO PUSH2 0x2F1D JUMPI PUSH2 0x2F1C PUSH2 0x2A42 JUMP JUMPDEST JUMPDEST PUSH2 0x2F27 PUSH1 0x40 PUSH2 0x2AA4 JUMP JUMPDEST SWAP1 POP PUSH0 PUSH2 0x2F36 DUP5 DUP3 DUP6 ADD PUSH2 0x2909 JUMP JUMPDEST PUSH0 DUP4 ADD MSTORE POP PUSH1 0x20 PUSH2 0x2F49 DUP5 DUP3 DUP6 ADD PUSH2 0x2909 JUMP JUMPDEST PUSH1 0x20 DUP4 ADD MSTORE POP SWAP3 SWAP2 POP POP JUMP JUMPDEST PUSH0 PUSH2 0x300 DUP3 DUP5 SUB SLT ISZERO PUSH2 0x2F6B JUMPI PUSH2 0x2F6A PUSH2 0x2A42 JUMP JUMPDEST JUMPDEST PUSH2 0x2F76 PUSH2 0x1A0 PUSH2 0x2AA4 JUMP JUMPDEST SWAP1 POP PUSH0 PUSH2 0x2F85 DUP5 DUP3 DUP6 ADD PUSH2 0x2909 JUMP JUMPDEST PUSH0 DUP4 ADD MSTORE POP PUSH1 0x20 PUSH2 0x2F98 DUP5 DUP3 DUP6 ADD PUSH2 0x2791 JUMP JUMPDEST PUSH1 0x20 DUP4 ADD MSTORE POP PUSH1 0x40 PUSH2 0x2FAC DUP5 DUP3 DUP6 ADD PUSH2 0x2791 JUMP JUMPDEST PUSH1 0x40 DUP4 ADD MSTORE POP PUSH1 0x60 PUSH2 0x2FC0 DUP5 DUP3 DUP6 ADD PUSH2 0x2909 JUMP JUMPDEST PUSH1 0x60 DUP4 ADD MSTORE POP PUSH1 0x80 PUSH2 0x2FD4 DUP5 DUP3 DUP6 ADD PUSH2 0x2909 JUMP JUMPDEST PUSH1 0x80 DUP4 ADD MSTORE POP PUSH1 0xA0 PUSH2 0x2FE8 DUP5 DUP3 DUP6 ADD PUSH2 0x2909 JUMP JUMPDEST PUSH1 0xA0 DUP4 ADD MSTORE POP PUSH1 0xC0 PUSH2 0x2FFC DUP5 DUP3 DUP6 ADD PUSH2 0x2C20 JUMP JUMPDEST PUSH1 0xC0 DUP4 ADD MSTORE POP PUSH1 0xE0 PUSH2 0x3010 DUP5 DUP3 DUP6 ADD PUSH2 0x2E6B JUMP JUMPDEST PUSH1 0xE0 DUP4 ADD MSTORE POP PUSH2 0x1A0 PUSH2 0x3025 DUP5 DUP3 DUP6 ADD PUSH2 0x2E6B JUMP JUMPDEST PUSH2 0x100 DUP4 ADD MSTORE POP PUSH2 0x260 PUSH2 0x303B DUP5 DUP3 DUP6 ADD PUSH2 0x2F08 JUMP JUMPDEST PUSH2 0x120 DUP4 ADD MSTORE POP PUSH2 0x2A0 PUSH2 0x3051 DUP5 DUP3 DUP6 ADD PUSH2 0x2909 JUMP JUMPDEST PUSH2 0x140 DUP4 ADD MSTORE POP PUSH2 0x2C0 PUSH2 0x3067 DUP5 DUP3 DUP6 ADD PUSH2 0x2909 JUMP JUMPDEST PUSH2 0x160 DUP4 ADD MSTORE POP PUSH2 0x2E0 PUSH2 0x307D DUP5 DUP3 DUP6 ADD PUSH2 0x2909 JUMP JUMPDEST PUSH2 0x180 DUP4 ADD MSTORE POP SWAP3 SWAP2 POP POP JUMP JUMPDEST PUSH0 PUSH2 0x3C0 DUP3 DUP5 SUB SLT ISZERO PUSH2 0x30A0 JUMPI PUSH2 0x309F PUSH2 0x2A42 JUMP JUMPDEST JUMPDEST PUSH2 0x30AA PUSH1 0xE0 PUSH2 0x2AA4 JUMP JUMPDEST SWAP1 POP PUSH0 PUSH2 0x30B9 DUP5 DUP3 DUP6 ADD PUSH2 0x2909 JUMP JUMPDEST PUSH0 DUP4 ADD MSTORE POP PUSH1 0x20 PUSH2 0x30CC DUP5 DUP3 DUP6 ADD PUSH2 0x2791 JUMP JUMPDEST PUSH1 0x20 DUP4 ADD MSTORE POP PUSH1 0x40 PUSH2 0x30E0 DUP5 DUP3 DUP6 ADD PUSH2 0x2791 JUMP JUMPDEST PUSH1 0x40 DUP4 ADD MSTORE POP PUSH1 0x60 PUSH2 0x30F4 DUP5 DUP3 DUP6 ADD PUSH2 0x2791 JUMP JUMPDEST PUSH1 0x60 DUP4 ADD MSTORE POP PUSH1 0x80 PUSH2 0x3108 DUP5 DUP3 DUP6 ADD PUSH2 0x2909 JUMP JUMPDEST PUSH1 0x80 DUP4 ADD MSTORE POP PUSH1 0xA0 PUSH2 0x311C DUP5 DUP3 DUP6 ADD PUSH2 0x2909 JUMP JUMPDEST PUSH1 0xA0 DUP4 ADD MSTORE POP PUSH1 0xC0 PUSH2 0x3130 DUP5 DUP3 DUP6 ADD PUSH2 0x2F55 JUMP JUMPDEST PUSH1 0xC0 DUP4 ADD MSTORE POP SWAP3 SWAP2 POP POP JUMP JUMPDEST PUSH0 PUSH2 0x3C0 DUP3 DUP5 SUB SLT ISZERO PUSH2 0x3152 JUMPI PUSH2 0x3151 PUSH2 0x2251 JUMP JUMPDEST JUMPDEST PUSH0 PUSH2 0x315F DUP5 DUP3 DUP6 ADD PUSH2 0x308A JUMP JUMPDEST SWAP2 POP POP SWAP3 SWAP2 POP POP JUMP JUMPDEST PUSH32 0x4E487B7100000000000000000000000000000000000000000000000000000000 PUSH0 MSTORE PUSH1 0x32 PUSH1 0x4 MSTORE PUSH1 0x24 PUSH0 REVERT JUMPDEST PUSH1 0xA DUP2 LT PUSH2 0x31A6 JUMPI PUSH2 0x31A5 PUSH2 0x22C2 JUMP JUMPDEST JUMPDEST POP JUMP JUMPDEST PUSH0 DUP2 SWAP1 POP PUSH2 0x31B6 DUP3 PUSH2 0x3195 JUMP JUMPDEST SWAP2 SWAP1 POP JUMP JUMPDEST PUSH0 PUSH2 0x31C5 DUP3 PUSH2 0x31A9 JUMP JUMPDEST SWAP1 POP SWAP2 SWAP1 POP JUMP JUMPDEST PUSH2 0x31D5 DUP2 PUSH2 0x31BB JUMP JUMPDEST DUP3 MSTORE POP POP JUMP JUMPDEST PUSH1 0x6 DUP2 LT PUSH2 0x31EC JUMPI PUSH2 0x31EB PUSH2 0x22C2 JUMP JUMPDEST JUMPDEST POP JUMP JUMPDEST PUSH0 DUP2 SWAP1 POP PUSH2 0x31FC DUP3 PUSH2 0x31DB JUMP JUMPDEST SWAP2 SWAP1 POP JUMP JUMPDEST PUSH0 PUSH2 0x320B DUP3 PUSH2 0x31EF JUMP JUMPDEST SWAP1 POP SWAP2 SWAP1 POP JUMP JUMPDEST PUSH2 0x321B DUP2 PUSH2 0x3201 JUMP JUMPDEST DUP3 MSTORE POP POP JUMP JUMPDEST PUSH0 PUSH1 0xC0 DUP3 ADD SWAP1 POP PUSH2 0x3234 PUSH0 DUP4 ADD DUP10 PUSH2 0x31CC JUMP JUMPDEST PUSH2 0x3241 PUSH1 0x20 DUP4 ADD DUP9 PUSH2 0x3212 JUMP JUMPDEST PUSH2 0x324E PUSH1 0x40 DUP4 ADD DUP8 PUSH2 0x245C JUMP JUMPDEST PUSH2 0x325B PUSH1 0x60 DUP4 ADD DUP7 PUSH2 0x2816 JUMP JUMPDEST PUSH2 0x3268 PUSH1 0x80 DUP4 ADD DUP6 PUSH2 0x245C JUMP JUMPDEST PUSH2 0x3275 PUSH1 0xA0 DUP4 ADD DUP5 PUSH2 0x2816 JUMP JUMPDEST SWAP8 SWAP7 POP POP POP POP POP POP POP JUMP JUMPDEST PUSH0 PUSH2 0x328A DUP3 PUSH2 0x2255 JUMP JUMPDEST SWAP2 POP PUSH32 0xFFFFFFFFFFFFFFFFFFFFFFFFFFFFFFFFFFFFFFFFFFFFFFFFFFFFFFFFFFFFFFFF DUP3 SUB PUSH2 0x32BC JUMPI PUSH2 0x32BB PUSH2 0x295B JUMP JUMPDEST JUMPDEST PUSH1 0x1 DUP3 ADD SWAP1 POP SWAP2 SWAP1 POP JUMP INVALID LOG2 PUSH5 0x6970667358 0x22 SLT KECCAK256 LOG4 0x2C ADD 0xEF 0xE9 PUSH32 0x845014BA704DD46372ECB1BCC2C39AFE5198E08072DF47E9A89464736F6C6343 STOP ADDMOD 0x1E STOP CALLER "
				},
				"gasEstimates": {
					"creation": {
						"codeDepositCost": "2610600",
						"executionCost": "infinite",
						"totalCost": "infinite"
					},
					"external": {
						"divest(uint256)": "infinite",
						"getAllowedBondTokens()": "infinite",
						"getName()": "infinite",
						"getPensionPositionId(uint256)": "infinite",
						"getPosition(uint256)": "infinite",
						"getPositionIds()": "infinite",
						"getTxIdsByPositionId(uint256)": "infinite",
						"getVersion()": "355",
						"hasOpenPositions(uint256)": "2880",
						"invest(uint256,uint256)": "infinite",
						"isAllowedBondToken(address)": "2981",
						"notifyChangeOfAddress()": "infinite"
					},
					"internal": {
						"addTx(enum TxType,enum ObjType,uint256,uint256,address)": "infinite",
						"getIndex()": "24371",
						"getPensionInternal(uint256)": "infinite"
					}
				},
				"methodIdentifiers": {
					"divest(uint256)": "8ca17995",
					"getAllowedBondTokens()": "8a9dda05",
					"getName()": "17d7de7c",
					"getPensionPositionId(uint256)": "0029e794",
					"getPosition(uint256)": "eb02c301",
					"getPositionIds()": "39131906",
					"getTxIdsByPositionId(uint256)": "e3e803c8",
					"getVersion()": "0d8e6e2c",
					"hasOpenPositions(uint256)": "4ca857da",
					"invest(uint256,uint256)": "d87aa643",
					"isAllowedBondToken(address)": "7ad0ab2d",
					"notifyChangeOfAddress()": "cde4c10c"
				}
			},
			"storageLayout": {
				"storage": [
					{
						"astId": 160,
						"contract": "contracts/core/treasury/MPTreasury.sol:MPTreasury",
						"label": "register",
						"offset": 0,
						"slot": "0",
						"type": "t_contract(IRegister)1143"
					},
					{
						"astId": 163,
						"contract": "contracts/core/treasury/MPTreasury.sol:MPTreasury",
						"label": "allowedBondTokens",
						"offset": 0,
						"slot": "1",
						"type": "t_array(t_address)dyn_storage"
					},
					{
						"astId": 167,
						"contract": "contracts/core/treasury/MPTreasury.sol:MPTreasury",
						"label": "isAllowedBondTokenByAddress",
						"offset": 0,
						"slot": "2",
						"type": "t_mapping(t_address,t_bool)"
					},
					{
						"astId": 169,
						"contract": "contracts/core/treasury/MPTreasury.sol:MPTreasury",
						"label": "index",
						"offset": 0,
						"slot": "3",
						"type": "t_uint256"
					},
					{
						"astId": 172,
						"contract": "contracts/core/treasury/MPTreasury.sol:MPTreasury",
						"label": "positionIds",
						"offset": 0,
						"slot": "4",
						"type": "t_array(t_uint256)dyn_storage"
					},
					{
						"astId": 177,
						"contract": "contracts/core/treasury/MPTreasury.sol:MPTreasury",
						"label": "positionById",
						"offset": 0,
						"slot": "5",
						"type": "t_mapping(t_uint256,t_struct(Position)1528_storage)"
					},
					{
						"astId": 181,
						"contract": "contracts/core/treasury/MPTreasury.sol:MPTreasury",
						"label": "positionIdByPensionId",
						"offset": 0,
						"slot": "6",
						"type": "t_mapping(t_uint256,t_uint256)"
					},
					{
						"astId": 186,
						"contract": "contracts/core/treasury/MPTreasury.sol:MPTreasury",
						"label": "txIdsByPositionId",
						"offset": 0,
						"slot": "7",
						"type": "t_mapping(t_uint256,t_array(t_uint256)dyn_storage)"
					},
					{
						"astId": 191,
						"contract": "contracts/core/treasury/MPTreasury.sol:MPTreasury",
						"label": "openPositionsByBondId",
						"offset": 0,
						"slot": "8",
						"type": "t_mapping(t_uint256,t_array(t_uint256)dyn_storage)"
					}
				],
				"types": {
					"t_address": {
						"encoding": "inplace",
						"label": "address",
						"numberOfBytes": "20"
					},
					"t_array(t_address)dyn_storage": {
						"base": "t_address",
						"encoding": "dynamic_array",
						"label": "address[]",
						"numberOfBytes": "32"
					},
					"t_array(t_uint256)dyn_storage": {
						"base": "t_uint256",
						"encoding": "dynamic_array",
						"label": "uint256[]",
						"numberOfBytes": "32"
					},
					"t_bool": {
						"encoding": "inplace",
						"label": "bool",
						"numberOfBytes": "1"
					},
					"t_contract(IRegister)1143": {
						"encoding": "inplace",
						"label": "contract IRegister",
						"numberOfBytes": "20"
					},
					"t_enum(PositionStatus)1509": {
						"encoding": "inplace",
						"label": "enum PositionStatus",
						"numberOfBytes": "1"
					},
					"t_mapping(t_address,t_bool)": {
						"encoding": "mapping",
						"key": "t_address",
						"label": "mapping(address => bool)",
						"numberOfBytes": "32",
						"value": "t_bool"
					},
					"t_mapping(t_uint256,t_array(t_uint256)dyn_storage)": {
						"encoding": "mapping",
						"key": "t_uint256",
						"label": "mapping(uint256 => uint256[])",
						"numberOfBytes": "32",
						"value": "t_array(t_uint256)dyn_storage"
					},
					"t_mapping(t_uint256,t_struct(Position)1528_storage)": {
						"encoding": "mapping",
						"key": "t_uint256",
						"label": "mapping(uint256 => struct Position)",
						"numberOfBytes": "32",
						"value": "t_struct(Position)1528_storage"
					},
					"t_mapping(t_uint256,t_uint256)": {
						"encoding": "mapping",
						"key": "t_uint256",
						"label": "mapping(uint256 => uint256)",
						"numberOfBytes": "32",
						"value": "t_uint256"
					},
					"t_struct(Position)1528_storage": {
						"encoding": "inplace",
						"label": "struct Position",
						"members": [
							{
								"astId": 1511,
								"contract": "contracts/core/treasury/MPTreasury.sol:MPTreasury",
								"label": "id",
								"offset": 0,
								"slot": "0",
								"type": "t_uint256"
							},
							{
								"astId": 1514,
								"contract": "contracts/core/treasury/MPTreasury.sol:MPTreasury",
								"label": "status",
								"offset": 0,
								"slot": "1",
								"type": "t_enum(PositionStatus)1509"
							},
							{
								"astId": 1516,
								"contract": "contracts/core/treasury/MPTreasury.sol:MPTreasury",
								"label": "mPensionId",
								"offset": 0,
								"slot": "2",
								"type": "t_uint256"
							},
							{
								"astId": 1518,
								"contract": "contracts/core/treasury/MPTreasury.sol:MPTreasury",
								"label": "amount",
								"offset": 0,
								"slot": "3",
								"type": "t_uint256"
							},
							{
								"astId": 1520,
								"contract": "contracts/core/treasury/MPTreasury.sol:MPTreasury",
								"label": "token",
								"offset": 0,
								"slot": "4",
								"type": "t_address"
							},
							{
								"astId": 1522,
								"contract": "contracts/core/treasury/MPTreasury.sol:MPTreasury",
								"label": "created",
								"offset": 0,
								"slot": "5",
								"type": "t_uint256"
							},
							{
								"astId": 1525,
								"contract": "contracts/core/treasury/MPTreasury.sol:MPTreasury",
								"label": "tolerance",
								"offset": 0,
								"slot": "6",
								"type": "t_struct(Tolerance)1506_storage"
							},
							{
								"astId": 1527,
								"contract": "contracts/core/treasury/MPTreasury.sol:MPTreasury",
								"label": "marketId",
								"offset": 0,
								"slot": "8",
								"type": "t_uint256"
							}
						],
						"numberOfBytes": "288"
					},
					"t_struct(Tolerance)1506_storage": {
						"encoding": "inplace",
						"label": "struct Tolerance",
						"members": [
							{
								"astId": 1503,
								"contract": "contracts/core/treasury/MPTreasury.sol:MPTreasury",
								"label": "maxGainPercentage",
								"offset": 0,
								"slot": "0",
								"type": "t_uint256"
							},
							{
								"astId": 1505,
								"contract": "contracts/core/treasury/MPTreasury.sol:MPTreasury",
								"label": "maxLossPercentage",
								"offset": 0,
								"slot": "1",
								"type": "t_uint256"
							}
						],
						"numberOfBytes": "64"
					},
					"t_uint256": {
						"encoding": "inplace",
						"label": "uint256",
						"numberOfBytes": "32"
					}
				}
			},
			"userdoc": {
				"kind": "user",
				"methods": {},
				"version": 1
			}
		}
	}
}