{
	"contracts/core/treasury/MPBondManager.sol": {
		"BondManager": {
			"abi": [
				{
					"inputs": [
						{
							"internalType": "address",
							"name": "_register",
							"type": "address"
						}
					],
					"stateMutability": "nonpayable",
					"type": "constructor"
				},
				{
					"inputs": [],
					"name": "getAllowedBondTokens",
					"outputs": [
						{
							"internalType": "address[]",
							"name": "_erc20",
							"type": "address[]"
						}
					],
					"stateMutability": "view",
					"type": "function"
				},
				{
					"inputs": [
						{
							"internalType": "uint256",
							"name": "_bondId",
							"type": "uint256"
						}
					],
					"name": "getBondById",
					"outputs": [
						{
							"components": [
								{
									"internalType": "uint256",
									"name": "id",
									"type": "uint256"
								},
								{
									"internalType": "address",
									"name": "owner",
									"type": "address"
								},
								{
									"internalType": "uint256",
									"name": "amount",
									"type": "uint256"
								},
								{
									"internalType": "address",
									"name": "erc20",
									"type": "address"
								},
								{
									"internalType": "uint256",
									"name": "created",
									"type": "uint256"
								},
								{
									"internalType": "enum BondType",
									"name": "bType",
									"type": "uint8"
								}
							],
							"internalType": "struct SecurityBond",
							"name": "_bond",
							"type": "tuple"
						}
					],
					"stateMutability": "view",
					"type": "function"
				},
				{
					"inputs": [],
					"name": "getName",
					"outputs": [
						{
							"internalType": "string",
							"name": "_name",
							"type": "string"
						}
					],
					"stateMutability": "pure",
					"type": "function"
				},
				{
					"inputs": [
						{
							"internalType": "enum BondType",
							"name": "_type",
							"type": "uint8"
						},
						{
							"internalType": "address",
							"name": "_user",
							"type": "address"
						}
					],
					"name": "getUserBond",
					"outputs": [
						{
							"components": [
								{
									"internalType": "uint256",
									"name": "id",
									"type": "uint256"
								},
								{
									"internalType": "address",
									"name": "owner",
									"type": "address"
								},
								{
									"internalType": "uint256",
									"name": "amount",
									"type": "uint256"
								},
								{
									"internalType": "address",
									"name": "erc20",
									"type": "address"
								},
								{
									"internalType": "uint256",
									"name": "created",
									"type": "uint256"
								},
								{
									"internalType": "enum BondType",
									"name": "bType",
									"type": "uint8"
								}
							],
							"internalType": "struct SecurityBond",
							"name": "_bond",
							"type": "tuple"
						}
					],
					"stateMutability": "view",
					"type": "function"
				},
				{
					"inputs": [],
					"name": "getVersion",
					"outputs": [
						{
							"internalType": "uint256",
							"name": "_version",
							"type": "uint256"
						}
					],
					"stateMutability": "pure",
					"type": "function"
				},
				{
					"inputs": [
						{
							"internalType": "enum BondType",
							"name": "_type",
							"type": "uint8"
						},
						{
							"internalType": "address",
							"name": "_user",
							"type": "address"
						}
					],
					"name": "hasBond",
					"outputs": [
						{
							"internalType": "bool",
							"name": "_hasBondType",
							"type": "bool"
						}
					],
					"stateMutability": "view",
					"type": "function"
				},
				{
					"inputs": [
						{
							"internalType": "enum BondType",
							"name": "_type",
							"type": "uint8"
						},
						{
							"internalType": "uint256",
							"name": "_amount",
							"type": "uint256"
						},
						{
							"internalType": "address",
							"name": "_erc20",
							"type": "address"
						}
					],
					"name": "placeBond",
					"outputs": [
						{
							"internalType": "uint256",
							"name": "_bondId",
							"type": "uint256"
						},
						{
							"internalType": "uint256",
							"name": "_txId",
							"type": "uint256"
						}
					],
					"stateMutability": "payable",
					"type": "function"
				},
				{
					"inputs": [
						{
							"internalType": "uint256",
							"name": "_bondId",
							"type": "uint256"
						}
					],
					"name": "releaseBond",
					"outputs": [
						{
							"internalType": "uint256",
							"name": "_txId",
							"type": "uint256"
						}
					],
					"stateMutability": "nonpayable",
					"type": "function"
				},
				{
					"inputs": [
						{
							"internalType": "address[]",
							"name": "_erc20s",
							"type": "address[]"
						}
					],
					"name": "setAllowedBondTokens",
					"outputs": [
						{
							"internalType": "bool",
							"name": "_set",
							"type": "bool"
						}
					],
					"stateMutability": "nonpayable",
					"type": "function"
				}
			],
			"devdoc": {
				"kind": "dev",
				"methods": {},
				"version": 1
			},
			"evm": {
				"assembly": "    /* \"contracts/core/treasury/MPBondManager.sol\":488:5168  contract BondManager is IMPBondManager, IVersion { ... */\n  mstore(0x40, 0xa0)\n    /* \"contracts/core/treasury/MPBondManager.sol\":1461:1573  constructor(address _register) {... */\n  callvalue\n  dup1\n  iszero\n  tag_1\n  jumpi\n  revert(0x00, 0x00)\ntag_1:\n  pop\n  mload(0x40)\n  sub(codesize, bytecodeSize)\n  dup1\n  bytecodeSize\n  dup4\n  codecopy\n  dup2\n  dup2\n  add\n  0x40\n  mstore\n  dup2\n  add\n  swap1\n  tag_2\n  swap2\n  swap1\n  tag_3\n  jump\t// in\ntag_2:\n    /* \"contracts/core/treasury/MPBondManager.sol\":1524:1533  _register */\n  dup1\n    /* \"contracts/core/treasury/MPBondManager.sol\":1503:1511  register */\n  0x07\n  0x00\n    /* \"contracts/core/treasury/MPBondManager.sol\":1503:1534  register = IRegister(_register) */\n  0x0100\n  exp\n  dup2\n  sload\n  dup2\n  0xffffffffffffffffffffffffffffffffffffffff\n  mul\n  not\n  and\n  swap1\n  dup4\n  0xffffffffffffffffffffffffffffffffffffffff\n  and\n  mul\n  or\n  swap1\n  sstore\n  pop\n    /* \"contracts/core/treasury/MPBondManager.sol\":1560:1564  this */\n  address\n    /* \"contracts/core/treasury/MPBondManager.sol\":1545:1565  self = address(this) */\n  0xffffffffffffffffffffffffffffffffffffffff\n  and\n  0x80\n  dup2\n  0xffffffffffffffffffffffffffffffffffffffff\n  and\n  dup2\n  mstore\n  pop\n  pop\n    /* \"contracts/core/treasury/MPBondManager.sol\":1461:1573  constructor(address _register) {... */\n  pop\n    /* \"contracts/core/treasury/MPBondManager.sol\":488:5168  contract BondManager is IMPBondManager, IVersion { ... */\n  jump(tag_6)\n    /* \"#utility.yul\":88:205   */\ntag_8:\n    /* \"#utility.yul\":197:198   */\n  0x00\n    /* \"#utility.yul\":194:195   */\n  0x00\n    /* \"#utility.yul\":187:199   */\n  revert\n    /* \"#utility.yul\":334:460   */\ntag_10:\n    /* \"#utility.yul\":371:378   */\n  0x00\n    /* \"#utility.yul\":411:453   */\n  0xffffffffffffffffffffffffffffffffffffffff\n    /* \"#utility.yul\":404:409   */\n  dup3\n    /* \"#utility.yul\":400:454   */\n  and\n    /* \"#utility.yul\":389:454   */\n  swap1\n  pop\n    /* \"#utility.yul\":334:460   */\n  swap2\n  swap1\n  pop\n  jump\t// out\n    /* \"#utility.yul\":466:562   */\ntag_11:\n    /* \"#utility.yul\":503:510   */\n  0x00\n    /* \"#utility.yul\":532:556   */\n  tag_20\n    /* \"#utility.yul\":550:555   */\n  dup3\n    /* \"#utility.yul\":532:556   */\n  tag_10\n  jump\t// in\ntag_20:\n    /* \"#utility.yul\":521:556   */\n  swap1\n  pop\n    /* \"#utility.yul\":466:562   */\n  swap2\n  swap1\n  pop\n  jump\t// out\n    /* \"#utility.yul\":568:690   */\ntag_12:\n    /* \"#utility.yul\":641:665   */\n  tag_22\n    /* \"#utility.yul\":659:664   */\n  dup2\n    /* \"#utility.yul\":641:665   */\n  tag_11\n  jump\t// in\ntag_22:\n    /* \"#utility.yul\":634:639   */\n  dup2\n    /* \"#utility.yul\":631:666   */\n  eq\n    /* \"#utility.yul\":621:684   */\n  tag_23\n  jumpi\n    /* \"#utility.yul\":680:681   */\n  0x00\n    /* \"#utility.yul\":677:678   */\n  0x00\n    /* \"#utility.yul\":670:682   */\n  revert\n    /* \"#utility.yul\":621:684   */\ntag_23:\n    /* \"#utility.yul\":568:690   */\n  pop\n  jump\t// out\n    /* \"#utility.yul\":696:839   */\ntag_13:\n    /* \"#utility.yul\":753:758   */\n  0x00\n    /* \"#utility.yul\":784:790   */\n  dup2\n    /* \"#utility.yul\":778:791   */\n  mload\n    /* \"#utility.yul\":769:791   */\n  swap1\n  pop\n    /* \"#utility.yul\":800:833   */\n  tag_25\n    /* \"#utility.yul\":827:832   */\n  dup2\n    /* \"#utility.yul\":800:833   */\n  tag_12\n  jump\t// in\ntag_25:\n    /* \"#utility.yul\":696:839   */\n  swap3\n  swap2\n  pop\n  pop\n  jump\t// out\n    /* \"#utility.yul\":845:1196   */\ntag_3:\n    /* \"#utility.yul\":915:921   */\n  0x00\n    /* \"#utility.yul\":964:966   */\n  0x20\n    /* \"#utility.yul\":952:961   */\n  dup3\n    /* \"#utility.yul\":943:950   */\n  dup5\n    /* \"#utility.yul\":939:962   */\n  sub\n    /* \"#utility.yul\":935:967   */\n  slt\n    /* \"#utility.yul\":932:1051   */\n  iszero\n  tag_27\n  jumpi\n    /* \"#utility.yul\":970:1049   */\n  tag_28\n  tag_8\n  jump\t// in\ntag_28:\n    /* \"#utility.yul\":932:1051   */\ntag_27:\n    /* \"#utility.yul\":1090:1091   */\n  0x00\n    /* \"#utility.yul\":1115:1179   */\n  tag_29\n    /* \"#utility.yul\":1171:1178   */\n  dup5\n    /* \"#utility.yul\":1162:1168   */\n  dup3\n    /* \"#utility.yul\":1151:1160   */\n  dup6\n    /* \"#utility.yul\":1147:1169   */\n  add\n    /* \"#utility.yul\":1115:1179   */\n  tag_13\n  jump\t// in\ntag_29:\n    /* \"#utility.yul\":1105:1179   */\n  swap2\n  pop\n    /* \"#utility.yul\":1061:1189   */\n  pop\n    /* \"#utility.yul\":845:1196   */\n  swap3\n  swap2\n  pop\n  pop\n  jump\t// out\n    /* \"contracts/core/treasury/MPBondManager.sol\":488:5168  contract BondManager is IMPBondManager, IVersion { ... */\ntag_6:\n  mload(0x80)\n  codecopy(0x00, dataOffset(sub_0), dataSize(sub_0))\n  0x00\n  assignImmutable(\"0x425a3d65e6c6cbbf01507814af1ac7512f93cceb8411381e1d5fb7adbfd44881\")\n  return(0x00, dataSize(sub_0))\nstop\n\nsub_0: assembly {\n        /* \"contracts/core/treasury/MPBondManager.sol\":488:5168  contract BondManager is IMPBondManager, IVersion { ... */\n      mstore(0x40, 0x80)\n      jumpi(tag_1, lt(calldatasize, 0x04))\n      shr(0xe0, calldataload(0x00))\n      dup1\n      0x34706ecf\n      gt\n      tag_11\n      jumpi\n      dup1\n      0x34706ecf\n      eq\n      tag_6\n      jumpi\n      dup1\n      0x8a9dda05\n      eq\n      tag_7\n      jumpi\n      dup1\n      0x91857eec\n      eq\n      tag_8\n      jumpi\n      dup1\n      0x9c271c50\n      eq\n      tag_9\n      jumpi\n      dup1\n      0xce862001\n      eq\n      tag_10\n      jumpi\n      jump(tag_1)\n    tag_11:\n      dup1\n      0x012fe794\n      eq\n      tag_2\n      jumpi\n      dup1\n      0x04452b4f\n      eq\n      tag_3\n      jumpi\n      dup1\n      0x0d8e6e2c\n      eq\n      tag_4\n      jumpi\n      dup1\n      0x17d7de7c\n      eq\n      tag_5\n      jumpi\n    tag_1:\n      revert(0x00, 0x00)\n        /* \"contracts/core/treasury/MPBondManager.sol\":2059:2233  function getUserBond(BondType _type, address _user) view external returns (SecurityBond memory _bond) {... */\n    tag_2:\n      callvalue\n      dup1\n      iszero\n      tag_12\n      jumpi\n      revert(0x00, 0x00)\n    tag_12:\n      pop\n      tag_13\n      0x04\n      dup1\n      calldatasize\n      sub\n      dup2\n      add\n      swap1\n      tag_14\n      swap2\n      swap1\n      tag_15\n      jump\t// in\n    tag_14:\n      tag_16\n      jump\t// in\n    tag_13:\n      mload(0x40)\n      tag_17\n      swap2\n      swap1\n      tag_18\n      jump\t// in\n    tag_17:\n      mload(0x40)\n      dup1\n      swap2\n      sub\n      swap1\n      return\n        /* \"contracts/core/treasury/MPBondManager.sol\":4481:4638  function setAllowedBondTokens(address []  memory _erc20s) external returns (bool _set) {... */\n    tag_3:\n      callvalue\n      dup1\n      iszero\n      tag_19\n      jumpi\n      revert(0x00, 0x00)\n    tag_19:\n      pop\n      tag_20\n      0x04\n      dup1\n      calldatasize\n      sub\n      dup2\n      add\n      swap1\n      tag_21\n      swap2\n      swap1\n      tag_22\n      jump\t// in\n    tag_21:\n      tag_23\n      jump\t// in\n    tag_20:\n      mload(0x40)\n      tag_24\n      swap2\n      swap1\n      tag_25\n      jump\t// in\n    tag_24:\n      mload(0x40)\n      dup1\n      swap2\n      sub\n      swap1\n      return\n        /* \"contracts/core/treasury/MPBondManager.sol\":1684:1781  function getVersion() pure external returns (uint256 _version){ ... */\n    tag_4:\n      callvalue\n      dup1\n      iszero\n      tag_26\n      jumpi\n      revert(0x00, 0x00)\n    tag_26:\n      pop\n      tag_27\n      tag_28\n      jump\t// in\n    tag_27:\n      mload(0x40)\n      tag_29\n      swap2\n      swap1\n      tag_30\n      jump\t// in\n    tag_29:\n      mload(0x40)\n      dup1\n      swap2\n      sub\n      swap1\n      return\n        /* \"contracts/core/treasury/MPBondManager.sol\":1581:1676  function getName() pure external returns (string memory _name) { ... */\n    tag_5:\n      callvalue\n      dup1\n      iszero\n      tag_31\n      jumpi\n      revert(0x00, 0x00)\n    tag_31:\n      pop\n      tag_32\n      tag_33\n      jump\t// in\n    tag_32:\n      mload(0x40)\n      tag_34\n      swap2\n      swap1\n      tag_35\n      jump\t// in\n    tag_34:\n      mload(0x40)\n      dup1\n      swap2\n      sub\n      swap1\n      return\n        /* \"contracts/core/treasury/MPBondManager.sol\":3421:4473  function releaseBond(uint256 _bondId) external bondHolderOnly(_bondId) returns (uint256 _txId){... */\n    tag_6:\n      callvalue\n      dup1\n      iszero\n      tag_36\n      jumpi\n      revert(0x00, 0x00)\n    tag_36:\n      pop\n      tag_37\n      0x04\n      dup1\n      calldatasize\n      sub\n      dup2\n      add\n      swap1\n      tag_38\n      swap2\n      swap1\n      tag_39\n      jump\t// in\n    tag_38:\n      tag_40\n      jump\t// in\n    tag_37:\n      mload(0x40)\n      tag_41\n      swap2\n      swap1\n      tag_30\n      jump\t// in\n    tag_41:\n      mload(0x40)\n      dup1\n      swap2\n      sub\n      swap1\n      return\n        /* \"contracts/core/treasury/MPBondManager.sol\":1789:1912  function getAllowedBondTokens() view external returns (address [] memory _erc20){... */\n    tag_7:\n      callvalue\n      dup1\n      iszero\n      tag_42\n      jumpi\n      revert(0x00, 0x00)\n    tag_42:\n      pop\n      tag_43\n      tag_44\n      jump\t// in\n    tag_43:\n      mload(0x40)\n      tag_45\n      swap2\n      swap1\n      tag_46\n      jump\t// in\n    tag_45:\n      mload(0x40)\n      dup1\n      swap2\n      sub\n      swap1\n      return\n        /* \"contracts/core/treasury/MPBondManager.sol\":2399:3413  function placeBond(BondType _type, uint256 _amount, address _erc20) payable external returns (uint256 _bondId, uint256 _txId){... */\n    tag_8:\n      tag_47\n      0x04\n      dup1\n      calldatasize\n      sub\n      dup2\n      add\n      swap1\n      tag_48\n      swap2\n      swap1\n      tag_49\n      jump\t// in\n    tag_48:\n      tag_50\n      jump\t// in\n    tag_47:\n      mload(0x40)\n      tag_51\n      swap3\n      swap2\n      swap1\n      tag_52\n      jump\t// in\n    tag_51:\n      mload(0x40)\n      dup1\n      swap2\n      sub\n      swap1\n      return\n        /* \"contracts/core/treasury/MPBondManager.sol\":1920:2051  function getBondById(uint256 _bondId) view external returns (SecurityBond memory _bond){... */\n    tag_9:\n      callvalue\n      dup1\n      iszero\n      tag_53\n      jumpi\n      revert(0x00, 0x00)\n    tag_53:\n      pop\n      tag_54\n      0x04\n      dup1\n      calldatasize\n      sub\n      dup2\n      add\n      swap1\n      tag_55\n      swap2\n      swap1\n      tag_39\n      jump\t// in\n    tag_55:\n      tag_56\n      jump\t// in\n    tag_54:\n      mload(0x40)\n      tag_57\n      swap2\n      swap1\n      tag_18\n      jump\t// in\n    tag_57:\n      mload(0x40)\n      dup1\n      swap2\n      sub\n      swap1\n      return\n        /* \"contracts/core/treasury/MPBondManager.sol\":2241:2391  function hasBond(BondType _type, address _user) view external returns (bool _hasBondType){ ... */\n    tag_10:\n      callvalue\n      dup1\n      iszero\n      tag_58\n      jumpi\n      revert(0x00, 0x00)\n    tag_58:\n      pop\n      tag_59\n      0x04\n      dup1\n      calldatasize\n      sub\n      dup2\n      add\n      swap1\n      tag_60\n      swap2\n      swap1\n      tag_15\n      jump\t// in\n    tag_60:\n      tag_61\n      jump\t// in\n    tag_59:\n      mload(0x40)\n      tag_62\n      swap2\n      swap1\n      tag_25\n      jump\t// in\n    tag_62:\n      mload(0x40)\n      dup1\n      swap2\n      sub\n      swap1\n      return\n        /* \"contracts/core/treasury/MPBondManager.sol\":2059:2233  function getUserBond(BondType _type, address _user) view external returns (SecurityBond memory _bond) {... */\n    tag_16:\n        /* \"contracts/core/treasury/MPBondManager.sol\":2134:2159  SecurityBond memory _bond */\n      tag_63\n      tag_64\n      jump\t// in\n    tag_63:\n        /* \"contracts/core/treasury/MPBondManager.sol\":2179:2187  bondById */\n      0x02\n        /* \"contracts/core/treasury/MPBondManager.sol\":2179:2225  bondById[bondIdByUserByBondType[_type][_user]] */\n      0x00\n        /* \"contracts/core/treasury/MPBondManager.sol\":2188:2210  bondIdByUserByBondType */\n      0x03\n        /* \"contracts/core/treasury/MPBondManager.sol\":2188:2217  bondIdByUserByBondType[_type] */\n      0x00\n        /* \"contracts/core/treasury/MPBondManager.sol\":2211:2216  _type */\n      dup7\n        /* \"contracts/core/treasury/MPBondManager.sol\":2188:2217  bondIdByUserByBondType[_type] */\n      0x01\n      dup2\n      gt\n      iszero\n      tag_66\n      jumpi\n      tag_67\n      tag_68\n      jump\t// in\n    tag_67:\n    tag_66:\n      0x01\n      dup2\n      gt\n      iszero\n      tag_69\n      jumpi\n      tag_70\n      tag_68\n      jump\t// in\n    tag_70:\n    tag_69:\n      dup2\n      mstore\n      0x20\n      add\n      swap1\n      dup2\n      mstore\n      0x20\n      add\n      0x00\n      keccak256\n        /* \"contracts/core/treasury/MPBondManager.sol\":2188:2224  bondIdByUserByBondType[_type][_user] */\n      0x00\n        /* \"contracts/core/treasury/MPBondManager.sol\":2218:2223  _user */\n      dup6\n        /* \"contracts/core/treasury/MPBondManager.sol\":2188:2224  bondIdByUserByBondType[_type][_user] */\n      0xffffffffffffffffffffffffffffffffffffffff\n      and\n      0xffffffffffffffffffffffffffffffffffffffff\n      and\n      dup2\n      mstore\n      0x20\n      add\n      swap1\n      dup2\n      mstore\n      0x20\n      add\n      0x00\n      keccak256\n      sload\n        /* \"contracts/core/treasury/MPBondManager.sol\":2179:2225  bondById[bondIdByUserByBondType[_type][_user]] */\n      dup2\n      mstore\n      0x20\n      add\n      swap1\n      dup2\n      mstore\n      0x20\n      add\n      0x00\n      keccak256\n        /* \"contracts/core/treasury/MPBondManager.sol\":2172:2225  return bondById[bondIdByUserByBondType[_type][_user]] */\n      mload(0x40)\n      dup1\n      0xc0\n      add\n      0x40\n      mstore\n      swap1\n      dup2\n      0x00\n      dup3\n      add\n      sload\n      dup2\n      mstore\n      0x20\n      add\n      0x01\n      dup3\n      add\n      0x00\n      swap1\n      sload\n      swap1\n      0x0100\n      exp\n      swap1\n      div\n      0xffffffffffffffffffffffffffffffffffffffff\n      and\n      0xffffffffffffffffffffffffffffffffffffffff\n      and\n      0xffffffffffffffffffffffffffffffffffffffff\n      and\n      dup2\n      mstore\n      0x20\n      add\n      0x02\n      dup3\n      add\n      sload\n      dup2\n      mstore\n      0x20\n      add\n      0x03\n      dup3\n      add\n      0x00\n      swap1\n      sload\n      swap1\n      0x0100\n      exp\n      swap1\n      div\n      0xffffffffffffffffffffffffffffffffffffffff\n      and\n      0xffffffffffffffffffffffffffffffffffffffff\n      and\n      0xffffffffffffffffffffffffffffffffffffffff\n      and\n      dup2\n      mstore\n      0x20\n      add\n      0x04\n      dup3\n      add\n      sload\n      dup2\n      mstore\n      0x20\n      add\n      0x05\n      dup3\n      add\n      0x00\n      swap1\n      sload\n      swap1\n      0x0100\n      exp\n      swap1\n      div\n      0xff\n      and\n      0x01\n      dup2\n      gt\n      iszero\n      tag_71\n      jumpi\n      tag_72\n      tag_68\n      jump\t// in\n    tag_72:\n    tag_71:\n      0x01\n      dup2\n      gt\n      iszero\n      tag_73\n      jumpi\n      tag_74\n      tag_68\n      jump\t// in\n    tag_74:\n    tag_73:\n      dup2\n      mstore\n      pop\n      pop\n      swap1\n      pop\n        /* \"contracts/core/treasury/MPBondManager.sol\":2059:2233  function getUserBond(BondType _type, address _user) view external returns (SecurityBond memory _bond) {... */\n      swap3\n      swap2\n      pop\n      pop\n      jump\t// out\n        /* \"contracts/core/treasury/MPBondManager.sol\":4481:4638  function setAllowedBondTokens(address []  memory _erc20s) external returns (bool _set) {... */\n    tag_23:\n        /* \"contracts/core/treasury/MPBondManager.sol\":4557:4566  bool _set */\n      0x00\n        /* \"contracts/core/treasury/MPBondManager.sol\":4599:4606  _erc20s */\n      dup2\n        /* \"contracts/core/treasury/MPBondManager.sol\":4579:4596  allowedBondTokens */\n      0x05\n        /* \"contracts/core/treasury/MPBondManager.sol\":4579:4606  allowedBondTokens = _erc20s */\n      swap1\n      dup1\n      mload\n      swap1\n      0x20\n      add\n      swap1\n      tag_76\n      swap3\n      swap2\n      swap1\n      tag_77\n      jump\t// in\n    tag_76:\n      pop\n        /* \"contracts/core/treasury/MPBondManager.sol\":4625:4629  true */\n      0x01\n        /* \"contracts/core/treasury/MPBondManager.sol\":4618:4629  return true */\n      swap1\n      pop\n        /* \"contracts/core/treasury/MPBondManager.sol\":4481:4638  function setAllowedBondTokens(address []  memory _erc20s) external returns (bool _set) {... */\n      swap2\n      swap1\n      pop\n      jump\t// out\n        /* \"contracts/core/treasury/MPBondManager.sol\":1684:1781  function getVersion() pure external returns (uint256 _version){ ... */\n    tag_28:\n        /* \"contracts/core/treasury/MPBondManager.sol\":1729:1745  uint256 _version */\n      0x00\n        /* \"contracts/core/treasury/MPBondManager.sol\":777:778  1 */\n      0x01\n        /* \"contracts/core/treasury/MPBondManager.sol\":1758:1772  return version */\n      swap1\n      pop\n        /* \"contracts/core/treasury/MPBondManager.sol\":1684:1781  function getVersion() pure external returns (uint256 _version){ ... */\n      swap1\n      jump\t// out\n        /* \"contracts/core/treasury/MPBondManager.sol\":1581:1676  function getName() pure external returns (string memory _name) { ... */\n    tag_33:\n        /* \"contracts/core/treasury/MPBondManager.sol\":1623:1642  string memory _name */\n      0x60\n        /* \"contracts/core/treasury/MPBondManager.sol\":1663:1667  name */\n      mload(0x40)\n      dup1\n      0x40\n      add\n      0x40\n      mstore\n      dup1\n      0x18\n      dup2\n      mstore\n      0x20\n      add\n      0x52455345525645445f4d505f424f4e445f4d414e414745520000000000000000\n      dup2\n      mstore\n      pop\n        /* \"contracts/core/treasury/MPBondManager.sol\":1656:1667  return name */\n      swap1\n      pop\n        /* \"contracts/core/treasury/MPBondManager.sol\":1581:1676  function getName() pure external returns (string memory _name) { ... */\n      swap1\n      jump\t// out\n        /* \"contracts/core/treasury/MPBondManager.sol\":3421:4473  function releaseBond(uint256 _bondId) external bondHolderOnly(_bondId) returns (uint256 _txId){... */\n    tag_40:\n        /* \"contracts/core/treasury/MPBondManager.sol\":3501:3514  uint256 _txId */\n      0x00\n        /* \"contracts/core/treasury/MPBondManager.sol\":3483:3490  _bondId */\n      dup2\n        /* \"contracts/core/treasury/MPBondManager.sol\":621:629  bondById */\n      0x02\n        /* \"contracts/core/treasury/MPBondManager.sol\":621:638  bondById[_bondId] */\n      0x00\n        /* \"contracts/core/treasury/MPBondManager.sol\":630:637  _bondId */\n      dup3\n        /* \"contracts/core/treasury/MPBondManager.sol\":621:638  bondById[_bondId] */\n      dup2\n      mstore\n      0x20\n      add\n      swap1\n      dup2\n      mstore\n      0x20\n      add\n      0x00\n      keccak256\n        /* \"contracts/core/treasury/MPBondManager.sol\":621:644  bondById[_bondId].owner */\n      0x01\n      add\n      0x00\n      swap1\n      sload\n      swap1\n      0x0100\n      exp\n      swap1\n      div\n      0xffffffffffffffffffffffffffffffffffffffff\n      and\n        /* \"contracts/core/treasury/MPBondManager.sol\":607:644  msg.sender == bondById[_bondId].owner */\n      0xffffffffffffffffffffffffffffffffffffffff\n      and\n        /* \"contracts/core/treasury/MPBondManager.sol\":607:617  msg.sender */\n      caller\n        /* \"contracts/core/treasury/MPBondManager.sol\":607:644  msg.sender == bondById[_bondId].owner */\n      0xffffffffffffffffffffffffffffffffffffffff\n      and\n      eq\n        /* \"contracts/core/treasury/MPBondManager.sol\":599:665  require(msg.sender == bondById[_bondId].owner, \"bond holder only\") */\n      tag_81\n      jumpi\n      mload(0x40)\n      0x08c379a000000000000000000000000000000000000000000000000000000000\n      dup2\n      mstore\n      0x04\n      add\n      tag_82\n      swap1\n      tag_83\n      jump\t// in\n    tag_82:\n      mload(0x40)\n      dup1\n      swap2\n      sub\n      swap1\n      revert\n    tag_81:\n        /* \"contracts/core/treasury/MPBondManager.sol\":3526:3551  SecurityBond memory bond_ */\n      0x00\n        /* \"contracts/core/treasury/MPBondManager.sol\":3554:3562  bondById */\n      0x02\n        /* \"contracts/core/treasury/MPBondManager.sol\":3554:3571  bondById[_bondId] */\n      0x00\n        /* \"contracts/core/treasury/MPBondManager.sol\":3563:3570  _bondId */\n      dup6\n        /* \"contracts/core/treasury/MPBondManager.sol\":3554:3571  bondById[_bondId] */\n      dup2\n      mstore\n      0x20\n      add\n      swap1\n      dup2\n      mstore\n      0x20\n      add\n      0x00\n      keccak256\n        /* \"contracts/core/treasury/MPBondManager.sol\":3526:3571  SecurityBond memory bond_ = bondById[_bondId] */\n      mload(0x40)\n      dup1\n      0xc0\n      add\n      0x40\n      mstore\n      swap1\n      dup2\n      0x00\n      dup3\n      add\n      sload\n      dup2\n      mstore\n      0x20\n      add\n      0x01\n      dup3\n      add\n      0x00\n      swap1\n      sload\n      swap1\n      0x0100\n      exp\n      swap1\n      div\n      0xffffffffffffffffffffffffffffffffffffffff\n      and\n      0xffffffffffffffffffffffffffffffffffffffff\n      and\n      0xffffffffffffffffffffffffffffffffffffffff\n      and\n      dup2\n      mstore\n      0x20\n      add\n      0x02\n      dup3\n      add\n      sload\n      dup2\n      mstore\n      0x20\n      add\n      0x03\n      dup3\n      add\n      0x00\n      swap1\n      sload\n      swap1\n      0x0100\n      exp\n      swap1\n      div\n      0xffffffffffffffffffffffffffffffffffffffff\n      and\n      0xffffffffffffffffffffffffffffffffffffffff\n      and\n      0xffffffffffffffffffffffffffffffffffffffff\n      and\n      dup2\n      mstore\n      0x20\n      add\n      0x04\n      dup3\n      add\n      sload\n      dup2\n      mstore\n      0x20\n      add\n      0x05\n      dup3\n      add\n      0x00\n      swap1\n      sload\n      swap1\n      0x0100\n      exp\n      swap1\n      div\n      0xff\n      and\n      0x01\n      dup2\n      gt\n      iszero\n      tag_85\n      jumpi\n      tag_86\n      tag_68\n      jump\t// in\n    tag_86:\n    tag_85:\n      0x01\n      dup2\n      gt\n      iszero\n      tag_87\n      jumpi\n      tag_88\n      tag_68\n      jump\t// in\n    tag_88:\n    tag_87:\n      dup2\n      mstore\n      pop\n      pop\n      swap1\n      pop\n        /* \"contracts/core/treasury/MPBondManager.sol\":3612:3629  BondType.TREASURY */\n      0x00\n        /* \"contracts/core/treasury/MPBondManager.sol\":3585:3629  bondById[_bondId].bType == BondType.TREASURY */\n      0x01\n      dup2\n      gt\n      iszero\n      tag_89\n      jumpi\n      tag_90\n      tag_68\n      jump\t// in\n    tag_90:\n    tag_89:\n        /* \"contracts/core/treasury/MPBondManager.sol\":3585:3593  bondById */\n      0x02\n        /* \"contracts/core/treasury/MPBondManager.sol\":3585:3602  bondById[_bondId] */\n      0x00\n        /* \"contracts/core/treasury/MPBondManager.sol\":3594:3601  _bondId */\n      dup7\n        /* \"contracts/core/treasury/MPBondManager.sol\":3585:3602  bondById[_bondId] */\n      dup2\n      mstore\n      0x20\n      add\n      swap1\n      dup2\n      mstore\n      0x20\n      add\n      0x00\n      keccak256\n        /* \"contracts/core/treasury/MPBondManager.sol\":3585:3608  bondById[_bondId].bType */\n      0x05\n      add\n      0x00\n      swap1\n      sload\n      swap1\n      0x0100\n      exp\n      swap1\n      div\n      0xff\n      and\n        /* \"contracts/core/treasury/MPBondManager.sol\":3585:3629  bondById[_bondId].bType == BondType.TREASURY */\n      0x01\n      dup2\n      gt\n      iszero\n      tag_91\n      jumpi\n      tag_92\n      tag_68\n      jump\t// in\n    tag_92:\n    tag_91:\n      sub\n        /* \"contracts/core/treasury/MPBondManager.sol\":3582:3818  if(bondById[_bondId].bType == BondType.TREASURY) {... */\n      tag_93\n      jumpi\n        /* \"contracts/core/treasury/MPBondManager.sol\":3710:3718  register */\n      0x07\n      0x00\n      swap1\n      sload\n      swap1\n      0x0100\n      exp\n      swap1\n      div\n      0xffffffffffffffffffffffffffffffffffffffff\n      and\n        /* \"contracts/core/treasury/MPBondManager.sol\":3710:3729  register.getAddress */\n      0xffffffffffffffffffffffffffffffffffffffff\n      and\n      0xbf40fac1\n        /* \"contracts/core/treasury/MPBondManager.sol\":3730:3741  TREASURY_CA */\n      mload(0x40)\n      dup1\n      0x40\n      add\n      0x40\n      mstore\n      dup1\n      0x14\n      dup2\n      mstore\n      0x20\n      add\n      0x52455345525645445f4d505f5452454153555259000000000000000000000000\n      dup2\n      mstore\n      pop\n        /* \"contracts/core/treasury/MPBondManager.sol\":3710:3742  register.getAddress(TREASURY_CA) */\n      mload(0x40)\n      dup3\n      0xffffffff\n      and\n      0xe0\n      shl\n      dup2\n      mstore\n      0x04\n      add\n      tag_94\n      swap2\n      swap1\n      tag_35\n      jump\t// in\n    tag_94:\n      0x20\n      mload(0x40)\n      dup1\n      dup4\n      sub\n      dup2\n      dup7\n      gas\n      staticcall\n      iszero\n      dup1\n      iszero\n      tag_96\n      jumpi\n      returndatacopy(0x00, 0x00, returndatasize)\n      revert(0x00, returndatasize)\n    tag_96:\n      pop\n      pop\n      pop\n      pop\n      mload(0x40)\n      returndatasize\n      not(0x1f)\n      0x1f\n      dup3\n      add\n      and\n      dup3\n      add\n      dup1\n      0x40\n      mstore\n      pop\n      dup2\n      add\n      swap1\n      tag_97\n      swap2\n      swap1\n      tag_98\n      jump\t// in\n    tag_97:\n        /* \"contracts/core/treasury/MPBondManager.sol\":3698:3760  IMPTreasury(register.getAddress(TREASURY_CA)).hasOpenPositions */\n      0xffffffffffffffffffffffffffffffffffffffff\n      and\n      0x4ca857da\n        /* \"contracts/core/treasury/MPBondManager.sol\":3761:3768  _bondId */\n      dup6\n        /* \"contracts/core/treasury/MPBondManager.sol\":3698:3769  IMPTreasury(register.getAddress(TREASURY_CA)).hasOpenPositions(_bondId) */\n      mload(0x40)\n      dup3\n      0xffffffff\n      and\n      0xe0\n      shl\n      dup2\n      mstore\n      0x04\n      add\n      tag_99\n      swap2\n      swap1\n      tag_30\n      jump\t// in\n    tag_99:\n      0x20\n      mload(0x40)\n      dup1\n      dup4\n      sub\n      dup2\n      dup7\n      gas\n      staticcall\n      iszero\n      dup1\n      iszero\n      tag_101\n      jumpi\n      returndatacopy(0x00, 0x00, returndatasize)\n      revert(0x00, returndatasize)\n    tag_101:\n      pop\n      pop\n      pop\n      pop\n      mload(0x40)\n      returndatasize\n      not(0x1f)\n      0x1f\n      dup3\n      add\n      and\n      dup3\n      add\n      dup1\n      0x40\n      mstore\n      pop\n      dup2\n      add\n      swap1\n      tag_102\n      swap2\n      swap1\n      tag_103\n      jump\t// in\n    tag_102:\n        /* \"contracts/core/treasury/MPBondManager.sol\":3697:3769  !IMPTreasury(register.getAddress(TREASURY_CA)).hasOpenPositions(_bondId) */\n      iszero\n        /* \"contracts/core/treasury/MPBondManager.sol\":3689:3806  require(!IMPTreasury(register.getAddress(TREASURY_CA)).hasOpenPositions(_bondId), \"treasury bond has open positions\") */\n      tag_104\n      jumpi\n      mload(0x40)\n      0x08c379a000000000000000000000000000000000000000000000000000000000\n      dup2\n      mstore\n      0x04\n      add\n      tag_105\n      swap1\n      tag_106\n      jump\t// in\n    tag_105:\n      mload(0x40)\n      dup1\n      swap2\n      sub\n      swap1\n      revert\n    tag_104:\n        /* \"contracts/core/treasury/MPBondManager.sol\":3582:3818  if(bondById[_bondId].bType == BondType.TREASURY) {... */\n    tag_93:\n        /* \"contracts/core/treasury/MPBondManager.sol\":3858:3873  BondType.MARKET */\n      0x01\n        /* \"contracts/core/treasury/MPBondManager.sol\":3831:3873  bondById[_bondId].bType == BondType.MARKET */\n      dup1\n      dup2\n      gt\n      iszero\n      tag_107\n      jumpi\n      tag_108\n      tag_68\n      jump\t// in\n    tag_108:\n    tag_107:\n        /* \"contracts/core/treasury/MPBondManager.sol\":3831:3839  bondById */\n      0x02\n        /* \"contracts/core/treasury/MPBondManager.sol\":3831:3848  bondById[_bondId] */\n      0x00\n        /* \"contracts/core/treasury/MPBondManager.sol\":3840:3847  _bondId */\n      dup7\n        /* \"contracts/core/treasury/MPBondManager.sol\":3831:3848  bondById[_bondId] */\n      dup2\n      mstore\n      0x20\n      add\n      swap1\n      dup2\n      mstore\n      0x20\n      add\n      0x00\n      keccak256\n        /* \"contracts/core/treasury/MPBondManager.sol\":3831:3854  bondById[_bondId].bType */\n      0x05\n      add\n      0x00\n      swap1\n      sload\n      swap1\n      0x0100\n      exp\n      swap1\n      div\n      0xff\n      and\n        /* \"contracts/core/treasury/MPBondManager.sol\":3831:3873  bondById[_bondId].bType == BondType.MARKET */\n      0x01\n      dup2\n      gt\n      iszero\n      tag_109\n      jumpi\n      tag_110\n      tag_68\n      jump\t// in\n    tag_110:\n    tag_109:\n      sub\n        /* \"contracts/core/treasury/MPBondManager.sol\":3828:4071  if(bondById[_bondId].bType == BondType.MARKET) {... */\n      tag_111\n      jumpi\n        /* \"contracts/core/treasury/MPBondManager.sol\":3959:3967  register */\n      0x07\n      0x00\n      swap1\n      sload\n      swap1\n      0x0100\n      exp\n      swap1\n      div\n      0xffffffffffffffffffffffffffffffffffffffff\n      and\n        /* \"contracts/core/treasury/MPBondManager.sol\":3959:3978  register.getAddress */\n      0xffffffffffffffffffffffffffffffffffffffff\n      and\n      0xbf40fac1\n        /* \"contracts/core/treasury/MPBondManager.sol\":3979:3996  MARKET_MANAGER_CA */\n      mload(0x40)\n      dup1\n      0x40\n      add\n      0x40\n      mstore\n      dup1\n      0x1a\n      dup2\n      mstore\n      0x20\n      add\n      0x52455345525645445f4d505f4d41524b45545f4d414e41474552000000000000\n      dup2\n      mstore\n      pop\n        /* \"contracts/core/treasury/MPBondManager.sol\":3959:3997  register.getAddress(MARKET_MANAGER_CA) */\n      mload(0x40)\n      dup3\n      0xffffffff\n      and\n      0xe0\n      shl\n      dup2\n      mstore\n      0x04\n      add\n      tag_112\n      swap2\n      swap1\n      tag_35\n      jump\t// in\n    tag_112:\n      0x20\n      mload(0x40)\n      dup1\n      dup4\n      sub\n      dup2\n      dup7\n      gas\n      staticcall\n      iszero\n      dup1\n      iszero\n      tag_114\n      jumpi\n      returndatacopy(0x00, 0x00, returndatasize)\n      revert(0x00, returndatasize)\n    tag_114:\n      pop\n      pop\n      pop\n      pop\n      mload(0x40)\n      returndatasize\n      not(0x1f)\n      0x1f\n      dup3\n      add\n      and\n      dup3\n      add\n      dup1\n      0x40\n      mstore\n      pop\n      dup2\n      add\n      swap1\n      tag_115\n      swap2\n      swap1\n      tag_98\n      jump\t// in\n    tag_115:\n        /* \"contracts/core/treasury/MPBondManager.sol\":3942:4015  IMPMarketManager(register.getAddress(MARKET_MANAGER_CA)).hasOpenPositions */\n      0xffffffffffffffffffffffffffffffffffffffff\n      and\n      0x4ca857da\n        /* \"contracts/core/treasury/MPBondManager.sol\":4016:4023  _bondId */\n      dup6\n        /* \"contracts/core/treasury/MPBondManager.sol\":3942:4024  IMPMarketManager(register.getAddress(MARKET_MANAGER_CA)).hasOpenPositions(_bondId) */\n      mload(0x40)\n      dup3\n      0xffffffff\n      and\n      0xe0\n      shl\n      dup2\n      mstore\n      0x04\n      add\n      tag_116\n      swap2\n      swap1\n      tag_30\n      jump\t// in\n    tag_116:\n      0x20\n      mload(0x40)\n      dup1\n      dup4\n      sub\n      dup2\n      dup7\n      gas\n      staticcall\n      iszero\n      dup1\n      iszero\n      tag_118\n      jumpi\n      returndatacopy(0x00, 0x00, returndatasize)\n      revert(0x00, returndatasize)\n    tag_118:\n      pop\n      pop\n      pop\n      pop\n      mload(0x40)\n      returndatasize\n      not(0x1f)\n      0x1f\n      dup3\n      add\n      and\n      dup3\n      add\n      dup1\n      0x40\n      mstore\n      pop\n      dup2\n      add\n      swap1\n      tag_119\n      swap2\n      swap1\n      tag_103\n      jump\t// in\n    tag_119:\n        /* \"contracts/core/treasury/MPBondManager.sol\":3941:4024  !IMPMarketManager(register.getAddress(MARKET_MANAGER_CA)).hasOpenPositions(_bondId) */\n      iszero\n        /* \"contracts/core/treasury/MPBondManager.sol\":3933:4059  require(!IMPMarketManager(register.getAddress(MARKET_MANAGER_CA)).hasOpenPositions(_bondId), \"market bond has open positions\") */\n      tag_120\n      jumpi\n      mload(0x40)\n      0x08c379a000000000000000000000000000000000000000000000000000000000\n      dup2\n      mstore\n      0x04\n      add\n      tag_121\n      swap1\n      tag_122\n      jump\t// in\n    tag_121:\n      mload(0x40)\n      dup1\n      swap2\n      sub\n      swap1\n      revert\n    tag_120:\n        /* \"contracts/core/treasury/MPBondManager.sol\":3828:4071  if(bondById[_bondId].bType == BondType.MARKET) {... */\n    tag_111:\n        /* \"contracts/core/treasury/MPBondManager.sol\":1021:1063  0xEeeeeEeeeEeEeeEeEeEeeEEEeeeeEeeeeeeeEEeE */\n      0xeeeeeeeeeeeeeeeeeeeeeeeeeeeeeeeeeeeeeeee\n        /* \"contracts/core/treasury/MPBondManager.sol\":4086:4107  bond_.erc20 == NATIVE */\n      0xffffffffffffffffffffffffffffffffffffffff\n      and\n        /* \"contracts/core/treasury/MPBondManager.sol\":4086:4091  bond_ */\n      dup2\n        /* \"contracts/core/treasury/MPBondManager.sol\":4086:4097  bond_.erc20 */\n      0x60\n      add\n      mload\n        /* \"contracts/core/treasury/MPBondManager.sol\":4086:4107  bond_.erc20 == NATIVE */\n      0xffffffffffffffffffffffffffffffffffffffff\n      and\n      sub\n        /* \"contracts/core/treasury/MPBondManager.sol\":4083:4313  if(bond_.erc20 == NATIVE){... */\n      tag_123\n      jumpi\n        /* \"contracts/core/treasury/MPBondManager.sol\":4131:4136  bond_ */\n      dup1\n        /* \"contracts/core/treasury/MPBondManager.sol\":4131:4142  bond_.owner */\n      0x20\n      add\n      mload\n        /* \"contracts/core/treasury/MPBondManager.sol\":4123:4152  payable(bond_.owner).transfer */\n      0xffffffffffffffffffffffffffffffffffffffff\n      and\n        /* \"contracts/core/treasury/MPBondManager.sol\":4123:4166  payable(bond_.owner).transfer(bond_.amount) */\n      0x08fc\n        /* \"contracts/core/treasury/MPBondManager.sol\":4153:4158  bond_ */\n      dup3\n        /* \"contracts/core/treasury/MPBondManager.sol\":4153:4165  bond_.amount */\n      0x40\n      add\n      mload\n        /* \"contracts/core/treasury/MPBondManager.sol\":4123:4166  payable(bond_.owner).transfer(bond_.amount) */\n      swap1\n      dup2\n      iszero\n      mul\n      swap1\n      mload(0x40)\n      0x00\n      mload(0x40)\n      dup1\n      dup4\n      sub\n      dup2\n      dup6\n      dup9\n      dup9\n      call\n      swap4\n      pop\n      pop\n      pop\n      pop\n      iszero\n      dup1\n      iszero\n      tag_125\n      jumpi\n      returndatacopy(0x00, 0x00, returndatasize)\n      revert(0x00, returndatasize)\n    tag_125:\n      pop\n        /* \"contracts/core/treasury/MPBondManager.sol\":4083:4313  if(bond_.erc20 == NATIVE){... */\n      jump(tag_126)\n    tag_123:\n        /* \"contracts/core/treasury/MPBondManager.sol\":4208:4221  IERC20 erc20_ */\n      0x00\n        /* \"contracts/core/treasury/MPBondManager.sol\":4231:4236  bond_ */\n      dup2\n        /* \"contracts/core/treasury/MPBondManager.sol\":4231:4242  bond_.erc20 */\n      0x60\n      add\n      mload\n        /* \"contracts/core/treasury/MPBondManager.sol\":4208:4244  IERC20 erc20_ = IERC20(bond_.erc20 ) */\n      swap1\n      pop\n        /* \"contracts/core/treasury/MPBondManager.sol\":4259:4265  erc20_ */\n      dup1\n        /* \"contracts/core/treasury/MPBondManager.sol\":4259:4274  erc20_.transfer */\n      0xffffffffffffffffffffffffffffffffffffffff\n      and\n      0xa9059cbb\n        /* \"contracts/core/treasury/MPBondManager.sol\":4275:4280  bond_ */\n      dup4\n        /* \"contracts/core/treasury/MPBondManager.sol\":4275:4286  bond_.owner */\n      0x20\n      add\n      mload\n        /* \"contracts/core/treasury/MPBondManager.sol\":4288:4293  bond_ */\n      dup5\n        /* \"contracts/core/treasury/MPBondManager.sol\":4288:4300  bond_.amount */\n      0x40\n      add\n      mload\n        /* \"contracts/core/treasury/MPBondManager.sol\":4259:4301  erc20_.transfer(bond_.owner, bond_.amount) */\n      mload(0x40)\n      dup4\n      0xffffffff\n      and\n      0xe0\n      shl\n      dup2\n      mstore\n      0x04\n      add\n      tag_127\n      swap3\n      swap2\n      swap1\n      tag_128\n      jump\t// in\n    tag_127:\n      0x20\n      mload(0x40)\n      dup1\n      dup4\n      sub\n      dup2\n      0x00\n      dup8\n      gas\n      call\n      iszero\n      dup1\n      iszero\n      tag_130\n      jumpi\n      returndatacopy(0x00, 0x00, returndatasize)\n      revert(0x00, returndatasize)\n    tag_130:\n      pop\n      pop\n      pop\n      pop\n      mload(0x40)\n      returndatasize\n      not(0x1f)\n      0x1f\n      dup3\n      add\n      and\n      dup3\n      add\n      dup1\n      0x40\n      mstore\n      pop\n      dup2\n      add\n      swap1\n      tag_131\n      swap2\n      swap1\n      tag_103\n      jump\t// in\n    tag_131:\n      pop\n        /* \"contracts/core/treasury/MPBondManager.sol\":4193:4313  {... */\n      pop\n        /* \"contracts/core/treasury/MPBondManager.sol\":4083:4313  if(bond_.erc20 == NATIVE){... */\n    tag_126:\n        /* \"contracts/core/treasury/MPBondManager.sol\":4330:4352  bondIdByUserByBondType */\n      0x03\n        /* \"contracts/core/treasury/MPBondManager.sol\":4330:4365  bondIdByUserByBondType[bond_.bType] */\n      0x00\n        /* \"contracts/core/treasury/MPBondManager.sol\":4353:4358  bond_ */\n      dup3\n        /* \"contracts/core/treasury/MPBondManager.sol\":4353:4364  bond_.bType */\n      0xa0\n      add\n      mload\n        /* \"contracts/core/treasury/MPBondManager.sol\":4330:4365  bondIdByUserByBondType[bond_.bType] */\n      0x01\n      dup2\n      gt\n      iszero\n      tag_132\n      jumpi\n      tag_133\n      tag_68\n      jump\t// in\n    tag_133:\n    tag_132:\n      0x01\n      dup2\n      gt\n      iszero\n      tag_134\n      jumpi\n      tag_135\n      tag_68\n      jump\t// in\n    tag_135:\n    tag_134:\n      dup2\n      mstore\n      0x20\n      add\n      swap1\n      dup2\n      mstore\n      0x20\n      add\n      0x00\n      keccak256\n        /* \"contracts/core/treasury/MPBondManager.sol\":4330:4377  bondIdByUserByBondType[bond_.bType][msg.sender] */\n      0x00\n        /* \"contracts/core/treasury/MPBondManager.sol\":4366:4376  msg.sender */\n      caller\n        /* \"contracts/core/treasury/MPBondManager.sol\":4330:4377  bondIdByUserByBondType[bond_.bType][msg.sender] */\n      0xffffffffffffffffffffffffffffffffffffffff\n      and\n      0xffffffffffffffffffffffffffffffffffffffff\n      and\n      dup2\n      mstore\n      0x20\n      add\n      swap1\n      dup2\n      mstore\n      0x20\n      add\n      0x00\n      keccak256\n        /* \"contracts/core/treasury/MPBondManager.sol\":4323:4377  delete bondIdByUserByBondType[bond_.bType][msg.sender] */\n      0x00\n      swap1\n      sstore\n        /* \"contracts/core/treasury/MPBondManager.sol\":4435:4440  false */\n      0x00\n        /* \"contracts/core/treasury/MPBondManager.sol\":4388:4407  hasBondByUserByType */\n      0x04\n        /* \"contracts/core/treasury/MPBondManager.sol\":4388:4420  hasBondByUserByType[bond_.bType] */\n      0x00\n        /* \"contracts/core/treasury/MPBondManager.sol\":4408:4413  bond_ */\n      dup4\n        /* \"contracts/core/treasury/MPBondManager.sol\":4408:4419  bond_.bType */\n      0xa0\n      add\n      mload\n        /* \"contracts/core/treasury/MPBondManager.sol\":4388:4420  hasBondByUserByType[bond_.bType] */\n      0x01\n      dup2\n      gt\n      iszero\n      tag_136\n      jumpi\n      tag_137\n      tag_68\n      jump\t// in\n    tag_137:\n    tag_136:\n      0x01\n      dup2\n      gt\n      iszero\n      tag_138\n      jumpi\n      tag_139\n      tag_68\n      jump\t// in\n    tag_139:\n    tag_138:\n      dup2\n      mstore\n      0x20\n      add\n      swap1\n      dup2\n      mstore\n      0x20\n      add\n      0x00\n      keccak256\n        /* \"contracts/core/treasury/MPBondManager.sol\":4388:4432  hasBondByUserByType[bond_.bType][msg.sender] */\n      0x00\n        /* \"contracts/core/treasury/MPBondManager.sol\":4421:4431  msg.sender */\n      caller\n        /* \"contracts/core/treasury/MPBondManager.sol\":4388:4432  hasBondByUserByType[bond_.bType][msg.sender] */\n      0xffffffffffffffffffffffffffffffffffffffff\n      and\n      0xffffffffffffffffffffffffffffffffffffffff\n      and\n      dup2\n      mstore\n      0x20\n      add\n      swap1\n      dup2\n      mstore\n      0x20\n      add\n      0x00\n      keccak256\n      0x00\n        /* \"contracts/core/treasury/MPBondManager.sol\":4388:4440  hasBondByUserByType[bond_.bType][msg.sender] = false */\n      0x0100\n      exp\n      dup2\n      sload\n      dup2\n      0xff\n      mul\n      not\n      and\n      swap1\n      dup4\n      iszero\n      iszero\n      mul\n      or\n      swap1\n      sstore\n      pop\n        /* \"contracts/core/treasury/MPBondManager.sol\":4452:4464  return _txId */\n      pop\n        /* \"contracts/core/treasury/MPBondManager.sol\":3421:4473  function releaseBond(uint256 _bondId) external bondHolderOnly(_bondId) returns (uint256 _txId){... */\n      pop\n      swap2\n      swap1\n      pop\n      jump\t// out\n        /* \"contracts/core/treasury/MPBondManager.sol\":1789:1912  function getAllowedBondTokens() view external returns (address [] memory _erc20){... */\n    tag_44:\n        /* \"contracts/core/treasury/MPBondManager.sol\":1844:1868  address [] memory _erc20 */\n      0x60\n        /* \"contracts/core/treasury/MPBondManager.sol\":1887:1904  allowedBondTokens */\n      0x05\n        /* \"contracts/core/treasury/MPBondManager.sol\":1880:1904  return allowedBondTokens */\n      dup1\n      sload\n      dup1\n      0x20\n      mul\n      0x20\n      add\n      mload(0x40)\n      swap1\n      dup2\n      add\n      0x40\n      mstore\n      dup1\n      swap3\n      swap2\n      swap1\n      dup2\n      dup2\n      mstore\n      0x20\n      add\n      dup3\n      dup1\n      sload\n      dup1\n      iszero\n      tag_141\n      jumpi\n      0x20\n      mul\n      dup3\n      add\n      swap2\n      swap1\n      0x00\n      mstore\n      keccak256(0x00, 0x20)\n      swap1\n    tag_142:\n      dup2\n      0x00\n      swap1\n      sload\n      swap1\n      0x0100\n      exp\n      swap1\n      div\n      0xffffffffffffffffffffffffffffffffffffffff\n      and\n      0xffffffffffffffffffffffffffffffffffffffff\n      and\n      dup2\n      mstore\n      0x20\n      add\n      swap1\n      0x01\n      add\n      swap1\n      dup1\n      dup4\n      gt\n      tag_142\n      jumpi\n    tag_141:\n      pop\n      pop\n      pop\n      pop\n      pop\n      swap1\n      pop\n        /* \"contracts/core/treasury/MPBondManager.sol\":1789:1912  function getAllowedBondTokens() view external returns (address [] memory _erc20){... */\n      swap1\n      jump\t// out\n        /* \"contracts/core/treasury/MPBondManager.sol\":2399:3413  function placeBond(BondType _type, uint256 _amount, address _erc20) payable external returns (uint256 _bondId, uint256 _txId){... */\n    tag_50:\n        /* \"contracts/core/treasury/MPBondManager.sol\":2493:2508  uint256 _bondId */\n      0x00\n        /* \"contracts/core/treasury/MPBondManager.sol\":2510:2523  uint256 _txId */\n      0x00\n        /* \"contracts/core/treasury/MPBondManager.sol\":2548:2567  hasBondByUserByType */\n      0x04\n        /* \"contracts/core/treasury/MPBondManager.sol\":2548:2574  hasBondByUserByType[_type] */\n      0x00\n        /* \"contracts/core/treasury/MPBondManager.sol\":2568:2573  _type */\n      dup7\n        /* \"contracts/core/treasury/MPBondManager.sol\":2548:2574  hasBondByUserByType[_type] */\n      0x01\n      dup2\n      gt\n      iszero\n      tag_144\n      jumpi\n      tag_145\n      tag_68\n      jump\t// in\n    tag_145:\n    tag_144:\n      0x01\n      dup2\n      gt\n      iszero\n      tag_146\n      jumpi\n      tag_147\n      tag_68\n      jump\t// in\n    tag_147:\n    tag_146:\n      dup2\n      mstore\n      0x20\n      add\n      swap1\n      dup2\n      mstore\n      0x20\n      add\n      0x00\n      keccak256\n        /* \"contracts/core/treasury/MPBondManager.sol\":2548:2586  hasBondByUserByType[_type][msg.sender] */\n      0x00\n        /* \"contracts/core/treasury/MPBondManager.sol\":2575:2585  msg.sender */\n      caller\n        /* \"contracts/core/treasury/MPBondManager.sol\":2548:2586  hasBondByUserByType[_type][msg.sender] */\n      0xffffffffffffffffffffffffffffffffffffffff\n      and\n      0xffffffffffffffffffffffffffffffffffffffff\n      and\n      dup2\n      mstore\n      0x20\n      add\n      swap1\n      dup2\n      mstore\n      0x20\n      add\n      0x00\n      keccak256\n      0x00\n      swap1\n      sload\n      swap1\n      0x0100\n      exp\n      swap1\n      div\n      0xff\n      and\n        /* \"contracts/core/treasury/MPBondManager.sol\":2547:2586  !hasBondByUserByType[_type][msg.sender] */\n      iszero\n        /* \"contracts/core/treasury/MPBondManager.sol\":2539:2613  require(!hasBondByUserByType[_type][msg.sender], \"bond type already held\") */\n      tag_148\n      jumpi\n      mload(0x40)\n      0x08c379a000000000000000000000000000000000000000000000000000000000\n      dup2\n      mstore\n      0x04\n      add\n      tag_149\n      swap1\n      tag_150\n      jump\t// in\n    tag_149:\n      mload(0x40)\n      dup1\n      swap2\n      sub\n      swap1\n      revert\n    tag_148:\n        /* \"contracts/core/treasury/MPBondManager.sol\":2669:2673  true */\n      0x01\n        /* \"contracts/core/treasury/MPBondManager.sol\":2628:2647  hasBondByUserByType */\n      0x04\n        /* \"contracts/core/treasury/MPBondManager.sol\":2628:2654  hasBondByUserByType[_type] */\n      0x00\n        /* \"contracts/core/treasury/MPBondManager.sol\":2648:2653  _type */\n      dup8\n        /* \"contracts/core/treasury/MPBondManager.sol\":2628:2654  hasBondByUserByType[_type] */\n      0x01\n      dup2\n      gt\n      iszero\n      tag_151\n      jumpi\n      tag_152\n      tag_68\n      jump\t// in\n    tag_152:\n    tag_151:\n      0x01\n      dup2\n      gt\n      iszero\n      tag_153\n      jumpi\n      tag_154\n      tag_68\n      jump\t// in\n    tag_154:\n    tag_153:\n      dup2\n      mstore\n      0x20\n      add\n      swap1\n      dup2\n      mstore\n      0x20\n      add\n      0x00\n      keccak256\n        /* \"contracts/core/treasury/MPBondManager.sol\":2628:2666  hasBondByUserByType[_type][msg.sender] */\n      0x00\n        /* \"contracts/core/treasury/MPBondManager.sol\":2655:2665  msg.sender */\n      caller\n        /* \"contracts/core/treasury/MPBondManager.sol\":2628:2666  hasBondByUserByType[_type][msg.sender] */\n      0xffffffffffffffffffffffffffffffffffffffff\n      and\n      0xffffffffffffffffffffffffffffffffffffffff\n      and\n      dup2\n      mstore\n      0x20\n      add\n      swap1\n      dup2\n      mstore\n      0x20\n      add\n      0x00\n      keccak256\n      0x00\n        /* \"contracts/core/treasury/MPBondManager.sol\":2628:2673  hasBondByUserByType[_type][msg.sender] = true */\n      0x0100\n      exp\n      dup2\n      sload\n      dup2\n      0xff\n      mul\n      not\n      and\n      swap1\n      dup4\n      iszero\n      iszero\n      mul\n      or\n      swap1\n      sstore\n      pop\n        /* \"contracts/core/treasury/MPBondManager.sol\":2689:2728  MPLib.transferIn(_erc20, _amount, self) */\n      tag_155\n        /* \"contracts/core/treasury/MPBondManager.sol\":2706:2712  _erc20 */\n      dup4\n        /* \"contracts/core/treasury/MPBondManager.sol\":2714:2721  _amount */\n      dup6\n        /* \"contracts/core/treasury/MPBondManager.sol\":2723:2727  self */\n      immutable(\"0x425a3d65e6c6cbbf01507814af1ac7512f93cceb8411381e1d5fb7adbfd44881\")\n        /* \"contracts/core/treasury/MPBondManager.sol\":2689:2705  MPLib.transferIn */\n      tag_156\n        /* \"contracts/core/treasury/MPBondManager.sol\":2689:2728  MPLib.transferIn(_erc20, _amount, self) */\n      jump\t// in\n    tag_155:\n      pop\n        /* \"contracts/core/treasury/MPBondManager.sol\":2756:2766  getIndex() */\n      tag_157\n        /* \"contracts/core/treasury/MPBondManager.sol\":2756:2764  getIndex */\n      tag_158\n        /* \"contracts/core/treasury/MPBondManager.sol\":2756:2766  getIndex() */\n      jump\t// in\n    tag_157:\n        /* \"contracts/core/treasury/MPBondManager.sol\":2746:2766  _bondId = getIndex() */\n      swap2\n      pop\n        /* \"contracts/core/treasury/MPBondManager.sol\":2782:2789  bondIds */\n      0x01\n        /* \"contracts/core/treasury/MPBondManager.sol\":2795:2802  _bondId */\n      dup3\n        /* \"contracts/core/treasury/MPBondManager.sol\":2782:2803  bondIds.push(_bondId) */\n      swap1\n      dup1\n      0x01\n      dup2\n      sload\n      add\n      dup1\n      dup3\n      sstore\n      dup1\n      swap2\n      pop\n      pop\n      0x01\n      swap1\n      sub\n      swap1\n      0x00\n      mstore\n      keccak256(0x00, 0x20)\n      add\n      0x00\n      swap1\n      swap2\n      swap1\n      swap2\n      swap1\n      swap2\n      pop\n      sstore\n        /* \"contracts/core/treasury/MPBondManager.sol\":2852:3300  SecurityBond({... */\n      mload(0x40)\n      dup1\n      0xc0\n      add\n      0x40\n      mstore\n      dup1\n        /* \"contracts/core/treasury/MPBondManager.sol\":2917:2924  _bondId */\n      dup4\n        /* \"contracts/core/treasury/MPBondManager.sol\":2852:3300  SecurityBond({... */\n      dup2\n      mstore\n      0x20\n      add\n        /* \"contracts/core/treasury/MPBondManager.sol\":2981:2991  msg.sender */\n      caller\n        /* \"contracts/core/treasury/MPBondManager.sol\":2852:3300  SecurityBond({... */\n      0xffffffffffffffffffffffffffffffffffffffff\n      and\n      dup2\n      mstore\n      0x20\n      add\n        /* \"contracts/core/treasury/MPBondManager.sol\":3049:3056  _amount */\n      dup6\n        /* \"contracts/core/treasury/MPBondManager.sol\":2852:3300  SecurityBond({... */\n      dup2\n      mstore\n      0x20\n      add\n        /* \"contracts/core/treasury/MPBondManager.sol\":3113:3119  _erc20 */\n      dup5\n        /* \"contracts/core/treasury/MPBondManager.sol\":2852:3300  SecurityBond({... */\n      0xffffffffffffffffffffffffffffffffffffffff\n      and\n      dup2\n      mstore\n      0x20\n      add\n        /* \"contracts/core/treasury/MPBondManager.sol\":3177:3192  block.timestamp */\n      timestamp\n        /* \"contracts/core/treasury/MPBondManager.sol\":2852:3300  SecurityBond({... */\n      dup2\n      mstore\n      0x20\n      add\n        /* \"contracts/core/treasury/MPBondManager.sol\":3247:3252  _type */\n      dup7\n        /* \"contracts/core/treasury/MPBondManager.sol\":2852:3300  SecurityBond({... */\n      0x01\n      dup2\n      gt\n      iszero\n      tag_160\n      jumpi\n      tag_161\n      tag_68\n      jump\t// in\n    tag_161:\n    tag_160:\n      dup2\n      mstore\n      pop\n        /* \"contracts/core/treasury/MPBondManager.sol\":2832:2840  bondById */\n      0x02\n        /* \"contracts/core/treasury/MPBondManager.sol\":2832:2849  bondById[_bondId] */\n      0x00\n        /* \"contracts/core/treasury/MPBondManager.sol\":2841:2848  _bondId */\n      dup5\n        /* \"contracts/core/treasury/MPBondManager.sol\":2832:2849  bondById[_bondId] */\n      dup2\n      mstore\n      0x20\n      add\n      swap1\n      dup2\n      mstore\n      0x20\n      add\n      0x00\n      keccak256\n        /* \"contracts/core/treasury/MPBondManager.sol\":2832:3300  bondById[_bondId] = SecurityBond({... */\n      0x00\n      dup3\n      add\n      mload\n      dup2\n      0x00\n      add\n      sstore\n      0x20\n      dup3\n      add\n      mload\n      dup2\n      0x01\n      add\n      exp(0x0100, 0x00)\n      dup2\n      sload\n      dup2\n      0xffffffffffffffffffffffffffffffffffffffff\n      mul\n      not\n      and\n      swap1\n      dup4\n      0xffffffffffffffffffffffffffffffffffffffff\n      and\n      mul\n      or\n      swap1\n      sstore\n      pop\n      0x40\n      dup3\n      add\n      mload\n      dup2\n      0x02\n      add\n      sstore\n      0x60\n      dup3\n      add\n      mload\n      dup2\n      0x03\n      add\n      exp(0x0100, 0x00)\n      dup2\n      sload\n      dup2\n      0xffffffffffffffffffffffffffffffffffffffff\n      mul\n      not\n      and\n      swap1\n      dup4\n      0xffffffffffffffffffffffffffffffffffffffff\n      and\n      mul\n      or\n      swap1\n      sstore\n      pop\n      0x80\n      dup3\n      add\n      mload\n      dup2\n      0x04\n      add\n      sstore\n      0xa0\n      dup3\n      add\n      mload\n      dup2\n      0x05\n      add\n      exp(0x0100, 0x00)\n      dup2\n      sload\n      dup2\n      0xff\n      mul\n      not\n      and\n      swap1\n      dup4\n      0x01\n      dup2\n      gt\n      iszero\n      tag_162\n      jumpi\n      tag_163\n      tag_68\n      jump\t// in\n    tag_163:\n    tag_162:\n      mul\n      or\n      swap1\n      sstore\n      pop\n      swap1\n      pop\n      pop\n        /* \"contracts/core/treasury/MPBondManager.sol\":3358:3365  _bondId */\n      dup2\n        /* \"contracts/core/treasury/MPBondManager.sol\":3315:3337  bondIdByUserByBondType */\n      0x03\n        /* \"contracts/core/treasury/MPBondManager.sol\":3315:3344  bondIdByUserByBondType[_type] */\n      0x00\n        /* \"contracts/core/treasury/MPBondManager.sol\":3338:3343  _type */\n      dup8\n        /* \"contracts/core/treasury/MPBondManager.sol\":3315:3344  bondIdByUserByBondType[_type] */\n      0x01\n      dup2\n      gt\n      iszero\n      tag_164\n      jumpi\n      tag_165\n      tag_68\n      jump\t// in\n    tag_165:\n    tag_164:\n      0x01\n      dup2\n      gt\n      iszero\n      tag_166\n      jumpi\n      tag_167\n      tag_68\n      jump\t// in\n    tag_167:\n    tag_166:\n      dup2\n      mstore\n      0x20\n      add\n      swap1\n      dup2\n      mstore\n      0x20\n      add\n      0x00\n      keccak256\n        /* \"contracts/core/treasury/MPBondManager.sol\":3315:3356  bondIdByUserByBondType[_type][msg.sender] */\n      0x00\n        /* \"contracts/core/treasury/MPBondManager.sol\":3345:3355  msg.sender */\n      caller\n        /* \"contracts/core/treasury/MPBondManager.sol\":3315:3356  bondIdByUserByBondType[_type][msg.sender] */\n      0xffffffffffffffffffffffffffffffffffffffff\n      and\n      0xffffffffffffffffffffffffffffffffffffffff\n      and\n      dup2\n      mstore\n      0x20\n      add\n      swap1\n      dup2\n      mstore\n      0x20\n      add\n      0x00\n      keccak256\n        /* \"contracts/core/treasury/MPBondManager.sol\":3315:3365  bondIdByUserByBondType[_type][msg.sender] =_bondId */\n      dup2\n      swap1\n      sstore\n      pop\n        /* \"contracts/core/treasury/MPBondManager.sol\":2399:3413  function placeBond(BondType _type, uint256 _amount, address _erc20) payable external returns (uint256 _bondId, uint256 _txId){... */\n      swap4\n      pop\n      swap4\n      swap2\n      pop\n      pop\n      jump\t// out\n        /* \"contracts/core/treasury/MPBondManager.sol\":1920:2051  function getBondById(uint256 _bondId) view external returns (SecurityBond memory _bond){... */\n    tag_56:\n        /* \"contracts/core/treasury/MPBondManager.sol\":1981:2006  SecurityBond memory _bond */\n      tag_168\n      tag_64\n      jump\t// in\n    tag_168:\n        /* \"contracts/core/treasury/MPBondManager.sol\":2025:2033  bondById */\n      0x02\n        /* \"contracts/core/treasury/MPBondManager.sol\":2025:2042  bondById[_bondId] */\n      0x00\n        /* \"contracts/core/treasury/MPBondManager.sol\":2034:2041  _bondId */\n      dup4\n        /* \"contracts/core/treasury/MPBondManager.sol\":2025:2042  bondById[_bondId] */\n      dup2\n      mstore\n      0x20\n      add\n      swap1\n      dup2\n      mstore\n      0x20\n      add\n      0x00\n      keccak256\n        /* \"contracts/core/treasury/MPBondManager.sol\":2018:2042  return bondById[_bondId] */\n      mload(0x40)\n      dup1\n      0xc0\n      add\n      0x40\n      mstore\n      swap1\n      dup2\n      0x00\n      dup3\n      add\n      sload\n      dup2\n      mstore\n      0x20\n      add\n      0x01\n      dup3\n      add\n      0x00\n      swap1\n      sload\n      swap1\n      0x0100\n      exp\n      swap1\n      div\n      0xffffffffffffffffffffffffffffffffffffffff\n      and\n      0xffffffffffffffffffffffffffffffffffffffff\n      and\n      0xffffffffffffffffffffffffffffffffffffffff\n      and\n      dup2\n      mstore\n      0x20\n      add\n      0x02\n      dup3\n      add\n      sload\n      dup2\n      mstore\n      0x20\n      add\n      0x03\n      dup3\n      add\n      0x00\n      swap1\n      sload\n      swap1\n      0x0100\n      exp\n      swap1\n      div\n      0xffffffffffffffffffffffffffffffffffffffff\n      and\n      0xffffffffffffffffffffffffffffffffffffffff\n      and\n      0xffffffffffffffffffffffffffffffffffffffff\n      and\n      dup2\n      mstore\n      0x20\n      add\n      0x04\n      dup3\n      add\n      sload\n      dup2\n      mstore\n      0x20\n      add\n      0x05\n      dup3\n      add\n      0x00\n      swap1\n      sload\n      swap1\n      0x0100\n      exp\n      swap1\n      div\n      0xff\n      and\n      0x01\n      dup2\n      gt\n      iszero\n      tag_170\n      jumpi\n      tag_171\n      tag_68\n      jump\t// in\n    tag_171:\n    tag_170:\n      0x01\n      dup2\n      gt\n      iszero\n      tag_172\n      jumpi\n      tag_173\n      tag_68\n      jump\t// in\n    tag_173:\n    tag_172:\n      dup2\n      mstore\n      pop\n      pop\n      swap1\n      pop\n        /* \"contracts/core/treasury/MPBondManager.sol\":1920:2051  function getBondById(uint256 _bondId) view external returns (SecurityBond memory _bond){... */\n      swap2\n      swap1\n      pop\n      jump\t// out\n        /* \"contracts/core/treasury/MPBondManager.sol\":2241:2391  function hasBond(BondType _type, address _user) view external returns (bool _hasBondType){ ... */\n    tag_61:\n        /* \"contracts/core/treasury/MPBondManager.sol\":2312:2329  bool _hasBondType */\n      0x00\n        /* \"contracts/core/treasury/MPBondManager.sol\":2349:2368  hasBondByUserByType */\n      0x04\n        /* \"contracts/core/treasury/MPBondManager.sol\":2349:2375  hasBondByUserByType[_type] */\n      0x00\n        /* \"contracts/core/treasury/MPBondManager.sol\":2369:2374  _type */\n      dup5\n        /* \"contracts/core/treasury/MPBondManager.sol\":2349:2375  hasBondByUserByType[_type] */\n      0x01\n      dup2\n      gt\n      iszero\n      tag_175\n      jumpi\n      tag_176\n      tag_68\n      jump\t// in\n    tag_176:\n    tag_175:\n      0x01\n      dup2\n      gt\n      iszero\n      tag_177\n      jumpi\n      tag_178\n      tag_68\n      jump\t// in\n    tag_178:\n    tag_177:\n      dup2\n      mstore\n      0x20\n      add\n      swap1\n      dup2\n      mstore\n      0x20\n      add\n      0x00\n      keccak256\n        /* \"contracts/core/treasury/MPBondManager.sol\":2349:2382  hasBondByUserByType[_type][_user] */\n      0x00\n        /* \"contracts/core/treasury/MPBondManager.sol\":2376:2381  _user */\n      dup4\n        /* \"contracts/core/treasury/MPBondManager.sol\":2349:2382  hasBondByUserByType[_type][_user] */\n      0xffffffffffffffffffffffffffffffffffffffff\n      and\n      0xffffffffffffffffffffffffffffffffffffffff\n      and\n      dup2\n      mstore\n      0x20\n      add\n      swap1\n      dup2\n      mstore\n      0x20\n      add\n      0x00\n      keccak256\n      0x00\n      swap1\n      sload\n      swap1\n      0x0100\n      exp\n      swap1\n      div\n      0xff\n      and\n        /* \"contracts/core/treasury/MPBondManager.sol\":2342:2382  return hasBondByUserByType[_type][_user] */\n      swap1\n      pop\n        /* \"contracts/core/treasury/MPBondManager.sol\":2241:2391  function hasBond(BondType _type, address _user) view external returns (bool _hasBondType){ ... */\n      swap3\n      swap2\n      pop\n      pop\n      jump\t// out\n        /* \"contracts/lib/MPLib.sol\":277:671  function transferIn(address _erc20, uint256 _amount, address _self) internal returns (uint256 _balance) {... */\n    tag_156:\n        /* \"contracts/lib/MPLib.sol\":363:379  uint256 _balance */\n      0x00\n        /* \"contracts/lib/MPLib.sol\":224:266  0xEeeeeEeeeEeEeeEeEeEeeEEEeeeeEeeeeeeeEEeE */\n      0xeeeeeeeeeeeeeeeeeeeeeeeeeeeeeeeeeeeeeeee\n        /* \"contracts/lib/MPLib.sol\":395:411  _erc20 == NATIVE */\n      0xffffffffffffffffffffffffffffffffffffffff\n      and\n        /* \"contracts/lib/MPLib.sol\":395:401  _erc20 */\n      dup5\n        /* \"contracts/lib/MPLib.sol\":395:411  _erc20 == NATIVE */\n      0xffffffffffffffffffffffffffffffffffffffff\n      and\n      sub\n        /* \"contracts/lib/MPLib.sol\":392:632  if(_erc20 == NATIVE) {... */\n      tag_180\n      jumpi\n        /* \"contracts/lib/MPLib.sol\":449:456  _amount */\n      dup3\n        /* \"contracts/lib/MPLib.sol\":436:445  msg.value */\n      callvalue\n        /* \"contracts/lib/MPLib.sol\":436:456  msg.value >= _amount */\n      lt\n      iszero\n        /* \"contracts/lib/MPLib.sol\":428:483  require(msg.value >= _amount, \"contribution mis-match\") */\n      tag_181\n      jumpi\n      mload(0x40)\n      0x08c379a000000000000000000000000000000000000000000000000000000000\n      dup2\n      mstore\n      0x04\n      add\n      tag_182\n      swap1\n      tag_183\n      jump\t// in\n    tag_182:\n      mload(0x40)\n      dup1\n      swap2\n      sub\n      swap1\n      revert\n    tag_181:\n        /* \"contracts/lib/MPLib.sol\":392:632  if(_erc20 == NATIVE) {... */\n      jump(tag_184)\n    tag_180:\n        /* \"contracts/lib/MPLib.sol\":527:540  IERC20 erc20_ */\n      0x00\n        /* \"contracts/lib/MPLib.sol\":550:556  _erc20 */\n      dup5\n        /* \"contracts/lib/MPLib.sol\":527:557  IERC20 erc20_ = IERC20(_erc20) */\n      swap1\n      pop\n        /* \"contracts/lib/MPLib.sol\":572:578  erc20_ */\n      dup1\n        /* \"contracts/lib/MPLib.sol\":572:591  erc20_.transferFrom */\n      0xffffffffffffffffffffffffffffffffffffffff\n      and\n      0x23b872dd\n        /* \"contracts/lib/MPLib.sol\":592:602  msg.sender */\n      caller\n        /* \"contracts/lib/MPLib.sol\":604:609  _self */\n      dup6\n        /* \"contracts/lib/MPLib.sol\":611:618  _amount */\n      dup8\n        /* \"contracts/lib/MPLib.sol\":572:619  erc20_.transferFrom(msg.sender, _self, _amount) */\n      mload(0x40)\n      dup5\n      0xffffffff\n      and\n      0xe0\n      shl\n      dup2\n      mstore\n      0x04\n      add\n      tag_185\n      swap4\n      swap3\n      swap2\n      swap1\n      tag_186\n      jump\t// in\n    tag_185:\n      0x20\n      mload(0x40)\n      dup1\n      dup4\n      sub\n      dup2\n      0x00\n      dup8\n      gas\n      call\n      iszero\n      dup1\n      iszero\n      tag_188\n      jumpi\n      returndatacopy(0x00, 0x00, returndatasize)\n      revert(0x00, returndatasize)\n    tag_188:\n      pop\n      pop\n      pop\n      pop\n      mload(0x40)\n      returndatasize\n      not(0x1f)\n      0x1f\n      dup3\n      add\n      and\n      dup3\n      add\n      dup1\n      0x40\n      mstore\n      pop\n      dup2\n      add\n      swap1\n      tag_189\n      swap2\n      swap1\n      tag_103\n      jump\t// in\n    tag_189:\n      pop\n        /* \"contracts/lib/MPLib.sol\":511:632  { ... */\n      pop\n        /* \"contracts/lib/MPLib.sol\":392:632  if(_erc20 == NATIVE) {... */\n    tag_184:\n        /* \"contracts/lib/MPLib.sol\":649:654  _self */\n      dup2\n        /* \"contracts/lib/MPLib.sol\":649:662  _self.balance */\n      0xffffffffffffffffffffffffffffffffffffffff\n      and\n      balance\n        /* \"contracts/lib/MPLib.sol\":642:662  return _self.balance */\n      swap1\n      pop\n        /* \"contracts/lib/MPLib.sol\":277:671  function transferIn(address _erc20, uint256 _amount, address _self) internal returns (uint256 _balance) {... */\n      swap4\n      swap3\n      pop\n      pop\n      pop\n      jump\t// out\n        /* \"contracts/core/treasury/MPBondManager.sol\":5050:5165  function getIndex() internal returns (uint256 _index) {... */\n    tag_158:\n        /* \"contracts/core/treasury/MPBondManager.sol\":5088:5102  uint256 _index */\n      0x00\n        /* \"contracts/core/treasury/MPBondManager.sol\":5124:5129  index */\n      0x00\n      0x00\n        /* \"contracts/core/treasury/MPBondManager.sol\":5124:5131  index++ */\n      dup2\n      sload\n      dup1\n      swap3\n      swap2\n      swap1\n      tag_191\n      swap1\n      tag_192\n      jump\t// in\n    tag_191:\n      swap2\n      swap1\n      pop\n      sstore\n        /* \"contracts/core/treasury/MPBondManager.sol\":5115:5131  _index = index++ */\n      swap1\n      pop\n        /* \"contracts/core/treasury/MPBondManager.sol\":5050:5165  function getIndex() internal returns (uint256 _index) {... */\n      swap1\n      jump\t// out\n    tag_64:\n      mload(0x40)\n      dup1\n      0xc0\n      add\n      0x40\n      mstore\n      dup1\n      0x00\n      dup2\n      mstore\n      0x20\n      add\n      and(0xffffffffffffffffffffffffffffffffffffffff, 0x00)\n      dup2\n      mstore\n      0x20\n      add\n      0x00\n      dup2\n      mstore\n      0x20\n      add\n      and(0xffffffffffffffffffffffffffffffffffffffff, 0x00)\n      dup2\n      mstore\n      0x20\n      add\n      0x00\n      dup2\n      mstore\n      0x20\n      add\n      0x00\n      0x01\n      dup2\n      gt\n      iszero\n      tag_193\n      jumpi\n      tag_194\n      tag_68\n      jump\t// in\n    tag_194:\n    tag_193:\n      dup2\n      mstore\n      pop\n      swap1\n      jump\t// out\n    tag_77:\n      dup3\n      dup1\n      sload\n      dup3\n      dup3\n      sstore\n      swap1\n      0x00\n      mstore\n      keccak256(0x00, 0x20)\n      swap1\n      dup2\n      add\n      swap3\n      dup3\n      iszero\n      tag_195\n      jumpi\n      swap2\n      0x20\n      mul\n      dup3\n      add\n    tag_196:\n      dup3\n      dup2\n      gt\n      iszero\n      tag_197\n      jumpi\n      dup3\n      mload\n      dup3\n      exp(0x0100, 0x00)\n      dup2\n      sload\n      dup2\n      0xffffffffffffffffffffffffffffffffffffffff\n      mul\n      not\n      and\n      swap1\n      dup4\n      0xffffffffffffffffffffffffffffffffffffffff\n      and\n      mul\n      or\n      swap1\n      sstore\n      pop\n      swap2\n      0x20\n      add\n      swap2\n      swap1\n      0x01\n      add\n      swap1\n      jump(tag_196)\n    tag_197:\n    tag_195:\n      pop\n      swap1\n      pop\n      tag_198\n      swap2\n      swap1\n      tag_199\n      jump\t// in\n    tag_198:\n      pop\n      swap1\n      jump\t// out\n    tag_199:\n    tag_200:\n      dup1\n      dup3\n      gt\n      iszero\n      tag_201\n      jumpi\n      0x00\n      dup2\n      0x00\n      swap1\n      sstore\n      pop\n      0x01\n      add\n      jump(tag_200)\n    tag_201:\n      pop\n      swap1\n      jump\t// out\n        /* \"#utility.yul\":7:82   */\n    tag_202:\n        /* \"#utility.yul\":40:46   */\n      0x00\n        /* \"#utility.yul\":73:75   */\n      0x40\n        /* \"#utility.yul\":67:76   */\n      mload\n        /* \"#utility.yul\":57:76   */\n      swap1\n      pop\n        /* \"#utility.yul\":7:82   */\n      swap1\n      jump\t// out\n        /* \"#utility.yul\":88:205   */\n    tag_203:\n        /* \"#utility.yul\":197:198   */\n      0x00\n        /* \"#utility.yul\":194:195   */\n      0x00\n        /* \"#utility.yul\":187:199   */\n      revert\n        /* \"#utility.yul\":211:328   */\n    tag_204:\n        /* \"#utility.yul\":320:321   */\n      0x00\n        /* \"#utility.yul\":317:318   */\n      0x00\n        /* \"#utility.yul\":310:322   */\n      revert\n        /* \"#utility.yul\":334:445   */\n    tag_205:\n        /* \"#utility.yul\":419:420   */\n      0x02\n        /* \"#utility.yul\":412:417   */\n      dup2\n        /* \"#utility.yul\":409:421   */\n      lt\n        /* \"#utility.yul\":399:439   */\n      tag_263\n      jumpi\n        /* \"#utility.yul\":435:436   */\n      0x00\n        /* \"#utility.yul\":432:433   */\n      0x00\n        /* \"#utility.yul\":425:437   */\n      revert\n        /* \"#utility.yul\":399:439   */\n    tag_263:\n        /* \"#utility.yul\":334:445   */\n      pop\n      jump\t// out\n        /* \"#utility.yul\":451:614   */\n    tag_206:\n        /* \"#utility.yul\":509:514   */\n      0x00\n        /* \"#utility.yul\":547:553   */\n      dup2\n        /* \"#utility.yul\":534:554   */\n      calldataload\n        /* \"#utility.yul\":525:554   */\n      swap1\n      pop\n        /* \"#utility.yul\":563:608   */\n      tag_265\n        /* \"#utility.yul\":602:607   */\n      dup2\n        /* \"#utility.yul\":563:608   */\n      tag_205\n      jump\t// in\n    tag_265:\n        /* \"#utility.yul\":451:614   */\n      swap3\n      swap2\n      pop\n      pop\n      jump\t// out\n        /* \"#utility.yul\":620:746   */\n    tag_207:\n        /* \"#utility.yul\":657:664   */\n      0x00\n        /* \"#utility.yul\":697:739   */\n      0xffffffffffffffffffffffffffffffffffffffff\n        /* \"#utility.yul\":690:695   */\n      dup3\n        /* \"#utility.yul\":686:740   */\n      and\n        /* \"#utility.yul\":675:740   */\n      swap1\n      pop\n        /* \"#utility.yul\":620:746   */\n      swap2\n      swap1\n      pop\n      jump\t// out\n        /* \"#utility.yul\":752:848   */\n    tag_208:\n        /* \"#utility.yul\":789:796   */\n      0x00\n        /* \"#utility.yul\":818:842   */\n      tag_268\n        /* \"#utility.yul\":836:841   */\n      dup3\n        /* \"#utility.yul\":818:842   */\n      tag_207\n      jump\t// in\n    tag_268:\n        /* \"#utility.yul\":807:842   */\n      swap1\n      pop\n        /* \"#utility.yul\":752:848   */\n      swap2\n      swap1\n      pop\n      jump\t// out\n        /* \"#utility.yul\":854:976   */\n    tag_209:\n        /* \"#utility.yul\":927:951   */\n      tag_270\n        /* \"#utility.yul\":945:950   */\n      dup2\n        /* \"#utility.yul\":927:951   */\n      tag_208\n      jump\t// in\n    tag_270:\n        /* \"#utility.yul\":920:925   */\n      dup2\n        /* \"#utility.yul\":917:952   */\n      eq\n        /* \"#utility.yul\":907:970   */\n      tag_271\n      jumpi\n        /* \"#utility.yul\":966:967   */\n      0x00\n        /* \"#utility.yul\":963:964   */\n      0x00\n        /* \"#utility.yul\":956:968   */\n      revert\n        /* \"#utility.yul\":907:970   */\n    tag_271:\n        /* \"#utility.yul\":854:976   */\n      pop\n      jump\t// out\n        /* \"#utility.yul\":982:1121   */\n    tag_210:\n        /* \"#utility.yul\":1028:1033   */\n      0x00\n        /* \"#utility.yul\":1066:1072   */\n      dup2\n        /* \"#utility.yul\":1053:1073   */\n      calldataload\n        /* \"#utility.yul\":1044:1073   */\n      swap1\n      pop\n        /* \"#utility.yul\":1082:1115   */\n      tag_273\n        /* \"#utility.yul\":1109:1114   */\n      dup2\n        /* \"#utility.yul\":1082:1115   */\n      tag_209\n      jump\t// in\n    tag_273:\n        /* \"#utility.yul\":982:1121   */\n      swap3\n      swap2\n      pop\n      pop\n      jump\t// out\n        /* \"#utility.yul\":1127:1625   */\n    tag_15:\n        /* \"#utility.yul\":1207:1213   */\n      0x00\n        /* \"#utility.yul\":1215:1221   */\n      0x00\n        /* \"#utility.yul\":1264:1266   */\n      0x40\n        /* \"#utility.yul\":1252:1261   */\n      dup4\n        /* \"#utility.yul\":1243:1250   */\n      dup6\n        /* \"#utility.yul\":1239:1262   */\n      sub\n        /* \"#utility.yul\":1235:1267   */\n      slt\n        /* \"#utility.yul\":1232:1351   */\n      iszero\n      tag_275\n      jumpi\n        /* \"#utility.yul\":1270:1349   */\n      tag_276\n      tag_203\n      jump\t// in\n    tag_276:\n        /* \"#utility.yul\":1232:1351   */\n    tag_275:\n        /* \"#utility.yul\":1390:1391   */\n      0x00\n        /* \"#utility.yul\":1415:1480   */\n      tag_277\n        /* \"#utility.yul\":1472:1479   */\n      dup6\n        /* \"#utility.yul\":1463:1469   */\n      dup3\n        /* \"#utility.yul\":1452:1461   */\n      dup7\n        /* \"#utility.yul\":1448:1470   */\n      add\n        /* \"#utility.yul\":1415:1480   */\n      tag_206\n      jump\t// in\n    tag_277:\n        /* \"#utility.yul\":1405:1480   */\n      swap3\n      pop\n        /* \"#utility.yul\":1361:1490   */\n      pop\n        /* \"#utility.yul\":1529:1531   */\n      0x20\n        /* \"#utility.yul\":1555:1608   */\n      tag_278\n        /* \"#utility.yul\":1600:1607   */\n      dup6\n        /* \"#utility.yul\":1591:1597   */\n      dup3\n        /* \"#utility.yul\":1580:1589   */\n      dup7\n        /* \"#utility.yul\":1576:1598   */\n      add\n        /* \"#utility.yul\":1555:1608   */\n      tag_210\n      jump\t// in\n    tag_278:\n        /* \"#utility.yul\":1545:1608   */\n      swap2\n      pop\n        /* \"#utility.yul\":1500:1618   */\n      pop\n        /* \"#utility.yul\":1127:1625   */\n      swap3\n      pop\n      swap3\n      swap1\n      pop\n      jump\t// out\n        /* \"#utility.yul\":1631:1708   */\n    tag_211:\n        /* \"#utility.yul\":1668:1675   */\n      0x00\n        /* \"#utility.yul\":1697:1702   */\n      dup2\n        /* \"#utility.yul\":1686:1702   */\n      swap1\n      pop\n        /* \"#utility.yul\":1631:1708   */\n      swap2\n      swap1\n      pop\n      jump\t// out\n        /* \"#utility.yul\":1714:1822   */\n    tag_212:\n        /* \"#utility.yul\":1791:1815   */\n      tag_281\n        /* \"#utility.yul\":1809:1814   */\n      dup2\n        /* \"#utility.yul\":1791:1815   */\n      tag_211\n      jump\t// in\n    tag_281:\n        /* \"#utility.yul\":1786:1789   */\n      dup3\n        /* \"#utility.yul\":1779:1816   */\n      mstore\n        /* \"#utility.yul\":1714:1822   */\n      pop\n      pop\n      jump\t// out\n        /* \"#utility.yul\":1828:1936   */\n    tag_213:\n        /* \"#utility.yul\":1905:1929   */\n      tag_283\n        /* \"#utility.yul\":1923:1928   */\n      dup2\n        /* \"#utility.yul\":1905:1929   */\n      tag_208\n      jump\t// in\n    tag_283:\n        /* \"#utility.yul\":1900:1903   */\n      dup3\n        /* \"#utility.yul\":1893:1930   */\n      mstore\n        /* \"#utility.yul\":1828:1936   */\n      pop\n      pop\n      jump\t// out\n        /* \"#utility.yul\":1942:2122   */\n    tag_68:\n        /* \"#utility.yul\":1990:2067   */\n      0x4e487b7100000000000000000000000000000000000000000000000000000000\n        /* \"#utility.yul\":1987:1988   */\n      0x00\n        /* \"#utility.yul\":1980:2068   */\n      mstore\n        /* \"#utility.yul\":2087:2091   */\n      0x21\n        /* \"#utility.yul\":2084:2085   */\n      0x04\n        /* \"#utility.yul\":2077:2092   */\n      mstore\n        /* \"#utility.yul\":2111:2115   */\n      0x24\n        /* \"#utility.yul\":2108:2109   */\n      0x00\n        /* \"#utility.yul\":2101:2116   */\n      revert\n        /* \"#utility.yul\":2128:2245   */\n    tag_214:\n        /* \"#utility.yul\":2213:2214   */\n      0x02\n        /* \"#utility.yul\":2206:2211   */\n      dup2\n        /* \"#utility.yul\":2203:2215   */\n      lt\n        /* \"#utility.yul\":2193:2239   */\n      tag_286\n      jumpi\n        /* \"#utility.yul\":2219:2237   */\n      tag_287\n      tag_68\n      jump\t// in\n    tag_287:\n        /* \"#utility.yul\":2193:2239   */\n    tag_286:\n        /* \"#utility.yul\":2128:2245   */\n      pop\n      jump\t// out\n        /* \"#utility.yul\":2251:2386   */\n    tag_215:\n        /* \"#utility.yul\":2300:2307   */\n      0x00\n        /* \"#utility.yul\":2329:2334   */\n      dup2\n        /* \"#utility.yul\":2318:2334   */\n      swap1\n      pop\n        /* \"#utility.yul\":2335:2380   */\n      tag_289\n        /* \"#utility.yul\":2374:2379   */\n      dup3\n        /* \"#utility.yul\":2335:2380   */\n      tag_214\n      jump\t// in\n    tag_289:\n        /* \"#utility.yul\":2251:2386   */\n      swap2\n      swap1\n      pop\n      jump\t// out\n        /* \"#utility.yul\":2392:2527   */\n    tag_216:\n        /* \"#utility.yul\":2452:2461   */\n      0x00\n        /* \"#utility.yul\":2485:2521   */\n      tag_291\n        /* \"#utility.yul\":2515:2520   */\n      dup3\n        /* \"#utility.yul\":2485:2521   */\n      tag_215\n      jump\t// in\n    tag_291:\n        /* \"#utility.yul\":2472:2521   */\n      swap1\n      pop\n        /* \"#utility.yul\":2392:2527   */\n      swap2\n      swap1\n      pop\n      jump\t// out\n        /* \"#utility.yul\":2533:2674   */\n    tag_217:\n        /* \"#utility.yul\":2620:2667   */\n      tag_293\n        /* \"#utility.yul\":2661:2666   */\n      dup2\n        /* \"#utility.yul\":2620:2667   */\n      tag_216\n      jump\t// in\n    tag_293:\n        /* \"#utility.yul\":2615:2618   */\n      dup3\n        /* \"#utility.yul\":2608:2668   */\n      mstore\n        /* \"#utility.yul\":2533:2674   */\n      pop\n      pop\n      jump\t// out\n        /* \"#utility.yul\":2730:3957   */\n    tag_218:\n        /* \"#utility.yul\":2885:2889   */\n      0xc0\n        /* \"#utility.yul\":2880:2883   */\n      dup3\n        /* \"#utility.yul\":2876:2890   */\n      add\n        /* \"#utility.yul\":2970:2974   */\n      0x00\n        /* \"#utility.yul\":2963:2968   */\n      dup3\n        /* \"#utility.yul\":2959:2975   */\n      add\n        /* \"#utility.yul\":2953:2976   */\n      mload\n        /* \"#utility.yul\":2989:3052   */\n      tag_295\n        /* \"#utility.yul\":3046:3050   */\n      0x00\n        /* \"#utility.yul\":3041:3044   */\n      dup6\n        /* \"#utility.yul\":3037:3051   */\n      add\n        /* \"#utility.yul\":3023:3035   */\n      dup3\n        /* \"#utility.yul\":2989:3052   */\n      tag_212\n      jump\t// in\n    tag_295:\n        /* \"#utility.yul\":2900:3062   */\n      pop\n        /* \"#utility.yul\":3145:3149   */\n      0x20\n        /* \"#utility.yul\":3138:3143   */\n      dup3\n        /* \"#utility.yul\":3134:3150   */\n      add\n        /* \"#utility.yul\":3128:3151   */\n      mload\n        /* \"#utility.yul\":3164:3227   */\n      tag_296\n        /* \"#utility.yul\":3221:3225   */\n      0x20\n        /* \"#utility.yul\":3216:3219   */\n      dup6\n        /* \"#utility.yul\":3212:3226   */\n      add\n        /* \"#utility.yul\":3198:3210   */\n      dup3\n        /* \"#utility.yul\":3164:3227   */\n      tag_213\n      jump\t// in\n    tag_296:\n        /* \"#utility.yul\":3072:3237   */\n      pop\n        /* \"#utility.yul\":3321:3325   */\n      0x40\n        /* \"#utility.yul\":3314:3319   */\n      dup3\n        /* \"#utility.yul\":3310:3326   */\n      add\n        /* \"#utility.yul\":3304:3327   */\n      mload\n        /* \"#utility.yul\":3340:3403   */\n      tag_297\n        /* \"#utility.yul\":3397:3401   */\n      0x40\n        /* \"#utility.yul\":3392:3395   */\n      dup6\n        /* \"#utility.yul\":3388:3402   */\n      add\n        /* \"#utility.yul\":3374:3386   */\n      dup3\n        /* \"#utility.yul\":3340:3403   */\n      tag_212\n      jump\t// in\n    tag_297:\n        /* \"#utility.yul\":3247:3413   */\n      pop\n        /* \"#utility.yul\":3496:3500   */\n      0x60\n        /* \"#utility.yul\":3489:3494   */\n      dup3\n        /* \"#utility.yul\":3485:3501   */\n      add\n        /* \"#utility.yul\":3479:3502   */\n      mload\n        /* \"#utility.yul\":3515:3578   */\n      tag_298\n        /* \"#utility.yul\":3572:3576   */\n      0x60\n        /* \"#utility.yul\":3567:3570   */\n      dup6\n        /* \"#utility.yul\":3563:3577   */\n      add\n        /* \"#utility.yul\":3549:3561   */\n      dup3\n        /* \"#utility.yul\":3515:3578   */\n      tag_213\n      jump\t// in\n    tag_298:\n        /* \"#utility.yul\":3423:3588   */\n      pop\n        /* \"#utility.yul\":3673:3677   */\n      0x80\n        /* \"#utility.yul\":3666:3671   */\n      dup3\n        /* \"#utility.yul\":3662:3678   */\n      add\n        /* \"#utility.yul\":3656:3679   */\n      mload\n        /* \"#utility.yul\":3692:3755   */\n      tag_299\n        /* \"#utility.yul\":3749:3753   */\n      0x80\n        /* \"#utility.yul\":3744:3747   */\n      dup6\n        /* \"#utility.yul\":3740:3754   */\n      add\n        /* \"#utility.yul\":3726:3738   */\n      dup3\n        /* \"#utility.yul\":3692:3755   */\n      tag_212\n      jump\t// in\n    tag_299:\n        /* \"#utility.yul\":3598:3765   */\n      pop\n        /* \"#utility.yul\":3848:3852   */\n      0xa0\n        /* \"#utility.yul\":3841:3846   */\n      dup3\n        /* \"#utility.yul\":3837:3853   */\n      add\n        /* \"#utility.yul\":3831:3854   */\n      mload\n        /* \"#utility.yul\":3867:3940   */\n      tag_300\n        /* \"#utility.yul\":3934:3938   */\n      0xa0\n        /* \"#utility.yul\":3929:3932   */\n      dup6\n        /* \"#utility.yul\":3925:3939   */\n      add\n        /* \"#utility.yul\":3911:3923   */\n      dup3\n        /* \"#utility.yul\":3867:3940   */\n      tag_217\n      jump\t// in\n    tag_300:\n        /* \"#utility.yul\":3775:3950   */\n      pop\n        /* \"#utility.yul\":2854:3957   */\n      pop\n        /* \"#utility.yul\":2730:3957   */\n      pop\n      pop\n      jump\t// out\n        /* \"#utility.yul\":3963:4302   */\n    tag_18:\n        /* \"#utility.yul\":4114:4118   */\n      0x00\n        /* \"#utility.yul\":4152:4155   */\n      0xc0\n        /* \"#utility.yul\":4141:4150   */\n      dup3\n        /* \"#utility.yul\":4137:4156   */\n      add\n        /* \"#utility.yul\":4129:4156   */\n      swap1\n      pop\n        /* \"#utility.yul\":4166:4295   */\n      tag_302\n        /* \"#utility.yul\":4292:4293   */\n      0x00\n        /* \"#utility.yul\":4281:4290   */\n      dup4\n        /* \"#utility.yul\":4277:4294   */\n      add\n        /* \"#utility.yul\":4268:4274   */\n      dup5\n        /* \"#utility.yul\":4166:4295   */\n      tag_218\n      jump\t// in\n    tag_302:\n        /* \"#utility.yul\":3963:4302   */\n      swap3\n      swap2\n      pop\n      pop\n      jump\t// out\n        /* \"#utility.yul\":4308:4425   */\n    tag_219:\n        /* \"#utility.yul\":4417:4418   */\n      0x00\n        /* \"#utility.yul\":4414:4415   */\n      0x00\n        /* \"#utility.yul\":4407:4419   */\n      revert\n        /* \"#utility.yul\":4431:4533   */\n    tag_220:\n        /* \"#utility.yul\":4472:4478   */\n      0x00\n        /* \"#utility.yul\":4523:4525   */\n      0x1f\n        /* \"#utility.yul\":4519:4526   */\n      not\n        /* \"#utility.yul\":4514:4516   */\n      0x1f\n        /* \"#utility.yul\":4507:4512   */\n      dup4\n        /* \"#utility.yul\":4503:4517   */\n      add\n        /* \"#utility.yul\":4499:4527   */\n      and\n        /* \"#utility.yul\":4489:4527   */\n      swap1\n      pop\n        /* \"#utility.yul\":4431:4533   */\n      swap2\n      swap1\n      pop\n      jump\t// out\n        /* \"#utility.yul\":4539:4719   */\n    tag_221:\n        /* \"#utility.yul\":4587:4664   */\n      0x4e487b7100000000000000000000000000000000000000000000000000000000\n        /* \"#utility.yul\":4584:4585   */\n      0x00\n        /* \"#utility.yul\":4577:4665   */\n      mstore\n        /* \"#utility.yul\":4684:4688   */\n      0x41\n        /* \"#utility.yul\":4681:4682   */\n      0x04\n        /* \"#utility.yul\":4674:4689   */\n      mstore\n        /* \"#utility.yul\":4708:4712   */\n      0x24\n        /* \"#utility.yul\":4705:4706   */\n      0x00\n        /* \"#utility.yul\":4698:4713   */\n      revert\n        /* \"#utility.yul\":4725:5006   */\n    tag_222:\n        /* \"#utility.yul\":4808:4835   */\n      tag_307\n        /* \"#utility.yul\":4830:4834   */\n      dup3\n        /* \"#utility.yul\":4808:4835   */\n      tag_220\n      jump\t// in\n    tag_307:\n        /* \"#utility.yul\":4800:4806   */\n      dup2\n        /* \"#utility.yul\":4796:4836   */\n      add\n        /* \"#utility.yul\":4938:4944   */\n      dup2\n        /* \"#utility.yul\":4926:4936   */\n      dup2\n        /* \"#utility.yul\":4923:4945   */\n      lt\n        /* \"#utility.yul\":4902:4920   */\n      0xffffffffffffffff\n        /* \"#utility.yul\":4890:4900   */\n      dup3\n        /* \"#utility.yul\":4887:4921   */\n      gt\n        /* \"#utility.yul\":4884:4946   */\n      or\n        /* \"#utility.yul\":4881:4969   */\n      iszero\n      tag_308\n      jumpi\n        /* \"#utility.yul\":4949:4967   */\n      tag_309\n      tag_221\n      jump\t// in\n    tag_309:\n        /* \"#utility.yul\":4881:4969   */\n    tag_308:\n        /* \"#utility.yul\":4989:4999   */\n      dup1\n        /* \"#utility.yul\":4985:4987   */\n      0x40\n        /* \"#utility.yul\":4978:5000   */\n      mstore\n        /* \"#utility.yul\":4768:5006   */\n      pop\n        /* \"#utility.yul\":4725:5006   */\n      pop\n      pop\n      jump\t// out\n        /* \"#utility.yul\":5012:5141   */\n    tag_223:\n        /* \"#utility.yul\":5046:5052   */\n      0x00\n        /* \"#utility.yul\":5073:5093   */\n      tag_311\n      tag_202\n      jump\t// in\n    tag_311:\n        /* \"#utility.yul\":5063:5093   */\n      swap1\n      pop\n        /* \"#utility.yul\":5102:5135   */\n      tag_312\n        /* \"#utility.yul\":5130:5134   */\n      dup3\n        /* \"#utility.yul\":5122:5128   */\n      dup3\n        /* \"#utility.yul\":5102:5135   */\n      tag_222\n      jump\t// in\n    tag_312:\n        /* \"#utility.yul\":5012:5141   */\n      swap2\n      swap1\n      pop\n      jump\t// out\n        /* \"#utility.yul\":5147:5458   */\n    tag_224:\n        /* \"#utility.yul\":5224:5228   */\n      0x00\n        /* \"#utility.yul\":5314:5332   */\n      0xffffffffffffffff\n        /* \"#utility.yul\":5306:5312   */\n      dup3\n        /* \"#utility.yul\":5303:5333   */\n      gt\n        /* \"#utility.yul\":5300:5356   */\n      iszero\n      tag_314\n      jumpi\n        /* \"#utility.yul\":5336:5354   */\n      tag_315\n      tag_221\n      jump\t// in\n    tag_315:\n        /* \"#utility.yul\":5300:5356   */\n    tag_314:\n        /* \"#utility.yul\":5386:5390   */\n      0x20\n        /* \"#utility.yul\":5378:5384   */\n      dup3\n        /* \"#utility.yul\":5374:5391   */\n      mul\n        /* \"#utility.yul\":5366:5391   */\n      swap1\n      pop\n        /* \"#utility.yul\":5446:5450   */\n      0x20\n        /* \"#utility.yul\":5440:5444   */\n      dup2\n        /* \"#utility.yul\":5436:5451   */\n      add\n        /* \"#utility.yul\":5428:5451   */\n      swap1\n      pop\n        /* \"#utility.yul\":5147:5458   */\n      swap2\n      swap1\n      pop\n      jump\t// out\n        /* \"#utility.yul\":5464:5581   */\n    tag_225:\n        /* \"#utility.yul\":5573:5574   */\n      0x00\n        /* \"#utility.yul\":5570:5571   */\n      0x00\n        /* \"#utility.yul\":5563:5575   */\n      revert\n        /* \"#utility.yul\":5604:6314   */\n    tag_226:\n        /* \"#utility.yul\":5700:5705   */\n      0x00\n        /* \"#utility.yul\":5725:5806   */\n      tag_318\n        /* \"#utility.yul\":5741:5805   */\n      tag_319\n        /* \"#utility.yul\":5798:5804   */\n      dup5\n        /* \"#utility.yul\":5741:5805   */\n      tag_224\n      jump\t// in\n    tag_319:\n        /* \"#utility.yul\":5725:5806   */\n      tag_223\n      jump\t// in\n    tag_318:\n        /* \"#utility.yul\":5716:5806   */\n      swap1\n      pop\n        /* \"#utility.yul\":5826:5831   */\n      dup1\n        /* \"#utility.yul\":5855:5861   */\n      dup4\n        /* \"#utility.yul\":5848:5853   */\n      dup3\n        /* \"#utility.yul\":5841:5862   */\n      mstore\n        /* \"#utility.yul\":5889:5893   */\n      0x20\n        /* \"#utility.yul\":5882:5887   */\n      dup3\n        /* \"#utility.yul\":5878:5894   */\n      add\n        /* \"#utility.yul\":5871:5894   */\n      swap1\n      pop\n        /* \"#utility.yul\":5942:5946   */\n      0x20\n        /* \"#utility.yul\":5934:5940   */\n      dup5\n        /* \"#utility.yul\":5930:5947   */\n      mul\n        /* \"#utility.yul\":5922:5928   */\n      dup4\n        /* \"#utility.yul\":5918:5948   */\n      add\n        /* \"#utility.yul\":5971:5974   */\n      dup6\n        /* \"#utility.yul\":5963:5969   */\n      dup2\n        /* \"#utility.yul\":5960:5975   */\n      gt\n        /* \"#utility.yul\":5957:6079   */\n      iszero\n      tag_320\n      jumpi\n        /* \"#utility.yul\":5990:6069   */\n      tag_321\n      tag_225\n      jump\t// in\n    tag_321:\n        /* \"#utility.yul\":5957:6079   */\n    tag_320:\n        /* \"#utility.yul\":6105:6111   */\n      dup4\n        /* \"#utility.yul\":6088:6308   */\n    tag_322:\n        /* \"#utility.yul\":6122:6128   */\n      dup2\n        /* \"#utility.yul\":6117:6120   */\n      dup2\n        /* \"#utility.yul\":6114:6129   */\n      lt\n        /* \"#utility.yul\":6088:6308   */\n      iszero\n      tag_324\n      jumpi\n        /* \"#utility.yul\":6197:6200   */\n      dup1\n        /* \"#utility.yul\":6226:6263   */\n      tag_325\n        /* \"#utility.yul\":6259:6262   */\n      dup9\n        /* \"#utility.yul\":6247:6257   */\n      dup3\n        /* \"#utility.yul\":6226:6263   */\n      tag_210\n      jump\t// in\n    tag_325:\n        /* \"#utility.yul\":6221:6224   */\n      dup5\n        /* \"#utility.yul\":6214:6264   */\n      mstore\n        /* \"#utility.yul\":6293:6297   */\n      0x20\n        /* \"#utility.yul\":6288:6291   */\n      dup5\n        /* \"#utility.yul\":6284:6298   */\n      add\n        /* \"#utility.yul\":6277:6298   */\n      swap4\n      pop\n        /* \"#utility.yul\":6164:6308   */\n      pop\n        /* \"#utility.yul\":6148:6152   */\n      0x20\n        /* \"#utility.yul\":6143:6146   */\n      dup2\n        /* \"#utility.yul\":6139:6153   */\n      add\n        /* \"#utility.yul\":6132:6153   */\n      swap1\n      pop\n        /* \"#utility.yul\":6088:6308   */\n      jump(tag_322)\n    tag_324:\n        /* \"#utility.yul\":6092:6113   */\n      pop\n        /* \"#utility.yul\":5706:6314   */\n      pop\n      pop\n        /* \"#utility.yul\":5604:6314   */\n      swap4\n      swap3\n      pop\n      pop\n      pop\n      jump\t// out\n        /* \"#utility.yul\":6337:6707   */\n    tag_227:\n        /* \"#utility.yul\":6408:6413   */\n      0x00\n        /* \"#utility.yul\":6457:6460   */\n      dup3\n        /* \"#utility.yul\":6450:6454   */\n      0x1f\n        /* \"#utility.yul\":6442:6448   */\n      dup4\n        /* \"#utility.yul\":6438:6455   */\n      add\n        /* \"#utility.yul\":6434:6461   */\n      slt\n        /* \"#utility.yul\":6424:6546   */\n      tag_327\n      jumpi\n        /* \"#utility.yul\":6465:6544   */\n      tag_328\n      tag_219\n      jump\t// in\n    tag_328:\n        /* \"#utility.yul\":6424:6546   */\n    tag_327:\n        /* \"#utility.yul\":6582:6588   */\n      dup2\n        /* \"#utility.yul\":6569:6589   */\n      calldataload\n        /* \"#utility.yul\":6607:6701   */\n      tag_329\n        /* \"#utility.yul\":6697:6700   */\n      dup5\n        /* \"#utility.yul\":6689:6695   */\n      dup3\n        /* \"#utility.yul\":6682:6686   */\n      0x20\n        /* \"#utility.yul\":6674:6680   */\n      dup7\n        /* \"#utility.yul\":6670:6687   */\n      add\n        /* \"#utility.yul\":6607:6701   */\n      tag_226\n      jump\t// in\n    tag_329:\n        /* \"#utility.yul\":6598:6701   */\n      swap2\n      pop\n        /* \"#utility.yul\":6414:6707   */\n      pop\n        /* \"#utility.yul\":6337:6707   */\n      swap3\n      swap2\n      pop\n      pop\n      jump\t// out\n        /* \"#utility.yul\":6713:7252   */\n    tag_22:\n        /* \"#utility.yul\":6797:6803   */\n      0x00\n        /* \"#utility.yul\":6846:6848   */\n      0x20\n        /* \"#utility.yul\":6834:6843   */\n      dup3\n        /* \"#utility.yul\":6825:6832   */\n      dup5\n        /* \"#utility.yul\":6821:6844   */\n      sub\n        /* \"#utility.yul\":6817:6849   */\n      slt\n        /* \"#utility.yul\":6814:6933   */\n      iszero\n      tag_331\n      jumpi\n        /* \"#utility.yul\":6852:6931   */\n      tag_332\n      tag_203\n      jump\t// in\n    tag_332:\n        /* \"#utility.yul\":6814:6933   */\n    tag_331:\n        /* \"#utility.yul\":7000:7001   */\n      0x00\n        /* \"#utility.yul\":6989:6998   */\n      dup3\n        /* \"#utility.yul\":6985:7002   */\n      add\n        /* \"#utility.yul\":6972:7003   */\n      calldataload\n        /* \"#utility.yul\":7030:7048   */\n      0xffffffffffffffff\n        /* \"#utility.yul\":7022:7028   */\n      dup2\n        /* \"#utility.yul\":7019:7049   */\n      gt\n        /* \"#utility.yul\":7016:7133   */\n      iszero\n      tag_333\n      jumpi\n        /* \"#utility.yul\":7052:7131   */\n      tag_334\n      tag_204\n      jump\t// in\n    tag_334:\n        /* \"#utility.yul\":7016:7133   */\n    tag_333:\n        /* \"#utility.yul\":7157:7235   */\n      tag_335\n        /* \"#utility.yul\":7227:7234   */\n      dup5\n        /* \"#utility.yul\":7218:7224   */\n      dup3\n        /* \"#utility.yul\":7207:7216   */\n      dup6\n        /* \"#utility.yul\":7203:7225   */\n      add\n        /* \"#utility.yul\":7157:7235   */\n      tag_227\n      jump\t// in\n    tag_335:\n        /* \"#utility.yul\":7147:7235   */\n      swap2\n      pop\n        /* \"#utility.yul\":6943:7245   */\n      pop\n        /* \"#utility.yul\":6713:7252   */\n      swap3\n      swap2\n      pop\n      pop\n      jump\t// out\n        /* \"#utility.yul\":7258:7348   */\n    tag_228:\n        /* \"#utility.yul\":7292:7299   */\n      0x00\n        /* \"#utility.yul\":7335:7340   */\n      dup2\n        /* \"#utility.yul\":7328:7341   */\n      iszero\n        /* \"#utility.yul\":7321:7342   */\n      iszero\n        /* \"#utility.yul\":7310:7342   */\n      swap1\n      pop\n        /* \"#utility.yul\":7258:7348   */\n      swap2\n      swap1\n      pop\n      jump\t// out\n        /* \"#utility.yul\":7354:7463   */\n    tag_229:\n        /* \"#utility.yul\":7435:7456   */\n      tag_338\n        /* \"#utility.yul\":7450:7455   */\n      dup2\n        /* \"#utility.yul\":7435:7456   */\n      tag_228\n      jump\t// in\n    tag_338:\n        /* \"#utility.yul\":7430:7433   */\n      dup3\n        /* \"#utility.yul\":7423:7457   */\n      mstore\n        /* \"#utility.yul\":7354:7463   */\n      pop\n      pop\n      jump\t// out\n        /* \"#utility.yul\":7469:7679   */\n    tag_25:\n        /* \"#utility.yul\":7556:7560   */\n      0x00\n        /* \"#utility.yul\":7594:7596   */\n      0x20\n        /* \"#utility.yul\":7583:7592   */\n      dup3\n        /* \"#utility.yul\":7579:7597   */\n      add\n        /* \"#utility.yul\":7571:7597   */\n      swap1\n      pop\n        /* \"#utility.yul\":7607:7672   */\n      tag_340\n        /* \"#utility.yul\":7669:7670   */\n      0x00\n        /* \"#utility.yul\":7658:7667   */\n      dup4\n        /* \"#utility.yul\":7654:7671   */\n      add\n        /* \"#utility.yul\":7645:7651   */\n      dup5\n        /* \"#utility.yul\":7607:7672   */\n      tag_229\n      jump\t// in\n    tag_340:\n        /* \"#utility.yul\":7469:7679   */\n      swap3\n      swap2\n      pop\n      pop\n      jump\t// out\n        /* \"#utility.yul\":7685:7803   */\n    tag_230:\n        /* \"#utility.yul\":7772:7796   */\n      tag_342\n        /* \"#utility.yul\":7790:7795   */\n      dup2\n        /* \"#utility.yul\":7772:7796   */\n      tag_211\n      jump\t// in\n    tag_342:\n        /* \"#utility.yul\":7767:7770   */\n      dup3\n        /* \"#utility.yul\":7760:7797   */\n      mstore\n        /* \"#utility.yul\":7685:7803   */\n      pop\n      pop\n      jump\t// out\n        /* \"#utility.yul\":7809:8031   */\n    tag_30:\n        /* \"#utility.yul\":7902:7906   */\n      0x00\n        /* \"#utility.yul\":7940:7942   */\n      0x20\n        /* \"#utility.yul\":7929:7938   */\n      dup3\n        /* \"#utility.yul\":7925:7943   */\n      add\n        /* \"#utility.yul\":7917:7943   */\n      swap1\n      pop\n        /* \"#utility.yul\":7953:8024   */\n      tag_344\n        /* \"#utility.yul\":8021:8022   */\n      0x00\n        /* \"#utility.yul\":8010:8019   */\n      dup4\n        /* \"#utility.yul\":8006:8023   */\n      add\n        /* \"#utility.yul\":7997:8003   */\n      dup5\n        /* \"#utility.yul\":7953:8024   */\n      tag_230\n      jump\t// in\n    tag_344:\n        /* \"#utility.yul\":7809:8031   */\n      swap3\n      swap2\n      pop\n      pop\n      jump\t// out\n        /* \"#utility.yul\":8037:8136   */\n    tag_231:\n        /* \"#utility.yul\":8089:8095   */\n      0x00\n        /* \"#utility.yul\":8123:8128   */\n      dup2\n        /* \"#utility.yul\":8117:8129   */\n      mload\n        /* \"#utility.yul\":8107:8129   */\n      swap1\n      pop\n        /* \"#utility.yul\":8037:8136   */\n      swap2\n      swap1\n      pop\n      jump\t// out\n        /* \"#utility.yul\":8142:8311   */\n    tag_232:\n        /* \"#utility.yul\":8226:8237   */\n      0x00\n        /* \"#utility.yul\":8260:8266   */\n      dup3\n        /* \"#utility.yul\":8255:8258   */\n      dup3\n        /* \"#utility.yul\":8248:8267   */\n      mstore\n        /* \"#utility.yul\":8300:8304   */\n      0x20\n        /* \"#utility.yul\":8295:8298   */\n      dup3\n        /* \"#utility.yul\":8291:8305   */\n      add\n        /* \"#utility.yul\":8276:8305   */\n      swap1\n      pop\n        /* \"#utility.yul\":8142:8311   */\n      swap3\n      swap2\n      pop\n      pop\n      jump\t// out\n        /* \"#utility.yul\":8317:8456   */\n    tag_233:\n        /* \"#utility.yul\":8406:8412   */\n      dup3\n        /* \"#utility.yul\":8401:8404   */\n      dup2\n        /* \"#utility.yul\":8396:8399   */\n      dup4\n        /* \"#utility.yul\":8390:8413   */\n      mcopy\n        /* \"#utility.yul\":8447:8448   */\n      0x00\n        /* \"#utility.yul\":8438:8444   */\n      dup4\n        /* \"#utility.yul\":8433:8436   */\n      dup4\n        /* \"#utility.yul\":8429:8445   */\n      add\n        /* \"#utility.yul\":8422:8449   */\n      mstore\n        /* \"#utility.yul\":8317:8456   */\n      pop\n      pop\n      pop\n      jump\t// out\n        /* \"#utility.yul\":8462:8839   */\n    tag_234:\n        /* \"#utility.yul\":8550:8553   */\n      0x00\n        /* \"#utility.yul\":8578:8617   */\n      tag_349\n        /* \"#utility.yul\":8611:8616   */\n      dup3\n        /* \"#utility.yul\":8578:8617   */\n      tag_231\n      jump\t// in\n    tag_349:\n        /* \"#utility.yul\":8633:8704   */\n      tag_350\n        /* \"#utility.yul\":8697:8703   */\n      dup2\n        /* \"#utility.yul\":8692:8695   */\n      dup6\n        /* \"#utility.yul\":8633:8704   */\n      tag_232\n      jump\t// in\n    tag_350:\n        /* \"#utility.yul\":8626:8704   */\n      swap4\n      pop\n        /* \"#utility.yul\":8713:8778   */\n      tag_351\n        /* \"#utility.yul\":8771:8777   */\n      dup2\n        /* \"#utility.yul\":8766:8769   */\n      dup6\n        /* \"#utility.yul\":8759:8763   */\n      0x20\n        /* \"#utility.yul\":8752:8757   */\n      dup7\n        /* \"#utility.yul\":8748:8764   */\n      add\n        /* \"#utility.yul\":8713:8778   */\n      tag_233\n      jump\t// in\n    tag_351:\n        /* \"#utility.yul\":8803:8832   */\n      tag_352\n        /* \"#utility.yul\":8825:8831   */\n      dup2\n        /* \"#utility.yul\":8803:8832   */\n      tag_220\n      jump\t// in\n    tag_352:\n        /* \"#utility.yul\":8798:8801   */\n      dup5\n        /* \"#utility.yul\":8794:8833   */\n      add\n        /* \"#utility.yul\":8787:8833   */\n      swap2\n      pop\n        /* \"#utility.yul\":8554:8839   */\n      pop\n        /* \"#utility.yul\":8462:8839   */\n      swap3\n      swap2\n      pop\n      pop\n      jump\t// out\n        /* \"#utility.yul\":8845:9158   */\n    tag_35:\n        /* \"#utility.yul\":8958:8962   */\n      0x00\n        /* \"#utility.yul\":8996:8998   */\n      0x20\n        /* \"#utility.yul\":8985:8994   */\n      dup3\n        /* \"#utility.yul\":8981:8999   */\n      add\n        /* \"#utility.yul\":8973:8999   */\n      swap1\n      pop\n        /* \"#utility.yul\":9045:9054   */\n      dup2\n        /* \"#utility.yul\":9039:9043   */\n      dup2\n        /* \"#utility.yul\":9035:9055   */\n      sub\n        /* \"#utility.yul\":9031:9032   */\n      0x00\n        /* \"#utility.yul\":9020:9029   */\n      dup4\n        /* \"#utility.yul\":9016:9033   */\n      add\n        /* \"#utility.yul\":9009:9056   */\n      mstore\n        /* \"#utility.yul\":9073:9151   */\n      tag_354\n        /* \"#utility.yul\":9146:9150   */\n      dup2\n        /* \"#utility.yul\":9137:9143   */\n      dup5\n        /* \"#utility.yul\":9073:9151   */\n      tag_234\n      jump\t// in\n    tag_354:\n        /* \"#utility.yul\":9065:9151   */\n      swap1\n      pop\n        /* \"#utility.yul\":8845:9158   */\n      swap3\n      swap2\n      pop\n      pop\n      jump\t// out\n        /* \"#utility.yul\":9164:9286   */\n    tag_235:\n        /* \"#utility.yul\":9237:9261   */\n      tag_356\n        /* \"#utility.yul\":9255:9260   */\n      dup2\n        /* \"#utility.yul\":9237:9261   */\n      tag_211\n      jump\t// in\n    tag_356:\n        /* \"#utility.yul\":9230:9235   */\n      dup2\n        /* \"#utility.yul\":9227:9262   */\n      eq\n        /* \"#utility.yul\":9217:9280   */\n      tag_357\n      jumpi\n        /* \"#utility.yul\":9276:9277   */\n      0x00\n        /* \"#utility.yul\":9273:9274   */\n      0x00\n        /* \"#utility.yul\":9266:9278   */\n      revert\n        /* \"#utility.yul\":9217:9280   */\n    tag_357:\n        /* \"#utility.yul\":9164:9286   */\n      pop\n      jump\t// out\n        /* \"#utility.yul\":9292:9431   */\n    tag_236:\n        /* \"#utility.yul\":9338:9343   */\n      0x00\n        /* \"#utility.yul\":9376:9382   */\n      dup2\n        /* \"#utility.yul\":9363:9383   */\n      calldataload\n        /* \"#utility.yul\":9354:9383   */\n      swap1\n      pop\n        /* \"#utility.yul\":9392:9425   */\n      tag_359\n        /* \"#utility.yul\":9419:9424   */\n      dup2\n        /* \"#utility.yul\":9392:9425   */\n      tag_235\n      jump\t// in\n    tag_359:\n        /* \"#utility.yul\":9292:9431   */\n      swap3\n      swap2\n      pop\n      pop\n      jump\t// out\n        /* \"#utility.yul\":9437:9766   */\n    tag_39:\n        /* \"#utility.yul\":9496:9502   */\n      0x00\n        /* \"#utility.yul\":9545:9547   */\n      0x20\n        /* \"#utility.yul\":9533:9542   */\n      dup3\n        /* \"#utility.yul\":9524:9531   */\n      dup5\n        /* \"#utility.yul\":9520:9543   */\n      sub\n        /* \"#utility.yul\":9516:9548   */\n      slt\n        /* \"#utility.yul\":9513:9632   */\n      iszero\n      tag_361\n      jumpi\n        /* \"#utility.yul\":9551:9630   */\n      tag_362\n      tag_203\n      jump\t// in\n    tag_362:\n        /* \"#utility.yul\":9513:9632   */\n    tag_361:\n        /* \"#utility.yul\":9671:9672   */\n      0x00\n        /* \"#utility.yul\":9696:9749   */\n      tag_363\n        /* \"#utility.yul\":9741:9748   */\n      dup5\n        /* \"#utility.yul\":9732:9738   */\n      dup3\n        /* \"#utility.yul\":9721:9730   */\n      dup6\n        /* \"#utility.yul\":9717:9739   */\n      add\n        /* \"#utility.yul\":9696:9749   */\n      tag_236\n      jump\t// in\n    tag_363:\n        /* \"#utility.yul\":9686:9749   */\n      swap2\n      pop\n        /* \"#utility.yul\":9642:9759   */\n      pop\n        /* \"#utility.yul\":9437:9766   */\n      swap3\n      swap2\n      pop\n      pop\n      jump\t// out\n        /* \"#utility.yul\":9772:9886   */\n    tag_237:\n        /* \"#utility.yul\":9839:9845   */\n      0x00\n        /* \"#utility.yul\":9873:9878   */\n      dup2\n        /* \"#utility.yul\":9867:9879   */\n      mload\n        /* \"#utility.yul\":9857:9879   */\n      swap1\n      pop\n        /* \"#utility.yul\":9772:9886   */\n      swap2\n      swap1\n      pop\n      jump\t// out\n        /* \"#utility.yul\":9892:10076   */\n    tag_238:\n        /* \"#utility.yul\":9991:10002   */\n      0x00\n        /* \"#utility.yul\":10025:10031   */\n      dup3\n        /* \"#utility.yul\":10020:10023   */\n      dup3\n        /* \"#utility.yul\":10013:10032   */\n      mstore\n        /* \"#utility.yul\":10065:10069   */\n      0x20\n        /* \"#utility.yul\":10060:10063   */\n      dup3\n        /* \"#utility.yul\":10056:10070   */\n      add\n        /* \"#utility.yul\":10041:10070   */\n      swap1\n      pop\n        /* \"#utility.yul\":9892:10076   */\n      swap3\n      swap2\n      pop\n      pop\n      jump\t// out\n        /* \"#utility.yul\":10082:10214   */\n    tag_239:\n        /* \"#utility.yul\":10149:10153   */\n      0x00\n        /* \"#utility.yul\":10172:10175   */\n      dup2\n        /* \"#utility.yul\":10164:10175   */\n      swap1\n      pop\n        /* \"#utility.yul\":10202:10206   */\n      0x20\n        /* \"#utility.yul\":10197:10200   */\n      dup3\n        /* \"#utility.yul\":10193:10207   */\n      add\n        /* \"#utility.yul\":10185:10207   */\n      swap1\n      pop\n        /* \"#utility.yul\":10082:10214   */\n      swap2\n      swap1\n      pop\n      jump\t// out\n        /* \"#utility.yul\":10220:10399   */\n    tag_240:\n        /* \"#utility.yul\":10289:10299   */\n      0x00\n        /* \"#utility.yul\":10310:10356   */\n      tag_368\n        /* \"#utility.yul\":10352:10355   */\n      dup4\n        /* \"#utility.yul\":10344:10350   */\n      dup4\n        /* \"#utility.yul\":10310:10356   */\n      tag_213\n      jump\t// in\n    tag_368:\n        /* \"#utility.yul\":10388:10392   */\n      0x20\n        /* \"#utility.yul\":10383:10386   */\n      dup4\n        /* \"#utility.yul\":10379:10393   */\n      add\n        /* \"#utility.yul\":10365:10393   */\n      swap1\n      pop\n        /* \"#utility.yul\":10220:10399   */\n      swap3\n      swap2\n      pop\n      pop\n      jump\t// out\n        /* \"#utility.yul\":10405:10518   */\n    tag_241:\n        /* \"#utility.yul\":10475:10479   */\n      0x00\n        /* \"#utility.yul\":10507:10511   */\n      0x20\n        /* \"#utility.yul\":10502:10505   */\n      dup3\n        /* \"#utility.yul\":10498:10512   */\n      add\n        /* \"#utility.yul\":10490:10512   */\n      swap1\n      pop\n        /* \"#utility.yul\":10405:10518   */\n      swap2\n      swap1\n      pop\n      jump\t// out\n        /* \"#utility.yul\":10554:11286   */\n    tag_242:\n        /* \"#utility.yul\":10673:10676   */\n      0x00\n        /* \"#utility.yul\":10702:10756   */\n      tag_371\n        /* \"#utility.yul\":10750:10755   */\n      dup3\n        /* \"#utility.yul\":10702:10756   */\n      tag_237\n      jump\t// in\n    tag_371:\n        /* \"#utility.yul\":10772:10858   */\n      tag_372\n        /* \"#utility.yul\":10851:10857   */\n      dup2\n        /* \"#utility.yul\":10846:10849   */\n      dup6\n        /* \"#utility.yul\":10772:10858   */\n      tag_238\n      jump\t// in\n    tag_372:\n        /* \"#utility.yul\":10765:10858   */\n      swap4\n      pop\n        /* \"#utility.yul\":10882:10938   */\n      tag_373\n        /* \"#utility.yul\":10932:10937   */\n      dup4\n        /* \"#utility.yul\":10882:10938   */\n      tag_239\n      jump\t// in\n    tag_373:\n        /* \"#utility.yul\":10961:10968   */\n      dup1\n        /* \"#utility.yul\":10992:10993   */\n      0x00\n        /* \"#utility.yul\":10977:11261   */\n    tag_374:\n        /* \"#utility.yul\":11002:11008   */\n      dup4\n        /* \"#utility.yul\":10999:11000   */\n      dup2\n        /* \"#utility.yul\":10996:11009   */\n      lt\n        /* \"#utility.yul\":10977:11261   */\n      iszero\n      tag_376\n      jumpi\n        /* \"#utility.yul\":11078:11084   */\n      dup2\n        /* \"#utility.yul\":11072:11085   */\n      mload\n        /* \"#utility.yul\":11105:11168   */\n      tag_377\n        /* \"#utility.yul\":11164:11167   */\n      dup9\n        /* \"#utility.yul\":11149:11162   */\n      dup3\n        /* \"#utility.yul\":11105:11168   */\n      tag_240\n      jump\t// in\n    tag_377:\n        /* \"#utility.yul\":11098:11168   */\n      swap8\n      pop\n        /* \"#utility.yul\":11191:11251   */\n      tag_378\n        /* \"#utility.yul\":11244:11250   */\n      dup4\n        /* \"#utility.yul\":11191:11251   */\n      tag_241\n      jump\t// in\n    tag_378:\n        /* \"#utility.yul\":11181:11251   */\n      swap3\n      pop\n        /* \"#utility.yul\":11037:11261   */\n      pop\n        /* \"#utility.yul\":11024:11025   */\n      0x01\n        /* \"#utility.yul\":11021:11022   */\n      dup2\n        /* \"#utility.yul\":11017:11026   */\n      add\n        /* \"#utility.yul\":11012:11026   */\n      swap1\n      pop\n        /* \"#utility.yul\":10977:11261   */\n      jump(tag_374)\n    tag_376:\n        /* \"#utility.yul\":10981:10995   */\n      pop\n        /* \"#utility.yul\":11277:11280   */\n      dup6\n        /* \"#utility.yul\":11270:11280   */\n      swap4\n      pop\n        /* \"#utility.yul\":10678:11286   */\n      pop\n      pop\n      pop\n        /* \"#utility.yul\":10554:11286   */\n      swap3\n      swap2\n      pop\n      pop\n      jump\t// out\n        /* \"#utility.yul\":11292:11665   */\n    tag_46:\n        /* \"#utility.yul\":11435:11439   */\n      0x00\n        /* \"#utility.yul\":11473:11475   */\n      0x20\n        /* \"#utility.yul\":11462:11471   */\n      dup3\n        /* \"#utility.yul\":11458:11476   */\n      add\n        /* \"#utility.yul\":11450:11476   */\n      swap1\n      pop\n        /* \"#utility.yul\":11522:11531   */\n      dup2\n        /* \"#utility.yul\":11516:11520   */\n      dup2\n        /* \"#utility.yul\":11512:11532   */\n      sub\n        /* \"#utility.yul\":11508:11509   */\n      0x00\n        /* \"#utility.yul\":11497:11506   */\n      dup4\n        /* \"#utility.yul\":11493:11510   */\n      add\n        /* \"#utility.yul\":11486:11533   */\n      mstore\n        /* \"#utility.yul\":11550:11658   */\n      tag_380\n        /* \"#utility.yul\":11653:11657   */\n      dup2\n        /* \"#utility.yul\":11644:11650   */\n      dup5\n        /* \"#utility.yul\":11550:11658   */\n      tag_242\n      jump\t// in\n    tag_380:\n        /* \"#utility.yul\":11542:11658   */\n      swap1\n      pop\n        /* \"#utility.yul\":11292:11665   */\n      swap3\n      swap2\n      pop\n      pop\n      jump\t// out\n        /* \"#utility.yul\":11671:12314   */\n    tag_49:\n        /* \"#utility.yul\":11760:11766   */\n      0x00\n        /* \"#utility.yul\":11768:11774   */\n      0x00\n        /* \"#utility.yul\":11776:11782   */\n      0x00\n        /* \"#utility.yul\":11825:11827   */\n      0x60\n        /* \"#utility.yul\":11813:11822   */\n      dup5\n        /* \"#utility.yul\":11804:11811   */\n      dup7\n        /* \"#utility.yul\":11800:11823   */\n      sub\n        /* \"#utility.yul\":11796:11828   */\n      slt\n        /* \"#utility.yul\":11793:11912   */\n      iszero\n      tag_382\n      jumpi\n        /* \"#utility.yul\":11831:11910   */\n      tag_383\n      tag_203\n      jump\t// in\n    tag_383:\n        /* \"#utility.yul\":11793:11912   */\n    tag_382:\n        /* \"#utility.yul\":11951:11952   */\n      0x00\n        /* \"#utility.yul\":11976:12041   */\n      tag_384\n        /* \"#utility.yul\":12033:12040   */\n      dup7\n        /* \"#utility.yul\":12024:12030   */\n      dup3\n        /* \"#utility.yul\":12013:12022   */\n      dup8\n        /* \"#utility.yul\":12009:12031   */\n      add\n        /* \"#utility.yul\":11976:12041   */\n      tag_206\n      jump\t// in\n    tag_384:\n        /* \"#utility.yul\":11966:12041   */\n      swap4\n      pop\n        /* \"#utility.yul\":11922:12051   */\n      pop\n        /* \"#utility.yul\":12090:12092   */\n      0x20\n        /* \"#utility.yul\":12116:12169   */\n      tag_385\n        /* \"#utility.yul\":12161:12168   */\n      dup7\n        /* \"#utility.yul\":12152:12158   */\n      dup3\n        /* \"#utility.yul\":12141:12150   */\n      dup8\n        /* \"#utility.yul\":12137:12159   */\n      add\n        /* \"#utility.yul\":12116:12169   */\n      tag_236\n      jump\t// in\n    tag_385:\n        /* \"#utility.yul\":12106:12169   */\n      swap3\n      pop\n        /* \"#utility.yul\":12061:12179   */\n      pop\n        /* \"#utility.yul\":12218:12220   */\n      0x40\n        /* \"#utility.yul\":12244:12297   */\n      tag_386\n        /* \"#utility.yul\":12289:12296   */\n      dup7\n        /* \"#utility.yul\":12280:12286   */\n      dup3\n        /* \"#utility.yul\":12269:12278   */\n      dup8\n        /* \"#utility.yul\":12265:12287   */\n      add\n        /* \"#utility.yul\":12244:12297   */\n      tag_210\n      jump\t// in\n    tag_386:\n        /* \"#utility.yul\":12234:12297   */\n      swap2\n      pop\n        /* \"#utility.yul\":12189:12307   */\n      pop\n        /* \"#utility.yul\":11671:12314   */\n      swap3\n      pop\n      swap3\n      pop\n      swap3\n      jump\t// out\n        /* \"#utility.yul\":12320:12652   */\n    tag_52:\n        /* \"#utility.yul\":12441:12445   */\n      0x00\n        /* \"#utility.yul\":12479:12481   */\n      0x40\n        /* \"#utility.yul\":12468:12477   */\n      dup3\n        /* \"#utility.yul\":12464:12482   */\n      add\n        /* \"#utility.yul\":12456:12482   */\n      swap1\n      pop\n        /* \"#utility.yul\":12492:12563   */\n      tag_388\n        /* \"#utility.yul\":12560:12561   */\n      0x00\n        /* \"#utility.yul\":12549:12558   */\n      dup4\n        /* \"#utility.yul\":12545:12562   */\n      add\n        /* \"#utility.yul\":12536:12542   */\n      dup6\n        /* \"#utility.yul\":12492:12563   */\n      tag_230\n      jump\t// in\n    tag_388:\n        /* \"#utility.yul\":12573:12645   */\n      tag_389\n        /* \"#utility.yul\":12641:12643   */\n      0x20\n        /* \"#utility.yul\":12630:12639   */\n      dup4\n        /* \"#utility.yul\":12626:12644   */\n      add\n        /* \"#utility.yul\":12617:12623   */\n      dup5\n        /* \"#utility.yul\":12573:12645   */\n      tag_230\n      jump\t// in\n    tag_389:\n        /* \"#utility.yul\":12320:12652   */\n      swap4\n      swap3\n      pop\n      pop\n      pop\n      jump\t// out\n        /* \"#utility.yul\":12658:12824   */\n    tag_243:\n        /* \"#utility.yul\":12798:12816   */\n      0x626f6e6420686f6c646572206f6e6c7900000000000000000000000000000000\n        /* \"#utility.yul\":12794:12795   */\n      0x00\n        /* \"#utility.yul\":12786:12792   */\n      dup3\n        /* \"#utility.yul\":12782:12796   */\n      add\n        /* \"#utility.yul\":12775:12817   */\n      mstore\n        /* \"#utility.yul\":12658:12824   */\n      pop\n      jump\t// out\n        /* \"#utility.yul\":12830:13196   */\n    tag_244:\n        /* \"#utility.yul\":12972:12975   */\n      0x00\n        /* \"#utility.yul\":12993:13060   */\n      tag_392\n        /* \"#utility.yul\":13057:13059   */\n      0x10\n        /* \"#utility.yul\":13052:13055   */\n      dup4\n        /* \"#utility.yul\":12993:13060   */\n      tag_232\n      jump\t// in\n    tag_392:\n        /* \"#utility.yul\":12986:13060   */\n      swap2\n      pop\n        /* \"#utility.yul\":13069:13162   */\n      tag_393\n        /* \"#utility.yul\":13158:13161   */\n      dup3\n        /* \"#utility.yul\":13069:13162   */\n      tag_243\n      jump\t// in\n    tag_393:\n        /* \"#utility.yul\":13187:13189   */\n      0x20\n        /* \"#utility.yul\":13182:13185   */\n      dup3\n        /* \"#utility.yul\":13178:13190   */\n      add\n        /* \"#utility.yul\":13171:13190   */\n      swap1\n      pop\n        /* \"#utility.yul\":12830:13196   */\n      swap2\n      swap1\n      pop\n      jump\t// out\n        /* \"#utility.yul\":13202:13621   */\n    tag_83:\n        /* \"#utility.yul\":13368:13372   */\n      0x00\n        /* \"#utility.yul\":13406:13408   */\n      0x20\n        /* \"#utility.yul\":13395:13404   */\n      dup3\n        /* \"#utility.yul\":13391:13409   */\n      add\n        /* \"#utility.yul\":13383:13409   */\n      swap1\n      pop\n        /* \"#utility.yul\":13455:13464   */\n      dup2\n        /* \"#utility.yul\":13449:13453   */\n      dup2\n        /* \"#utility.yul\":13445:13465   */\n      sub\n        /* \"#utility.yul\":13441:13442   */\n      0x00\n        /* \"#utility.yul\":13430:13439   */\n      dup4\n        /* \"#utility.yul\":13426:13443   */\n      add\n        /* \"#utility.yul\":13419:13466   */\n      mstore\n        /* \"#utility.yul\":13483:13614   */\n      tag_395\n        /* \"#utility.yul\":13609:13613   */\n      dup2\n        /* \"#utility.yul\":13483:13614   */\n      tag_244\n      jump\t// in\n    tag_395:\n        /* \"#utility.yul\":13475:13614   */\n      swap1\n      pop\n        /* \"#utility.yul\":13202:13621   */\n      swap2\n      swap1\n      pop\n      jump\t// out\n        /* \"#utility.yul\":13627:13770   */\n    tag_245:\n        /* \"#utility.yul\":13684:13689   */\n      0x00\n        /* \"#utility.yul\":13715:13721   */\n      dup2\n        /* \"#utility.yul\":13709:13722   */\n      mload\n        /* \"#utility.yul\":13700:13722   */\n      swap1\n      pop\n        /* \"#utility.yul\":13731:13764   */\n      tag_397\n        /* \"#utility.yul\":13758:13763   */\n      dup2\n        /* \"#utility.yul\":13731:13764   */\n      tag_209\n      jump\t// in\n    tag_397:\n        /* \"#utility.yul\":13627:13770   */\n      swap3\n      swap2\n      pop\n      pop\n      jump\t// out\n        /* \"#utility.yul\":13776:14127   */\n    tag_98:\n        /* \"#utility.yul\":13846:13852   */\n      0x00\n        /* \"#utility.yul\":13895:13897   */\n      0x20\n        /* \"#utility.yul\":13883:13892   */\n      dup3\n        /* \"#utility.yul\":13874:13881   */\n      dup5\n        /* \"#utility.yul\":13870:13893   */\n      sub\n        /* \"#utility.yul\":13866:13898   */\n      slt\n        /* \"#utility.yul\":13863:13982   */\n      iszero\n      tag_399\n      jumpi\n        /* \"#utility.yul\":13901:13980   */\n      tag_400\n      tag_203\n      jump\t// in\n    tag_400:\n        /* \"#utility.yul\":13863:13982   */\n    tag_399:\n        /* \"#utility.yul\":14021:14022   */\n      0x00\n        /* \"#utility.yul\":14046:14110   */\n      tag_401\n        /* \"#utility.yul\":14102:14109   */\n      dup5\n        /* \"#utility.yul\":14093:14099   */\n      dup3\n        /* \"#utility.yul\":14082:14091   */\n      dup6\n        /* \"#utility.yul\":14078:14100   */\n      add\n        /* \"#utility.yul\":14046:14110   */\n      tag_245\n      jump\t// in\n    tag_401:\n        /* \"#utility.yul\":14036:14110   */\n      swap2\n      pop\n        /* \"#utility.yul\":13992:14120   */\n      pop\n        /* \"#utility.yul\":13776:14127   */\n      swap3\n      swap2\n      pop\n      pop\n      jump\t// out\n        /* \"#utility.yul\":14133:14249   */\n    tag_246:\n        /* \"#utility.yul\":14203:14224   */\n      tag_403\n        /* \"#utility.yul\":14218:14223   */\n      dup2\n        /* \"#utility.yul\":14203:14224   */\n      tag_228\n      jump\t// in\n    tag_403:\n        /* \"#utility.yul\":14196:14201   */\n      dup2\n        /* \"#utility.yul\":14193:14225   */\n      eq\n        /* \"#utility.yul\":14183:14243   */\n      tag_404\n      jumpi\n        /* \"#utility.yul\":14239:14240   */\n      0x00\n        /* \"#utility.yul\":14236:14237   */\n      0x00\n        /* \"#utility.yul\":14229:14241   */\n      revert\n        /* \"#utility.yul\":14183:14243   */\n    tag_404:\n        /* \"#utility.yul\":14133:14249   */\n      pop\n      jump\t// out\n        /* \"#utility.yul\":14255:14392   */\n    tag_247:\n        /* \"#utility.yul\":14309:14314   */\n      0x00\n        /* \"#utility.yul\":14340:14346   */\n      dup2\n        /* \"#utility.yul\":14334:14347   */\n      mload\n        /* \"#utility.yul\":14325:14347   */\n      swap1\n      pop\n        /* \"#utility.yul\":14356:14386   */\n      tag_406\n        /* \"#utility.yul\":14380:14385   */\n      dup2\n        /* \"#utility.yul\":14356:14386   */\n      tag_246\n      jump\t// in\n    tag_406:\n        /* \"#utility.yul\":14255:14392   */\n      swap3\n      swap2\n      pop\n      pop\n      jump\t// out\n        /* \"#utility.yul\":14398:14743   */\n    tag_103:\n        /* \"#utility.yul\":14465:14471   */\n      0x00\n        /* \"#utility.yul\":14514:14516   */\n      0x20\n        /* \"#utility.yul\":14502:14511   */\n      dup3\n        /* \"#utility.yul\":14493:14500   */\n      dup5\n        /* \"#utility.yul\":14489:14512   */\n      sub\n        /* \"#utility.yul\":14485:14517   */\n      slt\n        /* \"#utility.yul\":14482:14601   */\n      iszero\n      tag_408\n      jumpi\n        /* \"#utility.yul\":14520:14599   */\n      tag_409\n      tag_203\n      jump\t// in\n    tag_409:\n        /* \"#utility.yul\":14482:14601   */\n    tag_408:\n        /* \"#utility.yul\":14640:14641   */\n      0x00\n        /* \"#utility.yul\":14665:14726   */\n      tag_410\n        /* \"#utility.yul\":14718:14725   */\n      dup5\n        /* \"#utility.yul\":14709:14715   */\n      dup3\n        /* \"#utility.yul\":14698:14707   */\n      dup6\n        /* \"#utility.yul\":14694:14716   */\n      add\n        /* \"#utility.yul\":14665:14726   */\n      tag_247\n      jump\t// in\n    tag_410:\n        /* \"#utility.yul\":14655:14726   */\n      swap2\n      pop\n        /* \"#utility.yul\":14611:14736   */\n      pop\n        /* \"#utility.yul\":14398:14743   */\n      swap3\n      swap2\n      pop\n      pop\n      jump\t// out\n        /* \"#utility.yul\":14749:14931   */\n    tag_248:\n        /* \"#utility.yul\":14889:14923   */\n      0x747265617375727920626f6e6420686173206f70656e20706f736974696f6e73\n        /* \"#utility.yul\":14885:14886   */\n      0x00\n        /* \"#utility.yul\":14877:14883   */\n      dup3\n        /* \"#utility.yul\":14873:14887   */\n      add\n        /* \"#utility.yul\":14866:14924   */\n      mstore\n        /* \"#utility.yul\":14749:14931   */\n      pop\n      jump\t// out\n        /* \"#utility.yul\":14937:15303   */\n    tag_249:\n        /* \"#utility.yul\":15079:15082   */\n      0x00\n        /* \"#utility.yul\":15100:15167   */\n      tag_413\n        /* \"#utility.yul\":15164:15166   */\n      0x20\n        /* \"#utility.yul\":15159:15162   */\n      dup4\n        /* \"#utility.yul\":15100:15167   */\n      tag_232\n      jump\t// in\n    tag_413:\n        /* \"#utility.yul\":15093:15167   */\n      swap2\n      pop\n        /* \"#utility.yul\":15176:15269   */\n      tag_414\n        /* \"#utility.yul\":15265:15268   */\n      dup3\n        /* \"#utility.yul\":15176:15269   */\n      tag_248\n      jump\t// in\n    tag_414:\n        /* \"#utility.yul\":15294:15296   */\n      0x20\n        /* \"#utility.yul\":15289:15292   */\n      dup3\n        /* \"#utility.yul\":15285:15297   */\n      add\n        /* \"#utility.yul\":15278:15297   */\n      swap1\n      pop\n        /* \"#utility.yul\":14937:15303   */\n      swap2\n      swap1\n      pop\n      jump\t// out\n        /* \"#utility.yul\":15309:15728   */\n    tag_106:\n        /* \"#utility.yul\":15475:15479   */\n      0x00\n        /* \"#utility.yul\":15513:15515   */\n      0x20\n        /* \"#utility.yul\":15502:15511   */\n      dup3\n        /* \"#utility.yul\":15498:15516   */\n      add\n        /* \"#utility.yul\":15490:15516   */\n      swap1\n      pop\n        /* \"#utility.yul\":15562:15571   */\n      dup2\n        /* \"#utility.yul\":15556:15560   */\n      dup2\n        /* \"#utility.yul\":15552:15572   */\n      sub\n        /* \"#utility.yul\":15548:15549   */\n      0x00\n        /* \"#utility.yul\":15537:15546   */\n      dup4\n        /* \"#utility.yul\":15533:15550   */\n      add\n        /* \"#utility.yul\":15526:15573   */\n      mstore\n        /* \"#utility.yul\":15590:15721   */\n      tag_416\n        /* \"#utility.yul\":15716:15720   */\n      dup2\n        /* \"#utility.yul\":15590:15721   */\n      tag_249\n      jump\t// in\n    tag_416:\n        /* \"#utility.yul\":15582:15721   */\n      swap1\n      pop\n        /* \"#utility.yul\":15309:15728   */\n      swap2\n      swap1\n      pop\n      jump\t// out\n        /* \"#utility.yul\":15734:15914   */\n    tag_250:\n        /* \"#utility.yul\":15874:15906   */\n      0x6d61726b657420626f6e6420686173206f70656e20706f736974696f6e730000\n        /* \"#utility.yul\":15870:15871   */\n      0x00\n        /* \"#utility.yul\":15862:15868   */\n      dup3\n        /* \"#utility.yul\":15858:15872   */\n      add\n        /* \"#utility.yul\":15851:15907   */\n      mstore\n        /* \"#utility.yul\":15734:15914   */\n      pop\n      jump\t// out\n        /* \"#utility.yul\":15920:16286   */\n    tag_251:\n        /* \"#utility.yul\":16062:16065   */\n      0x00\n        /* \"#utility.yul\":16083:16150   */\n      tag_419\n        /* \"#utility.yul\":16147:16149   */\n      0x1e\n        /* \"#utility.yul\":16142:16145   */\n      dup4\n        /* \"#utility.yul\":16083:16150   */\n      tag_232\n      jump\t// in\n    tag_419:\n        /* \"#utility.yul\":16076:16150   */\n      swap2\n      pop\n        /* \"#utility.yul\":16159:16252   */\n      tag_420\n        /* \"#utility.yul\":16248:16251   */\n      dup3\n        /* \"#utility.yul\":16159:16252   */\n      tag_250\n      jump\t// in\n    tag_420:\n        /* \"#utility.yul\":16277:16279   */\n      0x20\n        /* \"#utility.yul\":16272:16275   */\n      dup3\n        /* \"#utility.yul\":16268:16280   */\n      add\n        /* \"#utility.yul\":16261:16280   */\n      swap1\n      pop\n        /* \"#utility.yul\":15920:16286   */\n      swap2\n      swap1\n      pop\n      jump\t// out\n        /* \"#utility.yul\":16292:16711   */\n    tag_122:\n        /* \"#utility.yul\":16458:16462   */\n      0x00\n        /* \"#utility.yul\":16496:16498   */\n      0x20\n        /* \"#utility.yul\":16485:16494   */\n      dup3\n        /* \"#utility.yul\":16481:16499   */\n      add\n        /* \"#utility.yul\":16473:16499   */\n      swap1\n      pop\n        /* \"#utility.yul\":16545:16554   */\n      dup2\n        /* \"#utility.yul\":16539:16543   */\n      dup2\n        /* \"#utility.yul\":16535:16555   */\n      sub\n        /* \"#utility.yul\":16531:16532   */\n      0x00\n        /* \"#utility.yul\":16520:16529   */\n      dup4\n        /* \"#utility.yul\":16516:16533   */\n      add\n        /* \"#utility.yul\":16509:16556   */\n      mstore\n        /* \"#utility.yul\":16573:16704   */\n      tag_422\n        /* \"#utility.yul\":16699:16703   */\n      dup2\n        /* \"#utility.yul\":16573:16704   */\n      tag_251\n      jump\t// in\n    tag_422:\n        /* \"#utility.yul\":16565:16704   */\n      swap1\n      pop\n        /* \"#utility.yul\":16292:16711   */\n      swap2\n      swap1\n      pop\n      jump\t// out\n        /* \"#utility.yul\":16717:16835   */\n    tag_252:\n        /* \"#utility.yul\":16804:16828   */\n      tag_424\n        /* \"#utility.yul\":16822:16827   */\n      dup2\n        /* \"#utility.yul\":16804:16828   */\n      tag_208\n      jump\t// in\n    tag_424:\n        /* \"#utility.yul\":16799:16802   */\n      dup3\n        /* \"#utility.yul\":16792:16829   */\n      mstore\n        /* \"#utility.yul\":16717:16835   */\n      pop\n      pop\n      jump\t// out\n        /* \"#utility.yul\":16841:17173   */\n    tag_128:\n        /* \"#utility.yul\":16962:16966   */\n      0x00\n        /* \"#utility.yul\":17000:17002   */\n      0x40\n        /* \"#utility.yul\":16989:16998   */\n      dup3\n        /* \"#utility.yul\":16985:17003   */\n      add\n        /* \"#utility.yul\":16977:17003   */\n      swap1\n      pop\n        /* \"#utility.yul\":17013:17084   */\n      tag_426\n        /* \"#utility.yul\":17081:17082   */\n      0x00\n        /* \"#utility.yul\":17070:17079   */\n      dup4\n        /* \"#utility.yul\":17066:17083   */\n      add\n        /* \"#utility.yul\":17057:17063   */\n      dup6\n        /* \"#utility.yul\":17013:17084   */\n      tag_252\n      jump\t// in\n    tag_426:\n        /* \"#utility.yul\":17094:17166   */\n      tag_427\n        /* \"#utility.yul\":17162:17164   */\n      0x20\n        /* \"#utility.yul\":17151:17160   */\n      dup4\n        /* \"#utility.yul\":17147:17165   */\n      add\n        /* \"#utility.yul\":17138:17144   */\n      dup5\n        /* \"#utility.yul\":17094:17166   */\n      tag_230\n      jump\t// in\n    tag_427:\n        /* \"#utility.yul\":16841:17173   */\n      swap4\n      swap3\n      pop\n      pop\n      pop\n      jump\t// out\n        /* \"#utility.yul\":17179:17351   */\n    tag_253:\n        /* \"#utility.yul\":17319:17343   */\n      0x626f6e64207479706520616c72656164792068656c6400000000000000000000\n        /* \"#utility.yul\":17315:17316   */\n      0x00\n        /* \"#utility.yul\":17307:17313   */\n      dup3\n        /* \"#utility.yul\":17303:17317   */\n      add\n        /* \"#utility.yul\":17296:17344   */\n      mstore\n        /* \"#utility.yul\":17179:17351   */\n      pop\n      jump\t// out\n        /* \"#utility.yul\":17357:17723   */\n    tag_254:\n        /* \"#utility.yul\":17499:17502   */\n      0x00\n        /* \"#utility.yul\":17520:17587   */\n      tag_430\n        /* \"#utility.yul\":17584:17586   */\n      0x16\n        /* \"#utility.yul\":17579:17582   */\n      dup4\n        /* \"#utility.yul\":17520:17587   */\n      tag_232\n      jump\t// in\n    tag_430:\n        /* \"#utility.yul\":17513:17587   */\n      swap2\n      pop\n        /* \"#utility.yul\":17596:17689   */\n      tag_431\n        /* \"#utility.yul\":17685:17688   */\n      dup3\n        /* \"#utility.yul\":17596:17689   */\n      tag_253\n      jump\t// in\n    tag_431:\n        /* \"#utility.yul\":17714:17716   */\n      0x20\n        /* \"#utility.yul\":17709:17712   */\n      dup3\n        /* \"#utility.yul\":17705:17717   */\n      add\n        /* \"#utility.yul\":17698:17717   */\n      swap1\n      pop\n        /* \"#utility.yul\":17357:17723   */\n      swap2\n      swap1\n      pop\n      jump\t// out\n        /* \"#utility.yul\":17729:18148   */\n    tag_150:\n        /* \"#utility.yul\":17895:17899   */\n      0x00\n        /* \"#utility.yul\":17933:17935   */\n      0x20\n        /* \"#utility.yul\":17922:17931   */\n      dup3\n        /* \"#utility.yul\":17918:17936   */\n      add\n        /* \"#utility.yul\":17910:17936   */\n      swap1\n      pop\n        /* \"#utility.yul\":17982:17991   */\n      dup2\n        /* \"#utility.yul\":17976:17980   */\n      dup2\n        /* \"#utility.yul\":17972:17992   */\n      sub\n        /* \"#utility.yul\":17968:17969   */\n      0x00\n        /* \"#utility.yul\":17957:17966   */\n      dup4\n        /* \"#utility.yul\":17953:17970   */\n      add\n        /* \"#utility.yul\":17946:17993   */\n      mstore\n        /* \"#utility.yul\":18010:18141   */\n      tag_433\n        /* \"#utility.yul\":18136:18140   */\n      dup2\n        /* \"#utility.yul\":18010:18141   */\n      tag_254\n      jump\t// in\n    tag_433:\n        /* \"#utility.yul\":18002:18141   */\n      swap1\n      pop\n        /* \"#utility.yul\":17729:18148   */\n      swap2\n      swap1\n      pop\n      jump\t// out\n        /* \"#utility.yul\":18154:18326   */\n    tag_255:\n        /* \"#utility.yul\":18294:18318   */\n      0x636f6e747269627574696f6e206d69732d6d6174636800000000000000000000\n        /* \"#utility.yul\":18290:18291   */\n      0x00\n        /* \"#utility.yul\":18282:18288   */\n      dup3\n        /* \"#utility.yul\":18278:18292   */\n      add\n        /* \"#utility.yul\":18271:18319   */\n      mstore\n        /* \"#utility.yul\":18154:18326   */\n      pop\n      jump\t// out\n        /* \"#utility.yul\":18332:18698   */\n    tag_256:\n        /* \"#utility.yul\":18474:18477   */\n      0x00\n        /* \"#utility.yul\":18495:18562   */\n      tag_436\n        /* \"#utility.yul\":18559:18561   */\n      0x16\n        /* \"#utility.yul\":18554:18557   */\n      dup4\n        /* \"#utility.yul\":18495:18562   */\n      tag_232\n      jump\t// in\n    tag_436:\n        /* \"#utility.yul\":18488:18562   */\n      swap2\n      pop\n        /* \"#utility.yul\":18571:18664   */\n      tag_437\n        /* \"#utility.yul\":18660:18663   */\n      dup3\n        /* \"#utility.yul\":18571:18664   */\n      tag_255\n      jump\t// in\n    tag_437:\n        /* \"#utility.yul\":18689:18691   */\n      0x20\n        /* \"#utility.yul\":18684:18687   */\n      dup3\n        /* \"#utility.yul\":18680:18692   */\n      add\n        /* \"#utility.yul\":18673:18692   */\n      swap1\n      pop\n        /* \"#utility.yul\":18332:18698   */\n      swap2\n      swap1\n      pop\n      jump\t// out\n        /* \"#utility.yul\":18704:19123   */\n    tag_183:\n        /* \"#utility.yul\":18870:18874   */\n      0x00\n        /* \"#utility.yul\":18908:18910   */\n      0x20\n        /* \"#utility.yul\":18897:18906   */\n      dup3\n        /* \"#utility.yul\":18893:18911   */\n      add\n        /* \"#utility.yul\":18885:18911   */\n      swap1\n      pop\n        /* \"#utility.yul\":18957:18966   */\n      dup2\n        /* \"#utility.yul\":18951:18955   */\n      dup2\n        /* \"#utility.yul\":18947:18967   */\n      sub\n        /* \"#utility.yul\":18943:18944   */\n      0x00\n        /* \"#utility.yul\":18932:18941   */\n      dup4\n        /* \"#utility.yul\":18928:18945   */\n      add\n        /* \"#utility.yul\":18921:18968   */\n      mstore\n        /* \"#utility.yul\":18985:19116   */\n      tag_439\n        /* \"#utility.yul\":19111:19115   */\n      dup2\n        /* \"#utility.yul\":18985:19116   */\n      tag_256\n      jump\t// in\n    tag_439:\n        /* \"#utility.yul\":18977:19116   */\n      swap1\n      pop\n        /* \"#utility.yul\":18704:19123   */\n      swap2\n      swap1\n      pop\n      jump\t// out\n        /* \"#utility.yul\":19129:19571   */\n    tag_186:\n        /* \"#utility.yul\":19278:19282   */\n      0x00\n        /* \"#utility.yul\":19316:19318   */\n      0x60\n        /* \"#utility.yul\":19305:19314   */\n      dup3\n        /* \"#utility.yul\":19301:19319   */\n      add\n        /* \"#utility.yul\":19293:19319   */\n      swap1\n      pop\n        /* \"#utility.yul\":19329:19400   */\n      tag_441\n        /* \"#utility.yul\":19397:19398   */\n      0x00\n        /* \"#utility.yul\":19386:19395   */\n      dup4\n        /* \"#utility.yul\":19382:19399   */\n      add\n        /* \"#utility.yul\":19373:19379   */\n      dup7\n        /* \"#utility.yul\":19329:19400   */\n      tag_252\n      jump\t// in\n    tag_441:\n        /* \"#utility.yul\":19410:19482   */\n      tag_442\n        /* \"#utility.yul\":19478:19480   */\n      0x20\n        /* \"#utility.yul\":19467:19476   */\n      dup4\n        /* \"#utility.yul\":19463:19481   */\n      add\n        /* \"#utility.yul\":19454:19460   */\n      dup6\n        /* \"#utility.yul\":19410:19482   */\n      tag_252\n      jump\t// in\n    tag_442:\n        /* \"#utility.yul\":19492:19564   */\n      tag_443\n        /* \"#utility.yul\":19560:19562   */\n      0x40\n        /* \"#utility.yul\":19549:19558   */\n      dup4\n        /* \"#utility.yul\":19545:19563   */\n      add\n        /* \"#utility.yul\":19536:19542   */\n      dup5\n        /* \"#utility.yul\":19492:19564   */\n      tag_230\n      jump\t// in\n    tag_443:\n        /* \"#utility.yul\":19129:19571   */\n      swap5\n      swap4\n      pop\n      pop\n      pop\n      pop\n      jump\t// out\n        /* \"#utility.yul\":19577:19757   */\n    tag_257:\n        /* \"#utility.yul\":19625:19702   */\n      0x4e487b7100000000000000000000000000000000000000000000000000000000\n        /* \"#utility.yul\":19622:19623   */\n      0x00\n        /* \"#utility.yul\":19615:19703   */\n      mstore\n        /* \"#utility.yul\":19722:19726   */\n      0x11\n        /* \"#utility.yul\":19719:19720   */\n      0x04\n        /* \"#utility.yul\":19712:19727   */\n      mstore\n        /* \"#utility.yul\":19746:19750   */\n      0x24\n        /* \"#utility.yul\":19743:19744   */\n      0x00\n        /* \"#utility.yul\":19736:19751   */\n      revert\n        /* \"#utility.yul\":19763:19996   */\n    tag_192:\n        /* \"#utility.yul\":19802:19805   */\n      0x00\n        /* \"#utility.yul\":19825:19849   */\n      tag_446\n        /* \"#utility.yul\":19843:19848   */\n      dup3\n        /* \"#utility.yul\":19825:19849   */\n      tag_211\n      jump\t// in\n    tag_446:\n        /* \"#utility.yul\":19816:19849   */\n      swap2\n      pop\n        /* \"#utility.yul\":19871:19937   */\n      0xffffffffffffffffffffffffffffffffffffffffffffffffffffffffffffffff\n        /* \"#utility.yul\":19864:19869   */\n      dup3\n        /* \"#utility.yul\":19861:19938   */\n      sub\n        /* \"#utility.yul\":19858:19961   */\n      tag_447\n      jumpi\n        /* \"#utility.yul\":19941:19959   */\n      tag_448\n      tag_257\n      jump\t// in\n    tag_448:\n        /* \"#utility.yul\":19858:19961   */\n    tag_447:\n        /* \"#utility.yul\":19988:19989   */\n      0x01\n        /* \"#utility.yul\":19981:19986   */\n      dup3\n        /* \"#utility.yul\":19977:19990   */\n      add\n        /* \"#utility.yul\":19970:19990   */\n      swap1\n      pop\n        /* \"#utility.yul\":19763:19996   */\n      swap2\n      swap1\n      pop\n      jump\t// out\n\n    auxdata: 0xa26469706673582212209a76574804be9893b3c2d653a92e85c4300b403144b0c4d6ebf739ecb6a1c04664736f6c634300081e0033\n}\n",
				"bytecode": {
					"linkReferences": {},
					"object": "60a060405234801561000f575f5ffd5b50604051611f0d380380611f0d83398181016040528101906100319190610109565b8060075f6101000a81548173ffffffffffffffffffffffffffffffffffffffff021916908373ffffffffffffffffffffffffffffffffffffffff1602179055503073ffffffffffffffffffffffffffffffffffffffff1660808173ffffffffffffffffffffffffffffffffffffffff168152505050610134565b5f5ffd5b5f73ffffffffffffffffffffffffffffffffffffffff82169050919050565b5f6100d8826100af565b9050919050565b6100e8816100ce565b81146100f2575f5ffd5b50565b5f81519050610103816100df565b92915050565b5f6020828403121561011e5761011d6100ab565b5b5f61012b848285016100f5565b91505092915050565b608051611dc161014c5f395f610dd80152611dc15ff3fe608060405260043610610085575f3560e01c806334706ecf1161005857806334706ecf146101555780638a9dda051461019157806391857eec146101bb5780639c271c50146101ec578063ce8620011461022857610085565b8063012fe7941461008957806304452b4f146100c55780630d8e6e2c1461010157806317d7de7c1461012b575b5f5ffd5b348015610094575f5ffd5b506100af60048036038101906100aa91906114a0565b610264565b6040516100bc91906115f1565b60405180910390f35b3480156100d0575f5ffd5b506100eb60048036038101906100e6919061175a565b610401565b6040516100f891906117bb565b60405180910390f35b34801561010c575f5ffd5b50610115610422565b60405161012291906117e3565b60405180910390f35b348015610136575f5ffd5b5061013f61042a565b60405161014c919061185c565b60405180910390f35b348015610160575f5ffd5b5061017b600480360381019061017691906118a6565b610467565b60405161018891906117e3565b60405180910390f35b34801561019c575f5ffd5b506101a5610bff565b6040516101b29190611979565b60405180910390f35b6101d560048036038101906101d09190611999565b610c8a565b6040516101e39291906119e9565b60405180910390f35b3480156101f7575f5ffd5b50610212600480360381019061020d91906118a6565b611000565b60405161021f91906115f1565b60405180910390f35b348015610233575f5ffd5b5061024e600480360381019061024991906114a0565b61112c565b60405161025b91906117bb565b60405180910390f35b61026c611302565b60025f60035f86600181111561028557610284611505565b5b600181111561029757610296611505565b5b81526020019081526020015f205f8573ffffffffffffffffffffffffffffffffffffffff1673ffffffffffffffffffffffffffffffffffffffff1681526020019081526020015f205481526020019081526020015f206040518060c00160405290815f8201548152602001600182015f9054906101000a900473ffffffffffffffffffffffffffffffffffffffff1673ffffffffffffffffffffffffffffffffffffffff1673ffffffffffffffffffffffffffffffffffffffff16815260200160028201548152602001600382015f9054906101000a900473ffffffffffffffffffffffffffffffffffffffff1673ffffffffffffffffffffffffffffffffffffffff1673ffffffffffffffffffffffffffffffffffffffff16815260200160048201548152602001600582015f9054906101000a900460ff1660018111156103e3576103e2611505565b5b60018111156103f5576103f4611505565b5b81525050905092915050565b5f8160059080519060200190610418929190611370565b5060019050919050565b5f6001905090565b60606040518060400160405280601881526020017f52455345525645445f4d505f424f4e445f4d414e414745520000000000000000815250905090565b5f8160025f8281526020019081526020015f206001015f9054906101000a900473ffffffffffffffffffffffffffffffffffffffff1673ffffffffffffffffffffffffffffffffffffffff163373ffffffffffffffffffffffffffffffffffffffff161461050a576040517f08c379a000000000000000000000000000000000000000000000000000000000815260040161050190611a5a565b60405180910390fd5b5f60025f8581526020019081526020015f206040518060c00160405290815f8201548152602001600182015f9054906101000a900473ffffffffffffffffffffffffffffffffffffffff1673ffffffffffffffffffffffffffffffffffffffff1673ffffffffffffffffffffffffffffffffffffffff16815260200160028201548152602001600382015f9054906101000a900473ffffffffffffffffffffffffffffffffffffffff1673ffffffffffffffffffffffffffffffffffffffff1673ffffffffffffffffffffffffffffffffffffffff16815260200160048201548152602001600582015f9054906101000a900460ff16600181111561061257610611611505565b5b600181111561062457610623611505565b5b8152505090505f600181111561063d5761063c611505565b5b60025f8681526020019081526020015f206005015f9054906101000a900460ff1660018111156106705761066f611505565b5b036107fb5760075f9054906101000a900473ffffffffffffffffffffffffffffffffffffffff1673ffffffffffffffffffffffffffffffffffffffff1663bf40fac16040518060400160405280601481526020017f52455345525645445f4d505f54524541535552590000000000000000000000008152506040518263ffffffff1660e01b8152600401610704919061185c565b602060405180830381865afa15801561071f573d5f5f3e3d5ffd5b505050506040513d601f19601f820116820180604052508101906107439190611a8c565b73ffffffffffffffffffffffffffffffffffffffff16634ca857da856040518263ffffffff1660e01b815260040161077b91906117e3565b602060405180830381865afa158015610796573d5f5f3e3d5ffd5b505050506040513d601f19601f820116820180604052508101906107ba9190611ae1565b156107fa576040517f08c379a00000000000000000000000000000000000000000000000000000000081526004016107f190611b56565b60405180910390fd5b5b60018081111561080e5761080d611505565b5b60025f8681526020019081526020015f206005015f9054906101000a900460ff16600181111561084157610840611505565b5b036109cc5760075f9054906101000a900473ffffffffffffffffffffffffffffffffffffffff1673ffffffffffffffffffffffffffffffffffffffff1663bf40fac16040518060400160405280601a81526020017f52455345525645445f4d505f4d41524b45545f4d414e414745520000000000008152506040518263ffffffff1660e01b81526004016108d5919061185c565b602060405180830381865afa1580156108f0573d5f5f3e3d5ffd5b505050506040513d601f19601f820116820180604052508101906109149190611a8c565b73ffffffffffffffffffffffffffffffffffffffff16634ca857da856040518263ffffffff1660e01b815260040161094c91906117e3565b602060405180830381865afa158015610967573d5f5f3e3d5ffd5b505050506040513d601f19601f8201168201806040525081019061098b9190611ae1565b156109cb576040517f08c379a00000000000000000000000000000000000000000000000000000000081526004016109c290611bbe565b60405180910390fd5b5b73eeeeeeeeeeeeeeeeeeeeeeeeeeeeeeeeeeeeeeee73ffffffffffffffffffffffffffffffffffffffff16816060015173ffffffffffffffffffffffffffffffffffffffff1603610a6857806020015173ffffffffffffffffffffffffffffffffffffffff166108fc826040015190811502906040515f60405180830381858888f19350505050158015610a62573d5f5f3e3d5ffd5b50610af6565b5f816060015190508073ffffffffffffffffffffffffffffffffffffffff1663a9059cbb836020015184604001516040518363ffffffff1660e01b8152600401610ab3929190611beb565b6020604051808303815f875af1158015610acf573d5f5f3e3d5ffd5b505050506040513d601f19601f82011682018060405250810190610af39190611ae1565b50505b60035f8260a001516001811115610b1057610b0f611505565b5b6001811115610b2257610b21611505565b5b81526020019081526020015f205f3373ffffffffffffffffffffffffffffffffffffffff1673ffffffffffffffffffffffffffffffffffffffff1681526020019081526020015f205f90555f60045f8360a001516001811115610b8857610b87611505565b5b6001811115610b9a57610b99611505565b5b81526020019081526020015f205f3373ffffffffffffffffffffffffffffffffffffffff1673ffffffffffffffffffffffffffffffffffffffff1681526020019081526020015f205f6101000a81548160ff0219169083151502179055505050919050565b60606005805480602002602001604051908101604052809291908181526020018280548015610c8057602002820191905f5260205f20905b815f9054906101000a900473ffffffffffffffffffffffffffffffffffffffff1673ffffffffffffffffffffffffffffffffffffffff1681526020019060010190808311610c37575b5050505050905090565b5f5f60045f866001811115610ca257610ca1611505565b5b6001811115610cb457610cb3611505565b5b81526020019081526020015f205f3373ffffffffffffffffffffffffffffffffffffffff1673ffffffffffffffffffffffffffffffffffffffff1681526020019081526020015f205f9054906101000a900460ff1615610d49576040517f08c379a0000000000000000000000000000000000000000000000000000000008152600401610d4090611c5c565b60405180910390fd5b600160045f876001811115610d6157610d60611505565b5b6001811115610d7357610d72611505565b5b81526020019081526020015f205f3373ffffffffffffffffffffffffffffffffffffffff1673ffffffffffffffffffffffffffffffffffffffff1681526020019081526020015f205f6101000a81548160ff021916908315150217905550610dfc83857f00000000000000000000000000000000000000000000000000000000000000006111b2565b50610e056112e7565b9150600182908060018154018082558091505060019003905f5260205f20015f90919091909150556040518060c001604052808381526020013373ffffffffffffffffffffffffffffffffffffffff1681526020018581526020018473ffffffffffffffffffffffffffffffffffffffff168152602001428152602001866001811115610e9557610e94611505565b5b81525060025f8481526020019081526020015f205f820151815f01556020820151816001015f6101000a81548173ffffffffffffffffffffffffffffffffffffffff021916908373ffffffffffffffffffffffffffffffffffffffff160217905550604082015181600201556060820151816003015f6101000a81548173ffffffffffffffffffffffffffffffffffffffff021916908373ffffffffffffffffffffffffffffffffffffffff1602179055506080820151816004015560a0820151816005015f6101000a81548160ff02191690836001811115610f7b57610f7a611505565b5b02179055509050508160035f876001811115610f9a57610f99611505565b5b6001811115610fac57610fab611505565b5b81526020019081526020015f205f3373ffffffffffffffffffffffffffffffffffffffff1673ffffffffffffffffffffffffffffffffffffffff1681526020019081526020015f2081905550935093915050565b611008611302565b60025f8381526020019081526020015f206040518060c00160405290815f8201548152602001600182015f9054906101000a900473ffffffffffffffffffffffffffffffffffffffff1673ffffffffffffffffffffffffffffffffffffffff1673ffffffffffffffffffffffffffffffffffffffff16815260200160028201548152602001600382015f9054906101000a900473ffffffffffffffffffffffffffffffffffffffff1673ffffffffffffffffffffffffffffffffffffffff1673ffffffffffffffffffffffffffffffffffffffff16815260200160048201548152602001600582015f9054906101000a900460ff16600181111561110f5761110e611505565b5b600181111561112157611120611505565b5b815250509050919050565b5f60045f84600181111561114357611142611505565b5b600181111561115557611154611505565b5b81526020019081526020015f205f8373ffffffffffffffffffffffffffffffffffffffff1673ffffffffffffffffffffffffffffffffffffffff1681526020019081526020015f205f9054906101000a900460ff16905092915050565b5f73eeeeeeeeeeeeeeeeeeeeeeeeeeeeeeeeeeeeeeee73ffffffffffffffffffffffffffffffffffffffff168473ffffffffffffffffffffffffffffffffffffffff1603611242578234101561123d576040517f08c379a000000000000000000000000000000000000000000000000000000000815260040161123490611cc4565b60405180910390fd5b6112c6565b5f8490508073ffffffffffffffffffffffffffffffffffffffff166323b872dd3385876040518463ffffffff1660e01b815260040161128393929190611ce2565b6020604051808303815f875af115801561129f573d5f5f3e3d5ffd5b505050506040513d601f19601f820116820180604052508101906112c39190611ae1565b50505b8173ffffffffffffffffffffffffffffffffffffffff163190509392505050565b5f5f5f8154809291906112f990611d44565b91905055905090565b6040518060c001604052805f81526020015f73ffffffffffffffffffffffffffffffffffffffff1681526020015f81526020015f73ffffffffffffffffffffffffffffffffffffffff1681526020015f81526020015f600181111561136a57611369611505565b5b81525090565b828054828255905f5260205f209081019282156113e6579160200282015b828111156113e5578251825f6101000a81548173ffffffffffffffffffffffffffffffffffffffff021916908373ffffffffffffffffffffffffffffffffffffffff1602179055509160200191906001019061138e565b5b5090506113f391906113f7565b5090565b5b8082111561140e575f815f9055506001016113f8565b5090565b5f604051905090565b5f5ffd5b5f5ffd5b6002811061142f575f5ffd5b50565b5f8135905061144081611423565b92915050565b5f73ffffffffffffffffffffffffffffffffffffffff82169050919050565b5f61146f82611446565b9050919050565b61147f81611465565b8114611489575f5ffd5b50565b5f8135905061149a81611476565b92915050565b5f5f604083850312156114b6576114b561141b565b5b5f6114c385828601611432565b92505060206114d48582860161148c565b9150509250929050565b5f819050919050565b6114f0816114de565b82525050565b6114ff81611465565b82525050565b7f4e487b71000000000000000000000000000000000000000000000000000000005f52602160045260245ffd5b6002811061154357611542611505565b5b50565b5f81905061155382611532565b919050565b5f61156282611546565b9050919050565b61157281611558565b82525050565b60c082015f82015161158c5f8501826114e7565b50602082015161159f60208501826114f6565b5060408201516115b260408501826114e7565b5060608201516115c560608501826114f6565b5060808201516115d860808501826114e7565b5060a08201516115eb60a0850182611569565b50505050565b5f60c0820190506116045f830184611578565b92915050565b5f5ffd5b5f601f19601f8301169050919050565b7f4e487b71000000000000000000000000000000000000000000000000000000005f52604160045260245ffd5b6116548261160e565b810181811067ffffffffffffffff821117156116735761167261161e565b5b80604052505050565b5f611685611412565b9050611691828261164b565b919050565b5f67ffffffffffffffff8211156116b0576116af61161e565b5b602082029050602081019050919050565b5f5ffd5b5f6116d76116d284611696565b61167c565b905080838252602082019050602084028301858111156116fa576116f96116c1565b5b835b81811015611723578061170f888261148c565b8452602084019350506020810190506116fc565b5050509392505050565b5f82601f8301126117415761174061160a565b5b81356117518482602086016116c5565b91505092915050565b5f6020828403121561176f5761176e61141b565b5b5f82013567ffffffffffffffff81111561178c5761178b61141f565b5b6117988482850161172d565b91505092915050565b5f8115159050919050565b6117b5816117a1565b82525050565b5f6020820190506117ce5f8301846117ac565b92915050565b6117dd816114de565b82525050565b5f6020820190506117f65f8301846117d4565b92915050565b5f81519050919050565b5f82825260208201905092915050565b8281835e5f83830152505050565b5f61182e826117fc565b6118388185611806565b9350611848818560208601611816565b6118518161160e565b840191505092915050565b5f6020820190508181035f8301526118748184611824565b905092915050565b611885816114de565b811461188f575f5ffd5b50565b5f813590506118a08161187c565b92915050565b5f602082840312156118bb576118ba61141b565b5b5f6118c884828501611892565b91505092915050565b5f81519050919050565b5f82825260208201905092915050565b5f819050602082019050919050565b5f61190583836114f6565b60208301905092915050565b5f602082019050919050565b5f611927826118d1565b61193181856118db565b935061193c836118eb565b805f5b8381101561196c57815161195388826118fa565b975061195e83611911565b92505060018101905061193f565b5085935050505092915050565b5f6020820190508181035f830152611991818461191d565b905092915050565b5f5f5f606084860312156119b0576119af61141b565b5b5f6119bd86828701611432565b93505060206119ce86828701611892565b92505060406119df8682870161148c565b9150509250925092565b5f6040820190506119fc5f8301856117d4565b611a0960208301846117d4565b9392505050565b7f626f6e6420686f6c646572206f6e6c79000000000000000000000000000000005f82015250565b5f611a44601083611806565b9150611a4f82611a10565b602082019050919050565b5f6020820190508181035f830152611a7181611a38565b9050919050565b5f81519050611a8681611476565b92915050565b5f60208284031215611aa157611aa061141b565b5b5f611aae84828501611a78565b91505092915050565b611ac0816117a1565b8114611aca575f5ffd5b50565b5f81519050611adb81611ab7565b92915050565b5f60208284031215611af657611af561141b565b5b5f611b0384828501611acd565b91505092915050565b7f747265617375727920626f6e6420686173206f70656e20706f736974696f6e735f82015250565b5f611b40602083611806565b9150611b4b82611b0c565b602082019050919050565b5f6020820190508181035f830152611b6d81611b34565b9050919050565b7f6d61726b657420626f6e6420686173206f70656e20706f736974696f6e7300005f82015250565b5f611ba8601e83611806565b9150611bb382611b74565b602082019050919050565b5f6020820190508181035f830152611bd581611b9c565b9050919050565b611be581611465565b82525050565b5f604082019050611bfe5f830185611bdc565b611c0b60208301846117d4565b9392505050565b7f626f6e64207479706520616c72656164792068656c64000000000000000000005f82015250565b5f611c46601683611806565b9150611c5182611c12565b602082019050919050565b5f6020820190508181035f830152611c7381611c3a565b9050919050565b7f636f6e747269627574696f6e206d69732d6d61746368000000000000000000005f82015250565b5f611cae601683611806565b9150611cb982611c7a565b602082019050919050565b5f6020820190508181035f830152611cdb81611ca2565b9050919050565b5f606082019050611cf55f830186611bdc565b611d026020830185611bdc565b611d0f60408301846117d4565b949350505050565b7f4e487b71000000000000000000000000000000000000000000000000000000005f52601160045260245ffd5b5f611d4e826114de565b91507fffffffffffffffffffffffffffffffffffffffffffffffffffffffffffffffff8203611d8057611d7f611d17565b5b60018201905091905056fea26469706673582212209a76574804be9893b3c2d653a92e85c4300b403144b0c4d6ebf739ecb6a1c04664736f6c634300081e0033",
					"opcodes": "PUSH1 0xA0 PUSH1 0x40 MSTORE CALLVALUE DUP1 ISZERO PUSH2 0xF JUMPI PUSH0 PUSH0 REVERT JUMPDEST POP PUSH1 0x40 MLOAD PUSH2 0x1F0D CODESIZE SUB DUP1 PUSH2 0x1F0D DUP4 CODECOPY DUP2 DUP2 ADD PUSH1 0x40 MSTORE DUP2 ADD SWAP1 PUSH2 0x31 SWAP2 SWAP1 PUSH2 0x109 JUMP JUMPDEST DUP1 PUSH1 0x7 PUSH0 PUSH2 0x100 EXP DUP2 SLOAD DUP2 PUSH20 0xFFFFFFFFFFFFFFFFFFFFFFFFFFFFFFFFFFFFFFFF MUL NOT AND SWAP1 DUP4 PUSH20 0xFFFFFFFFFFFFFFFFFFFFFFFFFFFFFFFFFFFFFFFF AND MUL OR SWAP1 SSTORE POP ADDRESS PUSH20 0xFFFFFFFFFFFFFFFFFFFFFFFFFFFFFFFFFFFFFFFF AND PUSH1 0x80 DUP2 PUSH20 0xFFFFFFFFFFFFFFFFFFFFFFFFFFFFFFFFFFFFFFFF AND DUP2 MSTORE POP POP POP PUSH2 0x134 JUMP JUMPDEST PUSH0 PUSH0 REVERT JUMPDEST PUSH0 PUSH20 0xFFFFFFFFFFFFFFFFFFFFFFFFFFFFFFFFFFFFFFFF DUP3 AND SWAP1 POP SWAP2 SWAP1 POP JUMP JUMPDEST PUSH0 PUSH2 0xD8 DUP3 PUSH2 0xAF JUMP JUMPDEST SWAP1 POP SWAP2 SWAP1 POP JUMP JUMPDEST PUSH2 0xE8 DUP2 PUSH2 0xCE JUMP JUMPDEST DUP2 EQ PUSH2 0xF2 JUMPI PUSH0 PUSH0 REVERT JUMPDEST POP JUMP JUMPDEST PUSH0 DUP2 MLOAD SWAP1 POP PUSH2 0x103 DUP2 PUSH2 0xDF JUMP JUMPDEST SWAP3 SWAP2 POP POP JUMP JUMPDEST PUSH0 PUSH1 0x20 DUP3 DUP5 SUB SLT ISZERO PUSH2 0x11E JUMPI PUSH2 0x11D PUSH2 0xAB JUMP JUMPDEST JUMPDEST PUSH0 PUSH2 0x12B DUP5 DUP3 DUP6 ADD PUSH2 0xF5 JUMP JUMPDEST SWAP2 POP POP SWAP3 SWAP2 POP POP JUMP JUMPDEST PUSH1 0x80 MLOAD PUSH2 0x1DC1 PUSH2 0x14C PUSH0 CODECOPY PUSH0 PUSH2 0xDD8 ADD MSTORE PUSH2 0x1DC1 PUSH0 RETURN INVALID PUSH1 0x80 PUSH1 0x40 MSTORE PUSH1 0x4 CALLDATASIZE LT PUSH2 0x85 JUMPI PUSH0 CALLDATALOAD PUSH1 0xE0 SHR DUP1 PUSH4 0x34706ECF GT PUSH2 0x58 JUMPI DUP1 PUSH4 0x34706ECF EQ PUSH2 0x155 JUMPI DUP1 PUSH4 0x8A9DDA05 EQ PUSH2 0x191 JUMPI DUP1 PUSH4 0x91857EEC EQ PUSH2 0x1BB JUMPI DUP1 PUSH4 0x9C271C50 EQ PUSH2 0x1EC JUMPI DUP1 PUSH4 0xCE862001 EQ PUSH2 0x228 JUMPI PUSH2 0x85 JUMP JUMPDEST DUP1 PUSH4 0x12FE794 EQ PUSH2 0x89 JUMPI DUP1 PUSH4 0x4452B4F EQ PUSH2 0xC5 JUMPI DUP1 PUSH4 0xD8E6E2C EQ PUSH2 0x101 JUMPI DUP1 PUSH4 0x17D7DE7C EQ PUSH2 0x12B JUMPI JUMPDEST PUSH0 PUSH0 REVERT JUMPDEST CALLVALUE DUP1 ISZERO PUSH2 0x94 JUMPI PUSH0 PUSH0 REVERT JUMPDEST POP PUSH2 0xAF PUSH1 0x4 DUP1 CALLDATASIZE SUB DUP2 ADD SWAP1 PUSH2 0xAA SWAP2 SWAP1 PUSH2 0x14A0 JUMP JUMPDEST PUSH2 0x264 JUMP JUMPDEST PUSH1 0x40 MLOAD PUSH2 0xBC SWAP2 SWAP1 PUSH2 0x15F1 JUMP JUMPDEST PUSH1 0x40 MLOAD DUP1 SWAP2 SUB SWAP1 RETURN JUMPDEST CALLVALUE DUP1 ISZERO PUSH2 0xD0 JUMPI PUSH0 PUSH0 REVERT JUMPDEST POP PUSH2 0xEB PUSH1 0x4 DUP1 CALLDATASIZE SUB DUP2 ADD SWAP1 PUSH2 0xE6 SWAP2 SWAP1 PUSH2 0x175A JUMP JUMPDEST PUSH2 0x401 JUMP JUMPDEST PUSH1 0x40 MLOAD PUSH2 0xF8 SWAP2 SWAP1 PUSH2 0x17BB JUMP JUMPDEST PUSH1 0x40 MLOAD DUP1 SWAP2 SUB SWAP1 RETURN JUMPDEST CALLVALUE DUP1 ISZERO PUSH2 0x10C JUMPI PUSH0 PUSH0 REVERT JUMPDEST POP PUSH2 0x115 PUSH2 0x422 JUMP JUMPDEST PUSH1 0x40 MLOAD PUSH2 0x122 SWAP2 SWAP1 PUSH2 0x17E3 JUMP JUMPDEST PUSH1 0x40 MLOAD DUP1 SWAP2 SUB SWAP1 RETURN JUMPDEST CALLVALUE DUP1 ISZERO PUSH2 0x136 JUMPI PUSH0 PUSH0 REVERT JUMPDEST POP PUSH2 0x13F PUSH2 0x42A JUMP JUMPDEST PUSH1 0x40 MLOAD PUSH2 0x14C SWAP2 SWAP1 PUSH2 0x185C JUMP JUMPDEST PUSH1 0x40 MLOAD DUP1 SWAP2 SUB SWAP1 RETURN JUMPDEST CALLVALUE DUP1 ISZERO PUSH2 0x160 JUMPI PUSH0 PUSH0 REVERT JUMPDEST POP PUSH2 0x17B PUSH1 0x4 DUP1 CALLDATASIZE SUB DUP2 ADD SWAP1 PUSH2 0x176 SWAP2 SWAP1 PUSH2 0x18A6 JUMP JUMPDEST PUSH2 0x467 JUMP JUMPDEST PUSH1 0x40 MLOAD PUSH2 0x188 SWAP2 SWAP1 PUSH2 0x17E3 JUMP JUMPDEST PUSH1 0x40 MLOAD DUP1 SWAP2 SUB SWAP1 RETURN JUMPDEST CALLVALUE DUP1 ISZERO PUSH2 0x19C JUMPI PUSH0 PUSH0 REVERT JUMPDEST POP PUSH2 0x1A5 PUSH2 0xBFF JUMP JUMPDEST PUSH1 0x40 MLOAD PUSH2 0x1B2 SWAP2 SWAP1 PUSH2 0x1979 JUMP JUMPDEST PUSH1 0x40 MLOAD DUP1 SWAP2 SUB SWAP1 RETURN JUMPDEST PUSH2 0x1D5 PUSH1 0x4 DUP1 CALLDATASIZE SUB DUP2 ADD SWAP1 PUSH2 0x1D0 SWAP2 SWAP1 PUSH2 0x1999 JUMP JUMPDEST PUSH2 0xC8A JUMP JUMPDEST PUSH1 0x40 MLOAD PUSH2 0x1E3 SWAP3 SWAP2 SWAP1 PUSH2 0x19E9 JUMP JUMPDEST PUSH1 0x40 MLOAD DUP1 SWAP2 SUB SWAP1 RETURN JUMPDEST CALLVALUE DUP1 ISZERO PUSH2 0x1F7 JUMPI PUSH0 PUSH0 REVERT JUMPDEST POP PUSH2 0x212 PUSH1 0x4 DUP1 CALLDATASIZE SUB DUP2 ADD SWAP1 PUSH2 0x20D SWAP2 SWAP1 PUSH2 0x18A6 JUMP JUMPDEST PUSH2 0x1000 JUMP JUMPDEST PUSH1 0x40 MLOAD PUSH2 0x21F SWAP2 SWAP1 PUSH2 0x15F1 JUMP JUMPDEST PUSH1 0x40 MLOAD DUP1 SWAP2 SUB SWAP1 RETURN JUMPDEST CALLVALUE DUP1 ISZERO PUSH2 0x233 JUMPI PUSH0 PUSH0 REVERT JUMPDEST POP PUSH2 0x24E PUSH1 0x4 DUP1 CALLDATASIZE SUB DUP2 ADD SWAP1 PUSH2 0x249 SWAP2 SWAP1 PUSH2 0x14A0 JUMP JUMPDEST PUSH2 0x112C JUMP JUMPDEST PUSH1 0x40 MLOAD PUSH2 0x25B SWAP2 SWAP1 PUSH2 0x17BB JUMP JUMPDEST PUSH1 0x40 MLOAD DUP1 SWAP2 SUB SWAP1 RETURN JUMPDEST PUSH2 0x26C PUSH2 0x1302 JUMP JUMPDEST PUSH1 0x2 PUSH0 PUSH1 0x3 PUSH0 DUP7 PUSH1 0x1 DUP2 GT ISZERO PUSH2 0x285 JUMPI PUSH2 0x284 PUSH2 0x1505 JUMP JUMPDEST JUMPDEST PUSH1 0x1 DUP2 GT ISZERO PUSH2 0x297 JUMPI PUSH2 0x296 PUSH2 0x1505 JUMP JUMPDEST JUMPDEST DUP2 MSTORE PUSH1 0x20 ADD SWAP1 DUP2 MSTORE PUSH1 0x20 ADD PUSH0 KECCAK256 PUSH0 DUP6 PUSH20 0xFFFFFFFFFFFFFFFFFFFFFFFFFFFFFFFFFFFFFFFF AND PUSH20 0xFFFFFFFFFFFFFFFFFFFFFFFFFFFFFFFFFFFFFFFF AND DUP2 MSTORE PUSH1 0x20 ADD SWAP1 DUP2 MSTORE PUSH1 0x20 ADD PUSH0 KECCAK256 SLOAD DUP2 MSTORE PUSH1 0x20 ADD SWAP1 DUP2 MSTORE PUSH1 0x20 ADD PUSH0 KECCAK256 PUSH1 0x40 MLOAD DUP1 PUSH1 0xC0 ADD PUSH1 0x40 MSTORE SWAP1 DUP2 PUSH0 DUP3 ADD SLOAD DUP2 MSTORE PUSH1 0x20 ADD PUSH1 0x1 DUP3 ADD PUSH0 SWAP1 SLOAD SWAP1 PUSH2 0x100 EXP SWAP1 DIV PUSH20 0xFFFFFFFFFFFFFFFFFFFFFFFFFFFFFFFFFFFFFFFF AND PUSH20 0xFFFFFFFFFFFFFFFFFFFFFFFFFFFFFFFFFFFFFFFF AND PUSH20 0xFFFFFFFFFFFFFFFFFFFFFFFFFFFFFFFFFFFFFFFF AND DUP2 MSTORE PUSH1 0x20 ADD PUSH1 0x2 DUP3 ADD SLOAD DUP2 MSTORE PUSH1 0x20 ADD PUSH1 0x3 DUP3 ADD PUSH0 SWAP1 SLOAD SWAP1 PUSH2 0x100 EXP SWAP1 DIV PUSH20 0xFFFFFFFFFFFFFFFFFFFFFFFFFFFFFFFFFFFFFFFF AND PUSH20 0xFFFFFFFFFFFFFFFFFFFFFFFFFFFFFFFFFFFFFFFF AND PUSH20 0xFFFFFFFFFFFFFFFFFFFFFFFFFFFFFFFFFFFFFFFF AND DUP2 MSTORE PUSH1 0x20 ADD PUSH1 0x4 DUP3 ADD SLOAD DUP2 MSTORE PUSH1 0x20 ADD PUSH1 0x5 DUP3 ADD PUSH0 SWAP1 SLOAD SWAP1 PUSH2 0x100 EXP SWAP1 DIV PUSH1 0xFF AND PUSH1 0x1 DUP2 GT ISZERO PUSH2 0x3E3 JUMPI PUSH2 0x3E2 PUSH2 0x1505 JUMP JUMPDEST JUMPDEST PUSH1 0x1 DUP2 GT ISZERO PUSH2 0x3F5 JUMPI PUSH2 0x3F4 PUSH2 0x1505 JUMP JUMPDEST JUMPDEST DUP2 MSTORE POP POP SWAP1 POP SWAP3 SWAP2 POP POP JUMP JUMPDEST PUSH0 DUP2 PUSH1 0x5 SWAP1 DUP1 MLOAD SWAP1 PUSH1 0x20 ADD SWAP1 PUSH2 0x418 SWAP3 SWAP2 SWAP1 PUSH2 0x1370 JUMP JUMPDEST POP PUSH1 0x1 SWAP1 POP SWAP2 SWAP1 POP JUMP JUMPDEST PUSH0 PUSH1 0x1 SWAP1 POP SWAP1 JUMP JUMPDEST PUSH1 0x60 PUSH1 0x40 MLOAD DUP1 PUSH1 0x40 ADD PUSH1 0x40 MSTORE DUP1 PUSH1 0x18 DUP2 MSTORE PUSH1 0x20 ADD PUSH32 0x52455345525645445F4D505F424F4E445F4D414E414745520000000000000000 DUP2 MSTORE POP SWAP1 POP SWAP1 JUMP JUMPDEST PUSH0 DUP2 PUSH1 0x2 PUSH0 DUP3 DUP2 MSTORE PUSH1 0x20 ADD SWAP1 DUP2 MSTORE PUSH1 0x20 ADD PUSH0 KECCAK256 PUSH1 0x1 ADD PUSH0 SWAP1 SLOAD SWAP1 PUSH2 0x100 EXP SWAP1 DIV PUSH20 0xFFFFFFFFFFFFFFFFFFFFFFFFFFFFFFFFFFFFFFFF AND PUSH20 0xFFFFFFFFFFFFFFFFFFFFFFFFFFFFFFFFFFFFFFFF AND CALLER PUSH20 0xFFFFFFFFFFFFFFFFFFFFFFFFFFFFFFFFFFFFFFFF AND EQ PUSH2 0x50A JUMPI PUSH1 0x40 MLOAD PUSH32 0x8C379A000000000000000000000000000000000000000000000000000000000 DUP2 MSTORE PUSH1 0x4 ADD PUSH2 0x501 SWAP1 PUSH2 0x1A5A JUMP JUMPDEST PUSH1 0x40 MLOAD DUP1 SWAP2 SUB SWAP1 REVERT JUMPDEST PUSH0 PUSH1 0x2 PUSH0 DUP6 DUP2 MSTORE PUSH1 0x20 ADD SWAP1 DUP2 MSTORE PUSH1 0x20 ADD PUSH0 KECCAK256 PUSH1 0x40 MLOAD DUP1 PUSH1 0xC0 ADD PUSH1 0x40 MSTORE SWAP1 DUP2 PUSH0 DUP3 ADD SLOAD DUP2 MSTORE PUSH1 0x20 ADD PUSH1 0x1 DUP3 ADD PUSH0 SWAP1 SLOAD SWAP1 PUSH2 0x100 EXP SWAP1 DIV PUSH20 0xFFFFFFFFFFFFFFFFFFFFFFFFFFFFFFFFFFFFFFFF AND PUSH20 0xFFFFFFFFFFFFFFFFFFFFFFFFFFFFFFFFFFFFFFFF AND PUSH20 0xFFFFFFFFFFFFFFFFFFFFFFFFFFFFFFFFFFFFFFFF AND DUP2 MSTORE PUSH1 0x20 ADD PUSH1 0x2 DUP3 ADD SLOAD DUP2 MSTORE PUSH1 0x20 ADD PUSH1 0x3 DUP3 ADD PUSH0 SWAP1 SLOAD SWAP1 PUSH2 0x100 EXP SWAP1 DIV PUSH20 0xFFFFFFFFFFFFFFFFFFFFFFFFFFFFFFFFFFFFFFFF AND PUSH20 0xFFFFFFFFFFFFFFFFFFFFFFFFFFFFFFFFFFFFFFFF AND PUSH20 0xFFFFFFFFFFFFFFFFFFFFFFFFFFFFFFFFFFFFFFFF AND DUP2 MSTORE PUSH1 0x20 ADD PUSH1 0x4 DUP3 ADD SLOAD DUP2 MSTORE PUSH1 0x20 ADD PUSH1 0x5 DUP3 ADD PUSH0 SWAP1 SLOAD SWAP1 PUSH2 0x100 EXP SWAP1 DIV PUSH1 0xFF AND PUSH1 0x1 DUP2 GT ISZERO PUSH2 0x612 JUMPI PUSH2 0x611 PUSH2 0x1505 JUMP JUMPDEST JUMPDEST PUSH1 0x1 DUP2 GT ISZERO PUSH2 0x624 JUMPI PUSH2 0x623 PUSH2 0x1505 JUMP JUMPDEST JUMPDEST DUP2 MSTORE POP POP SWAP1 POP PUSH0 PUSH1 0x1 DUP2 GT ISZERO PUSH2 0x63D JUMPI PUSH2 0x63C PUSH2 0x1505 JUMP JUMPDEST JUMPDEST PUSH1 0x2 PUSH0 DUP7 DUP2 MSTORE PUSH1 0x20 ADD SWAP1 DUP2 MSTORE PUSH1 0x20 ADD PUSH0 KECCAK256 PUSH1 0x5 ADD PUSH0 SWAP1 SLOAD SWAP1 PUSH2 0x100 EXP SWAP1 DIV PUSH1 0xFF AND PUSH1 0x1 DUP2 GT ISZERO PUSH2 0x670 JUMPI PUSH2 0x66F PUSH2 0x1505 JUMP JUMPDEST JUMPDEST SUB PUSH2 0x7FB JUMPI PUSH1 0x7 PUSH0 SWAP1 SLOAD SWAP1 PUSH2 0x100 EXP SWAP1 DIV PUSH20 0xFFFFFFFFFFFFFFFFFFFFFFFFFFFFFFFFFFFFFFFF AND PUSH20 0xFFFFFFFFFFFFFFFFFFFFFFFFFFFFFFFFFFFFFFFF AND PUSH4 0xBF40FAC1 PUSH1 0x40 MLOAD DUP1 PUSH1 0x40 ADD PUSH1 0x40 MSTORE DUP1 PUSH1 0x14 DUP2 MSTORE PUSH1 0x20 ADD PUSH32 0x52455345525645445F4D505F5452454153555259000000000000000000000000 DUP2 MSTORE POP PUSH1 0x40 MLOAD DUP3 PUSH4 0xFFFFFFFF AND PUSH1 0xE0 SHL DUP2 MSTORE PUSH1 0x4 ADD PUSH2 0x704 SWAP2 SWAP1 PUSH2 0x185C JUMP JUMPDEST PUSH1 0x20 PUSH1 0x40 MLOAD DUP1 DUP4 SUB DUP2 DUP7 GAS STATICCALL ISZERO DUP1 ISZERO PUSH2 0x71F JUMPI RETURNDATASIZE PUSH0 PUSH0 RETURNDATACOPY RETURNDATASIZE PUSH0 REVERT JUMPDEST POP POP POP POP PUSH1 0x40 MLOAD RETURNDATASIZE PUSH1 0x1F NOT PUSH1 0x1F DUP3 ADD AND DUP3 ADD DUP1 PUSH1 0x40 MSTORE POP DUP2 ADD SWAP1 PUSH2 0x743 SWAP2 SWAP1 PUSH2 0x1A8C JUMP JUMPDEST PUSH20 0xFFFFFFFFFFFFFFFFFFFFFFFFFFFFFFFFFFFFFFFF AND PUSH4 0x4CA857DA DUP6 PUSH1 0x40 MLOAD DUP3 PUSH4 0xFFFFFFFF AND PUSH1 0xE0 SHL DUP2 MSTORE PUSH1 0x4 ADD PUSH2 0x77B SWAP2 SWAP1 PUSH2 0x17E3 JUMP JUMPDEST PUSH1 0x20 PUSH1 0x40 MLOAD DUP1 DUP4 SUB DUP2 DUP7 GAS STATICCALL ISZERO DUP1 ISZERO PUSH2 0x796 JUMPI RETURNDATASIZE PUSH0 PUSH0 RETURNDATACOPY RETURNDATASIZE PUSH0 REVERT JUMPDEST POP POP POP POP PUSH1 0x40 MLOAD RETURNDATASIZE PUSH1 0x1F NOT PUSH1 0x1F DUP3 ADD AND DUP3 ADD DUP1 PUSH1 0x40 MSTORE POP DUP2 ADD SWAP1 PUSH2 0x7BA SWAP2 SWAP1 PUSH2 0x1AE1 JUMP JUMPDEST ISZERO PUSH2 0x7FA JUMPI PUSH1 0x40 MLOAD PUSH32 0x8C379A000000000000000000000000000000000000000000000000000000000 DUP2 MSTORE PUSH1 0x4 ADD PUSH2 0x7F1 SWAP1 PUSH2 0x1B56 JUMP JUMPDEST PUSH1 0x40 MLOAD DUP1 SWAP2 SUB SWAP1 REVERT JUMPDEST JUMPDEST PUSH1 0x1 DUP1 DUP2 GT ISZERO PUSH2 0x80E JUMPI PUSH2 0x80D PUSH2 0x1505 JUMP JUMPDEST JUMPDEST PUSH1 0x2 PUSH0 DUP7 DUP2 MSTORE PUSH1 0x20 ADD SWAP1 DUP2 MSTORE PUSH1 0x20 ADD PUSH0 KECCAK256 PUSH1 0x5 ADD PUSH0 SWAP1 SLOAD SWAP1 PUSH2 0x100 EXP SWAP1 DIV PUSH1 0xFF AND PUSH1 0x1 DUP2 GT ISZERO PUSH2 0x841 JUMPI PUSH2 0x840 PUSH2 0x1505 JUMP JUMPDEST JUMPDEST SUB PUSH2 0x9CC JUMPI PUSH1 0x7 PUSH0 SWAP1 SLOAD SWAP1 PUSH2 0x100 EXP SWAP1 DIV PUSH20 0xFFFFFFFFFFFFFFFFFFFFFFFFFFFFFFFFFFFFFFFF AND PUSH20 0xFFFFFFFFFFFFFFFFFFFFFFFFFFFFFFFFFFFFFFFF AND PUSH4 0xBF40FAC1 PUSH1 0x40 MLOAD DUP1 PUSH1 0x40 ADD PUSH1 0x40 MSTORE DUP1 PUSH1 0x1A DUP2 MSTORE PUSH1 0x20 ADD PUSH32 0x52455345525645445F4D505F4D41524B45545F4D414E41474552000000000000 DUP2 MSTORE POP PUSH1 0x40 MLOAD DUP3 PUSH4 0xFFFFFFFF AND PUSH1 0xE0 SHL DUP2 MSTORE PUSH1 0x4 ADD PUSH2 0x8D5 SWAP2 SWAP1 PUSH2 0x185C JUMP JUMPDEST PUSH1 0x20 PUSH1 0x40 MLOAD DUP1 DUP4 SUB DUP2 DUP7 GAS STATICCALL ISZERO DUP1 ISZERO PUSH2 0x8F0 JUMPI RETURNDATASIZE PUSH0 PUSH0 RETURNDATACOPY RETURNDATASIZE PUSH0 REVERT JUMPDEST POP POP POP POP PUSH1 0x40 MLOAD RETURNDATASIZE PUSH1 0x1F NOT PUSH1 0x1F DUP3 ADD AND DUP3 ADD DUP1 PUSH1 0x40 MSTORE POP DUP2 ADD SWAP1 PUSH2 0x914 SWAP2 SWAP1 PUSH2 0x1A8C JUMP JUMPDEST PUSH20 0xFFFFFFFFFFFFFFFFFFFFFFFFFFFFFFFFFFFFFFFF AND PUSH4 0x4CA857DA DUP6 PUSH1 0x40 MLOAD DUP3 PUSH4 0xFFFFFFFF AND PUSH1 0xE0 SHL DUP2 MSTORE PUSH1 0x4 ADD PUSH2 0x94C SWAP2 SWAP1 PUSH2 0x17E3 JUMP JUMPDEST PUSH1 0x20 PUSH1 0x40 MLOAD DUP1 DUP4 SUB DUP2 DUP7 GAS STATICCALL ISZERO DUP1 ISZERO PUSH2 0x967 JUMPI RETURNDATASIZE PUSH0 PUSH0 RETURNDATACOPY RETURNDATASIZE PUSH0 REVERT JUMPDEST POP POP POP POP PUSH1 0x40 MLOAD RETURNDATASIZE PUSH1 0x1F NOT PUSH1 0x1F DUP3 ADD AND DUP3 ADD DUP1 PUSH1 0x40 MSTORE POP DUP2 ADD SWAP1 PUSH2 0x98B SWAP2 SWAP1 PUSH2 0x1AE1 JUMP JUMPDEST ISZERO PUSH2 0x9CB JUMPI PUSH1 0x40 MLOAD PUSH32 0x8C379A000000000000000000000000000000000000000000000000000000000 DUP2 MSTORE PUSH1 0x4 ADD PUSH2 0x9C2 SWAP1 PUSH2 0x1BBE JUMP JUMPDEST PUSH1 0x40 MLOAD DUP1 SWAP2 SUB SWAP1 REVERT JUMPDEST JUMPDEST PUSH20 0xEEEEEEEEEEEEEEEEEEEEEEEEEEEEEEEEEEEEEEEE PUSH20 0xFFFFFFFFFFFFFFFFFFFFFFFFFFFFFFFFFFFFFFFF AND DUP2 PUSH1 0x60 ADD MLOAD PUSH20 0xFFFFFFFFFFFFFFFFFFFFFFFFFFFFFFFFFFFFFFFF AND SUB PUSH2 0xA68 JUMPI DUP1 PUSH1 0x20 ADD MLOAD PUSH20 0xFFFFFFFFFFFFFFFFFFFFFFFFFFFFFFFFFFFFFFFF AND PUSH2 0x8FC DUP3 PUSH1 0x40 ADD MLOAD SWAP1 DUP2 ISZERO MUL SWAP1 PUSH1 0x40 MLOAD PUSH0 PUSH1 0x40 MLOAD DUP1 DUP4 SUB DUP2 DUP6 DUP9 DUP9 CALL SWAP4 POP POP POP POP ISZERO DUP1 ISZERO PUSH2 0xA62 JUMPI RETURNDATASIZE PUSH0 PUSH0 RETURNDATACOPY RETURNDATASIZE PUSH0 REVERT JUMPDEST POP PUSH2 0xAF6 JUMP JUMPDEST PUSH0 DUP2 PUSH1 0x60 ADD MLOAD SWAP1 POP DUP1 PUSH20 0xFFFFFFFFFFFFFFFFFFFFFFFFFFFFFFFFFFFFFFFF AND PUSH4 0xA9059CBB DUP4 PUSH1 0x20 ADD MLOAD DUP5 PUSH1 0x40 ADD MLOAD PUSH1 0x40 MLOAD DUP4 PUSH4 0xFFFFFFFF AND PUSH1 0xE0 SHL DUP2 MSTORE PUSH1 0x4 ADD PUSH2 0xAB3 SWAP3 SWAP2 SWAP1 PUSH2 0x1BEB JUMP JUMPDEST PUSH1 0x20 PUSH1 0x40 MLOAD DUP1 DUP4 SUB DUP2 PUSH0 DUP8 GAS CALL ISZERO DUP1 ISZERO PUSH2 0xACF JUMPI RETURNDATASIZE PUSH0 PUSH0 RETURNDATACOPY RETURNDATASIZE PUSH0 REVERT JUMPDEST POP POP POP POP PUSH1 0x40 MLOAD RETURNDATASIZE PUSH1 0x1F NOT PUSH1 0x1F DUP3 ADD AND DUP3 ADD DUP1 PUSH1 0x40 MSTORE POP DUP2 ADD SWAP1 PUSH2 0xAF3 SWAP2 SWAP1 PUSH2 0x1AE1 JUMP JUMPDEST POP POP JUMPDEST PUSH1 0x3 PUSH0 DUP3 PUSH1 0xA0 ADD MLOAD PUSH1 0x1 DUP2 GT ISZERO PUSH2 0xB10 JUMPI PUSH2 0xB0F PUSH2 0x1505 JUMP JUMPDEST JUMPDEST PUSH1 0x1 DUP2 GT ISZERO PUSH2 0xB22 JUMPI PUSH2 0xB21 PUSH2 0x1505 JUMP JUMPDEST JUMPDEST DUP2 MSTORE PUSH1 0x20 ADD SWAP1 DUP2 MSTORE PUSH1 0x20 ADD PUSH0 KECCAK256 PUSH0 CALLER PUSH20 0xFFFFFFFFFFFFFFFFFFFFFFFFFFFFFFFFFFFFFFFF AND PUSH20 0xFFFFFFFFFFFFFFFFFFFFFFFFFFFFFFFFFFFFFFFF AND DUP2 MSTORE PUSH1 0x20 ADD SWAP1 DUP2 MSTORE PUSH1 0x20 ADD PUSH0 KECCAK256 PUSH0 SWAP1 SSTORE PUSH0 PUSH1 0x4 PUSH0 DUP4 PUSH1 0xA0 ADD MLOAD PUSH1 0x1 DUP2 GT ISZERO PUSH2 0xB88 JUMPI PUSH2 0xB87 PUSH2 0x1505 JUMP JUMPDEST JUMPDEST PUSH1 0x1 DUP2 GT ISZERO PUSH2 0xB9A JUMPI PUSH2 0xB99 PUSH2 0x1505 JUMP JUMPDEST JUMPDEST DUP2 MSTORE PUSH1 0x20 ADD SWAP1 DUP2 MSTORE PUSH1 0x20 ADD PUSH0 KECCAK256 PUSH0 CALLER PUSH20 0xFFFFFFFFFFFFFFFFFFFFFFFFFFFFFFFFFFFFFFFF AND PUSH20 0xFFFFFFFFFFFFFFFFFFFFFFFFFFFFFFFFFFFFFFFF AND DUP2 MSTORE PUSH1 0x20 ADD SWAP1 DUP2 MSTORE PUSH1 0x20 ADD PUSH0 KECCAK256 PUSH0 PUSH2 0x100 EXP DUP2 SLOAD DUP2 PUSH1 0xFF MUL NOT AND SWAP1 DUP4 ISZERO ISZERO MUL OR SWAP1 SSTORE POP POP POP SWAP2 SWAP1 POP JUMP JUMPDEST PUSH1 0x60 PUSH1 0x5 DUP1 SLOAD DUP1 PUSH1 0x20 MUL PUSH1 0x20 ADD PUSH1 0x40 MLOAD SWAP1 DUP2 ADD PUSH1 0x40 MSTORE DUP1 SWAP3 SWAP2 SWAP1 DUP2 DUP2 MSTORE PUSH1 0x20 ADD DUP3 DUP1 SLOAD DUP1 ISZERO PUSH2 0xC80 JUMPI PUSH1 0x20 MUL DUP3 ADD SWAP2 SWAP1 PUSH0 MSTORE PUSH1 0x20 PUSH0 KECCAK256 SWAP1 JUMPDEST DUP2 PUSH0 SWAP1 SLOAD SWAP1 PUSH2 0x100 EXP SWAP1 DIV PUSH20 0xFFFFFFFFFFFFFFFFFFFFFFFFFFFFFFFFFFFFFFFF AND PUSH20 0xFFFFFFFFFFFFFFFFFFFFFFFFFFFFFFFFFFFFFFFF AND DUP2 MSTORE PUSH1 0x20 ADD SWAP1 PUSH1 0x1 ADD SWAP1 DUP1 DUP4 GT PUSH2 0xC37 JUMPI JUMPDEST POP POP POP POP POP SWAP1 POP SWAP1 JUMP JUMPDEST PUSH0 PUSH0 PUSH1 0x4 PUSH0 DUP7 PUSH1 0x1 DUP2 GT ISZERO PUSH2 0xCA2 JUMPI PUSH2 0xCA1 PUSH2 0x1505 JUMP JUMPDEST JUMPDEST PUSH1 0x1 DUP2 GT ISZERO PUSH2 0xCB4 JUMPI PUSH2 0xCB3 PUSH2 0x1505 JUMP JUMPDEST JUMPDEST DUP2 MSTORE PUSH1 0x20 ADD SWAP1 DUP2 MSTORE PUSH1 0x20 ADD PUSH0 KECCAK256 PUSH0 CALLER PUSH20 0xFFFFFFFFFFFFFFFFFFFFFFFFFFFFFFFFFFFFFFFF AND PUSH20 0xFFFFFFFFFFFFFFFFFFFFFFFFFFFFFFFFFFFFFFFF AND DUP2 MSTORE PUSH1 0x20 ADD SWAP1 DUP2 MSTORE PUSH1 0x20 ADD PUSH0 KECCAK256 PUSH0 SWAP1 SLOAD SWAP1 PUSH2 0x100 EXP SWAP1 DIV PUSH1 0xFF AND ISZERO PUSH2 0xD49 JUMPI PUSH1 0x40 MLOAD PUSH32 0x8C379A000000000000000000000000000000000000000000000000000000000 DUP2 MSTORE PUSH1 0x4 ADD PUSH2 0xD40 SWAP1 PUSH2 0x1C5C JUMP JUMPDEST PUSH1 0x40 MLOAD DUP1 SWAP2 SUB SWAP1 REVERT JUMPDEST PUSH1 0x1 PUSH1 0x4 PUSH0 DUP8 PUSH1 0x1 DUP2 GT ISZERO PUSH2 0xD61 JUMPI PUSH2 0xD60 PUSH2 0x1505 JUMP JUMPDEST JUMPDEST PUSH1 0x1 DUP2 GT ISZERO PUSH2 0xD73 JUMPI PUSH2 0xD72 PUSH2 0x1505 JUMP JUMPDEST JUMPDEST DUP2 MSTORE PUSH1 0x20 ADD SWAP1 DUP2 MSTORE PUSH1 0x20 ADD PUSH0 KECCAK256 PUSH0 CALLER PUSH20 0xFFFFFFFFFFFFFFFFFFFFFFFFFFFFFFFFFFFFFFFF AND PUSH20 0xFFFFFFFFFFFFFFFFFFFFFFFFFFFFFFFFFFFFFFFF AND DUP2 MSTORE PUSH1 0x20 ADD SWAP1 DUP2 MSTORE PUSH1 0x20 ADD PUSH0 KECCAK256 PUSH0 PUSH2 0x100 EXP DUP2 SLOAD DUP2 PUSH1 0xFF MUL NOT AND SWAP1 DUP4 ISZERO ISZERO MUL OR SWAP1 SSTORE POP PUSH2 0xDFC DUP4 DUP6 PUSH32 0x0 PUSH2 0x11B2 JUMP JUMPDEST POP PUSH2 0xE05 PUSH2 0x12E7 JUMP JUMPDEST SWAP2 POP PUSH1 0x1 DUP3 SWAP1 DUP1 PUSH1 0x1 DUP2 SLOAD ADD DUP1 DUP3 SSTORE DUP1 SWAP2 POP POP PUSH1 0x1 SWAP1 SUB SWAP1 PUSH0 MSTORE PUSH1 0x20 PUSH0 KECCAK256 ADD PUSH0 SWAP1 SWAP2 SWAP1 SWAP2 SWAP1 SWAP2 POP SSTORE PUSH1 0x40 MLOAD DUP1 PUSH1 0xC0 ADD PUSH1 0x40 MSTORE DUP1 DUP4 DUP2 MSTORE PUSH1 0x20 ADD CALLER PUSH20 0xFFFFFFFFFFFFFFFFFFFFFFFFFFFFFFFFFFFFFFFF AND DUP2 MSTORE PUSH1 0x20 ADD DUP6 DUP2 MSTORE PUSH1 0x20 ADD DUP5 PUSH20 0xFFFFFFFFFFFFFFFFFFFFFFFFFFFFFFFFFFFFFFFF AND DUP2 MSTORE PUSH1 0x20 ADD TIMESTAMP DUP2 MSTORE PUSH1 0x20 ADD DUP7 PUSH1 0x1 DUP2 GT ISZERO PUSH2 0xE95 JUMPI PUSH2 0xE94 PUSH2 0x1505 JUMP JUMPDEST JUMPDEST DUP2 MSTORE POP PUSH1 0x2 PUSH0 DUP5 DUP2 MSTORE PUSH1 0x20 ADD SWAP1 DUP2 MSTORE PUSH1 0x20 ADD PUSH0 KECCAK256 PUSH0 DUP3 ADD MLOAD DUP2 PUSH0 ADD SSTORE PUSH1 0x20 DUP3 ADD MLOAD DUP2 PUSH1 0x1 ADD PUSH0 PUSH2 0x100 EXP DUP2 SLOAD DUP2 PUSH20 0xFFFFFFFFFFFFFFFFFFFFFFFFFFFFFFFFFFFFFFFF MUL NOT AND SWAP1 DUP4 PUSH20 0xFFFFFFFFFFFFFFFFFFFFFFFFFFFFFFFFFFFFFFFF AND MUL OR SWAP1 SSTORE POP PUSH1 0x40 DUP3 ADD MLOAD DUP2 PUSH1 0x2 ADD SSTORE PUSH1 0x60 DUP3 ADD MLOAD DUP2 PUSH1 0x3 ADD PUSH0 PUSH2 0x100 EXP DUP2 SLOAD DUP2 PUSH20 0xFFFFFFFFFFFFFFFFFFFFFFFFFFFFFFFFFFFFFFFF MUL NOT AND SWAP1 DUP4 PUSH20 0xFFFFFFFFFFFFFFFFFFFFFFFFFFFFFFFFFFFFFFFF AND MUL OR SWAP1 SSTORE POP PUSH1 0x80 DUP3 ADD MLOAD DUP2 PUSH1 0x4 ADD SSTORE PUSH1 0xA0 DUP3 ADD MLOAD DUP2 PUSH1 0x5 ADD PUSH0 PUSH2 0x100 EXP DUP2 SLOAD DUP2 PUSH1 0xFF MUL NOT AND SWAP1 DUP4 PUSH1 0x1 DUP2 GT ISZERO PUSH2 0xF7B JUMPI PUSH2 0xF7A PUSH2 0x1505 JUMP JUMPDEST JUMPDEST MUL OR SWAP1 SSTORE POP SWAP1 POP POP DUP2 PUSH1 0x3 PUSH0 DUP8 PUSH1 0x1 DUP2 GT ISZERO PUSH2 0xF9A JUMPI PUSH2 0xF99 PUSH2 0x1505 JUMP JUMPDEST JUMPDEST PUSH1 0x1 DUP2 GT ISZERO PUSH2 0xFAC JUMPI PUSH2 0xFAB PUSH2 0x1505 JUMP JUMPDEST JUMPDEST DUP2 MSTORE PUSH1 0x20 ADD SWAP1 DUP2 MSTORE PUSH1 0x20 ADD PUSH0 KECCAK256 PUSH0 CALLER PUSH20 0xFFFFFFFFFFFFFFFFFFFFFFFFFFFFFFFFFFFFFFFF AND PUSH20 0xFFFFFFFFFFFFFFFFFFFFFFFFFFFFFFFFFFFFFFFF AND DUP2 MSTORE PUSH1 0x20 ADD SWAP1 DUP2 MSTORE PUSH1 0x20 ADD PUSH0 KECCAK256 DUP2 SWAP1 SSTORE POP SWAP4 POP SWAP4 SWAP2 POP POP JUMP JUMPDEST PUSH2 0x1008 PUSH2 0x1302 JUMP JUMPDEST PUSH1 0x2 PUSH0 DUP4 DUP2 MSTORE PUSH1 0x20 ADD SWAP1 DUP2 MSTORE PUSH1 0x20 ADD PUSH0 KECCAK256 PUSH1 0x40 MLOAD DUP1 PUSH1 0xC0 ADD PUSH1 0x40 MSTORE SWAP1 DUP2 PUSH0 DUP3 ADD SLOAD DUP2 MSTORE PUSH1 0x20 ADD PUSH1 0x1 DUP3 ADD PUSH0 SWAP1 SLOAD SWAP1 PUSH2 0x100 EXP SWAP1 DIV PUSH20 0xFFFFFFFFFFFFFFFFFFFFFFFFFFFFFFFFFFFFFFFF AND PUSH20 0xFFFFFFFFFFFFFFFFFFFFFFFFFFFFFFFFFFFFFFFF AND PUSH20 0xFFFFFFFFFFFFFFFFFFFFFFFFFFFFFFFFFFFFFFFF AND DUP2 MSTORE PUSH1 0x20 ADD PUSH1 0x2 DUP3 ADD SLOAD DUP2 MSTORE PUSH1 0x20 ADD PUSH1 0x3 DUP3 ADD PUSH0 SWAP1 SLOAD SWAP1 PUSH2 0x100 EXP SWAP1 DIV PUSH20 0xFFFFFFFFFFFFFFFFFFFFFFFFFFFFFFFFFFFFFFFF AND PUSH20 0xFFFFFFFFFFFFFFFFFFFFFFFFFFFFFFFFFFFFFFFF AND PUSH20 0xFFFFFFFFFFFFFFFFFFFFFFFFFFFFFFFFFFFFFFFF AND DUP2 MSTORE PUSH1 0x20 ADD PUSH1 0x4 DUP3 ADD SLOAD DUP2 MSTORE PUSH1 0x20 ADD PUSH1 0x5 DUP3 ADD PUSH0 SWAP1 SLOAD SWAP1 PUSH2 0x100 EXP SWAP1 DIV PUSH1 0xFF AND PUSH1 0x1 DUP2 GT ISZERO PUSH2 0x110F JUMPI PUSH2 0x110E PUSH2 0x1505 JUMP JUMPDEST JUMPDEST PUSH1 0x1 DUP2 GT ISZERO PUSH2 0x1121 JUMPI PUSH2 0x1120 PUSH2 0x1505 JUMP JUMPDEST JUMPDEST DUP2 MSTORE POP POP SWAP1 POP SWAP2 SWAP1 POP JUMP JUMPDEST PUSH0 PUSH1 0x4 PUSH0 DUP5 PUSH1 0x1 DUP2 GT ISZERO PUSH2 0x1143 JUMPI PUSH2 0x1142 PUSH2 0x1505 JUMP JUMPDEST JUMPDEST PUSH1 0x1 DUP2 GT ISZERO PUSH2 0x1155 JUMPI PUSH2 0x1154 PUSH2 0x1505 JUMP JUMPDEST JUMPDEST DUP2 MSTORE PUSH1 0x20 ADD SWAP1 DUP2 MSTORE PUSH1 0x20 ADD PUSH0 KECCAK256 PUSH0 DUP4 PUSH20 0xFFFFFFFFFFFFFFFFFFFFFFFFFFFFFFFFFFFFFFFF AND PUSH20 0xFFFFFFFFFFFFFFFFFFFFFFFFFFFFFFFFFFFFFFFF AND DUP2 MSTORE PUSH1 0x20 ADD SWAP1 DUP2 MSTORE PUSH1 0x20 ADD PUSH0 KECCAK256 PUSH0 SWAP1 SLOAD SWAP1 PUSH2 0x100 EXP SWAP1 DIV PUSH1 0xFF AND SWAP1 POP SWAP3 SWAP2 POP POP JUMP JUMPDEST PUSH0 PUSH20 0xEEEEEEEEEEEEEEEEEEEEEEEEEEEEEEEEEEEEEEEE PUSH20 0xFFFFFFFFFFFFFFFFFFFFFFFFFFFFFFFFFFFFFFFF AND DUP5 PUSH20 0xFFFFFFFFFFFFFFFFFFFFFFFFFFFFFFFFFFFFFFFF AND SUB PUSH2 0x1242 JUMPI DUP3 CALLVALUE LT ISZERO PUSH2 0x123D JUMPI PUSH1 0x40 MLOAD PUSH32 0x8C379A000000000000000000000000000000000000000000000000000000000 DUP2 MSTORE PUSH1 0x4 ADD PUSH2 0x1234 SWAP1 PUSH2 0x1CC4 JUMP JUMPDEST PUSH1 0x40 MLOAD DUP1 SWAP2 SUB SWAP1 REVERT JUMPDEST PUSH2 0x12C6 JUMP JUMPDEST PUSH0 DUP5 SWAP1 POP DUP1 PUSH20 0xFFFFFFFFFFFFFFFFFFFFFFFFFFFFFFFFFFFFFFFF AND PUSH4 0x23B872DD CALLER DUP6 DUP8 PUSH1 0x40 MLOAD DUP5 PUSH4 0xFFFFFFFF AND PUSH1 0xE0 SHL DUP2 MSTORE PUSH1 0x4 ADD PUSH2 0x1283 SWAP4 SWAP3 SWAP2 SWAP1 PUSH2 0x1CE2 JUMP JUMPDEST PUSH1 0x20 PUSH1 0x40 MLOAD DUP1 DUP4 SUB DUP2 PUSH0 DUP8 GAS CALL ISZERO DUP1 ISZERO PUSH2 0x129F JUMPI RETURNDATASIZE PUSH0 PUSH0 RETURNDATACOPY RETURNDATASIZE PUSH0 REVERT JUMPDEST POP POP POP POP PUSH1 0x40 MLOAD RETURNDATASIZE PUSH1 0x1F NOT PUSH1 0x1F DUP3 ADD AND DUP3 ADD DUP1 PUSH1 0x40 MSTORE POP DUP2 ADD SWAP1 PUSH2 0x12C3 SWAP2 SWAP1 PUSH2 0x1AE1 JUMP JUMPDEST POP POP JUMPDEST DUP2 PUSH20 0xFFFFFFFFFFFFFFFFFFFFFFFFFFFFFFFFFFFFFFFF AND BALANCE SWAP1 POP SWAP4 SWAP3 POP POP POP JUMP JUMPDEST PUSH0 PUSH0 PUSH0 DUP2 SLOAD DUP1 SWAP3 SWAP2 SWAP1 PUSH2 0x12F9 SWAP1 PUSH2 0x1D44 JUMP JUMPDEST SWAP2 SWAP1 POP SSTORE SWAP1 POP SWAP1 JUMP JUMPDEST PUSH1 0x40 MLOAD DUP1 PUSH1 0xC0 ADD PUSH1 0x40 MSTORE DUP1 PUSH0 DUP2 MSTORE PUSH1 0x20 ADD PUSH0 PUSH20 0xFFFFFFFFFFFFFFFFFFFFFFFFFFFFFFFFFFFFFFFF AND DUP2 MSTORE PUSH1 0x20 ADD PUSH0 DUP2 MSTORE PUSH1 0x20 ADD PUSH0 PUSH20 0xFFFFFFFFFFFFFFFFFFFFFFFFFFFFFFFFFFFFFFFF AND DUP2 MSTORE PUSH1 0x20 ADD PUSH0 DUP2 MSTORE PUSH1 0x20 ADD PUSH0 PUSH1 0x1 DUP2 GT ISZERO PUSH2 0x136A JUMPI PUSH2 0x1369 PUSH2 0x1505 JUMP JUMPDEST JUMPDEST DUP2 MSTORE POP SWAP1 JUMP JUMPDEST DUP3 DUP1 SLOAD DUP3 DUP3 SSTORE SWAP1 PUSH0 MSTORE PUSH1 0x20 PUSH0 KECCAK256 SWAP1 DUP2 ADD SWAP3 DUP3 ISZERO PUSH2 0x13E6 JUMPI SWAP2 PUSH1 0x20 MUL DUP3 ADD JUMPDEST DUP3 DUP2 GT ISZERO PUSH2 0x13E5 JUMPI DUP3 MLOAD DUP3 PUSH0 PUSH2 0x100 EXP DUP2 SLOAD DUP2 PUSH20 0xFFFFFFFFFFFFFFFFFFFFFFFFFFFFFFFFFFFFFFFF MUL NOT AND SWAP1 DUP4 PUSH20 0xFFFFFFFFFFFFFFFFFFFFFFFFFFFFFFFFFFFFFFFF AND MUL OR SWAP1 SSTORE POP SWAP2 PUSH1 0x20 ADD SWAP2 SWAP1 PUSH1 0x1 ADD SWAP1 PUSH2 0x138E JUMP JUMPDEST JUMPDEST POP SWAP1 POP PUSH2 0x13F3 SWAP2 SWAP1 PUSH2 0x13F7 JUMP JUMPDEST POP SWAP1 JUMP JUMPDEST JUMPDEST DUP1 DUP3 GT ISZERO PUSH2 0x140E JUMPI PUSH0 DUP2 PUSH0 SWAP1 SSTORE POP PUSH1 0x1 ADD PUSH2 0x13F8 JUMP JUMPDEST POP SWAP1 JUMP JUMPDEST PUSH0 PUSH1 0x40 MLOAD SWAP1 POP SWAP1 JUMP JUMPDEST PUSH0 PUSH0 REVERT JUMPDEST PUSH0 PUSH0 REVERT JUMPDEST PUSH1 0x2 DUP2 LT PUSH2 0x142F JUMPI PUSH0 PUSH0 REVERT JUMPDEST POP JUMP JUMPDEST PUSH0 DUP2 CALLDATALOAD SWAP1 POP PUSH2 0x1440 DUP2 PUSH2 0x1423 JUMP JUMPDEST SWAP3 SWAP2 POP POP JUMP JUMPDEST PUSH0 PUSH20 0xFFFFFFFFFFFFFFFFFFFFFFFFFFFFFFFFFFFFFFFF DUP3 AND SWAP1 POP SWAP2 SWAP1 POP JUMP JUMPDEST PUSH0 PUSH2 0x146F DUP3 PUSH2 0x1446 JUMP JUMPDEST SWAP1 POP SWAP2 SWAP1 POP JUMP JUMPDEST PUSH2 0x147F DUP2 PUSH2 0x1465 JUMP JUMPDEST DUP2 EQ PUSH2 0x1489 JUMPI PUSH0 PUSH0 REVERT JUMPDEST POP JUMP JUMPDEST PUSH0 DUP2 CALLDATALOAD SWAP1 POP PUSH2 0x149A DUP2 PUSH2 0x1476 JUMP JUMPDEST SWAP3 SWAP2 POP POP JUMP JUMPDEST PUSH0 PUSH0 PUSH1 0x40 DUP4 DUP6 SUB SLT ISZERO PUSH2 0x14B6 JUMPI PUSH2 0x14B5 PUSH2 0x141B JUMP JUMPDEST JUMPDEST PUSH0 PUSH2 0x14C3 DUP6 DUP3 DUP7 ADD PUSH2 0x1432 JUMP JUMPDEST SWAP3 POP POP PUSH1 0x20 PUSH2 0x14D4 DUP6 DUP3 DUP7 ADD PUSH2 0x148C JUMP JUMPDEST SWAP2 POP POP SWAP3 POP SWAP3 SWAP1 POP JUMP JUMPDEST PUSH0 DUP2 SWAP1 POP SWAP2 SWAP1 POP JUMP JUMPDEST PUSH2 0x14F0 DUP2 PUSH2 0x14DE JUMP JUMPDEST DUP3 MSTORE POP POP JUMP JUMPDEST PUSH2 0x14FF DUP2 PUSH2 0x1465 JUMP JUMPDEST DUP3 MSTORE POP POP JUMP JUMPDEST PUSH32 0x4E487B7100000000000000000000000000000000000000000000000000000000 PUSH0 MSTORE PUSH1 0x21 PUSH1 0x4 MSTORE PUSH1 0x24 PUSH0 REVERT JUMPDEST PUSH1 0x2 DUP2 LT PUSH2 0x1543 JUMPI PUSH2 0x1542 PUSH2 0x1505 JUMP JUMPDEST JUMPDEST POP JUMP JUMPDEST PUSH0 DUP2 SWAP1 POP PUSH2 0x1553 DUP3 PUSH2 0x1532 JUMP JUMPDEST SWAP2 SWAP1 POP JUMP JUMPDEST PUSH0 PUSH2 0x1562 DUP3 PUSH2 0x1546 JUMP JUMPDEST SWAP1 POP SWAP2 SWAP1 POP JUMP JUMPDEST PUSH2 0x1572 DUP2 PUSH2 0x1558 JUMP JUMPDEST DUP3 MSTORE POP POP JUMP JUMPDEST PUSH1 0xC0 DUP3 ADD PUSH0 DUP3 ADD MLOAD PUSH2 0x158C PUSH0 DUP6 ADD DUP3 PUSH2 0x14E7 JUMP JUMPDEST POP PUSH1 0x20 DUP3 ADD MLOAD PUSH2 0x159F PUSH1 0x20 DUP6 ADD DUP3 PUSH2 0x14F6 JUMP JUMPDEST POP PUSH1 0x40 DUP3 ADD MLOAD PUSH2 0x15B2 PUSH1 0x40 DUP6 ADD DUP3 PUSH2 0x14E7 JUMP JUMPDEST POP PUSH1 0x60 DUP3 ADD MLOAD PUSH2 0x15C5 PUSH1 0x60 DUP6 ADD DUP3 PUSH2 0x14F6 JUMP JUMPDEST POP PUSH1 0x80 DUP3 ADD MLOAD PUSH2 0x15D8 PUSH1 0x80 DUP6 ADD DUP3 PUSH2 0x14E7 JUMP JUMPDEST POP PUSH1 0xA0 DUP3 ADD MLOAD PUSH2 0x15EB PUSH1 0xA0 DUP6 ADD DUP3 PUSH2 0x1569 JUMP JUMPDEST POP POP POP POP JUMP JUMPDEST PUSH0 PUSH1 0xC0 DUP3 ADD SWAP1 POP PUSH2 0x1604 PUSH0 DUP4 ADD DUP5 PUSH2 0x1578 JUMP JUMPDEST SWAP3 SWAP2 POP POP JUMP JUMPDEST PUSH0 PUSH0 REVERT JUMPDEST PUSH0 PUSH1 0x1F NOT PUSH1 0x1F DUP4 ADD AND SWAP1 POP SWAP2 SWAP1 POP JUMP JUMPDEST PUSH32 0x4E487B7100000000000000000000000000000000000000000000000000000000 PUSH0 MSTORE PUSH1 0x41 PUSH1 0x4 MSTORE PUSH1 0x24 PUSH0 REVERT JUMPDEST PUSH2 0x1654 DUP3 PUSH2 0x160E JUMP JUMPDEST DUP2 ADD DUP2 DUP2 LT PUSH8 0xFFFFFFFFFFFFFFFF DUP3 GT OR ISZERO PUSH2 0x1673 JUMPI PUSH2 0x1672 PUSH2 0x161E JUMP JUMPDEST JUMPDEST DUP1 PUSH1 0x40 MSTORE POP POP POP JUMP JUMPDEST PUSH0 PUSH2 0x1685 PUSH2 0x1412 JUMP JUMPDEST SWAP1 POP PUSH2 0x1691 DUP3 DUP3 PUSH2 0x164B JUMP JUMPDEST SWAP2 SWAP1 POP JUMP JUMPDEST PUSH0 PUSH8 0xFFFFFFFFFFFFFFFF DUP3 GT ISZERO PUSH2 0x16B0 JUMPI PUSH2 0x16AF PUSH2 0x161E JUMP JUMPDEST JUMPDEST PUSH1 0x20 DUP3 MUL SWAP1 POP PUSH1 0x20 DUP2 ADD SWAP1 POP SWAP2 SWAP1 POP JUMP JUMPDEST PUSH0 PUSH0 REVERT JUMPDEST PUSH0 PUSH2 0x16D7 PUSH2 0x16D2 DUP5 PUSH2 0x1696 JUMP JUMPDEST PUSH2 0x167C JUMP JUMPDEST SWAP1 POP DUP1 DUP4 DUP3 MSTORE PUSH1 0x20 DUP3 ADD SWAP1 POP PUSH1 0x20 DUP5 MUL DUP4 ADD DUP6 DUP2 GT ISZERO PUSH2 0x16FA JUMPI PUSH2 0x16F9 PUSH2 0x16C1 JUMP JUMPDEST JUMPDEST DUP4 JUMPDEST DUP2 DUP2 LT ISZERO PUSH2 0x1723 JUMPI DUP1 PUSH2 0x170F DUP9 DUP3 PUSH2 0x148C JUMP JUMPDEST DUP5 MSTORE PUSH1 0x20 DUP5 ADD SWAP4 POP POP PUSH1 0x20 DUP2 ADD SWAP1 POP PUSH2 0x16FC JUMP JUMPDEST POP POP POP SWAP4 SWAP3 POP POP POP JUMP JUMPDEST PUSH0 DUP3 PUSH1 0x1F DUP4 ADD SLT PUSH2 0x1741 JUMPI PUSH2 0x1740 PUSH2 0x160A JUMP JUMPDEST JUMPDEST DUP2 CALLDATALOAD PUSH2 0x1751 DUP5 DUP3 PUSH1 0x20 DUP7 ADD PUSH2 0x16C5 JUMP JUMPDEST SWAP2 POP POP SWAP3 SWAP2 POP POP JUMP JUMPDEST PUSH0 PUSH1 0x20 DUP3 DUP5 SUB SLT ISZERO PUSH2 0x176F JUMPI PUSH2 0x176E PUSH2 0x141B JUMP JUMPDEST JUMPDEST PUSH0 DUP3 ADD CALLDATALOAD PUSH8 0xFFFFFFFFFFFFFFFF DUP2 GT ISZERO PUSH2 0x178C JUMPI PUSH2 0x178B PUSH2 0x141F JUMP JUMPDEST JUMPDEST PUSH2 0x1798 DUP5 DUP3 DUP6 ADD PUSH2 0x172D JUMP JUMPDEST SWAP2 POP POP SWAP3 SWAP2 POP POP JUMP JUMPDEST PUSH0 DUP2 ISZERO ISZERO SWAP1 POP SWAP2 SWAP1 POP JUMP JUMPDEST PUSH2 0x17B5 DUP2 PUSH2 0x17A1 JUMP JUMPDEST DUP3 MSTORE POP POP JUMP JUMPDEST PUSH0 PUSH1 0x20 DUP3 ADD SWAP1 POP PUSH2 0x17CE PUSH0 DUP4 ADD DUP5 PUSH2 0x17AC JUMP JUMPDEST SWAP3 SWAP2 POP POP JUMP JUMPDEST PUSH2 0x17DD DUP2 PUSH2 0x14DE JUMP JUMPDEST DUP3 MSTORE POP POP JUMP JUMPDEST PUSH0 PUSH1 0x20 DUP3 ADD SWAP1 POP PUSH2 0x17F6 PUSH0 DUP4 ADD DUP5 PUSH2 0x17D4 JUMP JUMPDEST SWAP3 SWAP2 POP POP JUMP JUMPDEST PUSH0 DUP2 MLOAD SWAP1 POP SWAP2 SWAP1 POP JUMP JUMPDEST PUSH0 DUP3 DUP3 MSTORE PUSH1 0x20 DUP3 ADD SWAP1 POP SWAP3 SWAP2 POP POP JUMP JUMPDEST DUP3 DUP2 DUP4 MCOPY PUSH0 DUP4 DUP4 ADD MSTORE POP POP POP JUMP JUMPDEST PUSH0 PUSH2 0x182E DUP3 PUSH2 0x17FC JUMP JUMPDEST PUSH2 0x1838 DUP2 DUP6 PUSH2 0x1806 JUMP JUMPDEST SWAP4 POP PUSH2 0x1848 DUP2 DUP6 PUSH1 0x20 DUP7 ADD PUSH2 0x1816 JUMP JUMPDEST PUSH2 0x1851 DUP2 PUSH2 0x160E JUMP JUMPDEST DUP5 ADD SWAP2 POP POP SWAP3 SWAP2 POP POP JUMP JUMPDEST PUSH0 PUSH1 0x20 DUP3 ADD SWAP1 POP DUP2 DUP2 SUB PUSH0 DUP4 ADD MSTORE PUSH2 0x1874 DUP2 DUP5 PUSH2 0x1824 JUMP JUMPDEST SWAP1 POP SWAP3 SWAP2 POP POP JUMP JUMPDEST PUSH2 0x1885 DUP2 PUSH2 0x14DE JUMP JUMPDEST DUP2 EQ PUSH2 0x188F JUMPI PUSH0 PUSH0 REVERT JUMPDEST POP JUMP JUMPDEST PUSH0 DUP2 CALLDATALOAD SWAP1 POP PUSH2 0x18A0 DUP2 PUSH2 0x187C JUMP JUMPDEST SWAP3 SWAP2 POP POP JUMP JUMPDEST PUSH0 PUSH1 0x20 DUP3 DUP5 SUB SLT ISZERO PUSH2 0x18BB JUMPI PUSH2 0x18BA PUSH2 0x141B JUMP JUMPDEST JUMPDEST PUSH0 PUSH2 0x18C8 DUP5 DUP3 DUP6 ADD PUSH2 0x1892 JUMP JUMPDEST SWAP2 POP POP SWAP3 SWAP2 POP POP JUMP JUMPDEST PUSH0 DUP2 MLOAD SWAP1 POP SWAP2 SWAP1 POP JUMP JUMPDEST PUSH0 DUP3 DUP3 MSTORE PUSH1 0x20 DUP3 ADD SWAP1 POP SWAP3 SWAP2 POP POP JUMP JUMPDEST PUSH0 DUP2 SWAP1 POP PUSH1 0x20 DUP3 ADD SWAP1 POP SWAP2 SWAP1 POP JUMP JUMPDEST PUSH0 PUSH2 0x1905 DUP4 DUP4 PUSH2 0x14F6 JUMP JUMPDEST PUSH1 0x20 DUP4 ADD SWAP1 POP SWAP3 SWAP2 POP POP JUMP JUMPDEST PUSH0 PUSH1 0x20 DUP3 ADD SWAP1 POP SWAP2 SWAP1 POP JUMP JUMPDEST PUSH0 PUSH2 0x1927 DUP3 PUSH2 0x18D1 JUMP JUMPDEST PUSH2 0x1931 DUP2 DUP6 PUSH2 0x18DB JUMP JUMPDEST SWAP4 POP PUSH2 0x193C DUP4 PUSH2 0x18EB JUMP JUMPDEST DUP1 PUSH0 JUMPDEST DUP4 DUP2 LT ISZERO PUSH2 0x196C JUMPI DUP2 MLOAD PUSH2 0x1953 DUP9 DUP3 PUSH2 0x18FA JUMP JUMPDEST SWAP8 POP PUSH2 0x195E DUP4 PUSH2 0x1911 JUMP JUMPDEST SWAP3 POP POP PUSH1 0x1 DUP2 ADD SWAP1 POP PUSH2 0x193F JUMP JUMPDEST POP DUP6 SWAP4 POP POP POP POP SWAP3 SWAP2 POP POP JUMP JUMPDEST PUSH0 PUSH1 0x20 DUP3 ADD SWAP1 POP DUP2 DUP2 SUB PUSH0 DUP4 ADD MSTORE PUSH2 0x1991 DUP2 DUP5 PUSH2 0x191D JUMP JUMPDEST SWAP1 POP SWAP3 SWAP2 POP POP JUMP JUMPDEST PUSH0 PUSH0 PUSH0 PUSH1 0x60 DUP5 DUP7 SUB SLT ISZERO PUSH2 0x19B0 JUMPI PUSH2 0x19AF PUSH2 0x141B JUMP JUMPDEST JUMPDEST PUSH0 PUSH2 0x19BD DUP7 DUP3 DUP8 ADD PUSH2 0x1432 JUMP JUMPDEST SWAP4 POP POP PUSH1 0x20 PUSH2 0x19CE DUP7 DUP3 DUP8 ADD PUSH2 0x1892 JUMP JUMPDEST SWAP3 POP POP PUSH1 0x40 PUSH2 0x19DF DUP7 DUP3 DUP8 ADD PUSH2 0x148C JUMP JUMPDEST SWAP2 POP POP SWAP3 POP SWAP3 POP SWAP3 JUMP JUMPDEST PUSH0 PUSH1 0x40 DUP3 ADD SWAP1 POP PUSH2 0x19FC PUSH0 DUP4 ADD DUP6 PUSH2 0x17D4 JUMP JUMPDEST PUSH2 0x1A09 PUSH1 0x20 DUP4 ADD DUP5 PUSH2 0x17D4 JUMP JUMPDEST SWAP4 SWAP3 POP POP POP JUMP JUMPDEST PUSH32 0x626F6E6420686F6C646572206F6E6C7900000000000000000000000000000000 PUSH0 DUP3 ADD MSTORE POP JUMP JUMPDEST PUSH0 PUSH2 0x1A44 PUSH1 0x10 DUP4 PUSH2 0x1806 JUMP JUMPDEST SWAP2 POP PUSH2 0x1A4F DUP3 PUSH2 0x1A10 JUMP JUMPDEST PUSH1 0x20 DUP3 ADD SWAP1 POP SWAP2 SWAP1 POP JUMP JUMPDEST PUSH0 PUSH1 0x20 DUP3 ADD SWAP1 POP DUP2 DUP2 SUB PUSH0 DUP4 ADD MSTORE PUSH2 0x1A71 DUP2 PUSH2 0x1A38 JUMP JUMPDEST SWAP1 POP SWAP2 SWAP1 POP JUMP JUMPDEST PUSH0 DUP2 MLOAD SWAP1 POP PUSH2 0x1A86 DUP2 PUSH2 0x1476 JUMP JUMPDEST SWAP3 SWAP2 POP POP JUMP JUMPDEST PUSH0 PUSH1 0x20 DUP3 DUP5 SUB SLT ISZERO PUSH2 0x1AA1 JUMPI PUSH2 0x1AA0 PUSH2 0x141B JUMP JUMPDEST JUMPDEST PUSH0 PUSH2 0x1AAE DUP5 DUP3 DUP6 ADD PUSH2 0x1A78 JUMP JUMPDEST SWAP2 POP POP SWAP3 SWAP2 POP POP JUMP JUMPDEST PUSH2 0x1AC0 DUP2 PUSH2 0x17A1 JUMP JUMPDEST DUP2 EQ PUSH2 0x1ACA JUMPI PUSH0 PUSH0 REVERT JUMPDEST POP JUMP JUMPDEST PUSH0 DUP2 MLOAD SWAP1 POP PUSH2 0x1ADB DUP2 PUSH2 0x1AB7 JUMP JUMPDEST SWAP3 SWAP2 POP POP JUMP JUMPDEST PUSH0 PUSH1 0x20 DUP3 DUP5 SUB SLT ISZERO PUSH2 0x1AF6 JUMPI PUSH2 0x1AF5 PUSH2 0x141B JUMP JUMPDEST JUMPDEST PUSH0 PUSH2 0x1B03 DUP5 DUP3 DUP6 ADD PUSH2 0x1ACD JUMP JUMPDEST SWAP2 POP POP SWAP3 SWAP2 POP POP JUMP JUMPDEST PUSH32 0x747265617375727920626F6E6420686173206F70656E20706F736974696F6E73 PUSH0 DUP3 ADD MSTORE POP JUMP JUMPDEST PUSH0 PUSH2 0x1B40 PUSH1 0x20 DUP4 PUSH2 0x1806 JUMP JUMPDEST SWAP2 POP PUSH2 0x1B4B DUP3 PUSH2 0x1B0C JUMP JUMPDEST PUSH1 0x20 DUP3 ADD SWAP1 POP SWAP2 SWAP1 POP JUMP JUMPDEST PUSH0 PUSH1 0x20 DUP3 ADD SWAP1 POP DUP2 DUP2 SUB PUSH0 DUP4 ADD MSTORE PUSH2 0x1B6D DUP2 PUSH2 0x1B34 JUMP JUMPDEST SWAP1 POP SWAP2 SWAP1 POP JUMP JUMPDEST PUSH32 0x6D61726B657420626F6E6420686173206F70656E20706F736974696F6E730000 PUSH0 DUP3 ADD MSTORE POP JUMP JUMPDEST PUSH0 PUSH2 0x1BA8 PUSH1 0x1E DUP4 PUSH2 0x1806 JUMP JUMPDEST SWAP2 POP PUSH2 0x1BB3 DUP3 PUSH2 0x1B74 JUMP JUMPDEST PUSH1 0x20 DUP3 ADD SWAP1 POP SWAP2 SWAP1 POP JUMP JUMPDEST PUSH0 PUSH1 0x20 DUP3 ADD SWAP1 POP DUP2 DUP2 SUB PUSH0 DUP4 ADD MSTORE PUSH2 0x1BD5 DUP2 PUSH2 0x1B9C JUMP JUMPDEST SWAP1 POP SWAP2 SWAP1 POP JUMP JUMPDEST PUSH2 0x1BE5 DUP2 PUSH2 0x1465 JUMP JUMPDEST DUP3 MSTORE POP POP JUMP JUMPDEST PUSH0 PUSH1 0x40 DUP3 ADD SWAP1 POP PUSH2 0x1BFE PUSH0 DUP4 ADD DUP6 PUSH2 0x1BDC JUMP JUMPDEST PUSH2 0x1C0B PUSH1 0x20 DUP4 ADD DUP5 PUSH2 0x17D4 JUMP JUMPDEST SWAP4 SWAP3 POP POP POP JUMP JUMPDEST PUSH32 0x626F6E64207479706520616C72656164792068656C6400000000000000000000 PUSH0 DUP3 ADD MSTORE POP JUMP JUMPDEST PUSH0 PUSH2 0x1C46 PUSH1 0x16 DUP4 PUSH2 0x1806 JUMP JUMPDEST SWAP2 POP PUSH2 0x1C51 DUP3 PUSH2 0x1C12 JUMP JUMPDEST PUSH1 0x20 DUP3 ADD SWAP1 POP SWAP2 SWAP1 POP JUMP JUMPDEST PUSH0 PUSH1 0x20 DUP3 ADD SWAP1 POP DUP2 DUP2 SUB PUSH0 DUP4 ADD MSTORE PUSH2 0x1C73 DUP2 PUSH2 0x1C3A JUMP JUMPDEST SWAP1 POP SWAP2 SWAP1 POP JUMP JUMPDEST PUSH32 0x636F6E747269627574696F6E206D69732D6D6174636800000000000000000000 PUSH0 DUP3 ADD MSTORE POP JUMP JUMPDEST PUSH0 PUSH2 0x1CAE PUSH1 0x16 DUP4 PUSH2 0x1806 JUMP JUMPDEST SWAP2 POP PUSH2 0x1CB9 DUP3 PUSH2 0x1C7A JUMP JUMPDEST PUSH1 0x20 DUP3 ADD SWAP1 POP SWAP2 SWAP1 POP JUMP JUMPDEST PUSH0 PUSH1 0x20 DUP3 ADD SWAP1 POP DUP2 DUP2 SUB PUSH0 DUP4 ADD MSTORE PUSH2 0x1CDB DUP2 PUSH2 0x1CA2 JUMP JUMPDEST SWAP1 POP SWAP2 SWAP1 POP JUMP JUMPDEST PUSH0 PUSH1 0x60 DUP3 ADD SWAP1 POP PUSH2 0x1CF5 PUSH0 DUP4 ADD DUP7 PUSH2 0x1BDC JUMP JUMPDEST PUSH2 0x1D02 PUSH1 0x20 DUP4 ADD DUP6 PUSH2 0x1BDC JUMP JUMPDEST PUSH2 0x1D0F PUSH1 0x40 DUP4 ADD DUP5 PUSH2 0x17D4 JUMP JUMPDEST SWAP5 SWAP4 POP POP POP POP JUMP JUMPDEST PUSH32 0x4E487B7100000000000000000000000000000000000000000000000000000000 PUSH0 MSTORE PUSH1 0x11 PUSH1 0x4 MSTORE PUSH1 0x24 PUSH0 REVERT JUMPDEST PUSH0 PUSH2 0x1D4E DUP3 PUSH2 0x14DE JUMP JUMPDEST SWAP2 POP PUSH32 0xFFFFFFFFFFFFFFFFFFFFFFFFFFFFFFFFFFFFFFFFFFFFFFFFFFFFFFFFFFFFFFFF DUP3 SUB PUSH2 0x1D80 JUMPI PUSH2 0x1D7F PUSH2 0x1D17 JUMP JUMPDEST JUMPDEST PUSH1 0x1 DUP3 ADD SWAP1 POP SWAP2 SWAP1 POP JUMP INVALID LOG2 PUSH5 0x6970667358 0x22 SLT KECCAK256 SWAP11 PUSH23 0x574804BE9893B3C2D653A92E85C4300B403144B0C4D6EB 0xF7 CODECOPY EOFCREATE 0xB6 LOG1 0xC0 CHAINID PUSH5 0x736F6C6343 STOP ADDMOD 0x1E STOP CALLER "
				},
				"gasEstimates": {
					"creation": {
						"codeDepositCost": "1523400",
						"executionCost": "infinite",
						"totalCost": "infinite"
					},
					"external": {
						"getAllowedBondTokens()": "infinite",
						"getBondById(uint256)": "infinite",
						"getName()": "infinite",
						"getUserBond(uint8,address)": "infinite",
						"getVersion()": "377",
						"hasBond(uint8,address)": "3214",
						"placeBond(uint8,uint256,address)": "infinite",
						"releaseBond(uint256)": "infinite",
						"setAllowedBondTokens(address[])": "infinite"
					},
					"internal": {
						"addTx(enum TxType,enum ObjType,uint256,uint256,address)": "infinite",
						"getIndex()": "24370"
					}
				},
				"methodIdentifiers": {
					"getAllowedBondTokens()": "8a9dda05",
					"getBondById(uint256)": "9c271c50",
					"getName()": "17d7de7c",
					"getUserBond(uint8,address)": "012fe794",
					"getVersion()": "0d8e6e2c",
					"hasBond(uint8,address)": "ce862001",
					"placeBond(uint8,uint256,address)": "91857eec",
					"releaseBond(uint256)": "34706ecf",
					"setAllowedBondTokens(address[])": "04452b4f"
				}
			},
			"storageLayout": {
				"storage": [
					{
						"astId": 132,
						"contract": "contracts/core/treasury/MPBondManager.sol:BondManager",
						"label": "index",
						"offset": 0,
						"slot": "0",
						"type": "t_uint256"
					},
					{
						"astId": 135,
						"contract": "contracts/core/treasury/MPBondManager.sol:BondManager",
						"label": "bondIds",
						"offset": 0,
						"slot": "1",
						"type": "t_array(t_uint256)dyn_storage"
					},
					{
						"astId": 140,
						"contract": "contracts/core/treasury/MPBondManager.sol:BondManager",
						"label": "bondById",
						"offset": 0,
						"slot": "2",
						"type": "t_mapping(t_uint256,t_struct(SecurityBond)995_storage)"
					},
					{
						"astId": 147,
						"contract": "contracts/core/treasury/MPBondManager.sol:BondManager",
						"label": "bondIdByUserByBondType",
						"offset": 0,
						"slot": "3",
						"type": "t_mapping(t_enum(BondType)981,t_mapping(t_address,t_uint256))"
					},
					{
						"astId": 154,
						"contract": "contracts/core/treasury/MPBondManager.sol:BondManager",
						"label": "hasBondByUserByType",
						"offset": 0,
						"slot": "4",
						"type": "t_mapping(t_enum(BondType)981,t_mapping(t_address,t_bool))"
					},
					{
						"astId": 157,
						"contract": "contracts/core/treasury/MPBondManager.sol:BondManager",
						"label": "allowedBondTokens",
						"offset": 0,
						"slot": "5",
						"type": "t_array(t_address)dyn_storage"
					},
					{
						"astId": 161,
						"contract": "contracts/core/treasury/MPBondManager.sol:BondManager",
						"label": "isAllowedBondToken",
						"offset": 0,
						"slot": "6",
						"type": "t_mapping(t_address,t_bool)"
					},
					{
						"astId": 164,
						"contract": "contracts/core/treasury/MPBondManager.sol:BondManager",
						"label": "register",
						"offset": 0,
						"slot": "7",
						"type": "t_contract(IRegister)761"
					}
				],
				"types": {
					"t_address": {
						"encoding": "inplace",
						"label": "address",
						"numberOfBytes": "20"
					},
					"t_array(t_address)dyn_storage": {
						"base": "t_address",
						"encoding": "dynamic_array",
						"label": "address[]",
						"numberOfBytes": "32"
					},
					"t_array(t_uint256)dyn_storage": {
						"base": "t_uint256",
						"encoding": "dynamic_array",
						"label": "uint256[]",
						"numberOfBytes": "32"
					},
					"t_bool": {
						"encoding": "inplace",
						"label": "bool",
						"numberOfBytes": "1"
					},
					"t_contract(IRegister)761": {
						"encoding": "inplace",
						"label": "contract IRegister",
						"numberOfBytes": "20"
					},
					"t_enum(BondType)981": {
						"encoding": "inplace",
						"label": "enum BondType",
						"numberOfBytes": "1"
					},
					"t_mapping(t_address,t_bool)": {
						"encoding": "mapping",
						"key": "t_address",
						"label": "mapping(address => bool)",
						"numberOfBytes": "32",
						"value": "t_bool"
					},
					"t_mapping(t_address,t_uint256)": {
						"encoding": "mapping",
						"key": "t_address",
						"label": "mapping(address => uint256)",
						"numberOfBytes": "32",
						"value": "t_uint256"
					},
					"t_mapping(t_enum(BondType)981,t_mapping(t_address,t_bool))": {
						"encoding": "mapping",
						"key": "t_enum(BondType)981",
						"label": "mapping(enum BondType => mapping(address => bool))",
						"numberOfBytes": "32",
						"value": "t_mapping(t_address,t_bool)"
					},
					"t_mapping(t_enum(BondType)981,t_mapping(t_address,t_uint256))": {
						"encoding": "mapping",
						"key": "t_enum(BondType)981",
						"label": "mapping(enum BondType => mapping(address => uint256))",
						"numberOfBytes": "32",
						"value": "t_mapping(t_address,t_uint256)"
					},
					"t_mapping(t_uint256,t_struct(SecurityBond)995_storage)": {
						"encoding": "mapping",
						"key": "t_uint256",
						"label": "mapping(uint256 => struct SecurityBond)",
						"numberOfBytes": "32",
						"value": "t_struct(SecurityBond)995_storage"
					},
					"t_struct(SecurityBond)995_storage": {
						"encoding": "inplace",
						"label": "struct SecurityBond",
						"members": [
							{
								"astId": 983,
								"contract": "contracts/core/treasury/MPBondManager.sol:BondManager",
								"label": "id",
								"offset": 0,
								"slot": "0",
								"type": "t_uint256"
							},
							{
								"astId": 985,
								"contract": "contracts/core/treasury/MPBondManager.sol:BondManager",
								"label": "owner",
								"offset": 0,
								"slot": "1",
								"type": "t_address"
							},
							{
								"astId": 987,
								"contract": "contracts/core/treasury/MPBondManager.sol:BondManager",
								"label": "amount",
								"offset": 0,
								"slot": "2",
								"type": "t_uint256"
							},
							{
								"astId": 989,
								"contract": "contracts/core/treasury/MPBondManager.sol:BondManager",
								"label": "erc20",
								"offset": 0,
								"slot": "3",
								"type": "t_address"
							},
							{
								"astId": 991,
								"contract": "contracts/core/treasury/MPBondManager.sol:BondManager",
								"label": "created",
								"offset": 0,
								"slot": "4",
								"type": "t_uint256"
							},
							{
								"astId": 994,
								"contract": "contracts/core/treasury/MPBondManager.sol:BondManager",
								"label": "bType",
								"offset": 0,
								"slot": "5",
								"type": "t_enum(BondType)981"
							}
						],
						"numberOfBytes": "192"
					},
					"t_uint256": {
						"encoding": "inplace",
						"label": "uint256",
						"numberOfBytes": "32"
					}
				}
			},
			"userdoc": {
				"kind": "user",
				"methods": {},
				"version": 1
			}
		}
	}
}