{
	"data": {
		"bytecode": {
			"linkReferences": {},
			"object": "60a060405234801561000f575f5ffd5b5060405161527238038061527283398181016040528101906100319190610108565b805f5f6101000a81548173ffffffffffffffffffffffffffffffffffffffff021916908373ffffffffffffffffffffffffffffffffffffffff1602179055503073ffffffffffffffffffffffffffffffffffffffff1660808173ffffffffffffffffffffffffffffffffffffffff168152505050610133565b5f5ffd5b5f73ffffffffffffffffffffffffffffffffffffffff82169050919050565b5f6100d7826100ae565b9050919050565b6100e7816100cd565b81146100f1575f5ffd5b50565b5f81519050610102816100de565b92915050565b5f6020828403121561011d5761011c6100aa565b5b5f61012a848285016100f4565b91505092915050565b60805161512a6101485f395f505061512a5ff3fe608060405234801561000f575f5ffd5b5060043610610086575f3560e01c8063a39fac1211610059578063a39fac1214610114578063cde4c10c14610132578063ecd6372414610150578063f6f4a0131461018057610086565b80630d8e6e2c1461008a57806317d7de7c146100a857806324411a9d146100c65780639abbdf4b146100e4575b5f5ffd5b6100926101b0565b60405161009f9190610a92565b60405180910390f35b6100b06101b8565b6040516100bd9190610b1b565b60405180910390f35b6100ce6101f5565b6040516100db9190610a92565b60405180910390f35b6100fe60048036038101906100f99190610b69565b6101fd565b60405161010b9190610bd3565b60405180910390f35b61011c610496565b6040516101299190610ca3565b60405180910390f35b61013a61065b565b6040516101479190610cdd565b60405180910390f35b61016a60048036038101906101659190610d20565b6108a8565b6040516101779190610cdd565b60405180910390f35b61019a60048036038101906101959190610b69565b6108fa565b6040516101a79190610bd3565b60405180910390f35b5f6002905090565b60606040518060400160405280601981526020017f52455345525645445f4d505f5641554c545f464143544f525900000000000000815250905090565b5f6003905090565b5f5f5f9054906101000a900473ffffffffffffffffffffffffffffffffffffffff1673ffffffffffffffffffffffffffffffffffffffff1663bf40fac16040518060400160405280602081526020017f52455345525645445f4d4544414c4c494f4e5f50454e53494f4e535f434f52458152506040518263ffffffff1660e01b815260040161028c9190610b1b565b602060405180830381865afa1580156102a7573d5f5f3e3d5ffd5b505050506040513d601f19601f820116820180604052508101906102cb9190610d5f565b73ffffffffffffffffffffffffffffffffffffffff163373ffffffffffffffffffffffffffffffffffffffff1614610338576040517f08c379a000000000000000000000000000000000000000000000000000000000815260040161032f90610dd4565b60405180910390fd5b5f5f9054906101000a900473ffffffffffffffffffffffffffffffffffffffff168260405161036690610a6d565b610371929190610df2565b604051809103905ff08015801561038a573d5f5f3e3d5ffd5b509050600181908060018154018082558091505060019003905f5260205f20015f9091909190916101000a81548173ffffffffffffffffffffffffffffffffffffffff021916908373ffffffffffffffffffffffffffffffffffffffff160217905550600160025f8373ffffffffffffffffffffffffffffffffffffffff1673ffffffffffffffffffffffffffffffffffffffff1681526020019081526020015f205f6101000a81548160ff0219169083151502179055508060035f8481526020019081526020015f205f6101000a81548173ffffffffffffffffffffffffffffffffffffffff021916908373ffffffffffffffffffffffffffffffffffffffff160217905550919050565b60605f5f9054906101000a900473ffffffffffffffffffffffffffffffffffffffff1673ffffffffffffffffffffffffffffffffffffffff1663bf40fac16040518060400160405280601181526020017f52455345525645445f4d505f41444d494e0000000000000000000000000000008152506040518263ffffffff1660e01b81526004016105269190610b1b565b602060405180830381865afa158015610541573d5f5f3e3d5ffd5b505050506040513d601f19601f820116820180604052508101906105659190610d5f565b73ffffffffffffffffffffffffffffffffffffffff163373ffffffffffffffffffffffffffffffffffffffff16146105d2576040517f08c379a00000000000000000000000000000000000000000000000000000000081526004016105c990610e63565b60405180910390fd5b600180548060200260200160405190810160405280929190818152602001828054801561065157602002820191905f5260205f20905b815f9054906101000a900473ffffffffffffffffffffffffffffffffffffffff1673ffffffffffffffffffffffffffffffffffffffff1681526020019060010190808311610608575b5050505050905090565b5f5f5f9054906101000a900473ffffffffffffffffffffffffffffffffffffffff1673ffffffffffffffffffffffffffffffffffffffff1663bf40fac16040518060400160405280601181526020017f52455345525645445f4d505f41444d494e0000000000000000000000000000008152506040518263ffffffff1660e01b81526004016106ea9190610b1b565b602060405180830381865afa158015610705573d5f5f3e3d5ffd5b505050506040513d601f19601f820116820180604052508101906107299190610d5f565b73ffffffffffffffffffffffffffffffffffffffff163373ffffffffffffffffffffffffffffffffffffffff1614610796576040517f08c379a000000000000000000000000000000000000000000000000000000000815260040161078d90610e63565b60405180910390fd5b5f5f9054906101000a900473ffffffffffffffffffffffffffffffffffffffff1673ffffffffffffffffffffffffffffffffffffffff1663bf40fac16040518060400160405280601481526020017f52455345525645445f4d505f52454749535445520000000000000000000000008152506040518263ffffffff1660e01b81526004016108249190610b1b565b602060405180830381865afa15801561083f573d5f5f3e3d5ffd5b505050506040513d601f19601f820116820180604052508101906108639190610d5f565b5f5f6101000a81548173ffffffffffffffffffffffffffffffffffffffff021916908373ffffffffffffffffffffffffffffffffffffffff1602179055506001905090565b5f60025f8373ffffffffffffffffffffffffffffffffffffffff1673ffffffffffffffffffffffffffffffffffffffff1681526020019081526020015f205f9054906101000a900460ff169050919050565b5f5f5f9054906101000a900473ffffffffffffffffffffffffffffffffffffffff1673ffffffffffffffffffffffffffffffffffffffff1663bf40fac16040518060400160405280601181526020017f52455345525645445f4d505f41444d494e0000000000000000000000000000008152506040518263ffffffff1660e01b81526004016109899190610b1b565b602060405180830381865afa1580156109a4573d5f5f3e3d5ffd5b505050506040513d601f19601f820116820180604052508101906109c89190610d5f565b73ffffffffffffffffffffffffffffffffffffffff163373ffffffffffffffffffffffffffffffffffffffff1614610a35576040517f08c379a0000000000000000000000000000000000000000000000000000000008152600401610a2c90610e63565b60405180910390fd5b60035f8381526020019081526020015f205f9054906101000a900473ffffffffffffffffffffffffffffffffffffffff169050919050565b61427380610e8283390190565b5f819050919050565b610a8c81610a7a565b82525050565b5f602082019050610aa55f830184610a83565b92915050565b5f81519050919050565b5f82825260208201905092915050565b8281835e5f83830152505050565b5f601f19601f8301169050919050565b5f610aed82610aab565b610af78185610ab5565b9350610b07818560208601610ac5565b610b1081610ad3565b840191505092915050565b5f6020820190508181035f830152610b338184610ae3565b905092915050565b5f5ffd5b610b4881610a7a565b8114610b52575f5ffd5b50565b5f81359050610b6381610b3f565b92915050565b5f60208284031215610b7e57610b7d610b3b565b5b5f610b8b84828501610b55565b91505092915050565b5f73ffffffffffffffffffffffffffffffffffffffff82169050919050565b5f610bbd82610b94565b9050919050565b610bcd81610bb3565b82525050565b5f602082019050610be65f830184610bc4565b92915050565b5f81519050919050565b5f82825260208201905092915050565b5f819050602082019050919050565b610c1e81610bb3565b82525050565b5f610c2f8383610c15565b60208301905092915050565b5f602082019050919050565b5f610c5182610bec565b610c5b8185610bf6565b9350610c6683610c06565b805f5b83811015610c96578151610c7d8882610c24565b9750610c8883610c3b565b925050600181019050610c69565b5085935050505092915050565b5f6020820190508181035f830152610cbb8184610c47565b905092915050565b5f8115159050919050565b610cd781610cc3565b82525050565b5f602082019050610cf05f830184610cce565b92915050565b610cff81610bb3565b8114610d09575f5ffd5b50565b5f81359050610d1a81610cf6565b92915050565b5f60208284031215610d3557610d34610b3b565b5b5f610d4284828501610d0c565b91505092915050565b5f81519050610d5981610cf6565b92915050565b5f60208284031215610d7457610d73610b3b565b5b5f610d8184828501610d4b565b91505092915050565b7f6d6564616c696f6e2070656e73696f6e73206f6e6c79000000000000000000005f82015250565b5f610dbe601683610ab5565b9150610dc982610d8a565b602082019050919050565b5f6020820190508181035f830152610deb81610db2565b9050919050565b5f604082019050610e055f830185610bc4565b610e126020830184610a83565b9392505050565b7f6d6564616c696f6e207065656e73696f6e732061646d696e206f6e6c790000005f82015250565b5f610e4d601d83610ab5565b9150610e5882610e19565b602082019050919050565b5f6020820190508181035f830152610e7a81610e41565b905091905056fe60c06040525f5f5f6101000a81548160ff021916908315150217905550348015610027575f5ffd5b50604051614273380380614273833981810160405281019061004991906101af565b815f60036101000a81548173ffffffffffffffffffffffffffffffffffffffff021916908373ffffffffffffffffffffffffffffffffffffffff16021790555080608081815250505f5f60016101000a81548160ff021916908360038111156100b5576100b46101ed565b5b02179055505f5f60026101000a81548160ff021916908360028111156100de576100dd6101ed565b5b02179055503073ffffffffffffffffffffffffffffffffffffffff1660a08173ffffffffffffffffffffffffffffffffffffffff1681525050505061021a565b5f5ffd5b5f73ffffffffffffffffffffffffffffffffffffffff82169050919050565b5f61014b82610122565b9050919050565b61015b81610141565b8114610165575f5ffd5b50565b5f8151905061017681610152565b92915050565b5f819050919050565b61018e8161017c565b8114610198575f5ffd5b50565b5f815190506101a981610185565b92915050565b5f5f604083850312156101c5576101c461011e565b5b5f6101d285828601610168565b92505060206101e38582860161019b565b9150509250929050565b7f4e487b71000000000000000000000000000000000000000000000000000000005f52602160045260245ffd5b60805160a051613ff26102815f395f8181610726015281816107d5015281816110af015281816111520152818161164a01528181611a1b015261238301525f81816108db01528181610d4b01528181611712015281816120d301526122140152613ff25ff3fe6080604052600436106100dc575f3560e01c8063734880181161007e578063b8c8933811610058578063b8c89338146102af578063c1cbbca7146102eb578063cde4c10c1461031b578063e77ef21f14610345576100dc565b8063734880181461022b578063805275a2146102555780639f08c7551461027f576100dc565b806343d726d6116100ba57806343d726d61461015e5780634d0392a8146101885780634e69d560146101c557806351cff8d9146101ef576100dc565b80630d8e6e2c146100e057806312065fe01461010a57806317d7de7c14610134575b5f5ffd5b3480156100eb575f5ffd5b506100f461036f565b60405161010191906128b0565b60405180910390f35b348015610115575f5ffd5b5061011e610377565b60405161012b91906128b0565b60405180910390f35b34801561013f575f5ffd5b50610148610380565b6040516101559190612939565b60405180910390f35b348015610169575f5ffd5b506101726103bd565b60405161017f91906128b0565b60405180910390f35b348015610193575f5ffd5b506101ae60048036038101906101a99190612990565b610910565b6040516101bc9291906129bb565b60405180910390f35b3480156101d0575f5ffd5b506101d9610dcf565b6040516101e69190612a55565b60405180910390f35b3480156101fa575f5ffd5b5061021560048036038101906102109190612ac8565b610de4565b60405161022291906128b0565b60405180910390f35b348015610236575f5ffd5b5061023f611252565b60405161024c9190612dd9565b60405180910390f35b348015610260575f5ffd5b50610269611267565b6040516102769190612e73565b60405180910390f35b61029960048036038101906102949190612e8c565b6112c2565b6040516102a691906128b0565b60405180910390f35b3480156102ba575f5ffd5b506102d560048036038101906102d09190612990565b6117b6565b6040516102e29190612f84565b60405180910390f35b61030560048036038101906103009190612990565b61181d565b60405161031291906128b0565b60405180910390f35b348015610326575f5ffd5b5061032f611a90565b60405161033c9190612fb3565b60405180910390f35b348015610350575f5ffd5b50610359611ce0565b60405161036691906128b0565b60405180910390f35b5f6012905090565b5f600154905090565b60606040518060400160405280601781526020017f4d4544414c4c494f4e5f50454e53494f4e5f5641554c54000000000000000000815250905090565b5f5f60039054906101000a900473ffffffffffffffffffffffffffffffffffffffff1673ffffffffffffffffffffffffffffffffffffffff1663bf40fac16040518060400160405280601181526020017f52455345525645445f4d505f41444d494e0000000000000000000000000000008152506040518263ffffffff1660e01b815260040161044d9190612939565b602060405180830381865afa158015610468573d5f5f3e3d5ffd5b505050506040513d601f19601f8201168201806040525081019061048c9190612fe0565b73ffffffffffffffffffffffffffffffffffffffff163373ffffffffffffffffffffffffffffffffffffffff16146104f9576040517f08c379a00000000000000000000000000000000000000000000000000000000081526004016104f090613055565b60405180910390fd5b5f5f9054906101000a900460ff1615610547576040517f08c379a000000000000000000000000000000000000000000000000000000000815260040161053e906130bd565b60405180910390fd5b6002600381111561055b5761055a6129e2565b5b5f60019054906101000a900460ff16600381111561057c5761057b6129e2565b5b036105bc576040517f08c379a00000000000000000000000000000000000000000000000000000000081526004016105b390613125565b60405180910390fd5b5f6105c5612121565b9050600260038111156105db576105da6129e2565b5b5f60019054906101000a900460ff1660038111156105fc576105fb6129e2565b5b0361063c576040517f08c379a00000000000000000000000000000000000000000000000000000000081526004016106339061318d565b60405180910390fd5b60036004015f9054906101000a900460ff161561068e576040517f08c379a0000000000000000000000000000000000000000000000000000000008152600401610685906131f5565b60405180910390fd5b60015f5f6101000a81548160ff02191690831515021790555060025f60016101000a81548160ff021916908360038111156106cc576106cb6129e2565b5b02179055505f5f905073eeeeeeeeeeeeeeeeeeeeeeeeeeeeeeeeeeeeeeee73ffffffffffffffffffffffffffffffffffffffff168260c001516040015173ffffffffffffffffffffffffffffffffffffffff16036107ab577f000000000000000000000000000000000000000000000000000000000000000073ffffffffffffffffffffffffffffffffffffffff16319050816040015173ffffffffffffffffffffffffffffffffffffffff166108fc8290811502906040515f60405180830381858888f193505050501580156107a5573d5f5f3e3d5ffd5b506108d3565b5f8260c001516040015190508073ffffffffffffffffffffffffffffffffffffffff166370a082317f00000000000000000000000000000000000000000000000000000000000000006040518263ffffffff1660e01b81526004016108109190613222565b602060405180830381865afa15801561082b573d5f5f3e3d5ffd5b505050506040513d601f19601f8201168201806040525081019061084f919061324f565b91508073ffffffffffffffffffffffffffffffffffffffff1663a9059cbb8460400151846040518363ffffffff1660e01b815260040161089092919061327a565b6020604051808303815f875af11580156108ac573d5f5f3e3d5ffd5b505050506040513d601f19601f820116820180604052508101906108d091906132cb565b50505b61090960075f7f0000000000000000000000000000000000000000000000000000000000000000848660c0015160400151612294565b9250505090565b5f5f5f5f9054906101000a900460ff1615610960576040517f08c379a0000000000000000000000000000000000000000000000000000000008152600401610957906130bd565b60405180910390fd5b60026003811115610974576109736129e2565b5b5f60019054906101000a900460ff166003811115610995576109946129e2565b5b036109d5576040517f08c379a00000000000000000000000000000000000000000000000000000000081526004016109cc90613125565b60405180910390fd5b5f60039054906101000a900473ffffffffffffffffffffffffffffffffffffffff1673ffffffffffffffffffffffffffffffffffffffff1663bf40fac16040518060400160405280601481526020017f52455345525645445f4d505f54524541535552590000000000000000000000008152506040518263ffffffff1660e01b8152600401610a649190612939565b602060405180830381865afa158015610a7f573d5f5f3e3d5ffd5b505050506040513d601f19601f82011682018060405250810190610aa39190612fe0565b73ffffffffffffffffffffffffffffffffffffffff163373ffffffffffffffffffffffffffffffffffffffff1614610b10576040517f08c379a0000000000000000000000000000000000000000000000000000000008152600401610b0790613340565b60405180910390fd5b5f610b19612121565b90505f6003811115610b2e57610b2d6129e2565b5b5f60019054906101000a900460ff166003811115610b4f57610b4e6129e2565b5b14610b8f576040517f08c379a0000000000000000000000000000000000000000000000000000000008152600401610b86906133a8565b60405180910390fd5b60015f5f6101000a81548160ff02191690831515021790555060036004015f9054906101000a900460ff1615610bfa576040517f08c379a0000000000000000000000000000000000000000000000000000000008152600401610bf190613410565b60405180910390fd5b600160036004015f6101000a81548160ff02191690831515021790555060015492508260038001819055505f8160c0015160400151905073eeeeeeeeeeeeeeeeeeeeeeeeeeeeeeeeeeeeeeee73ffffffffffffffffffffffffffffffffffffffff168173ffffffffffffffffffffffffffffffffffffffff1603610cc1573373ffffffffffffffffffffffffffffffffffffffff166108fc8590811502906040515f60405180830381858888f19350505050158015610cbb573d5f5f3e3d5ffd5b50610d43565b5f8190508073ffffffffffffffffffffffffffffffffffffffff1663095ea7b333876040518363ffffffff1660e01b8152600401610d0092919061327a565b6020604051808303815f875af1158015610d1c573d5f5f3e3d5ffd5b505050506040513d601f19601f82011682018060405250810190610d4091906132cb565b50505b610d7960035f7f0000000000000000000000000000000000000000000000000000000000000000878660c0015160400151612294565b925060085f8681526020019081526020015f2083908060018154018082558091505060019003905f5260205f20015f90919091909150555f5f5f6101000a81548160ff0219169083151502179055505050915091565b5f5f60019054906101000a900460ff16905090565b5f5f60039054906101000a900473ffffffffffffffffffffffffffffffffffffffff1673ffffffffffffffffffffffffffffffffffffffff1663bf40fac16040518060400160405280601181526020017f52455345525645445f4d505f41444d494e0000000000000000000000000000008152506040518263ffffffff1660e01b8152600401610e749190612939565b602060405180830381865afa158015610e8f573d5f5f3e3d5ffd5b505050506040513d601f19601f82011682018060405250810190610eb39190612fe0565b73ffffffffffffffffffffffffffffffffffffffff163373ffffffffffffffffffffffffffffffffffffffff1614610f20576040517f08c379a0000000000000000000000000000000000000000000000000000000008152600401610f1790613055565b60405180910390fd5b60026003811115610f3457610f336129e2565b5b5f60019054906101000a900460ff166003811115610f5557610f546129e2565b5b14610f95576040517f08c379a0000000000000000000000000000000000000000000000000000000008152600401610f8c90613478565b60405180910390fd5b5f5f60039054906101000a900473ffffffffffffffffffffffffffffffffffffffff1673ffffffffffffffffffffffffffffffffffffffff1663bf40fac16040518060400160405280601081526020017f52455345525645445f4d505f42414e4b000000000000000000000000000000008152506040518263ffffffff1660e01b81526004016110259190612939565b602060405180830381865afa158015611040573d5f5f3e3d5ffd5b505050506040513d601f19601f820116820180604052508101906110649190612fe0565b905073eeeeeeeeeeeeeeeeeeeeeeeeeeeeeeeeeeeeeeee73ffffffffffffffffffffffffffffffffffffffff168373ffffffffffffffffffffffffffffffffffffffff1603611130577f000000000000000000000000000000000000000000000000000000000000000073ffffffffffffffffffffffffffffffffffffffff163191508073ffffffffffffffffffffffffffffffffffffffff166108fc8390811502906040515f60405180830381858888f1935050505015801561112a573d5f5f3e3d5ffd5b5061124c565b5f8390508073ffffffffffffffffffffffffffffffffffffffff166370a082317f00000000000000000000000000000000000000000000000000000000000000006040518263ffffffff1660e01b815260040161118d9190613222565b602060405180830381865afa1580156111a8573d5f5f3e3d5ffd5b505050506040513d601f19601f820116820180604052508101906111cc919061324f565b92508073ffffffffffffffffffffffffffffffffffffffff1663a9059cbb83856040518363ffffffff1660e01b815260040161120992919061327a565b6020604051808303815f875af1158015611225573d5f5f3e3d5ffd5b505050506040513d601f19601f8201168201806040525081019061124991906132cb565b50505b50919050565b61125a6126e5565b611262612121565b905090565b61126f612764565b60036040518060a00160405290815f8201548152602001600182015481526020016002820154815260200160038201548152602001600482015f9054906101000a900460ff161515151581525050905090565b5f5f5f9054906101000a900460ff1615611311576040517f08c379a0000000000000000000000000000000000000000000000000000000008152600401611308906130bd565b60405180910390fd5b60026003811115611325576113246129e2565b5b5f60019054906101000a900460ff166003811115611346576113456129e2565b5b03611386576040517f08c379a000000000000000000000000000000000000000000000000000000000815260040161137d90613125565b60405180910390fd5b5f60039054906101000a900473ffffffffffffffffffffffffffffffffffffffff1673ffffffffffffffffffffffffffffffffffffffff1663bf40fac16040518060400160405280601481526020017f52455345525645445f4d505f54524541535552590000000000000000000000008152506040518263ffffffff1660e01b81526004016114159190612939565b602060405180830381865afa158015611430573d5f5f3e3d5ffd5b505050506040513d601f19601f820116820180604052508101906114549190612fe0565b73ffffffffffffffffffffffffffffffffffffffff163373ffffffffffffffffffffffffffffffffffffffff16146114c1576040517f08c379a00000000000000000000000000000000000000000000000000000000081526004016114b890613340565b60405180910390fd5b60015f5f6101000a81548160ff0219169083151502179055505f6114e3612121565b9050600380015484101561152c576040517f08c379a0000000000000000000000000000000000000000000000000000000008152600401611523906134e0565b60405180910390fd5b5f8385611539919061352b565b905060036004015f9054906101000a900460ff1661158c576040517f08c379a0000000000000000000000000000000000000000000000000000000008152600401611583906135a8565b60405180910390fd5b5f8260c0015160400151905073eeeeeeeeeeeeeeeeeeeeeeeeeeeeeeeeeeeeeeee73ffffffffffffffffffffffffffffffffffffffff168173ffffffffffffffffffffffffffffffffffffffff16036116275781341015611622576040517f08c379a000000000000000000000000000000000000000000000000000000000815260040161161990613610565b60405180910390fd5b6116cb565b5f8190508073ffffffffffffffffffffffffffffffffffffffff166323b872dd337f0000000000000000000000000000000000000000000000000000000000000000866040518463ffffffff1660e01b81526004016116889392919061362e565b6020604051808303815f875af11580156116a4573d5f5f3e3d5ffd5b505050506040513d601f19601f820116820180604052508101906116c891906132cb565b50505b5f60038001546001546116de9190613663565b9050856003800154826116f1919061352b565b6116fb919061352b565b60018190555061170a84612410565b61174060015f7f0000000000000000000000000000000000000000000000000000000000000000868860c0015160400151612294565b945060085f8981526020019081526020015f2085908060018154018082558091505060019003905f5260205f20015f90919091909150555f60036004015f6101000a81548160ff0219169083151502179055505f5f5f6101000a81548160ff021916908315150217905550505050509392505050565b606060085f8381526020019081526020015f2080548060200260200160405190810160405280929190818152602001828054801561181157602002820191905f5260205f20905b8154815260200190600101908083116117fd575b50505050509050919050565b5f60015f5f6101000a81548160ff02191690831515021790555042600360010154111561187f576040517f08c379a000000000000000000000000000000000000000000000000000000000815260040161187690613706565b60405180910390fd5b60016002811115611893576118926129e2565b5b5f60029054906101000a900460ff1660028111156118b4576118b36129e2565b5b036118f4576040517f08c379a00000000000000000000000000000000000000000000000000000000081526004016118eb9061376e565b60405180910390fd5b5f6003811115611907576119066129e2565b5b5f60019054906101000a900460ff166003811115611928576119276129e2565b5b14611968576040517f08c379a000000000000000000000000000000000000000000000000000000000815260040161195f906137d6565b60405180910390fd5b5f611971612121565b90506119878160c0015160e001515f015161247d565b60036001015f82825461199a919061352b565b925050819055508060c0015160e001516040015183101580156119c957508060c0015160e00151606001518311155b611a08576040517f08c379a00000000000000000000000000000000000000000000000000000000081526004016119ff90613864565b60405180910390fd5b5f8160c00151604001519050611a3f81857f000000000000000000000000000000000000000000000000000000000000000061256c565b508360015f828254611a51919061352b565b9250508190555060035f015f815480929190611a6c90613882565b91905055505f5f5f6101000a81548160ff0219169083151502179055505050919050565b5f5f60039054906101000a900473ffffffffffffffffffffffffffffffffffffffff1673ffffffffffffffffffffffffffffffffffffffff1663bf40fac16040518060400160405280601181526020017f52455345525645445f4d505f41444d494e0000000000000000000000000000008152506040518263ffffffff1660e01b8152600401611b209190612939565b602060405180830381865afa158015611b3b573d5f5f3e3d5ffd5b505050506040513d601f19601f82011682018060405250810190611b5f9190612fe0565b73ffffffffffffffffffffffffffffffffffffffff163373ffffffffffffffffffffffffffffffffffffffff1614611bcc576040517f08c379a0000000000000000000000000000000000000000000000000000000008152600401611bc390613055565b60405180910390fd5b5f60039054906101000a900473ffffffffffffffffffffffffffffffffffffffff1673ffffffffffffffffffffffffffffffffffffffff1663bf40fac16040518060400160405280601481526020017f52455345525645445f4d505f52454749535445520000000000000000000000008152506040518263ffffffff1660e01b8152600401611c5b9190612939565b602060405180830381865afa158015611c76573d5f5f3e3d5ffd5b505050506040513d601f19601f82011682018060405250810190611c9a9190612fe0565b5f60036101000a81548173ffffffffffffffffffffffffffffffffffffffff021916908373ffffffffffffffffffffffffffffffffffffffff1602179055506001905090565b5f611ce9612121565b6040015173ffffffffffffffffffffffffffffffffffffffff163373ffffffffffffffffffffffffffffffffffffffff1614611d5a576040517f08c379a0000000000000000000000000000000000000000000000000000000008152600401611d5190613913565b60405180910390fd5b5f5f9054906101000a900460ff1615611da8576040517f08c379a0000000000000000000000000000000000000000000000000000000008152600401611d9f906130bd565b60405180910390fd5b60026003811115611dbc57611dbb6129e2565b5b5f60019054906101000a900460ff166003811115611ddd57611ddc6129e2565b5b03611e1d576040517f08c379a0000000000000000000000000000000000000000000000000000000008152600401611e1490613125565b60405180910390fd5b5f611e26612121565b905060015f5f6101000a81548160ff02191690831515021790555060016003811115611e5557611e546129e2565b5b5f60019054906101000a900460ff166003811115611e7657611e756129e2565b5b14611eb6576040517f08c379a0000000000000000000000000000000000000000000000000000000008152600401611ead9061397b565b60405180910390fd5b600280811115611ec957611ec86129e2565b5b5f60029054906101000a900460ff166002811115611eea57611ee96129e2565b5b03611f2a576040517f08c379a0000000000000000000000000000000000000000000000000000000008152600401611f21906139e3565b60405180910390fd5b5f8160c001516101000151604001519050806001541015611f80576040517f08c379a0000000000000000000000000000000000000000000000000000000008152600401611f7790613a4b565b60405180910390fd5b5f826040015190508160015f828254611f999190613663565b9250508190555073eeeeeeeeeeeeeeeeeeeeeeeeeeeeeeeeeeeeeeee73ffffffffffffffffffffffffffffffffffffffff168360c001516040015173ffffffffffffffffffffffffffffffffffffffff1603612038578073ffffffffffffffffffffffffffffffffffffffff166108fc8390811502906040515f60405180830381858888f19350505050158015612032573d5f5f3e3d5ffd5b506120c2565b5f8360c001516040015190508073ffffffffffffffffffffffffffffffffffffffff1663a9059cbb83856040518363ffffffff1660e01b815260040161207f92919061327a565b6020604051808303815f875af115801561209b573d5f5f3e3d5ffd5b505050506040513d601f19601f820116820180604052508101906120bf91906132cb565b50505b6120cb836126a1565b61210160025f7f0000000000000000000000000000000000000000000000000000000000000000858760c0015160400151612294565b93505f5f5f6101000a81548160ff02191690831515021790555050505090565b6121296126e5565b5f60039054906101000a900473ffffffffffffffffffffffffffffffffffffffff1673ffffffffffffffffffffffffffffffffffffffff1663bf40fac16040518060400160405280602081526020017f52455345525645445f4d4544414c4c494f4e5f50454e53494f4e535f434f52458152506040518263ffffffff1660e01b81526004016121b89190612939565b602060405180830381865afa1580156121d3573d5f5f3e3d5ffd5b505050506040513d601f19601f820116820180604052508101906121f79190612fe0565b73ffffffffffffffffffffffffffffffffffffffff166377bdfdf27f00000000000000000000000000000000000000000000000000000000000000006040518263ffffffff1660e01b815260040161224f91906128b0565b6103c060405180830381865afa15801561226b573d5f5f3e3d5ffd5b505050506040513d601f19601f8201168201806040525081019061228f9190613dfc565b905090565b5f5f60039054906101000a900473ffffffffffffffffffffffffffffffffffffffff1673ffffffffffffffffffffffffffffffffffffffff1663bf40fac16040518060400160405280601681526020017f52455345525645445f4d505f54585f4d414e41474552000000000000000000008152506040518263ffffffff1660e01b81526004016123249190612939565b602060405180830381865afa15801561233f573d5f5f3e3d5ffd5b505050506040513d601f19601f820116820180604052508101906123639190612fe0565b73ffffffffffffffffffffffffffffffffffffffff1663ee16e6398787877f000000000000000000000000000000000000000000000000000000000000000088886040518763ffffffff1660e01b81526004016123c596959493929190613eb4565b6020604051808303815f875af11580156123e1573d5f5f3e3d5ffd5b505050506040513d601f19601f82011682018060405250810190612405919061324f565b905095945050505050565b8060c0015160e0015160a001516001541061247a5760015f60026101000a81548160ff0219169083600281111561244a576124496129e2565b5b021790555060015f60016101000a81548160ff02191690836003811115612474576124736129e2565b5b02179055505b50565b5f6201518090505f6003811115612497576124966129e2565b5b8260038111156124aa576124a96129e2565b5b0315612567576007816124bd9190613f13565b9050600160038111156124d3576124d26129e2565b5b8260038111156124e6576124e56129e2565b5b0315612567576004816124f99190613f13565b90506002600381111561250f5761250e6129e2565b5b826003811115612522576125216129e2565b5b0315612567576003816125359190613f13565b905060038081111561254a576125496129e2565b5b82600381111561255d5761255c6129e2565b5b0315612567575f90505b919050565b5f73eeeeeeeeeeeeeeeeeeeeeeeeeeeeeeeeeeeeeeee73ffffffffffffffffffffffffffffffffffffffff168473ffffffffffffffffffffffffffffffffffffffff16036125fc57823410156125f7576040517f08c379a00000000000000000000000000000000000000000000000000000000081526004016125ee90613f9e565b60405180910390fd5b612680565b5f8490508073ffffffffffffffffffffffffffffffffffffffff166323b872dd3385876040518463ffffffff1660e01b815260040161263d9392919061362e565b6020604051808303815f875af1158015612659573d5f5f3e3d5ffd5b505050506040513d601f19601f8201168201806040525081019061267d91906132cb565b50505b8173ffffffffffffffffffffffffffffffffffffffff163190509392505050565b8060c00151610100015160a00151600254106126e25760025f60026101000a81548160ff021916908360028111156126dc576126db6129e2565b5b02179055505b50565b6040518060e001604052805f81526020015f73ffffffffffffffffffffffffffffffffffffffff1681526020015f73ffffffffffffffffffffffffffffffffffffffff1681526020015f73ffffffffffffffffffffffffffffffffffffffff1681526020015f81526020015f815260200161275e612790565b81525090565b6040518060a001604052805f81526020015f81526020015f81526020015f81526020015f151581525090565b604051806101a001604052805f81526020015f73ffffffffffffffffffffffffffffffffffffffff1681526020015f73ffffffffffffffffffffffffffffffffffffffff1681526020015f81526020015f81526020015f81526020015f60028111156127ff576127fe6129e2565b5b815260200161280c61283e565b815260200161281961283e565b8152602001612826612880565b81526020015f81526020015f81526020015f81525090565b6040518060c001604052805f600381111561285c5761285b6129e2565b5b81526020015f81526020015f81526020015f81526020015f81526020015f81525090565b60405180604001604052805f81526020015f81525090565b5f819050919050565b6128aa81612898565b82525050565b5f6020820190506128c35f8301846128a1565b92915050565b5f81519050919050565b5f82825260208201905092915050565b8281835e5f83830152505050565b5f601f19601f8301169050919050565b5f61290b826128c9565b61291581856128d3565b93506129258185602086016128e3565b61292e816128f1565b840191505092915050565b5f6020820190508181035f8301526129518184612901565b905092915050565b5f604051905090565b5f5ffd5b61296f81612898565b8114612979575f5ffd5b50565b5f8135905061298a81612966565b92915050565b5f602082840312156129a5576129a4612962565b5b5f6129b28482850161297c565b91505092915050565b5f6040820190506129ce5f8301856128a1565b6129db60208301846128a1565b9392505050565b7f4e487b71000000000000000000000000000000000000000000000000000000005f52602160045260245ffd5b60048110612a2057612a1f6129e2565b5b50565b5f819050612a3082612a0f565b919050565b5f612a3f82612a23565b9050919050565b612a4f81612a35565b82525050565b5f602082019050612a685f830184612a46565b92915050565b5f73ffffffffffffffffffffffffffffffffffffffff82169050919050565b5f612a9782612a6e565b9050919050565b612aa781612a8d565b8114612ab1575f5ffd5b50565b5f81359050612ac281612a9e565b92915050565b5f60208284031215612add57612adc612962565b5b5f612aea84828501612ab4565b91505092915050565b612afc81612898565b82525050565b612b0b81612a8d565b82525050565b60038110612b2257612b216129e2565b5b50565b5f819050612b3282612b11565b919050565b5f612b4182612b25565b9050919050565b612b5181612b37565b82525050565b60048110612b6857612b676129e2565b5b50565b5f819050612b7882612b57565b919050565b5f612b8782612b6b565b9050919050565b612b9781612b7d565b82525050565b60c082015f820151612bb15f850182612b8e565b506020820151612bc46020850182612af3565b506040820151612bd76040850182612af3565b506060820151612bea6060850182612af3565b506080820151612bfd6080850182612af3565b5060a0820151612c1060a0850182612af3565b50505050565b604082015f820151612c2a5f850182612af3565b506020820151612c3d6020850182612af3565b50505050565b61030082015f820151612c585f850182612af3565b506020820151612c6b6020850182612b02565b506040820151612c7e6040850182612b02565b506060820151612c916060850182612af3565b506080820151612ca46080850182612af3565b5060a0820151612cb760a0850182612af3565b5060c0820151612cca60c0850182612b48565b5060e0820151612cdd60e0850182612b9d565b50610100820151612cf26101a0850182612b9d565b50610120820151612d07610260850182612c16565b50610140820151612d1c6102a0850182612af3565b50610160820151612d316102c0850182612af3565b50610180820151612d466102e0850182612af3565b50505050565b6103c082015f820151612d615f850182612af3565b506020820151612d746020850182612b02565b506040820151612d876040850182612b02565b506060820151612d9a6060850182612b02565b506080820151612dad6080850182612af3565b5060a0820151612dc060a0850182612af3565b5060c0820151612dd360c0850182612c43565b50505050565b5f6103c082019050612ded5f830184612d4c565b92915050565b5f8115159050919050565b612e0781612df3565b82525050565b60a082015f820151612e215f850182612af3565b506020820151612e346020850182612af3565b506040820151612e476040850182612af3565b506060820151612e5a6060850182612af3565b506080820151612e6d6080850182612dfe565b50505050565b5f60a082019050612e865f830184612e0d565b92915050565b5f5f5f60608486031215612ea357612ea2612962565b5b5f612eb08682870161297c565b9350506020612ec18682870161297c565b9250506040612ed28682870161297c565b9150509250925092565b5f81519050919050565b5f82825260208201905092915050565b5f819050602082019050919050565b5f612f108383612af3565b60208301905092915050565b5f602082019050919050565b5f612f3282612edc565b612f3c8185612ee6565b9350612f4783612ef6565b805f5b83811015612f77578151612f5e8882612f05565b9750612f6983612f1c565b925050600181019050612f4a565b5085935050505092915050565b5f6020820190508181035f830152612f9c8184612f28565b905092915050565b612fad81612df3565b82525050565b5f602082019050612fc65f830184612fa4565b92915050565b5f81519050612fda81612a9e565b92915050565b5f60208284031215612ff557612ff4612962565b5b5f61300284828501612fcc565b91505092915050565b7f50656e73696f6e2041646d696e204f6e6c7900000000000000000000000000005f82015250565b5f61303f6012836128d3565b915061304a8261300b565b602082019050919050565b5f6020820190508181035f83015261306c81613033565b9050919050565b7f7661756c74206c6f636b656400000000000000000000000000000000000000005f82015250565b5f6130a7600c836128d3565b91506130b282613073565b602082019050919050565b5f6020820190508181035f8301526130d48161309b565b9050919050565b7f7661756c7420636c6f73656400000000000000000000000000000000000000005f82015250565b5f61310f600c836128d3565b915061311a826130db565b602082019050919050565b5f6020820190508181035f83015261313c81613103565b9050919050565b7f70656e73696f6e20636c6f7365640000000000000000000000000000000000005f82015250565b5f613177600e836128d3565b915061318282613143565b602082019050919050565b5f6020820190508181035f8301526131a48161316b565b9050919050565b7f70656e73696f6e20696e207472656173757279000000000000000000000000005f82015250565b5f6131df6013836128d3565b91506131ea826131ab565b602082019050919050565b5f6020820190508181035f83015261320c816131d3565b9050919050565b61321c81612a8d565b82525050565b5f6020820190506132355f830184613213565b92915050565b5f8151905061324981612966565b92915050565b5f6020828403121561326457613263612962565b5b5f6132718482850161323b565b91505092915050565b5f60408201905061328d5f830185613213565b61329a60208301846128a1565b9392505050565b6132aa81612df3565b81146132b4575f5ffd5b50565b5f815190506132c5816132a1565b92915050565b5f602082840312156132e0576132df612962565b5b5f6132ed848285016132b7565b91505092915050565b7f5472656173757279204f6e6c79000000000000000000000000000000000000005f82015250565b5f61332a600d836128d3565b9150613335826132f6565b602082019050919050565b5f6020820190508181035f8301526133578161331e565b9050919050565b7f696e76616c69642070656e73696f6e2070756c6c2073746174650000000000005f82015250565b5f613392601a836128d3565b915061339d8261335e565b602082019050919050565b5f6020820190508181035f8301526133bf81613386565b9050919050565b7f7661756c7420616c72656164792070756c6c65640000000000000000000000005f82015250565b5f6133fa6014836128d3565b9150613405826133c6565b602082019050919050565b5f6020820190508181035f830152613427816133ee565b9050919050565b7f70656e73696f6e206e6f7420636c6f73656400000000000000000000000000005f82015250565b5f6134626012836128d3565b915061346d8261342e565b602082019050919050565b5f6020820190508181035f83015261348f81613456565b9050919050565b7f696e73756666696369656e74207072696e636970616c2072657475726e6564005f82015250565b5f6134ca601f836128d3565b91506134d582613496565b602082019050919050565b5f6020820190508181035f8301526134f7816134be565b9050919050565b7f4e487b71000000000000000000000000000000000000000000000000000000005f52601160045260245ffd5b5f61353582612898565b915061354083612898565b9250828201905080821115613558576135576134fe565b5b92915050565b7f7661756c74206e6f742070756c6c6564000000000000000000000000000000005f82015250565b5f6135926010836128d3565b915061359d8261355e565b602082019050919050565b5f6020820190508181035f8301526135bf81613586565b9050919050565b7f696e7375666669656e74207472616e736d69747465642076616c7565000000005f82015250565b5f6135fa601c836128d3565b9150613605826135c6565b602082019050919050565b5f6020820190508181035f830152613627816135ee565b9050919050565b5f6060820190506136415f830186613213565b61364e6020830185613213565b61365b60408301846128a1565b949350505050565b5f61366d82612898565b915061367883612898565b92508282039050818111156136905761368f6134fe565b5b92915050565b7f636f6e747269627574696f6e7320746f6f206672657175656e742077616974205f8201527f7265717569726564200000000000000000000000000000000000000000000000602082015250565b5f6136f06029836128d3565b91506136fb82613696565b604082019050919050565b5f6020820190508181035f83015261371d816136e4565b9050919050565b7f70656e73696f6e206d61747572656400000000000000000000000000000000005f82015250565b5f613758600f836128d3565b915061376382613724565b602082019050919050565b5f6020820190508181035f8301526137858161374c565b9050919050565b7f70656e73696f6e206e6f74206f70656e000000000000000000000000000000005f82015250565b5f6137c06010836128d3565b91506137cb8261378c565b602082019050919050565b5f6020820190508181035f8301526137ed816137b4565b9050919050565b7f696e76616c696420636f6e747269627574696f6e2065697468657220726169735f8201527f65206f72206c6f77657220616d6f756e74000000000000000000000000000000602082015250565b5f61384e6031836128d3565b9150613859826137f4565b604082019050919050565b5f6020820190508181035f83015261387b81613842565b9050919050565b5f61388c82612898565b91507fffffffffffffffffffffffffffffffffffffffffffffffffffffffffffffffff82036138be576138bd6134fe565b5b600182019050919050565b7f6f776e6572206f6e6c79000000000000000000000000000000000000000000005f82015250565b5f6138fd600a836128d3565b9150613908826138c9565b602082019050919050565b5f6020820190508181035f83015261392a816138f1565b9050919050565b7f696e76616c69642070656e73696f6e20737461747573000000000000000000005f82015250565b5f6139656016836128d3565b915061397082613931565b602082019050919050565b5f6020820190508181035f83015261399281613959565b9050919050565b7f70656e73696f6e20736574746c656400000000000000000000000000000000005f82015250565b5f6139cd600f836128d3565b91506139d882613999565b602082019050919050565b5f6020820190508181035f8301526139fa816139c1565b9050919050565b7f696e73756666696369656e7420656d6d697373696f6e2062616c616e636500005f82015250565b5f613a35601e836128d3565b9150613a4082613a01565b602082019050919050565b5f6020820190508181035f830152613a6281613a29565b9050919050565b5f5ffd5b7f4e487b71000000000000000000000000000000000000000000000000000000005f52604160045260245ffd5b613aa3826128f1565b810181811067ffffffffffffffff82111715613ac257613ac1613a6d565b5b80604052505050565b5f613ad4612959565b9050613ae08282613a9a565b919050565b60038110613af1575f5ffd5b50565b5f81519050613b0281613ae5565b92915050565b60048110613b14575f5ffd5b50565b5f81519050613b2581613b08565b92915050565b5f60c08284031215613b4057613b3f613a69565b5b613b4a60c0613acb565b90505f613b5984828501613b17565b5f830152506020613b6c8482850161323b565b6020830152506040613b808482850161323b565b6040830152506060613b948482850161323b565b6060830152506080613ba88482850161323b565b60808301525060a0613bbc8482850161323b565b60a08301525092915050565b5f60408284031215613bdd57613bdc613a69565b5b613be76040613acb565b90505f613bf68482850161323b565b5f830152506020613c098482850161323b565b60208301525092915050565b5f6103008284031215613c2b57613c2a613a69565b5b613c366101a0613acb565b90505f613c458482850161323b565b5f830152506020613c5884828501612fcc565b6020830152506040613c6c84828501612fcc565b6040830152506060613c808482850161323b565b6060830152506080613c948482850161323b565b60808301525060a0613ca88482850161323b565b60a08301525060c0613cbc84828501613af4565b60c08301525060e0613cd084828501613b2b565b60e0830152506101a0613ce584828501613b2b565b61010083015250610260613cfb84828501613bc8565b610120830152506102a0613d118482850161323b565b610140830152506102c0613d278482850161323b565b610160830152506102e0613d3d8482850161323b565b6101808301525092915050565b5f6103c08284031215613d6057613d5f613a69565b5b613d6a60e0613acb565b90505f613d798482850161323b565b5f830152506020613d8c84828501612fcc565b6020830152506040613da084828501612fcc565b6040830152506060613db484828501612fcc565b6060830152506080613dc88482850161323b565b60808301525060a0613ddc8482850161323b565b60a08301525060c0613df084828501613c15565b60c08301525092915050565b5f6103c08284031215613e1257613e11612962565b5b5f613e1f84828501613d4a565b91505092915050565b600a8110613e3957613e386129e2565b5b50565b5f819050613e4982613e28565b919050565b5f613e5882613e3c565b9050919050565b613e6881613e4e565b82525050565b60068110613e7f57613e7e6129e2565b5b50565b5f819050613e8f82613e6e565b919050565b5f613e9e82613e82565b9050919050565b613eae81613e94565b82525050565b5f60c082019050613ec75f830189613e5f565b613ed46020830188613ea5565b613ee160408301876128a1565b613eee6060830186613213565b613efb60808301856128a1565b613f0860a0830184613213565b979650505050505050565b5f613f1d82612898565b9150613f2883612898565b9250828202613f3681612898565b91508282048414831517613f4d57613f4c6134fe565b5b5092915050565b7f636f6e747269627574696f6e206d69732d6d61746368000000000000000000005f82015250565b5f613f886016836128d3565b9150613f9382613f54565b602082019050919050565b5f6020820190508181035f830152613fb581613f7c565b905091905056fea26469706673582212201b5ee906dfaac17a2a3bb3f53fd6210446c9a95524b534225d87668ff6e5315a64736f6c634300081e0033a264697066735822122001a7770e7c4cc032484ff46d27bb809352ed60a9bfbde3fcd12e9a8a689efda464736f6c634300081e0033",
			"opcodes": "PUSH1 0xA0 PUSH1 0x40 MSTORE CALLVALUE DUP1 ISZERO PUSH2 0xF JUMPI PUSH0 PUSH0 REVERT JUMPDEST POP PUSH1 0x40 MLOAD PUSH2 0x5272 CODESIZE SUB DUP1 PUSH2 0x5272 DUP4 CODECOPY DUP2 DUP2 ADD PUSH1 0x40 MSTORE DUP2 ADD SWAP1 PUSH2 0x31 SWAP2 SWAP1 PUSH2 0x108 JUMP JUMPDEST DUP1 PUSH0 PUSH0 PUSH2 0x100 EXP DUP2 SLOAD DUP2 PUSH20 0xFFFFFFFFFFFFFFFFFFFFFFFFFFFFFFFFFFFFFFFF MUL NOT AND SWAP1 DUP4 PUSH20 0xFFFFFFFFFFFFFFFFFFFFFFFFFFFFFFFFFFFFFFFF AND MUL OR SWAP1 SSTORE POP ADDRESS PUSH20 0xFFFFFFFFFFFFFFFFFFFFFFFFFFFFFFFFFFFFFFFF AND PUSH1 0x80 DUP2 PUSH20 0xFFFFFFFFFFFFFFFFFFFFFFFFFFFFFFFFFFFFFFFF AND DUP2 MSTORE POP POP POP PUSH2 0x133 JUMP JUMPDEST PUSH0 PUSH0 REVERT JUMPDEST PUSH0 PUSH20 0xFFFFFFFFFFFFFFFFFFFFFFFFFFFFFFFFFFFFFFFF DUP3 AND SWAP1 POP SWAP2 SWAP1 POP JUMP JUMPDEST PUSH0 PUSH2 0xD7 DUP3 PUSH2 0xAE JUMP JUMPDEST SWAP1 POP SWAP2 SWAP1 POP JUMP JUMPDEST PUSH2 0xE7 DUP2 PUSH2 0xCD JUMP JUMPDEST DUP2 EQ PUSH2 0xF1 JUMPI PUSH0 PUSH0 REVERT JUMPDEST POP JUMP JUMPDEST PUSH0 DUP2 MLOAD SWAP1 POP PUSH2 0x102 DUP2 PUSH2 0xDE JUMP JUMPDEST SWAP3 SWAP2 POP POP JUMP JUMPDEST PUSH0 PUSH1 0x20 DUP3 DUP5 SUB SLT ISZERO PUSH2 0x11D JUMPI PUSH2 0x11C PUSH2 0xAA JUMP JUMPDEST JUMPDEST PUSH0 PUSH2 0x12A DUP5 DUP3 DUP6 ADD PUSH2 0xF4 JUMP JUMPDEST SWAP2 POP POP SWAP3 SWAP2 POP POP JUMP JUMPDEST PUSH1 0x80 MLOAD PUSH2 0x512A PUSH2 0x148 PUSH0 CODECOPY PUSH0 POP POP PUSH2 0x512A PUSH0 RETURN INVALID PUSH1 0x80 PUSH1 0x40 MSTORE CALLVALUE DUP1 ISZERO PUSH2 0xF JUMPI PUSH0 PUSH0 REVERT JUMPDEST POP PUSH1 0x4 CALLDATASIZE LT PUSH2 0x86 JUMPI PUSH0 CALLDATALOAD PUSH1 0xE0 SHR DUP1 PUSH4 0xA39FAC12 GT PUSH2 0x59 JUMPI DUP1 PUSH4 0xA39FAC12 EQ PUSH2 0x114 JUMPI DUP1 PUSH4 0xCDE4C10C EQ PUSH2 0x132 JUMPI DUP1 PUSH4 0xECD63724 EQ PUSH2 0x150 JUMPI DUP1 PUSH4 0xF6F4A013 EQ PUSH2 0x180 JUMPI PUSH2 0x86 JUMP JUMPDEST DUP1 PUSH4 0xD8E6E2C EQ PUSH2 0x8A JUMPI DUP1 PUSH4 0x17D7DE7C EQ PUSH2 0xA8 JUMPI DUP1 PUSH4 0x24411A9D EQ PUSH2 0xC6 JUMPI DUP1 PUSH4 0x9ABBDF4B EQ PUSH2 0xE4 JUMPI JUMPDEST PUSH0 PUSH0 REVERT JUMPDEST PUSH2 0x92 PUSH2 0x1B0 JUMP JUMPDEST PUSH1 0x40 MLOAD PUSH2 0x9F SWAP2 SWAP1 PUSH2 0xA92 JUMP JUMPDEST PUSH1 0x40 MLOAD DUP1 SWAP2 SUB SWAP1 RETURN JUMPDEST PUSH2 0xB0 PUSH2 0x1B8 JUMP JUMPDEST PUSH1 0x40 MLOAD PUSH2 0xBD SWAP2 SWAP1 PUSH2 0xB1B JUMP JUMPDEST PUSH1 0x40 MLOAD DUP1 SWAP2 SUB SWAP1 RETURN JUMPDEST PUSH2 0xCE PUSH2 0x1F5 JUMP JUMPDEST PUSH1 0x40 MLOAD PUSH2 0xDB SWAP2 SWAP1 PUSH2 0xA92 JUMP JUMPDEST PUSH1 0x40 MLOAD DUP1 SWAP2 SUB SWAP1 RETURN JUMPDEST PUSH2 0xFE PUSH1 0x4 DUP1 CALLDATASIZE SUB DUP2 ADD SWAP1 PUSH2 0xF9 SWAP2 SWAP1 PUSH2 0xB69 JUMP JUMPDEST PUSH2 0x1FD JUMP JUMPDEST PUSH1 0x40 MLOAD PUSH2 0x10B SWAP2 SWAP1 PUSH2 0xBD3 JUMP JUMPDEST PUSH1 0x40 MLOAD DUP1 SWAP2 SUB SWAP1 RETURN JUMPDEST PUSH2 0x11C PUSH2 0x496 JUMP JUMPDEST PUSH1 0x40 MLOAD PUSH2 0x129 SWAP2 SWAP1 PUSH2 0xCA3 JUMP JUMPDEST PUSH1 0x40 MLOAD DUP1 SWAP2 SUB SWAP1 RETURN JUMPDEST PUSH2 0x13A PUSH2 0x65B JUMP JUMPDEST PUSH1 0x40 MLOAD PUSH2 0x147 SWAP2 SWAP1 PUSH2 0xCDD JUMP JUMPDEST PUSH1 0x40 MLOAD DUP1 SWAP2 SUB SWAP1 RETURN JUMPDEST PUSH2 0x16A PUSH1 0x4 DUP1 CALLDATASIZE SUB DUP2 ADD SWAP1 PUSH2 0x165 SWAP2 SWAP1 PUSH2 0xD20 JUMP JUMPDEST PUSH2 0x8A8 JUMP JUMPDEST PUSH1 0x40 MLOAD PUSH2 0x177 SWAP2 SWAP1 PUSH2 0xCDD JUMP JUMPDEST PUSH1 0x40 MLOAD DUP1 SWAP2 SUB SWAP1 RETURN JUMPDEST PUSH2 0x19A PUSH1 0x4 DUP1 CALLDATASIZE SUB DUP2 ADD SWAP1 PUSH2 0x195 SWAP2 SWAP1 PUSH2 0xB69 JUMP JUMPDEST PUSH2 0x8FA JUMP JUMPDEST PUSH1 0x40 MLOAD PUSH2 0x1A7 SWAP2 SWAP1 PUSH2 0xBD3 JUMP JUMPDEST PUSH1 0x40 MLOAD DUP1 SWAP2 SUB SWAP1 RETURN JUMPDEST PUSH0 PUSH1 0x2 SWAP1 POP SWAP1 JUMP JUMPDEST PUSH1 0x60 PUSH1 0x40 MLOAD DUP1 PUSH1 0x40 ADD PUSH1 0x40 MSTORE DUP1 PUSH1 0x19 DUP2 MSTORE PUSH1 0x20 ADD PUSH32 0x52455345525645445F4D505F5641554C545F464143544F525900000000000000 DUP2 MSTORE POP SWAP1 POP SWAP1 JUMP JUMPDEST PUSH0 PUSH1 0x3 SWAP1 POP SWAP1 JUMP JUMPDEST PUSH0 PUSH0 PUSH0 SWAP1 SLOAD SWAP1 PUSH2 0x100 EXP SWAP1 DIV PUSH20 0xFFFFFFFFFFFFFFFFFFFFFFFFFFFFFFFFFFFFFFFF AND PUSH20 0xFFFFFFFFFFFFFFFFFFFFFFFFFFFFFFFFFFFFFFFF AND PUSH4 0xBF40FAC1 PUSH1 0x40 MLOAD DUP1 PUSH1 0x40 ADD PUSH1 0x40 MSTORE DUP1 PUSH1 0x20 DUP2 MSTORE PUSH1 0x20 ADD PUSH32 0x52455345525645445F4D4544414C4C494F4E5F50454E53494F4E535F434F5245 DUP2 MSTORE POP PUSH1 0x40 MLOAD DUP3 PUSH4 0xFFFFFFFF AND PUSH1 0xE0 SHL DUP2 MSTORE PUSH1 0x4 ADD PUSH2 0x28C SWAP2 SWAP1 PUSH2 0xB1B JUMP JUMPDEST PUSH1 0x20 PUSH1 0x40 MLOAD DUP1 DUP4 SUB DUP2 DUP7 GAS STATICCALL ISZERO DUP1 ISZERO PUSH2 0x2A7 JUMPI RETURNDATASIZE PUSH0 PUSH0 RETURNDATACOPY RETURNDATASIZE PUSH0 REVERT JUMPDEST POP POP POP POP PUSH1 0x40 MLOAD RETURNDATASIZE PUSH1 0x1F NOT PUSH1 0x1F DUP3 ADD AND DUP3 ADD DUP1 PUSH1 0x40 MSTORE POP DUP2 ADD SWAP1 PUSH2 0x2CB SWAP2 SWAP1 PUSH2 0xD5F JUMP JUMPDEST PUSH20 0xFFFFFFFFFFFFFFFFFFFFFFFFFFFFFFFFFFFFFFFF AND CALLER PUSH20 0xFFFFFFFFFFFFFFFFFFFFFFFFFFFFFFFFFFFFFFFF AND EQ PUSH2 0x338 JUMPI PUSH1 0x40 MLOAD PUSH32 0x8C379A000000000000000000000000000000000000000000000000000000000 DUP2 MSTORE PUSH1 0x4 ADD PUSH2 0x32F SWAP1 PUSH2 0xDD4 JUMP JUMPDEST PUSH1 0x40 MLOAD DUP1 SWAP2 SUB SWAP1 REVERT JUMPDEST PUSH0 PUSH0 SWAP1 SLOAD SWAP1 PUSH2 0x100 EXP SWAP1 DIV PUSH20 0xFFFFFFFFFFFFFFFFFFFFFFFFFFFFFFFFFFFFFFFF AND DUP3 PUSH1 0x40 MLOAD PUSH2 0x366 SWAP1 PUSH2 0xA6D JUMP JUMPDEST PUSH2 0x371 SWAP3 SWAP2 SWAP1 PUSH2 0xDF2 JUMP JUMPDEST PUSH1 0x40 MLOAD DUP1 SWAP2 SUB SWAP1 PUSH0 CREATE DUP1 ISZERO DUP1 ISZERO PUSH2 0x38A JUMPI RETURNDATASIZE PUSH0 PUSH0 RETURNDATACOPY RETURNDATASIZE PUSH0 REVERT JUMPDEST POP SWAP1 POP PUSH1 0x1 DUP2 SWAP1 DUP1 PUSH1 0x1 DUP2 SLOAD ADD DUP1 DUP3 SSTORE DUP1 SWAP2 POP POP PUSH1 0x1 SWAP1 SUB SWAP1 PUSH0 MSTORE PUSH1 0x20 PUSH0 KECCAK256 ADD PUSH0 SWAP1 SWAP2 SWAP1 SWAP2 SWAP1 SWAP2 PUSH2 0x100 EXP DUP2 SLOAD DUP2 PUSH20 0xFFFFFFFFFFFFFFFFFFFFFFFFFFFFFFFFFFFFFFFF MUL NOT AND SWAP1 DUP4 PUSH20 0xFFFFFFFFFFFFFFFFFFFFFFFFFFFFFFFFFFFFFFFF AND MUL OR SWAP1 SSTORE POP PUSH1 0x1 PUSH1 0x2 PUSH0 DUP4 PUSH20 0xFFFFFFFFFFFFFFFFFFFFFFFFFFFFFFFFFFFFFFFF AND PUSH20 0xFFFFFFFFFFFFFFFFFFFFFFFFFFFFFFFFFFFFFFFF AND DUP2 MSTORE PUSH1 0x20 ADD SWAP1 DUP2 MSTORE PUSH1 0x20 ADD PUSH0 KECCAK256 PUSH0 PUSH2 0x100 EXP DUP2 SLOAD DUP2 PUSH1 0xFF MUL NOT AND SWAP1 DUP4 ISZERO ISZERO MUL OR SWAP1 SSTORE POP DUP1 PUSH1 0x3 PUSH0 DUP5 DUP2 MSTORE PUSH1 0x20 ADD SWAP1 DUP2 MSTORE PUSH1 0x20 ADD PUSH0 KECCAK256 PUSH0 PUSH2 0x100 EXP DUP2 SLOAD DUP2 PUSH20 0xFFFFFFFFFFFFFFFFFFFFFFFFFFFFFFFFFFFFFFFF MUL NOT AND SWAP1 DUP4 PUSH20 0xFFFFFFFFFFFFFFFFFFFFFFFFFFFFFFFFFFFFFFFF AND MUL OR SWAP1 SSTORE POP SWAP2 SWAP1 POP JUMP JUMPDEST PUSH1 0x60 PUSH0 PUSH0 SWAP1 SLOAD SWAP1 PUSH2 0x100 EXP SWAP1 DIV PUSH20 0xFFFFFFFFFFFFFFFFFFFFFFFFFFFFFFFFFFFFFFFF AND PUSH20 0xFFFFFFFFFFFFFFFFFFFFFFFFFFFFFFFFFFFFFFFF AND PUSH4 0xBF40FAC1 PUSH1 0x40 MLOAD DUP1 PUSH1 0x40 ADD PUSH1 0x40 MSTORE DUP1 PUSH1 0x11 DUP2 MSTORE PUSH1 0x20 ADD PUSH32 0x52455345525645445F4D505F41444D494E000000000000000000000000000000 DUP2 MSTORE POP PUSH1 0x40 MLOAD DUP3 PUSH4 0xFFFFFFFF AND PUSH1 0xE0 SHL DUP2 MSTORE PUSH1 0x4 ADD PUSH2 0x526 SWAP2 SWAP1 PUSH2 0xB1B JUMP JUMPDEST PUSH1 0x20 PUSH1 0x40 MLOAD DUP1 DUP4 SUB DUP2 DUP7 GAS STATICCALL ISZERO DUP1 ISZERO PUSH2 0x541 JUMPI RETURNDATASIZE PUSH0 PUSH0 RETURNDATACOPY RETURNDATASIZE PUSH0 REVERT JUMPDEST POP POP POP POP PUSH1 0x40 MLOAD RETURNDATASIZE PUSH1 0x1F NOT PUSH1 0x1F DUP3 ADD AND DUP3 ADD DUP1 PUSH1 0x40 MSTORE POP DUP2 ADD SWAP1 PUSH2 0x565 SWAP2 SWAP1 PUSH2 0xD5F JUMP JUMPDEST PUSH20 0xFFFFFFFFFFFFFFFFFFFFFFFFFFFFFFFFFFFFFFFF AND CALLER PUSH20 0xFFFFFFFFFFFFFFFFFFFFFFFFFFFFFFFFFFFFFFFF AND EQ PUSH2 0x5D2 JUMPI PUSH1 0x40 MLOAD PUSH32 0x8C379A000000000000000000000000000000000000000000000000000000000 DUP2 MSTORE PUSH1 0x4 ADD PUSH2 0x5C9 SWAP1 PUSH2 0xE63 JUMP JUMPDEST PUSH1 0x40 MLOAD DUP1 SWAP2 SUB SWAP1 REVERT JUMPDEST PUSH1 0x1 DUP1 SLOAD DUP1 PUSH1 0x20 MUL PUSH1 0x20 ADD PUSH1 0x40 MLOAD SWAP1 DUP2 ADD PUSH1 0x40 MSTORE DUP1 SWAP3 SWAP2 SWAP1 DUP2 DUP2 MSTORE PUSH1 0x20 ADD DUP3 DUP1 SLOAD DUP1 ISZERO PUSH2 0x651 JUMPI PUSH1 0x20 MUL DUP3 ADD SWAP2 SWAP1 PUSH0 MSTORE PUSH1 0x20 PUSH0 KECCAK256 SWAP1 JUMPDEST DUP2 PUSH0 SWAP1 SLOAD SWAP1 PUSH2 0x100 EXP SWAP1 DIV PUSH20 0xFFFFFFFFFFFFFFFFFFFFFFFFFFFFFFFFFFFFFFFF AND PUSH20 0xFFFFFFFFFFFFFFFFFFFFFFFFFFFFFFFFFFFFFFFF AND DUP2 MSTORE PUSH1 0x20 ADD SWAP1 PUSH1 0x1 ADD SWAP1 DUP1 DUP4 GT PUSH2 0x608 JUMPI JUMPDEST POP POP POP POP POP SWAP1 POP SWAP1 JUMP JUMPDEST PUSH0 PUSH0 PUSH0 SWAP1 SLOAD SWAP1 PUSH2 0x100 EXP SWAP1 DIV PUSH20 0xFFFFFFFFFFFFFFFFFFFFFFFFFFFFFFFFFFFFFFFF AND PUSH20 0xFFFFFFFFFFFFFFFFFFFFFFFFFFFFFFFFFFFFFFFF AND PUSH4 0xBF40FAC1 PUSH1 0x40 MLOAD DUP1 PUSH1 0x40 ADD PUSH1 0x40 MSTORE DUP1 PUSH1 0x11 DUP2 MSTORE PUSH1 0x20 ADD PUSH32 0x52455345525645445F4D505F41444D494E000000000000000000000000000000 DUP2 MSTORE POP PUSH1 0x40 MLOAD DUP3 PUSH4 0xFFFFFFFF AND PUSH1 0xE0 SHL DUP2 MSTORE PUSH1 0x4 ADD PUSH2 0x6EA SWAP2 SWAP1 PUSH2 0xB1B JUMP JUMPDEST PUSH1 0x20 PUSH1 0x40 MLOAD DUP1 DUP4 SUB DUP2 DUP7 GAS STATICCALL ISZERO DUP1 ISZERO PUSH2 0x705 JUMPI RETURNDATASIZE PUSH0 PUSH0 RETURNDATACOPY RETURNDATASIZE PUSH0 REVERT JUMPDEST POP POP POP POP PUSH1 0x40 MLOAD RETURNDATASIZE PUSH1 0x1F NOT PUSH1 0x1F DUP3 ADD AND DUP3 ADD DUP1 PUSH1 0x40 MSTORE POP DUP2 ADD SWAP1 PUSH2 0x729 SWAP2 SWAP1 PUSH2 0xD5F JUMP JUMPDEST PUSH20 0xFFFFFFFFFFFFFFFFFFFFFFFFFFFFFFFFFFFFFFFF AND CALLER PUSH20 0xFFFFFFFFFFFFFFFFFFFFFFFFFFFFFFFFFFFFFFFF AND EQ PUSH2 0x796 JUMPI PUSH1 0x40 MLOAD PUSH32 0x8C379A000000000000000000000000000000000000000000000000000000000 DUP2 MSTORE PUSH1 0x4 ADD PUSH2 0x78D SWAP1 PUSH2 0xE63 JUMP JUMPDEST PUSH1 0x40 MLOAD DUP1 SWAP2 SUB SWAP1 REVERT JUMPDEST PUSH0 PUSH0 SWAP1 SLOAD SWAP1 PUSH2 0x100 EXP SWAP1 DIV PUSH20 0xFFFFFFFFFFFFFFFFFFFFFFFFFFFFFFFFFFFFFFFF AND PUSH20 0xFFFFFFFFFFFFFFFFFFFFFFFFFFFFFFFFFFFFFFFF AND PUSH4 0xBF40FAC1 PUSH1 0x40 MLOAD DUP1 PUSH1 0x40 ADD PUSH1 0x40 MSTORE DUP1 PUSH1 0x14 DUP2 MSTORE PUSH1 0x20 ADD PUSH32 0x52455345525645445F4D505F5245474953544552000000000000000000000000 DUP2 MSTORE POP PUSH1 0x40 MLOAD DUP3 PUSH4 0xFFFFFFFF AND PUSH1 0xE0 SHL DUP2 MSTORE PUSH1 0x4 ADD PUSH2 0x824 SWAP2 SWAP1 PUSH2 0xB1B JUMP JUMPDEST PUSH1 0x20 PUSH1 0x40 MLOAD DUP1 DUP4 SUB DUP2 DUP7 GAS STATICCALL ISZERO DUP1 ISZERO PUSH2 0x83F JUMPI RETURNDATASIZE PUSH0 PUSH0 RETURNDATACOPY RETURNDATASIZE PUSH0 REVERT JUMPDEST POP POP POP POP PUSH1 0x40 MLOAD RETURNDATASIZE PUSH1 0x1F NOT PUSH1 0x1F DUP3 ADD AND DUP3 ADD DUP1 PUSH1 0x40 MSTORE POP DUP2 ADD SWAP1 PUSH2 0x863 SWAP2 SWAP1 PUSH2 0xD5F JUMP JUMPDEST PUSH0 PUSH0 PUSH2 0x100 EXP DUP2 SLOAD DUP2 PUSH20 0xFFFFFFFFFFFFFFFFFFFFFFFFFFFFFFFFFFFFFFFF MUL NOT AND SWAP1 DUP4 PUSH20 0xFFFFFFFFFFFFFFFFFFFFFFFFFFFFFFFFFFFFFFFF AND MUL OR SWAP1 SSTORE POP PUSH1 0x1 SWAP1 POP SWAP1 JUMP JUMPDEST PUSH0 PUSH1 0x2 PUSH0 DUP4 PUSH20 0xFFFFFFFFFFFFFFFFFFFFFFFFFFFFFFFFFFFFFFFF AND PUSH20 0xFFFFFFFFFFFFFFFFFFFFFFFFFFFFFFFFFFFFFFFF AND DUP2 MSTORE PUSH1 0x20 ADD SWAP1 DUP2 MSTORE PUSH1 0x20 ADD PUSH0 KECCAK256 PUSH0 SWAP1 SLOAD SWAP1 PUSH2 0x100 EXP SWAP1 DIV PUSH1 0xFF AND SWAP1 POP SWAP2 SWAP1 POP JUMP JUMPDEST PUSH0 PUSH0 PUSH0 SWAP1 SLOAD SWAP1 PUSH2 0x100 EXP SWAP1 DIV PUSH20 0xFFFFFFFFFFFFFFFFFFFFFFFFFFFFFFFFFFFFFFFF AND PUSH20 0xFFFFFFFFFFFFFFFFFFFFFFFFFFFFFFFFFFFFFFFF AND PUSH4 0xBF40FAC1 PUSH1 0x40 MLOAD DUP1 PUSH1 0x40 ADD PUSH1 0x40 MSTORE DUP1 PUSH1 0x11 DUP2 MSTORE PUSH1 0x20 ADD PUSH32 0x52455345525645445F4D505F41444D494E000000000000000000000000000000 DUP2 MSTORE POP PUSH1 0x40 MLOAD DUP3 PUSH4 0xFFFFFFFF AND PUSH1 0xE0 SHL DUP2 MSTORE PUSH1 0x4 ADD PUSH2 0x989 SWAP2 SWAP1 PUSH2 0xB1B JUMP JUMPDEST PUSH1 0x20 PUSH1 0x40 MLOAD DUP1 DUP4 SUB DUP2 DUP7 GAS STATICCALL ISZERO DUP1 ISZERO PUSH2 0x9A4 JUMPI RETURNDATASIZE PUSH0 PUSH0 RETURNDATACOPY RETURNDATASIZE PUSH0 REVERT JUMPDEST POP POP POP POP PUSH1 0x40 MLOAD RETURNDATASIZE PUSH1 0x1F NOT PUSH1 0x1F DUP3 ADD AND DUP3 ADD DUP1 PUSH1 0x40 MSTORE POP DUP2 ADD SWAP1 PUSH2 0x9C8 SWAP2 SWAP1 PUSH2 0xD5F JUMP JUMPDEST PUSH20 0xFFFFFFFFFFFFFFFFFFFFFFFFFFFFFFFFFFFFFFFF AND CALLER PUSH20 0xFFFFFFFFFFFFFFFFFFFFFFFFFFFFFFFFFFFFFFFF AND EQ PUSH2 0xA35 JUMPI PUSH1 0x40 MLOAD PUSH32 0x8C379A000000000000000000000000000000000000000000000000000000000 DUP2 MSTORE PUSH1 0x4 ADD PUSH2 0xA2C SWAP1 PUSH2 0xE63 JUMP JUMPDEST PUSH1 0x40 MLOAD DUP1 SWAP2 SUB SWAP1 REVERT JUMPDEST PUSH1 0x3 PUSH0 DUP4 DUP2 MSTORE PUSH1 0x20 ADD SWAP1 DUP2 MSTORE PUSH1 0x20 ADD PUSH0 KECCAK256 PUSH0 SWAP1 SLOAD SWAP1 PUSH2 0x100 EXP SWAP1 DIV PUSH20 0xFFFFFFFFFFFFFFFFFFFFFFFFFFFFFFFFFFFFFFFF AND SWAP1 POP SWAP2 SWAP1 POP JUMP JUMPDEST PUSH2 0x4273 DUP1 PUSH2 0xE82 DUP4 CODECOPY ADD SWAP1 JUMP JUMPDEST PUSH0 DUP2 SWAP1 POP SWAP2 SWAP1 POP JUMP JUMPDEST PUSH2 0xA8C DUP2 PUSH2 0xA7A JUMP JUMPDEST DUP3 MSTORE POP POP JUMP JUMPDEST PUSH0 PUSH1 0x20 DUP3 ADD SWAP1 POP PUSH2 0xAA5 PUSH0 DUP4 ADD DUP5 PUSH2 0xA83 JUMP JUMPDEST SWAP3 SWAP2 POP POP JUMP JUMPDEST PUSH0 DUP2 MLOAD SWAP1 POP SWAP2 SWAP1 POP JUMP JUMPDEST PUSH0 DUP3 DUP3 MSTORE PUSH1 0x20 DUP3 ADD SWAP1 POP SWAP3 SWAP2 POP POP JUMP JUMPDEST DUP3 DUP2 DUP4 MCOPY PUSH0 DUP4 DUP4 ADD MSTORE POP POP POP JUMP JUMPDEST PUSH0 PUSH1 0x1F NOT PUSH1 0x1F DUP4 ADD AND SWAP1 POP SWAP2 SWAP1 POP JUMP JUMPDEST PUSH0 PUSH2 0xAED DUP3 PUSH2 0xAAB JUMP JUMPDEST PUSH2 0xAF7 DUP2 DUP6 PUSH2 0xAB5 JUMP JUMPDEST SWAP4 POP PUSH2 0xB07 DUP2 DUP6 PUSH1 0x20 DUP7 ADD PUSH2 0xAC5 JUMP JUMPDEST PUSH2 0xB10 DUP2 PUSH2 0xAD3 JUMP JUMPDEST DUP5 ADD SWAP2 POP POP SWAP3 SWAP2 POP POP JUMP JUMPDEST PUSH0 PUSH1 0x20 DUP3 ADD SWAP1 POP DUP2 DUP2 SUB PUSH0 DUP4 ADD MSTORE PUSH2 0xB33 DUP2 DUP5 PUSH2 0xAE3 JUMP JUMPDEST SWAP1 POP SWAP3 SWAP2 POP POP JUMP JUMPDEST PUSH0 PUSH0 REVERT JUMPDEST PUSH2 0xB48 DUP2 PUSH2 0xA7A JUMP JUMPDEST DUP2 EQ PUSH2 0xB52 JUMPI PUSH0 PUSH0 REVERT JUMPDEST POP JUMP JUMPDEST PUSH0 DUP2 CALLDATALOAD SWAP1 POP PUSH2 0xB63 DUP2 PUSH2 0xB3F JUMP JUMPDEST SWAP3 SWAP2 POP POP JUMP JUMPDEST PUSH0 PUSH1 0x20 DUP3 DUP5 SUB SLT ISZERO PUSH2 0xB7E JUMPI PUSH2 0xB7D PUSH2 0xB3B JUMP JUMPDEST JUMPDEST PUSH0 PUSH2 0xB8B DUP5 DUP3 DUP6 ADD PUSH2 0xB55 JUMP JUMPDEST SWAP2 POP POP SWAP3 SWAP2 POP POP JUMP JUMPDEST PUSH0 PUSH20 0xFFFFFFFFFFFFFFFFFFFFFFFFFFFFFFFFFFFFFFFF DUP3 AND SWAP1 POP SWAP2 SWAP1 POP JUMP JUMPDEST PUSH0 PUSH2 0xBBD DUP3 PUSH2 0xB94 JUMP JUMPDEST SWAP1 POP SWAP2 SWAP1 POP JUMP JUMPDEST PUSH2 0xBCD DUP2 PUSH2 0xBB3 JUMP JUMPDEST DUP3 MSTORE POP POP JUMP JUMPDEST PUSH0 PUSH1 0x20 DUP3 ADD SWAP1 POP PUSH2 0xBE6 PUSH0 DUP4 ADD DUP5 PUSH2 0xBC4 JUMP JUMPDEST SWAP3 SWAP2 POP POP JUMP JUMPDEST PUSH0 DUP2 MLOAD SWAP1 POP SWAP2 SWAP1 POP JUMP JUMPDEST PUSH0 DUP3 DUP3 MSTORE PUSH1 0x20 DUP3 ADD SWAP1 POP SWAP3 SWAP2 POP POP JUMP JUMPDEST PUSH0 DUP2 SWAP1 POP PUSH1 0x20 DUP3 ADD SWAP1 POP SWAP2 SWAP1 POP JUMP JUMPDEST PUSH2 0xC1E DUP2 PUSH2 0xBB3 JUMP JUMPDEST DUP3 MSTORE POP POP JUMP JUMPDEST PUSH0 PUSH2 0xC2F DUP4 DUP4 PUSH2 0xC15 JUMP JUMPDEST PUSH1 0x20 DUP4 ADD SWAP1 POP SWAP3 SWAP2 POP POP JUMP JUMPDEST PUSH0 PUSH1 0x20 DUP3 ADD SWAP1 POP SWAP2 SWAP1 POP JUMP JUMPDEST PUSH0 PUSH2 0xC51 DUP3 PUSH2 0xBEC JUMP JUMPDEST PUSH2 0xC5B DUP2 DUP6 PUSH2 0xBF6 JUMP JUMPDEST SWAP4 POP PUSH2 0xC66 DUP4 PUSH2 0xC06 JUMP JUMPDEST DUP1 PUSH0 JUMPDEST DUP4 DUP2 LT ISZERO PUSH2 0xC96 JUMPI DUP2 MLOAD PUSH2 0xC7D DUP9 DUP3 PUSH2 0xC24 JUMP JUMPDEST SWAP8 POP PUSH2 0xC88 DUP4 PUSH2 0xC3B JUMP JUMPDEST SWAP3 POP POP PUSH1 0x1 DUP2 ADD SWAP1 POP PUSH2 0xC69 JUMP JUMPDEST POP DUP6 SWAP4 POP POP POP POP SWAP3 SWAP2 POP POP JUMP JUMPDEST PUSH0 PUSH1 0x20 DUP3 ADD SWAP1 POP DUP2 DUP2 SUB PUSH0 DUP4 ADD MSTORE PUSH2 0xCBB DUP2 DUP5 PUSH2 0xC47 JUMP JUMPDEST SWAP1 POP SWAP3 SWAP2 POP POP JUMP JUMPDEST PUSH0 DUP2 ISZERO ISZERO SWAP1 POP SWAP2 SWAP1 POP JUMP JUMPDEST PUSH2 0xCD7 DUP2 PUSH2 0xCC3 JUMP JUMPDEST DUP3 MSTORE POP POP JUMP JUMPDEST PUSH0 PUSH1 0x20 DUP3 ADD SWAP1 POP PUSH2 0xCF0 PUSH0 DUP4 ADD DUP5 PUSH2 0xCCE JUMP JUMPDEST SWAP3 SWAP2 POP POP JUMP JUMPDEST PUSH2 0xCFF DUP2 PUSH2 0xBB3 JUMP JUMPDEST DUP2 EQ PUSH2 0xD09 JUMPI PUSH0 PUSH0 REVERT JUMPDEST POP JUMP JUMPDEST PUSH0 DUP2 CALLDATALOAD SWAP1 POP PUSH2 0xD1A DUP2 PUSH2 0xCF6 JUMP JUMPDEST SWAP3 SWAP2 POP POP JUMP JUMPDEST PUSH0 PUSH1 0x20 DUP3 DUP5 SUB SLT ISZERO PUSH2 0xD35 JUMPI PUSH2 0xD34 PUSH2 0xB3B JUMP JUMPDEST JUMPDEST PUSH0 PUSH2 0xD42 DUP5 DUP3 DUP6 ADD PUSH2 0xD0C JUMP JUMPDEST SWAP2 POP POP SWAP3 SWAP2 POP POP JUMP JUMPDEST PUSH0 DUP2 MLOAD SWAP1 POP PUSH2 0xD59 DUP2 PUSH2 0xCF6 JUMP JUMPDEST SWAP3 SWAP2 POP POP JUMP JUMPDEST PUSH0 PUSH1 0x20 DUP3 DUP5 SUB SLT ISZERO PUSH2 0xD74 JUMPI PUSH2 0xD73 PUSH2 0xB3B JUMP JUMPDEST JUMPDEST PUSH0 PUSH2 0xD81 DUP5 DUP3 DUP6 ADD PUSH2 0xD4B JUMP JUMPDEST SWAP2 POP POP SWAP3 SWAP2 POP POP JUMP JUMPDEST PUSH32 0x6D6564616C696F6E2070656E73696F6E73206F6E6C7900000000000000000000 PUSH0 DUP3 ADD MSTORE POP JUMP JUMPDEST PUSH0 PUSH2 0xDBE PUSH1 0x16 DUP4 PUSH2 0xAB5 JUMP JUMPDEST SWAP2 POP PUSH2 0xDC9 DUP3 PUSH2 0xD8A JUMP JUMPDEST PUSH1 0x20 DUP3 ADD SWAP1 POP SWAP2 SWAP1 POP JUMP JUMPDEST PUSH0 PUSH1 0x20 DUP3 ADD SWAP1 POP DUP2 DUP2 SUB PUSH0 DUP4 ADD MSTORE PUSH2 0xDEB DUP2 PUSH2 0xDB2 JUMP JUMPDEST SWAP1 POP SWAP2 SWAP1 POP JUMP JUMPDEST PUSH0 PUSH1 0x40 DUP3 ADD SWAP1 POP PUSH2 0xE05 PUSH0 DUP4 ADD DUP6 PUSH2 0xBC4 JUMP JUMPDEST PUSH2 0xE12 PUSH1 0x20 DUP4 ADD DUP5 PUSH2 0xA83 JUMP JUMPDEST SWAP4 SWAP3 POP POP POP JUMP JUMPDEST PUSH32 0x6D6564616C696F6E207065656E73696F6E732061646D696E206F6E6C79000000 PUSH0 DUP3 ADD MSTORE POP JUMP JUMPDEST PUSH0 PUSH2 0xE4D PUSH1 0x1D DUP4 PUSH2 0xAB5 JUMP JUMPDEST SWAP2 POP PUSH2 0xE58 DUP3 PUSH2 0xE19 JUMP JUMPDEST PUSH1 0x20 DUP3 ADD SWAP1 POP SWAP2 SWAP1 POP JUMP JUMPDEST PUSH0 PUSH1 0x20 DUP3 ADD SWAP1 POP DUP2 DUP2 SUB PUSH0 DUP4 ADD MSTORE PUSH2 0xE7A DUP2 PUSH2 0xE41 JUMP JUMPDEST SWAP1 POP SWAP2 SWAP1 POP JUMP INVALID PUSH1 0xC0 PUSH1 0x40 MSTORE PUSH0 PUSH0 PUSH0 PUSH2 0x100 EXP DUP2 SLOAD DUP2 PUSH1 0xFF MUL NOT AND SWAP1 DUP4 ISZERO ISZERO MUL OR SWAP1 SSTORE POP CALLVALUE DUP1 ISZERO PUSH2 0x27 JUMPI PUSH0 PUSH0 REVERT JUMPDEST POP PUSH1 0x40 MLOAD PUSH2 0x4273 CODESIZE SUB DUP1 PUSH2 0x4273 DUP4 CODECOPY DUP2 DUP2 ADD PUSH1 0x40 MSTORE DUP2 ADD SWAP1 PUSH2 0x49 SWAP2 SWAP1 PUSH2 0x1AF JUMP JUMPDEST DUP2 PUSH0 PUSH1 0x3 PUSH2 0x100 EXP DUP2 SLOAD DUP2 PUSH20 0xFFFFFFFFFFFFFFFFFFFFFFFFFFFFFFFFFFFFFFFF MUL NOT AND SWAP1 DUP4 PUSH20 0xFFFFFFFFFFFFFFFFFFFFFFFFFFFFFFFFFFFFFFFF AND MUL OR SWAP1 SSTORE POP DUP1 PUSH1 0x80 DUP2 DUP2 MSTORE POP POP PUSH0 PUSH0 PUSH1 0x1 PUSH2 0x100 EXP DUP2 SLOAD DUP2 PUSH1 0xFF MUL NOT AND SWAP1 DUP4 PUSH1 0x3 DUP2 GT ISZERO PUSH2 0xB5 JUMPI PUSH2 0xB4 PUSH2 0x1ED JUMP JUMPDEST JUMPDEST MUL OR SWAP1 SSTORE POP PUSH0 PUSH0 PUSH1 0x2 PUSH2 0x100 EXP DUP2 SLOAD DUP2 PUSH1 0xFF MUL NOT AND SWAP1 DUP4 PUSH1 0x2 DUP2 GT ISZERO PUSH2 0xDE JUMPI PUSH2 0xDD PUSH2 0x1ED JUMP JUMPDEST JUMPDEST MUL OR SWAP1 SSTORE POP ADDRESS PUSH20 0xFFFFFFFFFFFFFFFFFFFFFFFFFFFFFFFFFFFFFFFF AND PUSH1 0xA0 DUP2 PUSH20 0xFFFFFFFFFFFFFFFFFFFFFFFFFFFFFFFFFFFFFFFF AND DUP2 MSTORE POP POP POP POP PUSH2 0x21A JUMP JUMPDEST PUSH0 PUSH0 REVERT JUMPDEST PUSH0 PUSH20 0xFFFFFFFFFFFFFFFFFFFFFFFFFFFFFFFFFFFFFFFF DUP3 AND SWAP1 POP SWAP2 SWAP1 POP JUMP JUMPDEST PUSH0 PUSH2 0x14B DUP3 PUSH2 0x122 JUMP JUMPDEST SWAP1 POP SWAP2 SWAP1 POP JUMP JUMPDEST PUSH2 0x15B DUP2 PUSH2 0x141 JUMP JUMPDEST DUP2 EQ PUSH2 0x165 JUMPI PUSH0 PUSH0 REVERT JUMPDEST POP JUMP JUMPDEST PUSH0 DUP2 MLOAD SWAP1 POP PUSH2 0x176 DUP2 PUSH2 0x152 JUMP JUMPDEST SWAP3 SWAP2 POP POP JUMP JUMPDEST PUSH0 DUP2 SWAP1 POP SWAP2 SWAP1 POP JUMP JUMPDEST PUSH2 0x18E DUP2 PUSH2 0x17C JUMP JUMPDEST DUP2 EQ PUSH2 0x198 JUMPI PUSH0 PUSH0 REVERT JUMPDEST POP JUMP JUMPDEST PUSH0 DUP2 MLOAD SWAP1 POP PUSH2 0x1A9 DUP2 PUSH2 0x185 JUMP JUMPDEST SWAP3 SWAP2 POP POP JUMP JUMPDEST PUSH0 PUSH0 PUSH1 0x40 DUP4 DUP6 SUB SLT ISZERO PUSH2 0x1C5 JUMPI PUSH2 0x1C4 PUSH2 0x11E JUMP JUMPDEST JUMPDEST PUSH0 PUSH2 0x1D2 DUP6 DUP3 DUP7 ADD PUSH2 0x168 JUMP JUMPDEST SWAP3 POP POP PUSH1 0x20 PUSH2 0x1E3 DUP6 DUP3 DUP7 ADD PUSH2 0x19B JUMP JUMPDEST SWAP2 POP POP SWAP3 POP SWAP3 SWAP1 POP JUMP JUMPDEST PUSH32 0x4E487B7100000000000000000000000000000000000000000000000000000000 PUSH0 MSTORE PUSH1 0x21 PUSH1 0x4 MSTORE PUSH1 0x24 PUSH0 REVERT JUMPDEST PUSH1 0x80 MLOAD PUSH1 0xA0 MLOAD PUSH2 0x3FF2 PUSH2 0x281 PUSH0 CODECOPY PUSH0 DUP2 DUP2 PUSH2 0x726 ADD MSTORE DUP2 DUP2 PUSH2 0x7D5 ADD MSTORE DUP2 DUP2 PUSH2 0x10AF ADD MSTORE DUP2 DUP2 PUSH2 0x1152 ADD MSTORE DUP2 DUP2 PUSH2 0x164A ADD MSTORE DUP2 DUP2 PUSH2 0x1A1B ADD MSTORE PUSH2 0x2383 ADD MSTORE PUSH0 DUP2 DUP2 PUSH2 0x8DB ADD MSTORE DUP2 DUP2 PUSH2 0xD4B ADD MSTORE DUP2 DUP2 PUSH2 0x1712 ADD MSTORE DUP2 DUP2 PUSH2 0x20D3 ADD MSTORE PUSH2 0x2214 ADD MSTORE PUSH2 0x3FF2 PUSH0 RETURN INVALID PUSH1 0x80 PUSH1 0x40 MSTORE PUSH1 0x4 CALLDATASIZE LT PUSH2 0xDC JUMPI PUSH0 CALLDATALOAD PUSH1 0xE0 SHR DUP1 PUSH4 0x73488018 GT PUSH2 0x7E JUMPI DUP1 PUSH4 0xB8C89338 GT PUSH2 0x58 JUMPI DUP1 PUSH4 0xB8C89338 EQ PUSH2 0x2AF JUMPI DUP1 PUSH4 0xC1CBBCA7 EQ PUSH2 0x2EB JUMPI DUP1 PUSH4 0xCDE4C10C EQ PUSH2 0x31B JUMPI DUP1 PUSH4 0xE77EF21F EQ PUSH2 0x345 JUMPI PUSH2 0xDC JUMP JUMPDEST DUP1 PUSH4 0x73488018 EQ PUSH2 0x22B JUMPI DUP1 PUSH4 0x805275A2 EQ PUSH2 0x255 JUMPI DUP1 PUSH4 0x9F08C755 EQ PUSH2 0x27F JUMPI PUSH2 0xDC JUMP JUMPDEST DUP1 PUSH4 0x43D726D6 GT PUSH2 0xBA JUMPI DUP1 PUSH4 0x43D726D6 EQ PUSH2 0x15E JUMPI DUP1 PUSH4 0x4D0392A8 EQ PUSH2 0x188 JUMPI DUP1 PUSH4 0x4E69D560 EQ PUSH2 0x1C5 JUMPI DUP1 PUSH4 0x51CFF8D9 EQ PUSH2 0x1EF JUMPI PUSH2 0xDC JUMP JUMPDEST DUP1 PUSH4 0xD8E6E2C EQ PUSH2 0xE0 JUMPI DUP1 PUSH4 0x12065FE0 EQ PUSH2 0x10A JUMPI DUP1 PUSH4 0x17D7DE7C EQ PUSH2 0x134 JUMPI JUMPDEST PUSH0 PUSH0 REVERT JUMPDEST CALLVALUE DUP1 ISZERO PUSH2 0xEB JUMPI PUSH0 PUSH0 REVERT JUMPDEST POP PUSH2 0xF4 PUSH2 0x36F JUMP JUMPDEST PUSH1 0x40 MLOAD PUSH2 0x101 SWAP2 SWAP1 PUSH2 0x28B0 JUMP JUMPDEST PUSH1 0x40 MLOAD DUP1 SWAP2 SUB SWAP1 RETURN JUMPDEST CALLVALUE DUP1 ISZERO PUSH2 0x115 JUMPI PUSH0 PUSH0 REVERT JUMPDEST POP PUSH2 0x11E PUSH2 0x377 JUMP JUMPDEST PUSH1 0x40 MLOAD PUSH2 0x12B SWAP2 SWAP1 PUSH2 0x28B0 JUMP JUMPDEST PUSH1 0x40 MLOAD DUP1 SWAP2 SUB SWAP1 RETURN JUMPDEST CALLVALUE DUP1 ISZERO PUSH2 0x13F JUMPI PUSH0 PUSH0 REVERT JUMPDEST POP PUSH2 0x148 PUSH2 0x380 JUMP JUMPDEST PUSH1 0x40 MLOAD PUSH2 0x155 SWAP2 SWAP1 PUSH2 0x2939 JUMP JUMPDEST PUSH1 0x40 MLOAD DUP1 SWAP2 SUB SWAP1 RETURN JUMPDEST CALLVALUE DUP1 ISZERO PUSH2 0x169 JUMPI PUSH0 PUSH0 REVERT JUMPDEST POP PUSH2 0x172 PUSH2 0x3BD JUMP JUMPDEST PUSH1 0x40 MLOAD PUSH2 0x17F SWAP2 SWAP1 PUSH2 0x28B0 JUMP JUMPDEST PUSH1 0x40 MLOAD DUP1 SWAP2 SUB SWAP1 RETURN JUMPDEST CALLVALUE DUP1 ISZERO PUSH2 0x193 JUMPI PUSH0 PUSH0 REVERT JUMPDEST POP PUSH2 0x1AE PUSH1 0x4 DUP1 CALLDATASIZE SUB DUP2 ADD SWAP1 PUSH2 0x1A9 SWAP2 SWAP1 PUSH2 0x2990 JUMP JUMPDEST PUSH2 0x910 JUMP JUMPDEST PUSH1 0x40 MLOAD PUSH2 0x1BC SWAP3 SWAP2 SWAP1 PUSH2 0x29BB JUMP JUMPDEST PUSH1 0x40 MLOAD DUP1 SWAP2 SUB SWAP1 RETURN JUMPDEST CALLVALUE DUP1 ISZERO PUSH2 0x1D0 JUMPI PUSH0 PUSH0 REVERT JUMPDEST POP PUSH2 0x1D9 PUSH2 0xDCF JUMP JUMPDEST PUSH1 0x40 MLOAD PUSH2 0x1E6 SWAP2 SWAP1 PUSH2 0x2A55 JUMP JUMPDEST PUSH1 0x40 MLOAD DUP1 SWAP2 SUB SWAP1 RETURN JUMPDEST CALLVALUE DUP1 ISZERO PUSH2 0x1FA JUMPI PUSH0 PUSH0 REVERT JUMPDEST POP PUSH2 0x215 PUSH1 0x4 DUP1 CALLDATASIZE SUB DUP2 ADD SWAP1 PUSH2 0x210 SWAP2 SWAP1 PUSH2 0x2AC8 JUMP JUMPDEST PUSH2 0xDE4 JUMP JUMPDEST PUSH1 0x40 MLOAD PUSH2 0x222 SWAP2 SWAP1 PUSH2 0x28B0 JUMP JUMPDEST PUSH1 0x40 MLOAD DUP1 SWAP2 SUB SWAP1 RETURN JUMPDEST CALLVALUE DUP1 ISZERO PUSH2 0x236 JUMPI PUSH0 PUSH0 REVERT JUMPDEST POP PUSH2 0x23F PUSH2 0x1252 JUMP JUMPDEST PUSH1 0x40 MLOAD PUSH2 0x24C SWAP2 SWAP1 PUSH2 0x2DD9 JUMP JUMPDEST PUSH1 0x40 MLOAD DUP1 SWAP2 SUB SWAP1 RETURN JUMPDEST CALLVALUE DUP1 ISZERO PUSH2 0x260 JUMPI PUSH0 PUSH0 REVERT JUMPDEST POP PUSH2 0x269 PUSH2 0x1267 JUMP JUMPDEST PUSH1 0x40 MLOAD PUSH2 0x276 SWAP2 SWAP1 PUSH2 0x2E73 JUMP JUMPDEST PUSH1 0x40 MLOAD DUP1 SWAP2 SUB SWAP1 RETURN JUMPDEST PUSH2 0x299 PUSH1 0x4 DUP1 CALLDATASIZE SUB DUP2 ADD SWAP1 PUSH2 0x294 SWAP2 SWAP1 PUSH2 0x2E8C JUMP JUMPDEST PUSH2 0x12C2 JUMP JUMPDEST PUSH1 0x40 MLOAD PUSH2 0x2A6 SWAP2 SWAP1 PUSH2 0x28B0 JUMP JUMPDEST PUSH1 0x40 MLOAD DUP1 SWAP2 SUB SWAP1 RETURN JUMPDEST CALLVALUE DUP1 ISZERO PUSH2 0x2BA JUMPI PUSH0 PUSH0 REVERT JUMPDEST POP PUSH2 0x2D5 PUSH1 0x4 DUP1 CALLDATASIZE SUB DUP2 ADD SWAP1 PUSH2 0x2D0 SWAP2 SWAP1 PUSH2 0x2990 JUMP JUMPDEST PUSH2 0x17B6 JUMP JUMPDEST PUSH1 0x40 MLOAD PUSH2 0x2E2 SWAP2 SWAP1 PUSH2 0x2F84 JUMP JUMPDEST PUSH1 0x40 MLOAD DUP1 SWAP2 SUB SWAP1 RETURN JUMPDEST PUSH2 0x305 PUSH1 0x4 DUP1 CALLDATASIZE SUB DUP2 ADD SWAP1 PUSH2 0x300 SWAP2 SWAP1 PUSH2 0x2990 JUMP JUMPDEST PUSH2 0x181D JUMP JUMPDEST PUSH1 0x40 MLOAD PUSH2 0x312 SWAP2 SWAP1 PUSH2 0x28B0 JUMP JUMPDEST PUSH1 0x40 MLOAD DUP1 SWAP2 SUB SWAP1 RETURN JUMPDEST CALLVALUE DUP1 ISZERO PUSH2 0x326 JUMPI PUSH0 PUSH0 REVERT JUMPDEST POP PUSH2 0x32F PUSH2 0x1A90 JUMP JUMPDEST PUSH1 0x40 MLOAD PUSH2 0x33C SWAP2 SWAP1 PUSH2 0x2FB3 JUMP JUMPDEST PUSH1 0x40 MLOAD DUP1 SWAP2 SUB SWAP1 RETURN JUMPDEST CALLVALUE DUP1 ISZERO PUSH2 0x350 JUMPI PUSH0 PUSH0 REVERT JUMPDEST POP PUSH2 0x359 PUSH2 0x1CE0 JUMP JUMPDEST PUSH1 0x40 MLOAD PUSH2 0x366 SWAP2 SWAP1 PUSH2 0x28B0 JUMP JUMPDEST PUSH1 0x40 MLOAD DUP1 SWAP2 SUB SWAP1 RETURN JUMPDEST PUSH0 PUSH1 0x12 SWAP1 POP SWAP1 JUMP JUMPDEST PUSH0 PUSH1 0x1 SLOAD SWAP1 POP SWAP1 JUMP JUMPDEST PUSH1 0x60 PUSH1 0x40 MLOAD DUP1 PUSH1 0x40 ADD PUSH1 0x40 MSTORE DUP1 PUSH1 0x17 DUP2 MSTORE PUSH1 0x20 ADD PUSH32 0x4D4544414C4C494F4E5F50454E53494F4E5F5641554C54000000000000000000 DUP2 MSTORE POP SWAP1 POP SWAP1 JUMP JUMPDEST PUSH0 PUSH0 PUSH1 0x3 SWAP1 SLOAD SWAP1 PUSH2 0x100 EXP SWAP1 DIV PUSH20 0xFFFFFFFFFFFFFFFFFFFFFFFFFFFFFFFFFFFFFFFF AND PUSH20 0xFFFFFFFFFFFFFFFFFFFFFFFFFFFFFFFFFFFFFFFF AND PUSH4 0xBF40FAC1 PUSH1 0x40 MLOAD DUP1 PUSH1 0x40 ADD PUSH1 0x40 MSTORE DUP1 PUSH1 0x11 DUP2 MSTORE PUSH1 0x20 ADD PUSH32 0x52455345525645445F4D505F41444D494E000000000000000000000000000000 DUP2 MSTORE POP PUSH1 0x40 MLOAD DUP3 PUSH4 0xFFFFFFFF AND PUSH1 0xE0 SHL DUP2 MSTORE PUSH1 0x4 ADD PUSH2 0x44D SWAP2 SWAP1 PUSH2 0x2939 JUMP JUMPDEST PUSH1 0x20 PUSH1 0x40 MLOAD DUP1 DUP4 SUB DUP2 DUP7 GAS STATICCALL ISZERO DUP1 ISZERO PUSH2 0x468 JUMPI RETURNDATASIZE PUSH0 PUSH0 RETURNDATACOPY RETURNDATASIZE PUSH0 REVERT JUMPDEST POP POP POP POP PUSH1 0x40 MLOAD RETURNDATASIZE PUSH1 0x1F NOT PUSH1 0x1F DUP3 ADD AND DUP3 ADD DUP1 PUSH1 0x40 MSTORE POP DUP2 ADD SWAP1 PUSH2 0x48C SWAP2 SWAP1 PUSH2 0x2FE0 JUMP JUMPDEST PUSH20 0xFFFFFFFFFFFFFFFFFFFFFFFFFFFFFFFFFFFFFFFF AND CALLER PUSH20 0xFFFFFFFFFFFFFFFFFFFFFFFFFFFFFFFFFFFFFFFF AND EQ PUSH2 0x4F9 JUMPI PUSH1 0x40 MLOAD PUSH32 0x8C379A000000000000000000000000000000000000000000000000000000000 DUP2 MSTORE PUSH1 0x4 ADD PUSH2 0x4F0 SWAP1 PUSH2 0x3055 JUMP JUMPDEST PUSH1 0x40 MLOAD DUP1 SWAP2 SUB SWAP1 REVERT JUMPDEST PUSH0 PUSH0 SWAP1 SLOAD SWAP1 PUSH2 0x100 EXP SWAP1 DIV PUSH1 0xFF AND ISZERO PUSH2 0x547 JUMPI PUSH1 0x40 MLOAD PUSH32 0x8C379A000000000000000000000000000000000000000000000000000000000 DUP2 MSTORE PUSH1 0x4 ADD PUSH2 0x53E SWAP1 PUSH2 0x30BD JUMP JUMPDEST PUSH1 0x40 MLOAD DUP1 SWAP2 SUB SWAP1 REVERT JUMPDEST PUSH1 0x2 PUSH1 0x3 DUP2 GT ISZERO PUSH2 0x55B JUMPI PUSH2 0x55A PUSH2 0x29E2 JUMP JUMPDEST JUMPDEST PUSH0 PUSH1 0x1 SWAP1 SLOAD SWAP1 PUSH2 0x100 EXP SWAP1 DIV PUSH1 0xFF AND PUSH1 0x3 DUP2 GT ISZERO PUSH2 0x57C JUMPI PUSH2 0x57B PUSH2 0x29E2 JUMP JUMPDEST JUMPDEST SUB PUSH2 0x5BC JUMPI PUSH1 0x40 MLOAD PUSH32 0x8C379A000000000000000000000000000000000000000000000000000000000 DUP2 MSTORE PUSH1 0x4 ADD PUSH2 0x5B3 SWAP1 PUSH2 0x3125 JUMP JUMPDEST PUSH1 0x40 MLOAD DUP1 SWAP2 SUB SWAP1 REVERT JUMPDEST PUSH0 PUSH2 0x5C5 PUSH2 0x2121 JUMP JUMPDEST SWAP1 POP PUSH1 0x2 PUSH1 0x3 DUP2 GT ISZERO PUSH2 0x5DB JUMPI PUSH2 0x5DA PUSH2 0x29E2 JUMP JUMPDEST JUMPDEST PUSH0 PUSH1 0x1 SWAP1 SLOAD SWAP1 PUSH2 0x100 EXP SWAP1 DIV PUSH1 0xFF AND PUSH1 0x3 DUP2 GT ISZERO PUSH2 0x5FC JUMPI PUSH2 0x5FB PUSH2 0x29E2 JUMP JUMPDEST JUMPDEST SUB PUSH2 0x63C JUMPI PUSH1 0x40 MLOAD PUSH32 0x8C379A000000000000000000000000000000000000000000000000000000000 DUP2 MSTORE PUSH1 0x4 ADD PUSH2 0x633 SWAP1 PUSH2 0x318D JUMP JUMPDEST PUSH1 0x40 MLOAD DUP1 SWAP2 SUB SWAP1 REVERT JUMPDEST PUSH1 0x3 PUSH1 0x4 ADD PUSH0 SWAP1 SLOAD SWAP1 PUSH2 0x100 EXP SWAP1 DIV PUSH1 0xFF AND ISZERO PUSH2 0x68E JUMPI PUSH1 0x40 MLOAD PUSH32 0x8C379A000000000000000000000000000000000000000000000000000000000 DUP2 MSTORE PUSH1 0x4 ADD PUSH2 0x685 SWAP1 PUSH2 0x31F5 JUMP JUMPDEST PUSH1 0x40 MLOAD DUP1 SWAP2 SUB SWAP1 REVERT JUMPDEST PUSH1 0x1 PUSH0 PUSH0 PUSH2 0x100 EXP DUP2 SLOAD DUP2 PUSH1 0xFF MUL NOT AND SWAP1 DUP4 ISZERO ISZERO MUL OR SWAP1 SSTORE POP PUSH1 0x2 PUSH0 PUSH1 0x1 PUSH2 0x100 EXP DUP2 SLOAD DUP2 PUSH1 0xFF MUL NOT AND SWAP1 DUP4 PUSH1 0x3 DUP2 GT ISZERO PUSH2 0x6CC JUMPI PUSH2 0x6CB PUSH2 0x29E2 JUMP JUMPDEST JUMPDEST MUL OR SWAP1 SSTORE POP PUSH0 PUSH0 SWAP1 POP PUSH20 0xEEEEEEEEEEEEEEEEEEEEEEEEEEEEEEEEEEEEEEEE PUSH20 0xFFFFFFFFFFFFFFFFFFFFFFFFFFFFFFFFFFFFFFFF AND DUP3 PUSH1 0xC0 ADD MLOAD PUSH1 0x40 ADD MLOAD PUSH20 0xFFFFFFFFFFFFFFFFFFFFFFFFFFFFFFFFFFFFFFFF AND SUB PUSH2 0x7AB JUMPI PUSH32 0x0 PUSH20 0xFFFFFFFFFFFFFFFFFFFFFFFFFFFFFFFFFFFFFFFF AND BALANCE SWAP1 POP DUP2 PUSH1 0x40 ADD MLOAD PUSH20 0xFFFFFFFFFFFFFFFFFFFFFFFFFFFFFFFFFFFFFFFF AND PUSH2 0x8FC DUP3 SWAP1 DUP2 ISZERO MUL SWAP1 PUSH1 0x40 MLOAD PUSH0 PUSH1 0x40 MLOAD DUP1 DUP4 SUB DUP2 DUP6 DUP9 DUP9 CALL SWAP4 POP POP POP POP ISZERO DUP1 ISZERO PUSH2 0x7A5 JUMPI RETURNDATASIZE PUSH0 PUSH0 RETURNDATACOPY RETURNDATASIZE PUSH0 REVERT JUMPDEST POP PUSH2 0x8D3 JUMP JUMPDEST PUSH0 DUP3 PUSH1 0xC0 ADD MLOAD PUSH1 0x40 ADD MLOAD SWAP1 POP DUP1 PUSH20 0xFFFFFFFFFFFFFFFFFFFFFFFFFFFFFFFFFFFFFFFF AND PUSH4 0x70A08231 PUSH32 0x0 PUSH1 0x40 MLOAD DUP3 PUSH4 0xFFFFFFFF AND PUSH1 0xE0 SHL DUP2 MSTORE PUSH1 0x4 ADD PUSH2 0x810 SWAP2 SWAP1 PUSH2 0x3222 JUMP JUMPDEST PUSH1 0x20 PUSH1 0x40 MLOAD DUP1 DUP4 SUB DUP2 DUP7 GAS STATICCALL ISZERO DUP1 ISZERO PUSH2 0x82B JUMPI RETURNDATASIZE PUSH0 PUSH0 RETURNDATACOPY RETURNDATASIZE PUSH0 REVERT JUMPDEST POP POP POP POP PUSH1 0x40 MLOAD RETURNDATASIZE PUSH1 0x1F NOT PUSH1 0x1F DUP3 ADD AND DUP3 ADD DUP1 PUSH1 0x40 MSTORE POP DUP2 ADD SWAP1 PUSH2 0x84F SWAP2 SWAP1 PUSH2 0x324F JUMP JUMPDEST SWAP2 POP DUP1 PUSH20 0xFFFFFFFFFFFFFFFFFFFFFFFFFFFFFFFFFFFFFFFF AND PUSH4 0xA9059CBB DUP5 PUSH1 0x40 ADD MLOAD DUP5 PUSH1 0x40 MLOAD DUP4 PUSH4 0xFFFFFFFF AND PUSH1 0xE0 SHL DUP2 MSTORE PUSH1 0x4 ADD PUSH2 0x890 SWAP3 SWAP2 SWAP1 PUSH2 0x327A JUMP JUMPDEST PUSH1 0x20 PUSH1 0x40 MLOAD DUP1 DUP4 SUB DUP2 PUSH0 DUP8 GAS CALL ISZERO DUP1 ISZERO PUSH2 0x8AC JUMPI RETURNDATASIZE PUSH0 PUSH0 RETURNDATACOPY RETURNDATASIZE PUSH0 REVERT JUMPDEST POP POP POP POP PUSH1 0x40 MLOAD RETURNDATASIZE PUSH1 0x1F NOT PUSH1 0x1F DUP3 ADD AND DUP3 ADD DUP1 PUSH1 0x40 MSTORE POP DUP2 ADD SWAP1 PUSH2 0x8D0 SWAP2 SWAP1 PUSH2 0x32CB JUMP JUMPDEST POP POP JUMPDEST PUSH2 0x909 PUSH1 0x7 PUSH0 PUSH32 0x0 DUP5 DUP7 PUSH1 0xC0 ADD MLOAD PUSH1 0x40 ADD MLOAD PUSH2 0x2294 JUMP JUMPDEST SWAP3 POP POP POP SWAP1 JUMP JUMPDEST PUSH0 PUSH0 PUSH0 PUSH0 SWAP1 SLOAD SWAP1 PUSH2 0x100 EXP SWAP1 DIV PUSH1 0xFF AND ISZERO PUSH2 0x960 JUMPI PUSH1 0x40 MLOAD PUSH32 0x8C379A000000000000000000000000000000000000000000000000000000000 DUP2 MSTORE PUSH1 0x4 ADD PUSH2 0x957 SWAP1 PUSH2 0x30BD JUMP JUMPDEST PUSH1 0x40 MLOAD DUP1 SWAP2 SUB SWAP1 REVERT JUMPDEST PUSH1 0x2 PUSH1 0x3 DUP2 GT ISZERO PUSH2 0x974 JUMPI PUSH2 0x973 PUSH2 0x29E2 JUMP JUMPDEST JUMPDEST PUSH0 PUSH1 0x1 SWAP1 SLOAD SWAP1 PUSH2 0x100 EXP SWAP1 DIV PUSH1 0xFF AND PUSH1 0x3 DUP2 GT ISZERO PUSH2 0x995 JUMPI PUSH2 0x994 PUSH2 0x29E2 JUMP JUMPDEST JUMPDEST SUB PUSH2 0x9D5 JUMPI PUSH1 0x40 MLOAD PUSH32 0x8C379A000000000000000000000000000000000000000000000000000000000 DUP2 MSTORE PUSH1 0x4 ADD PUSH2 0x9CC SWAP1 PUSH2 0x3125 JUMP JUMPDEST PUSH1 0x40 MLOAD DUP1 SWAP2 SUB SWAP1 REVERT JUMPDEST PUSH0 PUSH1 0x3 SWAP1 SLOAD SWAP1 PUSH2 0x100 EXP SWAP1 DIV PUSH20 0xFFFFFFFFFFFFFFFFFFFFFFFFFFFFFFFFFFFFFFFF AND PUSH20 0xFFFFFFFFFFFFFFFFFFFFFFFFFFFFFFFFFFFFFFFF AND PUSH4 0xBF40FAC1 PUSH1 0x40 MLOAD DUP1 PUSH1 0x40 ADD PUSH1 0x40 MSTORE DUP1 PUSH1 0x14 DUP2 MSTORE PUSH1 0x20 ADD PUSH32 0x52455345525645445F4D505F5452454153555259000000000000000000000000 DUP2 MSTORE POP PUSH1 0x40 MLOAD DUP3 PUSH4 0xFFFFFFFF AND PUSH1 0xE0 SHL DUP2 MSTORE PUSH1 0x4 ADD PUSH2 0xA64 SWAP2 SWAP1 PUSH2 0x2939 JUMP JUMPDEST PUSH1 0x20 PUSH1 0x40 MLOAD DUP1 DUP4 SUB DUP2 DUP7 GAS STATICCALL ISZERO DUP1 ISZERO PUSH2 0xA7F JUMPI RETURNDATASIZE PUSH0 PUSH0 RETURNDATACOPY RETURNDATASIZE PUSH0 REVERT JUMPDEST POP POP POP POP PUSH1 0x40 MLOAD RETURNDATASIZE PUSH1 0x1F NOT PUSH1 0x1F DUP3 ADD AND DUP3 ADD DUP1 PUSH1 0x40 MSTORE POP DUP2 ADD SWAP1 PUSH2 0xAA3 SWAP2 SWAP1 PUSH2 0x2FE0 JUMP JUMPDEST PUSH20 0xFFFFFFFFFFFFFFFFFFFFFFFFFFFFFFFFFFFFFFFF AND CALLER PUSH20 0xFFFFFFFFFFFFFFFFFFFFFFFFFFFFFFFFFFFFFFFF AND EQ PUSH2 0xB10 JUMPI PUSH1 0x40 MLOAD PUSH32 0x8C379A000000000000000000000000000000000000000000000000000000000 DUP2 MSTORE PUSH1 0x4 ADD PUSH2 0xB07 SWAP1 PUSH2 0x3340 JUMP JUMPDEST PUSH1 0x40 MLOAD DUP1 SWAP2 SUB SWAP1 REVERT JUMPDEST PUSH0 PUSH2 0xB19 PUSH2 0x2121 JUMP JUMPDEST SWAP1 POP PUSH0 PUSH1 0x3 DUP2 GT ISZERO PUSH2 0xB2E JUMPI PUSH2 0xB2D PUSH2 0x29E2 JUMP JUMPDEST JUMPDEST PUSH0 PUSH1 0x1 SWAP1 SLOAD SWAP1 PUSH2 0x100 EXP SWAP1 DIV PUSH1 0xFF AND PUSH1 0x3 DUP2 GT ISZERO PUSH2 0xB4F JUMPI PUSH2 0xB4E PUSH2 0x29E2 JUMP JUMPDEST JUMPDEST EQ PUSH2 0xB8F JUMPI PUSH1 0x40 MLOAD PUSH32 0x8C379A000000000000000000000000000000000000000000000000000000000 DUP2 MSTORE PUSH1 0x4 ADD PUSH2 0xB86 SWAP1 PUSH2 0x33A8 JUMP JUMPDEST PUSH1 0x40 MLOAD DUP1 SWAP2 SUB SWAP1 REVERT JUMPDEST PUSH1 0x1 PUSH0 PUSH0 PUSH2 0x100 EXP DUP2 SLOAD DUP2 PUSH1 0xFF MUL NOT AND SWAP1 DUP4 ISZERO ISZERO MUL OR SWAP1 SSTORE POP PUSH1 0x3 PUSH1 0x4 ADD PUSH0 SWAP1 SLOAD SWAP1 PUSH2 0x100 EXP SWAP1 DIV PUSH1 0xFF AND ISZERO PUSH2 0xBFA JUMPI PUSH1 0x40 MLOAD PUSH32 0x8C379A000000000000000000000000000000000000000000000000000000000 DUP2 MSTORE PUSH1 0x4 ADD PUSH2 0xBF1 SWAP1 PUSH2 0x3410 JUMP JUMPDEST PUSH1 0x40 MLOAD DUP1 SWAP2 SUB SWAP1 REVERT JUMPDEST PUSH1 0x1 PUSH1 0x3 PUSH1 0x4 ADD PUSH0 PUSH2 0x100 EXP DUP2 SLOAD DUP2 PUSH1 0xFF MUL NOT AND SWAP1 DUP4 ISZERO ISZERO MUL OR SWAP1 SSTORE POP PUSH1 0x1 SLOAD SWAP3 POP DUP3 PUSH1 0x3 DUP1 ADD DUP2 SWAP1 SSTORE POP PUSH0 DUP2 PUSH1 0xC0 ADD MLOAD PUSH1 0x40 ADD MLOAD SWAP1 POP PUSH20 0xEEEEEEEEEEEEEEEEEEEEEEEEEEEEEEEEEEEEEEEE PUSH20 0xFFFFFFFFFFFFFFFFFFFFFFFFFFFFFFFFFFFFFFFF AND DUP2 PUSH20 0xFFFFFFFFFFFFFFFFFFFFFFFFFFFFFFFFFFFFFFFF AND SUB PUSH2 0xCC1 JUMPI CALLER PUSH20 0xFFFFFFFFFFFFFFFFFFFFFFFFFFFFFFFFFFFFFFFF AND PUSH2 0x8FC DUP6 SWAP1 DUP2 ISZERO MUL SWAP1 PUSH1 0x40 MLOAD PUSH0 PUSH1 0x40 MLOAD DUP1 DUP4 SUB DUP2 DUP6 DUP9 DUP9 CALL SWAP4 POP POP POP POP ISZERO DUP1 ISZERO PUSH2 0xCBB JUMPI RETURNDATASIZE PUSH0 PUSH0 RETURNDATACOPY RETURNDATASIZE PUSH0 REVERT JUMPDEST POP PUSH2 0xD43 JUMP JUMPDEST PUSH0 DUP2 SWAP1 POP DUP1 PUSH20 0xFFFFFFFFFFFFFFFFFFFFFFFFFFFFFFFFFFFFFFFF AND PUSH4 0x95EA7B3 CALLER DUP8 PUSH1 0x40 MLOAD DUP4 PUSH4 0xFFFFFFFF AND PUSH1 0xE0 SHL DUP2 MSTORE PUSH1 0x4 ADD PUSH2 0xD00 SWAP3 SWAP2 SWAP1 PUSH2 0x327A JUMP JUMPDEST PUSH1 0x20 PUSH1 0x40 MLOAD DUP1 DUP4 SUB DUP2 PUSH0 DUP8 GAS CALL ISZERO DUP1 ISZERO PUSH2 0xD1C JUMPI RETURNDATASIZE PUSH0 PUSH0 RETURNDATACOPY RETURNDATASIZE PUSH0 REVERT JUMPDEST POP POP POP POP PUSH1 0x40 MLOAD RETURNDATASIZE PUSH1 0x1F NOT PUSH1 0x1F DUP3 ADD AND DUP3 ADD DUP1 PUSH1 0x40 MSTORE POP DUP2 ADD SWAP1 PUSH2 0xD40 SWAP2 SWAP1 PUSH2 0x32CB JUMP JUMPDEST POP POP JUMPDEST PUSH2 0xD79 PUSH1 0x3 PUSH0 PUSH32 0x0 DUP8 DUP7 PUSH1 0xC0 ADD MLOAD PUSH1 0x40 ADD MLOAD PUSH2 0x2294 JUMP JUMPDEST SWAP3 POP PUSH1 0x8 PUSH0 DUP7 DUP2 MSTORE PUSH1 0x20 ADD SWAP1 DUP2 MSTORE PUSH1 0x20 ADD PUSH0 KECCAK256 DUP4 SWAP1 DUP1 PUSH1 0x1 DUP2 SLOAD ADD DUP1 DUP3 SSTORE DUP1 SWAP2 POP POP PUSH1 0x1 SWAP1 SUB SWAP1 PUSH0 MSTORE PUSH1 0x20 PUSH0 KECCAK256 ADD PUSH0 SWAP1 SWAP2 SWAP1 SWAP2 SWAP1 SWAP2 POP SSTORE PUSH0 PUSH0 PUSH0 PUSH2 0x100 EXP DUP2 SLOAD DUP2 PUSH1 0xFF MUL NOT AND SWAP1 DUP4 ISZERO ISZERO MUL OR SWAP1 SSTORE POP POP POP SWAP2 POP SWAP2 JUMP JUMPDEST PUSH0 PUSH0 PUSH1 0x1 SWAP1 SLOAD SWAP1 PUSH2 0x100 EXP SWAP1 DIV PUSH1 0xFF AND SWAP1 POP SWAP1 JUMP JUMPDEST PUSH0 PUSH0 PUSH1 0x3 SWAP1 SLOAD SWAP1 PUSH2 0x100 EXP SWAP1 DIV PUSH20 0xFFFFFFFFFFFFFFFFFFFFFFFFFFFFFFFFFFFFFFFF AND PUSH20 0xFFFFFFFFFFFFFFFFFFFFFFFFFFFFFFFFFFFFFFFF AND PUSH4 0xBF40FAC1 PUSH1 0x40 MLOAD DUP1 PUSH1 0x40 ADD PUSH1 0x40 MSTORE DUP1 PUSH1 0x11 DUP2 MSTORE PUSH1 0x20 ADD PUSH32 0x52455345525645445F4D505F41444D494E000000000000000000000000000000 DUP2 MSTORE POP PUSH1 0x40 MLOAD DUP3 PUSH4 0xFFFFFFFF AND PUSH1 0xE0 SHL DUP2 MSTORE PUSH1 0x4 ADD PUSH2 0xE74 SWAP2 SWAP1 PUSH2 0x2939 JUMP JUMPDEST PUSH1 0x20 PUSH1 0x40 MLOAD DUP1 DUP4 SUB DUP2 DUP7 GAS STATICCALL ISZERO DUP1 ISZERO PUSH2 0xE8F JUMPI RETURNDATASIZE PUSH0 PUSH0 RETURNDATACOPY RETURNDATASIZE PUSH0 REVERT JUMPDEST POP POP POP POP PUSH1 0x40 MLOAD RETURNDATASIZE PUSH1 0x1F NOT PUSH1 0x1F DUP3 ADD AND DUP3 ADD DUP1 PUSH1 0x40 MSTORE POP DUP2 ADD SWAP1 PUSH2 0xEB3 SWAP2 SWAP1 PUSH2 0x2FE0 JUMP JUMPDEST PUSH20 0xFFFFFFFFFFFFFFFFFFFFFFFFFFFFFFFFFFFFFFFF AND CALLER PUSH20 0xFFFFFFFFFFFFFFFFFFFFFFFFFFFFFFFFFFFFFFFF AND EQ PUSH2 0xF20 JUMPI PUSH1 0x40 MLOAD PUSH32 0x8C379A000000000000000000000000000000000000000000000000000000000 DUP2 MSTORE PUSH1 0x4 ADD PUSH2 0xF17 SWAP1 PUSH2 0x3055 JUMP JUMPDEST PUSH1 0x40 MLOAD DUP1 SWAP2 SUB SWAP1 REVERT JUMPDEST PUSH1 0x2 PUSH1 0x3 DUP2 GT ISZERO PUSH2 0xF34 JUMPI PUSH2 0xF33 PUSH2 0x29E2 JUMP JUMPDEST JUMPDEST PUSH0 PUSH1 0x1 SWAP1 SLOAD SWAP1 PUSH2 0x100 EXP SWAP1 DIV PUSH1 0xFF AND PUSH1 0x3 DUP2 GT ISZERO PUSH2 0xF55 JUMPI PUSH2 0xF54 PUSH2 0x29E2 JUMP JUMPDEST JUMPDEST EQ PUSH2 0xF95 JUMPI PUSH1 0x40 MLOAD PUSH32 0x8C379A000000000000000000000000000000000000000000000000000000000 DUP2 MSTORE PUSH1 0x4 ADD PUSH2 0xF8C SWAP1 PUSH2 0x3478 JUMP JUMPDEST PUSH1 0x40 MLOAD DUP1 SWAP2 SUB SWAP1 REVERT JUMPDEST PUSH0 PUSH0 PUSH1 0x3 SWAP1 SLOAD SWAP1 PUSH2 0x100 EXP SWAP1 DIV PUSH20 0xFFFFFFFFFFFFFFFFFFFFFFFFFFFFFFFFFFFFFFFF AND PUSH20 0xFFFFFFFFFFFFFFFFFFFFFFFFFFFFFFFFFFFFFFFF AND PUSH4 0xBF40FAC1 PUSH1 0x40 MLOAD DUP1 PUSH1 0x40 ADD PUSH1 0x40 MSTORE DUP1 PUSH1 0x10 DUP2 MSTORE PUSH1 0x20 ADD PUSH32 0x52455345525645445F4D505F42414E4B00000000000000000000000000000000 DUP2 MSTORE POP PUSH1 0x40 MLOAD DUP3 PUSH4 0xFFFFFFFF AND PUSH1 0xE0 SHL DUP2 MSTORE PUSH1 0x4 ADD PUSH2 0x1025 SWAP2 SWAP1 PUSH2 0x2939 JUMP JUMPDEST PUSH1 0x20 PUSH1 0x40 MLOAD DUP1 DUP4 SUB DUP2 DUP7 GAS STATICCALL ISZERO DUP1 ISZERO PUSH2 0x1040 JUMPI RETURNDATASIZE PUSH0 PUSH0 RETURNDATACOPY RETURNDATASIZE PUSH0 REVERT JUMPDEST POP POP POP POP PUSH1 0x40 MLOAD RETURNDATASIZE PUSH1 0x1F NOT PUSH1 0x1F DUP3 ADD AND DUP3 ADD DUP1 PUSH1 0x40 MSTORE POP DUP2 ADD SWAP1 PUSH2 0x1064 SWAP2 SWAP1 PUSH2 0x2FE0 JUMP JUMPDEST SWAP1 POP PUSH20 0xEEEEEEEEEEEEEEEEEEEEEEEEEEEEEEEEEEEEEEEE PUSH20 0xFFFFFFFFFFFFFFFFFFFFFFFFFFFFFFFFFFFFFFFF AND DUP4 PUSH20 0xFFFFFFFFFFFFFFFFFFFFFFFFFFFFFFFFFFFFFFFF AND SUB PUSH2 0x1130 JUMPI PUSH32 0x0 PUSH20 0xFFFFFFFFFFFFFFFFFFFFFFFFFFFFFFFFFFFFFFFF AND BALANCE SWAP2 POP DUP1 PUSH20 0xFFFFFFFFFFFFFFFFFFFFFFFFFFFFFFFFFFFFFFFF AND PUSH2 0x8FC DUP4 SWAP1 DUP2 ISZERO MUL SWAP1 PUSH1 0x40 MLOAD PUSH0 PUSH1 0x40 MLOAD DUP1 DUP4 SUB DUP2 DUP6 DUP9 DUP9 CALL SWAP4 POP POP POP POP ISZERO DUP1 ISZERO PUSH2 0x112A JUMPI RETURNDATASIZE PUSH0 PUSH0 RETURNDATACOPY RETURNDATASIZE PUSH0 REVERT JUMPDEST POP PUSH2 0x124C JUMP JUMPDEST PUSH0 DUP4 SWAP1 POP DUP1 PUSH20 0xFFFFFFFFFFFFFFFFFFFFFFFFFFFFFFFFFFFFFFFF AND PUSH4 0x70A08231 PUSH32 0x0 PUSH1 0x40 MLOAD DUP3 PUSH4 0xFFFFFFFF AND PUSH1 0xE0 SHL DUP2 MSTORE PUSH1 0x4 ADD PUSH2 0x118D SWAP2 SWAP1 PUSH2 0x3222 JUMP JUMPDEST PUSH1 0x20 PUSH1 0x40 MLOAD DUP1 DUP4 SUB DUP2 DUP7 GAS STATICCALL ISZERO DUP1 ISZERO PUSH2 0x11A8 JUMPI RETURNDATASIZE PUSH0 PUSH0 RETURNDATACOPY RETURNDATASIZE PUSH0 REVERT JUMPDEST POP POP POP POP PUSH1 0x40 MLOAD RETURNDATASIZE PUSH1 0x1F NOT PUSH1 0x1F DUP3 ADD AND DUP3 ADD DUP1 PUSH1 0x40 MSTORE POP DUP2 ADD SWAP1 PUSH2 0x11CC SWAP2 SWAP1 PUSH2 0x324F JUMP JUMPDEST SWAP3 POP DUP1 PUSH20 0xFFFFFFFFFFFFFFFFFFFFFFFFFFFFFFFFFFFFFFFF AND PUSH4 0xA9059CBB DUP4 DUP6 PUSH1 0x40 MLOAD DUP4 PUSH4 0xFFFFFFFF AND PUSH1 0xE0 SHL DUP2 MSTORE PUSH1 0x4 ADD PUSH2 0x1209 SWAP3 SWAP2 SWAP1 PUSH2 0x327A JUMP JUMPDEST PUSH1 0x20 PUSH1 0x40 MLOAD DUP1 DUP4 SUB DUP2 PUSH0 DUP8 GAS CALL ISZERO DUP1 ISZERO PUSH2 0x1225 JUMPI RETURNDATASIZE PUSH0 PUSH0 RETURNDATACOPY RETURNDATASIZE PUSH0 REVERT JUMPDEST POP POP POP POP PUSH1 0x40 MLOAD RETURNDATASIZE PUSH1 0x1F NOT PUSH1 0x1F DUP3 ADD AND DUP3 ADD DUP1 PUSH1 0x40 MSTORE POP DUP2 ADD SWAP1 PUSH2 0x1249 SWAP2 SWAP1 PUSH2 0x32CB JUMP JUMPDEST POP POP JUMPDEST POP SWAP2 SWAP1 POP JUMP JUMPDEST PUSH2 0x125A PUSH2 0x26E5 JUMP JUMPDEST PUSH2 0x1262 PUSH2 0x2121 JUMP JUMPDEST SWAP1 POP SWAP1 JUMP JUMPDEST PUSH2 0x126F PUSH2 0x2764 JUMP JUMPDEST PUSH1 0x3 PUSH1 0x40 MLOAD DUP1 PUSH1 0xA0 ADD PUSH1 0x40 MSTORE SWAP1 DUP2 PUSH0 DUP3 ADD SLOAD DUP2 MSTORE PUSH1 0x20 ADD PUSH1 0x1 DUP3 ADD SLOAD DUP2 MSTORE PUSH1 0x20 ADD PUSH1 0x2 DUP3 ADD SLOAD DUP2 MSTORE PUSH1 0x20 ADD PUSH1 0x3 DUP3 ADD SLOAD DUP2 MSTORE PUSH1 0x20 ADD PUSH1 0x4 DUP3 ADD PUSH0 SWAP1 SLOAD SWAP1 PUSH2 0x100 EXP SWAP1 DIV PUSH1 0xFF AND ISZERO ISZERO ISZERO ISZERO DUP2 MSTORE POP POP SWAP1 POP SWAP1 JUMP JUMPDEST PUSH0 PUSH0 PUSH0 SWAP1 SLOAD SWAP1 PUSH2 0x100 EXP SWAP1 DIV PUSH1 0xFF AND ISZERO PUSH2 0x1311 JUMPI PUSH1 0x40 MLOAD PUSH32 0x8C379A000000000000000000000000000000000000000000000000000000000 DUP2 MSTORE PUSH1 0x4 ADD PUSH2 0x1308 SWAP1 PUSH2 0x30BD JUMP JUMPDEST PUSH1 0x40 MLOAD DUP1 SWAP2 SUB SWAP1 REVERT JUMPDEST PUSH1 0x2 PUSH1 0x3 DUP2 GT ISZERO PUSH2 0x1325 JUMPI PUSH2 0x1324 PUSH2 0x29E2 JUMP JUMPDEST JUMPDEST PUSH0 PUSH1 0x1 SWAP1 SLOAD SWAP1 PUSH2 0x100 EXP SWAP1 DIV PUSH1 0xFF AND PUSH1 0x3 DUP2 GT ISZERO PUSH2 0x1346 JUMPI PUSH2 0x1345 PUSH2 0x29E2 JUMP JUMPDEST JUMPDEST SUB PUSH2 0x1386 JUMPI PUSH1 0x40 MLOAD PUSH32 0x8C379A000000000000000000000000000000000000000000000000000000000 DUP2 MSTORE PUSH1 0x4 ADD PUSH2 0x137D SWAP1 PUSH2 0x3125 JUMP JUMPDEST PUSH1 0x40 MLOAD DUP1 SWAP2 SUB SWAP1 REVERT JUMPDEST PUSH0 PUSH1 0x3 SWAP1 SLOAD SWAP1 PUSH2 0x100 EXP SWAP1 DIV PUSH20 0xFFFFFFFFFFFFFFFFFFFFFFFFFFFFFFFFFFFFFFFF AND PUSH20 0xFFFFFFFFFFFFFFFFFFFFFFFFFFFFFFFFFFFFFFFF AND PUSH4 0xBF40FAC1 PUSH1 0x40 MLOAD DUP1 PUSH1 0x40 ADD PUSH1 0x40 MSTORE DUP1 PUSH1 0x14 DUP2 MSTORE PUSH1 0x20 ADD PUSH32 0x52455345525645445F4D505F5452454153555259000000000000000000000000 DUP2 MSTORE POP PUSH1 0x40 MLOAD DUP3 PUSH4 0xFFFFFFFF AND PUSH1 0xE0 SHL DUP2 MSTORE PUSH1 0x4 ADD PUSH2 0x1415 SWAP2 SWAP1 PUSH2 0x2939 JUMP JUMPDEST PUSH1 0x20 PUSH1 0x40 MLOAD DUP1 DUP4 SUB DUP2 DUP7 GAS STATICCALL ISZERO DUP1 ISZERO PUSH2 0x1430 JUMPI RETURNDATASIZE PUSH0 PUSH0 RETURNDATACOPY RETURNDATASIZE PUSH0 REVERT JUMPDEST POP POP POP POP PUSH1 0x40 MLOAD RETURNDATASIZE PUSH1 0x1F NOT PUSH1 0x1F DUP3 ADD AND DUP3 ADD DUP1 PUSH1 0x40 MSTORE POP DUP2 ADD SWAP1 PUSH2 0x1454 SWAP2 SWAP1 PUSH2 0x2FE0 JUMP JUMPDEST PUSH20 0xFFFFFFFFFFFFFFFFFFFFFFFFFFFFFFFFFFFFFFFF AND CALLER PUSH20 0xFFFFFFFFFFFFFFFFFFFFFFFFFFFFFFFFFFFFFFFF AND EQ PUSH2 0x14C1 JUMPI PUSH1 0x40 MLOAD PUSH32 0x8C379A000000000000000000000000000000000000000000000000000000000 DUP2 MSTORE PUSH1 0x4 ADD PUSH2 0x14B8 SWAP1 PUSH2 0x3340 JUMP JUMPDEST PUSH1 0x40 MLOAD DUP1 SWAP2 SUB SWAP1 REVERT JUMPDEST PUSH1 0x1 PUSH0 PUSH0 PUSH2 0x100 EXP DUP2 SLOAD DUP2 PUSH1 0xFF MUL NOT AND SWAP1 DUP4 ISZERO ISZERO MUL OR SWAP1 SSTORE POP PUSH0 PUSH2 0x14E3 PUSH2 0x2121 JUMP JUMPDEST SWAP1 POP PUSH1 0x3 DUP1 ADD SLOAD DUP5 LT ISZERO PUSH2 0x152C JUMPI PUSH1 0x40 MLOAD PUSH32 0x8C379A000000000000000000000000000000000000000000000000000000000 DUP2 MSTORE PUSH1 0x4 ADD PUSH2 0x1523 SWAP1 PUSH2 0x34E0 JUMP JUMPDEST PUSH1 0x40 MLOAD DUP1 SWAP2 SUB SWAP1 REVERT JUMPDEST PUSH0 DUP4 DUP6 PUSH2 0x1539 SWAP2 SWAP1 PUSH2 0x352B JUMP JUMPDEST SWAP1 POP PUSH1 0x3 PUSH1 0x4 ADD PUSH0 SWAP1 SLOAD SWAP1 PUSH2 0x100 EXP SWAP1 DIV PUSH1 0xFF AND PUSH2 0x158C JUMPI PUSH1 0x40 MLOAD PUSH32 0x8C379A000000000000000000000000000000000000000000000000000000000 DUP2 MSTORE PUSH1 0x4 ADD PUSH2 0x1583 SWAP1 PUSH2 0x35A8 JUMP JUMPDEST PUSH1 0x40 MLOAD DUP1 SWAP2 SUB SWAP1 REVERT JUMPDEST PUSH0 DUP3 PUSH1 0xC0 ADD MLOAD PUSH1 0x40 ADD MLOAD SWAP1 POP PUSH20 0xEEEEEEEEEEEEEEEEEEEEEEEEEEEEEEEEEEEEEEEE PUSH20 0xFFFFFFFFFFFFFFFFFFFFFFFFFFFFFFFFFFFFFFFF AND DUP2 PUSH20 0xFFFFFFFFFFFFFFFFFFFFFFFFFFFFFFFFFFFFFFFF AND SUB PUSH2 0x1627 JUMPI DUP2 CALLVALUE LT ISZERO PUSH2 0x1622 JUMPI PUSH1 0x40 MLOAD PUSH32 0x8C379A000000000000000000000000000000000000000000000000000000000 DUP2 MSTORE PUSH1 0x4 ADD PUSH2 0x1619 SWAP1 PUSH2 0x3610 JUMP JUMPDEST PUSH1 0x40 MLOAD DUP1 SWAP2 SUB SWAP1 REVERT JUMPDEST PUSH2 0x16CB JUMP JUMPDEST PUSH0 DUP2 SWAP1 POP DUP1 PUSH20 0xFFFFFFFFFFFFFFFFFFFFFFFFFFFFFFFFFFFFFFFF AND PUSH4 0x23B872DD CALLER PUSH32 0x0 DUP7 PUSH1 0x40 MLOAD DUP5 PUSH4 0xFFFFFFFF AND PUSH1 0xE0 SHL DUP2 MSTORE PUSH1 0x4 ADD PUSH2 0x1688 SWAP4 SWAP3 SWAP2 SWAP1 PUSH2 0x362E JUMP JUMPDEST PUSH1 0x20 PUSH1 0x40 MLOAD DUP1 DUP4 SUB DUP2 PUSH0 DUP8 GAS CALL ISZERO DUP1 ISZERO PUSH2 0x16A4 JUMPI RETURNDATASIZE PUSH0 PUSH0 RETURNDATACOPY RETURNDATASIZE PUSH0 REVERT JUMPDEST POP POP POP POP PUSH1 0x40 MLOAD RETURNDATASIZE PUSH1 0x1F NOT PUSH1 0x1F DUP3 ADD AND DUP3 ADD DUP1 PUSH1 0x40 MSTORE POP DUP2 ADD SWAP1 PUSH2 0x16C8 SWAP2 SWAP1 PUSH2 0x32CB JUMP JUMPDEST POP POP JUMPDEST PUSH0 PUSH1 0x3 DUP1 ADD SLOAD PUSH1 0x1 SLOAD PUSH2 0x16DE SWAP2 SWAP1 PUSH2 0x3663 JUMP JUMPDEST SWAP1 POP DUP6 PUSH1 0x3 DUP1 ADD SLOAD DUP3 PUSH2 0x16F1 SWAP2 SWAP1 PUSH2 0x352B JUMP JUMPDEST PUSH2 0x16FB SWAP2 SWAP1 PUSH2 0x352B JUMP JUMPDEST PUSH1 0x1 DUP2 SWAP1 SSTORE POP PUSH2 0x170A DUP5 PUSH2 0x2410 JUMP JUMPDEST PUSH2 0x1740 PUSH1 0x1 PUSH0 PUSH32 0x0 DUP7 DUP9 PUSH1 0xC0 ADD MLOAD PUSH1 0x40 ADD MLOAD PUSH2 0x2294 JUMP JUMPDEST SWAP5 POP PUSH1 0x8 PUSH0 DUP10 DUP2 MSTORE PUSH1 0x20 ADD SWAP1 DUP2 MSTORE PUSH1 0x20 ADD PUSH0 KECCAK256 DUP6 SWAP1 DUP1 PUSH1 0x1 DUP2 SLOAD ADD DUP1 DUP3 SSTORE DUP1 SWAP2 POP POP PUSH1 0x1 SWAP1 SUB SWAP1 PUSH0 MSTORE PUSH1 0x20 PUSH0 KECCAK256 ADD PUSH0 SWAP1 SWAP2 SWAP1 SWAP2 SWAP1 SWAP2 POP SSTORE PUSH0 PUSH1 0x3 PUSH1 0x4 ADD PUSH0 PUSH2 0x100 EXP DUP2 SLOAD DUP2 PUSH1 0xFF MUL NOT AND SWAP1 DUP4 ISZERO ISZERO MUL OR SWAP1 SSTORE POP PUSH0 PUSH0 PUSH0 PUSH2 0x100 EXP DUP2 SLOAD DUP2 PUSH1 0xFF MUL NOT AND SWAP1 DUP4 ISZERO ISZERO MUL OR SWAP1 SSTORE POP POP POP POP POP SWAP4 SWAP3 POP POP POP JUMP JUMPDEST PUSH1 0x60 PUSH1 0x8 PUSH0 DUP4 DUP2 MSTORE PUSH1 0x20 ADD SWAP1 DUP2 MSTORE PUSH1 0x20 ADD PUSH0 KECCAK256 DUP1 SLOAD DUP1 PUSH1 0x20 MUL PUSH1 0x20 ADD PUSH1 0x40 MLOAD SWAP1 DUP2 ADD PUSH1 0x40 MSTORE DUP1 SWAP3 SWAP2 SWAP1 DUP2 DUP2 MSTORE PUSH1 0x20 ADD DUP3 DUP1 SLOAD DUP1 ISZERO PUSH2 0x1811 JUMPI PUSH1 0x20 MUL DUP3 ADD SWAP2 SWAP1 PUSH0 MSTORE PUSH1 0x20 PUSH0 KECCAK256 SWAP1 JUMPDEST DUP2 SLOAD DUP2 MSTORE PUSH1 0x20 ADD SWAP1 PUSH1 0x1 ADD SWAP1 DUP1 DUP4 GT PUSH2 0x17FD JUMPI JUMPDEST POP POP POP POP POP SWAP1 POP SWAP2 SWAP1 POP JUMP JUMPDEST PUSH0 PUSH1 0x1 PUSH0 PUSH0 PUSH2 0x100 EXP DUP2 SLOAD DUP2 PUSH1 0xFF MUL NOT AND SWAP1 DUP4 ISZERO ISZERO MUL OR SWAP1 SSTORE POP TIMESTAMP PUSH1 0x3 PUSH1 0x1 ADD SLOAD GT ISZERO PUSH2 0x187F JUMPI PUSH1 0x40 MLOAD PUSH32 0x8C379A000000000000000000000000000000000000000000000000000000000 DUP2 MSTORE PUSH1 0x4 ADD PUSH2 0x1876 SWAP1 PUSH2 0x3706 JUMP JUMPDEST PUSH1 0x40 MLOAD DUP1 SWAP2 SUB SWAP1 REVERT JUMPDEST PUSH1 0x1 PUSH1 0x2 DUP2 GT ISZERO PUSH2 0x1893 JUMPI PUSH2 0x1892 PUSH2 0x29E2 JUMP JUMPDEST JUMPDEST PUSH0 PUSH1 0x2 SWAP1 SLOAD SWAP1 PUSH2 0x100 EXP SWAP1 DIV PUSH1 0xFF AND PUSH1 0x2 DUP2 GT ISZERO PUSH2 0x18B4 JUMPI PUSH2 0x18B3 PUSH2 0x29E2 JUMP JUMPDEST JUMPDEST SUB PUSH2 0x18F4 JUMPI PUSH1 0x40 MLOAD PUSH32 0x8C379A000000000000000000000000000000000000000000000000000000000 DUP2 MSTORE PUSH1 0x4 ADD PUSH2 0x18EB SWAP1 PUSH2 0x376E JUMP JUMPDEST PUSH1 0x40 MLOAD DUP1 SWAP2 SUB SWAP1 REVERT JUMPDEST PUSH0 PUSH1 0x3 DUP2 GT ISZERO PUSH2 0x1907 JUMPI PUSH2 0x1906 PUSH2 0x29E2 JUMP JUMPDEST JUMPDEST PUSH0 PUSH1 0x1 SWAP1 SLOAD SWAP1 PUSH2 0x100 EXP SWAP1 DIV PUSH1 0xFF AND PUSH1 0x3 DUP2 GT ISZERO PUSH2 0x1928 JUMPI PUSH2 0x1927 PUSH2 0x29E2 JUMP JUMPDEST JUMPDEST EQ PUSH2 0x1968 JUMPI PUSH1 0x40 MLOAD PUSH32 0x8C379A000000000000000000000000000000000000000000000000000000000 DUP2 MSTORE PUSH1 0x4 ADD PUSH2 0x195F SWAP1 PUSH2 0x37D6 JUMP JUMPDEST PUSH1 0x40 MLOAD DUP1 SWAP2 SUB SWAP1 REVERT JUMPDEST PUSH0 PUSH2 0x1971 PUSH2 0x2121 JUMP JUMPDEST SWAP1 POP PUSH2 0x1987 DUP2 PUSH1 0xC0 ADD MLOAD PUSH1 0xE0 ADD MLOAD PUSH0 ADD MLOAD PUSH2 0x247D JUMP JUMPDEST PUSH1 0x3 PUSH1 0x1 ADD PUSH0 DUP3 DUP3 SLOAD PUSH2 0x199A SWAP2 SWAP1 PUSH2 0x352B JUMP JUMPDEST SWAP3 POP POP DUP2 SWAP1 SSTORE POP DUP1 PUSH1 0xC0 ADD MLOAD PUSH1 0xE0 ADD MLOAD PUSH1 0x40 ADD MLOAD DUP4 LT ISZERO DUP1 ISZERO PUSH2 0x19C9 JUMPI POP DUP1 PUSH1 0xC0 ADD MLOAD PUSH1 0xE0 ADD MLOAD PUSH1 0x60 ADD MLOAD DUP4 GT ISZERO JUMPDEST PUSH2 0x1A08 JUMPI PUSH1 0x40 MLOAD PUSH32 0x8C379A000000000000000000000000000000000000000000000000000000000 DUP2 MSTORE PUSH1 0x4 ADD PUSH2 0x19FF SWAP1 PUSH2 0x3864 JUMP JUMPDEST PUSH1 0x40 MLOAD DUP1 SWAP2 SUB SWAP1 REVERT JUMPDEST PUSH0 DUP2 PUSH1 0xC0 ADD MLOAD PUSH1 0x40 ADD MLOAD SWAP1 POP PUSH2 0x1A3F DUP2 DUP6 PUSH32 0x0 PUSH2 0x256C JUMP JUMPDEST POP DUP4 PUSH1 0x1 PUSH0 DUP3 DUP3 SLOAD PUSH2 0x1A51 SWAP2 SWAP1 PUSH2 0x352B JUMP JUMPDEST SWAP3 POP POP DUP2 SWAP1 SSTORE POP PUSH1 0x3 PUSH0 ADD PUSH0 DUP2 SLOAD DUP1 SWAP3 SWAP2 SWAP1 PUSH2 0x1A6C SWAP1 PUSH2 0x3882 JUMP JUMPDEST SWAP2 SWAP1 POP SSTORE POP PUSH0 PUSH0 PUSH0 PUSH2 0x100 EXP DUP2 SLOAD DUP2 PUSH1 0xFF MUL NOT AND SWAP1 DUP4 ISZERO ISZERO MUL OR SWAP1 SSTORE POP POP POP SWAP2 SWAP1 POP JUMP JUMPDEST PUSH0 PUSH0 PUSH1 0x3 SWAP1 SLOAD SWAP1 PUSH2 0x100 EXP SWAP1 DIV PUSH20 0xFFFFFFFFFFFFFFFFFFFFFFFFFFFFFFFFFFFFFFFF AND PUSH20 0xFFFFFFFFFFFFFFFFFFFFFFFFFFFFFFFFFFFFFFFF AND PUSH4 0xBF40FAC1 PUSH1 0x40 MLOAD DUP1 PUSH1 0x40 ADD PUSH1 0x40 MSTORE DUP1 PUSH1 0x11 DUP2 MSTORE PUSH1 0x20 ADD PUSH32 0x52455345525645445F4D505F41444D494E000000000000000000000000000000 DUP2 MSTORE POP PUSH1 0x40 MLOAD DUP3 PUSH4 0xFFFFFFFF AND PUSH1 0xE0 SHL DUP2 MSTORE PUSH1 0x4 ADD PUSH2 0x1B20 SWAP2 SWAP1 PUSH2 0x2939 JUMP JUMPDEST PUSH1 0x20 PUSH1 0x40 MLOAD DUP1 DUP4 SUB DUP2 DUP7 GAS STATICCALL ISZERO DUP1 ISZERO PUSH2 0x1B3B JUMPI RETURNDATASIZE PUSH0 PUSH0 RETURNDATACOPY RETURNDATASIZE PUSH0 REVERT JUMPDEST POP POP POP POP PUSH1 0x40 MLOAD RETURNDATASIZE PUSH1 0x1F NOT PUSH1 0x1F DUP3 ADD AND DUP3 ADD DUP1 PUSH1 0x40 MSTORE POP DUP2 ADD SWAP1 PUSH2 0x1B5F SWAP2 SWAP1 PUSH2 0x2FE0 JUMP JUMPDEST PUSH20 0xFFFFFFFFFFFFFFFFFFFFFFFFFFFFFFFFFFFFFFFF AND CALLER PUSH20 0xFFFFFFFFFFFFFFFFFFFFFFFFFFFFFFFFFFFFFFFF AND EQ PUSH2 0x1BCC JUMPI PUSH1 0x40 MLOAD PUSH32 0x8C379A000000000000000000000000000000000000000000000000000000000 DUP2 MSTORE PUSH1 0x4 ADD PUSH2 0x1BC3 SWAP1 PUSH2 0x3055 JUMP JUMPDEST PUSH1 0x40 MLOAD DUP1 SWAP2 SUB SWAP1 REVERT JUMPDEST PUSH0 PUSH1 0x3 SWAP1 SLOAD SWAP1 PUSH2 0x100 EXP SWAP1 DIV PUSH20 0xFFFFFFFFFFFFFFFFFFFFFFFFFFFFFFFFFFFFFFFF AND PUSH20 0xFFFFFFFFFFFFFFFFFFFFFFFFFFFFFFFFFFFFFFFF AND PUSH4 0xBF40FAC1 PUSH1 0x40 MLOAD DUP1 PUSH1 0x40 ADD PUSH1 0x40 MSTORE DUP1 PUSH1 0x14 DUP2 MSTORE PUSH1 0x20 ADD PUSH32 0x52455345525645445F4D505F5245474953544552000000000000000000000000 DUP2 MSTORE POP PUSH1 0x40 MLOAD DUP3 PUSH4 0xFFFFFFFF AND PUSH1 0xE0 SHL DUP2 MSTORE PUSH1 0x4 ADD PUSH2 0x1C5B SWAP2 SWAP1 PUSH2 0x2939 JUMP JUMPDEST PUSH1 0x20 PUSH1 0x40 MLOAD DUP1 DUP4 SUB DUP2 DUP7 GAS STATICCALL ISZERO DUP1 ISZERO PUSH2 0x1C76 JUMPI RETURNDATASIZE PUSH0 PUSH0 RETURNDATACOPY RETURNDATASIZE PUSH0 REVERT JUMPDEST POP POP POP POP PUSH1 0x40 MLOAD RETURNDATASIZE PUSH1 0x1F NOT PUSH1 0x1F DUP3 ADD AND DUP3 ADD DUP1 PUSH1 0x40 MSTORE POP DUP2 ADD SWAP1 PUSH2 0x1C9A SWAP2 SWAP1 PUSH2 0x2FE0 JUMP JUMPDEST PUSH0 PUSH1 0x3 PUSH2 0x100 EXP DUP2 SLOAD DUP2 PUSH20 0xFFFFFFFFFFFFFFFFFFFFFFFFFFFFFFFFFFFFFFFF MUL NOT AND SWAP1 DUP4 PUSH20 0xFFFFFFFFFFFFFFFFFFFFFFFFFFFFFFFFFFFFFFFF AND MUL OR SWAP1 SSTORE POP PUSH1 0x1 SWAP1 POP SWAP1 JUMP JUMPDEST PUSH0 PUSH2 0x1CE9 PUSH2 0x2121 JUMP JUMPDEST PUSH1 0x40 ADD MLOAD PUSH20 0xFFFFFFFFFFFFFFFFFFFFFFFFFFFFFFFFFFFFFFFF AND CALLER PUSH20 0xFFFFFFFFFFFFFFFFFFFFFFFFFFFFFFFFFFFFFFFF AND EQ PUSH2 0x1D5A JUMPI PUSH1 0x40 MLOAD PUSH32 0x8C379A000000000000000000000000000000000000000000000000000000000 DUP2 MSTORE PUSH1 0x4 ADD PUSH2 0x1D51 SWAP1 PUSH2 0x3913 JUMP JUMPDEST PUSH1 0x40 MLOAD DUP1 SWAP2 SUB SWAP1 REVERT JUMPDEST PUSH0 PUSH0 SWAP1 SLOAD SWAP1 PUSH2 0x100 EXP SWAP1 DIV PUSH1 0xFF AND ISZERO PUSH2 0x1DA8 JUMPI PUSH1 0x40 MLOAD PUSH32 0x8C379A000000000000000000000000000000000000000000000000000000000 DUP2 MSTORE PUSH1 0x4 ADD PUSH2 0x1D9F SWAP1 PUSH2 0x30BD JUMP JUMPDEST PUSH1 0x40 MLOAD DUP1 SWAP2 SUB SWAP1 REVERT JUMPDEST PUSH1 0x2 PUSH1 0x3 DUP2 GT ISZERO PUSH2 0x1DBC JUMPI PUSH2 0x1DBB PUSH2 0x29E2 JUMP JUMPDEST JUMPDEST PUSH0 PUSH1 0x1 SWAP1 SLOAD SWAP1 PUSH2 0x100 EXP SWAP1 DIV PUSH1 0xFF AND PUSH1 0x3 DUP2 GT ISZERO PUSH2 0x1DDD JUMPI PUSH2 0x1DDC PUSH2 0x29E2 JUMP JUMPDEST JUMPDEST SUB PUSH2 0x1E1D JUMPI PUSH1 0x40 MLOAD PUSH32 0x8C379A000000000000000000000000000000000000000000000000000000000 DUP2 MSTORE PUSH1 0x4 ADD PUSH2 0x1E14 SWAP1 PUSH2 0x3125 JUMP JUMPDEST PUSH1 0x40 MLOAD DUP1 SWAP2 SUB SWAP1 REVERT JUMPDEST PUSH0 PUSH2 0x1E26 PUSH2 0x2121 JUMP JUMPDEST SWAP1 POP PUSH1 0x1 PUSH0 PUSH0 PUSH2 0x100 EXP DUP2 SLOAD DUP2 PUSH1 0xFF MUL NOT AND SWAP1 DUP4 ISZERO ISZERO MUL OR SWAP1 SSTORE POP PUSH1 0x1 PUSH1 0x3 DUP2 GT ISZERO PUSH2 0x1E55 JUMPI PUSH2 0x1E54 PUSH2 0x29E2 JUMP JUMPDEST JUMPDEST PUSH0 PUSH1 0x1 SWAP1 SLOAD SWAP1 PUSH2 0x100 EXP SWAP1 DIV PUSH1 0xFF AND PUSH1 0x3 DUP2 GT ISZERO PUSH2 0x1E76 JUMPI PUSH2 0x1E75 PUSH2 0x29E2 JUMP JUMPDEST JUMPDEST EQ PUSH2 0x1EB6 JUMPI PUSH1 0x40 MLOAD PUSH32 0x8C379A000000000000000000000000000000000000000000000000000000000 DUP2 MSTORE PUSH1 0x4 ADD PUSH2 0x1EAD SWAP1 PUSH2 0x397B JUMP JUMPDEST PUSH1 0x40 MLOAD DUP1 SWAP2 SUB SWAP1 REVERT JUMPDEST PUSH1 0x2 DUP1 DUP2 GT ISZERO PUSH2 0x1EC9 JUMPI PUSH2 0x1EC8 PUSH2 0x29E2 JUMP JUMPDEST JUMPDEST PUSH0 PUSH1 0x2 SWAP1 SLOAD SWAP1 PUSH2 0x100 EXP SWAP1 DIV PUSH1 0xFF AND PUSH1 0x2 DUP2 GT ISZERO PUSH2 0x1EEA JUMPI PUSH2 0x1EE9 PUSH2 0x29E2 JUMP JUMPDEST JUMPDEST SUB PUSH2 0x1F2A JUMPI PUSH1 0x40 MLOAD PUSH32 0x8C379A000000000000000000000000000000000000000000000000000000000 DUP2 MSTORE PUSH1 0x4 ADD PUSH2 0x1F21 SWAP1 PUSH2 0x39E3 JUMP JUMPDEST PUSH1 0x40 MLOAD DUP1 SWAP2 SUB SWAP1 REVERT JUMPDEST PUSH0 DUP2 PUSH1 0xC0 ADD MLOAD PUSH2 0x100 ADD MLOAD PUSH1 0x40 ADD MLOAD SWAP1 POP DUP1 PUSH1 0x1 SLOAD LT ISZERO PUSH2 0x1F80 JUMPI PUSH1 0x40 MLOAD PUSH32 0x8C379A000000000000000000000000000000000000000000000000000000000 DUP2 MSTORE PUSH1 0x4 ADD PUSH2 0x1F77 SWAP1 PUSH2 0x3A4B JUMP JUMPDEST PUSH1 0x40 MLOAD DUP1 SWAP2 SUB SWAP1 REVERT JUMPDEST PUSH0 DUP3 PUSH1 0x40 ADD MLOAD SWAP1 POP DUP2 PUSH1 0x1 PUSH0 DUP3 DUP3 SLOAD PUSH2 0x1F99 SWAP2 SWAP1 PUSH2 0x3663 JUMP JUMPDEST SWAP3 POP POP DUP2 SWAP1 SSTORE POP PUSH20 0xEEEEEEEEEEEEEEEEEEEEEEEEEEEEEEEEEEEEEEEE PUSH20 0xFFFFFFFFFFFFFFFFFFFFFFFFFFFFFFFFFFFFFFFF AND DUP4 PUSH1 0xC0 ADD MLOAD PUSH1 0x40 ADD MLOAD PUSH20 0xFFFFFFFFFFFFFFFFFFFFFFFFFFFFFFFFFFFFFFFF AND SUB PUSH2 0x2038 JUMPI DUP1 PUSH20 0xFFFFFFFFFFFFFFFFFFFFFFFFFFFFFFFFFFFFFFFF AND PUSH2 0x8FC DUP4 SWAP1 DUP2 ISZERO MUL SWAP1 PUSH1 0x40 MLOAD PUSH0 PUSH1 0x40 MLOAD DUP1 DUP4 SUB DUP2 DUP6 DUP9 DUP9 CALL SWAP4 POP POP POP POP ISZERO DUP1 ISZERO PUSH2 0x2032 JUMPI RETURNDATASIZE PUSH0 PUSH0 RETURNDATACOPY RETURNDATASIZE PUSH0 REVERT JUMPDEST POP PUSH2 0x20C2 JUMP JUMPDEST PUSH0 DUP4 PUSH1 0xC0 ADD MLOAD PUSH1 0x40 ADD MLOAD SWAP1 POP DUP1 PUSH20 0xFFFFFFFFFFFFFFFFFFFFFFFFFFFFFFFFFFFFFFFF AND PUSH4 0xA9059CBB DUP4 DUP6 PUSH1 0x40 MLOAD DUP4 PUSH4 0xFFFFFFFF AND PUSH1 0xE0 SHL DUP2 MSTORE PUSH1 0x4 ADD PUSH2 0x207F SWAP3 SWAP2 SWAP1 PUSH2 0x327A JUMP JUMPDEST PUSH1 0x20 PUSH1 0x40 MLOAD DUP1 DUP4 SUB DUP2 PUSH0 DUP8 GAS CALL ISZERO DUP1 ISZERO PUSH2 0x209B JUMPI RETURNDATASIZE PUSH0 PUSH0 RETURNDATACOPY RETURNDATASIZE PUSH0 REVERT JUMPDEST POP POP POP POP PUSH1 0x40 MLOAD RETURNDATASIZE PUSH1 0x1F NOT PUSH1 0x1F DUP3 ADD AND DUP3 ADD DUP1 PUSH1 0x40 MSTORE POP DUP2 ADD SWAP1 PUSH2 0x20BF SWAP2 SWAP1 PUSH2 0x32CB JUMP JUMPDEST POP POP JUMPDEST PUSH2 0x20CB DUP4 PUSH2 0x26A1 JUMP JUMPDEST PUSH2 0x2101 PUSH1 0x2 PUSH0 PUSH32 0x0 DUP6 DUP8 PUSH1 0xC0 ADD MLOAD PUSH1 0x40 ADD MLOAD PUSH2 0x2294 JUMP JUMPDEST SWAP4 POP PUSH0 PUSH0 PUSH0 PUSH2 0x100 EXP DUP2 SLOAD DUP2 PUSH1 0xFF MUL NOT AND SWAP1 DUP4 ISZERO ISZERO MUL OR SWAP1 SSTORE POP POP POP POP SWAP1 JUMP JUMPDEST PUSH2 0x2129 PUSH2 0x26E5 JUMP JUMPDEST PUSH0 PUSH1 0x3 SWAP1 SLOAD SWAP1 PUSH2 0x100 EXP SWAP1 DIV PUSH20 0xFFFFFFFFFFFFFFFFFFFFFFFFFFFFFFFFFFFFFFFF AND PUSH20 0xFFFFFFFFFFFFFFFFFFFFFFFFFFFFFFFFFFFFFFFF AND PUSH4 0xBF40FAC1 PUSH1 0x40 MLOAD DUP1 PUSH1 0x40 ADD PUSH1 0x40 MSTORE DUP1 PUSH1 0x20 DUP2 MSTORE PUSH1 0x20 ADD PUSH32 0x52455345525645445F4D4544414C4C494F4E5F50454E53494F4E535F434F5245 DUP2 MSTORE POP PUSH1 0x40 MLOAD DUP3 PUSH4 0xFFFFFFFF AND PUSH1 0xE0 SHL DUP2 MSTORE PUSH1 0x4 ADD PUSH2 0x21B8 SWAP2 SWAP1 PUSH2 0x2939 JUMP JUMPDEST PUSH1 0x20 PUSH1 0x40 MLOAD DUP1 DUP4 SUB DUP2 DUP7 GAS STATICCALL ISZERO DUP1 ISZERO PUSH2 0x21D3 JUMPI RETURNDATASIZE PUSH0 PUSH0 RETURNDATACOPY RETURNDATASIZE PUSH0 REVERT JUMPDEST POP POP POP POP PUSH1 0x40 MLOAD RETURNDATASIZE PUSH1 0x1F NOT PUSH1 0x1F DUP3 ADD AND DUP3 ADD DUP1 PUSH1 0x40 MSTORE POP DUP2 ADD SWAP1 PUSH2 0x21F7 SWAP2 SWAP1 PUSH2 0x2FE0 JUMP JUMPDEST PUSH20 0xFFFFFFFFFFFFFFFFFFFFFFFFFFFFFFFFFFFFFFFF AND PUSH4 0x77BDFDF2 PUSH32 0x0 PUSH1 0x40 MLOAD DUP3 PUSH4 0xFFFFFFFF AND PUSH1 0xE0 SHL DUP2 MSTORE PUSH1 0x4 ADD PUSH2 0x224F SWAP2 SWAP1 PUSH2 0x28B0 JUMP JUMPDEST PUSH2 0x3C0 PUSH1 0x40 MLOAD DUP1 DUP4 SUB DUP2 DUP7 GAS STATICCALL ISZERO DUP1 ISZERO PUSH2 0x226B JUMPI RETURNDATASIZE PUSH0 PUSH0 RETURNDATACOPY RETURNDATASIZE PUSH0 REVERT JUMPDEST POP POP POP POP PUSH1 0x40 MLOAD RETURNDATASIZE PUSH1 0x1F NOT PUSH1 0x1F DUP3 ADD AND DUP3 ADD DUP1 PUSH1 0x40 MSTORE POP DUP2 ADD SWAP1 PUSH2 0x228F SWAP2 SWAP1 PUSH2 0x3DFC JUMP JUMPDEST SWAP1 POP SWAP1 JUMP JUMPDEST PUSH0 PUSH0 PUSH1 0x3 SWAP1 SLOAD SWAP1 PUSH2 0x100 EXP SWAP1 DIV PUSH20 0xFFFFFFFFFFFFFFFFFFFFFFFFFFFFFFFFFFFFFFFF AND PUSH20 0xFFFFFFFFFFFFFFFFFFFFFFFFFFFFFFFFFFFFFFFF AND PUSH4 0xBF40FAC1 PUSH1 0x40 MLOAD DUP1 PUSH1 0x40 ADD PUSH1 0x40 MSTORE DUP1 PUSH1 0x16 DUP2 MSTORE PUSH1 0x20 ADD PUSH32 0x52455345525645445F4D505F54585F4D414E4147455200000000000000000000 DUP2 MSTORE POP PUSH1 0x40 MLOAD DUP3 PUSH4 0xFFFFFFFF AND PUSH1 0xE0 SHL DUP2 MSTORE PUSH1 0x4 ADD PUSH2 0x2324 SWAP2 SWAP1 PUSH2 0x2939 JUMP JUMPDEST PUSH1 0x20 PUSH1 0x40 MLOAD DUP1 DUP4 SUB DUP2 DUP7 GAS STATICCALL ISZERO DUP1 ISZERO PUSH2 0x233F JUMPI RETURNDATASIZE PUSH0 PUSH0 RETURNDATACOPY RETURNDATASIZE PUSH0 REVERT JUMPDEST POP POP POP POP PUSH1 0x40 MLOAD RETURNDATASIZE PUSH1 0x1F NOT PUSH1 0x1F DUP3 ADD AND DUP3 ADD DUP1 PUSH1 0x40 MSTORE POP DUP2 ADD SWAP1 PUSH2 0x2363 SWAP2 SWAP1 PUSH2 0x2FE0 JUMP JUMPDEST PUSH20 0xFFFFFFFFFFFFFFFFFFFFFFFFFFFFFFFFFFFFFFFF AND PUSH4 0xEE16E639 DUP8 DUP8 DUP8 PUSH32 0x0 DUP9 DUP9 PUSH1 0x40 MLOAD DUP8 PUSH4 0xFFFFFFFF AND PUSH1 0xE0 SHL DUP2 MSTORE PUSH1 0x4 ADD PUSH2 0x23C5 SWAP7 SWAP6 SWAP5 SWAP4 SWAP3 SWAP2 SWAP1 PUSH2 0x3EB4 JUMP JUMPDEST PUSH1 0x20 PUSH1 0x40 MLOAD DUP1 DUP4 SUB DUP2 PUSH0 DUP8 GAS CALL ISZERO DUP1 ISZERO PUSH2 0x23E1 JUMPI RETURNDATASIZE PUSH0 PUSH0 RETURNDATACOPY RETURNDATASIZE PUSH0 REVERT JUMPDEST POP POP POP POP PUSH1 0x40 MLOAD RETURNDATASIZE PUSH1 0x1F NOT PUSH1 0x1F DUP3 ADD AND DUP3 ADD DUP1 PUSH1 0x40 MSTORE POP DUP2 ADD SWAP1 PUSH2 0x2405 SWAP2 SWAP1 PUSH2 0x324F JUMP JUMPDEST SWAP1 POP SWAP6 SWAP5 POP POP POP POP POP JUMP JUMPDEST DUP1 PUSH1 0xC0 ADD MLOAD PUSH1 0xE0 ADD MLOAD PUSH1 0xA0 ADD MLOAD PUSH1 0x1 SLOAD LT PUSH2 0x247A JUMPI PUSH1 0x1 PUSH0 PUSH1 0x2 PUSH2 0x100 EXP DUP2 SLOAD DUP2 PUSH1 0xFF MUL NOT AND SWAP1 DUP4 PUSH1 0x2 DUP2 GT ISZERO PUSH2 0x244A JUMPI PUSH2 0x2449 PUSH2 0x29E2 JUMP JUMPDEST JUMPDEST MUL OR SWAP1 SSTORE POP PUSH1 0x1 PUSH0 PUSH1 0x1 PUSH2 0x100 EXP DUP2 SLOAD DUP2 PUSH1 0xFF MUL NOT AND SWAP1 DUP4 PUSH1 0x3 DUP2 GT ISZERO PUSH2 0x2474 JUMPI PUSH2 0x2473 PUSH2 0x29E2 JUMP JUMPDEST JUMPDEST MUL OR SWAP1 SSTORE POP JUMPDEST POP JUMP JUMPDEST PUSH0 PUSH3 0x15180 SWAP1 POP PUSH0 PUSH1 0x3 DUP2 GT ISZERO PUSH2 0x2497 JUMPI PUSH2 0x2496 PUSH2 0x29E2 JUMP JUMPDEST JUMPDEST DUP3 PUSH1 0x3 DUP2 GT ISZERO PUSH2 0x24AA JUMPI PUSH2 0x24A9 PUSH2 0x29E2 JUMP JUMPDEST JUMPDEST SUB ISZERO PUSH2 0x2567 JUMPI PUSH1 0x7 DUP2 PUSH2 0x24BD SWAP2 SWAP1 PUSH2 0x3F13 JUMP JUMPDEST SWAP1 POP PUSH1 0x1 PUSH1 0x3 DUP2 GT ISZERO PUSH2 0x24D3 JUMPI PUSH2 0x24D2 PUSH2 0x29E2 JUMP JUMPDEST JUMPDEST DUP3 PUSH1 0x3 DUP2 GT ISZERO PUSH2 0x24E6 JUMPI PUSH2 0x24E5 PUSH2 0x29E2 JUMP JUMPDEST JUMPDEST SUB ISZERO PUSH2 0x2567 JUMPI PUSH1 0x4 DUP2 PUSH2 0x24F9 SWAP2 SWAP1 PUSH2 0x3F13 JUMP JUMPDEST SWAP1 POP PUSH1 0x2 PUSH1 0x3 DUP2 GT ISZERO PUSH2 0x250F JUMPI PUSH2 0x250E PUSH2 0x29E2 JUMP JUMPDEST JUMPDEST DUP3 PUSH1 0x3 DUP2 GT ISZERO PUSH2 0x2522 JUMPI PUSH2 0x2521 PUSH2 0x29E2 JUMP JUMPDEST JUMPDEST SUB ISZERO PUSH2 0x2567 JUMPI PUSH1 0x3 DUP2 PUSH2 0x2535 SWAP2 SWAP1 PUSH2 0x3F13 JUMP JUMPDEST SWAP1 POP PUSH1 0x3 DUP1 DUP2 GT ISZERO PUSH2 0x254A JUMPI PUSH2 0x2549 PUSH2 0x29E2 JUMP JUMPDEST JUMPDEST DUP3 PUSH1 0x3 DUP2 GT ISZERO PUSH2 0x255D JUMPI PUSH2 0x255C PUSH2 0x29E2 JUMP JUMPDEST JUMPDEST SUB ISZERO PUSH2 0x2567 JUMPI PUSH0 SWAP1 POP JUMPDEST SWAP2 SWAP1 POP JUMP JUMPDEST PUSH0 PUSH20 0xEEEEEEEEEEEEEEEEEEEEEEEEEEEEEEEEEEEEEEEE PUSH20 0xFFFFFFFFFFFFFFFFFFFFFFFFFFFFFFFFFFFFFFFF AND DUP5 PUSH20 0xFFFFFFFFFFFFFFFFFFFFFFFFFFFFFFFFFFFFFFFF AND SUB PUSH2 0x25FC JUMPI DUP3 CALLVALUE LT ISZERO PUSH2 0x25F7 JUMPI PUSH1 0x40 MLOAD PUSH32 0x8C379A000000000000000000000000000000000000000000000000000000000 DUP2 MSTORE PUSH1 0x4 ADD PUSH2 0x25EE SWAP1 PUSH2 0x3F9E JUMP JUMPDEST PUSH1 0x40 MLOAD DUP1 SWAP2 SUB SWAP1 REVERT JUMPDEST PUSH2 0x2680 JUMP JUMPDEST PUSH0 DUP5 SWAP1 POP DUP1 PUSH20 0xFFFFFFFFFFFFFFFFFFFFFFFFFFFFFFFFFFFFFFFF AND PUSH4 0x23B872DD CALLER DUP6 DUP8 PUSH1 0x40 MLOAD DUP5 PUSH4 0xFFFFFFFF AND PUSH1 0xE0 SHL DUP2 MSTORE PUSH1 0x4 ADD PUSH2 0x263D SWAP4 SWAP3 SWAP2 SWAP1 PUSH2 0x362E JUMP JUMPDEST PUSH1 0x20 PUSH1 0x40 MLOAD DUP1 DUP4 SUB DUP2 PUSH0 DUP8 GAS CALL ISZERO DUP1 ISZERO PUSH2 0x2659 JUMPI RETURNDATASIZE PUSH0 PUSH0 RETURNDATACOPY RETURNDATASIZE PUSH0 REVERT JUMPDEST POP POP POP POP PUSH1 0x40 MLOAD RETURNDATASIZE PUSH1 0x1F NOT PUSH1 0x1F DUP3 ADD AND DUP3 ADD DUP1 PUSH1 0x40 MSTORE POP DUP2 ADD SWAP1 PUSH2 0x267D SWAP2 SWAP1 PUSH2 0x32CB JUMP JUMPDEST POP POP JUMPDEST DUP2 PUSH20 0xFFFFFFFFFFFFFFFFFFFFFFFFFFFFFFFFFFFFFFFF AND BALANCE SWAP1 POP SWAP4 SWAP3 POP POP POP JUMP JUMPDEST DUP1 PUSH1 0xC0 ADD MLOAD PUSH2 0x100 ADD MLOAD PUSH1 0xA0 ADD MLOAD PUSH1 0x2 SLOAD LT PUSH2 0x26E2 JUMPI PUSH1 0x2 PUSH0 PUSH1 0x2 PUSH2 0x100 EXP DUP2 SLOAD DUP2 PUSH1 0xFF MUL NOT AND SWAP1 DUP4 PUSH1 0x2 DUP2 GT ISZERO PUSH2 0x26DC JUMPI PUSH2 0x26DB PUSH2 0x29E2 JUMP JUMPDEST JUMPDEST MUL OR SWAP1 SSTORE POP JUMPDEST POP JUMP JUMPDEST PUSH1 0x40 MLOAD DUP1 PUSH1 0xE0 ADD PUSH1 0x40 MSTORE DUP1 PUSH0 DUP2 MSTORE PUSH1 0x20 ADD PUSH0 PUSH20 0xFFFFFFFFFFFFFFFFFFFFFFFFFFFFFFFFFFFFFFFF AND DUP2 MSTORE PUSH1 0x20 ADD PUSH0 PUSH20 0xFFFFFFFFFFFFFFFFFFFFFFFFFFFFFFFFFFFFFFFF AND DUP2 MSTORE PUSH1 0x20 ADD PUSH0 PUSH20 0xFFFFFFFFFFFFFFFFFFFFFFFFFFFFFFFFFFFFFFFF AND DUP2 MSTORE PUSH1 0x20 ADD PUSH0 DUP2 MSTORE PUSH1 0x20 ADD PUSH0 DUP2 MSTORE PUSH1 0x20 ADD PUSH2 0x275E PUSH2 0x2790 JUMP JUMPDEST DUP2 MSTORE POP SWAP1 JUMP JUMPDEST PUSH1 0x40 MLOAD DUP1 PUSH1 0xA0 ADD PUSH1 0x40 MSTORE DUP1 PUSH0 DUP2 MSTORE PUSH1 0x20 ADD PUSH0 DUP2 MSTORE PUSH1 0x20 ADD PUSH0 DUP2 MSTORE PUSH1 0x20 ADD PUSH0 DUP2 MSTORE PUSH1 0x20 ADD PUSH0 ISZERO ISZERO DUP2 MSTORE POP SWAP1 JUMP JUMPDEST PUSH1 0x40 MLOAD DUP1 PUSH2 0x1A0 ADD PUSH1 0x40 MSTORE DUP1 PUSH0 DUP2 MSTORE PUSH1 0x20 ADD PUSH0 PUSH20 0xFFFFFFFFFFFFFFFFFFFFFFFFFFFFFFFFFFFFFFFF AND DUP2 MSTORE PUSH1 0x20 ADD PUSH0 PUSH20 0xFFFFFFFFFFFFFFFFFFFFFFFFFFFFFFFFFFFFFFFF AND DUP2 MSTORE PUSH1 0x20 ADD PUSH0 DUP2 MSTORE PUSH1 0x20 ADD PUSH0 DUP2 MSTORE PUSH1 0x20 ADD PUSH0 DUP2 MSTORE PUSH1 0x20 ADD PUSH0 PUSH1 0x2 DUP2 GT ISZERO PUSH2 0x27FF JUMPI PUSH2 0x27FE PUSH2 0x29E2 JUMP JUMPDEST JUMPDEST DUP2 MSTORE PUSH1 0x20 ADD PUSH2 0x280C PUSH2 0x283E JUMP JUMPDEST DUP2 MSTORE PUSH1 0x20 ADD PUSH2 0x2819 PUSH2 0x283E JUMP JUMPDEST DUP2 MSTORE PUSH1 0x20 ADD PUSH2 0x2826 PUSH2 0x2880 JUMP JUMPDEST DUP2 MSTORE PUSH1 0x20 ADD PUSH0 DUP2 MSTORE PUSH1 0x20 ADD PUSH0 DUP2 MSTORE PUSH1 0x20 ADD PUSH0 DUP2 MSTORE POP SWAP1 JUMP JUMPDEST PUSH1 0x40 MLOAD DUP1 PUSH1 0xC0 ADD PUSH1 0x40 MSTORE DUP1 PUSH0 PUSH1 0x3 DUP2 GT ISZERO PUSH2 0x285C JUMPI PUSH2 0x285B PUSH2 0x29E2 JUMP JUMPDEST JUMPDEST DUP2 MSTORE PUSH1 0x20 ADD PUSH0 DUP2 MSTORE PUSH1 0x20 ADD PUSH0 DUP2 MSTORE PUSH1 0x20 ADD PUSH0 DUP2 MSTORE PUSH1 0x20 ADD PUSH0 DUP2 MSTORE PUSH1 0x20 ADD PUSH0 DUP2 MSTORE POP SWAP1 JUMP JUMPDEST PUSH1 0x40 MLOAD DUP1 PUSH1 0x40 ADD PUSH1 0x40 MSTORE DUP1 PUSH0 DUP2 MSTORE PUSH1 0x20 ADD PUSH0 DUP2 MSTORE POP SWAP1 JUMP JUMPDEST PUSH0 DUP2 SWAP1 POP SWAP2 SWAP1 POP JUMP JUMPDEST PUSH2 0x28AA DUP2 PUSH2 0x2898 JUMP JUMPDEST DUP3 MSTORE POP POP JUMP JUMPDEST PUSH0 PUSH1 0x20 DUP3 ADD SWAP1 POP PUSH2 0x28C3 PUSH0 DUP4 ADD DUP5 PUSH2 0x28A1 JUMP JUMPDEST SWAP3 SWAP2 POP POP JUMP JUMPDEST PUSH0 DUP2 MLOAD SWAP1 POP SWAP2 SWAP1 POP JUMP JUMPDEST PUSH0 DUP3 DUP3 MSTORE PUSH1 0x20 DUP3 ADD SWAP1 POP SWAP3 SWAP2 POP POP JUMP JUMPDEST DUP3 DUP2 DUP4 MCOPY PUSH0 DUP4 DUP4 ADD MSTORE POP POP POP JUMP JUMPDEST PUSH0 PUSH1 0x1F NOT PUSH1 0x1F DUP4 ADD AND SWAP1 POP SWAP2 SWAP1 POP JUMP JUMPDEST PUSH0 PUSH2 0x290B DUP3 PUSH2 0x28C9 JUMP JUMPDEST PUSH2 0x2915 DUP2 DUP6 PUSH2 0x28D3 JUMP JUMPDEST SWAP4 POP PUSH2 0x2925 DUP2 DUP6 PUSH1 0x20 DUP7 ADD PUSH2 0x28E3 JUMP JUMPDEST PUSH2 0x292E DUP2 PUSH2 0x28F1 JUMP JUMPDEST DUP5 ADD SWAP2 POP POP SWAP3 SWAP2 POP POP JUMP JUMPDEST PUSH0 PUSH1 0x20 DUP3 ADD SWAP1 POP DUP2 DUP2 SUB PUSH0 DUP4 ADD MSTORE PUSH2 0x2951 DUP2 DUP5 PUSH2 0x2901 JUMP JUMPDEST SWAP1 POP SWAP3 SWAP2 POP POP JUMP JUMPDEST PUSH0 PUSH1 0x40 MLOAD SWAP1 POP SWAP1 JUMP JUMPDEST PUSH0 PUSH0 REVERT JUMPDEST PUSH2 0x296F DUP2 PUSH2 0x2898 JUMP JUMPDEST DUP2 EQ PUSH2 0x2979 JUMPI PUSH0 PUSH0 REVERT JUMPDEST POP JUMP JUMPDEST PUSH0 DUP2 CALLDATALOAD SWAP1 POP PUSH2 0x298A DUP2 PUSH2 0x2966 JUMP JUMPDEST SWAP3 SWAP2 POP POP JUMP JUMPDEST PUSH0 PUSH1 0x20 DUP3 DUP5 SUB SLT ISZERO PUSH2 0x29A5 JUMPI PUSH2 0x29A4 PUSH2 0x2962 JUMP JUMPDEST JUMPDEST PUSH0 PUSH2 0x29B2 DUP5 DUP3 DUP6 ADD PUSH2 0x297C JUMP JUMPDEST SWAP2 POP POP SWAP3 SWAP2 POP POP JUMP JUMPDEST PUSH0 PUSH1 0x40 DUP3 ADD SWAP1 POP PUSH2 0x29CE PUSH0 DUP4 ADD DUP6 PUSH2 0x28A1 JUMP JUMPDEST PUSH2 0x29DB PUSH1 0x20 DUP4 ADD DUP5 PUSH2 0x28A1 JUMP JUMPDEST SWAP4 SWAP3 POP POP POP JUMP JUMPDEST PUSH32 0x4E487B7100000000000000000000000000000000000000000000000000000000 PUSH0 MSTORE PUSH1 0x21 PUSH1 0x4 MSTORE PUSH1 0x24 PUSH0 REVERT JUMPDEST PUSH1 0x4 DUP2 LT PUSH2 0x2A20 JUMPI PUSH2 0x2A1F PUSH2 0x29E2 JUMP JUMPDEST JUMPDEST POP JUMP JUMPDEST PUSH0 DUP2 SWAP1 POP PUSH2 0x2A30 DUP3 PUSH2 0x2A0F JUMP JUMPDEST SWAP2 SWAP1 POP JUMP JUMPDEST PUSH0 PUSH2 0x2A3F DUP3 PUSH2 0x2A23 JUMP JUMPDEST SWAP1 POP SWAP2 SWAP1 POP JUMP JUMPDEST PUSH2 0x2A4F DUP2 PUSH2 0x2A35 JUMP JUMPDEST DUP3 MSTORE POP POP JUMP JUMPDEST PUSH0 PUSH1 0x20 DUP3 ADD SWAP1 POP PUSH2 0x2A68 PUSH0 DUP4 ADD DUP5 PUSH2 0x2A46 JUMP JUMPDEST SWAP3 SWAP2 POP POP JUMP JUMPDEST PUSH0 PUSH20 0xFFFFFFFFFFFFFFFFFFFFFFFFFFFFFFFFFFFFFFFF DUP3 AND SWAP1 POP SWAP2 SWAP1 POP JUMP JUMPDEST PUSH0 PUSH2 0x2A97 DUP3 PUSH2 0x2A6E JUMP JUMPDEST SWAP1 POP SWAP2 SWAP1 POP JUMP JUMPDEST PUSH2 0x2AA7 DUP2 PUSH2 0x2A8D JUMP JUMPDEST DUP2 EQ PUSH2 0x2AB1 JUMPI PUSH0 PUSH0 REVERT JUMPDEST POP JUMP JUMPDEST PUSH0 DUP2 CALLDATALOAD SWAP1 POP PUSH2 0x2AC2 DUP2 PUSH2 0x2A9E JUMP JUMPDEST SWAP3 SWAP2 POP POP JUMP JUMPDEST PUSH0 PUSH1 0x20 DUP3 DUP5 SUB SLT ISZERO PUSH2 0x2ADD JUMPI PUSH2 0x2ADC PUSH2 0x2962 JUMP JUMPDEST JUMPDEST PUSH0 PUSH2 0x2AEA DUP5 DUP3 DUP6 ADD PUSH2 0x2AB4 JUMP JUMPDEST SWAP2 POP POP SWAP3 SWAP2 POP POP JUMP JUMPDEST PUSH2 0x2AFC DUP2 PUSH2 0x2898 JUMP JUMPDEST DUP3 MSTORE POP POP JUMP JUMPDEST PUSH2 0x2B0B DUP2 PUSH2 0x2A8D JUMP JUMPDEST DUP3 MSTORE POP POP JUMP JUMPDEST PUSH1 0x3 DUP2 LT PUSH2 0x2B22 JUMPI PUSH2 0x2B21 PUSH2 0x29E2 JUMP JUMPDEST JUMPDEST POP JUMP JUMPDEST PUSH0 DUP2 SWAP1 POP PUSH2 0x2B32 DUP3 PUSH2 0x2B11 JUMP JUMPDEST SWAP2 SWAP1 POP JUMP JUMPDEST PUSH0 PUSH2 0x2B41 DUP3 PUSH2 0x2B25 JUMP JUMPDEST SWAP1 POP SWAP2 SWAP1 POP JUMP JUMPDEST PUSH2 0x2B51 DUP2 PUSH2 0x2B37 JUMP JUMPDEST DUP3 MSTORE POP POP JUMP JUMPDEST PUSH1 0x4 DUP2 LT PUSH2 0x2B68 JUMPI PUSH2 0x2B67 PUSH2 0x29E2 JUMP JUMPDEST JUMPDEST POP JUMP JUMPDEST PUSH0 DUP2 SWAP1 POP PUSH2 0x2B78 DUP3 PUSH2 0x2B57 JUMP JUMPDEST SWAP2 SWAP1 POP JUMP JUMPDEST PUSH0 PUSH2 0x2B87 DUP3 PUSH2 0x2B6B JUMP JUMPDEST SWAP1 POP SWAP2 SWAP1 POP JUMP JUMPDEST PUSH2 0x2B97 DUP2 PUSH2 0x2B7D JUMP JUMPDEST DUP3 MSTORE POP POP JUMP JUMPDEST PUSH1 0xC0 DUP3 ADD PUSH0 DUP3 ADD MLOAD PUSH2 0x2BB1 PUSH0 DUP6 ADD DUP3 PUSH2 0x2B8E JUMP JUMPDEST POP PUSH1 0x20 DUP3 ADD MLOAD PUSH2 0x2BC4 PUSH1 0x20 DUP6 ADD DUP3 PUSH2 0x2AF3 JUMP JUMPDEST POP PUSH1 0x40 DUP3 ADD MLOAD PUSH2 0x2BD7 PUSH1 0x40 DUP6 ADD DUP3 PUSH2 0x2AF3 JUMP JUMPDEST POP PUSH1 0x60 DUP3 ADD MLOAD PUSH2 0x2BEA PUSH1 0x60 DUP6 ADD DUP3 PUSH2 0x2AF3 JUMP JUMPDEST POP PUSH1 0x80 DUP3 ADD MLOAD PUSH2 0x2BFD PUSH1 0x80 DUP6 ADD DUP3 PUSH2 0x2AF3 JUMP JUMPDEST POP PUSH1 0xA0 DUP3 ADD MLOAD PUSH2 0x2C10 PUSH1 0xA0 DUP6 ADD DUP3 PUSH2 0x2AF3 JUMP JUMPDEST POP POP POP POP JUMP JUMPDEST PUSH1 0x40 DUP3 ADD PUSH0 DUP3 ADD MLOAD PUSH2 0x2C2A PUSH0 DUP6 ADD DUP3 PUSH2 0x2AF3 JUMP JUMPDEST POP PUSH1 0x20 DUP3 ADD MLOAD PUSH2 0x2C3D PUSH1 0x20 DUP6 ADD DUP3 PUSH2 0x2AF3 JUMP JUMPDEST POP POP POP POP JUMP JUMPDEST PUSH2 0x300 DUP3 ADD PUSH0 DUP3 ADD MLOAD PUSH2 0x2C58 PUSH0 DUP6 ADD DUP3 PUSH2 0x2AF3 JUMP JUMPDEST POP PUSH1 0x20 DUP3 ADD MLOAD PUSH2 0x2C6B PUSH1 0x20 DUP6 ADD DUP3 PUSH2 0x2B02 JUMP JUMPDEST POP PUSH1 0x40 DUP3 ADD MLOAD PUSH2 0x2C7E PUSH1 0x40 DUP6 ADD DUP3 PUSH2 0x2B02 JUMP JUMPDEST POP PUSH1 0x60 DUP3 ADD MLOAD PUSH2 0x2C91 PUSH1 0x60 DUP6 ADD DUP3 PUSH2 0x2AF3 JUMP JUMPDEST POP PUSH1 0x80 DUP3 ADD MLOAD PUSH2 0x2CA4 PUSH1 0x80 DUP6 ADD DUP3 PUSH2 0x2AF3 JUMP JUMPDEST POP PUSH1 0xA0 DUP3 ADD MLOAD PUSH2 0x2CB7 PUSH1 0xA0 DUP6 ADD DUP3 PUSH2 0x2AF3 JUMP JUMPDEST POP PUSH1 0xC0 DUP3 ADD MLOAD PUSH2 0x2CCA PUSH1 0xC0 DUP6 ADD DUP3 PUSH2 0x2B48 JUMP JUMPDEST POP PUSH1 0xE0 DUP3 ADD MLOAD PUSH2 0x2CDD PUSH1 0xE0 DUP6 ADD DUP3 PUSH2 0x2B9D JUMP JUMPDEST POP PUSH2 0x100 DUP3 ADD MLOAD PUSH2 0x2CF2 PUSH2 0x1A0 DUP6 ADD DUP3 PUSH2 0x2B9D JUMP JUMPDEST POP PUSH2 0x120 DUP3 ADD MLOAD PUSH2 0x2D07 PUSH2 0x260 DUP6 ADD DUP3 PUSH2 0x2C16 JUMP JUMPDEST POP PUSH2 0x140 DUP3 ADD MLOAD PUSH2 0x2D1C PUSH2 0x2A0 DUP6 ADD DUP3 PUSH2 0x2AF3 JUMP JUMPDEST POP PUSH2 0x160 DUP3 ADD MLOAD PUSH2 0x2D31 PUSH2 0x2C0 DUP6 ADD DUP3 PUSH2 0x2AF3 JUMP JUMPDEST POP PUSH2 0x180 DUP3 ADD MLOAD PUSH2 0x2D46 PUSH2 0x2E0 DUP6 ADD DUP3 PUSH2 0x2AF3 JUMP JUMPDEST POP POP POP POP JUMP JUMPDEST PUSH2 0x3C0 DUP3 ADD PUSH0 DUP3 ADD MLOAD PUSH2 0x2D61 PUSH0 DUP6 ADD DUP3 PUSH2 0x2AF3 JUMP JUMPDEST POP PUSH1 0x20 DUP3 ADD MLOAD PUSH2 0x2D74 PUSH1 0x20 DUP6 ADD DUP3 PUSH2 0x2B02 JUMP JUMPDEST POP PUSH1 0x40 DUP3 ADD MLOAD PUSH2 0x2D87 PUSH1 0x40 DUP6 ADD DUP3 PUSH2 0x2B02 JUMP JUMPDEST POP PUSH1 0x60 DUP3 ADD MLOAD PUSH2 0x2D9A PUSH1 0x60 DUP6 ADD DUP3 PUSH2 0x2B02 JUMP JUMPDEST POP PUSH1 0x80 DUP3 ADD MLOAD PUSH2 0x2DAD PUSH1 0x80 DUP6 ADD DUP3 PUSH2 0x2AF3 JUMP JUMPDEST POP PUSH1 0xA0 DUP3 ADD MLOAD PUSH2 0x2DC0 PUSH1 0xA0 DUP6 ADD DUP3 PUSH2 0x2AF3 JUMP JUMPDEST POP PUSH1 0xC0 DUP3 ADD MLOAD PUSH2 0x2DD3 PUSH1 0xC0 DUP6 ADD DUP3 PUSH2 0x2C43 JUMP JUMPDEST POP POP POP POP JUMP JUMPDEST PUSH0 PUSH2 0x3C0 DUP3 ADD SWAP1 POP PUSH2 0x2DED PUSH0 DUP4 ADD DUP5 PUSH2 0x2D4C JUMP JUMPDEST SWAP3 SWAP2 POP POP JUMP JUMPDEST PUSH0 DUP2 ISZERO ISZERO SWAP1 POP SWAP2 SWAP1 POP JUMP JUMPDEST PUSH2 0x2E07 DUP2 PUSH2 0x2DF3 JUMP JUMPDEST DUP3 MSTORE POP POP JUMP JUMPDEST PUSH1 0xA0 DUP3 ADD PUSH0 DUP3 ADD MLOAD PUSH2 0x2E21 PUSH0 DUP6 ADD DUP3 PUSH2 0x2AF3 JUMP JUMPDEST POP PUSH1 0x20 DUP3 ADD MLOAD PUSH2 0x2E34 PUSH1 0x20 DUP6 ADD DUP3 PUSH2 0x2AF3 JUMP JUMPDEST POP PUSH1 0x40 DUP3 ADD MLOAD PUSH2 0x2E47 PUSH1 0x40 DUP6 ADD DUP3 PUSH2 0x2AF3 JUMP JUMPDEST POP PUSH1 0x60 DUP3 ADD MLOAD PUSH2 0x2E5A PUSH1 0x60 DUP6 ADD DUP3 PUSH2 0x2AF3 JUMP JUMPDEST POP PUSH1 0x80 DUP3 ADD MLOAD PUSH2 0x2E6D PUSH1 0x80 DUP6 ADD DUP3 PUSH2 0x2DFE JUMP JUMPDEST POP POP POP POP JUMP JUMPDEST PUSH0 PUSH1 0xA0 DUP3 ADD SWAP1 POP PUSH2 0x2E86 PUSH0 DUP4 ADD DUP5 PUSH2 0x2E0D JUMP JUMPDEST SWAP3 SWAP2 POP POP JUMP JUMPDEST PUSH0 PUSH0 PUSH0 PUSH1 0x60 DUP5 DUP7 SUB SLT ISZERO PUSH2 0x2EA3 JUMPI PUSH2 0x2EA2 PUSH2 0x2962 JUMP JUMPDEST JUMPDEST PUSH0 PUSH2 0x2EB0 DUP7 DUP3 DUP8 ADD PUSH2 0x297C JUMP JUMPDEST SWAP4 POP POP PUSH1 0x20 PUSH2 0x2EC1 DUP7 DUP3 DUP8 ADD PUSH2 0x297C JUMP JUMPDEST SWAP3 POP POP PUSH1 0x40 PUSH2 0x2ED2 DUP7 DUP3 DUP8 ADD PUSH2 0x297C JUMP JUMPDEST SWAP2 POP POP SWAP3 POP SWAP3 POP SWAP3 JUMP JUMPDEST PUSH0 DUP2 MLOAD SWAP1 POP SWAP2 SWAP1 POP JUMP JUMPDEST PUSH0 DUP3 DUP3 MSTORE PUSH1 0x20 DUP3 ADD SWAP1 POP SWAP3 SWAP2 POP POP JUMP JUMPDEST PUSH0 DUP2 SWAP1 POP PUSH1 0x20 DUP3 ADD SWAP1 POP SWAP2 SWAP1 POP JUMP JUMPDEST PUSH0 PUSH2 0x2F10 DUP4 DUP4 PUSH2 0x2AF3 JUMP JUMPDEST PUSH1 0x20 DUP4 ADD SWAP1 POP SWAP3 SWAP2 POP POP JUMP JUMPDEST PUSH0 PUSH1 0x20 DUP3 ADD SWAP1 POP SWAP2 SWAP1 POP JUMP JUMPDEST PUSH0 PUSH2 0x2F32 DUP3 PUSH2 0x2EDC JUMP JUMPDEST PUSH2 0x2F3C DUP2 DUP6 PUSH2 0x2EE6 JUMP JUMPDEST SWAP4 POP PUSH2 0x2F47 DUP4 PUSH2 0x2EF6 JUMP JUMPDEST DUP1 PUSH0 JUMPDEST DUP4 DUP2 LT ISZERO PUSH2 0x2F77 JUMPI DUP2 MLOAD PUSH2 0x2F5E DUP9 DUP3 PUSH2 0x2F05 JUMP JUMPDEST SWAP8 POP PUSH2 0x2F69 DUP4 PUSH2 0x2F1C JUMP JUMPDEST SWAP3 POP POP PUSH1 0x1 DUP2 ADD SWAP1 POP PUSH2 0x2F4A JUMP JUMPDEST POP DUP6 SWAP4 POP POP POP POP SWAP3 SWAP2 POP POP JUMP JUMPDEST PUSH0 PUSH1 0x20 DUP3 ADD SWAP1 POP DUP2 DUP2 SUB PUSH0 DUP4 ADD MSTORE PUSH2 0x2F9C DUP2 DUP5 PUSH2 0x2F28 JUMP JUMPDEST SWAP1 POP SWAP3 SWAP2 POP POP JUMP JUMPDEST PUSH2 0x2FAD DUP2 PUSH2 0x2DF3 JUMP JUMPDEST DUP3 MSTORE POP POP JUMP JUMPDEST PUSH0 PUSH1 0x20 DUP3 ADD SWAP1 POP PUSH2 0x2FC6 PUSH0 DUP4 ADD DUP5 PUSH2 0x2FA4 JUMP JUMPDEST SWAP3 SWAP2 POP POP JUMP JUMPDEST PUSH0 DUP2 MLOAD SWAP1 POP PUSH2 0x2FDA DUP2 PUSH2 0x2A9E JUMP JUMPDEST SWAP3 SWAP2 POP POP JUMP JUMPDEST PUSH0 PUSH1 0x20 DUP3 DUP5 SUB SLT ISZERO PUSH2 0x2FF5 JUMPI PUSH2 0x2FF4 PUSH2 0x2962 JUMP JUMPDEST JUMPDEST PUSH0 PUSH2 0x3002 DUP5 DUP3 DUP6 ADD PUSH2 0x2FCC JUMP JUMPDEST SWAP2 POP POP SWAP3 SWAP2 POP POP JUMP JUMPDEST PUSH32 0x50656E73696F6E2041646D696E204F6E6C790000000000000000000000000000 PUSH0 DUP3 ADD MSTORE POP JUMP JUMPDEST PUSH0 PUSH2 0x303F PUSH1 0x12 DUP4 PUSH2 0x28D3 JUMP JUMPDEST SWAP2 POP PUSH2 0x304A DUP3 PUSH2 0x300B JUMP JUMPDEST PUSH1 0x20 DUP3 ADD SWAP1 POP SWAP2 SWAP1 POP JUMP JUMPDEST PUSH0 PUSH1 0x20 DUP3 ADD SWAP1 POP DUP2 DUP2 SUB PUSH0 DUP4 ADD MSTORE PUSH2 0x306C DUP2 PUSH2 0x3033 JUMP JUMPDEST SWAP1 POP SWAP2 SWAP1 POP JUMP JUMPDEST PUSH32 0x7661756C74206C6F636B65640000000000000000000000000000000000000000 PUSH0 DUP3 ADD MSTORE POP JUMP JUMPDEST PUSH0 PUSH2 0x30A7 PUSH1 0xC DUP4 PUSH2 0x28D3 JUMP JUMPDEST SWAP2 POP PUSH2 0x30B2 DUP3 PUSH2 0x3073 JUMP JUMPDEST PUSH1 0x20 DUP3 ADD SWAP1 POP SWAP2 SWAP1 POP JUMP JUMPDEST PUSH0 PUSH1 0x20 DUP3 ADD SWAP1 POP DUP2 DUP2 SUB PUSH0 DUP4 ADD MSTORE PUSH2 0x30D4 DUP2 PUSH2 0x309B JUMP JUMPDEST SWAP1 POP SWAP2 SWAP1 POP JUMP JUMPDEST PUSH32 0x7661756C7420636C6F7365640000000000000000000000000000000000000000 PUSH0 DUP3 ADD MSTORE POP JUMP JUMPDEST PUSH0 PUSH2 0x310F PUSH1 0xC DUP4 PUSH2 0x28D3 JUMP JUMPDEST SWAP2 POP PUSH2 0x311A DUP3 PUSH2 0x30DB JUMP JUMPDEST PUSH1 0x20 DUP3 ADD SWAP1 POP SWAP2 SWAP1 POP JUMP JUMPDEST PUSH0 PUSH1 0x20 DUP3 ADD SWAP1 POP DUP2 DUP2 SUB PUSH0 DUP4 ADD MSTORE PUSH2 0x313C DUP2 PUSH2 0x3103 JUMP JUMPDEST SWAP1 POP SWAP2 SWAP1 POP JUMP JUMPDEST PUSH32 0x70656E73696F6E20636C6F736564000000000000000000000000000000000000 PUSH0 DUP3 ADD MSTORE POP JUMP JUMPDEST PUSH0 PUSH2 0x3177 PUSH1 0xE DUP4 PUSH2 0x28D3 JUMP JUMPDEST SWAP2 POP PUSH2 0x3182 DUP3 PUSH2 0x3143 JUMP JUMPDEST PUSH1 0x20 DUP3 ADD SWAP1 POP SWAP2 SWAP1 POP JUMP JUMPDEST PUSH0 PUSH1 0x20 DUP3 ADD SWAP1 POP DUP2 DUP2 SUB PUSH0 DUP4 ADD MSTORE PUSH2 0x31A4 DUP2 PUSH2 0x316B JUMP JUMPDEST SWAP1 POP SWAP2 SWAP1 POP JUMP JUMPDEST PUSH32 0x70656E73696F6E20696E20747265617375727900000000000000000000000000 PUSH0 DUP3 ADD MSTORE POP JUMP JUMPDEST PUSH0 PUSH2 0x31DF PUSH1 0x13 DUP4 PUSH2 0x28D3 JUMP JUMPDEST SWAP2 POP PUSH2 0x31EA DUP3 PUSH2 0x31AB JUMP JUMPDEST PUSH1 0x20 DUP3 ADD SWAP1 POP SWAP2 SWAP1 POP JUMP JUMPDEST PUSH0 PUSH1 0x20 DUP3 ADD SWAP1 POP DUP2 DUP2 SUB PUSH0 DUP4 ADD MSTORE PUSH2 0x320C DUP2 PUSH2 0x31D3 JUMP JUMPDEST SWAP1 POP SWAP2 SWAP1 POP JUMP JUMPDEST PUSH2 0x321C DUP2 PUSH2 0x2A8D JUMP JUMPDEST DUP3 MSTORE POP POP JUMP JUMPDEST PUSH0 PUSH1 0x20 DUP3 ADD SWAP1 POP PUSH2 0x3235 PUSH0 DUP4 ADD DUP5 PUSH2 0x3213 JUMP JUMPDEST SWAP3 SWAP2 POP POP JUMP JUMPDEST PUSH0 DUP2 MLOAD SWAP1 POP PUSH2 0x3249 DUP2 PUSH2 0x2966 JUMP JUMPDEST SWAP3 SWAP2 POP POP JUMP JUMPDEST PUSH0 PUSH1 0x20 DUP3 DUP5 SUB SLT ISZERO PUSH2 0x3264 JUMPI PUSH2 0x3263 PUSH2 0x2962 JUMP JUMPDEST JUMPDEST PUSH0 PUSH2 0x3271 DUP5 DUP3 DUP6 ADD PUSH2 0x323B JUMP JUMPDEST SWAP2 POP POP SWAP3 SWAP2 POP POP JUMP JUMPDEST PUSH0 PUSH1 0x40 DUP3 ADD SWAP1 POP PUSH2 0x328D PUSH0 DUP4 ADD DUP6 PUSH2 0x3213 JUMP JUMPDEST PUSH2 0x329A PUSH1 0x20 DUP4 ADD DUP5 PUSH2 0x28A1 JUMP JUMPDEST SWAP4 SWAP3 POP POP POP JUMP JUMPDEST PUSH2 0x32AA DUP2 PUSH2 0x2DF3 JUMP JUMPDEST DUP2 EQ PUSH2 0x32B4 JUMPI PUSH0 PUSH0 REVERT JUMPDEST POP JUMP JUMPDEST PUSH0 DUP2 MLOAD SWAP1 POP PUSH2 0x32C5 DUP2 PUSH2 0x32A1 JUMP JUMPDEST SWAP3 SWAP2 POP POP JUMP JUMPDEST PUSH0 PUSH1 0x20 DUP3 DUP5 SUB SLT ISZERO PUSH2 0x32E0 JUMPI PUSH2 0x32DF PUSH2 0x2962 JUMP JUMPDEST JUMPDEST PUSH0 PUSH2 0x32ED DUP5 DUP3 DUP6 ADD PUSH2 0x32B7 JUMP JUMPDEST SWAP2 POP POP SWAP3 SWAP2 POP POP JUMP JUMPDEST PUSH32 0x5472656173757279204F6E6C7900000000000000000000000000000000000000 PUSH0 DUP3 ADD MSTORE POP JUMP JUMPDEST PUSH0 PUSH2 0x332A PUSH1 0xD DUP4 PUSH2 0x28D3 JUMP JUMPDEST SWAP2 POP PUSH2 0x3335 DUP3 PUSH2 0x32F6 JUMP JUMPDEST PUSH1 0x20 DUP3 ADD SWAP1 POP SWAP2 SWAP1 POP JUMP JUMPDEST PUSH0 PUSH1 0x20 DUP3 ADD SWAP1 POP DUP2 DUP2 SUB PUSH0 DUP4 ADD MSTORE PUSH2 0x3357 DUP2 PUSH2 0x331E JUMP JUMPDEST SWAP1 POP SWAP2 SWAP1 POP JUMP JUMPDEST PUSH32 0x696E76616C69642070656E73696F6E2070756C6C207374617465000000000000 PUSH0 DUP3 ADD MSTORE POP JUMP JUMPDEST PUSH0 PUSH2 0x3392 PUSH1 0x1A DUP4 PUSH2 0x28D3 JUMP JUMPDEST SWAP2 POP PUSH2 0x339D DUP3 PUSH2 0x335E JUMP JUMPDEST PUSH1 0x20 DUP3 ADD SWAP1 POP SWAP2 SWAP1 POP JUMP JUMPDEST PUSH0 PUSH1 0x20 DUP3 ADD SWAP1 POP DUP2 DUP2 SUB PUSH0 DUP4 ADD MSTORE PUSH2 0x33BF DUP2 PUSH2 0x3386 JUMP JUMPDEST SWAP1 POP SWAP2 SWAP1 POP JUMP JUMPDEST PUSH32 0x7661756C7420616C72656164792070756C6C6564000000000000000000000000 PUSH0 DUP3 ADD MSTORE POP JUMP JUMPDEST PUSH0 PUSH2 0x33FA PUSH1 0x14 DUP4 PUSH2 0x28D3 JUMP JUMPDEST SWAP2 POP PUSH2 0x3405 DUP3 PUSH2 0x33C6 JUMP JUMPDEST PUSH1 0x20 DUP3 ADD SWAP1 POP SWAP2 SWAP1 POP JUMP JUMPDEST PUSH0 PUSH1 0x20 DUP3 ADD SWAP1 POP DUP2 DUP2 SUB PUSH0 DUP4 ADD MSTORE PUSH2 0x3427 DUP2 PUSH2 0x33EE JUMP JUMPDEST SWAP1 POP SWAP2 SWAP1 POP JUMP JUMPDEST PUSH32 0x70656E73696F6E206E6F7420636C6F7365640000000000000000000000000000 PUSH0 DUP3 ADD MSTORE POP JUMP JUMPDEST PUSH0 PUSH2 0x3462 PUSH1 0x12 DUP4 PUSH2 0x28D3 JUMP JUMPDEST SWAP2 POP PUSH2 0x346D DUP3 PUSH2 0x342E JUMP JUMPDEST PUSH1 0x20 DUP3 ADD SWAP1 POP SWAP2 SWAP1 POP JUMP JUMPDEST PUSH0 PUSH1 0x20 DUP3 ADD SWAP1 POP DUP2 DUP2 SUB PUSH0 DUP4 ADD MSTORE PUSH2 0x348F DUP2 PUSH2 0x3456 JUMP JUMPDEST SWAP1 POP SWAP2 SWAP1 POP JUMP JUMPDEST PUSH32 0x696E73756666696369656E74207072696E636970616C2072657475726E656400 PUSH0 DUP3 ADD MSTORE POP JUMP JUMPDEST PUSH0 PUSH2 0x34CA PUSH1 0x1F DUP4 PUSH2 0x28D3 JUMP JUMPDEST SWAP2 POP PUSH2 0x34D5 DUP3 PUSH2 0x3496 JUMP JUMPDEST PUSH1 0x20 DUP3 ADD SWAP1 POP SWAP2 SWAP1 POP JUMP JUMPDEST PUSH0 PUSH1 0x20 DUP3 ADD SWAP1 POP DUP2 DUP2 SUB PUSH0 DUP4 ADD MSTORE PUSH2 0x34F7 DUP2 PUSH2 0x34BE JUMP JUMPDEST SWAP1 POP SWAP2 SWAP1 POP JUMP JUMPDEST PUSH32 0x4E487B7100000000000000000000000000000000000000000000000000000000 PUSH0 MSTORE PUSH1 0x11 PUSH1 0x4 MSTORE PUSH1 0x24 PUSH0 REVERT JUMPDEST PUSH0 PUSH2 0x3535 DUP3 PUSH2 0x2898 JUMP JUMPDEST SWAP2 POP PUSH2 0x3540 DUP4 PUSH2 0x2898 JUMP JUMPDEST SWAP3 POP DUP3 DUP3 ADD SWAP1 POP DUP1 DUP3 GT ISZERO PUSH2 0x3558 JUMPI PUSH2 0x3557 PUSH2 0x34FE JUMP JUMPDEST JUMPDEST SWAP3 SWAP2 POP POP JUMP JUMPDEST PUSH32 0x7661756C74206E6F742070756C6C656400000000000000000000000000000000 PUSH0 DUP3 ADD MSTORE POP JUMP JUMPDEST PUSH0 PUSH2 0x3592 PUSH1 0x10 DUP4 PUSH2 0x28D3 JUMP JUMPDEST SWAP2 POP PUSH2 0x359D DUP3 PUSH2 0x355E JUMP JUMPDEST PUSH1 0x20 DUP3 ADD SWAP1 POP SWAP2 SWAP1 POP JUMP JUMPDEST PUSH0 PUSH1 0x20 DUP3 ADD SWAP1 POP DUP2 DUP2 SUB PUSH0 DUP4 ADD MSTORE PUSH2 0x35BF DUP2 PUSH2 0x3586 JUMP JUMPDEST SWAP1 POP SWAP2 SWAP1 POP JUMP JUMPDEST PUSH32 0x696E7375666669656E74207472616E736D69747465642076616C756500000000 PUSH0 DUP3 ADD MSTORE POP JUMP JUMPDEST PUSH0 PUSH2 0x35FA PUSH1 0x1C DUP4 PUSH2 0x28D3 JUMP JUMPDEST SWAP2 POP PUSH2 0x3605 DUP3 PUSH2 0x35C6 JUMP JUMPDEST PUSH1 0x20 DUP3 ADD SWAP1 POP SWAP2 SWAP1 POP JUMP JUMPDEST PUSH0 PUSH1 0x20 DUP3 ADD SWAP1 POP DUP2 DUP2 SUB PUSH0 DUP4 ADD MSTORE PUSH2 0x3627 DUP2 PUSH2 0x35EE JUMP JUMPDEST SWAP1 POP SWAP2 SWAP1 POP JUMP JUMPDEST PUSH0 PUSH1 0x60 DUP3 ADD SWAP1 POP PUSH2 0x3641 PUSH0 DUP4 ADD DUP7 PUSH2 0x3213 JUMP JUMPDEST PUSH2 0x364E PUSH1 0x20 DUP4 ADD DUP6 PUSH2 0x3213 JUMP JUMPDEST PUSH2 0x365B PUSH1 0x40 DUP4 ADD DUP5 PUSH2 0x28A1 JUMP JUMPDEST SWAP5 SWAP4 POP POP POP POP JUMP JUMPDEST PUSH0 PUSH2 0x366D DUP3 PUSH2 0x2898 JUMP JUMPDEST SWAP2 POP PUSH2 0x3678 DUP4 PUSH2 0x2898 JUMP JUMPDEST SWAP3 POP DUP3 DUP3 SUB SWAP1 POP DUP2 DUP2 GT ISZERO PUSH2 0x3690 JUMPI PUSH2 0x368F PUSH2 0x34FE JUMP JUMPDEST JUMPDEST SWAP3 SWAP2 POP POP JUMP JUMPDEST PUSH32 0x636F6E747269627574696F6E7320746F6F206672657175656E74207761697420 PUSH0 DUP3 ADD MSTORE PUSH32 0x7265717569726564200000000000000000000000000000000000000000000000 PUSH1 0x20 DUP3 ADD MSTORE POP JUMP JUMPDEST PUSH0 PUSH2 0x36F0 PUSH1 0x29 DUP4 PUSH2 0x28D3 JUMP JUMPDEST SWAP2 POP PUSH2 0x36FB DUP3 PUSH2 0x3696 JUMP JUMPDEST PUSH1 0x40 DUP3 ADD SWAP1 POP SWAP2 SWAP1 POP JUMP JUMPDEST PUSH0 PUSH1 0x20 DUP3 ADD SWAP1 POP DUP2 DUP2 SUB PUSH0 DUP4 ADD MSTORE PUSH2 0x371D DUP2 PUSH2 0x36E4 JUMP JUMPDEST SWAP1 POP SWAP2 SWAP1 POP JUMP JUMPDEST PUSH32 0x70656E73696F6E206D6174757265640000000000000000000000000000000000 PUSH0 DUP3 ADD MSTORE POP JUMP JUMPDEST PUSH0 PUSH2 0x3758 PUSH1 0xF DUP4 PUSH2 0x28D3 JUMP JUMPDEST SWAP2 POP PUSH2 0x3763 DUP3 PUSH2 0x3724 JUMP JUMPDEST PUSH1 0x20 DUP3 ADD SWAP1 POP SWAP2 SWAP1 POP JUMP JUMPDEST PUSH0 PUSH1 0x20 DUP3 ADD SWAP1 POP DUP2 DUP2 SUB PUSH0 DUP4 ADD MSTORE PUSH2 0x3785 DUP2 PUSH2 0x374C JUMP JUMPDEST SWAP1 POP SWAP2 SWAP1 POP JUMP JUMPDEST PUSH32 0x70656E73696F6E206E6F74206F70656E00000000000000000000000000000000 PUSH0 DUP3 ADD MSTORE POP JUMP JUMPDEST PUSH0 PUSH2 0x37C0 PUSH1 0x10 DUP4 PUSH2 0x28D3 JUMP JUMPDEST SWAP2 POP PUSH2 0x37CB DUP3 PUSH2 0x378C JUMP JUMPDEST PUSH1 0x20 DUP3 ADD SWAP1 POP SWAP2 SWAP1 POP JUMP JUMPDEST PUSH0 PUSH1 0x20 DUP3 ADD SWAP1 POP DUP2 DUP2 SUB PUSH0 DUP4 ADD MSTORE PUSH2 0x37ED DUP2 PUSH2 0x37B4 JUMP JUMPDEST SWAP1 POP SWAP2 SWAP1 POP JUMP JUMPDEST PUSH32 0x696E76616C696420636F6E747269627574696F6E206569746865722072616973 PUSH0 DUP3 ADD MSTORE PUSH32 0x65206F72206C6F77657220616D6F756E74000000000000000000000000000000 PUSH1 0x20 DUP3 ADD MSTORE POP JUMP JUMPDEST PUSH0 PUSH2 0x384E PUSH1 0x31 DUP4 PUSH2 0x28D3 JUMP JUMPDEST SWAP2 POP PUSH2 0x3859 DUP3 PUSH2 0x37F4 JUMP JUMPDEST PUSH1 0x40 DUP3 ADD SWAP1 POP SWAP2 SWAP1 POP JUMP JUMPDEST PUSH0 PUSH1 0x20 DUP3 ADD SWAP1 POP DUP2 DUP2 SUB PUSH0 DUP4 ADD MSTORE PUSH2 0x387B DUP2 PUSH2 0x3842 JUMP JUMPDEST SWAP1 POP SWAP2 SWAP1 POP JUMP JUMPDEST PUSH0 PUSH2 0x388C DUP3 PUSH2 0x2898 JUMP JUMPDEST SWAP2 POP PUSH32 0xFFFFFFFFFFFFFFFFFFFFFFFFFFFFFFFFFFFFFFFFFFFFFFFFFFFFFFFFFFFFFFFF DUP3 SUB PUSH2 0x38BE JUMPI PUSH2 0x38BD PUSH2 0x34FE JUMP JUMPDEST JUMPDEST PUSH1 0x1 DUP3 ADD SWAP1 POP SWAP2 SWAP1 POP JUMP JUMPDEST PUSH32 0x6F776E6572206F6E6C7900000000000000000000000000000000000000000000 PUSH0 DUP3 ADD MSTORE POP JUMP JUMPDEST PUSH0 PUSH2 0x38FD PUSH1 0xA DUP4 PUSH2 0x28D3 JUMP JUMPDEST SWAP2 POP PUSH2 0x3908 DUP3 PUSH2 0x38C9 JUMP JUMPDEST PUSH1 0x20 DUP3 ADD SWAP1 POP SWAP2 SWAP1 POP JUMP JUMPDEST PUSH0 PUSH1 0x20 DUP3 ADD SWAP1 POP DUP2 DUP2 SUB PUSH0 DUP4 ADD MSTORE PUSH2 0x392A DUP2 PUSH2 0x38F1 JUMP JUMPDEST SWAP1 POP SWAP2 SWAP1 POP JUMP JUMPDEST PUSH32 0x696E76616C69642070656E73696F6E2073746174757300000000000000000000 PUSH0 DUP3 ADD MSTORE POP JUMP JUMPDEST PUSH0 PUSH2 0x3965 PUSH1 0x16 DUP4 PUSH2 0x28D3 JUMP JUMPDEST SWAP2 POP PUSH2 0x3970 DUP3 PUSH2 0x3931 JUMP JUMPDEST PUSH1 0x20 DUP3 ADD SWAP1 POP SWAP2 SWAP1 POP JUMP JUMPDEST PUSH0 PUSH1 0x20 DUP3 ADD SWAP1 POP DUP2 DUP2 SUB PUSH0 DUP4 ADD MSTORE PUSH2 0x3992 DUP2 PUSH2 0x3959 JUMP JUMPDEST SWAP1 POP SWAP2 SWAP1 POP JUMP JUMPDEST PUSH32 0x70656E73696F6E20736574746C65640000000000000000000000000000000000 PUSH0 DUP3 ADD MSTORE POP JUMP JUMPDEST PUSH0 PUSH2 0x39CD PUSH1 0xF DUP4 PUSH2 0x28D3 JUMP JUMPDEST SWAP2 POP PUSH2 0x39D8 DUP3 PUSH2 0x3999 JUMP JUMPDEST PUSH1 0x20 DUP3 ADD SWAP1 POP SWAP2 SWAP1 POP JUMP JUMPDEST PUSH0 PUSH1 0x20 DUP3 ADD SWAP1 POP DUP2 DUP2 SUB PUSH0 DUP4 ADD MSTORE PUSH2 0x39FA DUP2 PUSH2 0x39C1 JUMP JUMPDEST SWAP1 POP SWAP2 SWAP1 POP JUMP JUMPDEST PUSH32 0x696E73756666696369656E7420656D6D697373696F6E2062616C616E63650000 PUSH0 DUP3 ADD MSTORE POP JUMP JUMPDEST PUSH0 PUSH2 0x3A35 PUSH1 0x1E DUP4 PUSH2 0x28D3 JUMP JUMPDEST SWAP2 POP PUSH2 0x3A40 DUP3 PUSH2 0x3A01 JUMP JUMPDEST PUSH1 0x20 DUP3 ADD SWAP1 POP SWAP2 SWAP1 POP JUMP JUMPDEST PUSH0 PUSH1 0x20 DUP3 ADD SWAP1 POP DUP2 DUP2 SUB PUSH0 DUP4 ADD MSTORE PUSH2 0x3A62 DUP2 PUSH2 0x3A29 JUMP JUMPDEST SWAP1 POP SWAP2 SWAP1 POP JUMP JUMPDEST PUSH0 PUSH0 REVERT JUMPDEST PUSH32 0x4E487B7100000000000000000000000000000000000000000000000000000000 PUSH0 MSTORE PUSH1 0x41 PUSH1 0x4 MSTORE PUSH1 0x24 PUSH0 REVERT JUMPDEST PUSH2 0x3AA3 DUP3 PUSH2 0x28F1 JUMP JUMPDEST DUP2 ADD DUP2 DUP2 LT PUSH8 0xFFFFFFFFFFFFFFFF DUP3 GT OR ISZERO PUSH2 0x3AC2 JUMPI PUSH2 0x3AC1 PUSH2 0x3A6D JUMP JUMPDEST JUMPDEST DUP1 PUSH1 0x40 MSTORE POP POP POP JUMP JUMPDEST PUSH0 PUSH2 0x3AD4 PUSH2 0x2959 JUMP JUMPDEST SWAP1 POP PUSH2 0x3AE0 DUP3 DUP3 PUSH2 0x3A9A JUMP JUMPDEST SWAP2 SWAP1 POP JUMP JUMPDEST PUSH1 0x3 DUP2 LT PUSH2 0x3AF1 JUMPI PUSH0 PUSH0 REVERT JUMPDEST POP JUMP JUMPDEST PUSH0 DUP2 MLOAD SWAP1 POP PUSH2 0x3B02 DUP2 PUSH2 0x3AE5 JUMP JUMPDEST SWAP3 SWAP2 POP POP JUMP JUMPDEST PUSH1 0x4 DUP2 LT PUSH2 0x3B14 JUMPI PUSH0 PUSH0 REVERT JUMPDEST POP JUMP JUMPDEST PUSH0 DUP2 MLOAD SWAP1 POP PUSH2 0x3B25 DUP2 PUSH2 0x3B08 JUMP JUMPDEST SWAP3 SWAP2 POP POP JUMP JUMPDEST PUSH0 PUSH1 0xC0 DUP3 DUP5 SUB SLT ISZERO PUSH2 0x3B40 JUMPI PUSH2 0x3B3F PUSH2 0x3A69 JUMP JUMPDEST JUMPDEST PUSH2 0x3B4A PUSH1 0xC0 PUSH2 0x3ACB JUMP JUMPDEST SWAP1 POP PUSH0 PUSH2 0x3B59 DUP5 DUP3 DUP6 ADD PUSH2 0x3B17 JUMP JUMPDEST PUSH0 DUP4 ADD MSTORE POP PUSH1 0x20 PUSH2 0x3B6C DUP5 DUP3 DUP6 ADD PUSH2 0x323B JUMP JUMPDEST PUSH1 0x20 DUP4 ADD MSTORE POP PUSH1 0x40 PUSH2 0x3B80 DUP5 DUP3 DUP6 ADD PUSH2 0x323B JUMP JUMPDEST PUSH1 0x40 DUP4 ADD MSTORE POP PUSH1 0x60 PUSH2 0x3B94 DUP5 DUP3 DUP6 ADD PUSH2 0x323B JUMP JUMPDEST PUSH1 0x60 DUP4 ADD MSTORE POP PUSH1 0x80 PUSH2 0x3BA8 DUP5 DUP3 DUP6 ADD PUSH2 0x323B JUMP JUMPDEST PUSH1 0x80 DUP4 ADD MSTORE POP PUSH1 0xA0 PUSH2 0x3BBC DUP5 DUP3 DUP6 ADD PUSH2 0x323B JUMP JUMPDEST PUSH1 0xA0 DUP4 ADD MSTORE POP SWAP3 SWAP2 POP POP JUMP JUMPDEST PUSH0 PUSH1 0x40 DUP3 DUP5 SUB SLT ISZERO PUSH2 0x3BDD JUMPI PUSH2 0x3BDC PUSH2 0x3A69 JUMP JUMPDEST JUMPDEST PUSH2 0x3BE7 PUSH1 0x40 PUSH2 0x3ACB JUMP JUMPDEST SWAP1 POP PUSH0 PUSH2 0x3BF6 DUP5 DUP3 DUP6 ADD PUSH2 0x323B JUMP JUMPDEST PUSH0 DUP4 ADD MSTORE POP PUSH1 0x20 PUSH2 0x3C09 DUP5 DUP3 DUP6 ADD PUSH2 0x323B JUMP JUMPDEST PUSH1 0x20 DUP4 ADD MSTORE POP SWAP3 SWAP2 POP POP JUMP JUMPDEST PUSH0 PUSH2 0x300 DUP3 DUP5 SUB SLT ISZERO PUSH2 0x3C2B JUMPI PUSH2 0x3C2A PUSH2 0x3A69 JUMP JUMPDEST JUMPDEST PUSH2 0x3C36 PUSH2 0x1A0 PUSH2 0x3ACB JUMP JUMPDEST SWAP1 POP PUSH0 PUSH2 0x3C45 DUP5 DUP3 DUP6 ADD PUSH2 0x323B JUMP JUMPDEST PUSH0 DUP4 ADD MSTORE POP PUSH1 0x20 PUSH2 0x3C58 DUP5 DUP3 DUP6 ADD PUSH2 0x2FCC JUMP JUMPDEST PUSH1 0x20 DUP4 ADD MSTORE POP PUSH1 0x40 PUSH2 0x3C6C DUP5 DUP3 DUP6 ADD PUSH2 0x2FCC JUMP JUMPDEST PUSH1 0x40 DUP4 ADD MSTORE POP PUSH1 0x60 PUSH2 0x3C80 DUP5 DUP3 DUP6 ADD PUSH2 0x323B JUMP JUMPDEST PUSH1 0x60 DUP4 ADD MSTORE POP PUSH1 0x80 PUSH2 0x3C94 DUP5 DUP3 DUP6 ADD PUSH2 0x323B JUMP JUMPDEST PUSH1 0x80 DUP4 ADD MSTORE POP PUSH1 0xA0 PUSH2 0x3CA8 DUP5 DUP3 DUP6 ADD PUSH2 0x323B JUMP JUMPDEST PUSH1 0xA0 DUP4 ADD MSTORE POP PUSH1 0xC0 PUSH2 0x3CBC DUP5 DUP3 DUP6 ADD PUSH2 0x3AF4 JUMP JUMPDEST PUSH1 0xC0 DUP4 ADD MSTORE POP PUSH1 0xE0 PUSH2 0x3CD0 DUP5 DUP3 DUP6 ADD PUSH2 0x3B2B JUMP JUMPDEST PUSH1 0xE0 DUP4 ADD MSTORE POP PUSH2 0x1A0 PUSH2 0x3CE5 DUP5 DUP3 DUP6 ADD PUSH2 0x3B2B JUMP JUMPDEST PUSH2 0x100 DUP4 ADD MSTORE POP PUSH2 0x260 PUSH2 0x3CFB DUP5 DUP3 DUP6 ADD PUSH2 0x3BC8 JUMP JUMPDEST PUSH2 0x120 DUP4 ADD MSTORE POP PUSH2 0x2A0 PUSH2 0x3D11 DUP5 DUP3 DUP6 ADD PUSH2 0x323B JUMP JUMPDEST PUSH2 0x140 DUP4 ADD MSTORE POP PUSH2 0x2C0 PUSH2 0x3D27 DUP5 DUP3 DUP6 ADD PUSH2 0x323B JUMP JUMPDEST PUSH2 0x160 DUP4 ADD MSTORE POP PUSH2 0x2E0 PUSH2 0x3D3D DUP5 DUP3 DUP6 ADD PUSH2 0x323B JUMP JUMPDEST PUSH2 0x180 DUP4 ADD MSTORE POP SWAP3 SWAP2 POP POP JUMP JUMPDEST PUSH0 PUSH2 0x3C0 DUP3 DUP5 SUB SLT ISZERO PUSH2 0x3D60 JUMPI PUSH2 0x3D5F PUSH2 0x3A69 JUMP JUMPDEST JUMPDEST PUSH2 0x3D6A PUSH1 0xE0 PUSH2 0x3ACB JUMP JUMPDEST SWAP1 POP PUSH0 PUSH2 0x3D79 DUP5 DUP3 DUP6 ADD PUSH2 0x323B JUMP JUMPDEST PUSH0 DUP4 ADD MSTORE POP PUSH1 0x20 PUSH2 0x3D8C DUP5 DUP3 DUP6 ADD PUSH2 0x2FCC JUMP JUMPDEST PUSH1 0x20 DUP4 ADD MSTORE POP PUSH1 0x40 PUSH2 0x3DA0 DUP5 DUP3 DUP6 ADD PUSH2 0x2FCC JUMP JUMPDEST PUSH1 0x40 DUP4 ADD MSTORE POP PUSH1 0x60 PUSH2 0x3DB4 DUP5 DUP3 DUP6 ADD PUSH2 0x2FCC JUMP JUMPDEST PUSH1 0x60 DUP4 ADD MSTORE POP PUSH1 0x80 PUSH2 0x3DC8 DUP5 DUP3 DUP6 ADD PUSH2 0x323B JUMP JUMPDEST PUSH1 0x80 DUP4 ADD MSTORE POP PUSH1 0xA0 PUSH2 0x3DDC DUP5 DUP3 DUP6 ADD PUSH2 0x323B JUMP JUMPDEST PUSH1 0xA0 DUP4 ADD MSTORE POP PUSH1 0xC0 PUSH2 0x3DF0 DUP5 DUP3 DUP6 ADD PUSH2 0x3C15 JUMP JUMPDEST PUSH1 0xC0 DUP4 ADD MSTORE POP SWAP3 SWAP2 POP POP JUMP JUMPDEST PUSH0 PUSH2 0x3C0 DUP3 DUP5 SUB SLT ISZERO PUSH2 0x3E12 JUMPI PUSH2 0x3E11 PUSH2 0x2962 JUMP JUMPDEST JUMPDEST PUSH0 PUSH2 0x3E1F DUP5 DUP3 DUP6 ADD PUSH2 0x3D4A JUMP JUMPDEST SWAP2 POP POP SWAP3 SWAP2 POP POP JUMP JUMPDEST PUSH1 0xA DUP2 LT PUSH2 0x3E39 JUMPI PUSH2 0x3E38 PUSH2 0x29E2 JUMP JUMPDEST JUMPDEST POP JUMP JUMPDEST PUSH0 DUP2 SWAP1 POP PUSH2 0x3E49 DUP3 PUSH2 0x3E28 JUMP JUMPDEST SWAP2 SWAP1 POP JUMP JUMPDEST PUSH0 PUSH2 0x3E58 DUP3 PUSH2 0x3E3C JUMP JUMPDEST SWAP1 POP SWAP2 SWAP1 POP JUMP JUMPDEST PUSH2 0x3E68 DUP2 PUSH2 0x3E4E JUMP JUMPDEST DUP3 MSTORE POP POP JUMP JUMPDEST PUSH1 0x6 DUP2 LT PUSH2 0x3E7F JUMPI PUSH2 0x3E7E PUSH2 0x29E2 JUMP JUMPDEST JUMPDEST POP JUMP JUMPDEST PUSH0 DUP2 SWAP1 POP PUSH2 0x3E8F DUP3 PUSH2 0x3E6E JUMP JUMPDEST SWAP2 SWAP1 POP JUMP JUMPDEST PUSH0 PUSH2 0x3E9E DUP3 PUSH2 0x3E82 JUMP JUMPDEST SWAP1 POP SWAP2 SWAP1 POP JUMP JUMPDEST PUSH2 0x3EAE DUP2 PUSH2 0x3E94 JUMP JUMPDEST DUP3 MSTORE POP POP JUMP JUMPDEST PUSH0 PUSH1 0xC0 DUP3 ADD SWAP1 POP PUSH2 0x3EC7 PUSH0 DUP4 ADD DUP10 PUSH2 0x3E5F JUMP JUMPDEST PUSH2 0x3ED4 PUSH1 0x20 DUP4 ADD DUP9 PUSH2 0x3EA5 JUMP JUMPDEST PUSH2 0x3EE1 PUSH1 0x40 DUP4 ADD DUP8 PUSH2 0x28A1 JUMP JUMPDEST PUSH2 0x3EEE PUSH1 0x60 DUP4 ADD DUP7 PUSH2 0x3213 JUMP JUMPDEST PUSH2 0x3EFB PUSH1 0x80 DUP4 ADD DUP6 PUSH2 0x28A1 JUMP JUMPDEST PUSH2 0x3F08 PUSH1 0xA0 DUP4 ADD DUP5 PUSH2 0x3213 JUMP JUMPDEST SWAP8 SWAP7 POP POP POP POP POP POP POP JUMP JUMPDEST PUSH0 PUSH2 0x3F1D DUP3 PUSH2 0x2898 JUMP JUMPDEST SWAP2 POP PUSH2 0x3F28 DUP4 PUSH2 0x2898 JUMP JUMPDEST SWAP3 POP DUP3 DUP3 MUL PUSH2 0x3F36 DUP2 PUSH2 0x2898 JUMP JUMPDEST SWAP2 POP DUP3 DUP3 DIV DUP5 EQ DUP4 ISZERO OR PUSH2 0x3F4D JUMPI PUSH2 0x3F4C PUSH2 0x34FE JUMP JUMPDEST JUMPDEST POP SWAP3 SWAP2 POP POP JUMP JUMPDEST PUSH32 0x636F6E747269627574696F6E206D69732D6D6174636800000000000000000000 PUSH0 DUP3 ADD MSTORE POP JUMP JUMPDEST PUSH0 PUSH2 0x3F88 PUSH1 0x16 DUP4 PUSH2 0x28D3 JUMP JUMPDEST SWAP2 POP PUSH2 0x3F93 DUP3 PUSH2 0x3F54 JUMP JUMPDEST PUSH1 0x20 DUP3 ADD SWAP1 POP SWAP2 SWAP1 POP JUMP JUMPDEST PUSH0 PUSH1 0x20 DUP3 ADD SWAP1 POP DUP2 DUP2 SUB PUSH0 DUP4 ADD MSTORE PUSH2 0x3FB5 DUP2 PUSH2 0x3F7C JUMP JUMPDEST SWAP1 POP SWAP2 SWAP1 POP JUMP INVALID LOG2 PUSH5 0x6970667358 0x22 SLT KECCAK256 SHL MCOPY 0xE9 MOD 0xDF 0xAA 0xC1 PUSH27 0x2A3BB3F53FD6210446C9A95524B534225D87668FF6E5315A64736F PUSH13 0x634300081E0033A26469706673 PC 0x22 SLT KECCAK256 ADD 0xA7 PUSH24 0xE7C4CC032484FF46D27BB809352ED60A9BFBDE3FCD12E9A DUP11 PUSH9 0x9EFDA464736F6C6343 STOP ADDMOD 0x1E STOP CALLER "
		},
		"gasEstimates": {
			"creation": {
				"codeDepositCost": "4155600",
				"executionCost": "infinite",
				"totalCost": "infinite"
			},
			"external": {
				"createVault(uint256)": "infinite",
				"getAddresses()": "infinite",
				"getName()": "infinite",
				"getVaultAddressByPensionId(uint256)": "infinite",
				"getVaultVersion()": "377",
				"getVersion()": "333",
				"isKnownPensionVault(address)": "2914",
				"notifyChangeOfAddress()": "infinite"
			}
		},
		"methodIdentifiers": {
			"createVault(uint256)": "9abbdf4b",
			"getAddresses()": "a39fac12",
			"getName()": "17d7de7c",
			"getVaultAddressByPensionId(uint256)": "f6f4a013",
			"getVaultVersion()": "24411a9d",
			"getVersion()": "0d8e6e2c",
			"isKnownPensionVault(address)": "ecd63724",
			"notifyChangeOfAddress()": "cde4c10c"
		}
	},
	"abi": [
		{
			"inputs": [
				{
					"internalType": "address",
					"name": "_register",
					"type": "address"
				}
			],
			"stateMutability": "nonpayable",
			"type": "constructor"
		},
		{
			"inputs": [
				{
					"internalType": "uint256",
					"name": "_mPensionId",
					"type": "uint256"
				}
			],
			"name": "createVault",
			"outputs": [
				{
					"internalType": "address",
					"name": "_mPensionVaultAddress",
					"type": "address"
				}
			],
			"stateMutability": "nonpayable",
			"type": "function"
		},
		{
			"inputs": [],
			"name": "getAddresses",
			"outputs": [
				{
					"internalType": "address[]",
					"name": "_pensionVaults",
					"type": "address[]"
				}
			],
			"stateMutability": "view",
			"type": "function"
		},
		{
			"inputs": [],
			"name": "getName",
			"outputs": [
				{
					"internalType": "string",
					"name": "_name",
					"type": "string"
				}
			],
			"stateMutability": "pure",
			"type": "function"
		},
		{
			"inputs": [
				{
					"internalType": "uint256",
					"name": "_mPensionId",
					"type": "uint256"
				}
			],
			"name": "getVaultAddressByPensionId",
			"outputs": [
				{
					"internalType": "address",
					"name": "_pensionVault",
					"type": "address"
				}
			],
			"stateMutability": "view",
			"type": "function"
		},
		{
			"inputs": [],
			"name": "getVaultVersion",
			"outputs": [
				{
					"internalType": "uint256",
					"name": "_vaultVersion",
					"type": "uint256"
				}
			],
			"stateMutability": "pure",
			"type": "function"
		},
		{
			"inputs": [],
			"name": "getVersion",
			"outputs": [
				{
					"internalType": "uint256",
					"name": "_version",
					"type": "uint256"
				}
			],
			"stateMutability": "pure",
			"type": "function"
		},
		{
			"inputs": [
				{
					"internalType": "address",
					"name": "_vaultAdddress",
					"type": "address"
				}
			],
			"name": "isKnownPensionVault",
			"outputs": [
				{
					"internalType": "bool",
					"name": "_isKnown",
					"type": "bool"
				}
			],
			"stateMutability": "view",
			"type": "function"
		},
		{
			"inputs": [],
			"name": "notifyChangeOfAddress",
			"outputs": [
				{
					"internalType": "bool",
					"name": "_acknowledged",
					"type": "bool"
				}
			],
			"stateMutability": "nonpayable",
			"type": "function"
		}
	]
}