{
	"contracts/core/market/MPMarketManager.sol": {
		"MarketManager": {
			"abi": [
				{
					"inputs": [
						{
							"internalType": "address",
							"name": "_register",
							"type": "address"
						}
					],
					"stateMutability": "nonpayable",
					"type": "constructor"
				},
				{
					"inputs": [
						{
							"internalType": "uint256",
							"name": "_marketId",
							"type": "uint256"
						}
					],
					"name": "closeMarket",
					"outputs": [
						{
							"internalType": "uint256",
							"name": "_txId",
							"type": "uint256"
						}
					],
					"stateMutability": "nonpayable",
					"type": "function"
				},
				{
					"inputs": [
						{
							"internalType": "uint256",
							"name": "_marketId",
							"type": "uint256"
						},
						{
							"internalType": "uint256",
							"name": "_positionId",
							"type": "uint256"
						}
					],
					"name": "closePosition",
					"outputs": [
						{
							"internalType": "uint256",
							"name": "_returnAmount",
							"type": "uint256"
						},
						{
							"internalType": "uint256",
							"name": "_txId",
							"type": "uint256"
						}
					],
					"stateMutability": "nonpayable",
					"type": "function"
				},
				{
					"inputs": [
						{
							"internalType": "address",
							"name": "_fromToken",
							"type": "address"
						},
						{
							"internalType": "address",
							"name": "_toToken",
							"type": "address"
						},
						{
							"internalType": "uint256",
							"name": "_minDuration",
							"type": "uint256"
						},
						{
							"internalType": "uint256",
							"name": "_maxDuration",
							"type": "uint256"
						},
						{
							"internalType": "uint256",
							"name": "_minReturn",
							"type": "uint256"
						},
						{
							"internalType": "uint256",
							"name": "_maxReturn",
							"type": "uint256"
						},
						{
							"internalType": "enum RiskType",
							"name": "_riskType",
							"type": "uint8"
						},
						{
							"internalType": "uint256",
							"name": "_maxInvestmentSlots",
							"type": "uint256"
						},
						{
							"internalType": "uint256",
							"name": "_marketBondId",
							"type": "uint256"
						},
						{
							"internalType": "uint256",
							"name": "_maxMarketTerm",
							"type": "uint256"
						}
					],
					"name": "createMarket",
					"outputs": [
						{
							"internalType": "uint256",
							"name": "_marketId",
							"type": "uint256"
						},
						{
							"internalType": "uint256",
							"name": "_txId",
							"type": "uint256"
						}
					],
					"stateMutability": "payable",
					"type": "function"
				},
				{
					"inputs": [],
					"name": "getAllowedMarketTokens",
					"outputs": [
						{
							"internalType": "address[]",
							"name": "_erc20",
							"type": "address[]"
						}
					],
					"stateMutability": "view",
					"type": "function"
				},
				{
					"inputs": [
						{
							"internalType": "uint256",
							"name": "_marketId",
							"type": "uint256"
						}
					],
					"name": "getMarket",
					"outputs": [
						{
							"components": [
								{
									"internalType": "uint256",
									"name": "id",
									"type": "uint256"
								},
								{
									"internalType": "address",
									"name": "owner",
									"type": "address"
								},
								{
									"internalType": "enum RiskType",
									"name": "riskType",
									"type": "uint8"
								},
								{
									"internalType": "address",
									"name": "fromToken",
									"type": "address"
								},
								{
									"internalType": "address",
									"name": "toToken",
									"type": "address"
								},
								{
									"internalType": "uint256",
									"name": "minDuration",
									"type": "uint256"
								},
								{
									"internalType": "uint256",
									"name": "maxDuration",
									"type": "uint256"
								},
								{
									"internalType": "uint256",
									"name": "minReturn",
									"type": "uint256"
								},
								{
									"internalType": "uint256",
									"name": "maxReturn",
									"type": "uint256"
								},
								{
									"internalType": "uint256",
									"name": "maxSlots",
									"type": "uint256"
								},
								{
									"internalType": "uint256",
									"name": "bondId",
									"type": "uint256"
								},
								{
									"internalType": "uint256",
									"name": "createDate",
									"type": "uint256"
								},
								{
									"internalType": "uint256",
									"name": "expiryDate",
									"type": "uint256"
								},
								{
									"internalType": "uint256",
									"name": "finalExitDate",
									"type": "uint256"
								}
							],
							"internalType": "struct Market",
							"name": "_market",
							"type": "tuple"
						}
					],
					"stateMutability": "view",
					"type": "function"
				},
				{
					"inputs": [],
					"name": "getMarkets",
					"outputs": [
						{
							"internalType": "uint256[]",
							"name": "_marketIds",
							"type": "uint256[]"
						}
					],
					"stateMutability": "view",
					"type": "function"
				},
				{
					"inputs": [],
					"name": "getName",
					"outputs": [
						{
							"internalType": "string",
							"name": "_name",
							"type": "string"
						}
					],
					"stateMutability": "pure",
					"type": "function"
				},
				{
					"inputs": [],
					"name": "getVersion",
					"outputs": [
						{
							"internalType": "uint256",
							"name": "_version",
							"type": "uint256"
						}
					],
					"stateMutability": "pure",
					"type": "function"
				},
				{
					"inputs": [
						{
							"internalType": "uint256",
							"name": "_marketBondId",
							"type": "uint256"
						}
					],
					"name": "hasOpenPositions",
					"outputs": [
						{
							"internalType": "bool",
							"name": "_hasOpenPositions",
							"type": "bool"
						}
					],
					"stateMutability": "view",
					"type": "function"
				},
				{
					"inputs": [
						{
							"internalType": "uint256",
							"name": "_marketId",
							"type": "uint256"
						},
						{
							"internalType": "uint256",
							"name": "_positionId",
							"type": "uint256"
						},
						{
							"internalType": "uint256",
							"name": "_amount",
							"type": "uint256"
						}
					],
					"name": "openPosition",
					"outputs": [
						{
							"internalType": "uint256",
							"name": "_txId",
							"type": "uint256"
						}
					],
					"stateMutability": "payable",
					"type": "function"
				}
			],
			"devdoc": {
				"kind": "dev",
				"methods": {},
				"version": 1
			},
			"evm": {
				"assembly": "    /* \"contracts/core/market/MPMarketManager.sol\":460:5196  contract MarketManager is IMPMarketManager, IVersion { ... */\n  mstore(0x40, 0xa0)\n    /* \"contracts/core/market/MPMarketManager.sol\":1286:1400  constructor(address _register)  { ... */\n  callvalue\n  dup1\n  iszero\n  tag_1\n  jumpi\n  revert(0x00, 0x00)\ntag_1:\n  pop\n  mload(0x40)\n  sub(codesize, bytecodeSize)\n  dup1\n  bytecodeSize\n  dup4\n  codecopy\n  dup2\n  dup2\n  add\n  0x40\n  mstore\n  dup2\n  add\n  swap1\n  tag_2\n  swap2\n  swap1\n  tag_3\n  jump\t// in\ntag_2:\n    /* \"contracts/core/market/MPMarketManager.sol\":1351:1360  _register */\n  dup1\n    /* \"contracts/core/market/MPMarketManager.sol\":1330:1338  register */\n  0x01\n  0x00\n    /* \"contracts/core/market/MPMarketManager.sol\":1330:1361  register = IRegister(_register) */\n  0x0100\n  exp\n  dup2\n  sload\n  dup2\n  0xffffffffffffffffffffffffffffffffffffffff\n  mul\n  not\n  and\n  swap1\n  dup4\n  0xffffffffffffffffffffffffffffffffffffffff\n  and\n  mul\n  or\n  swap1\n  sstore\n  pop\n    /* \"contracts/core/market/MPMarketManager.sol\":1387:1391  this */\n  address\n    /* \"contracts/core/market/MPMarketManager.sol\":1372:1392  self = address(this) */\n  0xffffffffffffffffffffffffffffffffffffffff\n  and\n  0x80\n  dup2\n  0xffffffffffffffffffffffffffffffffffffffff\n  and\n  dup2\n  mstore\n  pop\n  pop\n    /* \"contracts/core/market/MPMarketManager.sol\":1286:1400  constructor(address _register)  { ... */\n  pop\n    /* \"contracts/core/market/MPMarketManager.sol\":460:5196  contract MarketManager is IMPMarketManager, IVersion { ... */\n  jump(tag_6)\n    /* \"#utility.yul\":88:205   */\ntag_8:\n    /* \"#utility.yul\":197:198   */\n  0x00\n    /* \"#utility.yul\":194:195   */\n  0x00\n    /* \"#utility.yul\":187:199   */\n  revert\n    /* \"#utility.yul\":334:460   */\ntag_10:\n    /* \"#utility.yul\":371:378   */\n  0x00\n    /* \"#utility.yul\":411:453   */\n  0xffffffffffffffffffffffffffffffffffffffff\n    /* \"#utility.yul\":404:409   */\n  dup3\n    /* \"#utility.yul\":400:454   */\n  and\n    /* \"#utility.yul\":389:454   */\n  swap1\n  pop\n    /* \"#utility.yul\":334:460   */\n  swap2\n  swap1\n  pop\n  jump\t// out\n    /* \"#utility.yul\":466:562   */\ntag_11:\n    /* \"#utility.yul\":503:510   */\n  0x00\n    /* \"#utility.yul\":532:556   */\n  tag_20\n    /* \"#utility.yul\":550:555   */\n  dup3\n    /* \"#utility.yul\":532:556   */\n  tag_10\n  jump\t// in\ntag_20:\n    /* \"#utility.yul\":521:556   */\n  swap1\n  pop\n    /* \"#utility.yul\":466:562   */\n  swap2\n  swap1\n  pop\n  jump\t// out\n    /* \"#utility.yul\":568:690   */\ntag_12:\n    /* \"#utility.yul\":641:665   */\n  tag_22\n    /* \"#utility.yul\":659:664   */\n  dup2\n    /* \"#utility.yul\":641:665   */\n  tag_11\n  jump\t// in\ntag_22:\n    /* \"#utility.yul\":634:639   */\n  dup2\n    /* \"#utility.yul\":631:666   */\n  eq\n    /* \"#utility.yul\":621:684   */\n  tag_23\n  jumpi\n    /* \"#utility.yul\":680:681   */\n  0x00\n    /* \"#utility.yul\":677:678   */\n  0x00\n    /* \"#utility.yul\":670:682   */\n  revert\n    /* \"#utility.yul\":621:684   */\ntag_23:\n    /* \"#utility.yul\":568:690   */\n  pop\n  jump\t// out\n    /* \"#utility.yul\":696:839   */\ntag_13:\n    /* \"#utility.yul\":753:758   */\n  0x00\n    /* \"#utility.yul\":784:790   */\n  dup2\n    /* \"#utility.yul\":778:791   */\n  mload\n    /* \"#utility.yul\":769:791   */\n  swap1\n  pop\n    /* \"#utility.yul\":800:833   */\n  tag_25\n    /* \"#utility.yul\":827:832   */\n  dup2\n    /* \"#utility.yul\":800:833   */\n  tag_12\n  jump\t// in\ntag_25:\n    /* \"#utility.yul\":696:839   */\n  swap3\n  swap2\n  pop\n  pop\n  jump\t// out\n    /* \"#utility.yul\":845:1196   */\ntag_3:\n    /* \"#utility.yul\":915:921   */\n  0x00\n    /* \"#utility.yul\":964:966   */\n  0x20\n    /* \"#utility.yul\":952:961   */\n  dup3\n    /* \"#utility.yul\":943:950   */\n  dup5\n    /* \"#utility.yul\":939:962   */\n  sub\n    /* \"#utility.yul\":935:967   */\n  slt\n    /* \"#utility.yul\":932:1051   */\n  iszero\n  tag_27\n  jumpi\n    /* \"#utility.yul\":970:1049   */\n  tag_28\n  tag_8\n  jump\t// in\ntag_28:\n    /* \"#utility.yul\":932:1051   */\ntag_27:\n    /* \"#utility.yul\":1090:1091   */\n  0x00\n    /* \"#utility.yul\":1115:1179   */\n  tag_29\n    /* \"#utility.yul\":1171:1178   */\n  dup5\n    /* \"#utility.yul\":1162:1168   */\n  dup3\n    /* \"#utility.yul\":1151:1160   */\n  dup6\n    /* \"#utility.yul\":1147:1169   */\n  add\n    /* \"#utility.yul\":1115:1179   */\n  tag_13\n  jump\t// in\ntag_29:\n    /* \"#utility.yul\":1105:1179   */\n  swap2\n  pop\n    /* \"#utility.yul\":1061:1189   */\n  pop\n    /* \"#utility.yul\":845:1196   */\n  swap3\n  swap2\n  pop\n  pop\n  jump\t// out\n    /* \"contracts/core/market/MPMarketManager.sol\":460:5196  contract MarketManager is IMPMarketManager, IVersion { ... */\ntag_6:\n  mload(0x80)\n  codecopy(0x00, dataOffset(sub_0), dataSize(sub_0))\n  0x00\n  assignImmutable(\"0xde838e9e0a4b3e84cad3a9d39f9fe437c20f318b30d3166f08c0cdbee96032ab\")\n  return(0x00, dataSize(sub_0))\nstop\n\nsub_0: assembly {\n        /* \"contracts/core/market/MPMarketManager.sol\":460:5196  contract MarketManager is IMPMarketManager, IVersion { ... */\n      mstore(0x40, 0x80)\n      jumpi(tag_1, lt(calldatasize, 0x04))\n      shr(0xe0, calldataload(0x00))\n      dup1\n      0x5ece09c5\n      gt\n      tag_12\n      jumpi\n      dup1\n      0x5ece09c5\n      eq\n      tag_7\n      jumpi\n      dup1\n      0x5fc7b760\n      eq\n      tag_8\n      jumpi\n      dup1\n      0xae418095\n      eq\n      tag_9\n      jumpi\n      dup1\n      0xeb44fdd3\n      eq\n      tag_10\n      jumpi\n      dup1\n      0xec2c9016\n      eq\n      tag_11\n      jumpi\n      jump(tag_1)\n    tag_12:\n      dup1\n      0x0d8e6e2c\n      eq\n      tag_2\n      jumpi\n      dup1\n      0x17d7de7c\n      eq\n      tag_3\n      jumpi\n      dup1\n      0x2d6ce61d\n      eq\n      tag_4\n      jumpi\n      dup1\n      0x443e399f\n      eq\n      tag_5\n      jumpi\n      dup1\n      0x4ca857da\n      eq\n      tag_6\n      jumpi\n    tag_1:\n      revert(0x00, 0x00)\n        /* \"contracts/core/market/MPMarketManager.sol\":1511:1608  function getVersion() pure external returns (uint256 _version){ ... */\n    tag_2:\n      callvalue\n      dup1\n      iszero\n      tag_13\n      jumpi\n      revert(0x00, 0x00)\n    tag_13:\n      pop\n      tag_14\n      tag_15\n      jump\t// in\n    tag_14:\n      mload(0x40)\n      tag_16\n      swap2\n      swap1\n      tag_17\n      jump\t// in\n    tag_16:\n      mload(0x40)\n      dup1\n      swap2\n      sub\n      swap1\n      return\n        /* \"contracts/core/market/MPMarketManager.sol\":1408:1503  function getName() pure external returns (string memory _name) { ... */\n    tag_3:\n      callvalue\n      dup1\n      iszero\n      tag_18\n      jumpi\n      revert(0x00, 0x00)\n    tag_18:\n      pop\n      tag_19\n      tag_20\n      jump\t// in\n    tag_19:\n      mload(0x40)\n      tag_21\n      swap2\n      swap1\n      tag_22\n      jump\t// in\n    tag_21:\n      mload(0x40)\n      dup1\n      swap2\n      sub\n      swap1\n      return\n        /* \"contracts/core/market/MPMarketManager.sol\":4446:4574  function closePosition(uint256 _marketId, uint256 _positionId) external returns (uint256 _returnAmount, uint256 _txId){... */\n    tag_4:\n      callvalue\n      dup1\n      iszero\n      tag_23\n      jumpi\n      revert(0x00, 0x00)\n    tag_23:\n      pop\n      tag_24\n      0x04\n      dup1\n      calldatasize\n      sub\n      dup2\n      add\n      swap1\n      tag_25\n      swap2\n      swap1\n      tag_26\n      jump\t// in\n    tag_25:\n      tag_27\n      jump\t// in\n    tag_24:\n      mload(0x40)\n      tag_28\n      swap3\n      swap2\n      swap1\n      tag_29\n      jump\t// in\n    tag_28:\n      mload(0x40)\n      dup1\n      swap2\n      sub\n      swap1\n      return\n        /* \"contracts/core/market/MPMarketManager.sol\":2188:4293  function createMarket(  address _fromToken, ... */\n    tag_5:\n      tag_30\n      0x04\n      dup1\n      calldatasize\n      sub\n      dup2\n      add\n      swap1\n      tag_31\n      swap2\n      swap1\n      tag_32\n      jump\t// in\n    tag_31:\n      tag_33\n      jump\t// in\n    tag_30:\n      mload(0x40)\n      tag_34\n      swap3\n      swap2\n      swap1\n      tag_29\n      jump\t// in\n    tag_34:\n      mload(0x40)\n      dup1\n      swap2\n      sub\n      swap1\n      return\n        /* \"contracts/core/market/MPMarketManager.sol\":2012:2180  function hasOpenPositions(uint256 _marketBondId) view external returns (bool _hasOpenPositions){... */\n    tag_6:\n      callvalue\n      dup1\n      iszero\n      tag_35\n      jumpi\n      revert(0x00, 0x00)\n    tag_35:\n      pop\n      tag_36\n      0x04\n      dup1\n      calldatasize\n      sub\n      dup2\n      add\n      swap1\n      tag_37\n      swap2\n      swap1\n      tag_38\n      jump\t// in\n    tag_37:\n      tag_39\n      jump\t// in\n    tag_36:\n      mload(0x40)\n      tag_40\n      swap2\n      swap1\n      tag_41\n      jump\t// in\n    tag_40:\n      mload(0x40)\n      dup1\n      swap2\n      sub\n      swap1\n      return\n        /* \"contracts/core/market/MPMarketManager.sol\":4309:4438  function openPosition(uint256 _marketId, uint256 _positionId, uint256 _amount) payable external returns (uint256 _txId){... */\n    tag_7:\n      tag_42\n      0x04\n      dup1\n      calldatasize\n      sub\n      dup2\n      add\n      swap1\n      tag_43\n      swap2\n      swap1\n      tag_44\n      jump\t// in\n    tag_43:\n      tag_45\n      jump\t// in\n    tag_42:\n      mload(0x40)\n      tag_46\n      swap2\n      swap1\n      tag_17\n      jump\t// in\n    tag_46:\n      mload(0x40)\n      dup1\n      swap2\n      sub\n      swap1\n      return\n        /* \"contracts/core/market/MPMarketManager.sol\":1616:1744  function getAllowedMarketTokens() view external returns (address [] memory _erc20){... */\n    tag_8:\n      callvalue\n      dup1\n      iszero\n      tag_47\n      jumpi\n      revert(0x00, 0x00)\n    tag_47:\n      pop\n      tag_48\n      tag_49\n      jump\t// in\n    tag_48:\n      mload(0x40)\n      tag_50\n      swap2\n      swap1\n      tag_51\n      jump\t// in\n    tag_50:\n      mload(0x40)\n      dup1\n      swap2\n      sub\n      swap1\n      return\n        /* \"contracts/core/market/MPMarketManager.sol\":4582:4664  function closeMarket(uint256 _marketId) external returns (uint256 _txId){... */\n    tag_9:\n      callvalue\n      dup1\n      iszero\n      tag_52\n      jumpi\n      revert(0x00, 0x00)\n    tag_52:\n      pop\n      tag_53\n      0x04\n      dup1\n      calldatasize\n      sub\n      dup2\n      add\n      swap1\n      tag_54\n      swap2\n      swap1\n      tag_38\n      jump\t// in\n    tag_54:\n      tag_55\n      jump\t// in\n    tag_53:\n      mload(0x40)\n      tag_56\n      swap2\n      swap1\n      tag_17\n      jump\t// in\n    tag_56:\n      mload(0x40)\n      dup1\n      swap2\n      sub\n      swap1\n      return\n        /* \"contracts/core/market/MPMarketManager.sol\":1874:2004  function getMarket(uint256 _marketId) view external returns (Market memory _market){... */\n    tag_10:\n      callvalue\n      dup1\n      iszero\n      tag_57\n      jumpi\n      revert(0x00, 0x00)\n    tag_57:\n      pop\n      tag_58\n      0x04\n      dup1\n      calldatasize\n      sub\n      dup2\n      add\n      swap1\n      tag_59\n      swap2\n      swap1\n      tag_38\n      jump\t// in\n    tag_59:\n      tag_60\n      jump\t// in\n    tag_58:\n      mload(0x40)\n      tag_61\n      swap2\n      swap1\n      tag_62\n      jump\t// in\n    tag_61:\n      mload(0x40)\n      dup1\n      swap2\n      sub\n      swap1\n      return\n        /* \"contracts/core/market/MPMarketManager.sol\":1756:1866  function getMarkets() view external returns (uint256 [] memory _marketIds){... */\n    tag_11:\n      callvalue\n      dup1\n      iszero\n      tag_63\n      jumpi\n      revert(0x00, 0x00)\n    tag_63:\n      pop\n      tag_64\n      tag_65\n      jump\t// in\n    tag_64:\n      mload(0x40)\n      tag_66\n      swap2\n      swap1\n      tag_67\n      jump\t// in\n    tag_66:\n      mload(0x40)\n      dup1\n      swap2\n      sub\n      swap1\n      return\n        /* \"contracts/core/market/MPMarketManager.sol\":1511:1608  function getVersion() pure external returns (uint256 _version){ ... */\n    tag_15:\n        /* \"contracts/core/market/MPMarketManager.sol\":1556:1572  uint256 _version */\n      0x00\n        /* \"contracts/core/market/MPMarketManager.sol\":616:617  1 */\n      0x01\n        /* \"contracts/core/market/MPMarketManager.sol\":1585:1599  return version */\n      swap1\n      pop\n        /* \"contracts/core/market/MPMarketManager.sol\":1511:1608  function getVersion() pure external returns (uint256 _version){ ... */\n      swap1\n      jump\t// out\n        /* \"contracts/core/market/MPMarketManager.sol\":1408:1503  function getName() pure external returns (string memory _name) { ... */\n    tag_20:\n        /* \"contracts/core/market/MPMarketManager.sol\":1450:1469  string memory _name */\n      0x60\n        /* \"contracts/core/market/MPMarketManager.sol\":1490:1494  name */\n      mload(0x40)\n      dup1\n      0x40\n      add\n      0x40\n      mstore\n      dup1\n      0x1a\n      dup2\n      mstore\n      0x20\n      add\n      0x52455345525645445f4d505f4d41524b45545f4d414e41474552000000000000\n      dup2\n      mstore\n      pop\n        /* \"contracts/core/market/MPMarketManager.sol\":1483:1494  return name */\n      swap1\n      pop\n        /* \"contracts/core/market/MPMarketManager.sol\":1408:1503  function getName() pure external returns (string memory _name) { ... */\n      swap1\n      jump\t// out\n        /* \"contracts/core/market/MPMarketManager.sol\":4446:4574  function closePosition(uint256 _marketId, uint256 _positionId) external returns (uint256 _returnAmount, uint256 _txId){... */\n    tag_27:\n        /* \"contracts/core/market/MPMarketManager.sol\":4527:4548  uint256 _returnAmount */\n      0x00\n        /* \"contracts/core/market/MPMarketManager.sol\":4550:4563  uint256 _txId */\n      0x00\n        /* \"contracts/core/market/MPMarketManager.sol\":4446:4574  function closePosition(uint256 _marketId, uint256 _positionId) external returns (uint256 _returnAmount, uint256 _txId){... */\n      swap3\n      pop\n      swap3\n      swap1\n      pop\n      jump\t// out\n        /* \"contracts/core/market/MPMarketManager.sol\":2188:4293  function createMarket(  address _fromToken, ... */\n    tag_33:\n        /* \"contracts/core/market/MPMarketManager.sol\":2725:2742  uint256 _marketId */\n      0x00\n        /* \"contracts/core/market/MPMarketManager.sol\":2744:2757  uint256 _txId */\n      0x00\n        /* \"contracts/core/market/MPMarketManager.sol\":2779:2804  SecurityBond memory bond_ */\n      0x00\n        /* \"contracts/core/market/MPMarketManager.sol\":2822:2830  register */\n      0x01\n      0x00\n      swap1\n      sload\n      swap1\n      0x0100\n      exp\n      swap1\n      div\n      0xffffffffffffffffffffffffffffffffffffffff\n      and\n        /* \"contracts/core/market/MPMarketManager.sol\":2822:2841  register.getAddress */\n      0xffffffffffffffffffffffffffffffffffffffff\n      and\n      0xbf40fac1\n        /* \"contracts/core/market/MPMarketManager.sol\":2842:2857  BOND_MANAGER_CA */\n      mload(0x40)\n      dup1\n      0x40\n      add\n      0x40\n      mstore\n      dup1\n      0x15\n      dup2\n      mstore\n      0x20\n      add\n      0x52455345525645445f424f4e445f4d414e414745520000000000000000000000\n      dup2\n      mstore\n      pop\n        /* \"contracts/core/market/MPMarketManager.sol\":2822:2858  register.getAddress(BOND_MANAGER_CA) */\n      mload(0x40)\n      dup3\n      0xffffffff\n      and\n      0xe0\n      shl\n      dup2\n      mstore\n      0x04\n      add\n      tag_72\n      swap2\n      swap1\n      tag_22\n      jump\t// in\n    tag_72:\n      0x20\n      mload(0x40)\n      dup1\n      dup4\n      sub\n      dup2\n      dup7\n      gas\n      staticcall\n      iszero\n      dup1\n      iszero\n      tag_74\n      jumpi\n      returndatacopy(0x00, 0x00, returndatasize)\n      revert(0x00, returndatasize)\n    tag_74:\n      pop\n      pop\n      pop\n      pop\n      mload(0x40)\n      returndatasize\n      not(0x1f)\n      0x1f\n      dup3\n      add\n      and\n      dup3\n      add\n      dup1\n      0x40\n      mstore\n      pop\n      dup2\n      add\n      swap1\n      tag_75\n      swap2\n      swap1\n      tag_76\n      jump\t// in\n    tag_75:\n        /* \"contracts/core/market/MPMarketManager.sol\":2807:2871  IMPBondManager(register.getAddress(BOND_MANAGER_CA)).getUserBond */\n      0xffffffffffffffffffffffffffffffffffffffff\n      and\n      0x012fe794\n        /* \"contracts/core/market/MPMarketManager.sol\":2872:2887  BondType.MARKET */\n      0x01\n        /* \"contracts/core/market/MPMarketManager.sol\":2889:2899  msg.sender */\n      caller\n        /* \"contracts/core/market/MPMarketManager.sol\":2807:2900  IMPBondManager(register.getAddress(BOND_MANAGER_CA)).getUserBond(BondType.MARKET, msg.sender) */\n      mload(0x40)\n      dup4\n      0xffffffff\n      and\n      0xe0\n      shl\n      dup2\n      mstore\n      0x04\n      add\n      tag_77\n      swap3\n      swap2\n      swap1\n      tag_78\n      jump\t// in\n    tag_77:\n      0xc0\n      mload(0x40)\n      dup1\n      dup4\n      sub\n      dup2\n      dup7\n      gas\n      staticcall\n      iszero\n      dup1\n      iszero\n      tag_80\n      jumpi\n      returndatacopy(0x00, 0x00, returndatasize)\n      revert(0x00, returndatasize)\n    tag_80:\n      pop\n      pop\n      pop\n      pop\n      mload(0x40)\n      returndatasize\n      not(0x1f)\n      0x1f\n      dup3\n      add\n      and\n      dup3\n      add\n      dup1\n      0x40\n      mstore\n      pop\n      dup2\n      add\n      swap1\n      tag_81\n      swap2\n      swap1\n      tag_82\n      jump\t// in\n    tag_81:\n        /* \"contracts/core/market/MPMarketManager.sol\":2779:2900  SecurityBond memory bond_ = IMPBondManager(register.getAddress(BOND_MANAGER_CA)).getUserBond(BondType.MARKET, msg.sender) */\n      swap1\n      pop\n        /* \"contracts/core/market/MPMarketManager.sol\":2936:2941  bond_ */\n      dup1\n        /* \"contracts/core/market/MPMarketManager.sol\":2936:2944  bond_.id */\n      0x00\n      add\n      mload\n        /* \"contracts/core/market/MPMarketManager.sol\":2919:2932  _marketBondId */\n      dup6\n        /* \"contracts/core/market/MPMarketManager.sol\":2919:2944  _marketBondId == bond_.id */\n      eq\n        /* \"contracts/core/market/MPMarketManager.sol\":2911:2966  require(_marketBondId == bond_.id, \"bond id mis-match\") */\n      tag_83\n      jumpi\n      mload(0x40)\n      0x08c379a000000000000000000000000000000000000000000000000000000000\n      dup2\n      mstore\n      0x04\n      add\n      tag_84\n      swap1\n      tag_85\n      jump\t// in\n    tag_84:\n      mload(0x40)\n      dup1\n      swap2\n      sub\n      swap1\n      revert\n    tag_83:\n        /* \"contracts/core/market/MPMarketManager.sol\":2986:3003  hasMarketByBondId */\n      0x06\n        /* \"contracts/core/market/MPMarketManager.sol\":2986:3013  hasMarketByBondId[bond_.id] */\n      0x00\n        /* \"contracts/core/market/MPMarketManager.sol\":3004:3009  bond_ */\n      dup3\n        /* \"contracts/core/market/MPMarketManager.sol\":3004:3012  bond_.id */\n      0x00\n      add\n      mload\n        /* \"contracts/core/market/MPMarketManager.sol\":2986:3013  hasMarketByBondId[bond_.id] */\n      dup2\n      mstore\n      0x20\n      add\n      swap1\n      dup2\n      mstore\n      0x20\n      add\n      0x00\n      keccak256\n      0x00\n      swap1\n      sload\n      swap1\n      0x0100\n      exp\n      swap1\n      div\n      0xff\n      and\n        /* \"contracts/core/market/MPMarketManager.sol\":2985:3013  !hasMarketByBondId[bond_.id] */\n      iszero\n        /* \"contracts/core/market/MPMarketManager.sol\":2977:3049  require(!hasMarketByBondId[bond_.id], \"bond already set against market\") */\n      tag_86\n      jumpi\n      mload(0x40)\n      0x08c379a000000000000000000000000000000000000000000000000000000000\n      dup2\n      mstore\n      0x04\n      add\n      tag_87\n      swap1\n      tag_88\n      jump\t// in\n    tag_87:\n      mload(0x40)\n      dup1\n      swap2\n      sub\n      swap1\n      revert\n    tag_86:\n        /* \"contracts/core/market/MPMarketManager.sol\":3074:3084  getIndex() */\n      tag_89\n        /* \"contracts/core/market/MPMarketManager.sol\":3074:3082  getIndex */\n      tag_90\n        /* \"contracts/core/market/MPMarketManager.sol\":3074:3084  getIndex() */\n      jump\t// in\n    tag_89:\n        /* \"contracts/core/market/MPMarketManager.sol\":3062:3084  _marketId = getIndex() */\n      swap3\n      pop\n        /* \"contracts/core/market/MPMarketManager.sol\":3096:3105  marketIds */\n      0x02\n        /* \"contracts/core/market/MPMarketManager.sol\":3111:3120  _marketId */\n      dup4\n        /* \"contracts/core/market/MPMarketManager.sol\":3096:3121  marketIds.push(_marketId) */\n      swap1\n      dup1\n      0x01\n      dup2\n      sload\n      add\n      dup1\n      dup3\n      sstore\n      dup1\n      swap2\n      pop\n      pop\n      0x01\n      swap1\n      sub\n      swap1\n      0x00\n      mstore\n      keccak256(0x00, 0x20)\n      add\n      0x00\n      swap1\n      swap2\n      swap1\n      swap2\n      swap1\n      swap2\n      pop\n      sstore\n        /* \"contracts/core/market/MPMarketManager.sol\":3159:3163  true */\n      0x01\n        /* \"contracts/core/market/MPMarketManager.sol\":3132:3145  isKnownMarket */\n      0x03\n        /* \"contracts/core/market/MPMarketManager.sol\":3132:3156  isKnownMarket[_marketId] */\n      0x00\n        /* \"contracts/core/market/MPMarketManager.sol\":3146:3155  _marketId */\n      dup6\n        /* \"contracts/core/market/MPMarketManager.sol\":3132:3156  isKnownMarket[_marketId] */\n      dup2\n      mstore\n      0x20\n      add\n      swap1\n      dup2\n      mstore\n      0x20\n      add\n      0x00\n      keccak256\n      0x00\n        /* \"contracts/core/market/MPMarketManager.sol\":3132:3163  isKnownMarket[_marketId] = true */\n      0x0100\n      exp\n      dup2\n      sload\n      dup2\n      0xff\n      mul\n      not\n      and\n      swap1\n      dup4\n      iszero\n      iszero\n      mul\n      or\n      swap1\n      sstore\n      pop\n        /* \"contracts/core/market/MPMarketManager.sol\":3199:4248  Market({... */\n      mload(0x40)\n      dup1\n      0x01c0\n      add\n      0x40\n      mstore\n      dup1\n        /* \"contracts/core/market/MPMarketManager.sol\":3254:3263  _marketId */\n      dup5\n        /* \"contracts/core/market/MPMarketManager.sol\":3199:4248  Market({... */\n      dup2\n      mstore\n      0x20\n      add\n        /* \"contracts/core/market/MPMarketManager.sol\":3316:3326  msg.sender */\n      caller\n        /* \"contracts/core/market/MPMarketManager.sol\":3199:4248  Market({... */\n      0xffffffffffffffffffffffffffffffffffffffff\n      and\n      dup2\n      mstore\n      0x20\n      add\n        /* \"contracts/core/market/MPMarketManager.sol\":3382:3391  _riskType */\n      dup9\n        /* \"contracts/core/market/MPMarketManager.sol\":3199:4248  Market({... */\n      0x02\n      dup2\n      gt\n      iszero\n      tag_92\n      jumpi\n      tag_93\n      tag_94\n      jump\t// in\n    tag_93:\n    tag_92:\n      dup2\n      mstore\n      0x20\n      add\n        /* \"contracts/core/market/MPMarketManager.sol\":3447:3457  _fromToken */\n      dup15\n        /* \"contracts/core/market/MPMarketManager.sol\":3199:4248  Market({... */\n      0xffffffffffffffffffffffffffffffffffffffff\n      and\n      dup2\n      mstore\n      0x20\n      add\n        /* \"contracts/core/market/MPMarketManager.sol\":3511:3519  _toToken */\n      dup14\n        /* \"contracts/core/market/MPMarketManager.sol\":3199:4248  Market({... */\n      0xffffffffffffffffffffffffffffffffffffffff\n      and\n      dup2\n      mstore\n      0x20\n      add\n        /* \"contracts/core/market/MPMarketManager.sol\":3577:3589  _minDuration */\n      dup13\n        /* \"contracts/core/market/MPMarketManager.sol\":3199:4248  Market({... */\n      dup2\n      mstore\n      0x20\n      add\n        /* \"contracts/core/market/MPMarketManager.sol\":3648:3660  _maxDuration */\n      dup12\n        /* \"contracts/core/market/MPMarketManager.sol\":3199:4248  Market({... */\n      dup2\n      mstore\n      0x20\n      add\n        /* \"contracts/core/market/MPMarketManager.sol\":3717:3727  _minReturn */\n      dup11\n        /* \"contracts/core/market/MPMarketManager.sol\":3199:4248  Market({... */\n      dup2\n      mstore\n      0x20\n      add\n        /* \"contracts/core/market/MPMarketManager.sol\":3784:3794  _maxReturn */\n      dup10\n        /* \"contracts/core/market/MPMarketManager.sol\":3199:4248  Market({... */\n      dup2\n      mstore\n      0x20\n      add\n        /* \"contracts/core/market/MPMarketManager.sol\":3850:3869  _maxInvestmentSlots */\n      dup8\n        /* \"contracts/core/market/MPMarketManager.sol\":3199:4248  Market({... */\n      dup2\n      mstore\n      0x20\n      add\n        /* \"contracts/core/market/MPMarketManager.sol\":3923:3936  _marketBondId */\n      dup7\n        /* \"contracts/core/market/MPMarketManager.sol\":3199:4248  Market({... */\n      dup2\n      mstore\n      0x20\n      add\n        /* \"contracts/core/market/MPMarketManager.sol\":3993:4008  block.timestamp */\n      timestamp\n        /* \"contracts/core/market/MPMarketManager.sol\":3199:4248  Market({... */\n      dup2\n      mstore\n      0x20\n      add\n        /* \"contracts/core/market/MPMarketManager.sol\":4084:4098  _maxMarketTerm */\n      dup6\n        /* \"contracts/core/market/MPMarketManager.sol\":4066:4081  block.timestamp */\n      timestamp\n        /* \"contracts/core/market/MPMarketManager.sol\":4066:4098  block.timestamp + _maxMarketTerm */\n      tag_95\n      swap2\n      swap1\n      tag_96\n      jump\t// in\n    tag_95:\n        /* \"contracts/core/market/MPMarketManager.sol\":3199:4248  Market({... */\n      dup2\n      mstore\n      0x20\n      add\n        /* \"contracts/core/market/MPMarketManager.sol\":4194:4206  _maxDuration */\n      dup12\n        /* \"contracts/core/market/MPMarketManager.sol\":4177:4191  _maxMarketTerm */\n      dup7\n        /* \"contracts/core/market/MPMarketManager.sol\":4159:4174  block.timestamp */\n      timestamp\n        /* \"contracts/core/market/MPMarketManager.sol\":4159:4191  block.timestamp + _maxMarketTerm */\n      tag_97\n      swap2\n      swap1\n      tag_96\n      jump\t// in\n    tag_97:\n        /* \"contracts/core/market/MPMarketManager.sol\":4159:4206  block.timestamp + _maxMarketTerm + _maxDuration */\n      tag_98\n      swap2\n      swap1\n      tag_96\n      jump\t// in\n    tag_98:\n        /* \"contracts/core/market/MPMarketManager.sol\":3199:4248  Market({... */\n      dup2\n      mstore\n      pop\n        /* \"contracts/core/market/MPMarketManager.sol\":3175:3185  marketById */\n      0x04\n        /* \"contracts/core/market/MPMarketManager.sol\":3175:3196  marketById[_marketId] */\n      0x00\n        /* \"contracts/core/market/MPMarketManager.sol\":3186:3195  _marketId */\n      dup6\n        /* \"contracts/core/market/MPMarketManager.sol\":3175:3196  marketById[_marketId] */\n      dup2\n      mstore\n      0x20\n      add\n      swap1\n      dup2\n      mstore\n      0x20\n      add\n      0x00\n      keccak256\n        /* \"contracts/core/market/MPMarketManager.sol\":3175:4248  marketById[_marketId] = Market({... */\n      0x00\n      dup3\n      add\n      mload\n      dup2\n      0x00\n      add\n      sstore\n      0x20\n      dup3\n      add\n      mload\n      dup2\n      0x01\n      add\n      exp(0x0100, 0x00)\n      dup2\n      sload\n      dup2\n      0xffffffffffffffffffffffffffffffffffffffff\n      mul\n      not\n      and\n      swap1\n      dup4\n      0xffffffffffffffffffffffffffffffffffffffff\n      and\n      mul\n      or\n      swap1\n      sstore\n      pop\n      0x40\n      dup3\n      add\n      mload\n      dup2\n      0x01\n      add\n      exp(0x0100, 0x14)\n      dup2\n      sload\n      dup2\n      0xff\n      mul\n      not\n      and\n      swap1\n      dup4\n      0x02\n      dup2\n      gt\n      iszero\n      tag_99\n      jumpi\n      tag_100\n      tag_94\n      jump\t// in\n    tag_100:\n    tag_99:\n      mul\n      or\n      swap1\n      sstore\n      pop\n      0x60\n      dup3\n      add\n      mload\n      dup2\n      0x02\n      add\n      exp(0x0100, 0x00)\n      dup2\n      sload\n      dup2\n      0xffffffffffffffffffffffffffffffffffffffff\n      mul\n      not\n      and\n      swap1\n      dup4\n      0xffffffffffffffffffffffffffffffffffffffff\n      and\n      mul\n      or\n      swap1\n      sstore\n      pop\n      0x80\n      dup3\n      add\n      mload\n      dup2\n      0x03\n      add\n      exp(0x0100, 0x00)\n      dup2\n      sload\n      dup2\n      0xffffffffffffffffffffffffffffffffffffffff\n      mul\n      not\n      and\n      swap1\n      dup4\n      0xffffffffffffffffffffffffffffffffffffffff\n      and\n      mul\n      or\n      swap1\n      sstore\n      pop\n      0xa0\n      dup3\n      add\n      mload\n      dup2\n      0x04\n      add\n      sstore\n      0xc0\n      dup3\n      add\n      mload\n      dup2\n      0x05\n      add\n      sstore\n      0xe0\n      dup3\n      add\n      mload\n      dup2\n      0x06\n      add\n      sstore\n      0x0100\n      dup3\n      add\n      mload\n      dup2\n      0x07\n      add\n      sstore\n      0x0120\n      dup3\n      add\n      mload\n      dup2\n      0x08\n      add\n      sstore\n      0x0140\n      dup3\n      add\n      mload\n      dup2\n      0x09\n      add\n      sstore\n      0x0160\n      dup3\n      add\n      mload\n      dup2\n      0x0a\n      add\n      sstore\n      0x0180\n      dup3\n      add\n      mload\n      dup2\n      0x0b\n      add\n      sstore\n      0x01a0\n      dup3\n      add\n      mload\n      dup2\n      0x0c\n      add\n      sstore\n      swap1\n      pop\n      pop\n        /* \"contracts/core/market/MPMarketManager.sol\":4259:4284  return (_marketId, _txId) */\n      pop\n        /* \"contracts/core/market/MPMarketManager.sol\":2188:4293  function createMarket(  address _fromToken, ... */\n      swap11\n      pop\n      swap11\n      swap9\n      pop\n      pop\n      pop\n      pop\n      pop\n      pop\n      pop\n      pop\n      pop\n      jump\t// out\n        /* \"contracts/core/market/MPMarketManager.sol\":2012:2180  function hasOpenPositions(uint256 _marketBondId) view external returns (bool _hasOpenPositions){... */\n    tag_39:\n        /* \"contracts/core/market/MPMarketManager.sol\":2084:2106  bool _hasOpenPositions */\n      0x00\n        /* \"contracts/core/market/MPMarketManager.sol\":2170:2171  0 */\n      0x00\n        /* \"contracts/core/market/MPMarketManager.sol\":2125:2144  positionIdsByBondId */\n      0x05\n        /* \"contracts/core/market/MPMarketManager.sol\":2125:2159  positionIdsByBondId[_marketBondId] */\n      0x00\n        /* \"contracts/core/market/MPMarketManager.sol\":2145:2158  _marketBondId */\n      dup5\n        /* \"contracts/core/market/MPMarketManager.sol\":2125:2159  positionIdsByBondId[_marketBondId] */\n      dup2\n      mstore\n      0x20\n      add\n      swap1\n      dup2\n      mstore\n      0x20\n      add\n      0x00\n      keccak256\n        /* \"contracts/core/market/MPMarketManager.sol\":2125:2166  positionIdsByBondId[_marketBondId].length */\n      dup1\n      sload\n      swap1\n      pop\n        /* \"contracts/core/market/MPMarketManager.sol\":2125:2171  positionIdsByBondId[_marketBondId].length != 0 */\n      eq\n      iszero\n        /* \"contracts/core/market/MPMarketManager.sol\":2118:2171  return positionIdsByBondId[_marketBondId].length != 0 */\n      swap1\n      pop\n        /* \"contracts/core/market/MPMarketManager.sol\":2012:2180  function hasOpenPositions(uint256 _marketBondId) view external returns (bool _hasOpenPositions){... */\n      swap2\n      swap1\n      pop\n      jump\t// out\n        /* \"contracts/core/market/MPMarketManager.sol\":4309:4438  function openPosition(uint256 _marketId, uint256 _positionId, uint256 _amount) payable external returns (uint256 _txId){... */\n    tag_45:\n        /* \"contracts/core/market/MPMarketManager.sol\":4414:4427  uint256 _txId */\n      0x00\n        /* \"contracts/core/market/MPMarketManager.sol\":4309:4438  function openPosition(uint256 _marketId, uint256 _positionId, uint256 _amount) payable external returns (uint256 _txId){... */\n      swap4\n      swap3\n      pop\n      pop\n      pop\n      jump\t// out\n        /* \"contracts/core/market/MPMarketManager.sol\":1616:1744  function getAllowedMarketTokens() view external returns (address [] memory _erc20){... */\n    tag_49:\n        /* \"contracts/core/market/MPMarketManager.sol\":1673:1697  address [] memory _erc20 */\n      0x60\n        /* \"contracts/core/market/MPMarketManager.sol\":1716:1735  allowedMarketTokens */\n      0x07\n        /* \"contracts/core/market/MPMarketManager.sol\":1709:1735  return allowedMarketTokens */\n      dup1\n      sload\n      dup1\n      0x20\n      mul\n      0x20\n      add\n      mload(0x40)\n      swap1\n      dup2\n      add\n      0x40\n      mstore\n      dup1\n      swap3\n      swap2\n      swap1\n      dup2\n      dup2\n      mstore\n      0x20\n      add\n      dup3\n      dup1\n      sload\n      dup1\n      iszero\n      tag_104\n      jumpi\n      0x20\n      mul\n      dup3\n      add\n      swap2\n      swap1\n      0x00\n      mstore\n      keccak256(0x00, 0x20)\n      swap1\n    tag_105:\n      dup2\n      0x00\n      swap1\n      sload\n      swap1\n      0x0100\n      exp\n      swap1\n      div\n      0xffffffffffffffffffffffffffffffffffffffff\n      and\n      0xffffffffffffffffffffffffffffffffffffffff\n      and\n      dup2\n      mstore\n      0x20\n      add\n      swap1\n      0x01\n      add\n      swap1\n      dup1\n      dup4\n      gt\n      tag_105\n      jumpi\n    tag_104:\n      pop\n      pop\n      pop\n      pop\n      pop\n      swap1\n      pop\n        /* \"contracts/core/market/MPMarketManager.sol\":1616:1744  function getAllowedMarketTokens() view external returns (address [] memory _erc20){... */\n      swap1\n      jump\t// out\n        /* \"contracts/core/market/MPMarketManager.sol\":4582:4664  function closeMarket(uint256 _marketId) external returns (uint256 _txId){... */\n    tag_55:\n        /* \"contracts/core/market/MPMarketManager.sol\":4640:4653  uint256 _txId */\n      0x00\n        /* \"contracts/core/market/MPMarketManager.sol\":4582:4664  function closeMarket(uint256 _marketId) external returns (uint256 _txId){... */\n      swap2\n      swap1\n      pop\n      jump\t// out\n        /* \"contracts/core/market/MPMarketManager.sol\":1874:2004  function getMarket(uint256 _marketId) view external returns (Market memory _market){... */\n    tag_60:\n        /* \"contracts/core/market/MPMarketManager.sol\":1935:1956  Market memory _market */\n      tag_107\n      tag_108\n      jump\t// in\n    tag_107:\n        /* \"contracts/core/market/MPMarketManager.sol\":1975:1985  marketById */\n      0x04\n        /* \"contracts/core/market/MPMarketManager.sol\":1975:1996  marketById[_marketId] */\n      0x00\n        /* \"contracts/core/market/MPMarketManager.sol\":1986:1995  _marketId */\n      dup4\n        /* \"contracts/core/market/MPMarketManager.sol\":1975:1996  marketById[_marketId] */\n      dup2\n      mstore\n      0x20\n      add\n      swap1\n      dup2\n      mstore\n      0x20\n      add\n      0x00\n      keccak256\n        /* \"contracts/core/market/MPMarketManager.sol\":1968:1996  return marketById[_marketId] */\n      mload(0x40)\n      dup1\n      0x01c0\n      add\n      0x40\n      mstore\n      swap1\n      dup2\n      0x00\n      dup3\n      add\n      sload\n      dup2\n      mstore\n      0x20\n      add\n      0x01\n      dup3\n      add\n      0x00\n      swap1\n      sload\n      swap1\n      0x0100\n      exp\n      swap1\n      div\n      0xffffffffffffffffffffffffffffffffffffffff\n      and\n      0xffffffffffffffffffffffffffffffffffffffff\n      and\n      0xffffffffffffffffffffffffffffffffffffffff\n      and\n      dup2\n      mstore\n      0x20\n      add\n      0x01\n      dup3\n      add\n      0x14\n      swap1\n      sload\n      swap1\n      0x0100\n      exp\n      swap1\n      div\n      0xff\n      and\n      0x02\n      dup2\n      gt\n      iszero\n      tag_110\n      jumpi\n      tag_111\n      tag_94\n      jump\t// in\n    tag_111:\n    tag_110:\n      0x02\n      dup2\n      gt\n      iszero\n      tag_112\n      jumpi\n      tag_113\n      tag_94\n      jump\t// in\n    tag_113:\n    tag_112:\n      dup2\n      mstore\n      0x20\n      add\n      0x02\n      dup3\n      add\n      0x00\n      swap1\n      sload\n      swap1\n      0x0100\n      exp\n      swap1\n      div\n      0xffffffffffffffffffffffffffffffffffffffff\n      and\n      0xffffffffffffffffffffffffffffffffffffffff\n      and\n      0xffffffffffffffffffffffffffffffffffffffff\n      and\n      dup2\n      mstore\n      0x20\n      add\n      0x03\n      dup3\n      add\n      0x00\n      swap1\n      sload\n      swap1\n      0x0100\n      exp\n      swap1\n      div\n      0xffffffffffffffffffffffffffffffffffffffff\n      and\n      0xffffffffffffffffffffffffffffffffffffffff\n      and\n      0xffffffffffffffffffffffffffffffffffffffff\n      and\n      dup2\n      mstore\n      0x20\n      add\n      0x04\n      dup3\n      add\n      sload\n      dup2\n      mstore\n      0x20\n      add\n      0x05\n      dup3\n      add\n      sload\n      dup2\n      mstore\n      0x20\n      add\n      0x06\n      dup3\n      add\n      sload\n      dup2\n      mstore\n      0x20\n      add\n      0x07\n      dup3\n      add\n      sload\n      dup2\n      mstore\n      0x20\n      add\n      0x08\n      dup3\n      add\n      sload\n      dup2\n      mstore\n      0x20\n      add\n      0x09\n      dup3\n      add\n      sload\n      dup2\n      mstore\n      0x20\n      add\n      0x0a\n      dup3\n      add\n      sload\n      dup2\n      mstore\n      0x20\n      add\n      0x0b\n      dup3\n      add\n      sload\n      dup2\n      mstore\n      0x20\n      add\n      0x0c\n      dup3\n      add\n      sload\n      dup2\n      mstore\n      pop\n      pop\n      swap1\n      pop\n        /* \"contracts/core/market/MPMarketManager.sol\":1874:2004  function getMarket(uint256 _marketId) view external returns (Market memory _market){... */\n      swap2\n      swap1\n      pop\n      jump\t// out\n        /* \"contracts/core/market/MPMarketManager.sol\":1756:1866  function getMarkets() view external returns (uint256 [] memory _marketIds){... */\n    tag_65:\n        /* \"contracts/core/market/MPMarketManager.sol\":1801:1829  uint256 [] memory _marketIds */\n      0x60\n        /* \"contracts/core/market/MPMarketManager.sol\":1848:1857  marketIds */\n      0x02\n        /* \"contracts/core/market/MPMarketManager.sol\":1841:1857  return marketIds */\n      dup1\n      sload\n      dup1\n      0x20\n      mul\n      0x20\n      add\n      mload(0x40)\n      swap1\n      dup2\n      add\n      0x40\n      mstore\n      dup1\n      swap3\n      swap2\n      swap1\n      dup2\n      dup2\n      mstore\n      0x20\n      add\n      dup3\n      dup1\n      sload\n      dup1\n      iszero\n      tag_115\n      jumpi\n      0x20\n      mul\n      dup3\n      add\n      swap2\n      swap1\n      0x00\n      mstore\n      keccak256(0x00, 0x20)\n      swap1\n    tag_116:\n      dup2\n      sload\n      dup2\n      mstore\n      0x20\n      add\n      swap1\n      0x01\n      add\n      swap1\n      dup1\n      dup4\n      gt\n      tag_116\n      jumpi\n    tag_115:\n      pop\n      pop\n      pop\n      pop\n      pop\n      swap1\n      pop\n        /* \"contracts/core/market/MPMarketManager.sol\":1756:1866  function getMarkets() view external returns (uint256 [] memory _marketIds){... */\n      swap1\n      jump\t// out\n        /* \"contracts/core/market/MPMarketManager.sol\":4813:4927  function getIndex() internal returns (uint256 _index){... */\n    tag_90:\n        /* \"contracts/core/market/MPMarketManager.sol\":4851:4865  uint256 _index */\n      0x00\n        /* \"contracts/core/market/MPMarketManager.sol\":4886:4891  index */\n      0x00\n      0x00\n        /* \"contracts/core/market/MPMarketManager.sol\":4886:4893  index++ */\n      dup2\n      sload\n      dup1\n      swap3\n      swap2\n      swap1\n      tag_118\n      swap1\n      tag_119\n      jump\t// in\n    tag_118:\n      swap2\n      swap1\n      pop\n      sstore\n        /* \"contracts/core/market/MPMarketManager.sol\":4877:4893  _index = index++ */\n      swap1\n      pop\n        /* \"contracts/core/market/MPMarketManager.sol\":4813:4927  function getIndex() internal returns (uint256 _index){... */\n      swap1\n      jump\t// out\n    tag_108:\n      mload(0x40)\n      dup1\n      0x01c0\n      add\n      0x40\n      mstore\n      dup1\n      0x00\n      dup2\n      mstore\n      0x20\n      add\n      and(0xffffffffffffffffffffffffffffffffffffffff, 0x00)\n      dup2\n      mstore\n      0x20\n      add\n      0x00\n      0x02\n      dup2\n      gt\n      iszero\n      tag_120\n      jumpi\n      tag_121\n      tag_94\n      jump\t// in\n    tag_121:\n    tag_120:\n      dup2\n      mstore\n      0x20\n      add\n      and(0xffffffffffffffffffffffffffffffffffffffff, 0x00)\n      dup2\n      mstore\n      0x20\n      add\n      and(0xffffffffffffffffffffffffffffffffffffffff, 0x00)\n      dup2\n      mstore\n      0x20\n      add\n      0x00\n      dup2\n      mstore\n      0x20\n      add\n      0x00\n      dup2\n      mstore\n      0x20\n      add\n      0x00\n      dup2\n      mstore\n      0x20\n      add\n      0x00\n      dup2\n      mstore\n      0x20\n      add\n      0x00\n      dup2\n      mstore\n      0x20\n      add\n      0x00\n      dup2\n      mstore\n      0x20\n      add\n      0x00\n      dup2\n      mstore\n      0x20\n      add\n      0x00\n      dup2\n      mstore\n      0x20\n      add\n      0x00\n      dup2\n      mstore\n      pop\n      swap1\n      jump\t// out\n        /* \"#utility.yul\":7:84   */\n    tag_122:\n        /* \"#utility.yul\":44:51   */\n      0x00\n        /* \"#utility.yul\":73:78   */\n      dup2\n        /* \"#utility.yul\":62:78   */\n      swap1\n      pop\n        /* \"#utility.yul\":7:84   */\n      swap2\n      swap1\n      pop\n      jump\t// out\n        /* \"#utility.yul\":90:208   */\n    tag_123:\n        /* \"#utility.yul\":177:201   */\n      tag_184\n        /* \"#utility.yul\":195:200   */\n      dup2\n        /* \"#utility.yul\":177:201   */\n      tag_122\n      jump\t// in\n    tag_184:\n        /* \"#utility.yul\":172:175   */\n      dup3\n        /* \"#utility.yul\":165:202   */\n      mstore\n        /* \"#utility.yul\":90:208   */\n      pop\n      pop\n      jump\t// out\n        /* \"#utility.yul\":214:436   */\n    tag_17:\n        /* \"#utility.yul\":307:311   */\n      0x00\n        /* \"#utility.yul\":345:347   */\n      0x20\n        /* \"#utility.yul\":334:343   */\n      dup3\n        /* \"#utility.yul\":330:348   */\n      add\n        /* \"#utility.yul\":322:348   */\n      swap1\n      pop\n        /* \"#utility.yul\":358:429   */\n      tag_186\n        /* \"#utility.yul\":426:427   */\n      0x00\n        /* \"#utility.yul\":415:424   */\n      dup4\n        /* \"#utility.yul\":411:428   */\n      add\n        /* \"#utility.yul\":402:408   */\n      dup5\n        /* \"#utility.yul\":358:429   */\n      tag_123\n      jump\t// in\n    tag_186:\n        /* \"#utility.yul\":214:436   */\n      swap3\n      swap2\n      pop\n      pop\n      jump\t// out\n        /* \"#utility.yul\":442:541   */\n    tag_124:\n        /* \"#utility.yul\":494:500   */\n      0x00\n        /* \"#utility.yul\":528:533   */\n      dup2\n        /* \"#utility.yul\":522:534   */\n      mload\n        /* \"#utility.yul\":512:534   */\n      swap1\n      pop\n        /* \"#utility.yul\":442:541   */\n      swap2\n      swap1\n      pop\n      jump\t// out\n        /* \"#utility.yul\":547:716   */\n    tag_125:\n        /* \"#utility.yul\":631:642   */\n      0x00\n        /* \"#utility.yul\":665:671   */\n      dup3\n        /* \"#utility.yul\":660:663   */\n      dup3\n        /* \"#utility.yul\":653:672   */\n      mstore\n        /* \"#utility.yul\":705:709   */\n      0x20\n        /* \"#utility.yul\":700:703   */\n      dup3\n        /* \"#utility.yul\":696:710   */\n      add\n        /* \"#utility.yul\":681:710   */\n      swap1\n      pop\n        /* \"#utility.yul\":547:716   */\n      swap3\n      swap2\n      pop\n      pop\n      jump\t// out\n        /* \"#utility.yul\":722:861   */\n    tag_126:\n        /* \"#utility.yul\":811:817   */\n      dup3\n        /* \"#utility.yul\":806:809   */\n      dup2\n        /* \"#utility.yul\":801:804   */\n      dup4\n        /* \"#utility.yul\":795:818   */\n      mcopy\n        /* \"#utility.yul\":852:853   */\n      0x00\n        /* \"#utility.yul\":843:849   */\n      dup4\n        /* \"#utility.yul\":838:841   */\n      dup4\n        /* \"#utility.yul\":834:850   */\n      add\n        /* \"#utility.yul\":827:854   */\n      mstore\n        /* \"#utility.yul\":722:861   */\n      pop\n      pop\n      pop\n      jump\t// out\n        /* \"#utility.yul\":867:969   */\n    tag_127:\n        /* \"#utility.yul\":908:914   */\n      0x00\n        /* \"#utility.yul\":959:961   */\n      0x1f\n        /* \"#utility.yul\":955:962   */\n      not\n        /* \"#utility.yul\":950:952   */\n      0x1f\n        /* \"#utility.yul\":943:948   */\n      dup4\n        /* \"#utility.yul\":939:953   */\n      add\n        /* \"#utility.yul\":935:963   */\n      and\n        /* \"#utility.yul\":925:963   */\n      swap1\n      pop\n        /* \"#utility.yul\":867:969   */\n      swap2\n      swap1\n      pop\n      jump\t// out\n        /* \"#utility.yul\":975:1352   */\n    tag_128:\n        /* \"#utility.yul\":1063:1066   */\n      0x00\n        /* \"#utility.yul\":1091:1130   */\n      tag_192\n        /* \"#utility.yul\":1124:1129   */\n      dup3\n        /* \"#utility.yul\":1091:1130   */\n      tag_124\n      jump\t// in\n    tag_192:\n        /* \"#utility.yul\":1146:1217   */\n      tag_193\n        /* \"#utility.yul\":1210:1216   */\n      dup2\n        /* \"#utility.yul\":1205:1208   */\n      dup6\n        /* \"#utility.yul\":1146:1217   */\n      tag_125\n      jump\t// in\n    tag_193:\n        /* \"#utility.yul\":1139:1217   */\n      swap4\n      pop\n        /* \"#utility.yul\":1226:1291   */\n      tag_194\n        /* \"#utility.yul\":1284:1290   */\n      dup2\n        /* \"#utility.yul\":1279:1282   */\n      dup6\n        /* \"#utility.yul\":1272:1276   */\n      0x20\n        /* \"#utility.yul\":1265:1270   */\n      dup7\n        /* \"#utility.yul\":1261:1277   */\n      add\n        /* \"#utility.yul\":1226:1291   */\n      tag_126\n      jump\t// in\n    tag_194:\n        /* \"#utility.yul\":1316:1345   */\n      tag_195\n        /* \"#utility.yul\":1338:1344   */\n      dup2\n        /* \"#utility.yul\":1316:1345   */\n      tag_127\n      jump\t// in\n    tag_195:\n        /* \"#utility.yul\":1311:1314   */\n      dup5\n        /* \"#utility.yul\":1307:1346   */\n      add\n        /* \"#utility.yul\":1300:1346   */\n      swap2\n      pop\n        /* \"#utility.yul\":1067:1352   */\n      pop\n        /* \"#utility.yul\":975:1352   */\n      swap3\n      swap2\n      pop\n      pop\n      jump\t// out\n        /* \"#utility.yul\":1358:1671   */\n    tag_22:\n        /* \"#utility.yul\":1471:1475   */\n      0x00\n        /* \"#utility.yul\":1509:1511   */\n      0x20\n        /* \"#utility.yul\":1498:1507   */\n      dup3\n        /* \"#utility.yul\":1494:1512   */\n      add\n        /* \"#utility.yul\":1486:1512   */\n      swap1\n      pop\n        /* \"#utility.yul\":1558:1567   */\n      dup2\n        /* \"#utility.yul\":1552:1556   */\n      dup2\n        /* \"#utility.yul\":1548:1568   */\n      sub\n        /* \"#utility.yul\":1544:1545   */\n      0x00\n        /* \"#utility.yul\":1533:1542   */\n      dup4\n        /* \"#utility.yul\":1529:1546   */\n      add\n        /* \"#utility.yul\":1522:1569   */\n      mstore\n        /* \"#utility.yul\":1586:1664   */\n      tag_197\n        /* \"#utility.yul\":1659:1663   */\n      dup2\n        /* \"#utility.yul\":1650:1656   */\n      dup5\n        /* \"#utility.yul\":1586:1664   */\n      tag_128\n      jump\t// in\n    tag_197:\n        /* \"#utility.yul\":1578:1664   */\n      swap1\n      pop\n        /* \"#utility.yul\":1358:1671   */\n      swap3\n      swap2\n      pop\n      pop\n      jump\t// out\n        /* \"#utility.yul\":1677:1752   */\n    tag_129:\n        /* \"#utility.yul\":1710:1716   */\n      0x00\n        /* \"#utility.yul\":1743:1745   */\n      0x40\n        /* \"#utility.yul\":1737:1746   */\n      mload\n        /* \"#utility.yul\":1727:1746   */\n      swap1\n      pop\n        /* \"#utility.yul\":1677:1752   */\n      swap1\n      jump\t// out\n        /* \"#utility.yul\":1758:1875   */\n    tag_130:\n        /* \"#utility.yul\":1867:1868   */\n      0x00\n        /* \"#utility.yul\":1864:1865   */\n      0x00\n        /* \"#utility.yul\":1857:1869   */\n      revert\n        /* \"#utility.yul\":2004:2126   */\n    tag_132:\n        /* \"#utility.yul\":2077:2101   */\n      tag_202\n        /* \"#utility.yul\":2095:2100   */\n      dup2\n        /* \"#utility.yul\":2077:2101   */\n      tag_122\n      jump\t// in\n    tag_202:\n        /* \"#utility.yul\":2070:2075   */\n      dup2\n        /* \"#utility.yul\":2067:2102   */\n      eq\n        /* \"#utility.yul\":2057:2120   */\n      tag_203\n      jumpi\n        /* \"#utility.yul\":2116:2117   */\n      0x00\n        /* \"#utility.yul\":2113:2114   */\n      0x00\n        /* \"#utility.yul\":2106:2118   */\n      revert\n        /* \"#utility.yul\":2057:2120   */\n    tag_203:\n        /* \"#utility.yul\":2004:2126   */\n      pop\n      jump\t// out\n        /* \"#utility.yul\":2132:2271   */\n    tag_133:\n        /* \"#utility.yul\":2178:2183   */\n      0x00\n        /* \"#utility.yul\":2216:2222   */\n      dup2\n        /* \"#utility.yul\":2203:2223   */\n      calldataload\n        /* \"#utility.yul\":2194:2223   */\n      swap1\n      pop\n        /* \"#utility.yul\":2232:2265   */\n      tag_205\n        /* \"#utility.yul\":2259:2264   */\n      dup2\n        /* \"#utility.yul\":2232:2265   */\n      tag_132\n      jump\t// in\n    tag_205:\n        /* \"#utility.yul\":2132:2271   */\n      swap3\n      swap2\n      pop\n      pop\n      jump\t// out\n        /* \"#utility.yul\":2277:2751   */\n    tag_26:\n        /* \"#utility.yul\":2345:2351   */\n      0x00\n        /* \"#utility.yul\":2353:2359   */\n      0x00\n        /* \"#utility.yul\":2402:2404   */\n      0x40\n        /* \"#utility.yul\":2390:2399   */\n      dup4\n        /* \"#utility.yul\":2381:2388   */\n      dup6\n        /* \"#utility.yul\":2377:2400   */\n      sub\n        /* \"#utility.yul\":2373:2405   */\n      slt\n        /* \"#utility.yul\":2370:2489   */\n      iszero\n      tag_207\n      jumpi\n        /* \"#utility.yul\":2408:2487   */\n      tag_208\n      tag_130\n      jump\t// in\n    tag_208:\n        /* \"#utility.yul\":2370:2489   */\n    tag_207:\n        /* \"#utility.yul\":2528:2529   */\n      0x00\n        /* \"#utility.yul\":2553:2606   */\n      tag_209\n        /* \"#utility.yul\":2598:2605   */\n      dup6\n        /* \"#utility.yul\":2589:2595   */\n      dup3\n        /* \"#utility.yul\":2578:2587   */\n      dup7\n        /* \"#utility.yul\":2574:2596   */\n      add\n        /* \"#utility.yul\":2553:2606   */\n      tag_133\n      jump\t// in\n    tag_209:\n        /* \"#utility.yul\":2543:2606   */\n      swap3\n      pop\n        /* \"#utility.yul\":2499:2616   */\n      pop\n        /* \"#utility.yul\":2655:2657   */\n      0x20\n        /* \"#utility.yul\":2681:2734   */\n      tag_210\n        /* \"#utility.yul\":2726:2733   */\n      dup6\n        /* \"#utility.yul\":2717:2723   */\n      dup3\n        /* \"#utility.yul\":2706:2715   */\n      dup7\n        /* \"#utility.yul\":2702:2724   */\n      add\n        /* \"#utility.yul\":2681:2734   */\n      tag_133\n      jump\t// in\n    tag_210:\n        /* \"#utility.yul\":2671:2734   */\n      swap2\n      pop\n        /* \"#utility.yul\":2626:2744   */\n      pop\n        /* \"#utility.yul\":2277:2751   */\n      swap3\n      pop\n      swap3\n      swap1\n      pop\n      jump\t// out\n        /* \"#utility.yul\":2757:3089   */\n    tag_29:\n        /* \"#utility.yul\":2878:2882   */\n      0x00\n        /* \"#utility.yul\":2916:2918   */\n      0x40\n        /* \"#utility.yul\":2905:2914   */\n      dup3\n        /* \"#utility.yul\":2901:2919   */\n      add\n        /* \"#utility.yul\":2893:2919   */\n      swap1\n      pop\n        /* \"#utility.yul\":2929:3000   */\n      tag_212\n        /* \"#utility.yul\":2997:2998   */\n      0x00\n        /* \"#utility.yul\":2986:2995   */\n      dup4\n        /* \"#utility.yul\":2982:2999   */\n      add\n        /* \"#utility.yul\":2973:2979   */\n      dup6\n        /* \"#utility.yul\":2929:3000   */\n      tag_123\n      jump\t// in\n    tag_212:\n        /* \"#utility.yul\":3010:3082   */\n      tag_213\n        /* \"#utility.yul\":3078:3080   */\n      0x20\n        /* \"#utility.yul\":3067:3076   */\n      dup4\n        /* \"#utility.yul\":3063:3081   */\n      add\n        /* \"#utility.yul\":3054:3060   */\n      dup5\n        /* \"#utility.yul\":3010:3082   */\n      tag_123\n      jump\t// in\n    tag_213:\n        /* \"#utility.yul\":2757:3089   */\n      swap4\n      swap3\n      pop\n      pop\n      pop\n      jump\t// out\n        /* \"#utility.yul\":3095:3221   */\n    tag_134:\n        /* \"#utility.yul\":3132:3139   */\n      0x00\n        /* \"#utility.yul\":3172:3214   */\n      0xffffffffffffffffffffffffffffffffffffffff\n        /* \"#utility.yul\":3165:3170   */\n      dup3\n        /* \"#utility.yul\":3161:3215   */\n      and\n        /* \"#utility.yul\":3150:3215   */\n      swap1\n      pop\n        /* \"#utility.yul\":3095:3221   */\n      swap2\n      swap1\n      pop\n      jump\t// out\n        /* \"#utility.yul\":3227:3323   */\n    tag_135:\n        /* \"#utility.yul\":3264:3271   */\n      0x00\n        /* \"#utility.yul\":3293:3317   */\n      tag_216\n        /* \"#utility.yul\":3311:3316   */\n      dup3\n        /* \"#utility.yul\":3293:3317   */\n      tag_134\n      jump\t// in\n    tag_216:\n        /* \"#utility.yul\":3282:3317   */\n      swap1\n      pop\n        /* \"#utility.yul\":3227:3323   */\n      swap2\n      swap1\n      pop\n      jump\t// out\n        /* \"#utility.yul\":3329:3451   */\n    tag_136:\n        /* \"#utility.yul\":3402:3426   */\n      tag_218\n        /* \"#utility.yul\":3420:3425   */\n      dup2\n        /* \"#utility.yul\":3402:3426   */\n      tag_135\n      jump\t// in\n    tag_218:\n        /* \"#utility.yul\":3395:3400   */\n      dup2\n        /* \"#utility.yul\":3392:3427   */\n      eq\n        /* \"#utility.yul\":3382:3445   */\n      tag_219\n      jumpi\n        /* \"#utility.yul\":3441:3442   */\n      0x00\n        /* \"#utility.yul\":3438:3439   */\n      0x00\n        /* \"#utility.yul\":3431:3443   */\n      revert\n        /* \"#utility.yul\":3382:3445   */\n    tag_219:\n        /* \"#utility.yul\":3329:3451   */\n      pop\n      jump\t// out\n        /* \"#utility.yul\":3457:3596   */\n    tag_137:\n        /* \"#utility.yul\":3503:3508   */\n      0x00\n        /* \"#utility.yul\":3541:3547   */\n      dup2\n        /* \"#utility.yul\":3528:3548   */\n      calldataload\n        /* \"#utility.yul\":3519:3548   */\n      swap1\n      pop\n        /* \"#utility.yul\":3557:3590   */\n      tag_221\n        /* \"#utility.yul\":3584:3589   */\n      dup2\n        /* \"#utility.yul\":3557:3590   */\n      tag_136\n      jump\t// in\n    tag_221:\n        /* \"#utility.yul\":3457:3596   */\n      swap3\n      swap2\n      pop\n      pop\n      jump\t// out\n        /* \"#utility.yul\":3602:3713   */\n    tag_138:\n        /* \"#utility.yul\":3687:3688   */\n      0x03\n        /* \"#utility.yul\":3680:3685   */\n      dup2\n        /* \"#utility.yul\":3677:3689   */\n      lt\n        /* \"#utility.yul\":3667:3707   */\n      tag_223\n      jumpi\n        /* \"#utility.yul\":3703:3704   */\n      0x00\n        /* \"#utility.yul\":3700:3701   */\n      0x00\n        /* \"#utility.yul\":3693:3705   */\n      revert\n        /* \"#utility.yul\":3667:3707   */\n    tag_223:\n        /* \"#utility.yul\":3602:3713   */\n      pop\n      jump\t// out\n        /* \"#utility.yul\":3719:3882   */\n    tag_139:\n        /* \"#utility.yul\":3777:3782   */\n      0x00\n        /* \"#utility.yul\":3815:3821   */\n      dup2\n        /* \"#utility.yul\":3802:3822   */\n      calldataload\n        /* \"#utility.yul\":3793:3822   */\n      swap1\n      pop\n        /* \"#utility.yul\":3831:3876   */\n      tag_225\n        /* \"#utility.yul\":3870:3875   */\n      dup2\n        /* \"#utility.yul\":3831:3876   */\n      tag_138\n      jump\t// in\n    tag_225:\n        /* \"#utility.yul\":3719:3882   */\n      swap3\n      swap2\n      pop\n      pop\n      jump\t// out\n        /* \"#utility.yul\":3888:5553   */\n    tag_32:\n        /* \"#utility.yul\":4040:4046   */\n      0x00\n        /* \"#utility.yul\":4048:4054   */\n      0x00\n        /* \"#utility.yul\":4056:4062   */\n      0x00\n        /* \"#utility.yul\":4064:4070   */\n      0x00\n        /* \"#utility.yul\":4072:4078   */\n      0x00\n        /* \"#utility.yul\":4080:4086   */\n      0x00\n        /* \"#utility.yul\":4088:4094   */\n      0x00\n        /* \"#utility.yul\":4096:4102   */\n      0x00\n        /* \"#utility.yul\":4104:4110   */\n      0x00\n        /* \"#utility.yul\":4112:4118   */\n      0x00\n        /* \"#utility.yul\":4161:4164   */\n      0x0140\n        /* \"#utility.yul\":4149:4158   */\n      dup12\n        /* \"#utility.yul\":4140:4147   */\n      dup14\n        /* \"#utility.yul\":4136:4159   */\n      sub\n        /* \"#utility.yul\":4132:4165   */\n      slt\n        /* \"#utility.yul\":4129:4249   */\n      iszero\n      tag_227\n      jumpi\n        /* \"#utility.yul\":4168:4247   */\n      tag_228\n      tag_130\n      jump\t// in\n    tag_228:\n        /* \"#utility.yul\":4129:4249   */\n    tag_227:\n        /* \"#utility.yul\":4288:4289   */\n      0x00\n        /* \"#utility.yul\":4313:4366   */\n      tag_229\n        /* \"#utility.yul\":4358:4365   */\n      dup14\n        /* \"#utility.yul\":4349:4355   */\n      dup3\n        /* \"#utility.yul\":4338:4347   */\n      dup15\n        /* \"#utility.yul\":4334:4356   */\n      add\n        /* \"#utility.yul\":4313:4366   */\n      tag_137\n      jump\t// in\n    tag_229:\n        /* \"#utility.yul\":4303:4366   */\n      swap11\n      pop\n        /* \"#utility.yul\":4259:4376   */\n      pop\n        /* \"#utility.yul\":4415:4417   */\n      0x20\n        /* \"#utility.yul\":4441:4494   */\n      tag_230\n        /* \"#utility.yul\":4486:4493   */\n      dup14\n        /* \"#utility.yul\":4477:4483   */\n      dup3\n        /* \"#utility.yul\":4466:4475   */\n      dup15\n        /* \"#utility.yul\":4462:4484   */\n      add\n        /* \"#utility.yul\":4441:4494   */\n      tag_137\n      jump\t// in\n    tag_230:\n        /* \"#utility.yul\":4431:4494   */\n      swap10\n      pop\n        /* \"#utility.yul\":4386:4504   */\n      pop\n        /* \"#utility.yul\":4543:4545   */\n      0x40\n        /* \"#utility.yul\":4569:4622   */\n      tag_231\n        /* \"#utility.yul\":4614:4621   */\n      dup14\n        /* \"#utility.yul\":4605:4611   */\n      dup3\n        /* \"#utility.yul\":4594:4603   */\n      dup15\n        /* \"#utility.yul\":4590:4612   */\n      add\n        /* \"#utility.yul\":4569:4622   */\n      tag_133\n      jump\t// in\n    tag_231:\n        /* \"#utility.yul\":4559:4622   */\n      swap9\n      pop\n        /* \"#utility.yul\":4514:4632   */\n      pop\n        /* \"#utility.yul\":4671:4673   */\n      0x60\n        /* \"#utility.yul\":4697:4750   */\n      tag_232\n        /* \"#utility.yul\":4742:4749   */\n      dup14\n        /* \"#utility.yul\":4733:4739   */\n      dup3\n        /* \"#utility.yul\":4722:4731   */\n      dup15\n        /* \"#utility.yul\":4718:4740   */\n      add\n        /* \"#utility.yul\":4697:4750   */\n      tag_133\n      jump\t// in\n    tag_232:\n        /* \"#utility.yul\":4687:4750   */\n      swap8\n      pop\n        /* \"#utility.yul\":4642:4760   */\n      pop\n        /* \"#utility.yul\":4799:4802   */\n      0x80\n        /* \"#utility.yul\":4826:4879   */\n      tag_233\n        /* \"#utility.yul\":4871:4878   */\n      dup14\n        /* \"#utility.yul\":4862:4868   */\n      dup3\n        /* \"#utility.yul\":4851:4860   */\n      dup15\n        /* \"#utility.yul\":4847:4869   */\n      add\n        /* \"#utility.yul\":4826:4879   */\n      tag_133\n      jump\t// in\n    tag_233:\n        /* \"#utility.yul\":4816:4879   */\n      swap7\n      pop\n        /* \"#utility.yul\":4770:4889   */\n      pop\n        /* \"#utility.yul\":4928:4931   */\n      0xa0\n        /* \"#utility.yul\":4955:5008   */\n      tag_234\n        /* \"#utility.yul\":5000:5007   */\n      dup14\n        /* \"#utility.yul\":4991:4997   */\n      dup3\n        /* \"#utility.yul\":4980:4989   */\n      dup15\n        /* \"#utility.yul\":4976:4998   */\n      add\n        /* \"#utility.yul\":4955:5008   */\n      tag_133\n      jump\t// in\n    tag_234:\n        /* \"#utility.yul\":4945:5008   */\n      swap6\n      pop\n        /* \"#utility.yul\":4899:5018   */\n      pop\n        /* \"#utility.yul\":5057:5060   */\n      0xc0\n        /* \"#utility.yul\":5084:5149   */\n      tag_235\n        /* \"#utility.yul\":5141:5148   */\n      dup14\n        /* \"#utility.yul\":5132:5138   */\n      dup3\n        /* \"#utility.yul\":5121:5130   */\n      dup15\n        /* \"#utility.yul\":5117:5139   */\n      add\n        /* \"#utility.yul\":5084:5149   */\n      tag_139\n      jump\t// in\n    tag_235:\n        /* \"#utility.yul\":5074:5149   */\n      swap5\n      pop\n        /* \"#utility.yul\":5028:5159   */\n      pop\n        /* \"#utility.yul\":5198:5201   */\n      0xe0\n        /* \"#utility.yul\":5225:5278   */\n      tag_236\n        /* \"#utility.yul\":5270:5277   */\n      dup14\n        /* \"#utility.yul\":5261:5267   */\n      dup3\n        /* \"#utility.yul\":5250:5259   */\n      dup15\n        /* \"#utility.yul\":5246:5268   */\n      add\n        /* \"#utility.yul\":5225:5278   */\n      tag_133\n      jump\t// in\n    tag_236:\n        /* \"#utility.yul\":5215:5278   */\n      swap4\n      pop\n        /* \"#utility.yul\":5169:5288   */\n      pop\n        /* \"#utility.yul\":5327:5330   */\n      0x0100\n        /* \"#utility.yul\":5354:5407   */\n      tag_237\n        /* \"#utility.yul\":5399:5406   */\n      dup14\n        /* \"#utility.yul\":5390:5396   */\n      dup3\n        /* \"#utility.yul\":5379:5388   */\n      dup15\n        /* \"#utility.yul\":5375:5397   */\n      add\n        /* \"#utility.yul\":5354:5407   */\n      tag_133\n      jump\t// in\n    tag_237:\n        /* \"#utility.yul\":5344:5407   */\n      swap3\n      pop\n        /* \"#utility.yul\":5298:5417   */\n      pop\n        /* \"#utility.yul\":5456:5459   */\n      0x0120\n        /* \"#utility.yul\":5483:5536   */\n      tag_238\n        /* \"#utility.yul\":5528:5535   */\n      dup14\n        /* \"#utility.yul\":5519:5525   */\n      dup3\n        /* \"#utility.yul\":5508:5517   */\n      dup15\n        /* \"#utility.yul\":5504:5526   */\n      add\n        /* \"#utility.yul\":5483:5536   */\n      tag_133\n      jump\t// in\n    tag_238:\n        /* \"#utility.yul\":5473:5536   */\n      swap2\n      pop\n        /* \"#utility.yul\":5427:5546   */\n      pop\n        /* \"#utility.yul\":3888:5553   */\n      swap3\n      swap6\n      swap9\n      swap12\n      swap2\n      swap5\n      swap8\n      swap11\n      pop\n      swap3\n      swap6\n      swap9\n      pop\n      jump\t// out\n        /* \"#utility.yul\":5559:5888   */\n    tag_38:\n        /* \"#utility.yul\":5618:5624   */\n      0x00\n        /* \"#utility.yul\":5667:5669   */\n      0x20\n        /* \"#utility.yul\":5655:5664   */\n      dup3\n        /* \"#utility.yul\":5646:5653   */\n      dup5\n        /* \"#utility.yul\":5642:5665   */\n      sub\n        /* \"#utility.yul\":5638:5670   */\n      slt\n        /* \"#utility.yul\":5635:5754   */\n      iszero\n      tag_240\n      jumpi\n        /* \"#utility.yul\":5673:5752   */\n      tag_241\n      tag_130\n      jump\t// in\n    tag_241:\n        /* \"#utility.yul\":5635:5754   */\n    tag_240:\n        /* \"#utility.yul\":5793:5794   */\n      0x00\n        /* \"#utility.yul\":5818:5871   */\n      tag_242\n        /* \"#utility.yul\":5863:5870   */\n      dup5\n        /* \"#utility.yul\":5854:5860   */\n      dup3\n        /* \"#utility.yul\":5843:5852   */\n      dup6\n        /* \"#utility.yul\":5839:5861   */\n      add\n        /* \"#utility.yul\":5818:5871   */\n      tag_133\n      jump\t// in\n    tag_242:\n        /* \"#utility.yul\":5808:5871   */\n      swap2\n      pop\n        /* \"#utility.yul\":5764:5881   */\n      pop\n        /* \"#utility.yul\":5559:5888   */\n      swap3\n      swap2\n      pop\n      pop\n      jump\t// out\n        /* \"#utility.yul\":5894:5984   */\n    tag_140:\n        /* \"#utility.yul\":5928:5935   */\n      0x00\n        /* \"#utility.yul\":5971:5976   */\n      dup2\n        /* \"#utility.yul\":5964:5977   */\n      iszero\n        /* \"#utility.yul\":5957:5978   */\n      iszero\n        /* \"#utility.yul\":5946:5978   */\n      swap1\n      pop\n        /* \"#utility.yul\":5894:5984   */\n      swap2\n      swap1\n      pop\n      jump\t// out\n        /* \"#utility.yul\":5990:6099   */\n    tag_141:\n        /* \"#utility.yul\":6071:6092   */\n      tag_245\n        /* \"#utility.yul\":6086:6091   */\n      dup2\n        /* \"#utility.yul\":6071:6092   */\n      tag_140\n      jump\t// in\n    tag_245:\n        /* \"#utility.yul\":6066:6069   */\n      dup3\n        /* \"#utility.yul\":6059:6093   */\n      mstore\n        /* \"#utility.yul\":5990:6099   */\n      pop\n      pop\n      jump\t// out\n        /* \"#utility.yul\":6105:6315   */\n    tag_41:\n        /* \"#utility.yul\":6192:6196   */\n      0x00\n        /* \"#utility.yul\":6230:6232   */\n      0x20\n        /* \"#utility.yul\":6219:6228   */\n      dup3\n        /* \"#utility.yul\":6215:6233   */\n      add\n        /* \"#utility.yul\":6207:6233   */\n      swap1\n      pop\n        /* \"#utility.yul\":6243:6308   */\n      tag_247\n        /* \"#utility.yul\":6305:6306   */\n      0x00\n        /* \"#utility.yul\":6294:6303   */\n      dup4\n        /* \"#utility.yul\":6290:6307   */\n      add\n        /* \"#utility.yul\":6281:6287   */\n      dup5\n        /* \"#utility.yul\":6243:6308   */\n      tag_141\n      jump\t// in\n    tag_247:\n        /* \"#utility.yul\":6105:6315   */\n      swap3\n      swap2\n      pop\n      pop\n      jump\t// out\n        /* \"#utility.yul\":6321:6940   */\n    tag_44:\n        /* \"#utility.yul\":6398:6404   */\n      0x00\n        /* \"#utility.yul\":6406:6412   */\n      0x00\n        /* \"#utility.yul\":6414:6420   */\n      0x00\n        /* \"#utility.yul\":6463:6465   */\n      0x60\n        /* \"#utility.yul\":6451:6460   */\n      dup5\n        /* \"#utility.yul\":6442:6449   */\n      dup7\n        /* \"#utility.yul\":6438:6461   */\n      sub\n        /* \"#utility.yul\":6434:6466   */\n      slt\n        /* \"#utility.yul\":6431:6550   */\n      iszero\n      tag_249\n      jumpi\n        /* \"#utility.yul\":6469:6548   */\n      tag_250\n      tag_130\n      jump\t// in\n    tag_250:\n        /* \"#utility.yul\":6431:6550   */\n    tag_249:\n        /* \"#utility.yul\":6589:6590   */\n      0x00\n        /* \"#utility.yul\":6614:6667   */\n      tag_251\n        /* \"#utility.yul\":6659:6666   */\n      dup7\n        /* \"#utility.yul\":6650:6656   */\n      dup3\n        /* \"#utility.yul\":6639:6648   */\n      dup8\n        /* \"#utility.yul\":6635:6657   */\n      add\n        /* \"#utility.yul\":6614:6667   */\n      tag_133\n      jump\t// in\n    tag_251:\n        /* \"#utility.yul\":6604:6667   */\n      swap4\n      pop\n        /* \"#utility.yul\":6560:6677   */\n      pop\n        /* \"#utility.yul\":6716:6718   */\n      0x20\n        /* \"#utility.yul\":6742:6795   */\n      tag_252\n        /* \"#utility.yul\":6787:6794   */\n      dup7\n        /* \"#utility.yul\":6778:6784   */\n      dup3\n        /* \"#utility.yul\":6767:6776   */\n      dup8\n        /* \"#utility.yul\":6763:6785   */\n      add\n        /* \"#utility.yul\":6742:6795   */\n      tag_133\n      jump\t// in\n    tag_252:\n        /* \"#utility.yul\":6732:6795   */\n      swap3\n      pop\n        /* \"#utility.yul\":6687:6805   */\n      pop\n        /* \"#utility.yul\":6844:6846   */\n      0x40\n        /* \"#utility.yul\":6870:6923   */\n      tag_253\n        /* \"#utility.yul\":6915:6922   */\n      dup7\n        /* \"#utility.yul\":6906:6912   */\n      dup3\n        /* \"#utility.yul\":6895:6904   */\n      dup8\n        /* \"#utility.yul\":6891:6913   */\n      add\n        /* \"#utility.yul\":6870:6923   */\n      tag_133\n      jump\t// in\n    tag_253:\n        /* \"#utility.yul\":6860:6923   */\n      swap2\n      pop\n        /* \"#utility.yul\":6815:6933   */\n      pop\n        /* \"#utility.yul\":6321:6940   */\n      swap3\n      pop\n      swap3\n      pop\n      swap3\n      jump\t// out\n        /* \"#utility.yul\":6946:7060   */\n    tag_142:\n        /* \"#utility.yul\":7013:7019   */\n      0x00\n        /* \"#utility.yul\":7047:7052   */\n      dup2\n        /* \"#utility.yul\":7041:7053   */\n      mload\n        /* \"#utility.yul\":7031:7053   */\n      swap1\n      pop\n        /* \"#utility.yul\":6946:7060   */\n      swap2\n      swap1\n      pop\n      jump\t// out\n        /* \"#utility.yul\":7066:7250   */\n    tag_143:\n        /* \"#utility.yul\":7165:7176   */\n      0x00\n        /* \"#utility.yul\":7199:7205   */\n      dup3\n        /* \"#utility.yul\":7194:7197   */\n      dup3\n        /* \"#utility.yul\":7187:7206   */\n      mstore\n        /* \"#utility.yul\":7239:7243   */\n      0x20\n        /* \"#utility.yul\":7234:7237   */\n      dup3\n        /* \"#utility.yul\":7230:7244   */\n      add\n        /* \"#utility.yul\":7215:7244   */\n      swap1\n      pop\n        /* \"#utility.yul\":7066:7250   */\n      swap3\n      swap2\n      pop\n      pop\n      jump\t// out\n        /* \"#utility.yul\":7256:7388   */\n    tag_144:\n        /* \"#utility.yul\":7323:7327   */\n      0x00\n        /* \"#utility.yul\":7346:7349   */\n      dup2\n        /* \"#utility.yul\":7338:7349   */\n      swap1\n      pop\n        /* \"#utility.yul\":7376:7380   */\n      0x20\n        /* \"#utility.yul\":7371:7374   */\n      dup3\n        /* \"#utility.yul\":7367:7381   */\n      add\n        /* \"#utility.yul\":7359:7381   */\n      swap1\n      pop\n        /* \"#utility.yul\":7256:7388   */\n      swap2\n      swap1\n      pop\n      jump\t// out\n        /* \"#utility.yul\":7394:7502   */\n    tag_145:\n        /* \"#utility.yul\":7471:7495   */\n      tag_258\n        /* \"#utility.yul\":7489:7494   */\n      dup2\n        /* \"#utility.yul\":7471:7495   */\n      tag_135\n      jump\t// in\n    tag_258:\n        /* \"#utility.yul\":7466:7469   */\n      dup3\n        /* \"#utility.yul\":7459:7496   */\n      mstore\n        /* \"#utility.yul\":7394:7502   */\n      pop\n      pop\n      jump\t// out\n        /* \"#utility.yul\":7508:7687   */\n    tag_146:\n        /* \"#utility.yul\":7577:7587   */\n      0x00\n        /* \"#utility.yul\":7598:7644   */\n      tag_260\n        /* \"#utility.yul\":7640:7643   */\n      dup4\n        /* \"#utility.yul\":7632:7638   */\n      dup4\n        /* \"#utility.yul\":7598:7644   */\n      tag_145\n      jump\t// in\n    tag_260:\n        /* \"#utility.yul\":7676:7680   */\n      0x20\n        /* \"#utility.yul\":7671:7674   */\n      dup4\n        /* \"#utility.yul\":7667:7681   */\n      add\n        /* \"#utility.yul\":7653:7681   */\n      swap1\n      pop\n        /* \"#utility.yul\":7508:7687   */\n      swap3\n      swap2\n      pop\n      pop\n      jump\t// out\n        /* \"#utility.yul\":7693:7806   */\n    tag_147:\n        /* \"#utility.yul\":7763:7767   */\n      0x00\n        /* \"#utility.yul\":7795:7799   */\n      0x20\n        /* \"#utility.yul\":7790:7793   */\n      dup3\n        /* \"#utility.yul\":7786:7800   */\n      add\n        /* \"#utility.yul\":7778:7800   */\n      swap1\n      pop\n        /* \"#utility.yul\":7693:7806   */\n      swap2\n      swap1\n      pop\n      jump\t// out\n        /* \"#utility.yul\":7842:8574   */\n    tag_148:\n        /* \"#utility.yul\":7961:7964   */\n      0x00\n        /* \"#utility.yul\":7990:8044   */\n      tag_263\n        /* \"#utility.yul\":8038:8043   */\n      dup3\n        /* \"#utility.yul\":7990:8044   */\n      tag_142\n      jump\t// in\n    tag_263:\n        /* \"#utility.yul\":8060:8146   */\n      tag_264\n        /* \"#utility.yul\":8139:8145   */\n      dup2\n        /* \"#utility.yul\":8134:8137   */\n      dup6\n        /* \"#utility.yul\":8060:8146   */\n      tag_143\n      jump\t// in\n    tag_264:\n        /* \"#utility.yul\":8053:8146   */\n      swap4\n      pop\n        /* \"#utility.yul\":8170:8226   */\n      tag_265\n        /* \"#utility.yul\":8220:8225   */\n      dup4\n        /* \"#utility.yul\":8170:8226   */\n      tag_144\n      jump\t// in\n    tag_265:\n        /* \"#utility.yul\":8249:8256   */\n      dup1\n        /* \"#utility.yul\":8280:8281   */\n      0x00\n        /* \"#utility.yul\":8265:8549   */\n    tag_266:\n        /* \"#utility.yul\":8290:8296   */\n      dup4\n        /* \"#utility.yul\":8287:8288   */\n      dup2\n        /* \"#utility.yul\":8284:8297   */\n      lt\n        /* \"#utility.yul\":8265:8549   */\n      iszero\n      tag_268\n      jumpi\n        /* \"#utility.yul\":8366:8372   */\n      dup2\n        /* \"#utility.yul\":8360:8373   */\n      mload\n        /* \"#utility.yul\":8393:8456   */\n      tag_269\n        /* \"#utility.yul\":8452:8455   */\n      dup9\n        /* \"#utility.yul\":8437:8450   */\n      dup3\n        /* \"#utility.yul\":8393:8456   */\n      tag_146\n      jump\t// in\n    tag_269:\n        /* \"#utility.yul\":8386:8456   */\n      swap8\n      pop\n        /* \"#utility.yul\":8479:8539   */\n      tag_270\n        /* \"#utility.yul\":8532:8538   */\n      dup4\n        /* \"#utility.yul\":8479:8539   */\n      tag_147\n      jump\t// in\n    tag_270:\n        /* \"#utility.yul\":8469:8539   */\n      swap3\n      pop\n        /* \"#utility.yul\":8325:8549   */\n      pop\n        /* \"#utility.yul\":8312:8313   */\n      0x01\n        /* \"#utility.yul\":8309:8310   */\n      dup2\n        /* \"#utility.yul\":8305:8314   */\n      add\n        /* \"#utility.yul\":8300:8314   */\n      swap1\n      pop\n        /* \"#utility.yul\":8265:8549   */\n      jump(tag_266)\n    tag_268:\n        /* \"#utility.yul\":8269:8283   */\n      pop\n        /* \"#utility.yul\":8565:8568   */\n      dup6\n        /* \"#utility.yul\":8558:8568   */\n      swap4\n      pop\n        /* \"#utility.yul\":7966:8574   */\n      pop\n      pop\n      pop\n        /* \"#utility.yul\":7842:8574   */\n      swap3\n      swap2\n      pop\n      pop\n      jump\t// out\n        /* \"#utility.yul\":8580:8953   */\n    tag_51:\n        /* \"#utility.yul\":8723:8727   */\n      0x00\n        /* \"#utility.yul\":8761:8763   */\n      0x20\n        /* \"#utility.yul\":8750:8759   */\n      dup3\n        /* \"#utility.yul\":8746:8764   */\n      add\n        /* \"#utility.yul\":8738:8764   */\n      swap1\n      pop\n        /* \"#utility.yul\":8810:8819   */\n      dup2\n        /* \"#utility.yul\":8804:8808   */\n      dup2\n        /* \"#utility.yul\":8800:8820   */\n      sub\n        /* \"#utility.yul\":8796:8797   */\n      0x00\n        /* \"#utility.yul\":8785:8794   */\n      dup4\n        /* \"#utility.yul\":8781:8798   */\n      add\n        /* \"#utility.yul\":8774:8821   */\n      mstore\n        /* \"#utility.yul\":8838:8946   */\n      tag_272\n        /* \"#utility.yul\":8941:8945   */\n      dup2\n        /* \"#utility.yul\":8932:8938   */\n      dup5\n        /* \"#utility.yul\":8838:8946   */\n      tag_148\n      jump\t// in\n    tag_272:\n        /* \"#utility.yul\":8830:8946   */\n      swap1\n      pop\n        /* \"#utility.yul\":8580:8953   */\n      swap3\n      swap2\n      pop\n      pop\n      jump\t// out\n        /* \"#utility.yul\":8959:9067   */\n    tag_149:\n        /* \"#utility.yul\":9036:9060   */\n      tag_274\n        /* \"#utility.yul\":9054:9059   */\n      dup2\n        /* \"#utility.yul\":9036:9060   */\n      tag_122\n      jump\t// in\n    tag_274:\n        /* \"#utility.yul\":9031:9034   */\n      dup3\n        /* \"#utility.yul\":9024:9061   */\n      mstore\n        /* \"#utility.yul\":8959:9067   */\n      pop\n      pop\n      jump\t// out\n        /* \"#utility.yul\":9073:9253   */\n    tag_94:\n        /* \"#utility.yul\":9121:9198   */\n      0x4e487b7100000000000000000000000000000000000000000000000000000000\n        /* \"#utility.yul\":9118:9119   */\n      0x00\n        /* \"#utility.yul\":9111:9199   */\n      mstore\n        /* \"#utility.yul\":9218:9222   */\n      0x21\n        /* \"#utility.yul\":9215:9216   */\n      0x04\n        /* \"#utility.yul\":9208:9223   */\n      mstore\n        /* \"#utility.yul\":9242:9246   */\n      0x24\n        /* \"#utility.yul\":9239:9240   */\n      0x00\n        /* \"#utility.yul\":9232:9247   */\n      revert\n        /* \"#utility.yul\":9259:9376   */\n    tag_150:\n        /* \"#utility.yul\":9344:9345   */\n      0x03\n        /* \"#utility.yul\":9337:9342   */\n      dup2\n        /* \"#utility.yul\":9334:9346   */\n      lt\n        /* \"#utility.yul\":9324:9370   */\n      tag_277\n      jumpi\n        /* \"#utility.yul\":9350:9368   */\n      tag_278\n      tag_94\n      jump\t// in\n    tag_278:\n        /* \"#utility.yul\":9324:9370   */\n    tag_277:\n        /* \"#utility.yul\":9259:9376   */\n      pop\n      jump\t// out\n        /* \"#utility.yul\":9382:9517   */\n    tag_151:\n        /* \"#utility.yul\":9431:9438   */\n      0x00\n        /* \"#utility.yul\":9460:9465   */\n      dup2\n        /* \"#utility.yul\":9449:9465   */\n      swap1\n      pop\n        /* \"#utility.yul\":9466:9511   */\n      tag_280\n        /* \"#utility.yul\":9505:9510   */\n      dup3\n        /* \"#utility.yul\":9466:9511   */\n      tag_150\n      jump\t// in\n    tag_280:\n        /* \"#utility.yul\":9382:9517   */\n      swap2\n      swap1\n      pop\n      jump\t// out\n        /* \"#utility.yul\":9523:9658   */\n    tag_152:\n        /* \"#utility.yul\":9583:9592   */\n      0x00\n        /* \"#utility.yul\":9616:9652   */\n      tag_282\n        /* \"#utility.yul\":9646:9651   */\n      dup3\n        /* \"#utility.yul\":9616:9652   */\n      tag_151\n      jump\t// in\n    tag_282:\n        /* \"#utility.yul\":9603:9652   */\n      swap1\n      pop\n        /* \"#utility.yul\":9523:9658   */\n      swap2\n      swap1\n      pop\n      jump\t// out\n        /* \"#utility.yul\":9664:9805   */\n    tag_153:\n        /* \"#utility.yul\":9751:9798   */\n      tag_284\n        /* \"#utility.yul\":9792:9797   */\n      dup2\n        /* \"#utility.yul\":9751:9798   */\n      tag_152\n      jump\t// in\n    tag_284:\n        /* \"#utility.yul\":9746:9749   */\n      dup3\n        /* \"#utility.yul\":9739:9799   */\n      mstore\n        /* \"#utility.yul\":9664:9805   */\n      pop\n      pop\n      jump\t// out\n        /* \"#utility.yul\":9849:12538   */\n    tag_154:\n        /* \"#utility.yul\":9992:9998   */\n      0x01c0\n        /* \"#utility.yul\":9987:9990   */\n      dup3\n        /* \"#utility.yul\":9983:9999   */\n      add\n        /* \"#utility.yul\":10079:10083   */\n      0x00\n        /* \"#utility.yul\":10072:10077   */\n      dup3\n        /* \"#utility.yul\":10068:10084   */\n      add\n        /* \"#utility.yul\":10062:10085   */\n      mload\n        /* \"#utility.yul\":10098:10161   */\n      tag_286\n        /* \"#utility.yul\":10155:10159   */\n      0x00\n        /* \"#utility.yul\":10150:10153   */\n      dup6\n        /* \"#utility.yul\":10146:10160   */\n      add\n        /* \"#utility.yul\":10132:10144   */\n      dup3\n        /* \"#utility.yul\":10098:10161   */\n      tag_149\n      jump\t// in\n    tag_286:\n        /* \"#utility.yul\":10009:10171   */\n      pop\n        /* \"#utility.yul\":10254:10258   */\n      0x20\n        /* \"#utility.yul\":10247:10252   */\n      dup3\n        /* \"#utility.yul\":10243:10259   */\n      add\n        /* \"#utility.yul\":10237:10260   */\n      mload\n        /* \"#utility.yul\":10273:10336   */\n      tag_287\n        /* \"#utility.yul\":10330:10334   */\n      0x20\n        /* \"#utility.yul\":10325:10328   */\n      dup6\n        /* \"#utility.yul\":10321:10335   */\n      add\n        /* \"#utility.yul\":10307:10319   */\n      dup3\n        /* \"#utility.yul\":10273:10336   */\n      tag_145\n      jump\t// in\n    tag_287:\n        /* \"#utility.yul\":10181:10346   */\n      pop\n        /* \"#utility.yul\":10432:10436   */\n      0x40\n        /* \"#utility.yul\":10425:10430   */\n      dup3\n        /* \"#utility.yul\":10421:10437   */\n      add\n        /* \"#utility.yul\":10415:10438   */\n      mload\n        /* \"#utility.yul\":10451:10524   */\n      tag_288\n        /* \"#utility.yul\":10518:10522   */\n      0x40\n        /* \"#utility.yul\":10513:10516   */\n      dup6\n        /* \"#utility.yul\":10509:10523   */\n      add\n        /* \"#utility.yul\":10495:10507   */\n      dup3\n        /* \"#utility.yul\":10451:10524   */\n      tag_153\n      jump\t// in\n    tag_288:\n        /* \"#utility.yul\":10356:10534   */\n      pop\n        /* \"#utility.yul\":10621:10625   */\n      0x60\n        /* \"#utility.yul\":10614:10619   */\n      dup3\n        /* \"#utility.yul\":10610:10626   */\n      add\n        /* \"#utility.yul\":10604:10627   */\n      mload\n        /* \"#utility.yul\":10640:10703   */\n      tag_289\n        /* \"#utility.yul\":10697:10701   */\n      0x60\n        /* \"#utility.yul\":10692:10695   */\n      dup6\n        /* \"#utility.yul\":10688:10702   */\n      add\n        /* \"#utility.yul\":10674:10686   */\n      dup3\n        /* \"#utility.yul\":10640:10703   */\n      tag_145\n      jump\t// in\n    tag_289:\n        /* \"#utility.yul\":10544:10713   */\n      pop\n        /* \"#utility.yul\":10798:10802   */\n      0x80\n        /* \"#utility.yul\":10791:10796   */\n      dup3\n        /* \"#utility.yul\":10787:10803   */\n      add\n        /* \"#utility.yul\":10781:10804   */\n      mload\n        /* \"#utility.yul\":10817:10880   */\n      tag_290\n        /* \"#utility.yul\":10874:10878   */\n      0x80\n        /* \"#utility.yul\":10869:10872   */\n      dup6\n        /* \"#utility.yul\":10865:10879   */\n      add\n        /* \"#utility.yul\":10851:10863   */\n      dup3\n        /* \"#utility.yul\":10817:10880   */\n      tag_145\n      jump\t// in\n    tag_290:\n        /* \"#utility.yul\":10723:10890   */\n      pop\n        /* \"#utility.yul\":10979:10983   */\n      0xa0\n        /* \"#utility.yul\":10972:10977   */\n      dup3\n        /* \"#utility.yul\":10968:10984   */\n      add\n        /* \"#utility.yul\":10962:10985   */\n      mload\n        /* \"#utility.yul\":10998:11061   */\n      tag_291\n        /* \"#utility.yul\":11055:11059   */\n      0xa0\n        /* \"#utility.yul\":11050:11053   */\n      dup6\n        /* \"#utility.yul\":11046:11060   */\n      add\n        /* \"#utility.yul\":11032:11044   */\n      dup3\n        /* \"#utility.yul\":10998:11061   */\n      tag_149\n      jump\t// in\n    tag_291:\n        /* \"#utility.yul\":10900:11071   */\n      pop\n        /* \"#utility.yul\":11160:11164   */\n      0xc0\n        /* \"#utility.yul\":11153:11158   */\n      dup3\n        /* \"#utility.yul\":11149:11165   */\n      add\n        /* \"#utility.yul\":11143:11166   */\n      mload\n        /* \"#utility.yul\":11179:11242   */\n      tag_292\n        /* \"#utility.yul\":11236:11240   */\n      0xc0\n        /* \"#utility.yul\":11231:11234   */\n      dup6\n        /* \"#utility.yul\":11227:11241   */\n      add\n        /* \"#utility.yul\":11213:11225   */\n      dup3\n        /* \"#utility.yul\":11179:11242   */\n      tag_149\n      jump\t// in\n    tag_292:\n        /* \"#utility.yul\":11081:11252   */\n      pop\n        /* \"#utility.yul\":11339:11343   */\n      0xe0\n        /* \"#utility.yul\":11332:11337   */\n      dup3\n        /* \"#utility.yul\":11328:11344   */\n      add\n        /* \"#utility.yul\":11322:11345   */\n      mload\n        /* \"#utility.yul\":11358:11421   */\n      tag_293\n        /* \"#utility.yul\":11415:11419   */\n      0xe0\n        /* \"#utility.yul\":11410:11413   */\n      dup6\n        /* \"#utility.yul\":11406:11420   */\n      add\n        /* \"#utility.yul\":11392:11404   */\n      dup3\n        /* \"#utility.yul\":11358:11421   */\n      tag_149\n      jump\t// in\n    tag_293:\n        /* \"#utility.yul\":11262:11431   */\n      pop\n        /* \"#utility.yul\":11518:11524   */\n      0x0100\n        /* \"#utility.yul\":11511:11516   */\n      dup3\n        /* \"#utility.yul\":11507:11525   */\n      add\n        /* \"#utility.yul\":11501:11526   */\n      mload\n        /* \"#utility.yul\":11539:11604   */\n      tag_294\n        /* \"#utility.yul\":11596:11602   */\n      0x0100\n        /* \"#utility.yul\":11591:11594   */\n      dup6\n        /* \"#utility.yul\":11587:11603   */\n      add\n        /* \"#utility.yul\":11573:11585   */\n      dup3\n        /* \"#utility.yul\":11539:11604   */\n      tag_149\n      jump\t// in\n    tag_294:\n        /* \"#utility.yul\":11441:11614   */\n      pop\n        /* \"#utility.yul\":11700:11706   */\n      0x0120\n        /* \"#utility.yul\":11693:11698   */\n      dup3\n        /* \"#utility.yul\":11689:11707   */\n      add\n        /* \"#utility.yul\":11683:11708   */\n      mload\n        /* \"#utility.yul\":11721:11786   */\n      tag_295\n        /* \"#utility.yul\":11778:11784   */\n      0x0120\n        /* \"#utility.yul\":11773:11776   */\n      dup6\n        /* \"#utility.yul\":11769:11785   */\n      add\n        /* \"#utility.yul\":11755:11767   */\n      dup3\n        /* \"#utility.yul\":11721:11786   */\n      tag_149\n      jump\t// in\n    tag_295:\n        /* \"#utility.yul\":11624:11796   */\n      pop\n        /* \"#utility.yul\":11880:11886   */\n      0x0140\n        /* \"#utility.yul\":11873:11878   */\n      dup3\n        /* \"#utility.yul\":11869:11887   */\n      add\n        /* \"#utility.yul\":11863:11888   */\n      mload\n        /* \"#utility.yul\":11901:11966   */\n      tag_296\n        /* \"#utility.yul\":11958:11964   */\n      0x0140\n        /* \"#utility.yul\":11953:11956   */\n      dup6\n        /* \"#utility.yul\":11949:11965   */\n      add\n        /* \"#utility.yul\":11935:11947   */\n      dup3\n        /* \"#utility.yul\":11901:11966   */\n      tag_149\n      jump\t// in\n    tag_296:\n        /* \"#utility.yul\":11806:11976   */\n      pop\n        /* \"#utility.yul\":12064:12070   */\n      0x0160\n        /* \"#utility.yul\":12057:12062   */\n      dup3\n        /* \"#utility.yul\":12053:12071   */\n      add\n        /* \"#utility.yul\":12047:12072   */\n      mload\n        /* \"#utility.yul\":12085:12150   */\n      tag_297\n        /* \"#utility.yul\":12142:12148   */\n      0x0160\n        /* \"#utility.yul\":12137:12140   */\n      dup6\n        /* \"#utility.yul\":12133:12149   */\n      add\n        /* \"#utility.yul\":12119:12131   */\n      dup3\n        /* \"#utility.yul\":12085:12150   */\n      tag_149\n      jump\t// in\n    tag_297:\n        /* \"#utility.yul\":11986:12160   */\n      pop\n        /* \"#utility.yul\":12248:12254   */\n      0x0180\n        /* \"#utility.yul\":12241:12246   */\n      dup3\n        /* \"#utility.yul\":12237:12255   */\n      add\n        /* \"#utility.yul\":12231:12256   */\n      mload\n        /* \"#utility.yul\":12269:12334   */\n      tag_298\n        /* \"#utility.yul\":12326:12332   */\n      0x0180\n        /* \"#utility.yul\":12321:12324   */\n      dup6\n        /* \"#utility.yul\":12317:12333   */\n      add\n        /* \"#utility.yul\":12303:12315   */\n      dup3\n        /* \"#utility.yul\":12269:12334   */\n      tag_149\n      jump\t// in\n    tag_298:\n        /* \"#utility.yul\":12170:12344   */\n      pop\n        /* \"#utility.yul\":12435:12441   */\n      0x01a0\n        /* \"#utility.yul\":12428:12433   */\n      dup3\n        /* \"#utility.yul\":12424:12442   */\n      add\n        /* \"#utility.yul\":12418:12443   */\n      mload\n        /* \"#utility.yul\":12456:12521   */\n      tag_299\n        /* \"#utility.yul\":12513:12519   */\n      0x01a0\n        /* \"#utility.yul\":12508:12511   */\n      dup6\n        /* \"#utility.yul\":12504:12520   */\n      add\n        /* \"#utility.yul\":12490:12502   */\n      dup3\n        /* \"#utility.yul\":12456:12521   */\n      tag_149\n      jump\t// in\n    tag_299:\n        /* \"#utility.yul\":12354:12531   */\n      pop\n        /* \"#utility.yul\":9961:12538   */\n      pop\n        /* \"#utility.yul\":9849:12538   */\n      pop\n      pop\n      jump\t// out\n        /* \"#utility.yul\":12544:12859   */\n    tag_62:\n        /* \"#utility.yul\":12683:12687   */\n      0x00\n        /* \"#utility.yul\":12721:12724   */\n      0x01c0\n        /* \"#utility.yul\":12710:12719   */\n      dup3\n        /* \"#utility.yul\":12706:12725   */\n      add\n        /* \"#utility.yul\":12698:12725   */\n      swap1\n      pop\n        /* \"#utility.yul\":12735:12852   */\n      tag_301\n        /* \"#utility.yul\":12849:12850   */\n      0x00\n        /* \"#utility.yul\":12838:12847   */\n      dup4\n        /* \"#utility.yul\":12834:12851   */\n      add\n        /* \"#utility.yul\":12825:12831   */\n      dup5\n        /* \"#utility.yul\":12735:12852   */\n      tag_154\n      jump\t// in\n    tag_301:\n        /* \"#utility.yul\":12544:12859   */\n      swap3\n      swap2\n      pop\n      pop\n      jump\t// out\n        /* \"#utility.yul\":12865:12979   */\n    tag_155:\n        /* \"#utility.yul\":12932:12938   */\n      0x00\n        /* \"#utility.yul\":12966:12971   */\n      dup2\n        /* \"#utility.yul\":12960:12972   */\n      mload\n        /* \"#utility.yul\":12950:12972   */\n      swap1\n      pop\n        /* \"#utility.yul\":12865:12979   */\n      swap2\n      swap1\n      pop\n      jump\t// out\n        /* \"#utility.yul\":12985:13169   */\n    tag_156:\n        /* \"#utility.yul\":13084:13095   */\n      0x00\n        /* \"#utility.yul\":13118:13124   */\n      dup3\n        /* \"#utility.yul\":13113:13116   */\n      dup3\n        /* \"#utility.yul\":13106:13125   */\n      mstore\n        /* \"#utility.yul\":13158:13162   */\n      0x20\n        /* \"#utility.yul\":13153:13156   */\n      dup3\n        /* \"#utility.yul\":13149:13163   */\n      add\n        /* \"#utility.yul\":13134:13163   */\n      swap1\n      pop\n        /* \"#utility.yul\":12985:13169   */\n      swap3\n      swap2\n      pop\n      pop\n      jump\t// out\n        /* \"#utility.yul\":13175:13307   */\n    tag_157:\n        /* \"#utility.yul\":13242:13246   */\n      0x00\n        /* \"#utility.yul\":13265:13268   */\n      dup2\n        /* \"#utility.yul\":13257:13268   */\n      swap1\n      pop\n        /* \"#utility.yul\":13295:13299   */\n      0x20\n        /* \"#utility.yul\":13290:13293   */\n      dup3\n        /* \"#utility.yul\":13286:13300   */\n      add\n        /* \"#utility.yul\":13278:13300   */\n      swap1\n      pop\n        /* \"#utility.yul\":13175:13307   */\n      swap2\n      swap1\n      pop\n      jump\t// out\n        /* \"#utility.yul\":13313:13492   */\n    tag_158:\n        /* \"#utility.yul\":13382:13392   */\n      0x00\n        /* \"#utility.yul\":13403:13449   */\n      tag_306\n        /* \"#utility.yul\":13445:13448   */\n      dup4\n        /* \"#utility.yul\":13437:13443   */\n      dup4\n        /* \"#utility.yul\":13403:13449   */\n      tag_149\n      jump\t// in\n    tag_306:\n        /* \"#utility.yul\":13481:13485   */\n      0x20\n        /* \"#utility.yul\":13476:13479   */\n      dup4\n        /* \"#utility.yul\":13472:13486   */\n      add\n        /* \"#utility.yul\":13458:13486   */\n      swap1\n      pop\n        /* \"#utility.yul\":13313:13492   */\n      swap3\n      swap2\n      pop\n      pop\n      jump\t// out\n        /* \"#utility.yul\":13498:13611   */\n    tag_159:\n        /* \"#utility.yul\":13568:13572   */\n      0x00\n        /* \"#utility.yul\":13600:13604   */\n      0x20\n        /* \"#utility.yul\":13595:13598   */\n      dup3\n        /* \"#utility.yul\":13591:13605   */\n      add\n        /* \"#utility.yul\":13583:13605   */\n      swap1\n      pop\n        /* \"#utility.yul\":13498:13611   */\n      swap2\n      swap1\n      pop\n      jump\t// out\n        /* \"#utility.yul\":13647:14379   */\n    tag_160:\n        /* \"#utility.yul\":13766:13769   */\n      0x00\n        /* \"#utility.yul\":13795:13849   */\n      tag_309\n        /* \"#utility.yul\":13843:13848   */\n      dup3\n        /* \"#utility.yul\":13795:13849   */\n      tag_155\n      jump\t// in\n    tag_309:\n        /* \"#utility.yul\":13865:13951   */\n      tag_310\n        /* \"#utility.yul\":13944:13950   */\n      dup2\n        /* \"#utility.yul\":13939:13942   */\n      dup6\n        /* \"#utility.yul\":13865:13951   */\n      tag_156\n      jump\t// in\n    tag_310:\n        /* \"#utility.yul\":13858:13951   */\n      swap4\n      pop\n        /* \"#utility.yul\":13975:14031   */\n      tag_311\n        /* \"#utility.yul\":14025:14030   */\n      dup4\n        /* \"#utility.yul\":13975:14031   */\n      tag_157\n      jump\t// in\n    tag_311:\n        /* \"#utility.yul\":14054:14061   */\n      dup1\n        /* \"#utility.yul\":14085:14086   */\n      0x00\n        /* \"#utility.yul\":14070:14354   */\n    tag_312:\n        /* \"#utility.yul\":14095:14101   */\n      dup4\n        /* \"#utility.yul\":14092:14093   */\n      dup2\n        /* \"#utility.yul\":14089:14102   */\n      lt\n        /* \"#utility.yul\":14070:14354   */\n      iszero\n      tag_314\n      jumpi\n        /* \"#utility.yul\":14171:14177   */\n      dup2\n        /* \"#utility.yul\":14165:14178   */\n      mload\n        /* \"#utility.yul\":14198:14261   */\n      tag_315\n        /* \"#utility.yul\":14257:14260   */\n      dup9\n        /* \"#utility.yul\":14242:14255   */\n      dup3\n        /* \"#utility.yul\":14198:14261   */\n      tag_158\n      jump\t// in\n    tag_315:\n        /* \"#utility.yul\":14191:14261   */\n      swap8\n      pop\n        /* \"#utility.yul\":14284:14344   */\n      tag_316\n        /* \"#utility.yul\":14337:14343   */\n      dup4\n        /* \"#utility.yul\":14284:14344   */\n      tag_159\n      jump\t// in\n    tag_316:\n        /* \"#utility.yul\":14274:14344   */\n      swap3\n      pop\n        /* \"#utility.yul\":14130:14354   */\n      pop\n        /* \"#utility.yul\":14117:14118   */\n      0x01\n        /* \"#utility.yul\":14114:14115   */\n      dup2\n        /* \"#utility.yul\":14110:14119   */\n      add\n        /* \"#utility.yul\":14105:14119   */\n      swap1\n      pop\n        /* \"#utility.yul\":14070:14354   */\n      jump(tag_312)\n    tag_314:\n        /* \"#utility.yul\":14074:14088   */\n      pop\n        /* \"#utility.yul\":14370:14373   */\n      dup6\n        /* \"#utility.yul\":14363:14373   */\n      swap4\n      pop\n        /* \"#utility.yul\":13771:14379   */\n      pop\n      pop\n      pop\n        /* \"#utility.yul\":13647:14379   */\n      swap3\n      swap2\n      pop\n      pop\n      jump\t// out\n        /* \"#utility.yul\":14385:14758   */\n    tag_67:\n        /* \"#utility.yul\":14528:14532   */\n      0x00\n        /* \"#utility.yul\":14566:14568   */\n      0x20\n        /* \"#utility.yul\":14555:14564   */\n      dup3\n        /* \"#utility.yul\":14551:14569   */\n      add\n        /* \"#utility.yul\":14543:14569   */\n      swap1\n      pop\n        /* \"#utility.yul\":14615:14624   */\n      dup2\n        /* \"#utility.yul\":14609:14613   */\n      dup2\n        /* \"#utility.yul\":14605:14625   */\n      sub\n        /* \"#utility.yul\":14601:14602   */\n      0x00\n        /* \"#utility.yul\":14590:14599   */\n      dup4\n        /* \"#utility.yul\":14586:14603   */\n      add\n        /* \"#utility.yul\":14579:14626   */\n      mstore\n        /* \"#utility.yul\":14643:14751   */\n      tag_318\n        /* \"#utility.yul\":14746:14750   */\n      dup2\n        /* \"#utility.yul\":14737:14743   */\n      dup5\n        /* \"#utility.yul\":14643:14751   */\n      tag_160\n      jump\t// in\n    tag_318:\n        /* \"#utility.yul\":14635:14751   */\n      swap1\n      pop\n        /* \"#utility.yul\":14385:14758   */\n      swap3\n      swap2\n      pop\n      pop\n      jump\t// out\n        /* \"#utility.yul\":14764:14907   */\n    tag_161:\n        /* \"#utility.yul\":14821:14826   */\n      0x00\n        /* \"#utility.yul\":14852:14858   */\n      dup2\n        /* \"#utility.yul\":14846:14859   */\n      mload\n        /* \"#utility.yul\":14837:14859   */\n      swap1\n      pop\n        /* \"#utility.yul\":14868:14901   */\n      tag_320\n        /* \"#utility.yul\":14895:14900   */\n      dup2\n        /* \"#utility.yul\":14868:14901   */\n      tag_136\n      jump\t// in\n    tag_320:\n        /* \"#utility.yul\":14764:14907   */\n      swap3\n      swap2\n      pop\n      pop\n      jump\t// out\n        /* \"#utility.yul\":14913:15264   */\n    tag_76:\n        /* \"#utility.yul\":14983:14989   */\n      0x00\n        /* \"#utility.yul\":15032:15034   */\n      0x20\n        /* \"#utility.yul\":15020:15029   */\n      dup3\n        /* \"#utility.yul\":15011:15018   */\n      dup5\n        /* \"#utility.yul\":15007:15030   */\n      sub\n        /* \"#utility.yul\":15003:15035   */\n      slt\n        /* \"#utility.yul\":15000:15119   */\n      iszero\n      tag_322\n      jumpi\n        /* \"#utility.yul\":15038:15117   */\n      tag_323\n      tag_130\n      jump\t// in\n    tag_323:\n        /* \"#utility.yul\":15000:15119   */\n    tag_322:\n        /* \"#utility.yul\":15158:15159   */\n      0x00\n        /* \"#utility.yul\":15183:15247   */\n      tag_324\n        /* \"#utility.yul\":15239:15246   */\n      dup5\n        /* \"#utility.yul\":15230:15236   */\n      dup3\n        /* \"#utility.yul\":15219:15228   */\n      dup6\n        /* \"#utility.yul\":15215:15237   */\n      add\n        /* \"#utility.yul\":15183:15247   */\n      tag_161\n      jump\t// in\n    tag_324:\n        /* \"#utility.yul\":15173:15247   */\n      swap2\n      pop\n        /* \"#utility.yul\":15129:15257   */\n      pop\n        /* \"#utility.yul\":14913:15264   */\n      swap3\n      swap2\n      pop\n      pop\n      jump\t// out\n        /* \"#utility.yul\":15270:15387   */\n    tag_162:\n        /* \"#utility.yul\":15355:15356   */\n      0x02\n        /* \"#utility.yul\":15348:15353   */\n      dup2\n        /* \"#utility.yul\":15345:15357   */\n      lt\n        /* \"#utility.yul\":15335:15381   */\n      tag_326\n      jumpi\n        /* \"#utility.yul\":15361:15379   */\n      tag_327\n      tag_94\n      jump\t// in\n    tag_327:\n        /* \"#utility.yul\":15335:15381   */\n    tag_326:\n        /* \"#utility.yul\":15270:15387   */\n      pop\n      jump\t// out\n        /* \"#utility.yul\":15393:15528   */\n    tag_163:\n        /* \"#utility.yul\":15442:15449   */\n      0x00\n        /* \"#utility.yul\":15471:15476   */\n      dup2\n        /* \"#utility.yul\":15460:15476   */\n      swap1\n      pop\n        /* \"#utility.yul\":15477:15522   */\n      tag_329\n        /* \"#utility.yul\":15516:15521   */\n      dup3\n        /* \"#utility.yul\":15477:15522   */\n      tag_162\n      jump\t// in\n    tag_329:\n        /* \"#utility.yul\":15393:15528   */\n      swap2\n      swap1\n      pop\n      jump\t// out\n        /* \"#utility.yul\":15534:15669   */\n    tag_164:\n        /* \"#utility.yul\":15594:15603   */\n      0x00\n        /* \"#utility.yul\":15627:15663   */\n      tag_331\n        /* \"#utility.yul\":15657:15662   */\n      dup3\n        /* \"#utility.yul\":15627:15663   */\n      tag_163\n      jump\t// in\n    tag_331:\n        /* \"#utility.yul\":15614:15663   */\n      swap1\n      pop\n        /* \"#utility.yul\":15534:15669   */\n      swap2\n      swap1\n      pop\n      jump\t// out\n        /* \"#utility.yul\":15675:15826   */\n    tag_165:\n        /* \"#utility.yul\":15772:15819   */\n      tag_333\n        /* \"#utility.yul\":15813:15818   */\n      dup2\n        /* \"#utility.yul\":15772:15819   */\n      tag_164\n      jump\t// in\n    tag_333:\n        /* \"#utility.yul\":15767:15770   */\n      dup3\n        /* \"#utility.yul\":15760:15820   */\n      mstore\n        /* \"#utility.yul\":15675:15826   */\n      pop\n      pop\n      jump\t// out\n        /* \"#utility.yul\":15832:15950   */\n    tag_166:\n        /* \"#utility.yul\":15919:15943   */\n      tag_335\n        /* \"#utility.yul\":15937:15942   */\n      dup2\n        /* \"#utility.yul\":15919:15943   */\n      tag_135\n      jump\t// in\n    tag_335:\n        /* \"#utility.yul\":15914:15917   */\n      dup3\n        /* \"#utility.yul\":15907:15944   */\n      mstore\n        /* \"#utility.yul\":15832:15950   */\n      pop\n      pop\n      jump\t// out\n        /* \"#utility.yul\":15956:16308   */\n    tag_78:\n        /* \"#utility.yul\":16087:16091   */\n      0x00\n        /* \"#utility.yul\":16125:16127   */\n      0x40\n        /* \"#utility.yul\":16114:16123   */\n      dup3\n        /* \"#utility.yul\":16110:16128   */\n      add\n        /* \"#utility.yul\":16102:16128   */\n      swap1\n      pop\n        /* \"#utility.yul\":16138:16219   */\n      tag_337\n        /* \"#utility.yul\":16216:16217   */\n      0x00\n        /* \"#utility.yul\":16205:16214   */\n      dup4\n        /* \"#utility.yul\":16201:16218   */\n      add\n        /* \"#utility.yul\":16192:16198   */\n      dup6\n        /* \"#utility.yul\":16138:16219   */\n      tag_165\n      jump\t// in\n    tag_337:\n        /* \"#utility.yul\":16229:16301   */\n      tag_338\n        /* \"#utility.yul\":16297:16299   */\n      0x20\n        /* \"#utility.yul\":16286:16295   */\n      dup4\n        /* \"#utility.yul\":16282:16300   */\n      add\n        /* \"#utility.yul\":16273:16279   */\n      dup5\n        /* \"#utility.yul\":16229:16301   */\n      tag_166\n      jump\t// in\n    tag_338:\n        /* \"#utility.yul\":15956:16308   */\n      swap4\n      swap3\n      pop\n      pop\n      pop\n      jump\t// out\n        /* \"#utility.yul\":16314:16431   */\n    tag_167:\n        /* \"#utility.yul\":16423:16424   */\n      0x00\n        /* \"#utility.yul\":16420:16421   */\n      0x00\n        /* \"#utility.yul\":16413:16425   */\n      revert\n        /* \"#utility.yul\":16437:16617   */\n    tag_168:\n        /* \"#utility.yul\":16485:16562   */\n      0x4e487b7100000000000000000000000000000000000000000000000000000000\n        /* \"#utility.yul\":16482:16483   */\n      0x00\n        /* \"#utility.yul\":16475:16563   */\n      mstore\n        /* \"#utility.yul\":16582:16586   */\n      0x41\n        /* \"#utility.yul\":16579:16580   */\n      0x04\n        /* \"#utility.yul\":16572:16587   */\n      mstore\n        /* \"#utility.yul\":16606:16610   */\n      0x24\n        /* \"#utility.yul\":16603:16604   */\n      0x00\n        /* \"#utility.yul\":16596:16611   */\n      revert\n        /* \"#utility.yul\":16623:16904   */\n    tag_169:\n        /* \"#utility.yul\":16706:16733   */\n      tag_342\n        /* \"#utility.yul\":16728:16732   */\n      dup3\n        /* \"#utility.yul\":16706:16733   */\n      tag_127\n      jump\t// in\n    tag_342:\n        /* \"#utility.yul\":16698:16704   */\n      dup2\n        /* \"#utility.yul\":16694:16734   */\n      add\n        /* \"#utility.yul\":16836:16842   */\n      dup2\n        /* \"#utility.yul\":16824:16834   */\n      dup2\n        /* \"#utility.yul\":16821:16843   */\n      lt\n        /* \"#utility.yul\":16800:16818   */\n      0xffffffffffffffff\n        /* \"#utility.yul\":16788:16798   */\n      dup3\n        /* \"#utility.yul\":16785:16819   */\n      gt\n        /* \"#utility.yul\":16782:16844   */\n      or\n        /* \"#utility.yul\":16779:16867   */\n      iszero\n      tag_343\n      jumpi\n        /* \"#utility.yul\":16847:16865   */\n      tag_344\n      tag_168\n      jump\t// in\n    tag_344:\n        /* \"#utility.yul\":16779:16867   */\n    tag_343:\n        /* \"#utility.yul\":16887:16897   */\n      dup1\n        /* \"#utility.yul\":16883:16885   */\n      0x40\n        /* \"#utility.yul\":16876:16898   */\n      mstore\n        /* \"#utility.yul\":16666:16904   */\n      pop\n        /* \"#utility.yul\":16623:16904   */\n      pop\n      pop\n      jump\t// out\n        /* \"#utility.yul\":16910:17039   */\n    tag_170:\n        /* \"#utility.yul\":16944:16950   */\n      0x00\n        /* \"#utility.yul\":16971:16991   */\n      tag_346\n      tag_129\n      jump\t// in\n    tag_346:\n        /* \"#utility.yul\":16961:16991   */\n      swap1\n      pop\n        /* \"#utility.yul\":17000:17033   */\n      tag_347\n        /* \"#utility.yul\":17028:17032   */\n      dup3\n        /* \"#utility.yul\":17020:17026   */\n      dup3\n        /* \"#utility.yul\":17000:17033   */\n      tag_169\n      jump\t// in\n    tag_347:\n        /* \"#utility.yul\":16910:17039   */\n      swap2\n      swap1\n      pop\n      jump\t// out\n        /* \"#utility.yul\":17168:17311   */\n    tag_172:\n        /* \"#utility.yul\":17225:17230   */\n      0x00\n        /* \"#utility.yul\":17256:17262   */\n      dup2\n        /* \"#utility.yul\":17250:17263   */\n      mload\n        /* \"#utility.yul\":17241:17263   */\n      swap1\n      pop\n        /* \"#utility.yul\":17272:17305   */\n      tag_350\n        /* \"#utility.yul\":17299:17304   */\n      dup2\n        /* \"#utility.yul\":17272:17305   */\n      tag_132\n      jump\t// in\n    tag_350:\n        /* \"#utility.yul\":17168:17311   */\n      swap3\n      swap2\n      pop\n      pop\n      jump\t// out\n        /* \"#utility.yul\":17317:17428   */\n    tag_173:\n        /* \"#utility.yul\":17402:17403   */\n      0x02\n        /* \"#utility.yul\":17395:17400   */\n      dup2\n        /* \"#utility.yul\":17392:17404   */\n      lt\n        /* \"#utility.yul\":17382:17422   */\n      tag_352\n      jumpi\n        /* \"#utility.yul\":17418:17419   */\n      0x00\n        /* \"#utility.yul\":17415:17416   */\n      0x00\n        /* \"#utility.yul\":17408:17420   */\n      revert\n        /* \"#utility.yul\":17382:17422   */\n    tag_352:\n        /* \"#utility.yul\":17317:17428   */\n      pop\n      jump\t// out\n        /* \"#utility.yul\":17434:17601   */\n    tag_174:\n        /* \"#utility.yul\":17503:17508   */\n      0x00\n        /* \"#utility.yul\":17534:17540   */\n      dup2\n        /* \"#utility.yul\":17528:17541   */\n      mload\n        /* \"#utility.yul\":17519:17541   */\n      swap1\n      pop\n        /* \"#utility.yul\":17550:17595   */\n      tag_354\n        /* \"#utility.yul\":17589:17594   */\n      dup2\n        /* \"#utility.yul\":17550:17595   */\n      tag_173\n      jump\t// in\n    tag_354:\n        /* \"#utility.yul\":17434:17601   */\n      swap3\n      swap2\n      pop\n      pop\n      jump\t// out\n        /* \"#utility.yul\":17634:18953   */\n    tag_175:\n        /* \"#utility.yul\":17723:17728   */\n      0x00\n        /* \"#utility.yul\":17767:17771   */\n      0xc0\n        /* \"#utility.yul\":17755:17764   */\n      dup3\n        /* \"#utility.yul\":17750:17753   */\n      dup5\n        /* \"#utility.yul\":17746:17765   */\n      sub\n        /* \"#utility.yul\":17742:17772   */\n      slt\n        /* \"#utility.yul\":17739:17856   */\n      iszero\n      tag_356\n      jumpi\n        /* \"#utility.yul\":17775:17854   */\n      tag_357\n      tag_167\n      jump\t// in\n    tag_357:\n        /* \"#utility.yul\":17739:17856   */\n    tag_356:\n        /* \"#utility.yul\":17874:17895   */\n      tag_358\n        /* \"#utility.yul\":17890:17894   */\n      0xc0\n        /* \"#utility.yul\":17874:17895   */\n      tag_170\n      jump\t// in\n    tag_358:\n        /* \"#utility.yul\":17865:17895   */\n      swap1\n      pop\n        /* \"#utility.yul\":17952:17953   */\n      0x00\n        /* \"#utility.yul\":17992:18052   */\n      tag_359\n        /* \"#utility.yul\":18048:18051   */\n      dup5\n        /* \"#utility.yul\":18039:18045   */\n      dup3\n        /* \"#utility.yul\":18028:18037   */\n      dup6\n        /* \"#utility.yul\":18024:18046   */\n      add\n        /* \"#utility.yul\":17992:18052   */\n      tag_172\n      jump\t// in\n    tag_359:\n        /* \"#utility.yul\":17985:17989   */\n      0x00\n        /* \"#utility.yul\":17978:17983   */\n      dup4\n        /* \"#utility.yul\":17974:17990   */\n      add\n        /* \"#utility.yul\":17967:18053   */\n      mstore\n        /* \"#utility.yul\":17905:18064   */\n      pop\n        /* \"#utility.yul\":18124:18126   */\n      0x20\n        /* \"#utility.yul\":18165:18225   */\n      tag_360\n        /* \"#utility.yul\":18221:18224   */\n      dup5\n        /* \"#utility.yul\":18212:18218   */\n      dup3\n        /* \"#utility.yul\":18201:18210   */\n      dup6\n        /* \"#utility.yul\":18197:18219   */\n      add\n        /* \"#utility.yul\":18165:18225   */\n      tag_161\n      jump\t// in\n    tag_360:\n        /* \"#utility.yul\":18158:18162   */\n      0x20\n        /* \"#utility.yul\":18151:18156   */\n      dup4\n        /* \"#utility.yul\":18147:18163   */\n      add\n        /* \"#utility.yul\":18140:18226   */\n      mstore\n        /* \"#utility.yul\":18074:18237   */\n      pop\n        /* \"#utility.yul\":18298:18300   */\n      0x40\n        /* \"#utility.yul\":18339:18399   */\n      tag_361\n        /* \"#utility.yul\":18395:18398   */\n      dup5\n        /* \"#utility.yul\":18386:18392   */\n      dup3\n        /* \"#utility.yul\":18375:18384   */\n      dup6\n        /* \"#utility.yul\":18371:18393   */\n      add\n        /* \"#utility.yul\":18339:18399   */\n      tag_172\n      jump\t// in\n    tag_361:\n        /* \"#utility.yul\":18332:18336   */\n      0x40\n        /* \"#utility.yul\":18325:18330   */\n      dup4\n        /* \"#utility.yul\":18321:18337   */\n      add\n        /* \"#utility.yul\":18314:18400   */\n      mstore\n        /* \"#utility.yul\":18247:18411   */\n      pop\n        /* \"#utility.yul\":18471:18473   */\n      0x60\n        /* \"#utility.yul\":18512:18572   */\n      tag_362\n        /* \"#utility.yul\":18568:18571   */\n      dup5\n        /* \"#utility.yul\":18559:18565   */\n      dup3\n        /* \"#utility.yul\":18548:18557   */\n      dup6\n        /* \"#utility.yul\":18544:18566   */\n      add\n        /* \"#utility.yul\":18512:18572   */\n      tag_161\n      jump\t// in\n    tag_362:\n        /* \"#utility.yul\":18505:18509   */\n      0x60\n        /* \"#utility.yul\":18498:18503   */\n      dup4\n        /* \"#utility.yul\":18494:18510   */\n      add\n        /* \"#utility.yul\":18487:18573   */\n      mstore\n        /* \"#utility.yul\":18421:18584   */\n      pop\n        /* \"#utility.yul\":18646:18649   */\n      0x80\n        /* \"#utility.yul\":18688:18748   */\n      tag_363\n        /* \"#utility.yul\":18744:18747   */\n      dup5\n        /* \"#utility.yul\":18735:18741   */\n      dup3\n        /* \"#utility.yul\":18724:18733   */\n      dup6\n        /* \"#utility.yul\":18720:18742   */\n      add\n        /* \"#utility.yul\":18688:18748   */\n      tag_172\n      jump\t// in\n    tag_363:\n        /* \"#utility.yul\":18681:18685   */\n      0x80\n        /* \"#utility.yul\":18674:18679   */\n      dup4\n        /* \"#utility.yul\":18670:18686   */\n      add\n        /* \"#utility.yul\":18663:18749   */\n      mstore\n        /* \"#utility.yul\":18594:18760   */\n      pop\n        /* \"#utility.yul\":18820:18823   */\n      0xa0\n        /* \"#utility.yul\":18862:18934   */\n      tag_364\n        /* \"#utility.yul\":18930:18933   */\n      dup5\n        /* \"#utility.yul\":18921:18927   */\n      dup3\n        /* \"#utility.yul\":18910:18919   */\n      dup6\n        /* \"#utility.yul\":18906:18928   */\n      add\n        /* \"#utility.yul\":18862:18934   */\n      tag_174\n      jump\t// in\n    tag_364:\n        /* \"#utility.yul\":18855:18859   */\n      0xa0\n        /* \"#utility.yul\":18848:18853   */\n      dup4\n        /* \"#utility.yul\":18844:18860   */\n      add\n        /* \"#utility.yul\":18837:18935   */\n      mstore\n        /* \"#utility.yul\":18770:18946   */\n      pop\n        /* \"#utility.yul\":17634:18953   */\n      swap3\n      swap2\n      pop\n      pop\n      jump\t// out\n        /* \"#utility.yul\":18959:19369   */\n    tag_82:\n        /* \"#utility.yul\":19058:19064   */\n      0x00\n        /* \"#utility.yul\":19107:19110   */\n      0xc0\n        /* \"#utility.yul\":19095:19104   */\n      dup3\n        /* \"#utility.yul\":19086:19093   */\n      dup5\n        /* \"#utility.yul\":19082:19105   */\n      sub\n        /* \"#utility.yul\":19078:19111   */\n      slt\n        /* \"#utility.yul\":19075:19195   */\n      iszero\n      tag_366\n      jumpi\n        /* \"#utility.yul\":19114:19193   */\n      tag_367\n      tag_130\n      jump\t// in\n    tag_367:\n        /* \"#utility.yul\":19075:19195   */\n    tag_366:\n        /* \"#utility.yul\":19234:19235   */\n      0x00\n        /* \"#utility.yul\":19259:19352   */\n      tag_368\n        /* \"#utility.yul\":19344:19351   */\n      dup5\n        /* \"#utility.yul\":19335:19341   */\n      dup3\n        /* \"#utility.yul\":19324:19333   */\n      dup6\n        /* \"#utility.yul\":19320:19342   */\n      add\n        /* \"#utility.yul\":19259:19352   */\n      tag_175\n      jump\t// in\n    tag_368:\n        /* \"#utility.yul\":19249:19352   */\n      swap2\n      pop\n        /* \"#utility.yul\":19205:19362   */\n      pop\n        /* \"#utility.yul\":18959:19369   */\n      swap3\n      swap2\n      pop\n      pop\n      jump\t// out\n        /* \"#utility.yul\":19375:19542   */\n    tag_176:\n        /* \"#utility.yul\":19515:19534   */\n      0x626f6e64206964206d69732d6d61746368000000000000000000000000000000\n        /* \"#utility.yul\":19511:19512   */\n      0x00\n        /* \"#utility.yul\":19503:19509   */\n      dup3\n        /* \"#utility.yul\":19499:19513   */\n      add\n        /* \"#utility.yul\":19492:19535   */\n      mstore\n        /* \"#utility.yul\":19375:19542   */\n      pop\n      jump\t// out\n        /* \"#utility.yul\":19548:19914   */\n    tag_177:\n        /* \"#utility.yul\":19690:19693   */\n      0x00\n        /* \"#utility.yul\":19711:19778   */\n      tag_371\n        /* \"#utility.yul\":19775:19777   */\n      0x11\n        /* \"#utility.yul\":19770:19773   */\n      dup4\n        /* \"#utility.yul\":19711:19778   */\n      tag_125\n      jump\t// in\n    tag_371:\n        /* \"#utility.yul\":19704:19778   */\n      swap2\n      pop\n        /* \"#utility.yul\":19787:19880   */\n      tag_372\n        /* \"#utility.yul\":19876:19879   */\n      dup3\n        /* \"#utility.yul\":19787:19880   */\n      tag_176\n      jump\t// in\n    tag_372:\n        /* \"#utility.yul\":19905:19907   */\n      0x20\n        /* \"#utility.yul\":19900:19903   */\n      dup3\n        /* \"#utility.yul\":19896:19908   */\n      add\n        /* \"#utility.yul\":19889:19908   */\n      swap1\n      pop\n        /* \"#utility.yul\":19548:19914   */\n      swap2\n      swap1\n      pop\n      jump\t// out\n        /* \"#utility.yul\":19920:20339   */\n    tag_85:\n        /* \"#utility.yul\":20086:20090   */\n      0x00\n        /* \"#utility.yul\":20124:20126   */\n      0x20\n        /* \"#utility.yul\":20113:20122   */\n      dup3\n        /* \"#utility.yul\":20109:20127   */\n      add\n        /* \"#utility.yul\":20101:20127   */\n      swap1\n      pop\n        /* \"#utility.yul\":20173:20182   */\n      dup2\n        /* \"#utility.yul\":20167:20171   */\n      dup2\n        /* \"#utility.yul\":20163:20183   */\n      sub\n        /* \"#utility.yul\":20159:20160   */\n      0x00\n        /* \"#utility.yul\":20148:20157   */\n      dup4\n        /* \"#utility.yul\":20144:20161   */\n      add\n        /* \"#utility.yul\":20137:20184   */\n      mstore\n        /* \"#utility.yul\":20201:20332   */\n      tag_374\n        /* \"#utility.yul\":20327:20331   */\n      dup2\n        /* \"#utility.yul\":20201:20332   */\n      tag_177\n      jump\t// in\n    tag_374:\n        /* \"#utility.yul\":20193:20332   */\n      swap1\n      pop\n        /* \"#utility.yul\":19920:20339   */\n      swap2\n      swap1\n      pop\n      jump\t// out\n        /* \"#utility.yul\":20345:20526   */\n    tag_178:\n        /* \"#utility.yul\":20485:20518   */\n      0x626f6e6420616c72656164792073657420616761696e7374206d61726b657400\n        /* \"#utility.yul\":20481:20482   */\n      0x00\n        /* \"#utility.yul\":20473:20479   */\n      dup3\n        /* \"#utility.yul\":20469:20483   */\n      add\n        /* \"#utility.yul\":20462:20519   */\n      mstore\n        /* \"#utility.yul\":20345:20526   */\n      pop\n      jump\t// out\n        /* \"#utility.yul\":20532:20898   */\n    tag_179:\n        /* \"#utility.yul\":20674:20677   */\n      0x00\n        /* \"#utility.yul\":20695:20762   */\n      tag_377\n        /* \"#utility.yul\":20759:20761   */\n      0x1f\n        /* \"#utility.yul\":20754:20757   */\n      dup4\n        /* \"#utility.yul\":20695:20762   */\n      tag_125\n      jump\t// in\n    tag_377:\n        /* \"#utility.yul\":20688:20762   */\n      swap2\n      pop\n        /* \"#utility.yul\":20771:20864   */\n      tag_378\n        /* \"#utility.yul\":20860:20863   */\n      dup3\n        /* \"#utility.yul\":20771:20864   */\n      tag_178\n      jump\t// in\n    tag_378:\n        /* \"#utility.yul\":20889:20891   */\n      0x20\n        /* \"#utility.yul\":20884:20887   */\n      dup3\n        /* \"#utility.yul\":20880:20892   */\n      add\n        /* \"#utility.yul\":20873:20892   */\n      swap1\n      pop\n        /* \"#utility.yul\":20532:20898   */\n      swap2\n      swap1\n      pop\n      jump\t// out\n        /* \"#utility.yul\":20904:21323   */\n    tag_88:\n        /* \"#utility.yul\":21070:21074   */\n      0x00\n        /* \"#utility.yul\":21108:21110   */\n      0x20\n        /* \"#utility.yul\":21097:21106   */\n      dup3\n        /* \"#utility.yul\":21093:21111   */\n      add\n        /* \"#utility.yul\":21085:21111   */\n      swap1\n      pop\n        /* \"#utility.yul\":21157:21166   */\n      dup2\n        /* \"#utility.yul\":21151:21155   */\n      dup2\n        /* \"#utility.yul\":21147:21167   */\n      sub\n        /* \"#utility.yul\":21143:21144   */\n      0x00\n        /* \"#utility.yul\":21132:21141   */\n      dup4\n        /* \"#utility.yul\":21128:21145   */\n      add\n        /* \"#utility.yul\":21121:21168   */\n      mstore\n        /* \"#utility.yul\":21185:21316   */\n      tag_380\n        /* \"#utility.yul\":21311:21315   */\n      dup2\n        /* \"#utility.yul\":21185:21316   */\n      tag_179\n      jump\t// in\n    tag_380:\n        /* \"#utility.yul\":21177:21316   */\n      swap1\n      pop\n        /* \"#utility.yul\":20904:21323   */\n      swap2\n      swap1\n      pop\n      jump\t// out\n        /* \"#utility.yul\":21329:21509   */\n    tag_180:\n        /* \"#utility.yul\":21377:21454   */\n      0x4e487b7100000000000000000000000000000000000000000000000000000000\n        /* \"#utility.yul\":21374:21375   */\n      0x00\n        /* \"#utility.yul\":21367:21455   */\n      mstore\n        /* \"#utility.yul\":21474:21478   */\n      0x11\n        /* \"#utility.yul\":21471:21472   */\n      0x04\n        /* \"#utility.yul\":21464:21479   */\n      mstore\n        /* \"#utility.yul\":21498:21502   */\n      0x24\n        /* \"#utility.yul\":21495:21496   */\n      0x00\n        /* \"#utility.yul\":21488:21503   */\n      revert\n        /* \"#utility.yul\":21515:21706   */\n    tag_96:\n        /* \"#utility.yul\":21555:21558   */\n      0x00\n        /* \"#utility.yul\":21574:21594   */\n      tag_383\n        /* \"#utility.yul\":21592:21593   */\n      dup3\n        /* \"#utility.yul\":21574:21594   */\n      tag_122\n      jump\t// in\n    tag_383:\n        /* \"#utility.yul\":21569:21594   */\n      swap2\n      pop\n        /* \"#utility.yul\":21608:21628   */\n      tag_384\n        /* \"#utility.yul\":21626:21627   */\n      dup4\n        /* \"#utility.yul\":21608:21628   */\n      tag_122\n      jump\t// in\n    tag_384:\n        /* \"#utility.yul\":21603:21628   */\n      swap3\n      pop\n        /* \"#utility.yul\":21651:21652   */\n      dup3\n        /* \"#utility.yul\":21648:21649   */\n      dup3\n        /* \"#utility.yul\":21644:21653   */\n      add\n        /* \"#utility.yul\":21637:21653   */\n      swap1\n      pop\n        /* \"#utility.yul\":21672:21675   */\n      dup1\n        /* \"#utility.yul\":21669:21670   */\n      dup3\n        /* \"#utility.yul\":21666:21676   */\n      gt\n        /* \"#utility.yul\":21663:21699   */\n      iszero\n      tag_385\n      jumpi\n        /* \"#utility.yul\":21679:21697   */\n      tag_386\n      tag_180\n      jump\t// in\n    tag_386:\n        /* \"#utility.yul\":21663:21699   */\n    tag_385:\n        /* \"#utility.yul\":21515:21706   */\n      swap3\n      swap2\n      pop\n      pop\n      jump\t// out\n        /* \"#utility.yul\":21712:21945   */\n    tag_119:\n        /* \"#utility.yul\":21751:21754   */\n      0x00\n        /* \"#utility.yul\":21774:21798   */\n      tag_388\n        /* \"#utility.yul\":21792:21797   */\n      dup3\n        /* \"#utility.yul\":21774:21798   */\n      tag_122\n      jump\t// in\n    tag_388:\n        /* \"#utility.yul\":21765:21798   */\n      swap2\n      pop\n        /* \"#utility.yul\":21820:21886   */\n      0xffffffffffffffffffffffffffffffffffffffffffffffffffffffffffffffff\n        /* \"#utility.yul\":21813:21818   */\n      dup3\n        /* \"#utility.yul\":21810:21887   */\n      sub\n        /* \"#utility.yul\":21807:21910   */\n      tag_389\n      jumpi\n        /* \"#utility.yul\":21890:21908   */\n      tag_390\n      tag_180\n      jump\t// in\n    tag_390:\n        /* \"#utility.yul\":21807:21910   */\n    tag_389:\n        /* \"#utility.yul\":21937:21938   */\n      0x01\n        /* \"#utility.yul\":21930:21935   */\n      dup3\n        /* \"#utility.yul\":21926:21939   */\n      add\n        /* \"#utility.yul\":21919:21939   */\n      swap1\n      pop\n        /* \"#utility.yul\":21712:21945   */\n      swap2\n      swap1\n      pop\n      jump\t// out\n\n    auxdata: 0xa26469706673582212207309ffb6959ff524a5df86d406fc2083334df4da8f0b19d265530facbac460e964736f6c634300081e0033\n}\n",
				"bytecode": {
					"linkReferences": {},
					"object": "60a060405234801561000f575f5ffd5b5060405161171738038061171783398181016040528101906100319190610109565b8060015f6101000a81548173ffffffffffffffffffffffffffffffffffffffff021916908373ffffffffffffffffffffffffffffffffffffffff1602179055503073ffffffffffffffffffffffffffffffffffffffff1660808173ffffffffffffffffffffffffffffffffffffffff168152505050610134565b5f5ffd5b5f73ffffffffffffffffffffffffffffffffffffffff82169050919050565b5f6100d8826100af565b9050919050565b6100e8816100ce565b81146100f2575f5ffd5b50565b5f81519050610103816100df565b92915050565b5f6020828403121561011e5761011d6100ab565b5b5f61012b848285016100f5565b91505092915050565b6080516115ce6101495f395f50506115ce5ff3fe608060405260043610610090575f3560e01c80635ece09c5116100585780635ece09c5146101925780635fc7b760146101c2578063ae418095146101ec578063eb44fdd314610228578063ec2c90161461026457610090565b80630d8e6e2c1461009457806317d7de7c146100be5780632d6ce61d146100e8578063443e399f146101255780634ca857da14610156575b5f5ffd5b34801561009f575f5ffd5b506100a861028e565b6040516100b59190610b49565b60405180910390f35b3480156100c9575f5ffd5b506100d2610296565b6040516100df9190610bd2565b60405180910390f35b3480156100f3575f5ffd5b5061010e60048036038101906101099190610c29565b6102d3565b60405161011c929190610c67565b60405180910390f35b61013f600480360381019061013a9190610d0b565b6102dc565b60405161014d929190610c67565b60405180910390f35b348015610161575f5ffd5b5061017c60048036038101906101779190610de4565b610789565b6040516101899190610e29565b60405180910390f35b6101ac60048036038101906101a79190610e42565b6107a9565b6040516101b99190610b49565b60405180910390f35b3480156101cd575f5ffd5b506101d66107b1565b6040516101e39190610f49565b60405180910390f35b3480156101f7575f5ffd5b50610212600480360381019061020d9190610de4565b61083c565b60405161021f9190610b49565b60405180910390f35b348015610233575f5ffd5b5061024e60048036038101906102499190610de4565b610842565b60405161025b9190611109565b60405180910390f35b34801561026f575f5ffd5b50610278610a0b565b60405161028591906111cb565b60405180910390f35b5f6001905090565b60606040518060400160405280601a81526020017f52455345525645445f4d505f4d41524b45545f4d414e41474552000000000000815250905090565b5f5f9250929050565b5f5f5f60015f9054906101000a900473ffffffffffffffffffffffffffffffffffffffff1673ffffffffffffffffffffffffffffffffffffffff1663bf40fac16040518060400160405280601581526020017f52455345525645445f424f4e445f4d414e4147455200000000000000000000008152506040518263ffffffff1660e01b815260040161036e9190610bd2565b602060405180830381865afa158015610389573d5f5f3e3d5ffd5b505050506040513d601f19601f820116820180604052508101906103ad91906111ff565b73ffffffffffffffffffffffffffffffffffffffff1663012fe7946001336040518363ffffffff1660e01b81526004016103e892919061127f565b60c060405180830381865afa158015610403573d5f5f3e3d5ffd5b505050506040513d601f19601f8201168201806040525081019061042791906113f6565b9050805f0151851461046e576040517f08c379a00000000000000000000000000000000000000000000000000000000081526004016104659061146b565b60405180910390fd5b60065f825f015181526020019081526020015f205f9054906101000a900460ff16156104cf576040517f08c379a00000000000000000000000000000000000000000000000000000000081526004016104c6906114d3565b60405180910390fd5b6104d7610a61565b9250600283908060018154018082558091505060019003905f5260205f20015f9091909190915055600160035f8581526020019081526020015f205f6101000a81548160ff021916908315150217905550604051806101c001604052808481526020013373ffffffffffffffffffffffffffffffffffffffff16815260200188600281111561056957610568610f78565b5b81526020018e73ffffffffffffffffffffffffffffffffffffffff1681526020018d73ffffffffffffffffffffffffffffffffffffffff1681526020018c81526020018b81526020018a815260200189815260200187815260200186815260200142815260200185426105dc919061151e565b81526020018b86426105ee919061151e565b6105f8919061151e565b81525060045f8581526020019081526020015f205f820151815f01556020820151816001015f6101000a81548173ffffffffffffffffffffffffffffffffffffffff021916908373ffffffffffffffffffffffffffffffffffffffff16021790555060408201518160010160146101000a81548160ff0219169083600281111561068557610684610f78565b5b02179055506060820151816002015f6101000a81548173ffffffffffffffffffffffffffffffffffffffff021916908373ffffffffffffffffffffffffffffffffffffffff1602179055506080820151816003015f6101000a81548173ffffffffffffffffffffffffffffffffffffffff021916908373ffffffffffffffffffffffffffffffffffffffff16021790555060a0820151816004015560c0820151816005015560e0820151816006015561010082015181600701556101208201518160080155610140820151816009015561016082015181600a015561018082015181600b01556101a082015181600c0155905050509a509a98505050505050505050565b5f5f60055f8481526020019081526020015f208054905014159050919050565b5f9392505050565b6060600780548060200260200160405190810160405280929190818152602001828054801561083257602002820191905f5260205f20905b815f9054906101000a900473ffffffffffffffffffffffffffffffffffffffff1673ffffffffffffffffffffffffffffffffffffffff16815260200190600101908083116107e9575b5050505050905090565b5f919050565b61084a610a7c565b60045f8381526020019081526020015f20604051806101c00160405290815f8201548152602001600182015f9054906101000a900473ffffffffffffffffffffffffffffffffffffffff1673ffffffffffffffffffffffffffffffffffffffff1673ffffffffffffffffffffffffffffffffffffffff1681526020016001820160149054906101000a900460ff1660028111156108ea576108e9610f78565b5b60028111156108fc576108fb610f78565b5b8152602001600282015f9054906101000a900473ffffffffffffffffffffffffffffffffffffffff1673ffffffffffffffffffffffffffffffffffffffff1673ffffffffffffffffffffffffffffffffffffffff168152602001600382015f9054906101000a900473ffffffffffffffffffffffffffffffffffffffff1673ffffffffffffffffffffffffffffffffffffffff1673ffffffffffffffffffffffffffffffffffffffff168152602001600482015481526020016005820154815260200160068201548152602001600782015481526020016008820154815260200160098201548152602001600a8201548152602001600b8201548152602001600c820154815250509050919050565b60606002805480602002602001604051908101604052809291908181526020018280548015610a5757602002820191905f5260205f20905b815481526020019060010190808311610a43575b5050505050905090565b5f5f5f815480929190610a7390611551565b91905055905090565b604051806101c001604052805f81526020015f73ffffffffffffffffffffffffffffffffffffffff1681526020015f6002811115610abd57610abc610f78565b5b81526020015f73ffffffffffffffffffffffffffffffffffffffff1681526020015f73ffffffffffffffffffffffffffffffffffffffff1681526020015f81526020015f81526020015f81526020015f81526020015f81526020015f81526020015f81526020015f81526020015f81525090565b5f819050919050565b610b4381610b31565b82525050565b5f602082019050610b5c5f830184610b3a565b92915050565b5f81519050919050565b5f82825260208201905092915050565b8281835e5f83830152505050565b5f601f19601f8301169050919050565b5f610ba482610b62565b610bae8185610b6c565b9350610bbe818560208601610b7c565b610bc781610b8a565b840191505092915050565b5f6020820190508181035f830152610bea8184610b9a565b905092915050565b5f604051905090565b5f5ffd5b610c0881610b31565b8114610c12575f5ffd5b50565b5f81359050610c2381610bff565b92915050565b5f5f60408385031215610c3f57610c3e610bfb565b5b5f610c4c85828601610c15565b9250506020610c5d85828601610c15565b9150509250929050565b5f604082019050610c7a5f830185610b3a565b610c876020830184610b3a565b9392505050565b5f73ffffffffffffffffffffffffffffffffffffffff82169050919050565b5f610cb782610c8e565b9050919050565b610cc781610cad565b8114610cd1575f5ffd5b50565b5f81359050610ce281610cbe565b92915050565b60038110610cf4575f5ffd5b50565b5f81359050610d0581610ce8565b92915050565b5f5f5f5f5f5f5f5f5f5f6101408b8d031215610d2a57610d29610bfb565b5b5f610d378d828e01610cd4565b9a50506020610d488d828e01610cd4565b9950506040610d598d828e01610c15565b9850506060610d6a8d828e01610c15565b9750506080610d7b8d828e01610c15565b96505060a0610d8c8d828e01610c15565b95505060c0610d9d8d828e01610cf7565b94505060e0610dae8d828e01610c15565b935050610100610dc08d828e01610c15565b925050610120610dd28d828e01610c15565b9150509295989b9194979a5092959850565b5f60208284031215610df957610df8610bfb565b5b5f610e0684828501610c15565b91505092915050565b5f8115159050919050565b610e2381610e0f565b82525050565b5f602082019050610e3c5f830184610e1a565b92915050565b5f5f5f60608486031215610e5957610e58610bfb565b5b5f610e6686828701610c15565b9350506020610e7786828701610c15565b9250506040610e8886828701610c15565b9150509250925092565b5f81519050919050565b5f82825260208201905092915050565b5f819050602082019050919050565b610ec481610cad565b82525050565b5f610ed58383610ebb565b60208301905092915050565b5f602082019050919050565b5f610ef782610e92565b610f018185610e9c565b9350610f0c83610eac565b805f5b83811015610f3c578151610f238882610eca565b9750610f2e83610ee1565b925050600181019050610f0f565b5085935050505092915050565b5f6020820190508181035f830152610f618184610eed565b905092915050565b610f7281610b31565b82525050565b7f4e487b71000000000000000000000000000000000000000000000000000000005f52602160045260245ffd5b60038110610fb657610fb5610f78565b5b50565b5f819050610fc682610fa5565b919050565b5f610fd582610fb9565b9050919050565b610fe581610fcb565b82525050565b6101c082015f8201516110005f850182610f69565b5060208201516110136020850182610ebb565b5060408201516110266040850182610fdc565b5060608201516110396060850182610ebb565b50608082015161104c6080850182610ebb565b5060a082015161105f60a0850182610f69565b5060c082015161107260c0850182610f69565b5060e082015161108560e0850182610f69565b5061010082015161109a610100850182610f69565b506101208201516110af610120850182610f69565b506101408201516110c4610140850182610f69565b506101608201516110d9610160850182610f69565b506101808201516110ee610180850182610f69565b506101a08201516111036101a0850182610f69565b50505050565b5f6101c08201905061111d5f830184610feb565b92915050565b5f81519050919050565b5f82825260208201905092915050565b5f819050602082019050919050565b5f6111578383610f69565b60208301905092915050565b5f602082019050919050565b5f61117982611123565b611183818561112d565b935061118e8361113d565b805f5b838110156111be5781516111a5888261114c565b97506111b083611163565b925050600181019050611191565b5085935050505092915050565b5f6020820190508181035f8301526111e3818461116f565b905092915050565b5f815190506111f981610cbe565b92915050565b5f6020828403121561121457611213610bfb565b5b5f611221848285016111eb565b91505092915050565b6002811061123b5761123a610f78565b5b50565b5f81905061124b8261122a565b919050565b5f61125a8261123e565b9050919050565b61126a81611250565b82525050565b61127981610cad565b82525050565b5f6040820190506112925f830185611261565b61129f6020830184611270565b9392505050565b5f5ffd5b7f4e487b71000000000000000000000000000000000000000000000000000000005f52604160045260245ffd5b6112e082610b8a565b810181811067ffffffffffffffff821117156112ff576112fe6112aa565b5b80604052505050565b5f611311610bf2565b905061131d82826112d7565b919050565b5f8151905061133081610bff565b92915050565b60028110611342575f5ffd5b50565b5f8151905061135381611336565b92915050565b5f60c0828403121561136e5761136d6112a6565b5b61137860c0611308565b90505f61138784828501611322565b5f83015250602061139a848285016111eb565b60208301525060406113ae84828501611322565b60408301525060606113c2848285016111eb565b60608301525060806113d684828501611322565b60808301525060a06113ea84828501611345565b60a08301525092915050565b5f60c0828403121561140b5761140a610bfb565b5b5f61141884828501611359565b91505092915050565b7f626f6e64206964206d69732d6d617463680000000000000000000000000000005f82015250565b5f611455601183610b6c565b915061146082611421565b602082019050919050565b5f6020820190508181035f83015261148281611449565b9050919050565b7f626f6e6420616c72656164792073657420616761696e7374206d61726b6574005f82015250565b5f6114bd601f83610b6c565b91506114c882611489565b602082019050919050565b5f6020820190508181035f8301526114ea816114b1565b9050919050565b7f4e487b71000000000000000000000000000000000000000000000000000000005f52601160045260245ffd5b5f61152882610b31565b915061153383610b31565b925082820190508082111561154b5761154a6114f1565b5b92915050565b5f61155b82610b31565b91507fffffffffffffffffffffffffffffffffffffffffffffffffffffffffffffffff820361158d5761158c6114f1565b5b60018201905091905056fea26469706673582212207309ffb6959ff524a5df86d406fc2083334df4da8f0b19d265530facbac460e964736f6c634300081e0033",
					"opcodes": "PUSH1 0xA0 PUSH1 0x40 MSTORE CALLVALUE DUP1 ISZERO PUSH2 0xF JUMPI PUSH0 PUSH0 REVERT JUMPDEST POP PUSH1 0x40 MLOAD PUSH2 0x1717 CODESIZE SUB DUP1 PUSH2 0x1717 DUP4 CODECOPY DUP2 DUP2 ADD PUSH1 0x40 MSTORE DUP2 ADD SWAP1 PUSH2 0x31 SWAP2 SWAP1 PUSH2 0x109 JUMP JUMPDEST DUP1 PUSH1 0x1 PUSH0 PUSH2 0x100 EXP DUP2 SLOAD DUP2 PUSH20 0xFFFFFFFFFFFFFFFFFFFFFFFFFFFFFFFFFFFFFFFF MUL NOT AND SWAP1 DUP4 PUSH20 0xFFFFFFFFFFFFFFFFFFFFFFFFFFFFFFFFFFFFFFFF AND MUL OR SWAP1 SSTORE POP ADDRESS PUSH20 0xFFFFFFFFFFFFFFFFFFFFFFFFFFFFFFFFFFFFFFFF AND PUSH1 0x80 DUP2 PUSH20 0xFFFFFFFFFFFFFFFFFFFFFFFFFFFFFFFFFFFFFFFF AND DUP2 MSTORE POP POP POP PUSH2 0x134 JUMP JUMPDEST PUSH0 PUSH0 REVERT JUMPDEST PUSH0 PUSH20 0xFFFFFFFFFFFFFFFFFFFFFFFFFFFFFFFFFFFFFFFF DUP3 AND SWAP1 POP SWAP2 SWAP1 POP JUMP JUMPDEST PUSH0 PUSH2 0xD8 DUP3 PUSH2 0xAF JUMP JUMPDEST SWAP1 POP SWAP2 SWAP1 POP JUMP JUMPDEST PUSH2 0xE8 DUP2 PUSH2 0xCE JUMP JUMPDEST DUP2 EQ PUSH2 0xF2 JUMPI PUSH0 PUSH0 REVERT JUMPDEST POP JUMP JUMPDEST PUSH0 DUP2 MLOAD SWAP1 POP PUSH2 0x103 DUP2 PUSH2 0xDF JUMP JUMPDEST SWAP3 SWAP2 POP POP JUMP JUMPDEST PUSH0 PUSH1 0x20 DUP3 DUP5 SUB SLT ISZERO PUSH2 0x11E JUMPI PUSH2 0x11D PUSH2 0xAB JUMP JUMPDEST JUMPDEST PUSH0 PUSH2 0x12B DUP5 DUP3 DUP6 ADD PUSH2 0xF5 JUMP JUMPDEST SWAP2 POP POP SWAP3 SWAP2 POP POP JUMP JUMPDEST PUSH1 0x80 MLOAD PUSH2 0x15CE PUSH2 0x149 PUSH0 CODECOPY PUSH0 POP POP PUSH2 0x15CE PUSH0 RETURN INVALID PUSH1 0x80 PUSH1 0x40 MSTORE PUSH1 0x4 CALLDATASIZE LT PUSH2 0x90 JUMPI PUSH0 CALLDATALOAD PUSH1 0xE0 SHR DUP1 PUSH4 0x5ECE09C5 GT PUSH2 0x58 JUMPI DUP1 PUSH4 0x5ECE09C5 EQ PUSH2 0x192 JUMPI DUP1 PUSH4 0x5FC7B760 EQ PUSH2 0x1C2 JUMPI DUP1 PUSH4 0xAE418095 EQ PUSH2 0x1EC JUMPI DUP1 PUSH4 0xEB44FDD3 EQ PUSH2 0x228 JUMPI DUP1 PUSH4 0xEC2C9016 EQ PUSH2 0x264 JUMPI PUSH2 0x90 JUMP JUMPDEST DUP1 PUSH4 0xD8E6E2C EQ PUSH2 0x94 JUMPI DUP1 PUSH4 0x17D7DE7C EQ PUSH2 0xBE JUMPI DUP1 PUSH4 0x2D6CE61D EQ PUSH2 0xE8 JUMPI DUP1 PUSH4 0x443E399F EQ PUSH2 0x125 JUMPI DUP1 PUSH4 0x4CA857DA EQ PUSH2 0x156 JUMPI JUMPDEST PUSH0 PUSH0 REVERT JUMPDEST CALLVALUE DUP1 ISZERO PUSH2 0x9F JUMPI PUSH0 PUSH0 REVERT JUMPDEST POP PUSH2 0xA8 PUSH2 0x28E JUMP JUMPDEST PUSH1 0x40 MLOAD PUSH2 0xB5 SWAP2 SWAP1 PUSH2 0xB49 JUMP JUMPDEST PUSH1 0x40 MLOAD DUP1 SWAP2 SUB SWAP1 RETURN JUMPDEST CALLVALUE DUP1 ISZERO PUSH2 0xC9 JUMPI PUSH0 PUSH0 REVERT JUMPDEST POP PUSH2 0xD2 PUSH2 0x296 JUMP JUMPDEST PUSH1 0x40 MLOAD PUSH2 0xDF SWAP2 SWAP1 PUSH2 0xBD2 JUMP JUMPDEST PUSH1 0x40 MLOAD DUP1 SWAP2 SUB SWAP1 RETURN JUMPDEST CALLVALUE DUP1 ISZERO PUSH2 0xF3 JUMPI PUSH0 PUSH0 REVERT JUMPDEST POP PUSH2 0x10E PUSH1 0x4 DUP1 CALLDATASIZE SUB DUP2 ADD SWAP1 PUSH2 0x109 SWAP2 SWAP1 PUSH2 0xC29 JUMP JUMPDEST PUSH2 0x2D3 JUMP JUMPDEST PUSH1 0x40 MLOAD PUSH2 0x11C SWAP3 SWAP2 SWAP1 PUSH2 0xC67 JUMP JUMPDEST PUSH1 0x40 MLOAD DUP1 SWAP2 SUB SWAP1 RETURN JUMPDEST PUSH2 0x13F PUSH1 0x4 DUP1 CALLDATASIZE SUB DUP2 ADD SWAP1 PUSH2 0x13A SWAP2 SWAP1 PUSH2 0xD0B JUMP JUMPDEST PUSH2 0x2DC JUMP JUMPDEST PUSH1 0x40 MLOAD PUSH2 0x14D SWAP3 SWAP2 SWAP1 PUSH2 0xC67 JUMP JUMPDEST PUSH1 0x40 MLOAD DUP1 SWAP2 SUB SWAP1 RETURN JUMPDEST CALLVALUE DUP1 ISZERO PUSH2 0x161 JUMPI PUSH0 PUSH0 REVERT JUMPDEST POP PUSH2 0x17C PUSH1 0x4 DUP1 CALLDATASIZE SUB DUP2 ADD SWAP1 PUSH2 0x177 SWAP2 SWAP1 PUSH2 0xDE4 JUMP JUMPDEST PUSH2 0x789 JUMP JUMPDEST PUSH1 0x40 MLOAD PUSH2 0x189 SWAP2 SWAP1 PUSH2 0xE29 JUMP JUMPDEST PUSH1 0x40 MLOAD DUP1 SWAP2 SUB SWAP1 RETURN JUMPDEST PUSH2 0x1AC PUSH1 0x4 DUP1 CALLDATASIZE SUB DUP2 ADD SWAP1 PUSH2 0x1A7 SWAP2 SWAP1 PUSH2 0xE42 JUMP JUMPDEST PUSH2 0x7A9 JUMP JUMPDEST PUSH1 0x40 MLOAD PUSH2 0x1B9 SWAP2 SWAP1 PUSH2 0xB49 JUMP JUMPDEST PUSH1 0x40 MLOAD DUP1 SWAP2 SUB SWAP1 RETURN JUMPDEST CALLVALUE DUP1 ISZERO PUSH2 0x1CD JUMPI PUSH0 PUSH0 REVERT JUMPDEST POP PUSH2 0x1D6 PUSH2 0x7B1 JUMP JUMPDEST PUSH1 0x40 MLOAD PUSH2 0x1E3 SWAP2 SWAP1 PUSH2 0xF49 JUMP JUMPDEST PUSH1 0x40 MLOAD DUP1 SWAP2 SUB SWAP1 RETURN JUMPDEST CALLVALUE DUP1 ISZERO PUSH2 0x1F7 JUMPI PUSH0 PUSH0 REVERT JUMPDEST POP PUSH2 0x212 PUSH1 0x4 DUP1 CALLDATASIZE SUB DUP2 ADD SWAP1 PUSH2 0x20D SWAP2 SWAP1 PUSH2 0xDE4 JUMP JUMPDEST PUSH2 0x83C JUMP JUMPDEST PUSH1 0x40 MLOAD PUSH2 0x21F SWAP2 SWAP1 PUSH2 0xB49 JUMP JUMPDEST PUSH1 0x40 MLOAD DUP1 SWAP2 SUB SWAP1 RETURN JUMPDEST CALLVALUE DUP1 ISZERO PUSH2 0x233 JUMPI PUSH0 PUSH0 REVERT JUMPDEST POP PUSH2 0x24E PUSH1 0x4 DUP1 CALLDATASIZE SUB DUP2 ADD SWAP1 PUSH2 0x249 SWAP2 SWAP1 PUSH2 0xDE4 JUMP JUMPDEST PUSH2 0x842 JUMP JUMPDEST PUSH1 0x40 MLOAD PUSH2 0x25B SWAP2 SWAP1 PUSH2 0x1109 JUMP JUMPDEST PUSH1 0x40 MLOAD DUP1 SWAP2 SUB SWAP1 RETURN JUMPDEST CALLVALUE DUP1 ISZERO PUSH2 0x26F JUMPI PUSH0 PUSH0 REVERT JUMPDEST POP PUSH2 0x278 PUSH2 0xA0B JUMP JUMPDEST PUSH1 0x40 MLOAD PUSH2 0x285 SWAP2 SWAP1 PUSH2 0x11CB JUMP JUMPDEST PUSH1 0x40 MLOAD DUP1 SWAP2 SUB SWAP1 RETURN JUMPDEST PUSH0 PUSH1 0x1 SWAP1 POP SWAP1 JUMP JUMPDEST PUSH1 0x60 PUSH1 0x40 MLOAD DUP1 PUSH1 0x40 ADD PUSH1 0x40 MSTORE DUP1 PUSH1 0x1A DUP2 MSTORE PUSH1 0x20 ADD PUSH32 0x52455345525645445F4D505F4D41524B45545F4D414E41474552000000000000 DUP2 MSTORE POP SWAP1 POP SWAP1 JUMP JUMPDEST PUSH0 PUSH0 SWAP3 POP SWAP3 SWAP1 POP JUMP JUMPDEST PUSH0 PUSH0 PUSH0 PUSH1 0x1 PUSH0 SWAP1 SLOAD SWAP1 PUSH2 0x100 EXP SWAP1 DIV PUSH20 0xFFFFFFFFFFFFFFFFFFFFFFFFFFFFFFFFFFFFFFFF AND PUSH20 0xFFFFFFFFFFFFFFFFFFFFFFFFFFFFFFFFFFFFFFFF AND PUSH4 0xBF40FAC1 PUSH1 0x40 MLOAD DUP1 PUSH1 0x40 ADD PUSH1 0x40 MSTORE DUP1 PUSH1 0x15 DUP2 MSTORE PUSH1 0x20 ADD PUSH32 0x52455345525645445F424F4E445F4D414E414745520000000000000000000000 DUP2 MSTORE POP PUSH1 0x40 MLOAD DUP3 PUSH4 0xFFFFFFFF AND PUSH1 0xE0 SHL DUP2 MSTORE PUSH1 0x4 ADD PUSH2 0x36E SWAP2 SWAP1 PUSH2 0xBD2 JUMP JUMPDEST PUSH1 0x20 PUSH1 0x40 MLOAD DUP1 DUP4 SUB DUP2 DUP7 GAS STATICCALL ISZERO DUP1 ISZERO PUSH2 0x389 JUMPI RETURNDATASIZE PUSH0 PUSH0 RETURNDATACOPY RETURNDATASIZE PUSH0 REVERT JUMPDEST POP POP POP POP PUSH1 0x40 MLOAD RETURNDATASIZE PUSH1 0x1F NOT PUSH1 0x1F DUP3 ADD AND DUP3 ADD DUP1 PUSH1 0x40 MSTORE POP DUP2 ADD SWAP1 PUSH2 0x3AD SWAP2 SWAP1 PUSH2 0x11FF JUMP JUMPDEST PUSH20 0xFFFFFFFFFFFFFFFFFFFFFFFFFFFFFFFFFFFFFFFF AND PUSH4 0x12FE794 PUSH1 0x1 CALLER PUSH1 0x40 MLOAD DUP4 PUSH4 0xFFFFFFFF AND PUSH1 0xE0 SHL DUP2 MSTORE PUSH1 0x4 ADD PUSH2 0x3E8 SWAP3 SWAP2 SWAP1 PUSH2 0x127F JUMP JUMPDEST PUSH1 0xC0 PUSH1 0x40 MLOAD DUP1 DUP4 SUB DUP2 DUP7 GAS STATICCALL ISZERO DUP1 ISZERO PUSH2 0x403 JUMPI RETURNDATASIZE PUSH0 PUSH0 RETURNDATACOPY RETURNDATASIZE PUSH0 REVERT JUMPDEST POP POP POP POP PUSH1 0x40 MLOAD RETURNDATASIZE PUSH1 0x1F NOT PUSH1 0x1F DUP3 ADD AND DUP3 ADD DUP1 PUSH1 0x40 MSTORE POP DUP2 ADD SWAP1 PUSH2 0x427 SWAP2 SWAP1 PUSH2 0x13F6 JUMP JUMPDEST SWAP1 POP DUP1 PUSH0 ADD MLOAD DUP6 EQ PUSH2 0x46E JUMPI PUSH1 0x40 MLOAD PUSH32 0x8C379A000000000000000000000000000000000000000000000000000000000 DUP2 MSTORE PUSH1 0x4 ADD PUSH2 0x465 SWAP1 PUSH2 0x146B JUMP JUMPDEST PUSH1 0x40 MLOAD DUP1 SWAP2 SUB SWAP1 REVERT JUMPDEST PUSH1 0x6 PUSH0 DUP3 PUSH0 ADD MLOAD DUP2 MSTORE PUSH1 0x20 ADD SWAP1 DUP2 MSTORE PUSH1 0x20 ADD PUSH0 KECCAK256 PUSH0 SWAP1 SLOAD SWAP1 PUSH2 0x100 EXP SWAP1 DIV PUSH1 0xFF AND ISZERO PUSH2 0x4CF JUMPI PUSH1 0x40 MLOAD PUSH32 0x8C379A000000000000000000000000000000000000000000000000000000000 DUP2 MSTORE PUSH1 0x4 ADD PUSH2 0x4C6 SWAP1 PUSH2 0x14D3 JUMP JUMPDEST PUSH1 0x40 MLOAD DUP1 SWAP2 SUB SWAP1 REVERT JUMPDEST PUSH2 0x4D7 PUSH2 0xA61 JUMP JUMPDEST SWAP3 POP PUSH1 0x2 DUP4 SWAP1 DUP1 PUSH1 0x1 DUP2 SLOAD ADD DUP1 DUP3 SSTORE DUP1 SWAP2 POP POP PUSH1 0x1 SWAP1 SUB SWAP1 PUSH0 MSTORE PUSH1 0x20 PUSH0 KECCAK256 ADD PUSH0 SWAP1 SWAP2 SWAP1 SWAP2 SWAP1 SWAP2 POP SSTORE PUSH1 0x1 PUSH1 0x3 PUSH0 DUP6 DUP2 MSTORE PUSH1 0x20 ADD SWAP1 DUP2 MSTORE PUSH1 0x20 ADD PUSH0 KECCAK256 PUSH0 PUSH2 0x100 EXP DUP2 SLOAD DUP2 PUSH1 0xFF MUL NOT AND SWAP1 DUP4 ISZERO ISZERO MUL OR SWAP1 SSTORE POP PUSH1 0x40 MLOAD DUP1 PUSH2 0x1C0 ADD PUSH1 0x40 MSTORE DUP1 DUP5 DUP2 MSTORE PUSH1 0x20 ADD CALLER PUSH20 0xFFFFFFFFFFFFFFFFFFFFFFFFFFFFFFFFFFFFFFFF AND DUP2 MSTORE PUSH1 0x20 ADD DUP9 PUSH1 0x2 DUP2 GT ISZERO PUSH2 0x569 JUMPI PUSH2 0x568 PUSH2 0xF78 JUMP JUMPDEST JUMPDEST DUP2 MSTORE PUSH1 0x20 ADD DUP15 PUSH20 0xFFFFFFFFFFFFFFFFFFFFFFFFFFFFFFFFFFFFFFFF AND DUP2 MSTORE PUSH1 0x20 ADD DUP14 PUSH20 0xFFFFFFFFFFFFFFFFFFFFFFFFFFFFFFFFFFFFFFFF AND DUP2 MSTORE PUSH1 0x20 ADD DUP13 DUP2 MSTORE PUSH1 0x20 ADD DUP12 DUP2 MSTORE PUSH1 0x20 ADD DUP11 DUP2 MSTORE PUSH1 0x20 ADD DUP10 DUP2 MSTORE PUSH1 0x20 ADD DUP8 DUP2 MSTORE PUSH1 0x20 ADD DUP7 DUP2 MSTORE PUSH1 0x20 ADD TIMESTAMP DUP2 MSTORE PUSH1 0x20 ADD DUP6 TIMESTAMP PUSH2 0x5DC SWAP2 SWAP1 PUSH2 0x151E JUMP JUMPDEST DUP2 MSTORE PUSH1 0x20 ADD DUP12 DUP7 TIMESTAMP PUSH2 0x5EE SWAP2 SWAP1 PUSH2 0x151E JUMP JUMPDEST PUSH2 0x5F8 SWAP2 SWAP1 PUSH2 0x151E JUMP JUMPDEST DUP2 MSTORE POP PUSH1 0x4 PUSH0 DUP6 DUP2 MSTORE PUSH1 0x20 ADD SWAP1 DUP2 MSTORE PUSH1 0x20 ADD PUSH0 KECCAK256 PUSH0 DUP3 ADD MLOAD DUP2 PUSH0 ADD SSTORE PUSH1 0x20 DUP3 ADD MLOAD DUP2 PUSH1 0x1 ADD PUSH0 PUSH2 0x100 EXP DUP2 SLOAD DUP2 PUSH20 0xFFFFFFFFFFFFFFFFFFFFFFFFFFFFFFFFFFFFFFFF MUL NOT AND SWAP1 DUP4 PUSH20 0xFFFFFFFFFFFFFFFFFFFFFFFFFFFFFFFFFFFFFFFF AND MUL OR SWAP1 SSTORE POP PUSH1 0x40 DUP3 ADD MLOAD DUP2 PUSH1 0x1 ADD PUSH1 0x14 PUSH2 0x100 EXP DUP2 SLOAD DUP2 PUSH1 0xFF MUL NOT AND SWAP1 DUP4 PUSH1 0x2 DUP2 GT ISZERO PUSH2 0x685 JUMPI PUSH2 0x684 PUSH2 0xF78 JUMP JUMPDEST JUMPDEST MUL OR SWAP1 SSTORE POP PUSH1 0x60 DUP3 ADD MLOAD DUP2 PUSH1 0x2 ADD PUSH0 PUSH2 0x100 EXP DUP2 SLOAD DUP2 PUSH20 0xFFFFFFFFFFFFFFFFFFFFFFFFFFFFFFFFFFFFFFFF MUL NOT AND SWAP1 DUP4 PUSH20 0xFFFFFFFFFFFFFFFFFFFFFFFFFFFFFFFFFFFFFFFF AND MUL OR SWAP1 SSTORE POP PUSH1 0x80 DUP3 ADD MLOAD DUP2 PUSH1 0x3 ADD PUSH0 PUSH2 0x100 EXP DUP2 SLOAD DUP2 PUSH20 0xFFFFFFFFFFFFFFFFFFFFFFFFFFFFFFFFFFFFFFFF MUL NOT AND SWAP1 DUP4 PUSH20 0xFFFFFFFFFFFFFFFFFFFFFFFFFFFFFFFFFFFFFFFF AND MUL OR SWAP1 SSTORE POP PUSH1 0xA0 DUP3 ADD MLOAD DUP2 PUSH1 0x4 ADD SSTORE PUSH1 0xC0 DUP3 ADD MLOAD DUP2 PUSH1 0x5 ADD SSTORE PUSH1 0xE0 DUP3 ADD MLOAD DUP2 PUSH1 0x6 ADD SSTORE PUSH2 0x100 DUP3 ADD MLOAD DUP2 PUSH1 0x7 ADD SSTORE PUSH2 0x120 DUP3 ADD MLOAD DUP2 PUSH1 0x8 ADD SSTORE PUSH2 0x140 DUP3 ADD MLOAD DUP2 PUSH1 0x9 ADD SSTORE PUSH2 0x160 DUP3 ADD MLOAD DUP2 PUSH1 0xA ADD SSTORE PUSH2 0x180 DUP3 ADD MLOAD DUP2 PUSH1 0xB ADD SSTORE PUSH2 0x1A0 DUP3 ADD MLOAD DUP2 PUSH1 0xC ADD SSTORE SWAP1 POP POP POP SWAP11 POP SWAP11 SWAP9 POP POP POP POP POP POP POP POP POP JUMP JUMPDEST PUSH0 PUSH0 PUSH1 0x5 PUSH0 DUP5 DUP2 MSTORE PUSH1 0x20 ADD SWAP1 DUP2 MSTORE PUSH1 0x20 ADD PUSH0 KECCAK256 DUP1 SLOAD SWAP1 POP EQ ISZERO SWAP1 POP SWAP2 SWAP1 POP JUMP JUMPDEST PUSH0 SWAP4 SWAP3 POP POP POP JUMP JUMPDEST PUSH1 0x60 PUSH1 0x7 DUP1 SLOAD DUP1 PUSH1 0x20 MUL PUSH1 0x20 ADD PUSH1 0x40 MLOAD SWAP1 DUP2 ADD PUSH1 0x40 MSTORE DUP1 SWAP3 SWAP2 SWAP1 DUP2 DUP2 MSTORE PUSH1 0x20 ADD DUP3 DUP1 SLOAD DUP1 ISZERO PUSH2 0x832 JUMPI PUSH1 0x20 MUL DUP3 ADD SWAP2 SWAP1 PUSH0 MSTORE PUSH1 0x20 PUSH0 KECCAK256 SWAP1 JUMPDEST DUP2 PUSH0 SWAP1 SLOAD SWAP1 PUSH2 0x100 EXP SWAP1 DIV PUSH20 0xFFFFFFFFFFFFFFFFFFFFFFFFFFFFFFFFFFFFFFFF AND PUSH20 0xFFFFFFFFFFFFFFFFFFFFFFFFFFFFFFFFFFFFFFFF AND DUP2 MSTORE PUSH1 0x20 ADD SWAP1 PUSH1 0x1 ADD SWAP1 DUP1 DUP4 GT PUSH2 0x7E9 JUMPI JUMPDEST POP POP POP POP POP SWAP1 POP SWAP1 JUMP JUMPDEST PUSH0 SWAP2 SWAP1 POP JUMP JUMPDEST PUSH2 0x84A PUSH2 0xA7C JUMP JUMPDEST PUSH1 0x4 PUSH0 DUP4 DUP2 MSTORE PUSH1 0x20 ADD SWAP1 DUP2 MSTORE PUSH1 0x20 ADD PUSH0 KECCAK256 PUSH1 0x40 MLOAD DUP1 PUSH2 0x1C0 ADD PUSH1 0x40 MSTORE SWAP1 DUP2 PUSH0 DUP3 ADD SLOAD DUP2 MSTORE PUSH1 0x20 ADD PUSH1 0x1 DUP3 ADD PUSH0 SWAP1 SLOAD SWAP1 PUSH2 0x100 EXP SWAP1 DIV PUSH20 0xFFFFFFFFFFFFFFFFFFFFFFFFFFFFFFFFFFFFFFFF AND PUSH20 0xFFFFFFFFFFFFFFFFFFFFFFFFFFFFFFFFFFFFFFFF AND PUSH20 0xFFFFFFFFFFFFFFFFFFFFFFFFFFFFFFFFFFFFFFFF AND DUP2 MSTORE PUSH1 0x20 ADD PUSH1 0x1 DUP3 ADD PUSH1 0x14 SWAP1 SLOAD SWAP1 PUSH2 0x100 EXP SWAP1 DIV PUSH1 0xFF AND PUSH1 0x2 DUP2 GT ISZERO PUSH2 0x8EA JUMPI PUSH2 0x8E9 PUSH2 0xF78 JUMP JUMPDEST JUMPDEST PUSH1 0x2 DUP2 GT ISZERO PUSH2 0x8FC JUMPI PUSH2 0x8FB PUSH2 0xF78 JUMP JUMPDEST JUMPDEST DUP2 MSTORE PUSH1 0x20 ADD PUSH1 0x2 DUP3 ADD PUSH0 SWAP1 SLOAD SWAP1 PUSH2 0x100 EXP SWAP1 DIV PUSH20 0xFFFFFFFFFFFFFFFFFFFFFFFFFFFFFFFFFFFFFFFF AND PUSH20 0xFFFFFFFFFFFFFFFFFFFFFFFFFFFFFFFFFFFFFFFF AND PUSH20 0xFFFFFFFFFFFFFFFFFFFFFFFFFFFFFFFFFFFFFFFF AND DUP2 MSTORE PUSH1 0x20 ADD PUSH1 0x3 DUP3 ADD PUSH0 SWAP1 SLOAD SWAP1 PUSH2 0x100 EXP SWAP1 DIV PUSH20 0xFFFFFFFFFFFFFFFFFFFFFFFFFFFFFFFFFFFFFFFF AND PUSH20 0xFFFFFFFFFFFFFFFFFFFFFFFFFFFFFFFFFFFFFFFF AND PUSH20 0xFFFFFFFFFFFFFFFFFFFFFFFFFFFFFFFFFFFFFFFF AND DUP2 MSTORE PUSH1 0x20 ADD PUSH1 0x4 DUP3 ADD SLOAD DUP2 MSTORE PUSH1 0x20 ADD PUSH1 0x5 DUP3 ADD SLOAD DUP2 MSTORE PUSH1 0x20 ADD PUSH1 0x6 DUP3 ADD SLOAD DUP2 MSTORE PUSH1 0x20 ADD PUSH1 0x7 DUP3 ADD SLOAD DUP2 MSTORE PUSH1 0x20 ADD PUSH1 0x8 DUP3 ADD SLOAD DUP2 MSTORE PUSH1 0x20 ADD PUSH1 0x9 DUP3 ADD SLOAD DUP2 MSTORE PUSH1 0x20 ADD PUSH1 0xA DUP3 ADD SLOAD DUP2 MSTORE PUSH1 0x20 ADD PUSH1 0xB DUP3 ADD SLOAD DUP2 MSTORE PUSH1 0x20 ADD PUSH1 0xC DUP3 ADD SLOAD DUP2 MSTORE POP POP SWAP1 POP SWAP2 SWAP1 POP JUMP JUMPDEST PUSH1 0x60 PUSH1 0x2 DUP1 SLOAD DUP1 PUSH1 0x20 MUL PUSH1 0x20 ADD PUSH1 0x40 MLOAD SWAP1 DUP2 ADD PUSH1 0x40 MSTORE DUP1 SWAP3 SWAP2 SWAP1 DUP2 DUP2 MSTORE PUSH1 0x20 ADD DUP3 DUP1 SLOAD DUP1 ISZERO PUSH2 0xA57 JUMPI PUSH1 0x20 MUL DUP3 ADD SWAP2 SWAP1 PUSH0 MSTORE PUSH1 0x20 PUSH0 KECCAK256 SWAP1 JUMPDEST DUP2 SLOAD DUP2 MSTORE PUSH1 0x20 ADD SWAP1 PUSH1 0x1 ADD SWAP1 DUP1 DUP4 GT PUSH2 0xA43 JUMPI JUMPDEST POP POP POP POP POP SWAP1 POP SWAP1 JUMP JUMPDEST PUSH0 PUSH0 PUSH0 DUP2 SLOAD DUP1 SWAP3 SWAP2 SWAP1 PUSH2 0xA73 SWAP1 PUSH2 0x1551 JUMP JUMPDEST SWAP2 SWAP1 POP SSTORE SWAP1 POP SWAP1 JUMP JUMPDEST PUSH1 0x40 MLOAD DUP1 PUSH2 0x1C0 ADD PUSH1 0x40 MSTORE DUP1 PUSH0 DUP2 MSTORE PUSH1 0x20 ADD PUSH0 PUSH20 0xFFFFFFFFFFFFFFFFFFFFFFFFFFFFFFFFFFFFFFFF AND DUP2 MSTORE PUSH1 0x20 ADD PUSH0 PUSH1 0x2 DUP2 GT ISZERO PUSH2 0xABD JUMPI PUSH2 0xABC PUSH2 0xF78 JUMP JUMPDEST JUMPDEST DUP2 MSTORE PUSH1 0x20 ADD PUSH0 PUSH20 0xFFFFFFFFFFFFFFFFFFFFFFFFFFFFFFFFFFFFFFFF AND DUP2 MSTORE PUSH1 0x20 ADD PUSH0 PUSH20 0xFFFFFFFFFFFFFFFFFFFFFFFFFFFFFFFFFFFFFFFF AND DUP2 MSTORE PUSH1 0x20 ADD PUSH0 DUP2 MSTORE PUSH1 0x20 ADD PUSH0 DUP2 MSTORE PUSH1 0x20 ADD PUSH0 DUP2 MSTORE PUSH1 0x20 ADD PUSH0 DUP2 MSTORE PUSH1 0x20 ADD PUSH0 DUP2 MSTORE PUSH1 0x20 ADD PUSH0 DUP2 MSTORE PUSH1 0x20 ADD PUSH0 DUP2 MSTORE PUSH1 0x20 ADD PUSH0 DUP2 MSTORE PUSH1 0x20 ADD PUSH0 DUP2 MSTORE POP SWAP1 JUMP JUMPDEST PUSH0 DUP2 SWAP1 POP SWAP2 SWAP1 POP JUMP JUMPDEST PUSH2 0xB43 DUP2 PUSH2 0xB31 JUMP JUMPDEST DUP3 MSTORE POP POP JUMP JUMPDEST PUSH0 PUSH1 0x20 DUP3 ADD SWAP1 POP PUSH2 0xB5C PUSH0 DUP4 ADD DUP5 PUSH2 0xB3A JUMP JUMPDEST SWAP3 SWAP2 POP POP JUMP JUMPDEST PUSH0 DUP2 MLOAD SWAP1 POP SWAP2 SWAP1 POP JUMP JUMPDEST PUSH0 DUP3 DUP3 MSTORE PUSH1 0x20 DUP3 ADD SWAP1 POP SWAP3 SWAP2 POP POP JUMP JUMPDEST DUP3 DUP2 DUP4 MCOPY PUSH0 DUP4 DUP4 ADD MSTORE POP POP POP JUMP JUMPDEST PUSH0 PUSH1 0x1F NOT PUSH1 0x1F DUP4 ADD AND SWAP1 POP SWAP2 SWAP1 POP JUMP JUMPDEST PUSH0 PUSH2 0xBA4 DUP3 PUSH2 0xB62 JUMP JUMPDEST PUSH2 0xBAE DUP2 DUP6 PUSH2 0xB6C JUMP JUMPDEST SWAP4 POP PUSH2 0xBBE DUP2 DUP6 PUSH1 0x20 DUP7 ADD PUSH2 0xB7C JUMP JUMPDEST PUSH2 0xBC7 DUP2 PUSH2 0xB8A JUMP JUMPDEST DUP5 ADD SWAP2 POP POP SWAP3 SWAP2 POP POP JUMP JUMPDEST PUSH0 PUSH1 0x20 DUP3 ADD SWAP1 POP DUP2 DUP2 SUB PUSH0 DUP4 ADD MSTORE PUSH2 0xBEA DUP2 DUP5 PUSH2 0xB9A JUMP JUMPDEST SWAP1 POP SWAP3 SWAP2 POP POP JUMP JUMPDEST PUSH0 PUSH1 0x40 MLOAD SWAP1 POP SWAP1 JUMP JUMPDEST PUSH0 PUSH0 REVERT JUMPDEST PUSH2 0xC08 DUP2 PUSH2 0xB31 JUMP JUMPDEST DUP2 EQ PUSH2 0xC12 JUMPI PUSH0 PUSH0 REVERT JUMPDEST POP JUMP JUMPDEST PUSH0 DUP2 CALLDATALOAD SWAP1 POP PUSH2 0xC23 DUP2 PUSH2 0xBFF JUMP JUMPDEST SWAP3 SWAP2 POP POP JUMP JUMPDEST PUSH0 PUSH0 PUSH1 0x40 DUP4 DUP6 SUB SLT ISZERO PUSH2 0xC3F JUMPI PUSH2 0xC3E PUSH2 0xBFB JUMP JUMPDEST JUMPDEST PUSH0 PUSH2 0xC4C DUP6 DUP3 DUP7 ADD PUSH2 0xC15 JUMP JUMPDEST SWAP3 POP POP PUSH1 0x20 PUSH2 0xC5D DUP6 DUP3 DUP7 ADD PUSH2 0xC15 JUMP JUMPDEST SWAP2 POP POP SWAP3 POP SWAP3 SWAP1 POP JUMP JUMPDEST PUSH0 PUSH1 0x40 DUP3 ADD SWAP1 POP PUSH2 0xC7A PUSH0 DUP4 ADD DUP6 PUSH2 0xB3A JUMP JUMPDEST PUSH2 0xC87 PUSH1 0x20 DUP4 ADD DUP5 PUSH2 0xB3A JUMP JUMPDEST SWAP4 SWAP3 POP POP POP JUMP JUMPDEST PUSH0 PUSH20 0xFFFFFFFFFFFFFFFFFFFFFFFFFFFFFFFFFFFFFFFF DUP3 AND SWAP1 POP SWAP2 SWAP1 POP JUMP JUMPDEST PUSH0 PUSH2 0xCB7 DUP3 PUSH2 0xC8E JUMP JUMPDEST SWAP1 POP SWAP2 SWAP1 POP JUMP JUMPDEST PUSH2 0xCC7 DUP2 PUSH2 0xCAD JUMP JUMPDEST DUP2 EQ PUSH2 0xCD1 JUMPI PUSH0 PUSH0 REVERT JUMPDEST POP JUMP JUMPDEST PUSH0 DUP2 CALLDATALOAD SWAP1 POP PUSH2 0xCE2 DUP2 PUSH2 0xCBE JUMP JUMPDEST SWAP3 SWAP2 POP POP JUMP JUMPDEST PUSH1 0x3 DUP2 LT PUSH2 0xCF4 JUMPI PUSH0 PUSH0 REVERT JUMPDEST POP JUMP JUMPDEST PUSH0 DUP2 CALLDATALOAD SWAP1 POP PUSH2 0xD05 DUP2 PUSH2 0xCE8 JUMP JUMPDEST SWAP3 SWAP2 POP POP JUMP JUMPDEST PUSH0 PUSH0 PUSH0 PUSH0 PUSH0 PUSH0 PUSH0 PUSH0 PUSH0 PUSH0 PUSH2 0x140 DUP12 DUP14 SUB SLT ISZERO PUSH2 0xD2A JUMPI PUSH2 0xD29 PUSH2 0xBFB JUMP JUMPDEST JUMPDEST PUSH0 PUSH2 0xD37 DUP14 DUP3 DUP15 ADD PUSH2 0xCD4 JUMP JUMPDEST SWAP11 POP POP PUSH1 0x20 PUSH2 0xD48 DUP14 DUP3 DUP15 ADD PUSH2 0xCD4 JUMP JUMPDEST SWAP10 POP POP PUSH1 0x40 PUSH2 0xD59 DUP14 DUP3 DUP15 ADD PUSH2 0xC15 JUMP JUMPDEST SWAP9 POP POP PUSH1 0x60 PUSH2 0xD6A DUP14 DUP3 DUP15 ADD PUSH2 0xC15 JUMP JUMPDEST SWAP8 POP POP PUSH1 0x80 PUSH2 0xD7B DUP14 DUP3 DUP15 ADD PUSH2 0xC15 JUMP JUMPDEST SWAP7 POP POP PUSH1 0xA0 PUSH2 0xD8C DUP14 DUP3 DUP15 ADD PUSH2 0xC15 JUMP JUMPDEST SWAP6 POP POP PUSH1 0xC0 PUSH2 0xD9D DUP14 DUP3 DUP15 ADD PUSH2 0xCF7 JUMP JUMPDEST SWAP5 POP POP PUSH1 0xE0 PUSH2 0xDAE DUP14 DUP3 DUP15 ADD PUSH2 0xC15 JUMP JUMPDEST SWAP4 POP POP PUSH2 0x100 PUSH2 0xDC0 DUP14 DUP3 DUP15 ADD PUSH2 0xC15 JUMP JUMPDEST SWAP3 POP POP PUSH2 0x120 PUSH2 0xDD2 DUP14 DUP3 DUP15 ADD PUSH2 0xC15 JUMP JUMPDEST SWAP2 POP POP SWAP3 SWAP6 SWAP9 SWAP12 SWAP2 SWAP5 SWAP8 SWAP11 POP SWAP3 SWAP6 SWAP9 POP JUMP JUMPDEST PUSH0 PUSH1 0x20 DUP3 DUP5 SUB SLT ISZERO PUSH2 0xDF9 JUMPI PUSH2 0xDF8 PUSH2 0xBFB JUMP JUMPDEST JUMPDEST PUSH0 PUSH2 0xE06 DUP5 DUP3 DUP6 ADD PUSH2 0xC15 JUMP JUMPDEST SWAP2 POP POP SWAP3 SWAP2 POP POP JUMP JUMPDEST PUSH0 DUP2 ISZERO ISZERO SWAP1 POP SWAP2 SWAP1 POP JUMP JUMPDEST PUSH2 0xE23 DUP2 PUSH2 0xE0F JUMP JUMPDEST DUP3 MSTORE POP POP JUMP JUMPDEST PUSH0 PUSH1 0x20 DUP3 ADD SWAP1 POP PUSH2 0xE3C PUSH0 DUP4 ADD DUP5 PUSH2 0xE1A JUMP JUMPDEST SWAP3 SWAP2 POP POP JUMP JUMPDEST PUSH0 PUSH0 PUSH0 PUSH1 0x60 DUP5 DUP7 SUB SLT ISZERO PUSH2 0xE59 JUMPI PUSH2 0xE58 PUSH2 0xBFB JUMP JUMPDEST JUMPDEST PUSH0 PUSH2 0xE66 DUP7 DUP3 DUP8 ADD PUSH2 0xC15 JUMP JUMPDEST SWAP4 POP POP PUSH1 0x20 PUSH2 0xE77 DUP7 DUP3 DUP8 ADD PUSH2 0xC15 JUMP JUMPDEST SWAP3 POP POP PUSH1 0x40 PUSH2 0xE88 DUP7 DUP3 DUP8 ADD PUSH2 0xC15 JUMP JUMPDEST SWAP2 POP POP SWAP3 POP SWAP3 POP SWAP3 JUMP JUMPDEST PUSH0 DUP2 MLOAD SWAP1 POP SWAP2 SWAP1 POP JUMP JUMPDEST PUSH0 DUP3 DUP3 MSTORE PUSH1 0x20 DUP3 ADD SWAP1 POP SWAP3 SWAP2 POP POP JUMP JUMPDEST PUSH0 DUP2 SWAP1 POP PUSH1 0x20 DUP3 ADD SWAP1 POP SWAP2 SWAP1 POP JUMP JUMPDEST PUSH2 0xEC4 DUP2 PUSH2 0xCAD JUMP JUMPDEST DUP3 MSTORE POP POP JUMP JUMPDEST PUSH0 PUSH2 0xED5 DUP4 DUP4 PUSH2 0xEBB JUMP JUMPDEST PUSH1 0x20 DUP4 ADD SWAP1 POP SWAP3 SWAP2 POP POP JUMP JUMPDEST PUSH0 PUSH1 0x20 DUP3 ADD SWAP1 POP SWAP2 SWAP1 POP JUMP JUMPDEST PUSH0 PUSH2 0xEF7 DUP3 PUSH2 0xE92 JUMP JUMPDEST PUSH2 0xF01 DUP2 DUP6 PUSH2 0xE9C JUMP JUMPDEST SWAP4 POP PUSH2 0xF0C DUP4 PUSH2 0xEAC JUMP JUMPDEST DUP1 PUSH0 JUMPDEST DUP4 DUP2 LT ISZERO PUSH2 0xF3C JUMPI DUP2 MLOAD PUSH2 0xF23 DUP9 DUP3 PUSH2 0xECA JUMP JUMPDEST SWAP8 POP PUSH2 0xF2E DUP4 PUSH2 0xEE1 JUMP JUMPDEST SWAP3 POP POP PUSH1 0x1 DUP2 ADD SWAP1 POP PUSH2 0xF0F JUMP JUMPDEST POP DUP6 SWAP4 POP POP POP POP SWAP3 SWAP2 POP POP JUMP JUMPDEST PUSH0 PUSH1 0x20 DUP3 ADD SWAP1 POP DUP2 DUP2 SUB PUSH0 DUP4 ADD MSTORE PUSH2 0xF61 DUP2 DUP5 PUSH2 0xEED JUMP JUMPDEST SWAP1 POP SWAP3 SWAP2 POP POP JUMP JUMPDEST PUSH2 0xF72 DUP2 PUSH2 0xB31 JUMP JUMPDEST DUP3 MSTORE POP POP JUMP JUMPDEST PUSH32 0x4E487B7100000000000000000000000000000000000000000000000000000000 PUSH0 MSTORE PUSH1 0x21 PUSH1 0x4 MSTORE PUSH1 0x24 PUSH0 REVERT JUMPDEST PUSH1 0x3 DUP2 LT PUSH2 0xFB6 JUMPI PUSH2 0xFB5 PUSH2 0xF78 JUMP JUMPDEST JUMPDEST POP JUMP JUMPDEST PUSH0 DUP2 SWAP1 POP PUSH2 0xFC6 DUP3 PUSH2 0xFA5 JUMP JUMPDEST SWAP2 SWAP1 POP JUMP JUMPDEST PUSH0 PUSH2 0xFD5 DUP3 PUSH2 0xFB9 JUMP JUMPDEST SWAP1 POP SWAP2 SWAP1 POP JUMP JUMPDEST PUSH2 0xFE5 DUP2 PUSH2 0xFCB JUMP JUMPDEST DUP3 MSTORE POP POP JUMP JUMPDEST PUSH2 0x1C0 DUP3 ADD PUSH0 DUP3 ADD MLOAD PUSH2 0x1000 PUSH0 DUP6 ADD DUP3 PUSH2 0xF69 JUMP JUMPDEST POP PUSH1 0x20 DUP3 ADD MLOAD PUSH2 0x1013 PUSH1 0x20 DUP6 ADD DUP3 PUSH2 0xEBB JUMP JUMPDEST POP PUSH1 0x40 DUP3 ADD MLOAD PUSH2 0x1026 PUSH1 0x40 DUP6 ADD DUP3 PUSH2 0xFDC JUMP JUMPDEST POP PUSH1 0x60 DUP3 ADD MLOAD PUSH2 0x1039 PUSH1 0x60 DUP6 ADD DUP3 PUSH2 0xEBB JUMP JUMPDEST POP PUSH1 0x80 DUP3 ADD MLOAD PUSH2 0x104C PUSH1 0x80 DUP6 ADD DUP3 PUSH2 0xEBB JUMP JUMPDEST POP PUSH1 0xA0 DUP3 ADD MLOAD PUSH2 0x105F PUSH1 0xA0 DUP6 ADD DUP3 PUSH2 0xF69 JUMP JUMPDEST POP PUSH1 0xC0 DUP3 ADD MLOAD PUSH2 0x1072 PUSH1 0xC0 DUP6 ADD DUP3 PUSH2 0xF69 JUMP JUMPDEST POP PUSH1 0xE0 DUP3 ADD MLOAD PUSH2 0x1085 PUSH1 0xE0 DUP6 ADD DUP3 PUSH2 0xF69 JUMP JUMPDEST POP PUSH2 0x100 DUP3 ADD MLOAD PUSH2 0x109A PUSH2 0x100 DUP6 ADD DUP3 PUSH2 0xF69 JUMP JUMPDEST POP PUSH2 0x120 DUP3 ADD MLOAD PUSH2 0x10AF PUSH2 0x120 DUP6 ADD DUP3 PUSH2 0xF69 JUMP JUMPDEST POP PUSH2 0x140 DUP3 ADD MLOAD PUSH2 0x10C4 PUSH2 0x140 DUP6 ADD DUP3 PUSH2 0xF69 JUMP JUMPDEST POP PUSH2 0x160 DUP3 ADD MLOAD PUSH2 0x10D9 PUSH2 0x160 DUP6 ADD DUP3 PUSH2 0xF69 JUMP JUMPDEST POP PUSH2 0x180 DUP3 ADD MLOAD PUSH2 0x10EE PUSH2 0x180 DUP6 ADD DUP3 PUSH2 0xF69 JUMP JUMPDEST POP PUSH2 0x1A0 DUP3 ADD MLOAD PUSH2 0x1103 PUSH2 0x1A0 DUP6 ADD DUP3 PUSH2 0xF69 JUMP JUMPDEST POP POP POP POP JUMP JUMPDEST PUSH0 PUSH2 0x1C0 DUP3 ADD SWAP1 POP PUSH2 0x111D PUSH0 DUP4 ADD DUP5 PUSH2 0xFEB JUMP JUMPDEST SWAP3 SWAP2 POP POP JUMP JUMPDEST PUSH0 DUP2 MLOAD SWAP1 POP SWAP2 SWAP1 POP JUMP JUMPDEST PUSH0 DUP3 DUP3 MSTORE PUSH1 0x20 DUP3 ADD SWAP1 POP SWAP3 SWAP2 POP POP JUMP JUMPDEST PUSH0 DUP2 SWAP1 POP PUSH1 0x20 DUP3 ADD SWAP1 POP SWAP2 SWAP1 POP JUMP JUMPDEST PUSH0 PUSH2 0x1157 DUP4 DUP4 PUSH2 0xF69 JUMP JUMPDEST PUSH1 0x20 DUP4 ADD SWAP1 POP SWAP3 SWAP2 POP POP JUMP JUMPDEST PUSH0 PUSH1 0x20 DUP3 ADD SWAP1 POP SWAP2 SWAP1 POP JUMP JUMPDEST PUSH0 PUSH2 0x1179 DUP3 PUSH2 0x1123 JUMP JUMPDEST PUSH2 0x1183 DUP2 DUP6 PUSH2 0x112D JUMP JUMPDEST SWAP4 POP PUSH2 0x118E DUP4 PUSH2 0x113D JUMP JUMPDEST DUP1 PUSH0 JUMPDEST DUP4 DUP2 LT ISZERO PUSH2 0x11BE JUMPI DUP2 MLOAD PUSH2 0x11A5 DUP9 DUP3 PUSH2 0x114C JUMP JUMPDEST SWAP8 POP PUSH2 0x11B0 DUP4 PUSH2 0x1163 JUMP JUMPDEST SWAP3 POP POP PUSH1 0x1 DUP2 ADD SWAP1 POP PUSH2 0x1191 JUMP JUMPDEST POP DUP6 SWAP4 POP POP POP POP SWAP3 SWAP2 POP POP JUMP JUMPDEST PUSH0 PUSH1 0x20 DUP3 ADD SWAP1 POP DUP2 DUP2 SUB PUSH0 DUP4 ADD MSTORE PUSH2 0x11E3 DUP2 DUP5 PUSH2 0x116F JUMP JUMPDEST SWAP1 POP SWAP3 SWAP2 POP POP JUMP JUMPDEST PUSH0 DUP2 MLOAD SWAP1 POP PUSH2 0x11F9 DUP2 PUSH2 0xCBE JUMP JUMPDEST SWAP3 SWAP2 POP POP JUMP JUMPDEST PUSH0 PUSH1 0x20 DUP3 DUP5 SUB SLT ISZERO PUSH2 0x1214 JUMPI PUSH2 0x1213 PUSH2 0xBFB JUMP JUMPDEST JUMPDEST PUSH0 PUSH2 0x1221 DUP5 DUP3 DUP6 ADD PUSH2 0x11EB JUMP JUMPDEST SWAP2 POP POP SWAP3 SWAP2 POP POP JUMP JUMPDEST PUSH1 0x2 DUP2 LT PUSH2 0x123B JUMPI PUSH2 0x123A PUSH2 0xF78 JUMP JUMPDEST JUMPDEST POP JUMP JUMPDEST PUSH0 DUP2 SWAP1 POP PUSH2 0x124B DUP3 PUSH2 0x122A JUMP JUMPDEST SWAP2 SWAP1 POP JUMP JUMPDEST PUSH0 PUSH2 0x125A DUP3 PUSH2 0x123E JUMP JUMPDEST SWAP1 POP SWAP2 SWAP1 POP JUMP JUMPDEST PUSH2 0x126A DUP2 PUSH2 0x1250 JUMP JUMPDEST DUP3 MSTORE POP POP JUMP JUMPDEST PUSH2 0x1279 DUP2 PUSH2 0xCAD JUMP JUMPDEST DUP3 MSTORE POP POP JUMP JUMPDEST PUSH0 PUSH1 0x40 DUP3 ADD SWAP1 POP PUSH2 0x1292 PUSH0 DUP4 ADD DUP6 PUSH2 0x1261 JUMP JUMPDEST PUSH2 0x129F PUSH1 0x20 DUP4 ADD DUP5 PUSH2 0x1270 JUMP JUMPDEST SWAP4 SWAP3 POP POP POP JUMP JUMPDEST PUSH0 PUSH0 REVERT JUMPDEST PUSH32 0x4E487B7100000000000000000000000000000000000000000000000000000000 PUSH0 MSTORE PUSH1 0x41 PUSH1 0x4 MSTORE PUSH1 0x24 PUSH0 REVERT JUMPDEST PUSH2 0x12E0 DUP3 PUSH2 0xB8A JUMP JUMPDEST DUP2 ADD DUP2 DUP2 LT PUSH8 0xFFFFFFFFFFFFFFFF DUP3 GT OR ISZERO PUSH2 0x12FF JUMPI PUSH2 0x12FE PUSH2 0x12AA JUMP JUMPDEST JUMPDEST DUP1 PUSH1 0x40 MSTORE POP POP POP JUMP JUMPDEST PUSH0 PUSH2 0x1311 PUSH2 0xBF2 JUMP JUMPDEST SWAP1 POP PUSH2 0x131D DUP3 DUP3 PUSH2 0x12D7 JUMP JUMPDEST SWAP2 SWAP1 POP JUMP JUMPDEST PUSH0 DUP2 MLOAD SWAP1 POP PUSH2 0x1330 DUP2 PUSH2 0xBFF JUMP JUMPDEST SWAP3 SWAP2 POP POP JUMP JUMPDEST PUSH1 0x2 DUP2 LT PUSH2 0x1342 JUMPI PUSH0 PUSH0 REVERT JUMPDEST POP JUMP JUMPDEST PUSH0 DUP2 MLOAD SWAP1 POP PUSH2 0x1353 DUP2 PUSH2 0x1336 JUMP JUMPDEST SWAP3 SWAP2 POP POP JUMP JUMPDEST PUSH0 PUSH1 0xC0 DUP3 DUP5 SUB SLT ISZERO PUSH2 0x136E JUMPI PUSH2 0x136D PUSH2 0x12A6 JUMP JUMPDEST JUMPDEST PUSH2 0x1378 PUSH1 0xC0 PUSH2 0x1308 JUMP JUMPDEST SWAP1 POP PUSH0 PUSH2 0x1387 DUP5 DUP3 DUP6 ADD PUSH2 0x1322 JUMP JUMPDEST PUSH0 DUP4 ADD MSTORE POP PUSH1 0x20 PUSH2 0x139A DUP5 DUP3 DUP6 ADD PUSH2 0x11EB JUMP JUMPDEST PUSH1 0x20 DUP4 ADD MSTORE POP PUSH1 0x40 PUSH2 0x13AE DUP5 DUP3 DUP6 ADD PUSH2 0x1322 JUMP JUMPDEST PUSH1 0x40 DUP4 ADD MSTORE POP PUSH1 0x60 PUSH2 0x13C2 DUP5 DUP3 DUP6 ADD PUSH2 0x11EB JUMP JUMPDEST PUSH1 0x60 DUP4 ADD MSTORE POP PUSH1 0x80 PUSH2 0x13D6 DUP5 DUP3 DUP6 ADD PUSH2 0x1322 JUMP JUMPDEST PUSH1 0x80 DUP4 ADD MSTORE POP PUSH1 0xA0 PUSH2 0x13EA DUP5 DUP3 DUP6 ADD PUSH2 0x1345 JUMP JUMPDEST PUSH1 0xA0 DUP4 ADD MSTORE POP SWAP3 SWAP2 POP POP JUMP JUMPDEST PUSH0 PUSH1 0xC0 DUP3 DUP5 SUB SLT ISZERO PUSH2 0x140B JUMPI PUSH2 0x140A PUSH2 0xBFB JUMP JUMPDEST JUMPDEST PUSH0 PUSH2 0x1418 DUP5 DUP3 DUP6 ADD PUSH2 0x1359 JUMP JUMPDEST SWAP2 POP POP SWAP3 SWAP2 POP POP JUMP JUMPDEST PUSH32 0x626F6E64206964206D69732D6D61746368000000000000000000000000000000 PUSH0 DUP3 ADD MSTORE POP JUMP JUMPDEST PUSH0 PUSH2 0x1455 PUSH1 0x11 DUP4 PUSH2 0xB6C JUMP JUMPDEST SWAP2 POP PUSH2 0x1460 DUP3 PUSH2 0x1421 JUMP JUMPDEST PUSH1 0x20 DUP3 ADD SWAP1 POP SWAP2 SWAP1 POP JUMP JUMPDEST PUSH0 PUSH1 0x20 DUP3 ADD SWAP1 POP DUP2 DUP2 SUB PUSH0 DUP4 ADD MSTORE PUSH2 0x1482 DUP2 PUSH2 0x1449 JUMP JUMPDEST SWAP1 POP SWAP2 SWAP1 POP JUMP JUMPDEST PUSH32 0x626F6E6420616C72656164792073657420616761696E7374206D61726B657400 PUSH0 DUP3 ADD MSTORE POP JUMP JUMPDEST PUSH0 PUSH2 0x14BD PUSH1 0x1F DUP4 PUSH2 0xB6C JUMP JUMPDEST SWAP2 POP PUSH2 0x14C8 DUP3 PUSH2 0x1489 JUMP JUMPDEST PUSH1 0x20 DUP3 ADD SWAP1 POP SWAP2 SWAP1 POP JUMP JUMPDEST PUSH0 PUSH1 0x20 DUP3 ADD SWAP1 POP DUP2 DUP2 SUB PUSH0 DUP4 ADD MSTORE PUSH2 0x14EA DUP2 PUSH2 0x14B1 JUMP JUMPDEST SWAP1 POP SWAP2 SWAP1 POP JUMP JUMPDEST PUSH32 0x4E487B7100000000000000000000000000000000000000000000000000000000 PUSH0 MSTORE PUSH1 0x11 PUSH1 0x4 MSTORE PUSH1 0x24 PUSH0 REVERT JUMPDEST PUSH0 PUSH2 0x1528 DUP3 PUSH2 0xB31 JUMP JUMPDEST SWAP2 POP PUSH2 0x1533 DUP4 PUSH2 0xB31 JUMP JUMPDEST SWAP3 POP DUP3 DUP3 ADD SWAP1 POP DUP1 DUP3 GT ISZERO PUSH2 0x154B JUMPI PUSH2 0x154A PUSH2 0x14F1 JUMP JUMPDEST JUMPDEST SWAP3 SWAP2 POP POP JUMP JUMPDEST PUSH0 PUSH2 0x155B DUP3 PUSH2 0xB31 JUMP JUMPDEST SWAP2 POP PUSH32 0xFFFFFFFFFFFFFFFFFFFFFFFFFFFFFFFFFFFFFFFFFFFFFFFFFFFFFFFFFFFFFFFF DUP3 SUB PUSH2 0x158D JUMPI PUSH2 0x158C PUSH2 0x14F1 JUMP JUMPDEST JUMPDEST PUSH1 0x1 DUP3 ADD SWAP1 POP SWAP2 SWAP1 POP JUMP INVALID LOG2 PUSH5 0x6970667358 0x22 SLT KECCAK256 PUSH20 0x9FFB6959FF524A5DF86D406FC2083334DF4DA8F SIGNEXTEND NOT 0xD2 PUSH6 0x530FACBAC460 0xE9 PUSH5 0x736F6C6343 STOP ADDMOD 0x1E STOP CALLER "
				},
				"gasEstimates": {
					"creation": {
						"codeDepositCost": "1116400",
						"executionCost": "infinite",
						"totalCost": "infinite"
					},
					"external": {
						"closeMarket(uint256)": "infinite",
						"closePosition(uint256,uint256)": "infinite",
						"createMarket(address,address,uint256,uint256,uint256,uint256,uint8,uint256,uint256,uint256)": "infinite",
						"getAllowedMarketTokens()": "infinite",
						"getMarket(uint256)": "infinite",
						"getMarkets()": "infinite",
						"getName()": "infinite",
						"getVersion()": "333",
						"hasOpenPositions(uint256)": "2880",
						"openPosition(uint256,uint256,uint256)": "infinite"
					},
					"internal": {
						"addTx(enum TxType,enum ObjType,uint256,uint256,address)": "infinite",
						"getIndex()": "24370"
					}
				},
				"methodIdentifiers": {
					"closeMarket(uint256)": "ae418095",
					"closePosition(uint256,uint256)": "2d6ce61d",
					"createMarket(address,address,uint256,uint256,uint256,uint256,uint8,uint256,uint256,uint256)": "443e399f",
					"getAllowedMarketTokens()": "5fc7b760",
					"getMarket(uint256)": "eb44fdd3",
					"getMarkets()": "ec2c9016",
					"getName()": "17d7de7c",
					"getVersion()": "0d8e6e2c",
					"hasOpenPositions(uint256)": "4ca857da",
					"openPosition(uint256,uint256,uint256)": "5ece09c5"
				}
			},
			"storageLayout": {
				"storage": [
					{
						"astId": 113,
						"contract": "contracts/core/market/MPMarketManager.sol:MarketManager",
						"label": "index",
						"offset": 0,
						"slot": "0",
						"type": "t_uint256"
					},
					{
						"astId": 116,
						"contract": "contracts/core/market/MPMarketManager.sol:MarketManager",
						"label": "register",
						"offset": 0,
						"slot": "1",
						"type": "t_contract(IRegister)630"
					},
					{
						"astId": 119,
						"contract": "contracts/core/market/MPMarketManager.sol:MarketManager",
						"label": "marketIds",
						"offset": 0,
						"slot": "2",
						"type": "t_array(t_uint256)dyn_storage"
					},
					{
						"astId": 123,
						"contract": "contracts/core/market/MPMarketManager.sol:MarketManager",
						"label": "isKnownMarket",
						"offset": 0,
						"slot": "3",
						"type": "t_mapping(t_uint256,t_bool)"
					},
					{
						"astId": 128,
						"contract": "contracts/core/market/MPMarketManager.sol:MarketManager",
						"label": "marketById",
						"offset": 0,
						"slot": "4",
						"type": "t_mapping(t_uint256,t_struct(Market)958_storage)"
					},
					{
						"astId": 133,
						"contract": "contracts/core/market/MPMarketManager.sol:MarketManager",
						"label": "positionIdsByBondId",
						"offset": 0,
						"slot": "5",
						"type": "t_mapping(t_uint256,t_array(t_uint256)dyn_storage)"
					},
					{
						"astId": 137,
						"contract": "contracts/core/market/MPMarketManager.sol:MarketManager",
						"label": "hasMarketByBondId",
						"offset": 0,
						"slot": "6",
						"type": "t_mapping(t_uint256,t_bool)"
					},
					{
						"astId": 140,
						"contract": "contracts/core/market/MPMarketManager.sol:MarketManager",
						"label": "allowedMarketTokens",
						"offset": 0,
						"slot": "7",
						"type": "t_array(t_address)dyn_storage"
					},
					{
						"astId": 144,
						"contract": "contracts/core/market/MPMarketManager.sol:MarketManager",
						"label": "isAllowedMarketToken",
						"offset": 0,
						"slot": "8",
						"type": "t_mapping(t_address,t_bool)"
					}
				],
				"types": {
					"t_address": {
						"encoding": "inplace",
						"label": "address",
						"numberOfBytes": "20"
					},
					"t_array(t_address)dyn_storage": {
						"base": "t_address",
						"encoding": "dynamic_array",
						"label": "address[]",
						"numberOfBytes": "32"
					},
					"t_array(t_uint256)dyn_storage": {
						"base": "t_uint256",
						"encoding": "dynamic_array",
						"label": "uint256[]",
						"numberOfBytes": "32"
					},
					"t_bool": {
						"encoding": "inplace",
						"label": "bool",
						"numberOfBytes": "1"
					},
					"t_contract(IRegister)630": {
						"encoding": "inplace",
						"label": "contract IRegister",
						"numberOfBytes": "20"
					},
					"t_enum(RiskType)969": {
						"encoding": "inplace",
						"label": "enum RiskType",
						"numberOfBytes": "1"
					},
					"t_mapping(t_address,t_bool)": {
						"encoding": "mapping",
						"key": "t_address",
						"label": "mapping(address => bool)",
						"numberOfBytes": "32",
						"value": "t_bool"
					},
					"t_mapping(t_uint256,t_array(t_uint256)dyn_storage)": {
						"encoding": "mapping",
						"key": "t_uint256",
						"label": "mapping(uint256 => uint256[])",
						"numberOfBytes": "32",
						"value": "t_array(t_uint256)dyn_storage"
					},
					"t_mapping(t_uint256,t_bool)": {
						"encoding": "mapping",
						"key": "t_uint256",
						"label": "mapping(uint256 => bool)",
						"numberOfBytes": "32",
						"value": "t_bool"
					},
					"t_mapping(t_uint256,t_struct(Market)958_storage)": {
						"encoding": "mapping",
						"key": "t_uint256",
						"label": "mapping(uint256 => struct Market)",
						"numberOfBytes": "32",
						"value": "t_struct(Market)958_storage"
					},
					"t_struct(Market)958_storage": {
						"encoding": "inplace",
						"label": "struct Market",
						"members": [
							{
								"astId": 930,
								"contract": "contracts/core/market/MPMarketManager.sol:MarketManager",
								"label": "id",
								"offset": 0,
								"slot": "0",
								"type": "t_uint256"
							},
							{
								"astId": 932,
								"contract": "contracts/core/market/MPMarketManager.sol:MarketManager",
								"label": "owner",
								"offset": 0,
								"slot": "1",
								"type": "t_address"
							},
							{
								"astId": 935,
								"contract": "contracts/core/market/MPMarketManager.sol:MarketManager",
								"label": "riskType",
								"offset": 20,
								"slot": "1",
								"type": "t_enum(RiskType)969"
							},
							{
								"astId": 937,
								"contract": "contracts/core/market/MPMarketManager.sol:MarketManager",
								"label": "fromToken",
								"offset": 0,
								"slot": "2",
								"type": "t_address"
							},
							{
								"astId": 939,
								"contract": "contracts/core/market/MPMarketManager.sol:MarketManager",
								"label": "toToken",
								"offset": 0,
								"slot": "3",
								"type": "t_address"
							},
							{
								"astId": 941,
								"contract": "contracts/core/market/MPMarketManager.sol:MarketManager",
								"label": "minDuration",
								"offset": 0,
								"slot": "4",
								"type": "t_uint256"
							},
							{
								"astId": 943,
								"contract": "contracts/core/market/MPMarketManager.sol:MarketManager",
								"label": "maxDuration",
								"offset": 0,
								"slot": "5",
								"type": "t_uint256"
							},
							{
								"astId": 945,
								"contract": "contracts/core/market/MPMarketManager.sol:MarketManager",
								"label": "minReturn",
								"offset": 0,
								"slot": "6",
								"type": "t_uint256"
							},
							{
								"astId": 947,
								"contract": "contracts/core/market/MPMarketManager.sol:MarketManager",
								"label": "maxReturn",
								"offset": 0,
								"slot": "7",
								"type": "t_uint256"
							},
							{
								"astId": 949,
								"contract": "contracts/core/market/MPMarketManager.sol:MarketManager",
								"label": "maxSlots",
								"offset": 0,
								"slot": "8",
								"type": "t_uint256"
							},
							{
								"astId": 951,
								"contract": "contracts/core/market/MPMarketManager.sol:MarketManager",
								"label": "bondId",
								"offset": 0,
								"slot": "9",
								"type": "t_uint256"
							},
							{
								"astId": 953,
								"contract": "contracts/core/market/MPMarketManager.sol:MarketManager",
								"label": "createDate",
								"offset": 0,
								"slot": "10",
								"type": "t_uint256"
							},
							{
								"astId": 955,
								"contract": "contracts/core/market/MPMarketManager.sol:MarketManager",
								"label": "expiryDate",
								"offset": 0,
								"slot": "11",
								"type": "t_uint256"
							},
							{
								"astId": 957,
								"contract": "contracts/core/market/MPMarketManager.sol:MarketManager",
								"label": "finalExitDate",
								"offset": 0,
								"slot": "12",
								"type": "t_uint256"
							}
						],
						"numberOfBytes": "416"
					},
					"t_uint256": {
						"encoding": "inplace",
						"label": "uint256",
						"numberOfBytes": "32"
					}
				}
			},
			"userdoc": {
				"kind": "user",
				"methods": {},
				"version": 1
			}
		}
	}
}