{
	"contracts/core/util/MPRegister_flattened.sol": {
		"MPRegister": {
			"abi": [
				{
					"inputs": [
						{
							"internalType": "address",
							"name": "_admin",
							"type": "address"
						},
						{
							"internalType": "address",
							"name": "_feeToken",
							"type": "address"
						}
					],
					"stateMutability": "nonpayable",
					"type": "constructor"
				},
				{
					"inputs": [
						{
							"internalType": "string",
							"name": "_name",
							"type": "string"
						},
						{
							"internalType": "address",
							"name": "_address",
							"type": "address"
						},
						{
							"internalType": "uint256",
							"name": "_version",
							"type": "uint256"
						}
					],
					"name": "addAddress",
					"outputs": [
						{
							"internalType": "bool",
							"name": "_added",
							"type": "bool"
						}
					],
					"stateMutability": "nonpayable",
					"type": "function"
				},
				{
					"inputs": [
						{
							"internalType": "address",
							"name": "_address",
							"type": "address"
						}
					],
					"name": "addVersionAddress",
					"outputs": [
						{
							"internalType": "bool",
							"name": "_added",
							"type": "bool"
						}
					],
					"stateMutability": "nonpayable",
					"type": "function"
				},
				{
					"inputs": [
						{
							"internalType": "string",
							"name": "_name",
							"type": "string"
						}
					],
					"name": "getAddress",
					"outputs": [
						{
							"internalType": "address",
							"name": "_address",
							"type": "address"
						}
					],
					"stateMutability": "view",
					"type": "function"
				},
				{
					"inputs": [],
					"name": "getName",
					"outputs": [
						{
							"internalType": "string",
							"name": "_name",
							"type": "string"
						}
					],
					"stateMutability": "pure",
					"type": "function"
				},
				{
					"inputs": [],
					"name": "getVersion",
					"outputs": [
						{
							"internalType": "uint256",
							"name": "_version",
							"type": "uint256"
						}
					],
					"stateMutability": "pure",
					"type": "function"
				},
				{
					"inputs": [
						{
							"internalType": "string",
							"name": "_name",
							"type": "string"
						}
					],
					"name": "hasAddress",
					"outputs": [
						{
							"internalType": "bool",
							"name": "_hasAddress",
							"type": "bool"
						}
					],
					"stateMutability": "view",
					"type": "function"
				},
				{
					"inputs": [
						{
							"internalType": "address",
							"name": "_address",
							"type": "address"
						}
					],
					"name": "isKnown",
					"outputs": [
						{
							"internalType": "bool",
							"name": "_isKnown",
							"type": "bool"
						}
					],
					"stateMutability": "view",
					"type": "function"
				}
			],
			"devdoc": {
				"kind": "dev",
				"methods": {},
				"version": 1
			},
			"evm": {
				"assembly": "    /* \"contracts/core/util/MPRegister_flattened.sol\":777:3395  contract MPRegister is IRegister, IVersion { ... */\n  mstore(0x40, 0xa0)\n    /* \"contracts/core/util/MPRegister_flattened.sol\":1510:1757  constructor(address _admin, address _feeToken) { ... */\n  callvalue\n  dup1\n  iszero\n  tag_1\n  jumpi\n  revert(0x00, 0x00)\ntag_1:\n  pop\n  mload(0x40)\n  sub(codesize, bytecodeSize)\n  dup1\n  bytecodeSize\n  dup4\n  codecopy\n  dup2\n  dup2\n  add\n  0x40\n  mstore\n  dup2\n  add\n  swap1\n  tag_2\n  swap2\n  swap1\n  tag_3\n  jump\t// in\ntag_2:\n    /* \"contracts/core/util/MPRegister_flattened.sol\":1569:1608  addAddressInternal(ADMIN_CA, _admin, 0) */\n  tag_6\n    /* \"contracts/core/util/MPRegister_flattened.sol\":1588:1596  ADMIN_CA */\n  mload(0x40)\n  dup1\n  0x40\n  add\n  0x40\n  mstore\n  dup1\n  0x11\n  dup2\n  mstore\n  0x20\n  add\n  0x52455345525645445f4d505f41444d494e000000000000000000000000000000\n  dup2\n  mstore\n  pop\n    /* \"contracts/core/util/MPRegister_flattened.sol\":1598:1604  _admin */\n  dup4\n    /* \"contracts/core/util/MPRegister_flattened.sol\":1606:1607  0 */\n  0x00\n    /* \"contracts/core/util/MPRegister_flattened.sol\":1569:1587  addAddressInternal */\n  shl(0x20, tag_7)\n    /* \"contracts/core/util/MPRegister_flattened.sol\":1569:1608  addAddressInternal(ADMIN_CA, _admin, 0) */\n  0x20\n  shr\n  jump\t// in\ntag_6:\n  pop\n    /* \"contracts/core/util/MPRegister_flattened.sol\":1620:1658  addAddressInternal(BANK_CA, _admin, 0) */\n  tag_8\n    /* \"contracts/core/util/MPRegister_flattened.sol\":1639:1646  BANK_CA */\n  mload(0x40)\n  dup1\n  0x40\n  add\n  0x40\n  mstore\n  dup1\n  0x10\n  dup2\n  mstore\n  0x20\n  add\n  0x52455345525645445f4d505f42414e4b00000000000000000000000000000000\n  dup2\n  mstore\n  pop\n    /* \"contracts/core/util/MPRegister_flattened.sol\":1648:1654  _admin */\n  dup4\n    /* \"contracts/core/util/MPRegister_flattened.sol\":1656:1657  0 */\n  0x00\n    /* \"contracts/core/util/MPRegister_flattened.sol\":1620:1638  addAddressInternal */\n  shl(0x20, tag_7)\n    /* \"contracts/core/util/MPRegister_flattened.sol\":1620:1658  addAddressInternal(BANK_CA, _admin, 0) */\n  0x20\n  shr\n  jump\t// in\ntag_8:\n  pop\n    /* \"contracts/core/util/MPRegister_flattened.sol\":1669:1715  addAddressInternal(FEE_TOKEN_CA, _feeToken, 0) */\n  tag_9\n    /* \"contracts/core/util/MPRegister_flattened.sol\":1688:1700  FEE_TOKEN_CA */\n  mload(0x40)\n  dup1\n  0x40\n  add\n  0x40\n  mstore\n  dup1\n  0x15\n  dup2\n  mstore\n  0x20\n  add\n  0x52455345525645445f4d505f4645455f544f4b454e0000000000000000000000\n  dup2\n  mstore\n  pop\n    /* \"contracts/core/util/MPRegister_flattened.sol\":1702:1711  _feeToken */\n  dup3\n    /* \"contracts/core/util/MPRegister_flattened.sol\":1713:1714  0 */\n  0x00\n    /* \"contracts/core/util/MPRegister_flattened.sol\":1669:1687  addAddressInternal */\n  shl(0x20, tag_7)\n    /* \"contracts/core/util/MPRegister_flattened.sol\":1669:1715  addAddressInternal(FEE_TOKEN_CA, _feeToken, 0) */\n  0x20\n  shr\n  jump\t// in\ntag_9:\n  pop\n    /* \"contracts/core/util/MPRegister_flattened.sol\":1743:1747  this */\n  address\n    /* \"contracts/core/util/MPRegister_flattened.sol\":1728:1748  self = address(this) */\n  0xffffffffffffffffffffffffffffffffffffffff\n  and\n  0x80\n  dup2\n  0xffffffffffffffffffffffffffffffffffffffff\n  and\n  dup2\n  mstore\n  pop\n  pop\n    /* \"contracts/core/util/MPRegister_flattened.sol\":1510:1757  constructor(address _admin, address _feeToken) { ... */\n  pop\n  pop\n    /* \"contracts/core/util/MPRegister_flattened.sol\":777:3395  contract MPRegister is IRegister, IVersion { ... */\n  jump(tag_10)\n    /* \"contracts/core/util/MPRegister_flattened.sol\":3032:3392  function addAddressInternal(string memory _name, address _address, uint256 _version) internal returns (bool _added) {... */\ntag_7:\n    /* \"contracts/core/util/MPRegister_flattened.sol\":3135:3146  bool _added */\n  0x00\n    /* \"contracts/core/util/MPRegister_flattened.sol\":3159:3168  addresses */\n  0x00\n    /* \"contracts/core/util/MPRegister_flattened.sol\":3174:3182  _address */\n  dup4\n    /* \"contracts/core/util/MPRegister_flattened.sol\":3159:3183  addresses.push(_address) */\n  swap1\n  dup1\n  0x01\n  dup2\n  sload\n  add\n  dup1\n  dup3\n  sstore\n  dup1\n  swap2\n  pop\n  pop\n  0x01\n  swap1\n  sub\n  swap1\n  0x00\n  mstore\n  keccak256(0x00, 0x20)\n  add\n  0x00\n  swap1\n  swap2\n  swap1\n  swap2\n  swap1\n  swap2\n  0x0100\n  exp\n  dup2\n  sload\n  dup2\n  0xffffffffffffffffffffffffffffffffffffffff\n  mul\n  not\n  and\n  swap1\n  dup4\n  0xffffffffffffffffffffffffffffffffffffffff\n  and\n  mul\n  or\n  swap1\n  sstore\n  pop\n    /* \"contracts/core/util/MPRegister_flattened.sol\":3224:3228  true */\n  0x01\n    /* \"contracts/core/util/MPRegister_flattened.sol\":3194:3208  isKnownAddress */\n  dup1\n    /* \"contracts/core/util/MPRegister_flattened.sol\":3194:3218  isKnownAddress[_address] */\n  0x00\n    /* \"contracts/core/util/MPRegister_flattened.sol\":3209:3217  _address */\n  dup6\n    /* \"contracts/core/util/MPRegister_flattened.sol\":3194:3218  isKnownAddress[_address] */\n  0xffffffffffffffffffffffffffffffffffffffff\n  and\n  0xffffffffffffffffffffffffffffffffffffffff\n  and\n  dup2\n  mstore\n  0x20\n  add\n  swap1\n  dup2\n  mstore\n  0x20\n  add\n  0x00\n  keccak256\n  0x00\n    /* \"contracts/core/util/MPRegister_flattened.sol\":3194:3228  isKnownAddress[_address]    = true */\n  0x0100\n  exp\n  dup2\n  sload\n  dup2\n  0xff\n  mul\n  not\n  and\n  swap1\n  dup4\n  iszero\n  iszero\n  mul\n  or\n  swap1\n  sstore\n  pop\n    /* \"contracts/core/util/MPRegister_flattened.sol\":3240:3253  addressByName */\n  0x02\n    /* \"contracts/core/util/MPRegister_flattened.sol\":3254:3259  _name */\n  dup5\n    /* \"contracts/core/util/MPRegister_flattened.sol\":3240:3260  addressByName[_name] */\n  mload(0x40)\n  tag_13\n  swap2\n  swap1\n  tag_14\n  jump\t// in\ntag_13:\n  swap1\n  dup2\n  mstore\n  0x20\n  add\n  mload(0x40)\n  dup1\n  swap2\n  sub\n  swap1\n  keccak256\n  0x00\n  swap1\n  sload\n  swap1\n  0x0100\n  exp\n  swap1\n  pop\n  pop\n    /* \"contracts/core/util/MPRegister_flattened.sol\":3302:3310  _version */\n  dup2\n    /* \"contracts/core/util/MPRegister_flattened.sol\":3272:3288  versionByAddress */\n  0x03\n    /* \"contracts/core/util/MPRegister_flattened.sol\":3272:3298  versionByAddress[_address] */\n  0x00\n    /* \"contracts/core/util/MPRegister_flattened.sol\":3289:3297  _address */\n  dup6\n    /* \"contracts/core/util/MPRegister_flattened.sol\":3272:3298  versionByAddress[_address] */\n  0xffffffffffffffffffffffffffffffffffffffff\n  and\n  0xffffffffffffffffffffffffffffffffffffffff\n  and\n  dup2\n  mstore\n  0x20\n  add\n  swap1\n  dup2\n  mstore\n  0x20\n  add\n  0x00\n  keccak256\n    /* \"contracts/core/util/MPRegister_flattened.sol\":3272:3310  versionByAddress[_address]  = _version */\n  dup2\n  swap1\n  sstore\n  pop\n    /* \"contracts/core/util/MPRegister_flattened.sol\":3352:3360  _version */\n  dup2\n    /* \"contracts/core/util/MPRegister_flattened.sol\":3322:3335  versionByName */\n  0x04\n    /* \"contracts/core/util/MPRegister_flattened.sol\":3336:3341  _name */\n  dup6\n    /* \"contracts/core/util/MPRegister_flattened.sol\":3322:3342  versionByName[_name] */\n  mload(0x40)\n  tag_15\n  swap2\n  swap1\n  tag_14\n  jump\t// in\ntag_15:\n  swap1\n  dup2\n  mstore\n  0x20\n  add\n  mload(0x40)\n  dup1\n  swap2\n  sub\n  swap1\n  keccak256\n    /* \"contracts/core/util/MPRegister_flattened.sol\":3322:3360  versionByName[_name]        = _version */\n  dup2\n  swap1\n  sstore\n  pop\n    /* \"contracts/core/util/MPRegister_flattened.sol\":3379:3383  true */\n  0x01\n    /* \"contracts/core/util/MPRegister_flattened.sol\":3372:3383  return true */\n  swap1\n  pop\n    /* \"contracts/core/util/MPRegister_flattened.sol\":3032:3392  function addAddressInternal(string memory _name, address _address, uint256 _version) internal returns (bool _added) {... */\n  swap4\n  swap3\n  pop\n  pop\n  pop\n  jump\t// out\n    /* \"#utility.yul\":88:205   */\ntag_17:\n    /* \"#utility.yul\":197:198   */\n  0x00\n    /* \"#utility.yul\":194:195   */\n  0x00\n    /* \"#utility.yul\":187:199   */\n  revert\n    /* \"#utility.yul\":334:460   */\ntag_19:\n    /* \"#utility.yul\":371:378   */\n  0x00\n    /* \"#utility.yul\":411:453   */\n  0xffffffffffffffffffffffffffffffffffffffff\n    /* \"#utility.yul\":404:409   */\n  dup3\n    /* \"#utility.yul\":400:454   */\n  and\n    /* \"#utility.yul\":389:454   */\n  swap1\n  pop\n    /* \"#utility.yul\":334:460   */\n  swap2\n  swap1\n  pop\n  jump\t// out\n    /* \"#utility.yul\":466:562   */\ntag_20:\n    /* \"#utility.yul\":503:510   */\n  0x00\n    /* \"#utility.yul\":532:556   */\n  tag_33\n    /* \"#utility.yul\":550:555   */\n  dup3\n    /* \"#utility.yul\":532:556   */\n  tag_19\n  jump\t// in\ntag_33:\n    /* \"#utility.yul\":521:556   */\n  swap1\n  pop\n    /* \"#utility.yul\":466:562   */\n  swap2\n  swap1\n  pop\n  jump\t// out\n    /* \"#utility.yul\":568:690   */\ntag_21:\n    /* \"#utility.yul\":641:665   */\n  tag_35\n    /* \"#utility.yul\":659:664   */\n  dup2\n    /* \"#utility.yul\":641:665   */\n  tag_20\n  jump\t// in\ntag_35:\n    /* \"#utility.yul\":634:639   */\n  dup2\n    /* \"#utility.yul\":631:666   */\n  eq\n    /* \"#utility.yul\":621:684   */\n  tag_36\n  jumpi\n    /* \"#utility.yul\":680:681   */\n  0x00\n    /* \"#utility.yul\":677:678   */\n  0x00\n    /* \"#utility.yul\":670:682   */\n  revert\n    /* \"#utility.yul\":621:684   */\ntag_36:\n    /* \"#utility.yul\":568:690   */\n  pop\n  jump\t// out\n    /* \"#utility.yul\":696:839   */\ntag_22:\n    /* \"#utility.yul\":753:758   */\n  0x00\n    /* \"#utility.yul\":784:790   */\n  dup2\n    /* \"#utility.yul\":778:791   */\n  mload\n    /* \"#utility.yul\":769:791   */\n  swap1\n  pop\n    /* \"#utility.yul\":800:833   */\n  tag_38\n    /* \"#utility.yul\":827:832   */\n  dup2\n    /* \"#utility.yul\":800:833   */\n  tag_21\n  jump\t// in\ntag_38:\n    /* \"#utility.yul\":696:839   */\n  swap3\n  swap2\n  pop\n  pop\n  jump\t// out\n    /* \"#utility.yul\":845:1352   */\ntag_3:\n    /* \"#utility.yul\":924:930   */\n  0x00\n    /* \"#utility.yul\":932:938   */\n  0x00\n    /* \"#utility.yul\":981:983   */\n  0x40\n    /* \"#utility.yul\":969:978   */\n  dup4\n    /* \"#utility.yul\":960:967   */\n  dup6\n    /* \"#utility.yul\":956:979   */\n  sub\n    /* \"#utility.yul\":952:984   */\n  slt\n    /* \"#utility.yul\":949:1068   */\n  iszero\n  tag_40\n  jumpi\n    /* \"#utility.yul\":987:1066   */\n  tag_41\n  tag_17\n  jump\t// in\ntag_41:\n    /* \"#utility.yul\":949:1068   */\ntag_40:\n    /* \"#utility.yul\":1107:1108   */\n  0x00\n    /* \"#utility.yul\":1132:1196   */\n  tag_42\n    /* \"#utility.yul\":1188:1195   */\n  dup6\n    /* \"#utility.yul\":1179:1185   */\n  dup3\n    /* \"#utility.yul\":1168:1177   */\n  dup7\n    /* \"#utility.yul\":1164:1186   */\n  add\n    /* \"#utility.yul\":1132:1196   */\n  tag_22\n  jump\t// in\ntag_42:\n    /* \"#utility.yul\":1122:1196   */\n  swap3\n  pop\n    /* \"#utility.yul\":1078:1206   */\n  pop\n    /* \"#utility.yul\":1245:1247   */\n  0x20\n    /* \"#utility.yul\":1271:1335   */\n  tag_43\n    /* \"#utility.yul\":1327:1334   */\n  dup6\n    /* \"#utility.yul\":1318:1324   */\n  dup3\n    /* \"#utility.yul\":1307:1316   */\n  dup7\n    /* \"#utility.yul\":1303:1325   */\n  add\n    /* \"#utility.yul\":1271:1335   */\n  tag_22\n  jump\t// in\ntag_43:\n    /* \"#utility.yul\":1261:1335   */\n  swap2\n  pop\n    /* \"#utility.yul\":1216:1345   */\n  pop\n    /* \"#utility.yul\":845:1352   */\n  swap3\n  pop\n  swap3\n  swap1\n  pop\n  jump\t// out\n    /* \"#utility.yul\":1358:1457   */\ntag_23:\n    /* \"#utility.yul\":1410:1416   */\n  0x00\n    /* \"#utility.yul\":1444:1449   */\n  dup2\n    /* \"#utility.yul\":1438:1450   */\n  mload\n    /* \"#utility.yul\":1428:1450   */\n  swap1\n  pop\n    /* \"#utility.yul\":1358:1457   */\n  swap2\n  swap1\n  pop\n  jump\t// out\n    /* \"#utility.yul\":1463:1611   */\ntag_24:\n    /* \"#utility.yul\":1565:1576   */\n  0x00\n    /* \"#utility.yul\":1602:1605   */\n  dup2\n    /* \"#utility.yul\":1587:1605   */\n  swap1\n  pop\n    /* \"#utility.yul\":1463:1611   */\n  swap3\n  swap2\n  pop\n  pop\n  jump\t// out\n    /* \"#utility.yul\":1617:1756   */\ntag_25:\n    /* \"#utility.yul\":1706:1712   */\n  dup3\n    /* \"#utility.yul\":1701:1704   */\n  dup2\n    /* \"#utility.yul\":1696:1699   */\n  dup4\n    /* \"#utility.yul\":1690:1713   */\n  mcopy\n    /* \"#utility.yul\":1747:1748   */\n  0x00\n    /* \"#utility.yul\":1738:1744   */\n  dup4\n    /* \"#utility.yul\":1733:1736   */\n  dup4\n    /* \"#utility.yul\":1729:1745   */\n  add\n    /* \"#utility.yul\":1722:1749   */\n  mstore\n    /* \"#utility.yul\":1617:1756   */\n  pop\n  pop\n  pop\n  jump\t// out\n    /* \"#utility.yul\":1762:2152   */\ntag_26:\n    /* \"#utility.yul\":1868:1871   */\n  0x00\n    /* \"#utility.yul\":1896:1935   */\n  tag_48\n    /* \"#utility.yul\":1929:1934   */\n  dup3\n    /* \"#utility.yul\":1896:1935   */\n  tag_23\n  jump\t// in\ntag_48:\n    /* \"#utility.yul\":1951:2040   */\n  tag_49\n    /* \"#utility.yul\":2033:2039   */\n  dup2\n    /* \"#utility.yul\":2028:2031   */\n  dup6\n    /* \"#utility.yul\":1951:2040   */\n  tag_24\n  jump\t// in\ntag_49:\n    /* \"#utility.yul\":1944:2040   */\n  swap4\n  pop\n    /* \"#utility.yul\":2049:2114   */\n  tag_50\n    /* \"#utility.yul\":2107:2113   */\n  dup2\n    /* \"#utility.yul\":2102:2105   */\n  dup6\n    /* \"#utility.yul\":2095:2099   */\n  0x20\n    /* \"#utility.yul\":2088:2093   */\n  dup7\n    /* \"#utility.yul\":2084:2100   */\n  add\n    /* \"#utility.yul\":2049:2114   */\n  tag_25\n  jump\t// in\ntag_50:\n    /* \"#utility.yul\":2139:2145   */\n  dup1\n    /* \"#utility.yul\":2134:2137   */\n  dup5\n    /* \"#utility.yul\":2130:2146   */\n  add\n    /* \"#utility.yul\":2123:2146   */\n  swap2\n  pop\n    /* \"#utility.yul\":1872:2152   */\n  pop\n    /* \"#utility.yul\":1762:2152   */\n  swap3\n  swap2\n  pop\n  pop\n  jump\t// out\n    /* \"#utility.yul\":2158:2433   */\ntag_14:\n    /* \"#utility.yul\":2290:2293   */\n  0x00\n    /* \"#utility.yul\":2312:2407   */\n  tag_52\n    /* \"#utility.yul\":2403:2406   */\n  dup3\n    /* \"#utility.yul\":2394:2400   */\n  dup5\n    /* \"#utility.yul\":2312:2407   */\n  tag_26\n  jump\t// in\ntag_52:\n    /* \"#utility.yul\":2305:2407   */\n  swap2\n  pop\n    /* \"#utility.yul\":2424:2427   */\n  dup2\n    /* \"#utility.yul\":2417:2427   */\n  swap1\n  pop\n    /* \"#utility.yul\":2158:2433   */\n  swap3\n  swap2\n  pop\n  pop\n  jump\t// out\n    /* \"contracts/core/util/MPRegister_flattened.sol\":777:3395  contract MPRegister is IRegister, IVersion { ... */\ntag_10:\n  mload(0x80)\n  codecopy(0x00, dataOffset(sub_0), dataSize(sub_0))\n  0x00\n  assignImmutable(\"0xd9670a00d025e59e1bd58d53874bea4ab34fea782716e2c168e89a3c8452d3bb\")\n  return(0x00, dataSize(sub_0))\nstop\n\nsub_0: assembly {\n        /* \"contracts/core/util/MPRegister_flattened.sol\":777:3395  contract MPRegister is IRegister, IVersion { ... */\n      mstore(0x40, 0x80)\n      callvalue\n      dup1\n      iszero\n      tag_1\n      jumpi\n      revert(0x00, 0x00)\n    tag_1:\n      pop\n      jumpi(tag_2, lt(calldatasize, 0x04))\n      shr(0xe0, calldataload(0x00))\n      dup1\n      0x5d31217c\n      gt\n      tag_10\n      jumpi\n      dup1\n      0x5d31217c\n      eq\n      tag_6\n      jumpi\n      dup1\n      0x6e09999e\n      eq\n      tag_7\n      jumpi\n      dup1\n      0xbf40fac1\n      eq\n      tag_8\n      jumpi\n      dup1\n      0xe1311ec6\n      eq\n      tag_9\n      jumpi\n      jump(tag_2)\n    tag_10:\n      dup1\n      0x0d8e6e2c\n      eq\n      tag_3\n      jumpi\n      dup1\n      0x17d7de7c\n      eq\n      tag_4\n      jumpi\n      dup1\n      0x5b1ad536\n      eq\n      tag_5\n      jumpi\n    tag_2:\n      revert(0x00, 0x00)\n        /* \"contracts/core/util/MPRegister_flattened.sol\":1868:1965  function getVersion() pure external returns (uint256 _version){ ... */\n    tag_3:\n      tag_11\n      tag_12\n      jump\t// in\n    tag_11:\n      mload(0x40)\n      tag_13\n      swap2\n      swap1\n      tag_14\n      jump\t// in\n    tag_13:\n      mload(0x40)\n      dup1\n      swap2\n      sub\n      swap1\n      return\n        /* \"contracts/core/util/MPRegister_flattened.sol\":1765:1860  function getName() pure external returns (string memory _name) { ... */\n    tag_4:\n      tag_15\n      tag_16\n      jump\t// in\n    tag_15:\n      mload(0x40)\n      tag_17\n      swap2\n      swap1\n      tag_18\n      jump\t// in\n    tag_17:\n      mload(0x40)\n      dup1\n      swap2\n      sub\n      swap1\n      return\n        /* \"contracts/core/util/MPRegister_flattened.sol\":2380:2570  function addAddress(string memory _name, address _address, uint256 _version) external adminOnly returns (bool _added){ ... */\n    tag_5:\n      tag_19\n      0x04\n      dup1\n      calldatasize\n      sub\n      dup2\n      add\n      swap1\n      tag_20\n      swap2\n      swap1\n      tag_21\n      jump\t// in\n    tag_20:\n      tag_22\n      jump\t// in\n    tag_19:\n      mload(0x40)\n      tag_23\n      swap2\n      swap1\n      tag_24\n      jump\t// in\n    tag_23:\n      mload(0x40)\n      dup1\n      swap2\n      sub\n      swap1\n      return\n        /* \"contracts/core/util/MPRegister_flattened.sol\":2578:2890  function addVersionAddress(address _address) external adminOnly returns (bool _added){ ... */\n    tag_6:\n      tag_25\n      0x04\n      dup1\n      calldatasize\n      sub\n      dup2\n      add\n      swap1\n      tag_26\n      swap2\n      swap1\n      tag_27\n      jump\t// in\n    tag_26:\n      tag_28\n      jump\t// in\n    tag_25:\n      mload(0x40)\n      tag_29\n      swap2\n      swap1\n      tag_24\n      jump\t// in\n    tag_29:\n      mload(0x40)\n      dup1\n      swap2\n      sub\n      swap1\n      return\n        /* \"contracts/core/util/MPRegister_flattened.sol\":2112:2236  function isKnown(address _address) view external returns (bool _isKnown) {... */\n    tag_7:\n      tag_30\n      0x04\n      dup1\n      calldatasize\n      sub\n      dup2\n      add\n      swap1\n      tag_31\n      swap2\n      swap1\n      tag_27\n      jump\t// in\n    tag_31:\n      tag_32\n      jump\t// in\n    tag_30:\n      mload(0x40)\n      tag_33\n      swap2\n      swap1\n      tag_24\n      jump\t// in\n    tag_33:\n      mload(0x40)\n      dup1\n      swap2\n      sub\n      swap1\n      return\n        /* \"contracts/core/util/MPRegister_flattened.sol\":2245:2372  function getAddress(string memory _name) view external returns (address _address){... */\n    tag_8:\n      tag_34\n      0x04\n      dup1\n      calldatasize\n      sub\n      dup2\n      add\n      swap1\n      tag_35\n      swap2\n      swap1\n      tag_36\n      jump\t// in\n    tag_35:\n      tag_37\n      jump\t// in\n    tag_34:\n      mload(0x40)\n      tag_38\n      swap2\n      swap1\n      tag_39\n      jump\t// in\n    tag_38:\n      mload(0x40)\n      dup1\n      swap2\n      sub\n      swap1\n      return\n        /* \"contracts/core/util/MPRegister_flattened.sol\":1973:2104  function hasAddress(string memory _name) view external returns (bool _hasAddress){... */\n    tag_9:\n      tag_40\n      0x04\n      dup1\n      calldatasize\n      sub\n      dup2\n      add\n      swap1\n      tag_41\n      swap2\n      swap1\n      tag_36\n      jump\t// in\n    tag_41:\n      tag_42\n      jump\t// in\n    tag_40:\n      mload(0x40)\n      tag_43\n      swap2\n      swap1\n      tag_24\n      jump\t// in\n    tag_43:\n      mload(0x40)\n      dup1\n      swap2\n      sub\n      swap1\n      return\n        /* \"contracts/core/util/MPRegister_flattened.sol\":1868:1965  function getVersion() pure external returns (uint256 _version){ ... */\n    tag_12:\n        /* \"contracts/core/util/MPRegister_flattened.sol\":1913:1929  uint256 _version */\n      0x00\n        /* \"contracts/core/util/MPRegister_flattened.sol\":1031:1032  1 */\n      0x01\n        /* \"contracts/core/util/MPRegister_flattened.sol\":1942:1956  return version */\n      swap1\n      pop\n        /* \"contracts/core/util/MPRegister_flattened.sol\":1868:1965  function getVersion() pure external returns (uint256 _version){ ... */\n      swap1\n      jump\t// out\n        /* \"contracts/core/util/MPRegister_flattened.sol\":1765:1860  function getName() pure external returns (string memory _name) { ... */\n    tag_16:\n        /* \"contracts/core/util/MPRegister_flattened.sol\":1807:1826  string memory _name */\n      0x60\n        /* \"contracts/core/util/MPRegister_flattened.sol\":1847:1851  name */\n      mload(0x40)\n      dup1\n      0x40\n      add\n      0x40\n      mstore\n      dup1\n      0x14\n      dup2\n      mstore\n      0x20\n      add\n      0x52455345525645445f4d505f5245474953544552000000000000000000000000\n      dup2\n      mstore\n      pop\n        /* \"contracts/core/util/MPRegister_flattened.sol\":1840:1851  return name */\n      swap1\n      pop\n        /* \"contracts/core/util/MPRegister_flattened.sol\":1765:1860  function getName() pure external returns (string memory _name) { ... */\n      swap1\n      jump\t// out\n        /* \"contracts/core/util/MPRegister_flattened.sol\":2380:2570  function addAddress(string memory _name, address _address, uint256 _version) external adminOnly returns (bool _added){ ... */\n    tag_22:\n        /* \"contracts/core/util/MPRegister_flattened.sol\":2485:2496  bool _added */\n      0x00\n        /* \"contracts/core/util/MPRegister_flattened.sol\":883:896  addressByName */\n      0x02\n        /* \"contracts/core/util/MPRegister_flattened.sol\":897:905  ADMIN_CA */\n      mload(0x40)\n      dup1\n      0x40\n      add\n      0x40\n      mstore\n      dup1\n      0x11\n      dup2\n      mstore\n      0x20\n      add\n      0x52455345525645445f4d505f41444d494e000000000000000000000000000000\n      dup2\n      mstore\n      pop\n        /* \"contracts/core/util/MPRegister_flattened.sol\":883:906  addressByName[ADMIN_CA] */\n      mload(0x40)\n      tag_47\n      swap2\n      swap1\n      tag_48\n      jump\t// in\n    tag_47:\n      swap1\n      dup2\n      mstore\n      0x20\n      add\n      mload(0x40)\n      dup1\n      swap2\n      sub\n      swap1\n      keccak256\n      0x00\n      swap1\n      sload\n      swap1\n      0x0100\n      exp\n      swap1\n      div\n      0xffffffffffffffffffffffffffffffffffffffff\n      and\n        /* \"contracts/core/util/MPRegister_flattened.sol\":869:906  msg.sender == addressByName[ADMIN_CA] */\n      0xffffffffffffffffffffffffffffffffffffffff\n      and\n        /* \"contracts/core/util/MPRegister_flattened.sol\":869:879  msg.sender */\n      caller\n        /* \"contracts/core/util/MPRegister_flattened.sol\":869:906  msg.sender == addressByName[ADMIN_CA] */\n      0xffffffffffffffffffffffffffffffffffffffff\n      and\n      eq\n        /* \"contracts/core/util/MPRegister_flattened.sol\":861:921  require(msg.sender == addressByName[ADMIN_CA], \"admin only\") */\n      tag_49\n      jumpi\n      mload(0x40)\n      0x08c379a000000000000000000000000000000000000000000000000000000000\n      dup2\n      mstore\n      0x04\n      add\n      tag_50\n      swap1\n      tag_51\n      jump\t// in\n    tag_50:\n      mload(0x40)\n      dup1\n      swap2\n      sub\n      swap1\n      revert\n    tag_49:\n        /* \"contracts/core/util/MPRegister_flattened.sol\":2516:2561  addAddressInternal(_name, _address, _version) */\n      tag_53\n        /* \"contracts/core/util/MPRegister_flattened.sol\":2535:2540  _name */\n      dup5\n        /* \"contracts/core/util/MPRegister_flattened.sol\":2542:2550  _address */\n      dup5\n        /* \"contracts/core/util/MPRegister_flattened.sol\":2552:2560  _version */\n      dup5\n        /* \"contracts/core/util/MPRegister_flattened.sol\":2516:2534  addAddressInternal */\n      tag_54\n        /* \"contracts/core/util/MPRegister_flattened.sol\":2516:2561  addAddressInternal(_name, _address, _version) */\n      jump\t// in\n    tag_53:\n        /* \"contracts/core/util/MPRegister_flattened.sol\":2509:2561  return addAddressInternal(_name, _address, _version) */\n      swap1\n      pop\n        /* \"contracts/core/util/MPRegister_flattened.sol\":2380:2570  function addAddress(string memory _name, address _address, uint256 _version) external adminOnly returns (bool _added){ ... */\n      swap4\n      swap3\n      pop\n      pop\n      pop\n      jump\t// out\n        /* \"contracts/core/util/MPRegister_flattened.sol\":2578:2890  function addVersionAddress(address _address) external adminOnly returns (bool _added){ ... */\n    tag_28:\n        /* \"contracts/core/util/MPRegister_flattened.sol\":2651:2662  bool _added */\n      0x00\n        /* \"contracts/core/util/MPRegister_flattened.sol\":883:896  addressByName */\n      0x02\n        /* \"contracts/core/util/MPRegister_flattened.sol\":897:905  ADMIN_CA */\n      mload(0x40)\n      dup1\n      0x40\n      add\n      0x40\n      mstore\n      dup1\n      0x11\n      dup2\n      mstore\n      0x20\n      add\n      0x52455345525645445f4d505f41444d494e000000000000000000000000000000\n      dup2\n      mstore\n      pop\n        /* \"contracts/core/util/MPRegister_flattened.sol\":883:906  addressByName[ADMIN_CA] */\n      mload(0x40)\n      tag_56\n      swap2\n      swap1\n      tag_48\n      jump\t// in\n    tag_56:\n      swap1\n      dup2\n      mstore\n      0x20\n      add\n      mload(0x40)\n      dup1\n      swap2\n      sub\n      swap1\n      keccak256\n      0x00\n      swap1\n      sload\n      swap1\n      0x0100\n      exp\n      swap1\n      div\n      0xffffffffffffffffffffffffffffffffffffffff\n      and\n        /* \"contracts/core/util/MPRegister_flattened.sol\":869:906  msg.sender == addressByName[ADMIN_CA] */\n      0xffffffffffffffffffffffffffffffffffffffff\n      and\n        /* \"contracts/core/util/MPRegister_flattened.sol\":869:879  msg.sender */\n      caller\n        /* \"contracts/core/util/MPRegister_flattened.sol\":869:906  msg.sender == addressByName[ADMIN_CA] */\n      0xffffffffffffffffffffffffffffffffffffffff\n      and\n      eq\n        /* \"contracts/core/util/MPRegister_flattened.sol\":861:921  require(msg.sender == addressByName[ADMIN_CA], \"admin only\") */\n      tag_57\n      jumpi\n      mload(0x40)\n      0x08c379a000000000000000000000000000000000000000000000000000000000\n      dup2\n      mstore\n      0x04\n      add\n      tag_58\n      swap1\n      tag_51\n      jump\t// in\n    tag_58:\n      mload(0x40)\n      dup1\n      swap2\n      sub\n      swap1\n      revert\n    tag_57:\n        /* \"contracts/core/util/MPRegister_flattened.sol\":2675:2692  IVersion version_ */\n      0x00\n        /* \"contracts/core/util/MPRegister_flattened.sol\":2704:2712  _address */\n      dup3\n        /* \"contracts/core/util/MPRegister_flattened.sol\":2675:2713  IVersion version_ = IVersion(_address) */\n      swap1\n      pop\n        /* \"contracts/core/util/MPRegister_flattened.sol\":2769:2777  version_ */\n      dup1\n        /* \"contracts/core/util/MPRegister_flattened.sol\":2769:2788  version_.getVersion */\n      0xffffffffffffffffffffffffffffffffffffffff\n      and\n      0x0d8e6e2c\n        /* \"contracts/core/util/MPRegister_flattened.sol\":2769:2790  version_.getVersion() */\n      mload(0x40)\n      dup2\n      0xffffffff\n      and\n      0xe0\n      shl\n      dup2\n      mstore\n      0x04\n      add\n      0x20\n      mload(0x40)\n      dup1\n      dup4\n      sub\n      dup2\n      dup7\n      gas\n      staticcall\n      iszero\n      dup1\n      iszero\n      tag_61\n      jumpi\n      returndatacopy(0x00, 0x00, returndatasize)\n      revert(0x00, returndatasize)\n    tag_61:\n      pop\n      pop\n      pop\n      pop\n      mload(0x40)\n      returndatasize\n      not(0x1f)\n      0x1f\n      dup3\n      add\n      and\n      dup3\n      add\n      dup1\n      0x40\n      mstore\n      pop\n      dup2\n      add\n      swap1\n      tag_62\n      swap2\n      swap1\n      tag_63\n      jump\t// in\n    tag_62:\n        /* \"contracts/core/util/MPRegister_flattened.sol\":2733:2746  versionByName */\n      0x04\n        /* \"contracts/core/util/MPRegister_flattened.sol\":2747:2755  version_ */\n      dup3\n        /* \"contracts/core/util/MPRegister_flattened.sol\":2747:2763  version_.getName */\n      0xffffffffffffffffffffffffffffffffffffffff\n      and\n      0x17d7de7c\n        /* \"contracts/core/util/MPRegister_flattened.sol\":2747:2765  version_.getName() */\n      mload(0x40)\n      dup2\n      0xffffffff\n      and\n      0xe0\n      shl\n      dup2\n      mstore\n      0x04\n      add\n      0x00\n      mload(0x40)\n      dup1\n      dup4\n      sub\n      dup2\n      dup7\n      gas\n      staticcall\n      iszero\n      dup1\n      iszero\n      tag_65\n      jumpi\n      returndatacopy(0x00, 0x00, returndatasize)\n      revert(0x00, returndatasize)\n    tag_65:\n      pop\n      pop\n      pop\n      pop\n      mload(0x40)\n      returndatasize\n      0x00\n      dup3\n      returndatacopy\n      returndatasize\n      not(0x1f)\n      0x1f\n      dup3\n      add\n      and\n      dup3\n      add\n      dup1\n      0x40\n      mstore\n      pop\n      dup2\n      add\n      swap1\n      tag_66\n      swap2\n      swap1\n      tag_67\n      jump\t// in\n    tag_66:\n        /* \"contracts/core/util/MPRegister_flattened.sol\":2733:2766  versionByName[version_.getName()] */\n      mload(0x40)\n      tag_68\n      swap2\n      swap1\n      tag_48\n      jump\t// in\n    tag_68:\n      swap1\n      dup2\n      mstore\n      0x20\n      add\n      mload(0x40)\n      dup1\n      swap2\n      sub\n      swap1\n      keccak256\n      sload\n        /* \"contracts/core/util/MPRegister_flattened.sol\":2733:2790  versionByName[version_.getName()] < version_.getVersion() */\n      lt\n        /* \"contracts/core/util/MPRegister_flattened.sol\":2725:2791  require(versionByName[version_.getName()] < version_.getVersion()) */\n      tag_69\n      jumpi\n      revert(0x00, 0x00)\n    tag_69:\n        /* \"contracts/core/util/MPRegister_flattened.sol\":2810:2881  addAddressInternal(version_.getName(), _address, version_.getVersion()) */\n      tag_70\n        /* \"contracts/core/util/MPRegister_flattened.sol\":2829:2837  version_ */\n      dup2\n        /* \"contracts/core/util/MPRegister_flattened.sol\":2829:2845  version_.getName */\n      0xffffffffffffffffffffffffffffffffffffffff\n      and\n      0x17d7de7c\n        /* \"contracts/core/util/MPRegister_flattened.sol\":2829:2847  version_.getName() */\n      mload(0x40)\n      dup2\n      0xffffffff\n      and\n      0xe0\n      shl\n      dup2\n      mstore\n      0x04\n      add\n      0x00\n      mload(0x40)\n      dup1\n      dup4\n      sub\n      dup2\n      dup7\n      gas\n      staticcall\n      iszero\n      dup1\n      iszero\n      tag_72\n      jumpi\n      returndatacopy(0x00, 0x00, returndatasize)\n      revert(0x00, returndatasize)\n    tag_72:\n      pop\n      pop\n      pop\n      pop\n      mload(0x40)\n      returndatasize\n      0x00\n      dup3\n      returndatacopy\n      returndatasize\n      not(0x1f)\n      0x1f\n      dup3\n      add\n      and\n      dup3\n      add\n      dup1\n      0x40\n      mstore\n      pop\n      dup2\n      add\n      swap1\n      tag_73\n      swap2\n      swap1\n      tag_67\n      jump\t// in\n    tag_73:\n        /* \"contracts/core/util/MPRegister_flattened.sol\":2849:2857  _address */\n      dup5\n        /* \"contracts/core/util/MPRegister_flattened.sol\":2859:2867  version_ */\n      dup4\n        /* \"contracts/core/util/MPRegister_flattened.sol\":2859:2878  version_.getVersion */\n      0xffffffffffffffffffffffffffffffffffffffff\n      and\n      0x0d8e6e2c\n        /* \"contracts/core/util/MPRegister_flattened.sol\":2859:2880  version_.getVersion() */\n      mload(0x40)\n      dup2\n      0xffffffff\n      and\n      0xe0\n      shl\n      dup2\n      mstore\n      0x04\n      add\n      0x20\n      mload(0x40)\n      dup1\n      dup4\n      sub\n      dup2\n      dup7\n      gas\n      staticcall\n      iszero\n      dup1\n      iszero\n      tag_75\n      jumpi\n      returndatacopy(0x00, 0x00, returndatasize)\n      revert(0x00, returndatasize)\n    tag_75:\n      pop\n      pop\n      pop\n      pop\n      mload(0x40)\n      returndatasize\n      not(0x1f)\n      0x1f\n      dup3\n      add\n      and\n      dup3\n      add\n      dup1\n      0x40\n      mstore\n      pop\n      dup2\n      add\n      swap1\n      tag_76\n      swap2\n      swap1\n      tag_63\n      jump\t// in\n    tag_76:\n        /* \"contracts/core/util/MPRegister_flattened.sol\":2810:2828  addAddressInternal */\n      tag_54\n        /* \"contracts/core/util/MPRegister_flattened.sol\":2810:2881  addAddressInternal(version_.getName(), _address, version_.getVersion()) */\n      jump\t// in\n    tag_70:\n        /* \"contracts/core/util/MPRegister_flattened.sol\":2803:2881  return addAddressInternal(version_.getName(), _address, version_.getVersion()) */\n      swap2\n      pop\n      pop\n        /* \"contracts/core/util/MPRegister_flattened.sol\":2578:2890  function addVersionAddress(address _address) external adminOnly returns (bool _added){ ... */\n      swap2\n      swap1\n      pop\n      jump\t// out\n        /* \"contracts/core/util/MPRegister_flattened.sol\":2112:2236  function isKnown(address _address) view external returns (bool _isKnown) {... */\n    tag_32:\n        /* \"contracts/core/util/MPRegister_flattened.sol\":2170:2183  bool _isKnown */\n      0x00\n        /* \"contracts/core/util/MPRegister_flattened.sol\":2203:2217  isKnownAddress */\n      0x01\n        /* \"contracts/core/util/MPRegister_flattened.sol\":2203:2227  isKnownAddress[_address] */\n      0x00\n        /* \"contracts/core/util/MPRegister_flattened.sol\":2218:2226  _address */\n      dup4\n        /* \"contracts/core/util/MPRegister_flattened.sol\":2203:2227  isKnownAddress[_address] */\n      0xffffffffffffffffffffffffffffffffffffffff\n      and\n      0xffffffffffffffffffffffffffffffffffffffff\n      and\n      dup2\n      mstore\n      0x20\n      add\n      swap1\n      dup2\n      mstore\n      0x20\n      add\n      0x00\n      keccak256\n      0x00\n      swap1\n      sload\n      swap1\n      0x0100\n      exp\n      swap1\n      div\n      0xff\n      and\n        /* \"contracts/core/util/MPRegister_flattened.sol\":2196:2227  return isKnownAddress[_address] */\n      swap1\n      pop\n        /* \"contracts/core/util/MPRegister_flattened.sol\":2112:2236  function isKnown(address _address) view external returns (bool _isKnown) {... */\n      swap2\n      swap1\n      pop\n      jump\t// out\n        /* \"contracts/core/util/MPRegister_flattened.sol\":2245:2372  function getAddress(string memory _name) view external returns (address _address){... */\n    tag_37:\n        /* \"contracts/core/util/MPRegister_flattened.sol\":2309:2325  address _address */\n      0x00\n        /* \"contracts/core/util/MPRegister_flattened.sol\":2344:2357  addressByName */\n      0x02\n        /* \"contracts/core/util/MPRegister_flattened.sol\":2358:2363  _name */\n      dup3\n        /* \"contracts/core/util/MPRegister_flattened.sol\":2344:2364  addressByName[_name] */\n      mload(0x40)\n      tag_79\n      swap2\n      swap1\n      tag_48\n      jump\t// in\n    tag_79:\n      swap1\n      dup2\n      mstore\n      0x20\n      add\n      mload(0x40)\n      dup1\n      swap2\n      sub\n      swap1\n      keccak256\n      0x00\n      swap1\n      sload\n      swap1\n      0x0100\n      exp\n      swap1\n      div\n      0xffffffffffffffffffffffffffffffffffffffff\n      and\n        /* \"contracts/core/util/MPRegister_flattened.sol\":2337:2364  return addressByName[_name] */\n      swap1\n      pop\n        /* \"contracts/core/util/MPRegister_flattened.sol\":2245:2372  function getAddress(string memory _name) view external returns (address _address){... */\n      swap2\n      swap1\n      pop\n      jump\t// out\n        /* \"contracts/core/util/MPRegister_flattened.sol\":1973:2104  function hasAddress(string memory _name) view external returns (bool _hasAddress){... */\n    tag_42:\n        /* \"contracts/core/util/MPRegister_flattened.sol\":2037:2053  bool _hasAddress */\n      0x00\n        /* \"contracts/core/util/MPRegister_flattened.sol\":2072:2088  hasAddressByName */\n      0x05\n        /* \"contracts/core/util/MPRegister_flattened.sol\":2089:2094  _name */\n      dup3\n        /* \"contracts/core/util/MPRegister_flattened.sol\":2072:2095  hasAddressByName[_name] */\n      mload(0x40)\n      tag_81\n      swap2\n      swap1\n      tag_48\n      jump\t// in\n    tag_81:\n      swap1\n      dup2\n      mstore\n      0x20\n      add\n      mload(0x40)\n      dup1\n      swap2\n      sub\n      swap1\n      keccak256\n      0x00\n      swap1\n      sload\n      swap1\n      0x0100\n      exp\n      swap1\n      div\n      0xff\n      and\n        /* \"contracts/core/util/MPRegister_flattened.sol\":2065:2095  return hasAddressByName[_name] */\n      swap1\n      pop\n        /* \"contracts/core/util/MPRegister_flattened.sol\":1973:2104  function hasAddress(string memory _name) view external returns (bool _hasAddress){... */\n      swap2\n      swap1\n      pop\n      jump\t// out\n        /* \"contracts/core/util/MPRegister_flattened.sol\":3032:3392  function addAddressInternal(string memory _name, address _address, uint256 _version) internal returns (bool _added) {... */\n    tag_54:\n        /* \"contracts/core/util/MPRegister_flattened.sol\":3135:3146  bool _added */\n      0x00\n        /* \"contracts/core/util/MPRegister_flattened.sol\":3159:3168  addresses */\n      0x00\n        /* \"contracts/core/util/MPRegister_flattened.sol\":3174:3182  _address */\n      dup4\n        /* \"contracts/core/util/MPRegister_flattened.sol\":3159:3183  addresses.push(_address) */\n      swap1\n      dup1\n      0x01\n      dup2\n      sload\n      add\n      dup1\n      dup3\n      sstore\n      dup1\n      swap2\n      pop\n      pop\n      0x01\n      swap1\n      sub\n      swap1\n      0x00\n      mstore\n      keccak256(0x00, 0x20)\n      add\n      0x00\n      swap1\n      swap2\n      swap1\n      swap2\n      swap1\n      swap2\n      0x0100\n      exp\n      dup2\n      sload\n      dup2\n      0xffffffffffffffffffffffffffffffffffffffff\n      mul\n      not\n      and\n      swap1\n      dup4\n      0xffffffffffffffffffffffffffffffffffffffff\n      and\n      mul\n      or\n      swap1\n      sstore\n      pop\n        /* \"contracts/core/util/MPRegister_flattened.sol\":3224:3228  true */\n      0x01\n        /* \"contracts/core/util/MPRegister_flattened.sol\":3194:3208  isKnownAddress */\n      dup1\n        /* \"contracts/core/util/MPRegister_flattened.sol\":3194:3218  isKnownAddress[_address] */\n      0x00\n        /* \"contracts/core/util/MPRegister_flattened.sol\":3209:3217  _address */\n      dup6\n        /* \"contracts/core/util/MPRegister_flattened.sol\":3194:3218  isKnownAddress[_address] */\n      0xffffffffffffffffffffffffffffffffffffffff\n      and\n      0xffffffffffffffffffffffffffffffffffffffff\n      and\n      dup2\n      mstore\n      0x20\n      add\n      swap1\n      dup2\n      mstore\n      0x20\n      add\n      0x00\n      keccak256\n      0x00\n        /* \"contracts/core/util/MPRegister_flattened.sol\":3194:3228  isKnownAddress[_address]    = true */\n      0x0100\n      exp\n      dup2\n      sload\n      dup2\n      0xff\n      mul\n      not\n      and\n      swap1\n      dup4\n      iszero\n      iszero\n      mul\n      or\n      swap1\n      sstore\n      pop\n        /* \"contracts/core/util/MPRegister_flattened.sol\":3240:3253  addressByName */\n      0x02\n        /* \"contracts/core/util/MPRegister_flattened.sol\":3254:3259  _name */\n      dup5\n        /* \"contracts/core/util/MPRegister_flattened.sol\":3240:3260  addressByName[_name] */\n      mload(0x40)\n      tag_84\n      swap2\n      swap1\n      tag_48\n      jump\t// in\n    tag_84:\n      swap1\n      dup2\n      mstore\n      0x20\n      add\n      mload(0x40)\n      dup1\n      swap2\n      sub\n      swap1\n      keccak256\n      0x00\n      swap1\n      sload\n      swap1\n      0x0100\n      exp\n      swap1\n      pop\n      pop\n        /* \"contracts/core/util/MPRegister_flattened.sol\":3302:3310  _version */\n      dup2\n        /* \"contracts/core/util/MPRegister_flattened.sol\":3272:3288  versionByAddress */\n      0x03\n        /* \"contracts/core/util/MPRegister_flattened.sol\":3272:3298  versionByAddress[_address] */\n      0x00\n        /* \"contracts/core/util/MPRegister_flattened.sol\":3289:3297  _address */\n      dup6\n        /* \"contracts/core/util/MPRegister_flattened.sol\":3272:3298  versionByAddress[_address] */\n      0xffffffffffffffffffffffffffffffffffffffff\n      and\n      0xffffffffffffffffffffffffffffffffffffffff\n      and\n      dup2\n      mstore\n      0x20\n      add\n      swap1\n      dup2\n      mstore\n      0x20\n      add\n      0x00\n      keccak256\n        /* \"contracts/core/util/MPRegister_flattened.sol\":3272:3310  versionByAddress[_address]  = _version */\n      dup2\n      swap1\n      sstore\n      pop\n        /* \"contracts/core/util/MPRegister_flattened.sol\":3352:3360  _version */\n      dup2\n        /* \"contracts/core/util/MPRegister_flattened.sol\":3322:3335  versionByName */\n      0x04\n        /* \"contracts/core/util/MPRegister_flattened.sol\":3336:3341  _name */\n      dup6\n        /* \"contracts/core/util/MPRegister_flattened.sol\":3322:3342  versionByName[_name] */\n      mload(0x40)\n      tag_85\n      swap2\n      swap1\n      tag_48\n      jump\t// in\n    tag_85:\n      swap1\n      dup2\n      mstore\n      0x20\n      add\n      mload(0x40)\n      dup1\n      swap2\n      sub\n      swap1\n      keccak256\n        /* \"contracts/core/util/MPRegister_flattened.sol\":3322:3360  versionByName[_name]        = _version */\n      dup2\n      swap1\n      sstore\n      pop\n        /* \"contracts/core/util/MPRegister_flattened.sol\":3379:3383  true */\n      0x01\n        /* \"contracts/core/util/MPRegister_flattened.sol\":3372:3383  return true */\n      swap1\n      pop\n        /* \"contracts/core/util/MPRegister_flattened.sol\":3032:3392  function addAddressInternal(string memory _name, address _address, uint256 _version) internal returns (bool _added) {... */\n      swap4\n      swap3\n      pop\n      pop\n      pop\n      jump\t// out\n        /* \"#utility.yul\":7:84   */\n    tag_86:\n        /* \"#utility.yul\":44:51   */\n      0x00\n        /* \"#utility.yul\":73:78   */\n      dup2\n        /* \"#utility.yul\":62:78   */\n      swap1\n      pop\n        /* \"#utility.yul\":7:84   */\n      swap2\n      swap1\n      pop\n      jump\t// out\n        /* \"#utility.yul\":90:208   */\n    tag_87:\n        /* \"#utility.yul\":177:201   */\n      tag_124\n        /* \"#utility.yul\":195:200   */\n      dup2\n        /* \"#utility.yul\":177:201   */\n      tag_86\n      jump\t// in\n    tag_124:\n        /* \"#utility.yul\":172:175   */\n      dup3\n        /* \"#utility.yul\":165:202   */\n      mstore\n        /* \"#utility.yul\":90:208   */\n      pop\n      pop\n      jump\t// out\n        /* \"#utility.yul\":214:436   */\n    tag_14:\n        /* \"#utility.yul\":307:311   */\n      0x00\n        /* \"#utility.yul\":345:347   */\n      0x20\n        /* \"#utility.yul\":334:343   */\n      dup3\n        /* \"#utility.yul\":330:348   */\n      add\n        /* \"#utility.yul\":322:348   */\n      swap1\n      pop\n        /* \"#utility.yul\":358:429   */\n      tag_126\n        /* \"#utility.yul\":426:427   */\n      0x00\n        /* \"#utility.yul\":415:424   */\n      dup4\n        /* \"#utility.yul\":411:428   */\n      add\n        /* \"#utility.yul\":402:408   */\n      dup5\n        /* \"#utility.yul\":358:429   */\n      tag_87\n      jump\t// in\n    tag_126:\n        /* \"#utility.yul\":214:436   */\n      swap3\n      swap2\n      pop\n      pop\n      jump\t// out\n        /* \"#utility.yul\":442:541   */\n    tag_88:\n        /* \"#utility.yul\":494:500   */\n      0x00\n        /* \"#utility.yul\":528:533   */\n      dup2\n        /* \"#utility.yul\":522:534   */\n      mload\n        /* \"#utility.yul\":512:534   */\n      swap1\n      pop\n        /* \"#utility.yul\":442:541   */\n      swap2\n      swap1\n      pop\n      jump\t// out\n        /* \"#utility.yul\":547:716   */\n    tag_89:\n        /* \"#utility.yul\":631:642   */\n      0x00\n        /* \"#utility.yul\":665:671   */\n      dup3\n        /* \"#utility.yul\":660:663   */\n      dup3\n        /* \"#utility.yul\":653:672   */\n      mstore\n        /* \"#utility.yul\":705:709   */\n      0x20\n        /* \"#utility.yul\":700:703   */\n      dup3\n        /* \"#utility.yul\":696:710   */\n      add\n        /* \"#utility.yul\":681:710   */\n      swap1\n      pop\n        /* \"#utility.yul\":547:716   */\n      swap3\n      swap2\n      pop\n      pop\n      jump\t// out\n        /* \"#utility.yul\":722:861   */\n    tag_90:\n        /* \"#utility.yul\":811:817   */\n      dup3\n        /* \"#utility.yul\":806:809   */\n      dup2\n        /* \"#utility.yul\":801:804   */\n      dup4\n        /* \"#utility.yul\":795:818   */\n      mcopy\n        /* \"#utility.yul\":852:853   */\n      0x00\n        /* \"#utility.yul\":843:849   */\n      dup4\n        /* \"#utility.yul\":838:841   */\n      dup4\n        /* \"#utility.yul\":834:850   */\n      add\n        /* \"#utility.yul\":827:854   */\n      mstore\n        /* \"#utility.yul\":722:861   */\n      pop\n      pop\n      pop\n      jump\t// out\n        /* \"#utility.yul\":867:969   */\n    tag_91:\n        /* \"#utility.yul\":908:914   */\n      0x00\n        /* \"#utility.yul\":959:961   */\n      0x1f\n        /* \"#utility.yul\":955:962   */\n      not\n        /* \"#utility.yul\":950:952   */\n      0x1f\n        /* \"#utility.yul\":943:948   */\n      dup4\n        /* \"#utility.yul\":939:953   */\n      add\n        /* \"#utility.yul\":935:963   */\n      and\n        /* \"#utility.yul\":925:963   */\n      swap1\n      pop\n        /* \"#utility.yul\":867:969   */\n      swap2\n      swap1\n      pop\n      jump\t// out\n        /* \"#utility.yul\":975:1352   */\n    tag_92:\n        /* \"#utility.yul\":1063:1066   */\n      0x00\n        /* \"#utility.yul\":1091:1130   */\n      tag_132\n        /* \"#utility.yul\":1124:1129   */\n      dup3\n        /* \"#utility.yul\":1091:1130   */\n      tag_88\n      jump\t// in\n    tag_132:\n        /* \"#utility.yul\":1146:1217   */\n      tag_133\n        /* \"#utility.yul\":1210:1216   */\n      dup2\n        /* \"#utility.yul\":1205:1208   */\n      dup6\n        /* \"#utility.yul\":1146:1217   */\n      tag_89\n      jump\t// in\n    tag_133:\n        /* \"#utility.yul\":1139:1217   */\n      swap4\n      pop\n        /* \"#utility.yul\":1226:1291   */\n      tag_134\n        /* \"#utility.yul\":1284:1290   */\n      dup2\n        /* \"#utility.yul\":1279:1282   */\n      dup6\n        /* \"#utility.yul\":1272:1276   */\n      0x20\n        /* \"#utility.yul\":1265:1270   */\n      dup7\n        /* \"#utility.yul\":1261:1277   */\n      add\n        /* \"#utility.yul\":1226:1291   */\n      tag_90\n      jump\t// in\n    tag_134:\n        /* \"#utility.yul\":1316:1345   */\n      tag_135\n        /* \"#utility.yul\":1338:1344   */\n      dup2\n        /* \"#utility.yul\":1316:1345   */\n      tag_91\n      jump\t// in\n    tag_135:\n        /* \"#utility.yul\":1311:1314   */\n      dup5\n        /* \"#utility.yul\":1307:1346   */\n      add\n        /* \"#utility.yul\":1300:1346   */\n      swap2\n      pop\n        /* \"#utility.yul\":1067:1352   */\n      pop\n        /* \"#utility.yul\":975:1352   */\n      swap3\n      swap2\n      pop\n      pop\n      jump\t// out\n        /* \"#utility.yul\":1358:1671   */\n    tag_18:\n        /* \"#utility.yul\":1471:1475   */\n      0x00\n        /* \"#utility.yul\":1509:1511   */\n      0x20\n        /* \"#utility.yul\":1498:1507   */\n      dup3\n        /* \"#utility.yul\":1494:1512   */\n      add\n        /* \"#utility.yul\":1486:1512   */\n      swap1\n      pop\n        /* \"#utility.yul\":1558:1567   */\n      dup2\n        /* \"#utility.yul\":1552:1556   */\n      dup2\n        /* \"#utility.yul\":1548:1568   */\n      sub\n        /* \"#utility.yul\":1544:1545   */\n      0x00\n        /* \"#utility.yul\":1533:1542   */\n      dup4\n        /* \"#utility.yul\":1529:1546   */\n      add\n        /* \"#utility.yul\":1522:1569   */\n      mstore\n        /* \"#utility.yul\":1586:1664   */\n      tag_137\n        /* \"#utility.yul\":1659:1663   */\n      dup2\n        /* \"#utility.yul\":1650:1656   */\n      dup5\n        /* \"#utility.yul\":1586:1664   */\n      tag_92\n      jump\t// in\n    tag_137:\n        /* \"#utility.yul\":1578:1664   */\n      swap1\n      pop\n        /* \"#utility.yul\":1358:1671   */\n      swap3\n      swap2\n      pop\n      pop\n      jump\t// out\n        /* \"#utility.yul\":1677:1752   */\n    tag_93:\n        /* \"#utility.yul\":1710:1716   */\n      0x00\n        /* \"#utility.yul\":1743:1745   */\n      0x40\n        /* \"#utility.yul\":1737:1746   */\n      mload\n        /* \"#utility.yul\":1727:1746   */\n      swap1\n      pop\n        /* \"#utility.yul\":1677:1752   */\n      swap1\n      jump\t// out\n        /* \"#utility.yul\":1758:1875   */\n    tag_94:\n        /* \"#utility.yul\":1867:1868   */\n      0x00\n        /* \"#utility.yul\":1864:1865   */\n      0x00\n        /* \"#utility.yul\":1857:1869   */\n      revert\n        /* \"#utility.yul\":1881:1998   */\n    tag_95:\n        /* \"#utility.yul\":1990:1991   */\n      0x00\n        /* \"#utility.yul\":1987:1988   */\n      0x00\n        /* \"#utility.yul\":1980:1992   */\n      revert\n        /* \"#utility.yul\":2004:2121   */\n    tag_96:\n        /* \"#utility.yul\":2113:2114   */\n      0x00\n        /* \"#utility.yul\":2110:2111   */\n      0x00\n        /* \"#utility.yul\":2103:2115   */\n      revert\n        /* \"#utility.yul\":2127:2244   */\n    tag_97:\n        /* \"#utility.yul\":2236:2237   */\n      0x00\n        /* \"#utility.yul\":2233:2234   */\n      0x00\n        /* \"#utility.yul\":2226:2238   */\n      revert\n        /* \"#utility.yul\":2250:2430   */\n    tag_98:\n        /* \"#utility.yul\":2298:2375   */\n      0x4e487b7100000000000000000000000000000000000000000000000000000000\n        /* \"#utility.yul\":2295:2296   */\n      0x00\n        /* \"#utility.yul\":2288:2376   */\n      mstore\n        /* \"#utility.yul\":2395:2399   */\n      0x41\n        /* \"#utility.yul\":2392:2393   */\n      0x04\n        /* \"#utility.yul\":2385:2400   */\n      mstore\n        /* \"#utility.yul\":2419:2423   */\n      0x24\n        /* \"#utility.yul\":2416:2417   */\n      0x00\n        /* \"#utility.yul\":2409:2424   */\n      revert\n        /* \"#utility.yul\":2436:2717   */\n    tag_99:\n        /* \"#utility.yul\":2519:2546   */\n      tag_145\n        /* \"#utility.yul\":2541:2545   */\n      dup3\n        /* \"#utility.yul\":2519:2546   */\n      tag_91\n      jump\t// in\n    tag_145:\n        /* \"#utility.yul\":2511:2517   */\n      dup2\n        /* \"#utility.yul\":2507:2547   */\n      add\n        /* \"#utility.yul\":2649:2655   */\n      dup2\n        /* \"#utility.yul\":2637:2647   */\n      dup2\n        /* \"#utility.yul\":2634:2656   */\n      lt\n        /* \"#utility.yul\":2613:2631   */\n      0xffffffffffffffff\n        /* \"#utility.yul\":2601:2611   */\n      dup3\n        /* \"#utility.yul\":2598:2632   */\n      gt\n        /* \"#utility.yul\":2595:2657   */\n      or\n        /* \"#utility.yul\":2592:2680   */\n      iszero\n      tag_146\n      jumpi\n        /* \"#utility.yul\":2660:2678   */\n      tag_147\n      tag_98\n      jump\t// in\n    tag_147:\n        /* \"#utility.yul\":2592:2680   */\n    tag_146:\n        /* \"#utility.yul\":2700:2710   */\n      dup1\n        /* \"#utility.yul\":2696:2698   */\n      0x40\n        /* \"#utility.yul\":2689:2711   */\n      mstore\n        /* \"#utility.yul\":2479:2717   */\n      pop\n        /* \"#utility.yul\":2436:2717   */\n      pop\n      pop\n      jump\t// out\n        /* \"#utility.yul\":2723:2852   */\n    tag_100:\n        /* \"#utility.yul\":2757:2763   */\n      0x00\n        /* \"#utility.yul\":2784:2804   */\n      tag_149\n      tag_93\n      jump\t// in\n    tag_149:\n        /* \"#utility.yul\":2774:2804   */\n      swap1\n      pop\n        /* \"#utility.yul\":2813:2846   */\n      tag_150\n        /* \"#utility.yul\":2841:2845   */\n      dup3\n        /* \"#utility.yul\":2833:2839   */\n      dup3\n        /* \"#utility.yul\":2813:2846   */\n      tag_99\n      jump\t// in\n    tag_150:\n        /* \"#utility.yul\":2723:2852   */\n      swap2\n      swap1\n      pop\n      jump\t// out\n        /* \"#utility.yul\":2858:3166   */\n    tag_101:\n        /* \"#utility.yul\":2920:2924   */\n      0x00\n        /* \"#utility.yul\":3010:3028   */\n      0xffffffffffffffff\n        /* \"#utility.yul\":3002:3008   */\n      dup3\n        /* \"#utility.yul\":2999:3029   */\n      gt\n        /* \"#utility.yul\":2996:3052   */\n      iszero\n      tag_152\n      jumpi\n        /* \"#utility.yul\":3032:3050   */\n      tag_153\n      tag_98\n      jump\t// in\n    tag_153:\n        /* \"#utility.yul\":2996:3052   */\n    tag_152:\n        /* \"#utility.yul\":3070:3099   */\n      tag_154\n        /* \"#utility.yul\":3092:3098   */\n      dup3\n        /* \"#utility.yul\":3070:3099   */\n      tag_91\n      jump\t// in\n    tag_154:\n        /* \"#utility.yul\":3062:3099   */\n      swap1\n      pop\n        /* \"#utility.yul\":3154:3158   */\n      0x20\n        /* \"#utility.yul\":3148:3152   */\n      dup2\n        /* \"#utility.yul\":3144:3159   */\n      add\n        /* \"#utility.yul\":3136:3159   */\n      swap1\n      pop\n        /* \"#utility.yul\":2858:3166   */\n      swap2\n      swap1\n      pop\n      jump\t// out\n        /* \"#utility.yul\":3172:3320   */\n    tag_102:\n        /* \"#utility.yul\":3270:3276   */\n      dup3\n        /* \"#utility.yul\":3265:3268   */\n      dup2\n        /* \"#utility.yul\":3260:3263   */\n      dup4\n        /* \"#utility.yul\":3247:3277   */\n      calldatacopy\n        /* \"#utility.yul\":3311:3312   */\n      0x00\n        /* \"#utility.yul\":3302:3308   */\n      dup4\n        /* \"#utility.yul\":3297:3300   */\n      dup4\n        /* \"#utility.yul\":3293:3309   */\n      add\n        /* \"#utility.yul\":3286:3313   */\n      mstore\n        /* \"#utility.yul\":3172:3320   */\n      pop\n      pop\n      pop\n      jump\t// out\n        /* \"#utility.yul\":3326:3751   */\n    tag_103:\n        /* \"#utility.yul\":3404:3409   */\n      0x00\n        /* \"#utility.yul\":3429:3495   */\n      tag_157\n        /* \"#utility.yul\":3445:3494   */\n      tag_158\n        /* \"#utility.yul\":3487:3493   */\n      dup5\n        /* \"#utility.yul\":3445:3494   */\n      tag_101\n      jump\t// in\n    tag_158:\n        /* \"#utility.yul\":3429:3495   */\n      tag_100\n      jump\t// in\n    tag_157:\n        /* \"#utility.yul\":3420:3495   */\n      swap1\n      pop\n        /* \"#utility.yul\":3518:3524   */\n      dup3\n        /* \"#utility.yul\":3511:3516   */\n      dup2\n        /* \"#utility.yul\":3504:3525   */\n      mstore\n        /* \"#utility.yul\":3556:3560   */\n      0x20\n        /* \"#utility.yul\":3549:3554   */\n      dup2\n        /* \"#utility.yul\":3545:3561   */\n      add\n        /* \"#utility.yul\":3594:3597   */\n      dup5\n        /* \"#utility.yul\":3585:3591   */\n      dup5\n        /* \"#utility.yul\":3580:3583   */\n      dup5\n        /* \"#utility.yul\":3576:3592   */\n      add\n        /* \"#utility.yul\":3573:3598   */\n      gt\n        /* \"#utility.yul\":3570:3682   */\n      iszero\n      tag_159\n      jumpi\n        /* \"#utility.yul\":3601:3680   */\n      tag_160\n      tag_97\n      jump\t// in\n    tag_160:\n        /* \"#utility.yul\":3570:3682   */\n    tag_159:\n        /* \"#utility.yul\":3691:3745   */\n      tag_161\n        /* \"#utility.yul\":3738:3744   */\n      dup5\n        /* \"#utility.yul\":3733:3736   */\n      dup3\n        /* \"#utility.yul\":3728:3731   */\n      dup6\n        /* \"#utility.yul\":3691:3745   */\n      tag_102\n      jump\t// in\n    tag_161:\n        /* \"#utility.yul\":3410:3751   */\n      pop\n        /* \"#utility.yul\":3326:3751   */\n      swap4\n      swap3\n      pop\n      pop\n      pop\n      jump\t// out\n        /* \"#utility.yul\":3771:4111   */\n    tag_104:\n        /* \"#utility.yul\":3827:3832   */\n      0x00\n        /* \"#utility.yul\":3876:3879   */\n      dup3\n        /* \"#utility.yul\":3869:3873   */\n      0x1f\n        /* \"#utility.yul\":3861:3867   */\n      dup4\n        /* \"#utility.yul\":3857:3874   */\n      add\n        /* \"#utility.yul\":3853:3880   */\n      slt\n        /* \"#utility.yul\":3843:3965   */\n      tag_163\n      jumpi\n        /* \"#utility.yul\":3884:3963   */\n      tag_164\n      tag_96\n      jump\t// in\n    tag_164:\n        /* \"#utility.yul\":3843:3965   */\n    tag_163:\n        /* \"#utility.yul\":4001:4007   */\n      dup2\n        /* \"#utility.yul\":3988:4008   */\n      calldataload\n        /* \"#utility.yul\":4026:4105   */\n      tag_165\n        /* \"#utility.yul\":4101:4104   */\n      dup5\n        /* \"#utility.yul\":4093:4099   */\n      dup3\n        /* \"#utility.yul\":4086:4090   */\n      0x20\n        /* \"#utility.yul\":4078:4084   */\n      dup7\n        /* \"#utility.yul\":4074:4091   */\n      add\n        /* \"#utility.yul\":4026:4105   */\n      tag_103\n      jump\t// in\n    tag_165:\n        /* \"#utility.yul\":4017:4105   */\n      swap2\n      pop\n        /* \"#utility.yul\":3833:4111   */\n      pop\n        /* \"#utility.yul\":3771:4111   */\n      swap3\n      swap2\n      pop\n      pop\n      jump\t// out\n        /* \"#utility.yul\":4117:4243   */\n    tag_105:\n        /* \"#utility.yul\":4154:4161   */\n      0x00\n        /* \"#utility.yul\":4194:4236   */\n      0xffffffffffffffffffffffffffffffffffffffff\n        /* \"#utility.yul\":4187:4192   */\n      dup3\n        /* \"#utility.yul\":4183:4237   */\n      and\n        /* \"#utility.yul\":4172:4237   */\n      swap1\n      pop\n        /* \"#utility.yul\":4117:4243   */\n      swap2\n      swap1\n      pop\n      jump\t// out\n        /* \"#utility.yul\":4249:4345   */\n    tag_106:\n        /* \"#utility.yul\":4286:4293   */\n      0x00\n        /* \"#utility.yul\":4315:4339   */\n      tag_168\n        /* \"#utility.yul\":4333:4338   */\n      dup3\n        /* \"#utility.yul\":4315:4339   */\n      tag_105\n      jump\t// in\n    tag_168:\n        /* \"#utility.yul\":4304:4339   */\n      swap1\n      pop\n        /* \"#utility.yul\":4249:4345   */\n      swap2\n      swap1\n      pop\n      jump\t// out\n        /* \"#utility.yul\":4351:4473   */\n    tag_107:\n        /* \"#utility.yul\":4424:4448   */\n      tag_170\n        /* \"#utility.yul\":4442:4447   */\n      dup2\n        /* \"#utility.yul\":4424:4448   */\n      tag_106\n      jump\t// in\n    tag_170:\n        /* \"#utility.yul\":4417:4422   */\n      dup2\n        /* \"#utility.yul\":4414:4449   */\n      eq\n        /* \"#utility.yul\":4404:4467   */\n      tag_171\n      jumpi\n        /* \"#utility.yul\":4463:4464   */\n      0x00\n        /* \"#utility.yul\":4460:4461   */\n      0x00\n        /* \"#utility.yul\":4453:4465   */\n      revert\n        /* \"#utility.yul\":4404:4467   */\n    tag_171:\n        /* \"#utility.yul\":4351:4473   */\n      pop\n      jump\t// out\n        /* \"#utility.yul\":4479:4618   */\n    tag_108:\n        /* \"#utility.yul\":4525:4530   */\n      0x00\n        /* \"#utility.yul\":4563:4569   */\n      dup2\n        /* \"#utility.yul\":4550:4570   */\n      calldataload\n        /* \"#utility.yul\":4541:4570   */\n      swap1\n      pop\n        /* \"#utility.yul\":4579:4612   */\n      tag_173\n        /* \"#utility.yul\":4606:4611   */\n      dup2\n        /* \"#utility.yul\":4579:4612   */\n      tag_107\n      jump\t// in\n    tag_173:\n        /* \"#utility.yul\":4479:4618   */\n      swap3\n      swap2\n      pop\n      pop\n      jump\t// out\n        /* \"#utility.yul\":4624:4746   */\n    tag_109:\n        /* \"#utility.yul\":4697:4721   */\n      tag_175\n        /* \"#utility.yul\":4715:4720   */\n      dup2\n        /* \"#utility.yul\":4697:4721   */\n      tag_86\n      jump\t// in\n    tag_175:\n        /* \"#utility.yul\":4690:4695   */\n      dup2\n        /* \"#utility.yul\":4687:4722   */\n      eq\n        /* \"#utility.yul\":4677:4740   */\n      tag_176\n      jumpi\n        /* \"#utility.yul\":4736:4737   */\n      0x00\n        /* \"#utility.yul\":4733:4734   */\n      0x00\n        /* \"#utility.yul\":4726:4738   */\n      revert\n        /* \"#utility.yul\":4677:4740   */\n    tag_176:\n        /* \"#utility.yul\":4624:4746   */\n      pop\n      jump\t// out\n        /* \"#utility.yul\":4752:4891   */\n    tag_110:\n        /* \"#utility.yul\":4798:4803   */\n      0x00\n        /* \"#utility.yul\":4836:4842   */\n      dup2\n        /* \"#utility.yul\":4823:4843   */\n      calldataload\n        /* \"#utility.yul\":4814:4843   */\n      swap1\n      pop\n        /* \"#utility.yul\":4852:4885   */\n      tag_178\n        /* \"#utility.yul\":4879:4884   */\n      dup2\n        /* \"#utility.yul\":4852:4885   */\n      tag_109\n      jump\t// in\n    tag_178:\n        /* \"#utility.yul\":4752:4891   */\n      swap3\n      swap2\n      pop\n      pop\n      jump\t// out\n        /* \"#utility.yul\":4897:5696   */\n    tag_21:\n        /* \"#utility.yul\":4984:4990   */\n      0x00\n        /* \"#utility.yul\":4992:4998   */\n      0x00\n        /* \"#utility.yul\":5000:5006   */\n      0x00\n        /* \"#utility.yul\":5049:5051   */\n      0x60\n        /* \"#utility.yul\":5037:5046   */\n      dup5\n        /* \"#utility.yul\":5028:5035   */\n      dup7\n        /* \"#utility.yul\":5024:5047   */\n      sub\n        /* \"#utility.yul\":5020:5052   */\n      slt\n        /* \"#utility.yul\":5017:5136   */\n      iszero\n      tag_180\n      jumpi\n        /* \"#utility.yul\":5055:5134   */\n      tag_181\n      tag_94\n      jump\t// in\n    tag_181:\n        /* \"#utility.yul\":5017:5136   */\n    tag_180:\n        /* \"#utility.yul\":5203:5204   */\n      0x00\n        /* \"#utility.yul\":5192:5201   */\n      dup5\n        /* \"#utility.yul\":5188:5205   */\n      add\n        /* \"#utility.yul\":5175:5206   */\n      calldataload\n        /* \"#utility.yul\":5233:5251   */\n      0xffffffffffffffff\n        /* \"#utility.yul\":5225:5231   */\n      dup2\n        /* \"#utility.yul\":5222:5252   */\n      gt\n        /* \"#utility.yul\":5219:5336   */\n      iszero\n      tag_182\n      jumpi\n        /* \"#utility.yul\":5255:5334   */\n      tag_183\n      tag_95\n      jump\t// in\n    tag_183:\n        /* \"#utility.yul\":5219:5336   */\n    tag_182:\n        /* \"#utility.yul\":5360:5423   */\n      tag_184\n        /* \"#utility.yul\":5415:5422   */\n      dup7\n        /* \"#utility.yul\":5406:5412   */\n      dup3\n        /* \"#utility.yul\":5395:5404   */\n      dup8\n        /* \"#utility.yul\":5391:5413   */\n      add\n        /* \"#utility.yul\":5360:5423   */\n      tag_104\n      jump\t// in\n    tag_184:\n        /* \"#utility.yul\":5350:5423   */\n      swap4\n      pop\n        /* \"#utility.yul\":5146:5433   */\n      pop\n        /* \"#utility.yul\":5472:5474   */\n      0x20\n        /* \"#utility.yul\":5498:5551   */\n      tag_185\n        /* \"#utility.yul\":5543:5550   */\n      dup7\n        /* \"#utility.yul\":5534:5540   */\n      dup3\n        /* \"#utility.yul\":5523:5532   */\n      dup8\n        /* \"#utility.yul\":5519:5541   */\n      add\n        /* \"#utility.yul\":5498:5551   */\n      tag_108\n      jump\t// in\n    tag_185:\n        /* \"#utility.yul\":5488:5551   */\n      swap3\n      pop\n        /* \"#utility.yul\":5443:5561   */\n      pop\n        /* \"#utility.yul\":5600:5602   */\n      0x40\n        /* \"#utility.yul\":5626:5679   */\n      tag_186\n        /* \"#utility.yul\":5671:5678   */\n      dup7\n        /* \"#utility.yul\":5662:5668   */\n      dup3\n        /* \"#utility.yul\":5651:5660   */\n      dup8\n        /* \"#utility.yul\":5647:5669   */\n      add\n        /* \"#utility.yul\":5626:5679   */\n      tag_110\n      jump\t// in\n    tag_186:\n        /* \"#utility.yul\":5616:5679   */\n      swap2\n      pop\n        /* \"#utility.yul\":5571:5689   */\n      pop\n        /* \"#utility.yul\":4897:5696   */\n      swap3\n      pop\n      swap3\n      pop\n      swap3\n      jump\t// out\n        /* \"#utility.yul\":5702:5792   */\n    tag_111:\n        /* \"#utility.yul\":5736:5743   */\n      0x00\n        /* \"#utility.yul\":5779:5784   */\n      dup2\n        /* \"#utility.yul\":5772:5785   */\n      iszero\n        /* \"#utility.yul\":5765:5786   */\n      iszero\n        /* \"#utility.yul\":5754:5786   */\n      swap1\n      pop\n        /* \"#utility.yul\":5702:5792   */\n      swap2\n      swap1\n      pop\n      jump\t// out\n        /* \"#utility.yul\":5798:5907   */\n    tag_112:\n        /* \"#utility.yul\":5879:5900   */\n      tag_189\n        /* \"#utility.yul\":5894:5899   */\n      dup2\n        /* \"#utility.yul\":5879:5900   */\n      tag_111\n      jump\t// in\n    tag_189:\n        /* \"#utility.yul\":5874:5877   */\n      dup3\n        /* \"#utility.yul\":5867:5901   */\n      mstore\n        /* \"#utility.yul\":5798:5907   */\n      pop\n      pop\n      jump\t// out\n        /* \"#utility.yul\":5913:6123   */\n    tag_24:\n        /* \"#utility.yul\":6000:6004   */\n      0x00\n        /* \"#utility.yul\":6038:6040   */\n      0x20\n        /* \"#utility.yul\":6027:6036   */\n      dup3\n        /* \"#utility.yul\":6023:6041   */\n      add\n        /* \"#utility.yul\":6015:6041   */\n      swap1\n      pop\n        /* \"#utility.yul\":6051:6116   */\n      tag_191\n        /* \"#utility.yul\":6113:6114   */\n      0x00\n        /* \"#utility.yul\":6102:6111   */\n      dup4\n        /* \"#utility.yul\":6098:6115   */\n      add\n        /* \"#utility.yul\":6089:6095   */\n      dup5\n        /* \"#utility.yul\":6051:6116   */\n      tag_112\n      jump\t// in\n    tag_191:\n        /* \"#utility.yul\":5913:6123   */\n      swap3\n      swap2\n      pop\n      pop\n      jump\t// out\n        /* \"#utility.yul\":6129:6458   */\n    tag_27:\n        /* \"#utility.yul\":6188:6194   */\n      0x00\n        /* \"#utility.yul\":6237:6239   */\n      0x20\n        /* \"#utility.yul\":6225:6234   */\n      dup3\n        /* \"#utility.yul\":6216:6223   */\n      dup5\n        /* \"#utility.yul\":6212:6235   */\n      sub\n        /* \"#utility.yul\":6208:6240   */\n      slt\n        /* \"#utility.yul\":6205:6324   */\n      iszero\n      tag_193\n      jumpi\n        /* \"#utility.yul\":6243:6322   */\n      tag_194\n      tag_94\n      jump\t// in\n    tag_194:\n        /* \"#utility.yul\":6205:6324   */\n    tag_193:\n        /* \"#utility.yul\":6363:6364   */\n      0x00\n        /* \"#utility.yul\":6388:6441   */\n      tag_195\n        /* \"#utility.yul\":6433:6440   */\n      dup5\n        /* \"#utility.yul\":6424:6430   */\n      dup3\n        /* \"#utility.yul\":6413:6422   */\n      dup6\n        /* \"#utility.yul\":6409:6431   */\n      add\n        /* \"#utility.yul\":6388:6441   */\n      tag_108\n      jump\t// in\n    tag_195:\n        /* \"#utility.yul\":6378:6441   */\n      swap2\n      pop\n        /* \"#utility.yul\":6334:6451   */\n      pop\n        /* \"#utility.yul\":6129:6458   */\n      swap3\n      swap2\n      pop\n      pop\n      jump\t// out\n        /* \"#utility.yul\":6464:6973   */\n    tag_36:\n        /* \"#utility.yul\":6533:6539   */\n      0x00\n        /* \"#utility.yul\":6582:6584   */\n      0x20\n        /* \"#utility.yul\":6570:6579   */\n      dup3\n        /* \"#utility.yul\":6561:6568   */\n      dup5\n        /* \"#utility.yul\":6557:6580   */\n      sub\n        /* \"#utility.yul\":6553:6585   */\n      slt\n        /* \"#utility.yul\":6550:6669   */\n      iszero\n      tag_197\n      jumpi\n        /* \"#utility.yul\":6588:6667   */\n      tag_198\n      tag_94\n      jump\t// in\n    tag_198:\n        /* \"#utility.yul\":6550:6669   */\n    tag_197:\n        /* \"#utility.yul\":6736:6737   */\n      0x00\n        /* \"#utility.yul\":6725:6734   */\n      dup3\n        /* \"#utility.yul\":6721:6738   */\n      add\n        /* \"#utility.yul\":6708:6739   */\n      calldataload\n        /* \"#utility.yul\":6766:6784   */\n      0xffffffffffffffff\n        /* \"#utility.yul\":6758:6764   */\n      dup2\n        /* \"#utility.yul\":6755:6785   */\n      gt\n        /* \"#utility.yul\":6752:6869   */\n      iszero\n      tag_199\n      jumpi\n        /* \"#utility.yul\":6788:6867   */\n      tag_200\n      tag_95\n      jump\t// in\n    tag_200:\n        /* \"#utility.yul\":6752:6869   */\n    tag_199:\n        /* \"#utility.yul\":6893:6956   */\n      tag_201\n        /* \"#utility.yul\":6948:6955   */\n      dup5\n        /* \"#utility.yul\":6939:6945   */\n      dup3\n        /* \"#utility.yul\":6928:6937   */\n      dup6\n        /* \"#utility.yul\":6924:6946   */\n      add\n        /* \"#utility.yul\":6893:6956   */\n      tag_104\n      jump\t// in\n    tag_201:\n        /* \"#utility.yul\":6883:6956   */\n      swap2\n      pop\n        /* \"#utility.yul\":6679:6966   */\n      pop\n        /* \"#utility.yul\":6464:6973   */\n      swap3\n      swap2\n      pop\n      pop\n      jump\t// out\n        /* \"#utility.yul\":6979:7097   */\n    tag_113:\n        /* \"#utility.yul\":7066:7090   */\n      tag_203\n        /* \"#utility.yul\":7084:7089   */\n      dup2\n        /* \"#utility.yul\":7066:7090   */\n      tag_106\n      jump\t// in\n    tag_203:\n        /* \"#utility.yul\":7061:7064   */\n      dup3\n        /* \"#utility.yul\":7054:7091   */\n      mstore\n        /* \"#utility.yul\":6979:7097   */\n      pop\n      pop\n      jump\t// out\n        /* \"#utility.yul\":7103:7325   */\n    tag_39:\n        /* \"#utility.yul\":7196:7200   */\n      0x00\n        /* \"#utility.yul\":7234:7236   */\n      0x20\n        /* \"#utility.yul\":7223:7232   */\n      dup3\n        /* \"#utility.yul\":7219:7237   */\n      add\n        /* \"#utility.yul\":7211:7237   */\n      swap1\n      pop\n        /* \"#utility.yul\":7247:7318   */\n      tag_205\n        /* \"#utility.yul\":7315:7316   */\n      0x00\n        /* \"#utility.yul\":7304:7313   */\n      dup4\n        /* \"#utility.yul\":7300:7317   */\n      add\n        /* \"#utility.yul\":7291:7297   */\n      dup5\n        /* \"#utility.yul\":7247:7318   */\n      tag_113\n      jump\t// in\n    tag_205:\n        /* \"#utility.yul\":7103:7325   */\n      swap3\n      swap2\n      pop\n      pop\n      jump\t// out\n        /* \"#utility.yul\":7331:7479   */\n    tag_114:\n        /* \"#utility.yul\":7433:7444   */\n      0x00\n        /* \"#utility.yul\":7470:7473   */\n      dup2\n        /* \"#utility.yul\":7455:7473   */\n      swap1\n      pop\n        /* \"#utility.yul\":7331:7479   */\n      swap3\n      swap2\n      pop\n      pop\n      jump\t// out\n        /* \"#utility.yul\":7485:7875   */\n    tag_115:\n        /* \"#utility.yul\":7591:7594   */\n      0x00\n        /* \"#utility.yul\":7619:7658   */\n      tag_208\n        /* \"#utility.yul\":7652:7657   */\n      dup3\n        /* \"#utility.yul\":7619:7658   */\n      tag_88\n      jump\t// in\n    tag_208:\n        /* \"#utility.yul\":7674:7763   */\n      tag_209\n        /* \"#utility.yul\":7756:7762   */\n      dup2\n        /* \"#utility.yul\":7751:7754   */\n      dup6\n        /* \"#utility.yul\":7674:7763   */\n      tag_114\n      jump\t// in\n    tag_209:\n        /* \"#utility.yul\":7667:7763   */\n      swap4\n      pop\n        /* \"#utility.yul\":7772:7837   */\n      tag_210\n        /* \"#utility.yul\":7830:7836   */\n      dup2\n        /* \"#utility.yul\":7825:7828   */\n      dup6\n        /* \"#utility.yul\":7818:7822   */\n      0x20\n        /* \"#utility.yul\":7811:7816   */\n      dup7\n        /* \"#utility.yul\":7807:7823   */\n      add\n        /* \"#utility.yul\":7772:7837   */\n      tag_90\n      jump\t// in\n    tag_210:\n        /* \"#utility.yul\":7862:7868   */\n      dup1\n        /* \"#utility.yul\":7857:7860   */\n      dup5\n        /* \"#utility.yul\":7853:7869   */\n      add\n        /* \"#utility.yul\":7846:7869   */\n      swap2\n      pop\n        /* \"#utility.yul\":7595:7875   */\n      pop\n        /* \"#utility.yul\":7485:7875   */\n      swap3\n      swap2\n      pop\n      pop\n      jump\t// out\n        /* \"#utility.yul\":7881:8156   */\n    tag_48:\n        /* \"#utility.yul\":8013:8016   */\n      0x00\n        /* \"#utility.yul\":8035:8130   */\n      tag_212\n        /* \"#utility.yul\":8126:8129   */\n      dup3\n        /* \"#utility.yul\":8117:8123   */\n      dup5\n        /* \"#utility.yul\":8035:8130   */\n      tag_115\n      jump\t// in\n    tag_212:\n        /* \"#utility.yul\":8028:8130   */\n      swap2\n      pop\n        /* \"#utility.yul\":8147:8150   */\n      dup2\n        /* \"#utility.yul\":8140:8150   */\n      swap1\n      pop\n        /* \"#utility.yul\":7881:8156   */\n      swap3\n      swap2\n      pop\n      pop\n      jump\t// out\n        /* \"#utility.yul\":8162:8322   */\n    tag_116:\n        /* \"#utility.yul\":8302:8314   */\n      0x61646d696e206f6e6c7900000000000000000000000000000000000000000000\n        /* \"#utility.yul\":8298:8299   */\n      0x00\n        /* \"#utility.yul\":8290:8296   */\n      dup3\n        /* \"#utility.yul\":8286:8300   */\n      add\n        /* \"#utility.yul\":8279:8315   */\n      mstore\n        /* \"#utility.yul\":8162:8322   */\n      pop\n      jump\t// out\n        /* \"#utility.yul\":8328:8694   */\n    tag_117:\n        /* \"#utility.yul\":8470:8473   */\n      0x00\n        /* \"#utility.yul\":8491:8558   */\n      tag_215\n        /* \"#utility.yul\":8555:8557   */\n      0x0a\n        /* \"#utility.yul\":8550:8553   */\n      dup4\n        /* \"#utility.yul\":8491:8558   */\n      tag_89\n      jump\t// in\n    tag_215:\n        /* \"#utility.yul\":8484:8558   */\n      swap2\n      pop\n        /* \"#utility.yul\":8567:8660   */\n      tag_216\n        /* \"#utility.yul\":8656:8659   */\n      dup3\n        /* \"#utility.yul\":8567:8660   */\n      tag_116\n      jump\t// in\n    tag_216:\n        /* \"#utility.yul\":8685:8687   */\n      0x20\n        /* \"#utility.yul\":8680:8683   */\n      dup3\n        /* \"#utility.yul\":8676:8688   */\n      add\n        /* \"#utility.yul\":8669:8688   */\n      swap1\n      pop\n        /* \"#utility.yul\":8328:8694   */\n      swap2\n      swap1\n      pop\n      jump\t// out\n        /* \"#utility.yul\":8700:9119   */\n    tag_51:\n        /* \"#utility.yul\":8866:8870   */\n      0x00\n        /* \"#utility.yul\":8904:8906   */\n      0x20\n        /* \"#utility.yul\":8893:8902   */\n      dup3\n        /* \"#utility.yul\":8889:8907   */\n      add\n        /* \"#utility.yul\":8881:8907   */\n      swap1\n      pop\n        /* \"#utility.yul\":8953:8962   */\n      dup2\n        /* \"#utility.yul\":8947:8951   */\n      dup2\n        /* \"#utility.yul\":8943:8963   */\n      sub\n        /* \"#utility.yul\":8939:8940   */\n      0x00\n        /* \"#utility.yul\":8928:8937   */\n      dup4\n        /* \"#utility.yul\":8924:8941   */\n      add\n        /* \"#utility.yul\":8917:8964   */\n      mstore\n        /* \"#utility.yul\":8981:9112   */\n      tag_218\n        /* \"#utility.yul\":9107:9111   */\n      dup2\n        /* \"#utility.yul\":8981:9112   */\n      tag_117\n      jump\t// in\n    tag_218:\n        /* \"#utility.yul\":8973:9112   */\n      swap1\n      pop\n        /* \"#utility.yul\":8700:9119   */\n      swap2\n      swap1\n      pop\n      jump\t// out\n        /* \"#utility.yul\":9125:9268   */\n    tag_118:\n        /* \"#utility.yul\":9182:9187   */\n      0x00\n        /* \"#utility.yul\":9213:9219   */\n      dup2\n        /* \"#utility.yul\":9207:9220   */\n      mload\n        /* \"#utility.yul\":9198:9220   */\n      swap1\n      pop\n        /* \"#utility.yul\":9229:9262   */\n      tag_220\n        /* \"#utility.yul\":9256:9261   */\n      dup2\n        /* \"#utility.yul\":9229:9262   */\n      tag_109\n      jump\t// in\n    tag_220:\n        /* \"#utility.yul\":9125:9268   */\n      swap3\n      swap2\n      pop\n      pop\n      jump\t// out\n        /* \"#utility.yul\":9274:9625   */\n    tag_63:\n        /* \"#utility.yul\":9344:9350   */\n      0x00\n        /* \"#utility.yul\":9393:9395   */\n      0x20\n        /* \"#utility.yul\":9381:9390   */\n      dup3\n        /* \"#utility.yul\":9372:9379   */\n      dup5\n        /* \"#utility.yul\":9368:9391   */\n      sub\n        /* \"#utility.yul\":9364:9396   */\n      slt\n        /* \"#utility.yul\":9361:9480   */\n      iszero\n      tag_222\n      jumpi\n        /* \"#utility.yul\":9399:9478   */\n      tag_223\n      tag_94\n      jump\t// in\n    tag_223:\n        /* \"#utility.yul\":9361:9480   */\n    tag_222:\n        /* \"#utility.yul\":9519:9520   */\n      0x00\n        /* \"#utility.yul\":9544:9608   */\n      tag_224\n        /* \"#utility.yul\":9600:9607   */\n      dup5\n        /* \"#utility.yul\":9591:9597   */\n      dup3\n        /* \"#utility.yul\":9580:9589   */\n      dup6\n        /* \"#utility.yul\":9576:9598   */\n      add\n        /* \"#utility.yul\":9544:9608   */\n      tag_118\n      jump\t// in\n    tag_224:\n        /* \"#utility.yul\":9534:9608   */\n      swap2\n      pop\n        /* \"#utility.yul\":9490:9618   */\n      pop\n        /* \"#utility.yul\":9274:9625   */\n      swap3\n      swap2\n      pop\n      pop\n      jump\t// out\n        /* \"#utility.yul\":9631:10065   */\n    tag_119:\n        /* \"#utility.yul\":9720:9725   */\n      0x00\n        /* \"#utility.yul\":9745:9811   */\n      tag_226\n        /* \"#utility.yul\":9761:9810   */\n      tag_227\n        /* \"#utility.yul\":9803:9809   */\n      dup5\n        /* \"#utility.yul\":9761:9810   */\n      tag_101\n      jump\t// in\n    tag_227:\n        /* \"#utility.yul\":9745:9811   */\n      tag_100\n      jump\t// in\n    tag_226:\n        /* \"#utility.yul\":9736:9811   */\n      swap1\n      pop\n        /* \"#utility.yul\":9834:9840   */\n      dup3\n        /* \"#utility.yul\":9827:9832   */\n      dup2\n        /* \"#utility.yul\":9820:9841   */\n      mstore\n        /* \"#utility.yul\":9872:9876   */\n      0x20\n        /* \"#utility.yul\":9865:9870   */\n      dup2\n        /* \"#utility.yul\":9861:9877   */\n      add\n        /* \"#utility.yul\":9910:9913   */\n      dup5\n        /* \"#utility.yul\":9901:9907   */\n      dup5\n        /* \"#utility.yul\":9896:9899   */\n      dup5\n        /* \"#utility.yul\":9892:9908   */\n      add\n        /* \"#utility.yul\":9889:9914   */\n      gt\n        /* \"#utility.yul\":9886:9998   */\n      iszero\n      tag_228\n      jumpi\n        /* \"#utility.yul\":9917:9996   */\n      tag_229\n      tag_97\n      jump\t// in\n    tag_229:\n        /* \"#utility.yul\":9886:9998   */\n    tag_228:\n        /* \"#utility.yul\":10007:10059   */\n      tag_230\n        /* \"#utility.yul\":10052:10058   */\n      dup5\n        /* \"#utility.yul\":10047:10050   */\n      dup3\n        /* \"#utility.yul\":10042:10045   */\n      dup6\n        /* \"#utility.yul\":10007:10059   */\n      tag_90\n      jump\t// in\n    tag_230:\n        /* \"#utility.yul\":9726:10065   */\n      pop\n        /* \"#utility.yul\":9631:10065   */\n      swap4\n      swap3\n      pop\n      pop\n      pop\n      jump\t// out\n        /* \"#utility.yul\":10085:10440   */\n    tag_120:\n        /* \"#utility.yul\":10152:10157   */\n      0x00\n        /* \"#utility.yul\":10201:10204   */\n      dup3\n        /* \"#utility.yul\":10194:10198   */\n      0x1f\n        /* \"#utility.yul\":10186:10192   */\n      dup4\n        /* \"#utility.yul\":10182:10199   */\n      add\n        /* \"#utility.yul\":10178:10205   */\n      slt\n        /* \"#utility.yul\":10168:10290   */\n      tag_232\n      jumpi\n        /* \"#utility.yul\":10209:10288   */\n      tag_233\n      tag_96\n      jump\t// in\n    tag_233:\n        /* \"#utility.yul\":10168:10290   */\n    tag_232:\n        /* \"#utility.yul\":10319:10325   */\n      dup2\n        /* \"#utility.yul\":10313:10326   */\n      mload\n        /* \"#utility.yul\":10344:10434   */\n      tag_234\n        /* \"#utility.yul\":10430:10433   */\n      dup5\n        /* \"#utility.yul\":10422:10428   */\n      dup3\n        /* \"#utility.yul\":10415:10419   */\n      0x20\n        /* \"#utility.yul\":10407:10413   */\n      dup7\n        /* \"#utility.yul\":10403:10420   */\n      add\n        /* \"#utility.yul\":10344:10434   */\n      tag_119\n      jump\t// in\n    tag_234:\n        /* \"#utility.yul\":10335:10434   */\n      swap2\n      pop\n        /* \"#utility.yul\":10158:10440   */\n      pop\n        /* \"#utility.yul\":10085:10440   */\n      swap3\n      swap2\n      pop\n      pop\n      jump\t// out\n        /* \"#utility.yul\":10446:10970   */\n    tag_67:\n        /* \"#utility.yul\":10526:10532   */\n      0x00\n        /* \"#utility.yul\":10575:10577   */\n      0x20\n        /* \"#utility.yul\":10563:10572   */\n      dup3\n        /* \"#utility.yul\":10554:10561   */\n      dup5\n        /* \"#utility.yul\":10550:10573   */\n      sub\n        /* \"#utility.yul\":10546:10578   */\n      slt\n        /* \"#utility.yul\":10543:10662   */\n      iszero\n      tag_236\n      jumpi\n        /* \"#utility.yul\":10581:10660   */\n      tag_237\n      tag_94\n      jump\t// in\n    tag_237:\n        /* \"#utility.yul\":10543:10662   */\n    tag_236:\n        /* \"#utility.yul\":10722:10723   */\n      0x00\n        /* \"#utility.yul\":10711:10720   */\n      dup3\n        /* \"#utility.yul\":10707:10724   */\n      add\n        /* \"#utility.yul\":10701:10725   */\n      mload\n        /* \"#utility.yul\":10752:10770   */\n      0xffffffffffffffff\n        /* \"#utility.yul\":10744:10750   */\n      dup2\n        /* \"#utility.yul\":10741:10771   */\n      gt\n        /* \"#utility.yul\":10738:10855   */\n      iszero\n      tag_238\n      jumpi\n        /* \"#utility.yul\":10774:10853   */\n      tag_239\n      tag_95\n      jump\t// in\n    tag_239:\n        /* \"#utility.yul\":10738:10855   */\n    tag_238:\n        /* \"#utility.yul\":10879:10953   */\n      tag_240\n        /* \"#utility.yul\":10945:10952   */\n      dup5\n        /* \"#utility.yul\":10936:10942   */\n      dup3\n        /* \"#utility.yul\":10925:10934   */\n      dup6\n        /* \"#utility.yul\":10921:10943   */\n      add\n        /* \"#utility.yul\":10879:10953   */\n      tag_120\n      jump\t// in\n    tag_240:\n        /* \"#utility.yul\":10869:10953   */\n      swap2\n      pop\n        /* \"#utility.yul\":10672:10963   */\n      pop\n        /* \"#utility.yul\":10446:10970   */\n      swap3\n      swap2\n      pop\n      pop\n      jump\t// out\n\n    auxdata: 0xa264697066735822122087525deb44fb73c01d187c6d72d76a3fe96674109595f72f9f886903c2c2dd8664736f6c634300081e0033\n}\n",
				"bytecode": {
					"linkReferences": {},
					"object": "60a060405234801561000f575f5ffd5b50604051611118380380611118833981810160405281019061003191906102ec565b6100776040518060400160405280601181526020017f52455345525645445f4d505f41444d494e000000000000000000000000000000815250835f61014160201b60201c565b506100be6040518060400160405280601081526020017f52455345525645445f4d505f42414e4b00000000000000000000000000000000815250835f61014160201b60201c565b506101056040518060400160405280601581526020017f52455345525645445f4d505f4645455f544f4b454e0000000000000000000000815250825f61014160201b60201c565b503073ffffffffffffffffffffffffffffffffffffffff1660808173ffffffffffffffffffffffffffffffffffffffff16815250505050610392565b5f5f83908060018154018082558091505060019003905f5260205f20015f9091909190916101000a81548173ffffffffffffffffffffffffffffffffffffffff021916908373ffffffffffffffffffffffffffffffffffffffff1602179055506001805f8573ffffffffffffffffffffffffffffffffffffffff1673ffffffffffffffffffffffffffffffffffffffff1681526020019081526020015f205f6101000a81548160ff021916908315150217905550600284604051610205919061037c565b90815260200160405180910390205f9054906101000a9050508160035f8573ffffffffffffffffffffffffffffffffffffffff1673ffffffffffffffffffffffffffffffffffffffff1681526020019081526020015f208190555081600485604051610271919061037c565b908152602001604051809103902081905550600190509392505050565b5f5ffd5b5f73ffffffffffffffffffffffffffffffffffffffff82169050919050565b5f6102bb82610292565b9050919050565b6102cb816102b1565b81146102d5575f5ffd5b50565b5f815190506102e6816102c2565b92915050565b5f5f604083850312156103025761030161028e565b5b5f61030f858286016102d8565b9250506020610320858286016102d8565b9150509250929050565b5f81519050919050565b5f81905092915050565b8281835e5f83830152505050565b5f6103568261032a565b6103608185610334565b935061037081856020860161033e565b80840191505092915050565b5f610387828461034c565b915081905092915050565b608051610d716103a75f395f5050610d715ff3fe608060405234801561000f575f5ffd5b506004361061007b575f3560e01c80635d31217c116100595780635d31217c146100eb5780636e09999e1461011b578063bf40fac11461014b578063e1311ec61461017b5761007b565b80630d8e6e2c1461007f57806317d7de7c1461009d5780635b1ad536146100bb575b5f5ffd5b6100876101ab565b60405161009491906107ec565b60405180910390f35b6100a56101b3565b6040516100b29190610875565b60405180910390f35b6100d560048036038101906100d09190610a56565b6101f0565b6040516100e29190610adc565b60405180910390f35b61010560048036038101906101009190610af5565b6102e5565b6040516101129190610adc565b60405180910390f35b61013560048036038101906101309190610af5565b6105bc565b6040516101429190610adc565b60405180910390f35b61016560048036038101906101609190610b20565b61060e565b6040516101729190610b76565b60405180910390f35b61019560048036038101906101909190610b20565b610654565b6040516101a29190610adc565b60405180910390f35b5f6001905090565b60606040518060400160405280601481526020017f52455345525645445f4d505f5245474953544552000000000000000000000000815250905090565b5f60026040518060400160405280601181526020017f52455345525645445f4d505f41444d494e0000000000000000000000000000008152506040516102369190610bc9565b90815260200160405180910390205f9054906101000a900473ffffffffffffffffffffffffffffffffffffffff1673ffffffffffffffffffffffffffffffffffffffff163373ffffffffffffffffffffffffffffffffffffffff16146102d1576040517f08c379a00000000000000000000000000000000000000000000000000000000081526004016102c890610c29565b60405180910390fd5b6102dc848484610687565b90509392505050565b5f60026040518060400160405280601181526020017f52455345525645445f4d505f41444d494e00000000000000000000000000000081525060405161032b9190610bc9565b90815260200160405180910390205f9054906101000a900473ffffffffffffffffffffffffffffffffffffffff1673ffffffffffffffffffffffffffffffffffffffff163373ffffffffffffffffffffffffffffffffffffffff16146103c6576040517f08c379a00000000000000000000000000000000000000000000000000000000081526004016103bd90610c29565b60405180910390fd5b5f8290508073ffffffffffffffffffffffffffffffffffffffff16630d8e6e2c6040518163ffffffff1660e01b8152600401602060405180830381865afa158015610413573d5f5f3e3d5ffd5b505050506040513d601f19601f820116820180604052508101906104379190610c5b565b60048273ffffffffffffffffffffffffffffffffffffffff166317d7de7c6040518163ffffffff1660e01b81526004015f60405180830381865afa158015610481573d5f5f3e3d5ffd5b505050506040513d5f823e3d601f19601f820116820180604052508101906104a99190610cf4565b6040516104b69190610bc9565b908152602001604051809103902054106104ce575f5ffd5b6105b48173ffffffffffffffffffffffffffffffffffffffff166317d7de7c6040518163ffffffff1660e01b81526004015f60405180830381865afa158015610519573d5f5f3e3d5ffd5b505050506040513d5f823e3d601f19601f820116820180604052508101906105419190610cf4565b848373ffffffffffffffffffffffffffffffffffffffff16630d8e6e2c6040518163ffffffff1660e01b8152600401602060405180830381865afa15801561058b573d5f5f3e3d5ffd5b505050506040513d601f19601f820116820180604052508101906105af9190610c5b565b610687565b915050919050565b5f60015f8373ffffffffffffffffffffffffffffffffffffffff1673ffffffffffffffffffffffffffffffffffffffff1681526020019081526020015f205f9054906101000a900460ff169050919050565b5f60028260405161061f9190610bc9565b90815260200160405180910390205f9054906101000a900473ffffffffffffffffffffffffffffffffffffffff169050919050565b5f6005826040516106659190610bc9565b90815260200160405180910390205f9054906101000a900460ff169050919050565b5f5f83908060018154018082558091505060019003905f5260205f20015f9091909190916101000a81548173ffffffffffffffffffffffffffffffffffffffff021916908373ffffffffffffffffffffffffffffffffffffffff1602179055506001805f8573ffffffffffffffffffffffffffffffffffffffff1673ffffffffffffffffffffffffffffffffffffffff1681526020019081526020015f205f6101000a81548160ff02191690831515021790555060028460405161074b9190610bc9565b90815260200160405180910390205f9054906101000a9050508160035f8573ffffffffffffffffffffffffffffffffffffffff1673ffffffffffffffffffffffffffffffffffffffff1681526020019081526020015f2081905550816004856040516107b79190610bc9565b908152602001604051809103902081905550600190509392505050565b5f819050919050565b6107e6816107d4565b82525050565b5f6020820190506107ff5f8301846107dd565b92915050565b5f81519050919050565b5f82825260208201905092915050565b8281835e5f83830152505050565b5f601f19601f8301169050919050565b5f61084782610805565b610851818561080f565b935061086181856020860161081f565b61086a8161082d565b840191505092915050565b5f6020820190508181035f83015261088d818461083d565b905092915050565b5f604051905090565b5f5ffd5b5f5ffd5b5f5ffd5b5f5ffd5b7f4e487b71000000000000000000000000000000000000000000000000000000005f52604160045260245ffd5b6108e48261082d565b810181811067ffffffffffffffff82111715610903576109026108ae565b5b80604052505050565b5f610915610895565b905061092182826108db565b919050565b5f67ffffffffffffffff8211156109405761093f6108ae565b5b6109498261082d565b9050602081019050919050565b828183375f83830152505050565b5f61097661097184610926565b61090c565b905082815260208101848484011115610992576109916108aa565b5b61099d848285610956565b509392505050565b5f82601f8301126109b9576109b86108a6565b5b81356109c9848260208601610964565b91505092915050565b5f73ffffffffffffffffffffffffffffffffffffffff82169050919050565b5f6109fb826109d2565b9050919050565b610a0b816109f1565b8114610a15575f5ffd5b50565b5f81359050610a2681610a02565b92915050565b610a35816107d4565b8114610a3f575f5ffd5b50565b5f81359050610a5081610a2c565b92915050565b5f5f5f60608486031215610a6d57610a6c61089e565b5b5f84013567ffffffffffffffff811115610a8a57610a896108a2565b5b610a96868287016109a5565b9350506020610aa786828701610a18565b9250506040610ab886828701610a42565b9150509250925092565b5f8115159050919050565b610ad681610ac2565b82525050565b5f602082019050610aef5f830184610acd565b92915050565b5f60208284031215610b0a57610b0961089e565b5b5f610b1784828501610a18565b91505092915050565b5f60208284031215610b3557610b3461089e565b5b5f82013567ffffffffffffffff811115610b5257610b516108a2565b5b610b5e848285016109a5565b91505092915050565b610b70816109f1565b82525050565b5f602082019050610b895f830184610b67565b92915050565b5f81905092915050565b5f610ba382610805565b610bad8185610b8f565b9350610bbd81856020860161081f565b80840191505092915050565b5f610bd48284610b99565b915081905092915050565b7f61646d696e206f6e6c79000000000000000000000000000000000000000000005f82015250565b5f610c13600a8361080f565b9150610c1e82610bdf565b602082019050919050565b5f6020820190508181035f830152610c4081610c07565b9050919050565b5f81519050610c5581610a2c565b92915050565b5f60208284031215610c7057610c6f61089e565b5b5f610c7d84828501610c47565b91505092915050565b5f610c98610c9384610926565b61090c565b905082815260208101848484011115610cb457610cb36108aa565b5b610cbf84828561081f565b509392505050565b5f82601f830112610cdb57610cda6108a6565b5b8151610ceb848260208601610c86565b91505092915050565b5f60208284031215610d0957610d0861089e565b5b5f82015167ffffffffffffffff811115610d2657610d256108a2565b5b610d3284828501610cc7565b9150509291505056fea264697066735822122087525deb44fb73c01d187c6d72d76a3fe96674109595f72f9f886903c2c2dd8664736f6c634300081e0033",
					"opcodes": "PUSH1 0xA0 PUSH1 0x40 MSTORE CALLVALUE DUP1 ISZERO PUSH2 0xF JUMPI PUSH0 PUSH0 REVERT JUMPDEST POP PUSH1 0x40 MLOAD PUSH2 0x1118 CODESIZE SUB DUP1 PUSH2 0x1118 DUP4 CODECOPY DUP2 DUP2 ADD PUSH1 0x40 MSTORE DUP2 ADD SWAP1 PUSH2 0x31 SWAP2 SWAP1 PUSH2 0x2EC JUMP JUMPDEST PUSH2 0x77 PUSH1 0x40 MLOAD DUP1 PUSH1 0x40 ADD PUSH1 0x40 MSTORE DUP1 PUSH1 0x11 DUP2 MSTORE PUSH1 0x20 ADD PUSH32 0x52455345525645445F4D505F41444D494E000000000000000000000000000000 DUP2 MSTORE POP DUP4 PUSH0 PUSH2 0x141 PUSH1 0x20 SHL PUSH1 0x20 SHR JUMP JUMPDEST POP PUSH2 0xBE PUSH1 0x40 MLOAD DUP1 PUSH1 0x40 ADD PUSH1 0x40 MSTORE DUP1 PUSH1 0x10 DUP2 MSTORE PUSH1 0x20 ADD PUSH32 0x52455345525645445F4D505F42414E4B00000000000000000000000000000000 DUP2 MSTORE POP DUP4 PUSH0 PUSH2 0x141 PUSH1 0x20 SHL PUSH1 0x20 SHR JUMP JUMPDEST POP PUSH2 0x105 PUSH1 0x40 MLOAD DUP1 PUSH1 0x40 ADD PUSH1 0x40 MSTORE DUP1 PUSH1 0x15 DUP2 MSTORE PUSH1 0x20 ADD PUSH32 0x52455345525645445F4D505F4645455F544F4B454E0000000000000000000000 DUP2 MSTORE POP DUP3 PUSH0 PUSH2 0x141 PUSH1 0x20 SHL PUSH1 0x20 SHR JUMP JUMPDEST POP ADDRESS PUSH20 0xFFFFFFFFFFFFFFFFFFFFFFFFFFFFFFFFFFFFFFFF AND PUSH1 0x80 DUP2 PUSH20 0xFFFFFFFFFFFFFFFFFFFFFFFFFFFFFFFFFFFFFFFF AND DUP2 MSTORE POP POP POP POP PUSH2 0x392 JUMP JUMPDEST PUSH0 PUSH0 DUP4 SWAP1 DUP1 PUSH1 0x1 DUP2 SLOAD ADD DUP1 DUP3 SSTORE DUP1 SWAP2 POP POP PUSH1 0x1 SWAP1 SUB SWAP1 PUSH0 MSTORE PUSH1 0x20 PUSH0 KECCAK256 ADD PUSH0 SWAP1 SWAP2 SWAP1 SWAP2 SWAP1 SWAP2 PUSH2 0x100 EXP DUP2 SLOAD DUP2 PUSH20 0xFFFFFFFFFFFFFFFFFFFFFFFFFFFFFFFFFFFFFFFF MUL NOT AND SWAP1 DUP4 PUSH20 0xFFFFFFFFFFFFFFFFFFFFFFFFFFFFFFFFFFFFFFFF AND MUL OR SWAP1 SSTORE POP PUSH1 0x1 DUP1 PUSH0 DUP6 PUSH20 0xFFFFFFFFFFFFFFFFFFFFFFFFFFFFFFFFFFFFFFFF AND PUSH20 0xFFFFFFFFFFFFFFFFFFFFFFFFFFFFFFFFFFFFFFFF AND DUP2 MSTORE PUSH1 0x20 ADD SWAP1 DUP2 MSTORE PUSH1 0x20 ADD PUSH0 KECCAK256 PUSH0 PUSH2 0x100 EXP DUP2 SLOAD DUP2 PUSH1 0xFF MUL NOT AND SWAP1 DUP4 ISZERO ISZERO MUL OR SWAP1 SSTORE POP PUSH1 0x2 DUP5 PUSH1 0x40 MLOAD PUSH2 0x205 SWAP2 SWAP1 PUSH2 0x37C JUMP JUMPDEST SWAP1 DUP2 MSTORE PUSH1 0x20 ADD PUSH1 0x40 MLOAD DUP1 SWAP2 SUB SWAP1 KECCAK256 PUSH0 SWAP1 SLOAD SWAP1 PUSH2 0x100 EXP SWAP1 POP POP DUP2 PUSH1 0x3 PUSH0 DUP6 PUSH20 0xFFFFFFFFFFFFFFFFFFFFFFFFFFFFFFFFFFFFFFFF AND PUSH20 0xFFFFFFFFFFFFFFFFFFFFFFFFFFFFFFFFFFFFFFFF AND DUP2 MSTORE PUSH1 0x20 ADD SWAP1 DUP2 MSTORE PUSH1 0x20 ADD PUSH0 KECCAK256 DUP2 SWAP1 SSTORE POP DUP2 PUSH1 0x4 DUP6 PUSH1 0x40 MLOAD PUSH2 0x271 SWAP2 SWAP1 PUSH2 0x37C JUMP JUMPDEST SWAP1 DUP2 MSTORE PUSH1 0x20 ADD PUSH1 0x40 MLOAD DUP1 SWAP2 SUB SWAP1 KECCAK256 DUP2 SWAP1 SSTORE POP PUSH1 0x1 SWAP1 POP SWAP4 SWAP3 POP POP POP JUMP JUMPDEST PUSH0 PUSH0 REVERT JUMPDEST PUSH0 PUSH20 0xFFFFFFFFFFFFFFFFFFFFFFFFFFFFFFFFFFFFFFFF DUP3 AND SWAP1 POP SWAP2 SWAP1 POP JUMP JUMPDEST PUSH0 PUSH2 0x2BB DUP3 PUSH2 0x292 JUMP JUMPDEST SWAP1 POP SWAP2 SWAP1 POP JUMP JUMPDEST PUSH2 0x2CB DUP2 PUSH2 0x2B1 JUMP JUMPDEST DUP2 EQ PUSH2 0x2D5 JUMPI PUSH0 PUSH0 REVERT JUMPDEST POP JUMP JUMPDEST PUSH0 DUP2 MLOAD SWAP1 POP PUSH2 0x2E6 DUP2 PUSH2 0x2C2 JUMP JUMPDEST SWAP3 SWAP2 POP POP JUMP JUMPDEST PUSH0 PUSH0 PUSH1 0x40 DUP4 DUP6 SUB SLT ISZERO PUSH2 0x302 JUMPI PUSH2 0x301 PUSH2 0x28E JUMP JUMPDEST JUMPDEST PUSH0 PUSH2 0x30F DUP6 DUP3 DUP7 ADD PUSH2 0x2D8 JUMP JUMPDEST SWAP3 POP POP PUSH1 0x20 PUSH2 0x320 DUP6 DUP3 DUP7 ADD PUSH2 0x2D8 JUMP JUMPDEST SWAP2 POP POP SWAP3 POP SWAP3 SWAP1 POP JUMP JUMPDEST PUSH0 DUP2 MLOAD SWAP1 POP SWAP2 SWAP1 POP JUMP JUMPDEST PUSH0 DUP2 SWAP1 POP SWAP3 SWAP2 POP POP JUMP JUMPDEST DUP3 DUP2 DUP4 MCOPY PUSH0 DUP4 DUP4 ADD MSTORE POP POP POP JUMP JUMPDEST PUSH0 PUSH2 0x356 DUP3 PUSH2 0x32A JUMP JUMPDEST PUSH2 0x360 DUP2 DUP6 PUSH2 0x334 JUMP JUMPDEST SWAP4 POP PUSH2 0x370 DUP2 DUP6 PUSH1 0x20 DUP7 ADD PUSH2 0x33E JUMP JUMPDEST DUP1 DUP5 ADD SWAP2 POP POP SWAP3 SWAP2 POP POP JUMP JUMPDEST PUSH0 PUSH2 0x387 DUP3 DUP5 PUSH2 0x34C JUMP JUMPDEST SWAP2 POP DUP2 SWAP1 POP SWAP3 SWAP2 POP POP JUMP JUMPDEST PUSH1 0x80 MLOAD PUSH2 0xD71 PUSH2 0x3A7 PUSH0 CODECOPY PUSH0 POP POP PUSH2 0xD71 PUSH0 RETURN INVALID PUSH1 0x80 PUSH1 0x40 MSTORE CALLVALUE DUP1 ISZERO PUSH2 0xF JUMPI PUSH0 PUSH0 REVERT JUMPDEST POP PUSH1 0x4 CALLDATASIZE LT PUSH2 0x7B JUMPI PUSH0 CALLDATALOAD PUSH1 0xE0 SHR DUP1 PUSH4 0x5D31217C GT PUSH2 0x59 JUMPI DUP1 PUSH4 0x5D31217C EQ PUSH2 0xEB JUMPI DUP1 PUSH4 0x6E09999E EQ PUSH2 0x11B JUMPI DUP1 PUSH4 0xBF40FAC1 EQ PUSH2 0x14B JUMPI DUP1 PUSH4 0xE1311EC6 EQ PUSH2 0x17B JUMPI PUSH2 0x7B JUMP JUMPDEST DUP1 PUSH4 0xD8E6E2C EQ PUSH2 0x7F JUMPI DUP1 PUSH4 0x17D7DE7C EQ PUSH2 0x9D JUMPI DUP1 PUSH4 0x5B1AD536 EQ PUSH2 0xBB JUMPI JUMPDEST PUSH0 PUSH0 REVERT JUMPDEST PUSH2 0x87 PUSH2 0x1AB JUMP JUMPDEST PUSH1 0x40 MLOAD PUSH2 0x94 SWAP2 SWAP1 PUSH2 0x7EC JUMP JUMPDEST PUSH1 0x40 MLOAD DUP1 SWAP2 SUB SWAP1 RETURN JUMPDEST PUSH2 0xA5 PUSH2 0x1B3 JUMP JUMPDEST PUSH1 0x40 MLOAD PUSH2 0xB2 SWAP2 SWAP1 PUSH2 0x875 JUMP JUMPDEST PUSH1 0x40 MLOAD DUP1 SWAP2 SUB SWAP1 RETURN JUMPDEST PUSH2 0xD5 PUSH1 0x4 DUP1 CALLDATASIZE SUB DUP2 ADD SWAP1 PUSH2 0xD0 SWAP2 SWAP1 PUSH2 0xA56 JUMP JUMPDEST PUSH2 0x1F0 JUMP JUMPDEST PUSH1 0x40 MLOAD PUSH2 0xE2 SWAP2 SWAP1 PUSH2 0xADC JUMP JUMPDEST PUSH1 0x40 MLOAD DUP1 SWAP2 SUB SWAP1 RETURN JUMPDEST PUSH2 0x105 PUSH1 0x4 DUP1 CALLDATASIZE SUB DUP2 ADD SWAP1 PUSH2 0x100 SWAP2 SWAP1 PUSH2 0xAF5 JUMP JUMPDEST PUSH2 0x2E5 JUMP JUMPDEST PUSH1 0x40 MLOAD PUSH2 0x112 SWAP2 SWAP1 PUSH2 0xADC JUMP JUMPDEST PUSH1 0x40 MLOAD DUP1 SWAP2 SUB SWAP1 RETURN JUMPDEST PUSH2 0x135 PUSH1 0x4 DUP1 CALLDATASIZE SUB DUP2 ADD SWAP1 PUSH2 0x130 SWAP2 SWAP1 PUSH2 0xAF5 JUMP JUMPDEST PUSH2 0x5BC JUMP JUMPDEST PUSH1 0x40 MLOAD PUSH2 0x142 SWAP2 SWAP1 PUSH2 0xADC JUMP JUMPDEST PUSH1 0x40 MLOAD DUP1 SWAP2 SUB SWAP1 RETURN JUMPDEST PUSH2 0x165 PUSH1 0x4 DUP1 CALLDATASIZE SUB DUP2 ADD SWAP1 PUSH2 0x160 SWAP2 SWAP1 PUSH2 0xB20 JUMP JUMPDEST PUSH2 0x60E JUMP JUMPDEST PUSH1 0x40 MLOAD PUSH2 0x172 SWAP2 SWAP1 PUSH2 0xB76 JUMP JUMPDEST PUSH1 0x40 MLOAD DUP1 SWAP2 SUB SWAP1 RETURN JUMPDEST PUSH2 0x195 PUSH1 0x4 DUP1 CALLDATASIZE SUB DUP2 ADD SWAP1 PUSH2 0x190 SWAP2 SWAP1 PUSH2 0xB20 JUMP JUMPDEST PUSH2 0x654 JUMP JUMPDEST PUSH1 0x40 MLOAD PUSH2 0x1A2 SWAP2 SWAP1 PUSH2 0xADC JUMP JUMPDEST PUSH1 0x40 MLOAD DUP1 SWAP2 SUB SWAP1 RETURN JUMPDEST PUSH0 PUSH1 0x1 SWAP1 POP SWAP1 JUMP JUMPDEST PUSH1 0x60 PUSH1 0x40 MLOAD DUP1 PUSH1 0x40 ADD PUSH1 0x40 MSTORE DUP1 PUSH1 0x14 DUP2 MSTORE PUSH1 0x20 ADD PUSH32 0x52455345525645445F4D505F5245474953544552000000000000000000000000 DUP2 MSTORE POP SWAP1 POP SWAP1 JUMP JUMPDEST PUSH0 PUSH1 0x2 PUSH1 0x40 MLOAD DUP1 PUSH1 0x40 ADD PUSH1 0x40 MSTORE DUP1 PUSH1 0x11 DUP2 MSTORE PUSH1 0x20 ADD PUSH32 0x52455345525645445F4D505F41444D494E000000000000000000000000000000 DUP2 MSTORE POP PUSH1 0x40 MLOAD PUSH2 0x236 SWAP2 SWAP1 PUSH2 0xBC9 JUMP JUMPDEST SWAP1 DUP2 MSTORE PUSH1 0x20 ADD PUSH1 0x40 MLOAD DUP1 SWAP2 SUB SWAP1 KECCAK256 PUSH0 SWAP1 SLOAD SWAP1 PUSH2 0x100 EXP SWAP1 DIV PUSH20 0xFFFFFFFFFFFFFFFFFFFFFFFFFFFFFFFFFFFFFFFF AND PUSH20 0xFFFFFFFFFFFFFFFFFFFFFFFFFFFFFFFFFFFFFFFF AND CALLER PUSH20 0xFFFFFFFFFFFFFFFFFFFFFFFFFFFFFFFFFFFFFFFF AND EQ PUSH2 0x2D1 JUMPI PUSH1 0x40 MLOAD PUSH32 0x8C379A000000000000000000000000000000000000000000000000000000000 DUP2 MSTORE PUSH1 0x4 ADD PUSH2 0x2C8 SWAP1 PUSH2 0xC29 JUMP JUMPDEST PUSH1 0x40 MLOAD DUP1 SWAP2 SUB SWAP1 REVERT JUMPDEST PUSH2 0x2DC DUP5 DUP5 DUP5 PUSH2 0x687 JUMP JUMPDEST SWAP1 POP SWAP4 SWAP3 POP POP POP JUMP JUMPDEST PUSH0 PUSH1 0x2 PUSH1 0x40 MLOAD DUP1 PUSH1 0x40 ADD PUSH1 0x40 MSTORE DUP1 PUSH1 0x11 DUP2 MSTORE PUSH1 0x20 ADD PUSH32 0x52455345525645445F4D505F41444D494E000000000000000000000000000000 DUP2 MSTORE POP PUSH1 0x40 MLOAD PUSH2 0x32B SWAP2 SWAP1 PUSH2 0xBC9 JUMP JUMPDEST SWAP1 DUP2 MSTORE PUSH1 0x20 ADD PUSH1 0x40 MLOAD DUP1 SWAP2 SUB SWAP1 KECCAK256 PUSH0 SWAP1 SLOAD SWAP1 PUSH2 0x100 EXP SWAP1 DIV PUSH20 0xFFFFFFFFFFFFFFFFFFFFFFFFFFFFFFFFFFFFFFFF AND PUSH20 0xFFFFFFFFFFFFFFFFFFFFFFFFFFFFFFFFFFFFFFFF AND CALLER PUSH20 0xFFFFFFFFFFFFFFFFFFFFFFFFFFFFFFFFFFFFFFFF AND EQ PUSH2 0x3C6 JUMPI PUSH1 0x40 MLOAD PUSH32 0x8C379A000000000000000000000000000000000000000000000000000000000 DUP2 MSTORE PUSH1 0x4 ADD PUSH2 0x3BD SWAP1 PUSH2 0xC29 JUMP JUMPDEST PUSH1 0x40 MLOAD DUP1 SWAP2 SUB SWAP1 REVERT JUMPDEST PUSH0 DUP3 SWAP1 POP DUP1 PUSH20 0xFFFFFFFFFFFFFFFFFFFFFFFFFFFFFFFFFFFFFFFF AND PUSH4 0xD8E6E2C PUSH1 0x40 MLOAD DUP2 PUSH4 0xFFFFFFFF AND PUSH1 0xE0 SHL DUP2 MSTORE PUSH1 0x4 ADD PUSH1 0x20 PUSH1 0x40 MLOAD DUP1 DUP4 SUB DUP2 DUP7 GAS STATICCALL ISZERO DUP1 ISZERO PUSH2 0x413 JUMPI RETURNDATASIZE PUSH0 PUSH0 RETURNDATACOPY RETURNDATASIZE PUSH0 REVERT JUMPDEST POP POP POP POP PUSH1 0x40 MLOAD RETURNDATASIZE PUSH1 0x1F NOT PUSH1 0x1F DUP3 ADD AND DUP3 ADD DUP1 PUSH1 0x40 MSTORE POP DUP2 ADD SWAP1 PUSH2 0x437 SWAP2 SWAP1 PUSH2 0xC5B JUMP JUMPDEST PUSH1 0x4 DUP3 PUSH20 0xFFFFFFFFFFFFFFFFFFFFFFFFFFFFFFFFFFFFFFFF AND PUSH4 0x17D7DE7C PUSH1 0x40 MLOAD DUP2 PUSH4 0xFFFFFFFF AND PUSH1 0xE0 SHL DUP2 MSTORE PUSH1 0x4 ADD PUSH0 PUSH1 0x40 MLOAD DUP1 DUP4 SUB DUP2 DUP7 GAS STATICCALL ISZERO DUP1 ISZERO PUSH2 0x481 JUMPI RETURNDATASIZE PUSH0 PUSH0 RETURNDATACOPY RETURNDATASIZE PUSH0 REVERT JUMPDEST POP POP POP POP PUSH1 0x40 MLOAD RETURNDATASIZE PUSH0 DUP3 RETURNDATACOPY RETURNDATASIZE PUSH1 0x1F NOT PUSH1 0x1F DUP3 ADD AND DUP3 ADD DUP1 PUSH1 0x40 MSTORE POP DUP2 ADD SWAP1 PUSH2 0x4A9 SWAP2 SWAP1 PUSH2 0xCF4 JUMP JUMPDEST PUSH1 0x40 MLOAD PUSH2 0x4B6 SWAP2 SWAP1 PUSH2 0xBC9 JUMP JUMPDEST SWAP1 DUP2 MSTORE PUSH1 0x20 ADD PUSH1 0x40 MLOAD DUP1 SWAP2 SUB SWAP1 KECCAK256 SLOAD LT PUSH2 0x4CE JUMPI PUSH0 PUSH0 REVERT JUMPDEST PUSH2 0x5B4 DUP2 PUSH20 0xFFFFFFFFFFFFFFFFFFFFFFFFFFFFFFFFFFFFFFFF AND PUSH4 0x17D7DE7C PUSH1 0x40 MLOAD DUP2 PUSH4 0xFFFFFFFF AND PUSH1 0xE0 SHL DUP2 MSTORE PUSH1 0x4 ADD PUSH0 PUSH1 0x40 MLOAD DUP1 DUP4 SUB DUP2 DUP7 GAS STATICCALL ISZERO DUP1 ISZERO PUSH2 0x519 JUMPI RETURNDATASIZE PUSH0 PUSH0 RETURNDATACOPY RETURNDATASIZE PUSH0 REVERT JUMPDEST POP POP POP POP PUSH1 0x40 MLOAD RETURNDATASIZE PUSH0 DUP3 RETURNDATACOPY RETURNDATASIZE PUSH1 0x1F NOT PUSH1 0x1F DUP3 ADD AND DUP3 ADD DUP1 PUSH1 0x40 MSTORE POP DUP2 ADD SWAP1 PUSH2 0x541 SWAP2 SWAP1 PUSH2 0xCF4 JUMP JUMPDEST DUP5 DUP4 PUSH20 0xFFFFFFFFFFFFFFFFFFFFFFFFFFFFFFFFFFFFFFFF AND PUSH4 0xD8E6E2C PUSH1 0x40 MLOAD DUP2 PUSH4 0xFFFFFFFF AND PUSH1 0xE0 SHL DUP2 MSTORE PUSH1 0x4 ADD PUSH1 0x20 PUSH1 0x40 MLOAD DUP1 DUP4 SUB DUP2 DUP7 GAS STATICCALL ISZERO DUP1 ISZERO PUSH2 0x58B JUMPI RETURNDATASIZE PUSH0 PUSH0 RETURNDATACOPY RETURNDATASIZE PUSH0 REVERT JUMPDEST POP POP POP POP PUSH1 0x40 MLOAD RETURNDATASIZE PUSH1 0x1F NOT PUSH1 0x1F DUP3 ADD AND DUP3 ADD DUP1 PUSH1 0x40 MSTORE POP DUP2 ADD SWAP1 PUSH2 0x5AF SWAP2 SWAP1 PUSH2 0xC5B JUMP JUMPDEST PUSH2 0x687 JUMP JUMPDEST SWAP2 POP POP SWAP2 SWAP1 POP JUMP JUMPDEST PUSH0 PUSH1 0x1 PUSH0 DUP4 PUSH20 0xFFFFFFFFFFFFFFFFFFFFFFFFFFFFFFFFFFFFFFFF AND PUSH20 0xFFFFFFFFFFFFFFFFFFFFFFFFFFFFFFFFFFFFFFFF AND DUP2 MSTORE PUSH1 0x20 ADD SWAP1 DUP2 MSTORE PUSH1 0x20 ADD PUSH0 KECCAK256 PUSH0 SWAP1 SLOAD SWAP1 PUSH2 0x100 EXP SWAP1 DIV PUSH1 0xFF AND SWAP1 POP SWAP2 SWAP1 POP JUMP JUMPDEST PUSH0 PUSH1 0x2 DUP3 PUSH1 0x40 MLOAD PUSH2 0x61F SWAP2 SWAP1 PUSH2 0xBC9 JUMP JUMPDEST SWAP1 DUP2 MSTORE PUSH1 0x20 ADD PUSH1 0x40 MLOAD DUP1 SWAP2 SUB SWAP1 KECCAK256 PUSH0 SWAP1 SLOAD SWAP1 PUSH2 0x100 EXP SWAP1 DIV PUSH20 0xFFFFFFFFFFFFFFFFFFFFFFFFFFFFFFFFFFFFFFFF AND SWAP1 POP SWAP2 SWAP1 POP JUMP JUMPDEST PUSH0 PUSH1 0x5 DUP3 PUSH1 0x40 MLOAD PUSH2 0x665 SWAP2 SWAP1 PUSH2 0xBC9 JUMP JUMPDEST SWAP1 DUP2 MSTORE PUSH1 0x20 ADD PUSH1 0x40 MLOAD DUP1 SWAP2 SUB SWAP1 KECCAK256 PUSH0 SWAP1 SLOAD SWAP1 PUSH2 0x100 EXP SWAP1 DIV PUSH1 0xFF AND SWAP1 POP SWAP2 SWAP1 POP JUMP JUMPDEST PUSH0 PUSH0 DUP4 SWAP1 DUP1 PUSH1 0x1 DUP2 SLOAD ADD DUP1 DUP3 SSTORE DUP1 SWAP2 POP POP PUSH1 0x1 SWAP1 SUB SWAP1 PUSH0 MSTORE PUSH1 0x20 PUSH0 KECCAK256 ADD PUSH0 SWAP1 SWAP2 SWAP1 SWAP2 SWAP1 SWAP2 PUSH2 0x100 EXP DUP2 SLOAD DUP2 PUSH20 0xFFFFFFFFFFFFFFFFFFFFFFFFFFFFFFFFFFFFFFFF MUL NOT AND SWAP1 DUP4 PUSH20 0xFFFFFFFFFFFFFFFFFFFFFFFFFFFFFFFFFFFFFFFF AND MUL OR SWAP1 SSTORE POP PUSH1 0x1 DUP1 PUSH0 DUP6 PUSH20 0xFFFFFFFFFFFFFFFFFFFFFFFFFFFFFFFFFFFFFFFF AND PUSH20 0xFFFFFFFFFFFFFFFFFFFFFFFFFFFFFFFFFFFFFFFF AND DUP2 MSTORE PUSH1 0x20 ADD SWAP1 DUP2 MSTORE PUSH1 0x20 ADD PUSH0 KECCAK256 PUSH0 PUSH2 0x100 EXP DUP2 SLOAD DUP2 PUSH1 0xFF MUL NOT AND SWAP1 DUP4 ISZERO ISZERO MUL OR SWAP1 SSTORE POP PUSH1 0x2 DUP5 PUSH1 0x40 MLOAD PUSH2 0x74B SWAP2 SWAP1 PUSH2 0xBC9 JUMP JUMPDEST SWAP1 DUP2 MSTORE PUSH1 0x20 ADD PUSH1 0x40 MLOAD DUP1 SWAP2 SUB SWAP1 KECCAK256 PUSH0 SWAP1 SLOAD SWAP1 PUSH2 0x100 EXP SWAP1 POP POP DUP2 PUSH1 0x3 PUSH0 DUP6 PUSH20 0xFFFFFFFFFFFFFFFFFFFFFFFFFFFFFFFFFFFFFFFF AND PUSH20 0xFFFFFFFFFFFFFFFFFFFFFFFFFFFFFFFFFFFFFFFF AND DUP2 MSTORE PUSH1 0x20 ADD SWAP1 DUP2 MSTORE PUSH1 0x20 ADD PUSH0 KECCAK256 DUP2 SWAP1 SSTORE POP DUP2 PUSH1 0x4 DUP6 PUSH1 0x40 MLOAD PUSH2 0x7B7 SWAP2 SWAP1 PUSH2 0xBC9 JUMP JUMPDEST SWAP1 DUP2 MSTORE PUSH1 0x20 ADD PUSH1 0x40 MLOAD DUP1 SWAP2 SUB SWAP1 KECCAK256 DUP2 SWAP1 SSTORE POP PUSH1 0x1 SWAP1 POP SWAP4 SWAP3 POP POP POP JUMP JUMPDEST PUSH0 DUP2 SWAP1 POP SWAP2 SWAP1 POP JUMP JUMPDEST PUSH2 0x7E6 DUP2 PUSH2 0x7D4 JUMP JUMPDEST DUP3 MSTORE POP POP JUMP JUMPDEST PUSH0 PUSH1 0x20 DUP3 ADD SWAP1 POP PUSH2 0x7FF PUSH0 DUP4 ADD DUP5 PUSH2 0x7DD JUMP JUMPDEST SWAP3 SWAP2 POP POP JUMP JUMPDEST PUSH0 DUP2 MLOAD SWAP1 POP SWAP2 SWAP1 POP JUMP JUMPDEST PUSH0 DUP3 DUP3 MSTORE PUSH1 0x20 DUP3 ADD SWAP1 POP SWAP3 SWAP2 POP POP JUMP JUMPDEST DUP3 DUP2 DUP4 MCOPY PUSH0 DUP4 DUP4 ADD MSTORE POP POP POP JUMP JUMPDEST PUSH0 PUSH1 0x1F NOT PUSH1 0x1F DUP4 ADD AND SWAP1 POP SWAP2 SWAP1 POP JUMP JUMPDEST PUSH0 PUSH2 0x847 DUP3 PUSH2 0x805 JUMP JUMPDEST PUSH2 0x851 DUP2 DUP6 PUSH2 0x80F JUMP JUMPDEST SWAP4 POP PUSH2 0x861 DUP2 DUP6 PUSH1 0x20 DUP7 ADD PUSH2 0x81F JUMP JUMPDEST PUSH2 0x86A DUP2 PUSH2 0x82D JUMP JUMPDEST DUP5 ADD SWAP2 POP POP SWAP3 SWAP2 POP POP JUMP JUMPDEST PUSH0 PUSH1 0x20 DUP3 ADD SWAP1 POP DUP2 DUP2 SUB PUSH0 DUP4 ADD MSTORE PUSH2 0x88D DUP2 DUP5 PUSH2 0x83D JUMP JUMPDEST SWAP1 POP SWAP3 SWAP2 POP POP JUMP JUMPDEST PUSH0 PUSH1 0x40 MLOAD SWAP1 POP SWAP1 JUMP JUMPDEST PUSH0 PUSH0 REVERT JUMPDEST PUSH0 PUSH0 REVERT JUMPDEST PUSH0 PUSH0 REVERT JUMPDEST PUSH0 PUSH0 REVERT JUMPDEST PUSH32 0x4E487B7100000000000000000000000000000000000000000000000000000000 PUSH0 MSTORE PUSH1 0x41 PUSH1 0x4 MSTORE PUSH1 0x24 PUSH0 REVERT JUMPDEST PUSH2 0x8E4 DUP3 PUSH2 0x82D JUMP JUMPDEST DUP2 ADD DUP2 DUP2 LT PUSH8 0xFFFFFFFFFFFFFFFF DUP3 GT OR ISZERO PUSH2 0x903 JUMPI PUSH2 0x902 PUSH2 0x8AE JUMP JUMPDEST JUMPDEST DUP1 PUSH1 0x40 MSTORE POP POP POP JUMP JUMPDEST PUSH0 PUSH2 0x915 PUSH2 0x895 JUMP JUMPDEST SWAP1 POP PUSH2 0x921 DUP3 DUP3 PUSH2 0x8DB JUMP JUMPDEST SWAP2 SWAP1 POP JUMP JUMPDEST PUSH0 PUSH8 0xFFFFFFFFFFFFFFFF DUP3 GT ISZERO PUSH2 0x940 JUMPI PUSH2 0x93F PUSH2 0x8AE JUMP JUMPDEST JUMPDEST PUSH2 0x949 DUP3 PUSH2 0x82D JUMP JUMPDEST SWAP1 POP PUSH1 0x20 DUP2 ADD SWAP1 POP SWAP2 SWAP1 POP JUMP JUMPDEST DUP3 DUP2 DUP4 CALLDATACOPY PUSH0 DUP4 DUP4 ADD MSTORE POP POP POP JUMP JUMPDEST PUSH0 PUSH2 0x976 PUSH2 0x971 DUP5 PUSH2 0x926 JUMP JUMPDEST PUSH2 0x90C JUMP JUMPDEST SWAP1 POP DUP3 DUP2 MSTORE PUSH1 0x20 DUP2 ADD DUP5 DUP5 DUP5 ADD GT ISZERO PUSH2 0x992 JUMPI PUSH2 0x991 PUSH2 0x8AA JUMP JUMPDEST JUMPDEST PUSH2 0x99D DUP5 DUP3 DUP6 PUSH2 0x956 JUMP JUMPDEST POP SWAP4 SWAP3 POP POP POP JUMP JUMPDEST PUSH0 DUP3 PUSH1 0x1F DUP4 ADD SLT PUSH2 0x9B9 JUMPI PUSH2 0x9B8 PUSH2 0x8A6 JUMP JUMPDEST JUMPDEST DUP2 CALLDATALOAD PUSH2 0x9C9 DUP5 DUP3 PUSH1 0x20 DUP7 ADD PUSH2 0x964 JUMP JUMPDEST SWAP2 POP POP SWAP3 SWAP2 POP POP JUMP JUMPDEST PUSH0 PUSH20 0xFFFFFFFFFFFFFFFFFFFFFFFFFFFFFFFFFFFFFFFF DUP3 AND SWAP1 POP SWAP2 SWAP1 POP JUMP JUMPDEST PUSH0 PUSH2 0x9FB DUP3 PUSH2 0x9D2 JUMP JUMPDEST SWAP1 POP SWAP2 SWAP1 POP JUMP JUMPDEST PUSH2 0xA0B DUP2 PUSH2 0x9F1 JUMP JUMPDEST DUP2 EQ PUSH2 0xA15 JUMPI PUSH0 PUSH0 REVERT JUMPDEST POP JUMP JUMPDEST PUSH0 DUP2 CALLDATALOAD SWAP1 POP PUSH2 0xA26 DUP2 PUSH2 0xA02 JUMP JUMPDEST SWAP3 SWAP2 POP POP JUMP JUMPDEST PUSH2 0xA35 DUP2 PUSH2 0x7D4 JUMP JUMPDEST DUP2 EQ PUSH2 0xA3F JUMPI PUSH0 PUSH0 REVERT JUMPDEST POP JUMP JUMPDEST PUSH0 DUP2 CALLDATALOAD SWAP1 POP PUSH2 0xA50 DUP2 PUSH2 0xA2C JUMP JUMPDEST SWAP3 SWAP2 POP POP JUMP JUMPDEST PUSH0 PUSH0 PUSH0 PUSH1 0x60 DUP5 DUP7 SUB SLT ISZERO PUSH2 0xA6D JUMPI PUSH2 0xA6C PUSH2 0x89E JUMP JUMPDEST JUMPDEST PUSH0 DUP5 ADD CALLDATALOAD PUSH8 0xFFFFFFFFFFFFFFFF DUP2 GT ISZERO PUSH2 0xA8A JUMPI PUSH2 0xA89 PUSH2 0x8A2 JUMP JUMPDEST JUMPDEST PUSH2 0xA96 DUP7 DUP3 DUP8 ADD PUSH2 0x9A5 JUMP JUMPDEST SWAP4 POP POP PUSH1 0x20 PUSH2 0xAA7 DUP7 DUP3 DUP8 ADD PUSH2 0xA18 JUMP JUMPDEST SWAP3 POP POP PUSH1 0x40 PUSH2 0xAB8 DUP7 DUP3 DUP8 ADD PUSH2 0xA42 JUMP JUMPDEST SWAP2 POP POP SWAP3 POP SWAP3 POP SWAP3 JUMP JUMPDEST PUSH0 DUP2 ISZERO ISZERO SWAP1 POP SWAP2 SWAP1 POP JUMP JUMPDEST PUSH2 0xAD6 DUP2 PUSH2 0xAC2 JUMP JUMPDEST DUP3 MSTORE POP POP JUMP JUMPDEST PUSH0 PUSH1 0x20 DUP3 ADD SWAP1 POP PUSH2 0xAEF PUSH0 DUP4 ADD DUP5 PUSH2 0xACD JUMP JUMPDEST SWAP3 SWAP2 POP POP JUMP JUMPDEST PUSH0 PUSH1 0x20 DUP3 DUP5 SUB SLT ISZERO PUSH2 0xB0A JUMPI PUSH2 0xB09 PUSH2 0x89E JUMP JUMPDEST JUMPDEST PUSH0 PUSH2 0xB17 DUP5 DUP3 DUP6 ADD PUSH2 0xA18 JUMP JUMPDEST SWAP2 POP POP SWAP3 SWAP2 POP POP JUMP JUMPDEST PUSH0 PUSH1 0x20 DUP3 DUP5 SUB SLT ISZERO PUSH2 0xB35 JUMPI PUSH2 0xB34 PUSH2 0x89E JUMP JUMPDEST JUMPDEST PUSH0 DUP3 ADD CALLDATALOAD PUSH8 0xFFFFFFFFFFFFFFFF DUP2 GT ISZERO PUSH2 0xB52 JUMPI PUSH2 0xB51 PUSH2 0x8A2 JUMP JUMPDEST JUMPDEST PUSH2 0xB5E DUP5 DUP3 DUP6 ADD PUSH2 0x9A5 JUMP JUMPDEST SWAP2 POP POP SWAP3 SWAP2 POP POP JUMP JUMPDEST PUSH2 0xB70 DUP2 PUSH2 0x9F1 JUMP JUMPDEST DUP3 MSTORE POP POP JUMP JUMPDEST PUSH0 PUSH1 0x20 DUP3 ADD SWAP1 POP PUSH2 0xB89 PUSH0 DUP4 ADD DUP5 PUSH2 0xB67 JUMP JUMPDEST SWAP3 SWAP2 POP POP JUMP JUMPDEST PUSH0 DUP2 SWAP1 POP SWAP3 SWAP2 POP POP JUMP JUMPDEST PUSH0 PUSH2 0xBA3 DUP3 PUSH2 0x805 JUMP JUMPDEST PUSH2 0xBAD DUP2 DUP6 PUSH2 0xB8F JUMP JUMPDEST SWAP4 POP PUSH2 0xBBD DUP2 DUP6 PUSH1 0x20 DUP7 ADD PUSH2 0x81F JUMP JUMPDEST DUP1 DUP5 ADD SWAP2 POP POP SWAP3 SWAP2 POP POP JUMP JUMPDEST PUSH0 PUSH2 0xBD4 DUP3 DUP5 PUSH2 0xB99 JUMP JUMPDEST SWAP2 POP DUP2 SWAP1 POP SWAP3 SWAP2 POP POP JUMP JUMPDEST PUSH32 0x61646D696E206F6E6C7900000000000000000000000000000000000000000000 PUSH0 DUP3 ADD MSTORE POP JUMP JUMPDEST PUSH0 PUSH2 0xC13 PUSH1 0xA DUP4 PUSH2 0x80F JUMP JUMPDEST SWAP2 POP PUSH2 0xC1E DUP3 PUSH2 0xBDF JUMP JUMPDEST PUSH1 0x20 DUP3 ADD SWAP1 POP SWAP2 SWAP1 POP JUMP JUMPDEST PUSH0 PUSH1 0x20 DUP3 ADD SWAP1 POP DUP2 DUP2 SUB PUSH0 DUP4 ADD MSTORE PUSH2 0xC40 DUP2 PUSH2 0xC07 JUMP JUMPDEST SWAP1 POP SWAP2 SWAP1 POP JUMP JUMPDEST PUSH0 DUP2 MLOAD SWAP1 POP PUSH2 0xC55 DUP2 PUSH2 0xA2C JUMP JUMPDEST SWAP3 SWAP2 POP POP JUMP JUMPDEST PUSH0 PUSH1 0x20 DUP3 DUP5 SUB SLT ISZERO PUSH2 0xC70 JUMPI PUSH2 0xC6F PUSH2 0x89E JUMP JUMPDEST JUMPDEST PUSH0 PUSH2 0xC7D DUP5 DUP3 DUP6 ADD PUSH2 0xC47 JUMP JUMPDEST SWAP2 POP POP SWAP3 SWAP2 POP POP JUMP JUMPDEST PUSH0 PUSH2 0xC98 PUSH2 0xC93 DUP5 PUSH2 0x926 JUMP JUMPDEST PUSH2 0x90C JUMP JUMPDEST SWAP1 POP DUP3 DUP2 MSTORE PUSH1 0x20 DUP2 ADD DUP5 DUP5 DUP5 ADD GT ISZERO PUSH2 0xCB4 JUMPI PUSH2 0xCB3 PUSH2 0x8AA JUMP JUMPDEST JUMPDEST PUSH2 0xCBF DUP5 DUP3 DUP6 PUSH2 0x81F JUMP JUMPDEST POP SWAP4 SWAP3 POP POP POP JUMP JUMPDEST PUSH0 DUP3 PUSH1 0x1F DUP4 ADD SLT PUSH2 0xCDB JUMPI PUSH2 0xCDA PUSH2 0x8A6 JUMP JUMPDEST JUMPDEST DUP2 MLOAD PUSH2 0xCEB DUP5 DUP3 PUSH1 0x20 DUP7 ADD PUSH2 0xC86 JUMP JUMPDEST SWAP2 POP POP SWAP3 SWAP2 POP POP JUMP JUMPDEST PUSH0 PUSH1 0x20 DUP3 DUP5 SUB SLT ISZERO PUSH2 0xD09 JUMPI PUSH2 0xD08 PUSH2 0x89E JUMP JUMPDEST JUMPDEST PUSH0 DUP3 ADD MLOAD PUSH8 0xFFFFFFFFFFFFFFFF DUP2 GT ISZERO PUSH2 0xD26 JUMPI PUSH2 0xD25 PUSH2 0x8A2 JUMP JUMPDEST JUMPDEST PUSH2 0xD32 DUP5 DUP3 DUP6 ADD PUSH2 0xCC7 JUMP JUMPDEST SWAP2 POP POP SWAP3 SWAP2 POP POP JUMP INVALID LOG2 PUSH5 0x6970667358 0x22 SLT KECCAK256 DUP8 MSTORE TSTORE 0xEB PREVRANDAO EXTSTATICCALL PUSH20 0xC01D187C6D72D76A3FE96674109595F72F9F8869 SUB 0xC2 0xC2 0xDD DUP7 PUSH5 0x736F6C6343 STOP ADDMOD 0x1E STOP CALLER "
				},
				"gasEstimates": {
					"creation": {
						"codeDepositCost": "688200",
						"executionCost": "infinite",
						"totalCost": "infinite"
					},
					"external": {
						"addAddress(string,address,uint256)": "infinite",
						"addVersionAddress(address)": "infinite",
						"getAddress(string)": "infinite",
						"getName()": "infinite",
						"getVersion()": "333",
						"hasAddress(string)": "infinite",
						"isKnown(address)": "2892"
					},
					"internal": {
						"addAddressInternal(string memory,address,uint256)": "infinite"
					}
				},
				"methodIdentifiers": {
					"addAddress(string,address,uint256)": "5b1ad536",
					"addVersionAddress(address)": "5d31217c",
					"getAddress(string)": "bf40fac1",
					"getName()": "17d7de7c",
					"getVersion()": "0d8e6e2c",
					"hasAddress(string)": "e1311ec6",
					"isKnown(address)": "6e09999e"
				}
			},
			"storageLayout": {
				"storage": [
					{
						"astId": 74,
						"contract": "contracts/core/util/MPRegister_flattened.sol:MPRegister",
						"label": "addresses",
						"offset": 0,
						"slot": "0",
						"type": "t_array(t_address)dyn_storage"
					},
					{
						"astId": 78,
						"contract": "contracts/core/util/MPRegister_flattened.sol:MPRegister",
						"label": "isKnownAddress",
						"offset": 0,
						"slot": "1",
						"type": "t_mapping(t_address,t_bool)"
					},
					{
						"astId": 82,
						"contract": "contracts/core/util/MPRegister_flattened.sol:MPRegister",
						"label": "addressByName",
						"offset": 0,
						"slot": "2",
						"type": "t_mapping(t_string_memory_ptr,t_address)"
					},
					{
						"astId": 86,
						"contract": "contracts/core/util/MPRegister_flattened.sol:MPRegister",
						"label": "versionByAddress",
						"offset": 0,
						"slot": "3",
						"type": "t_mapping(t_address,t_uint256)"
					},
					{
						"astId": 90,
						"contract": "contracts/core/util/MPRegister_flattened.sol:MPRegister",
						"label": "versionByName",
						"offset": 0,
						"slot": "4",
						"type": "t_mapping(t_string_memory_ptr,t_uint256)"
					},
					{
						"astId": 94,
						"contract": "contracts/core/util/MPRegister_flattened.sol:MPRegister",
						"label": "hasAddressByName",
						"offset": 0,
						"slot": "5",
						"type": "t_mapping(t_string_memory_ptr,t_bool)"
					}
				],
				"types": {
					"t_address": {
						"encoding": "inplace",
						"label": "address",
						"numberOfBytes": "20"
					},
					"t_array(t_address)dyn_storage": {
						"base": "t_address",
						"encoding": "dynamic_array",
						"label": "address[]",
						"numberOfBytes": "32"
					},
					"t_bool": {
						"encoding": "inplace",
						"label": "bool",
						"numberOfBytes": "1"
					},
					"t_mapping(t_address,t_bool)": {
						"encoding": "mapping",
						"key": "t_address",
						"label": "mapping(address => bool)",
						"numberOfBytes": "32",
						"value": "t_bool"
					},
					"t_mapping(t_address,t_uint256)": {
						"encoding": "mapping",
						"key": "t_address",
						"label": "mapping(address => uint256)",
						"numberOfBytes": "32",
						"value": "t_uint256"
					},
					"t_mapping(t_string_memory_ptr,t_address)": {
						"encoding": "mapping",
						"key": "t_string_memory_ptr",
						"label": "mapping(string => address)",
						"numberOfBytes": "32",
						"value": "t_address"
					},
					"t_mapping(t_string_memory_ptr,t_bool)": {
						"encoding": "mapping",
						"key": "t_string_memory_ptr",
						"label": "mapping(string => bool)",
						"numberOfBytes": "32",
						"value": "t_bool"
					},
					"t_mapping(t_string_memory_ptr,t_uint256)": {
						"encoding": "mapping",
						"key": "t_string_memory_ptr",
						"label": "mapping(string => uint256)",
						"numberOfBytes": "32",
						"value": "t_uint256"
					},
					"t_string_memory_ptr": {
						"encoding": "bytes",
						"label": "string",
						"numberOfBytes": "32"
					},
					"t_uint256": {
						"encoding": "inplace",
						"label": "uint256",
						"numberOfBytes": "32"
					}
				}
			},
			"userdoc": {
				"kind": "user",
				"methods": {},
				"version": 1
			}
		}
	}
}