{
	"contracts/core/util/MPTxManager.sol": {
		"MPTxManager": {
			"abi": [
				{
					"inputs": [
						{
							"internalType": "address",
							"name": "_register",
							"type": "address"
						}
					],
					"stateMutability": "nonpayable",
					"type": "constructor"
				},
				{
					"inputs": [
						{
							"internalType": "enum TxType",
							"name": "_txType",
							"type": "uint8"
						},
						{
							"internalType": "enum ObjType",
							"name": "_objType",
							"type": "uint8"
						},
						{
							"internalType": "uint256",
							"name": "_id",
							"type": "uint256"
						},
						{
							"internalType": "address",
							"name": "_location",
							"type": "address"
						},
						{
							"internalType": "uint256",
							"name": "_amount",
							"type": "uint256"
						},
						{
							"internalType": "address",
							"name": "_erc20",
							"type": "address"
						}
					],
					"name": "addTx",
					"outputs": [
						{
							"internalType": "uint256",
							"name": "_txId",
							"type": "uint256"
						}
					],
					"stateMutability": "nonpayable",
					"type": "function"
				},
				{
					"inputs": [
						{
							"internalType": "uint256",
							"name": "_mPensionId",
							"type": "uint256"
						}
					],
					"name": "getMPensionTx",
					"outputs": [
						{
							"internalType": "uint256[]",
							"name": "_txIds",
							"type": "uint256[]"
						}
					],
					"stateMutability": "view",
					"type": "function"
				},
				{
					"inputs": [],
					"name": "getName",
					"outputs": [
						{
							"internalType": "string",
							"name": "_name",
							"type": "string"
						}
					],
					"stateMutability": "pure",
					"type": "function"
				},
				{
					"inputs": [
						{
							"internalType": "uint256",
							"name": "_txId",
							"type": "uint256"
						}
					],
					"name": "getTx",
					"outputs": [
						{
							"components": [
								{
									"internalType": "uint256",
									"name": "id",
									"type": "uint256"
								},
								{
									"internalType": "enum TxType",
									"name": "txType",
									"type": "uint8"
								},
								{
									"internalType": "address",
									"name": "location",
									"type": "address"
								},
								{
									"internalType": "uint256",
									"name": "entityId",
									"type": "uint256"
								},
								{
									"internalType": "uint256",
									"name": "date",
									"type": "uint256"
								},
								{
									"internalType": "uint256",
									"name": "amount",
									"type": "uint256"
								},
								{
									"internalType": "address",
									"name": "erc20",
									"type": "address"
								}
							],
							"internalType": "struct Tx",
							"name": "_tx",
							"type": "tuple"
						}
					],
					"stateMutability": "view",
					"type": "function"
				},
				{
					"inputs": [],
					"name": "getVersion",
					"outputs": [
						{
							"internalType": "uint256",
							"name": "_version",
							"type": "uint256"
						}
					],
					"stateMutability": "pure",
					"type": "function"
				},
				{
					"inputs": [],
					"name": "notifyChangeOfAddress",
					"outputs": [
						{
							"internalType": "bool",
							"name": "_acknowledged",
							"type": "bool"
						}
					],
					"stateMutability": "nonpayable",
					"type": "function"
				}
			],
			"devdoc": {
				"kind": "dev",
				"methods": {},
				"version": 1
			},
			"evm": {
				"assembly": "    /* \"contracts/core/util/MPTxManager.sol\":222:2775  contract MPTxManager is IMPTxManager, IVersion { ... */\n  mstore(0x40, 0x80)\n    /* \"contracts/core/util/MPTxManager.sol\":976:1090  constructor(address _register) {... */\n  callvalue\n  dup1\n  iszero\n  tag_1\n  jumpi\n  revert(0x00, 0x00)\ntag_1:\n  pop\n  mload(0x40)\n  sub(codesize, bytecodeSize)\n  dup1\n  bytecodeSize\n  dup4\n  codecopy\n  dup2\n  dup2\n  add\n  0x40\n  mstore\n  dup2\n  add\n  swap1\n  tag_2\n  swap2\n  swap1\n  tag_3\n  jump\t// in\ntag_2:\n    /* \"contracts/core/util/MPTxManager.sol\":1039:1048  _register */\n  dup1\n    /* \"contracts/core/util/MPTxManager.sol\":1018:1026  register */\n  0x00\n  0x00\n    /* \"contracts/core/util/MPTxManager.sol\":1018:1049  register = IRegister(_register) */\n  0x0100\n  exp\n  dup2\n  sload\n  dup2\n  0xffffffffffffffffffffffffffffffffffffffff\n  mul\n  not\n  and\n  swap1\n  dup4\n  0xffffffffffffffffffffffffffffffffffffffff\n  and\n  mul\n  or\n  swap1\n  sstore\n  pop\n    /* \"contracts/core/util/MPTxManager.sol\":1076:1080  this */\n  address\n    /* \"contracts/core/util/MPTxManager.sol\":1061:1065  self */\n  0x01\n  0x00\n    /* \"contracts/core/util/MPTxManager.sol\":1061:1081  self = address(this) */\n  0x0100\n  exp\n  dup2\n  sload\n  dup2\n  0xffffffffffffffffffffffffffffffffffffffff\n  mul\n  not\n  and\n  swap1\n  dup4\n  0xffffffffffffffffffffffffffffffffffffffff\n  and\n  mul\n  or\n  swap1\n  sstore\n  pop\n    /* \"contracts/core/util/MPTxManager.sol\":976:1090  constructor(address _register) {... */\n  pop\n    /* \"contracts/core/util/MPTxManager.sol\":222:2775  contract MPTxManager is IMPTxManager, IVersion { ... */\n  jump(tag_6)\n    /* \"#utility.yul\":88:205   */\ntag_8:\n    /* \"#utility.yul\":197:198   */\n  0x00\n    /* \"#utility.yul\":194:195   */\n  0x00\n    /* \"#utility.yul\":187:199   */\n  revert\n    /* \"#utility.yul\":334:460   */\ntag_10:\n    /* \"#utility.yul\":371:378   */\n  0x00\n    /* \"#utility.yul\":411:453   */\n  0xffffffffffffffffffffffffffffffffffffffff\n    /* \"#utility.yul\":404:409   */\n  dup3\n    /* \"#utility.yul\":400:454   */\n  and\n    /* \"#utility.yul\":389:454   */\n  swap1\n  pop\n    /* \"#utility.yul\":334:460   */\n  swap2\n  swap1\n  pop\n  jump\t// out\n    /* \"#utility.yul\":466:562   */\ntag_11:\n    /* \"#utility.yul\":503:510   */\n  0x00\n    /* \"#utility.yul\":532:556   */\n  tag_20\n    /* \"#utility.yul\":550:555   */\n  dup3\n    /* \"#utility.yul\":532:556   */\n  tag_10\n  jump\t// in\ntag_20:\n    /* \"#utility.yul\":521:556   */\n  swap1\n  pop\n    /* \"#utility.yul\":466:562   */\n  swap2\n  swap1\n  pop\n  jump\t// out\n    /* \"#utility.yul\":568:690   */\ntag_12:\n    /* \"#utility.yul\":641:665   */\n  tag_22\n    /* \"#utility.yul\":659:664   */\n  dup2\n    /* \"#utility.yul\":641:665   */\n  tag_11\n  jump\t// in\ntag_22:\n    /* \"#utility.yul\":634:639   */\n  dup2\n    /* \"#utility.yul\":631:666   */\n  eq\n    /* \"#utility.yul\":621:684   */\n  tag_23\n  jumpi\n    /* \"#utility.yul\":680:681   */\n  0x00\n    /* \"#utility.yul\":677:678   */\n  0x00\n    /* \"#utility.yul\":670:682   */\n  revert\n    /* \"#utility.yul\":621:684   */\ntag_23:\n    /* \"#utility.yul\":568:690   */\n  pop\n  jump\t// out\n    /* \"#utility.yul\":696:839   */\ntag_13:\n    /* \"#utility.yul\":753:758   */\n  0x00\n    /* \"#utility.yul\":784:790   */\n  dup2\n    /* \"#utility.yul\":778:791   */\n  mload\n    /* \"#utility.yul\":769:791   */\n  swap1\n  pop\n    /* \"#utility.yul\":800:833   */\n  tag_25\n    /* \"#utility.yul\":827:832   */\n  dup2\n    /* \"#utility.yul\":800:833   */\n  tag_12\n  jump\t// in\ntag_25:\n    /* \"#utility.yul\":696:839   */\n  swap3\n  swap2\n  pop\n  pop\n  jump\t// out\n    /* \"#utility.yul\":845:1196   */\ntag_3:\n    /* \"#utility.yul\":915:921   */\n  0x00\n    /* \"#utility.yul\":964:966   */\n  0x20\n    /* \"#utility.yul\":952:961   */\n  dup3\n    /* \"#utility.yul\":943:950   */\n  dup5\n    /* \"#utility.yul\":939:962   */\n  sub\n    /* \"#utility.yul\":935:967   */\n  slt\n    /* \"#utility.yul\":932:1051   */\n  iszero\n  tag_27\n  jumpi\n    /* \"#utility.yul\":970:1049   */\n  tag_28\n  tag_8\n  jump\t// in\ntag_28:\n    /* \"#utility.yul\":932:1051   */\ntag_27:\n    /* \"#utility.yul\":1090:1091   */\n  0x00\n    /* \"#utility.yul\":1115:1179   */\n  tag_29\n    /* \"#utility.yul\":1171:1178   */\n  dup5\n    /* \"#utility.yul\":1162:1168   */\n  dup3\n    /* \"#utility.yul\":1151:1160   */\n  dup6\n    /* \"#utility.yul\":1147:1169   */\n  add\n    /* \"#utility.yul\":1115:1179   */\n  tag_13\n  jump\t// in\ntag_29:\n    /* \"#utility.yul\":1105:1179   */\n  swap2\n  pop\n    /* \"#utility.yul\":1061:1189   */\n  pop\n    /* \"#utility.yul\":845:1196   */\n  swap3\n  swap2\n  pop\n  pop\n  jump\t// out\n    /* \"contracts/core/util/MPTxManager.sol\":222:2775  contract MPTxManager is IMPTxManager, IVersion { ... */\ntag_6:\n  dataSize(sub_0)\n  dup1\n  dataOffset(sub_0)\n  0x00\n  codecopy\n  0x00\n  return\nstop\n\nsub_0: assembly {\n        /* \"contracts/core/util/MPTxManager.sol\":222:2775  contract MPTxManager is IMPTxManager, IVersion { ... */\n      mstore(0x40, 0x80)\n      callvalue\n      dup1\n      iszero\n      tag_1\n      jumpi\n      revert(0x00, 0x00)\n    tag_1:\n      pop\n      jumpi(tag_2, lt(calldatasize, 0x04))\n      shr(0xe0, calldataload(0x00))\n      dup1\n      0x0d8e6e2c\n      eq\n      tag_3\n      jumpi\n      dup1\n      0x17d7de7c\n      eq\n      tag_4\n      jumpi\n      dup1\n      0xb8c89338\n      eq\n      tag_5\n      jumpi\n      dup1\n      0xcde4c10c\n      eq\n      tag_6\n      jumpi\n      dup1\n      0xee16e639\n      eq\n      tag_7\n      jumpi\n      dup1\n      0xf3fd548f\n      eq\n      tag_8\n      jumpi\n    tag_2:\n      revert(0x00, 0x00)\n        /* \"contracts/core/util/MPTxManager.sol\":1201:1298  function getVersion() pure external returns (uint256 _version){ ... */\n    tag_3:\n      tag_9\n      tag_10\n      jump\t// in\n    tag_9:\n      mload(0x40)\n      tag_11\n      swap2\n      swap1\n      tag_12\n      jump\t// in\n    tag_11:\n      mload(0x40)\n      dup1\n      swap2\n      sub\n      swap1\n      return\n        /* \"contracts/core/util/MPTxManager.sol\":1098:1193  function getName() pure external returns (string memory _name) { ... */\n    tag_4:\n      tag_13\n      tag_14\n      jump\t// in\n    tag_13:\n      mload(0x40)\n      tag_15\n      swap2\n      swap1\n      tag_16\n      jump\t// in\n    tag_15:\n      mload(0x40)\n      dup1\n      swap2\n      sub\n      swap1\n      return\n        /* \"contracts/core/util/MPTxManager.sol\":1304:1411  function getTx(uint256 _txId) view external returns (Tx memory _tx){... */\n    tag_5:\n      tag_17\n      0x04\n      dup1\n      calldatasize\n      sub\n      dup2\n      add\n      swap1\n      tag_18\n      swap2\n      swap1\n      tag_19\n      jump\t// in\n    tag_18:\n      tag_20\n      jump\t// in\n    tag_17:\n      mload(0x40)\n      tag_21\n      swap2\n      swap1\n      tag_22\n      jump\t// in\n    tag_21:\n      mload(0x40)\n      dup1\n      swap2\n      sub\n      swap1\n      return\n        /* \"contracts/core/util/MPTxManager.sol\":2332:2510  function notifyChangeOfAddress() external adminOnly returns (bool _acknowledged) { ... */\n    tag_6:\n      tag_23\n      tag_24\n      jump\t// in\n    tag_23:\n      mload(0x40)\n      tag_25\n      swap2\n      swap1\n      tag_26\n      jump\t// in\n    tag_25:\n      mload(0x40)\n      dup1\n      swap2\n      sub\n      swap1\n      return\n        /* \"contracts/core/util/MPTxManager.sol\":1596:2324  function addTx(TxType _txType, ObjType _objType, uint256 _id, address _location, uint256 _amount, address _erc20) external mPensionsOnly returns (uint256 _txId){ ... */\n    tag_7:\n      tag_27\n      0x04\n      dup1\n      calldatasize\n      sub\n      dup2\n      add\n      swap1\n      tag_28\n      swap2\n      swap1\n      tag_29\n      jump\t// in\n    tag_28:\n      tag_30\n      jump\t// in\n    tag_27:\n      mload(0x40)\n      tag_31\n      swap2\n      swap1\n      tag_12\n      jump\t// in\n    tag_31:\n      mload(0x40)\n      dup1\n      swap2\n      sub\n      swap1\n      return\n        /* \"contracts/core/util/MPTxManager.sol\":1419:1588  function getMPensionTx(uint256 _mPensionId) view external returns (uint256 []  memory _txIds){... */\n    tag_8:\n      tag_32\n      0x04\n      dup1\n      calldatasize\n      sub\n      dup2\n      add\n      swap1\n      tag_33\n      swap2\n      swap1\n      tag_19\n      jump\t// in\n    tag_33:\n      tag_34\n      jump\t// in\n    tag_32:\n      mload(0x40)\n      tag_35\n      swap2\n      swap1\n      tag_36\n      jump\t// in\n    tag_35:\n      mload(0x40)\n      dup1\n      swap2\n      sub\n      swap1\n      return\n        /* \"contracts/core/util/MPTxManager.sol\":1201:1298  function getVersion() pure external returns (uint256 _version){ ... */\n    tag_10:\n        /* \"contracts/core/util/MPTxManager.sol\":1246:1262  uint256 _version */\n      0x00\n        /* \"contracts/core/util/MPTxManager.sol\":634:635  1 */\n      0x01\n        /* \"contracts/core/util/MPTxManager.sol\":1275:1289  return version */\n      swap1\n      pop\n        /* \"contracts/core/util/MPTxManager.sol\":1201:1298  function getVersion() pure external returns (uint256 _version){ ... */\n      swap1\n      jump\t// out\n        /* \"contracts/core/util/MPTxManager.sol\":1098:1193  function getName() pure external returns (string memory _name) { ... */\n    tag_14:\n        /* \"contracts/core/util/MPTxManager.sol\":1140:1159  string memory _name */\n      0x60\n        /* \"contracts/core/util/MPTxManager.sol\":1180:1184  name */\n      mload(0x40)\n      dup1\n      0x40\n      add\n      0x40\n      mstore\n      dup1\n      0x16\n      dup2\n      mstore\n      0x20\n      add\n      0x52455345525645445f4d505f54585f4d414e4147455200000000000000000000\n      dup2\n      mstore\n      pop\n        /* \"contracts/core/util/MPTxManager.sol\":1173:1184  return name */\n      swap1\n      pop\n        /* \"contracts/core/util/MPTxManager.sol\":1098:1193  function getName() pure external returns (string memory _name) { ... */\n      swap1\n      jump\t// out\n        /* \"contracts/core/util/MPTxManager.sol\":1304:1411  function getTx(uint256 _txId) view external returns (Tx memory _tx){... */\n    tag_20:\n        /* \"contracts/core/util/MPTxManager.sol\":1357:1370  Tx memory _tx */\n      tag_39\n      tag_40\n      jump\t// in\n    tag_39:\n        /* \"contracts/core/util/MPTxManager.sol\":1389:1395  txById */\n      0x04\n        /* \"contracts/core/util/MPTxManager.sol\":1389:1402  txById[_txId] */\n      0x00\n        /* \"contracts/core/util/MPTxManager.sol\":1396:1401  _txId */\n      dup4\n        /* \"contracts/core/util/MPTxManager.sol\":1389:1402  txById[_txId] */\n      dup2\n      mstore\n      0x20\n      add\n      swap1\n      dup2\n      mstore\n      0x20\n      add\n      0x00\n      keccak256\n        /* \"contracts/core/util/MPTxManager.sol\":1382:1402  return txById[_txId] */\n      mload(0x40)\n      dup1\n      0xe0\n      add\n      0x40\n      mstore\n      swap1\n      dup2\n      0x00\n      dup3\n      add\n      sload\n      dup2\n      mstore\n      0x20\n      add\n      0x01\n      dup3\n      add\n      0x00\n      swap1\n      sload\n      swap1\n      0x0100\n      exp\n      swap1\n      div\n      0xff\n      and\n      0x09\n      dup2\n      gt\n      iszero\n      tag_42\n      jumpi\n      tag_43\n      tag_44\n      jump\t// in\n    tag_43:\n    tag_42:\n      0x09\n      dup2\n      gt\n      iszero\n      tag_45\n      jumpi\n      tag_46\n      tag_44\n      jump\t// in\n    tag_46:\n    tag_45:\n      dup2\n      mstore\n      0x20\n      add\n      0x01\n      dup3\n      add\n      0x01\n      swap1\n      sload\n      swap1\n      0x0100\n      exp\n      swap1\n      div\n      0xffffffffffffffffffffffffffffffffffffffff\n      and\n      0xffffffffffffffffffffffffffffffffffffffff\n      and\n      0xffffffffffffffffffffffffffffffffffffffff\n      and\n      dup2\n      mstore\n      0x20\n      add\n      0x02\n      dup3\n      add\n      sload\n      dup2\n      mstore\n      0x20\n      add\n      0x03\n      dup3\n      add\n      sload\n      dup2\n      mstore\n      0x20\n      add\n      0x04\n      dup3\n      add\n      sload\n      dup2\n      mstore\n      0x20\n      add\n      0x05\n      dup3\n      add\n      0x00\n      swap1\n      sload\n      swap1\n      0x0100\n      exp\n      swap1\n      div\n      0xffffffffffffffffffffffffffffffffffffffff\n      and\n      0xffffffffffffffffffffffffffffffffffffffff\n      and\n      0xffffffffffffffffffffffffffffffffffffffff\n      and\n      dup2\n      mstore\n      pop\n      pop\n      swap1\n      pop\n        /* \"contracts/core/util/MPTxManager.sol\":1304:1411  function getTx(uint256 _txId) view external returns (Tx memory _tx){... */\n      swap2\n      swap1\n      pop\n      jump\t// out\n        /* \"contracts/core/util/MPTxManager.sol\":2332:2510  function notifyChangeOfAddress() external adminOnly returns (bool _acknowledged) { ... */\n    tag_24:\n        /* \"contracts/core/util/MPTxManager.sol\":2393:2411  bool _acknowledged */\n      0x00\n        /* \"contracts/core/util/MPTxManager.sol\":451:459  register */\n      0x00\n      0x00\n      swap1\n      sload\n      swap1\n      0x0100\n      exp\n      swap1\n      div\n      0xffffffffffffffffffffffffffffffffffffffff\n      and\n        /* \"contracts/core/util/MPTxManager.sol\":451:470  register.getAddress */\n      0xffffffffffffffffffffffffffffffffffffffff\n      and\n      0xbf40fac1\n        /* \"contracts/core/util/MPTxManager.sol\":471:487  PENSION_ADMIN_CA */\n      mload(0x40)\n      dup1\n      0x40\n      add\n      0x40\n      mstore\n      dup1\n      0x11\n      dup2\n      mstore\n      0x20\n      add\n      0x52455345525645445f4d505f41444d494e000000000000000000000000000000\n      dup2\n      mstore\n      pop\n        /* \"contracts/core/util/MPTxManager.sol\":451:488  register.getAddress(PENSION_ADMIN_CA) */\n      mload(0x40)\n      dup3\n      0xffffffff\n      and\n      0xe0\n      shl\n      dup2\n      mstore\n      0x04\n      add\n      tag_48\n      swap2\n      swap1\n      tag_16\n      jump\t// in\n    tag_48:\n      0x20\n      mload(0x40)\n      dup1\n      dup4\n      sub\n      dup2\n      dup7\n      gas\n      staticcall\n      iszero\n      dup1\n      iszero\n      tag_50\n      jumpi\n      returndatacopy(0x00, 0x00, returndatasize)\n      revert(0x00, returndatasize)\n    tag_50:\n      pop\n      pop\n      pop\n      pop\n      mload(0x40)\n      returndatasize\n      not(0x1f)\n      0x1f\n      dup3\n      add\n      and\n      dup3\n      add\n      dup1\n      0x40\n      mstore\n      pop\n      dup2\n      add\n      swap1\n      tag_51\n      swap2\n      swap1\n      tag_52\n      jump\t// in\n    tag_51:\n        /* \"contracts/core/util/MPTxManager.sol\":437:488  msg.sender == register.getAddress(PENSION_ADMIN_CA) */\n      0xffffffffffffffffffffffffffffffffffffffff\n      and\n        /* \"contracts/core/util/MPTxManager.sol\":437:447  msg.sender */\n      caller\n        /* \"contracts/core/util/MPTxManager.sol\":437:488  msg.sender == register.getAddress(PENSION_ADMIN_CA) */\n      0xffffffffffffffffffffffffffffffffffffffff\n      and\n      eq\n        /* \"contracts/core/util/MPTxManager.sol\":429:522  require(msg.sender == register.getAddress(PENSION_ADMIN_CA), \"medalion peensions admin only\") */\n      tag_53\n      jumpi\n      mload(0x40)\n      0x08c379a000000000000000000000000000000000000000000000000000000000\n      dup2\n      mstore\n      0x04\n      add\n      tag_54\n      swap1\n      tag_55\n      jump\t// in\n    tag_54:\n      mload(0x40)\n      dup1\n      swap2\n      sub\n      swap1\n      revert\n    tag_53:\n        /* \"contracts/core/util/MPTxManager.sol\":2446:2454  register */\n      0x00\n      0x00\n      swap1\n      sload\n      swap1\n      0x0100\n      exp\n      swap1\n      div\n      0xffffffffffffffffffffffffffffffffffffffff\n      and\n        /* \"contracts/core/util/MPTxManager.sol\":2446:2465  register.getAddress */\n      0xffffffffffffffffffffffffffffffffffffffff\n      and\n      0xbf40fac1\n        /* \"contracts/core/util/MPTxManager.sol\":2466:2477  REGISTER_CA */\n      mload(0x40)\n      dup1\n      0x40\n      add\n      0x40\n      mstore\n      dup1\n      0x14\n      dup2\n      mstore\n      0x20\n      add\n      0x52455345525645445f4d505f5245474953544552000000000000000000000000\n      dup2\n      mstore\n      pop\n        /* \"contracts/core/util/MPTxManager.sol\":2446:2478  register.getAddress(REGISTER_CA) */\n      mload(0x40)\n      dup3\n      0xffffffff\n      and\n      0xe0\n      shl\n      dup2\n      mstore\n      0x04\n      add\n      tag_57\n      swap2\n      swap1\n      tag_16\n      jump\t// in\n    tag_57:\n      0x20\n      mload(0x40)\n      dup1\n      dup4\n      sub\n      dup2\n      dup7\n      gas\n      staticcall\n      iszero\n      dup1\n      iszero\n      tag_59\n      jumpi\n      returndatacopy(0x00, 0x00, returndatasize)\n      revert(0x00, returndatasize)\n    tag_59:\n      pop\n      pop\n      pop\n      pop\n      mload(0x40)\n      returndatasize\n      not(0x1f)\n      0x1f\n      dup3\n      add\n      and\n      dup3\n      add\n      dup1\n      0x40\n      mstore\n      pop\n      dup2\n      add\n      swap1\n      tag_60\n      swap2\n      swap1\n      tag_52\n      jump\t// in\n    tag_60:\n        /* \"contracts/core/util/MPTxManager.sol\":2425:2433  register */\n      0x00\n      0x00\n        /* \"contracts/core/util/MPTxManager.sol\":2425:2479  register = IRegister(register.getAddress(REGISTER_CA)) */\n      0x0100\n      exp\n      dup2\n      sload\n      dup2\n      0xffffffffffffffffffffffffffffffffffffffff\n      mul\n      not\n      and\n      swap1\n      dup4\n      0xffffffffffffffffffffffffffffffffffffffff\n      and\n      mul\n      or\n      swap1\n      sstore\n      pop\n        /* \"contracts/core/util/MPTxManager.sol\":2497:2501  true */\n      0x01\n        /* \"contracts/core/util/MPTxManager.sol\":2490:2501  return true */\n      swap1\n      pop\n        /* \"contracts/core/util/MPTxManager.sol\":2332:2510  function notifyChangeOfAddress() external adminOnly returns (bool _acknowledged) { ... */\n      swap1\n      jump\t// out\n        /* \"contracts/core/util/MPTxManager.sol\":1596:2324  function addTx(TxType _txType, ObjType _objType, uint256 _id, address _location, uint256 _amount, address _erc20) external mPensionsOnly returns (uint256 _txId){ ... */\n    tag_30:\n        /* \"contracts/core/util/MPTxManager.sol\":1742:1755  uint256 _txId */\n      0x00\n        /* \"contracts/core/util/MPTxManager.sol\":321:329  register */\n      0x00\n      0x00\n      swap1\n      sload\n      swap1\n      0x0100\n      exp\n      swap1\n      div\n      0xffffffffffffffffffffffffffffffffffffffff\n      and\n        /* \"contracts/core/util/MPTxManager.sol\":321:337  register.isKnown */\n      0xffffffffffffffffffffffffffffffffffffffff\n      and\n      0x6e09999e\n        /* \"contracts/core/util/MPTxManager.sol\":338:348  msg.sender */\n      caller\n        /* \"contracts/core/util/MPTxManager.sol\":321:349  register.isKnown(msg.sender) */\n      mload(0x40)\n      dup3\n      0xffffffff\n      and\n      0xe0\n      shl\n      dup2\n      mstore\n      0x04\n      add\n      tag_62\n      swap2\n      swap1\n      tag_63\n      jump\t// in\n    tag_62:\n      0x20\n      mload(0x40)\n      dup1\n      dup4\n      sub\n      dup2\n      dup7\n      gas\n      staticcall\n      iszero\n      dup1\n      iszero\n      tag_65\n      jumpi\n      returndatacopy(0x00, 0x00, returndatasize)\n      revert(0x00, returndatasize)\n    tag_65:\n      pop\n      pop\n      pop\n      pop\n      mload(0x40)\n      returndatasize\n      not(0x1f)\n      0x1f\n      dup3\n      add\n      and\n      dup3\n      add\n      dup1\n      0x40\n      mstore\n      pop\n      dup2\n      add\n      swap1\n      tag_66\n      swap2\n      swap1\n      tag_67\n      jump\t// in\n    tag_66:\n        /* \"contracts/core/util/MPTxManager.sol\":313:369  require(register.isKnown(msg.sender), \"unknown address\") */\n      tag_68\n      jumpi\n      mload(0x40)\n      0x08c379a000000000000000000000000000000000000000000000000000000000\n      dup2\n      mstore\n      0x04\n      add\n      tag_69\n      swap1\n      tag_70\n      jump\t// in\n    tag_69:\n      mload(0x40)\n      dup1\n      swap2\n      sub\n      swap1\n      revert\n    tag_68:\n        /* \"contracts/core/util/MPTxManager.sol\":1776:1786  getIndex() */\n      tag_72\n        /* \"contracts/core/util/MPTxManager.sol\":1776:1784  getIndex */\n      tag_73\n        /* \"contracts/core/util/MPTxManager.sol\":1776:1786  getIndex() */\n      jump\t// in\n    tag_72:\n        /* \"contracts/core/util/MPTxManager.sol\":1768:1786  _txId = getIndex() */\n      swap1\n      pop\n        /* \"contracts/core/util/MPTxManager.sol\":1798:1801  ids */\n      0x03\n        /* \"contracts/core/util/MPTxManager.sol\":1807:1812  _txId */\n      dup2\n        /* \"contracts/core/util/MPTxManager.sol\":1798:1813  ids.push(_txId) */\n      swap1\n      dup1\n      0x01\n      dup2\n      sload\n      add\n      dup1\n      dup3\n      sstore\n      dup1\n      swap2\n      pop\n      pop\n      0x01\n      swap1\n      sub\n      swap1\n      0x00\n      mstore\n      keccak256(0x00, 0x20)\n      add\n      0x00\n      swap1\n      swap2\n      swap1\n      swap2\n      swap1\n      swap2\n      pop\n      sstore\n        /* \"contracts/core/util/MPTxManager.sol\":1841:2236  Tx({... */\n      mload(0x40)\n      dup1\n      0xe0\n      add\n      0x40\n      mstore\n      dup1\n        /* \"contracts/core/util/MPTxManager.sol\":1884:1889  _txId */\n      dup3\n        /* \"contracts/core/util/MPTxManager.sol\":1841:2236  Tx({... */\n      dup2\n      mstore\n      0x20\n      add\n        /* \"contracts/core/util/MPTxManager.sol\":1934:1941  _txType */\n      dup9\n        /* \"contracts/core/util/MPTxManager.sol\":1841:2236  Tx({... */\n      0x09\n      dup2\n      gt\n      iszero\n      tag_75\n      jumpi\n      tag_76\n      tag_44\n      jump\t// in\n    tag_76:\n    tag_75:\n      dup2\n      mstore\n      0x20\n      add\n        /* \"contracts/core/util/MPTxManager.sol\":1987:1996  _location */\n      dup6\n        /* \"contracts/core/util/MPTxManager.sol\":1841:2236  Tx({... */\n      0xffffffffffffffffffffffffffffffffffffffff\n      and\n      dup2\n      mstore\n      0x20\n      add\n        /* \"contracts/core/util/MPTxManager.sol\":2042:2045  _id */\n      dup7\n        /* \"contracts/core/util/MPTxManager.sol\":1841:2236  Tx({... */\n      dup2\n      mstore\n      0x20\n      add\n        /* \"contracts/core/util/MPTxManager.sol\":2088:2103  block.timestamp */\n      timestamp\n        /* \"contracts/core/util/MPTxManager.sol\":1841:2236  Tx({... */\n      dup2\n      mstore\n      0x20\n      add\n        /* \"contracts/core/util/MPTxManager.sol\":2147:2154  _amount */\n      dup5\n        /* \"contracts/core/util/MPTxManager.sol\":1841:2236  Tx({... */\n      dup2\n      mstore\n      0x20\n      add\n        /* \"contracts/core/util/MPTxManager.sol\":2198:2204  _erc20 */\n      dup4\n        /* \"contracts/core/util/MPTxManager.sol\":1841:2236  Tx({... */\n      0xffffffffffffffffffffffffffffffffffffffff\n      and\n      dup2\n      mstore\n      pop\n        /* \"contracts/core/util/MPTxManager.sol\":1825:1831  txById */\n      0x04\n        /* \"contracts/core/util/MPTxManager.sol\":1825:1838  txById[_txId] */\n      0x00\n        /* \"contracts/core/util/MPTxManager.sol\":1832:1837  _txId */\n      dup4\n        /* \"contracts/core/util/MPTxManager.sol\":1825:1838  txById[_txId] */\n      dup2\n      mstore\n      0x20\n      add\n      swap1\n      dup2\n      mstore\n      0x20\n      add\n      0x00\n      keccak256\n        /* \"contracts/core/util/MPTxManager.sol\":1825:2236  txById[_txId] = Tx({... */\n      0x00\n      dup3\n      add\n      mload\n      dup2\n      0x00\n      add\n      sstore\n      0x20\n      dup3\n      add\n      mload\n      dup2\n      0x01\n      add\n      exp(0x0100, 0x00)\n      dup2\n      sload\n      dup2\n      0xff\n      mul\n      not\n      and\n      swap1\n      dup4\n      0x09\n      dup2\n      gt\n      iszero\n      tag_77\n      jumpi\n      tag_78\n      tag_44\n      jump\t// in\n    tag_78:\n    tag_77:\n      mul\n      or\n      swap1\n      sstore\n      pop\n      0x40\n      dup3\n      add\n      mload\n      dup2\n      0x01\n      add\n      exp(0x0100, 0x01)\n      dup2\n      sload\n      dup2\n      0xffffffffffffffffffffffffffffffffffffffff\n      mul\n      not\n      and\n      swap1\n      dup4\n      0xffffffffffffffffffffffffffffffffffffffff\n      and\n      mul\n      or\n      swap1\n      sstore\n      pop\n      0x60\n      dup3\n      add\n      mload\n      dup2\n      0x02\n      add\n      sstore\n      0x80\n      dup3\n      add\n      mload\n      dup2\n      0x03\n      add\n      sstore\n      0xa0\n      dup3\n      add\n      mload\n      dup2\n      0x04\n      add\n      sstore\n      0xc0\n      dup3\n      add\n      mload\n      dup2\n      0x05\n      add\n      exp(0x0100, 0x00)\n      dup2\n      sload\n      dup2\n      0xffffffffffffffffffffffffffffffffffffffff\n      mul\n      not\n      and\n      swap1\n      dup4\n      0xffffffffffffffffffffffffffffffffffffffff\n      and\n      mul\n      or\n      swap1\n      sstore\n      pop\n      swap1\n      pop\n      pop\n        /* \"contracts/core/util/MPTxManager.sol\":2247:2265  txIdsByIdByObjType */\n      0x05\n        /* \"contracts/core/util/MPTxManager.sol\":2247:2275  txIdsByIdByObjType[_objType] */\n      0x00\n        /* \"contracts/core/util/MPTxManager.sol\":2266:2274  _objType */\n      dup8\n        /* \"contracts/core/util/MPTxManager.sol\":2247:2275  txIdsByIdByObjType[_objType] */\n      0x05\n      dup2\n      gt\n      iszero\n      tag_79\n      jumpi\n      tag_80\n      tag_44\n      jump\t// in\n    tag_80:\n    tag_79:\n      0x05\n      dup2\n      gt\n      iszero\n      tag_81\n      jumpi\n      tag_82\n      tag_44\n      jump\t// in\n    tag_82:\n    tag_81:\n      dup2\n      mstore\n      0x20\n      add\n      swap1\n      dup2\n      mstore\n      0x20\n      add\n      0x00\n      keccak256\n        /* \"contracts/core/util/MPTxManager.sol\":2247:2280  txIdsByIdByObjType[_objType][_id] */\n      0x00\n        /* \"contracts/core/util/MPTxManager.sol\":2276:2279  _id */\n      dup7\n        /* \"contracts/core/util/MPTxManager.sol\":2247:2280  txIdsByIdByObjType[_objType][_id] */\n      dup2\n      mstore\n      0x20\n      add\n      swap1\n      dup2\n      mstore\n      0x20\n      add\n      0x00\n      keccak256\n        /* \"contracts/core/util/MPTxManager.sol\":2286:2291  _txId */\n      dup2\n        /* \"contracts/core/util/MPTxManager.sol\":2247:2292  txIdsByIdByObjType[_objType][_id].push(_txId) */\n      swap1\n      dup1\n      0x01\n      dup2\n      sload\n      add\n      dup1\n      dup3\n      sstore\n      dup1\n      swap2\n      pop\n      pop\n      0x01\n      swap1\n      sub\n      swap1\n      0x00\n      mstore\n      keccak256(0x00, 0x20)\n      add\n      0x00\n      swap1\n      swap2\n      swap1\n      swap2\n      swap1\n      swap2\n      pop\n      sstore\n        /* \"contracts/core/util/MPTxManager.sol\":1596:2324  function addTx(TxType _txType, ObjType _objType, uint256 _id, address _location, uint256 _amount, address _erc20) external mPensionsOnly returns (uint256 _txId){ ... */\n      swap7\n      swap6\n      pop\n      pop\n      pop\n      pop\n      pop\n      pop\n      jump\t// out\n        /* \"contracts/core/util/MPTxManager.sol\":1419:1588  function getMPensionTx(uint256 _mPensionId) view external returns (uint256 []  memory _txIds){... */\n    tag_34:\n        /* \"contracts/core/util/MPTxManager.sol\":1486:1511  uint256 []  memory _txIds */\n      0x60\n        /* \"contracts/core/util/MPTxManager.sol\":1530:1548  txIdsByIdByObjType */\n      0x05\n        /* \"contracts/core/util/MPTxManager.sol\":1530:1566  txIdsByIdByObjType[ObjType.MPENSION] */\n      0x00\n        /* \"contracts/core/util/MPTxManager.sol\":1549:1565  ObjType.MPENSION */\n      0x00\n        /* \"contracts/core/util/MPTxManager.sol\":1530:1566  txIdsByIdByObjType[ObjType.MPENSION] */\n      0x05\n      dup2\n      gt\n      iszero\n      tag_85\n      jumpi\n      tag_86\n      tag_44\n      jump\t// in\n    tag_86:\n    tag_85:\n      0x05\n      dup2\n      gt\n      iszero\n      tag_87\n      jumpi\n      tag_88\n      tag_44\n      jump\t// in\n    tag_88:\n    tag_87:\n      dup2\n      mstore\n      0x20\n      add\n      swap1\n      dup2\n      mstore\n      0x20\n      add\n      0x00\n      keccak256\n        /* \"contracts/core/util/MPTxManager.sol\":1530:1579  txIdsByIdByObjType[ObjType.MPENSION][_mPensionId] */\n      0x00\n        /* \"contracts/core/util/MPTxManager.sol\":1567:1578  _mPensionId */\n      dup4\n        /* \"contracts/core/util/MPTxManager.sol\":1530:1579  txIdsByIdByObjType[ObjType.MPENSION][_mPensionId] */\n      dup2\n      mstore\n      0x20\n      add\n      swap1\n      dup2\n      mstore\n      0x20\n      add\n      0x00\n      keccak256\n        /* \"contracts/core/util/MPTxManager.sol\":1523:1579  return txIdsByIdByObjType[ObjType.MPENSION][_mPensionId] */\n      dup1\n      sload\n      dup1\n      0x20\n      mul\n      0x20\n      add\n      mload(0x40)\n      swap1\n      dup2\n      add\n      0x40\n      mstore\n      dup1\n      swap3\n      swap2\n      swap1\n      dup2\n      dup2\n      mstore\n      0x20\n      add\n      dup3\n      dup1\n      sload\n      dup1\n      iszero\n      tag_89\n      jumpi\n      0x20\n      mul\n      dup3\n      add\n      swap2\n      swap1\n      0x00\n      mstore\n      keccak256(0x00, 0x20)\n      swap1\n    tag_90:\n      dup2\n      sload\n      dup2\n      mstore\n      0x20\n      add\n      swap1\n      0x01\n      add\n      swap1\n      dup1\n      dup4\n      gt\n      tag_90\n      jumpi\n    tag_89:\n      pop\n      pop\n      pop\n      pop\n      pop\n      swap1\n      pop\n        /* \"contracts/core/util/MPTxManager.sol\":1419:1588  function getMPensionTx(uint256 _mPensionId) view external returns (uint256 []  memory _txIds){... */\n      swap2\n      swap1\n      pop\n      jump\t// out\n        /* \"contracts/core/util/MPTxManager.sol\":2657:2772  function getIndex() internal returns (uint256 _index) {... */\n    tag_73:\n        /* \"contracts/core/util/MPTxManager.sol\":2695:2709  uint256 _index */\n      0x00\n        /* \"contracts/core/util/MPTxManager.sol\":2731:2736  index */\n      0x02\n      0x00\n        /* \"contracts/core/util/MPTxManager.sol\":2731:2738  index++ */\n      dup2\n      sload\n      dup1\n      swap3\n      swap2\n      swap1\n      tag_92\n      swap1\n      tag_93\n      jump\t// in\n    tag_92:\n      swap2\n      swap1\n      pop\n      sstore\n        /* \"contracts/core/util/MPTxManager.sol\":2722:2738  _index = index++ */\n      swap1\n      pop\n        /* \"contracts/core/util/MPTxManager.sol\":2657:2772  function getIndex() internal returns (uint256 _index) {... */\n      swap1\n      jump\t// out\n    tag_40:\n      mload(0x40)\n      dup1\n      0xe0\n      add\n      0x40\n      mstore\n      dup1\n      0x00\n      dup2\n      mstore\n      0x20\n      add\n      0x00\n      0x09\n      dup2\n      gt\n      iszero\n      tag_94\n      jumpi\n      tag_95\n      tag_44\n      jump\t// in\n    tag_95:\n    tag_94:\n      dup2\n      mstore\n      0x20\n      add\n      and(0xffffffffffffffffffffffffffffffffffffffff, 0x00)\n      dup2\n      mstore\n      0x20\n      add\n      0x00\n      dup2\n      mstore\n      0x20\n      add\n      0x00\n      dup2\n      mstore\n      0x20\n      add\n      0x00\n      dup2\n      mstore\n      0x20\n      add\n      and(0xffffffffffffffffffffffffffffffffffffffff, 0x00)\n      dup2\n      mstore\n      pop\n      swap1\n      jump\t// out\n        /* \"#utility.yul\":7:84   */\n    tag_96:\n        /* \"#utility.yul\":44:51   */\n      0x00\n        /* \"#utility.yul\":73:78   */\n      dup2\n        /* \"#utility.yul\":62:78   */\n      swap1\n      pop\n        /* \"#utility.yul\":7:84   */\n      swap2\n      swap1\n      pop\n      jump\t// out\n        /* \"#utility.yul\":90:208   */\n    tag_97:\n        /* \"#utility.yul\":177:201   */\n      tag_143\n        /* \"#utility.yul\":195:200   */\n      dup2\n        /* \"#utility.yul\":177:201   */\n      tag_96\n      jump\t// in\n    tag_143:\n        /* \"#utility.yul\":172:175   */\n      dup3\n        /* \"#utility.yul\":165:202   */\n      mstore\n        /* \"#utility.yul\":90:208   */\n      pop\n      pop\n      jump\t// out\n        /* \"#utility.yul\":214:436   */\n    tag_12:\n        /* \"#utility.yul\":307:311   */\n      0x00\n        /* \"#utility.yul\":345:347   */\n      0x20\n        /* \"#utility.yul\":334:343   */\n      dup3\n        /* \"#utility.yul\":330:348   */\n      add\n        /* \"#utility.yul\":322:348   */\n      swap1\n      pop\n        /* \"#utility.yul\":358:429   */\n      tag_145\n        /* \"#utility.yul\":426:427   */\n      0x00\n        /* \"#utility.yul\":415:424   */\n      dup4\n        /* \"#utility.yul\":411:428   */\n      add\n        /* \"#utility.yul\":402:408   */\n      dup5\n        /* \"#utility.yul\":358:429   */\n      tag_97\n      jump\t// in\n    tag_145:\n        /* \"#utility.yul\":214:436   */\n      swap3\n      swap2\n      pop\n      pop\n      jump\t// out\n        /* \"#utility.yul\":442:541   */\n    tag_98:\n        /* \"#utility.yul\":494:500   */\n      0x00\n        /* \"#utility.yul\":528:533   */\n      dup2\n        /* \"#utility.yul\":522:534   */\n      mload\n        /* \"#utility.yul\":512:534   */\n      swap1\n      pop\n        /* \"#utility.yul\":442:541   */\n      swap2\n      swap1\n      pop\n      jump\t// out\n        /* \"#utility.yul\":547:716   */\n    tag_99:\n        /* \"#utility.yul\":631:642   */\n      0x00\n        /* \"#utility.yul\":665:671   */\n      dup3\n        /* \"#utility.yul\":660:663   */\n      dup3\n        /* \"#utility.yul\":653:672   */\n      mstore\n        /* \"#utility.yul\":705:709   */\n      0x20\n        /* \"#utility.yul\":700:703   */\n      dup3\n        /* \"#utility.yul\":696:710   */\n      add\n        /* \"#utility.yul\":681:710   */\n      swap1\n      pop\n        /* \"#utility.yul\":547:716   */\n      swap3\n      swap2\n      pop\n      pop\n      jump\t// out\n        /* \"#utility.yul\":722:861   */\n    tag_100:\n        /* \"#utility.yul\":811:817   */\n      dup3\n        /* \"#utility.yul\":806:809   */\n      dup2\n        /* \"#utility.yul\":801:804   */\n      dup4\n        /* \"#utility.yul\":795:818   */\n      mcopy\n        /* \"#utility.yul\":852:853   */\n      0x00\n        /* \"#utility.yul\":843:849   */\n      dup4\n        /* \"#utility.yul\":838:841   */\n      dup4\n        /* \"#utility.yul\":834:850   */\n      add\n        /* \"#utility.yul\":827:854   */\n      mstore\n        /* \"#utility.yul\":722:861   */\n      pop\n      pop\n      pop\n      jump\t// out\n        /* \"#utility.yul\":867:969   */\n    tag_101:\n        /* \"#utility.yul\":908:914   */\n      0x00\n        /* \"#utility.yul\":959:961   */\n      0x1f\n        /* \"#utility.yul\":955:962   */\n      not\n        /* \"#utility.yul\":950:952   */\n      0x1f\n        /* \"#utility.yul\":943:948   */\n      dup4\n        /* \"#utility.yul\":939:953   */\n      add\n        /* \"#utility.yul\":935:963   */\n      and\n        /* \"#utility.yul\":925:963   */\n      swap1\n      pop\n        /* \"#utility.yul\":867:969   */\n      swap2\n      swap1\n      pop\n      jump\t// out\n        /* \"#utility.yul\":975:1352   */\n    tag_102:\n        /* \"#utility.yul\":1063:1066   */\n      0x00\n        /* \"#utility.yul\":1091:1130   */\n      tag_151\n        /* \"#utility.yul\":1124:1129   */\n      dup3\n        /* \"#utility.yul\":1091:1130   */\n      tag_98\n      jump\t// in\n    tag_151:\n        /* \"#utility.yul\":1146:1217   */\n      tag_152\n        /* \"#utility.yul\":1210:1216   */\n      dup2\n        /* \"#utility.yul\":1205:1208   */\n      dup6\n        /* \"#utility.yul\":1146:1217   */\n      tag_99\n      jump\t// in\n    tag_152:\n        /* \"#utility.yul\":1139:1217   */\n      swap4\n      pop\n        /* \"#utility.yul\":1226:1291   */\n      tag_153\n        /* \"#utility.yul\":1284:1290   */\n      dup2\n        /* \"#utility.yul\":1279:1282   */\n      dup6\n        /* \"#utility.yul\":1272:1276   */\n      0x20\n        /* \"#utility.yul\":1265:1270   */\n      dup7\n        /* \"#utility.yul\":1261:1277   */\n      add\n        /* \"#utility.yul\":1226:1291   */\n      tag_100\n      jump\t// in\n    tag_153:\n        /* \"#utility.yul\":1316:1345   */\n      tag_154\n        /* \"#utility.yul\":1338:1344   */\n      dup2\n        /* \"#utility.yul\":1316:1345   */\n      tag_101\n      jump\t// in\n    tag_154:\n        /* \"#utility.yul\":1311:1314   */\n      dup5\n        /* \"#utility.yul\":1307:1346   */\n      add\n        /* \"#utility.yul\":1300:1346   */\n      swap2\n      pop\n        /* \"#utility.yul\":1067:1352   */\n      pop\n        /* \"#utility.yul\":975:1352   */\n      swap3\n      swap2\n      pop\n      pop\n      jump\t// out\n        /* \"#utility.yul\":1358:1671   */\n    tag_16:\n        /* \"#utility.yul\":1471:1475   */\n      0x00\n        /* \"#utility.yul\":1509:1511   */\n      0x20\n        /* \"#utility.yul\":1498:1507   */\n      dup3\n        /* \"#utility.yul\":1494:1512   */\n      add\n        /* \"#utility.yul\":1486:1512   */\n      swap1\n      pop\n        /* \"#utility.yul\":1558:1567   */\n      dup2\n        /* \"#utility.yul\":1552:1556   */\n      dup2\n        /* \"#utility.yul\":1548:1568   */\n      sub\n        /* \"#utility.yul\":1544:1545   */\n      0x00\n        /* \"#utility.yul\":1533:1542   */\n      dup4\n        /* \"#utility.yul\":1529:1546   */\n      add\n        /* \"#utility.yul\":1522:1569   */\n      mstore\n        /* \"#utility.yul\":1586:1664   */\n      tag_156\n        /* \"#utility.yul\":1659:1663   */\n      dup2\n        /* \"#utility.yul\":1650:1656   */\n      dup5\n        /* \"#utility.yul\":1586:1664   */\n      tag_102\n      jump\t// in\n    tag_156:\n        /* \"#utility.yul\":1578:1664   */\n      swap1\n      pop\n        /* \"#utility.yul\":1358:1671   */\n      swap3\n      swap2\n      pop\n      pop\n      jump\t// out\n        /* \"#utility.yul\":1758:1875   */\n    tag_104:\n        /* \"#utility.yul\":1867:1868   */\n      0x00\n        /* \"#utility.yul\":1864:1865   */\n      0x00\n        /* \"#utility.yul\":1857:1869   */\n      revert\n        /* \"#utility.yul\":2004:2126   */\n    tag_106:\n        /* \"#utility.yul\":2077:2101   */\n      tag_161\n        /* \"#utility.yul\":2095:2100   */\n      dup2\n        /* \"#utility.yul\":2077:2101   */\n      tag_96\n      jump\t// in\n    tag_161:\n        /* \"#utility.yul\":2070:2075   */\n      dup2\n        /* \"#utility.yul\":2067:2102   */\n      eq\n        /* \"#utility.yul\":2057:2120   */\n      tag_162\n      jumpi\n        /* \"#utility.yul\":2116:2117   */\n      0x00\n        /* \"#utility.yul\":2113:2114   */\n      0x00\n        /* \"#utility.yul\":2106:2118   */\n      revert\n        /* \"#utility.yul\":2057:2120   */\n    tag_162:\n        /* \"#utility.yul\":2004:2126   */\n      pop\n      jump\t// out\n        /* \"#utility.yul\":2132:2271   */\n    tag_107:\n        /* \"#utility.yul\":2178:2183   */\n      0x00\n        /* \"#utility.yul\":2216:2222   */\n      dup2\n        /* \"#utility.yul\":2203:2223   */\n      calldataload\n        /* \"#utility.yul\":2194:2223   */\n      swap1\n      pop\n        /* \"#utility.yul\":2232:2265   */\n      tag_164\n        /* \"#utility.yul\":2259:2264   */\n      dup2\n        /* \"#utility.yul\":2232:2265   */\n      tag_106\n      jump\t// in\n    tag_164:\n        /* \"#utility.yul\":2132:2271   */\n      swap3\n      swap2\n      pop\n      pop\n      jump\t// out\n        /* \"#utility.yul\":2277:2606   */\n    tag_19:\n        /* \"#utility.yul\":2336:2342   */\n      0x00\n        /* \"#utility.yul\":2385:2387   */\n      0x20\n        /* \"#utility.yul\":2373:2382   */\n      dup3\n        /* \"#utility.yul\":2364:2371   */\n      dup5\n        /* \"#utility.yul\":2360:2383   */\n      sub\n        /* \"#utility.yul\":2356:2388   */\n      slt\n        /* \"#utility.yul\":2353:2472   */\n      iszero\n      tag_166\n      jumpi\n        /* \"#utility.yul\":2391:2470   */\n      tag_167\n      tag_104\n      jump\t// in\n    tag_167:\n        /* \"#utility.yul\":2353:2472   */\n    tag_166:\n        /* \"#utility.yul\":2511:2512   */\n      0x00\n        /* \"#utility.yul\":2536:2589   */\n      tag_168\n        /* \"#utility.yul\":2581:2588   */\n      dup5\n        /* \"#utility.yul\":2572:2578   */\n      dup3\n        /* \"#utility.yul\":2561:2570   */\n      dup6\n        /* \"#utility.yul\":2557:2579   */\n      add\n        /* \"#utility.yul\":2536:2589   */\n      tag_107\n      jump\t// in\n    tag_168:\n        /* \"#utility.yul\":2526:2589   */\n      swap2\n      pop\n        /* \"#utility.yul\":2482:2599   */\n      pop\n        /* \"#utility.yul\":2277:2606   */\n      swap3\n      swap2\n      pop\n      pop\n      jump\t// out\n        /* \"#utility.yul\":2612:2720   */\n    tag_108:\n        /* \"#utility.yul\":2689:2713   */\n      tag_170\n        /* \"#utility.yul\":2707:2712   */\n      dup2\n        /* \"#utility.yul\":2689:2713   */\n      tag_96\n      jump\t// in\n    tag_170:\n        /* \"#utility.yul\":2684:2687   */\n      dup3\n        /* \"#utility.yul\":2677:2714   */\n      mstore\n        /* \"#utility.yul\":2612:2720   */\n      pop\n      pop\n      jump\t// out\n        /* \"#utility.yul\":2726:2906   */\n    tag_44:\n        /* \"#utility.yul\":2774:2851   */\n      0x4e487b7100000000000000000000000000000000000000000000000000000000\n        /* \"#utility.yul\":2771:2772   */\n      0x00\n        /* \"#utility.yul\":2764:2852   */\n      mstore\n        /* \"#utility.yul\":2871:2875   */\n      0x21\n        /* \"#utility.yul\":2868:2869   */\n      0x04\n        /* \"#utility.yul\":2861:2876   */\n      mstore\n        /* \"#utility.yul\":2895:2899   */\n      0x24\n        /* \"#utility.yul\":2892:2893   */\n      0x00\n        /* \"#utility.yul\":2885:2900   */\n      revert\n        /* \"#utility.yul\":2912:3028   */\n    tag_109:\n        /* \"#utility.yul\":2995:2997   */\n      0x0a\n        /* \"#utility.yul\":2988:2993   */\n      dup2\n        /* \"#utility.yul\":2985:2998   */\n      lt\n        /* \"#utility.yul\":2975:3022   */\n      tag_173\n      jumpi\n        /* \"#utility.yul\":3002:3020   */\n      tag_174\n      tag_44\n      jump\t// in\n    tag_174:\n        /* \"#utility.yul\":2975:3022   */\n    tag_173:\n        /* \"#utility.yul\":2912:3028   */\n      pop\n      jump\t// out\n        /* \"#utility.yul\":3034:3165   */\n    tag_110:\n        /* \"#utility.yul\":3081:3088   */\n      0x00\n        /* \"#utility.yul\":3110:3115   */\n      dup2\n        /* \"#utility.yul\":3099:3115   */\n      swap1\n      pop\n        /* \"#utility.yul\":3116:3159   */\n      tag_176\n        /* \"#utility.yul\":3153:3158   */\n      dup3\n        /* \"#utility.yul\":3116:3159   */\n      tag_109\n      jump\t// in\n    tag_176:\n        /* \"#utility.yul\":3034:3165   */\n      swap2\n      swap1\n      pop\n      jump\t// out\n        /* \"#utility.yul\":3171:3302   */\n    tag_111:\n        /* \"#utility.yul\":3229:3238   */\n      0x00\n        /* \"#utility.yul\":3262:3296   */\n      tag_178\n        /* \"#utility.yul\":3290:3295   */\n      dup3\n        /* \"#utility.yul\":3262:3296   */\n      tag_110\n      jump\t// in\n    tag_178:\n        /* \"#utility.yul\":3249:3296   */\n      swap1\n      pop\n        /* \"#utility.yul\":3171:3302   */\n      swap2\n      swap1\n      pop\n      jump\t// out\n        /* \"#utility.yul\":3308:3445   */\n    tag_112:\n        /* \"#utility.yul\":3393:3438   */\n      tag_180\n        /* \"#utility.yul\":3432:3437   */\n      dup2\n        /* \"#utility.yul\":3393:3438   */\n      tag_111\n      jump\t// in\n    tag_180:\n        /* \"#utility.yul\":3388:3391   */\n      dup3\n        /* \"#utility.yul\":3381:3439   */\n      mstore\n        /* \"#utility.yul\":3308:3445   */\n      pop\n      pop\n      jump\t// out\n        /* \"#utility.yul\":3451:3577   */\n    tag_113:\n        /* \"#utility.yul\":3488:3495   */\n      0x00\n        /* \"#utility.yul\":3528:3570   */\n      0xffffffffffffffffffffffffffffffffffffffff\n        /* \"#utility.yul\":3521:3526   */\n      dup3\n        /* \"#utility.yul\":3517:3571   */\n      and\n        /* \"#utility.yul\":3506:3571   */\n      swap1\n      pop\n        /* \"#utility.yul\":3451:3577   */\n      swap2\n      swap1\n      pop\n      jump\t// out\n        /* \"#utility.yul\":3583:3679   */\n    tag_114:\n        /* \"#utility.yul\":3620:3627   */\n      0x00\n        /* \"#utility.yul\":3649:3673   */\n      tag_183\n        /* \"#utility.yul\":3667:3672   */\n      dup3\n        /* \"#utility.yul\":3649:3673   */\n      tag_113\n      jump\t// in\n    tag_183:\n        /* \"#utility.yul\":3638:3673   */\n      swap1\n      pop\n        /* \"#utility.yul\":3583:3679   */\n      swap2\n      swap1\n      pop\n      jump\t// out\n        /* \"#utility.yul\":3685:3793   */\n    tag_115:\n        /* \"#utility.yul\":3762:3786   */\n      tag_185\n        /* \"#utility.yul\":3780:3785   */\n      dup2\n        /* \"#utility.yul\":3762:3786   */\n      tag_114\n      jump\t// in\n    tag_185:\n        /* \"#utility.yul\":3757:3760   */\n      dup3\n        /* \"#utility.yul\":3750:3787   */\n      mstore\n        /* \"#utility.yul\":3685:3793   */\n      pop\n      pop\n      jump\t// out\n        /* \"#utility.yul\":3829:5213   */\n    tag_116:\n        /* \"#utility.yul\":3964:3968   */\n      0xe0\n        /* \"#utility.yul\":3959:3962   */\n      dup3\n        /* \"#utility.yul\":3955:3969   */\n      add\n        /* \"#utility.yul\":4049:4053   */\n      0x00\n        /* \"#utility.yul\":4042:4047   */\n      dup3\n        /* \"#utility.yul\":4038:4054   */\n      add\n        /* \"#utility.yul\":4032:4055   */\n      mload\n        /* \"#utility.yul\":4068:4131   */\n      tag_187\n        /* \"#utility.yul\":4125:4129   */\n      0x00\n        /* \"#utility.yul\":4120:4123   */\n      dup6\n        /* \"#utility.yul\":4116:4130   */\n      add\n        /* \"#utility.yul\":4102:4114   */\n      dup3\n        /* \"#utility.yul\":4068:4131   */\n      tag_108\n      jump\t// in\n    tag_187:\n        /* \"#utility.yul\":3979:4141   */\n      pop\n        /* \"#utility.yul\":4225:4229   */\n      0x20\n        /* \"#utility.yul\":4218:4223   */\n      dup3\n        /* \"#utility.yul\":4214:4230   */\n      add\n        /* \"#utility.yul\":4208:4231   */\n      mload\n        /* \"#utility.yul\":4244:4315   */\n      tag_188\n        /* \"#utility.yul\":4309:4313   */\n      0x20\n        /* \"#utility.yul\":4304:4307   */\n      dup6\n        /* \"#utility.yul\":4300:4314   */\n      add\n        /* \"#utility.yul\":4286:4298   */\n      dup3\n        /* \"#utility.yul\":4244:4315   */\n      tag_112\n      jump\t// in\n    tag_188:\n        /* \"#utility.yul\":4151:4325   */\n      pop\n        /* \"#utility.yul\":4411:4415   */\n      0x40\n        /* \"#utility.yul\":4404:4409   */\n      dup3\n        /* \"#utility.yul\":4400:4416   */\n      add\n        /* \"#utility.yul\":4394:4417   */\n      mload\n        /* \"#utility.yul\":4430:4493   */\n      tag_189\n        /* \"#utility.yul\":4487:4491   */\n      0x40\n        /* \"#utility.yul\":4482:4485   */\n      dup6\n        /* \"#utility.yul\":4478:4492   */\n      add\n        /* \"#utility.yul\":4464:4476   */\n      dup3\n        /* \"#utility.yul\":4430:4493   */\n      tag_115\n      jump\t// in\n    tag_189:\n        /* \"#utility.yul\":4335:4503   */\n      pop\n        /* \"#utility.yul\":4589:4593   */\n      0x60\n        /* \"#utility.yul\":4582:4587   */\n      dup3\n        /* \"#utility.yul\":4578:4594   */\n      add\n        /* \"#utility.yul\":4572:4595   */\n      mload\n        /* \"#utility.yul\":4608:4671   */\n      tag_190\n        /* \"#utility.yul\":4665:4669   */\n      0x60\n        /* \"#utility.yul\":4660:4663   */\n      dup6\n        /* \"#utility.yul\":4656:4670   */\n      add\n        /* \"#utility.yul\":4642:4654   */\n      dup3\n        /* \"#utility.yul\":4608:4671   */\n      tag_108\n      jump\t// in\n    tag_190:\n        /* \"#utility.yul\":4513:4681   */\n      pop\n        /* \"#utility.yul\":4763:4767   */\n      0x80\n        /* \"#utility.yul\":4756:4761   */\n      dup3\n        /* \"#utility.yul\":4752:4768   */\n      add\n        /* \"#utility.yul\":4746:4769   */\n      mload\n        /* \"#utility.yul\":4782:4845   */\n      tag_191\n        /* \"#utility.yul\":4839:4843   */\n      0x80\n        /* \"#utility.yul\":4834:4837   */\n      dup6\n        /* \"#utility.yul\":4830:4844   */\n      add\n        /* \"#utility.yul\":4816:4828   */\n      dup3\n        /* \"#utility.yul\":4782:4845   */\n      tag_108\n      jump\t// in\n    tag_191:\n        /* \"#utility.yul\":4691:4855   */\n      pop\n        /* \"#utility.yul\":4939:4943   */\n      0xa0\n        /* \"#utility.yul\":4932:4937   */\n      dup3\n        /* \"#utility.yul\":4928:4944   */\n      add\n        /* \"#utility.yul\":4922:4945   */\n      mload\n        /* \"#utility.yul\":4958:5021   */\n      tag_192\n        /* \"#utility.yul\":5015:5019   */\n      0xa0\n        /* \"#utility.yul\":5010:5013   */\n      dup6\n        /* \"#utility.yul\":5006:5020   */\n      add\n        /* \"#utility.yul\":4992:5004   */\n      dup3\n        /* \"#utility.yul\":4958:5021   */\n      tag_108\n      jump\t// in\n    tag_192:\n        /* \"#utility.yul\":4865:5031   */\n      pop\n        /* \"#utility.yul\":5114:5118   */\n      0xc0\n        /* \"#utility.yul\":5107:5112   */\n      dup3\n        /* \"#utility.yul\":5103:5119   */\n      add\n        /* \"#utility.yul\":5097:5120   */\n      mload\n        /* \"#utility.yul\":5133:5196   */\n      tag_193\n        /* \"#utility.yul\":5190:5194   */\n      0xc0\n        /* \"#utility.yul\":5185:5188   */\n      dup6\n        /* \"#utility.yul\":5181:5195   */\n      add\n        /* \"#utility.yul\":5167:5179   */\n      dup3\n        /* \"#utility.yul\":5133:5196   */\n      tag_115\n      jump\t// in\n    tag_193:\n        /* \"#utility.yul\":5041:5206   */\n      pop\n        /* \"#utility.yul\":3933:5213   */\n      pop\n        /* \"#utility.yul\":3829:5213   */\n      pop\n      pop\n      jump\t// out\n        /* \"#utility.yul\":5219:5518   */\n    tag_22:\n        /* \"#utility.yul\":5350:5354   */\n      0x00\n        /* \"#utility.yul\":5388:5391   */\n      0xe0\n        /* \"#utility.yul\":5377:5386   */\n      dup3\n        /* \"#utility.yul\":5373:5392   */\n      add\n        /* \"#utility.yul\":5365:5392   */\n      swap1\n      pop\n        /* \"#utility.yul\":5402:5511   */\n      tag_195\n        /* \"#utility.yul\":5508:5509   */\n      0x00\n        /* \"#utility.yul\":5497:5506   */\n      dup4\n        /* \"#utility.yul\":5493:5510   */\n      add\n        /* \"#utility.yul\":5484:5490   */\n      dup5\n        /* \"#utility.yul\":5402:5511   */\n      tag_116\n      jump\t// in\n    tag_195:\n        /* \"#utility.yul\":5219:5518   */\n      swap3\n      swap2\n      pop\n      pop\n      jump\t// out\n        /* \"#utility.yul\":5524:5614   */\n    tag_117:\n        /* \"#utility.yul\":5558:5565   */\n      0x00\n        /* \"#utility.yul\":5601:5606   */\n      dup2\n        /* \"#utility.yul\":5594:5607   */\n      iszero\n        /* \"#utility.yul\":5587:5608   */\n      iszero\n        /* \"#utility.yul\":5576:5608   */\n      swap1\n      pop\n        /* \"#utility.yul\":5524:5614   */\n      swap2\n      swap1\n      pop\n      jump\t// out\n        /* \"#utility.yul\":5620:5729   */\n    tag_118:\n        /* \"#utility.yul\":5701:5722   */\n      tag_198\n        /* \"#utility.yul\":5716:5721   */\n      dup2\n        /* \"#utility.yul\":5701:5722   */\n      tag_117\n      jump\t// in\n    tag_198:\n        /* \"#utility.yul\":5696:5699   */\n      dup3\n        /* \"#utility.yul\":5689:5723   */\n      mstore\n        /* \"#utility.yul\":5620:5729   */\n      pop\n      pop\n      jump\t// out\n        /* \"#utility.yul\":5735:5945   */\n    tag_26:\n        /* \"#utility.yul\":5822:5826   */\n      0x00\n        /* \"#utility.yul\":5860:5862   */\n      0x20\n        /* \"#utility.yul\":5849:5858   */\n      dup3\n        /* \"#utility.yul\":5845:5863   */\n      add\n        /* \"#utility.yul\":5837:5863   */\n      swap1\n      pop\n        /* \"#utility.yul\":5873:5938   */\n      tag_200\n        /* \"#utility.yul\":5935:5936   */\n      0x00\n        /* \"#utility.yul\":5924:5933   */\n      dup4\n        /* \"#utility.yul\":5920:5937   */\n      add\n        /* \"#utility.yul\":5911:5917   */\n      dup5\n        /* \"#utility.yul\":5873:5938   */\n      tag_118\n      jump\t// in\n    tag_200:\n        /* \"#utility.yul\":5735:5945   */\n      swap3\n      swap2\n      pop\n      pop\n      jump\t// out\n        /* \"#utility.yul\":5951:6061   */\n    tag_119:\n        /* \"#utility.yul\":6034:6036   */\n      0x0a\n        /* \"#utility.yul\":6027:6032   */\n      dup2\n        /* \"#utility.yul\":6024:6037   */\n      lt\n        /* \"#utility.yul\":6014:6055   */\n      tag_202\n      jumpi\n        /* \"#utility.yul\":6051:6052   */\n      0x00\n        /* \"#utility.yul\":6048:6049   */\n      0x00\n        /* \"#utility.yul\":6041:6053   */\n      revert\n        /* \"#utility.yul\":6014:6055   */\n    tag_202:\n        /* \"#utility.yul\":5951:6061   */\n      pop\n      jump\t// out\n        /* \"#utility.yul\":6067:6226   */\n    tag_120:\n        /* \"#utility.yul\":6123:6128   */\n      0x00\n        /* \"#utility.yul\":6161:6167   */\n      dup2\n        /* \"#utility.yul\":6148:6168   */\n      calldataload\n        /* \"#utility.yul\":6139:6168   */\n      swap1\n      pop\n        /* \"#utility.yul\":6177:6220   */\n      tag_204\n        /* \"#utility.yul\":6214:6219   */\n      dup2\n        /* \"#utility.yul\":6177:6220   */\n      tag_119\n      jump\t// in\n    tag_204:\n        /* \"#utility.yul\":6067:6226   */\n      swap3\n      swap2\n      pop\n      pop\n      jump\t// out\n        /* \"#utility.yul\":6232:6342   */\n    tag_121:\n        /* \"#utility.yul\":6316:6317   */\n      0x06\n        /* \"#utility.yul\":6309:6314   */\n      dup2\n        /* \"#utility.yul\":6306:6318   */\n      lt\n        /* \"#utility.yul\":6296:6336   */\n      tag_206\n      jumpi\n        /* \"#utility.yul\":6332:6333   */\n      0x00\n        /* \"#utility.yul\":6329:6330   */\n      0x00\n        /* \"#utility.yul\":6322:6334   */\n      revert\n        /* \"#utility.yul\":6296:6336   */\n    tag_206:\n        /* \"#utility.yul\":6232:6342   */\n      pop\n      jump\t// out\n        /* \"#utility.yul\":6348:6509   */\n    tag_122:\n        /* \"#utility.yul\":6405:6410   */\n      0x00\n        /* \"#utility.yul\":6443:6449   */\n      dup2\n        /* \"#utility.yul\":6430:6450   */\n      calldataload\n        /* \"#utility.yul\":6421:6450   */\n      swap1\n      pop\n        /* \"#utility.yul\":6459:6503   */\n      tag_208\n        /* \"#utility.yul\":6497:6502   */\n      dup2\n        /* \"#utility.yul\":6459:6503   */\n      tag_121\n      jump\t// in\n    tag_208:\n        /* \"#utility.yul\":6348:6509   */\n      swap3\n      swap2\n      pop\n      pop\n      jump\t// out\n        /* \"#utility.yul\":6515:6637   */\n    tag_123:\n        /* \"#utility.yul\":6588:6612   */\n      tag_210\n        /* \"#utility.yul\":6606:6611   */\n      dup2\n        /* \"#utility.yul\":6588:6612   */\n      tag_114\n      jump\t// in\n    tag_210:\n        /* \"#utility.yul\":6581:6586   */\n      dup2\n        /* \"#utility.yul\":6578:6613   */\n      eq\n        /* \"#utility.yul\":6568:6631   */\n      tag_211\n      jumpi\n        /* \"#utility.yul\":6627:6628   */\n      0x00\n        /* \"#utility.yul\":6624:6625   */\n      0x00\n        /* \"#utility.yul\":6617:6629   */\n      revert\n        /* \"#utility.yul\":6568:6631   */\n    tag_211:\n        /* \"#utility.yul\":6515:6637   */\n      pop\n      jump\t// out\n        /* \"#utility.yul\":6643:6782   */\n    tag_124:\n        /* \"#utility.yul\":6689:6694   */\n      0x00\n        /* \"#utility.yul\":6727:6733   */\n      dup2\n        /* \"#utility.yul\":6714:6734   */\n      calldataload\n        /* \"#utility.yul\":6705:6734   */\n      swap1\n      pop\n        /* \"#utility.yul\":6743:6776   */\n      tag_213\n        /* \"#utility.yul\":6770:6775   */\n      dup2\n        /* \"#utility.yul\":6743:6776   */\n      tag_123\n      jump\t// in\n    tag_213:\n        /* \"#utility.yul\":6643:6782   */\n      swap3\n      swap2\n      pop\n      pop\n      jump\t// out\n        /* \"#utility.yul\":6788:7887   */\n    tag_29:\n        /* \"#utility.yul\":6913:6919   */\n      0x00\n        /* \"#utility.yul\":6921:6927   */\n      0x00\n        /* \"#utility.yul\":6929:6935   */\n      0x00\n        /* \"#utility.yul\":6937:6943   */\n      0x00\n        /* \"#utility.yul\":6945:6951   */\n      0x00\n        /* \"#utility.yul\":6953:6959   */\n      0x00\n        /* \"#utility.yul\":7002:7005   */\n      0xc0\n        /* \"#utility.yul\":6990:6999   */\n      dup8\n        /* \"#utility.yul\":6981:6988   */\n      dup10\n        /* \"#utility.yul\":6977:7000   */\n      sub\n        /* \"#utility.yul\":6973:7006   */\n      slt\n        /* \"#utility.yul\":6970:7090   */\n      iszero\n      tag_215\n      jumpi\n        /* \"#utility.yul\":7009:7088   */\n      tag_216\n      tag_104\n      jump\t// in\n    tag_216:\n        /* \"#utility.yul\":6970:7090   */\n    tag_215:\n        /* \"#utility.yul\":7129:7130   */\n      0x00\n        /* \"#utility.yul\":7154:7217   */\n      tag_217\n        /* \"#utility.yul\":7209:7216   */\n      dup10\n        /* \"#utility.yul\":7200:7206   */\n      dup3\n        /* \"#utility.yul\":7189:7198   */\n      dup11\n        /* \"#utility.yul\":7185:7207   */\n      add\n        /* \"#utility.yul\":7154:7217   */\n      tag_120\n      jump\t// in\n    tag_217:\n        /* \"#utility.yul\":7144:7217   */\n      swap7\n      pop\n        /* \"#utility.yul\":7100:7227   */\n      pop\n        /* \"#utility.yul\":7266:7268   */\n      0x20\n        /* \"#utility.yul\":7292:7356   */\n      tag_218\n        /* \"#utility.yul\":7348:7355   */\n      dup10\n        /* \"#utility.yul\":7339:7345   */\n      dup3\n        /* \"#utility.yul\":7328:7337   */\n      dup11\n        /* \"#utility.yul\":7324:7346   */\n      add\n        /* \"#utility.yul\":7292:7356   */\n      tag_122\n      jump\t// in\n    tag_218:\n        /* \"#utility.yul\":7282:7356   */\n      swap6\n      pop\n        /* \"#utility.yul\":7237:7366   */\n      pop\n        /* \"#utility.yul\":7405:7407   */\n      0x40\n        /* \"#utility.yul\":7431:7484   */\n      tag_219\n        /* \"#utility.yul\":7476:7483   */\n      dup10\n        /* \"#utility.yul\":7467:7473   */\n      dup3\n        /* \"#utility.yul\":7456:7465   */\n      dup11\n        /* \"#utility.yul\":7452:7474   */\n      add\n        /* \"#utility.yul\":7431:7484   */\n      tag_107\n      jump\t// in\n    tag_219:\n        /* \"#utility.yul\":7421:7484   */\n      swap5\n      pop\n        /* \"#utility.yul\":7376:7494   */\n      pop\n        /* \"#utility.yul\":7533:7535   */\n      0x60\n        /* \"#utility.yul\":7559:7612   */\n      tag_220\n        /* \"#utility.yul\":7604:7611   */\n      dup10\n        /* \"#utility.yul\":7595:7601   */\n      dup3\n        /* \"#utility.yul\":7584:7593   */\n      dup11\n        /* \"#utility.yul\":7580:7602   */\n      add\n        /* \"#utility.yul\":7559:7612   */\n      tag_124\n      jump\t// in\n    tag_220:\n        /* \"#utility.yul\":7549:7612   */\n      swap4\n      pop\n        /* \"#utility.yul\":7504:7622   */\n      pop\n        /* \"#utility.yul\":7661:7664   */\n      0x80\n        /* \"#utility.yul\":7688:7741   */\n      tag_221\n        /* \"#utility.yul\":7733:7740   */\n      dup10\n        /* \"#utility.yul\":7724:7730   */\n      dup3\n        /* \"#utility.yul\":7713:7722   */\n      dup11\n        /* \"#utility.yul\":7709:7731   */\n      add\n        /* \"#utility.yul\":7688:7741   */\n      tag_107\n      jump\t// in\n    tag_221:\n        /* \"#utility.yul\":7678:7741   */\n      swap3\n      pop\n        /* \"#utility.yul\":7632:7751   */\n      pop\n        /* \"#utility.yul\":7790:7793   */\n      0xa0\n        /* \"#utility.yul\":7817:7870   */\n      tag_222\n        /* \"#utility.yul\":7862:7869   */\n      dup10\n        /* \"#utility.yul\":7853:7859   */\n      dup3\n        /* \"#utility.yul\":7842:7851   */\n      dup11\n        /* \"#utility.yul\":7838:7860   */\n      add\n        /* \"#utility.yul\":7817:7870   */\n      tag_124\n      jump\t// in\n    tag_222:\n        /* \"#utility.yul\":7807:7870   */\n      swap2\n      pop\n        /* \"#utility.yul\":7761:7880   */\n      pop\n        /* \"#utility.yul\":6788:7887   */\n      swap3\n      swap6\n      pop\n      swap3\n      swap6\n      pop\n      swap3\n      swap6\n      jump\t// out\n        /* \"#utility.yul\":7893:8007   */\n    tag_125:\n        /* \"#utility.yul\":7960:7966   */\n      0x00\n        /* \"#utility.yul\":7994:7999   */\n      dup2\n        /* \"#utility.yul\":7988:8000   */\n      mload\n        /* \"#utility.yul\":7978:8000   */\n      swap1\n      pop\n        /* \"#utility.yul\":7893:8007   */\n      swap2\n      swap1\n      pop\n      jump\t// out\n        /* \"#utility.yul\":8013:8197   */\n    tag_126:\n        /* \"#utility.yul\":8112:8123   */\n      0x00\n        /* \"#utility.yul\":8146:8152   */\n      dup3\n        /* \"#utility.yul\":8141:8144   */\n      dup3\n        /* \"#utility.yul\":8134:8153   */\n      mstore\n        /* \"#utility.yul\":8186:8190   */\n      0x20\n        /* \"#utility.yul\":8181:8184   */\n      dup3\n        /* \"#utility.yul\":8177:8191   */\n      add\n        /* \"#utility.yul\":8162:8191   */\n      swap1\n      pop\n        /* \"#utility.yul\":8013:8197   */\n      swap3\n      swap2\n      pop\n      pop\n      jump\t// out\n        /* \"#utility.yul\":8203:8335   */\n    tag_127:\n        /* \"#utility.yul\":8270:8274   */\n      0x00\n        /* \"#utility.yul\":8293:8296   */\n      dup2\n        /* \"#utility.yul\":8285:8296   */\n      swap1\n      pop\n        /* \"#utility.yul\":8323:8327   */\n      0x20\n        /* \"#utility.yul\":8318:8321   */\n      dup3\n        /* \"#utility.yul\":8314:8328   */\n      add\n        /* \"#utility.yul\":8306:8328   */\n      swap1\n      pop\n        /* \"#utility.yul\":8203:8335   */\n      swap2\n      swap1\n      pop\n      jump\t// out\n        /* \"#utility.yul\":8341:8520   */\n    tag_128:\n        /* \"#utility.yul\":8410:8420   */\n      0x00\n        /* \"#utility.yul\":8431:8477   */\n      tag_227\n        /* \"#utility.yul\":8473:8476   */\n      dup4\n        /* \"#utility.yul\":8465:8471   */\n      dup4\n        /* \"#utility.yul\":8431:8477   */\n      tag_108\n      jump\t// in\n    tag_227:\n        /* \"#utility.yul\":8509:8513   */\n      0x20\n        /* \"#utility.yul\":8504:8507   */\n      dup4\n        /* \"#utility.yul\":8500:8514   */\n      add\n        /* \"#utility.yul\":8486:8514   */\n      swap1\n      pop\n        /* \"#utility.yul\":8341:8520   */\n      swap3\n      swap2\n      pop\n      pop\n      jump\t// out\n        /* \"#utility.yul\":8526:8639   */\n    tag_129:\n        /* \"#utility.yul\":8596:8600   */\n      0x00\n        /* \"#utility.yul\":8628:8632   */\n      0x20\n        /* \"#utility.yul\":8623:8626   */\n      dup3\n        /* \"#utility.yul\":8619:8633   */\n      add\n        /* \"#utility.yul\":8611:8633   */\n      swap1\n      pop\n        /* \"#utility.yul\":8526:8639   */\n      swap2\n      swap1\n      pop\n      jump\t// out\n        /* \"#utility.yul\":8675:9407   */\n    tag_130:\n        /* \"#utility.yul\":8794:8797   */\n      0x00\n        /* \"#utility.yul\":8823:8877   */\n      tag_230\n        /* \"#utility.yul\":8871:8876   */\n      dup3\n        /* \"#utility.yul\":8823:8877   */\n      tag_125\n      jump\t// in\n    tag_230:\n        /* \"#utility.yul\":8893:8979   */\n      tag_231\n        /* \"#utility.yul\":8972:8978   */\n      dup2\n        /* \"#utility.yul\":8967:8970   */\n      dup6\n        /* \"#utility.yul\":8893:8979   */\n      tag_126\n      jump\t// in\n    tag_231:\n        /* \"#utility.yul\":8886:8979   */\n      swap4\n      pop\n        /* \"#utility.yul\":9003:9059   */\n      tag_232\n        /* \"#utility.yul\":9053:9058   */\n      dup4\n        /* \"#utility.yul\":9003:9059   */\n      tag_127\n      jump\t// in\n    tag_232:\n        /* \"#utility.yul\":9082:9089   */\n      dup1\n        /* \"#utility.yul\":9113:9114   */\n      0x00\n        /* \"#utility.yul\":9098:9382   */\n    tag_233:\n        /* \"#utility.yul\":9123:9129   */\n      dup4\n        /* \"#utility.yul\":9120:9121   */\n      dup2\n        /* \"#utility.yul\":9117:9130   */\n      lt\n        /* \"#utility.yul\":9098:9382   */\n      iszero\n      tag_235\n      jumpi\n        /* \"#utility.yul\":9199:9205   */\n      dup2\n        /* \"#utility.yul\":9193:9206   */\n      mload\n        /* \"#utility.yul\":9226:9289   */\n      tag_236\n        /* \"#utility.yul\":9285:9288   */\n      dup9\n        /* \"#utility.yul\":9270:9283   */\n      dup3\n        /* \"#utility.yul\":9226:9289   */\n      tag_128\n      jump\t// in\n    tag_236:\n        /* \"#utility.yul\":9219:9289   */\n      swap8\n      pop\n        /* \"#utility.yul\":9312:9372   */\n      tag_237\n        /* \"#utility.yul\":9365:9371   */\n      dup4\n        /* \"#utility.yul\":9312:9372   */\n      tag_129\n      jump\t// in\n    tag_237:\n        /* \"#utility.yul\":9302:9372   */\n      swap3\n      pop\n        /* \"#utility.yul\":9158:9382   */\n      pop\n        /* \"#utility.yul\":9145:9146   */\n      0x01\n        /* \"#utility.yul\":9142:9143   */\n      dup2\n        /* \"#utility.yul\":9138:9147   */\n      add\n        /* \"#utility.yul\":9133:9147   */\n      swap1\n      pop\n        /* \"#utility.yul\":9098:9382   */\n      jump(tag_233)\n    tag_235:\n        /* \"#utility.yul\":9102:9116   */\n      pop\n        /* \"#utility.yul\":9398:9401   */\n      dup6\n        /* \"#utility.yul\":9391:9401   */\n      swap4\n      pop\n        /* \"#utility.yul\":8799:9407   */\n      pop\n      pop\n      pop\n        /* \"#utility.yul\":8675:9407   */\n      swap3\n      swap2\n      pop\n      pop\n      jump\t// out\n        /* \"#utility.yul\":9413:9786   */\n    tag_36:\n        /* \"#utility.yul\":9556:9560   */\n      0x00\n        /* \"#utility.yul\":9594:9596   */\n      0x20\n        /* \"#utility.yul\":9583:9592   */\n      dup3\n        /* \"#utility.yul\":9579:9597   */\n      add\n        /* \"#utility.yul\":9571:9597   */\n      swap1\n      pop\n        /* \"#utility.yul\":9643:9652   */\n      dup2\n        /* \"#utility.yul\":9637:9641   */\n      dup2\n        /* \"#utility.yul\":9633:9653   */\n      sub\n        /* \"#utility.yul\":9629:9630   */\n      0x00\n        /* \"#utility.yul\":9618:9627   */\n      dup4\n        /* \"#utility.yul\":9614:9631   */\n      add\n        /* \"#utility.yul\":9607:9654   */\n      mstore\n        /* \"#utility.yul\":9671:9779   */\n      tag_239\n        /* \"#utility.yul\":9774:9778   */\n      dup2\n        /* \"#utility.yul\":9765:9771   */\n      dup5\n        /* \"#utility.yul\":9671:9779   */\n      tag_130\n      jump\t// in\n    tag_239:\n        /* \"#utility.yul\":9663:9779   */\n      swap1\n      pop\n        /* \"#utility.yul\":9413:9786   */\n      swap3\n      swap2\n      pop\n      pop\n      jump\t// out\n        /* \"#utility.yul\":9792:9935   */\n    tag_131:\n        /* \"#utility.yul\":9849:9854   */\n      0x00\n        /* \"#utility.yul\":9880:9886   */\n      dup2\n        /* \"#utility.yul\":9874:9887   */\n      mload\n        /* \"#utility.yul\":9865:9887   */\n      swap1\n      pop\n        /* \"#utility.yul\":9896:9929   */\n      tag_241\n        /* \"#utility.yul\":9923:9928   */\n      dup2\n        /* \"#utility.yul\":9896:9929   */\n      tag_123\n      jump\t// in\n    tag_241:\n        /* \"#utility.yul\":9792:9935   */\n      swap3\n      swap2\n      pop\n      pop\n      jump\t// out\n        /* \"#utility.yul\":9941:10292   */\n    tag_52:\n        /* \"#utility.yul\":10011:10017   */\n      0x00\n        /* \"#utility.yul\":10060:10062   */\n      0x20\n        /* \"#utility.yul\":10048:10057   */\n      dup3\n        /* \"#utility.yul\":10039:10046   */\n      dup5\n        /* \"#utility.yul\":10035:10058   */\n      sub\n        /* \"#utility.yul\":10031:10063   */\n      slt\n        /* \"#utility.yul\":10028:10147   */\n      iszero\n      tag_243\n      jumpi\n        /* \"#utility.yul\":10066:10145   */\n      tag_244\n      tag_104\n      jump\t// in\n    tag_244:\n        /* \"#utility.yul\":10028:10147   */\n    tag_243:\n        /* \"#utility.yul\":10186:10187   */\n      0x00\n        /* \"#utility.yul\":10211:10275   */\n      tag_245\n        /* \"#utility.yul\":10267:10274   */\n      dup5\n        /* \"#utility.yul\":10258:10264   */\n      dup3\n        /* \"#utility.yul\":10247:10256   */\n      dup6\n        /* \"#utility.yul\":10243:10265   */\n      add\n        /* \"#utility.yul\":10211:10275   */\n      tag_131\n      jump\t// in\n    tag_245:\n        /* \"#utility.yul\":10201:10275   */\n      swap2\n      pop\n        /* \"#utility.yul\":10157:10285   */\n      pop\n        /* \"#utility.yul\":9941:10292   */\n      swap3\n      swap2\n      pop\n      pop\n      jump\t// out\n        /* \"#utility.yul\":10298:10477   */\n    tag_132:\n        /* \"#utility.yul\":10438:10469   */\n      0x6d6564616c696f6e207065656e73696f6e732061646d696e206f6e6c79000000\n        /* \"#utility.yul\":10434:10435   */\n      0x00\n        /* \"#utility.yul\":10426:10432   */\n      dup3\n        /* \"#utility.yul\":10422:10436   */\n      add\n        /* \"#utility.yul\":10415:10470   */\n      mstore\n        /* \"#utility.yul\":10298:10477   */\n      pop\n      jump\t// out\n        /* \"#utility.yul\":10483:10849   */\n    tag_133:\n        /* \"#utility.yul\":10625:10628   */\n      0x00\n        /* \"#utility.yul\":10646:10713   */\n      tag_248\n        /* \"#utility.yul\":10710:10712   */\n      0x1d\n        /* \"#utility.yul\":10705:10708   */\n      dup4\n        /* \"#utility.yul\":10646:10713   */\n      tag_99\n      jump\t// in\n    tag_248:\n        /* \"#utility.yul\":10639:10713   */\n      swap2\n      pop\n        /* \"#utility.yul\":10722:10815   */\n      tag_249\n        /* \"#utility.yul\":10811:10814   */\n      dup3\n        /* \"#utility.yul\":10722:10815   */\n      tag_132\n      jump\t// in\n    tag_249:\n        /* \"#utility.yul\":10840:10842   */\n      0x20\n        /* \"#utility.yul\":10835:10838   */\n      dup3\n        /* \"#utility.yul\":10831:10843   */\n      add\n        /* \"#utility.yul\":10824:10843   */\n      swap1\n      pop\n        /* \"#utility.yul\":10483:10849   */\n      swap2\n      swap1\n      pop\n      jump\t// out\n        /* \"#utility.yul\":10855:11274   */\n    tag_55:\n        /* \"#utility.yul\":11021:11025   */\n      0x00\n        /* \"#utility.yul\":11059:11061   */\n      0x20\n        /* \"#utility.yul\":11048:11057   */\n      dup3\n        /* \"#utility.yul\":11044:11062   */\n      add\n        /* \"#utility.yul\":11036:11062   */\n      swap1\n      pop\n        /* \"#utility.yul\":11108:11117   */\n      dup2\n        /* \"#utility.yul\":11102:11106   */\n      dup2\n        /* \"#utility.yul\":11098:11118   */\n      sub\n        /* \"#utility.yul\":11094:11095   */\n      0x00\n        /* \"#utility.yul\":11083:11092   */\n      dup4\n        /* \"#utility.yul\":11079:11096   */\n      add\n        /* \"#utility.yul\":11072:11119   */\n      mstore\n        /* \"#utility.yul\":11136:11267   */\n      tag_251\n        /* \"#utility.yul\":11262:11266   */\n      dup2\n        /* \"#utility.yul\":11136:11267   */\n      tag_133\n      jump\t// in\n    tag_251:\n        /* \"#utility.yul\":11128:11267   */\n      swap1\n      pop\n        /* \"#utility.yul\":10855:11274   */\n      swap2\n      swap1\n      pop\n      jump\t// out\n        /* \"#utility.yul\":11280:11398   */\n    tag_134:\n        /* \"#utility.yul\":11367:11391   */\n      tag_253\n        /* \"#utility.yul\":11385:11390   */\n      dup2\n        /* \"#utility.yul\":11367:11391   */\n      tag_114\n      jump\t// in\n    tag_253:\n        /* \"#utility.yul\":11362:11365   */\n      dup3\n        /* \"#utility.yul\":11355:11392   */\n      mstore\n        /* \"#utility.yul\":11280:11398   */\n      pop\n      pop\n      jump\t// out\n        /* \"#utility.yul\":11404:11626   */\n    tag_63:\n        /* \"#utility.yul\":11497:11501   */\n      0x00\n        /* \"#utility.yul\":11535:11537   */\n      0x20\n        /* \"#utility.yul\":11524:11533   */\n      dup3\n        /* \"#utility.yul\":11520:11538   */\n      add\n        /* \"#utility.yul\":11512:11538   */\n      swap1\n      pop\n        /* \"#utility.yul\":11548:11619   */\n      tag_255\n        /* \"#utility.yul\":11616:11617   */\n      0x00\n        /* \"#utility.yul\":11605:11614   */\n      dup4\n        /* \"#utility.yul\":11601:11618   */\n      add\n        /* \"#utility.yul\":11592:11598   */\n      dup5\n        /* \"#utility.yul\":11548:11619   */\n      tag_134\n      jump\t// in\n    tag_255:\n        /* \"#utility.yul\":11404:11626   */\n      swap3\n      swap2\n      pop\n      pop\n      jump\t// out\n        /* \"#utility.yul\":11632:11748   */\n    tag_135:\n        /* \"#utility.yul\":11702:11723   */\n      tag_257\n        /* \"#utility.yul\":11717:11722   */\n      dup2\n        /* \"#utility.yul\":11702:11723   */\n      tag_117\n      jump\t// in\n    tag_257:\n        /* \"#utility.yul\":11695:11700   */\n      dup2\n        /* \"#utility.yul\":11692:11724   */\n      eq\n        /* \"#utility.yul\":11682:11742   */\n      tag_258\n      jumpi\n        /* \"#utility.yul\":11738:11739   */\n      0x00\n        /* \"#utility.yul\":11735:11736   */\n      0x00\n        /* \"#utility.yul\":11728:11740   */\n      revert\n        /* \"#utility.yul\":11682:11742   */\n    tag_258:\n        /* \"#utility.yul\":11632:11748   */\n      pop\n      jump\t// out\n        /* \"#utility.yul\":11754:11891   */\n    tag_136:\n        /* \"#utility.yul\":11808:11813   */\n      0x00\n        /* \"#utility.yul\":11839:11845   */\n      dup2\n        /* \"#utility.yul\":11833:11846   */\n      mload\n        /* \"#utility.yul\":11824:11846   */\n      swap1\n      pop\n        /* \"#utility.yul\":11855:11885   */\n      tag_260\n        /* \"#utility.yul\":11879:11884   */\n      dup2\n        /* \"#utility.yul\":11855:11885   */\n      tag_135\n      jump\t// in\n    tag_260:\n        /* \"#utility.yul\":11754:11891   */\n      swap3\n      swap2\n      pop\n      pop\n      jump\t// out\n        /* \"#utility.yul\":11897:12242   */\n    tag_67:\n        /* \"#utility.yul\":11964:11970   */\n      0x00\n        /* \"#utility.yul\":12013:12015   */\n      0x20\n        /* \"#utility.yul\":12001:12010   */\n      dup3\n        /* \"#utility.yul\":11992:11999   */\n      dup5\n        /* \"#utility.yul\":11988:12011   */\n      sub\n        /* \"#utility.yul\":11984:12016   */\n      slt\n        /* \"#utility.yul\":11981:12100   */\n      iszero\n      tag_262\n      jumpi\n        /* \"#utility.yul\":12019:12098   */\n      tag_263\n      tag_104\n      jump\t// in\n    tag_263:\n        /* \"#utility.yul\":11981:12100   */\n    tag_262:\n        /* \"#utility.yul\":12139:12140   */\n      0x00\n        /* \"#utility.yul\":12164:12225   */\n      tag_264\n        /* \"#utility.yul\":12217:12224   */\n      dup5\n        /* \"#utility.yul\":12208:12214   */\n      dup3\n        /* \"#utility.yul\":12197:12206   */\n      dup6\n        /* \"#utility.yul\":12193:12215   */\n      add\n        /* \"#utility.yul\":12164:12225   */\n      tag_136\n      jump\t// in\n    tag_264:\n        /* \"#utility.yul\":12154:12225   */\n      swap2\n      pop\n        /* \"#utility.yul\":12110:12235   */\n      pop\n        /* \"#utility.yul\":11897:12242   */\n      swap3\n      swap2\n      pop\n      pop\n      jump\t// out\n        /* \"#utility.yul\":12248:12413   */\n    tag_137:\n        /* \"#utility.yul\":12388:12405   */\n      0x756e6b6e6f776e20616464726573730000000000000000000000000000000000\n        /* \"#utility.yul\":12384:12385   */\n      0x00\n        /* \"#utility.yul\":12376:12382   */\n      dup3\n        /* \"#utility.yul\":12372:12386   */\n      add\n        /* \"#utility.yul\":12365:12406   */\n      mstore\n        /* \"#utility.yul\":12248:12413   */\n      pop\n      jump\t// out\n        /* \"#utility.yul\":12419:12785   */\n    tag_138:\n        /* \"#utility.yul\":12561:12564   */\n      0x00\n        /* \"#utility.yul\":12582:12649   */\n      tag_267\n        /* \"#utility.yul\":12646:12648   */\n      0x0f\n        /* \"#utility.yul\":12641:12644   */\n      dup4\n        /* \"#utility.yul\":12582:12649   */\n      tag_99\n      jump\t// in\n    tag_267:\n        /* \"#utility.yul\":12575:12649   */\n      swap2\n      pop\n        /* \"#utility.yul\":12658:12751   */\n      tag_268\n        /* \"#utility.yul\":12747:12750   */\n      dup3\n        /* \"#utility.yul\":12658:12751   */\n      tag_137\n      jump\t// in\n    tag_268:\n        /* \"#utility.yul\":12776:12778   */\n      0x20\n        /* \"#utility.yul\":12771:12774   */\n      dup3\n        /* \"#utility.yul\":12767:12779   */\n      add\n        /* \"#utility.yul\":12760:12779   */\n      swap1\n      pop\n        /* \"#utility.yul\":12419:12785   */\n      swap2\n      swap1\n      pop\n      jump\t// out\n        /* \"#utility.yul\":12791:13210   */\n    tag_70:\n        /* \"#utility.yul\":12957:12961   */\n      0x00\n        /* \"#utility.yul\":12995:12997   */\n      0x20\n        /* \"#utility.yul\":12984:12993   */\n      dup3\n        /* \"#utility.yul\":12980:12998   */\n      add\n        /* \"#utility.yul\":12972:12998   */\n      swap1\n      pop\n        /* \"#utility.yul\":13044:13053   */\n      dup2\n        /* \"#utility.yul\":13038:13042   */\n      dup2\n        /* \"#utility.yul\":13034:13054   */\n      sub\n        /* \"#utility.yul\":13030:13031   */\n      0x00\n        /* \"#utility.yul\":13019:13028   */\n      dup4\n        /* \"#utility.yul\":13015:13032   */\n      add\n        /* \"#utility.yul\":13008:13055   */\n      mstore\n        /* \"#utility.yul\":13072:13203   */\n      tag_270\n        /* \"#utility.yul\":13198:13202   */\n      dup2\n        /* \"#utility.yul\":13072:13203   */\n      tag_138\n      jump\t// in\n    tag_270:\n        /* \"#utility.yul\":13064:13203   */\n      swap1\n      pop\n        /* \"#utility.yul\":12791:13210   */\n      swap2\n      swap1\n      pop\n      jump\t// out\n        /* \"#utility.yul\":13216:13396   */\n    tag_139:\n        /* \"#utility.yul\":13264:13341   */\n      0x4e487b7100000000000000000000000000000000000000000000000000000000\n        /* \"#utility.yul\":13261:13262   */\n      0x00\n        /* \"#utility.yul\":13254:13342   */\n      mstore\n        /* \"#utility.yul\":13361:13365   */\n      0x11\n        /* \"#utility.yul\":13358:13359   */\n      0x04\n        /* \"#utility.yul\":13351:13366   */\n      mstore\n        /* \"#utility.yul\":13385:13389   */\n      0x24\n        /* \"#utility.yul\":13382:13383   */\n      0x00\n        /* \"#utility.yul\":13375:13390   */\n      revert\n        /* \"#utility.yul\":13402:13635   */\n    tag_93:\n        /* \"#utility.yul\":13441:13444   */\n      0x00\n        /* \"#utility.yul\":13464:13488   */\n      tag_273\n        /* \"#utility.yul\":13482:13487   */\n      dup3\n        /* \"#utility.yul\":13464:13488   */\n      tag_96\n      jump\t// in\n    tag_273:\n        /* \"#utility.yul\":13455:13488   */\n      swap2\n      pop\n        /* \"#utility.yul\":13510:13576   */\n      0xffffffffffffffffffffffffffffffffffffffffffffffffffffffffffffffff\n        /* \"#utility.yul\":13503:13508   */\n      dup3\n        /* \"#utility.yul\":13500:13577   */\n      sub\n        /* \"#utility.yul\":13497:13600   */\n      tag_274\n      jumpi\n        /* \"#utility.yul\":13580:13598   */\n      tag_275\n      tag_139\n      jump\t// in\n    tag_275:\n        /* \"#utility.yul\":13497:13600   */\n    tag_274:\n        /* \"#utility.yul\":13627:13628   */\n      0x01\n        /* \"#utility.yul\":13620:13625   */\n      dup3\n        /* \"#utility.yul\":13616:13629   */\n      add\n        /* \"#utility.yul\":13609:13629   */\n      swap1\n      pop\n        /* \"#utility.yul\":13402:13635   */\n      swap2\n      swap1\n      pop\n      jump\t// out\n\n    auxdata: 0xa2646970667358221220b8460e6127e4e4cc799b700ab6a7213ef0f54445fd1bbb5a9b6b80bf109ddfc264736f6c634300081e0033\n}\n",
				"bytecode": {
					"linkReferences": {},
					"object": "608060405234801561000f575f5ffd5b5060405161111838038061111883398181016040528101906100319190610114565b805f5f6101000a81548173ffffffffffffffffffffffffffffffffffffffff021916908373ffffffffffffffffffffffffffffffffffffffff1602179055503060015f6101000a81548173ffffffffffffffffffffffffffffffffffffffff021916908373ffffffffffffffffffffffffffffffffffffffff1602179055505061013f565b5f5ffd5b5f73ffffffffffffffffffffffffffffffffffffffff82169050919050565b5f6100e3826100ba565b9050919050565b6100f3816100d9565b81146100fd575f5ffd5b50565b5f8151905061010e816100ea565b92915050565b5f60208284031215610129576101286100b6565b5b5f61013684828501610100565b91505092915050565b610fcc8061014c5f395ff3fe608060405234801561000f575f5ffd5b5060043610610060575f3560e01c80630d8e6e2c1461006457806317d7de7c14610082578063b8c89338146100a0578063cde4c10c146100d0578063ee16e639146100ee578063f3fd548f1461011e575b5f5ffd5b61006c61014e565b604051610079919061093a565b60405180910390f35b61008a610156565b60405161009791906109c3565b60405180910390f35b6100ba60048036038101906100b59190610a11565b610193565b6040516100c79190610b89565b60405180910390f35b6100d86102ca565b6040516100e59190610bbc565b60405180910390f35b61010860048036038101906101039190610c45565b610517565b604051610115919061093a565b60405180910390f35b61013860048036038101906101339190610a11565b6107f8565b6040516101459190610d76565b60405180910390f35b5f6001905090565b60606040518060400160405280601681526020017f52455345525645445f4d505f54585f4d414e4147455200000000000000000000815250905090565b61019b6108ae565b60045f8381526020019081526020015f206040518060e00160405290815f8201548152602001600182015f9054906101000a900460ff1660098111156101e4576101e3610a4b565b5b60098111156101f6576101f5610a4b565b5b81526020016001820160019054906101000a900473ffffffffffffffffffffffffffffffffffffffff1673ffffffffffffffffffffffffffffffffffffffff1673ffffffffffffffffffffffffffffffffffffffff168152602001600282015481526020016003820154815260200160048201548152602001600582015f9054906101000a900473ffffffffffffffffffffffffffffffffffffffff1673ffffffffffffffffffffffffffffffffffffffff1673ffffffffffffffffffffffffffffffffffffffff16815250509050919050565b5f5f5f9054906101000a900473ffffffffffffffffffffffffffffffffffffffff1673ffffffffffffffffffffffffffffffffffffffff1663bf40fac16040518060400160405280601181526020017f52455345525645445f4d505f41444d494e0000000000000000000000000000008152506040518263ffffffff1660e01b815260040161035991906109c3565b602060405180830381865afa158015610374573d5f5f3e3d5ffd5b505050506040513d601f19601f820116820180604052508101906103989190610daa565b73ffffffffffffffffffffffffffffffffffffffff163373ffffffffffffffffffffffffffffffffffffffff1614610405576040517f08c379a00000000000000000000000000000000000000000000000000000000081526004016103fc90610e1f565b60405180910390fd5b5f5f9054906101000a900473ffffffffffffffffffffffffffffffffffffffff1673ffffffffffffffffffffffffffffffffffffffff1663bf40fac16040518060400160405280601481526020017f52455345525645445f4d505f52454749535445520000000000000000000000008152506040518263ffffffff1660e01b815260040161049391906109c3565b602060405180830381865afa1580156104ae573d5f5f3e3d5ffd5b505050506040513d601f19601f820116820180604052508101906104d29190610daa565b5f5f6101000a81548173ffffffffffffffffffffffffffffffffffffffff021916908373ffffffffffffffffffffffffffffffffffffffff1602179055506001905090565b5f5f5f9054906101000a900473ffffffffffffffffffffffffffffffffffffffff1673ffffffffffffffffffffffffffffffffffffffff16636e09999e336040518263ffffffff1660e01b81526004016105719190610e4c565b602060405180830381865afa15801561058c573d5f5f3e3d5ffd5b505050506040513d601f19601f820116820180604052508101906105b09190610e8f565b6105ef576040517f08c379a00000000000000000000000000000000000000000000000000000000081526004016105e690610f04565b60405180910390fd5b6105f7610892565b9050600381908060018154018082558091505060019003905f5260205f20015f90919091909150556040518060e0016040528082815260200188600981111561064357610642610a4b565b5b81526020018573ffffffffffffffffffffffffffffffffffffffff1681526020018681526020014281526020018481526020018373ffffffffffffffffffffffffffffffffffffffff1681525060045f8381526020019081526020015f205f820151815f01556020820151816001015f6101000a81548160ff021916908360098111156106d3576106d2610a4b565b5b021790555060408201518160010160016101000a81548173ffffffffffffffffffffffffffffffffffffffff021916908373ffffffffffffffffffffffffffffffffffffffff160217905550606082015181600201556080820151816003015560a0820151816004015560c0820151816005015f6101000a81548173ffffffffffffffffffffffffffffffffffffffff021916908373ffffffffffffffffffffffffffffffffffffffff16021790555090505060055f87600581111561079c5761079b610a4b565b5b60058111156107ae576107ad610a4b565b5b81526020019081526020015f205f8681526020019081526020015f2081908060018154018082558091505060019003905f5260205f20015f90919091909150559695505050505050565b606060055f5f60058111156108105761080f610a4b565b5b600581111561082257610821610a4b565b5b81526020019081526020015f205f8381526020019081526020015f2080548060200260200160405190810160405280929190818152602001828054801561088657602002820191905f5260205f20905b815481526020019060010190808311610872575b50505050509050919050565b5f60025f8154809291906108a590610f4f565b91905055905090565b6040518060e001604052805f81526020015f60098111156108d2576108d1610a4b565b5b81526020015f73ffffffffffffffffffffffffffffffffffffffff1681526020015f81526020015f81526020015f81526020015f73ffffffffffffffffffffffffffffffffffffffff1681525090565b5f819050919050565b61093481610922565b82525050565b5f60208201905061094d5f83018461092b565b92915050565b5f81519050919050565b5f82825260208201905092915050565b8281835e5f83830152505050565b5f601f19601f8301169050919050565b5f61099582610953565b61099f818561095d565b93506109af81856020860161096d565b6109b88161097b565b840191505092915050565b5f6020820190508181035f8301526109db818461098b565b905092915050565b5f5ffd5b6109f081610922565b81146109fa575f5ffd5b50565b5f81359050610a0b816109e7565b92915050565b5f60208284031215610a2657610a256109e3565b5b5f610a33848285016109fd565b91505092915050565b610a4581610922565b82525050565b7f4e487b71000000000000000000000000000000000000000000000000000000005f52602160045260245ffd5b600a8110610a8957610a88610a4b565b5b50565b5f819050610a9982610a78565b919050565b5f610aa882610a8c565b9050919050565b610ab881610a9e565b82525050565b5f73ffffffffffffffffffffffffffffffffffffffff82169050919050565b5f610ae782610abe565b9050919050565b610af781610add565b82525050565b60e082015f820151610b115f850182610a3c565b506020820151610b246020850182610aaf565b506040820151610b376040850182610aee565b506060820151610b4a6060850182610a3c565b506080820151610b5d6080850182610a3c565b5060a0820151610b7060a0850182610a3c565b5060c0820151610b8360c0850182610aee565b50505050565b5f60e082019050610b9c5f830184610afd565b92915050565b5f8115159050919050565b610bb681610ba2565b82525050565b5f602082019050610bcf5f830184610bad565b92915050565b600a8110610be1575f5ffd5b50565b5f81359050610bf281610bd5565b92915050565b60068110610c04575f5ffd5b50565b5f81359050610c1581610bf8565b92915050565b610c2481610add565b8114610c2e575f5ffd5b50565b5f81359050610c3f81610c1b565b92915050565b5f5f5f5f5f5f60c08789031215610c5f57610c5e6109e3565b5b5f610c6c89828a01610be4565b9650506020610c7d89828a01610c07565b9550506040610c8e89828a016109fd565b9450506060610c9f89828a01610c31565b9350506080610cb089828a016109fd565b92505060a0610cc189828a01610c31565b9150509295509295509295565b5f81519050919050565b5f82825260208201905092915050565b5f819050602082019050919050565b5f610d028383610a3c565b60208301905092915050565b5f602082019050919050565b5f610d2482610cce565b610d2e8185610cd8565b9350610d3983610ce8565b805f5b83811015610d69578151610d508882610cf7565b9750610d5b83610d0e565b925050600181019050610d3c565b5085935050505092915050565b5f6020820190508181035f830152610d8e8184610d1a565b905092915050565b5f81519050610da481610c1b565b92915050565b5f60208284031215610dbf57610dbe6109e3565b5b5f610dcc84828501610d96565b91505092915050565b7f6d6564616c696f6e207065656e73696f6e732061646d696e206f6e6c790000005f82015250565b5f610e09601d8361095d565b9150610e1482610dd5565b602082019050919050565b5f6020820190508181035f830152610e3681610dfd565b9050919050565b610e4681610add565b82525050565b5f602082019050610e5f5f830184610e3d565b92915050565b610e6e81610ba2565b8114610e78575f5ffd5b50565b5f81519050610e8981610e65565b92915050565b5f60208284031215610ea457610ea36109e3565b5b5f610eb184828501610e7b565b91505092915050565b7f756e6b6e6f776e206164647265737300000000000000000000000000000000005f82015250565b5f610eee600f8361095d565b9150610ef982610eba565b602082019050919050565b5f6020820190508181035f830152610f1b81610ee2565b9050919050565b7f4e487b71000000000000000000000000000000000000000000000000000000005f52601160045260245ffd5b5f610f5982610922565b91507fffffffffffffffffffffffffffffffffffffffffffffffffffffffffffffffff8203610f8b57610f8a610f22565b5b60018201905091905056fea2646970667358221220b8460e6127e4e4cc799b700ab6a7213ef0f54445fd1bbb5a9b6b80bf109ddfc264736f6c634300081e0033",
					"opcodes": "PUSH1 0x80 PUSH1 0x40 MSTORE CALLVALUE DUP1 ISZERO PUSH2 0xF JUMPI PUSH0 PUSH0 REVERT JUMPDEST POP PUSH1 0x40 MLOAD PUSH2 0x1118 CODESIZE SUB DUP1 PUSH2 0x1118 DUP4 CODECOPY DUP2 DUP2 ADD PUSH1 0x40 MSTORE DUP2 ADD SWAP1 PUSH2 0x31 SWAP2 SWAP1 PUSH2 0x114 JUMP JUMPDEST DUP1 PUSH0 PUSH0 PUSH2 0x100 EXP DUP2 SLOAD DUP2 PUSH20 0xFFFFFFFFFFFFFFFFFFFFFFFFFFFFFFFFFFFFFFFF MUL NOT AND SWAP1 DUP4 PUSH20 0xFFFFFFFFFFFFFFFFFFFFFFFFFFFFFFFFFFFFFFFF AND MUL OR SWAP1 SSTORE POP ADDRESS PUSH1 0x1 PUSH0 PUSH2 0x100 EXP DUP2 SLOAD DUP2 PUSH20 0xFFFFFFFFFFFFFFFFFFFFFFFFFFFFFFFFFFFFFFFF MUL NOT AND SWAP1 DUP4 PUSH20 0xFFFFFFFFFFFFFFFFFFFFFFFFFFFFFFFFFFFFFFFF AND MUL OR SWAP1 SSTORE POP POP PUSH2 0x13F JUMP JUMPDEST PUSH0 PUSH0 REVERT JUMPDEST PUSH0 PUSH20 0xFFFFFFFFFFFFFFFFFFFFFFFFFFFFFFFFFFFFFFFF DUP3 AND SWAP1 POP SWAP2 SWAP1 POP JUMP JUMPDEST PUSH0 PUSH2 0xE3 DUP3 PUSH2 0xBA JUMP JUMPDEST SWAP1 POP SWAP2 SWAP1 POP JUMP JUMPDEST PUSH2 0xF3 DUP2 PUSH2 0xD9 JUMP JUMPDEST DUP2 EQ PUSH2 0xFD JUMPI PUSH0 PUSH0 REVERT JUMPDEST POP JUMP JUMPDEST PUSH0 DUP2 MLOAD SWAP1 POP PUSH2 0x10E DUP2 PUSH2 0xEA JUMP JUMPDEST SWAP3 SWAP2 POP POP JUMP JUMPDEST PUSH0 PUSH1 0x20 DUP3 DUP5 SUB SLT ISZERO PUSH2 0x129 JUMPI PUSH2 0x128 PUSH2 0xB6 JUMP JUMPDEST JUMPDEST PUSH0 PUSH2 0x136 DUP5 DUP3 DUP6 ADD PUSH2 0x100 JUMP JUMPDEST SWAP2 POP POP SWAP3 SWAP2 POP POP JUMP JUMPDEST PUSH2 0xFCC DUP1 PUSH2 0x14C PUSH0 CODECOPY PUSH0 RETURN INVALID PUSH1 0x80 PUSH1 0x40 MSTORE CALLVALUE DUP1 ISZERO PUSH2 0xF JUMPI PUSH0 PUSH0 REVERT JUMPDEST POP PUSH1 0x4 CALLDATASIZE LT PUSH2 0x60 JUMPI PUSH0 CALLDATALOAD PUSH1 0xE0 SHR DUP1 PUSH4 0xD8E6E2C EQ PUSH2 0x64 JUMPI DUP1 PUSH4 0x17D7DE7C EQ PUSH2 0x82 JUMPI DUP1 PUSH4 0xB8C89338 EQ PUSH2 0xA0 JUMPI DUP1 PUSH4 0xCDE4C10C EQ PUSH2 0xD0 JUMPI DUP1 PUSH4 0xEE16E639 EQ PUSH2 0xEE JUMPI DUP1 PUSH4 0xF3FD548F EQ PUSH2 0x11E JUMPI JUMPDEST PUSH0 PUSH0 REVERT JUMPDEST PUSH2 0x6C PUSH2 0x14E JUMP JUMPDEST PUSH1 0x40 MLOAD PUSH2 0x79 SWAP2 SWAP1 PUSH2 0x93A JUMP JUMPDEST PUSH1 0x40 MLOAD DUP1 SWAP2 SUB SWAP1 RETURN JUMPDEST PUSH2 0x8A PUSH2 0x156 JUMP JUMPDEST PUSH1 0x40 MLOAD PUSH2 0x97 SWAP2 SWAP1 PUSH2 0x9C3 JUMP JUMPDEST PUSH1 0x40 MLOAD DUP1 SWAP2 SUB SWAP1 RETURN JUMPDEST PUSH2 0xBA PUSH1 0x4 DUP1 CALLDATASIZE SUB DUP2 ADD SWAP1 PUSH2 0xB5 SWAP2 SWAP1 PUSH2 0xA11 JUMP JUMPDEST PUSH2 0x193 JUMP JUMPDEST PUSH1 0x40 MLOAD PUSH2 0xC7 SWAP2 SWAP1 PUSH2 0xB89 JUMP JUMPDEST PUSH1 0x40 MLOAD DUP1 SWAP2 SUB SWAP1 RETURN JUMPDEST PUSH2 0xD8 PUSH2 0x2CA JUMP JUMPDEST PUSH1 0x40 MLOAD PUSH2 0xE5 SWAP2 SWAP1 PUSH2 0xBBC JUMP JUMPDEST PUSH1 0x40 MLOAD DUP1 SWAP2 SUB SWAP1 RETURN JUMPDEST PUSH2 0x108 PUSH1 0x4 DUP1 CALLDATASIZE SUB DUP2 ADD SWAP1 PUSH2 0x103 SWAP2 SWAP1 PUSH2 0xC45 JUMP JUMPDEST PUSH2 0x517 JUMP JUMPDEST PUSH1 0x40 MLOAD PUSH2 0x115 SWAP2 SWAP1 PUSH2 0x93A JUMP JUMPDEST PUSH1 0x40 MLOAD DUP1 SWAP2 SUB SWAP1 RETURN JUMPDEST PUSH2 0x138 PUSH1 0x4 DUP1 CALLDATASIZE SUB DUP2 ADD SWAP1 PUSH2 0x133 SWAP2 SWAP1 PUSH2 0xA11 JUMP JUMPDEST PUSH2 0x7F8 JUMP JUMPDEST PUSH1 0x40 MLOAD PUSH2 0x145 SWAP2 SWAP1 PUSH2 0xD76 JUMP JUMPDEST PUSH1 0x40 MLOAD DUP1 SWAP2 SUB SWAP1 RETURN JUMPDEST PUSH0 PUSH1 0x1 SWAP1 POP SWAP1 JUMP JUMPDEST PUSH1 0x60 PUSH1 0x40 MLOAD DUP1 PUSH1 0x40 ADD PUSH1 0x40 MSTORE DUP1 PUSH1 0x16 DUP2 MSTORE PUSH1 0x20 ADD PUSH32 0x52455345525645445F4D505F54585F4D414E4147455200000000000000000000 DUP2 MSTORE POP SWAP1 POP SWAP1 JUMP JUMPDEST PUSH2 0x19B PUSH2 0x8AE JUMP JUMPDEST PUSH1 0x4 PUSH0 DUP4 DUP2 MSTORE PUSH1 0x20 ADD SWAP1 DUP2 MSTORE PUSH1 0x20 ADD PUSH0 KECCAK256 PUSH1 0x40 MLOAD DUP1 PUSH1 0xE0 ADD PUSH1 0x40 MSTORE SWAP1 DUP2 PUSH0 DUP3 ADD SLOAD DUP2 MSTORE PUSH1 0x20 ADD PUSH1 0x1 DUP3 ADD PUSH0 SWAP1 SLOAD SWAP1 PUSH2 0x100 EXP SWAP1 DIV PUSH1 0xFF AND PUSH1 0x9 DUP2 GT ISZERO PUSH2 0x1E4 JUMPI PUSH2 0x1E3 PUSH2 0xA4B JUMP JUMPDEST JUMPDEST PUSH1 0x9 DUP2 GT ISZERO PUSH2 0x1F6 JUMPI PUSH2 0x1F5 PUSH2 0xA4B JUMP JUMPDEST JUMPDEST DUP2 MSTORE PUSH1 0x20 ADD PUSH1 0x1 DUP3 ADD PUSH1 0x1 SWAP1 SLOAD SWAP1 PUSH2 0x100 EXP SWAP1 DIV PUSH20 0xFFFFFFFFFFFFFFFFFFFFFFFFFFFFFFFFFFFFFFFF AND PUSH20 0xFFFFFFFFFFFFFFFFFFFFFFFFFFFFFFFFFFFFFFFF AND PUSH20 0xFFFFFFFFFFFFFFFFFFFFFFFFFFFFFFFFFFFFFFFF AND DUP2 MSTORE PUSH1 0x20 ADD PUSH1 0x2 DUP3 ADD SLOAD DUP2 MSTORE PUSH1 0x20 ADD PUSH1 0x3 DUP3 ADD SLOAD DUP2 MSTORE PUSH1 0x20 ADD PUSH1 0x4 DUP3 ADD SLOAD DUP2 MSTORE PUSH1 0x20 ADD PUSH1 0x5 DUP3 ADD PUSH0 SWAP1 SLOAD SWAP1 PUSH2 0x100 EXP SWAP1 DIV PUSH20 0xFFFFFFFFFFFFFFFFFFFFFFFFFFFFFFFFFFFFFFFF AND PUSH20 0xFFFFFFFFFFFFFFFFFFFFFFFFFFFFFFFFFFFFFFFF AND PUSH20 0xFFFFFFFFFFFFFFFFFFFFFFFFFFFFFFFFFFFFFFFF AND DUP2 MSTORE POP POP SWAP1 POP SWAP2 SWAP1 POP JUMP JUMPDEST PUSH0 PUSH0 PUSH0 SWAP1 SLOAD SWAP1 PUSH2 0x100 EXP SWAP1 DIV PUSH20 0xFFFFFFFFFFFFFFFFFFFFFFFFFFFFFFFFFFFFFFFF AND PUSH20 0xFFFFFFFFFFFFFFFFFFFFFFFFFFFFFFFFFFFFFFFF AND PUSH4 0xBF40FAC1 PUSH1 0x40 MLOAD DUP1 PUSH1 0x40 ADD PUSH1 0x40 MSTORE DUP1 PUSH1 0x11 DUP2 MSTORE PUSH1 0x20 ADD PUSH32 0x52455345525645445F4D505F41444D494E000000000000000000000000000000 DUP2 MSTORE POP PUSH1 0x40 MLOAD DUP3 PUSH4 0xFFFFFFFF AND PUSH1 0xE0 SHL DUP2 MSTORE PUSH1 0x4 ADD PUSH2 0x359 SWAP2 SWAP1 PUSH2 0x9C3 JUMP JUMPDEST PUSH1 0x20 PUSH1 0x40 MLOAD DUP1 DUP4 SUB DUP2 DUP7 GAS STATICCALL ISZERO DUP1 ISZERO PUSH2 0x374 JUMPI RETURNDATASIZE PUSH0 PUSH0 RETURNDATACOPY RETURNDATASIZE PUSH0 REVERT JUMPDEST POP POP POP POP PUSH1 0x40 MLOAD RETURNDATASIZE PUSH1 0x1F NOT PUSH1 0x1F DUP3 ADD AND DUP3 ADD DUP1 PUSH1 0x40 MSTORE POP DUP2 ADD SWAP1 PUSH2 0x398 SWAP2 SWAP1 PUSH2 0xDAA JUMP JUMPDEST PUSH20 0xFFFFFFFFFFFFFFFFFFFFFFFFFFFFFFFFFFFFFFFF AND CALLER PUSH20 0xFFFFFFFFFFFFFFFFFFFFFFFFFFFFFFFFFFFFFFFF AND EQ PUSH2 0x405 JUMPI PUSH1 0x40 MLOAD PUSH32 0x8C379A000000000000000000000000000000000000000000000000000000000 DUP2 MSTORE PUSH1 0x4 ADD PUSH2 0x3FC SWAP1 PUSH2 0xE1F JUMP JUMPDEST PUSH1 0x40 MLOAD DUP1 SWAP2 SUB SWAP1 REVERT JUMPDEST PUSH0 PUSH0 SWAP1 SLOAD SWAP1 PUSH2 0x100 EXP SWAP1 DIV PUSH20 0xFFFFFFFFFFFFFFFFFFFFFFFFFFFFFFFFFFFFFFFF AND PUSH20 0xFFFFFFFFFFFFFFFFFFFFFFFFFFFFFFFFFFFFFFFF AND PUSH4 0xBF40FAC1 PUSH1 0x40 MLOAD DUP1 PUSH1 0x40 ADD PUSH1 0x40 MSTORE DUP1 PUSH1 0x14 DUP2 MSTORE PUSH1 0x20 ADD PUSH32 0x52455345525645445F4D505F5245474953544552000000000000000000000000 DUP2 MSTORE POP PUSH1 0x40 MLOAD DUP3 PUSH4 0xFFFFFFFF AND PUSH1 0xE0 SHL DUP2 MSTORE PUSH1 0x4 ADD PUSH2 0x493 SWAP2 SWAP1 PUSH2 0x9C3 JUMP JUMPDEST PUSH1 0x20 PUSH1 0x40 MLOAD DUP1 DUP4 SUB DUP2 DUP7 GAS STATICCALL ISZERO DUP1 ISZERO PUSH2 0x4AE JUMPI RETURNDATASIZE PUSH0 PUSH0 RETURNDATACOPY RETURNDATASIZE PUSH0 REVERT JUMPDEST POP POP POP POP PUSH1 0x40 MLOAD RETURNDATASIZE PUSH1 0x1F NOT PUSH1 0x1F DUP3 ADD AND DUP3 ADD DUP1 PUSH1 0x40 MSTORE POP DUP2 ADD SWAP1 PUSH2 0x4D2 SWAP2 SWAP1 PUSH2 0xDAA JUMP JUMPDEST PUSH0 PUSH0 PUSH2 0x100 EXP DUP2 SLOAD DUP2 PUSH20 0xFFFFFFFFFFFFFFFFFFFFFFFFFFFFFFFFFFFFFFFF MUL NOT AND SWAP1 DUP4 PUSH20 0xFFFFFFFFFFFFFFFFFFFFFFFFFFFFFFFFFFFFFFFF AND MUL OR SWAP1 SSTORE POP PUSH1 0x1 SWAP1 POP SWAP1 JUMP JUMPDEST PUSH0 PUSH0 PUSH0 SWAP1 SLOAD SWAP1 PUSH2 0x100 EXP SWAP1 DIV PUSH20 0xFFFFFFFFFFFFFFFFFFFFFFFFFFFFFFFFFFFFFFFF AND PUSH20 0xFFFFFFFFFFFFFFFFFFFFFFFFFFFFFFFFFFFFFFFF AND PUSH4 0x6E09999E CALLER PUSH1 0x40 MLOAD DUP3 PUSH4 0xFFFFFFFF AND PUSH1 0xE0 SHL DUP2 MSTORE PUSH1 0x4 ADD PUSH2 0x571 SWAP2 SWAP1 PUSH2 0xE4C JUMP JUMPDEST PUSH1 0x20 PUSH1 0x40 MLOAD DUP1 DUP4 SUB DUP2 DUP7 GAS STATICCALL ISZERO DUP1 ISZERO PUSH2 0x58C JUMPI RETURNDATASIZE PUSH0 PUSH0 RETURNDATACOPY RETURNDATASIZE PUSH0 REVERT JUMPDEST POP POP POP POP PUSH1 0x40 MLOAD RETURNDATASIZE PUSH1 0x1F NOT PUSH1 0x1F DUP3 ADD AND DUP3 ADD DUP1 PUSH1 0x40 MSTORE POP DUP2 ADD SWAP1 PUSH2 0x5B0 SWAP2 SWAP1 PUSH2 0xE8F JUMP JUMPDEST PUSH2 0x5EF JUMPI PUSH1 0x40 MLOAD PUSH32 0x8C379A000000000000000000000000000000000000000000000000000000000 DUP2 MSTORE PUSH1 0x4 ADD PUSH2 0x5E6 SWAP1 PUSH2 0xF04 JUMP JUMPDEST PUSH1 0x40 MLOAD DUP1 SWAP2 SUB SWAP1 REVERT JUMPDEST PUSH2 0x5F7 PUSH2 0x892 JUMP JUMPDEST SWAP1 POP PUSH1 0x3 DUP2 SWAP1 DUP1 PUSH1 0x1 DUP2 SLOAD ADD DUP1 DUP3 SSTORE DUP1 SWAP2 POP POP PUSH1 0x1 SWAP1 SUB SWAP1 PUSH0 MSTORE PUSH1 0x20 PUSH0 KECCAK256 ADD PUSH0 SWAP1 SWAP2 SWAP1 SWAP2 SWAP1 SWAP2 POP SSTORE PUSH1 0x40 MLOAD DUP1 PUSH1 0xE0 ADD PUSH1 0x40 MSTORE DUP1 DUP3 DUP2 MSTORE PUSH1 0x20 ADD DUP9 PUSH1 0x9 DUP2 GT ISZERO PUSH2 0x643 JUMPI PUSH2 0x642 PUSH2 0xA4B JUMP JUMPDEST JUMPDEST DUP2 MSTORE PUSH1 0x20 ADD DUP6 PUSH20 0xFFFFFFFFFFFFFFFFFFFFFFFFFFFFFFFFFFFFFFFF AND DUP2 MSTORE PUSH1 0x20 ADD DUP7 DUP2 MSTORE PUSH1 0x20 ADD TIMESTAMP DUP2 MSTORE PUSH1 0x20 ADD DUP5 DUP2 MSTORE PUSH1 0x20 ADD DUP4 PUSH20 0xFFFFFFFFFFFFFFFFFFFFFFFFFFFFFFFFFFFFFFFF AND DUP2 MSTORE POP PUSH1 0x4 PUSH0 DUP4 DUP2 MSTORE PUSH1 0x20 ADD SWAP1 DUP2 MSTORE PUSH1 0x20 ADD PUSH0 KECCAK256 PUSH0 DUP3 ADD MLOAD DUP2 PUSH0 ADD SSTORE PUSH1 0x20 DUP3 ADD MLOAD DUP2 PUSH1 0x1 ADD PUSH0 PUSH2 0x100 EXP DUP2 SLOAD DUP2 PUSH1 0xFF MUL NOT AND SWAP1 DUP4 PUSH1 0x9 DUP2 GT ISZERO PUSH2 0x6D3 JUMPI PUSH2 0x6D2 PUSH2 0xA4B JUMP JUMPDEST JUMPDEST MUL OR SWAP1 SSTORE POP PUSH1 0x40 DUP3 ADD MLOAD DUP2 PUSH1 0x1 ADD PUSH1 0x1 PUSH2 0x100 EXP DUP2 SLOAD DUP2 PUSH20 0xFFFFFFFFFFFFFFFFFFFFFFFFFFFFFFFFFFFFFFFF MUL NOT AND SWAP1 DUP4 PUSH20 0xFFFFFFFFFFFFFFFFFFFFFFFFFFFFFFFFFFFFFFFF AND MUL OR SWAP1 SSTORE POP PUSH1 0x60 DUP3 ADD MLOAD DUP2 PUSH1 0x2 ADD SSTORE PUSH1 0x80 DUP3 ADD MLOAD DUP2 PUSH1 0x3 ADD SSTORE PUSH1 0xA0 DUP3 ADD MLOAD DUP2 PUSH1 0x4 ADD SSTORE PUSH1 0xC0 DUP3 ADD MLOAD DUP2 PUSH1 0x5 ADD PUSH0 PUSH2 0x100 EXP DUP2 SLOAD DUP2 PUSH20 0xFFFFFFFFFFFFFFFFFFFFFFFFFFFFFFFFFFFFFFFF MUL NOT AND SWAP1 DUP4 PUSH20 0xFFFFFFFFFFFFFFFFFFFFFFFFFFFFFFFFFFFFFFFF AND MUL OR SWAP1 SSTORE POP SWAP1 POP POP PUSH1 0x5 PUSH0 DUP8 PUSH1 0x5 DUP2 GT ISZERO PUSH2 0x79C JUMPI PUSH2 0x79B PUSH2 0xA4B JUMP JUMPDEST JUMPDEST PUSH1 0x5 DUP2 GT ISZERO PUSH2 0x7AE JUMPI PUSH2 0x7AD PUSH2 0xA4B JUMP JUMPDEST JUMPDEST DUP2 MSTORE PUSH1 0x20 ADD SWAP1 DUP2 MSTORE PUSH1 0x20 ADD PUSH0 KECCAK256 PUSH0 DUP7 DUP2 MSTORE PUSH1 0x20 ADD SWAP1 DUP2 MSTORE PUSH1 0x20 ADD PUSH0 KECCAK256 DUP2 SWAP1 DUP1 PUSH1 0x1 DUP2 SLOAD ADD DUP1 DUP3 SSTORE DUP1 SWAP2 POP POP PUSH1 0x1 SWAP1 SUB SWAP1 PUSH0 MSTORE PUSH1 0x20 PUSH0 KECCAK256 ADD PUSH0 SWAP1 SWAP2 SWAP1 SWAP2 SWAP1 SWAP2 POP SSTORE SWAP7 SWAP6 POP POP POP POP POP POP JUMP JUMPDEST PUSH1 0x60 PUSH1 0x5 PUSH0 PUSH0 PUSH1 0x5 DUP2 GT ISZERO PUSH2 0x810 JUMPI PUSH2 0x80F PUSH2 0xA4B JUMP JUMPDEST JUMPDEST PUSH1 0x5 DUP2 GT ISZERO PUSH2 0x822 JUMPI PUSH2 0x821 PUSH2 0xA4B JUMP JUMPDEST JUMPDEST DUP2 MSTORE PUSH1 0x20 ADD SWAP1 DUP2 MSTORE PUSH1 0x20 ADD PUSH0 KECCAK256 PUSH0 DUP4 DUP2 MSTORE PUSH1 0x20 ADD SWAP1 DUP2 MSTORE PUSH1 0x20 ADD PUSH0 KECCAK256 DUP1 SLOAD DUP1 PUSH1 0x20 MUL PUSH1 0x20 ADD PUSH1 0x40 MLOAD SWAP1 DUP2 ADD PUSH1 0x40 MSTORE DUP1 SWAP3 SWAP2 SWAP1 DUP2 DUP2 MSTORE PUSH1 0x20 ADD DUP3 DUP1 SLOAD DUP1 ISZERO PUSH2 0x886 JUMPI PUSH1 0x20 MUL DUP3 ADD SWAP2 SWAP1 PUSH0 MSTORE PUSH1 0x20 PUSH0 KECCAK256 SWAP1 JUMPDEST DUP2 SLOAD DUP2 MSTORE PUSH1 0x20 ADD SWAP1 PUSH1 0x1 ADD SWAP1 DUP1 DUP4 GT PUSH2 0x872 JUMPI JUMPDEST POP POP POP POP POP SWAP1 POP SWAP2 SWAP1 POP JUMP JUMPDEST PUSH0 PUSH1 0x2 PUSH0 DUP2 SLOAD DUP1 SWAP3 SWAP2 SWAP1 PUSH2 0x8A5 SWAP1 PUSH2 0xF4F JUMP JUMPDEST SWAP2 SWAP1 POP SSTORE SWAP1 POP SWAP1 JUMP JUMPDEST PUSH1 0x40 MLOAD DUP1 PUSH1 0xE0 ADD PUSH1 0x40 MSTORE DUP1 PUSH0 DUP2 MSTORE PUSH1 0x20 ADD PUSH0 PUSH1 0x9 DUP2 GT ISZERO PUSH2 0x8D2 JUMPI PUSH2 0x8D1 PUSH2 0xA4B JUMP JUMPDEST JUMPDEST DUP2 MSTORE PUSH1 0x20 ADD PUSH0 PUSH20 0xFFFFFFFFFFFFFFFFFFFFFFFFFFFFFFFFFFFFFFFF AND DUP2 MSTORE PUSH1 0x20 ADD PUSH0 DUP2 MSTORE PUSH1 0x20 ADD PUSH0 DUP2 MSTORE PUSH1 0x20 ADD PUSH0 DUP2 MSTORE PUSH1 0x20 ADD PUSH0 PUSH20 0xFFFFFFFFFFFFFFFFFFFFFFFFFFFFFFFFFFFFFFFF AND DUP2 MSTORE POP SWAP1 JUMP JUMPDEST PUSH0 DUP2 SWAP1 POP SWAP2 SWAP1 POP JUMP JUMPDEST PUSH2 0x934 DUP2 PUSH2 0x922 JUMP JUMPDEST DUP3 MSTORE POP POP JUMP JUMPDEST PUSH0 PUSH1 0x20 DUP3 ADD SWAP1 POP PUSH2 0x94D PUSH0 DUP4 ADD DUP5 PUSH2 0x92B JUMP JUMPDEST SWAP3 SWAP2 POP POP JUMP JUMPDEST PUSH0 DUP2 MLOAD SWAP1 POP SWAP2 SWAP1 POP JUMP JUMPDEST PUSH0 DUP3 DUP3 MSTORE PUSH1 0x20 DUP3 ADD SWAP1 POP SWAP3 SWAP2 POP POP JUMP JUMPDEST DUP3 DUP2 DUP4 MCOPY PUSH0 DUP4 DUP4 ADD MSTORE POP POP POP JUMP JUMPDEST PUSH0 PUSH1 0x1F NOT PUSH1 0x1F DUP4 ADD AND SWAP1 POP SWAP2 SWAP1 POP JUMP JUMPDEST PUSH0 PUSH2 0x995 DUP3 PUSH2 0x953 JUMP JUMPDEST PUSH2 0x99F DUP2 DUP6 PUSH2 0x95D JUMP JUMPDEST SWAP4 POP PUSH2 0x9AF DUP2 DUP6 PUSH1 0x20 DUP7 ADD PUSH2 0x96D JUMP JUMPDEST PUSH2 0x9B8 DUP2 PUSH2 0x97B JUMP JUMPDEST DUP5 ADD SWAP2 POP POP SWAP3 SWAP2 POP POP JUMP JUMPDEST PUSH0 PUSH1 0x20 DUP3 ADD SWAP1 POP DUP2 DUP2 SUB PUSH0 DUP4 ADD MSTORE PUSH2 0x9DB DUP2 DUP5 PUSH2 0x98B JUMP JUMPDEST SWAP1 POP SWAP3 SWAP2 POP POP JUMP JUMPDEST PUSH0 PUSH0 REVERT JUMPDEST PUSH2 0x9F0 DUP2 PUSH2 0x922 JUMP JUMPDEST DUP2 EQ PUSH2 0x9FA JUMPI PUSH0 PUSH0 REVERT JUMPDEST POP JUMP JUMPDEST PUSH0 DUP2 CALLDATALOAD SWAP1 POP PUSH2 0xA0B DUP2 PUSH2 0x9E7 JUMP JUMPDEST SWAP3 SWAP2 POP POP JUMP JUMPDEST PUSH0 PUSH1 0x20 DUP3 DUP5 SUB SLT ISZERO PUSH2 0xA26 JUMPI PUSH2 0xA25 PUSH2 0x9E3 JUMP JUMPDEST JUMPDEST PUSH0 PUSH2 0xA33 DUP5 DUP3 DUP6 ADD PUSH2 0x9FD JUMP JUMPDEST SWAP2 POP POP SWAP3 SWAP2 POP POP JUMP JUMPDEST PUSH2 0xA45 DUP2 PUSH2 0x922 JUMP JUMPDEST DUP3 MSTORE POP POP JUMP JUMPDEST PUSH32 0x4E487B7100000000000000000000000000000000000000000000000000000000 PUSH0 MSTORE PUSH1 0x21 PUSH1 0x4 MSTORE PUSH1 0x24 PUSH0 REVERT JUMPDEST PUSH1 0xA DUP2 LT PUSH2 0xA89 JUMPI PUSH2 0xA88 PUSH2 0xA4B JUMP JUMPDEST JUMPDEST POP JUMP JUMPDEST PUSH0 DUP2 SWAP1 POP PUSH2 0xA99 DUP3 PUSH2 0xA78 JUMP JUMPDEST SWAP2 SWAP1 POP JUMP JUMPDEST PUSH0 PUSH2 0xAA8 DUP3 PUSH2 0xA8C JUMP JUMPDEST SWAP1 POP SWAP2 SWAP1 POP JUMP JUMPDEST PUSH2 0xAB8 DUP2 PUSH2 0xA9E JUMP JUMPDEST DUP3 MSTORE POP POP JUMP JUMPDEST PUSH0 PUSH20 0xFFFFFFFFFFFFFFFFFFFFFFFFFFFFFFFFFFFFFFFF DUP3 AND SWAP1 POP SWAP2 SWAP1 POP JUMP JUMPDEST PUSH0 PUSH2 0xAE7 DUP3 PUSH2 0xABE JUMP JUMPDEST SWAP1 POP SWAP2 SWAP1 POP JUMP JUMPDEST PUSH2 0xAF7 DUP2 PUSH2 0xADD JUMP JUMPDEST DUP3 MSTORE POP POP JUMP JUMPDEST PUSH1 0xE0 DUP3 ADD PUSH0 DUP3 ADD MLOAD PUSH2 0xB11 PUSH0 DUP6 ADD DUP3 PUSH2 0xA3C JUMP JUMPDEST POP PUSH1 0x20 DUP3 ADD MLOAD PUSH2 0xB24 PUSH1 0x20 DUP6 ADD DUP3 PUSH2 0xAAF JUMP JUMPDEST POP PUSH1 0x40 DUP3 ADD MLOAD PUSH2 0xB37 PUSH1 0x40 DUP6 ADD DUP3 PUSH2 0xAEE JUMP JUMPDEST POP PUSH1 0x60 DUP3 ADD MLOAD PUSH2 0xB4A PUSH1 0x60 DUP6 ADD DUP3 PUSH2 0xA3C JUMP JUMPDEST POP PUSH1 0x80 DUP3 ADD MLOAD PUSH2 0xB5D PUSH1 0x80 DUP6 ADD DUP3 PUSH2 0xA3C JUMP JUMPDEST POP PUSH1 0xA0 DUP3 ADD MLOAD PUSH2 0xB70 PUSH1 0xA0 DUP6 ADD DUP3 PUSH2 0xA3C JUMP JUMPDEST POP PUSH1 0xC0 DUP3 ADD MLOAD PUSH2 0xB83 PUSH1 0xC0 DUP6 ADD DUP3 PUSH2 0xAEE JUMP JUMPDEST POP POP POP POP JUMP JUMPDEST PUSH0 PUSH1 0xE0 DUP3 ADD SWAP1 POP PUSH2 0xB9C PUSH0 DUP4 ADD DUP5 PUSH2 0xAFD JUMP JUMPDEST SWAP3 SWAP2 POP POP JUMP JUMPDEST PUSH0 DUP2 ISZERO ISZERO SWAP1 POP SWAP2 SWAP1 POP JUMP JUMPDEST PUSH2 0xBB6 DUP2 PUSH2 0xBA2 JUMP JUMPDEST DUP3 MSTORE POP POP JUMP JUMPDEST PUSH0 PUSH1 0x20 DUP3 ADD SWAP1 POP PUSH2 0xBCF PUSH0 DUP4 ADD DUP5 PUSH2 0xBAD JUMP JUMPDEST SWAP3 SWAP2 POP POP JUMP JUMPDEST PUSH1 0xA DUP2 LT PUSH2 0xBE1 JUMPI PUSH0 PUSH0 REVERT JUMPDEST POP JUMP JUMPDEST PUSH0 DUP2 CALLDATALOAD SWAP1 POP PUSH2 0xBF2 DUP2 PUSH2 0xBD5 JUMP JUMPDEST SWAP3 SWAP2 POP POP JUMP JUMPDEST PUSH1 0x6 DUP2 LT PUSH2 0xC04 JUMPI PUSH0 PUSH0 REVERT JUMPDEST POP JUMP JUMPDEST PUSH0 DUP2 CALLDATALOAD SWAP1 POP PUSH2 0xC15 DUP2 PUSH2 0xBF8 JUMP JUMPDEST SWAP3 SWAP2 POP POP JUMP JUMPDEST PUSH2 0xC24 DUP2 PUSH2 0xADD JUMP JUMPDEST DUP2 EQ PUSH2 0xC2E JUMPI PUSH0 PUSH0 REVERT JUMPDEST POP JUMP JUMPDEST PUSH0 DUP2 CALLDATALOAD SWAP1 POP PUSH2 0xC3F DUP2 PUSH2 0xC1B JUMP JUMPDEST SWAP3 SWAP2 POP POP JUMP JUMPDEST PUSH0 PUSH0 PUSH0 PUSH0 PUSH0 PUSH0 PUSH1 0xC0 DUP8 DUP10 SUB SLT ISZERO PUSH2 0xC5F JUMPI PUSH2 0xC5E PUSH2 0x9E3 JUMP JUMPDEST JUMPDEST PUSH0 PUSH2 0xC6C DUP10 DUP3 DUP11 ADD PUSH2 0xBE4 JUMP JUMPDEST SWAP7 POP POP PUSH1 0x20 PUSH2 0xC7D DUP10 DUP3 DUP11 ADD PUSH2 0xC07 JUMP JUMPDEST SWAP6 POP POP PUSH1 0x40 PUSH2 0xC8E DUP10 DUP3 DUP11 ADD PUSH2 0x9FD JUMP JUMPDEST SWAP5 POP POP PUSH1 0x60 PUSH2 0xC9F DUP10 DUP3 DUP11 ADD PUSH2 0xC31 JUMP JUMPDEST SWAP4 POP POP PUSH1 0x80 PUSH2 0xCB0 DUP10 DUP3 DUP11 ADD PUSH2 0x9FD JUMP JUMPDEST SWAP3 POP POP PUSH1 0xA0 PUSH2 0xCC1 DUP10 DUP3 DUP11 ADD PUSH2 0xC31 JUMP JUMPDEST SWAP2 POP POP SWAP3 SWAP6 POP SWAP3 SWAP6 POP SWAP3 SWAP6 JUMP JUMPDEST PUSH0 DUP2 MLOAD SWAP1 POP SWAP2 SWAP1 POP JUMP JUMPDEST PUSH0 DUP3 DUP3 MSTORE PUSH1 0x20 DUP3 ADD SWAP1 POP SWAP3 SWAP2 POP POP JUMP JUMPDEST PUSH0 DUP2 SWAP1 POP PUSH1 0x20 DUP3 ADD SWAP1 POP SWAP2 SWAP1 POP JUMP JUMPDEST PUSH0 PUSH2 0xD02 DUP4 DUP4 PUSH2 0xA3C JUMP JUMPDEST PUSH1 0x20 DUP4 ADD SWAP1 POP SWAP3 SWAP2 POP POP JUMP JUMPDEST PUSH0 PUSH1 0x20 DUP3 ADD SWAP1 POP SWAP2 SWAP1 POP JUMP JUMPDEST PUSH0 PUSH2 0xD24 DUP3 PUSH2 0xCCE JUMP JUMPDEST PUSH2 0xD2E DUP2 DUP6 PUSH2 0xCD8 JUMP JUMPDEST SWAP4 POP PUSH2 0xD39 DUP4 PUSH2 0xCE8 JUMP JUMPDEST DUP1 PUSH0 JUMPDEST DUP4 DUP2 LT ISZERO PUSH2 0xD69 JUMPI DUP2 MLOAD PUSH2 0xD50 DUP9 DUP3 PUSH2 0xCF7 JUMP JUMPDEST SWAP8 POP PUSH2 0xD5B DUP4 PUSH2 0xD0E JUMP JUMPDEST SWAP3 POP POP PUSH1 0x1 DUP2 ADD SWAP1 POP PUSH2 0xD3C JUMP JUMPDEST POP DUP6 SWAP4 POP POP POP POP SWAP3 SWAP2 POP POP JUMP JUMPDEST PUSH0 PUSH1 0x20 DUP3 ADD SWAP1 POP DUP2 DUP2 SUB PUSH0 DUP4 ADD MSTORE PUSH2 0xD8E DUP2 DUP5 PUSH2 0xD1A JUMP JUMPDEST SWAP1 POP SWAP3 SWAP2 POP POP JUMP JUMPDEST PUSH0 DUP2 MLOAD SWAP1 POP PUSH2 0xDA4 DUP2 PUSH2 0xC1B JUMP JUMPDEST SWAP3 SWAP2 POP POP JUMP JUMPDEST PUSH0 PUSH1 0x20 DUP3 DUP5 SUB SLT ISZERO PUSH2 0xDBF JUMPI PUSH2 0xDBE PUSH2 0x9E3 JUMP JUMPDEST JUMPDEST PUSH0 PUSH2 0xDCC DUP5 DUP3 DUP6 ADD PUSH2 0xD96 JUMP JUMPDEST SWAP2 POP POP SWAP3 SWAP2 POP POP JUMP JUMPDEST PUSH32 0x6D6564616C696F6E207065656E73696F6E732061646D696E206F6E6C79000000 PUSH0 DUP3 ADD MSTORE POP JUMP JUMPDEST PUSH0 PUSH2 0xE09 PUSH1 0x1D DUP4 PUSH2 0x95D JUMP JUMPDEST SWAP2 POP PUSH2 0xE14 DUP3 PUSH2 0xDD5 JUMP JUMPDEST PUSH1 0x20 DUP3 ADD SWAP1 POP SWAP2 SWAP1 POP JUMP JUMPDEST PUSH0 PUSH1 0x20 DUP3 ADD SWAP1 POP DUP2 DUP2 SUB PUSH0 DUP4 ADD MSTORE PUSH2 0xE36 DUP2 PUSH2 0xDFD JUMP JUMPDEST SWAP1 POP SWAP2 SWAP1 POP JUMP JUMPDEST PUSH2 0xE46 DUP2 PUSH2 0xADD JUMP JUMPDEST DUP3 MSTORE POP POP JUMP JUMPDEST PUSH0 PUSH1 0x20 DUP3 ADD SWAP1 POP PUSH2 0xE5F PUSH0 DUP4 ADD DUP5 PUSH2 0xE3D JUMP JUMPDEST SWAP3 SWAP2 POP POP JUMP JUMPDEST PUSH2 0xE6E DUP2 PUSH2 0xBA2 JUMP JUMPDEST DUP2 EQ PUSH2 0xE78 JUMPI PUSH0 PUSH0 REVERT JUMPDEST POP JUMP JUMPDEST PUSH0 DUP2 MLOAD SWAP1 POP PUSH2 0xE89 DUP2 PUSH2 0xE65 JUMP JUMPDEST SWAP3 SWAP2 POP POP JUMP JUMPDEST PUSH0 PUSH1 0x20 DUP3 DUP5 SUB SLT ISZERO PUSH2 0xEA4 JUMPI PUSH2 0xEA3 PUSH2 0x9E3 JUMP JUMPDEST JUMPDEST PUSH0 PUSH2 0xEB1 DUP5 DUP3 DUP6 ADD PUSH2 0xE7B JUMP JUMPDEST SWAP2 POP POP SWAP3 SWAP2 POP POP JUMP JUMPDEST PUSH32 0x756E6B6E6F776E20616464726573730000000000000000000000000000000000 PUSH0 DUP3 ADD MSTORE POP JUMP JUMPDEST PUSH0 PUSH2 0xEEE PUSH1 0xF DUP4 PUSH2 0x95D JUMP JUMPDEST SWAP2 POP PUSH2 0xEF9 DUP3 PUSH2 0xEBA JUMP JUMPDEST PUSH1 0x20 DUP3 ADD SWAP1 POP SWAP2 SWAP1 POP JUMP JUMPDEST PUSH0 PUSH1 0x20 DUP3 ADD SWAP1 POP DUP2 DUP2 SUB PUSH0 DUP4 ADD MSTORE PUSH2 0xF1B DUP2 PUSH2 0xEE2 JUMP JUMPDEST SWAP1 POP SWAP2 SWAP1 POP JUMP JUMPDEST PUSH32 0x4E487B7100000000000000000000000000000000000000000000000000000000 PUSH0 MSTORE PUSH1 0x11 PUSH1 0x4 MSTORE PUSH1 0x24 PUSH0 REVERT JUMPDEST PUSH0 PUSH2 0xF59 DUP3 PUSH2 0x922 JUMP JUMPDEST SWAP2 POP PUSH32 0xFFFFFFFFFFFFFFFFFFFFFFFFFFFFFFFFFFFFFFFFFFFFFFFFFFFFFFFFFFFFFFFF DUP3 SUB PUSH2 0xF8B JUMPI PUSH2 0xF8A PUSH2 0xF22 JUMP JUMPDEST JUMPDEST PUSH1 0x1 DUP3 ADD SWAP1 POP SWAP2 SWAP1 POP JUMP INVALID LOG2 PUSH5 0x6970667358 0x22 SLT KECCAK256 0xB8 CHAINID 0xE PUSH2 0x27E4 RETF 0xCC PUSH26 0x9B700AB6A7213EF0F54445FD1BBB5A9B6B80BF109DDFC264736F PUSH13 0x634300081E0033000000000000 "
				},
				"gasEstimates": {
					"creation": {
						"codeDepositCost": "808800",
						"executionCost": "infinite",
						"totalCost": "infinite"
					},
					"external": {
						"addTx(uint8,uint8,uint256,address,uint256,address)": "infinite",
						"getMPensionTx(uint256)": "infinite",
						"getName()": "infinite",
						"getTx(uint256)": "infinite",
						"getVersion()": "310",
						"notifyChangeOfAddress()": "infinite"
					},
					"internal": {
						"getIndex()": "24371"
					}
				},
				"methodIdentifiers": {
					"addTx(uint8,uint8,uint256,address,uint256,address)": "ee16e639",
					"getMPensionTx(uint256)": "f3fd548f",
					"getName()": "17d7de7c",
					"getTx(uint256)": "b8c89338",
					"getVersion()": "0d8e6e2c",
					"notifyChangeOfAddress()": "cde4c10c"
				}
			},
			"storageLayout": {
				"storage": [
					{
						"astId": 51,
						"contract": "contracts/core/util/MPTxManager.sol:MPTxManager",
						"label": "register",
						"offset": 0,
						"slot": "0",
						"type": "t_contract(IRegister)293"
					},
					{
						"astId": 53,
						"contract": "contracts/core/util/MPTxManager.sol:MPTxManager",
						"label": "self",
						"offset": 0,
						"slot": "1",
						"type": "t_address"
					},
					{
						"astId": 55,
						"contract": "contracts/core/util/MPTxManager.sol:MPTxManager",
						"label": "index",
						"offset": 0,
						"slot": "2",
						"type": "t_uint256"
					},
					{
						"astId": 58,
						"contract": "contracts/core/util/MPTxManager.sol:MPTxManager",
						"label": "ids",
						"offset": 0,
						"slot": "3",
						"type": "t_array(t_uint256)dyn_storage"
					},
					{
						"astId": 63,
						"contract": "contracts/core/util/MPTxManager.sol:MPTxManager",
						"label": "txById",
						"offset": 0,
						"slot": "4",
						"type": "t_mapping(t_uint256,t_struct(Tx)532_storage)"
					},
					{
						"astId": 71,
						"contract": "contracts/core/util/MPTxManager.sol:MPTxManager",
						"label": "txIdsByIdByObjType",
						"offset": 0,
						"slot": "5",
						"type": "t_mapping(t_enum(ObjType)455,t_mapping(t_uint256,t_array(t_uint256)dyn_storage))"
					}
				],
				"types": {
					"t_address": {
						"encoding": "inplace",
						"label": "address",
						"numberOfBytes": "20"
					},
					"t_array(t_uint256)dyn_storage": {
						"base": "t_uint256",
						"encoding": "dynamic_array",
						"label": "uint256[]",
						"numberOfBytes": "32"
					},
					"t_contract(IRegister)293": {
						"encoding": "inplace",
						"label": "contract IRegister",
						"numberOfBytes": "20"
					},
					"t_enum(ObjType)455": {
						"encoding": "inplace",
						"label": "enum ObjType",
						"numberOfBytes": "1"
					},
					"t_enum(TxType)516": {
						"encoding": "inplace",
						"label": "enum TxType",
						"numberOfBytes": "1"
					},
					"t_mapping(t_enum(ObjType)455,t_mapping(t_uint256,t_array(t_uint256)dyn_storage))": {
						"encoding": "mapping",
						"key": "t_enum(ObjType)455",
						"label": "mapping(enum ObjType => mapping(uint256 => uint256[]))",
						"numberOfBytes": "32",
						"value": "t_mapping(t_uint256,t_array(t_uint256)dyn_storage)"
					},
					"t_mapping(t_uint256,t_array(t_uint256)dyn_storage)": {
						"encoding": "mapping",
						"key": "t_uint256",
						"label": "mapping(uint256 => uint256[])",
						"numberOfBytes": "32",
						"value": "t_array(t_uint256)dyn_storage"
					},
					"t_mapping(t_uint256,t_struct(Tx)532_storage)": {
						"encoding": "mapping",
						"key": "t_uint256",
						"label": "mapping(uint256 => struct Tx)",
						"numberOfBytes": "32",
						"value": "t_struct(Tx)532_storage"
					},
					"t_struct(Tx)532_storage": {
						"encoding": "inplace",
						"label": "struct Tx",
						"members": [
							{
								"astId": 518,
								"contract": "contracts/core/util/MPTxManager.sol:MPTxManager",
								"label": "id",
								"offset": 0,
								"slot": "0",
								"type": "t_uint256"
							},
							{
								"astId": 521,
								"contract": "contracts/core/util/MPTxManager.sol:MPTxManager",
								"label": "txType",
								"offset": 0,
								"slot": "1",
								"type": "t_enum(TxType)516"
							},
							{
								"astId": 523,
								"contract": "contracts/core/util/MPTxManager.sol:MPTxManager",
								"label": "location",
								"offset": 1,
								"slot": "1",
								"type": "t_address"
							},
							{
								"astId": 525,
								"contract": "contracts/core/util/MPTxManager.sol:MPTxManager",
								"label": "entityId",
								"offset": 0,
								"slot": "2",
								"type": "t_uint256"
							},
							{
								"astId": 527,
								"contract": "contracts/core/util/MPTxManager.sol:MPTxManager",
								"label": "date",
								"offset": 0,
								"slot": "3",
								"type": "t_uint256"
							},
							{
								"astId": 529,
								"contract": "contracts/core/util/MPTxManager.sol:MPTxManager",
								"label": "amount",
								"offset": 0,
								"slot": "4",
								"type": "t_uint256"
							},
							{
								"astId": 531,
								"contract": "contracts/core/util/MPTxManager.sol:MPTxManager",
								"label": "erc20",
								"offset": 0,
								"slot": "5",
								"type": "t_address"
							}
						],
						"numberOfBytes": "192"
					},
					"t_uint256": {
						"encoding": "inplace",
						"label": "uint256",
						"numberOfBytes": "32"
					}
				}
			},
			"userdoc": {
				"kind": "user",
				"methods": {},
				"version": 1
			}
		}
	}
}