{
	"contracts/core/product/MPProductManager.sol": {
		"MPProductManager": {
			"abi": [
				{
					"inputs": [
						{
							"internalType": "address",
							"name": "_register",
							"type": "address"
						}
					],
					"stateMutability": "nonpayable",
					"type": "constructor"
				},
				{
					"inputs": [
						{
							"components": [
								{
									"internalType": "address",
									"name": "pensionCurrencyErc20",
									"type": "address"
								},
								{
									"internalType": "enum RiskType",
									"name": "riskType",
									"type": "uint8"
								},
								{
									"internalType": "uint256",
									"name": "totalContribution",
									"type": "uint256"
								},
								{
									"internalType": "uint256",
									"name": "principalOnMaturity",
									"type": "uint256"
								},
								{
									"internalType": "uint256",
									"name": "interest",
									"type": "uint256"
								},
								{
									"components": [
										{
											"internalType": "enum Schedule",
											"name": "schedule",
											"type": "uint8"
										},
										{
											"internalType": "uint256",
											"name": "term",
											"type": "uint256"
										},
										{
											"internalType": "uint256",
											"name": "minimumAmount",
											"type": "uint256"
										},
										{
											"internalType": "uint256",
											"name": "maximumAmount",
											"type": "uint256"
										},
										{
											"internalType": "uint256",
											"name": "totalIntervals",
											"type": "uint256"
										},
										{
											"internalType": "uint256",
											"name": "totalAmount",
											"type": "uint256"
										}
									],
									"internalType": "struct FinancialSchedule",
									"name": "contributionSchedule",
									"type": "tuple"
								},
								{
									"components": [
										{
											"internalType": "enum Schedule",
											"name": "schedule",
											"type": "uint8"
										},
										{
											"internalType": "uint256",
											"name": "term",
											"type": "uint256"
										},
										{
											"internalType": "uint256",
											"name": "minimumAmount",
											"type": "uint256"
										},
										{
											"internalType": "uint256",
											"name": "maximumAmount",
											"type": "uint256"
										},
										{
											"internalType": "uint256",
											"name": "totalIntervals",
											"type": "uint256"
										},
										{
											"internalType": "uint256",
											"name": "totalAmount",
											"type": "uint256"
										}
									],
									"internalType": "struct FinancialSchedule",
									"name": "emissionSchedule",
									"type": "tuple"
								},
								{
									"components": [
										{
											"internalType": "uint256",
											"name": "maxGainPercentage",
											"type": "uint256"
										},
										{
											"internalType": "uint256",
											"name": "maxLossPercentage",
											"type": "uint256"
										}
									],
									"internalType": "struct Tolerance",
									"name": "tolerance",
									"type": "tuple"
								},
								{
									"internalType": "uint256",
									"name": "lifespan",
									"type": "uint256"
								},
								{
									"internalType": "uint256",
									"name": "units",
									"type": "uint256"
								}
							],
							"internalType": "struct MProtoProduct",
							"name": "_protoProduct",
							"type": "tuple"
						}
					],
					"name": "createProduct",
					"outputs": [
						{
							"internalType": "uint256",
							"name": "_productId",
							"type": "uint256"
						},
						{
							"internalType": "uint256",
							"name": "_txId",
							"type": "uint256"
						}
					],
					"stateMutability": "nonpayable",
					"type": "function"
				},
				{
					"inputs": [
						{
							"internalType": "uint256",
							"name": "_productId",
							"type": "uint256"
						}
					],
					"name": "expireProduct",
					"outputs": [
						{
							"internalType": "uint256",
							"name": "_txId",
							"type": "uint256"
						}
					],
					"stateMutability": "nonpayable",
					"type": "function"
				},
				{
					"inputs": [],
					"name": "getMProductIds",
					"outputs": [
						{
							"internalType": "uint256[]",
							"name": "_mProductIds",
							"type": "uint256[]"
						}
					],
					"stateMutability": "view",
					"type": "function"
				},
				{
					"inputs": [],
					"name": "getName",
					"outputs": [
						{
							"internalType": "string",
							"name": "_name",
							"type": "string"
						}
					],
					"stateMutability": "pure",
					"type": "function"
				},
				{
					"inputs": [
						{
							"internalType": "uint256",
							"name": "_productId",
							"type": "uint256"
						}
					],
					"name": "getProduct",
					"outputs": [
						{
							"components": [
								{
									"internalType": "uint256",
									"name": "id",
									"type": "uint256"
								},
								{
									"internalType": "address",
									"name": "provider",
									"type": "address"
								},
								{
									"internalType": "address",
									"name": "erc20",
									"type": "address"
								},
								{
									"internalType": "uint256",
									"name": "totalContribution",
									"type": "uint256"
								},
								{
									"internalType": "uint256",
									"name": "principalOnMaturity",
									"type": "uint256"
								},
								{
									"internalType": "uint256",
									"name": "interest",
									"type": "uint256"
								},
								{
									"internalType": "enum RiskType",
									"name": "riskType",
									"type": "uint8"
								},
								{
									"components": [
										{
											"internalType": "enum Schedule",
											"name": "schedule",
											"type": "uint8"
										},
										{
											"internalType": "uint256",
											"name": "term",
											"type": "uint256"
										},
										{
											"internalType": "uint256",
											"name": "minimumAmount",
											"type": "uint256"
										},
										{
											"internalType": "uint256",
											"name": "maximumAmount",
											"type": "uint256"
										},
										{
											"internalType": "uint256",
											"name": "totalIntervals",
											"type": "uint256"
										},
										{
											"internalType": "uint256",
											"name": "totalAmount",
											"type": "uint256"
										}
									],
									"internalType": "struct FinancialSchedule",
									"name": "contributionSchedule",
									"type": "tuple"
								},
								{
									"components": [
										{
											"internalType": "enum Schedule",
											"name": "schedule",
											"type": "uint8"
										},
										{
											"internalType": "uint256",
											"name": "term",
											"type": "uint256"
										},
										{
											"internalType": "uint256",
											"name": "minimumAmount",
											"type": "uint256"
										},
										{
											"internalType": "uint256",
											"name": "maximumAmount",
											"type": "uint256"
										},
										{
											"internalType": "uint256",
											"name": "totalIntervals",
											"type": "uint256"
										},
										{
											"internalType": "uint256",
											"name": "totalAmount",
											"type": "uint256"
										}
									],
									"internalType": "struct FinancialSchedule",
									"name": "emissionSchedule",
									"type": "tuple"
								},
								{
									"components": [
										{
											"internalType": "uint256",
											"name": "maxGainPercentage",
											"type": "uint256"
										},
										{
											"internalType": "uint256",
											"name": "maxLossPercentage",
											"type": "uint256"
										}
									],
									"internalType": "struct Tolerance",
									"name": "tolerance",
									"type": "tuple"
								},
								{
									"internalType": "uint256",
									"name": "createdDate",
									"type": "uint256"
								},
								{
									"internalType": "uint256",
									"name": "expiryDate",
									"type": "uint256"
								},
								{
									"internalType": "uint256",
									"name": "units",
									"type": "uint256"
								}
							],
							"internalType": "struct MPProduct",
							"name": "_product",
							"type": "tuple"
						}
					],
					"stateMutability": "view",
					"type": "function"
				},
				{
					"inputs": [],
					"name": "getProductIdsByOwner",
					"outputs": [
						{
							"internalType": "uint256[]",
							"name": "_productIds",
							"type": "uint256[]"
						}
					],
					"stateMutability": "view",
					"type": "function"
				},
				{
					"inputs": [],
					"name": "getVersion",
					"outputs": [
						{
							"internalType": "uint256",
							"name": "_version",
							"type": "uint256"
						}
					],
					"stateMutability": "pure",
					"type": "function"
				},
				{
					"inputs": [
						{
							"internalType": "uint256",
							"name": "_productId",
							"type": "uint256"
						}
					],
					"name": "isKnownProduct",
					"outputs": [
						{
							"internalType": "bool",
							"name": "_isKnown",
							"type": "bool"
						}
					],
					"stateMutability": "view",
					"type": "function"
				},
				{
					"inputs": [],
					"name": "notifyChangeOfAddress",
					"outputs": [
						{
							"internalType": "bool",
							"name": "_acknowledged",
							"type": "bool"
						}
					],
					"stateMutability": "nonpayable",
					"type": "function"
				},
				{
					"inputs": [
						{
							"internalType": "uint256",
							"name": "_productId",
							"type": "uint256"
						}
					],
					"name": "updateProductInventory",
					"outputs": [
						{
							"internalType": "uint256",
							"name": "_txId",
							"type": "uint256"
						}
					],
					"stateMutability": "nonpayable",
					"type": "function"
				}
			],
			"devdoc": {
				"kind": "dev",
				"methods": {},
				"version": 1
			},
			"evm": {
				"assembly": "    /* \"contracts/core/product/MPProductManager.sol\":329:5560  contract MPProductManager is IMPProductManager, IVersion { ... */\n  mstore(0x40, 0xa0)\n    /* \"contracts/core/product/MPProductManager.sol\":1601:1819  constructor(address _register) {... */\n  callvalue\n  dup1\n  iszero\n  tag_1\n  jumpi\n  revert(0x00, 0x00)\ntag_1:\n  pop\n  mload(0x40)\n  sub(codesize, bytecodeSize)\n  dup1\n  bytecodeSize\n  dup4\n  codecopy\n  dup2\n  dup2\n  add\n  0x40\n  mstore\n  dup2\n  add\n  swap1\n  tag_2\n  swap2\n  swap1\n  tag_3\n  jump\t// in\ntag_2:\n    /* \"contracts/core/product/MPProductManager.sol\":1664:1673  _register */\n  dup1\n    /* \"contracts/core/product/MPProductManager.sol\":1643:1651  register */\n  0x00\n  0x00\n    /* \"contracts/core/product/MPProductManager.sol\":1643:1674  register = IRegister(_register) */\n  0x0100\n  exp\n  dup2\n  sload\n  dup2\n  0xffffffffffffffffffffffffffffffffffffffff\n  mul\n  not\n  and\n  swap1\n  dup4\n  0xffffffffffffffffffffffffffffffffffffffff\n  and\n  mul\n  or\n  swap1\n  sstore\n  pop\n    /* \"contracts/core/product/MPProductManager.sol\":1694:1702  register */\n  0x00\n  0x00\n  swap1\n  sload\n  swap1\n  0x0100\n  exp\n  swap1\n  div\n  0xffffffffffffffffffffffffffffffffffffffff\n  and\n    /* \"contracts/core/product/MPProductManager.sol\":1694:1713  register.hasAddress */\n  0xffffffffffffffffffffffffffffffffffffffff\n  and\n  0xe1311ec6\n    /* \"contracts/core/product/MPProductManager.sol\":1714:1727  TX_MANAGER_CA */\n  mload(0x40)\n  dup1\n  0x40\n  add\n  0x40\n  mstore\n  dup1\n  0x16\n  dup2\n  mstore\n  0x20\n  add\n  0x52455345525645445f4d505f54585f4d414e4147455200000000000000000000\n  dup2\n  mstore\n  pop\n    /* \"contracts/core/product/MPProductManager.sol\":1694:1728  register.hasAddress(TX_MANAGER_CA) */\n  mload(0x40)\n  dup3\n  0xffffffff\n  and\n  0xe0\n  shl\n  dup2\n  mstore\n  0x04\n  add\n  tag_6\n  swap2\n  swap1\n  tag_7\n  jump\t// in\ntag_6:\n  0x20\n  mload(0x40)\n  dup1\n  dup4\n  sub\n  dup2\n  dup7\n  gas\n  staticcall\n  iszero\n  dup1\n  iszero\n  tag_9\n  jumpi\n  returndatacopy(0x00, 0x00, returndatasize)\n  revert(0x00, returndatasize)\ntag_9:\n  pop\n  pop\n  pop\n  pop\n  mload(0x40)\n  returndatasize\n  not(0x1f)\n  0x1f\n  dup3\n  add\n  and\n  dup3\n  add\n  dup1\n  0x40\n  mstore\n  pop\n  dup2\n  add\n  swap1\n  tag_10\n  swap2\n  swap1\n  tag_11\n  jump\t// in\ntag_10:\n    /* \"contracts/core/product/MPProductManager.sol\":1763:1776  TX_MANAGER_CA */\n  mload(0x40)\n  dup1\n  0x40\n  add\n  0x40\n  mstore\n  dup1\n  0x16\n  dup2\n  mstore\n  0x20\n  add\n  0x52455345525645445f4d505f54585f4d414e4147455200000000000000000000\n  dup2\n  mstore\n  pop\n    /* \"contracts/core/product/MPProductManager.sol\":1730:1778  string.concat(\"missing address \",TX_MANAGER_CA ) */\n  add(0x20, mload(0x40))\n  tag_12\n  swap2\n  swap1\n  tag_13\n  jump\t// in\ntag_12:\n  mload(0x40)\n  0x20\n  dup2\n  dup4\n  sub\n  sub\n  dup2\n  mstore\n  swap1\n  0x40\n  mstore\n    /* \"contracts/core/product/MPProductManager.sol\":1686:1779  require(register.hasAddress(TX_MANAGER_CA), string.concat(\"missing address \",TX_MANAGER_CA )) */\n  swap1\n  tag_14\n  jumpi\n  mload(0x40)\n  0x08c379a000000000000000000000000000000000000000000000000000000000\n  dup2\n  mstore\n  0x04\n  add\n  tag_15\n  swap2\n  swap1\n  tag_7\n  jump\t// in\ntag_15:\n  mload(0x40)\n  dup1\n  swap2\n  sub\n  swap1\n  revert\ntag_14:\n  pop\n    /* \"contracts/core/product/MPProductManager.sol\":1805:1809  this */\n  address\n    /* \"contracts/core/product/MPProductManager.sol\":1790:1810  self = address(this) */\n  0xffffffffffffffffffffffffffffffffffffffff\n  and\n  0x80\n  dup2\n  0xffffffffffffffffffffffffffffffffffffffff\n  and\n  dup2\n  mstore\n  pop\n  pop\n    /* \"contracts/core/product/MPProductManager.sol\":1601:1819  constructor(address _register) {... */\n  pop\n    /* \"contracts/core/product/MPProductManager.sol\":329:5560  contract MPProductManager is IMPProductManager, IVersion { ... */\n  jump(tag_16)\n    /* \"#utility.yul\":88:205   */\ntag_18:\n    /* \"#utility.yul\":197:198   */\n  0x00\n    /* \"#utility.yul\":194:195   */\n  0x00\n    /* \"#utility.yul\":187:199   */\n  revert\n    /* \"#utility.yul\":334:460   */\ntag_20:\n    /* \"#utility.yul\":371:378   */\n  0x00\n    /* \"#utility.yul\":411:453   */\n  0xffffffffffffffffffffffffffffffffffffffff\n    /* \"#utility.yul\":404:409   */\n  dup3\n    /* \"#utility.yul\":400:454   */\n  and\n    /* \"#utility.yul\":389:454   */\n  swap1\n  pop\n    /* \"#utility.yul\":334:460   */\n  swap2\n  swap1\n  pop\n  jump\t// out\n    /* \"#utility.yul\":466:562   */\ntag_21:\n    /* \"#utility.yul\":503:510   */\n  0x00\n    /* \"#utility.yul\":532:556   */\n  tag_41\n    /* \"#utility.yul\":550:555   */\n  dup3\n    /* \"#utility.yul\":532:556   */\n  tag_20\n  jump\t// in\ntag_41:\n    /* \"#utility.yul\":521:556   */\n  swap1\n  pop\n    /* \"#utility.yul\":466:562   */\n  swap2\n  swap1\n  pop\n  jump\t// out\n    /* \"#utility.yul\":568:690   */\ntag_22:\n    /* \"#utility.yul\":641:665   */\n  tag_43\n    /* \"#utility.yul\":659:664   */\n  dup2\n    /* \"#utility.yul\":641:665   */\n  tag_21\n  jump\t// in\ntag_43:\n    /* \"#utility.yul\":634:639   */\n  dup2\n    /* \"#utility.yul\":631:666   */\n  eq\n    /* \"#utility.yul\":621:684   */\n  tag_44\n  jumpi\n    /* \"#utility.yul\":680:681   */\n  0x00\n    /* \"#utility.yul\":677:678   */\n  0x00\n    /* \"#utility.yul\":670:682   */\n  revert\n    /* \"#utility.yul\":621:684   */\ntag_44:\n    /* \"#utility.yul\":568:690   */\n  pop\n  jump\t// out\n    /* \"#utility.yul\":696:839   */\ntag_23:\n    /* \"#utility.yul\":753:758   */\n  0x00\n    /* \"#utility.yul\":784:790   */\n  dup2\n    /* \"#utility.yul\":778:791   */\n  mload\n    /* \"#utility.yul\":769:791   */\n  swap1\n  pop\n    /* \"#utility.yul\":800:833   */\n  tag_46\n    /* \"#utility.yul\":827:832   */\n  dup2\n    /* \"#utility.yul\":800:833   */\n  tag_22\n  jump\t// in\ntag_46:\n    /* \"#utility.yul\":696:839   */\n  swap3\n  swap2\n  pop\n  pop\n  jump\t// out\n    /* \"#utility.yul\":845:1196   */\ntag_3:\n    /* \"#utility.yul\":915:921   */\n  0x00\n    /* \"#utility.yul\":964:966   */\n  0x20\n    /* \"#utility.yul\":952:961   */\n  dup3\n    /* \"#utility.yul\":943:950   */\n  dup5\n    /* \"#utility.yul\":939:962   */\n  sub\n    /* \"#utility.yul\":935:967   */\n  slt\n    /* \"#utility.yul\":932:1051   */\n  iszero\n  tag_48\n  jumpi\n    /* \"#utility.yul\":970:1049   */\n  tag_49\n  tag_18\n  jump\t// in\ntag_49:\n    /* \"#utility.yul\":932:1051   */\ntag_48:\n    /* \"#utility.yul\":1090:1091   */\n  0x00\n    /* \"#utility.yul\":1115:1179   */\n  tag_50\n    /* \"#utility.yul\":1171:1178   */\n  dup5\n    /* \"#utility.yul\":1162:1168   */\n  dup3\n    /* \"#utility.yul\":1151:1160   */\n  dup6\n    /* \"#utility.yul\":1147:1169   */\n  add\n    /* \"#utility.yul\":1115:1179   */\n  tag_23\n  jump\t// in\ntag_50:\n    /* \"#utility.yul\":1105:1179   */\n  swap2\n  pop\n    /* \"#utility.yul\":1061:1189   */\n  pop\n    /* \"#utility.yul\":845:1196   */\n  swap3\n  swap2\n  pop\n  pop\n  jump\t// out\n    /* \"#utility.yul\":1202:1301   */\ntag_24:\n    /* \"#utility.yul\":1254:1260   */\n  0x00\n    /* \"#utility.yul\":1288:1293   */\n  dup2\n    /* \"#utility.yul\":1282:1294   */\n  mload\n    /* \"#utility.yul\":1272:1294   */\n  swap1\n  pop\n    /* \"#utility.yul\":1202:1301   */\n  swap2\n  swap1\n  pop\n  jump\t// out\n    /* \"#utility.yul\":1307:1476   */\ntag_25:\n    /* \"#utility.yul\":1391:1402   */\n  0x00\n    /* \"#utility.yul\":1425:1431   */\n  dup3\n    /* \"#utility.yul\":1420:1423   */\n  dup3\n    /* \"#utility.yul\":1413:1432   */\n  mstore\n    /* \"#utility.yul\":1465:1469   */\n  0x20\n    /* \"#utility.yul\":1460:1463   */\n  dup3\n    /* \"#utility.yul\":1456:1470   */\n  add\n    /* \"#utility.yul\":1441:1470   */\n  swap1\n  pop\n    /* \"#utility.yul\":1307:1476   */\n  swap3\n  swap2\n  pop\n  pop\n  jump\t// out\n    /* \"#utility.yul\":1482:1621   */\ntag_26:\n    /* \"#utility.yul\":1571:1577   */\n  dup3\n    /* \"#utility.yul\":1566:1569   */\n  dup2\n    /* \"#utility.yul\":1561:1564   */\n  dup4\n    /* \"#utility.yul\":1555:1578   */\n  mcopy\n    /* \"#utility.yul\":1612:1613   */\n  0x00\n    /* \"#utility.yul\":1603:1609   */\n  dup4\n    /* \"#utility.yul\":1598:1601   */\n  dup4\n    /* \"#utility.yul\":1594:1610   */\n  add\n    /* \"#utility.yul\":1587:1614   */\n  mstore\n    /* \"#utility.yul\":1482:1621   */\n  pop\n  pop\n  pop\n  jump\t// out\n    /* \"#utility.yul\":1627:1729   */\ntag_27:\n    /* \"#utility.yul\":1668:1674   */\n  0x00\n    /* \"#utility.yul\":1719:1721   */\n  0x1f\n    /* \"#utility.yul\":1715:1722   */\n  not\n    /* \"#utility.yul\":1710:1712   */\n  0x1f\n    /* \"#utility.yul\":1703:1708   */\n  dup4\n    /* \"#utility.yul\":1699:1713   */\n  add\n    /* \"#utility.yul\":1695:1723   */\n  and\n    /* \"#utility.yul\":1685:1723   */\n  swap1\n  pop\n    /* \"#utility.yul\":1627:1729   */\n  swap2\n  swap1\n  pop\n  jump\t// out\n    /* \"#utility.yul\":1735:2112   */\ntag_28:\n    /* \"#utility.yul\":1823:1826   */\n  0x00\n    /* \"#utility.yul\":1851:1890   */\n  tag_56\n    /* \"#utility.yul\":1884:1889   */\n  dup3\n    /* \"#utility.yul\":1851:1890   */\n  tag_24\n  jump\t// in\ntag_56:\n    /* \"#utility.yul\":1906:1977   */\n  tag_57\n    /* \"#utility.yul\":1970:1976   */\n  dup2\n    /* \"#utility.yul\":1965:1968   */\n  dup6\n    /* \"#utility.yul\":1906:1977   */\n  tag_25\n  jump\t// in\ntag_57:\n    /* \"#utility.yul\":1899:1977   */\n  swap4\n  pop\n    /* \"#utility.yul\":1986:2051   */\n  tag_58\n    /* \"#utility.yul\":2044:2050   */\n  dup2\n    /* \"#utility.yul\":2039:2042   */\n  dup6\n    /* \"#utility.yul\":2032:2036   */\n  0x20\n    /* \"#utility.yul\":2025:2030   */\n  dup7\n    /* \"#utility.yul\":2021:2037   */\n  add\n    /* \"#utility.yul\":1986:2051   */\n  tag_26\n  jump\t// in\ntag_58:\n    /* \"#utility.yul\":2076:2105   */\n  tag_59\n    /* \"#utility.yul\":2098:2104   */\n  dup2\n    /* \"#utility.yul\":2076:2105   */\n  tag_27\n  jump\t// in\ntag_59:\n    /* \"#utility.yul\":2071:2074   */\n  dup5\n    /* \"#utility.yul\":2067:2106   */\n  add\n    /* \"#utility.yul\":2060:2106   */\n  swap2\n  pop\n    /* \"#utility.yul\":1827:2112   */\n  pop\n    /* \"#utility.yul\":1735:2112   */\n  swap3\n  swap2\n  pop\n  pop\n  jump\t// out\n    /* \"#utility.yul\":2118:2431   */\ntag_7:\n    /* \"#utility.yul\":2231:2235   */\n  0x00\n    /* \"#utility.yul\":2269:2271   */\n  0x20\n    /* \"#utility.yul\":2258:2267   */\n  dup3\n    /* \"#utility.yul\":2254:2272   */\n  add\n    /* \"#utility.yul\":2246:2272   */\n  swap1\n  pop\n    /* \"#utility.yul\":2318:2327   */\n  dup2\n    /* \"#utility.yul\":2312:2316   */\n  dup2\n    /* \"#utility.yul\":2308:2328   */\n  sub\n    /* \"#utility.yul\":2304:2305   */\n  0x00\n    /* \"#utility.yul\":2293:2302   */\n  dup4\n    /* \"#utility.yul\":2289:2306   */\n  add\n    /* \"#utility.yul\":2282:2329   */\n  mstore\n    /* \"#utility.yul\":2346:2424   */\n  tag_61\n    /* \"#utility.yul\":2419:2423   */\n  dup2\n    /* \"#utility.yul\":2410:2416   */\n  dup5\n    /* \"#utility.yul\":2346:2424   */\n  tag_28\n  jump\t// in\ntag_61:\n    /* \"#utility.yul\":2338:2424   */\n  swap1\n  pop\n    /* \"#utility.yul\":2118:2431   */\n  swap3\n  swap2\n  pop\n  pop\n  jump\t// out\n    /* \"#utility.yul\":2437:2527   */\ntag_29:\n    /* \"#utility.yul\":2471:2478   */\n  0x00\n    /* \"#utility.yul\":2514:2519   */\n  dup2\n    /* \"#utility.yul\":2507:2520   */\n  iszero\n    /* \"#utility.yul\":2500:2521   */\n  iszero\n    /* \"#utility.yul\":2489:2521   */\n  swap1\n  pop\n    /* \"#utility.yul\":2437:2527   */\n  swap2\n  swap1\n  pop\n  jump\t// out\n    /* \"#utility.yul\":2533:2649   */\ntag_30:\n    /* \"#utility.yul\":2603:2624   */\n  tag_64\n    /* \"#utility.yul\":2618:2623   */\n  dup2\n    /* \"#utility.yul\":2603:2624   */\n  tag_29\n  jump\t// in\ntag_64:\n    /* \"#utility.yul\":2596:2601   */\n  dup2\n    /* \"#utility.yul\":2593:2625   */\n  eq\n    /* \"#utility.yul\":2583:2643   */\n  tag_65\n  jumpi\n    /* \"#utility.yul\":2639:2640   */\n  0x00\n    /* \"#utility.yul\":2636:2637   */\n  0x00\n    /* \"#utility.yul\":2629:2641   */\n  revert\n    /* \"#utility.yul\":2583:2643   */\ntag_65:\n    /* \"#utility.yul\":2533:2649   */\n  pop\n  jump\t// out\n    /* \"#utility.yul\":2655:2792   */\ntag_31:\n    /* \"#utility.yul\":2709:2714   */\n  0x00\n    /* \"#utility.yul\":2740:2746   */\n  dup2\n    /* \"#utility.yul\":2734:2747   */\n  mload\n    /* \"#utility.yul\":2725:2747   */\n  swap1\n  pop\n    /* \"#utility.yul\":2756:2786   */\n  tag_67\n    /* \"#utility.yul\":2780:2785   */\n  dup2\n    /* \"#utility.yul\":2756:2786   */\n  tag_30\n  jump\t// in\ntag_67:\n    /* \"#utility.yul\":2655:2792   */\n  swap3\n  swap2\n  pop\n  pop\n  jump\t// out\n    /* \"#utility.yul\":2798:3143   */\ntag_11:\n    /* \"#utility.yul\":2865:2871   */\n  0x00\n    /* \"#utility.yul\":2914:2916   */\n  0x20\n    /* \"#utility.yul\":2902:2911   */\n  dup3\n    /* \"#utility.yul\":2893:2900   */\n  dup5\n    /* \"#utility.yul\":2889:2912   */\n  sub\n    /* \"#utility.yul\":2885:2917   */\n  slt\n    /* \"#utility.yul\":2882:3001   */\n  iszero\n  tag_69\n  jumpi\n    /* \"#utility.yul\":2920:2999   */\n  tag_70\n  tag_18\n  jump\t// in\ntag_70:\n    /* \"#utility.yul\":2882:3001   */\ntag_69:\n    /* \"#utility.yul\":3040:3041   */\n  0x00\n    /* \"#utility.yul\":3065:3126   */\n  tag_71\n    /* \"#utility.yul\":3118:3125   */\n  dup5\n    /* \"#utility.yul\":3109:3115   */\n  dup3\n    /* \"#utility.yul\":3098:3107   */\n  dup6\n    /* \"#utility.yul\":3094:3116   */\n  add\n    /* \"#utility.yul\":3065:3126   */\n  tag_31\n  jump\t// in\ntag_71:\n    /* \"#utility.yul\":3055:3126   */\n  swap2\n  pop\n    /* \"#utility.yul\":3011:3136   */\n  pop\n    /* \"#utility.yul\":2798:3143   */\n  swap3\n  swap2\n  pop\n  pop\n  jump\t// out\n    /* \"#utility.yul\":3149:3343   */\ntag_32:\n    /* \"#utility.yul\":3318:3336   */\n  0x6d697373696e6720616464726573732000000000000000000000000000000000\n    /* \"#utility.yul\":3313:3316   */\n  dup2\n    /* \"#utility.yul\":3306:3337   */\n  mstore\n    /* \"#utility.yul\":3149:3343   */\n  pop\n  jump\t// out\n    /* \"#utility.yul\":3349:3497   */\ntag_33:\n    /* \"#utility.yul\":3451:3462   */\n  0x00\n    /* \"#utility.yul\":3488:3491   */\n  dup2\n    /* \"#utility.yul\":3473:3491   */\n  swap1\n  pop\n    /* \"#utility.yul\":3349:3497   */\n  swap3\n  swap2\n  pop\n  pop\n  jump\t// out\n    /* \"#utility.yul\":3503:3893   */\ntag_34:\n    /* \"#utility.yul\":3609:3612   */\n  0x00\n    /* \"#utility.yul\":3637:3676   */\n  tag_75\n    /* \"#utility.yul\":3670:3675   */\n  dup3\n    /* \"#utility.yul\":3637:3676   */\n  tag_24\n  jump\t// in\ntag_75:\n    /* \"#utility.yul\":3692:3781   */\n  tag_76\n    /* \"#utility.yul\":3774:3780   */\n  dup2\n    /* \"#utility.yul\":3769:3772   */\n  dup6\n    /* \"#utility.yul\":3692:3781   */\n  tag_33\n  jump\t// in\ntag_76:\n    /* \"#utility.yul\":3685:3781   */\n  swap4\n  pop\n    /* \"#utility.yul\":3790:3855   */\n  tag_77\n    /* \"#utility.yul\":3848:3854   */\n  dup2\n    /* \"#utility.yul\":3843:3846   */\n  dup6\n    /* \"#utility.yul\":3836:3840   */\n  0x20\n    /* \"#utility.yul\":3829:3834   */\n  dup7\n    /* \"#utility.yul\":3825:3841   */\n  add\n    /* \"#utility.yul\":3790:3855   */\n  tag_26\n  jump\t// in\ntag_77:\n    /* \"#utility.yul\":3880:3886   */\n  dup1\n    /* \"#utility.yul\":3875:3878   */\n  dup5\n    /* \"#utility.yul\":3871:3887   */\n  add\n    /* \"#utility.yul\":3864:3887   */\n  swap2\n  pop\n    /* \"#utility.yul\":3613:3893   */\n  pop\n    /* \"#utility.yul\":3503:3893   */\n  swap3\n  swap2\n  pop\n  pop\n  jump\t// out\n    /* \"#utility.yul\":3899:4441   */\ntag_13:\n    /* \"#utility.yul\":4122:4125   */\n  0x00\n    /* \"#utility.yul\":4137:4275   */\n  tag_79\n    /* \"#utility.yul\":4271:4274   */\n  dup3\n    /* \"#utility.yul\":4137:4275   */\n  tag_32\n  jump\t// in\ntag_79:\n    /* \"#utility.yul\":4300:4302   */\n  0x10\n    /* \"#utility.yul\":4295:4298   */\n  dup3\n    /* \"#utility.yul\":4291:4303   */\n  add\n    /* \"#utility.yul\":4284:4303   */\n  swap2\n  pop\n    /* \"#utility.yul\":4320:4415   */\n  tag_80\n    /* \"#utility.yul\":4411:4414   */\n  dup3\n    /* \"#utility.yul\":4402:4408   */\n  dup5\n    /* \"#utility.yul\":4320:4415   */\n  tag_34\n  jump\t// in\ntag_80:\n    /* \"#utility.yul\":4313:4415   */\n  swap2\n  pop\n    /* \"#utility.yul\":4432:4435   */\n  dup2\n    /* \"#utility.yul\":4425:4435   */\n  swap1\n  pop\n    /* \"#utility.yul\":3899:4441   */\n  swap3\n  swap2\n  pop\n  pop\n  jump\t// out\n    /* \"contracts/core/product/MPProductManager.sol\":329:5560  contract MPProductManager is IMPProductManager, IVersion { ... */\ntag_16:\n  mload(0x80)\n  codecopy(0x00, dataOffset(sub_0), dataSize(sub_0))\n  0x00\n  assignImmutable(\"0x742ccb3c5ad7b0e2030ad7fa03711e32b9f4236452343c6e16a6cf67d464d149\")\n  return(0x00, dataSize(sub_0))\nstop\n\nsub_0: assembly {\n        /* \"contracts/core/product/MPProductManager.sol\":329:5560  contract MPProductManager is IMPProductManager, IVersion { ... */\n      mstore(0x40, 0x80)\n      callvalue\n      dup1\n      iszero\n      tag_1\n      jumpi\n      revert(0x00, 0x00)\n    tag_1:\n      pop\n      jumpi(tag_2, lt(calldatasize, 0x04))\n      shr(0xe0, calldataload(0x00))\n      dup1\n      0x8d808bcf\n      gt\n      tag_13\n      jumpi\n      dup1\n      0x8d808bcf\n      eq\n      tag_8\n      jumpi\n      dup1\n      0xb9db15b4\n      eq\n      tag_9\n      jumpi\n      dup1\n      0xca3f51ce\n      eq\n      tag_10\n      jumpi\n      dup1\n      0xcde4c10c\n      eq\n      tag_11\n      jumpi\n      dup1\n      0xe67d1d10\n      eq\n      tag_12\n      jumpi\n      jump(tag_2)\n    tag_13:\n      dup1\n      0x0d8e6e2c\n      eq\n      tag_3\n      jumpi\n      dup1\n      0x17d7de7c\n      eq\n      tag_4\n      jumpi\n      dup1\n      0x1af9c722\n      eq\n      tag_5\n      jumpi\n      dup1\n      0x4157a0f1\n      eq\n      tag_6\n      jumpi\n      dup1\n      0x47b714a6\n      eq\n      tag_7\n      jumpi\n    tag_2:\n      revert(0x00, 0x00)\n        /* \"contracts/core/product/MPProductManager.sol\":1930:2027  function getVersion() pure external returns (uint256 _version){ ... */\n    tag_3:\n      tag_14\n      tag_15\n      jump\t// in\n    tag_14:\n      mload(0x40)\n      tag_16\n      swap2\n      swap1\n      tag_17\n      jump\t// in\n    tag_16:\n      mload(0x40)\n      dup1\n      swap2\n      sub\n      swap1\n      return\n        /* \"contracts/core/product/MPProductManager.sol\":1827:1922  function getName() pure external returns (string memory _name) { ... */\n    tag_4:\n      tag_18\n      tag_19\n      jump\t// in\n    tag_18:\n      mload(0x40)\n      tag_20\n      swap2\n      swap1\n      tag_21\n      jump\t// in\n    tag_20:\n      mload(0x40)\n      dup1\n      swap2\n      sub\n      swap1\n      return\n        /* \"contracts/core/product/MPProductManager.sol\":2453:2595  function getProductIdsByOwner() view external returns (uint256 [] memory _productIds) {... */\n    tag_5:\n      tag_22\n      tag_23\n      jump\t// in\n    tag_22:\n      mload(0x40)\n      tag_24\n      swap2\n      swap1\n      tag_25\n      jump\t// in\n    tag_24:\n      mload(0x40)\n      dup1\n      swap2\n      sub\n      swap1\n      return\n        /* \"contracts/core/product/MPProductManager.sol\":2035:2152  function getMProductIds() view external returns (uint256 [] memory _mProductIds){... */\n    tag_6:\n      tag_26\n      tag_27\n      jump\t// in\n    tag_26:\n      mload(0x40)\n      tag_28\n      swap2\n      swap1\n      tag_25\n      jump\t// in\n    tag_28:\n      mload(0x40)\n      dup1\n      swap2\n      sub\n      swap1\n      return\n        /* \"contracts/core/product/MPProductManager.sol\":2603:4292  function createProduct(MProtoProduct memory _protoProduct) external returns (uint256 _productId, uint256 _txId) { ... */\n    tag_7:\n      tag_29\n      0x04\n      dup1\n      calldatasize\n      sub\n      dup2\n      add\n      swap1\n      tag_30\n      swap2\n      swap1\n      tag_31\n      jump\t// in\n    tag_30:\n      tag_32\n      jump\t// in\n    tag_29:\n      mload(0x40)\n      tag_33\n      swap3\n      swap2\n      swap1\n      tag_34\n      jump\t// in\n    tag_33:\n      mload(0x40)\n      dup1\n      swap2\n      sub\n      swap1\n      return\n        /* \"contracts/core/product/MPProductManager.sol\":4594:4858  function updateProductInventory(uint256 _productId) medallionPensionsOnly external returns (uint256 _txId){... */\n    tag_8:\n      tag_35\n      0x04\n      dup1\n      calldatasize\n      sub\n      dup2\n      add\n      swap1\n      tag_36\n      swap2\n      swap1\n      tag_37\n      jump\t// in\n    tag_36:\n      tag_38\n      jump\t// in\n    tag_35:\n      mload(0x40)\n      tag_39\n      swap2\n      swap1\n      tag_17\n      jump\t// in\n    tag_39:\n      mload(0x40)\n      dup1\n      swap2\n      sub\n      swap1\n      return\n        /* \"contracts/core/product/MPProductManager.sol\":2160:2299  function getProduct(uint256 _productId) view external returns (MPProduct memory _product){... */\n    tag_9:\n      tag_40\n      0x04\n      dup1\n      calldatasize\n      sub\n      dup2\n      add\n      swap1\n      tag_41\n      swap2\n      swap1\n      tag_37\n      jump\t// in\n    tag_41:\n      tag_42\n      jump\t// in\n    tag_40:\n      mload(0x40)\n      tag_43\n      swap2\n      swap1\n      tag_44\n      jump\t// in\n    tag_43:\n      mload(0x40)\n      dup1\n      swap2\n      sub\n      swap1\n      return\n        /* \"contracts/core/product/MPProductManager.sol\":4300:4585  function expireProduct(uint256 _productId) productOwnerOnly(_productId) external returns (uint256 _txId){ ... */\n    tag_10:\n      tag_45\n      0x04\n      dup1\n      calldatasize\n      sub\n      dup2\n      add\n      swap1\n      tag_46\n      swap2\n      swap1\n      tag_37\n      jump\t// in\n    tag_46:\n      tag_47\n      jump\t// in\n    tag_45:\n      mload(0x40)\n      tag_48\n      swap2\n      swap1\n      tag_17\n      jump\t// in\n    tag_48:\n      mload(0x40)\n      dup1\n      swap2\n      sub\n      swap1\n      return\n        /* \"contracts/core/product/MPProductManager.sol\":4866:5044  function notifyChangeOfAddress() external adminOnly returns (bool _acknowledged) { ... */\n    tag_11:\n      tag_49\n      tag_50\n      jump\t// in\n    tag_49:\n      mload(0x40)\n      tag_51\n      swap2\n      swap1\n      tag_52\n      jump\t// in\n    tag_51:\n      mload(0x40)\n      dup1\n      swap2\n      sub\n      swap1\n      return\n        /* \"contracts/core/product/MPProductManager.sol\":2307:2445  function isKnownProduct(uint256 _productId) view external returns (bool _isKnown){... */\n    tag_12:\n      tag_53\n      0x04\n      dup1\n      calldatasize\n      sub\n      dup2\n      add\n      swap1\n      tag_54\n      swap2\n      swap1\n      tag_37\n      jump\t// in\n    tag_54:\n      tag_55\n      jump\t// in\n    tag_53:\n      mload(0x40)\n      tag_56\n      swap2\n      swap1\n      tag_52\n      jump\t// in\n    tag_56:\n      mload(0x40)\n      dup1\n      swap2\n      sub\n      swap1\n      return\n        /* \"contracts/core/product/MPProductManager.sol\":1930:2027  function getVersion() pure external returns (uint256 _version){ ... */\n    tag_15:\n        /* \"contracts/core/product/MPProductManager.sol\":1975:1991  uint256 _version */\n      0x00\n        /* \"contracts/core/product/MPProductManager.sol\":968:969  2 */\n      0x02\n        /* \"contracts/core/product/MPProductManager.sol\":2004:2018  return version */\n      swap1\n      pop\n        /* \"contracts/core/product/MPProductManager.sol\":1930:2027  function getVersion() pure external returns (uint256 _version){ ... */\n      swap1\n      jump\t// out\n        /* \"contracts/core/product/MPProductManager.sol\":1827:1922  function getName() pure external returns (string memory _name) { ... */\n    tag_19:\n        /* \"contracts/core/product/MPProductManager.sol\":1869:1888  string memory _name */\n      0x60\n        /* \"contracts/core/product/MPProductManager.sol\":1909:1913  name */\n      mload(0x40)\n      dup1\n      0x40\n      add\n      0x40\n      mstore\n      dup1\n      0x1b\n      dup2\n      mstore\n      0x20\n      add\n      0x52455345525645445f4d505f50524f445543545f4d414e414745520000000000\n      dup2\n      mstore\n      pop\n        /* \"contracts/core/product/MPProductManager.sol\":1902:1913  return name */\n      swap1\n      pop\n        /* \"contracts/core/product/MPProductManager.sol\":1827:1922  function getName() pure external returns (string memory _name) { ... */\n      swap1\n      jump\t// out\n        /* \"contracts/core/product/MPProductManager.sol\":2453:2595  function getProductIdsByOwner() view external returns (uint256 [] memory _productIds) {... */\n    tag_23:\n        /* \"contracts/core/product/MPProductManager.sol\":2508:2537  uint256 [] memory _productIds */\n      0x60\n        /* \"contracts/core/product/MPProductManager.sol\":2557:2574  productIdsByOwner */\n      0x05\n        /* \"contracts/core/product/MPProductManager.sol\":2557:2586  productIdsByOwner[msg.sender] */\n      0x00\n        /* \"contracts/core/product/MPProductManager.sol\":2575:2585  msg.sender */\n      caller\n        /* \"contracts/core/product/MPProductManager.sol\":2557:2586  productIdsByOwner[msg.sender] */\n      0xffffffffffffffffffffffffffffffffffffffff\n      and\n      0xffffffffffffffffffffffffffffffffffffffff\n      and\n      dup2\n      mstore\n      0x20\n      add\n      swap1\n      dup2\n      mstore\n      0x20\n      add\n      0x00\n      keccak256\n        /* \"contracts/core/product/MPProductManager.sol\":2550:2586  return productIdsByOwner[msg.sender] */\n      dup1\n      sload\n      dup1\n      0x20\n      mul\n      0x20\n      add\n      mload(0x40)\n      swap1\n      dup2\n      add\n      0x40\n      mstore\n      dup1\n      swap3\n      swap2\n      swap1\n      dup2\n      dup2\n      mstore\n      0x20\n      add\n      dup3\n      dup1\n      sload\n      dup1\n      iszero\n      tag_60\n      jumpi\n      0x20\n      mul\n      dup3\n      add\n      swap2\n      swap1\n      0x00\n      mstore\n      keccak256(0x00, 0x20)\n      swap1\n    tag_61:\n      dup2\n      sload\n      dup2\n      mstore\n      0x20\n      add\n      swap1\n      0x01\n      add\n      swap1\n      dup1\n      dup4\n      gt\n      tag_61\n      jumpi\n    tag_60:\n      pop\n      pop\n      pop\n      pop\n      pop\n      swap1\n      pop\n        /* \"contracts/core/product/MPProductManager.sol\":2453:2595  function getProductIdsByOwner() view external returns (uint256 [] memory _productIds) {... */\n      swap1\n      jump\t// out\n        /* \"contracts/core/product/MPProductManager.sol\":2035:2152  function getMProductIds() view external returns (uint256 [] memory _mProductIds){... */\n    tag_27:\n        /* \"contracts/core/product/MPProductManager.sol\":2084:2114  uint256 [] memory _mProductIds */\n      0x60\n        /* \"contracts/core/product/MPProductManager.sol\":2133:2143  productIds */\n      0x02\n        /* \"contracts/core/product/MPProductManager.sol\":2126:2143  return productIds */\n      dup1\n      sload\n      dup1\n      0x20\n      mul\n      0x20\n      add\n      mload(0x40)\n      swap1\n      dup2\n      add\n      0x40\n      mstore\n      dup1\n      swap3\n      swap2\n      swap1\n      dup2\n      dup2\n      mstore\n      0x20\n      add\n      dup3\n      dup1\n      sload\n      dup1\n      iszero\n      tag_63\n      jumpi\n      0x20\n      mul\n      dup3\n      add\n      swap2\n      swap1\n      0x00\n      mstore\n      keccak256(0x00, 0x20)\n      swap1\n    tag_64:\n      dup2\n      sload\n      dup2\n      mstore\n      0x20\n      add\n      swap1\n      0x01\n      add\n      swap1\n      dup1\n      dup4\n      gt\n      tag_64\n      jumpi\n    tag_63:\n      pop\n      pop\n      pop\n      pop\n      pop\n      swap1\n      pop\n        /* \"contracts/core/product/MPProductManager.sol\":2035:2152  function getMProductIds() view external returns (uint256 [] memory _mProductIds){... */\n      swap1\n      jump\t// out\n        /* \"contracts/core/product/MPProductManager.sol\":2603:4292  function createProduct(MProtoProduct memory _protoProduct) external returns (uint256 _productId, uint256 _txId) { ... */\n    tag_32:\n        /* \"contracts/core/product/MPProductManager.sol\":2680:2698  uint256 _productId */\n      0x00\n        /* \"contracts/core/product/MPProductManager.sol\":2700:2713  uint256 _txId */\n      0x00\n        /* \"contracts/core/product/MPProductManager.sol\":2740:2750  getIndex() */\n      tag_66\n        /* \"contracts/core/product/MPProductManager.sol\":2740:2748  getIndex */\n      tag_67\n        /* \"contracts/core/product/MPProductManager.sol\":2740:2750  getIndex() */\n      jump\t// in\n    tag_66:\n        /* \"contracts/core/product/MPProductManager.sol\":2727:2750  _productId = getIndex() */\n      swap2\n      pop\n        /* \"contracts/core/product/MPProductManager.sol\":2762:2772  productIds */\n      0x02\n        /* \"contracts/core/product/MPProductManager.sol\":2778:2788  _productId */\n      dup3\n        /* \"contracts/core/product/MPProductManager.sol\":2762:2789  productIds.push(_productId) */\n      swap1\n      dup1\n      0x01\n      dup2\n      sload\n      add\n      dup1\n      dup3\n      sstore\n      dup1\n      swap2\n      pop\n      pop\n      0x01\n      swap1\n      sub\n      swap1\n      0x00\n      mstore\n      keccak256(0x00, 0x20)\n      add\n      0x00\n      swap1\n      swap2\n      swap1\n      swap2\n      swap1\n      swap2\n      pop\n      sstore\n        /* \"contracts/core/product/MPProductManager.sol\":2800:2817  productIdsByOwner */\n      0x05\n        /* \"contracts/core/product/MPProductManager.sol\":2800:2829  productIdsByOwner[msg.sender] */\n      0x00\n        /* \"contracts/core/product/MPProductManager.sol\":2818:2828  msg.sender */\n      caller\n        /* \"contracts/core/product/MPProductManager.sol\":2800:2829  productIdsByOwner[msg.sender] */\n      0xffffffffffffffffffffffffffffffffffffffff\n      and\n      0xffffffffffffffffffffffffffffffffffffffff\n      and\n      dup2\n      mstore\n      0x20\n      add\n      swap1\n      dup2\n      mstore\n      0x20\n      add\n      0x00\n      keccak256\n        /* \"contracts/core/product/MPProductManager.sol\":2835:2845  _productId */\n      dup3\n        /* \"contracts/core/product/MPProductManager.sol\":2800:2846  productIdsByOwner[msg.sender].push(_productId) */\n      swap1\n      dup1\n      0x01\n      dup2\n      sload\n      add\n      dup1\n      dup3\n      sstore\n      dup1\n      swap2\n      pop\n      pop\n      0x01\n      swap1\n      sub\n      swap1\n      0x00\n      mstore\n      keccak256(0x00, 0x20)\n      add\n      0x00\n      swap1\n      swap2\n      swap1\n      swap2\n      swap1\n      swap2\n      pop\n      sstore\n        /* \"contracts/core/product/MPProductManager.sol\":2890:2894  true */\n      0x01\n        /* \"contracts/core/product/MPProductManager.sol\":2857:2875  isKnownByProductId */\n      0x03\n        /* \"contracts/core/product/MPProductManager.sol\":2857:2887  isKnownByProductId[_productId] */\n      0x00\n        /* \"contracts/core/product/MPProductManager.sol\":2876:2886  _productId */\n      dup5\n        /* \"contracts/core/product/MPProductManager.sol\":2857:2887  isKnownByProductId[_productId] */\n      dup2\n      mstore\n      0x20\n      add\n      swap1\n      dup2\n      mstore\n      0x20\n      add\n      0x00\n      keccak256\n      0x00\n        /* \"contracts/core/product/MPProductManager.sol\":2857:2894  isKnownByProductId[_productId] = true */\n      0x0100\n      exp\n      dup2\n      sload\n      dup2\n      0xff\n      mul\n      not\n      and\n      swap1\n      dup4\n      iszero\n      iszero\n      mul\n      or\n      swap1\n      sstore\n      pop\n        /* \"contracts/core/product/MPProductManager.sol\":2932:4138  MPProduct ({... */\n      mload(0x40)\n      dup1\n      0x01a0\n      add\n      0x40\n      mstore\n      dup1\n        /* \"contracts/core/product/MPProductManager.sol\":2997:3007  _productId */\n      dup4\n        /* \"contracts/core/product/MPProductManager.sol\":2932:4138  MPProduct ({... */\n      dup2\n      mstore\n      0x20\n      add\n        /* \"contracts/core/product/MPProductManager.sol\":3068:3078  msg.sender */\n      caller\n        /* \"contracts/core/product/MPProductManager.sol\":2932:4138  MPProduct ({... */\n      0xffffffffffffffffffffffffffffffffffffffff\n      and\n      dup2\n      mstore\n      0x20\n      add\n        /* \"contracts/core/product/MPProductManager.sol\":3136:3149  _protoProduct */\n      dup5\n        /* \"contracts/core/product/MPProductManager.sol\":3136:3170  _protoProduct.pensionCurrencyErc20 */\n      0x00\n      add\n      mload\n        /* \"contracts/core/product/MPProductManager.sol\":2932:4138  MPProduct ({... */\n      0xffffffffffffffffffffffffffffffffffffffff\n      and\n      dup2\n      mstore\n      0x20\n      add\n        /* \"contracts/core/product/MPProductManager.sol\":3240:3253  _protoProduct */\n      dup5\n        /* \"contracts/core/product/MPProductManager.sol\":3240:3271  _protoProduct.totalContribution */\n      0x40\n      add\n      mload\n        /* \"contracts/core/product/MPProductManager.sol\":2932:4138  MPProduct ({... */\n      dup2\n      mstore\n      0x20\n      add\n        /* \"contracts/core/product/MPProductManager.sol\":3343:3356  _protoProduct */\n      dup5\n        /* \"contracts/core/product/MPProductManager.sol\":3343:3376  _protoProduct.principalOnMaturity */\n      0x60\n      add\n      mload\n        /* \"contracts/core/product/MPProductManager.sol\":2932:4138  MPProduct ({... */\n      dup2\n      mstore\n      0x20\n      add\n        /* \"contracts/core/product/MPProductManager.sol\":3436:3449  _protoProduct */\n      dup5\n        /* \"contracts/core/product/MPProductManager.sol\":3436:3458  _protoProduct.interest */\n      0x80\n      add\n      mload\n        /* \"contracts/core/product/MPProductManager.sol\":2932:4138  MPProduct ({... */\n      dup2\n      mstore\n      0x20\n      add\n        /* \"contracts/core/product/MPProductManager.sol\":3519:3532  _protoProduct */\n      dup5\n        /* \"contracts/core/product/MPProductManager.sol\":3519:3541  _protoProduct.riskType */\n      0x20\n      add\n      mload\n        /* \"contracts/core/product/MPProductManager.sol\":2932:4138  MPProduct ({... */\n      0x02\n      dup2\n      gt\n      iszero\n      tag_70\n      jumpi\n      tag_71\n      tag_72\n      jump\t// in\n    tag_71:\n    tag_70:\n      dup2\n      mstore\n      0x20\n      add\n        /* \"contracts/core/product/MPProductManager.sol\":3614:3627  _protoProduct */\n      dup5\n        /* \"contracts/core/product/MPProductManager.sol\":3614:3648  _protoProduct.contributionSchedule */\n      0xa0\n      add\n      mload\n        /* \"contracts/core/product/MPProductManager.sol\":2932:4138  MPProduct ({... */\n      dup2\n      mstore\n      0x20\n      add\n        /* \"contracts/core/product/MPProductManager.sol\":3717:3730  _protoProduct */\n      dup5\n        /* \"contracts/core/product/MPProductManager.sol\":3717:3747  _protoProduct.emissionSchedule */\n      0xc0\n      add\n      mload\n        /* \"contracts/core/product/MPProductManager.sol\":2932:4138  MPProduct ({... */\n      dup2\n      mstore\n      0x20\n      add\n        /* \"contracts/core/product/MPProductManager.sol\":3808:3821  _protoProduct */\n      dup5\n        /* \"contracts/core/product/MPProductManager.sol\":3808:3831  _protoProduct.tolerance */\n      0xe0\n      add\n      mload\n        /* \"contracts/core/product/MPProductManager.sol\":2932:4138  MPProduct ({... */\n      dup2\n      mstore\n      0x20\n      add\n        /* \"contracts/core/product/MPProductManager.sol\":3895:3910  block.timestamp */\n      timestamp\n        /* \"contracts/core/product/MPProductManager.sol\":2932:4138  MPProduct ({... */\n      dup2\n      mstore\n      0x20\n      add\n        /* \"contracts/core/product/MPProductManager.sol\":3991:4004  _protoProduct */\n      dup5\n        /* \"contracts/core/product/MPProductManager.sol\":3991:4013  _protoProduct.lifespan */\n      0x0100\n      add\n      mload\n        /* \"contracts/core/product/MPProductManager.sol\":3973:3988  block.timestamp */\n      timestamp\n        /* \"contracts/core/product/MPProductManager.sol\":3973:4013  block.timestamp + _protoProduct.lifespan */\n      tag_73\n      swap2\n      swap1\n      tag_74\n      jump\t// in\n    tag_73:\n        /* \"contracts/core/product/MPProductManager.sol\":2932:4138  MPProduct ({... */\n      dup2\n      mstore\n      0x20\n      add\n        /* \"contracts/core/product/MPProductManager.sol\":4071:4084  _protoProduct */\n      dup5\n        /* \"contracts/core/product/MPProductManager.sol\":4071:4090  _protoProduct.units */\n      0x0120\n      add\n      mload\n        /* \"contracts/core/product/MPProductManager.sol\":2932:4138  MPProduct ({... */\n      dup2\n      mstore\n      pop\n        /* \"contracts/core/product/MPProductManager.sol\":2906:2917  productById */\n      0x04\n        /* \"contracts/core/product/MPProductManager.sol\":2906:2929  productById[_productId] */\n      0x00\n        /* \"contracts/core/product/MPProductManager.sol\":2918:2928  _productId */\n      dup5\n        /* \"contracts/core/product/MPProductManager.sol\":2906:2929  productById[_productId] */\n      dup2\n      mstore\n      0x20\n      add\n      swap1\n      dup2\n      mstore\n      0x20\n      add\n      0x00\n      keccak256\n        /* \"contracts/core/product/MPProductManager.sol\":2906:4138  productById[_productId] = MPProduct ({... */\n      0x00\n      dup3\n      add\n      mload\n      dup2\n      0x00\n      add\n      sstore\n      0x20\n      dup3\n      add\n      mload\n      dup2\n      0x01\n      add\n      exp(0x0100, 0x00)\n      dup2\n      sload\n      dup2\n      0xffffffffffffffffffffffffffffffffffffffff\n      mul\n      not\n      and\n      swap1\n      dup4\n      0xffffffffffffffffffffffffffffffffffffffff\n      and\n      mul\n      or\n      swap1\n      sstore\n      pop\n      0x40\n      dup3\n      add\n      mload\n      dup2\n      0x02\n      add\n      exp(0x0100, 0x00)\n      dup2\n      sload\n      dup2\n      0xffffffffffffffffffffffffffffffffffffffff\n      mul\n      not\n      and\n      swap1\n      dup4\n      0xffffffffffffffffffffffffffffffffffffffff\n      and\n      mul\n      or\n      swap1\n      sstore\n      pop\n      0x60\n      dup3\n      add\n      mload\n      dup2\n      0x03\n      add\n      sstore\n      0x80\n      dup3\n      add\n      mload\n      dup2\n      0x04\n      add\n      sstore\n      0xa0\n      dup3\n      add\n      mload\n      dup2\n      0x05\n      add\n      sstore\n      0xc0\n      dup3\n      add\n      mload\n      dup2\n      0x06\n      add\n      exp(0x0100, 0x00)\n      dup2\n      sload\n      dup2\n      0xff\n      mul\n      not\n      and\n      swap1\n      dup4\n      0x02\n      dup2\n      gt\n      iszero\n      tag_75\n      jumpi\n      tag_76\n      tag_72\n      jump\t// in\n    tag_76:\n    tag_75:\n      mul\n      or\n      swap1\n      sstore\n      pop\n      0xe0\n      dup3\n      add\n      mload\n      dup2\n      0x07\n      add\n      0x00\n      dup3\n      add\n      mload\n      dup2\n      0x00\n      add\n      exp(0x0100, 0x00)\n      dup2\n      sload\n      dup2\n      0xff\n      mul\n      not\n      and\n      swap1\n      dup4\n      0x03\n      dup2\n      gt\n      iszero\n      tag_77\n      jumpi\n      tag_78\n      tag_72\n      jump\t// in\n    tag_78:\n    tag_77:\n      mul\n      or\n      swap1\n      sstore\n      pop\n      0x20\n      dup3\n      add\n      mload\n      dup2\n      0x01\n      add\n      sstore\n      0x40\n      dup3\n      add\n      mload\n      dup2\n      0x02\n      add\n      sstore\n      0x60\n      dup3\n      add\n      mload\n      dup2\n      0x03\n      add\n      sstore\n      0x80\n      dup3\n      add\n      mload\n      dup2\n      0x04\n      add\n      sstore\n      0xa0\n      dup3\n      add\n      mload\n      dup2\n      0x05\n      add\n      sstore\n      pop\n      pop\n      0x0100\n      dup3\n      add\n      mload\n      dup2\n      0x0d\n      add\n      0x00\n      dup3\n      add\n      mload\n      dup2\n      0x00\n      add\n      exp(0x0100, 0x00)\n      dup2\n      sload\n      dup2\n      0xff\n      mul\n      not\n      and\n      swap1\n      dup4\n      0x03\n      dup2\n      gt\n      iszero\n      tag_79\n      jumpi\n      tag_80\n      tag_72\n      jump\t// in\n    tag_80:\n    tag_79:\n      mul\n      or\n      swap1\n      sstore\n      pop\n      0x20\n      dup3\n      add\n      mload\n      dup2\n      0x01\n      add\n      sstore\n      0x40\n      dup3\n      add\n      mload\n      dup2\n      0x02\n      add\n      sstore\n      0x60\n      dup3\n      add\n      mload\n      dup2\n      0x03\n      add\n      sstore\n      0x80\n      dup3\n      add\n      mload\n      dup2\n      0x04\n      add\n      sstore\n      0xa0\n      dup3\n      add\n      mload\n      dup2\n      0x05\n      add\n      sstore\n      pop\n      pop\n      0x0120\n      dup3\n      add\n      mload\n      dup2\n      0x13\n      add\n      0x00\n      dup3\n      add\n      mload\n      dup2\n      0x00\n      add\n      sstore\n      0x20\n      dup3\n      add\n      mload\n      dup2\n      0x01\n      add\n      sstore\n      pop\n      pop\n      0x0140\n      dup3\n      add\n      mload\n      dup2\n      0x15\n      add\n      sstore\n      0x0160\n      dup3\n      add\n      mload\n      dup2\n      0x16\n      add\n      sstore\n      0x0180\n      dup3\n      add\n      mload\n      dup2\n      0x17\n      add\n      sstore\n      swap1\n      pop\n      pop\n        /* \"contracts/core/product/MPProductManager.sol\":4158:4245  addTx(TxType.CREATE, ObjType.PRODUCT,_productId, 0, _protoProduct.pensionCurrencyErc20) */\n      tag_81\n        /* \"contracts/core/product/MPProductManager.sol\":4164:4177  TxType.CREATE */\n      0x00\n        /* \"contracts/core/product/MPProductManager.sol\":4179:4194  ObjType.PRODUCT */\n      0x05\n        /* \"contracts/core/product/MPProductManager.sol\":4195:4205  _productId */\n      dup5\n        /* \"contracts/core/product/MPProductManager.sol\":4207:4208  0 */\n      0x00\n        /* \"contracts/core/product/MPProductManager.sol\":4210:4223  _protoProduct */\n      dup8\n        /* \"contracts/core/product/MPProductManager.sol\":4210:4244  _protoProduct.pensionCurrencyErc20 */\n      0x00\n      add\n      mload\n        /* \"contracts/core/product/MPProductManager.sol\":4158:4163  addTx */\n      tag_82\n        /* \"contracts/core/product/MPProductManager.sol\":4158:4245  addTx(TxType.CREATE, ObjType.PRODUCT,_productId, 0, _protoProduct.pensionCurrencyErc20) */\n      jump\t// in\n    tag_81:\n        /* \"contracts/core/product/MPProductManager.sol\":4150:4245  _txId = addTx(TxType.CREATE, ObjType.PRODUCT,_productId, 0, _protoProduct.pensionCurrencyErc20) */\n      swap1\n      pop\n        /* \"contracts/core/product/MPProductManager.sol\":2603:4292  function createProduct(MProtoProduct memory _protoProduct) external returns (uint256 _productId, uint256 _txId) { ... */\n      swap2\n      pop\n      swap2\n      jump\t// out\n        /* \"contracts/core/product/MPProductManager.sol\":4594:4858  function updateProductInventory(uint256 _productId) medallionPensionsOnly external returns (uint256 _txId){... */\n    tag_38:\n        /* \"contracts/core/product/MPProductManager.sol\":4686:4699  uint256 _txId */\n      0x00\n        /* \"contracts/core/product/MPProductManager.sol\":631:639  register */\n      0x00\n      0x00\n      swap1\n      sload\n      swap1\n      0x0100\n      exp\n      swap1\n      div\n      0xffffffffffffffffffffffffffffffffffffffff\n      and\n        /* \"contracts/core/product/MPProductManager.sol\":631:650  register.getAddress */\n      0xffffffffffffffffffffffffffffffffffffffff\n      and\n      0xbf40fac1\n        /* \"contracts/core/product/MPProductManager.sol\":651:671  MEDALION_PENSIONS_CA */\n      mload(0x40)\n      dup1\n      0x40\n      add\n      0x40\n      mstore\n      dup1\n      0x20\n      dup2\n      mstore\n      0x20\n      add\n      0x52455345525645445f4d4544414c4c494f4e5f50454e53494f4e535f434f5245\n      dup2\n      mstore\n      pop\n        /* \"contracts/core/product/MPProductManager.sol\":631:672  register.getAddress(MEDALION_PENSIONS_CA) */\n      mload(0x40)\n      dup3\n      0xffffffff\n      and\n      0xe0\n      shl\n      dup2\n      mstore\n      0x04\n      add\n      tag_84\n      swap2\n      swap1\n      tag_21\n      jump\t// in\n    tag_84:\n      0x20\n      mload(0x40)\n      dup1\n      dup4\n      sub\n      dup2\n      dup7\n      gas\n      staticcall\n      iszero\n      dup1\n      iszero\n      tag_86\n      jumpi\n      returndatacopy(0x00, 0x00, returndatasize)\n      revert(0x00, returndatasize)\n    tag_86:\n      pop\n      pop\n      pop\n      pop\n      mload(0x40)\n      returndatasize\n      not(0x1f)\n      0x1f\n      dup3\n      add\n      and\n      dup3\n      add\n      dup1\n      0x40\n      mstore\n      pop\n      dup2\n      add\n      swap1\n      tag_87\n      swap2\n      swap1\n      tag_88\n      jump\t// in\n    tag_87:\n        /* \"contracts/core/product/MPProductManager.sol\":617:672  msg.sender == register.getAddress(MEDALION_PENSIONS_CA) */\n      0xffffffffffffffffffffffffffffffffffffffff\n      and\n        /* \"contracts/core/product/MPProductManager.sol\":617:627  msg.sender */\n      caller\n        /* \"contracts/core/product/MPProductManager.sol\":617:672  msg.sender == register.getAddress(MEDALION_PENSIONS_CA) */\n      0xffffffffffffffffffffffffffffffffffffffff\n      and\n      eq\n        /* \"contracts/core/product/MPProductManager.sol\":609:699  require(msg.sender == register.getAddress(MEDALION_PENSIONS_CA), \"medalion pensions only\") */\n      tag_89\n      jumpi\n      mload(0x40)\n      0x08c379a000000000000000000000000000000000000000000000000000000000\n      dup2\n      mstore\n      0x04\n      add\n      tag_90\n      swap1\n      tag_91\n      jump\t// in\n    tag_90:\n      mload(0x40)\n      dup1\n      swap2\n      sub\n      swap1\n      revert\n    tag_89:\n        /* \"contracts/core/product/MPProductManager.sol\":4711:4722  productById */\n      0x04\n        /* \"contracts/core/product/MPProductManager.sol\":4711:4734  productById[_productId] */\n      0x00\n        /* \"contracts/core/product/MPProductManager.sol\":4723:4733  _productId */\n      dup4\n        /* \"contracts/core/product/MPProductManager.sol\":4711:4734  productById[_productId] */\n      dup2\n      mstore\n      0x20\n      add\n      swap1\n      dup2\n      mstore\n      0x20\n      add\n      0x00\n      keccak256\n        /* \"contracts/core/product/MPProductManager.sol\":4711:4740  productById[_productId].units */\n      0x17\n      add\n      0x00\n        /* \"contracts/core/product/MPProductManager.sol\":4711:4742  productById[_productId].units-- */\n      dup2\n      sload\n      dup1\n      swap3\n      swap2\n      swap1\n      tag_93\n      swap1\n      tag_94\n      jump\t// in\n    tag_93:\n      swap2\n      swap1\n      pop\n      sstore\n      pop\n        /* \"contracts/core/product/MPProductManager.sol\":4761:4825  addTx(TxType.UPDATE, ObjType.PRODUCT, _productId, 0, address(0)) */\n      tag_95\n        /* \"contracts/core/product/MPProductManager.sol\":4767:4780  TxType.UPDATE */\n      0x09\n        /* \"contracts/core/product/MPProductManager.sol\":4782:4797  ObjType.PRODUCT */\n      0x05\n        /* \"contracts/core/product/MPProductManager.sol\":4799:4809  _productId */\n      dup5\n        /* \"contracts/core/product/MPProductManager.sol\":4811:4812  0 */\n      0x00\n        /* \"contracts/core/product/MPProductManager.sol\":4822:4823  0 */\n      0x00\n        /* \"contracts/core/product/MPProductManager.sol\":4761:4766  addTx */\n      tag_82\n        /* \"contracts/core/product/MPProductManager.sol\":4761:4825  addTx(TxType.UPDATE, ObjType.PRODUCT, _productId, 0, address(0)) */\n      jump\t// in\n    tag_95:\n        /* \"contracts/core/product/MPProductManager.sol\":4753:4825  _txId = addTx(TxType.UPDATE, ObjType.PRODUCT, _productId, 0, address(0)) */\n      swap1\n      pop\n        /* \"contracts/core/product/MPProductManager.sol\":4594:4858  function updateProductInventory(uint256 _productId) medallionPensionsOnly external returns (uint256 _txId){... */\n      swap2\n      swap1\n      pop\n      jump\t// out\n        /* \"contracts/core/product/MPProductManager.sol\":2160:2299  function getProduct(uint256 _productId) view external returns (MPProduct memory _product){... */\n    tag_42:\n        /* \"contracts/core/product/MPProductManager.sol\":2223:2248  MPProduct memory _product */\n      tag_96\n      tag_97\n      jump\t// in\n    tag_96:\n        /* \"contracts/core/product/MPProductManager.sol\":2267:2278  productById */\n      0x04\n        /* \"contracts/core/product/MPProductManager.sol\":2267:2290  productById[_productId] */\n      0x00\n        /* \"contracts/core/product/MPProductManager.sol\":2279:2289  _productId */\n      dup4\n        /* \"contracts/core/product/MPProductManager.sol\":2267:2290  productById[_productId] */\n      dup2\n      mstore\n      0x20\n      add\n      swap1\n      dup2\n      mstore\n      0x20\n      add\n      0x00\n      keccak256\n        /* \"contracts/core/product/MPProductManager.sol\":2260:2290  return productById[_productId] */\n      mload(0x40)\n      dup1\n      0x01a0\n      add\n      0x40\n      mstore\n      swap1\n      dup2\n      0x00\n      dup3\n      add\n      sload\n      dup2\n      mstore\n      0x20\n      add\n      0x01\n      dup3\n      add\n      0x00\n      swap1\n      sload\n      swap1\n      0x0100\n      exp\n      swap1\n      div\n      0xffffffffffffffffffffffffffffffffffffffff\n      and\n      0xffffffffffffffffffffffffffffffffffffffff\n      and\n      0xffffffffffffffffffffffffffffffffffffffff\n      and\n      dup2\n      mstore\n      0x20\n      add\n      0x02\n      dup3\n      add\n      0x00\n      swap1\n      sload\n      swap1\n      0x0100\n      exp\n      swap1\n      div\n      0xffffffffffffffffffffffffffffffffffffffff\n      and\n      0xffffffffffffffffffffffffffffffffffffffff\n      and\n      0xffffffffffffffffffffffffffffffffffffffff\n      and\n      dup2\n      mstore\n      0x20\n      add\n      0x03\n      dup3\n      add\n      sload\n      dup2\n      mstore\n      0x20\n      add\n      0x04\n      dup3\n      add\n      sload\n      dup2\n      mstore\n      0x20\n      add\n      0x05\n      dup3\n      add\n      sload\n      dup2\n      mstore\n      0x20\n      add\n      0x06\n      dup3\n      add\n      0x00\n      swap1\n      sload\n      swap1\n      0x0100\n      exp\n      swap1\n      div\n      0xff\n      and\n      0x02\n      dup2\n      gt\n      iszero\n      tag_99\n      jumpi\n      tag_100\n      tag_72\n      jump\t// in\n    tag_100:\n    tag_99:\n      0x02\n      dup2\n      gt\n      iszero\n      tag_101\n      jumpi\n      tag_102\n      tag_72\n      jump\t// in\n    tag_102:\n    tag_101:\n      dup2\n      mstore\n      0x20\n      add\n      0x07\n      dup3\n      add\n      mload(0x40)\n      dup1\n      0xc0\n      add\n      0x40\n      mstore\n      swap1\n      dup2\n      0x00\n      dup3\n      add\n      0x00\n      swap1\n      sload\n      swap1\n      0x0100\n      exp\n      swap1\n      div\n      0xff\n      and\n      0x03\n      dup2\n      gt\n      iszero\n      tag_103\n      jumpi\n      tag_104\n      tag_72\n      jump\t// in\n    tag_104:\n    tag_103:\n      0x03\n      dup2\n      gt\n      iszero\n      tag_105\n      jumpi\n      tag_106\n      tag_72\n      jump\t// in\n    tag_106:\n    tag_105:\n      dup2\n      mstore\n      0x20\n      add\n      0x01\n      dup3\n      add\n      sload\n      dup2\n      mstore\n      0x20\n      add\n      0x02\n      dup3\n      add\n      sload\n      dup2\n      mstore\n      0x20\n      add\n      0x03\n      dup3\n      add\n      sload\n      dup2\n      mstore\n      0x20\n      add\n      0x04\n      dup3\n      add\n      sload\n      dup2\n      mstore\n      0x20\n      add\n      0x05\n      dup3\n      add\n      sload\n      dup2\n      mstore\n      pop\n      pop\n      dup2\n      mstore\n      0x20\n      add\n      0x0d\n      dup3\n      add\n      mload(0x40)\n      dup1\n      0xc0\n      add\n      0x40\n      mstore\n      swap1\n      dup2\n      0x00\n      dup3\n      add\n      0x00\n      swap1\n      sload\n      swap1\n      0x0100\n      exp\n      swap1\n      div\n      0xff\n      and\n      0x03\n      dup2\n      gt\n      iszero\n      tag_107\n      jumpi\n      tag_108\n      tag_72\n      jump\t// in\n    tag_108:\n    tag_107:\n      0x03\n      dup2\n      gt\n      iszero\n      tag_109\n      jumpi\n      tag_110\n      tag_72\n      jump\t// in\n    tag_110:\n    tag_109:\n      dup2\n      mstore\n      0x20\n      add\n      0x01\n      dup3\n      add\n      sload\n      dup2\n      mstore\n      0x20\n      add\n      0x02\n      dup3\n      add\n      sload\n      dup2\n      mstore\n      0x20\n      add\n      0x03\n      dup3\n      add\n      sload\n      dup2\n      mstore\n      0x20\n      add\n      0x04\n      dup3\n      add\n      sload\n      dup2\n      mstore\n      0x20\n      add\n      0x05\n      dup3\n      add\n      sload\n      dup2\n      mstore\n      pop\n      pop\n      dup2\n      mstore\n      0x20\n      add\n      0x13\n      dup3\n      add\n      mload(0x40)\n      dup1\n      0x40\n      add\n      0x40\n      mstore\n      swap1\n      dup2\n      0x00\n      dup3\n      add\n      sload\n      dup2\n      mstore\n      0x20\n      add\n      0x01\n      dup3\n      add\n      sload\n      dup2\n      mstore\n      pop\n      pop\n      dup2\n      mstore\n      0x20\n      add\n      0x15\n      dup3\n      add\n      sload\n      dup2\n      mstore\n      0x20\n      add\n      0x16\n      dup3\n      add\n      sload\n      dup2\n      mstore\n      0x20\n      add\n      0x17\n      dup3\n      add\n      sload\n      dup2\n      mstore\n      pop\n      pop\n      swap1\n      pop\n        /* \"contracts/core/product/MPProductManager.sol\":2160:2299  function getProduct(uint256 _productId) view external returns (MPProduct memory _product){... */\n      swap2\n      swap1\n      pop\n      jump\t// out\n        /* \"contracts/core/product/MPProductManager.sol\":4300:4585  function expireProduct(uint256 _productId) productOwnerOnly(_productId) external returns (uint256 _txId){ ... */\n    tag_47:\n        /* \"contracts/core/product/MPProductManager.sol\":4390:4403  uint256 _txId */\n      0x00\n        /* \"contracts/core/product/MPProductManager.sol\":4360:4370  _productId */\n      dup2\n        /* \"contracts/core/product/MPProductManager.sol\":499:509  msg.sender */\n      caller\n        /* \"contracts/core/product/MPProductManager.sol\":463:509  productById[_productId].provider == msg.sender */\n      0xffffffffffffffffffffffffffffffffffffffff\n      and\n        /* \"contracts/core/product/MPProductManager.sol\":463:474  productById */\n      0x04\n        /* \"contracts/core/product/MPProductManager.sol\":463:486  productById[_productId] */\n      0x00\n        /* \"contracts/core/product/MPProductManager.sol\":475:485  _productId */\n      dup4\n        /* \"contracts/core/product/MPProductManager.sol\":463:486  productById[_productId] */\n      dup2\n      mstore\n      0x20\n      add\n      swap1\n      dup2\n      mstore\n      0x20\n      add\n      0x00\n      keccak256\n        /* \"contracts/core/product/MPProductManager.sol\":463:495  productById[_productId].provider */\n      0x01\n      add\n      0x00\n      swap1\n      sload\n      swap1\n      0x0100\n      exp\n      swap1\n      div\n      0xffffffffffffffffffffffffffffffffffffffff\n      and\n        /* \"contracts/core/product/MPProductManager.sol\":463:509  productById[_productId].provider == msg.sender */\n      0xffffffffffffffffffffffffffffffffffffffff\n      and\n      eq\n        /* \"contracts/core/product/MPProductManager.sol\":455:535  require(productById[_productId].provider == msg.sender, \"product provider only\") */\n      tag_112\n      jumpi\n      mload(0x40)\n      0x08c379a000000000000000000000000000000000000000000000000000000000\n      dup2\n      mstore\n      0x04\n      add\n      tag_113\n      swap1\n      tag_114\n      jump\t// in\n    tag_113:\n      mload(0x40)\n      dup1\n      swap2\n      sub\n      swap1\n      revert\n    tag_112:\n        /* \"contracts/core/product/MPProductManager.sol\":4453:4468  block.timestamp */\n      timestamp\n        /* \"contracts/core/product/MPProductManager.sol\":4416:4427  productById */\n      0x04\n        /* \"contracts/core/product/MPProductManager.sol\":4416:4439  productById[_productId] */\n      0x00\n        /* \"contracts/core/product/MPProductManager.sol\":4428:4438  _productId */\n      dup6\n        /* \"contracts/core/product/MPProductManager.sol\":4416:4439  productById[_productId] */\n      dup2\n      mstore\n      0x20\n      add\n      swap1\n      dup2\n      mstore\n      0x20\n      add\n      0x00\n      keccak256\n        /* \"contracts/core/product/MPProductManager.sol\":4416:4450  productById[_productId].expiryDate */\n      0x16\n      add\n        /* \"contracts/core/product/MPProductManager.sol\":4416:4468  productById[_productId].expiryDate = block.timestamp */\n      dup2\n      swap1\n      sstore\n      pop\n        /* \"contracts/core/product/MPProductManager.sol\":4488:4552  addTx(TxType.EXPIRE, ObjType.PRODUCT, _productId, 0, address(0)) */\n      tag_116\n        /* \"contracts/core/product/MPProductManager.sol\":4494:4507  TxType.EXPIRE */\n      0x08\n        /* \"contracts/core/product/MPProductManager.sol\":4509:4524  ObjType.PRODUCT */\n      0x05\n        /* \"contracts/core/product/MPProductManager.sol\":4526:4536  _productId */\n      dup6\n        /* \"contracts/core/product/MPProductManager.sol\":4538:4539  0 */\n      0x00\n        /* \"contracts/core/product/MPProductManager.sol\":4549:4550  0 */\n      0x00\n        /* \"contracts/core/product/MPProductManager.sol\":4488:4493  addTx */\n      tag_82\n        /* \"contracts/core/product/MPProductManager.sol\":4488:4552  addTx(TxType.EXPIRE, ObjType.PRODUCT, _productId, 0, address(0)) */\n      jump\t// in\n    tag_116:\n        /* \"contracts/core/product/MPProductManager.sol\":4480:4552  _txId = addTx(TxType.EXPIRE, ObjType.PRODUCT, _productId, 0, address(0)) */\n      swap2\n      pop\n        /* \"contracts/core/product/MPProductManager.sol\":4300:4585  function expireProduct(uint256 _productId) productOwnerOnly(_productId) external returns (uint256 _txId){ ... */\n      pop\n      swap2\n      swap1\n      pop\n      jump\t// out\n        /* \"contracts/core/product/MPProductManager.sol\":4866:5044  function notifyChangeOfAddress() external adminOnly returns (bool _acknowledged) { ... */\n    tag_50:\n        /* \"contracts/core/product/MPProductManager.sol\":4927:4945  bool _acknowledged */\n      0x00\n        /* \"contracts/core/product/MPProductManager.sol\":780:788  register */\n      0x00\n      0x00\n      swap1\n      sload\n      swap1\n      0x0100\n      exp\n      swap1\n      div\n      0xffffffffffffffffffffffffffffffffffffffff\n      and\n        /* \"contracts/core/product/MPProductManager.sol\":780:799  register.getAddress */\n      0xffffffffffffffffffffffffffffffffffffffff\n      and\n      0xbf40fac1\n        /* \"contracts/core/product/MPProductManager.sol\":800:816  PENSION_ADMIN_CA */\n      mload(0x40)\n      dup1\n      0x40\n      add\n      0x40\n      mstore\n      dup1\n      0x11\n      dup2\n      mstore\n      0x20\n      add\n      0x52455345525645445f4d505f41444d494e000000000000000000000000000000\n      dup2\n      mstore\n      pop\n        /* \"contracts/core/product/MPProductManager.sol\":780:817  register.getAddress(PENSION_ADMIN_CA) */\n      mload(0x40)\n      dup3\n      0xffffffff\n      and\n      0xe0\n      shl\n      dup2\n      mstore\n      0x04\n      add\n      tag_118\n      swap2\n      swap1\n      tag_21\n      jump\t// in\n    tag_118:\n      0x20\n      mload(0x40)\n      dup1\n      dup4\n      sub\n      dup2\n      dup7\n      gas\n      staticcall\n      iszero\n      dup1\n      iszero\n      tag_120\n      jumpi\n      returndatacopy(0x00, 0x00, returndatasize)\n      revert(0x00, returndatasize)\n    tag_120:\n      pop\n      pop\n      pop\n      pop\n      mload(0x40)\n      returndatasize\n      not(0x1f)\n      0x1f\n      dup3\n      add\n      and\n      dup3\n      add\n      dup1\n      0x40\n      mstore\n      pop\n      dup2\n      add\n      swap1\n      tag_121\n      swap2\n      swap1\n      tag_88\n      jump\t// in\n    tag_121:\n        /* \"contracts/core/product/MPProductManager.sol\":766:817  msg.sender == register.getAddress(PENSION_ADMIN_CA) */\n      0xffffffffffffffffffffffffffffffffffffffff\n      and\n        /* \"contracts/core/product/MPProductManager.sol\":766:776  msg.sender */\n      caller\n        /* \"contracts/core/product/MPProductManager.sol\":766:817  msg.sender == register.getAddress(PENSION_ADMIN_CA) */\n      0xffffffffffffffffffffffffffffffffffffffff\n      and\n      eq\n        /* \"contracts/core/product/MPProductManager.sol\":758:851  require(msg.sender == register.getAddress(PENSION_ADMIN_CA), \"medalion peensions admin only\") */\n      tag_122\n      jumpi\n      mload(0x40)\n      0x08c379a000000000000000000000000000000000000000000000000000000000\n      dup2\n      mstore\n      0x04\n      add\n      tag_123\n      swap1\n      tag_124\n      jump\t// in\n    tag_123:\n      mload(0x40)\n      dup1\n      swap2\n      sub\n      swap1\n      revert\n    tag_122:\n        /* \"contracts/core/product/MPProductManager.sol\":4980:4988  register */\n      0x00\n      0x00\n      swap1\n      sload\n      swap1\n      0x0100\n      exp\n      swap1\n      div\n      0xffffffffffffffffffffffffffffffffffffffff\n      and\n        /* \"contracts/core/product/MPProductManager.sol\":4980:4999  register.getAddress */\n      0xffffffffffffffffffffffffffffffffffffffff\n      and\n      0xbf40fac1\n        /* \"contracts/core/product/MPProductManager.sol\":5000:5011  REGISTER_CA */\n      mload(0x40)\n      dup1\n      0x40\n      add\n      0x40\n      mstore\n      dup1\n      0x14\n      dup2\n      mstore\n      0x20\n      add\n      0x52455345525645445f4d505f5245474953544552000000000000000000000000\n      dup2\n      mstore\n      pop\n        /* \"contracts/core/product/MPProductManager.sol\":4980:5012  register.getAddress(REGISTER_CA) */\n      mload(0x40)\n      dup3\n      0xffffffff\n      and\n      0xe0\n      shl\n      dup2\n      mstore\n      0x04\n      add\n      tag_126\n      swap2\n      swap1\n      tag_21\n      jump\t// in\n    tag_126:\n      0x20\n      mload(0x40)\n      dup1\n      dup4\n      sub\n      dup2\n      dup7\n      gas\n      staticcall\n      iszero\n      dup1\n      iszero\n      tag_128\n      jumpi\n      returndatacopy(0x00, 0x00, returndatasize)\n      revert(0x00, returndatasize)\n    tag_128:\n      pop\n      pop\n      pop\n      pop\n      mload(0x40)\n      returndatasize\n      not(0x1f)\n      0x1f\n      dup3\n      add\n      and\n      dup3\n      add\n      dup1\n      0x40\n      mstore\n      pop\n      dup2\n      add\n      swap1\n      tag_129\n      swap2\n      swap1\n      tag_88\n      jump\t// in\n    tag_129:\n        /* \"contracts/core/product/MPProductManager.sol\":4959:4967  register */\n      0x00\n      0x00\n        /* \"contracts/core/product/MPProductManager.sol\":4959:5013  register = IRegister(register.getAddress(REGISTER_CA)) */\n      0x0100\n      exp\n      dup2\n      sload\n      dup2\n      0xffffffffffffffffffffffffffffffffffffffff\n      mul\n      not\n      and\n      swap1\n      dup4\n      0xffffffffffffffffffffffffffffffffffffffff\n      and\n      mul\n      or\n      swap1\n      sstore\n      pop\n        /* \"contracts/core/product/MPProductManager.sol\":5031:5035  true */\n      0x01\n        /* \"contracts/core/product/MPProductManager.sol\":5024:5035  return true */\n      swap1\n      pop\n        /* \"contracts/core/product/MPProductManager.sol\":4866:5044  function notifyChangeOfAddress() external adminOnly returns (bool _acknowledged) { ... */\n      swap1\n      jump\t// out\n        /* \"contracts/core/product/MPProductManager.sol\":2307:2445  function isKnownProduct(uint256 _productId) view external returns (bool _isKnown){... */\n    tag_55:\n        /* \"contracts/core/product/MPProductManager.sol\":2374:2387  bool _isKnown */\n      0x00\n        /* \"contracts/core/product/MPProductManager.sol\":2406:2424  isKnownByProductId */\n      0x03\n        /* \"contracts/core/product/MPProductManager.sol\":2406:2436  isKnownByProductId[_productId] */\n      0x00\n        /* \"contracts/core/product/MPProductManager.sol\":2425:2435  _productId */\n      dup4\n        /* \"contracts/core/product/MPProductManager.sol\":2406:2436  isKnownByProductId[_productId] */\n      dup2\n      mstore\n      0x20\n      add\n      swap1\n      dup2\n      mstore\n      0x20\n      add\n      0x00\n      keccak256\n      0x00\n      swap1\n      sload\n      swap1\n      0x0100\n      exp\n      swap1\n      div\n      0xff\n      and\n        /* \"contracts/core/product/MPProductManager.sol\":2399:2436  return isKnownByProductId[_productId] */\n      swap1\n      pop\n        /* \"contracts/core/product/MPProductManager.sol\":2307:2445  function isKnownProduct(uint256 _productId) view external returns (bool _isKnown){... */\n      swap2\n      swap1\n      pop\n      jump\t// out\n        /* \"contracts/core/product/MPProductManager.sol\":5179:5293  function getIndex() internal returns (uint256 _index){... */\n    tag_67:\n        /* \"contracts/core/product/MPProductManager.sol\":5217:5231  uint256 _index */\n      0x00\n        /* \"contracts/core/product/MPProductManager.sol\":5252:5257  index */\n      0x01\n      0x00\n        /* \"contracts/core/product/MPProductManager.sol\":5252:5259  index++ */\n      dup2\n      sload\n      dup1\n      swap3\n      swap2\n      swap1\n      tag_132\n      swap1\n      tag_133\n      jump\t// in\n    tag_132:\n      swap2\n      swap1\n      pop\n      sstore\n        /* \"contracts/core/product/MPProductManager.sol\":5243:5259  _index = index++ */\n      swap1\n      pop\n        /* \"contracts/core/product/MPProductManager.sol\":5179:5293  function getIndex() internal returns (uint256 _index){... */\n      swap1\n      jump\t// out\n        /* \"contracts/core/product/MPProductManager.sol\":5301:5557  function addTx(TxType _txType, ObjType _objType, uint256 _id, uint256 _amount, address _erc20) internal returns (uint256 _txId){... */\n    tag_82:\n        /* \"contracts/core/product/MPProductManager.sol\":5414:5427  uint256 _txId */\n      0x00\n        /* \"contracts/core/product/MPProductManager.sol\":5460:5468  register */\n      0x00\n      0x00\n      swap1\n      sload\n      swap1\n      0x0100\n      exp\n      swap1\n      div\n      0xffffffffffffffffffffffffffffffffffffffff\n      and\n        /* \"contracts/core/product/MPProductManager.sol\":5460:5479  register.getAddress */\n      0xffffffffffffffffffffffffffffffffffffffff\n      and\n      0xbf40fac1\n        /* \"contracts/core/product/MPProductManager.sol\":5480:5493  TX_MANAGER_CA */\n      mload(0x40)\n      dup1\n      0x40\n      add\n      0x40\n      mstore\n      dup1\n      0x16\n      dup2\n      mstore\n      0x20\n      add\n      0x52455345525645445f4d505f54585f4d414e4147455200000000000000000000\n      dup2\n      mstore\n      pop\n        /* \"contracts/core/product/MPProductManager.sol\":5460:5494  register.getAddress(TX_MANAGER_CA) */\n      mload(0x40)\n      dup3\n      0xffffffff\n      and\n      0xe0\n      shl\n      dup2\n      mstore\n      0x04\n      add\n      tag_135\n      swap2\n      swap1\n      tag_21\n      jump\t// in\n    tag_135:\n      0x20\n      mload(0x40)\n      dup1\n      dup4\n      sub\n      dup2\n      dup7\n      gas\n      staticcall\n      iszero\n      dup1\n      iszero\n      tag_137\n      jumpi\n      returndatacopy(0x00, 0x00, returndatasize)\n      revert(0x00, returndatasize)\n    tag_137:\n      pop\n      pop\n      pop\n      pop\n      mload(0x40)\n      returndatasize\n      not(0x1f)\n      0x1f\n      dup3\n      add\n      and\n      dup3\n      add\n      dup1\n      0x40\n      mstore\n      pop\n      dup2\n      add\n      swap1\n      tag_138\n      swap2\n      swap1\n      tag_88\n      jump\t// in\n    tag_138:\n        /* \"contracts/core/product/MPProductManager.sol\":5447:5501  IMPTxManager(register.getAddress(TX_MANAGER_CA)).addTx */\n      0xffffffffffffffffffffffffffffffffffffffff\n      and\n      0xee16e639\n        /* \"contracts/core/product/MPProductManager.sol\":5502:5509  _txType */\n      dup8\n        /* \"contracts/core/product/MPProductManager.sol\":5511:5519  _objType */\n      dup8\n        /* \"contracts/core/product/MPProductManager.sol\":5521:5524  _id */\n      dup8\n        /* \"contracts/core/product/MPProductManager.sol\":5526:5530  self */\n      immutable(\"0x742ccb3c5ad7b0e2030ad7fa03711e32b9f4236452343c6e16a6cf67d464d149\")\n        /* \"contracts/core/product/MPProductManager.sol\":5532:5539  _amount */\n      dup9\n        /* \"contracts/core/product/MPProductManager.sol\":5541:5547  _erc20 */\n      dup9\n        /* \"contracts/core/product/MPProductManager.sol\":5447:5548  IMPTxManager(register.getAddress(TX_MANAGER_CA)).addTx(_txType, _objType, _id, self, _amount, _erc20) */\n      mload(0x40)\n      dup8\n      0xffffffff\n      and\n      0xe0\n      shl\n      dup2\n      mstore\n      0x04\n      add\n      tag_139\n      swap7\n      swap6\n      swap5\n      swap4\n      swap3\n      swap2\n      swap1\n      tag_140\n      jump\t// in\n    tag_139:\n      0x20\n      mload(0x40)\n      dup1\n      dup4\n      sub\n      dup2\n      0x00\n      dup8\n      gas\n      call\n      iszero\n      dup1\n      iszero\n      tag_142\n      jumpi\n      returndatacopy(0x00, 0x00, returndatasize)\n      revert(0x00, returndatasize)\n    tag_142:\n      pop\n      pop\n      pop\n      pop\n      mload(0x40)\n      returndatasize\n      not(0x1f)\n      0x1f\n      dup3\n      add\n      and\n      dup3\n      add\n      dup1\n      0x40\n      mstore\n      pop\n      dup2\n      add\n      swap1\n      tag_143\n      swap2\n      swap1\n      tag_144\n      jump\t// in\n    tag_143:\n        /* \"contracts/core/product/MPProductManager.sol\":5440:5548  return IMPTxManager(register.getAddress(TX_MANAGER_CA)).addTx(_txType, _objType, _id, self, _amount, _erc20) */\n      swap1\n      pop\n        /* \"contracts/core/product/MPProductManager.sol\":5301:5557  function addTx(TxType _txType, ObjType _objType, uint256 _id, uint256 _amount, address _erc20) internal returns (uint256 _txId){... */\n      swap6\n      swap5\n      pop\n      pop\n      pop\n      pop\n      pop\n      jump\t// out\n    tag_97:\n      mload(0x40)\n      dup1\n      0x01a0\n      add\n      0x40\n      mstore\n      dup1\n      0x00\n      dup2\n      mstore\n      0x20\n      add\n      and(0xffffffffffffffffffffffffffffffffffffffff, 0x00)\n      dup2\n      mstore\n      0x20\n      add\n      and(0xffffffffffffffffffffffffffffffffffffffff, 0x00)\n      dup2\n      mstore\n      0x20\n      add\n      0x00\n      dup2\n      mstore\n      0x20\n      add\n      0x00\n      dup2\n      mstore\n      0x20\n      add\n      0x00\n      dup2\n      mstore\n      0x20\n      add\n      0x00\n      0x02\n      dup2\n      gt\n      iszero\n      tag_145\n      jumpi\n      tag_146\n      tag_72\n      jump\t// in\n    tag_146:\n    tag_145:\n      dup2\n      mstore\n      0x20\n      add\n      tag_147\n      tag_148\n      jump\t// in\n    tag_147:\n      dup2\n      mstore\n      0x20\n      add\n      tag_149\n      tag_148\n      jump\t// in\n    tag_149:\n      dup2\n      mstore\n      0x20\n      add\n      tag_150\n      tag_151\n      jump\t// in\n    tag_150:\n      dup2\n      mstore\n      0x20\n      add\n      0x00\n      dup2\n      mstore\n      0x20\n      add\n      0x00\n      dup2\n      mstore\n      0x20\n      add\n      0x00\n      dup2\n      mstore\n      pop\n      swap1\n      jump\t// out\n    tag_148:\n      mload(0x40)\n      dup1\n      0xc0\n      add\n      0x40\n      mstore\n      dup1\n      0x00\n      0x03\n      dup2\n      gt\n      iszero\n      tag_152\n      jumpi\n      tag_153\n      tag_72\n      jump\t// in\n    tag_153:\n    tag_152:\n      dup2\n      mstore\n      0x20\n      add\n      0x00\n      dup2\n      mstore\n      0x20\n      add\n      0x00\n      dup2\n      mstore\n      0x20\n      add\n      0x00\n      dup2\n      mstore\n      0x20\n      add\n      0x00\n      dup2\n      mstore\n      0x20\n      add\n      0x00\n      dup2\n      mstore\n      pop\n      swap1\n      jump\t// out\n    tag_151:\n      mload(0x40)\n      dup1\n      0x40\n      add\n      0x40\n      mstore\n      dup1\n      0x00\n      dup2\n      mstore\n      0x20\n      add\n      0x00\n      dup2\n      mstore\n      pop\n      swap1\n      jump\t// out\n        /* \"#utility.yul\":7:84   */\n    tag_154:\n        /* \"#utility.yul\":44:51   */\n      0x00\n        /* \"#utility.yul\":73:78   */\n      dup2\n        /* \"#utility.yul\":62:78   */\n      swap1\n      pop\n        /* \"#utility.yul\":7:84   */\n      swap2\n      swap1\n      pop\n      jump\t// out\n        /* \"#utility.yul\":90:208   */\n    tag_155:\n        /* \"#utility.yul\":177:201   */\n      tag_224\n        /* \"#utility.yul\":195:200   */\n      dup2\n        /* \"#utility.yul\":177:201   */\n      tag_154\n      jump\t// in\n    tag_224:\n        /* \"#utility.yul\":172:175   */\n      dup3\n        /* \"#utility.yul\":165:202   */\n      mstore\n        /* \"#utility.yul\":90:208   */\n      pop\n      pop\n      jump\t// out\n        /* \"#utility.yul\":214:436   */\n    tag_17:\n        /* \"#utility.yul\":307:311   */\n      0x00\n        /* \"#utility.yul\":345:347   */\n      0x20\n        /* \"#utility.yul\":334:343   */\n      dup3\n        /* \"#utility.yul\":330:348   */\n      add\n        /* \"#utility.yul\":322:348   */\n      swap1\n      pop\n        /* \"#utility.yul\":358:429   */\n      tag_226\n        /* \"#utility.yul\":426:427   */\n      0x00\n        /* \"#utility.yul\":415:424   */\n      dup4\n        /* \"#utility.yul\":411:428   */\n      add\n        /* \"#utility.yul\":402:408   */\n      dup5\n        /* \"#utility.yul\":358:429   */\n      tag_155\n      jump\t// in\n    tag_226:\n        /* \"#utility.yul\":214:436   */\n      swap3\n      swap2\n      pop\n      pop\n      jump\t// out\n        /* \"#utility.yul\":442:541   */\n    tag_156:\n        /* \"#utility.yul\":494:500   */\n      0x00\n        /* \"#utility.yul\":528:533   */\n      dup2\n        /* \"#utility.yul\":522:534   */\n      mload\n        /* \"#utility.yul\":512:534   */\n      swap1\n      pop\n        /* \"#utility.yul\":442:541   */\n      swap2\n      swap1\n      pop\n      jump\t// out\n        /* \"#utility.yul\":547:716   */\n    tag_157:\n        /* \"#utility.yul\":631:642   */\n      0x00\n        /* \"#utility.yul\":665:671   */\n      dup3\n        /* \"#utility.yul\":660:663   */\n      dup3\n        /* \"#utility.yul\":653:672   */\n      mstore\n        /* \"#utility.yul\":705:709   */\n      0x20\n        /* \"#utility.yul\":700:703   */\n      dup3\n        /* \"#utility.yul\":696:710   */\n      add\n        /* \"#utility.yul\":681:710   */\n      swap1\n      pop\n        /* \"#utility.yul\":547:716   */\n      swap3\n      swap2\n      pop\n      pop\n      jump\t// out\n        /* \"#utility.yul\":722:861   */\n    tag_158:\n        /* \"#utility.yul\":811:817   */\n      dup3\n        /* \"#utility.yul\":806:809   */\n      dup2\n        /* \"#utility.yul\":801:804   */\n      dup4\n        /* \"#utility.yul\":795:818   */\n      mcopy\n        /* \"#utility.yul\":852:853   */\n      0x00\n        /* \"#utility.yul\":843:849   */\n      dup4\n        /* \"#utility.yul\":838:841   */\n      dup4\n        /* \"#utility.yul\":834:850   */\n      add\n        /* \"#utility.yul\":827:854   */\n      mstore\n        /* \"#utility.yul\":722:861   */\n      pop\n      pop\n      pop\n      jump\t// out\n        /* \"#utility.yul\":867:969   */\n    tag_159:\n        /* \"#utility.yul\":908:914   */\n      0x00\n        /* \"#utility.yul\":959:961   */\n      0x1f\n        /* \"#utility.yul\":955:962   */\n      not\n        /* \"#utility.yul\":950:952   */\n      0x1f\n        /* \"#utility.yul\":943:948   */\n      dup4\n        /* \"#utility.yul\":939:953   */\n      add\n        /* \"#utility.yul\":935:963   */\n      and\n        /* \"#utility.yul\":925:963   */\n      swap1\n      pop\n        /* \"#utility.yul\":867:969   */\n      swap2\n      swap1\n      pop\n      jump\t// out\n        /* \"#utility.yul\":975:1352   */\n    tag_160:\n        /* \"#utility.yul\":1063:1066   */\n      0x00\n        /* \"#utility.yul\":1091:1130   */\n      tag_232\n        /* \"#utility.yul\":1124:1129   */\n      dup3\n        /* \"#utility.yul\":1091:1130   */\n      tag_156\n      jump\t// in\n    tag_232:\n        /* \"#utility.yul\":1146:1217   */\n      tag_233\n        /* \"#utility.yul\":1210:1216   */\n      dup2\n        /* \"#utility.yul\":1205:1208   */\n      dup6\n        /* \"#utility.yul\":1146:1217   */\n      tag_157\n      jump\t// in\n    tag_233:\n        /* \"#utility.yul\":1139:1217   */\n      swap4\n      pop\n        /* \"#utility.yul\":1226:1291   */\n      tag_234\n        /* \"#utility.yul\":1284:1290   */\n      dup2\n        /* \"#utility.yul\":1279:1282   */\n      dup6\n        /* \"#utility.yul\":1272:1276   */\n      0x20\n        /* \"#utility.yul\":1265:1270   */\n      dup7\n        /* \"#utility.yul\":1261:1277   */\n      add\n        /* \"#utility.yul\":1226:1291   */\n      tag_158\n      jump\t// in\n    tag_234:\n        /* \"#utility.yul\":1316:1345   */\n      tag_235\n        /* \"#utility.yul\":1338:1344   */\n      dup2\n        /* \"#utility.yul\":1316:1345   */\n      tag_159\n      jump\t// in\n    tag_235:\n        /* \"#utility.yul\":1311:1314   */\n      dup5\n        /* \"#utility.yul\":1307:1346   */\n      add\n        /* \"#utility.yul\":1300:1346   */\n      swap2\n      pop\n        /* \"#utility.yul\":1067:1352   */\n      pop\n        /* \"#utility.yul\":975:1352   */\n      swap3\n      swap2\n      pop\n      pop\n      jump\t// out\n        /* \"#utility.yul\":1358:1671   */\n    tag_21:\n        /* \"#utility.yul\":1471:1475   */\n      0x00\n        /* \"#utility.yul\":1509:1511   */\n      0x20\n        /* \"#utility.yul\":1498:1507   */\n      dup3\n        /* \"#utility.yul\":1494:1512   */\n      add\n        /* \"#utility.yul\":1486:1512   */\n      swap1\n      pop\n        /* \"#utility.yul\":1558:1567   */\n      dup2\n        /* \"#utility.yul\":1552:1556   */\n      dup2\n        /* \"#utility.yul\":1548:1568   */\n      sub\n        /* \"#utility.yul\":1544:1545   */\n      0x00\n        /* \"#utility.yul\":1533:1542   */\n      dup4\n        /* \"#utility.yul\":1529:1546   */\n      add\n        /* \"#utility.yul\":1522:1569   */\n      mstore\n        /* \"#utility.yul\":1586:1664   */\n      tag_237\n        /* \"#utility.yul\":1659:1663   */\n      dup2\n        /* \"#utility.yul\":1650:1656   */\n      dup5\n        /* \"#utility.yul\":1586:1664   */\n      tag_160\n      jump\t// in\n    tag_237:\n        /* \"#utility.yul\":1578:1664   */\n      swap1\n      pop\n        /* \"#utility.yul\":1358:1671   */\n      swap3\n      swap2\n      pop\n      pop\n      jump\t// out\n        /* \"#utility.yul\":1677:1791   */\n    tag_161:\n        /* \"#utility.yul\":1744:1750   */\n      0x00\n        /* \"#utility.yul\":1778:1783   */\n      dup2\n        /* \"#utility.yul\":1772:1784   */\n      mload\n        /* \"#utility.yul\":1762:1784   */\n      swap1\n      pop\n        /* \"#utility.yul\":1677:1791   */\n      swap2\n      swap1\n      pop\n      jump\t// out\n        /* \"#utility.yul\":1797:1981   */\n    tag_162:\n        /* \"#utility.yul\":1896:1907   */\n      0x00\n        /* \"#utility.yul\":1930:1936   */\n      dup3\n        /* \"#utility.yul\":1925:1928   */\n      dup3\n        /* \"#utility.yul\":1918:1937   */\n      mstore\n        /* \"#utility.yul\":1970:1974   */\n      0x20\n        /* \"#utility.yul\":1965:1968   */\n      dup3\n        /* \"#utility.yul\":1961:1975   */\n      add\n        /* \"#utility.yul\":1946:1975   */\n      swap1\n      pop\n        /* \"#utility.yul\":1797:1981   */\n      swap3\n      swap2\n      pop\n      pop\n      jump\t// out\n        /* \"#utility.yul\":1987:2119   */\n    tag_163:\n        /* \"#utility.yul\":2054:2058   */\n      0x00\n        /* \"#utility.yul\":2077:2080   */\n      dup2\n        /* \"#utility.yul\":2069:2080   */\n      swap1\n      pop\n        /* \"#utility.yul\":2107:2111   */\n      0x20\n        /* \"#utility.yul\":2102:2105   */\n      dup3\n        /* \"#utility.yul\":2098:2112   */\n      add\n        /* \"#utility.yul\":2090:2112   */\n      swap1\n      pop\n        /* \"#utility.yul\":1987:2119   */\n      swap2\n      swap1\n      pop\n      jump\t// out\n        /* \"#utility.yul\":2125:2233   */\n    tag_164:\n        /* \"#utility.yul\":2202:2226   */\n      tag_242\n        /* \"#utility.yul\":2220:2225   */\n      dup2\n        /* \"#utility.yul\":2202:2226   */\n      tag_154\n      jump\t// in\n    tag_242:\n        /* \"#utility.yul\":2197:2200   */\n      dup3\n        /* \"#utility.yul\":2190:2227   */\n      mstore\n        /* \"#utility.yul\":2125:2233   */\n      pop\n      pop\n      jump\t// out\n        /* \"#utility.yul\":2239:2418   */\n    tag_165:\n        /* \"#utility.yul\":2308:2318   */\n      0x00\n        /* \"#utility.yul\":2329:2375   */\n      tag_244\n        /* \"#utility.yul\":2371:2374   */\n      dup4\n        /* \"#utility.yul\":2363:2369   */\n      dup4\n        /* \"#utility.yul\":2329:2375   */\n      tag_164\n      jump\t// in\n    tag_244:\n        /* \"#utility.yul\":2407:2411   */\n      0x20\n        /* \"#utility.yul\":2402:2405   */\n      dup4\n        /* \"#utility.yul\":2398:2412   */\n      add\n        /* \"#utility.yul\":2384:2412   */\n      swap1\n      pop\n        /* \"#utility.yul\":2239:2418   */\n      swap3\n      swap2\n      pop\n      pop\n      jump\t// out\n        /* \"#utility.yul\":2424:2537   */\n    tag_166:\n        /* \"#utility.yul\":2494:2498   */\n      0x00\n        /* \"#utility.yul\":2526:2530   */\n      0x20\n        /* \"#utility.yul\":2521:2524   */\n      dup3\n        /* \"#utility.yul\":2517:2531   */\n      add\n        /* \"#utility.yul\":2509:2531   */\n      swap1\n      pop\n        /* \"#utility.yul\":2424:2537   */\n      swap2\n      swap1\n      pop\n      jump\t// out\n        /* \"#utility.yul\":2573:3305   */\n    tag_167:\n        /* \"#utility.yul\":2692:2695   */\n      0x00\n        /* \"#utility.yul\":2721:2775   */\n      tag_247\n        /* \"#utility.yul\":2769:2774   */\n      dup3\n        /* \"#utility.yul\":2721:2775   */\n      tag_161\n      jump\t// in\n    tag_247:\n        /* \"#utility.yul\":2791:2877   */\n      tag_248\n        /* \"#utility.yul\":2870:2876   */\n      dup2\n        /* \"#utility.yul\":2865:2868   */\n      dup6\n        /* \"#utility.yul\":2791:2877   */\n      tag_162\n      jump\t// in\n    tag_248:\n        /* \"#utility.yul\":2784:2877   */\n      swap4\n      pop\n        /* \"#utility.yul\":2901:2957   */\n      tag_249\n        /* \"#utility.yul\":2951:2956   */\n      dup4\n        /* \"#utility.yul\":2901:2957   */\n      tag_163\n      jump\t// in\n    tag_249:\n        /* \"#utility.yul\":2980:2987   */\n      dup1\n        /* \"#utility.yul\":3011:3012   */\n      0x00\n        /* \"#utility.yul\":2996:3280   */\n    tag_250:\n        /* \"#utility.yul\":3021:3027   */\n      dup4\n        /* \"#utility.yul\":3018:3019   */\n      dup2\n        /* \"#utility.yul\":3015:3028   */\n      lt\n        /* \"#utility.yul\":2996:3280   */\n      iszero\n      tag_252\n      jumpi\n        /* \"#utility.yul\":3097:3103   */\n      dup2\n        /* \"#utility.yul\":3091:3104   */\n      mload\n        /* \"#utility.yul\":3124:3187   */\n      tag_253\n        /* \"#utility.yul\":3183:3186   */\n      dup9\n        /* \"#utility.yul\":3168:3181   */\n      dup3\n        /* \"#utility.yul\":3124:3187   */\n      tag_165\n      jump\t// in\n    tag_253:\n        /* \"#utility.yul\":3117:3187   */\n      swap8\n      pop\n        /* \"#utility.yul\":3210:3270   */\n      tag_254\n        /* \"#utility.yul\":3263:3269   */\n      dup4\n        /* \"#utility.yul\":3210:3270   */\n      tag_166\n      jump\t// in\n    tag_254:\n        /* \"#utility.yul\":3200:3270   */\n      swap3\n      pop\n        /* \"#utility.yul\":3056:3280   */\n      pop\n        /* \"#utility.yul\":3043:3044   */\n      0x01\n        /* \"#utility.yul\":3040:3041   */\n      dup2\n        /* \"#utility.yul\":3036:3045   */\n      add\n        /* \"#utility.yul\":3031:3045   */\n      swap1\n      pop\n        /* \"#utility.yul\":2996:3280   */\n      jump(tag_250)\n    tag_252:\n        /* \"#utility.yul\":3000:3014   */\n      pop\n        /* \"#utility.yul\":3296:3299   */\n      dup6\n        /* \"#utility.yul\":3289:3299   */\n      swap4\n      pop\n        /* \"#utility.yul\":2697:3305   */\n      pop\n      pop\n      pop\n        /* \"#utility.yul\":2573:3305   */\n      swap3\n      swap2\n      pop\n      pop\n      jump\t// out\n        /* \"#utility.yul\":3311:3684   */\n    tag_25:\n        /* \"#utility.yul\":3454:3458   */\n      0x00\n        /* \"#utility.yul\":3492:3494   */\n      0x20\n        /* \"#utility.yul\":3481:3490   */\n      dup3\n        /* \"#utility.yul\":3477:3495   */\n      add\n        /* \"#utility.yul\":3469:3495   */\n      swap1\n      pop\n        /* \"#utility.yul\":3541:3550   */\n      dup2\n        /* \"#utility.yul\":3535:3539   */\n      dup2\n        /* \"#utility.yul\":3531:3551   */\n      sub\n        /* \"#utility.yul\":3527:3528   */\n      0x00\n        /* \"#utility.yul\":3516:3525   */\n      dup4\n        /* \"#utility.yul\":3512:3529   */\n      add\n        /* \"#utility.yul\":3505:3552   */\n      mstore\n        /* \"#utility.yul\":3569:3677   */\n      tag_256\n        /* \"#utility.yul\":3672:3676   */\n      dup2\n        /* \"#utility.yul\":3663:3669   */\n      dup5\n        /* \"#utility.yul\":3569:3677   */\n      tag_167\n      jump\t// in\n    tag_256:\n        /* \"#utility.yul\":3561:3677   */\n      swap1\n      pop\n        /* \"#utility.yul\":3311:3684   */\n      swap3\n      swap2\n      pop\n      pop\n      jump\t// out\n        /* \"#utility.yul\":3690:3765   */\n    tag_168:\n        /* \"#utility.yul\":3723:3729   */\n      0x00\n        /* \"#utility.yul\":3756:3758   */\n      0x40\n        /* \"#utility.yul\":3750:3759   */\n      mload\n        /* \"#utility.yul\":3740:3759   */\n      swap1\n      pop\n        /* \"#utility.yul\":3690:3765   */\n      swap1\n      jump\t// out\n        /* \"#utility.yul\":3771:3888   */\n    tag_169:\n        /* \"#utility.yul\":3880:3881   */\n      0x00\n        /* \"#utility.yul\":3877:3878   */\n      0x00\n        /* \"#utility.yul\":3870:3882   */\n      revert\n        /* \"#utility.yul\":4017:4134   */\n    tag_171:\n        /* \"#utility.yul\":4126:4127   */\n      0x00\n        /* \"#utility.yul\":4123:4124   */\n      0x00\n        /* \"#utility.yul\":4116:4128   */\n      revert\n        /* \"#utility.yul\":4140:4320   */\n    tag_172:\n        /* \"#utility.yul\":4188:4265   */\n      0x4e487b7100000000000000000000000000000000000000000000000000000000\n        /* \"#utility.yul\":4185:4186   */\n      0x00\n        /* \"#utility.yul\":4178:4266   */\n      mstore\n        /* \"#utility.yul\":4285:4289   */\n      0x41\n        /* \"#utility.yul\":4282:4283   */\n      0x04\n        /* \"#utility.yul\":4275:4290   */\n      mstore\n        /* \"#utility.yul\":4309:4313   */\n      0x24\n        /* \"#utility.yul\":4306:4307   */\n      0x00\n        /* \"#utility.yul\":4299:4314   */\n      revert\n        /* \"#utility.yul\":4326:4607   */\n    tag_173:\n        /* \"#utility.yul\":4409:4436   */\n      tag_263\n        /* \"#utility.yul\":4431:4435   */\n      dup3\n        /* \"#utility.yul\":4409:4436   */\n      tag_159\n      jump\t// in\n    tag_263:\n        /* \"#utility.yul\":4401:4407   */\n      dup2\n        /* \"#utility.yul\":4397:4437   */\n      add\n        /* \"#utility.yul\":4539:4545   */\n      dup2\n        /* \"#utility.yul\":4527:4537   */\n      dup2\n        /* \"#utility.yul\":4524:4546   */\n      lt\n        /* \"#utility.yul\":4503:4521   */\n      0xffffffffffffffff\n        /* \"#utility.yul\":4491:4501   */\n      dup3\n        /* \"#utility.yul\":4488:4522   */\n      gt\n        /* \"#utility.yul\":4485:4547   */\n      or\n        /* \"#utility.yul\":4482:4570   */\n      iszero\n      tag_264\n      jumpi\n        /* \"#utility.yul\":4550:4568   */\n      tag_265\n      tag_172\n      jump\t// in\n    tag_265:\n        /* \"#utility.yul\":4482:4570   */\n    tag_264:\n        /* \"#utility.yul\":4590:4600   */\n      dup1\n        /* \"#utility.yul\":4586:4588   */\n      0x40\n        /* \"#utility.yul\":4579:4601   */\n      mstore\n        /* \"#utility.yul\":4369:4607   */\n      pop\n        /* \"#utility.yul\":4326:4607   */\n      pop\n      pop\n      jump\t// out\n        /* \"#utility.yul\":4613:4742   */\n    tag_174:\n        /* \"#utility.yul\":4647:4653   */\n      0x00\n        /* \"#utility.yul\":4674:4694   */\n      tag_267\n      tag_168\n      jump\t// in\n    tag_267:\n        /* \"#utility.yul\":4664:4694   */\n      swap1\n      pop\n        /* \"#utility.yul\":4703:4736   */\n      tag_268\n        /* \"#utility.yul\":4731:4735   */\n      dup3\n        /* \"#utility.yul\":4723:4729   */\n      dup3\n        /* \"#utility.yul\":4703:4736   */\n      tag_173\n      jump\t// in\n    tag_268:\n        /* \"#utility.yul\":4613:4742   */\n      swap2\n      swap1\n      pop\n      jump\t// out\n        /* \"#utility.yul\":4871:4997   */\n    tag_176:\n        /* \"#utility.yul\":4908:4915   */\n      0x00\n        /* \"#utility.yul\":4948:4990   */\n      0xffffffffffffffffffffffffffffffffffffffff\n        /* \"#utility.yul\":4941:4946   */\n      dup3\n        /* \"#utility.yul\":4937:4991   */\n      and\n        /* \"#utility.yul\":4926:4991   */\n      swap1\n      pop\n        /* \"#utility.yul\":4871:4997   */\n      swap2\n      swap1\n      pop\n      jump\t// out\n        /* \"#utility.yul\":5003:5099   */\n    tag_177:\n        /* \"#utility.yul\":5040:5047   */\n      0x00\n        /* \"#utility.yul\":5069:5093   */\n      tag_272\n        /* \"#utility.yul\":5087:5092   */\n      dup3\n        /* \"#utility.yul\":5069:5093   */\n      tag_176\n      jump\t// in\n    tag_272:\n        /* \"#utility.yul\":5058:5093   */\n      swap1\n      pop\n        /* \"#utility.yul\":5003:5099   */\n      swap2\n      swap1\n      pop\n      jump\t// out\n        /* \"#utility.yul\":5105:5227   */\n    tag_178:\n        /* \"#utility.yul\":5178:5202   */\n      tag_274\n        /* \"#utility.yul\":5196:5201   */\n      dup2\n        /* \"#utility.yul\":5178:5202   */\n      tag_177\n      jump\t// in\n    tag_274:\n        /* \"#utility.yul\":5171:5176   */\n      dup2\n        /* \"#utility.yul\":5168:5203   */\n      eq\n        /* \"#utility.yul\":5158:5221   */\n      tag_275\n      jumpi\n        /* \"#utility.yul\":5217:5218   */\n      0x00\n        /* \"#utility.yul\":5214:5215   */\n      0x00\n        /* \"#utility.yul\":5207:5219   */\n      revert\n        /* \"#utility.yul\":5158:5221   */\n    tag_275:\n        /* \"#utility.yul\":5105:5227   */\n      pop\n      jump\t// out\n        /* \"#utility.yul\":5233:5372   */\n    tag_179:\n        /* \"#utility.yul\":5279:5284   */\n      0x00\n        /* \"#utility.yul\":5317:5323   */\n      dup2\n        /* \"#utility.yul\":5304:5324   */\n      calldataload\n        /* \"#utility.yul\":5295:5324   */\n      swap1\n      pop\n        /* \"#utility.yul\":5333:5366   */\n      tag_277\n        /* \"#utility.yul\":5360:5365   */\n      dup2\n        /* \"#utility.yul\":5333:5366   */\n      tag_178\n      jump\t// in\n    tag_277:\n        /* \"#utility.yul\":5233:5372   */\n      swap3\n      swap2\n      pop\n      pop\n      jump\t// out\n        /* \"#utility.yul\":5378:5489   */\n    tag_180:\n        /* \"#utility.yul\":5463:5464   */\n      0x03\n        /* \"#utility.yul\":5456:5461   */\n      dup2\n        /* \"#utility.yul\":5453:5465   */\n      lt\n        /* \"#utility.yul\":5443:5483   */\n      tag_279\n      jumpi\n        /* \"#utility.yul\":5479:5480   */\n      0x00\n        /* \"#utility.yul\":5476:5477   */\n      0x00\n        /* \"#utility.yul\":5469:5481   */\n      revert\n        /* \"#utility.yul\":5443:5483   */\n    tag_279:\n        /* \"#utility.yul\":5378:5489   */\n      pop\n      jump\t// out\n        /* \"#utility.yul\":5495:5658   */\n    tag_181:\n        /* \"#utility.yul\":5553:5558   */\n      0x00\n        /* \"#utility.yul\":5591:5597   */\n      dup2\n        /* \"#utility.yul\":5578:5598   */\n      calldataload\n        /* \"#utility.yul\":5569:5598   */\n      swap1\n      pop\n        /* \"#utility.yul\":5607:5652   */\n      tag_281\n        /* \"#utility.yul\":5646:5651   */\n      dup2\n        /* \"#utility.yul\":5607:5652   */\n      tag_180\n      jump\t// in\n    tag_281:\n        /* \"#utility.yul\":5495:5658   */\n      swap3\n      swap2\n      pop\n      pop\n      jump\t// out\n        /* \"#utility.yul\":5664:5786   */\n    tag_182:\n        /* \"#utility.yul\":5737:5761   */\n      tag_283\n        /* \"#utility.yul\":5755:5760   */\n      dup2\n        /* \"#utility.yul\":5737:5761   */\n      tag_154\n      jump\t// in\n    tag_283:\n        /* \"#utility.yul\":5730:5735   */\n      dup2\n        /* \"#utility.yul\":5727:5762   */\n      eq\n        /* \"#utility.yul\":5717:5780   */\n      tag_284\n      jumpi\n        /* \"#utility.yul\":5776:5777   */\n      0x00\n        /* \"#utility.yul\":5773:5774   */\n      0x00\n        /* \"#utility.yul\":5766:5778   */\n      revert\n        /* \"#utility.yul\":5717:5780   */\n    tag_284:\n        /* \"#utility.yul\":5664:5786   */\n      pop\n      jump\t// out\n        /* \"#utility.yul\":5792:5931   */\n    tag_183:\n        /* \"#utility.yul\":5838:5843   */\n      0x00\n        /* \"#utility.yul\":5876:5882   */\n      dup2\n        /* \"#utility.yul\":5863:5883   */\n      calldataload\n        /* \"#utility.yul\":5854:5883   */\n      swap1\n      pop\n        /* \"#utility.yul\":5892:5925   */\n      tag_286\n        /* \"#utility.yul\":5919:5924   */\n      dup2\n        /* \"#utility.yul\":5892:5925   */\n      tag_182\n      jump\t// in\n    tag_286:\n        /* \"#utility.yul\":5792:5931   */\n      swap3\n      swap2\n      pop\n      pop\n      jump\t// out\n        /* \"#utility.yul\":5937:6048   */\n    tag_184:\n        /* \"#utility.yul\":6022:6023   */\n      0x04\n        /* \"#utility.yul\":6015:6020   */\n      dup2\n        /* \"#utility.yul\":6012:6024   */\n      lt\n        /* \"#utility.yul\":6002:6042   */\n      tag_288\n      jumpi\n        /* \"#utility.yul\":6038:6039   */\n      0x00\n        /* \"#utility.yul\":6035:6036   */\n      0x00\n        /* \"#utility.yul\":6028:6040   */\n      revert\n        /* \"#utility.yul\":6002:6042   */\n    tag_288:\n        /* \"#utility.yul\":5937:6048   */\n      pop\n      jump\t// out\n        /* \"#utility.yul\":6054:6217   */\n    tag_185:\n        /* \"#utility.yul\":6112:6117   */\n      0x00\n        /* \"#utility.yul\":6150:6156   */\n      dup2\n        /* \"#utility.yul\":6137:6157   */\n      calldataload\n        /* \"#utility.yul\":6128:6157   */\n      swap1\n      pop\n        /* \"#utility.yul\":6166:6211   */\n      tag_290\n        /* \"#utility.yul\":6205:6210   */\n      dup2\n        /* \"#utility.yul\":6166:6211   */\n      tag_184\n      jump\t// in\n    tag_290:\n        /* \"#utility.yul\":6054:6217   */\n      swap3\n      swap2\n      pop\n      pop\n      jump\t// out\n        /* \"#utility.yul\":6255:7535   */\n    tag_186:\n        /* \"#utility.yul\":6338:6343   */\n      0x00\n        /* \"#utility.yul\":6382:6386   */\n      0xc0\n        /* \"#utility.yul\":6370:6379   */\n      dup3\n        /* \"#utility.yul\":6365:6368   */\n      dup5\n        /* \"#utility.yul\":6361:6380   */\n      sub\n        /* \"#utility.yul\":6357:6387   */\n      slt\n        /* \"#utility.yul\":6354:6471   */\n      iszero\n      tag_292\n      jumpi\n        /* \"#utility.yul\":6390:6469   */\n      tag_293\n      tag_171\n      jump\t// in\n    tag_293:\n        /* \"#utility.yul\":6354:6471   */\n    tag_292:\n        /* \"#utility.yul\":6489:6510   */\n      tag_294\n        /* \"#utility.yul\":6505:6509   */\n      0xc0\n        /* \"#utility.yul\":6489:6510   */\n      tag_174\n      jump\t// in\n    tag_294:\n        /* \"#utility.yul\":6480:6510   */\n      swap1\n      pop\n        /* \"#utility.yul\":6573:6574   */\n      0x00\n        /* \"#utility.yul\":6613:6674   */\n      tag_295\n        /* \"#utility.yul\":6670:6673   */\n      dup5\n        /* \"#utility.yul\":6661:6667   */\n      dup3\n        /* \"#utility.yul\":6650:6659   */\n      dup6\n        /* \"#utility.yul\":6646:6668   */\n      add\n        /* \"#utility.yul\":6613:6674   */\n      tag_185\n      jump\t// in\n    tag_295:\n        /* \"#utility.yul\":6606:6610   */\n      0x00\n        /* \"#utility.yul\":6599:6604   */\n      dup4\n        /* \"#utility.yul\":6595:6611   */\n      add\n        /* \"#utility.yul\":6588:6675   */\n      mstore\n        /* \"#utility.yul\":6520:6686   */\n      pop\n        /* \"#utility.yul\":6745:6747   */\n      0x20\n        /* \"#utility.yul\":6786:6835   */\n      tag_296\n        /* \"#utility.yul\":6831:6834   */\n      dup5\n        /* \"#utility.yul\":6822:6828   */\n      dup3\n        /* \"#utility.yul\":6811:6820   */\n      dup6\n        /* \"#utility.yul\":6807:6829   */\n      add\n        /* \"#utility.yul\":6786:6835   */\n      tag_183\n      jump\t// in\n    tag_296:\n        /* \"#utility.yul\":6779:6783   */\n      0x20\n        /* \"#utility.yul\":6772:6777   */\n      dup4\n        /* \"#utility.yul\":6768:6784   */\n      add\n        /* \"#utility.yul\":6761:6836   */\n      mstore\n        /* \"#utility.yul\":6696:6847   */\n      pop\n        /* \"#utility.yul\":6915:6917   */\n      0x40\n        /* \"#utility.yul\":6956:7005   */\n      tag_297\n        /* \"#utility.yul\":7001:7004   */\n      dup5\n        /* \"#utility.yul\":6992:6998   */\n      dup3\n        /* \"#utility.yul\":6981:6990   */\n      dup6\n        /* \"#utility.yul\":6977:6999   */\n      add\n        /* \"#utility.yul\":6956:7005   */\n      tag_183\n      jump\t// in\n    tag_297:\n        /* \"#utility.yul\":6949:6953   */\n      0x40\n        /* \"#utility.yul\":6942:6947   */\n      dup4\n        /* \"#utility.yul\":6938:6954   */\n      add\n        /* \"#utility.yul\":6931:7006   */\n      mstore\n        /* \"#utility.yul\":6857:7017   */\n      pop\n        /* \"#utility.yul\":7085:7087   */\n      0x60\n        /* \"#utility.yul\":7126:7175   */\n      tag_298\n        /* \"#utility.yul\":7171:7174   */\n      dup5\n        /* \"#utility.yul\":7162:7168   */\n      dup3\n        /* \"#utility.yul\":7151:7160   */\n      dup6\n        /* \"#utility.yul\":7147:7169   */\n      add\n        /* \"#utility.yul\":7126:7175   */\n      tag_183\n      jump\t// in\n    tag_298:\n        /* \"#utility.yul\":7119:7123   */\n      0x60\n        /* \"#utility.yul\":7112:7117   */\n      dup4\n        /* \"#utility.yul\":7108:7124   */\n      add\n        /* \"#utility.yul\":7101:7176   */\n      mstore\n        /* \"#utility.yul\":7027:7187   */\n      pop\n        /* \"#utility.yul\":7256:7259   */\n      0x80\n        /* \"#utility.yul\":7298:7347   */\n      tag_299\n        /* \"#utility.yul\":7343:7346   */\n      dup5\n        /* \"#utility.yul\":7334:7340   */\n      dup3\n        /* \"#utility.yul\":7323:7332   */\n      dup6\n        /* \"#utility.yul\":7319:7341   */\n      add\n        /* \"#utility.yul\":7298:7347   */\n      tag_183\n      jump\t// in\n    tag_299:\n        /* \"#utility.yul\":7291:7295   */\n      0x80\n        /* \"#utility.yul\":7284:7289   */\n      dup4\n        /* \"#utility.yul\":7280:7296   */\n      add\n        /* \"#utility.yul\":7273:7348   */\n      mstore\n        /* \"#utility.yul\":7197:7359   */\n      pop\n        /* \"#utility.yul\":7425:7428   */\n      0xa0\n        /* \"#utility.yul\":7467:7516   */\n      tag_300\n        /* \"#utility.yul\":7512:7515   */\n      dup5\n        /* \"#utility.yul\":7503:7509   */\n      dup3\n        /* \"#utility.yul\":7492:7501   */\n      dup6\n        /* \"#utility.yul\":7488:7510   */\n      add\n        /* \"#utility.yul\":7467:7516   */\n      tag_183\n      jump\t// in\n    tag_300:\n        /* \"#utility.yul\":7460:7464   */\n      0xa0\n        /* \"#utility.yul\":7453:7458   */\n      dup4\n        /* \"#utility.yul\":7449:7465   */\n      add\n        /* \"#utility.yul\":7442:7517   */\n      mstore\n        /* \"#utility.yul\":7369:7528   */\n      pop\n        /* \"#utility.yul\":6255:7535   */\n      swap3\n      swap2\n      pop\n      pop\n      jump\t// out\n        /* \"#utility.yul\":7565:8166   */\n    tag_187:\n        /* \"#utility.yul\":7640:7645   */\n      0x00\n        /* \"#utility.yul\":7684:7688   */\n      0x40\n        /* \"#utility.yul\":7672:7681   */\n      dup3\n        /* \"#utility.yul\":7667:7670   */\n      dup5\n        /* \"#utility.yul\":7663:7682   */\n      sub\n        /* \"#utility.yul\":7659:7689   */\n      slt\n        /* \"#utility.yul\":7656:7773   */\n      iszero\n      tag_302\n      jumpi\n        /* \"#utility.yul\":7692:7771   */\n      tag_303\n      tag_171\n      jump\t// in\n    tag_303:\n        /* \"#utility.yul\":7656:7773   */\n    tag_302:\n        /* \"#utility.yul\":7791:7812   */\n      tag_304\n        /* \"#utility.yul\":7807:7811   */\n      0x40\n        /* \"#utility.yul\":7791:7812   */\n      tag_174\n      jump\t// in\n    tag_304:\n        /* \"#utility.yul\":7782:7812   */\n      swap1\n      pop\n        /* \"#utility.yul\":7884:7885   */\n      0x00\n        /* \"#utility.yul\":7924:7973   */\n      tag_305\n        /* \"#utility.yul\":7969:7972   */\n      dup5\n        /* \"#utility.yul\":7960:7966   */\n      dup3\n        /* \"#utility.yul\":7949:7958   */\n      dup6\n        /* \"#utility.yul\":7945:7967   */\n      add\n        /* \"#utility.yul\":7924:7973   */\n      tag_183\n      jump\t// in\n    tag_305:\n        /* \"#utility.yul\":7917:7921   */\n      0x00\n        /* \"#utility.yul\":7910:7915   */\n      dup4\n        /* \"#utility.yul\":7906:7922   */\n      add\n        /* \"#utility.yul\":7899:7974   */\n      mstore\n        /* \"#utility.yul\":7822:7985   */\n      pop\n        /* \"#utility.yul\":8057:8059   */\n      0x20\n        /* \"#utility.yul\":8098:8147   */\n      tag_306\n        /* \"#utility.yul\":8143:8146   */\n      dup5\n        /* \"#utility.yul\":8134:8140   */\n      dup3\n        /* \"#utility.yul\":8123:8132   */\n      dup6\n        /* \"#utility.yul\":8119:8141   */\n      add\n        /* \"#utility.yul\":8098:8147   */\n      tag_183\n      jump\t// in\n    tag_306:\n        /* \"#utility.yul\":8091:8095   */\n      0x20\n        /* \"#utility.yul\":8084:8089   */\n      dup4\n        /* \"#utility.yul\":8080:8096   */\n      add\n        /* \"#utility.yul\":8073:8148   */\n      mstore\n        /* \"#utility.yul\":7995:8159   */\n      pop\n        /* \"#utility.yul\":7565:8166   */\n      swap3\n      swap2\n      pop\n      pop\n      jump\t// out\n        /* \"#utility.yul\":8200:10277   */\n    tag_188:\n        /* \"#utility.yul\":8279:8284   */\n      0x00\n        /* \"#utility.yul\":8323:8329   */\n      0x02a0\n        /* \"#utility.yul\":8311:8320   */\n      dup3\n        /* \"#utility.yul\":8306:8309   */\n      dup5\n        /* \"#utility.yul\":8302:8321   */\n      sub\n        /* \"#utility.yul\":8298:8330   */\n      slt\n        /* \"#utility.yul\":8295:8414   */\n      iszero\n      tag_308\n      jumpi\n        /* \"#utility.yul\":8333:8412   */\n      tag_309\n      tag_171\n      jump\t// in\n    tag_309:\n        /* \"#utility.yul\":8295:8414   */\n    tag_308:\n        /* \"#utility.yul\":8432:8455   */\n      tag_310\n        /* \"#utility.yul\":8448:8454   */\n      0x0140\n        /* \"#utility.yul\":8432:8455   */\n      tag_174\n      jump\t// in\n    tag_310:\n        /* \"#utility.yul\":8423:8455   */\n      swap1\n      pop\n        /* \"#utility.yul\":8530:8531   */\n      0x00\n        /* \"#utility.yul\":8570:8619   */\n      tag_311\n        /* \"#utility.yul\":8615:8618   */\n      dup5\n        /* \"#utility.yul\":8606:8612   */\n      dup3\n        /* \"#utility.yul\":8595:8604   */\n      dup6\n        /* \"#utility.yul\":8591:8613   */\n      add\n        /* \"#utility.yul\":8570:8619   */\n      tag_179\n      jump\t// in\n    tag_311:\n        /* \"#utility.yul\":8563:8567   */\n      0x00\n        /* \"#utility.yul\":8556:8561   */\n      dup4\n        /* \"#utility.yul\":8552:8568   */\n      add\n        /* \"#utility.yul\":8545:8620   */\n      mstore\n        /* \"#utility.yul\":8465:8631   */\n      pop\n        /* \"#utility.yul\":8694:8696   */\n      0x20\n        /* \"#utility.yul\":8735:8796   */\n      tag_312\n        /* \"#utility.yul\":8792:8795   */\n      dup5\n        /* \"#utility.yul\":8783:8789   */\n      dup3\n        /* \"#utility.yul\":8772:8781   */\n      dup6\n        /* \"#utility.yul\":8768:8790   */\n      add\n        /* \"#utility.yul\":8735:8796   */\n      tag_181\n      jump\t// in\n    tag_312:\n        /* \"#utility.yul\":8728:8732   */\n      0x20\n        /* \"#utility.yul\":8721:8726   */\n      dup4\n        /* \"#utility.yul\":8717:8733   */\n      add\n        /* \"#utility.yul\":8710:8797   */\n      mstore\n        /* \"#utility.yul\":8641:8808   */\n      pop\n        /* \"#utility.yul\":8880:8882   */\n      0x40\n        /* \"#utility.yul\":8921:8970   */\n      tag_313\n        /* \"#utility.yul\":8966:8969   */\n      dup5\n        /* \"#utility.yul\":8957:8963   */\n      dup3\n        /* \"#utility.yul\":8946:8955   */\n      dup6\n        /* \"#utility.yul\":8942:8964   */\n      add\n        /* \"#utility.yul\":8921:8970   */\n      tag_183\n      jump\t// in\n    tag_313:\n        /* \"#utility.yul\":8914:8918   */\n      0x40\n        /* \"#utility.yul\":8907:8912   */\n      dup4\n        /* \"#utility.yul\":8903:8919   */\n      add\n        /* \"#utility.yul\":8896:8971   */\n      mstore\n        /* \"#utility.yul\":8818:8982   */\n      pop\n        /* \"#utility.yul\":9056:9058   */\n      0x60\n        /* \"#utility.yul\":9097:9146   */\n      tag_314\n        /* \"#utility.yul\":9142:9145   */\n      dup5\n        /* \"#utility.yul\":9133:9139   */\n      dup3\n        /* \"#utility.yul\":9122:9131   */\n      dup6\n        /* \"#utility.yul\":9118:9140   */\n      add\n        /* \"#utility.yul\":9097:9146   */\n      tag_183\n      jump\t// in\n    tag_314:\n        /* \"#utility.yul\":9090:9094   */\n      0x60\n        /* \"#utility.yul\":9083:9088   */\n      dup4\n        /* \"#utility.yul\":9079:9095   */\n      add\n        /* \"#utility.yul\":9072:9147   */\n      mstore\n        /* \"#utility.yul\":8992:9158   */\n      pop\n        /* \"#utility.yul\":9221:9224   */\n      0x80\n        /* \"#utility.yul\":9263:9312   */\n      tag_315\n        /* \"#utility.yul\":9308:9311   */\n      dup5\n        /* \"#utility.yul\":9299:9305   */\n      dup3\n        /* \"#utility.yul\":9288:9297   */\n      dup6\n        /* \"#utility.yul\":9284:9306   */\n      add\n        /* \"#utility.yul\":9263:9312   */\n      tag_183\n      jump\t// in\n    tag_315:\n        /* \"#utility.yul\":9256:9260   */\n      0x80\n        /* \"#utility.yul\":9249:9254   */\n      dup4\n        /* \"#utility.yul\":9245:9261   */\n      add\n        /* \"#utility.yul\":9238:9313   */\n      mstore\n        /* \"#utility.yul\":9168:9324   */\n      pop\n        /* \"#utility.yul\":9399:9402   */\n      0xa0\n        /* \"#utility.yul\":9441:9524   */\n      tag_316\n        /* \"#utility.yul\":9520:9523   */\n      dup5\n        /* \"#utility.yul\":9511:9517   */\n      dup3\n        /* \"#utility.yul\":9500:9509   */\n      dup6\n        /* \"#utility.yul\":9496:9518   */\n      add\n        /* \"#utility.yul\":9441:9524   */\n      tag_186\n      jump\t// in\n    tag_316:\n        /* \"#utility.yul\":9434:9438   */\n      0xa0\n        /* \"#utility.yul\":9427:9432   */\n      dup4\n        /* \"#utility.yul\":9423:9439   */\n      add\n        /* \"#utility.yul\":9416:9525   */\n      mstore\n        /* \"#utility.yul\":9334:9536   */\n      pop\n        /* \"#utility.yul\":9607:9610   */\n      0x0160\n        /* \"#utility.yul\":9649:9732   */\n      tag_317\n        /* \"#utility.yul\":9728:9731   */\n      dup5\n        /* \"#utility.yul\":9719:9725   */\n      dup3\n        /* \"#utility.yul\":9708:9717   */\n      dup6\n        /* \"#utility.yul\":9704:9726   */\n      add\n        /* \"#utility.yul\":9649:9732   */\n      tag_186\n      jump\t// in\n    tag_317:\n        /* \"#utility.yul\":9642:9646   */\n      0xc0\n        /* \"#utility.yul\":9635:9640   */\n      dup4\n        /* \"#utility.yul\":9631:9647   */\n      add\n        /* \"#utility.yul\":9624:9733   */\n      mstore\n        /* \"#utility.yul\":9546:9744   */\n      pop\n        /* \"#utility.yul\":9808:9811   */\n      0x0220\n        /* \"#utility.yul\":9850:9925   */\n      tag_318\n        /* \"#utility.yul\":9921:9924   */\n      dup5\n        /* \"#utility.yul\":9912:9918   */\n      dup3\n        /* \"#utility.yul\":9901:9910   */\n      dup6\n        /* \"#utility.yul\":9897:9919   */\n      add\n        /* \"#utility.yul\":9850:9925   */\n      tag_187\n      jump\t// in\n    tag_318:\n        /* \"#utility.yul\":9843:9847   */\n      0xe0\n        /* \"#utility.yul\":9836:9841   */\n      dup4\n        /* \"#utility.yul\":9832:9848   */\n      add\n        /* \"#utility.yul\":9825:9926   */\n      mstore\n        /* \"#utility.yul\":9754:9937   */\n      pop\n        /* \"#utility.yul\":10000:10003   */\n      0x0260\n        /* \"#utility.yul\":10044:10093   */\n      tag_319\n        /* \"#utility.yul\":10089:10092   */\n      dup5\n        /* \"#utility.yul\":10080:10086   */\n      dup3\n        /* \"#utility.yul\":10069:10078   */\n      dup6\n        /* \"#utility.yul\":10065:10087   */\n      add\n        /* \"#utility.yul\":10044:10093   */\n      tag_183\n      jump\t// in\n    tag_319:\n        /* \"#utility.yul\":10035:10041   */\n      0x0100\n        /* \"#utility.yul\":10028:10033   */\n      dup4\n        /* \"#utility.yul\":10024:10042   */\n      add\n        /* \"#utility.yul\":10017:10094   */\n      mstore\n        /* \"#utility.yul\":9947:10105   */\n      pop\n        /* \"#utility.yul\":10165:10168   */\n      0x0280\n        /* \"#utility.yul\":10209:10258   */\n      tag_320\n        /* \"#utility.yul\":10254:10257   */\n      dup5\n        /* \"#utility.yul\":10245:10251   */\n      dup3\n        /* \"#utility.yul\":10234:10243   */\n      dup6\n        /* \"#utility.yul\":10230:10252   */\n      add\n        /* \"#utility.yul\":10209:10258   */\n      tag_183\n      jump\t// in\n    tag_320:\n        /* \"#utility.yul\":10200:10206   */\n      0x0120\n        /* \"#utility.yul\":10193:10198   */\n      dup4\n        /* \"#utility.yul\":10189:10207   */\n      add\n        /* \"#utility.yul\":10182:10259   */\n      mstore\n        /* \"#utility.yul\":10115:10270   */\n      pop\n        /* \"#utility.yul\":8200:10277   */\n      swap3\n      swap2\n      pop\n      pop\n      jump\t// out\n        /* \"#utility.yul\":10283:10673   */\n    tag_31:\n        /* \"#utility.yul\":10372:10378   */\n      0x00\n        /* \"#utility.yul\":10421:10424   */\n      0x02a0\n        /* \"#utility.yul\":10409:10418   */\n      dup3\n        /* \"#utility.yul\":10400:10407   */\n      dup5\n        /* \"#utility.yul\":10396:10419   */\n      sub\n        /* \"#utility.yul\":10392:10425   */\n      slt\n        /* \"#utility.yul\":10389:10509   */\n      iszero\n      tag_322\n      jumpi\n        /* \"#utility.yul\":10428:10507   */\n      tag_323\n      tag_169\n      jump\t// in\n    tag_323:\n        /* \"#utility.yul\":10389:10509   */\n    tag_322:\n        /* \"#utility.yul\":10548:10549   */\n      0x00\n        /* \"#utility.yul\":10573:10656   */\n      tag_324\n        /* \"#utility.yul\":10648:10655   */\n      dup5\n        /* \"#utility.yul\":10639:10645   */\n      dup3\n        /* \"#utility.yul\":10628:10637   */\n      dup6\n        /* \"#utility.yul\":10624:10646   */\n      add\n        /* \"#utility.yul\":10573:10656   */\n      tag_188\n      jump\t// in\n    tag_324:\n        /* \"#utility.yul\":10563:10656   */\n      swap2\n      pop\n        /* \"#utility.yul\":10519:10666   */\n      pop\n        /* \"#utility.yul\":10283:10673   */\n      swap3\n      swap2\n      pop\n      pop\n      jump\t// out\n        /* \"#utility.yul\":10679:11011   */\n    tag_34:\n        /* \"#utility.yul\":10800:10804   */\n      0x00\n        /* \"#utility.yul\":10838:10840   */\n      0x40\n        /* \"#utility.yul\":10827:10836   */\n      dup3\n        /* \"#utility.yul\":10823:10841   */\n      add\n        /* \"#utility.yul\":10815:10841   */\n      swap1\n      pop\n        /* \"#utility.yul\":10851:10922   */\n      tag_326\n        /* \"#utility.yul\":10919:10920   */\n      0x00\n        /* \"#utility.yul\":10908:10917   */\n      dup4\n        /* \"#utility.yul\":10904:10921   */\n      add\n        /* \"#utility.yul\":10895:10901   */\n      dup6\n        /* \"#utility.yul\":10851:10922   */\n      tag_155\n      jump\t// in\n    tag_326:\n        /* \"#utility.yul\":10932:11004   */\n      tag_327\n        /* \"#utility.yul\":11000:11002   */\n      0x20\n        /* \"#utility.yul\":10989:10998   */\n      dup4\n        /* \"#utility.yul\":10985:11003   */\n      add\n        /* \"#utility.yul\":10976:10982   */\n      dup5\n        /* \"#utility.yul\":10932:11004   */\n      tag_155\n      jump\t// in\n    tag_327:\n        /* \"#utility.yul\":10679:11011   */\n      swap4\n      swap3\n      pop\n      pop\n      pop\n      jump\t// out\n        /* \"#utility.yul\":11017:11346   */\n    tag_37:\n        /* \"#utility.yul\":11076:11082   */\n      0x00\n        /* \"#utility.yul\":11125:11127   */\n      0x20\n        /* \"#utility.yul\":11113:11122   */\n      dup3\n        /* \"#utility.yul\":11104:11111   */\n      dup5\n        /* \"#utility.yul\":11100:11123   */\n      sub\n        /* \"#utility.yul\":11096:11128   */\n      slt\n        /* \"#utility.yul\":11093:11212   */\n      iszero\n      tag_329\n      jumpi\n        /* \"#utility.yul\":11131:11210   */\n      tag_330\n      tag_169\n      jump\t// in\n    tag_330:\n        /* \"#utility.yul\":11093:11212   */\n    tag_329:\n        /* \"#utility.yul\":11251:11252   */\n      0x00\n        /* \"#utility.yul\":11276:11329   */\n      tag_331\n        /* \"#utility.yul\":11321:11328   */\n      dup5\n        /* \"#utility.yul\":11312:11318   */\n      dup3\n        /* \"#utility.yul\":11301:11310   */\n      dup6\n        /* \"#utility.yul\":11297:11319   */\n      add\n        /* \"#utility.yul\":11276:11329   */\n      tag_183\n      jump\t// in\n    tag_331:\n        /* \"#utility.yul\":11266:11329   */\n      swap2\n      pop\n        /* \"#utility.yul\":11222:11339   */\n      pop\n        /* \"#utility.yul\":11017:11346   */\n      swap3\n      swap2\n      pop\n      pop\n      jump\t// out\n        /* \"#utility.yul\":11352:11460   */\n    tag_189:\n        /* \"#utility.yul\":11429:11453   */\n      tag_333\n        /* \"#utility.yul\":11447:11452   */\n      dup2\n        /* \"#utility.yul\":11429:11453   */\n      tag_177\n      jump\t// in\n    tag_333:\n        /* \"#utility.yul\":11424:11427   */\n      dup3\n        /* \"#utility.yul\":11417:11454   */\n      mstore\n        /* \"#utility.yul\":11352:11460   */\n      pop\n      pop\n      jump\t// out\n        /* \"#utility.yul\":11466:11646   */\n    tag_72:\n        /* \"#utility.yul\":11514:11591   */\n      0x4e487b7100000000000000000000000000000000000000000000000000000000\n        /* \"#utility.yul\":11511:11512   */\n      0x00\n        /* \"#utility.yul\":11504:11592   */\n      mstore\n        /* \"#utility.yul\":11611:11615   */\n      0x21\n        /* \"#utility.yul\":11608:11609   */\n      0x04\n        /* \"#utility.yul\":11601:11616   */\n      mstore\n        /* \"#utility.yul\":11635:11639   */\n      0x24\n        /* \"#utility.yul\":11632:11633   */\n      0x00\n        /* \"#utility.yul\":11625:11640   */\n      revert\n        /* \"#utility.yul\":11652:11769   */\n    tag_190:\n        /* \"#utility.yul\":11737:11738   */\n      0x03\n        /* \"#utility.yul\":11730:11735   */\n      dup2\n        /* \"#utility.yul\":11727:11739   */\n      lt\n        /* \"#utility.yul\":11717:11763   */\n      tag_336\n      jumpi\n        /* \"#utility.yul\":11743:11761   */\n      tag_337\n      tag_72\n      jump\t// in\n    tag_337:\n        /* \"#utility.yul\":11717:11763   */\n    tag_336:\n        /* \"#utility.yul\":11652:11769   */\n      pop\n      jump\t// out\n        /* \"#utility.yul\":11775:11910   */\n    tag_191:\n        /* \"#utility.yul\":11824:11831   */\n      0x00\n        /* \"#utility.yul\":11853:11858   */\n      dup2\n        /* \"#utility.yul\":11842:11858   */\n      swap1\n      pop\n        /* \"#utility.yul\":11859:11904   */\n      tag_339\n        /* \"#utility.yul\":11898:11903   */\n      dup3\n        /* \"#utility.yul\":11859:11904   */\n      tag_190\n      jump\t// in\n    tag_339:\n        /* \"#utility.yul\":11775:11910   */\n      swap2\n      swap1\n      pop\n      jump\t// out\n        /* \"#utility.yul\":11916:12051   */\n    tag_192:\n        /* \"#utility.yul\":11976:11985   */\n      0x00\n        /* \"#utility.yul\":12009:12045   */\n      tag_341\n        /* \"#utility.yul\":12039:12044   */\n      dup3\n        /* \"#utility.yul\":12009:12045   */\n      tag_191\n      jump\t// in\n    tag_341:\n        /* \"#utility.yul\":11996:12045   */\n      swap1\n      pop\n        /* \"#utility.yul\":11916:12051   */\n      swap2\n      swap1\n      pop\n      jump\t// out\n        /* \"#utility.yul\":12057:12198   */\n    tag_193:\n        /* \"#utility.yul\":12144:12191   */\n      tag_343\n        /* \"#utility.yul\":12185:12190   */\n      dup2\n        /* \"#utility.yul\":12144:12191   */\n      tag_192\n      jump\t// in\n    tag_343:\n        /* \"#utility.yul\":12139:12142   */\n      dup3\n        /* \"#utility.yul\":12132:12192   */\n      mstore\n        /* \"#utility.yul\":12057:12198   */\n      pop\n      pop\n      jump\t// out\n        /* \"#utility.yul\":12204:12321   */\n    tag_194:\n        /* \"#utility.yul\":12289:12290   */\n      0x04\n        /* \"#utility.yul\":12282:12287   */\n      dup2\n        /* \"#utility.yul\":12279:12291   */\n      lt\n        /* \"#utility.yul\":12269:12315   */\n      tag_345\n      jumpi\n        /* \"#utility.yul\":12295:12313   */\n      tag_346\n      tag_72\n      jump\t// in\n    tag_346:\n        /* \"#utility.yul\":12269:12315   */\n    tag_345:\n        /* \"#utility.yul\":12204:12321   */\n      pop\n      jump\t// out\n        /* \"#utility.yul\":12327:12462   */\n    tag_195:\n        /* \"#utility.yul\":12376:12383   */\n      0x00\n        /* \"#utility.yul\":12405:12410   */\n      dup2\n        /* \"#utility.yul\":12394:12410   */\n      swap1\n      pop\n        /* \"#utility.yul\":12411:12456   */\n      tag_348\n        /* \"#utility.yul\":12450:12455   */\n      dup3\n        /* \"#utility.yul\":12411:12456   */\n      tag_194\n      jump\t// in\n    tag_348:\n        /* \"#utility.yul\":12327:12462   */\n      swap2\n      swap1\n      pop\n      jump\t// out\n        /* \"#utility.yul\":12468:12603   */\n    tag_196:\n        /* \"#utility.yul\":12528:12537   */\n      0x00\n        /* \"#utility.yul\":12561:12597   */\n      tag_350\n        /* \"#utility.yul\":12591:12596   */\n      dup3\n        /* \"#utility.yul\":12561:12597   */\n      tag_195\n      jump\t// in\n    tag_350:\n        /* \"#utility.yul\":12548:12597   */\n      swap1\n      pop\n        /* \"#utility.yul\":12468:12603   */\n      swap2\n      swap1\n      pop\n      jump\t// out\n        /* \"#utility.yul\":12609:12750   */\n    tag_197:\n        /* \"#utility.yul\":12696:12743   */\n      tag_352\n        /* \"#utility.yul\":12737:12742   */\n      dup2\n        /* \"#utility.yul\":12696:12743   */\n      tag_196\n      jump\t// in\n    tag_352:\n        /* \"#utility.yul\":12691:12694   */\n      dup3\n        /* \"#utility.yul\":12684:12744   */\n      mstore\n        /* \"#utility.yul\":12609:12750   */\n      pop\n      pop\n      jump\t// out\n        /* \"#utility.yul\":12816:14076   */\n    tag_198:\n        /* \"#utility.yul\":12971:12975   */\n      0xc0\n        /* \"#utility.yul\":12966:12969   */\n      dup3\n        /* \"#utility.yul\":12962:12976   */\n      add\n        /* \"#utility.yul\":13062:13066   */\n      0x00\n        /* \"#utility.yul\":13055:13060   */\n      dup3\n        /* \"#utility.yul\":13051:13067   */\n      add\n        /* \"#utility.yul\":13045:13068   */\n      mload\n        /* \"#utility.yul\":13081:13154   */\n      tag_354\n        /* \"#utility.yul\":13148:13152   */\n      0x00\n        /* \"#utility.yul\":13143:13146   */\n      dup6\n        /* \"#utility.yul\":13139:13153   */\n      add\n        /* \"#utility.yul\":13125:13137   */\n      dup3\n        /* \"#utility.yul\":13081:13154   */\n      tag_197\n      jump\t// in\n    tag_354:\n        /* \"#utility.yul\":12986:13164   */\n      pop\n        /* \"#utility.yul\":13246:13250   */\n      0x20\n        /* \"#utility.yul\":13239:13244   */\n      dup3\n        /* \"#utility.yul\":13235:13251   */\n      add\n        /* \"#utility.yul\":13229:13252   */\n      mload\n        /* \"#utility.yul\":13265:13328   */\n      tag_355\n        /* \"#utility.yul\":13322:13326   */\n      0x20\n        /* \"#utility.yul\":13317:13320   */\n      dup6\n        /* \"#utility.yul\":13313:13327   */\n      add\n        /* \"#utility.yul\":13299:13311   */\n      dup3\n        /* \"#utility.yul\":13265:13328   */\n      tag_164\n      jump\t// in\n    tag_355:\n        /* \"#utility.yul\":13174:13338   */\n      pop\n        /* \"#utility.yul\":13429:13433   */\n      0x40\n        /* \"#utility.yul\":13422:13427   */\n      dup3\n        /* \"#utility.yul\":13418:13434   */\n      add\n        /* \"#utility.yul\":13412:13435   */\n      mload\n        /* \"#utility.yul\":13448:13511   */\n      tag_356\n        /* \"#utility.yul\":13505:13509   */\n      0x40\n        /* \"#utility.yul\":13500:13503   */\n      dup6\n        /* \"#utility.yul\":13496:13510   */\n      add\n        /* \"#utility.yul\":13482:13494   */\n      dup3\n        /* \"#utility.yul\":13448:13511   */\n      tag_164\n      jump\t// in\n    tag_356:\n        /* \"#utility.yul\":13348:13521   */\n      pop\n        /* \"#utility.yul\":13612:13616   */\n      0x60\n        /* \"#utility.yul\":13605:13610   */\n      dup3\n        /* \"#utility.yul\":13601:13617   */\n      add\n        /* \"#utility.yul\":13595:13618   */\n      mload\n        /* \"#utility.yul\":13631:13694   */\n      tag_357\n        /* \"#utility.yul\":13688:13692   */\n      0x60\n        /* \"#utility.yul\":13683:13686   */\n      dup6\n        /* \"#utility.yul\":13679:13693   */\n      add\n        /* \"#utility.yul\":13665:13677   */\n      dup3\n        /* \"#utility.yul\":13631:13694   */\n      tag_164\n      jump\t// in\n    tag_357:\n        /* \"#utility.yul\":13531:13704   */\n      pop\n        /* \"#utility.yul\":13796:13800   */\n      0x80\n        /* \"#utility.yul\":13789:13794   */\n      dup3\n        /* \"#utility.yul\":13785:13801   */\n      add\n        /* \"#utility.yul\":13779:13802   */\n      mload\n        /* \"#utility.yul\":13815:13878   */\n      tag_358\n        /* \"#utility.yul\":13872:13876   */\n      0x80\n        /* \"#utility.yul\":13867:13870   */\n      dup6\n        /* \"#utility.yul\":13863:13877   */\n      add\n        /* \"#utility.yul\":13849:13861   */\n      dup3\n        /* \"#utility.yul\":13815:13878   */\n      tag_164\n      jump\t// in\n    tag_358:\n        /* \"#utility.yul\":13714:13888   */\n      pop\n        /* \"#utility.yul\":13977:13981   */\n      0xa0\n        /* \"#utility.yul\":13970:13975   */\n      dup3\n        /* \"#utility.yul\":13966:13982   */\n      add\n        /* \"#utility.yul\":13960:13983   */\n      mload\n        /* \"#utility.yul\":13996:14059   */\n      tag_359\n        /* \"#utility.yul\":14053:14057   */\n      0xa0\n        /* \"#utility.yul\":14048:14051   */\n      dup6\n        /* \"#utility.yul\":14044:14058   */\n      add\n        /* \"#utility.yul\":14030:14042   */\n      dup3\n        /* \"#utility.yul\":13996:14059   */\n      tag_164\n      jump\t// in\n    tag_359:\n        /* \"#utility.yul\":13898:14069   */\n      pop\n        /* \"#utility.yul\":12940:14076   */\n      pop\n        /* \"#utility.yul\":12816:14076   */\n      pop\n      pop\n      jump\t// out\n        /* \"#utility.yul\":14126:14651   */\n    tag_199:\n        /* \"#utility.yul\":14265:14269   */\n      0x40\n        /* \"#utility.yul\":14260:14263   */\n      dup3\n        /* \"#utility.yul\":14256:14270   */\n      add\n        /* \"#utility.yul\":14365:14369   */\n      0x00\n        /* \"#utility.yul\":14358:14363   */\n      dup3\n        /* \"#utility.yul\":14354:14370   */\n      add\n        /* \"#utility.yul\":14348:14371   */\n      mload\n        /* \"#utility.yul\":14384:14447   */\n      tag_361\n        /* \"#utility.yul\":14441:14445   */\n      0x00\n        /* \"#utility.yul\":14436:14439   */\n      dup6\n        /* \"#utility.yul\":14432:14446   */\n      add\n        /* \"#utility.yul\":14418:14430   */\n      dup3\n        /* \"#utility.yul\":14384:14447   */\n      tag_164\n      jump\t// in\n    tag_361:\n        /* \"#utility.yul\":14280:14457   */\n      pop\n        /* \"#utility.yul\":14552:14556   */\n      0x20\n        /* \"#utility.yul\":14545:14550   */\n      dup3\n        /* \"#utility.yul\":14541:14557   */\n      add\n        /* \"#utility.yul\":14535:14558   */\n      mload\n        /* \"#utility.yul\":14571:14634   */\n      tag_362\n        /* \"#utility.yul\":14628:14632   */\n      0x20\n        /* \"#utility.yul\":14623:14626   */\n      dup6\n        /* \"#utility.yul\":14619:14633   */\n      add\n        /* \"#utility.yul\":14605:14617   */\n      dup3\n        /* \"#utility.yul\":14571:14634   */\n      tag_164\n      jump\t// in\n    tag_362:\n        /* \"#utility.yul\":14467:14644   */\n      pop\n        /* \"#utility.yul\":14234:14651   */\n      pop\n        /* \"#utility.yul\":14126:14651   */\n      pop\n      pop\n      jump\t// out\n        /* \"#utility.yul\":14701:17430   */\n    tag_200:\n        /* \"#utility.yul\":14850:14856   */\n      0x0300\n        /* \"#utility.yul\":14845:14848   */\n      dup3\n        /* \"#utility.yul\":14841:14857   */\n      add\n        /* \"#utility.yul\":14937:14941   */\n      0x00\n        /* \"#utility.yul\":14930:14935   */\n      dup3\n        /* \"#utility.yul\":14926:14942   */\n      add\n        /* \"#utility.yul\":14920:14943   */\n      mload\n        /* \"#utility.yul\":14956:15019   */\n      tag_364\n        /* \"#utility.yul\":15013:15017   */\n      0x00\n        /* \"#utility.yul\":15008:15011   */\n      dup6\n        /* \"#utility.yul\":15004:15018   */\n      add\n        /* \"#utility.yul\":14990:15002   */\n      dup3\n        /* \"#utility.yul\":14956:15019   */\n      tag_164\n      jump\t// in\n    tag_364:\n        /* \"#utility.yul\":14867:15029   */\n      pop\n        /* \"#utility.yul\":15115:15119   */\n      0x20\n        /* \"#utility.yul\":15108:15113   */\n      dup3\n        /* \"#utility.yul\":15104:15120   */\n      add\n        /* \"#utility.yul\":15098:15121   */\n      mload\n        /* \"#utility.yul\":15134:15197   */\n      tag_365\n        /* \"#utility.yul\":15191:15195   */\n      0x20\n        /* \"#utility.yul\":15186:15189   */\n      dup6\n        /* \"#utility.yul\":15182:15196   */\n      add\n        /* \"#utility.yul\":15168:15180   */\n      dup3\n        /* \"#utility.yul\":15134:15197   */\n      tag_189\n      jump\t// in\n    tag_365:\n        /* \"#utility.yul\":15039:15207   */\n      pop\n        /* \"#utility.yul\":15290:15294   */\n      0x40\n        /* \"#utility.yul\":15283:15288   */\n      dup3\n        /* \"#utility.yul\":15279:15295   */\n      add\n        /* \"#utility.yul\":15273:15296   */\n      mload\n        /* \"#utility.yul\":15309:15372   */\n      tag_366\n        /* \"#utility.yul\":15366:15370   */\n      0x40\n        /* \"#utility.yul\":15361:15364   */\n      dup6\n        /* \"#utility.yul\":15357:15371   */\n      add\n        /* \"#utility.yul\":15343:15355   */\n      dup3\n        /* \"#utility.yul\":15309:15372   */\n      tag_189\n      jump\t// in\n    tag_366:\n        /* \"#utility.yul\":15217:15382   */\n      pop\n        /* \"#utility.yul\":15477:15481   */\n      0x60\n        /* \"#utility.yul\":15470:15475   */\n      dup3\n        /* \"#utility.yul\":15466:15482   */\n      add\n        /* \"#utility.yul\":15460:15483   */\n      mload\n        /* \"#utility.yul\":15496:15559   */\n      tag_367\n        /* \"#utility.yul\":15553:15557   */\n      0x60\n        /* \"#utility.yul\":15548:15551   */\n      dup6\n        /* \"#utility.yul\":15544:15558   */\n      add\n        /* \"#utility.yul\":15530:15542   */\n      dup3\n        /* \"#utility.yul\":15496:15559   */\n      tag_164\n      jump\t// in\n    tag_367:\n        /* \"#utility.yul\":15392:15569   */\n      pop\n        /* \"#utility.yul\":15666:15670   */\n      0x80\n        /* \"#utility.yul\":15659:15664   */\n      dup3\n        /* \"#utility.yul\":15655:15671   */\n      add\n        /* \"#utility.yul\":15649:15672   */\n      mload\n        /* \"#utility.yul\":15685:15748   */\n      tag_368\n        /* \"#utility.yul\":15742:15746   */\n      0x80\n        /* \"#utility.yul\":15737:15740   */\n      dup6\n        /* \"#utility.yul\":15733:15747   */\n      add\n        /* \"#utility.yul\":15719:15731   */\n      dup3\n        /* \"#utility.yul\":15685:15748   */\n      tag_164\n      jump\t// in\n    tag_368:\n        /* \"#utility.yul\":15579:15758   */\n      pop\n        /* \"#utility.yul\":15844:15848   */\n      0xa0\n        /* \"#utility.yul\":15837:15842   */\n      dup3\n        /* \"#utility.yul\":15833:15849   */\n      add\n        /* \"#utility.yul\":15827:15850   */\n      mload\n        /* \"#utility.yul\":15863:15926   */\n      tag_369\n        /* \"#utility.yul\":15920:15924   */\n      0xa0\n        /* \"#utility.yul\":15915:15918   */\n      dup6\n        /* \"#utility.yul\":15911:15925   */\n      add\n        /* \"#utility.yul\":15897:15909   */\n      dup3\n        /* \"#utility.yul\":15863:15926   */\n      tag_164\n      jump\t// in\n    tag_369:\n        /* \"#utility.yul\":15768:15936   */\n      pop\n        /* \"#utility.yul\":16022:16026   */\n      0xc0\n        /* \"#utility.yul\":16015:16020   */\n      dup3\n        /* \"#utility.yul\":16011:16027   */\n      add\n        /* \"#utility.yul\":16005:16028   */\n      mload\n        /* \"#utility.yul\":16041:16114   */\n      tag_370\n        /* \"#utility.yul\":16108:16112   */\n      0xc0\n        /* \"#utility.yul\":16103:16106   */\n      dup6\n        /* \"#utility.yul\":16099:16113   */\n      add\n        /* \"#utility.yul\":16085:16097   */\n      dup3\n        /* \"#utility.yul\":16041:16114   */\n      tag_193\n      jump\t// in\n    tag_370:\n        /* \"#utility.yul\":15946:16124   */\n      pop\n        /* \"#utility.yul\":16222:16226   */\n      0xe0\n        /* \"#utility.yul\":16215:16220   */\n      dup3\n        /* \"#utility.yul\":16211:16227   */\n      add\n        /* \"#utility.yul\":16205:16228   */\n      mload\n        /* \"#utility.yul\":16241:16372   */\n      tag_371\n        /* \"#utility.yul\":16366:16370   */\n      0xe0\n        /* \"#utility.yul\":16361:16364   */\n      dup6\n        /* \"#utility.yul\":16357:16371   */\n      add\n        /* \"#utility.yul\":16343:16355   */\n      dup3\n        /* \"#utility.yul\":16241:16372   */\n      tag_198\n      jump\t// in\n    tag_371:\n        /* \"#utility.yul\":16134:16382   */\n      pop\n        /* \"#utility.yul\":16476:16482   */\n      0x0100\n        /* \"#utility.yul\":16469:16474   */\n      dup3\n        /* \"#utility.yul\":16465:16483   */\n      add\n        /* \"#utility.yul\":16459:16484   */\n      mload\n        /* \"#utility.yul\":16497:16630   */\n      tag_372\n        /* \"#utility.yul\":16622:16628   */\n      0x01a0\n        /* \"#utility.yul\":16617:16620   */\n      dup6\n        /* \"#utility.yul\":16613:16629   */\n      add\n        /* \"#utility.yul\":16599:16611   */\n      dup3\n        /* \"#utility.yul\":16497:16630   */\n      tag_198\n      jump\t// in\n    tag_372:\n        /* \"#utility.yul\":16392:16640   */\n      pop\n        /* \"#utility.yul\":16727:16733   */\n      0x0120\n        /* \"#utility.yul\":16720:16725   */\n      dup3\n        /* \"#utility.yul\":16716:16734   */\n      add\n        /* \"#utility.yul\":16710:16735   */\n      mload\n        /* \"#utility.yul\":16748:16865   */\n      tag_373\n        /* \"#utility.yul\":16857:16863   */\n      0x0260\n        /* \"#utility.yul\":16852:16855   */\n      dup6\n        /* \"#utility.yul\":16848:16864   */\n      add\n        /* \"#utility.yul\":16834:16846   */\n      dup3\n        /* \"#utility.yul\":16748:16865   */\n      tag_199\n      jump\t// in\n    tag_373:\n        /* \"#utility.yul\":16650:16875   */\n      pop\n        /* \"#utility.yul\":16964:16970   */\n      0x0140\n        /* \"#utility.yul\":16957:16962   */\n      dup3\n        /* \"#utility.yul\":16953:16971   */\n      add\n        /* \"#utility.yul\":16947:16972   */\n      mload\n        /* \"#utility.yul\":16985:17050   */\n      tag_374\n        /* \"#utility.yul\":17042:17048   */\n      0x02a0\n        /* \"#utility.yul\":17037:17040   */\n      dup6\n        /* \"#utility.yul\":17033:17049   */\n      add\n        /* \"#utility.yul\":17019:17031   */\n      dup3\n        /* \"#utility.yul\":16985:17050   */\n      tag_164\n      jump\t// in\n    tag_374:\n        /* \"#utility.yul\":16885:17060   */\n      pop\n        /* \"#utility.yul\":17148:17154   */\n      0x0160\n        /* \"#utility.yul\":17141:17146   */\n      dup3\n        /* \"#utility.yul\":17137:17155   */\n      add\n        /* \"#utility.yul\":17131:17156   */\n      mload\n        /* \"#utility.yul\":17169:17234   */\n      tag_375\n        /* \"#utility.yul\":17226:17232   */\n      0x02c0\n        /* \"#utility.yul\":17221:17224   */\n      dup6\n        /* \"#utility.yul\":17217:17233   */\n      add\n        /* \"#utility.yul\":17203:17215   */\n      dup3\n        /* \"#utility.yul\":17169:17234   */\n      tag_164\n      jump\t// in\n    tag_375:\n        /* \"#utility.yul\":17070:17244   */\n      pop\n        /* \"#utility.yul\":17327:17333   */\n      0x0180\n        /* \"#utility.yul\":17320:17325   */\n      dup3\n        /* \"#utility.yul\":17316:17334   */\n      add\n        /* \"#utility.yul\":17310:17335   */\n      mload\n        /* \"#utility.yul\":17348:17413   */\n      tag_376\n        /* \"#utility.yul\":17405:17411   */\n      0x02e0\n        /* \"#utility.yul\":17400:17403   */\n      dup6\n        /* \"#utility.yul\":17396:17412   */\n      add\n        /* \"#utility.yul\":17382:17394   */\n      dup3\n        /* \"#utility.yul\":17348:17413   */\n      tag_164\n      jump\t// in\n    tag_376:\n        /* \"#utility.yul\":17254:17423   */\n      pop\n        /* \"#utility.yul\":14819:17430   */\n      pop\n        /* \"#utility.yul\":14701:17430   */\n      pop\n      pop\n      jump\t// out\n        /* \"#utility.yul\":17436:17763   */\n    tag_44:\n        /* \"#utility.yul\":17581:17585   */\n      0x00\n        /* \"#utility.yul\":17619:17622   */\n      0x0300\n        /* \"#utility.yul\":17608:17617   */\n      dup3\n        /* \"#utility.yul\":17604:17623   */\n      add\n        /* \"#utility.yul\":17596:17623   */\n      swap1\n      pop\n        /* \"#utility.yul\":17633:17756   */\n      tag_378\n        /* \"#utility.yul\":17753:17754   */\n      0x00\n        /* \"#utility.yul\":17742:17751   */\n      dup4\n        /* \"#utility.yul\":17738:17755   */\n      add\n        /* \"#utility.yul\":17729:17735   */\n      dup5\n        /* \"#utility.yul\":17633:17756   */\n      tag_200\n      jump\t// in\n    tag_378:\n        /* \"#utility.yul\":17436:17763   */\n      swap3\n      swap2\n      pop\n      pop\n      jump\t// out\n        /* \"#utility.yul\":17769:17859   */\n    tag_201:\n        /* \"#utility.yul\":17803:17810   */\n      0x00\n        /* \"#utility.yul\":17846:17851   */\n      dup2\n        /* \"#utility.yul\":17839:17852   */\n      iszero\n        /* \"#utility.yul\":17832:17853   */\n      iszero\n        /* \"#utility.yul\":17821:17853   */\n      swap1\n      pop\n        /* \"#utility.yul\":17769:17859   */\n      swap2\n      swap1\n      pop\n      jump\t// out\n        /* \"#utility.yul\":17865:17974   */\n    tag_202:\n        /* \"#utility.yul\":17946:17967   */\n      tag_381\n        /* \"#utility.yul\":17961:17966   */\n      dup2\n        /* \"#utility.yul\":17946:17967   */\n      tag_201\n      jump\t// in\n    tag_381:\n        /* \"#utility.yul\":17941:17944   */\n      dup3\n        /* \"#utility.yul\":17934:17968   */\n      mstore\n        /* \"#utility.yul\":17865:17974   */\n      pop\n      pop\n      jump\t// out\n        /* \"#utility.yul\":17980:18190   */\n    tag_52:\n        /* \"#utility.yul\":18067:18071   */\n      0x00\n        /* \"#utility.yul\":18105:18107   */\n      0x20\n        /* \"#utility.yul\":18094:18103   */\n      dup3\n        /* \"#utility.yul\":18090:18108   */\n      add\n        /* \"#utility.yul\":18082:18108   */\n      swap1\n      pop\n        /* \"#utility.yul\":18118:18183   */\n      tag_383\n        /* \"#utility.yul\":18180:18181   */\n      0x00\n        /* \"#utility.yul\":18169:18178   */\n      dup4\n        /* \"#utility.yul\":18165:18182   */\n      add\n        /* \"#utility.yul\":18156:18162   */\n      dup5\n        /* \"#utility.yul\":18118:18183   */\n      tag_202\n      jump\t// in\n    tag_383:\n        /* \"#utility.yul\":17980:18190   */\n      swap3\n      swap2\n      pop\n      pop\n      jump\t// out\n        /* \"#utility.yul\":18196:18376   */\n    tag_203:\n        /* \"#utility.yul\":18244:18321   */\n      0x4e487b7100000000000000000000000000000000000000000000000000000000\n        /* \"#utility.yul\":18241:18242   */\n      0x00\n        /* \"#utility.yul\":18234:18322   */\n      mstore\n        /* \"#utility.yul\":18341:18345   */\n      0x11\n        /* \"#utility.yul\":18338:18339   */\n      0x04\n        /* \"#utility.yul\":18331:18346   */\n      mstore\n        /* \"#utility.yul\":18365:18369   */\n      0x24\n        /* \"#utility.yul\":18362:18363   */\n      0x00\n        /* \"#utility.yul\":18355:18370   */\n      revert\n        /* \"#utility.yul\":18382:18573   */\n    tag_74:\n        /* \"#utility.yul\":18422:18425   */\n      0x00\n        /* \"#utility.yul\":18441:18461   */\n      tag_386\n        /* \"#utility.yul\":18459:18460   */\n      dup3\n        /* \"#utility.yul\":18441:18461   */\n      tag_154\n      jump\t// in\n    tag_386:\n        /* \"#utility.yul\":18436:18461   */\n      swap2\n      pop\n        /* \"#utility.yul\":18475:18495   */\n      tag_387\n        /* \"#utility.yul\":18493:18494   */\n      dup4\n        /* \"#utility.yul\":18475:18495   */\n      tag_154\n      jump\t// in\n    tag_387:\n        /* \"#utility.yul\":18470:18495   */\n      swap3\n      pop\n        /* \"#utility.yul\":18518:18519   */\n      dup3\n        /* \"#utility.yul\":18515:18516   */\n      dup3\n        /* \"#utility.yul\":18511:18520   */\n      add\n        /* \"#utility.yul\":18504:18520   */\n      swap1\n      pop\n        /* \"#utility.yul\":18539:18542   */\n      dup1\n        /* \"#utility.yul\":18536:18537   */\n      dup3\n        /* \"#utility.yul\":18533:18543   */\n      gt\n        /* \"#utility.yul\":18530:18566   */\n      iszero\n      tag_388\n      jumpi\n        /* \"#utility.yul\":18546:18564   */\n      tag_389\n      tag_203\n      jump\t// in\n    tag_389:\n        /* \"#utility.yul\":18530:18566   */\n    tag_388:\n        /* \"#utility.yul\":18382:18573   */\n      swap3\n      swap2\n      pop\n      pop\n      jump\t// out\n        /* \"#utility.yul\":18579:18722   */\n    tag_204:\n        /* \"#utility.yul\":18636:18641   */\n      0x00\n        /* \"#utility.yul\":18667:18673   */\n      dup2\n        /* \"#utility.yul\":18661:18674   */\n      mload\n        /* \"#utility.yul\":18652:18674   */\n      swap1\n      pop\n        /* \"#utility.yul\":18683:18716   */\n      tag_391\n        /* \"#utility.yul\":18710:18715   */\n      dup2\n        /* \"#utility.yul\":18683:18716   */\n      tag_178\n      jump\t// in\n    tag_391:\n        /* \"#utility.yul\":18579:18722   */\n      swap3\n      swap2\n      pop\n      pop\n      jump\t// out\n        /* \"#utility.yul\":18728:19079   */\n    tag_88:\n        /* \"#utility.yul\":18798:18804   */\n      0x00\n        /* \"#utility.yul\":18847:18849   */\n      0x20\n        /* \"#utility.yul\":18835:18844   */\n      dup3\n        /* \"#utility.yul\":18826:18833   */\n      dup5\n        /* \"#utility.yul\":18822:18845   */\n      sub\n        /* \"#utility.yul\":18818:18850   */\n      slt\n        /* \"#utility.yul\":18815:18934   */\n      iszero\n      tag_393\n      jumpi\n        /* \"#utility.yul\":18853:18932   */\n      tag_394\n      tag_169\n      jump\t// in\n    tag_394:\n        /* \"#utility.yul\":18815:18934   */\n    tag_393:\n        /* \"#utility.yul\":18973:18974   */\n      0x00\n        /* \"#utility.yul\":18998:19062   */\n      tag_395\n        /* \"#utility.yul\":19054:19061   */\n      dup5\n        /* \"#utility.yul\":19045:19051   */\n      dup3\n        /* \"#utility.yul\":19034:19043   */\n      dup6\n        /* \"#utility.yul\":19030:19052   */\n      add\n        /* \"#utility.yul\":18998:19062   */\n      tag_204\n      jump\t// in\n    tag_395:\n        /* \"#utility.yul\":18988:19062   */\n      swap2\n      pop\n        /* \"#utility.yul\":18944:19072   */\n      pop\n        /* \"#utility.yul\":18728:19079   */\n      swap3\n      swap2\n      pop\n      pop\n      jump\t// out\n        /* \"#utility.yul\":19085:19257   */\n    tag_205:\n        /* \"#utility.yul\":19225:19249   */\n      0x6d6564616c696f6e2070656e73696f6e73206f6e6c7900000000000000000000\n        /* \"#utility.yul\":19221:19222   */\n      0x00\n        /* \"#utility.yul\":19213:19219   */\n      dup3\n        /* \"#utility.yul\":19209:19223   */\n      add\n        /* \"#utility.yul\":19202:19250   */\n      mstore\n        /* \"#utility.yul\":19085:19257   */\n      pop\n      jump\t// out\n        /* \"#utility.yul\":19263:19629   */\n    tag_206:\n        /* \"#utility.yul\":19405:19408   */\n      0x00\n        /* \"#utility.yul\":19426:19493   */\n      tag_398\n        /* \"#utility.yul\":19490:19492   */\n      0x16\n        /* \"#utility.yul\":19485:19488   */\n      dup4\n        /* \"#utility.yul\":19426:19493   */\n      tag_157\n      jump\t// in\n    tag_398:\n        /* \"#utility.yul\":19419:19493   */\n      swap2\n      pop\n        /* \"#utility.yul\":19502:19595   */\n      tag_399\n        /* \"#utility.yul\":19591:19594   */\n      dup3\n        /* \"#utility.yul\":19502:19595   */\n      tag_205\n      jump\t// in\n    tag_399:\n        /* \"#utility.yul\":19620:19622   */\n      0x20\n        /* \"#utility.yul\":19615:19618   */\n      dup3\n        /* \"#utility.yul\":19611:19623   */\n      add\n        /* \"#utility.yul\":19604:19623   */\n      swap1\n      pop\n        /* \"#utility.yul\":19263:19629   */\n      swap2\n      swap1\n      pop\n      jump\t// out\n        /* \"#utility.yul\":19635:20054   */\n    tag_91:\n        /* \"#utility.yul\":19801:19805   */\n      0x00\n        /* \"#utility.yul\":19839:19841   */\n      0x20\n        /* \"#utility.yul\":19828:19837   */\n      dup3\n        /* \"#utility.yul\":19824:19842   */\n      add\n        /* \"#utility.yul\":19816:19842   */\n      swap1\n      pop\n        /* \"#utility.yul\":19888:19897   */\n      dup2\n        /* \"#utility.yul\":19882:19886   */\n      dup2\n        /* \"#utility.yul\":19878:19898   */\n      sub\n        /* \"#utility.yul\":19874:19875   */\n      0x00\n        /* \"#utility.yul\":19863:19872   */\n      dup4\n        /* \"#utility.yul\":19859:19876   */\n      add\n        /* \"#utility.yul\":19852:19899   */\n      mstore\n        /* \"#utility.yul\":19916:20047   */\n      tag_401\n        /* \"#utility.yul\":20042:20046   */\n      dup2\n        /* \"#utility.yul\":19916:20047   */\n      tag_206\n      jump\t// in\n    tag_401:\n        /* \"#utility.yul\":19908:20047   */\n      swap1\n      pop\n        /* \"#utility.yul\":19635:20054   */\n      swap2\n      swap1\n      pop\n      jump\t// out\n        /* \"#utility.yul\":20060:20231   */\n    tag_94:\n        /* \"#utility.yul\":20099:20102   */\n      0x00\n        /* \"#utility.yul\":20122:20146   */\n      tag_403\n        /* \"#utility.yul\":20140:20145   */\n      dup3\n        /* \"#utility.yul\":20122:20146   */\n      tag_154\n      jump\t// in\n    tag_403:\n        /* \"#utility.yul\":20113:20146   */\n      swap2\n      pop\n        /* \"#utility.yul\":20168:20172   */\n      0x00\n        /* \"#utility.yul\":20161:20166   */\n      dup3\n        /* \"#utility.yul\":20158:20173   */\n      sub\n        /* \"#utility.yul\":20155:20196   */\n      tag_404\n      jumpi\n        /* \"#utility.yul\":20176:20194   */\n      tag_405\n      tag_203\n      jump\t// in\n    tag_405:\n        /* \"#utility.yul\":20155:20196   */\n    tag_404:\n        /* \"#utility.yul\":20223:20224   */\n      0x01\n        /* \"#utility.yul\":20216:20221   */\n      dup3\n        /* \"#utility.yul\":20212:20225   */\n      sub\n        /* \"#utility.yul\":20205:20225   */\n      swap1\n      pop\n        /* \"#utility.yul\":20060:20231   */\n      swap2\n      swap1\n      pop\n      jump\t// out\n        /* \"#utility.yul\":20237:20408   */\n    tag_207:\n        /* \"#utility.yul\":20377:20400   */\n      0x70726f647563742070726f7669646572206f6e6c790000000000000000000000\n        /* \"#utility.yul\":20373:20374   */\n      0x00\n        /* \"#utility.yul\":20365:20371   */\n      dup3\n        /* \"#utility.yul\":20361:20375   */\n      add\n        /* \"#utility.yul\":20354:20401   */\n      mstore\n        /* \"#utility.yul\":20237:20408   */\n      pop\n      jump\t// out\n        /* \"#utility.yul\":20414:20780   */\n    tag_208:\n        /* \"#utility.yul\":20556:20559   */\n      0x00\n        /* \"#utility.yul\":20577:20644   */\n      tag_408\n        /* \"#utility.yul\":20641:20643   */\n      0x15\n        /* \"#utility.yul\":20636:20639   */\n      dup4\n        /* \"#utility.yul\":20577:20644   */\n      tag_157\n      jump\t// in\n    tag_408:\n        /* \"#utility.yul\":20570:20644   */\n      swap2\n      pop\n        /* \"#utility.yul\":20653:20746   */\n      tag_409\n        /* \"#utility.yul\":20742:20745   */\n      dup3\n        /* \"#utility.yul\":20653:20746   */\n      tag_207\n      jump\t// in\n    tag_409:\n        /* \"#utility.yul\":20771:20773   */\n      0x20\n        /* \"#utility.yul\":20766:20769   */\n      dup3\n        /* \"#utility.yul\":20762:20774   */\n      add\n        /* \"#utility.yul\":20755:20774   */\n      swap1\n      pop\n        /* \"#utility.yul\":20414:20780   */\n      swap2\n      swap1\n      pop\n      jump\t// out\n        /* \"#utility.yul\":20786:21205   */\n    tag_114:\n        /* \"#utility.yul\":20952:20956   */\n      0x00\n        /* \"#utility.yul\":20990:20992   */\n      0x20\n        /* \"#utility.yul\":20979:20988   */\n      dup3\n        /* \"#utility.yul\":20975:20993   */\n      add\n        /* \"#utility.yul\":20967:20993   */\n      swap1\n      pop\n        /* \"#utility.yul\":21039:21048   */\n      dup2\n        /* \"#utility.yul\":21033:21037   */\n      dup2\n        /* \"#utility.yul\":21029:21049   */\n      sub\n        /* \"#utility.yul\":21025:21026   */\n      0x00\n        /* \"#utility.yul\":21014:21023   */\n      dup4\n        /* \"#utility.yul\":21010:21027   */\n      add\n        /* \"#utility.yul\":21003:21050   */\n      mstore\n        /* \"#utility.yul\":21067:21198   */\n      tag_411\n        /* \"#utility.yul\":21193:21197   */\n      dup2\n        /* \"#utility.yul\":21067:21198   */\n      tag_208\n      jump\t// in\n    tag_411:\n        /* \"#utility.yul\":21059:21198   */\n      swap1\n      pop\n        /* \"#utility.yul\":20786:21205   */\n      swap2\n      swap1\n      pop\n      jump\t// out\n        /* \"#utility.yul\":21211:21390   */\n    tag_209:\n        /* \"#utility.yul\":21351:21382   */\n      0x6d6564616c696f6e207065656e73696f6e732061646d696e206f6e6c79000000\n        /* \"#utility.yul\":21347:21348   */\n      0x00\n        /* \"#utility.yul\":21339:21345   */\n      dup3\n        /* \"#utility.yul\":21335:21349   */\n      add\n        /* \"#utility.yul\":21328:21383   */\n      mstore\n        /* \"#utility.yul\":21211:21390   */\n      pop\n      jump\t// out\n        /* \"#utility.yul\":21396:21762   */\n    tag_210:\n        /* \"#utility.yul\":21538:21541   */\n      0x00\n        /* \"#utility.yul\":21559:21626   */\n      tag_414\n        /* \"#utility.yul\":21623:21625   */\n      0x1d\n        /* \"#utility.yul\":21618:21621   */\n      dup4\n        /* \"#utility.yul\":21559:21626   */\n      tag_157\n      jump\t// in\n    tag_414:\n        /* \"#utility.yul\":21552:21626   */\n      swap2\n      pop\n        /* \"#utility.yul\":21635:21728   */\n      tag_415\n        /* \"#utility.yul\":21724:21727   */\n      dup3\n        /* \"#utility.yul\":21635:21728   */\n      tag_209\n      jump\t// in\n    tag_415:\n        /* \"#utility.yul\":21753:21755   */\n      0x20\n        /* \"#utility.yul\":21748:21751   */\n      dup3\n        /* \"#utility.yul\":21744:21756   */\n      add\n        /* \"#utility.yul\":21737:21756   */\n      swap1\n      pop\n        /* \"#utility.yul\":21396:21762   */\n      swap2\n      swap1\n      pop\n      jump\t// out\n        /* \"#utility.yul\":21768:22187   */\n    tag_124:\n        /* \"#utility.yul\":21934:21938   */\n      0x00\n        /* \"#utility.yul\":21972:21974   */\n      0x20\n        /* \"#utility.yul\":21961:21970   */\n      dup3\n        /* \"#utility.yul\":21957:21975   */\n      add\n        /* \"#utility.yul\":21949:21975   */\n      swap1\n      pop\n        /* \"#utility.yul\":22021:22030   */\n      dup2\n        /* \"#utility.yul\":22015:22019   */\n      dup2\n        /* \"#utility.yul\":22011:22031   */\n      sub\n        /* \"#utility.yul\":22007:22008   */\n      0x00\n        /* \"#utility.yul\":21996:22005   */\n      dup4\n        /* \"#utility.yul\":21992:22009   */\n      add\n        /* \"#utility.yul\":21985:22032   */\n      mstore\n        /* \"#utility.yul\":22049:22180   */\n      tag_417\n        /* \"#utility.yul\":22175:22179   */\n      dup2\n        /* \"#utility.yul\":22049:22180   */\n      tag_210\n      jump\t// in\n    tag_417:\n        /* \"#utility.yul\":22041:22180   */\n      swap1\n      pop\n        /* \"#utility.yul\":21768:22187   */\n      swap2\n      swap1\n      pop\n      jump\t// out\n        /* \"#utility.yul\":22193:22426   */\n    tag_133:\n        /* \"#utility.yul\":22232:22235   */\n      0x00\n        /* \"#utility.yul\":22255:22279   */\n      tag_419\n        /* \"#utility.yul\":22273:22278   */\n      dup3\n        /* \"#utility.yul\":22255:22279   */\n      tag_154\n      jump\t// in\n    tag_419:\n        /* \"#utility.yul\":22246:22279   */\n      swap2\n      pop\n        /* \"#utility.yul\":22301:22367   */\n      0xffffffffffffffffffffffffffffffffffffffffffffffffffffffffffffffff\n        /* \"#utility.yul\":22294:22299   */\n      dup3\n        /* \"#utility.yul\":22291:22368   */\n      sub\n        /* \"#utility.yul\":22288:22391   */\n      tag_420\n      jumpi\n        /* \"#utility.yul\":22371:22389   */\n      tag_421\n      tag_203\n      jump\t// in\n    tag_421:\n        /* \"#utility.yul\":22288:22391   */\n    tag_420:\n        /* \"#utility.yul\":22418:22419   */\n      0x01\n        /* \"#utility.yul\":22411:22416   */\n      dup3\n        /* \"#utility.yul\":22407:22420   */\n      add\n        /* \"#utility.yul\":22400:22420   */\n      swap1\n      pop\n        /* \"#utility.yul\":22193:22426   */\n      swap2\n      swap1\n      pop\n      jump\t// out\n        /* \"#utility.yul\":22432:22548   */\n    tag_211:\n        /* \"#utility.yul\":22515:22517   */\n      0x0a\n        /* \"#utility.yul\":22508:22513   */\n      dup2\n        /* \"#utility.yul\":22505:22518   */\n      lt\n        /* \"#utility.yul\":22495:22542   */\n      tag_423\n      jumpi\n        /* \"#utility.yul\":22522:22540   */\n      tag_424\n      tag_72\n      jump\t// in\n    tag_424:\n        /* \"#utility.yul\":22495:22542   */\n    tag_423:\n        /* \"#utility.yul\":22432:22548   */\n      pop\n      jump\t// out\n        /* \"#utility.yul\":22554:22685   */\n    tag_212:\n        /* \"#utility.yul\":22601:22608   */\n      0x00\n        /* \"#utility.yul\":22630:22635   */\n      dup2\n        /* \"#utility.yul\":22619:22635   */\n      swap1\n      pop\n        /* \"#utility.yul\":22636:22679   */\n      tag_426\n        /* \"#utility.yul\":22673:22678   */\n      dup3\n        /* \"#utility.yul\":22636:22679   */\n      tag_211\n      jump\t// in\n    tag_426:\n        /* \"#utility.yul\":22554:22685   */\n      swap2\n      swap1\n      pop\n      jump\t// out\n        /* \"#utility.yul\":22691:22822   */\n    tag_213:\n        /* \"#utility.yul\":22749:22758   */\n      0x00\n        /* \"#utility.yul\":22782:22816   */\n      tag_428\n        /* \"#utility.yul\":22810:22815   */\n      dup3\n        /* \"#utility.yul\":22782:22816   */\n      tag_212\n      jump\t// in\n    tag_428:\n        /* \"#utility.yul\":22769:22816   */\n      swap1\n      pop\n        /* \"#utility.yul\":22691:22822   */\n      swap2\n      swap1\n      pop\n      jump\t// out\n        /* \"#utility.yul\":22828:22975   */\n    tag_214:\n        /* \"#utility.yul\":22923:22968   */\n      tag_430\n        /* \"#utility.yul\":22962:22967   */\n      dup2\n        /* \"#utility.yul\":22923:22968   */\n      tag_213\n      jump\t// in\n    tag_430:\n        /* \"#utility.yul\":22918:22921   */\n      dup3\n        /* \"#utility.yul\":22911:22969   */\n      mstore\n        /* \"#utility.yul\":22828:22975   */\n      pop\n      pop\n      jump\t// out\n        /* \"#utility.yul\":22981:23097   */\n    tag_215:\n        /* \"#utility.yul\":23065:23066   */\n      0x06\n        /* \"#utility.yul\":23058:23063   */\n      dup2\n        /* \"#utility.yul\":23055:23067   */\n      lt\n        /* \"#utility.yul\":23045:23091   */\n      tag_432\n      jumpi\n        /* \"#utility.yul\":23071:23089   */\n      tag_433\n      tag_72\n      jump\t// in\n    tag_433:\n        /* \"#utility.yul\":23045:23091   */\n    tag_432:\n        /* \"#utility.yul\":22981:23097   */\n      pop\n      jump\t// out\n        /* \"#utility.yul\":23103:23236   */\n    tag_216:\n        /* \"#utility.yul\":23151:23158   */\n      0x00\n        /* \"#utility.yul\":23180:23185   */\n      dup2\n        /* \"#utility.yul\":23169:23185   */\n      swap1\n      pop\n        /* \"#utility.yul\":23186:23230   */\n      tag_435\n        /* \"#utility.yul\":23224:23229   */\n      dup3\n        /* \"#utility.yul\":23186:23230   */\n      tag_215\n      jump\t// in\n    tag_435:\n        /* \"#utility.yul\":23103:23236   */\n      swap2\n      swap1\n      pop\n      jump\t// out\n        /* \"#utility.yul\":23242:23375   */\n    tag_217:\n        /* \"#utility.yul\":23301:23310   */\n      0x00\n        /* \"#utility.yul\":23334:23369   */\n      tag_437\n        /* \"#utility.yul\":23363:23368   */\n      dup3\n        /* \"#utility.yul\":23334:23369   */\n      tag_216\n      jump\t// in\n    tag_437:\n        /* \"#utility.yul\":23321:23369   */\n      swap1\n      pop\n        /* \"#utility.yul\":23242:23375   */\n      swap2\n      swap1\n      pop\n      jump\t// out\n        /* \"#utility.yul\":23381:23530   */\n    tag_218:\n        /* \"#utility.yul\":23477:23523   */\n      tag_439\n        /* \"#utility.yul\":23517:23522   */\n      dup2\n        /* \"#utility.yul\":23477:23523   */\n      tag_217\n      jump\t// in\n    tag_439:\n        /* \"#utility.yul\":23472:23475   */\n      dup3\n        /* \"#utility.yul\":23465:23524   */\n      mstore\n        /* \"#utility.yul\":23381:23530   */\n      pop\n      pop\n      jump\t// out\n        /* \"#utility.yul\":23536:23654   */\n    tag_219:\n        /* \"#utility.yul\":23623:23647   */\n      tag_441\n        /* \"#utility.yul\":23641:23646   */\n      dup2\n        /* \"#utility.yul\":23623:23647   */\n      tag_177\n      jump\t// in\n    tag_441:\n        /* \"#utility.yul\":23618:23621   */\n      dup3\n        /* \"#utility.yul\":23611:23648   */\n      mstore\n        /* \"#utility.yul\":23536:23654   */\n      pop\n      pop\n      jump\t// out\n        /* \"#utility.yul\":23660:24469   */\n    tag_140:\n        /* \"#utility.yul\":23910:23914   */\n      0x00\n        /* \"#utility.yul\":23948:23951   */\n      0xc0\n        /* \"#utility.yul\":23937:23946   */\n      dup3\n        /* \"#utility.yul\":23933:23952   */\n      add\n        /* \"#utility.yul\":23925:23952   */\n      swap1\n      pop\n        /* \"#utility.yul\":23962:24041   */\n      tag_443\n        /* \"#utility.yul\":24038:24039   */\n      0x00\n        /* \"#utility.yul\":24027:24036   */\n      dup4\n        /* \"#utility.yul\":24023:24040   */\n      add\n        /* \"#utility.yul\":24014:24020   */\n      dup10\n        /* \"#utility.yul\":23962:24041   */\n      tag_214\n      jump\t// in\n    tag_443:\n        /* \"#utility.yul\":24051:24132   */\n      tag_444\n        /* \"#utility.yul\":24128:24130   */\n      0x20\n        /* \"#utility.yul\":24117:24126   */\n      dup4\n        /* \"#utility.yul\":24113:24131   */\n      add\n        /* \"#utility.yul\":24104:24110   */\n      dup9\n        /* \"#utility.yul\":24051:24132   */\n      tag_218\n      jump\t// in\n    tag_444:\n        /* \"#utility.yul\":24142:24214   */\n      tag_445\n        /* \"#utility.yul\":24210:24212   */\n      0x40\n        /* \"#utility.yul\":24199:24208   */\n      dup4\n        /* \"#utility.yul\":24195:24213   */\n      add\n        /* \"#utility.yul\":24186:24192   */\n      dup8\n        /* \"#utility.yul\":24142:24214   */\n      tag_155\n      jump\t// in\n    tag_445:\n        /* \"#utility.yul\":24224:24296   */\n      tag_446\n        /* \"#utility.yul\":24292:24294   */\n      0x60\n        /* \"#utility.yul\":24281:24290   */\n      dup4\n        /* \"#utility.yul\":24277:24295   */\n      add\n        /* \"#utility.yul\":24268:24274   */\n      dup7\n        /* \"#utility.yul\":24224:24296   */\n      tag_219\n      jump\t// in\n    tag_446:\n        /* \"#utility.yul\":24306:24379   */\n      tag_447\n        /* \"#utility.yul\":24374:24377   */\n      0x80\n        /* \"#utility.yul\":24363:24372   */\n      dup4\n        /* \"#utility.yul\":24359:24378   */\n      add\n        /* \"#utility.yul\":24350:24356   */\n      dup6\n        /* \"#utility.yul\":24306:24379   */\n      tag_155\n      jump\t// in\n    tag_447:\n        /* \"#utility.yul\":24389:24462   */\n      tag_448\n        /* \"#utility.yul\":24457:24460   */\n      0xa0\n        /* \"#utility.yul\":24446:24455   */\n      dup4\n        /* \"#utility.yul\":24442:24461   */\n      add\n        /* \"#utility.yul\":24433:24439   */\n      dup5\n        /* \"#utility.yul\":24389:24462   */\n      tag_219\n      jump\t// in\n    tag_448:\n        /* \"#utility.yul\":23660:24469   */\n      swap8\n      swap7\n      pop\n      pop\n      pop\n      pop\n      pop\n      pop\n      pop\n      jump\t// out\n        /* \"#utility.yul\":24475:24618   */\n    tag_220:\n        /* \"#utility.yul\":24532:24537   */\n      0x00\n        /* \"#utility.yul\":24563:24569   */\n      dup2\n        /* \"#utility.yul\":24557:24570   */\n      mload\n        /* \"#utility.yul\":24548:24570   */\n      swap1\n      pop\n        /* \"#utility.yul\":24579:24612   */\n      tag_450\n        /* \"#utility.yul\":24606:24611   */\n      dup2\n        /* \"#utility.yul\":24579:24612   */\n      tag_182\n      jump\t// in\n    tag_450:\n        /* \"#utility.yul\":24475:24618   */\n      swap3\n      swap2\n      pop\n      pop\n      jump\t// out\n        /* \"#utility.yul\":24624:24975   */\n    tag_144:\n        /* \"#utility.yul\":24694:24700   */\n      0x00\n        /* \"#utility.yul\":24743:24745   */\n      0x20\n        /* \"#utility.yul\":24731:24740   */\n      dup3\n        /* \"#utility.yul\":24722:24729   */\n      dup5\n        /* \"#utility.yul\":24718:24741   */\n      sub\n        /* \"#utility.yul\":24714:24746   */\n      slt\n        /* \"#utility.yul\":24711:24830   */\n      iszero\n      tag_452\n      jumpi\n        /* \"#utility.yul\":24749:24828   */\n      tag_453\n      tag_169\n      jump\t// in\n    tag_453:\n        /* \"#utility.yul\":24711:24830   */\n    tag_452:\n        /* \"#utility.yul\":24869:24870   */\n      0x00\n        /* \"#utility.yul\":24894:24958   */\n      tag_454\n        /* \"#utility.yul\":24950:24957   */\n      dup5\n        /* \"#utility.yul\":24941:24947   */\n      dup3\n        /* \"#utility.yul\":24930:24939   */\n      dup6\n        /* \"#utility.yul\":24926:24948   */\n      add\n        /* \"#utility.yul\":24894:24958   */\n      tag_220\n      jump\t// in\n    tag_454:\n        /* \"#utility.yul\":24884:24958   */\n      swap2\n      pop\n        /* \"#utility.yul\":24840:24968   */\n      pop\n        /* \"#utility.yul\":24624:24975   */\n      swap3\n      swap2\n      pop\n      pop\n      jump\t// out\n\n    auxdata: 0xa26469706673582212209e17997c63cae785d311efd00be39ec91ec799bb49a06b13c5103eb8150c68f964736f6c634300081e0033\n}\n",
				"bytecode": {
					"linkReferences": {},
					"object": "60a060405234801561000f575f5ffd5b506040516120b73803806120b78339818101604052810190610031919061026c565b805f5f6101000a81548173ffffffffffffffffffffffffffffffffffffffff021916908373ffffffffffffffffffffffffffffffffffffffff1602179055505f5f9054906101000a900473ffffffffffffffffffffffffffffffffffffffff1673ffffffffffffffffffffffffffffffffffffffff1663e1311ec66040518060400160405280601681526020017f52455345525645445f4d505f54585f4d414e41474552000000000000000000008152506040518263ffffffff1660e01b81526004016100fe9190610307565b602060405180830381865afa158015610119573d5f5f3e3d5ffd5b505050506040513d601f19601f8201168201806040525081019061013d919061035c565b6040518060400160405280601681526020017f52455345525645445f4d505f54585f4d414e414745520000000000000000000081525060405160200161018391906103e7565b604051602081830303815290604052906101d3576040517f08c379a00000000000000000000000000000000000000000000000000000000081526004016101ca9190610307565b60405180910390fd5b503073ffffffffffffffffffffffffffffffffffffffff1660808173ffffffffffffffffffffffffffffffffffffffff16815250505061040c565b5f5ffd5b5f73ffffffffffffffffffffffffffffffffffffffff82169050919050565b5f61023b82610212565b9050919050565b61024b81610231565b8114610255575f5ffd5b50565b5f8151905061026681610242565b92915050565b5f602082840312156102815761028061020e565b5b5f61028e84828501610258565b91505092915050565b5f81519050919050565b5f82825260208201905092915050565b8281835e5f83830152505050565b5f601f19601f8301169050919050565b5f6102d982610297565b6102e381856102a1565b93506102f38185602086016102b1565b6102fc816102bf565b840191505092915050565b5f6020820190508181035f83015261031f81846102cf565b905092915050565b5f8115159050919050565b61033b81610327565b8114610345575f5ffd5b50565b5f8151905061035681610332565b92915050565b5f602082840312156103715761037061020e565b5b5f61037e84828501610348565b91505092915050565b7f6d697373696e6720616464726573732000000000000000000000000000000000815250565b5f81905092915050565b5f6103c182610297565b6103cb81856103ad565b93506103db8185602086016102b1565b80840191505092915050565b5f6103f182610387565b60108201915061040182846103b7565b915081905092915050565b608051611c936104245f395f610f3e0152611c935ff3fe608060405234801561000f575f5ffd5b506004361061009c575f3560e01c80638d808bcf116100645780638d808bcf14610149578063b9db15b414610179578063ca3f51ce146101a9578063cde4c10c146101d9578063e67d1d10146101f75761009c565b80630d8e6e2c146100a057806317d7de7c146100be5780631af9c722146100dc5780634157a0f1146100fa57806347b714a614610118575b5f5ffd5b6100a8610227565b6040516100b591906110eb565b60405180910390f35b6100c661022f565b6040516100d39190611174565b60405180910390f35b6100e461026c565b6040516100f1919061124b565b60405180910390f35b6101026102fd565b60405161010f919061124b565b60405180910390f35b610132600480360381019061012d919061159d565b610353565b6040516101409291906115c9565b60405180910390f35b610163600480360381019061015e91906115f0565b6106fa565b60405161017091906110eb565b60405180910390f35b610193600480360381019061018e91906115f0565b610874565b6040516101a09190611892565b60405180910390f35b6101c360048036038101906101be91906115f0565b610aee565b6040516101d091906110eb565b60405180910390f35b6101e1610bc1565b6040516101ee91906118c6565b60405180910390f35b610211600480360381019061020c91906115f0565b610e0e565b60405161021e91906118c6565b60405180910390f35b5f6002905090565b60606040518060400160405280601b81526020017f52455345525645445f4d505f50524f445543545f4d414e414745520000000000815250905090565b606060055f3373ffffffffffffffffffffffffffffffffffffffff1673ffffffffffffffffffffffffffffffffffffffff1681526020019081526020015f208054806020026020016040519081016040528092919081815260200182805480156102f357602002820191905f5260205f20905b8154815260200190600101908083116102df575b5050505050905090565b6060600280548060200260200160405190810160405280929190818152602001828054801561034957602002820191905f5260205f20905b815481526020019060010190808311610335575b5050505050905090565b5f5f61035d610e34565b9150600282908060018154018082558091505060019003905f5260205f20015f909190919091505560055f3373ffffffffffffffffffffffffffffffffffffffff1673ffffffffffffffffffffffffffffffffffffffff1681526020019081526020015f2082908060018154018082558091505060019003905f5260205f20015f9091909190915055600160035f8481526020019081526020015f205f6101000a81548160ff021916908315150217905550604051806101a001604052808381526020013373ffffffffffffffffffffffffffffffffffffffff168152602001845f015173ffffffffffffffffffffffffffffffffffffffff168152602001846040015181526020018460600151815260200184608001518152602001846020015160028111156104915761049061162a565b5b81526020018460a0015181526020018460c0015181526020018460e001518152602001428152602001846101000151426104cb919061190c565b815260200184610120015181525060045f8481526020019081526020015f205f820151815f01556020820151816001015f6101000a81548173ffffffffffffffffffffffffffffffffffffffff021916908373ffffffffffffffffffffffffffffffffffffffff1602179055506040820151816002015f6101000a81548173ffffffffffffffffffffffffffffffffffffffff021916908373ffffffffffffffffffffffffffffffffffffffff160217905550606082015181600301556080820151816004015560a0820151816005015560c0820151816006015f6101000a81548160ff021916908360028111156105c6576105c561162a565b5b021790555060e0820151816007015f820151815f015f6101000a81548160ff021916908360038111156105fc576105fb61162a565b5b02179055506020820151816001015560408201518160020155606082015181600301556080820151816004015560a08201518160050155505061010082015181600d015f820151815f015f6101000a81548160ff021916908360038111156106675761066661162a565b5b02179055506020820151816001015560408201518160020155606082015181600301556080820151816004015560a082015181600501555050610120820151816013015f820151815f01556020820151816001015550506101408201518160150155610160820151816016015561018082015181601701559050506106f35f6005845f875f0151610e50565b9050915091565b5f5f5f9054906101000a900473ffffffffffffffffffffffffffffffffffffffff1673ffffffffffffffffffffffffffffffffffffffff1663bf40fac16040518060400160405280602081526020017f52455345525645445f4d4544414c4c494f4e5f50454e53494f4e535f434f52458152506040518263ffffffff1660e01b81526004016107899190611174565b602060405180830381865afa1580156107a4573d5f5f3e3d5ffd5b505050506040513d601f19601f820116820180604052508101906107c89190611953565b73ffffffffffffffffffffffffffffffffffffffff163373ffffffffffffffffffffffffffffffffffffffff1614610835576040517f08c379a000000000000000000000000000000000000000000000000000000000815260040161082c906119c8565b60405180910390fd5b60045f8381526020019081526020015f206017015f815480929190610859906119e6565b919050555061086d60096005845f5f610e50565b9050919050565b61087c610fcb565b60045f8381526020019081526020015f20604051806101a00160405290815f8201548152602001600182015f9054906101000a900473ffffffffffffffffffffffffffffffffffffffff1673ffffffffffffffffffffffffffffffffffffffff1673ffffffffffffffffffffffffffffffffffffffff168152602001600282015f9054906101000a900473ffffffffffffffffffffffffffffffffffffffff1673ffffffffffffffffffffffffffffffffffffffff1673ffffffffffffffffffffffffffffffffffffffff168152602001600382015481526020016004820154815260200160058201548152602001600682015f9054906101000a900460ff16600281111561098e5761098d61162a565b5b60028111156109a05761099f61162a565b5b8152602001600782016040518060c00160405290815f82015f9054906101000a900460ff1660038111156109d7576109d661162a565b5b60038111156109e9576109e861162a565b5b8152602001600182015481526020016002820154815260200160038201548152602001600482015481526020016005820154815250508152602001600d82016040518060c00160405290815f82015f9054906101000a900460ff166003811115610a5657610a5561162a565b5b6003811115610a6857610a6761162a565b5b8152602001600182015481526020016002820154815260200160038201548152602001600482015481526020016005820154815250508152602001601382016040518060400160405290815f8201548152602001600182015481525050815260200160158201548152602001601682015481526020016017820154815250509050919050565b5f813373ffffffffffffffffffffffffffffffffffffffff1660045f8381526020019081526020015f206001015f9054906101000a900473ffffffffffffffffffffffffffffffffffffffff1673ffffffffffffffffffffffffffffffffffffffff1614610b91576040517f08c379a0000000000000000000000000000000000000000000000000000000008152600401610b8890611a57565b60405180910390fd5b4260045f8581526020019081526020015f2060160181905550610bb960086005855f5f610e50565b915050919050565b5f5f5f9054906101000a900473ffffffffffffffffffffffffffffffffffffffff1673ffffffffffffffffffffffffffffffffffffffff1663bf40fac16040518060400160405280601181526020017f52455345525645445f4d505f41444d494e0000000000000000000000000000008152506040518263ffffffff1660e01b8152600401610c509190611174565b602060405180830381865afa158015610c6b573d5f5f3e3d5ffd5b505050506040513d601f19601f82011682018060405250810190610c8f9190611953565b73ffffffffffffffffffffffffffffffffffffffff163373ffffffffffffffffffffffffffffffffffffffff1614610cfc576040517f08c379a0000000000000000000000000000000000000000000000000000000008152600401610cf390611abf565b60405180910390fd5b5f5f9054906101000a900473ffffffffffffffffffffffffffffffffffffffff1673ffffffffffffffffffffffffffffffffffffffff1663bf40fac16040518060400160405280601481526020017f52455345525645445f4d505f52454749535445520000000000000000000000008152506040518263ffffffff1660e01b8152600401610d8a9190611174565b602060405180830381865afa158015610da5573d5f5f3e3d5ffd5b505050506040513d601f19601f82011682018060405250810190610dc99190611953565b5f5f6101000a81548173ffffffffffffffffffffffffffffffffffffffff021916908373ffffffffffffffffffffffffffffffffffffffff1602179055506001905090565b5f60035f8381526020019081526020015f205f9054906101000a900460ff169050919050565b5f60015f815480929190610e4790611add565b91905055905090565b5f5f5f9054906101000a900473ffffffffffffffffffffffffffffffffffffffff1673ffffffffffffffffffffffffffffffffffffffff1663bf40fac16040518060400160405280601681526020017f52455345525645445f4d505f54585f4d414e41474552000000000000000000008152506040518263ffffffff1660e01b8152600401610edf9190611174565b602060405180830381865afa158015610efa573d5f5f3e3d5ffd5b505050506040513d601f19601f82011682018060405250810190610f1e9190611953565b73ffffffffffffffffffffffffffffffffffffffff1663ee16e6398787877f000000000000000000000000000000000000000000000000000000000000000088886040518763ffffffff1660e01b8152600401610f8096959493929190611bbf565b6020604051808303815f875af1158015610f9c573d5f5f3e3d5ffd5b505050506040513d601f19601f82011682018060405250810190610fc09190611c32565b905095945050505050565b604051806101a001604052805f81526020015f73ffffffffffffffffffffffffffffffffffffffff1681526020015f73ffffffffffffffffffffffffffffffffffffffff1681526020015f81526020015f81526020015f81526020015f600281111561103a5761103961162a565b5b8152602001611047611079565b8152602001611054611079565b81526020016110616110bb565b81526020015f81526020015f81526020015f81525090565b6040518060c001604052805f60038111156110975761109661162a565b5b81526020015f81526020015f81526020015f81526020015f81526020015f81525090565b60405180604001604052805f81526020015f81525090565b5f819050919050565b6110e5816110d3565b82525050565b5f6020820190506110fe5f8301846110dc565b92915050565b5f81519050919050565b5f82825260208201905092915050565b8281835e5f83830152505050565b5f601f19601f8301169050919050565b5f61114682611104565b611150818561110e565b935061116081856020860161111e565b6111698161112c565b840191505092915050565b5f6020820190508181035f83015261118c818461113c565b905092915050565b5f81519050919050565b5f82825260208201905092915050565b5f819050602082019050919050565b6111c6816110d3565b82525050565b5f6111d783836111bd565b60208301905092915050565b5f602082019050919050565b5f6111f982611194565b611203818561119e565b935061120e836111ae565b805f5b8381101561123e57815161122588826111cc565b9750611230836111e3565b925050600181019050611211565b5085935050505092915050565b5f6020820190508181035f83015261126381846111ef565b905092915050565b5f604051905090565b5f5ffd5b5f5ffd5b7f4e487b71000000000000000000000000000000000000000000000000000000005f52604160045260245ffd5b6112b28261112c565b810181811067ffffffffffffffff821117156112d1576112d061127c565b5b80604052505050565b5f6112e361126b565b90506112ef82826112a9565b919050565b5f73ffffffffffffffffffffffffffffffffffffffff82169050919050565b5f61131d826112f4565b9050919050565b61132d81611313565b8114611337575f5ffd5b50565b5f8135905061134881611324565b92915050565b6003811061135a575f5ffd5b50565b5f8135905061136b8161134e565b92915050565b61137a816110d3565b8114611384575f5ffd5b50565b5f8135905061139581611371565b92915050565b600481106113a7575f5ffd5b50565b5f813590506113b88161139b565b92915050565b5f60c082840312156113d3576113d2611278565b5b6113dd60c06112da565b90505f6113ec848285016113aa565b5f8301525060206113ff84828501611387565b602083015250604061141384828501611387565b604083015250606061142784828501611387565b606083015250608061143b84828501611387565b60808301525060a061144f84828501611387565b60a08301525092915050565b5f604082840312156114705761146f611278565b5b61147a60406112da565b90505f61148984828501611387565b5f83015250602061149c84828501611387565b60208301525092915050565b5f6102a082840312156114be576114bd611278565b5b6114c96101406112da565b90505f6114d88482850161133a565b5f8301525060206114eb8482850161135d565b60208301525060406114ff84828501611387565b604083015250606061151384828501611387565b606083015250608061152784828501611387565b60808301525060a061153b848285016113be565b60a083015250610160611550848285016113be565b60c0830152506102206115658482850161145b565b60e08301525061026061157a84828501611387565b6101008301525061028061159084828501611387565b6101208301525092915050565b5f6102a082840312156115b3576115b2611274565b5b5f6115c0848285016114a8565b91505092915050565b5f6040820190506115dc5f8301856110dc565b6115e960208301846110dc565b9392505050565b5f6020828403121561160557611604611274565b5b5f61161284828501611387565b91505092915050565b61162481611313565b82525050565b7f4e487b71000000000000000000000000000000000000000000000000000000005f52602160045260245ffd5b600381106116685761166761162a565b5b50565b5f81905061167882611657565b919050565b5f6116878261166b565b9050919050565b6116978161167d565b82525050565b600481106116ae576116ad61162a565b5b50565b5f8190506116be8261169d565b919050565b5f6116cd826116b1565b9050919050565b6116dd816116c3565b82525050565b60c082015f8201516116f75f8501826116d4565b50602082015161170a60208501826111bd565b50604082015161171d60408501826111bd565b50606082015161173060608501826111bd565b50608082015161174360808501826111bd565b5060a082015161175660a08501826111bd565b50505050565b604082015f8201516117705f8501826111bd565b50602082015161178360208501826111bd565b50505050565b61030082015f82015161179e5f8501826111bd565b5060208201516117b1602085018261161b565b5060408201516117c4604085018261161b565b5060608201516117d760608501826111bd565b5060808201516117ea60808501826111bd565b5060a08201516117fd60a08501826111bd565b5060c082015161181060c085018261168e565b5060e082015161182360e08501826116e3565b506101008201516118386101a08501826116e3565b5061012082015161184d61026085018261175c565b506101408201516118626102a08501826111bd565b506101608201516118776102c08501826111bd565b5061018082015161188c6102e08501826111bd565b50505050565b5f610300820190506118a65f830184611789565b92915050565b5f8115159050919050565b6118c0816118ac565b82525050565b5f6020820190506118d95f8301846118b7565b92915050565b7f4e487b71000000000000000000000000000000000000000000000000000000005f52601160045260245ffd5b5f611916826110d3565b9150611921836110d3565b9250828201905080821115611939576119386118df565b5b92915050565b5f8151905061194d81611324565b92915050565b5f6020828403121561196857611967611274565b5b5f6119758482850161193f565b91505092915050565b7f6d6564616c696f6e2070656e73696f6e73206f6e6c79000000000000000000005f82015250565b5f6119b260168361110e565b91506119bd8261197e565b602082019050919050565b5f6020820190508181035f8301526119df816119a6565b9050919050565b5f6119f0826110d3565b91505f8203611a0257611a016118df565b5b600182039050919050565b7f70726f647563742070726f7669646572206f6e6c7900000000000000000000005f82015250565b5f611a4160158361110e565b9150611a4c82611a0d565b602082019050919050565b5f6020820190508181035f830152611a6e81611a35565b9050919050565b7f6d6564616c696f6e207065656e73696f6e732061646d696e206f6e6c790000005f82015250565b5f611aa9601d8361110e565b9150611ab482611a75565b602082019050919050565b5f6020820190508181035f830152611ad681611a9d565b9050919050565b5f611ae7826110d3565b91507fffffffffffffffffffffffffffffffffffffffffffffffffffffffffffffffff8203611b1957611b186118df565b5b600182019050919050565b600a8110611b3557611b3461162a565b5b50565b5f819050611b4582611b24565b919050565b5f611b5482611b38565b9050919050565b611b6481611b4a565b82525050565b60068110611b7b57611b7a61162a565b5b50565b5f819050611b8b82611b6a565b919050565b5f611b9a82611b7e565b9050919050565b611baa81611b90565b82525050565b611bb981611313565b82525050565b5f60c082019050611bd25f830189611b5b565b611bdf6020830188611ba1565b611bec60408301876110dc565b611bf96060830186611bb0565b611c0660808301856110dc565b611c1360a0830184611bb0565b979650505050505050565b5f81519050611c2c81611371565b92915050565b5f60208284031215611c4757611c46611274565b5b5f611c5484828501611c1e565b9150509291505056fea26469706673582212209e17997c63cae785d311efd00be39ec91ec799bb49a06b13c5103eb8150c68f964736f6c634300081e0033",
					"opcodes": "PUSH1 0xA0 PUSH1 0x40 MSTORE CALLVALUE DUP1 ISZERO PUSH2 0xF JUMPI PUSH0 PUSH0 REVERT JUMPDEST POP PUSH1 0x40 MLOAD PUSH2 0x20B7 CODESIZE SUB DUP1 PUSH2 0x20B7 DUP4 CODECOPY DUP2 DUP2 ADD PUSH1 0x40 MSTORE DUP2 ADD SWAP1 PUSH2 0x31 SWAP2 SWAP1 PUSH2 0x26C JUMP JUMPDEST DUP1 PUSH0 PUSH0 PUSH2 0x100 EXP DUP2 SLOAD DUP2 PUSH20 0xFFFFFFFFFFFFFFFFFFFFFFFFFFFFFFFFFFFFFFFF MUL NOT AND SWAP1 DUP4 PUSH20 0xFFFFFFFFFFFFFFFFFFFFFFFFFFFFFFFFFFFFFFFF AND MUL OR SWAP1 SSTORE POP PUSH0 PUSH0 SWAP1 SLOAD SWAP1 PUSH2 0x100 EXP SWAP1 DIV PUSH20 0xFFFFFFFFFFFFFFFFFFFFFFFFFFFFFFFFFFFFFFFF AND PUSH20 0xFFFFFFFFFFFFFFFFFFFFFFFFFFFFFFFFFFFFFFFF AND PUSH4 0xE1311EC6 PUSH1 0x40 MLOAD DUP1 PUSH1 0x40 ADD PUSH1 0x40 MSTORE DUP1 PUSH1 0x16 DUP2 MSTORE PUSH1 0x20 ADD PUSH32 0x52455345525645445F4D505F54585F4D414E4147455200000000000000000000 DUP2 MSTORE POP PUSH1 0x40 MLOAD DUP3 PUSH4 0xFFFFFFFF AND PUSH1 0xE0 SHL DUP2 MSTORE PUSH1 0x4 ADD PUSH2 0xFE SWAP2 SWAP1 PUSH2 0x307 JUMP JUMPDEST PUSH1 0x20 PUSH1 0x40 MLOAD DUP1 DUP4 SUB DUP2 DUP7 GAS STATICCALL ISZERO DUP1 ISZERO PUSH2 0x119 JUMPI RETURNDATASIZE PUSH0 PUSH0 RETURNDATACOPY RETURNDATASIZE PUSH0 REVERT JUMPDEST POP POP POP POP PUSH1 0x40 MLOAD RETURNDATASIZE PUSH1 0x1F NOT PUSH1 0x1F DUP3 ADD AND DUP3 ADD DUP1 PUSH1 0x40 MSTORE POP DUP2 ADD SWAP1 PUSH2 0x13D SWAP2 SWAP1 PUSH2 0x35C JUMP JUMPDEST PUSH1 0x40 MLOAD DUP1 PUSH1 0x40 ADD PUSH1 0x40 MSTORE DUP1 PUSH1 0x16 DUP2 MSTORE PUSH1 0x20 ADD PUSH32 0x52455345525645445F4D505F54585F4D414E4147455200000000000000000000 DUP2 MSTORE POP PUSH1 0x40 MLOAD PUSH1 0x20 ADD PUSH2 0x183 SWAP2 SWAP1 PUSH2 0x3E7 JUMP JUMPDEST PUSH1 0x40 MLOAD PUSH1 0x20 DUP2 DUP4 SUB SUB DUP2 MSTORE SWAP1 PUSH1 0x40 MSTORE SWAP1 PUSH2 0x1D3 JUMPI PUSH1 0x40 MLOAD PUSH32 0x8C379A000000000000000000000000000000000000000000000000000000000 DUP2 MSTORE PUSH1 0x4 ADD PUSH2 0x1CA SWAP2 SWAP1 PUSH2 0x307 JUMP JUMPDEST PUSH1 0x40 MLOAD DUP1 SWAP2 SUB SWAP1 REVERT JUMPDEST POP ADDRESS PUSH20 0xFFFFFFFFFFFFFFFFFFFFFFFFFFFFFFFFFFFFFFFF AND PUSH1 0x80 DUP2 PUSH20 0xFFFFFFFFFFFFFFFFFFFFFFFFFFFFFFFFFFFFFFFF AND DUP2 MSTORE POP POP POP PUSH2 0x40C JUMP JUMPDEST PUSH0 PUSH0 REVERT JUMPDEST PUSH0 PUSH20 0xFFFFFFFFFFFFFFFFFFFFFFFFFFFFFFFFFFFFFFFF DUP3 AND SWAP1 POP SWAP2 SWAP1 POP JUMP JUMPDEST PUSH0 PUSH2 0x23B DUP3 PUSH2 0x212 JUMP JUMPDEST SWAP1 POP SWAP2 SWAP1 POP JUMP JUMPDEST PUSH2 0x24B DUP2 PUSH2 0x231 JUMP JUMPDEST DUP2 EQ PUSH2 0x255 JUMPI PUSH0 PUSH0 REVERT JUMPDEST POP JUMP JUMPDEST PUSH0 DUP2 MLOAD SWAP1 POP PUSH2 0x266 DUP2 PUSH2 0x242 JUMP JUMPDEST SWAP3 SWAP2 POP POP JUMP JUMPDEST PUSH0 PUSH1 0x20 DUP3 DUP5 SUB SLT ISZERO PUSH2 0x281 JUMPI PUSH2 0x280 PUSH2 0x20E JUMP JUMPDEST JUMPDEST PUSH0 PUSH2 0x28E DUP5 DUP3 DUP6 ADD PUSH2 0x258 JUMP JUMPDEST SWAP2 POP POP SWAP3 SWAP2 POP POP JUMP JUMPDEST PUSH0 DUP2 MLOAD SWAP1 POP SWAP2 SWAP1 POP JUMP JUMPDEST PUSH0 DUP3 DUP3 MSTORE PUSH1 0x20 DUP3 ADD SWAP1 POP SWAP3 SWAP2 POP POP JUMP JUMPDEST DUP3 DUP2 DUP4 MCOPY PUSH0 DUP4 DUP4 ADD MSTORE POP POP POP JUMP JUMPDEST PUSH0 PUSH1 0x1F NOT PUSH1 0x1F DUP4 ADD AND SWAP1 POP SWAP2 SWAP1 POP JUMP JUMPDEST PUSH0 PUSH2 0x2D9 DUP3 PUSH2 0x297 JUMP JUMPDEST PUSH2 0x2E3 DUP2 DUP6 PUSH2 0x2A1 JUMP JUMPDEST SWAP4 POP PUSH2 0x2F3 DUP2 DUP6 PUSH1 0x20 DUP7 ADD PUSH2 0x2B1 JUMP JUMPDEST PUSH2 0x2FC DUP2 PUSH2 0x2BF JUMP JUMPDEST DUP5 ADD SWAP2 POP POP SWAP3 SWAP2 POP POP JUMP JUMPDEST PUSH0 PUSH1 0x20 DUP3 ADD SWAP1 POP DUP2 DUP2 SUB PUSH0 DUP4 ADD MSTORE PUSH2 0x31F DUP2 DUP5 PUSH2 0x2CF JUMP JUMPDEST SWAP1 POP SWAP3 SWAP2 POP POP JUMP JUMPDEST PUSH0 DUP2 ISZERO ISZERO SWAP1 POP SWAP2 SWAP1 POP JUMP JUMPDEST PUSH2 0x33B DUP2 PUSH2 0x327 JUMP JUMPDEST DUP2 EQ PUSH2 0x345 JUMPI PUSH0 PUSH0 REVERT JUMPDEST POP JUMP JUMPDEST PUSH0 DUP2 MLOAD SWAP1 POP PUSH2 0x356 DUP2 PUSH2 0x332 JUMP JUMPDEST SWAP3 SWAP2 POP POP JUMP JUMPDEST PUSH0 PUSH1 0x20 DUP3 DUP5 SUB SLT ISZERO PUSH2 0x371 JUMPI PUSH2 0x370 PUSH2 0x20E JUMP JUMPDEST JUMPDEST PUSH0 PUSH2 0x37E DUP5 DUP3 DUP6 ADD PUSH2 0x348 JUMP JUMPDEST SWAP2 POP POP SWAP3 SWAP2 POP POP JUMP JUMPDEST PUSH32 0x6D697373696E6720616464726573732000000000000000000000000000000000 DUP2 MSTORE POP JUMP JUMPDEST PUSH0 DUP2 SWAP1 POP SWAP3 SWAP2 POP POP JUMP JUMPDEST PUSH0 PUSH2 0x3C1 DUP3 PUSH2 0x297 JUMP JUMPDEST PUSH2 0x3CB DUP2 DUP6 PUSH2 0x3AD JUMP JUMPDEST SWAP4 POP PUSH2 0x3DB DUP2 DUP6 PUSH1 0x20 DUP7 ADD PUSH2 0x2B1 JUMP JUMPDEST DUP1 DUP5 ADD SWAP2 POP POP SWAP3 SWAP2 POP POP JUMP JUMPDEST PUSH0 PUSH2 0x3F1 DUP3 PUSH2 0x387 JUMP JUMPDEST PUSH1 0x10 DUP3 ADD SWAP2 POP PUSH2 0x401 DUP3 DUP5 PUSH2 0x3B7 JUMP JUMPDEST SWAP2 POP DUP2 SWAP1 POP SWAP3 SWAP2 POP POP JUMP JUMPDEST PUSH1 0x80 MLOAD PUSH2 0x1C93 PUSH2 0x424 PUSH0 CODECOPY PUSH0 PUSH2 0xF3E ADD MSTORE PUSH2 0x1C93 PUSH0 RETURN INVALID PUSH1 0x80 PUSH1 0x40 MSTORE CALLVALUE DUP1 ISZERO PUSH2 0xF JUMPI PUSH0 PUSH0 REVERT JUMPDEST POP PUSH1 0x4 CALLDATASIZE LT PUSH2 0x9C JUMPI PUSH0 CALLDATALOAD PUSH1 0xE0 SHR DUP1 PUSH4 0x8D808BCF GT PUSH2 0x64 JUMPI DUP1 PUSH4 0x8D808BCF EQ PUSH2 0x149 JUMPI DUP1 PUSH4 0xB9DB15B4 EQ PUSH2 0x179 JUMPI DUP1 PUSH4 0xCA3F51CE EQ PUSH2 0x1A9 JUMPI DUP1 PUSH4 0xCDE4C10C EQ PUSH2 0x1D9 JUMPI DUP1 PUSH4 0xE67D1D10 EQ PUSH2 0x1F7 JUMPI PUSH2 0x9C JUMP JUMPDEST DUP1 PUSH4 0xD8E6E2C EQ PUSH2 0xA0 JUMPI DUP1 PUSH4 0x17D7DE7C EQ PUSH2 0xBE JUMPI DUP1 PUSH4 0x1AF9C722 EQ PUSH2 0xDC JUMPI DUP1 PUSH4 0x4157A0F1 EQ PUSH2 0xFA JUMPI DUP1 PUSH4 0x47B714A6 EQ PUSH2 0x118 JUMPI JUMPDEST PUSH0 PUSH0 REVERT JUMPDEST PUSH2 0xA8 PUSH2 0x227 JUMP JUMPDEST PUSH1 0x40 MLOAD PUSH2 0xB5 SWAP2 SWAP1 PUSH2 0x10EB JUMP JUMPDEST PUSH1 0x40 MLOAD DUP1 SWAP2 SUB SWAP1 RETURN JUMPDEST PUSH2 0xC6 PUSH2 0x22F JUMP JUMPDEST PUSH1 0x40 MLOAD PUSH2 0xD3 SWAP2 SWAP1 PUSH2 0x1174 JUMP JUMPDEST PUSH1 0x40 MLOAD DUP1 SWAP2 SUB SWAP1 RETURN JUMPDEST PUSH2 0xE4 PUSH2 0x26C JUMP JUMPDEST PUSH1 0x40 MLOAD PUSH2 0xF1 SWAP2 SWAP1 PUSH2 0x124B JUMP JUMPDEST PUSH1 0x40 MLOAD DUP1 SWAP2 SUB SWAP1 RETURN JUMPDEST PUSH2 0x102 PUSH2 0x2FD JUMP JUMPDEST PUSH1 0x40 MLOAD PUSH2 0x10F SWAP2 SWAP1 PUSH2 0x124B JUMP JUMPDEST PUSH1 0x40 MLOAD DUP1 SWAP2 SUB SWAP1 RETURN JUMPDEST PUSH2 0x132 PUSH1 0x4 DUP1 CALLDATASIZE SUB DUP2 ADD SWAP1 PUSH2 0x12D SWAP2 SWAP1 PUSH2 0x159D JUMP JUMPDEST PUSH2 0x353 JUMP JUMPDEST PUSH1 0x40 MLOAD PUSH2 0x140 SWAP3 SWAP2 SWAP1 PUSH2 0x15C9 JUMP JUMPDEST PUSH1 0x40 MLOAD DUP1 SWAP2 SUB SWAP1 RETURN JUMPDEST PUSH2 0x163 PUSH1 0x4 DUP1 CALLDATASIZE SUB DUP2 ADD SWAP1 PUSH2 0x15E SWAP2 SWAP1 PUSH2 0x15F0 JUMP JUMPDEST PUSH2 0x6FA JUMP JUMPDEST PUSH1 0x40 MLOAD PUSH2 0x170 SWAP2 SWAP1 PUSH2 0x10EB JUMP JUMPDEST PUSH1 0x40 MLOAD DUP1 SWAP2 SUB SWAP1 RETURN JUMPDEST PUSH2 0x193 PUSH1 0x4 DUP1 CALLDATASIZE SUB DUP2 ADD SWAP1 PUSH2 0x18E SWAP2 SWAP1 PUSH2 0x15F0 JUMP JUMPDEST PUSH2 0x874 JUMP JUMPDEST PUSH1 0x40 MLOAD PUSH2 0x1A0 SWAP2 SWAP1 PUSH2 0x1892 JUMP JUMPDEST PUSH1 0x40 MLOAD DUP1 SWAP2 SUB SWAP1 RETURN JUMPDEST PUSH2 0x1C3 PUSH1 0x4 DUP1 CALLDATASIZE SUB DUP2 ADD SWAP1 PUSH2 0x1BE SWAP2 SWAP1 PUSH2 0x15F0 JUMP JUMPDEST PUSH2 0xAEE JUMP JUMPDEST PUSH1 0x40 MLOAD PUSH2 0x1D0 SWAP2 SWAP1 PUSH2 0x10EB JUMP JUMPDEST PUSH1 0x40 MLOAD DUP1 SWAP2 SUB SWAP1 RETURN JUMPDEST PUSH2 0x1E1 PUSH2 0xBC1 JUMP JUMPDEST PUSH1 0x40 MLOAD PUSH2 0x1EE SWAP2 SWAP1 PUSH2 0x18C6 JUMP JUMPDEST PUSH1 0x40 MLOAD DUP1 SWAP2 SUB SWAP1 RETURN JUMPDEST PUSH2 0x211 PUSH1 0x4 DUP1 CALLDATASIZE SUB DUP2 ADD SWAP1 PUSH2 0x20C SWAP2 SWAP1 PUSH2 0x15F0 JUMP JUMPDEST PUSH2 0xE0E JUMP JUMPDEST PUSH1 0x40 MLOAD PUSH2 0x21E SWAP2 SWAP1 PUSH2 0x18C6 JUMP JUMPDEST PUSH1 0x40 MLOAD DUP1 SWAP2 SUB SWAP1 RETURN JUMPDEST PUSH0 PUSH1 0x2 SWAP1 POP SWAP1 JUMP JUMPDEST PUSH1 0x60 PUSH1 0x40 MLOAD DUP1 PUSH1 0x40 ADD PUSH1 0x40 MSTORE DUP1 PUSH1 0x1B DUP2 MSTORE PUSH1 0x20 ADD PUSH32 0x52455345525645445F4D505F50524F445543545F4D414E414745520000000000 DUP2 MSTORE POP SWAP1 POP SWAP1 JUMP JUMPDEST PUSH1 0x60 PUSH1 0x5 PUSH0 CALLER PUSH20 0xFFFFFFFFFFFFFFFFFFFFFFFFFFFFFFFFFFFFFFFF AND PUSH20 0xFFFFFFFFFFFFFFFFFFFFFFFFFFFFFFFFFFFFFFFF AND DUP2 MSTORE PUSH1 0x20 ADD SWAP1 DUP2 MSTORE PUSH1 0x20 ADD PUSH0 KECCAK256 DUP1 SLOAD DUP1 PUSH1 0x20 MUL PUSH1 0x20 ADD PUSH1 0x40 MLOAD SWAP1 DUP2 ADD PUSH1 0x40 MSTORE DUP1 SWAP3 SWAP2 SWAP1 DUP2 DUP2 MSTORE PUSH1 0x20 ADD DUP3 DUP1 SLOAD DUP1 ISZERO PUSH2 0x2F3 JUMPI PUSH1 0x20 MUL DUP3 ADD SWAP2 SWAP1 PUSH0 MSTORE PUSH1 0x20 PUSH0 KECCAK256 SWAP1 JUMPDEST DUP2 SLOAD DUP2 MSTORE PUSH1 0x20 ADD SWAP1 PUSH1 0x1 ADD SWAP1 DUP1 DUP4 GT PUSH2 0x2DF JUMPI JUMPDEST POP POP POP POP POP SWAP1 POP SWAP1 JUMP JUMPDEST PUSH1 0x60 PUSH1 0x2 DUP1 SLOAD DUP1 PUSH1 0x20 MUL PUSH1 0x20 ADD PUSH1 0x40 MLOAD SWAP1 DUP2 ADD PUSH1 0x40 MSTORE DUP1 SWAP3 SWAP2 SWAP1 DUP2 DUP2 MSTORE PUSH1 0x20 ADD DUP3 DUP1 SLOAD DUP1 ISZERO PUSH2 0x349 JUMPI PUSH1 0x20 MUL DUP3 ADD SWAP2 SWAP1 PUSH0 MSTORE PUSH1 0x20 PUSH0 KECCAK256 SWAP1 JUMPDEST DUP2 SLOAD DUP2 MSTORE PUSH1 0x20 ADD SWAP1 PUSH1 0x1 ADD SWAP1 DUP1 DUP4 GT PUSH2 0x335 JUMPI JUMPDEST POP POP POP POP POP SWAP1 POP SWAP1 JUMP JUMPDEST PUSH0 PUSH0 PUSH2 0x35D PUSH2 0xE34 JUMP JUMPDEST SWAP2 POP PUSH1 0x2 DUP3 SWAP1 DUP1 PUSH1 0x1 DUP2 SLOAD ADD DUP1 DUP3 SSTORE DUP1 SWAP2 POP POP PUSH1 0x1 SWAP1 SUB SWAP1 PUSH0 MSTORE PUSH1 0x20 PUSH0 KECCAK256 ADD PUSH0 SWAP1 SWAP2 SWAP1 SWAP2 SWAP1 SWAP2 POP SSTORE PUSH1 0x5 PUSH0 CALLER PUSH20 0xFFFFFFFFFFFFFFFFFFFFFFFFFFFFFFFFFFFFFFFF AND PUSH20 0xFFFFFFFFFFFFFFFFFFFFFFFFFFFFFFFFFFFFFFFF AND DUP2 MSTORE PUSH1 0x20 ADD SWAP1 DUP2 MSTORE PUSH1 0x20 ADD PUSH0 KECCAK256 DUP3 SWAP1 DUP1 PUSH1 0x1 DUP2 SLOAD ADD DUP1 DUP3 SSTORE DUP1 SWAP2 POP POP PUSH1 0x1 SWAP1 SUB SWAP1 PUSH0 MSTORE PUSH1 0x20 PUSH0 KECCAK256 ADD PUSH0 SWAP1 SWAP2 SWAP1 SWAP2 SWAP1 SWAP2 POP SSTORE PUSH1 0x1 PUSH1 0x3 PUSH0 DUP5 DUP2 MSTORE PUSH1 0x20 ADD SWAP1 DUP2 MSTORE PUSH1 0x20 ADD PUSH0 KECCAK256 PUSH0 PUSH2 0x100 EXP DUP2 SLOAD DUP2 PUSH1 0xFF MUL NOT AND SWAP1 DUP4 ISZERO ISZERO MUL OR SWAP1 SSTORE POP PUSH1 0x40 MLOAD DUP1 PUSH2 0x1A0 ADD PUSH1 0x40 MSTORE DUP1 DUP4 DUP2 MSTORE PUSH1 0x20 ADD CALLER PUSH20 0xFFFFFFFFFFFFFFFFFFFFFFFFFFFFFFFFFFFFFFFF AND DUP2 MSTORE PUSH1 0x20 ADD DUP5 PUSH0 ADD MLOAD PUSH20 0xFFFFFFFFFFFFFFFFFFFFFFFFFFFFFFFFFFFFFFFF AND DUP2 MSTORE PUSH1 0x20 ADD DUP5 PUSH1 0x40 ADD MLOAD DUP2 MSTORE PUSH1 0x20 ADD DUP5 PUSH1 0x60 ADD MLOAD DUP2 MSTORE PUSH1 0x20 ADD DUP5 PUSH1 0x80 ADD MLOAD DUP2 MSTORE PUSH1 0x20 ADD DUP5 PUSH1 0x20 ADD MLOAD PUSH1 0x2 DUP2 GT ISZERO PUSH2 0x491 JUMPI PUSH2 0x490 PUSH2 0x162A JUMP JUMPDEST JUMPDEST DUP2 MSTORE PUSH1 0x20 ADD DUP5 PUSH1 0xA0 ADD MLOAD DUP2 MSTORE PUSH1 0x20 ADD DUP5 PUSH1 0xC0 ADD MLOAD DUP2 MSTORE PUSH1 0x20 ADD DUP5 PUSH1 0xE0 ADD MLOAD DUP2 MSTORE PUSH1 0x20 ADD TIMESTAMP DUP2 MSTORE PUSH1 0x20 ADD DUP5 PUSH2 0x100 ADD MLOAD TIMESTAMP PUSH2 0x4CB SWAP2 SWAP1 PUSH2 0x190C JUMP JUMPDEST DUP2 MSTORE PUSH1 0x20 ADD DUP5 PUSH2 0x120 ADD MLOAD DUP2 MSTORE POP PUSH1 0x4 PUSH0 DUP5 DUP2 MSTORE PUSH1 0x20 ADD SWAP1 DUP2 MSTORE PUSH1 0x20 ADD PUSH0 KECCAK256 PUSH0 DUP3 ADD MLOAD DUP2 PUSH0 ADD SSTORE PUSH1 0x20 DUP3 ADD MLOAD DUP2 PUSH1 0x1 ADD PUSH0 PUSH2 0x100 EXP DUP2 SLOAD DUP2 PUSH20 0xFFFFFFFFFFFFFFFFFFFFFFFFFFFFFFFFFFFFFFFF MUL NOT AND SWAP1 DUP4 PUSH20 0xFFFFFFFFFFFFFFFFFFFFFFFFFFFFFFFFFFFFFFFF AND MUL OR SWAP1 SSTORE POP PUSH1 0x40 DUP3 ADD MLOAD DUP2 PUSH1 0x2 ADD PUSH0 PUSH2 0x100 EXP DUP2 SLOAD DUP2 PUSH20 0xFFFFFFFFFFFFFFFFFFFFFFFFFFFFFFFFFFFFFFFF MUL NOT AND SWAP1 DUP4 PUSH20 0xFFFFFFFFFFFFFFFFFFFFFFFFFFFFFFFFFFFFFFFF AND MUL OR SWAP1 SSTORE POP PUSH1 0x60 DUP3 ADD MLOAD DUP2 PUSH1 0x3 ADD SSTORE PUSH1 0x80 DUP3 ADD MLOAD DUP2 PUSH1 0x4 ADD SSTORE PUSH1 0xA0 DUP3 ADD MLOAD DUP2 PUSH1 0x5 ADD SSTORE PUSH1 0xC0 DUP3 ADD MLOAD DUP2 PUSH1 0x6 ADD PUSH0 PUSH2 0x100 EXP DUP2 SLOAD DUP2 PUSH1 0xFF MUL NOT AND SWAP1 DUP4 PUSH1 0x2 DUP2 GT ISZERO PUSH2 0x5C6 JUMPI PUSH2 0x5C5 PUSH2 0x162A JUMP JUMPDEST JUMPDEST MUL OR SWAP1 SSTORE POP PUSH1 0xE0 DUP3 ADD MLOAD DUP2 PUSH1 0x7 ADD PUSH0 DUP3 ADD MLOAD DUP2 PUSH0 ADD PUSH0 PUSH2 0x100 EXP DUP2 SLOAD DUP2 PUSH1 0xFF MUL NOT AND SWAP1 DUP4 PUSH1 0x3 DUP2 GT ISZERO PUSH2 0x5FC JUMPI PUSH2 0x5FB PUSH2 0x162A JUMP JUMPDEST JUMPDEST MUL OR SWAP1 SSTORE POP PUSH1 0x20 DUP3 ADD MLOAD DUP2 PUSH1 0x1 ADD SSTORE PUSH1 0x40 DUP3 ADD MLOAD DUP2 PUSH1 0x2 ADD SSTORE PUSH1 0x60 DUP3 ADD MLOAD DUP2 PUSH1 0x3 ADD SSTORE PUSH1 0x80 DUP3 ADD MLOAD DUP2 PUSH1 0x4 ADD SSTORE PUSH1 0xA0 DUP3 ADD MLOAD DUP2 PUSH1 0x5 ADD SSTORE POP POP PUSH2 0x100 DUP3 ADD MLOAD DUP2 PUSH1 0xD ADD PUSH0 DUP3 ADD MLOAD DUP2 PUSH0 ADD PUSH0 PUSH2 0x100 EXP DUP2 SLOAD DUP2 PUSH1 0xFF MUL NOT AND SWAP1 DUP4 PUSH1 0x3 DUP2 GT ISZERO PUSH2 0x667 JUMPI PUSH2 0x666 PUSH2 0x162A JUMP JUMPDEST JUMPDEST MUL OR SWAP1 SSTORE POP PUSH1 0x20 DUP3 ADD MLOAD DUP2 PUSH1 0x1 ADD SSTORE PUSH1 0x40 DUP3 ADD MLOAD DUP2 PUSH1 0x2 ADD SSTORE PUSH1 0x60 DUP3 ADD MLOAD DUP2 PUSH1 0x3 ADD SSTORE PUSH1 0x80 DUP3 ADD MLOAD DUP2 PUSH1 0x4 ADD SSTORE PUSH1 0xA0 DUP3 ADD MLOAD DUP2 PUSH1 0x5 ADD SSTORE POP POP PUSH2 0x120 DUP3 ADD MLOAD DUP2 PUSH1 0x13 ADD PUSH0 DUP3 ADD MLOAD DUP2 PUSH0 ADD SSTORE PUSH1 0x20 DUP3 ADD MLOAD DUP2 PUSH1 0x1 ADD SSTORE POP POP PUSH2 0x140 DUP3 ADD MLOAD DUP2 PUSH1 0x15 ADD SSTORE PUSH2 0x160 DUP3 ADD MLOAD DUP2 PUSH1 0x16 ADD SSTORE PUSH2 0x180 DUP3 ADD MLOAD DUP2 PUSH1 0x17 ADD SSTORE SWAP1 POP POP PUSH2 0x6F3 PUSH0 PUSH1 0x5 DUP5 PUSH0 DUP8 PUSH0 ADD MLOAD PUSH2 0xE50 JUMP JUMPDEST SWAP1 POP SWAP2 POP SWAP2 JUMP JUMPDEST PUSH0 PUSH0 PUSH0 SWAP1 SLOAD SWAP1 PUSH2 0x100 EXP SWAP1 DIV PUSH20 0xFFFFFFFFFFFFFFFFFFFFFFFFFFFFFFFFFFFFFFFF AND PUSH20 0xFFFFFFFFFFFFFFFFFFFFFFFFFFFFFFFFFFFFFFFF AND PUSH4 0xBF40FAC1 PUSH1 0x40 MLOAD DUP1 PUSH1 0x40 ADD PUSH1 0x40 MSTORE DUP1 PUSH1 0x20 DUP2 MSTORE PUSH1 0x20 ADD PUSH32 0x52455345525645445F4D4544414C4C494F4E5F50454E53494F4E535F434F5245 DUP2 MSTORE POP PUSH1 0x40 MLOAD DUP3 PUSH4 0xFFFFFFFF AND PUSH1 0xE0 SHL DUP2 MSTORE PUSH1 0x4 ADD PUSH2 0x789 SWAP2 SWAP1 PUSH2 0x1174 JUMP JUMPDEST PUSH1 0x20 PUSH1 0x40 MLOAD DUP1 DUP4 SUB DUP2 DUP7 GAS STATICCALL ISZERO DUP1 ISZERO PUSH2 0x7A4 JUMPI RETURNDATASIZE PUSH0 PUSH0 RETURNDATACOPY RETURNDATASIZE PUSH0 REVERT JUMPDEST POP POP POP POP PUSH1 0x40 MLOAD RETURNDATASIZE PUSH1 0x1F NOT PUSH1 0x1F DUP3 ADD AND DUP3 ADD DUP1 PUSH1 0x40 MSTORE POP DUP2 ADD SWAP1 PUSH2 0x7C8 SWAP2 SWAP1 PUSH2 0x1953 JUMP JUMPDEST PUSH20 0xFFFFFFFFFFFFFFFFFFFFFFFFFFFFFFFFFFFFFFFF AND CALLER PUSH20 0xFFFFFFFFFFFFFFFFFFFFFFFFFFFFFFFFFFFFFFFF AND EQ PUSH2 0x835 JUMPI PUSH1 0x40 MLOAD PUSH32 0x8C379A000000000000000000000000000000000000000000000000000000000 DUP2 MSTORE PUSH1 0x4 ADD PUSH2 0x82C SWAP1 PUSH2 0x19C8 JUMP JUMPDEST PUSH1 0x40 MLOAD DUP1 SWAP2 SUB SWAP1 REVERT JUMPDEST PUSH1 0x4 PUSH0 DUP4 DUP2 MSTORE PUSH1 0x20 ADD SWAP1 DUP2 MSTORE PUSH1 0x20 ADD PUSH0 KECCAK256 PUSH1 0x17 ADD PUSH0 DUP2 SLOAD DUP1 SWAP3 SWAP2 SWAP1 PUSH2 0x859 SWAP1 PUSH2 0x19E6 JUMP JUMPDEST SWAP2 SWAP1 POP SSTORE POP PUSH2 0x86D PUSH1 0x9 PUSH1 0x5 DUP5 PUSH0 PUSH0 PUSH2 0xE50 JUMP JUMPDEST SWAP1 POP SWAP2 SWAP1 POP JUMP JUMPDEST PUSH2 0x87C PUSH2 0xFCB JUMP JUMPDEST PUSH1 0x4 PUSH0 DUP4 DUP2 MSTORE PUSH1 0x20 ADD SWAP1 DUP2 MSTORE PUSH1 0x20 ADD PUSH0 KECCAK256 PUSH1 0x40 MLOAD DUP1 PUSH2 0x1A0 ADD PUSH1 0x40 MSTORE SWAP1 DUP2 PUSH0 DUP3 ADD SLOAD DUP2 MSTORE PUSH1 0x20 ADD PUSH1 0x1 DUP3 ADD PUSH0 SWAP1 SLOAD SWAP1 PUSH2 0x100 EXP SWAP1 DIV PUSH20 0xFFFFFFFFFFFFFFFFFFFFFFFFFFFFFFFFFFFFFFFF AND PUSH20 0xFFFFFFFFFFFFFFFFFFFFFFFFFFFFFFFFFFFFFFFF AND PUSH20 0xFFFFFFFFFFFFFFFFFFFFFFFFFFFFFFFFFFFFFFFF AND DUP2 MSTORE PUSH1 0x20 ADD PUSH1 0x2 DUP3 ADD PUSH0 SWAP1 SLOAD SWAP1 PUSH2 0x100 EXP SWAP1 DIV PUSH20 0xFFFFFFFFFFFFFFFFFFFFFFFFFFFFFFFFFFFFFFFF AND PUSH20 0xFFFFFFFFFFFFFFFFFFFFFFFFFFFFFFFFFFFFFFFF AND PUSH20 0xFFFFFFFFFFFFFFFFFFFFFFFFFFFFFFFFFFFFFFFF AND DUP2 MSTORE PUSH1 0x20 ADD PUSH1 0x3 DUP3 ADD SLOAD DUP2 MSTORE PUSH1 0x20 ADD PUSH1 0x4 DUP3 ADD SLOAD DUP2 MSTORE PUSH1 0x20 ADD PUSH1 0x5 DUP3 ADD SLOAD DUP2 MSTORE PUSH1 0x20 ADD PUSH1 0x6 DUP3 ADD PUSH0 SWAP1 SLOAD SWAP1 PUSH2 0x100 EXP SWAP1 DIV PUSH1 0xFF AND PUSH1 0x2 DUP2 GT ISZERO PUSH2 0x98E JUMPI PUSH2 0x98D PUSH2 0x162A JUMP JUMPDEST JUMPDEST PUSH1 0x2 DUP2 GT ISZERO PUSH2 0x9A0 JUMPI PUSH2 0x99F PUSH2 0x162A JUMP JUMPDEST JUMPDEST DUP2 MSTORE PUSH1 0x20 ADD PUSH1 0x7 DUP3 ADD PUSH1 0x40 MLOAD DUP1 PUSH1 0xC0 ADD PUSH1 0x40 MSTORE SWAP1 DUP2 PUSH0 DUP3 ADD PUSH0 SWAP1 SLOAD SWAP1 PUSH2 0x100 EXP SWAP1 DIV PUSH1 0xFF AND PUSH1 0x3 DUP2 GT ISZERO PUSH2 0x9D7 JUMPI PUSH2 0x9D6 PUSH2 0x162A JUMP JUMPDEST JUMPDEST PUSH1 0x3 DUP2 GT ISZERO PUSH2 0x9E9 JUMPI PUSH2 0x9E8 PUSH2 0x162A JUMP JUMPDEST JUMPDEST DUP2 MSTORE PUSH1 0x20 ADD PUSH1 0x1 DUP3 ADD SLOAD DUP2 MSTORE PUSH1 0x20 ADD PUSH1 0x2 DUP3 ADD SLOAD DUP2 MSTORE PUSH1 0x20 ADD PUSH1 0x3 DUP3 ADD SLOAD DUP2 MSTORE PUSH1 0x20 ADD PUSH1 0x4 DUP3 ADD SLOAD DUP2 MSTORE PUSH1 0x20 ADD PUSH1 0x5 DUP3 ADD SLOAD DUP2 MSTORE POP POP DUP2 MSTORE PUSH1 0x20 ADD PUSH1 0xD DUP3 ADD PUSH1 0x40 MLOAD DUP1 PUSH1 0xC0 ADD PUSH1 0x40 MSTORE SWAP1 DUP2 PUSH0 DUP3 ADD PUSH0 SWAP1 SLOAD SWAP1 PUSH2 0x100 EXP SWAP1 DIV PUSH1 0xFF AND PUSH1 0x3 DUP2 GT ISZERO PUSH2 0xA56 JUMPI PUSH2 0xA55 PUSH2 0x162A JUMP JUMPDEST JUMPDEST PUSH1 0x3 DUP2 GT ISZERO PUSH2 0xA68 JUMPI PUSH2 0xA67 PUSH2 0x162A JUMP JUMPDEST JUMPDEST DUP2 MSTORE PUSH1 0x20 ADD PUSH1 0x1 DUP3 ADD SLOAD DUP2 MSTORE PUSH1 0x20 ADD PUSH1 0x2 DUP3 ADD SLOAD DUP2 MSTORE PUSH1 0x20 ADD PUSH1 0x3 DUP3 ADD SLOAD DUP2 MSTORE PUSH1 0x20 ADD PUSH1 0x4 DUP3 ADD SLOAD DUP2 MSTORE PUSH1 0x20 ADD PUSH1 0x5 DUP3 ADD SLOAD DUP2 MSTORE POP POP DUP2 MSTORE PUSH1 0x20 ADD PUSH1 0x13 DUP3 ADD PUSH1 0x40 MLOAD DUP1 PUSH1 0x40 ADD PUSH1 0x40 MSTORE SWAP1 DUP2 PUSH0 DUP3 ADD SLOAD DUP2 MSTORE PUSH1 0x20 ADD PUSH1 0x1 DUP3 ADD SLOAD DUP2 MSTORE POP POP DUP2 MSTORE PUSH1 0x20 ADD PUSH1 0x15 DUP3 ADD SLOAD DUP2 MSTORE PUSH1 0x20 ADD PUSH1 0x16 DUP3 ADD SLOAD DUP2 MSTORE PUSH1 0x20 ADD PUSH1 0x17 DUP3 ADD SLOAD DUP2 MSTORE POP POP SWAP1 POP SWAP2 SWAP1 POP JUMP JUMPDEST PUSH0 DUP2 CALLER PUSH20 0xFFFFFFFFFFFFFFFFFFFFFFFFFFFFFFFFFFFFFFFF AND PUSH1 0x4 PUSH0 DUP4 DUP2 MSTORE PUSH1 0x20 ADD SWAP1 DUP2 MSTORE PUSH1 0x20 ADD PUSH0 KECCAK256 PUSH1 0x1 ADD PUSH0 SWAP1 SLOAD SWAP1 PUSH2 0x100 EXP SWAP1 DIV PUSH20 0xFFFFFFFFFFFFFFFFFFFFFFFFFFFFFFFFFFFFFFFF AND PUSH20 0xFFFFFFFFFFFFFFFFFFFFFFFFFFFFFFFFFFFFFFFF AND EQ PUSH2 0xB91 JUMPI PUSH1 0x40 MLOAD PUSH32 0x8C379A000000000000000000000000000000000000000000000000000000000 DUP2 MSTORE PUSH1 0x4 ADD PUSH2 0xB88 SWAP1 PUSH2 0x1A57 JUMP JUMPDEST PUSH1 0x40 MLOAD DUP1 SWAP2 SUB SWAP1 REVERT JUMPDEST TIMESTAMP PUSH1 0x4 PUSH0 DUP6 DUP2 MSTORE PUSH1 0x20 ADD SWAP1 DUP2 MSTORE PUSH1 0x20 ADD PUSH0 KECCAK256 PUSH1 0x16 ADD DUP2 SWAP1 SSTORE POP PUSH2 0xBB9 PUSH1 0x8 PUSH1 0x5 DUP6 PUSH0 PUSH0 PUSH2 0xE50 JUMP JUMPDEST SWAP2 POP POP SWAP2 SWAP1 POP JUMP JUMPDEST PUSH0 PUSH0 PUSH0 SWAP1 SLOAD SWAP1 PUSH2 0x100 EXP SWAP1 DIV PUSH20 0xFFFFFFFFFFFFFFFFFFFFFFFFFFFFFFFFFFFFFFFF AND PUSH20 0xFFFFFFFFFFFFFFFFFFFFFFFFFFFFFFFFFFFFFFFF AND PUSH4 0xBF40FAC1 PUSH1 0x40 MLOAD DUP1 PUSH1 0x40 ADD PUSH1 0x40 MSTORE DUP1 PUSH1 0x11 DUP2 MSTORE PUSH1 0x20 ADD PUSH32 0x52455345525645445F4D505F41444D494E000000000000000000000000000000 DUP2 MSTORE POP PUSH1 0x40 MLOAD DUP3 PUSH4 0xFFFFFFFF AND PUSH1 0xE0 SHL DUP2 MSTORE PUSH1 0x4 ADD PUSH2 0xC50 SWAP2 SWAP1 PUSH2 0x1174 JUMP JUMPDEST PUSH1 0x20 PUSH1 0x40 MLOAD DUP1 DUP4 SUB DUP2 DUP7 GAS STATICCALL ISZERO DUP1 ISZERO PUSH2 0xC6B JUMPI RETURNDATASIZE PUSH0 PUSH0 RETURNDATACOPY RETURNDATASIZE PUSH0 REVERT JUMPDEST POP POP POP POP PUSH1 0x40 MLOAD RETURNDATASIZE PUSH1 0x1F NOT PUSH1 0x1F DUP3 ADD AND DUP3 ADD DUP1 PUSH1 0x40 MSTORE POP DUP2 ADD SWAP1 PUSH2 0xC8F SWAP2 SWAP1 PUSH2 0x1953 JUMP JUMPDEST PUSH20 0xFFFFFFFFFFFFFFFFFFFFFFFFFFFFFFFFFFFFFFFF AND CALLER PUSH20 0xFFFFFFFFFFFFFFFFFFFFFFFFFFFFFFFFFFFFFFFF AND EQ PUSH2 0xCFC JUMPI PUSH1 0x40 MLOAD PUSH32 0x8C379A000000000000000000000000000000000000000000000000000000000 DUP2 MSTORE PUSH1 0x4 ADD PUSH2 0xCF3 SWAP1 PUSH2 0x1ABF JUMP JUMPDEST PUSH1 0x40 MLOAD DUP1 SWAP2 SUB SWAP1 REVERT JUMPDEST PUSH0 PUSH0 SWAP1 SLOAD SWAP1 PUSH2 0x100 EXP SWAP1 DIV PUSH20 0xFFFFFFFFFFFFFFFFFFFFFFFFFFFFFFFFFFFFFFFF AND PUSH20 0xFFFFFFFFFFFFFFFFFFFFFFFFFFFFFFFFFFFFFFFF AND PUSH4 0xBF40FAC1 PUSH1 0x40 MLOAD DUP1 PUSH1 0x40 ADD PUSH1 0x40 MSTORE DUP1 PUSH1 0x14 DUP2 MSTORE PUSH1 0x20 ADD PUSH32 0x52455345525645445F4D505F5245474953544552000000000000000000000000 DUP2 MSTORE POP PUSH1 0x40 MLOAD DUP3 PUSH4 0xFFFFFFFF AND PUSH1 0xE0 SHL DUP2 MSTORE PUSH1 0x4 ADD PUSH2 0xD8A SWAP2 SWAP1 PUSH2 0x1174 JUMP JUMPDEST PUSH1 0x20 PUSH1 0x40 MLOAD DUP1 DUP4 SUB DUP2 DUP7 GAS STATICCALL ISZERO DUP1 ISZERO PUSH2 0xDA5 JUMPI RETURNDATASIZE PUSH0 PUSH0 RETURNDATACOPY RETURNDATASIZE PUSH0 REVERT JUMPDEST POP POP POP POP PUSH1 0x40 MLOAD RETURNDATASIZE PUSH1 0x1F NOT PUSH1 0x1F DUP3 ADD AND DUP3 ADD DUP1 PUSH1 0x40 MSTORE POP DUP2 ADD SWAP1 PUSH2 0xDC9 SWAP2 SWAP1 PUSH2 0x1953 JUMP JUMPDEST PUSH0 PUSH0 PUSH2 0x100 EXP DUP2 SLOAD DUP2 PUSH20 0xFFFFFFFFFFFFFFFFFFFFFFFFFFFFFFFFFFFFFFFF MUL NOT AND SWAP1 DUP4 PUSH20 0xFFFFFFFFFFFFFFFFFFFFFFFFFFFFFFFFFFFFFFFF AND MUL OR SWAP1 SSTORE POP PUSH1 0x1 SWAP1 POP SWAP1 JUMP JUMPDEST PUSH0 PUSH1 0x3 PUSH0 DUP4 DUP2 MSTORE PUSH1 0x20 ADD SWAP1 DUP2 MSTORE PUSH1 0x20 ADD PUSH0 KECCAK256 PUSH0 SWAP1 SLOAD SWAP1 PUSH2 0x100 EXP SWAP1 DIV PUSH1 0xFF AND SWAP1 POP SWAP2 SWAP1 POP JUMP JUMPDEST PUSH0 PUSH1 0x1 PUSH0 DUP2 SLOAD DUP1 SWAP3 SWAP2 SWAP1 PUSH2 0xE47 SWAP1 PUSH2 0x1ADD JUMP JUMPDEST SWAP2 SWAP1 POP SSTORE SWAP1 POP SWAP1 JUMP JUMPDEST PUSH0 PUSH0 PUSH0 SWAP1 SLOAD SWAP1 PUSH2 0x100 EXP SWAP1 DIV PUSH20 0xFFFFFFFFFFFFFFFFFFFFFFFFFFFFFFFFFFFFFFFF AND PUSH20 0xFFFFFFFFFFFFFFFFFFFFFFFFFFFFFFFFFFFFFFFF AND PUSH4 0xBF40FAC1 PUSH1 0x40 MLOAD DUP1 PUSH1 0x40 ADD PUSH1 0x40 MSTORE DUP1 PUSH1 0x16 DUP2 MSTORE PUSH1 0x20 ADD PUSH32 0x52455345525645445F4D505F54585F4D414E4147455200000000000000000000 DUP2 MSTORE POP PUSH1 0x40 MLOAD DUP3 PUSH4 0xFFFFFFFF AND PUSH1 0xE0 SHL DUP2 MSTORE PUSH1 0x4 ADD PUSH2 0xEDF SWAP2 SWAP1 PUSH2 0x1174 JUMP JUMPDEST PUSH1 0x20 PUSH1 0x40 MLOAD DUP1 DUP4 SUB DUP2 DUP7 GAS STATICCALL ISZERO DUP1 ISZERO PUSH2 0xEFA JUMPI RETURNDATASIZE PUSH0 PUSH0 RETURNDATACOPY RETURNDATASIZE PUSH0 REVERT JUMPDEST POP POP POP POP PUSH1 0x40 MLOAD RETURNDATASIZE PUSH1 0x1F NOT PUSH1 0x1F DUP3 ADD AND DUP3 ADD DUP1 PUSH1 0x40 MSTORE POP DUP2 ADD SWAP1 PUSH2 0xF1E SWAP2 SWAP1 PUSH2 0x1953 JUMP JUMPDEST PUSH20 0xFFFFFFFFFFFFFFFFFFFFFFFFFFFFFFFFFFFFFFFF AND PUSH4 0xEE16E639 DUP8 DUP8 DUP8 PUSH32 0x0 DUP9 DUP9 PUSH1 0x40 MLOAD DUP8 PUSH4 0xFFFFFFFF AND PUSH1 0xE0 SHL DUP2 MSTORE PUSH1 0x4 ADD PUSH2 0xF80 SWAP7 SWAP6 SWAP5 SWAP4 SWAP3 SWAP2 SWAP1 PUSH2 0x1BBF JUMP JUMPDEST PUSH1 0x20 PUSH1 0x40 MLOAD DUP1 DUP4 SUB DUP2 PUSH0 DUP8 GAS CALL ISZERO DUP1 ISZERO PUSH2 0xF9C JUMPI RETURNDATASIZE PUSH0 PUSH0 RETURNDATACOPY RETURNDATASIZE PUSH0 REVERT JUMPDEST POP POP POP POP PUSH1 0x40 MLOAD RETURNDATASIZE PUSH1 0x1F NOT PUSH1 0x1F DUP3 ADD AND DUP3 ADD DUP1 PUSH1 0x40 MSTORE POP DUP2 ADD SWAP1 PUSH2 0xFC0 SWAP2 SWAP1 PUSH2 0x1C32 JUMP JUMPDEST SWAP1 POP SWAP6 SWAP5 POP POP POP POP POP JUMP JUMPDEST PUSH1 0x40 MLOAD DUP1 PUSH2 0x1A0 ADD PUSH1 0x40 MSTORE DUP1 PUSH0 DUP2 MSTORE PUSH1 0x20 ADD PUSH0 PUSH20 0xFFFFFFFFFFFFFFFFFFFFFFFFFFFFFFFFFFFFFFFF AND DUP2 MSTORE PUSH1 0x20 ADD PUSH0 PUSH20 0xFFFFFFFFFFFFFFFFFFFFFFFFFFFFFFFFFFFFFFFF AND DUP2 MSTORE PUSH1 0x20 ADD PUSH0 DUP2 MSTORE PUSH1 0x20 ADD PUSH0 DUP2 MSTORE PUSH1 0x20 ADD PUSH0 DUP2 MSTORE PUSH1 0x20 ADD PUSH0 PUSH1 0x2 DUP2 GT ISZERO PUSH2 0x103A JUMPI PUSH2 0x1039 PUSH2 0x162A JUMP JUMPDEST JUMPDEST DUP2 MSTORE PUSH1 0x20 ADD PUSH2 0x1047 PUSH2 0x1079 JUMP JUMPDEST DUP2 MSTORE PUSH1 0x20 ADD PUSH2 0x1054 PUSH2 0x1079 JUMP JUMPDEST DUP2 MSTORE PUSH1 0x20 ADD PUSH2 0x1061 PUSH2 0x10BB JUMP JUMPDEST DUP2 MSTORE PUSH1 0x20 ADD PUSH0 DUP2 MSTORE PUSH1 0x20 ADD PUSH0 DUP2 MSTORE PUSH1 0x20 ADD PUSH0 DUP2 MSTORE POP SWAP1 JUMP JUMPDEST PUSH1 0x40 MLOAD DUP1 PUSH1 0xC0 ADD PUSH1 0x40 MSTORE DUP1 PUSH0 PUSH1 0x3 DUP2 GT ISZERO PUSH2 0x1097 JUMPI PUSH2 0x1096 PUSH2 0x162A JUMP JUMPDEST JUMPDEST DUP2 MSTORE PUSH1 0x20 ADD PUSH0 DUP2 MSTORE PUSH1 0x20 ADD PUSH0 DUP2 MSTORE PUSH1 0x20 ADD PUSH0 DUP2 MSTORE PUSH1 0x20 ADD PUSH0 DUP2 MSTORE PUSH1 0x20 ADD PUSH0 DUP2 MSTORE POP SWAP1 JUMP JUMPDEST PUSH1 0x40 MLOAD DUP1 PUSH1 0x40 ADD PUSH1 0x40 MSTORE DUP1 PUSH0 DUP2 MSTORE PUSH1 0x20 ADD PUSH0 DUP2 MSTORE POP SWAP1 JUMP JUMPDEST PUSH0 DUP2 SWAP1 POP SWAP2 SWAP1 POP JUMP JUMPDEST PUSH2 0x10E5 DUP2 PUSH2 0x10D3 JUMP JUMPDEST DUP3 MSTORE POP POP JUMP JUMPDEST PUSH0 PUSH1 0x20 DUP3 ADD SWAP1 POP PUSH2 0x10FE PUSH0 DUP4 ADD DUP5 PUSH2 0x10DC JUMP JUMPDEST SWAP3 SWAP2 POP POP JUMP JUMPDEST PUSH0 DUP2 MLOAD SWAP1 POP SWAP2 SWAP1 POP JUMP JUMPDEST PUSH0 DUP3 DUP3 MSTORE PUSH1 0x20 DUP3 ADD SWAP1 POP SWAP3 SWAP2 POP POP JUMP JUMPDEST DUP3 DUP2 DUP4 MCOPY PUSH0 DUP4 DUP4 ADD MSTORE POP POP POP JUMP JUMPDEST PUSH0 PUSH1 0x1F NOT PUSH1 0x1F DUP4 ADD AND SWAP1 POP SWAP2 SWAP1 POP JUMP JUMPDEST PUSH0 PUSH2 0x1146 DUP3 PUSH2 0x1104 JUMP JUMPDEST PUSH2 0x1150 DUP2 DUP6 PUSH2 0x110E JUMP JUMPDEST SWAP4 POP PUSH2 0x1160 DUP2 DUP6 PUSH1 0x20 DUP7 ADD PUSH2 0x111E JUMP JUMPDEST PUSH2 0x1169 DUP2 PUSH2 0x112C JUMP JUMPDEST DUP5 ADD SWAP2 POP POP SWAP3 SWAP2 POP POP JUMP JUMPDEST PUSH0 PUSH1 0x20 DUP3 ADD SWAP1 POP DUP2 DUP2 SUB PUSH0 DUP4 ADD MSTORE PUSH2 0x118C DUP2 DUP5 PUSH2 0x113C JUMP JUMPDEST SWAP1 POP SWAP3 SWAP2 POP POP JUMP JUMPDEST PUSH0 DUP2 MLOAD SWAP1 POP SWAP2 SWAP1 POP JUMP JUMPDEST PUSH0 DUP3 DUP3 MSTORE PUSH1 0x20 DUP3 ADD SWAP1 POP SWAP3 SWAP2 POP POP JUMP JUMPDEST PUSH0 DUP2 SWAP1 POP PUSH1 0x20 DUP3 ADD SWAP1 POP SWAP2 SWAP1 POP JUMP JUMPDEST PUSH2 0x11C6 DUP2 PUSH2 0x10D3 JUMP JUMPDEST DUP3 MSTORE POP POP JUMP JUMPDEST PUSH0 PUSH2 0x11D7 DUP4 DUP4 PUSH2 0x11BD JUMP JUMPDEST PUSH1 0x20 DUP4 ADD SWAP1 POP SWAP3 SWAP2 POP POP JUMP JUMPDEST PUSH0 PUSH1 0x20 DUP3 ADD SWAP1 POP SWAP2 SWAP1 POP JUMP JUMPDEST PUSH0 PUSH2 0x11F9 DUP3 PUSH2 0x1194 JUMP JUMPDEST PUSH2 0x1203 DUP2 DUP6 PUSH2 0x119E JUMP JUMPDEST SWAP4 POP PUSH2 0x120E DUP4 PUSH2 0x11AE JUMP JUMPDEST DUP1 PUSH0 JUMPDEST DUP4 DUP2 LT ISZERO PUSH2 0x123E JUMPI DUP2 MLOAD PUSH2 0x1225 DUP9 DUP3 PUSH2 0x11CC JUMP JUMPDEST SWAP8 POP PUSH2 0x1230 DUP4 PUSH2 0x11E3 JUMP JUMPDEST SWAP3 POP POP PUSH1 0x1 DUP2 ADD SWAP1 POP PUSH2 0x1211 JUMP JUMPDEST POP DUP6 SWAP4 POP POP POP POP SWAP3 SWAP2 POP POP JUMP JUMPDEST PUSH0 PUSH1 0x20 DUP3 ADD SWAP1 POP DUP2 DUP2 SUB PUSH0 DUP4 ADD MSTORE PUSH2 0x1263 DUP2 DUP5 PUSH2 0x11EF JUMP JUMPDEST SWAP1 POP SWAP3 SWAP2 POP POP JUMP JUMPDEST PUSH0 PUSH1 0x40 MLOAD SWAP1 POP SWAP1 JUMP JUMPDEST PUSH0 PUSH0 REVERT JUMPDEST PUSH0 PUSH0 REVERT JUMPDEST PUSH32 0x4E487B7100000000000000000000000000000000000000000000000000000000 PUSH0 MSTORE PUSH1 0x41 PUSH1 0x4 MSTORE PUSH1 0x24 PUSH0 REVERT JUMPDEST PUSH2 0x12B2 DUP3 PUSH2 0x112C JUMP JUMPDEST DUP2 ADD DUP2 DUP2 LT PUSH8 0xFFFFFFFFFFFFFFFF DUP3 GT OR ISZERO PUSH2 0x12D1 JUMPI PUSH2 0x12D0 PUSH2 0x127C JUMP JUMPDEST JUMPDEST DUP1 PUSH1 0x40 MSTORE POP POP POP JUMP JUMPDEST PUSH0 PUSH2 0x12E3 PUSH2 0x126B JUMP JUMPDEST SWAP1 POP PUSH2 0x12EF DUP3 DUP3 PUSH2 0x12A9 JUMP JUMPDEST SWAP2 SWAP1 POP JUMP JUMPDEST PUSH0 PUSH20 0xFFFFFFFFFFFFFFFFFFFFFFFFFFFFFFFFFFFFFFFF DUP3 AND SWAP1 POP SWAP2 SWAP1 POP JUMP JUMPDEST PUSH0 PUSH2 0x131D DUP3 PUSH2 0x12F4 JUMP JUMPDEST SWAP1 POP SWAP2 SWAP1 POP JUMP JUMPDEST PUSH2 0x132D DUP2 PUSH2 0x1313 JUMP JUMPDEST DUP2 EQ PUSH2 0x1337 JUMPI PUSH0 PUSH0 REVERT JUMPDEST POP JUMP JUMPDEST PUSH0 DUP2 CALLDATALOAD SWAP1 POP PUSH2 0x1348 DUP2 PUSH2 0x1324 JUMP JUMPDEST SWAP3 SWAP2 POP POP JUMP JUMPDEST PUSH1 0x3 DUP2 LT PUSH2 0x135A JUMPI PUSH0 PUSH0 REVERT JUMPDEST POP JUMP JUMPDEST PUSH0 DUP2 CALLDATALOAD SWAP1 POP PUSH2 0x136B DUP2 PUSH2 0x134E JUMP JUMPDEST SWAP3 SWAP2 POP POP JUMP JUMPDEST PUSH2 0x137A DUP2 PUSH2 0x10D3 JUMP JUMPDEST DUP2 EQ PUSH2 0x1384 JUMPI PUSH0 PUSH0 REVERT JUMPDEST POP JUMP JUMPDEST PUSH0 DUP2 CALLDATALOAD SWAP1 POP PUSH2 0x1395 DUP2 PUSH2 0x1371 JUMP JUMPDEST SWAP3 SWAP2 POP POP JUMP JUMPDEST PUSH1 0x4 DUP2 LT PUSH2 0x13A7 JUMPI PUSH0 PUSH0 REVERT JUMPDEST POP JUMP JUMPDEST PUSH0 DUP2 CALLDATALOAD SWAP1 POP PUSH2 0x13B8 DUP2 PUSH2 0x139B JUMP JUMPDEST SWAP3 SWAP2 POP POP JUMP JUMPDEST PUSH0 PUSH1 0xC0 DUP3 DUP5 SUB SLT ISZERO PUSH2 0x13D3 JUMPI PUSH2 0x13D2 PUSH2 0x1278 JUMP JUMPDEST JUMPDEST PUSH2 0x13DD PUSH1 0xC0 PUSH2 0x12DA JUMP JUMPDEST SWAP1 POP PUSH0 PUSH2 0x13EC DUP5 DUP3 DUP6 ADD PUSH2 0x13AA JUMP JUMPDEST PUSH0 DUP4 ADD MSTORE POP PUSH1 0x20 PUSH2 0x13FF DUP5 DUP3 DUP6 ADD PUSH2 0x1387 JUMP JUMPDEST PUSH1 0x20 DUP4 ADD MSTORE POP PUSH1 0x40 PUSH2 0x1413 DUP5 DUP3 DUP6 ADD PUSH2 0x1387 JUMP JUMPDEST PUSH1 0x40 DUP4 ADD MSTORE POP PUSH1 0x60 PUSH2 0x1427 DUP5 DUP3 DUP6 ADD PUSH2 0x1387 JUMP JUMPDEST PUSH1 0x60 DUP4 ADD MSTORE POP PUSH1 0x80 PUSH2 0x143B DUP5 DUP3 DUP6 ADD PUSH2 0x1387 JUMP JUMPDEST PUSH1 0x80 DUP4 ADD MSTORE POP PUSH1 0xA0 PUSH2 0x144F DUP5 DUP3 DUP6 ADD PUSH2 0x1387 JUMP JUMPDEST PUSH1 0xA0 DUP4 ADD MSTORE POP SWAP3 SWAP2 POP POP JUMP JUMPDEST PUSH0 PUSH1 0x40 DUP3 DUP5 SUB SLT ISZERO PUSH2 0x1470 JUMPI PUSH2 0x146F PUSH2 0x1278 JUMP JUMPDEST JUMPDEST PUSH2 0x147A PUSH1 0x40 PUSH2 0x12DA JUMP JUMPDEST SWAP1 POP PUSH0 PUSH2 0x1489 DUP5 DUP3 DUP6 ADD PUSH2 0x1387 JUMP JUMPDEST PUSH0 DUP4 ADD MSTORE POP PUSH1 0x20 PUSH2 0x149C DUP5 DUP3 DUP6 ADD PUSH2 0x1387 JUMP JUMPDEST PUSH1 0x20 DUP4 ADD MSTORE POP SWAP3 SWAP2 POP POP JUMP JUMPDEST PUSH0 PUSH2 0x2A0 DUP3 DUP5 SUB SLT ISZERO PUSH2 0x14BE JUMPI PUSH2 0x14BD PUSH2 0x1278 JUMP JUMPDEST JUMPDEST PUSH2 0x14C9 PUSH2 0x140 PUSH2 0x12DA JUMP JUMPDEST SWAP1 POP PUSH0 PUSH2 0x14D8 DUP5 DUP3 DUP6 ADD PUSH2 0x133A JUMP JUMPDEST PUSH0 DUP4 ADD MSTORE POP PUSH1 0x20 PUSH2 0x14EB DUP5 DUP3 DUP6 ADD PUSH2 0x135D JUMP JUMPDEST PUSH1 0x20 DUP4 ADD MSTORE POP PUSH1 0x40 PUSH2 0x14FF DUP5 DUP3 DUP6 ADD PUSH2 0x1387 JUMP JUMPDEST PUSH1 0x40 DUP4 ADD MSTORE POP PUSH1 0x60 PUSH2 0x1513 DUP5 DUP3 DUP6 ADD PUSH2 0x1387 JUMP JUMPDEST PUSH1 0x60 DUP4 ADD MSTORE POP PUSH1 0x80 PUSH2 0x1527 DUP5 DUP3 DUP6 ADD PUSH2 0x1387 JUMP JUMPDEST PUSH1 0x80 DUP4 ADD MSTORE POP PUSH1 0xA0 PUSH2 0x153B DUP5 DUP3 DUP6 ADD PUSH2 0x13BE JUMP JUMPDEST PUSH1 0xA0 DUP4 ADD MSTORE POP PUSH2 0x160 PUSH2 0x1550 DUP5 DUP3 DUP6 ADD PUSH2 0x13BE JUMP JUMPDEST PUSH1 0xC0 DUP4 ADD MSTORE POP PUSH2 0x220 PUSH2 0x1565 DUP5 DUP3 DUP6 ADD PUSH2 0x145B JUMP JUMPDEST PUSH1 0xE0 DUP4 ADD MSTORE POP PUSH2 0x260 PUSH2 0x157A DUP5 DUP3 DUP6 ADD PUSH2 0x1387 JUMP JUMPDEST PUSH2 0x100 DUP4 ADD MSTORE POP PUSH2 0x280 PUSH2 0x1590 DUP5 DUP3 DUP6 ADD PUSH2 0x1387 JUMP JUMPDEST PUSH2 0x120 DUP4 ADD MSTORE POP SWAP3 SWAP2 POP POP JUMP JUMPDEST PUSH0 PUSH2 0x2A0 DUP3 DUP5 SUB SLT ISZERO PUSH2 0x15B3 JUMPI PUSH2 0x15B2 PUSH2 0x1274 JUMP JUMPDEST JUMPDEST PUSH0 PUSH2 0x15C0 DUP5 DUP3 DUP6 ADD PUSH2 0x14A8 JUMP JUMPDEST SWAP2 POP POP SWAP3 SWAP2 POP POP JUMP JUMPDEST PUSH0 PUSH1 0x40 DUP3 ADD SWAP1 POP PUSH2 0x15DC PUSH0 DUP4 ADD DUP6 PUSH2 0x10DC JUMP JUMPDEST PUSH2 0x15E9 PUSH1 0x20 DUP4 ADD DUP5 PUSH2 0x10DC JUMP JUMPDEST SWAP4 SWAP3 POP POP POP JUMP JUMPDEST PUSH0 PUSH1 0x20 DUP3 DUP5 SUB SLT ISZERO PUSH2 0x1605 JUMPI PUSH2 0x1604 PUSH2 0x1274 JUMP JUMPDEST JUMPDEST PUSH0 PUSH2 0x1612 DUP5 DUP3 DUP6 ADD PUSH2 0x1387 JUMP JUMPDEST SWAP2 POP POP SWAP3 SWAP2 POP POP JUMP JUMPDEST PUSH2 0x1624 DUP2 PUSH2 0x1313 JUMP JUMPDEST DUP3 MSTORE POP POP JUMP JUMPDEST PUSH32 0x4E487B7100000000000000000000000000000000000000000000000000000000 PUSH0 MSTORE PUSH1 0x21 PUSH1 0x4 MSTORE PUSH1 0x24 PUSH0 REVERT JUMPDEST PUSH1 0x3 DUP2 LT PUSH2 0x1668 JUMPI PUSH2 0x1667 PUSH2 0x162A JUMP JUMPDEST JUMPDEST POP JUMP JUMPDEST PUSH0 DUP2 SWAP1 POP PUSH2 0x1678 DUP3 PUSH2 0x1657 JUMP JUMPDEST SWAP2 SWAP1 POP JUMP JUMPDEST PUSH0 PUSH2 0x1687 DUP3 PUSH2 0x166B JUMP JUMPDEST SWAP1 POP SWAP2 SWAP1 POP JUMP JUMPDEST PUSH2 0x1697 DUP2 PUSH2 0x167D JUMP JUMPDEST DUP3 MSTORE POP POP JUMP JUMPDEST PUSH1 0x4 DUP2 LT PUSH2 0x16AE JUMPI PUSH2 0x16AD PUSH2 0x162A JUMP JUMPDEST JUMPDEST POP JUMP JUMPDEST PUSH0 DUP2 SWAP1 POP PUSH2 0x16BE DUP3 PUSH2 0x169D JUMP JUMPDEST SWAP2 SWAP1 POP JUMP JUMPDEST PUSH0 PUSH2 0x16CD DUP3 PUSH2 0x16B1 JUMP JUMPDEST SWAP1 POP SWAP2 SWAP1 POP JUMP JUMPDEST PUSH2 0x16DD DUP2 PUSH2 0x16C3 JUMP JUMPDEST DUP3 MSTORE POP POP JUMP JUMPDEST PUSH1 0xC0 DUP3 ADD PUSH0 DUP3 ADD MLOAD PUSH2 0x16F7 PUSH0 DUP6 ADD DUP3 PUSH2 0x16D4 JUMP JUMPDEST POP PUSH1 0x20 DUP3 ADD MLOAD PUSH2 0x170A PUSH1 0x20 DUP6 ADD DUP3 PUSH2 0x11BD JUMP JUMPDEST POP PUSH1 0x40 DUP3 ADD MLOAD PUSH2 0x171D PUSH1 0x40 DUP6 ADD DUP3 PUSH2 0x11BD JUMP JUMPDEST POP PUSH1 0x60 DUP3 ADD MLOAD PUSH2 0x1730 PUSH1 0x60 DUP6 ADD DUP3 PUSH2 0x11BD JUMP JUMPDEST POP PUSH1 0x80 DUP3 ADD MLOAD PUSH2 0x1743 PUSH1 0x80 DUP6 ADD DUP3 PUSH2 0x11BD JUMP JUMPDEST POP PUSH1 0xA0 DUP3 ADD MLOAD PUSH2 0x1756 PUSH1 0xA0 DUP6 ADD DUP3 PUSH2 0x11BD JUMP JUMPDEST POP POP POP POP JUMP JUMPDEST PUSH1 0x40 DUP3 ADD PUSH0 DUP3 ADD MLOAD PUSH2 0x1770 PUSH0 DUP6 ADD DUP3 PUSH2 0x11BD JUMP JUMPDEST POP PUSH1 0x20 DUP3 ADD MLOAD PUSH2 0x1783 PUSH1 0x20 DUP6 ADD DUP3 PUSH2 0x11BD JUMP JUMPDEST POP POP POP POP JUMP JUMPDEST PUSH2 0x300 DUP3 ADD PUSH0 DUP3 ADD MLOAD PUSH2 0x179E PUSH0 DUP6 ADD DUP3 PUSH2 0x11BD JUMP JUMPDEST POP PUSH1 0x20 DUP3 ADD MLOAD PUSH2 0x17B1 PUSH1 0x20 DUP6 ADD DUP3 PUSH2 0x161B JUMP JUMPDEST POP PUSH1 0x40 DUP3 ADD MLOAD PUSH2 0x17C4 PUSH1 0x40 DUP6 ADD DUP3 PUSH2 0x161B JUMP JUMPDEST POP PUSH1 0x60 DUP3 ADD MLOAD PUSH2 0x17D7 PUSH1 0x60 DUP6 ADD DUP3 PUSH2 0x11BD JUMP JUMPDEST POP PUSH1 0x80 DUP3 ADD MLOAD PUSH2 0x17EA PUSH1 0x80 DUP6 ADD DUP3 PUSH2 0x11BD JUMP JUMPDEST POP PUSH1 0xA0 DUP3 ADD MLOAD PUSH2 0x17FD PUSH1 0xA0 DUP6 ADD DUP3 PUSH2 0x11BD JUMP JUMPDEST POP PUSH1 0xC0 DUP3 ADD MLOAD PUSH2 0x1810 PUSH1 0xC0 DUP6 ADD DUP3 PUSH2 0x168E JUMP JUMPDEST POP PUSH1 0xE0 DUP3 ADD MLOAD PUSH2 0x1823 PUSH1 0xE0 DUP6 ADD DUP3 PUSH2 0x16E3 JUMP JUMPDEST POP PUSH2 0x100 DUP3 ADD MLOAD PUSH2 0x1838 PUSH2 0x1A0 DUP6 ADD DUP3 PUSH2 0x16E3 JUMP JUMPDEST POP PUSH2 0x120 DUP3 ADD MLOAD PUSH2 0x184D PUSH2 0x260 DUP6 ADD DUP3 PUSH2 0x175C JUMP JUMPDEST POP PUSH2 0x140 DUP3 ADD MLOAD PUSH2 0x1862 PUSH2 0x2A0 DUP6 ADD DUP3 PUSH2 0x11BD JUMP JUMPDEST POP PUSH2 0x160 DUP3 ADD MLOAD PUSH2 0x1877 PUSH2 0x2C0 DUP6 ADD DUP3 PUSH2 0x11BD JUMP JUMPDEST POP PUSH2 0x180 DUP3 ADD MLOAD PUSH2 0x188C PUSH2 0x2E0 DUP6 ADD DUP3 PUSH2 0x11BD JUMP JUMPDEST POP POP POP POP JUMP JUMPDEST PUSH0 PUSH2 0x300 DUP3 ADD SWAP1 POP PUSH2 0x18A6 PUSH0 DUP4 ADD DUP5 PUSH2 0x1789 JUMP JUMPDEST SWAP3 SWAP2 POP POP JUMP JUMPDEST PUSH0 DUP2 ISZERO ISZERO SWAP1 POP SWAP2 SWAP1 POP JUMP JUMPDEST PUSH2 0x18C0 DUP2 PUSH2 0x18AC JUMP JUMPDEST DUP3 MSTORE POP POP JUMP JUMPDEST PUSH0 PUSH1 0x20 DUP3 ADD SWAP1 POP PUSH2 0x18D9 PUSH0 DUP4 ADD DUP5 PUSH2 0x18B7 JUMP JUMPDEST SWAP3 SWAP2 POP POP JUMP JUMPDEST PUSH32 0x4E487B7100000000000000000000000000000000000000000000000000000000 PUSH0 MSTORE PUSH1 0x11 PUSH1 0x4 MSTORE PUSH1 0x24 PUSH0 REVERT JUMPDEST PUSH0 PUSH2 0x1916 DUP3 PUSH2 0x10D3 JUMP JUMPDEST SWAP2 POP PUSH2 0x1921 DUP4 PUSH2 0x10D3 JUMP JUMPDEST SWAP3 POP DUP3 DUP3 ADD SWAP1 POP DUP1 DUP3 GT ISZERO PUSH2 0x1939 JUMPI PUSH2 0x1938 PUSH2 0x18DF JUMP JUMPDEST JUMPDEST SWAP3 SWAP2 POP POP JUMP JUMPDEST PUSH0 DUP2 MLOAD SWAP1 POP PUSH2 0x194D DUP2 PUSH2 0x1324 JUMP JUMPDEST SWAP3 SWAP2 POP POP JUMP JUMPDEST PUSH0 PUSH1 0x20 DUP3 DUP5 SUB SLT ISZERO PUSH2 0x1968 JUMPI PUSH2 0x1967 PUSH2 0x1274 JUMP JUMPDEST JUMPDEST PUSH0 PUSH2 0x1975 DUP5 DUP3 DUP6 ADD PUSH2 0x193F JUMP JUMPDEST SWAP2 POP POP SWAP3 SWAP2 POP POP JUMP JUMPDEST PUSH32 0x6D6564616C696F6E2070656E73696F6E73206F6E6C7900000000000000000000 PUSH0 DUP3 ADD MSTORE POP JUMP JUMPDEST PUSH0 PUSH2 0x19B2 PUSH1 0x16 DUP4 PUSH2 0x110E JUMP JUMPDEST SWAP2 POP PUSH2 0x19BD DUP3 PUSH2 0x197E JUMP JUMPDEST PUSH1 0x20 DUP3 ADD SWAP1 POP SWAP2 SWAP1 POP JUMP JUMPDEST PUSH0 PUSH1 0x20 DUP3 ADD SWAP1 POP DUP2 DUP2 SUB PUSH0 DUP4 ADD MSTORE PUSH2 0x19DF DUP2 PUSH2 0x19A6 JUMP JUMPDEST SWAP1 POP SWAP2 SWAP1 POP JUMP JUMPDEST PUSH0 PUSH2 0x19F0 DUP3 PUSH2 0x10D3 JUMP JUMPDEST SWAP2 POP PUSH0 DUP3 SUB PUSH2 0x1A02 JUMPI PUSH2 0x1A01 PUSH2 0x18DF JUMP JUMPDEST JUMPDEST PUSH1 0x1 DUP3 SUB SWAP1 POP SWAP2 SWAP1 POP JUMP JUMPDEST PUSH32 0x70726F647563742070726F7669646572206F6E6C790000000000000000000000 PUSH0 DUP3 ADD MSTORE POP JUMP JUMPDEST PUSH0 PUSH2 0x1A41 PUSH1 0x15 DUP4 PUSH2 0x110E JUMP JUMPDEST SWAP2 POP PUSH2 0x1A4C DUP3 PUSH2 0x1A0D JUMP JUMPDEST PUSH1 0x20 DUP3 ADD SWAP1 POP SWAP2 SWAP1 POP JUMP JUMPDEST PUSH0 PUSH1 0x20 DUP3 ADD SWAP1 POP DUP2 DUP2 SUB PUSH0 DUP4 ADD MSTORE PUSH2 0x1A6E DUP2 PUSH2 0x1A35 JUMP JUMPDEST SWAP1 POP SWAP2 SWAP1 POP JUMP JUMPDEST PUSH32 0x6D6564616C696F6E207065656E73696F6E732061646D696E206F6E6C79000000 PUSH0 DUP3 ADD MSTORE POP JUMP JUMPDEST PUSH0 PUSH2 0x1AA9 PUSH1 0x1D DUP4 PUSH2 0x110E JUMP JUMPDEST SWAP2 POP PUSH2 0x1AB4 DUP3 PUSH2 0x1A75 JUMP JUMPDEST PUSH1 0x20 DUP3 ADD SWAP1 POP SWAP2 SWAP1 POP JUMP JUMPDEST PUSH0 PUSH1 0x20 DUP3 ADD SWAP1 POP DUP2 DUP2 SUB PUSH0 DUP4 ADD MSTORE PUSH2 0x1AD6 DUP2 PUSH2 0x1A9D JUMP JUMPDEST SWAP1 POP SWAP2 SWAP1 POP JUMP JUMPDEST PUSH0 PUSH2 0x1AE7 DUP3 PUSH2 0x10D3 JUMP JUMPDEST SWAP2 POP PUSH32 0xFFFFFFFFFFFFFFFFFFFFFFFFFFFFFFFFFFFFFFFFFFFFFFFFFFFFFFFFFFFFFFFF DUP3 SUB PUSH2 0x1B19 JUMPI PUSH2 0x1B18 PUSH2 0x18DF JUMP JUMPDEST JUMPDEST PUSH1 0x1 DUP3 ADD SWAP1 POP SWAP2 SWAP1 POP JUMP JUMPDEST PUSH1 0xA DUP2 LT PUSH2 0x1B35 JUMPI PUSH2 0x1B34 PUSH2 0x162A JUMP JUMPDEST JUMPDEST POP JUMP JUMPDEST PUSH0 DUP2 SWAP1 POP PUSH2 0x1B45 DUP3 PUSH2 0x1B24 JUMP JUMPDEST SWAP2 SWAP1 POP JUMP JUMPDEST PUSH0 PUSH2 0x1B54 DUP3 PUSH2 0x1B38 JUMP JUMPDEST SWAP1 POP SWAP2 SWAP1 POP JUMP JUMPDEST PUSH2 0x1B64 DUP2 PUSH2 0x1B4A JUMP JUMPDEST DUP3 MSTORE POP POP JUMP JUMPDEST PUSH1 0x6 DUP2 LT PUSH2 0x1B7B JUMPI PUSH2 0x1B7A PUSH2 0x162A JUMP JUMPDEST JUMPDEST POP JUMP JUMPDEST PUSH0 DUP2 SWAP1 POP PUSH2 0x1B8B DUP3 PUSH2 0x1B6A JUMP JUMPDEST SWAP2 SWAP1 POP JUMP JUMPDEST PUSH0 PUSH2 0x1B9A DUP3 PUSH2 0x1B7E JUMP JUMPDEST SWAP1 POP SWAP2 SWAP1 POP JUMP JUMPDEST PUSH2 0x1BAA DUP2 PUSH2 0x1B90 JUMP JUMPDEST DUP3 MSTORE POP POP JUMP JUMPDEST PUSH2 0x1BB9 DUP2 PUSH2 0x1313 JUMP JUMPDEST DUP3 MSTORE POP POP JUMP JUMPDEST PUSH0 PUSH1 0xC0 DUP3 ADD SWAP1 POP PUSH2 0x1BD2 PUSH0 DUP4 ADD DUP10 PUSH2 0x1B5B JUMP JUMPDEST PUSH2 0x1BDF PUSH1 0x20 DUP4 ADD DUP9 PUSH2 0x1BA1 JUMP JUMPDEST PUSH2 0x1BEC PUSH1 0x40 DUP4 ADD DUP8 PUSH2 0x10DC JUMP JUMPDEST PUSH2 0x1BF9 PUSH1 0x60 DUP4 ADD DUP7 PUSH2 0x1BB0 JUMP JUMPDEST PUSH2 0x1C06 PUSH1 0x80 DUP4 ADD DUP6 PUSH2 0x10DC JUMP JUMPDEST PUSH2 0x1C13 PUSH1 0xA0 DUP4 ADD DUP5 PUSH2 0x1BB0 JUMP JUMPDEST SWAP8 SWAP7 POP POP POP POP POP POP POP JUMP JUMPDEST PUSH0 DUP2 MLOAD SWAP1 POP PUSH2 0x1C2C DUP2 PUSH2 0x1371 JUMP JUMPDEST SWAP3 SWAP2 POP POP JUMP JUMPDEST PUSH0 PUSH1 0x20 DUP3 DUP5 SUB SLT ISZERO PUSH2 0x1C47 JUMPI PUSH2 0x1C46 PUSH2 0x1274 JUMP JUMPDEST JUMPDEST PUSH0 PUSH2 0x1C54 DUP5 DUP3 DUP6 ADD PUSH2 0x1C1E JUMP JUMPDEST SWAP2 POP POP SWAP3 SWAP2 POP POP JUMP INVALID LOG2 PUSH5 0x6970667358 0x22 SLT KECCAK256 SWAP15 OR SWAP10 PUSH29 0x63CAE785D311EFD00BE39EC91EC799BB49A06B13C5103EB8150C68F964 PUSH20 0x6F6C634300081E00330000000000000000000000 "
				},
				"gasEstimates": {
					"creation": {
						"codeDepositCost": "1463000",
						"executionCost": "infinite",
						"totalCost": "infinite"
					},
					"external": {
						"createProduct((address,uint8,uint256,uint256,uint256,(uint8,uint256,uint256,uint256,uint256,uint256),(uint8,uint256,uint256,uint256,uint256,uint256),(uint256,uint256),uint256,uint256))": "infinite",
						"expireProduct(uint256)": "infinite",
						"getMProductIds()": "infinite",
						"getName()": "infinite",
						"getProduct(uint256)": "infinite",
						"getProductIdsByOwner()": "infinite",
						"getVersion()": "333",
						"isKnownProduct(uint256)": "2898",
						"notifyChangeOfAddress()": "infinite",
						"updateProductInventory(uint256)": "infinite"
					},
					"internal": {
						"addTx(enum TxType,enum ObjType,uint256,uint256,address)": "infinite",
						"getIndex()": "24371"
					}
				},
				"methodIdentifiers": {
					"createProduct((address,uint8,uint256,uint256,uint256,(uint8,uint256,uint256,uint256,uint256,uint256),(uint8,uint256,uint256,uint256,uint256,uint256),(uint256,uint256),uint256,uint256))": "47b714a6",
					"expireProduct(uint256)": "ca3f51ce",
					"getMProductIds()": "4157a0f1",
					"getName()": "17d7de7c",
					"getProduct(uint256)": "b9db15b4",
					"getProductIdsByOwner()": "1af9c722",
					"getVersion()": "0d8e6e2c",
					"isKnownProduct(uint256)": "e67d1d10",
					"notifyChangeOfAddress()": "cde4c10c",
					"updateProductInventory(uint256)": "8d808bcf"
				}
			},
			"storageLayout": {
				"storage": [
					{
						"astId": 83,
						"contract": "contracts/core/product/MPProductManager.sol:MPProductManager",
						"label": "register",
						"offset": 0,
						"slot": "0",
						"type": "t_contract(IRegister)511"
					},
					{
						"astId": 85,
						"contract": "contracts/core/product/MPProductManager.sol:MPProductManager",
						"label": "index",
						"offset": 0,
						"slot": "1",
						"type": "t_uint256"
					},
					{
						"astId": 88,
						"contract": "contracts/core/product/MPProductManager.sol:MPProductManager",
						"label": "productIds",
						"offset": 0,
						"slot": "2",
						"type": "t_array(t_uint256)dyn_storage"
					},
					{
						"astId": 92,
						"contract": "contracts/core/product/MPProductManager.sol:MPProductManager",
						"label": "isKnownByProductId",
						"offset": 0,
						"slot": "3",
						"type": "t_mapping(t_uint256,t_bool)"
					},
					{
						"astId": 97,
						"contract": "contracts/core/product/MPProductManager.sol:MPProductManager",
						"label": "productById",
						"offset": 0,
						"slot": "4",
						"type": "t_mapping(t_uint256,t_struct(MPProduct)587_storage)"
					},
					{
						"astId": 102,
						"contract": "contracts/core/product/MPProductManager.sol:MPProductManager",
						"label": "productIdsByOwner",
						"offset": 0,
						"slot": "5",
						"type": "t_mapping(t_address,t_array(t_uint256)dyn_storage)"
					}
				],
				"types": {
					"t_address": {
						"encoding": "inplace",
						"label": "address",
						"numberOfBytes": "20"
					},
					"t_array(t_uint256)dyn_storage": {
						"base": "t_uint256",
						"encoding": "dynamic_array",
						"label": "uint256[]",
						"numberOfBytes": "32"
					},
					"t_bool": {
						"encoding": "inplace",
						"label": "bool",
						"numberOfBytes": "1"
					},
					"t_contract(IRegister)511": {
						"encoding": "inplace",
						"label": "contract IRegister",
						"numberOfBytes": "20"
					},
					"t_enum(RiskType)677": {
						"encoding": "inplace",
						"label": "enum RiskType",
						"numberOfBytes": "1"
					},
					"t_enum(Schedule)682": {
						"encoding": "inplace",
						"label": "enum Schedule",
						"numberOfBytes": "1"
					},
					"t_mapping(t_address,t_array(t_uint256)dyn_storage)": {
						"encoding": "mapping",
						"key": "t_address",
						"label": "mapping(address => uint256[])",
						"numberOfBytes": "32",
						"value": "t_array(t_uint256)dyn_storage"
					},
					"t_mapping(t_uint256,t_bool)": {
						"encoding": "mapping",
						"key": "t_uint256",
						"label": "mapping(uint256 => bool)",
						"numberOfBytes": "32",
						"value": "t_bool"
					},
					"t_mapping(t_uint256,t_struct(MPProduct)587_storage)": {
						"encoding": "mapping",
						"key": "t_uint256",
						"label": "mapping(uint256 => struct MPProduct)",
						"numberOfBytes": "32",
						"value": "t_struct(MPProduct)587_storage"
					},
					"t_struct(FinancialSchedule)696_storage": {
						"encoding": "inplace",
						"label": "struct FinancialSchedule",
						"members": [
							{
								"astId": 685,
								"contract": "contracts/core/product/MPProductManager.sol:MPProductManager",
								"label": "schedule",
								"offset": 0,
								"slot": "0",
								"type": "t_enum(Schedule)682"
							},
							{
								"astId": 687,
								"contract": "contracts/core/product/MPProductManager.sol:MPProductManager",
								"label": "term",
								"offset": 0,
								"slot": "1",
								"type": "t_uint256"
							},
							{
								"astId": 689,
								"contract": "contracts/core/product/MPProductManager.sol:MPProductManager",
								"label": "minimumAmount",
								"offset": 0,
								"slot": "2",
								"type": "t_uint256"
							},
							{
								"astId": 691,
								"contract": "contracts/core/product/MPProductManager.sol:MPProductManager",
								"label": "maximumAmount",
								"offset": 0,
								"slot": "3",
								"type": "t_uint256"
							},
							{
								"astId": 693,
								"contract": "contracts/core/product/MPProductManager.sol:MPProductManager",
								"label": "totalIntervals",
								"offset": 0,
								"slot": "4",
								"type": "t_uint256"
							},
							{
								"astId": 695,
								"contract": "contracts/core/product/MPProductManager.sol:MPProductManager",
								"label": "totalAmount",
								"offset": 0,
								"slot": "5",
								"type": "t_uint256"
							}
						],
						"numberOfBytes": "192"
					},
					"t_struct(MPProduct)587_storage": {
						"encoding": "inplace",
						"label": "struct MPProduct",
						"members": [
							{
								"astId": 558,
								"contract": "contracts/core/product/MPProductManager.sol:MPProductManager",
								"label": "id",
								"offset": 0,
								"slot": "0",
								"type": "t_uint256"
							},
							{
								"astId": 560,
								"contract": "contracts/core/product/MPProductManager.sol:MPProductManager",
								"label": "provider",
								"offset": 0,
								"slot": "1",
								"type": "t_address"
							},
							{
								"astId": 562,
								"contract": "contracts/core/product/MPProductManager.sol:MPProductManager",
								"label": "erc20",
								"offset": 0,
								"slot": "2",
								"type": "t_address"
							},
							{
								"astId": 564,
								"contract": "contracts/core/product/MPProductManager.sol:MPProductManager",
								"label": "totalContribution",
								"offset": 0,
								"slot": "3",
								"type": "t_uint256"
							},
							{
								"astId": 566,
								"contract": "contracts/core/product/MPProductManager.sol:MPProductManager",
								"label": "principalOnMaturity",
								"offset": 0,
								"slot": "4",
								"type": "t_uint256"
							},
							{
								"astId": 568,
								"contract": "contracts/core/product/MPProductManager.sol:MPProductManager",
								"label": "interest",
								"offset": 0,
								"slot": "5",
								"type": "t_uint256"
							},
							{
								"astId": 571,
								"contract": "contracts/core/product/MPProductManager.sol:MPProductManager",
								"label": "riskType",
								"offset": 0,
								"slot": "6",
								"type": "t_enum(RiskType)677"
							},
							{
								"astId": 574,
								"contract": "contracts/core/product/MPProductManager.sol:MPProductManager",
								"label": "contributionSchedule",
								"offset": 0,
								"slot": "7",
								"type": "t_struct(FinancialSchedule)696_storage"
							},
							{
								"astId": 577,
								"contract": "contracts/core/product/MPProductManager.sol:MPProductManager",
								"label": "emissionSchedule",
								"offset": 0,
								"slot": "13",
								"type": "t_struct(FinancialSchedule)696_storage"
							},
							{
								"astId": 580,
								"contract": "contracts/core/product/MPProductManager.sol:MPProductManager",
								"label": "tolerance",
								"offset": 0,
								"slot": "19",
								"type": "t_struct(Tolerance)701_storage"
							},
							{
								"astId": 582,
								"contract": "contracts/core/product/MPProductManager.sol:MPProductManager",
								"label": "createdDate",
								"offset": 0,
								"slot": "21",
								"type": "t_uint256"
							},
							{
								"astId": 584,
								"contract": "contracts/core/product/MPProductManager.sol:MPProductManager",
								"label": "expiryDate",
								"offset": 0,
								"slot": "22",
								"type": "t_uint256"
							},
							{
								"astId": 586,
								"contract": "contracts/core/product/MPProductManager.sol:MPProductManager",
								"label": "units",
								"offset": 0,
								"slot": "23",
								"type": "t_uint256"
							}
						],
						"numberOfBytes": "768"
					},
					"t_struct(Tolerance)701_storage": {
						"encoding": "inplace",
						"label": "struct Tolerance",
						"members": [
							{
								"astId": 698,
								"contract": "contracts/core/product/MPProductManager.sol:MPProductManager",
								"label": "maxGainPercentage",
								"offset": 0,
								"slot": "0",
								"type": "t_uint256"
							},
							{
								"astId": 700,
								"contract": "contracts/core/product/MPProductManager.sol:MPProductManager",
								"label": "maxLossPercentage",
								"offset": 0,
								"slot": "1",
								"type": "t_uint256"
							}
						],
						"numberOfBytes": "64"
					},
					"t_uint256": {
						"encoding": "inplace",
						"label": "uint256",
						"numberOfBytes": "32"
					}
				}
			},
			"userdoc": {
				"kind": "user",
				"methods": {},
				"version": 1
			}
		}
	}
}