{
	"contracts/core/MPensionVault.sol": {
		"MPensionVault": {
			"abi": [
				{
					"inputs": [
						{
							"internalType": "address",
							"name": "_register",
							"type": "address"
						},
						{
							"internalType": "uint256",
							"name": "_mPensionId",
							"type": "uint256"
						}
					],
					"stateMutability": "nonpayable",
					"type": "constructor"
				},
				{
					"inputs": [],
					"name": "close",
					"outputs": [
						{
							"internalType": "uint256",
							"name": "_txId",
							"type": "uint256"
						}
					],
					"stateMutability": "nonpayable",
					"type": "function"
				},
				{
					"inputs": [
						{
							"internalType": "uint256",
							"name": "_amount",
							"type": "uint256"
						}
					],
					"name": "contribute",
					"outputs": [
						{
							"internalType": "uint256",
							"name": "_txId",
							"type": "uint256"
						}
					],
					"stateMutability": "payable",
					"type": "function"
				},
				{
					"inputs": [],
					"name": "drawdown",
					"outputs": [
						{
							"internalType": "uint256",
							"name": "_txId",
							"type": "uint256"
						}
					],
					"stateMutability": "nonpayable",
					"type": "function"
				},
				{
					"inputs": [],
					"name": "getBalance",
					"outputs": [
						{
							"internalType": "uint256",
							"name": "_balance",
							"type": "uint256"
						}
					],
					"stateMutability": "view",
					"type": "function"
				},
				{
					"inputs": [],
					"name": "getName",
					"outputs": [
						{
							"internalType": "string",
							"name": "_name",
							"type": "string"
						}
					],
					"stateMutability": "pure",
					"type": "function"
				},
				{
					"inputs": [],
					"name": "getPension",
					"outputs": [
						{
							"components": [
								{
									"internalType": "uint256",
									"name": "id",
									"type": "uint256"
								},
								{
									"internalType": "address",
									"name": "creator",
									"type": "address"
								},
								{
									"internalType": "address",
									"name": "owner",
									"type": "address"
								},
								{
									"internalType": "address",
									"name": "vault",
									"type": "address"
								},
								{
									"internalType": "uint256",
									"name": "maturityDate",
									"type": "uint256"
								},
								{
									"internalType": "uint256",
									"name": "dissolutionDate",
									"type": "uint256"
								},
								{
									"components": [
										{
											"internalType": "uint256",
											"name": "id",
											"type": "uint256"
										},
										{
											"internalType": "address",
											"name": "provider",
											"type": "address"
										},
										{
											"internalType": "address",
											"name": "erc20",
											"type": "address"
										},
										{
											"internalType": "uint256",
											"name": "totalContribution",
											"type": "uint256"
										},
										{
											"internalType": "uint256",
											"name": "principalOnMaturity",
											"type": "uint256"
										},
										{
											"internalType": "uint256",
											"name": "interest",
											"type": "uint256"
										},
										{
											"internalType": "enum RiskType",
											"name": "riskType",
											"type": "uint8"
										},
										{
											"components": [
												{
													"internalType": "enum Schedule",
													"name": "schedule",
													"type": "uint8"
												},
												{
													"internalType": "uint256",
													"name": "term",
													"type": "uint256"
												},
												{
													"internalType": "uint256",
													"name": "minimumAmount",
													"type": "uint256"
												},
												{
													"internalType": "uint256",
													"name": "maximumAmount",
													"type": "uint256"
												},
												{
													"internalType": "uint256",
													"name": "totalIntervals",
													"type": "uint256"
												},
												{
													"internalType": "uint256",
													"name": "totalAmount",
													"type": "uint256"
												}
											],
											"internalType": "struct FinancialSchedule",
											"name": "contributionSchedule",
											"type": "tuple"
										},
										{
											"components": [
												{
													"internalType": "enum Schedule",
													"name": "schedule",
													"type": "uint8"
												},
												{
													"internalType": "uint256",
													"name": "term",
													"type": "uint256"
												},
												{
													"internalType": "uint256",
													"name": "minimumAmount",
													"type": "uint256"
												},
												{
													"internalType": "uint256",
													"name": "maximumAmount",
													"type": "uint256"
												},
												{
													"internalType": "uint256",
													"name": "totalIntervals",
													"type": "uint256"
												},
												{
													"internalType": "uint256",
													"name": "totalAmount",
													"type": "uint256"
												}
											],
											"internalType": "struct FinancialSchedule",
											"name": "emissionSchedule",
											"type": "tuple"
										},
										{
											"components": [
												{
													"internalType": "uint256",
													"name": "maxGainPercentage",
													"type": "uint256"
												},
												{
													"internalType": "uint256",
													"name": "maxLossPercentage",
													"type": "uint256"
												}
											],
											"internalType": "struct Tolerance",
											"name": "tolerance",
											"type": "tuple"
										},
										{
											"internalType": "uint256",
											"name": "createdDate",
											"type": "uint256"
										},
										{
											"internalType": "uint256",
											"name": "expiryDate",
											"type": "uint256"
										},
										{
											"internalType": "uint256",
											"name": "units",
											"type": "uint256"
										}
									],
									"internalType": "struct MPProduct",
									"name": "product",
									"type": "tuple"
								}
							],
							"internalType": "struct MPension",
							"name": "_mPension",
							"type": "tuple"
						}
					],
					"stateMutability": "view",
					"type": "function"
				},
				{
					"inputs": [],
					"name": "getPensionMetrics",
					"outputs": [
						{
							"components": [
								{
									"internalType": "uint256",
									"name": "contributions",
									"type": "uint256"
								},
								{
									"internalType": "uint256",
									"name": "lastContributionDate",
									"type": "uint256"
								},
								{
									"internalType": "uint256",
									"name": "lastPullDate",
									"type": "uint256"
								},
								{
									"internalType": "uint256",
									"name": "issuedPrincipal",
									"type": "uint256"
								},
								{
									"internalType": "bool",
									"name": "isInTreasury",
									"type": "bool"
								}
							],
							"internalType": "struct PensionMetrics",
							"name": "_metrics",
							"type": "tuple"
						}
					],
					"stateMutability": "view",
					"type": "function"
				},
				{
					"inputs": [],
					"name": "getStatus",
					"outputs": [
						{
							"internalType": "enum MPStatus",
							"name": "_status",
							"type": "uint8"
						}
					],
					"stateMutability": "view",
					"type": "function"
				},
				{
					"inputs": [
						{
							"internalType": "uint256",
							"name": "_treasuryId",
							"type": "uint256"
						}
					],
					"name": "getTx",
					"outputs": [
						{
							"internalType": "uint256[]",
							"name": "_txId",
							"type": "uint256[]"
						}
					],
					"stateMutability": "view",
					"type": "function"
				},
				{
					"inputs": [],
					"name": "getVersion",
					"outputs": [
						{
							"internalType": "uint256",
							"name": "_version",
							"type": "uint256"
						}
					],
					"stateMutability": "pure",
					"type": "function"
				},
				{
					"inputs": [],
					"name": "notifyChangeOfAddress",
					"outputs": [
						{
							"internalType": "bool",
							"name": "_acknowledged",
							"type": "bool"
						}
					],
					"stateMutability": "nonpayable",
					"type": "function"
				},
				{
					"inputs": [
						{
							"internalType": "uint256",
							"name": "_treasuryId",
							"type": "uint256"
						}
					],
					"name": "pull",
					"outputs": [
						{
							"internalType": "uint256",
							"name": "_principal",
							"type": "uint256"
						},
						{
							"internalType": "uint256",
							"name": "_txId",
							"type": "uint256"
						}
					],
					"stateMutability": "nonpayable",
					"type": "function"
				},
				{
					"inputs": [
						{
							"internalType": "uint256",
							"name": "_treasuryId",
							"type": "uint256"
						},
						{
							"internalType": "uint256",
							"name": "_principal",
							"type": "uint256"
						},
						{
							"internalType": "uint256",
							"name": "_earnings",
							"type": "uint256"
						}
					],
					"name": "push",
					"outputs": [
						{
							"internalType": "uint256",
							"name": "_txId",
							"type": "uint256"
						}
					],
					"stateMutability": "payable",
					"type": "function"
				},
				{
					"inputs": [
						{
							"internalType": "address",
							"name": "_erc20",
							"type": "address"
						}
					],
					"name": "withdraw",
					"outputs": [
						{
							"internalType": "uint256",
							"name": "_amount",
							"type": "uint256"
						}
					],
					"stateMutability": "nonpayable",
					"type": "function"
				}
			],
			"devdoc": {
				"kind": "dev",
				"methods": {},
				"version": 1
			},
			"evm": {
				"assembly": "    /* \"contracts/core/MPensionVault.sol\":619:10648  contract MPensionVault is IMPensionVault, IVersion { ... */\n  mstore(0x40, 0xc0)\n    /* \"contracts/core/MPensionVault.sol\":1903:1908  false */\n  0x00\n    /* \"contracts/core/MPensionVault.sol\":1889:1908  bool locked = false */\n  0x00\n  exp(0x0100, 0x00)\n  dup2\n  sload\n  dup2\n  0xff\n  mul\n  not\n  and\n  swap1\n  dup4\n  iszero\n  iszero\n  mul\n  or\n  swap1\n  sstore\n  pop\n    /* \"contracts/core/MPensionVault.sol\":2162:2417  constructor(address _register, uint256 _mPensionId) {... */\n  callvalue\n  dup1\n  iszero\n  tag_1\n  jumpi\n  revert(0x00, 0x00)\ntag_1:\n  pop\n  mload(0x40)\n  sub(codesize, bytecodeSize)\n  dup1\n  bytecodeSize\n  dup4\n  codecopy\n  dup2\n  dup2\n  add\n  0x40\n  mstore\n  dup2\n  add\n  swap1\n  tag_2\n  swap2\n  swap1\n  tag_3\n  jump\t// in\ntag_2:\n    /* \"contracts/core/MPensionVault.sol\":2246:2255  _register */\n  dup2\n    /* \"contracts/core/MPensionVault.sol\":2225:2233  register */\n  0x00\n  0x03\n    /* \"contracts/core/MPensionVault.sol\":2225:2256  register = IRegister(_register) */\n  0x0100\n  exp\n  dup2\n  sload\n  dup2\n  0xffffffffffffffffffffffffffffffffffffffff\n  mul\n  not\n  and\n  swap1\n  dup4\n  0xffffffffffffffffffffffffffffffffffffffff\n  and\n  mul\n  or\n  swap1\n  sstore\n  pop\n    /* \"contracts/core/MPensionVault.sol\":2280:2291  _mPensionId */\n  dup1\n    /* \"contracts/core/MPensionVault.sol\":2268:2291  pensionId = _mPensionId */\n  0x80\n  dup2\n  dup2\n  mstore\n  pop\n  pop\n    /* \"contracts/core/MPensionVault.sol\":2312:2325  MPStatus.OPEN */\n  0x00\n    /* \"contracts/core/MPensionVault.sol\":2303:2309  status */\n  0x00\n  0x01\n    /* \"contracts/core/MPensionVault.sol\":2303:2325  status = MPStatus.OPEN */\n  0x0100\n  exp\n  dup2\n  sload\n  dup2\n  0xff\n  mul\n  not\n  and\n  swap1\n  dup4\n  0x03\n  dup2\n  gt\n  iszero\n  tag_6\n  jumpi\n  tag_7\n  tag_8\n  jump\t// in\ntag_7:\ntag_6:\n  mul\n  or\n  swap1\n  sstore\n  pop\n    /* \"contracts/core/MPensionVault.sol\":2354:2377  MPScheduleStatus.GROWTH */\n  0x00\n    /* \"contracts/core/MPensionVault.sol\":2337:2351  scheduleStatus */\n  0x00\n  0x02\n    /* \"contracts/core/MPensionVault.sol\":2337:2377  scheduleStatus = MPScheduleStatus.GROWTH */\n  0x0100\n  exp\n  dup2\n  sload\n  dup2\n  0xff\n  mul\n  not\n  and\n  swap1\n  dup4\n  0x02\n  dup2\n  gt\n  iszero\n  tag_9\n  jumpi\n  tag_10\n  tag_8\n  jump\t// in\ntag_10:\ntag_9:\n  mul\n  or\n  swap1\n  sstore\n  pop\n    /* \"contracts/core/MPensionVault.sol\":2404:2408  this */\n  address\n    /* \"contracts/core/MPensionVault.sol\":2389:2409  self = address(this) */\n  0xffffffffffffffffffffffffffffffffffffffff\n  and\n  0xa0\n  dup2\n  0xffffffffffffffffffffffffffffffffffffffff\n  and\n  dup2\n  mstore\n  pop\n  pop\n    /* \"contracts/core/MPensionVault.sol\":2162:2417  constructor(address _register, uint256 _mPensionId) {... */\n  pop\n  pop\n    /* \"contracts/core/MPensionVault.sol\":619:10648  contract MPensionVault is IMPensionVault, IVersion { ... */\n  jump(tag_11)\n    /* \"#utility.yul\":88:205   */\ntag_13:\n    /* \"#utility.yul\":197:198   */\n  0x00\n    /* \"#utility.yul\":194:195   */\n  0x00\n    /* \"#utility.yul\":187:199   */\n  revert\n    /* \"#utility.yul\":334:460   */\ntag_15:\n    /* \"#utility.yul\":371:378   */\n  0x00\n    /* \"#utility.yul\":411:453   */\n  0xffffffffffffffffffffffffffffffffffffffff\n    /* \"#utility.yul\":404:409   */\n  dup3\n    /* \"#utility.yul\":400:454   */\n  and\n    /* \"#utility.yul\":389:454   */\n  swap1\n  pop\n    /* \"#utility.yul\":334:460   */\n  swap2\n  swap1\n  pop\n  jump\t// out\n    /* \"#utility.yul\":466:562   */\ntag_16:\n    /* \"#utility.yul\":503:510   */\n  0x00\n    /* \"#utility.yul\":532:556   */\n  tag_28\n    /* \"#utility.yul\":550:555   */\n  dup3\n    /* \"#utility.yul\":532:556   */\n  tag_15\n  jump\t// in\ntag_28:\n    /* \"#utility.yul\":521:556   */\n  swap1\n  pop\n    /* \"#utility.yul\":466:562   */\n  swap2\n  swap1\n  pop\n  jump\t// out\n    /* \"#utility.yul\":568:690   */\ntag_17:\n    /* \"#utility.yul\":641:665   */\n  tag_30\n    /* \"#utility.yul\":659:664   */\n  dup2\n    /* \"#utility.yul\":641:665   */\n  tag_16\n  jump\t// in\ntag_30:\n    /* \"#utility.yul\":634:639   */\n  dup2\n    /* \"#utility.yul\":631:666   */\n  eq\n    /* \"#utility.yul\":621:684   */\n  tag_31\n  jumpi\n    /* \"#utility.yul\":680:681   */\n  0x00\n    /* \"#utility.yul\":677:678   */\n  0x00\n    /* \"#utility.yul\":670:682   */\n  revert\n    /* \"#utility.yul\":621:684   */\ntag_31:\n    /* \"#utility.yul\":568:690   */\n  pop\n  jump\t// out\n    /* \"#utility.yul\":696:839   */\ntag_18:\n    /* \"#utility.yul\":753:758   */\n  0x00\n    /* \"#utility.yul\":784:790   */\n  dup2\n    /* \"#utility.yul\":778:791   */\n  mload\n    /* \"#utility.yul\":769:791   */\n  swap1\n  pop\n    /* \"#utility.yul\":800:833   */\n  tag_33\n    /* \"#utility.yul\":827:832   */\n  dup2\n    /* \"#utility.yul\":800:833   */\n  tag_17\n  jump\t// in\ntag_33:\n    /* \"#utility.yul\":696:839   */\n  swap3\n  swap2\n  pop\n  pop\n  jump\t// out\n    /* \"#utility.yul\":845:922   */\ntag_19:\n    /* \"#utility.yul\":882:889   */\n  0x00\n    /* \"#utility.yul\":911:916   */\n  dup2\n    /* \"#utility.yul\":900:916   */\n  swap1\n  pop\n    /* \"#utility.yul\":845:922   */\n  swap2\n  swap1\n  pop\n  jump\t// out\n    /* \"#utility.yul\":928:1050   */\ntag_20:\n    /* \"#utility.yul\":1001:1025   */\n  tag_36\n    /* \"#utility.yul\":1019:1024   */\n  dup2\n    /* \"#utility.yul\":1001:1025   */\n  tag_19\n  jump\t// in\ntag_36:\n    /* \"#utility.yul\":994:999   */\n  dup2\n    /* \"#utility.yul\":991:1026   */\n  eq\n    /* \"#utility.yul\":981:1044   */\n  tag_37\n  jumpi\n    /* \"#utility.yul\":1040:1041   */\n  0x00\n    /* \"#utility.yul\":1037:1038   */\n  0x00\n    /* \"#utility.yul\":1030:1042   */\n  revert\n    /* \"#utility.yul\":981:1044   */\ntag_37:\n    /* \"#utility.yul\":928:1050   */\n  pop\n  jump\t// out\n    /* \"#utility.yul\":1056:1199   */\ntag_21:\n    /* \"#utility.yul\":1113:1118   */\n  0x00\n    /* \"#utility.yul\":1144:1150   */\n  dup2\n    /* \"#utility.yul\":1138:1151   */\n  mload\n    /* \"#utility.yul\":1129:1151   */\n  swap1\n  pop\n    /* \"#utility.yul\":1160:1193   */\n  tag_39\n    /* \"#utility.yul\":1187:1192   */\n  dup2\n    /* \"#utility.yul\":1160:1193   */\n  tag_20\n  jump\t// in\ntag_39:\n    /* \"#utility.yul\":1056:1199   */\n  swap3\n  swap2\n  pop\n  pop\n  jump\t// out\n    /* \"#utility.yul\":1205:1712   */\ntag_3:\n    /* \"#utility.yul\":1284:1290   */\n  0x00\n    /* \"#utility.yul\":1292:1298   */\n  0x00\n    /* \"#utility.yul\":1341:1343   */\n  0x40\n    /* \"#utility.yul\":1329:1338   */\n  dup4\n    /* \"#utility.yul\":1320:1327   */\n  dup6\n    /* \"#utility.yul\":1316:1339   */\n  sub\n    /* \"#utility.yul\":1312:1344   */\n  slt\n    /* \"#utility.yul\":1309:1428   */\n  iszero\n  tag_41\n  jumpi\n    /* \"#utility.yul\":1347:1426   */\n  tag_42\n  tag_13\n  jump\t// in\ntag_42:\n    /* \"#utility.yul\":1309:1428   */\ntag_41:\n    /* \"#utility.yul\":1467:1468   */\n  0x00\n    /* \"#utility.yul\":1492:1556   */\n  tag_43\n    /* \"#utility.yul\":1548:1555   */\n  dup6\n    /* \"#utility.yul\":1539:1545   */\n  dup3\n    /* \"#utility.yul\":1528:1537   */\n  dup7\n    /* \"#utility.yul\":1524:1546   */\n  add\n    /* \"#utility.yul\":1492:1556   */\n  tag_18\n  jump\t// in\ntag_43:\n    /* \"#utility.yul\":1482:1556   */\n  swap3\n  pop\n    /* \"#utility.yul\":1438:1566   */\n  pop\n    /* \"#utility.yul\":1605:1607   */\n  0x20\n    /* \"#utility.yul\":1631:1695   */\n  tag_44\n    /* \"#utility.yul\":1687:1694   */\n  dup6\n    /* \"#utility.yul\":1678:1684   */\n  dup3\n    /* \"#utility.yul\":1667:1676   */\n  dup7\n    /* \"#utility.yul\":1663:1685   */\n  add\n    /* \"#utility.yul\":1631:1695   */\n  tag_21\n  jump\t// in\ntag_44:\n    /* \"#utility.yul\":1621:1695   */\n  swap2\n  pop\n    /* \"#utility.yul\":1576:1705   */\n  pop\n    /* \"#utility.yul\":1205:1712   */\n  swap3\n  pop\n  swap3\n  swap1\n  pop\n  jump\t// out\n    /* \"#utility.yul\":1718:1898   */\ntag_8:\n    /* \"#utility.yul\":1766:1843   */\n  0x4e487b7100000000000000000000000000000000000000000000000000000000\n    /* \"#utility.yul\":1763:1764   */\n  0x00\n    /* \"#utility.yul\":1756:1844   */\n  mstore\n    /* \"#utility.yul\":1863:1867   */\n  0x21\n    /* \"#utility.yul\":1860:1861   */\n  0x04\n    /* \"#utility.yul\":1853:1868   */\n  mstore\n    /* \"#utility.yul\":1887:1891   */\n  0x24\n    /* \"#utility.yul\":1884:1885   */\n  0x00\n    /* \"#utility.yul\":1877:1892   */\n  revert\n    /* \"contracts/core/MPensionVault.sol\":619:10648  contract MPensionVault is IMPensionVault, IVersion { ... */\ntag_11:\n  mload(0x80)\n  mload(0xa0)\n  codecopy(0x00, dataOffset(sub_0), dataSize(sub_0))\n  0x00\n  assignImmutable(\"0xdd5c0e85d12671451a2813ab72960178ae895d157199d23818aec59b00ee9e8b\")\n  0x00\n  assignImmutable(\"0x1a65db4f2ea95c4a38ef67ec9eb02656311df27569f1d2e5f15fb9ffe8498721\")\n  return(0x00, dataSize(sub_0))\nstop\n\nsub_0: assembly {\n        /* \"contracts/core/MPensionVault.sol\":619:10648  contract MPensionVault is IMPensionVault, IVersion { ... */\n      mstore(0x40, 0x80)\n      jumpi(tag_1, lt(calldatasize, 0x04))\n      shr(0xe0, calldataload(0x00))\n      dup1\n      0x73488018\n      gt\n      tag_16\n      jumpi\n      dup1\n      0xb8c89338\n      gt\n      tag_17\n      jumpi\n      dup1\n      0xb8c89338\n      eq\n      tag_12\n      jumpi\n      dup1\n      0xc1cbbca7\n      eq\n      tag_13\n      jumpi\n      dup1\n      0xcde4c10c\n      eq\n      tag_14\n      jumpi\n      dup1\n      0xe77ef21f\n      eq\n      tag_15\n      jumpi\n      jump(tag_1)\n    tag_17:\n      dup1\n      0x73488018\n      eq\n      tag_9\n      jumpi\n      dup1\n      0x805275a2\n      eq\n      tag_10\n      jumpi\n      dup1\n      0x9f08c755\n      eq\n      tag_11\n      jumpi\n      jump(tag_1)\n    tag_16:\n      dup1\n      0x43d726d6\n      gt\n      tag_18\n      jumpi\n      dup1\n      0x43d726d6\n      eq\n      tag_5\n      jumpi\n      dup1\n      0x4d0392a8\n      eq\n      tag_6\n      jumpi\n      dup1\n      0x4e69d560\n      eq\n      tag_7\n      jumpi\n      dup1\n      0x51cff8d9\n      eq\n      tag_8\n      jumpi\n      jump(tag_1)\n    tag_18:\n      dup1\n      0x0d8e6e2c\n      eq\n      tag_2\n      jumpi\n      dup1\n      0x12065fe0\n      eq\n      tag_3\n      jumpi\n      dup1\n      0x17d7de7c\n      eq\n      tag_4\n      jumpi\n    tag_1:\n      revert(0x00, 0x00)\n        /* \"contracts/core/MPensionVault.sol\":2528:2625  function getVersion() pure external returns (uint256 _version){ ... */\n    tag_2:\n      callvalue\n      dup1\n      iszero\n      tag_19\n      jumpi\n      revert(0x00, 0x00)\n    tag_19:\n      pop\n      tag_20\n      tag_21\n      jump\t// in\n    tag_20:\n      mload(0x40)\n      tag_22\n      swap2\n      swap1\n      tag_23\n      jump\t// in\n    tag_22:\n      mload(0x40)\n      dup1\n      swap2\n      sub\n      swap1\n      return\n        /* \"contracts/core/MPensionVault.sol\":2859:2962  function getBalance() view external returns (uint256 _balance){... */\n    tag_3:\n      callvalue\n      dup1\n      iszero\n      tag_24\n      jumpi\n      revert(0x00, 0x00)\n    tag_24:\n      pop\n      tag_25\n      tag_26\n      jump\t// in\n    tag_25:\n      mload(0x40)\n      tag_27\n      swap2\n      swap1\n      tag_23\n      jump\t// in\n    tag_27:\n      mload(0x40)\n      dup1\n      swap2\n      sub\n      swap1\n      return\n        /* \"contracts/core/MPensionVault.sol\":2425:2520  function getName() pure external returns (string memory _name) { ... */\n    tag_4:\n      callvalue\n      dup1\n      iszero\n      tag_28\n      jumpi\n      revert(0x00, 0x00)\n    tag_28:\n      pop\n      tag_29\n      tag_30\n      jump\t// in\n    tag_29:\n      mload(0x40)\n      tag_31\n      swap2\n      swap1\n      tag_32\n      jump\t// in\n    tag_31:\n      mload(0x40)\n      dup1\n      swap2\n      sub\n      swap1\n      return\n        /* \"contracts/core/MPensionVault.sol\":5480:6338  function close() external adminOnly semaphore returns (uint256 _txId){... */\n    tag_5:\n      callvalue\n      dup1\n      iszero\n      tag_33\n      jumpi\n      revert(0x00, 0x00)\n    tag_33:\n      pop\n      tag_34\n      tag_35\n      jump\t// in\n    tag_34:\n      mload(0x40)\n      tag_36\n      swap2\n      swap1\n      tag_23\n      jump\t// in\n    tag_36:\n      mload(0x40)\n      dup1\n      swap2\n      sub\n      swap1\n      return\n        /* \"contracts/core/MPensionVault.sol\":6916:7919  function pull(uint256 _treasuryId) external semaphore treasuryOnly returns (uint256 _principal, uint256 _txId){... */\n    tag_6:\n      callvalue\n      dup1\n      iszero\n      tag_37\n      jumpi\n      revert(0x00, 0x00)\n    tag_37:\n      pop\n      tag_38\n      0x04\n      dup1\n      calldatasize\n      sub\n      dup2\n      add\n      swap1\n      tag_39\n      swap2\n      swap1\n      tag_40\n      jump\t// in\n    tag_39:\n      tag_41\n      jump\t// in\n    tag_38:\n      mload(0x40)\n      tag_42\n      swap3\n      swap2\n      swap1\n      tag_43\n      jump\t// in\n    tag_42:\n      mload(0x40)\n      dup1\n      swap2\n      sub\n      swap1\n      return\n        /* \"contracts/core/MPensionVault.sol\":2633:2728  function getStatus() view external returns (MPStatus _status) {... */\n    tag_7:\n      callvalue\n      dup1\n      iszero\n      tag_44\n      jumpi\n      revert(0x00, 0x00)\n    tag_44:\n      pop\n      tag_45\n      tag_46\n      jump\t// in\n    tag_45:\n      mload(0x40)\n      tag_47\n      swap2\n      swap1\n      tag_48\n      jump\t// in\n    tag_47:\n      mload(0x40)\n      dup1\n      swap2\n      sub\n      swap1\n      return\n        /* \"contracts/core/MPensionVault.sol\":6346:6877  function withdraw(address _erc20) adminOnly external returns (uint256 _amount) {... */\n    tag_8:\n      callvalue\n      dup1\n      iszero\n      tag_49\n      jumpi\n      revert(0x00, 0x00)\n    tag_49:\n      pop\n      tag_50\n      0x04\n      dup1\n      calldatasize\n      sub\n      dup2\n      add\n      swap1\n      tag_51\n      swap2\n      swap1\n      tag_52\n      jump\t// in\n    tag_51:\n      tag_53\n      jump\t// in\n    tag_50:\n      mload(0x40)\n      tag_54\n      swap2\n      swap1\n      tag_23\n      jump\t// in\n    tag_54:\n      mload(0x40)\n      dup1\n      swap2\n      sub\n      swap1\n      return\n        /* \"contracts/core/MPensionVault.sol\":2736:2851  function getPension() view external returns (MPension memory _mPension){... */\n    tag_9:\n      callvalue\n      dup1\n      iszero\n      tag_55\n      jumpi\n      revert(0x00, 0x00)\n    tag_55:\n      pop\n      tag_56\n      tag_57\n      jump\t// in\n    tag_56:\n      mload(0x40)\n      tag_58\n      swap2\n      swap1\n      tag_59\n      jump\t// in\n    tag_58:\n      mload(0x40)\n      dup1\n      swap2\n      sub\n      swap1\n      return\n        /* \"contracts/core/MPensionVault.sol\":2970:3088  function getPensionMetrics() view external returns (PensionMetrics memory _metrics) {... */\n    tag_10:\n      callvalue\n      dup1\n      iszero\n      tag_60\n      jumpi\n      revert(0x00, 0x00)\n    tag_60:\n      pop\n      tag_61\n      tag_62\n      jump\t// in\n    tag_61:\n      mload(0x40)\n      tag_63\n      swap2\n      swap1\n      tag_64\n      jump\t// in\n    tag_63:\n      mload(0x40)\n      dup1\n      swap2\n      sub\n      swap1\n      return\n        /* \"contracts/core/MPensionVault.sol\":7928:9339  function push(uint256 _treasuryId, uint256 _principal, uint256 _earnings)  payable external semaphore treasuryOnly returns (uint256 _txId){... */\n    tag_11:\n      tag_65\n      0x04\n      dup1\n      calldatasize\n      sub\n      dup2\n      add\n      swap1\n      tag_66\n      swap2\n      swap1\n      tag_67\n      jump\t// in\n    tag_66:\n      tag_68\n      jump\t// in\n    tag_65:\n      mload(0x40)\n      tag_69\n      swap2\n      swap1\n      tag_23\n      jump\t// in\n    tag_69:\n      mload(0x40)\n      dup1\n      swap2\n      sub\n      swap1\n      return\n        /* \"contracts/core/MPensionVault.sol\":3096:3235  function getTx(uint256 _treasuryId) view external returns (uint256 [] memory _txId){... */\n    tag_12:\n      callvalue\n      dup1\n      iszero\n      tag_70\n      jumpi\n      revert(0x00, 0x00)\n    tag_70:\n      pop\n      tag_71\n      0x04\n      dup1\n      calldatasize\n      sub\n      dup2\n      add\n      swap1\n      tag_72\n      swap2\n      swap1\n      tag_40\n      jump\t// in\n    tag_72:\n      tag_73\n      jump\t// in\n    tag_71:\n      mload(0x40)\n      tag_74\n      swap2\n      swap1\n      tag_75\n      jump\t// in\n    tag_74:\n      mload(0x40)\n      dup1\n      swap2\n      sub\n      swap1\n      return\n        /* \"contracts/core/MPensionVault.sol\":3243:4421  function contribute(uint256 _amount) payable external returns (uint256 _txId){... */\n    tag_13:\n      tag_76\n      0x04\n      dup1\n      calldatasize\n      sub\n      dup2\n      add\n      swap1\n      tag_77\n      swap2\n      swap1\n      tag_40\n      jump\t// in\n    tag_77:\n      tag_78\n      jump\t// in\n    tag_76:\n      mload(0x40)\n      tag_79\n      swap2\n      swap1\n      tag_23\n      jump\t// in\n    tag_79:\n      mload(0x40)\n      dup1\n      swap2\n      sub\n      swap1\n      return\n        /* \"contracts/core/MPensionVault.sol\":9347:9525  function notifyChangeOfAddress() external adminOnly returns (bool _acknowledged) { ... */\n    tag_14:\n      callvalue\n      dup1\n      iszero\n      tag_80\n      jumpi\n      revert(0x00, 0x00)\n    tag_80:\n      pop\n      tag_81\n      tag_82\n      jump\t// in\n    tag_81:\n      mload(0x40)\n      tag_83\n      swap2\n      swap1\n      tag_84\n      jump\t// in\n    tag_83:\n      mload(0x40)\n      dup1\n      swap2\n      sub\n      swap1\n      return\n        /* \"contracts/core/MPensionVault.sol\":4429:5472  function drawdown() external ownerOnly semaphore returns (uint256 _txId){... */\n    tag_15:\n      callvalue\n      dup1\n      iszero\n      tag_85\n      jumpi\n      revert(0x00, 0x00)\n    tag_85:\n      pop\n      tag_86\n      tag_87\n      jump\t// in\n    tag_86:\n      mload(0x40)\n      tag_88\n      swap2\n      swap1\n      tag_23\n      jump\t// in\n    tag_88:\n      mload(0x40)\n      dup1\n      swap2\n      sub\n      swap1\n      return\n        /* \"contracts/core/MPensionVault.sol\":2528:2625  function getVersion() pure external returns (uint256 _version){ ... */\n    tag_21:\n        /* \"contracts/core/MPensionVault.sol\":2573:2589  uint256 _version */\n      0x00\n        /* \"contracts/core/MPensionVault.sol\":1317:1319  18 */\n      0x12\n        /* \"contracts/core/MPensionVault.sol\":2602:2616  return version */\n      swap1\n      pop\n        /* \"contracts/core/MPensionVault.sol\":2528:2625  function getVersion() pure external returns (uint256 _version){ ... */\n      swap1\n      jump\t// out\n        /* \"contracts/core/MPensionVault.sol\":2859:2962  function getBalance() view external returns (uint256 _balance){... */\n    tag_26:\n        /* \"contracts/core/MPensionVault.sol\":2904:2920  uint256 _balance */\n      0x00\n        /* \"contracts/core/MPensionVault.sol\":2939:2953  pensionBalance */\n      sload(0x01)\n        /* \"contracts/core/MPensionVault.sol\":2932:2953  return pensionBalance */\n      swap1\n      pop\n        /* \"contracts/core/MPensionVault.sol\":2859:2962  function getBalance() view external returns (uint256 _balance){... */\n      swap1\n      jump\t// out\n        /* \"contracts/core/MPensionVault.sol\":2425:2520  function getName() pure external returns (string memory _name) { ... */\n    tag_30:\n        /* \"contracts/core/MPensionVault.sol\":2467:2486  string memory _name */\n      0x60\n        /* \"contracts/core/MPensionVault.sol\":2507:2511  name */\n      mload(0x40)\n      dup1\n      0x40\n      add\n      0x40\n      mstore\n      dup1\n      0x17\n      dup2\n      mstore\n      0x20\n      add\n      0x4d4544414c4c494f4e5f50454e53494f4e5f5641554c54000000000000000000\n      dup2\n      mstore\n      pop\n        /* \"contracts/core/MPensionVault.sol\":2500:2511  return name */\n      swap1\n      pop\n        /* \"contracts/core/MPensionVault.sol\":2425:2520  function getName() pure external returns (string memory _name) { ... */\n      swap1\n      jump\t// out\n        /* \"contracts/core/MPensionVault.sol\":5480:6338  function close() external adminOnly semaphore returns (uint256 _txId){... */\n    tag_35:\n        /* \"contracts/core/MPensionVault.sol\":5535:5548  uint256 _txId */\n      0x00\n        /* \"contracts/core/MPensionVault.sol\":1010:1018  register */\n      0x00\n      0x03\n      swap1\n      sload\n      swap1\n      0x0100\n      exp\n      swap1\n      div\n      0xffffffffffffffffffffffffffffffffffffffff\n      and\n        /* \"contracts/core/MPensionVault.sol\":1010:1029  register.getAddress */\n      0xffffffffffffffffffffffffffffffffffffffff\n      and\n      0xbf40fac1\n        /* \"contracts/core/MPensionVault.sol\":1030:1046  PENSION_ADMIN_CA */\n      mload(0x40)\n      dup1\n      0x40\n      add\n      0x40\n      mstore\n      dup1\n      0x11\n      dup2\n      mstore\n      0x20\n      add\n      0x52455345525645445f4d505f41444d494e000000000000000000000000000000\n      dup2\n      mstore\n      pop\n        /* \"contracts/core/MPensionVault.sol\":1010:1047  register.getAddress(PENSION_ADMIN_CA) */\n      mload(0x40)\n      dup3\n      0xffffffff\n      and\n      0xe0\n      shl\n      dup2\n      mstore\n      0x04\n      add\n      tag_93\n      swap2\n      swap1\n      tag_32\n      jump\t// in\n    tag_93:\n      0x20\n      mload(0x40)\n      dup1\n      dup4\n      sub\n      dup2\n      dup7\n      gas\n      staticcall\n      iszero\n      dup1\n      iszero\n      tag_95\n      jumpi\n      returndatacopy(0x00, 0x00, returndatasize)\n      revert(0x00, returndatasize)\n    tag_95:\n      pop\n      pop\n      pop\n      pop\n      mload(0x40)\n      returndatasize\n      not(0x1f)\n      0x1f\n      dup3\n      add\n      and\n      dup3\n      add\n      dup1\n      0x40\n      mstore\n      pop\n      dup2\n      add\n      swap1\n      tag_96\n      swap2\n      swap1\n      tag_97\n      jump\t// in\n    tag_96:\n        /* \"contracts/core/MPensionVault.sol\":996:1047  msg.sender == register.getAddress(PENSION_ADMIN_CA) */\n      0xffffffffffffffffffffffffffffffffffffffff\n      and\n        /* \"contracts/core/MPensionVault.sol\":996:1006  msg.sender */\n      caller\n        /* \"contracts/core/MPensionVault.sol\":996:1047  msg.sender == register.getAddress(PENSION_ADMIN_CA) */\n      0xffffffffffffffffffffffffffffffffffffffff\n      and\n      eq\n        /* \"contracts/core/MPensionVault.sol\":988:1070  require(msg.sender == register.getAddress(PENSION_ADMIN_CA), \"Pension Admin Only\") */\n      tag_98\n      jumpi\n      mload(0x40)\n      0x08c379a000000000000000000000000000000000000000000000000000000000\n      dup2\n      mstore\n      0x04\n      add\n      tag_99\n      swap1\n      tag_100\n      jump\t// in\n    tag_99:\n      mload(0x40)\n      dup1\n      swap2\n      sub\n      swap1\n      revert\n    tag_98:\n        /* \"contracts/core/MPensionVault.sol\":720:726  locked */\n      0x00\n      0x00\n      swap1\n      sload\n      swap1\n      0x0100\n      exp\n      swap1\n      div\n      0xff\n      and\n        /* \"contracts/core/MPensionVault.sol\":719:726  !locked */\n      iszero\n        /* \"contracts/core/MPensionVault.sol\":711:743  require(!locked, \"vault locked\") */\n      tag_102\n      jumpi\n      mload(0x40)\n      0x08c379a000000000000000000000000000000000000000000000000000000000\n      dup2\n      mstore\n      0x04\n      add\n      tag_103\n      swap1\n      tag_104\n      jump\t// in\n    tag_103:\n      mload(0x40)\n      dup1\n      swap2\n      sub\n      swap1\n      revert\n    tag_102:\n        /* \"contracts/core/MPensionVault.sol\":772:787  MPStatus.CLOSED */\n      0x02\n        /* \"contracts/core/MPensionVault.sol\":762:787  status != MPStatus.CLOSED */\n      0x03\n      dup2\n      gt\n      iszero\n      tag_105\n      jumpi\n      tag_106\n      tag_107\n      jump\t// in\n    tag_106:\n    tag_105:\n        /* \"contracts/core/MPensionVault.sol\":762:768  status */\n      0x00\n      0x01\n      swap1\n      sload\n      swap1\n      0x0100\n      exp\n      swap1\n      div\n      0xff\n      and\n        /* \"contracts/core/MPensionVault.sol\":762:787  status != MPStatus.CLOSED */\n      0x03\n      dup2\n      gt\n      iszero\n      tag_108\n      jumpi\n      tag_109\n      tag_107\n      jump\t// in\n    tag_109:\n    tag_108:\n      sub\n        /* \"contracts/core/MPensionVault.sol\":754:804  require(status != MPStatus.CLOSED, \"vault closed\") */\n      tag_110\n      jumpi\n      mload(0x40)\n      0x08c379a000000000000000000000000000000000000000000000000000000000\n      dup2\n      mstore\n      0x04\n      add\n      tag_111\n      swap1\n      tag_112\n      jump\t// in\n    tag_111:\n      mload(0x40)\n      dup1\n      swap2\n      sub\n      swap1\n      revert\n    tag_110:\n        /* \"contracts/core/MPensionVault.sol\":5560:5584  MPension memory pension_ */\n      0x00\n        /* \"contracts/core/MPensionVault.sol\":5587:5607  getPensionInternal() */\n      tag_114\n        /* \"contracts/core/MPensionVault.sol\":5587:5605  getPensionInternal */\n      tag_115\n        /* \"contracts/core/MPensionVault.sol\":5587:5607  getPensionInternal() */\n      jump\t// in\n    tag_114:\n        /* \"contracts/core/MPensionVault.sol\":5560:5607  MPension memory pension_ = getPensionInternal() */\n      swap1\n      pop\n        /* \"contracts/core/MPensionVault.sol\":5637:5652  MPStatus.CLOSED */\n      0x02\n        /* \"contracts/core/MPensionVault.sol\":5627:5652  status != MPStatus.CLOSED */\n      0x03\n      dup2\n      gt\n      iszero\n      tag_116\n      jumpi\n      tag_117\n      tag_107\n      jump\t// in\n    tag_117:\n    tag_116:\n        /* \"contracts/core/MPensionVault.sol\":5627:5633  status */\n      0x00\n      0x01\n      swap1\n      sload\n      swap1\n      0x0100\n      exp\n      swap1\n      div\n      0xff\n      and\n        /* \"contracts/core/MPensionVault.sol\":5627:5652  status != MPStatus.CLOSED */\n      0x03\n      dup2\n      gt\n      iszero\n      tag_118\n      jumpi\n      tag_119\n      tag_107\n      jump\t// in\n    tag_119:\n    tag_118:\n      sub\n        /* \"contracts/core/MPensionVault.sol\":5619:5671  require(status != MPStatus.CLOSED, \"pension closed\") */\n      tag_120\n      jumpi\n      mload(0x40)\n      0x08c379a000000000000000000000000000000000000000000000000000000000\n      dup2\n      mstore\n      0x04\n      add\n      tag_121\n      swap1\n      tag_122\n      jump\t// in\n    tag_121:\n      mload(0x40)\n      dup1\n      swap2\n      sub\n      swap1\n      revert\n    tag_120:\n        /* \"contracts/core/MPensionVault.sol\":5692:5699  metrics */\n      0x03\n        /* \"contracts/core/MPensionVault.sol\":5692:5712  metrics.isInTreasury */\n      0x04\n      add\n      0x00\n      swap1\n      sload\n      swap1\n      0x0100\n      exp\n      swap1\n      div\n      0xff\n      and\n        /* \"contracts/core/MPensionVault.sol\":5691:5712  !metrics.isInTreasury */\n      iszero\n        /* \"contracts/core/MPensionVault.sol\":5683:5736  require(!metrics.isInTreasury, \"pension in treasury\") */\n      tag_123\n      jumpi\n      mload(0x40)\n      0x08c379a000000000000000000000000000000000000000000000000000000000\n      dup2\n      mstore\n      0x04\n      add\n      tag_124\n      swap1\n      tag_125\n      jump\t// in\n    tag_124:\n      mload(0x40)\n      dup1\n      swap2\n      sub\n      swap1\n      revert\n    tag_123:\n        /* \"contracts/core/MPensionVault.sol\":5756:5760  true */\n      0x01\n        /* \"contracts/core/MPensionVault.sol\":5747:5753  locked */\n      0x00\n      0x00\n        /* \"contracts/core/MPensionVault.sol\":5747:5760  locked = true */\n      0x0100\n      exp\n      dup2\n      sload\n      dup2\n      0xff\n      mul\n      not\n      and\n      swap1\n      dup4\n      iszero\n      iszero\n      mul\n      or\n      swap1\n      sstore\n      pop\n        /* \"contracts/core/MPensionVault.sol\":5781:5796  MPStatus.CLOSED */\n      0x02\n        /* \"contracts/core/MPensionVault.sol\":5772:5778  status */\n      0x00\n      0x01\n        /* \"contracts/core/MPensionVault.sol\":5772:5796  status = MPStatus.CLOSED */\n      0x0100\n      exp\n      dup2\n      sload\n      dup2\n      0xff\n      mul\n      not\n      and\n      swap1\n      dup4\n      0x03\n      dup2\n      gt\n      iszero\n      tag_126\n      jumpi\n      tag_127\n      tag_107\n      jump\t// in\n    tag_127:\n    tag_126:\n      mul\n      or\n      swap1\n      sstore\n      pop\n        /* \"contracts/core/MPensionVault.sol\":5808:5827  uint256 settlement_ */\n      0x00\n        /* \"contracts/core/MPensionVault.sol\":5830:5831  0 */\n      0x00\n        /* \"contracts/core/MPensionVault.sol\":5808:5831  uint256 settlement_ = 0 */\n      swap1\n      pop\n        /* \"contracts/core/MPensionVault.sol\":1354:1396  0xEeeeeEeeeEeEeeEeEeEeeEEEeeeeEeeeeeeeEEeE */\n      0xeeeeeeeeeeeeeeeeeeeeeeeeeeeeeeeeeeeeeeee\n        /* \"contracts/core/MPensionVault.sol\":5845:5877  pension_.product.erc20 == NATIVE */\n      0xffffffffffffffffffffffffffffffffffffffff\n      and\n        /* \"contracts/core/MPensionVault.sol\":5845:5853  pension_ */\n      dup3\n        /* \"contracts/core/MPensionVault.sol\":5845:5861  pension_.product */\n      0xc0\n      add\n      mload\n        /* \"contracts/core/MPensionVault.sol\":5845:5867  pension_.product.erc20 */\n      0x40\n      add\n      mload\n        /* \"contracts/core/MPensionVault.sol\":5845:5877  pension_.product.erc20 == NATIVE */\n      0xffffffffffffffffffffffffffffffffffffffff\n      and\n      sub\n        /* \"contracts/core/MPensionVault.sol\":5842:6192  if(pension_.product.erc20 == NATIVE) {... */\n      tag_128\n      jumpi\n        /* \"contracts/core/MPensionVault.sol\":5908:5912  self */\n      immutable(\"0xdd5c0e85d12671451a2813ab72960178ae895d157199d23818aec59b00ee9e8b\")\n        /* \"contracts/core/MPensionVault.sol\":5908:5920  self.balance */\n      0xffffffffffffffffffffffffffffffffffffffff\n      and\n      balance\n        /* \"contracts/core/MPensionVault.sol\":5894:5920  settlement_ = self.balance */\n      swap1\n      pop\n        /* \"contracts/core/MPensionVault.sol\":5944:5952  pension_ */\n      dup2\n        /* \"contracts/core/MPensionVault.sol\":5944:5958  pension_.owner */\n      0x40\n      add\n      mload\n        /* \"contracts/core/MPensionVault.sol\":5936:5968  payable(pension_.owner).transfer */\n      0xffffffffffffffffffffffffffffffffffffffff\n      and\n        /* \"contracts/core/MPensionVault.sol\":5936:5981  payable(pension_.owner).transfer(settlement_) */\n      0x08fc\n        /* \"contracts/core/MPensionVault.sol\":5969:5980  settlement_ */\n      dup3\n        /* \"contracts/core/MPensionVault.sol\":5936:5981  payable(pension_.owner).transfer(settlement_) */\n      swap1\n      dup2\n      iszero\n      mul\n      swap1\n      mload(0x40)\n      0x00\n      mload(0x40)\n      dup1\n      dup4\n      sub\n      dup2\n      dup6\n      dup9\n      dup9\n      call\n      swap4\n      pop\n      pop\n      pop\n      pop\n      iszero\n      dup1\n      iszero\n      tag_130\n      jumpi\n      returndatacopy(0x00, 0x00, returndatasize)\n      revert(0x00, returndatasize)\n    tag_130:\n      pop\n        /* \"contracts/core/MPensionVault.sol\":5842:6192  if(pension_.product.erc20 == NATIVE) {... */\n      jump(tag_131)\n    tag_128:\n        /* \"contracts/core/MPensionVault.sol\":6023:6036  IERC20 erc20_ */\n      0x00\n        /* \"contracts/core/MPensionVault.sol\":6046:6054  pension_ */\n      dup3\n        /* \"contracts/core/MPensionVault.sol\":6046:6062  pension_.product */\n      0xc0\n      add\n      mload\n        /* \"contracts/core/MPensionVault.sol\":6046:6068  pension_.product.erc20 */\n      0x40\n      add\n      mload\n        /* \"contracts/core/MPensionVault.sol\":6023:6069  IERC20 erc20_ = IERC20(pension_.product.erc20) */\n      swap1\n      pop\n        /* \"contracts/core/MPensionVault.sol\":6098:6104  erc20_ */\n      dup1\n        /* \"contracts/core/MPensionVault.sol\":6098:6114  erc20_.balanceOf */\n      0xffffffffffffffffffffffffffffffffffffffff\n      and\n      0x70a08231\n        /* \"contracts/core/MPensionVault.sol\":6115:6119  self */\n      immutable(\"0xdd5c0e85d12671451a2813ab72960178ae895d157199d23818aec59b00ee9e8b\")\n        /* \"contracts/core/MPensionVault.sol\":6098:6120  erc20_.balanceOf(self) */\n      mload(0x40)\n      dup3\n      0xffffffff\n      and\n      0xe0\n      shl\n      dup2\n      mstore\n      0x04\n      add\n      tag_132\n      swap2\n      swap1\n      tag_133\n      jump\t// in\n    tag_132:\n      0x20\n      mload(0x40)\n      dup1\n      dup4\n      sub\n      dup2\n      dup7\n      gas\n      staticcall\n      iszero\n      dup1\n      iszero\n      tag_135\n      jumpi\n      returndatacopy(0x00, 0x00, returndatasize)\n      revert(0x00, returndatasize)\n    tag_135:\n      pop\n      pop\n      pop\n      pop\n      mload(0x40)\n      returndatasize\n      not(0x1f)\n      0x1f\n      dup3\n      add\n      and\n      dup3\n      add\n      dup1\n      0x40\n      mstore\n      pop\n      dup2\n      add\n      swap1\n      tag_136\n      swap2\n      swap1\n      tag_137\n      jump\t// in\n    tag_136:\n        /* \"contracts/core/MPensionVault.sol\":6084:6120  settlement_ = erc20_.balanceOf(self) */\n      swap2\n      pop\n        /* \"contracts/core/MPensionVault.sol\":6136:6142  erc20_ */\n      dup1\n        /* \"contracts/core/MPensionVault.sol\":6136:6151  erc20_.transfer */\n      0xffffffffffffffffffffffffffffffffffffffff\n      and\n      0xa9059cbb\n        /* \"contracts/core/MPensionVault.sol\":6152:6160  pension_ */\n      dup5\n        /* \"contracts/core/MPensionVault.sol\":6152:6166  pension_.owner */\n      0x40\n      add\n      mload\n        /* \"contracts/core/MPensionVault.sol\":6168:6179  settlement_ */\n      dup5\n        /* \"contracts/core/MPensionVault.sol\":6136:6180  erc20_.transfer(pension_.owner, settlement_) */\n      mload(0x40)\n      dup4\n      0xffffffff\n      and\n      0xe0\n      shl\n      dup2\n      mstore\n      0x04\n      add\n      tag_138\n      swap3\n      swap2\n      swap1\n      tag_139\n      jump\t// in\n    tag_138:\n      0x20\n      mload(0x40)\n      dup1\n      dup4\n      sub\n      dup2\n      0x00\n      dup8\n      gas\n      call\n      iszero\n      dup1\n      iszero\n      tag_141\n      jumpi\n      returndatacopy(0x00, 0x00, returndatasize)\n      revert(0x00, returndatasize)\n    tag_141:\n      pop\n      pop\n      pop\n      pop\n      mload(0x40)\n      returndatasize\n      not(0x1f)\n      0x1f\n      dup3\n      add\n      and\n      dup3\n      add\n      dup1\n      0x40\n      mstore\n      pop\n      dup2\n      add\n      swap1\n      tag_142\n      swap2\n      swap1\n      tag_143\n      jump\t// in\n    tag_142:\n      pop\n        /* \"contracts/core/MPensionVault.sol\":6008:6192  {... */\n      pop\n        /* \"contracts/core/MPensionVault.sol\":5842:6192  if(pension_.product.erc20 == NATIVE) {... */\n    tag_131:\n        /* \"contracts/core/MPensionVault.sol\":6220:6305  addTx(TxType.CLOSE, ObjType.MPENSION, pensionId, settlement_, pension_.product.erc20) */\n      tag_144\n        /* \"contracts/core/MPensionVault.sol\":6226:6238  TxType.CLOSE */\n      0x07\n        /* \"contracts/core/MPensionVault.sol\":6240:6256  ObjType.MPENSION */\n      0x00\n        /* \"contracts/core/MPensionVault.sol\":6258:6267  pensionId */\n      immutable(\"0x1a65db4f2ea95c4a38ef67ec9eb02656311df27569f1d2e5f15fb9ffe8498721\")\n        /* \"contracts/core/MPensionVault.sol\":6269:6280  settlement_ */\n      dup5\n        /* \"contracts/core/MPensionVault.sol\":6282:6290  pension_ */\n      dup7\n        /* \"contracts/core/MPensionVault.sol\":6282:6298  pension_.product */\n      0xc0\n      add\n      mload\n        /* \"contracts/core/MPensionVault.sol\":6282:6304  pension_.product.erc20 */\n      0x40\n      add\n      mload\n        /* \"contracts/core/MPensionVault.sol\":6220:6225  addTx */\n      tag_145\n        /* \"contracts/core/MPensionVault.sol\":6220:6305  addTx(TxType.CLOSE, ObjType.MPENSION, pensionId, settlement_, pension_.product.erc20) */\n      jump\t// in\n    tag_144:\n        /* \"contracts/core/MPensionVault.sol\":6212:6305  _txId = addTx(TxType.CLOSE, ObjType.MPENSION, pensionId, settlement_, pension_.product.erc20) */\n      swap3\n      pop\n        /* \"contracts/core/MPensionVault.sol\":6316:6328  return _txId */\n      pop\n      pop\n        /* \"contracts/core/MPensionVault.sol\":5480:6338  function close() external adminOnly semaphore returns (uint256 _txId){... */\n      swap1\n      jump\t// out\n        /* \"contracts/core/MPensionVault.sol\":6916:7919  function pull(uint256 _treasuryId) external semaphore treasuryOnly returns (uint256 _principal, uint256 _txId){... */\n    tag_41:\n        /* \"contracts/core/MPensionVault.sol\":6992:7010  uint256 _principal */\n      0x00\n        /* \"contracts/core/MPensionVault.sol\":7012:7025  uint256 _txId */\n      0x00\n        /* \"contracts/core/MPensionVault.sol\":720:726  locked */\n      0x00\n      0x00\n      swap1\n      sload\n      swap1\n      0x0100\n      exp\n      swap1\n      div\n      0xff\n      and\n        /* \"contracts/core/MPensionVault.sol\":719:726  !locked */\n      iszero\n        /* \"contracts/core/MPensionVault.sol\":711:743  require(!locked, \"vault locked\") */\n      tag_147\n      jumpi\n      mload(0x40)\n      0x08c379a000000000000000000000000000000000000000000000000000000000\n      dup2\n      mstore\n      0x04\n      add\n      tag_148\n      swap1\n      tag_104\n      jump\t// in\n    tag_148:\n      mload(0x40)\n      dup1\n      swap2\n      sub\n      swap1\n      revert\n    tag_147:\n        /* \"contracts/core/MPensionVault.sol\":772:787  MPStatus.CLOSED */\n      0x02\n        /* \"contracts/core/MPensionVault.sol\":762:787  status != MPStatus.CLOSED */\n      0x03\n      dup2\n      gt\n      iszero\n      tag_149\n      jumpi\n      tag_150\n      tag_107\n      jump\t// in\n    tag_150:\n    tag_149:\n        /* \"contracts/core/MPensionVault.sol\":762:768  status */\n      0x00\n      0x01\n      swap1\n      sload\n      swap1\n      0x0100\n      exp\n      swap1\n      div\n      0xff\n      and\n        /* \"contracts/core/MPensionVault.sol\":762:787  status != MPStatus.CLOSED */\n      0x03\n      dup2\n      gt\n      iszero\n      tag_151\n      jumpi\n      tag_152\n      tag_107\n      jump\t// in\n    tag_152:\n    tag_151:\n      sub\n        /* \"contracts/core/MPensionVault.sol\":754:804  require(status != MPStatus.CLOSED, \"vault closed\") */\n      tag_153\n      jumpi\n      mload(0x40)\n      0x08c379a000000000000000000000000000000000000000000000000000000000\n      dup2\n      mstore\n      0x04\n      add\n      tag_154\n      swap1\n      tag_112\n      jump\t// in\n    tag_154:\n      mload(0x40)\n      dup1\n      swap2\n      sub\n      swap1\n      revert\n    tag_153:\n        /* \"contracts/core/MPensionVault.sol\":1154:1162  register */\n      0x00\n      0x03\n      swap1\n      sload\n      swap1\n      0x0100\n      exp\n      swap1\n      div\n      0xffffffffffffffffffffffffffffffffffffffff\n      and\n        /* \"contracts/core/MPensionVault.sol\":1154:1173  register.getAddress */\n      0xffffffffffffffffffffffffffffffffffffffff\n      and\n      0xbf40fac1\n        /* \"contracts/core/MPensionVault.sol\":1174:1185  TREASURY_CA */\n      mload(0x40)\n      dup1\n      0x40\n      add\n      0x40\n      mstore\n      dup1\n      0x14\n      dup2\n      mstore\n      0x20\n      add\n      0x52455345525645445f4d505f5452454153555259000000000000000000000000\n      dup2\n      mstore\n      pop\n        /* \"contracts/core/MPensionVault.sol\":1154:1186  register.getAddress(TREASURY_CA) */\n      mload(0x40)\n      dup3\n      0xffffffff\n      and\n      0xe0\n      shl\n      dup2\n      mstore\n      0x04\n      add\n      tag_156\n      swap2\n      swap1\n      tag_32\n      jump\t// in\n    tag_156:\n      0x20\n      mload(0x40)\n      dup1\n      dup4\n      sub\n      dup2\n      dup7\n      gas\n      staticcall\n      iszero\n      dup1\n      iszero\n      tag_158\n      jumpi\n      returndatacopy(0x00, 0x00, returndatasize)\n      revert(0x00, returndatasize)\n    tag_158:\n      pop\n      pop\n      pop\n      pop\n      mload(0x40)\n      returndatasize\n      not(0x1f)\n      0x1f\n      dup3\n      add\n      and\n      dup3\n      add\n      dup1\n      0x40\n      mstore\n      pop\n      dup2\n      add\n      swap1\n      tag_159\n      swap2\n      swap1\n      tag_97\n      jump\t// in\n    tag_159:\n        /* \"contracts/core/MPensionVault.sol\":1140:1186  msg.sender == register.getAddress(TREASURY_CA) */\n      0xffffffffffffffffffffffffffffffffffffffff\n      and\n        /* \"contracts/core/MPensionVault.sol\":1140:1150  msg.sender */\n      caller\n        /* \"contracts/core/MPensionVault.sol\":1140:1186  msg.sender == register.getAddress(TREASURY_CA) */\n      0xffffffffffffffffffffffffffffffffffffffff\n      and\n      eq\n        /* \"contracts/core/MPensionVault.sol\":1132:1204  require(msg.sender == register.getAddress(TREASURY_CA), \"Treasury Only\") */\n      tag_160\n      jumpi\n      mload(0x40)\n      0x08c379a000000000000000000000000000000000000000000000000000000000\n      dup2\n      mstore\n      0x04\n      add\n      tag_161\n      swap1\n      tag_162\n      jump\t// in\n    tag_161:\n      mload(0x40)\n      dup1\n      swap2\n      sub\n      swap1\n      revert\n    tag_160:\n        /* \"contracts/core/MPensionVault.sol\":7037:7061  MPension memory pension_ */\n      0x00\n        /* \"contracts/core/MPensionVault.sol\":7064:7084  getPensionInternal() */\n      tag_164\n        /* \"contracts/core/MPensionVault.sol\":7064:7082  getPensionInternal */\n      tag_115\n        /* \"contracts/core/MPensionVault.sol\":7064:7084  getPensionInternal() */\n      jump\t// in\n    tag_164:\n        /* \"contracts/core/MPensionVault.sol\":7037:7084  MPension memory pension_ = getPensionInternal() */\n      swap1\n      pop\n        /* \"contracts/core/MPensionVault.sol\":7114:7127  MPStatus.OPEN */\n      0x00\n        /* \"contracts/core/MPensionVault.sol\":7104:7127  status == MPStatus.OPEN */\n      0x03\n      dup2\n      gt\n      iszero\n      tag_165\n      jumpi\n      tag_166\n      tag_107\n      jump\t// in\n    tag_166:\n    tag_165:\n        /* \"contracts/core/MPensionVault.sol\":7104:7110  status */\n      0x00\n      0x01\n      swap1\n      sload\n      swap1\n      0x0100\n      exp\n      swap1\n      div\n      0xff\n      and\n        /* \"contracts/core/MPensionVault.sol\":7104:7127  status == MPStatus.OPEN */\n      0x03\n      dup2\n      gt\n      iszero\n      tag_167\n      jumpi\n      tag_168\n      tag_107\n      jump\t// in\n    tag_168:\n    tag_167:\n      eq\n        /* \"contracts/core/MPensionVault.sol\":7096:7159  require(status == MPStatus.OPEN, \"invalid pension pull state\" ) */\n      tag_169\n      jumpi\n      mload(0x40)\n      0x08c379a000000000000000000000000000000000000000000000000000000000\n      dup2\n      mstore\n      0x04\n      add\n      tag_170\n      swap1\n      tag_171\n      jump\t// in\n    tag_170:\n      mload(0x40)\n      dup1\n      swap2\n      sub\n      swap1\n      revert\n    tag_169:\n        /* \"contracts/core/MPensionVault.sol\":7179:7183  true */\n      0x01\n        /* \"contracts/core/MPensionVault.sol\":7170:7176  locked */\n      0x00\n      0x00\n        /* \"contracts/core/MPensionVault.sol\":7170:7183  locked = true */\n      0x0100\n      exp\n      dup2\n      sload\n      dup2\n      0xff\n      mul\n      not\n      and\n      swap1\n      dup4\n      iszero\n      iszero\n      mul\n      or\n      swap1\n      sstore\n      pop\n        /* \"contracts/core/MPensionVault.sol\":7204:7211  metrics */\n      0x03\n        /* \"contracts/core/MPensionVault.sol\":7204:7224  metrics.isInTreasury */\n      0x04\n      add\n      0x00\n      swap1\n      sload\n      swap1\n      0x0100\n      exp\n      swap1\n      div\n      0xff\n      and\n        /* \"contracts/core/MPensionVault.sol\":7203:7224  !metrics.isInTreasury */\n      iszero\n        /* \"contracts/core/MPensionVault.sol\":7195:7248  require(!metrics.isInTreasury,\"vault already pulled\") */\n      tag_172\n      jumpi\n      mload(0x40)\n      0x08c379a000000000000000000000000000000000000000000000000000000000\n      dup2\n      mstore\n      0x04\n      add\n      tag_173\n      swap1\n      tag_174\n      jump\t// in\n    tag_173:\n      mload(0x40)\n      dup1\n      swap2\n      sub\n      swap1\n      revert\n    tag_172:\n        /* \"contracts/core/MPensionVault.sol\":7283:7287  true */\n      0x01\n        /* \"contracts/core/MPensionVault.sol\":7260:7267  metrics */\n      0x03\n        /* \"contracts/core/MPensionVault.sol\":7260:7280  metrics.isInTreasury */\n      0x04\n      add\n      0x00\n        /* \"contracts/core/MPensionVault.sol\":7260:7287  metrics.isInTreasury = true */\n      0x0100\n      exp\n      dup2\n      sload\n      dup2\n      0xff\n      mul\n      not\n      and\n      swap1\n      dup4\n      iszero\n      iszero\n      mul\n      or\n      swap1\n      sstore\n      pop\n        /* \"contracts/core/MPensionVault.sol\":7312:7326  pensionBalance */\n      sload(0x01)\n        /* \"contracts/core/MPensionVault.sol\":7299:7326  _principal = pensionBalance */\n      swap3\n      pop\n        /* \"contracts/core/MPensionVault.sol\":7363:7373  _principal */\n      dup3\n        /* \"contracts/core/MPensionVault.sol\":7337:7344  metrics */\n      0x03\n        /* \"contracts/core/MPensionVault.sol\":7337:7360  metrics.issuedPrincipal */\n      dup1\n      add\n        /* \"contracts/core/MPensionVault.sol\":7337:7373  metrics.issuedPrincipal = _principal */\n      dup2\n      swap1\n      sstore\n      pop\n        /* \"contracts/core/MPensionVault.sol\":7388:7409  address erc20Address_ */\n      0x00\n        /* \"contracts/core/MPensionVault.sol\":7412:7420  pension_ */\n      dup2\n        /* \"contracts/core/MPensionVault.sol\":7412:7428  pension_.product */\n      0xc0\n      add\n      mload\n        /* \"contracts/core/MPensionVault.sol\":7412:7434  pension_.product.erc20 */\n      0x40\n      add\n      mload\n        /* \"contracts/core/MPensionVault.sol\":7388:7434  address erc20Address_ = pension_.product.erc20 */\n      swap1\n      pop\n        /* \"contracts/core/MPensionVault.sol\":1354:1396  0xEeeeeEeeeEeEeeEeEeEeeEEEeeeeEeeeeeeeEEeE */\n      0xeeeeeeeeeeeeeeeeeeeeeeeeeeeeeeeeeeeeeeee\n        /* \"contracts/core/MPensionVault.sol\":7449:7472  erc20Address_ == NATIVE */\n      0xffffffffffffffffffffffffffffffffffffffff\n      and\n        /* \"contracts/core/MPensionVault.sol\":7449:7462  erc20Address_ */\n      dup2\n        /* \"contracts/core/MPensionVault.sol\":7449:7472  erc20Address_ == NATIVE */\n      0xffffffffffffffffffffffffffffffffffffffff\n      and\n      sub\n        /* \"contracts/core/MPensionVault.sol\":7446:7674  if(erc20Address_ == NATIVE) {... */\n      tag_175\n      jumpi\n        /* \"contracts/core/MPensionVault.sol\":7497:7507  msg.sender */\n      caller\n        /* \"contracts/core/MPensionVault.sol\":7489:7517  payable(msg.sender).transfer */\n      0xffffffffffffffffffffffffffffffffffffffff\n      and\n        /* \"contracts/core/MPensionVault.sol\":7489:7529  payable(msg.sender).transfer(_principal) */\n      0x08fc\n        /* \"contracts/core/MPensionVault.sol\":7518:7528  _principal */\n      dup6\n        /* \"contracts/core/MPensionVault.sol\":7489:7529  payable(msg.sender).transfer(_principal) */\n      swap1\n      dup2\n      iszero\n      mul\n      swap1\n      mload(0x40)\n      0x00\n      mload(0x40)\n      dup1\n      dup4\n      sub\n      dup2\n      dup6\n      dup9\n      dup9\n      call\n      swap4\n      pop\n      pop\n      pop\n      pop\n      iszero\n      dup1\n      iszero\n      tag_177\n      jumpi\n      returndatacopy(0x00, 0x00, returndatasize)\n      revert(0x00, returndatasize)\n    tag_177:\n      pop\n        /* \"contracts/core/MPensionVault.sol\":7446:7674  if(erc20Address_ == NATIVE) {... */\n      jump(tag_178)\n    tag_175:\n        /* \"contracts/core/MPensionVault.sol\":7572:7585  IERC20 erc20_ */\n      0x00\n        /* \"contracts/core/MPensionVault.sol\":7595:7608  erc20Address_ */\n      dup2\n        /* \"contracts/core/MPensionVault.sol\":7572:7609  IERC20 erc20_ = IERC20(erc20Address_) */\n      swap1\n      pop\n        /* \"contracts/core/MPensionVault.sol\":7624:7630  erc20_ */\n      dup1\n        /* \"contracts/core/MPensionVault.sol\":7624:7638  erc20_.approve */\n      0xffffffffffffffffffffffffffffffffffffffff\n      and\n      0x095ea7b3\n        /* \"contracts/core/MPensionVault.sol\":7639:7649  msg.sender */\n      caller\n        /* \"contracts/core/MPensionVault.sol\":7651:7661  _principal */\n      dup8\n        /* \"contracts/core/MPensionVault.sol\":7624:7662  erc20_.approve(msg.sender, _principal) */\n      mload(0x40)\n      dup4\n      0xffffffff\n      and\n      0xe0\n      shl\n      dup2\n      mstore\n      0x04\n      add\n      tag_179\n      swap3\n      swap2\n      swap1\n      tag_139\n      jump\t// in\n    tag_179:\n      0x20\n      mload(0x40)\n      dup1\n      dup4\n      sub\n      dup2\n      0x00\n      dup8\n      gas\n      call\n      iszero\n      dup1\n      iszero\n      tag_181\n      jumpi\n      returndatacopy(0x00, 0x00, returndatasize)\n      revert(0x00, returndatasize)\n    tag_181:\n      pop\n      pop\n      pop\n      pop\n      mload(0x40)\n      returndatasize\n      not(0x1f)\n      0x1f\n      dup3\n      add\n      and\n      dup3\n      add\n      dup1\n      0x40\n      mstore\n      pop\n      dup2\n      add\n      swap1\n      tag_182\n      swap2\n      swap1\n      tag_143\n      jump\t// in\n    tag_182:\n      pop\n        /* \"contracts/core/MPensionVault.sol\":7556:7674  { ... */\n      pop\n        /* \"contracts/core/MPensionVault.sol\":7446:7674  if(erc20Address_ == NATIVE) {... */\n    tag_178:\n        /* \"contracts/core/MPensionVault.sol\":7694:7777  addTx(TxType.PULL, ObjType.MPENSION, pensionId, _principal, pension_.product.erc20) */\n      tag_183\n        /* \"contracts/core/MPensionVault.sol\":7700:7711  TxType.PULL */\n      0x03\n        /* \"contracts/core/MPensionVault.sol\":7713:7729  ObjType.MPENSION */\n      0x00\n        /* \"contracts/core/MPensionVault.sol\":7731:7740  pensionId */\n      immutable(\"0x1a65db4f2ea95c4a38ef67ec9eb02656311df27569f1d2e5f15fb9ffe8498721\")\n        /* \"contracts/core/MPensionVault.sol\":7742:7752  _principal */\n      dup8\n        /* \"contracts/core/MPensionVault.sol\":7754:7762  pension_ */\n      dup7\n        /* \"contracts/core/MPensionVault.sol\":7754:7770  pension_.product */\n      0xc0\n      add\n      mload\n        /* \"contracts/core/MPensionVault.sol\":7754:7776  pension_.product.erc20 */\n      0x40\n      add\n      mload\n        /* \"contracts/core/MPensionVault.sol\":7694:7699  addTx */\n      tag_145\n        /* \"contracts/core/MPensionVault.sol\":7694:7777  addTx(TxType.PULL, ObjType.MPENSION, pensionId, _principal, pension_.product.erc20) */\n      jump\t// in\n    tag_183:\n        /* \"contracts/core/MPensionVault.sol\":7686:7777  _txId = addTx(TxType.PULL, ObjType.MPENSION, pensionId, _principal, pension_.product.erc20) */\n      swap3\n      pop\n        /* \"contracts/core/MPensionVault.sol\":7788:7805  txIdsByTreasuryId */\n      0x08\n        /* \"contracts/core/MPensionVault.sol\":7788:7818  txIdsByTreasuryId[_treasuryId] */\n      0x00\n        /* \"contracts/core/MPensionVault.sol\":7806:7817  _treasuryId */\n      dup7\n        /* \"contracts/core/MPensionVault.sol\":7788:7818  txIdsByTreasuryId[_treasuryId] */\n      dup2\n      mstore\n      0x20\n      add\n      swap1\n      dup2\n      mstore\n      0x20\n      add\n      0x00\n      keccak256\n        /* \"contracts/core/MPensionVault.sol\":7824:7829  _txId */\n      dup4\n        /* \"contracts/core/MPensionVault.sol\":7788:7830  txIdsByTreasuryId[_treasuryId].push(_txId) */\n      swap1\n      dup1\n      0x01\n      dup2\n      sload\n      add\n      dup1\n      dup3\n      sstore\n      dup1\n      swap2\n      pop\n      pop\n      0x01\n      swap1\n      sub\n      swap1\n      0x00\n      mstore\n      keccak256(0x00, 0x20)\n      add\n      0x00\n      swap1\n      swap2\n      swap1\n      swap2\n      swap1\n      swap2\n      pop\n      sstore\n        /* \"contracts/core/MPensionVault.sol\":7850:7855  false */\n      0x00\n        /* \"contracts/core/MPensionVault.sol\":7841:7847  locked */\n      0x00\n      0x00\n        /* \"contracts/core/MPensionVault.sol\":7841:7855  locked = false */\n      0x0100\n      exp\n      dup2\n      sload\n      dup2\n      0xff\n      mul\n      not\n      and\n      swap1\n      dup4\n      iszero\n      iszero\n      mul\n      or\n      swap1\n      sstore\n      pop\n        /* \"contracts/core/MPensionVault.sol\":7885:7911  return (_principal, _txId) */\n      pop\n      pop\n        /* \"contracts/core/MPensionVault.sol\":6916:7919  function pull(uint256 _treasuryId) external semaphore treasuryOnly returns (uint256 _principal, uint256 _txId){... */\n      swap2\n      pop\n      swap2\n      jump\t// out\n        /* \"contracts/core/MPensionVault.sol\":2633:2728  function getStatus() view external returns (MPStatus _status) {... */\n    tag_46:\n        /* \"contracts/core/MPensionVault.sol\":2677:2693  MPStatus _status */\n      0x00\n        /* \"contracts/core/MPensionVault.sol\":2713:2719  status */\n      0x00\n      0x01\n      swap1\n      sload\n      swap1\n      0x0100\n      exp\n      swap1\n      div\n      0xff\n      and\n        /* \"contracts/core/MPensionVault.sol\":2706:2719  return status */\n      swap1\n      pop\n        /* \"contracts/core/MPensionVault.sol\":2633:2728  function getStatus() view external returns (MPStatus _status) {... */\n      swap1\n      jump\t// out\n        /* \"contracts/core/MPensionVault.sol\":6346:6877  function withdraw(address _erc20) adminOnly external returns (uint256 _amount) {... */\n    tag_53:\n        /* \"contracts/core/MPensionVault.sol\":6408:6423  uint256 _amount */\n      0x00\n        /* \"contracts/core/MPensionVault.sol\":1010:1018  register */\n      0x00\n      0x03\n      swap1\n      sload\n      swap1\n      0x0100\n      exp\n      swap1\n      div\n      0xffffffffffffffffffffffffffffffffffffffff\n      and\n        /* \"contracts/core/MPensionVault.sol\":1010:1029  register.getAddress */\n      0xffffffffffffffffffffffffffffffffffffffff\n      and\n      0xbf40fac1\n        /* \"contracts/core/MPensionVault.sol\":1030:1046  PENSION_ADMIN_CA */\n      mload(0x40)\n      dup1\n      0x40\n      add\n      0x40\n      mstore\n      dup1\n      0x11\n      dup2\n      mstore\n      0x20\n      add\n      0x52455345525645445f4d505f41444d494e000000000000000000000000000000\n      dup2\n      mstore\n      pop\n        /* \"contracts/core/MPensionVault.sol\":1010:1047  register.getAddress(PENSION_ADMIN_CA) */\n      mload(0x40)\n      dup3\n      0xffffffff\n      and\n      0xe0\n      shl\n      dup2\n      mstore\n      0x04\n      add\n      tag_187\n      swap2\n      swap1\n      tag_32\n      jump\t// in\n    tag_187:\n      0x20\n      mload(0x40)\n      dup1\n      dup4\n      sub\n      dup2\n      dup7\n      gas\n      staticcall\n      iszero\n      dup1\n      iszero\n      tag_189\n      jumpi\n      returndatacopy(0x00, 0x00, returndatasize)\n      revert(0x00, returndatasize)\n    tag_189:\n      pop\n      pop\n      pop\n      pop\n      mload(0x40)\n      returndatasize\n      not(0x1f)\n      0x1f\n      dup3\n      add\n      and\n      dup3\n      add\n      dup1\n      0x40\n      mstore\n      pop\n      dup2\n      add\n      swap1\n      tag_190\n      swap2\n      swap1\n      tag_97\n      jump\t// in\n    tag_190:\n        /* \"contracts/core/MPensionVault.sol\":996:1047  msg.sender == register.getAddress(PENSION_ADMIN_CA) */\n      0xffffffffffffffffffffffffffffffffffffffff\n      and\n        /* \"contracts/core/MPensionVault.sol\":996:1006  msg.sender */\n      caller\n        /* \"contracts/core/MPensionVault.sol\":996:1047  msg.sender == register.getAddress(PENSION_ADMIN_CA) */\n      0xffffffffffffffffffffffffffffffffffffffff\n      and\n      eq\n        /* \"contracts/core/MPensionVault.sol\":988:1070  require(msg.sender == register.getAddress(PENSION_ADMIN_CA), \"Pension Admin Only\") */\n      tag_191\n      jumpi\n      mload(0x40)\n      0x08c379a000000000000000000000000000000000000000000000000000000000\n      dup2\n      mstore\n      0x04\n      add\n      tag_192\n      swap1\n      tag_100\n      jump\t// in\n    tag_192:\n      mload(0x40)\n      dup1\n      swap2\n      sub\n      swap1\n      revert\n    tag_191:\n        /* \"contracts/core/MPensionVault.sol\":6454:6469  MPStatus.CLOSED */\n      0x02\n        /* \"contracts/core/MPensionVault.sol\":6444:6469  status == MPStatus.CLOSED */\n      0x03\n      dup2\n      gt\n      iszero\n      tag_194\n      jumpi\n      tag_195\n      tag_107\n      jump\t// in\n    tag_195:\n    tag_194:\n        /* \"contracts/core/MPensionVault.sol\":6444:6450  status */\n      0x00\n      0x01\n      swap1\n      sload\n      swap1\n      0x0100\n      exp\n      swap1\n      div\n      0xff\n      and\n        /* \"contracts/core/MPensionVault.sol\":6444:6469  status == MPStatus.CLOSED */\n      0x03\n      dup2\n      gt\n      iszero\n      tag_196\n      jumpi\n      tag_197\n      tag_107\n      jump\t// in\n    tag_197:\n    tag_196:\n      eq\n        /* \"contracts/core/MPensionVault.sol\":6436:6492  require(status == MPStatus.CLOSED, \"pension not closed\") */\n      tag_198\n      jumpi\n      mload(0x40)\n      0x08c379a000000000000000000000000000000000000000000000000000000000\n      dup2\n      mstore\n      0x04\n      add\n      tag_199\n      swap1\n      tag_200\n      jump\t// in\n    tag_199:\n      mload(0x40)\n      dup1\n      swap2\n      sub\n      swap1\n      revert\n    tag_198:\n        /* \"contracts/core/MPensionVault.sol\":6503:6516  address bank_ */\n      0x00\n        /* \"contracts/core/MPensionVault.sol\":6519:6527  register */\n      0x00\n      0x03\n      swap1\n      sload\n      swap1\n      0x0100\n      exp\n      swap1\n      div\n      0xffffffffffffffffffffffffffffffffffffffff\n      and\n        /* \"contracts/core/MPensionVault.sol\":6519:6538  register.getAddress */\n      0xffffffffffffffffffffffffffffffffffffffff\n      and\n      0xbf40fac1\n        /* \"contracts/core/MPensionVault.sol\":6539:6546  BANK_CA */\n      mload(0x40)\n      dup1\n      0x40\n      add\n      0x40\n      mstore\n      dup1\n      0x10\n      dup2\n      mstore\n      0x20\n      add\n      0x52455345525645445f4d505f42414e4b00000000000000000000000000000000\n      dup2\n      mstore\n      pop\n        /* \"contracts/core/MPensionVault.sol\":6519:6547  register.getAddress(BANK_CA) */\n      mload(0x40)\n      dup3\n      0xffffffff\n      and\n      0xe0\n      shl\n      dup2\n      mstore\n      0x04\n      add\n      tag_201\n      swap2\n      swap1\n      tag_32\n      jump\t// in\n    tag_201:\n      0x20\n      mload(0x40)\n      dup1\n      dup4\n      sub\n      dup2\n      dup7\n      gas\n      staticcall\n      iszero\n      dup1\n      iszero\n      tag_203\n      jumpi\n      returndatacopy(0x00, 0x00, returndatasize)\n      revert(0x00, returndatasize)\n    tag_203:\n      pop\n      pop\n      pop\n      pop\n      mload(0x40)\n      returndatasize\n      not(0x1f)\n      0x1f\n      dup3\n      add\n      and\n      dup3\n      add\n      dup1\n      0x40\n      mstore\n      pop\n      dup2\n      add\n      swap1\n      tag_204\n      swap2\n      swap1\n      tag_97\n      jump\t// in\n    tag_204:\n        /* \"contracts/core/MPensionVault.sol\":6503:6547  address bank_ = register.getAddress(BANK_CA) */\n      swap1\n      pop\n        /* \"contracts/core/MPensionVault.sol\":1354:1396  0xEeeeeEeeeEeEeeEeEeEeeEEEeeeeEeeeeeeeEEeE */\n      0xeeeeeeeeeeeeeeeeeeeeeeeeeeeeeeeeeeeeeeee\n        /* \"contracts/core/MPensionVault.sol\":6562:6578  _erc20 == NATIVE */\n      0xffffffffffffffffffffffffffffffffffffffff\n      and\n        /* \"contracts/core/MPensionVault.sol\":6562:6568  _erc20 */\n      dup4\n        /* \"contracts/core/MPensionVault.sol\":6562:6578  _erc20 == NATIVE */\n      0xffffffffffffffffffffffffffffffffffffffff\n      and\n      sub\n        /* \"contracts/core/MPensionVault.sol\":6559:6844  if(_erc20 == NATIVE) {... */\n      tag_205\n      jumpi\n        /* \"contracts/core/MPensionVault.sol\":6605:6609  self */\n      immutable(\"0xdd5c0e85d12671451a2813ab72960178ae895d157199d23818aec59b00ee9e8b\")\n        /* \"contracts/core/MPensionVault.sol\":6605:6617  self.balance */\n      0xffffffffffffffffffffffffffffffffffffffff\n      and\n      balance\n        /* \"contracts/core/MPensionVault.sol\":6595:6617  _amount = self.balance */\n      swap2\n      pop\n        /* \"contracts/core/MPensionVault.sol\":6641:6646  bank_ */\n      dup1\n        /* \"contracts/core/MPensionVault.sol\":6633:6656  payable(bank_).transfer */\n      0xffffffffffffffffffffffffffffffffffffffff\n      and\n        /* \"contracts/core/MPensionVault.sol\":6633:6665  payable(bank_).transfer(_amount) */\n      0x08fc\n        /* \"contracts/core/MPensionVault.sol\":6657:6664  _amount */\n      dup4\n        /* \"contracts/core/MPensionVault.sol\":6633:6665  payable(bank_).transfer(_amount) */\n      swap1\n      dup2\n      iszero\n      mul\n      swap1\n      mload(0x40)\n      0x00\n      mload(0x40)\n      dup1\n      dup4\n      sub\n      dup2\n      dup6\n      dup9\n      dup9\n      call\n      swap4\n      pop\n      pop\n      pop\n      pop\n      iszero\n      dup1\n      iszero\n      tag_207\n      jumpi\n      returndatacopy(0x00, 0x00, returndatasize)\n      revert(0x00, returndatasize)\n    tag_207:\n      pop\n        /* \"contracts/core/MPensionVault.sol\":6559:6844  if(_erc20 == NATIVE) {... */\n      jump(tag_208)\n    tag_205:\n        /* \"contracts/core/MPensionVault.sol\":6708:6721  IERC20 erc20_ */\n      0x00\n        /* \"contracts/core/MPensionVault.sol\":6731:6737  _erc20 */\n      dup4\n        /* \"contracts/core/MPensionVault.sol\":6708:6738  IERC20 erc20_ = IERC20(_erc20) */\n      swap1\n      pop\n        /* \"contracts/core/MPensionVault.sol\":6763:6769  erc20_ */\n      dup1\n        /* \"contracts/core/MPensionVault.sol\":6763:6779  erc20_.balanceOf */\n      0xffffffffffffffffffffffffffffffffffffffff\n      and\n      0x70a08231\n        /* \"contracts/core/MPensionVault.sol\":6780:6784  self */\n      immutable(\"0xdd5c0e85d12671451a2813ab72960178ae895d157199d23818aec59b00ee9e8b\")\n        /* \"contracts/core/MPensionVault.sol\":6763:6785  erc20_.balanceOf(self) */\n      mload(0x40)\n      dup3\n      0xffffffff\n      and\n      0xe0\n      shl\n      dup2\n      mstore\n      0x04\n      add\n      tag_209\n      swap2\n      swap1\n      tag_133\n      jump\t// in\n    tag_209:\n      0x20\n      mload(0x40)\n      dup1\n      dup4\n      sub\n      dup2\n      dup7\n      gas\n      staticcall\n      iszero\n      dup1\n      iszero\n      tag_211\n      jumpi\n      returndatacopy(0x00, 0x00, returndatasize)\n      revert(0x00, returndatasize)\n    tag_211:\n      pop\n      pop\n      pop\n      pop\n      mload(0x40)\n      returndatasize\n      not(0x1f)\n      0x1f\n      dup3\n      add\n      and\n      dup3\n      add\n      dup1\n      0x40\n      mstore\n      pop\n      dup2\n      add\n      swap1\n      tag_212\n      swap2\n      swap1\n      tag_137\n      jump\t// in\n    tag_212:\n        /* \"contracts/core/MPensionVault.sol\":6753:6785  _amount = erc20_.balanceOf(self) */\n      swap3\n      pop\n        /* \"contracts/core/MPensionVault.sol\":6800:6806  erc20_ */\n      dup1\n        /* \"contracts/core/MPensionVault.sol\":6800:6815  erc20_.transfer */\n      0xffffffffffffffffffffffffffffffffffffffff\n      and\n      0xa9059cbb\n        /* \"contracts/core/MPensionVault.sol\":6816:6821  bank_ */\n      dup4\n        /* \"contracts/core/MPensionVault.sol\":6823:6830  _amount */\n      dup6\n        /* \"contracts/core/MPensionVault.sol\":6800:6831  erc20_.transfer(bank_, _amount) */\n      mload(0x40)\n      dup4\n      0xffffffff\n      and\n      0xe0\n      shl\n      dup2\n      mstore\n      0x04\n      add\n      tag_213\n      swap3\n      swap2\n      swap1\n      tag_139\n      jump\t// in\n    tag_213:\n      0x20\n      mload(0x40)\n      dup1\n      dup4\n      sub\n      dup2\n      0x00\n      dup8\n      gas\n      call\n      iszero\n      dup1\n      iszero\n      tag_215\n      jumpi\n      returndatacopy(0x00, 0x00, returndatasize)\n      revert(0x00, returndatasize)\n    tag_215:\n      pop\n      pop\n      pop\n      pop\n      mload(0x40)\n      returndatasize\n      not(0x1f)\n      0x1f\n      dup3\n      add\n      and\n      dup3\n      add\n      dup1\n      0x40\n      mstore\n      pop\n      dup2\n      add\n      swap1\n      tag_216\n      swap2\n      swap1\n      tag_143\n      jump\t// in\n    tag_216:\n      pop\n        /* \"contracts/core/MPensionVault.sol\":6692:6844  { ... */\n      pop\n        /* \"contracts/core/MPensionVault.sol\":6559:6844  if(_erc20 == NATIVE) {... */\n    tag_208:\n        /* \"contracts/core/MPensionVault.sol\":6854:6868  return _amount */\n      pop\n        /* \"contracts/core/MPensionVault.sol\":6346:6877  function withdraw(address _erc20) adminOnly external returns (uint256 _amount) {... */\n      swap2\n      swap1\n      pop\n      jump\t// out\n        /* \"contracts/core/MPensionVault.sol\":2736:2851  function getPension() view external returns (MPension memory _mPension){... */\n    tag_57:\n        /* \"contracts/core/MPensionVault.sol\":2781:2806  MPension memory _mPension */\n      tag_217\n      tag_218\n      jump\t// in\n    tag_217:\n        /* \"contracts/core/MPensionVault.sol\":2823:2843  getPensionInternal() */\n      tag_220\n        /* \"contracts/core/MPensionVault.sol\":2823:2841  getPensionInternal */\n      tag_115\n        /* \"contracts/core/MPensionVault.sol\":2823:2843  getPensionInternal() */\n      jump\t// in\n    tag_220:\n        /* \"contracts/core/MPensionVault.sol\":2816:2843  return getPensionInternal() */\n      swap1\n      pop\n        /* \"contracts/core/MPensionVault.sol\":2736:2851  function getPension() view external returns (MPension memory _mPension){... */\n      swap1\n      jump\t// out\n        /* \"contracts/core/MPensionVault.sol\":2970:3088  function getPensionMetrics() view external returns (PensionMetrics memory _metrics) {... */\n    tag_62:\n        /* \"contracts/core/MPensionVault.sol\":3022:3052  PensionMetrics memory _metrics */\n      tag_221\n      tag_222\n      jump\t// in\n    tag_221:\n        /* \"contracts/core/MPensionVault.sol\":3072:3079  metrics */\n      0x03\n        /* \"contracts/core/MPensionVault.sol\":3065:3079  return metrics */\n      mload(0x40)\n      dup1\n      0xa0\n      add\n      0x40\n      mstore\n      swap1\n      dup2\n      0x00\n      dup3\n      add\n      sload\n      dup2\n      mstore\n      0x20\n      add\n      0x01\n      dup3\n      add\n      sload\n      dup2\n      mstore\n      0x20\n      add\n      0x02\n      dup3\n      add\n      sload\n      dup2\n      mstore\n      0x20\n      add\n      0x03\n      dup3\n      add\n      sload\n      dup2\n      mstore\n      0x20\n      add\n      0x04\n      dup3\n      add\n      0x00\n      swap1\n      sload\n      swap1\n      0x0100\n      exp\n      swap1\n      div\n      0xff\n      and\n      iszero\n      iszero\n      iszero\n      iszero\n      dup2\n      mstore\n      pop\n      pop\n      swap1\n      pop\n        /* \"contracts/core/MPensionVault.sol\":2970:3088  function getPensionMetrics() view external returns (PensionMetrics memory _metrics) {... */\n      swap1\n      jump\t// out\n        /* \"contracts/core/MPensionVault.sol\":7928:9339  function push(uint256 _treasuryId, uint256 _principal, uint256 _earnings)  payable external semaphore treasuryOnly returns (uint256 _txId){... */\n    tag_68:\n        /* \"contracts/core/MPensionVault.sol\":8052:8065  uint256 _txId */\n      0x00\n        /* \"contracts/core/MPensionVault.sol\":720:726  locked */\n      0x00\n      0x00\n      swap1\n      sload\n      swap1\n      0x0100\n      exp\n      swap1\n      div\n      0xff\n      and\n        /* \"contracts/core/MPensionVault.sol\":719:726  !locked */\n      iszero\n        /* \"contracts/core/MPensionVault.sol\":711:743  require(!locked, \"vault locked\") */\n      tag_225\n      jumpi\n      mload(0x40)\n      0x08c379a000000000000000000000000000000000000000000000000000000000\n      dup2\n      mstore\n      0x04\n      add\n      tag_226\n      swap1\n      tag_104\n      jump\t// in\n    tag_226:\n      mload(0x40)\n      dup1\n      swap2\n      sub\n      swap1\n      revert\n    tag_225:\n        /* \"contracts/core/MPensionVault.sol\":772:787  MPStatus.CLOSED */\n      0x02\n        /* \"contracts/core/MPensionVault.sol\":762:787  status != MPStatus.CLOSED */\n      0x03\n      dup2\n      gt\n      iszero\n      tag_227\n      jumpi\n      tag_228\n      tag_107\n      jump\t// in\n    tag_228:\n    tag_227:\n        /* \"contracts/core/MPensionVault.sol\":762:768  status */\n      0x00\n      0x01\n      swap1\n      sload\n      swap1\n      0x0100\n      exp\n      swap1\n      div\n      0xff\n      and\n        /* \"contracts/core/MPensionVault.sol\":762:787  status != MPStatus.CLOSED */\n      0x03\n      dup2\n      gt\n      iszero\n      tag_229\n      jumpi\n      tag_230\n      tag_107\n      jump\t// in\n    tag_230:\n    tag_229:\n      sub\n        /* \"contracts/core/MPensionVault.sol\":754:804  require(status != MPStatus.CLOSED, \"vault closed\") */\n      tag_231\n      jumpi\n      mload(0x40)\n      0x08c379a000000000000000000000000000000000000000000000000000000000\n      dup2\n      mstore\n      0x04\n      add\n      tag_232\n      swap1\n      tag_112\n      jump\t// in\n    tag_232:\n      mload(0x40)\n      dup1\n      swap2\n      sub\n      swap1\n      revert\n    tag_231:\n        /* \"contracts/core/MPensionVault.sol\":1154:1162  register */\n      0x00\n      0x03\n      swap1\n      sload\n      swap1\n      0x0100\n      exp\n      swap1\n      div\n      0xffffffffffffffffffffffffffffffffffffffff\n      and\n        /* \"contracts/core/MPensionVault.sol\":1154:1173  register.getAddress */\n      0xffffffffffffffffffffffffffffffffffffffff\n      and\n      0xbf40fac1\n        /* \"contracts/core/MPensionVault.sol\":1174:1185  TREASURY_CA */\n      mload(0x40)\n      dup1\n      0x40\n      add\n      0x40\n      mstore\n      dup1\n      0x14\n      dup2\n      mstore\n      0x20\n      add\n      0x52455345525645445f4d505f5452454153555259000000000000000000000000\n      dup2\n      mstore\n      pop\n        /* \"contracts/core/MPensionVault.sol\":1154:1186  register.getAddress(TREASURY_CA) */\n      mload(0x40)\n      dup3\n      0xffffffff\n      and\n      0xe0\n      shl\n      dup2\n      mstore\n      0x04\n      add\n      tag_234\n      swap2\n      swap1\n      tag_32\n      jump\t// in\n    tag_234:\n      0x20\n      mload(0x40)\n      dup1\n      dup4\n      sub\n      dup2\n      dup7\n      gas\n      staticcall\n      iszero\n      dup1\n      iszero\n      tag_236\n      jumpi\n      returndatacopy(0x00, 0x00, returndatasize)\n      revert(0x00, returndatasize)\n    tag_236:\n      pop\n      pop\n      pop\n      pop\n      mload(0x40)\n      returndatasize\n      not(0x1f)\n      0x1f\n      dup3\n      add\n      and\n      dup3\n      add\n      dup1\n      0x40\n      mstore\n      pop\n      dup2\n      add\n      swap1\n      tag_237\n      swap2\n      swap1\n      tag_97\n      jump\t// in\n    tag_237:\n        /* \"contracts/core/MPensionVault.sol\":1140:1186  msg.sender == register.getAddress(TREASURY_CA) */\n      0xffffffffffffffffffffffffffffffffffffffff\n      and\n        /* \"contracts/core/MPensionVault.sol\":1140:1150  msg.sender */\n      caller\n        /* \"contracts/core/MPensionVault.sol\":1140:1186  msg.sender == register.getAddress(TREASURY_CA) */\n      0xffffffffffffffffffffffffffffffffffffffff\n      and\n      eq\n        /* \"contracts/core/MPensionVault.sol\":1132:1204  require(msg.sender == register.getAddress(TREASURY_CA), \"Treasury Only\") */\n      tag_238\n      jumpi\n      mload(0x40)\n      0x08c379a000000000000000000000000000000000000000000000000000000000\n      dup2\n      mstore\n      0x04\n      add\n      tag_239\n      swap1\n      tag_162\n      jump\t// in\n    tag_239:\n      mload(0x40)\n      dup1\n      swap2\n      sub\n      swap1\n      revert\n    tag_238:\n        /* \"contracts/core/MPensionVault.sol\":8086:8090  true */\n      0x01\n        /* \"contracts/core/MPensionVault.sol\":8077:8083  locked */\n      0x00\n      0x00\n        /* \"contracts/core/MPensionVault.sol\":8077:8090  locked = true */\n      0x0100\n      exp\n      dup2\n      sload\n      dup2\n      0xff\n      mul\n      not\n      and\n      swap1\n      dup4\n      iszero\n      iszero\n      mul\n      or\n      swap1\n      sstore\n      pop\n        /* \"contracts/core/MPensionVault.sol\":8104:8128  MPension memory pension_ */\n      0x00\n        /* \"contracts/core/MPensionVault.sol\":8131:8151  getPensionInternal() */\n      tag_241\n        /* \"contracts/core/MPensionVault.sol\":8131:8149  getPensionInternal */\n      tag_115\n        /* \"contracts/core/MPensionVault.sol\":8131:8151  getPensionInternal() */\n      jump\t// in\n    tag_241:\n        /* \"contracts/core/MPensionVault.sol\":8104:8151  MPension memory pension_ = getPensionInternal() */\n      swap1\n      pop\n        /* \"contracts/core/MPensionVault.sol\":8189:8196  metrics */\n      0x03\n        /* \"contracts/core/MPensionVault.sol\":8189:8212  metrics.issuedPrincipal */\n      dup1\n      add\n      sload\n        /* \"contracts/core/MPensionVault.sol\":8175:8185  _principal */\n      dup5\n        /* \"contracts/core/MPensionVault.sol\":8175:8212  _principal >= metrics.issuedPrincipal */\n      lt\n      iszero\n        /* \"contracts/core/MPensionVault.sol\":8167:8248  require(_principal >= metrics.issuedPrincipal, \"insufficient principal returned\") */\n      tag_242\n      jumpi\n      mload(0x40)\n      0x08c379a000000000000000000000000000000000000000000000000000000000\n      dup2\n      mstore\n      0x04\n      add\n      tag_243\n      swap1\n      tag_244\n      jump\t// in\n    tag_243:\n      mload(0x40)\n      dup1\n      swap2\n      sub\n      swap1\n      revert\n    tag_242:\n        /* \"contracts/core/MPensionVault.sol\":8261:8286  uint256 transmittedTotal_ */\n      0x00\n        /* \"contracts/core/MPensionVault.sol\":8302:8311  _earnings */\n      dup4\n        /* \"contracts/core/MPensionVault.sol\":8289:8299  _principal */\n      dup6\n        /* \"contracts/core/MPensionVault.sol\":8289:8311  _principal + _earnings */\n      tag_245\n      swap2\n      swap1\n      tag_246\n      jump\t// in\n    tag_245:\n        /* \"contracts/core/MPensionVault.sol\":8261:8311  uint256 transmittedTotal_ = _principal + _earnings */\n      swap1\n      pop\n        /* \"contracts/core/MPensionVault.sol\":8333:8340  metrics */\n      0x03\n        /* \"contracts/core/MPensionVault.sol\":8333:8353  metrics.isInTreasury */\n      0x04\n      add\n      0x00\n      swap1\n      sload\n      swap1\n      0x0100\n      exp\n      swap1\n      div\n      0xff\n      and\n        /* \"contracts/core/MPensionVault.sol\":8325:8374  require(metrics.isInTreasury, \"vault not pulled\") */\n      tag_247\n      jumpi\n      mload(0x40)\n      0x08c379a000000000000000000000000000000000000000000000000000000000\n      dup2\n      mstore\n      0x04\n      add\n      tag_248\n      swap1\n      tag_249\n      jump\t// in\n    tag_248:\n      mload(0x40)\n      dup1\n      swap2\n      sub\n      swap1\n      revert\n    tag_247:\n        /* \"contracts/core/MPensionVault.sol\":8388:8409  address erc20Address_ */\n      0x00\n        /* \"contracts/core/MPensionVault.sol\":8412:8420  pension_ */\n      dup3\n        /* \"contracts/core/MPensionVault.sol\":8412:8428  pension_.product */\n      0xc0\n      add\n      mload\n        /* \"contracts/core/MPensionVault.sol\":8412:8434  pension_.product.erc20 */\n      0x40\n      add\n      mload\n        /* \"contracts/core/MPensionVault.sol\":8388:8434  address erc20Address_ = pension_.product.erc20 */\n      swap1\n      pop\n        /* \"contracts/core/MPensionVault.sol\":1354:1396  0xEeeeeEeeeEeEeeEeEeEeeEEEeeeeEeeeeeeeEEeE */\n      0xeeeeeeeeeeeeeeeeeeeeeeeeeeeeeeeeeeeeeeee\n        /* \"contracts/core/MPensionVault.sol\":8449:8472  erc20Address_ == NATIVE */\n      0xffffffffffffffffffffffffffffffffffffffff\n      and\n        /* \"contracts/core/MPensionVault.sol\":8449:8462  erc20Address_ */\n      dup2\n        /* \"contracts/core/MPensionVault.sol\":8449:8472  erc20Address_ == NATIVE */\n      0xffffffffffffffffffffffffffffffffffffffff\n      and\n      sub\n        /* \"contracts/core/MPensionVault.sol\":8446:8724  if(erc20Address_ == NATIVE) {... */\n      tag_250\n      jumpi\n        /* \"contracts/core/MPensionVault.sol\":8510:8527  transmittedTotal_ */\n      dup2\n        /* \"contracts/core/MPensionVault.sol\":8497:8506  msg.value */\n      callvalue\n        /* \"contracts/core/MPensionVault.sol\":8497:8527  msg.value >= transmittedTotal_ */\n      lt\n      iszero\n        /* \"contracts/core/MPensionVault.sol\":8489:8560  require(msg.value >= transmittedTotal_, \"insuffient transmitted value\") */\n      tag_251\n      jumpi\n      mload(0x40)\n      0x08c379a000000000000000000000000000000000000000000000000000000000\n      dup2\n      mstore\n      0x04\n      add\n      tag_252\n      swap1\n      tag_253\n      jump\t// in\n    tag_252:\n      mload(0x40)\n      dup1\n      swap2\n      sub\n      swap1\n      revert\n    tag_251:\n        /* \"contracts/core/MPensionVault.sol\":8446:8724  if(erc20Address_ == NATIVE) {... */\n      jump(tag_254)\n    tag_250:\n        /* \"contracts/core/MPensionVault.sol\":8604:8617  IERC20 erc20_ */\n      0x00\n        /* \"contracts/core/MPensionVault.sol\":8627:8640  erc20Address_ */\n      dup2\n        /* \"contracts/core/MPensionVault.sol\":8604:8641  IERC20 erc20_ = IERC20(erc20Address_) */\n      swap1\n      pop\n        /* \"contracts/core/MPensionVault.sol\":8656:8662  erc20_ */\n      dup1\n        /* \"contracts/core/MPensionVault.sol\":8656:8675  erc20_.transferFrom */\n      0xffffffffffffffffffffffffffffffffffffffff\n      and\n      0x23b872dd\n        /* \"contracts/core/MPensionVault.sol\":8676:8686  msg.sender */\n      caller\n        /* \"contracts/core/MPensionVault.sol\":8688:8692  self */\n      immutable(\"0xdd5c0e85d12671451a2813ab72960178ae895d157199d23818aec59b00ee9e8b\")\n        /* \"contracts/core/MPensionVault.sol\":8694:8711  transmittedTotal_ */\n      dup7\n        /* \"contracts/core/MPensionVault.sol\":8656:8712  erc20_.transferFrom(msg.sender, self, transmittedTotal_) */\n      mload(0x40)\n      dup5\n      0xffffffff\n      and\n      0xe0\n      shl\n      dup2\n      mstore\n      0x04\n      add\n      tag_255\n      swap4\n      swap3\n      swap2\n      swap1\n      tag_256\n      jump\t// in\n    tag_255:\n      0x20\n      mload(0x40)\n      dup1\n      dup4\n      sub\n      dup2\n      0x00\n      dup8\n      gas\n      call\n      iszero\n      dup1\n      iszero\n      tag_258\n      jumpi\n      returndatacopy(0x00, 0x00, returndatasize)\n      revert(0x00, returndatasize)\n    tag_258:\n      pop\n      pop\n      pop\n      pop\n      mload(0x40)\n      returndatasize\n      not(0x1f)\n      0x1f\n      dup3\n      add\n      and\n      dup3\n      add\n      dup1\n      0x40\n      mstore\n      pop\n      dup2\n      add\n      swap1\n      tag_259\n      swap2\n      swap1\n      tag_143\n      jump\t// in\n    tag_259:\n      pop\n        /* \"contracts/core/MPensionVault.sol\":8588:8724  { ... */\n      pop\n        /* \"contracts/core/MPensionVault.sol\":8446:8724  if(erc20Address_ == NATIVE) {... */\n    tag_254:\n        /* \"contracts/core/MPensionVault.sol\":8734:8761  uint256 interimDifferential */\n      0x00\n        /* \"contracts/core/MPensionVault.sol\":8781:8788  metrics */\n      0x03\n        /* \"contracts/core/MPensionVault.sol\":8781:8804  metrics.issuedPrincipal */\n      dup1\n      add\n      sload\n        /* \"contracts/core/MPensionVault.sol\":8764:8778  pensionBalance */\n      sload(0x01)\n        /* \"contracts/core/MPensionVault.sol\":8764:8804  pensionBalance - metrics.issuedPrincipal */\n      tag_260\n      swap2\n      swap1\n      tag_261\n      jump\t// in\n    tag_260:\n        /* \"contracts/core/MPensionVault.sol\":8734:8804  uint256 interimDifferential = pensionBalance - metrics.issuedPrincipal */\n      swap1\n      pop\n        /* \"contracts/core/MPensionVault.sol\":8881:8890  _earnings */\n      dup6\n        /* \"contracts/core/MPensionVault.sol\":8855:8862  metrics */\n      0x03\n        /* \"contracts/core/MPensionVault.sol\":8855:8878  metrics.issuedPrincipal */\n      dup1\n      add\n      sload\n        /* \"contracts/core/MPensionVault.sol\":8833:8852  interimDifferential */\n      dup3\n        /* \"contracts/core/MPensionVault.sol\":8833:8878  interimDifferential + metrics.issuedPrincipal */\n      tag_262\n      swap2\n      swap1\n      tag_246\n      jump\t// in\n    tag_262:\n        /* \"contracts/core/MPensionVault.sol\":8833:8890  interimDifferential + metrics.issuedPrincipal + _earnings */\n      tag_263\n      swap2\n      swap1\n      tag_246\n      jump\t// in\n    tag_263:\n        /* \"contracts/core/MPensionVault.sol\":8816:8830  pensionBalance */\n      0x01\n        /* \"contracts/core/MPensionVault.sol\":8816:8890  pensionBalance = interimDifferential + metrics.issuedPrincipal + _earnings */\n      dup2\n      swap1\n      sstore\n      pop\n        /* \"contracts/core/MPensionVault.sol\":9019:9042  checkMaturity(pension_) */\n      tag_264\n        /* \"contracts/core/MPensionVault.sol\":9033:9041  pension_ */\n      dup5\n        /* \"contracts/core/MPensionVault.sol\":9019:9032  checkMaturity */\n      tag_265\n        /* \"contracts/core/MPensionVault.sol\":9019:9042  checkMaturity(pension_) */\n      jump\t// in\n    tag_264:\n        /* \"contracts/core/MPensionVault.sol\":9061:9157  addTx(TxType.CONTRIBUTE, ObjType.MPENSION, pensionId, transmittedTotal_, pension_.product.erc20) */\n      tag_266\n        /* \"contracts/core/MPensionVault.sol\":9067:9084  TxType.CONTRIBUTE */\n      0x01\n        /* \"contracts/core/MPensionVault.sol\":9086:9102  ObjType.MPENSION */\n      0x00\n        /* \"contracts/core/MPensionVault.sol\":9104:9113  pensionId */\n      immutable(\"0x1a65db4f2ea95c4a38ef67ec9eb02656311df27569f1d2e5f15fb9ffe8498721\")\n        /* \"contracts/core/MPensionVault.sol\":9115:9132  transmittedTotal_ */\n      dup7\n        /* \"contracts/core/MPensionVault.sol\":9134:9142  pension_ */\n      dup9\n        /* \"contracts/core/MPensionVault.sol\":9134:9150  pension_.product */\n      0xc0\n      add\n      mload\n        /* \"contracts/core/MPensionVault.sol\":9134:9156  pension_.product.erc20 */\n      0x40\n      add\n      mload\n        /* \"contracts/core/MPensionVault.sol\":9061:9066  addTx */\n      tag_145\n        /* \"contracts/core/MPensionVault.sol\":9061:9157  addTx(TxType.CONTRIBUTE, ObjType.MPENSION, pensionId, transmittedTotal_, pension_.product.erc20) */\n      jump\t// in\n    tag_266:\n        /* \"contracts/core/MPensionVault.sol\":9053:9157  _txId = addTx(TxType.CONTRIBUTE, ObjType.MPENSION, pensionId, transmittedTotal_, pension_.product.erc20) */\n      swap5\n      pop\n        /* \"contracts/core/MPensionVault.sol\":9168:9185  txIdsByTreasuryId */\n      0x08\n        /* \"contracts/core/MPensionVault.sol\":9168:9198  txIdsByTreasuryId[_treasuryId] */\n      0x00\n        /* \"contracts/core/MPensionVault.sol\":9186:9197  _treasuryId */\n      dup10\n        /* \"contracts/core/MPensionVault.sol\":9168:9198  txIdsByTreasuryId[_treasuryId] */\n      dup2\n      mstore\n      0x20\n      add\n      swap1\n      dup2\n      mstore\n      0x20\n      add\n      0x00\n      keccak256\n        /* \"contracts/core/MPensionVault.sol\":9204:9209  _txId */\n      dup6\n        /* \"contracts/core/MPensionVault.sol\":9168:9210  txIdsByTreasuryId[_treasuryId].push(_txId) */\n      swap1\n      dup1\n      0x01\n      dup2\n      sload\n      add\n      dup1\n      dup3\n      sstore\n      dup1\n      swap2\n      pop\n      pop\n      0x01\n      swap1\n      sub\n      swap1\n      0x00\n      mstore\n      keccak256(0x00, 0x20)\n      add\n      0x00\n      swap1\n      swap2\n      swap1\n      swap2\n      swap1\n      swap2\n      pop\n      sstore\n        /* \"contracts/core/MPensionVault.sol\":9246:9251  false */\n      0x00\n        /* \"contracts/core/MPensionVault.sol\":9223:9230  metrics */\n      0x03\n        /* \"contracts/core/MPensionVault.sol\":9223:9243  metrics.isInTreasury */\n      0x04\n      add\n      0x00\n        /* \"contracts/core/MPensionVault.sol\":9223:9251  metrics.isInTreasury = false */\n      0x0100\n      exp\n      dup2\n      sload\n      dup2\n      0xff\n      mul\n      not\n      and\n      swap1\n      dup4\n      iszero\n      iszero\n      mul\n      or\n      swap1\n      sstore\n      pop\n        /* \"contracts/core/MPensionVault.sol\":9283:9288  false */\n      0x00\n        /* \"contracts/core/MPensionVault.sol\":9274:9280  locked */\n      0x00\n      0x00\n        /* \"contracts/core/MPensionVault.sol\":9274:9288  locked = false */\n      0x0100\n      exp\n      dup2\n      sload\n      dup2\n      0xff\n      mul\n      not\n      and\n      swap1\n      dup4\n      iszero\n      iszero\n      mul\n      or\n      swap1\n      sstore\n      pop\n        /* \"contracts/core/MPensionVault.sol\":9317:9329  return _txId */\n      pop\n      pop\n      pop\n      pop\n        /* \"contracts/core/MPensionVault.sol\":7928:9339  function push(uint256 _treasuryId, uint256 _principal, uint256 _earnings)  payable external semaphore treasuryOnly returns (uint256 _txId){... */\n      swap4\n      swap3\n      pop\n      pop\n      pop\n      jump\t// out\n        /* \"contracts/core/MPensionVault.sol\":3096:3235  function getTx(uint256 _treasuryId) view external returns (uint256 [] memory _txId){... */\n    tag_73:\n        /* \"contracts/core/MPensionVault.sol\":3155:3178  uint256 [] memory _txId */\n      0x60\n        /* \"contracts/core/MPensionVault.sol\":3197:3214  txIdsByTreasuryId */\n      0x08\n        /* \"contracts/core/MPensionVault.sol\":3197:3227  txIdsByTreasuryId[_treasuryId] */\n      0x00\n        /* \"contracts/core/MPensionVault.sol\":3215:3226  _treasuryId */\n      dup4\n        /* \"contracts/core/MPensionVault.sol\":3197:3227  txIdsByTreasuryId[_treasuryId] */\n      dup2\n      mstore\n      0x20\n      add\n      swap1\n      dup2\n      mstore\n      0x20\n      add\n      0x00\n      keccak256\n        /* \"contracts/core/MPensionVault.sol\":3190:3227  return txIdsByTreasuryId[_treasuryId] */\n      dup1\n      sload\n      dup1\n      0x20\n      mul\n      0x20\n      add\n      mload(0x40)\n      swap1\n      dup2\n      add\n      0x40\n      mstore\n      dup1\n      swap3\n      swap2\n      swap1\n      dup2\n      dup2\n      mstore\n      0x20\n      add\n      dup3\n      dup1\n      sload\n      dup1\n      iszero\n      tag_269\n      jumpi\n      0x20\n      mul\n      dup3\n      add\n      swap2\n      swap1\n      0x00\n      mstore\n      keccak256(0x00, 0x20)\n      swap1\n    tag_270:\n      dup2\n      sload\n      dup2\n      mstore\n      0x20\n      add\n      swap1\n      0x01\n      add\n      swap1\n      dup1\n      dup4\n      gt\n      tag_270\n      jumpi\n    tag_269:\n      pop\n      pop\n      pop\n      pop\n      pop\n      swap1\n      pop\n        /* \"contracts/core/MPensionVault.sol\":3096:3235  function getTx(uint256 _treasuryId) view external returns (uint256 [] memory _txId){... */\n      swap2\n      swap1\n      pop\n      jump\t// out\n        /* \"contracts/core/MPensionVault.sol\":3243:4421  function contribute(uint256 _amount) payable external returns (uint256 _txId){... */\n    tag_78:\n        /* \"contracts/core/MPensionVault.sol\":3306:3319  uint256 _txId */\n      0x00\n        /* \"contracts/core/MPensionVault.sol\":3340:3344  true */\n      0x01\n        /* \"contracts/core/MPensionVault.sol\":3331:3337  locked */\n      0x00\n      0x00\n        /* \"contracts/core/MPensionVault.sol\":3331:3344  locked = true */\n      0x0100\n      exp\n      dup2\n      sload\n      dup2\n      0xff\n      mul\n      not\n      and\n      swap1\n      dup4\n      iszero\n      iszero\n      mul\n      or\n      swap1\n      sstore\n      pop\n        /* \"contracts/core/MPensionVault.sol\":3411:3426  block.timestamp */\n      timestamp\n        /* \"contracts/core/MPensionVault.sol\":3379:3386  metrics */\n      0x03\n        /* \"contracts/core/MPensionVault.sol\":3379:3407  metrics.lastContributionDate */\n      0x01\n      add\n      sload\n        /* \"contracts/core/MPensionVault.sol\":3379:3426  metrics.lastContributionDate <= block.timestamp */\n      gt\n      iszero\n        /* \"contracts/core/MPensionVault.sol\":3371:3473  require(metrics.lastContributionDate <= block.timestamp, \"contributions too frequent wait required \" ) */\n      tag_272\n      jumpi\n      mload(0x40)\n      0x08c379a000000000000000000000000000000000000000000000000000000000\n      dup2\n      mstore\n      0x04\n      add\n      tag_273\n      swap1\n      tag_274\n      jump\t// in\n    tag_273:\n      mload(0x40)\n      dup1\n      swap2\n      sub\n      swap1\n      revert\n    tag_272:\n        /* \"contracts/core/MPensionVault.sol\":3510:3534  MPScheduleStatus.MATURED */\n      0x01\n        /* \"contracts/core/MPensionVault.sol\":3492:3534  scheduleStatus != MPScheduleStatus.MATURED */\n      0x02\n      dup2\n      gt\n      iszero\n      tag_275\n      jumpi\n      tag_276\n      tag_107\n      jump\t// in\n    tag_276:\n    tag_275:\n        /* \"contracts/core/MPensionVault.sol\":3492:3506  scheduleStatus */\n      0x00\n      0x02\n      swap1\n      sload\n      swap1\n      0x0100\n      exp\n      swap1\n      div\n      0xff\n      and\n        /* \"contracts/core/MPensionVault.sol\":3492:3534  scheduleStatus != MPScheduleStatus.MATURED */\n      0x02\n      dup2\n      gt\n      iszero\n      tag_277\n      jumpi\n      tag_278\n      tag_107\n      jump\t// in\n    tag_278:\n    tag_277:\n      sub\n        /* \"contracts/core/MPensionVault.sol\":3484:3554  require(scheduleStatus != MPScheduleStatus.MATURED, \"pension matured\") */\n      tag_279\n      jumpi\n      mload(0x40)\n      0x08c379a000000000000000000000000000000000000000000000000000000000\n      dup2\n      mstore\n      0x04\n      add\n      tag_280\n      swap1\n      tag_281\n      jump\t// in\n    tag_280:\n      mload(0x40)\n      dup1\n      swap2\n      sub\n      swap1\n      revert\n    tag_279:\n        /* \"contracts/core/MPensionVault.sol\":3583:3596  MPStatus.OPEN */\n      0x00\n        /* \"contracts/core/MPensionVault.sol\":3573:3596  status == MPStatus.OPEN */\n      0x03\n      dup2\n      gt\n      iszero\n      tag_282\n      jumpi\n      tag_283\n      tag_107\n      jump\t// in\n    tag_283:\n    tag_282:\n        /* \"contracts/core/MPensionVault.sol\":3573:3579  status */\n      0x00\n      0x01\n      swap1\n      sload\n      swap1\n      0x0100\n      exp\n      swap1\n      div\n      0xff\n      and\n        /* \"contracts/core/MPensionVault.sol\":3573:3596  status == MPStatus.OPEN */\n      0x03\n      dup2\n      gt\n      iszero\n      tag_284\n      jumpi\n      tag_285\n      tag_107\n      jump\t// in\n    tag_285:\n    tag_284:\n      eq\n        /* \"contracts/core/MPensionVault.sol\":3565:3617  require(status == MPStatus.OPEN, \"pension not open\") */\n      tag_286\n      jumpi\n      mload(0x40)\n      0x08c379a000000000000000000000000000000000000000000000000000000000\n      dup2\n      mstore\n      0x04\n      add\n      tag_287\n      swap1\n      tag_288\n      jump\t// in\n    tag_287:\n      mload(0x40)\n      dup1\n      swap2\n      sub\n      swap1\n      revert\n    tag_286:\n        /* \"contracts/core/MPensionVault.sol\":3630:3654  MPension memory pension_ */\n      0x00\n        /* \"contracts/core/MPensionVault.sol\":3657:3677  getPensionInternal() */\n      tag_289\n        /* \"contracts/core/MPensionVault.sol\":3657:3675  getPensionInternal */\n      tag_115\n        /* \"contracts/core/MPensionVault.sol\":3657:3677  getPensionInternal() */\n      jump\t// in\n    tag_289:\n        /* \"contracts/core/MPensionVault.sol\":3630:3677  MPension memory pension_ = getPensionInternal() */\n      swap1\n      pop\n        /* \"contracts/core/MPensionVault.sol\":3721:3785  MPLib.getSeconds(pension_.product.contributionSchedule.schedule) */\n      tag_290\n        /* \"contracts/core/MPensionVault.sol\":3738:3746  pension_ */\n      dup2\n        /* \"contracts/core/MPensionVault.sol\":3738:3754  pension_.product */\n      0xc0\n      add\n      mload\n        /* \"contracts/core/MPensionVault.sol\":3738:3775  pension_.product.contributionSchedule */\n      0xe0\n      add\n      mload\n        /* \"contracts/core/MPensionVault.sol\":3738:3784  pension_.product.contributionSchedule.schedule */\n      0x00\n      add\n      mload\n        /* \"contracts/core/MPensionVault.sol\":3721:3737  MPLib.getSeconds */\n      tag_291\n        /* \"contracts/core/MPensionVault.sol\":3721:3785  MPLib.getSeconds(pension_.product.contributionSchedule.schedule) */\n      jump\t// in\n    tag_290:\n        /* \"contracts/core/MPensionVault.sol\":3689:3696  metrics */\n      0x03\n        /* \"contracts/core/MPensionVault.sol\":3689:3717  metrics.lastContributionDate */\n      0x01\n      add\n      0x00\n        /* \"contracts/core/MPensionVault.sol\":3689:3785  metrics.lastContributionDate += MPLib.getSeconds(pension_.product.contributionSchedule.schedule) */\n      dup3\n      dup3\n      sload\n      tag_292\n      swap2\n      swap1\n      tag_246\n      jump\t// in\n    tag_292:\n      swap3\n      pop\n      pop\n      dup2\n      swap1\n      sstore\n      pop\n        /* \"contracts/core/MPensionVault.sol\":3818:3826  pension_ */\n      dup1\n        /* \"contracts/core/MPensionVault.sol\":3818:3834  pension_.product */\n      0xc0\n      add\n      mload\n        /* \"contracts/core/MPensionVault.sol\":3818:3855  pension_.product.contributionSchedule */\n      0xe0\n      add\n      mload\n        /* \"contracts/core/MPensionVault.sol\":3818:3869  pension_.product.contributionSchedule.minimumAmount */\n      0x40\n      add\n      mload\n        /* \"contracts/core/MPensionVault.sol\":3807:3814  _amount */\n      dup4\n        /* \"contracts/core/MPensionVault.sol\":3807:3869  _amount >= pension_.product.contributionSchedule.minimumAmount */\n      lt\n      iszero\n        /* \"contracts/core/MPensionVault.sol\":3807:3935  _amount >= pension_.product.contributionSchedule.minimumAmount && _amount <= pension_.product.contributionSchedule.maximumAmount */\n      dup1\n      iszero\n      tag_293\n      jumpi\n      pop\n        /* \"contracts/core/MPensionVault.sol\":3884:3892  pension_ */\n      dup1\n        /* \"contracts/core/MPensionVault.sol\":3884:3900  pension_.product */\n      0xc0\n      add\n      mload\n        /* \"contracts/core/MPensionVault.sol\":3884:3921  pension_.product.contributionSchedule */\n      0xe0\n      add\n      mload\n        /* \"contracts/core/MPensionVault.sol\":3884:3935  pension_.product.contributionSchedule.maximumAmount */\n      0x60\n      add\n      mload\n        /* \"contracts/core/MPensionVault.sol\":3873:3880  _amount */\n      dup4\n        /* \"contracts/core/MPensionVault.sol\":3873:3935  _amount <= pension_.product.contributionSchedule.maximumAmount */\n      gt\n      iszero\n        /* \"contracts/core/MPensionVault.sol\":3807:3935  _amount >= pension_.product.contributionSchedule.minimumAmount && _amount <= pension_.product.contributionSchedule.maximumAmount */\n    tag_293:\n        /* \"contracts/core/MPensionVault.sol\":3799:3989  require(_amount >= pension_.product.contributionSchedule.minimumAmount && _amount <= pension_.product.contributionSchedule.maximumAmount, \"invalid contribution either raise or lower amount\") */\n      tag_294\n      jumpi\n      mload(0x40)\n      0x08c379a000000000000000000000000000000000000000000000000000000000\n      dup2\n      mstore\n      0x04\n      add\n      tag_295\n      swap1\n      tag_296\n      jump\t// in\n    tag_295:\n      mload(0x40)\n      dup1\n      swap2\n      sub\n      swap1\n      revert\n    tag_294:\n        /* \"contracts/core/MPensionVault.sol\":4002:4023  address erc20Address_ */\n      0x00\n        /* \"contracts/core/MPensionVault.sol\":4026:4034  pension_ */\n      dup2\n        /* \"contracts/core/MPensionVault.sol\":4026:4042  pension_.product */\n      0xc0\n      add\n      mload\n        /* \"contracts/core/MPensionVault.sol\":4026:4048  pension_.product.erc20 */\n      0x40\n      add\n      mload\n        /* \"contracts/core/MPensionVault.sol\":4002:4048  address erc20Address_ = pension_.product.erc20 */\n      swap1\n      pop\n        /* \"contracts/core/MPensionVault.sol\":4060:4106  MPLib.transferIn(erc20Address_, _amount, self) */\n      tag_297\n        /* \"contracts/core/MPensionVault.sol\":4077:4090  erc20Address_ */\n      dup2\n        /* \"contracts/core/MPensionVault.sol\":4092:4099  _amount */\n      dup6\n        /* \"contracts/core/MPensionVault.sol\":4101:4105  self */\n      immutable(\"0xdd5c0e85d12671451a2813ab72960178ae895d157199d23818aec59b00ee9e8b\")\n        /* \"contracts/core/MPensionVault.sol\":4060:4076  MPLib.transferIn */\n      tag_298\n        /* \"contracts/core/MPensionVault.sol\":4060:4106  MPLib.transferIn(erc20Address_, _amount, self) */\n      jump\t// in\n    tag_297:\n      pop\n        /* \"contracts/core/MPensionVault.sol\":4137:4144  _amount */\n      dup4\n        /* \"contracts/core/MPensionVault.sol\":4119:4133  pensionBalance */\n      0x01\n      0x00\n        /* \"contracts/core/MPensionVault.sol\":4119:4144  pensionBalance += _amount */\n      dup3\n      dup3\n      sload\n      tag_299\n      swap2\n      swap1\n      tag_246\n      jump\t// in\n    tag_299:\n      swap3\n      pop\n      pop\n      dup2\n      swap1\n      sstore\n      pop\n        /* \"contracts/core/MPensionVault.sol\":4156:4163  metrics */\n      0x03\n        /* \"contracts/core/MPensionVault.sol\":4156:4177  metrics.contributions */\n      0x00\n      add\n      0x00\n        /* \"contracts/core/MPensionVault.sol\":4156:4179  metrics.contributions++ */\n      dup2\n      sload\n      dup1\n      swap3\n      swap2\n      swap1\n      tag_300\n      swap1\n      tag_301\n      jump\t// in\n    tag_300:\n      swap2\n      swap1\n      pop\n      sstore\n      pop\n        /* \"contracts/core/MPensionVault.sol\":4365:4370  false */\n      0x00\n        /* \"contracts/core/MPensionVault.sol\":4356:4362  locked */\n      0x00\n      0x00\n        /* \"contracts/core/MPensionVault.sol\":4356:4370  locked = false */\n      0x0100\n      exp\n      dup2\n      sload\n      dup2\n      0xff\n      mul\n      not\n      and\n      swap1\n      dup4\n      iszero\n      iszero\n      mul\n      or\n      swap1\n      sstore\n      pop\n        /* \"contracts/core/MPensionVault.sol\":4399:4411  return _txId */\n      pop\n      pop\n        /* \"contracts/core/MPensionVault.sol\":3243:4421  function contribute(uint256 _amount) payable external returns (uint256 _txId){... */\n      swap2\n      swap1\n      pop\n      jump\t// out\n        /* \"contracts/core/MPensionVault.sol\":9347:9525  function notifyChangeOfAddress() external adminOnly returns (bool _acknowledged) { ... */\n    tag_82:\n        /* \"contracts/core/MPensionVault.sol\":9408:9426  bool _acknowledged */\n      0x00\n        /* \"contracts/core/MPensionVault.sol\":1010:1018  register */\n      0x00\n      0x03\n      swap1\n      sload\n      swap1\n      0x0100\n      exp\n      swap1\n      div\n      0xffffffffffffffffffffffffffffffffffffffff\n      and\n        /* \"contracts/core/MPensionVault.sol\":1010:1029  register.getAddress */\n      0xffffffffffffffffffffffffffffffffffffffff\n      and\n      0xbf40fac1\n        /* \"contracts/core/MPensionVault.sol\":1030:1046  PENSION_ADMIN_CA */\n      mload(0x40)\n      dup1\n      0x40\n      add\n      0x40\n      mstore\n      dup1\n      0x11\n      dup2\n      mstore\n      0x20\n      add\n      0x52455345525645445f4d505f41444d494e000000000000000000000000000000\n      dup2\n      mstore\n      pop\n        /* \"contracts/core/MPensionVault.sol\":1010:1047  register.getAddress(PENSION_ADMIN_CA) */\n      mload(0x40)\n      dup3\n      0xffffffff\n      and\n      0xe0\n      shl\n      dup2\n      mstore\n      0x04\n      add\n      tag_303\n      swap2\n      swap1\n      tag_32\n      jump\t// in\n    tag_303:\n      0x20\n      mload(0x40)\n      dup1\n      dup4\n      sub\n      dup2\n      dup7\n      gas\n      staticcall\n      iszero\n      dup1\n      iszero\n      tag_305\n      jumpi\n      returndatacopy(0x00, 0x00, returndatasize)\n      revert(0x00, returndatasize)\n    tag_305:\n      pop\n      pop\n      pop\n      pop\n      mload(0x40)\n      returndatasize\n      not(0x1f)\n      0x1f\n      dup3\n      add\n      and\n      dup3\n      add\n      dup1\n      0x40\n      mstore\n      pop\n      dup2\n      add\n      swap1\n      tag_306\n      swap2\n      swap1\n      tag_97\n      jump\t// in\n    tag_306:\n        /* \"contracts/core/MPensionVault.sol\":996:1047  msg.sender == register.getAddress(PENSION_ADMIN_CA) */\n      0xffffffffffffffffffffffffffffffffffffffff\n      and\n        /* \"contracts/core/MPensionVault.sol\":996:1006  msg.sender */\n      caller\n        /* \"contracts/core/MPensionVault.sol\":996:1047  msg.sender == register.getAddress(PENSION_ADMIN_CA) */\n      0xffffffffffffffffffffffffffffffffffffffff\n      and\n      eq\n        /* \"contracts/core/MPensionVault.sol\":988:1070  require(msg.sender == register.getAddress(PENSION_ADMIN_CA), \"Pension Admin Only\") */\n      tag_307\n      jumpi\n      mload(0x40)\n      0x08c379a000000000000000000000000000000000000000000000000000000000\n      dup2\n      mstore\n      0x04\n      add\n      tag_308\n      swap1\n      tag_100\n      jump\t// in\n    tag_308:\n      mload(0x40)\n      dup1\n      swap2\n      sub\n      swap1\n      revert\n    tag_307:\n        /* \"contracts/core/MPensionVault.sol\":9461:9469  register */\n      0x00\n      0x03\n      swap1\n      sload\n      swap1\n      0x0100\n      exp\n      swap1\n      div\n      0xffffffffffffffffffffffffffffffffffffffff\n      and\n        /* \"contracts/core/MPensionVault.sol\":9461:9480  register.getAddress */\n      0xffffffffffffffffffffffffffffffffffffffff\n      and\n      0xbf40fac1\n        /* \"contracts/core/MPensionVault.sol\":9481:9492  REGISTER_CA */\n      mload(0x40)\n      dup1\n      0x40\n      add\n      0x40\n      mstore\n      dup1\n      0x14\n      dup2\n      mstore\n      0x20\n      add\n      0x52455345525645445f4d505f5245474953544552000000000000000000000000\n      dup2\n      mstore\n      pop\n        /* \"contracts/core/MPensionVault.sol\":9461:9493  register.getAddress(REGISTER_CA) */\n      mload(0x40)\n      dup3\n      0xffffffff\n      and\n      0xe0\n      shl\n      dup2\n      mstore\n      0x04\n      add\n      tag_310\n      swap2\n      swap1\n      tag_32\n      jump\t// in\n    tag_310:\n      0x20\n      mload(0x40)\n      dup1\n      dup4\n      sub\n      dup2\n      dup7\n      gas\n      staticcall\n      iszero\n      dup1\n      iszero\n      tag_312\n      jumpi\n      returndatacopy(0x00, 0x00, returndatasize)\n      revert(0x00, returndatasize)\n    tag_312:\n      pop\n      pop\n      pop\n      pop\n      mload(0x40)\n      returndatasize\n      not(0x1f)\n      0x1f\n      dup3\n      add\n      and\n      dup3\n      add\n      dup1\n      0x40\n      mstore\n      pop\n      dup2\n      add\n      swap1\n      tag_313\n      swap2\n      swap1\n      tag_97\n      jump\t// in\n    tag_313:\n        /* \"contracts/core/MPensionVault.sol\":9440:9448  register */\n      0x00\n      0x03\n        /* \"contracts/core/MPensionVault.sol\":9440:9494  register = IRegister(register.getAddress(REGISTER_CA)) */\n      0x0100\n      exp\n      dup2\n      sload\n      dup2\n      0xffffffffffffffffffffffffffffffffffffffff\n      mul\n      not\n      and\n      swap1\n      dup4\n      0xffffffffffffffffffffffffffffffffffffffff\n      and\n      mul\n      or\n      swap1\n      sstore\n      pop\n        /* \"contracts/core/MPensionVault.sol\":9512:9516  true */\n      0x01\n        /* \"contracts/core/MPensionVault.sol\":9505:9516  return true */\n      swap1\n      pop\n        /* \"contracts/core/MPensionVault.sol\":9347:9525  function notifyChangeOfAddress() external adminOnly returns (bool _acknowledged) { ... */\n      swap1\n      jump\t// out\n        /* \"contracts/core/MPensionVault.sol\":4429:5472  function drawdown() external ownerOnly semaphore returns (uint256 _txId){... */\n    tag_87:\n        /* \"contracts/core/MPensionVault.sol\":4487:4500  uint256 _txId */\n      0x00\n        /* \"contracts/core/MPensionVault.sol\":888:908  getPensionInternal() */\n      tag_315\n        /* \"contracts/core/MPensionVault.sol\":888:906  getPensionInternal */\n      tag_115\n        /* \"contracts/core/MPensionVault.sol\":888:908  getPensionInternal() */\n      jump\t// in\n    tag_315:\n        /* \"contracts/core/MPensionVault.sol\":888:914  getPensionInternal().owner */\n      0x40\n      add\n      mload\n        /* \"contracts/core/MPensionVault.sol\":874:914  msg.sender == getPensionInternal().owner */\n      0xffffffffffffffffffffffffffffffffffffffff\n      and\n        /* \"contracts/core/MPensionVault.sol\":874:884  msg.sender */\n      caller\n        /* \"contracts/core/MPensionVault.sol\":874:914  msg.sender == getPensionInternal().owner */\n      0xffffffffffffffffffffffffffffffffffffffff\n      and\n      eq\n        /* \"contracts/core/MPensionVault.sol\":866:929  require(msg.sender == getPensionInternal().owner, \"owner only\") */\n      tag_316\n      jumpi\n      mload(0x40)\n      0x08c379a000000000000000000000000000000000000000000000000000000000\n      dup2\n      mstore\n      0x04\n      add\n      tag_317\n      swap1\n      tag_318\n      jump\t// in\n    tag_317:\n      mload(0x40)\n      dup1\n      swap2\n      sub\n      swap1\n      revert\n    tag_316:\n        /* \"contracts/core/MPensionVault.sol\":720:726  locked */\n      0x00\n      0x00\n      swap1\n      sload\n      swap1\n      0x0100\n      exp\n      swap1\n      div\n      0xff\n      and\n        /* \"contracts/core/MPensionVault.sol\":719:726  !locked */\n      iszero\n        /* \"contracts/core/MPensionVault.sol\":711:743  require(!locked, \"vault locked\") */\n      tag_320\n      jumpi\n      mload(0x40)\n      0x08c379a000000000000000000000000000000000000000000000000000000000\n      dup2\n      mstore\n      0x04\n      add\n      tag_321\n      swap1\n      tag_104\n      jump\t// in\n    tag_321:\n      mload(0x40)\n      dup1\n      swap2\n      sub\n      swap1\n      revert\n    tag_320:\n        /* \"contracts/core/MPensionVault.sol\":772:787  MPStatus.CLOSED */\n      0x02\n        /* \"contracts/core/MPensionVault.sol\":762:787  status != MPStatus.CLOSED */\n      0x03\n      dup2\n      gt\n      iszero\n      tag_322\n      jumpi\n      tag_323\n      tag_107\n      jump\t// in\n    tag_323:\n    tag_322:\n        /* \"contracts/core/MPensionVault.sol\":762:768  status */\n      0x00\n      0x01\n      swap1\n      sload\n      swap1\n      0x0100\n      exp\n      swap1\n      div\n      0xff\n      and\n        /* \"contracts/core/MPensionVault.sol\":762:787  status != MPStatus.CLOSED */\n      0x03\n      dup2\n      gt\n      iszero\n      tag_324\n      jumpi\n      tag_325\n      tag_107\n      jump\t// in\n    tag_325:\n    tag_324:\n      sub\n        /* \"contracts/core/MPensionVault.sol\":754:804  require(status != MPStatus.CLOSED, \"vault closed\") */\n      tag_326\n      jumpi\n      mload(0x40)\n      0x08c379a000000000000000000000000000000000000000000000000000000000\n      dup2\n      mstore\n      0x04\n      add\n      tag_327\n      swap1\n      tag_112\n      jump\t// in\n    tag_327:\n      mload(0x40)\n      dup1\n      swap2\n      sub\n      swap1\n      revert\n    tag_326:\n        /* \"contracts/core/MPensionVault.sol\":4512:4536  MPension memory pension_ */\n      0x00\n        /* \"contracts/core/MPensionVault.sol\":4539:4559  getPensionInternal() */\n      tag_329\n        /* \"contracts/core/MPensionVault.sol\":4539:4557  getPensionInternal */\n      tag_115\n        /* \"contracts/core/MPensionVault.sol\":4539:4559  getPensionInternal() */\n      jump\t// in\n    tag_329:\n        /* \"contracts/core/MPensionVault.sol\":4512:4559  MPension memory pension_ = getPensionInternal() */\n      swap1\n      pop\n        /* \"contracts/core/MPensionVault.sol\":4583:4587  true */\n      0x01\n        /* \"contracts/core/MPensionVault.sol\":4574:4580  locked */\n      0x00\n      0x00\n        /* \"contracts/core/MPensionVault.sol\":4574:4587  locked = true */\n      0x0100\n      exp\n      dup2\n      sload\n      dup2\n      0xff\n      mul\n      not\n      and\n      swap1\n      dup4\n      iszero\n      iszero\n      mul\n      or\n      swap1\n      sstore\n      pop\n        /* \"contracts/core/MPensionVault.sol\":4617:4638  MPStatus.DISBURSEMENT */\n      0x01\n        /* \"contracts/core/MPensionVault.sol\":4607:4638  status == MPStatus.DISBURSEMENT */\n      0x03\n      dup2\n      gt\n      iszero\n      tag_330\n      jumpi\n      tag_331\n      tag_107\n      jump\t// in\n    tag_331:\n    tag_330:\n        /* \"contracts/core/MPensionVault.sol\":4607:4613  status */\n      0x00\n      0x01\n      swap1\n      sload\n      swap1\n      0x0100\n      exp\n      swap1\n      div\n      0xff\n      and\n        /* \"contracts/core/MPensionVault.sol\":4607:4638  status == MPStatus.DISBURSEMENT */\n      0x03\n      dup2\n      gt\n      iszero\n      tag_332\n      jumpi\n      tag_333\n      tag_107\n      jump\t// in\n    tag_333:\n    tag_332:\n      eq\n        /* \"contracts/core/MPensionVault.sol\":4599:4665  require(status == MPStatus.DISBURSEMENT, \"invalid pension status\") */\n      tag_334\n      jumpi\n      mload(0x40)\n      0x08c379a000000000000000000000000000000000000000000000000000000000\n      dup2\n      mstore\n      0x04\n      add\n      tag_335\n      swap1\n      tag_336\n      jump\t// in\n    tag_335:\n      mload(0x40)\n      dup1\n      swap2\n      sub\n      swap1\n      revert\n    tag_334:\n        /* \"contracts/core/MPensionVault.sol\":4703:4727  MPScheduleStatus.SETTLED */\n      0x02\n        /* \"contracts/core/MPensionVault.sol\":4685:4727  scheduleStatus != MPScheduleStatus.SETTLED */\n      dup1\n      dup2\n      gt\n      iszero\n      tag_337\n      jumpi\n      tag_338\n      tag_107\n      jump\t// in\n    tag_338:\n    tag_337:\n        /* \"contracts/core/MPensionVault.sol\":4685:4699  scheduleStatus */\n      0x00\n      0x02\n      swap1\n      sload\n      swap1\n      0x0100\n      exp\n      swap1\n      div\n      0xff\n      and\n        /* \"contracts/core/MPensionVault.sol\":4685:4727  scheduleStatus != MPScheduleStatus.SETTLED */\n      0x02\n      dup2\n      gt\n      iszero\n      tag_339\n      jumpi\n      tag_340\n      tag_107\n      jump\t// in\n    tag_340:\n    tag_339:\n      sub\n        /* \"contracts/core/MPensionVault.sol\":4677:4747  require(scheduleStatus != MPScheduleStatus.SETTLED, \"pension settled\") */\n      tag_341\n      jumpi\n      mload(0x40)\n      0x08c379a000000000000000000000000000000000000000000000000000000000\n      dup2\n      mstore\n      0x04\n      add\n      tag_342\n      swap1\n      tag_343\n      jump\t// in\n    tag_342:\n      mload(0x40)\n      dup1\n      swap2\n      sub\n      swap1\n      revert\n    tag_341:\n        /* \"contracts/core/MPensionVault.sol\":4760:4778  uint256 emmission_ */\n      0x00\n        /* \"contracts/core/MPensionVault.sol\":4781:4789  pension_ */\n      dup2\n        /* \"contracts/core/MPensionVault.sol\":4781:4797  pension_.product */\n      0xc0\n      add\n      mload\n        /* \"contracts/core/MPensionVault.sol\":4781:4814  pension_.product.emissionSchedule */\n      0x0100\n      add\n      mload\n        /* \"contracts/core/MPensionVault.sol\":4781:4828  pension_.product.emissionSchedule.minimumAmount */\n      0x40\n      add\n      mload\n        /* \"contracts/core/MPensionVault.sol\":4760:4828  uint256 emmission_ = pension_.product.emissionSchedule.minimumAmount */\n      swap1\n      pop\n        /* \"contracts/core/MPensionVault.sol\":4867:4877  emmission_ */\n      dup1\n        /* \"contracts/core/MPensionVault.sol\":4849:4863  pensionBalance */\n      sload(0x01)\n        /* \"contracts/core/MPensionVault.sol\":4849:4877  pensionBalance >= emmission_ */\n      lt\n      iszero\n        /* \"contracts/core/MPensionVault.sol\":4841:4912  require(pensionBalance >= emmission_, \"insufficient emmission balance\") */\n      tag_344\n      jumpi\n      mload(0x40)\n      0x08c379a000000000000000000000000000000000000000000000000000000000\n      dup2\n      mstore\n      0x04\n      add\n      tag_345\n      swap1\n      tag_346\n      jump\t// in\n    tag_345:\n      mload(0x40)\n      dup1\n      swap2\n      sub\n      swap1\n      revert\n    tag_344:\n        /* \"contracts/core/MPensionVault.sol\":4930:4944  address owner_ */\n      0x00\n        /* \"contracts/core/MPensionVault.sol\":4947:4955  pension_ */\n      dup3\n        /* \"contracts/core/MPensionVault.sol\":4947:4961  pension_.owner */\n      0x40\n      add\n      mload\n        /* \"contracts/core/MPensionVault.sol\":4930:4961  address owner_ = pension_.owner */\n      swap1\n      pop\n        /* \"contracts/core/MPensionVault.sol\":4991:5001  emmission_ */\n      dup2\n        /* \"contracts/core/MPensionVault.sol\":4973:4987  pensionBalance */\n      0x01\n      0x00\n        /* \"contracts/core/MPensionVault.sol\":4973:5001  pensionBalance -= emmission_ */\n      dup3\n      dup3\n      sload\n      tag_347\n      swap2\n      swap1\n      tag_261\n      jump\t// in\n    tag_347:\n      swap3\n      pop\n      pop\n      dup2\n      swap1\n      sstore\n      pop\n        /* \"contracts/core/MPensionVault.sol\":1354:1396  0xEeeeeEeeeEeEeeEeEeEeeEEEeeeeEeeeeeeeEEeE */\n      0xeeeeeeeeeeeeeeeeeeeeeeeeeeeeeeeeeeeeeeee\n        /* \"contracts/core/MPensionVault.sol\":5018:5050  pension_.product.erc20 == NATIVE */\n      0xffffffffffffffffffffffffffffffffffffffff\n      and\n        /* \"contracts/core/MPensionVault.sol\":5018:5026  pension_ */\n      dup4\n        /* \"contracts/core/MPensionVault.sol\":5018:5034  pension_.product */\n      0xc0\n      add\n      mload\n        /* \"contracts/core/MPensionVault.sol\":5018:5040  pension_.product.erc20 */\n      0x40\n      add\n      mload\n        /* \"contracts/core/MPensionVault.sol\":5018:5050  pension_.product.erc20 == NATIVE */\n      0xffffffffffffffffffffffffffffffffffffffff\n      and\n      sub\n        /* \"contracts/core/MPensionVault.sol\":5015:5255  if(pension_.product.erc20 == NATIVE) {... */\n      tag_348\n      jumpi\n        /* \"contracts/core/MPensionVault.sol\":5075:5081  owner_ */\n      dup1\n        /* \"contracts/core/MPensionVault.sol\":5067:5091  payable(owner_).transfer */\n      0xffffffffffffffffffffffffffffffffffffffff\n      and\n        /* \"contracts/core/MPensionVault.sol\":5067:5103  payable(owner_).transfer(emmission_) */\n      0x08fc\n        /* \"contracts/core/MPensionVault.sol\":5092:5102  emmission_ */\n      dup4\n        /* \"contracts/core/MPensionVault.sol\":5067:5103  payable(owner_).transfer(emmission_) */\n      swap1\n      dup2\n      iszero\n      mul\n      swap1\n      mload(0x40)\n      0x00\n      mload(0x40)\n      dup1\n      dup4\n      sub\n      dup2\n      dup6\n      dup9\n      dup9\n      call\n      swap4\n      pop\n      pop\n      pop\n      pop\n      iszero\n      dup1\n      iszero\n      tag_350\n      jumpi\n      returndatacopy(0x00, 0x00, returndatasize)\n      revert(0x00, returndatasize)\n    tag_350:\n      pop\n        /* \"contracts/core/MPensionVault.sol\":5015:5255  if(pension_.product.erc20 == NATIVE) {... */\n      jump(tag_351)\n    tag_348:\n        /* \"contracts/core/MPensionVault.sol\":5146:5159  IERC20 erc20_ */\n      0x00\n        /* \"contracts/core/MPensionVault.sol\":5169:5177  pension_ */\n      dup4\n        /* \"contracts/core/MPensionVault.sol\":5169:5185  pension_.product */\n      0xc0\n      add\n      mload\n        /* \"contracts/core/MPensionVault.sol\":5169:5191  pension_.product.erc20 */\n      0x40\n      add\n      mload\n        /* \"contracts/core/MPensionVault.sol\":5146:5192  IERC20 erc20_ = IERC20(pension_.product.erc20) */\n      swap1\n      pop\n        /* \"contracts/core/MPensionVault.sol\":5207:5213  erc20_ */\n      dup1\n        /* \"contracts/core/MPensionVault.sol\":5207:5222  erc20_.transfer */\n      0xffffffffffffffffffffffffffffffffffffffff\n      and\n      0xa9059cbb\n        /* \"contracts/core/MPensionVault.sol\":5223:5229  owner_ */\n      dup4\n        /* \"contracts/core/MPensionVault.sol\":5231:5241  emmission_ */\n      dup6\n        /* \"contracts/core/MPensionVault.sol\":5207:5242  erc20_.transfer(owner_, emmission_) */\n      mload(0x40)\n      dup4\n      0xffffffff\n      and\n      0xe0\n      shl\n      dup2\n      mstore\n      0x04\n      add\n      tag_352\n      swap3\n      swap2\n      swap1\n      tag_139\n      jump\t// in\n    tag_352:\n      0x20\n      mload(0x40)\n      dup1\n      dup4\n      sub\n      dup2\n      0x00\n      dup8\n      gas\n      call\n      iszero\n      dup1\n      iszero\n      tag_354\n      jumpi\n      returndatacopy(0x00, 0x00, returndatasize)\n      revert(0x00, returndatasize)\n    tag_354:\n      pop\n      pop\n      pop\n      pop\n      mload(0x40)\n      returndatasize\n      not(0x1f)\n      0x1f\n      dup3\n      add\n      and\n      dup3\n      add\n      dup1\n      0x40\n      mstore\n      pop\n      dup2\n      add\n      swap1\n      tag_355\n      swap2\n      swap1\n      tag_143\n      jump\t// in\n    tag_355:\n      pop\n        /* \"contracts/core/MPensionVault.sol\":5130:5255  { ... */\n      pop\n        /* \"contracts/core/MPensionVault.sol\":5015:5255  if(pension_.product.erc20 == NATIVE) {... */\n    tag_351:\n        /* \"contracts/core/MPensionVault.sol\":5265:5290  checkSettlement(pension_) */\n      tag_356\n        /* \"contracts/core/MPensionVault.sol\":5281:5289  pension_ */\n      dup4\n        /* \"contracts/core/MPensionVault.sol\":5265:5280  checkSettlement */\n      tag_357\n        /* \"contracts/core/MPensionVault.sol\":5265:5290  checkSettlement(pension_) */\n      jump\t// in\n    tag_356:\n        /* \"contracts/core/MPensionVault.sol\":5309:5396  addTx(TxType.DRAWDOWN, ObjType.MPENSION, pensionId, emmission_, pension_.product.erc20) */\n      tag_358\n        /* \"contracts/core/MPensionVault.sol\":5315:5330  TxType.DRAWDOWN */\n      0x02\n        /* \"contracts/core/MPensionVault.sol\":5332:5348  ObjType.MPENSION */\n      0x00\n        /* \"contracts/core/MPensionVault.sol\":5350:5359  pensionId */\n      immutable(\"0x1a65db4f2ea95c4a38ef67ec9eb02656311df27569f1d2e5f15fb9ffe8498721\")\n        /* \"contracts/core/MPensionVault.sol\":5361:5371  emmission_ */\n      dup6\n        /* \"contracts/core/MPensionVault.sol\":5373:5381  pension_ */\n      dup8\n        /* \"contracts/core/MPensionVault.sol\":5373:5389  pension_.product */\n      0xc0\n      add\n      mload\n        /* \"contracts/core/MPensionVault.sol\":5373:5395  pension_.product.erc20 */\n      0x40\n      add\n      mload\n        /* \"contracts/core/MPensionVault.sol\":5309:5314  addTx */\n      tag_145\n        /* \"contracts/core/MPensionVault.sol\":5309:5396  addTx(TxType.DRAWDOWN, ObjType.MPENSION, pensionId, emmission_, pension_.product.erc20) */\n      jump\t// in\n    tag_358:\n        /* \"contracts/core/MPensionVault.sol\":5301:5396  _txId = addTx(TxType.DRAWDOWN, ObjType.MPENSION, pensionId, emmission_, pension_.product.erc20) */\n      swap4\n      pop\n        /* \"contracts/core/MPensionVault.sol\":5416:5421  false */\n      0x00\n        /* \"contracts/core/MPensionVault.sol\":5407:5413  locked */\n      0x00\n      0x00\n        /* \"contracts/core/MPensionVault.sol\":5407:5421  locked = false */\n      0x0100\n      exp\n      dup2\n      sload\n      dup2\n      0xff\n      mul\n      not\n      and\n      swap1\n      dup4\n      iszero\n      iszero\n      mul\n      or\n      swap1\n      sstore\n      pop\n        /* \"contracts/core/MPensionVault.sol\":5450:5462  return _txId */\n      pop\n      pop\n      pop\n        /* \"contracts/core/MPensionVault.sol\":4429:5472  function drawdown() external ownerOnly semaphore returns (uint256 _txId){... */\n      swap1\n      jump\t// out\n        /* \"contracts/core/MPensionVault.sol\":10415:10639  function getPensionInternal() view internal returns (MPension memory _mPension){ ... */\n    tag_115:\n        /* \"contracts/core/MPensionVault.sol\":10468:10493  MPension memory _mPension */\n      tag_359\n      tag_218\n      jump\t// in\n    tag_359:\n        /* \"contracts/core/MPensionVault.sol\":10539:10547  register */\n      0x00\n      0x03\n      swap1\n      sload\n      swap1\n      0x0100\n      exp\n      swap1\n      div\n      0xffffffffffffffffffffffffffffffffffffffff\n      and\n        /* \"contracts/core/MPensionVault.sol\":10539:10558  register.getAddress */\n      0xffffffffffffffffffffffffffffffffffffffff\n      and\n      0xbf40fac1\n        /* \"contracts/core/MPensionVault.sol\":10559:10579  MEDALION_PENSIONS_CA */\n      mload(0x40)\n      dup1\n      0x40\n      add\n      0x40\n      mstore\n      dup1\n      0x20\n      dup2\n      mstore\n      0x20\n      add\n      0x52455345525645445f4d4544414c4c494f4e5f50454e53494f4e535f434f5245\n      dup2\n      mstore\n      pop\n        /* \"contracts/core/MPensionVault.sol\":10539:10580  register.getAddress(MEDALION_PENSIONS_CA) */\n      mload(0x40)\n      dup3\n      0xffffffff\n      and\n      0xe0\n      shl\n      dup2\n      mstore\n      0x04\n      add\n      tag_361\n      swap2\n      swap1\n      tag_32\n      jump\t// in\n    tag_361:\n      0x20\n      mload(0x40)\n      dup1\n      dup4\n      sub\n      dup2\n      dup7\n      gas\n      staticcall\n      iszero\n      dup1\n      iszero\n      tag_363\n      jumpi\n      returndatacopy(0x00, 0x00, returndatasize)\n      revert(0x00, returndatasize)\n    tag_363:\n      pop\n      pop\n      pop\n      pop\n      mload(0x40)\n      returndatasize\n      not(0x1f)\n      0x1f\n      dup3\n      add\n      and\n      dup3\n      add\n      dup1\n      0x40\n      mstore\n      pop\n      dup2\n      add\n      swap1\n      tag_364\n      swap2\n      swap1\n      tag_97\n      jump\t// in\n    tag_364:\n        /* \"contracts/core/MPensionVault.sol\":10520:10592  IMedallionPensions(register.getAddress(MEDALION_PENSIONS_CA)).getPension */\n      0xffffffffffffffffffffffffffffffffffffffff\n      and\n      0x77bdfdf2\n        /* \"contracts/core/MPensionVault.sol\":10593:10602  pensionId */\n      immutable(\"0x1a65db4f2ea95c4a38ef67ec9eb02656311df27569f1d2e5f15fb9ffe8498721\")\n        /* \"contracts/core/MPensionVault.sol\":10520:10603  IMedallionPensions(register.getAddress(MEDALION_PENSIONS_CA)).getPension(pensionId) */\n      mload(0x40)\n      dup3\n      0xffffffff\n      and\n      0xe0\n      shl\n      dup2\n      mstore\n      0x04\n      add\n      tag_365\n      swap2\n      swap1\n      tag_23\n      jump\t// in\n    tag_365:\n      0x03c0\n      mload(0x40)\n      dup1\n      dup4\n      sub\n      dup2\n      dup7\n      gas\n      staticcall\n      iszero\n      dup1\n      iszero\n      tag_367\n      jumpi\n      returndatacopy(0x00, 0x00, returndatasize)\n      revert(0x00, returndatasize)\n    tag_367:\n      pop\n      pop\n      pop\n      pop\n      mload(0x40)\n      returndatasize\n      not(0x1f)\n      0x1f\n      dup3\n      add\n      and\n      dup3\n      add\n      dup1\n      0x40\n      mstore\n      pop\n      dup2\n      add\n      swap1\n      tag_368\n      swap2\n      swap1\n      tag_369\n      jump\t// in\n    tag_368:\n        /* \"contracts/core/MPensionVault.sol\":10508:10603  _mPension = IMedallionPensions(register.getAddress(MEDALION_PENSIONS_CA)).getPension(pensionId) */\n      swap1\n      pop\n        /* \"contracts/core/MPensionVault.sol\":10415:10639  function getPensionInternal() view internal returns (MPension memory _mPension){ ... */\n      swap1\n      jump\t// out\n        /* \"contracts/core/MPensionVault.sol\":9637:9906  function addTx(TxType _txType,ObjType _objType, uint256 _pensionId, uint256 _amount, address _erc20) internal returns (uint256 _txId){... */\n    tag_145:\n        /* \"contracts/core/MPensionVault.sol\":9756:9769  uint256 _txId */\n      0x00\n        /* \"contracts/core/MPensionVault.sol\":9802:9810  register */\n      0x00\n      0x03\n      swap1\n      sload\n      swap1\n      0x0100\n      exp\n      swap1\n      div\n      0xffffffffffffffffffffffffffffffffffffffff\n      and\n        /* \"contracts/core/MPensionVault.sol\":9802:9821  register.getAddress */\n      0xffffffffffffffffffffffffffffffffffffffff\n      and\n      0xbf40fac1\n        /* \"contracts/core/MPensionVault.sol\":9822:9835  TX_MANAGER_CA */\n      mload(0x40)\n      dup1\n      0x40\n      add\n      0x40\n      mstore\n      dup1\n      0x16\n      dup2\n      mstore\n      0x20\n      add\n      0x52455345525645445f4d505f54585f4d414e4147455200000000000000000000\n      dup2\n      mstore\n      pop\n        /* \"contracts/core/MPensionVault.sol\":9802:9836  register.getAddress(TX_MANAGER_CA) */\n      mload(0x40)\n      dup3\n      0xffffffff\n      and\n      0xe0\n      shl\n      dup2\n      mstore\n      0x04\n      add\n      tag_371\n      swap2\n      swap1\n      tag_32\n      jump\t// in\n    tag_371:\n      0x20\n      mload(0x40)\n      dup1\n      dup4\n      sub\n      dup2\n      dup7\n      gas\n      staticcall\n      iszero\n      dup1\n      iszero\n      tag_373\n      jumpi\n      returndatacopy(0x00, 0x00, returndatasize)\n      revert(0x00, returndatasize)\n    tag_373:\n      pop\n      pop\n      pop\n      pop\n      mload(0x40)\n      returndatasize\n      not(0x1f)\n      0x1f\n      dup3\n      add\n      and\n      dup3\n      add\n      dup1\n      0x40\n      mstore\n      pop\n      dup2\n      add\n      swap1\n      tag_374\n      swap2\n      swap1\n      tag_97\n      jump\t// in\n    tag_374:\n        /* \"contracts/core/MPensionVault.sol\":9789:9843  IMPTxManager(register.getAddress(TX_MANAGER_CA)).addTx */\n      0xffffffffffffffffffffffffffffffffffffffff\n      and\n      0xee16e639\n        /* \"contracts/core/MPensionVault.sol\":9844:9851  _txType */\n      dup8\n        /* \"contracts/core/MPensionVault.sol\":9853:9861  _objType */\n      dup8\n        /* \"contracts/core/MPensionVault.sol\":9863:9873  _pensionId */\n      dup8\n        /* \"contracts/core/MPensionVault.sol\":9875:9879  self */\n      immutable(\"0xdd5c0e85d12671451a2813ab72960178ae895d157199d23818aec59b00ee9e8b\")\n        /* \"contracts/core/MPensionVault.sol\":9881:9888  _amount */\n      dup9\n        /* \"contracts/core/MPensionVault.sol\":9890:9896  _erc20 */\n      dup9\n        /* \"contracts/core/MPensionVault.sol\":9789:9897  IMPTxManager(register.getAddress(TX_MANAGER_CA)).addTx(_txType, _objType, _pensionId, self, _amount, _erc20) */\n      mload(0x40)\n      dup8\n      0xffffffff\n      and\n      0xe0\n      shl\n      dup2\n      mstore\n      0x04\n      add\n      tag_375\n      swap7\n      swap6\n      swap5\n      swap4\n      swap3\n      swap2\n      swap1\n      tag_376\n      jump\t// in\n    tag_375:\n      0x20\n      mload(0x40)\n      dup1\n      dup4\n      sub\n      dup2\n      0x00\n      dup8\n      gas\n      call\n      iszero\n      dup1\n      iszero\n      tag_378\n      jumpi\n      returndatacopy(0x00, 0x00, returndatasize)\n      revert(0x00, returndatasize)\n    tag_378:\n      pop\n      pop\n      pop\n      pop\n      mload(0x40)\n      returndatasize\n      not(0x1f)\n      0x1f\n      dup3\n      add\n      and\n      dup3\n      add\n      dup1\n      0x40\n      mstore\n      pop\n      dup2\n      add\n      swap1\n      tag_379\n      swap2\n      swap1\n      tag_137\n      jump\t// in\n    tag_379:\n        /* \"contracts/core/MPensionVault.sol\":9782:9897  return IMPTxManager(register.getAddress(TX_MANAGER_CA)).addTx(_txType, _objType, _pensionId, self, _amount, _erc20) */\n      swap1\n      pop\n        /* \"contracts/core/MPensionVault.sol\":9637:9906  function addTx(TxType _txType,ObjType _objType, uint256 _pensionId, uint256 _amount, address _erc20) internal returns (uint256 _txId){... */\n      swap6\n      swap5\n      pop\n      pop\n      pop\n      pop\n      pop\n      jump\t// out\n        /* \"contracts/core/MPensionVault.sol\":9917:10182  function checkMaturity(MPension memory _pension) internal { ... */\n    tag_265:\n        /* \"contracts/core/MPensionVault.sol\":10008:10016  _pension */\n      dup1\n        /* \"contracts/core/MPensionVault.sol\":10008:10024  _pension.product */\n      0xc0\n      add\n      mload\n        /* \"contracts/core/MPensionVault.sol\":10008:10045  _pension.product.contributionSchedule */\n      0xe0\n      add\n      mload\n        /* \"contracts/core/MPensionVault.sol\":10008:10057  _pension.product.contributionSchedule.totalAmount */\n      0xa0\n      add\n      mload\n        /* \"contracts/core/MPensionVault.sol\":9990:10004  pensionBalance */\n      sload(0x01)\n        /* \"contracts/core/MPensionVault.sol\":9990:10057  pensionBalance >= _pension.product.contributionSchedule.totalAmount */\n      lt\n        /* \"contracts/core/MPensionVault.sol\":9987:10175  if(pensionBalance >= _pension.product.contributionSchedule.totalAmount) { ... */\n      tag_381\n      jumpi\n        /* \"contracts/core/MPensionVault.sol\":10092:10116  MPScheduleStatus.MATURED */\n      0x01\n        /* \"contracts/core/MPensionVault.sol\":10075:10089  scheduleStatus */\n      0x00\n      0x02\n        /* \"contracts/core/MPensionVault.sol\":10075:10116  scheduleStatus = MPScheduleStatus.MATURED */\n      0x0100\n      exp\n      dup2\n      sload\n      dup2\n      0xff\n      mul\n      not\n      and\n      swap1\n      dup4\n      0x02\n      dup2\n      gt\n      iszero\n      tag_382\n      jumpi\n      tag_383\n      tag_107\n      jump\t// in\n    tag_383:\n    tag_382:\n      mul\n      or\n      swap1\n      sstore\n      pop\n        /* \"contracts/core/MPensionVault.sol\":10141:10162  MPStatus.DISBURSEMENT */\n      0x01\n        /* \"contracts/core/MPensionVault.sol\":10132:10138  status */\n      0x00\n      0x01\n        /* \"contracts/core/MPensionVault.sol\":10132:10162  status = MPStatus.DISBURSEMENT */\n      0x0100\n      exp\n      dup2\n      sload\n      dup2\n      0xff\n      mul\n      not\n      and\n      swap1\n      dup4\n      0x03\n      dup2\n      gt\n      iszero\n      tag_384\n      jumpi\n      tag_385\n      tag_107\n      jump\t// in\n    tag_385:\n    tag_384:\n      mul\n      or\n      swap1\n      sstore\n      pop\n        /* \"contracts/core/MPensionVault.sol\":9987:10175  if(pensionBalance >= _pension.product.contributionSchedule.totalAmount) { ... */\n    tag_381:\n        /* \"contracts/core/MPensionVault.sol\":9917:10182  function checkMaturity(MPension memory _pension) internal { ... */\n      pop\n      jump\t// out\n        /* \"contracts/lib/MPLib.sol\":681:1234  function getSeconds(Schedule _schedule) pure internal returns (uint256 _seconds){... */\n    tag_291:\n        /* \"contracts/lib/MPLib.sol\":744:760  uint256 _seconds */\n      0x00\n        /* \"contracts/lib/MPLib.sol\":783:791  60*60*24 */\n      0x015180\n        /* \"contracts/lib/MPLib.sol\":772:791  _seconds = 60*60*24 */\n      swap1\n      pop\n        /* \"contracts/lib/MPLib.sol\":819:833  Schedule.DAILY */\n      0x00\n        /* \"contracts/lib/MPLib.sol\":806:833  _schedule == Schedule.DAILY */\n      0x03\n      dup2\n      gt\n      iszero\n      tag_387\n      jumpi\n      tag_388\n      tag_107\n      jump\t// in\n    tag_388:\n    tag_387:\n        /* \"contracts/lib/MPLib.sol\":806:815  _schedule */\n      dup3\n        /* \"contracts/lib/MPLib.sol\":806:833  _schedule == Schedule.DAILY */\n      0x03\n      dup2\n      gt\n      iszero\n      tag_389\n      jumpi\n      tag_390\n      tag_107\n      jump\t// in\n    tag_390:\n    tag_389:\n      sub\n        /* \"contracts/lib/MPLib.sol\":803:876  if(_schedule == Schedule.DAILY){... */\n      iszero\n        /* \"contracts/lib/MPLib.sol\":849:864  return _seconds */\n      tag_386\n        /* \"contracts/lib/MPLib.sol\":803:876  if(_schedule == Schedule.DAILY){... */\n      jumpi\n        /* \"contracts/lib/MPLib.sol\":898:899  7 */\n      0x07\n        /* \"contracts/lib/MPLib.sol\":886:899  _seconds *= 7 */\n      dup2\n      tag_392\n      swap2\n      swap1\n      tag_393\n      jump\t// in\n    tag_392:\n      swap1\n      pop\n        /* \"contracts/lib/MPLib.sol\":927:942  Schedule.WEEKLY */\n      0x01\n        /* \"contracts/lib/MPLib.sol\":914:942  _schedule == Schedule.WEEKLY */\n      0x03\n      dup2\n      gt\n      iszero\n      tag_394\n      jumpi\n      tag_395\n      tag_107\n      jump\t// in\n    tag_395:\n    tag_394:\n        /* \"contracts/lib/MPLib.sol\":914:923  _schedule */\n      dup3\n        /* \"contracts/lib/MPLib.sol\":914:942  _schedule == Schedule.WEEKLY */\n      0x03\n      dup2\n      gt\n      iszero\n      tag_396\n      jumpi\n      tag_397\n      tag_107\n      jump\t// in\n    tag_397:\n    tag_396:\n      sub\n        /* \"contracts/lib/MPLib.sol\":911:985  if(_schedule == Schedule.WEEKLY){... */\n      iszero\n        /* \"contracts/lib/MPLib.sol\":958:973  return _seconds */\n      tag_386\n        /* \"contracts/lib/MPLib.sol\":911:985  if(_schedule == Schedule.WEEKLY){... */\n      jumpi\n        /* \"contracts/lib/MPLib.sol\":1007:1008  4 */\n      0x04\n        /* \"contracts/lib/MPLib.sol\":995:1008  _seconds *= 4 */\n      dup2\n      tag_399\n      swap2\n      swap1\n      tag_393\n      jump\t// in\n    tag_399:\n      swap1\n      pop\n        /* \"contracts/lib/MPLib.sol\":1035:1051  Schedule.MONTHLY */\n      0x02\n        /* \"contracts/lib/MPLib.sol\":1022:1051  _schedule == Schedule.MONTHLY */\n      0x03\n      dup2\n      gt\n      iszero\n      tag_400\n      jumpi\n      tag_401\n      tag_107\n      jump\t// in\n    tag_401:\n    tag_400:\n        /* \"contracts/lib/MPLib.sol\":1022:1031  _schedule */\n      dup3\n        /* \"contracts/lib/MPLib.sol\":1022:1051  _schedule == Schedule.MONTHLY */\n      0x03\n      dup2\n      gt\n      iszero\n      tag_402\n      jumpi\n      tag_403\n      tag_107\n      jump\t// in\n    tag_403:\n    tag_402:\n      sub\n        /* \"contracts/lib/MPLib.sol\":1019:1094  if(_schedule == Schedule.MONTHLY){... */\n      iszero\n        /* \"contracts/lib/MPLib.sol\":1067:1082  return _seconds */\n      tag_386\n        /* \"contracts/lib/MPLib.sol\":1019:1094  if(_schedule == Schedule.MONTHLY){... */\n      jumpi\n        /* \"contracts/lib/MPLib.sol\":1116:1117  3 */\n      0x03\n        /* \"contracts/lib/MPLib.sol\":1104:1117  _seconds *= 3 */\n      dup2\n      tag_405\n      swap2\n      swap1\n      tag_393\n      jump\t// in\n    tag_405:\n      swap1\n      pop\n        /* \"contracts/lib/MPLib.sol\":1145:1163  Schedule.QUARTERLY */\n      0x03\n        /* \"contracts/lib/MPLib.sol\":1132:1163  _schedule == Schedule.QUARTERLY */\n      dup1\n      dup2\n      gt\n      iszero\n      tag_406\n      jumpi\n      tag_407\n      tag_107\n      jump\t// in\n    tag_407:\n    tag_406:\n        /* \"contracts/lib/MPLib.sol\":1132:1141  _schedule */\n      dup3\n        /* \"contracts/lib/MPLib.sol\":1132:1163  _schedule == Schedule.QUARTERLY */\n      0x03\n      dup2\n      gt\n      iszero\n      tag_408\n      jumpi\n      tag_409\n      tag_107\n      jump\t// in\n    tag_409:\n    tag_408:\n      sub\n        /* \"contracts/lib/MPLib.sol\":1129:1207  if(_schedule == Schedule.QUARTERLY){... */\n      iszero\n        /* \"contracts/lib/MPLib.sol\":1180:1195  return _seconds */\n      tag_386\n        /* \"contracts/lib/MPLib.sol\":1129:1207  if(_schedule == Schedule.QUARTERLY){... */\n      jumpi\n        /* \"contracts/lib/MPLib.sol\":1224:1225  0 */\n      0x00\n        /* \"contracts/lib/MPLib.sol\":1217:1225  return 0 */\n      swap1\n      pop\n        /* \"contracts/lib/MPLib.sol\":681:1234  function getSeconds(Schedule _schedule) pure internal returns (uint256 _seconds){... */\n    tag_386:\n      swap2\n      swap1\n      pop\n      jump\t// out\n        /* \"contracts/lib/MPLib.sol\":277:671  function transferIn(address _erc20, uint256 _amount, address _self) internal returns (uint256 _balance) {... */\n    tag_298:\n        /* \"contracts/lib/MPLib.sol\":363:379  uint256 _balance */\n      0x00\n        /* \"contracts/lib/MPLib.sol\":224:266  0xEeeeeEeeeEeEeeEeEeEeeEEEeeeeEeeeeeeeEEeE */\n      0xeeeeeeeeeeeeeeeeeeeeeeeeeeeeeeeeeeeeeeee\n        /* \"contracts/lib/MPLib.sol\":395:411  _erc20 == NATIVE */\n      0xffffffffffffffffffffffffffffffffffffffff\n      and\n        /* \"contracts/lib/MPLib.sol\":395:401  _erc20 */\n      dup5\n        /* \"contracts/lib/MPLib.sol\":395:411  _erc20 == NATIVE */\n      0xffffffffffffffffffffffffffffffffffffffff\n      and\n      sub\n        /* \"contracts/lib/MPLib.sol\":392:632  if(_erc20 == NATIVE) {... */\n      tag_412\n      jumpi\n        /* \"contracts/lib/MPLib.sol\":449:456  _amount */\n      dup3\n        /* \"contracts/lib/MPLib.sol\":436:445  msg.value */\n      callvalue\n        /* \"contracts/lib/MPLib.sol\":436:456  msg.value >= _amount */\n      lt\n      iszero\n        /* \"contracts/lib/MPLib.sol\":428:483  require(msg.value >= _amount, \"contribution mis-match\") */\n      tag_413\n      jumpi\n      mload(0x40)\n      0x08c379a000000000000000000000000000000000000000000000000000000000\n      dup2\n      mstore\n      0x04\n      add\n      tag_414\n      swap1\n      tag_415\n      jump\t// in\n    tag_414:\n      mload(0x40)\n      dup1\n      swap2\n      sub\n      swap1\n      revert\n    tag_413:\n        /* \"contracts/lib/MPLib.sol\":392:632  if(_erc20 == NATIVE) {... */\n      jump(tag_416)\n    tag_412:\n        /* \"contracts/lib/MPLib.sol\":527:540  IERC20 erc20_ */\n      0x00\n        /* \"contracts/lib/MPLib.sol\":550:556  _erc20 */\n      dup5\n        /* \"contracts/lib/MPLib.sol\":527:557  IERC20 erc20_ = IERC20(_erc20) */\n      swap1\n      pop\n        /* \"contracts/lib/MPLib.sol\":572:578  erc20_ */\n      dup1\n        /* \"contracts/lib/MPLib.sol\":572:591  erc20_.transferFrom */\n      0xffffffffffffffffffffffffffffffffffffffff\n      and\n      0x23b872dd\n        /* \"contracts/lib/MPLib.sol\":592:602  msg.sender */\n      caller\n        /* \"contracts/lib/MPLib.sol\":604:609  _self */\n      dup6\n        /* \"contracts/lib/MPLib.sol\":611:618  _amount */\n      dup8\n        /* \"contracts/lib/MPLib.sol\":572:619  erc20_.transferFrom(msg.sender, _self, _amount) */\n      mload(0x40)\n      dup5\n      0xffffffff\n      and\n      0xe0\n      shl\n      dup2\n      mstore\n      0x04\n      add\n      tag_417\n      swap4\n      swap3\n      swap2\n      swap1\n      tag_256\n      jump\t// in\n    tag_417:\n      0x20\n      mload(0x40)\n      dup1\n      dup4\n      sub\n      dup2\n      0x00\n      dup8\n      gas\n      call\n      iszero\n      dup1\n      iszero\n      tag_419\n      jumpi\n      returndatacopy(0x00, 0x00, returndatasize)\n      revert(0x00, returndatasize)\n    tag_419:\n      pop\n      pop\n      pop\n      pop\n      mload(0x40)\n      returndatasize\n      not(0x1f)\n      0x1f\n      dup3\n      add\n      and\n      dup3\n      add\n      dup1\n      0x40\n      mstore\n      pop\n      dup2\n      add\n      swap1\n      tag_420\n      swap2\n      swap1\n      tag_143\n      jump\t// in\n    tag_420:\n      pop\n        /* \"contracts/lib/MPLib.sol\":511:632  { ... */\n      pop\n        /* \"contracts/lib/MPLib.sol\":392:632  if(_erc20 == NATIVE) {... */\n    tag_416:\n        /* \"contracts/lib/MPLib.sol\":649:654  _self */\n      dup2\n        /* \"contracts/lib/MPLib.sol\":649:662  _self.balance */\n      0xffffffffffffffffffffffffffffffffffffffff\n      and\n      balance\n        /* \"contracts/lib/MPLib.sol\":642:662  return _self.balance */\n      swap1\n      pop\n        /* \"contracts/lib/MPLib.sol\":277:671  function transferIn(address _erc20, uint256 _amount, address _self) internal returns (uint256 _balance) {... */\n      swap4\n      swap3\n      pop\n      pop\n      pop\n      jump\t// out\n        /* \"contracts/core/MPensionVault.sol\":10190:10407  function checkSettlement(MPension memory _pension) internal { ... */\n    tag_357:\n        /* \"contracts/core/MPensionVault.sol\":10284:10292  _pension */\n      dup1\n        /* \"contracts/core/MPensionVault.sol\":10284:10300  _pension.product */\n      0xc0\n      add\n      mload\n        /* \"contracts/core/MPensionVault.sol\":10284:10317  _pension.product.emissionSchedule */\n      0x0100\n      add\n      mload\n        /* \"contracts/core/MPensionVault.sol\":10284:10329  _pension.product.emissionSchedule.totalAmount */\n      0xa0\n      add\n      mload\n        /* \"contracts/core/MPensionVault.sol\":10265:10280  emissionBalance */\n      sload(0x02)\n        /* \"contracts/core/MPensionVault.sol\":10265:10329  emissionBalance >= _pension.product.emissionSchedule.totalAmount */\n      lt\n        /* \"contracts/core/MPensionVault.sol\":10262:10400  if(emissionBalance >= _pension.product.emissionSchedule.totalAmount ) {... */\n      tag_422\n      jumpi\n        /* \"contracts/core/MPensionVault.sol\":10364:10388  MPScheduleStatus.SETTLED */\n      0x02\n        /* \"contracts/core/MPensionVault.sol\":10347:10361  scheduleStatus */\n      0x00\n      0x02\n        /* \"contracts/core/MPensionVault.sol\":10347:10388  scheduleStatus = MPScheduleStatus.SETTLED */\n      0x0100\n      exp\n      dup2\n      sload\n      dup2\n      0xff\n      mul\n      not\n      and\n      swap1\n      dup4\n      0x02\n      dup2\n      gt\n      iszero\n      tag_423\n      jumpi\n      tag_424\n      tag_107\n      jump\t// in\n    tag_424:\n    tag_423:\n      mul\n      or\n      swap1\n      sstore\n      pop\n        /* \"contracts/core/MPensionVault.sol\":10262:10400  if(emissionBalance >= _pension.product.emissionSchedule.totalAmount ) {... */\n    tag_422:\n        /* \"contracts/core/MPensionVault.sol\":10190:10407  function checkSettlement(MPension memory _pension) internal { ... */\n      pop\n      jump\t// out\n    tag_218:\n      mload(0x40)\n      dup1\n      0xe0\n      add\n      0x40\n      mstore\n      dup1\n      0x00\n      dup2\n      mstore\n      0x20\n      add\n      and(0xffffffffffffffffffffffffffffffffffffffff, 0x00)\n      dup2\n      mstore\n      0x20\n      add\n      and(0xffffffffffffffffffffffffffffffffffffffff, 0x00)\n      dup2\n      mstore\n      0x20\n      add\n      and(0xffffffffffffffffffffffffffffffffffffffff, 0x00)\n      dup2\n      mstore\n      0x20\n      add\n      0x00\n      dup2\n      mstore\n      0x20\n      add\n      0x00\n      dup2\n      mstore\n      0x20\n      add\n      tag_425\n      tag_426\n      jump\t// in\n    tag_425:\n      dup2\n      mstore\n      pop\n      swap1\n      jump\t// out\n    tag_222:\n      mload(0x40)\n      dup1\n      0xa0\n      add\n      0x40\n      mstore\n      dup1\n      0x00\n      dup2\n      mstore\n      0x20\n      add\n      0x00\n      dup2\n      mstore\n      0x20\n      add\n      0x00\n      dup2\n      mstore\n      0x20\n      add\n      0x00\n      dup2\n      mstore\n      0x20\n      add\n      iszero(iszero(0x00))\n      dup2\n      mstore\n      pop\n      swap1\n      jump\t// out\n    tag_426:\n      mload(0x40)\n      dup1\n      0x01a0\n      add\n      0x40\n      mstore\n      dup1\n      0x00\n      dup2\n      mstore\n      0x20\n      add\n      and(0xffffffffffffffffffffffffffffffffffffffff, 0x00)\n      dup2\n      mstore\n      0x20\n      add\n      and(0xffffffffffffffffffffffffffffffffffffffff, 0x00)\n      dup2\n      mstore\n      0x20\n      add\n      0x00\n      dup2\n      mstore\n      0x20\n      add\n      0x00\n      dup2\n      mstore\n      0x20\n      add\n      0x00\n      dup2\n      mstore\n      0x20\n      add\n      0x00\n      0x02\n      dup2\n      gt\n      iszero\n      tag_427\n      jumpi\n      tag_428\n      tag_107\n      jump\t// in\n    tag_428:\n    tag_427:\n      dup2\n      mstore\n      0x20\n      add\n      tag_429\n      tag_430\n      jump\t// in\n    tag_429:\n      dup2\n      mstore\n      0x20\n      add\n      tag_431\n      tag_430\n      jump\t// in\n    tag_431:\n      dup2\n      mstore\n      0x20\n      add\n      tag_432\n      tag_433\n      jump\t// in\n    tag_432:\n      dup2\n      mstore\n      0x20\n      add\n      0x00\n      dup2\n      mstore\n      0x20\n      add\n      0x00\n      dup2\n      mstore\n      0x20\n      add\n      0x00\n      dup2\n      mstore\n      pop\n      swap1\n      jump\t// out\n    tag_430:\n      mload(0x40)\n      dup1\n      0xc0\n      add\n      0x40\n      mstore\n      dup1\n      0x00\n      0x03\n      dup2\n      gt\n      iszero\n      tag_434\n      jumpi\n      tag_435\n      tag_107\n      jump\t// in\n    tag_435:\n    tag_434:\n      dup2\n      mstore\n      0x20\n      add\n      0x00\n      dup2\n      mstore\n      0x20\n      add\n      0x00\n      dup2\n      mstore\n      0x20\n      add\n      0x00\n      dup2\n      mstore\n      0x20\n      add\n      0x00\n      dup2\n      mstore\n      0x20\n      add\n      0x00\n      dup2\n      mstore\n      pop\n      swap1\n      jump\t// out\n    tag_433:\n      mload(0x40)\n      dup1\n      0x40\n      add\n      0x40\n      mstore\n      dup1\n      0x00\n      dup2\n      mstore\n      0x20\n      add\n      0x00\n      dup2\n      mstore\n      pop\n      swap1\n      jump\t// out\n        /* \"#utility.yul\":7:84   */\n    tag_436:\n        /* \"#utility.yul\":44:51   */\n      0x00\n        /* \"#utility.yul\":73:78   */\n      dup2\n        /* \"#utility.yul\":62:78   */\n      swap1\n      pop\n        /* \"#utility.yul\":7:84   */\n      swap2\n      swap1\n      pop\n      jump\t// out\n        /* \"#utility.yul\":90:208   */\n    tag_437:\n        /* \"#utility.yul\":177:201   */\n      tag_552\n        /* \"#utility.yul\":195:200   */\n      dup2\n        /* \"#utility.yul\":177:201   */\n      tag_436\n      jump\t// in\n    tag_552:\n        /* \"#utility.yul\":172:175   */\n      dup3\n        /* \"#utility.yul\":165:202   */\n      mstore\n        /* \"#utility.yul\":90:208   */\n      pop\n      pop\n      jump\t// out\n        /* \"#utility.yul\":214:436   */\n    tag_23:\n        /* \"#utility.yul\":307:311   */\n      0x00\n        /* \"#utility.yul\":345:347   */\n      0x20\n        /* \"#utility.yul\":334:343   */\n      dup3\n        /* \"#utility.yul\":330:348   */\n      add\n        /* \"#utility.yul\":322:348   */\n      swap1\n      pop\n        /* \"#utility.yul\":358:429   */\n      tag_554\n        /* \"#utility.yul\":426:427   */\n      0x00\n        /* \"#utility.yul\":415:424   */\n      dup4\n        /* \"#utility.yul\":411:428   */\n      add\n        /* \"#utility.yul\":402:408   */\n      dup5\n        /* \"#utility.yul\":358:429   */\n      tag_437\n      jump\t// in\n    tag_554:\n        /* \"#utility.yul\":214:436   */\n      swap3\n      swap2\n      pop\n      pop\n      jump\t// out\n        /* \"#utility.yul\":442:541   */\n    tag_438:\n        /* \"#utility.yul\":494:500   */\n      0x00\n        /* \"#utility.yul\":528:533   */\n      dup2\n        /* \"#utility.yul\":522:534   */\n      mload\n        /* \"#utility.yul\":512:534   */\n      swap1\n      pop\n        /* \"#utility.yul\":442:541   */\n      swap2\n      swap1\n      pop\n      jump\t// out\n        /* \"#utility.yul\":547:716   */\n    tag_439:\n        /* \"#utility.yul\":631:642   */\n      0x00\n        /* \"#utility.yul\":665:671   */\n      dup3\n        /* \"#utility.yul\":660:663   */\n      dup3\n        /* \"#utility.yul\":653:672   */\n      mstore\n        /* \"#utility.yul\":705:709   */\n      0x20\n        /* \"#utility.yul\":700:703   */\n      dup3\n        /* \"#utility.yul\":696:710   */\n      add\n        /* \"#utility.yul\":681:710   */\n      swap1\n      pop\n        /* \"#utility.yul\":547:716   */\n      swap3\n      swap2\n      pop\n      pop\n      jump\t// out\n        /* \"#utility.yul\":722:861   */\n    tag_440:\n        /* \"#utility.yul\":811:817   */\n      dup3\n        /* \"#utility.yul\":806:809   */\n      dup2\n        /* \"#utility.yul\":801:804   */\n      dup4\n        /* \"#utility.yul\":795:818   */\n      mcopy\n        /* \"#utility.yul\":852:853   */\n      0x00\n        /* \"#utility.yul\":843:849   */\n      dup4\n        /* \"#utility.yul\":838:841   */\n      dup4\n        /* \"#utility.yul\":834:850   */\n      add\n        /* \"#utility.yul\":827:854   */\n      mstore\n        /* \"#utility.yul\":722:861   */\n      pop\n      pop\n      pop\n      jump\t// out\n        /* \"#utility.yul\":867:969   */\n    tag_441:\n        /* \"#utility.yul\":908:914   */\n      0x00\n        /* \"#utility.yul\":959:961   */\n      0x1f\n        /* \"#utility.yul\":955:962   */\n      not\n        /* \"#utility.yul\":950:952   */\n      0x1f\n        /* \"#utility.yul\":943:948   */\n      dup4\n        /* \"#utility.yul\":939:953   */\n      add\n        /* \"#utility.yul\":935:963   */\n      and\n        /* \"#utility.yul\":925:963   */\n      swap1\n      pop\n        /* \"#utility.yul\":867:969   */\n      swap2\n      swap1\n      pop\n      jump\t// out\n        /* \"#utility.yul\":975:1352   */\n    tag_442:\n        /* \"#utility.yul\":1063:1066   */\n      0x00\n        /* \"#utility.yul\":1091:1130   */\n      tag_560\n        /* \"#utility.yul\":1124:1129   */\n      dup3\n        /* \"#utility.yul\":1091:1130   */\n      tag_438\n      jump\t// in\n    tag_560:\n        /* \"#utility.yul\":1146:1217   */\n      tag_561\n        /* \"#utility.yul\":1210:1216   */\n      dup2\n        /* \"#utility.yul\":1205:1208   */\n      dup6\n        /* \"#utility.yul\":1146:1217   */\n      tag_439\n      jump\t// in\n    tag_561:\n        /* \"#utility.yul\":1139:1217   */\n      swap4\n      pop\n        /* \"#utility.yul\":1226:1291   */\n      tag_562\n        /* \"#utility.yul\":1284:1290   */\n      dup2\n        /* \"#utility.yul\":1279:1282   */\n      dup6\n        /* \"#utility.yul\":1272:1276   */\n      0x20\n        /* \"#utility.yul\":1265:1270   */\n      dup7\n        /* \"#utility.yul\":1261:1277   */\n      add\n        /* \"#utility.yul\":1226:1291   */\n      tag_440\n      jump\t// in\n    tag_562:\n        /* \"#utility.yul\":1316:1345   */\n      tag_563\n        /* \"#utility.yul\":1338:1344   */\n      dup2\n        /* \"#utility.yul\":1316:1345   */\n      tag_441\n      jump\t// in\n    tag_563:\n        /* \"#utility.yul\":1311:1314   */\n      dup5\n        /* \"#utility.yul\":1307:1346   */\n      add\n        /* \"#utility.yul\":1300:1346   */\n      swap2\n      pop\n        /* \"#utility.yul\":1067:1352   */\n      pop\n        /* \"#utility.yul\":975:1352   */\n      swap3\n      swap2\n      pop\n      pop\n      jump\t// out\n        /* \"#utility.yul\":1358:1671   */\n    tag_32:\n        /* \"#utility.yul\":1471:1475   */\n      0x00\n        /* \"#utility.yul\":1509:1511   */\n      0x20\n        /* \"#utility.yul\":1498:1507   */\n      dup3\n        /* \"#utility.yul\":1494:1512   */\n      add\n        /* \"#utility.yul\":1486:1512   */\n      swap1\n      pop\n        /* \"#utility.yul\":1558:1567   */\n      dup2\n        /* \"#utility.yul\":1552:1556   */\n      dup2\n        /* \"#utility.yul\":1548:1568   */\n      sub\n        /* \"#utility.yul\":1544:1545   */\n      0x00\n        /* \"#utility.yul\":1533:1542   */\n      dup4\n        /* \"#utility.yul\":1529:1546   */\n      add\n        /* \"#utility.yul\":1522:1569   */\n      mstore\n        /* \"#utility.yul\":1586:1664   */\n      tag_565\n        /* \"#utility.yul\":1659:1663   */\n      dup2\n        /* \"#utility.yul\":1650:1656   */\n      dup5\n        /* \"#utility.yul\":1586:1664   */\n      tag_442\n      jump\t// in\n    tag_565:\n        /* \"#utility.yul\":1578:1664   */\n      swap1\n      pop\n        /* \"#utility.yul\":1358:1671   */\n      swap3\n      swap2\n      pop\n      pop\n      jump\t// out\n        /* \"#utility.yul\":1677:1752   */\n    tag_443:\n        /* \"#utility.yul\":1710:1716   */\n      0x00\n        /* \"#utility.yul\":1743:1745   */\n      0x40\n        /* \"#utility.yul\":1737:1746   */\n      mload\n        /* \"#utility.yul\":1727:1746   */\n      swap1\n      pop\n        /* \"#utility.yul\":1677:1752   */\n      swap1\n      jump\t// out\n        /* \"#utility.yul\":1758:1875   */\n    tag_444:\n        /* \"#utility.yul\":1867:1868   */\n      0x00\n        /* \"#utility.yul\":1864:1865   */\n      0x00\n        /* \"#utility.yul\":1857:1869   */\n      revert\n        /* \"#utility.yul\":2004:2126   */\n    tag_446:\n        /* \"#utility.yul\":2077:2101   */\n      tag_570\n        /* \"#utility.yul\":2095:2100   */\n      dup2\n        /* \"#utility.yul\":2077:2101   */\n      tag_436\n      jump\t// in\n    tag_570:\n        /* \"#utility.yul\":2070:2075   */\n      dup2\n        /* \"#utility.yul\":2067:2102   */\n      eq\n        /* \"#utility.yul\":2057:2120   */\n      tag_571\n      jumpi\n        /* \"#utility.yul\":2116:2117   */\n      0x00\n        /* \"#utility.yul\":2113:2114   */\n      0x00\n        /* \"#utility.yul\":2106:2118   */\n      revert\n        /* \"#utility.yul\":2057:2120   */\n    tag_571:\n        /* \"#utility.yul\":2004:2126   */\n      pop\n      jump\t// out\n        /* \"#utility.yul\":2132:2271   */\n    tag_447:\n        /* \"#utility.yul\":2178:2183   */\n      0x00\n        /* \"#utility.yul\":2216:2222   */\n      dup2\n        /* \"#utility.yul\":2203:2223   */\n      calldataload\n        /* \"#utility.yul\":2194:2223   */\n      swap1\n      pop\n        /* \"#utility.yul\":2232:2265   */\n      tag_573\n        /* \"#utility.yul\":2259:2264   */\n      dup2\n        /* \"#utility.yul\":2232:2265   */\n      tag_446\n      jump\t// in\n    tag_573:\n        /* \"#utility.yul\":2132:2271   */\n      swap3\n      swap2\n      pop\n      pop\n      jump\t// out\n        /* \"#utility.yul\":2277:2606   */\n    tag_40:\n        /* \"#utility.yul\":2336:2342   */\n      0x00\n        /* \"#utility.yul\":2385:2387   */\n      0x20\n        /* \"#utility.yul\":2373:2382   */\n      dup3\n        /* \"#utility.yul\":2364:2371   */\n      dup5\n        /* \"#utility.yul\":2360:2383   */\n      sub\n        /* \"#utility.yul\":2356:2388   */\n      slt\n        /* \"#utility.yul\":2353:2472   */\n      iszero\n      tag_575\n      jumpi\n        /* \"#utility.yul\":2391:2470   */\n      tag_576\n      tag_444\n      jump\t// in\n    tag_576:\n        /* \"#utility.yul\":2353:2472   */\n    tag_575:\n        /* \"#utility.yul\":2511:2512   */\n      0x00\n        /* \"#utility.yul\":2536:2589   */\n      tag_577\n        /* \"#utility.yul\":2581:2588   */\n      dup5\n        /* \"#utility.yul\":2572:2578   */\n      dup3\n        /* \"#utility.yul\":2561:2570   */\n      dup6\n        /* \"#utility.yul\":2557:2579   */\n      add\n        /* \"#utility.yul\":2536:2589   */\n      tag_447\n      jump\t// in\n    tag_577:\n        /* \"#utility.yul\":2526:2589   */\n      swap2\n      pop\n        /* \"#utility.yul\":2482:2599   */\n      pop\n        /* \"#utility.yul\":2277:2606   */\n      swap3\n      swap2\n      pop\n      pop\n      jump\t// out\n        /* \"#utility.yul\":2612:2944   */\n    tag_43:\n        /* \"#utility.yul\":2733:2737   */\n      0x00\n        /* \"#utility.yul\":2771:2773   */\n      0x40\n        /* \"#utility.yul\":2760:2769   */\n      dup3\n        /* \"#utility.yul\":2756:2774   */\n      add\n        /* \"#utility.yul\":2748:2774   */\n      swap1\n      pop\n        /* \"#utility.yul\":2784:2855   */\n      tag_579\n        /* \"#utility.yul\":2852:2853   */\n      0x00\n        /* \"#utility.yul\":2841:2850   */\n      dup4\n        /* \"#utility.yul\":2837:2854   */\n      add\n        /* \"#utility.yul\":2828:2834   */\n      dup6\n        /* \"#utility.yul\":2784:2855   */\n      tag_437\n      jump\t// in\n    tag_579:\n        /* \"#utility.yul\":2865:2937   */\n      tag_580\n        /* \"#utility.yul\":2933:2935   */\n      0x20\n        /* \"#utility.yul\":2922:2931   */\n      dup4\n        /* \"#utility.yul\":2918:2936   */\n      add\n        /* \"#utility.yul\":2909:2915   */\n      dup5\n        /* \"#utility.yul\":2865:2937   */\n      tag_437\n      jump\t// in\n    tag_580:\n        /* \"#utility.yul\":2612:2944   */\n      swap4\n      swap3\n      pop\n      pop\n      pop\n      jump\t// out\n        /* \"#utility.yul\":2950:3130   */\n    tag_107:\n        /* \"#utility.yul\":2998:3075   */\n      0x4e487b7100000000000000000000000000000000000000000000000000000000\n        /* \"#utility.yul\":2995:2996   */\n      0x00\n        /* \"#utility.yul\":2988:3076   */\n      mstore\n        /* \"#utility.yul\":3095:3099   */\n      0x21\n        /* \"#utility.yul\":3092:3093   */\n      0x04\n        /* \"#utility.yul\":3085:3100   */\n      mstore\n        /* \"#utility.yul\":3119:3123   */\n      0x24\n        /* \"#utility.yul\":3116:3117   */\n      0x00\n        /* \"#utility.yul\":3109:3124   */\n      revert\n        /* \"#utility.yul\":3136:3254   */\n    tag_448:\n        /* \"#utility.yul\":3222:3223   */\n      0x04\n        /* \"#utility.yul\":3215:3220   */\n      dup2\n        /* \"#utility.yul\":3212:3224   */\n      lt\n        /* \"#utility.yul\":3202:3248   */\n      tag_583\n      jumpi\n        /* \"#utility.yul\":3228:3246   */\n      tag_584\n      tag_107\n      jump\t// in\n    tag_584:\n        /* \"#utility.yul\":3202:3248   */\n    tag_583:\n        /* \"#utility.yul\":3136:3254   */\n      pop\n      jump\t// out\n        /* \"#utility.yul\":3260:3397   */\n    tag_449:\n        /* \"#utility.yul\":3310:3317   */\n      0x00\n        /* \"#utility.yul\":3339:3344   */\n      dup2\n        /* \"#utility.yul\":3328:3344   */\n      swap1\n      pop\n        /* \"#utility.yul\":3345:3391   */\n      tag_586\n        /* \"#utility.yul\":3385:3390   */\n      dup3\n        /* \"#utility.yul\":3345:3391   */\n      tag_448\n      jump\t// in\n    tag_586:\n        /* \"#utility.yul\":3260:3397   */\n      swap2\n      swap1\n      pop\n      jump\t// out\n        /* \"#utility.yul\":3403:3540   */\n    tag_450:\n        /* \"#utility.yul\":3464:3473   */\n      0x00\n        /* \"#utility.yul\":3497:3534   */\n      tag_588\n        /* \"#utility.yul\":3528:3533   */\n      dup3\n        /* \"#utility.yul\":3497:3534   */\n      tag_449\n      jump\t// in\n    tag_588:\n        /* \"#utility.yul\":3484:3534   */\n      swap1\n      pop\n        /* \"#utility.yul\":3403:3540   */\n      swap2\n      swap1\n      pop\n      jump\t// out\n        /* \"#utility.yul\":3546:3699   */\n    tag_451:\n        /* \"#utility.yul\":3644:3692   */\n      tag_590\n        /* \"#utility.yul\":3686:3691   */\n      dup2\n        /* \"#utility.yul\":3644:3692   */\n      tag_450\n      jump\t// in\n    tag_590:\n        /* \"#utility.yul\":3639:3642   */\n      dup3\n        /* \"#utility.yul\":3632:3693   */\n      mstore\n        /* \"#utility.yul\":3546:3699   */\n      pop\n      pop\n      jump\t// out\n        /* \"#utility.yul\":3705:3949   */\n    tag_48:\n        /* \"#utility.yul\":3809:3813   */\n      0x00\n        /* \"#utility.yul\":3847:3849   */\n      0x20\n        /* \"#utility.yul\":3836:3845   */\n      dup3\n        /* \"#utility.yul\":3832:3850   */\n      add\n        /* \"#utility.yul\":3824:3850   */\n      swap1\n      pop\n        /* \"#utility.yul\":3860:3942   */\n      tag_592\n        /* \"#utility.yul\":3939:3940   */\n      0x00\n        /* \"#utility.yul\":3928:3937   */\n      dup4\n        /* \"#utility.yul\":3924:3941   */\n      add\n        /* \"#utility.yul\":3915:3921   */\n      dup5\n        /* \"#utility.yul\":3860:3942   */\n      tag_451\n      jump\t// in\n    tag_592:\n        /* \"#utility.yul\":3705:3949   */\n      swap3\n      swap2\n      pop\n      pop\n      jump\t// out\n        /* \"#utility.yul\":3955:4081   */\n    tag_452:\n        /* \"#utility.yul\":3992:3999   */\n      0x00\n        /* \"#utility.yul\":4032:4074   */\n      0xffffffffffffffffffffffffffffffffffffffff\n        /* \"#utility.yul\":4025:4030   */\n      dup3\n        /* \"#utility.yul\":4021:4075   */\n      and\n        /* \"#utility.yul\":4010:4075   */\n      swap1\n      pop\n        /* \"#utility.yul\":3955:4081   */\n      swap2\n      swap1\n      pop\n      jump\t// out\n        /* \"#utility.yul\":4087:4183   */\n    tag_453:\n        /* \"#utility.yul\":4124:4131   */\n      0x00\n        /* \"#utility.yul\":4153:4177   */\n      tag_595\n        /* \"#utility.yul\":4171:4176   */\n      dup3\n        /* \"#utility.yul\":4153:4177   */\n      tag_452\n      jump\t// in\n    tag_595:\n        /* \"#utility.yul\":4142:4177   */\n      swap1\n      pop\n        /* \"#utility.yul\":4087:4183   */\n      swap2\n      swap1\n      pop\n      jump\t// out\n        /* \"#utility.yul\":4189:4311   */\n    tag_454:\n        /* \"#utility.yul\":4262:4286   */\n      tag_597\n        /* \"#utility.yul\":4280:4285   */\n      dup2\n        /* \"#utility.yul\":4262:4286   */\n      tag_453\n      jump\t// in\n    tag_597:\n        /* \"#utility.yul\":4255:4260   */\n      dup2\n        /* \"#utility.yul\":4252:4287   */\n      eq\n        /* \"#utility.yul\":4242:4305   */\n      tag_598\n      jumpi\n        /* \"#utility.yul\":4301:4302   */\n      0x00\n        /* \"#utility.yul\":4298:4299   */\n      0x00\n        /* \"#utility.yul\":4291:4303   */\n      revert\n        /* \"#utility.yul\":4242:4305   */\n    tag_598:\n        /* \"#utility.yul\":4189:4311   */\n      pop\n      jump\t// out\n        /* \"#utility.yul\":4317:4456   */\n    tag_455:\n        /* \"#utility.yul\":4363:4368   */\n      0x00\n        /* \"#utility.yul\":4401:4407   */\n      dup2\n        /* \"#utility.yul\":4388:4408   */\n      calldataload\n        /* \"#utility.yul\":4379:4408   */\n      swap1\n      pop\n        /* \"#utility.yul\":4417:4450   */\n      tag_600\n        /* \"#utility.yul\":4444:4449   */\n      dup2\n        /* \"#utility.yul\":4417:4450   */\n      tag_454\n      jump\t// in\n    tag_600:\n        /* \"#utility.yul\":4317:4456   */\n      swap3\n      swap2\n      pop\n      pop\n      jump\t// out\n        /* \"#utility.yul\":4462:4791   */\n    tag_52:\n        /* \"#utility.yul\":4521:4527   */\n      0x00\n        /* \"#utility.yul\":4570:4572   */\n      0x20\n        /* \"#utility.yul\":4558:4567   */\n      dup3\n        /* \"#utility.yul\":4549:4556   */\n      dup5\n        /* \"#utility.yul\":4545:4568   */\n      sub\n        /* \"#utility.yul\":4541:4573   */\n      slt\n        /* \"#utility.yul\":4538:4657   */\n      iszero\n      tag_602\n      jumpi\n        /* \"#utility.yul\":4576:4655   */\n      tag_603\n      tag_444\n      jump\t// in\n    tag_603:\n        /* \"#utility.yul\":4538:4657   */\n    tag_602:\n        /* \"#utility.yul\":4696:4697   */\n      0x00\n        /* \"#utility.yul\":4721:4774   */\n      tag_604\n        /* \"#utility.yul\":4766:4773   */\n      dup5\n        /* \"#utility.yul\":4757:4763   */\n      dup3\n        /* \"#utility.yul\":4746:4755   */\n      dup6\n        /* \"#utility.yul\":4742:4764   */\n      add\n        /* \"#utility.yul\":4721:4774   */\n      tag_455\n      jump\t// in\n    tag_604:\n        /* \"#utility.yul\":4711:4774   */\n      swap2\n      pop\n        /* \"#utility.yul\":4667:4784   */\n      pop\n        /* \"#utility.yul\":4462:4791   */\n      swap3\n      swap2\n      pop\n      pop\n      jump\t// out\n        /* \"#utility.yul\":4797:4905   */\n    tag_456:\n        /* \"#utility.yul\":4874:4898   */\n      tag_606\n        /* \"#utility.yul\":4892:4897   */\n      dup2\n        /* \"#utility.yul\":4874:4898   */\n      tag_436\n      jump\t// in\n    tag_606:\n        /* \"#utility.yul\":4869:4872   */\n      dup3\n        /* \"#utility.yul\":4862:4899   */\n      mstore\n        /* \"#utility.yul\":4797:4905   */\n      pop\n      pop\n      jump\t// out\n        /* \"#utility.yul\":4911:5019   */\n    tag_457:\n        /* \"#utility.yul\":4988:5012   */\n      tag_608\n        /* \"#utility.yul\":5006:5011   */\n      dup2\n        /* \"#utility.yul\":4988:5012   */\n      tag_453\n      jump\t// in\n    tag_608:\n        /* \"#utility.yul\":4983:4986   */\n      dup3\n        /* \"#utility.yul\":4976:5013   */\n      mstore\n        /* \"#utility.yul\":4911:5019   */\n      pop\n      pop\n      jump\t// out\n        /* \"#utility.yul\":5025:5143   */\n    tag_458:\n        /* \"#utility.yul\":5111:5112   */\n      0x03\n        /* \"#utility.yul\":5104:5109   */\n      dup2\n        /* \"#utility.yul\":5101:5113   */\n      lt\n        /* \"#utility.yul\":5091:5137   */\n      tag_610\n      jumpi\n        /* \"#utility.yul\":5117:5135   */\n      tag_611\n      tag_107\n      jump\t// in\n    tag_611:\n        /* \"#utility.yul\":5091:5137   */\n    tag_610:\n        /* \"#utility.yul\":5025:5143   */\n      pop\n      jump\t// out\n        /* \"#utility.yul\":5149:5286   */\n    tag_459:\n        /* \"#utility.yul\":5199:5206   */\n      0x00\n        /* \"#utility.yul\":5228:5233   */\n      dup2\n        /* \"#utility.yul\":5217:5233   */\n      swap1\n      pop\n        /* \"#utility.yul\":5234:5280   */\n      tag_613\n        /* \"#utility.yul\":5274:5279   */\n      dup3\n        /* \"#utility.yul\":5234:5280   */\n      tag_458\n      jump\t// in\n    tag_613:\n        /* \"#utility.yul\":5149:5286   */\n      swap2\n      swap1\n      pop\n      jump\t// out\n        /* \"#utility.yul\":5292:5429   */\n    tag_460:\n        /* \"#utility.yul\":5353:5362   */\n      0x00\n        /* \"#utility.yul\":5386:5423   */\n      tag_615\n        /* \"#utility.yul\":5417:5422   */\n      dup3\n        /* \"#utility.yul\":5386:5423   */\n      tag_459\n      jump\t// in\n    tag_615:\n        /* \"#utility.yul\":5373:5423   */\n      swap1\n      pop\n        /* \"#utility.yul\":5292:5429   */\n      swap2\n      swap1\n      pop\n      jump\t// out\n        /* \"#utility.yul\":5435:5578   */\n    tag_461:\n        /* \"#utility.yul\":5523:5571   */\n      tag_617\n        /* \"#utility.yul\":5565:5570   */\n      dup2\n        /* \"#utility.yul\":5523:5571   */\n      tag_460\n      jump\t// in\n    tag_617:\n        /* \"#utility.yul\":5518:5521   */\n      dup3\n        /* \"#utility.yul\":5511:5572   */\n      mstore\n        /* \"#utility.yul\":5435:5578   */\n      pop\n      pop\n      jump\t// out\n        /* \"#utility.yul\":5584:5702   */\n    tag_462:\n        /* \"#utility.yul\":5670:5671   */\n      0x04\n        /* \"#utility.yul\":5663:5668   */\n      dup2\n        /* \"#utility.yul\":5660:5672   */\n      lt\n        /* \"#utility.yul\":5650:5696   */\n      tag_619\n      jumpi\n        /* \"#utility.yul\":5676:5694   */\n      tag_620\n      tag_107\n      jump\t// in\n    tag_620:\n        /* \"#utility.yul\":5650:5696   */\n    tag_619:\n        /* \"#utility.yul\":5584:5702   */\n      pop\n      jump\t// out\n        /* \"#utility.yul\":5708:5845   */\n    tag_463:\n        /* \"#utility.yul\":5758:5765   */\n      0x00\n        /* \"#utility.yul\":5787:5792   */\n      dup2\n        /* \"#utility.yul\":5776:5792   */\n      swap1\n      pop\n        /* \"#utility.yul\":5793:5839   */\n      tag_622\n        /* \"#utility.yul\":5833:5838   */\n      dup3\n        /* \"#utility.yul\":5793:5839   */\n      tag_462\n      jump\t// in\n    tag_622:\n        /* \"#utility.yul\":5708:5845   */\n      swap2\n      swap1\n      pop\n      jump\t// out\n        /* \"#utility.yul\":5851:5988   */\n    tag_464:\n        /* \"#utility.yul\":5912:5921   */\n      0x00\n        /* \"#utility.yul\":5945:5982   */\n      tag_624\n        /* \"#utility.yul\":5976:5981   */\n      dup3\n        /* \"#utility.yul\":5945:5982   */\n      tag_463\n      jump\t// in\n    tag_624:\n        /* \"#utility.yul\":5932:5982   */\n      swap1\n      pop\n        /* \"#utility.yul\":5851:5988   */\n      swap2\n      swap1\n      pop\n      jump\t// out\n        /* \"#utility.yul\":5994:6137   */\n    tag_465:\n        /* \"#utility.yul\":6082:6130   */\n      tag_626\n        /* \"#utility.yul\":6124:6129   */\n      dup2\n        /* \"#utility.yul\":6082:6130   */\n      tag_464\n      jump\t// in\n    tag_626:\n        /* \"#utility.yul\":6077:6080   */\n      dup3\n        /* \"#utility.yul\":6070:6131   */\n      mstore\n        /* \"#utility.yul\":5994:6137   */\n      pop\n      pop\n      jump\t// out\n        /* \"#utility.yul\":6203:7466   */\n    tag_466:\n        /* \"#utility.yul\":6360:6364   */\n      0xc0\n        /* \"#utility.yul\":6355:6358   */\n      dup3\n        /* \"#utility.yul\":6351:6365   */\n      add\n        /* \"#utility.yul\":6451:6455   */\n      0x00\n        /* \"#utility.yul\":6444:6449   */\n      dup3\n        /* \"#utility.yul\":6440:6456   */\n      add\n        /* \"#utility.yul\":6434:6457   */\n      mload\n        /* \"#utility.yul\":6470:6544   */\n      tag_628\n        /* \"#utility.yul\":6538:6542   */\n      0x00\n        /* \"#utility.yul\":6533:6536   */\n      dup6\n        /* \"#utility.yul\":6529:6543   */\n      add\n        /* \"#utility.yul\":6515:6527   */\n      dup3\n        /* \"#utility.yul\":6470:6544   */\n      tag_465\n      jump\t// in\n    tag_628:\n        /* \"#utility.yul\":6375:6554   */\n      pop\n        /* \"#utility.yul\":6636:6640   */\n      0x20\n        /* \"#utility.yul\":6629:6634   */\n      dup3\n        /* \"#utility.yul\":6625:6641   */\n      add\n        /* \"#utility.yul\":6619:6642   */\n      mload\n        /* \"#utility.yul\":6655:6718   */\n      tag_629\n        /* \"#utility.yul\":6712:6716   */\n      0x20\n        /* \"#utility.yul\":6707:6710   */\n      dup6\n        /* \"#utility.yul\":6703:6717   */\n      add\n        /* \"#utility.yul\":6689:6701   */\n      dup3\n        /* \"#utility.yul\":6655:6718   */\n      tag_456\n      jump\t// in\n    tag_629:\n        /* \"#utility.yul\":6564:6728   */\n      pop\n        /* \"#utility.yul\":6819:6823   */\n      0x40\n        /* \"#utility.yul\":6812:6817   */\n      dup3\n        /* \"#utility.yul\":6808:6824   */\n      add\n        /* \"#utility.yul\":6802:6825   */\n      mload\n        /* \"#utility.yul\":6838:6901   */\n      tag_630\n        /* \"#utility.yul\":6895:6899   */\n      0x40\n        /* \"#utility.yul\":6890:6893   */\n      dup6\n        /* \"#utility.yul\":6886:6900   */\n      add\n        /* \"#utility.yul\":6872:6884   */\n      dup3\n        /* \"#utility.yul\":6838:6901   */\n      tag_456\n      jump\t// in\n    tag_630:\n        /* \"#utility.yul\":6738:6911   */\n      pop\n        /* \"#utility.yul\":7002:7006   */\n      0x60\n        /* \"#utility.yul\":6995:7000   */\n      dup3\n        /* \"#utility.yul\":6991:7007   */\n      add\n        /* \"#utility.yul\":6985:7008   */\n      mload\n        /* \"#utility.yul\":7021:7084   */\n      tag_631\n        /* \"#utility.yul\":7078:7082   */\n      0x60\n        /* \"#utility.yul\":7073:7076   */\n      dup6\n        /* \"#utility.yul\":7069:7083   */\n      add\n        /* \"#utility.yul\":7055:7067   */\n      dup3\n        /* \"#utility.yul\":7021:7084   */\n      tag_456\n      jump\t// in\n    tag_631:\n        /* \"#utility.yul\":6921:7094   */\n      pop\n        /* \"#utility.yul\":7186:7190   */\n      0x80\n        /* \"#utility.yul\":7179:7184   */\n      dup3\n        /* \"#utility.yul\":7175:7191   */\n      add\n        /* \"#utility.yul\":7169:7192   */\n      mload\n        /* \"#utility.yul\":7205:7268   */\n      tag_632\n        /* \"#utility.yul\":7262:7266   */\n      0x80\n        /* \"#utility.yul\":7257:7260   */\n      dup6\n        /* \"#utility.yul\":7253:7267   */\n      add\n        /* \"#utility.yul\":7239:7251   */\n      dup3\n        /* \"#utility.yul\":7205:7268   */\n      tag_456\n      jump\t// in\n    tag_632:\n        /* \"#utility.yul\":7104:7278   */\n      pop\n        /* \"#utility.yul\":7367:7371   */\n      0xa0\n        /* \"#utility.yul\":7360:7365   */\n      dup3\n        /* \"#utility.yul\":7356:7372   */\n      add\n        /* \"#utility.yul\":7350:7373   */\n      mload\n        /* \"#utility.yul\":7386:7449   */\n      tag_633\n        /* \"#utility.yul\":7443:7447   */\n      0xa0\n        /* \"#utility.yul\":7438:7441   */\n      dup6\n        /* \"#utility.yul\":7434:7448   */\n      add\n        /* \"#utility.yul\":7420:7432   */\n      dup3\n        /* \"#utility.yul\":7386:7449   */\n      tag_456\n      jump\t// in\n    tag_633:\n        /* \"#utility.yul\":7288:7459   */\n      pop\n        /* \"#utility.yul\":6329:7466   */\n      pop\n        /* \"#utility.yul\":6203:7466   */\n      pop\n      pop\n      jump\t// out\n        /* \"#utility.yul\":7516:8043   */\n    tag_467:\n        /* \"#utility.yul\":7657:7661   */\n      0x40\n        /* \"#utility.yul\":7652:7655   */\n      dup3\n        /* \"#utility.yul\":7648:7662   */\n      add\n        /* \"#utility.yul\":7757:7761   */\n      0x00\n        /* \"#utility.yul\":7750:7755   */\n      dup3\n        /* \"#utility.yul\":7746:7762   */\n      add\n        /* \"#utility.yul\":7740:7763   */\n      mload\n        /* \"#utility.yul\":7776:7839   */\n      tag_635\n        /* \"#utility.yul\":7833:7837   */\n      0x00\n        /* \"#utility.yul\":7828:7831   */\n      dup6\n        /* \"#utility.yul\":7824:7838   */\n      add\n        /* \"#utility.yul\":7810:7822   */\n      dup3\n        /* \"#utility.yul\":7776:7839   */\n      tag_456\n      jump\t// in\n    tag_635:\n        /* \"#utility.yul\":7672:7849   */\n      pop\n        /* \"#utility.yul\":7944:7948   */\n      0x20\n        /* \"#utility.yul\":7937:7942   */\n      dup3\n        /* \"#utility.yul\":7933:7949   */\n      add\n        /* \"#utility.yul\":7927:7950   */\n      mload\n        /* \"#utility.yul\":7963:8026   */\n      tag_636\n        /* \"#utility.yul\":8020:8024   */\n      0x20\n        /* \"#utility.yul\":8015:8018   */\n      dup6\n        /* \"#utility.yul\":8011:8025   */\n      add\n        /* \"#utility.yul\":7997:8009   */\n      dup3\n        /* \"#utility.yul\":7963:8026   */\n      tag_456\n      jump\t// in\n    tag_636:\n        /* \"#utility.yul\":7859:8036   */\n      pop\n        /* \"#utility.yul\":7626:8043   */\n      pop\n        /* \"#utility.yul\":7516:8043   */\n      pop\n      pop\n      jump\t// out\n        /* \"#utility.yul\":8093:10821   */\n    tag_468:\n        /* \"#utility.yul\":8234:8240   */\n      0x0300\n        /* \"#utility.yul\":8229:8232   */\n      dup3\n        /* \"#utility.yul\":8225:8241   */\n      add\n        /* \"#utility.yul\":8321:8325   */\n      0x00\n        /* \"#utility.yul\":8314:8319   */\n      dup3\n        /* \"#utility.yul\":8310:8326   */\n      add\n        /* \"#utility.yul\":8304:8327   */\n      mload\n        /* \"#utility.yul\":8340:8403   */\n      tag_638\n        /* \"#utility.yul\":8397:8401   */\n      0x00\n        /* \"#utility.yul\":8392:8395   */\n      dup6\n        /* \"#utility.yul\":8388:8402   */\n      add\n        /* \"#utility.yul\":8374:8386   */\n      dup3\n        /* \"#utility.yul\":8340:8403   */\n      tag_456\n      jump\t// in\n    tag_638:\n        /* \"#utility.yul\":8251:8413   */\n      pop\n        /* \"#utility.yul\":8499:8503   */\n      0x20\n        /* \"#utility.yul\":8492:8497   */\n      dup3\n        /* \"#utility.yul\":8488:8504   */\n      add\n        /* \"#utility.yul\":8482:8505   */\n      mload\n        /* \"#utility.yul\":8518:8581   */\n      tag_639\n        /* \"#utility.yul\":8575:8579   */\n      0x20\n        /* \"#utility.yul\":8570:8573   */\n      dup6\n        /* \"#utility.yul\":8566:8580   */\n      add\n        /* \"#utility.yul\":8552:8564   */\n      dup3\n        /* \"#utility.yul\":8518:8581   */\n      tag_457\n      jump\t// in\n    tag_639:\n        /* \"#utility.yul\":8423:8591   */\n      pop\n        /* \"#utility.yul\":8674:8678   */\n      0x40\n        /* \"#utility.yul\":8667:8672   */\n      dup3\n        /* \"#utility.yul\":8663:8679   */\n      add\n        /* \"#utility.yul\":8657:8680   */\n      mload\n        /* \"#utility.yul\":8693:8756   */\n      tag_640\n        /* \"#utility.yul\":8750:8754   */\n      0x40\n        /* \"#utility.yul\":8745:8748   */\n      dup6\n        /* \"#utility.yul\":8741:8755   */\n      add\n        /* \"#utility.yul\":8727:8739   */\n      dup3\n        /* \"#utility.yul\":8693:8756   */\n      tag_457\n      jump\t// in\n    tag_640:\n        /* \"#utility.yul\":8601:8766   */\n      pop\n        /* \"#utility.yul\":8861:8865   */\n      0x60\n        /* \"#utility.yul\":8854:8859   */\n      dup3\n        /* \"#utility.yul\":8850:8866   */\n      add\n        /* \"#utility.yul\":8844:8867   */\n      mload\n        /* \"#utility.yul\":8880:8943   */\n      tag_641\n        /* \"#utility.yul\":8937:8941   */\n      0x60\n        /* \"#utility.yul\":8932:8935   */\n      dup6\n        /* \"#utility.yul\":8928:8942   */\n      add\n        /* \"#utility.yul\":8914:8926   */\n      dup3\n        /* \"#utility.yul\":8880:8943   */\n      tag_456\n      jump\t// in\n    tag_641:\n        /* \"#utility.yul\":8776:8953   */\n      pop\n        /* \"#utility.yul\":9050:9054   */\n      0x80\n        /* \"#utility.yul\":9043:9048   */\n      dup3\n        /* \"#utility.yul\":9039:9055   */\n      add\n        /* \"#utility.yul\":9033:9056   */\n      mload\n        /* \"#utility.yul\":9069:9132   */\n      tag_642\n        /* \"#utility.yul\":9126:9130   */\n      0x80\n        /* \"#utility.yul\":9121:9124   */\n      dup6\n        /* \"#utility.yul\":9117:9131   */\n      add\n        /* \"#utility.yul\":9103:9115   */\n      dup3\n        /* \"#utility.yul\":9069:9132   */\n      tag_456\n      jump\t// in\n    tag_642:\n        /* \"#utility.yul\":8963:9142   */\n      pop\n        /* \"#utility.yul\":9228:9232   */\n      0xa0\n        /* \"#utility.yul\":9221:9226   */\n      dup3\n        /* \"#utility.yul\":9217:9233   */\n      add\n        /* \"#utility.yul\":9211:9234   */\n      mload\n        /* \"#utility.yul\":9247:9310   */\n      tag_643\n        /* \"#utility.yul\":9304:9308   */\n      0xa0\n        /* \"#utility.yul\":9299:9302   */\n      dup6\n        /* \"#utility.yul\":9295:9309   */\n      add\n        /* \"#utility.yul\":9281:9293   */\n      dup3\n        /* \"#utility.yul\":9247:9310   */\n      tag_456\n      jump\t// in\n    tag_643:\n        /* \"#utility.yul\":9152:9320   */\n      pop\n        /* \"#utility.yul\":9406:9410   */\n      0xc0\n        /* \"#utility.yul\":9399:9404   */\n      dup3\n        /* \"#utility.yul\":9395:9411   */\n      add\n        /* \"#utility.yul\":9389:9412   */\n      mload\n        /* \"#utility.yul\":9425:9499   */\n      tag_644\n        /* \"#utility.yul\":9493:9497   */\n      0xc0\n        /* \"#utility.yul\":9488:9491   */\n      dup6\n        /* \"#utility.yul\":9484:9498   */\n      add\n        /* \"#utility.yul\":9470:9482   */\n      dup3\n        /* \"#utility.yul\":9425:9499   */\n      tag_461\n      jump\t// in\n    tag_644:\n        /* \"#utility.yul\":9330:9509   */\n      pop\n        /* \"#utility.yul\":9607:9611   */\n      0xe0\n        /* \"#utility.yul\":9600:9605   */\n      dup3\n        /* \"#utility.yul\":9596:9612   */\n      add\n        /* \"#utility.yul\":9590:9613   */\n      mload\n        /* \"#utility.yul\":9626:9759   */\n      tag_645\n        /* \"#utility.yul\":9753:9757   */\n      0xe0\n        /* \"#utility.yul\":9748:9751   */\n      dup6\n        /* \"#utility.yul\":9744:9758   */\n      add\n        /* \"#utility.yul\":9730:9742   */\n      dup3\n        /* \"#utility.yul\":9626:9759   */\n      tag_466\n      jump\t// in\n    tag_645:\n        /* \"#utility.yul\":9519:9769   */\n      pop\n        /* \"#utility.yul\":9863:9869   */\n      0x0100\n        /* \"#utility.yul\":9856:9861   */\n      dup3\n        /* \"#utility.yul\":9852:9870   */\n      add\n        /* \"#utility.yul\":9846:9871   */\n      mload\n        /* \"#utility.yul\":9884:10019   */\n      tag_646\n        /* \"#utility.yul\":10011:10017   */\n      0x01a0\n        /* \"#utility.yul\":10006:10009   */\n      dup6\n        /* \"#utility.yul\":10002:10018   */\n      add\n        /* \"#utility.yul\":9988:10000   */\n      dup3\n        /* \"#utility.yul\":9884:10019   */\n      tag_466\n      jump\t// in\n    tag_646:\n        /* \"#utility.yul\":9779:10029   */\n      pop\n        /* \"#utility.yul\":10116:10122   */\n      0x0120\n        /* \"#utility.yul\":10109:10114   */\n      dup3\n        /* \"#utility.yul\":10105:10123   */\n      add\n        /* \"#utility.yul\":10099:10124   */\n      mload\n        /* \"#utility.yul\":10137:10256   */\n      tag_647\n        /* \"#utility.yul\":10248:10254   */\n      0x0260\n        /* \"#utility.yul\":10243:10246   */\n      dup6\n        /* \"#utility.yul\":10239:10255   */\n      add\n        /* \"#utility.yul\":10225:10237   */\n      dup3\n        /* \"#utility.yul\":10137:10256   */\n      tag_467\n      jump\t// in\n    tag_647:\n        /* \"#utility.yul\":10039:10266   */\n      pop\n        /* \"#utility.yul\":10355:10361   */\n      0x0140\n        /* \"#utility.yul\":10348:10353   */\n      dup3\n        /* \"#utility.yul\":10344:10362   */\n      add\n        /* \"#utility.yul\":10338:10363   */\n      mload\n        /* \"#utility.yul\":10376:10441   */\n      tag_648\n        /* \"#utility.yul\":10433:10439   */\n      0x02a0\n        /* \"#utility.yul\":10428:10431   */\n      dup6\n        /* \"#utility.yul\":10424:10440   */\n      add\n        /* \"#utility.yul\":10410:10422   */\n      dup3\n        /* \"#utility.yul\":10376:10441   */\n      tag_456\n      jump\t// in\n    tag_648:\n        /* \"#utility.yul\":10276:10451   */\n      pop\n        /* \"#utility.yul\":10539:10545   */\n      0x0160\n        /* \"#utility.yul\":10532:10537   */\n      dup3\n        /* \"#utility.yul\":10528:10546   */\n      add\n        /* \"#utility.yul\":10522:10547   */\n      mload\n        /* \"#utility.yul\":10560:10625   */\n      tag_649\n        /* \"#utility.yul\":10617:10623   */\n      0x02c0\n        /* \"#utility.yul\":10612:10615   */\n      dup6\n        /* \"#utility.yul\":10608:10624   */\n      add\n        /* \"#utility.yul\":10594:10606   */\n      dup3\n        /* \"#utility.yul\":10560:10625   */\n      tag_456\n      jump\t// in\n    tag_649:\n        /* \"#utility.yul\":10461:10635   */\n      pop\n        /* \"#utility.yul\":10718:10724   */\n      0x0180\n        /* \"#utility.yul\":10711:10716   */\n      dup3\n        /* \"#utility.yul\":10707:10725   */\n      add\n        /* \"#utility.yul\":10701:10726   */\n      mload\n        /* \"#utility.yul\":10739:10804   */\n      tag_650\n        /* \"#utility.yul\":10796:10802   */\n      0x02e0\n        /* \"#utility.yul\":10791:10794   */\n      dup6\n        /* \"#utility.yul\":10787:10803   */\n      add\n        /* \"#utility.yul\":10773:10785   */\n      dup3\n        /* \"#utility.yul\":10739:10804   */\n      tag_456\n      jump\t// in\n    tag_650:\n        /* \"#utility.yul\":10645:10814   */\n      pop\n        /* \"#utility.yul\":8203:10821   */\n      pop\n        /* \"#utility.yul\":8093:10821   */\n      pop\n      pop\n      jump\t// out\n        /* \"#utility.yul\":10869:12329   */\n    tag_469:\n        /* \"#utility.yul\":11018:11024   */\n      0x03c0\n        /* \"#utility.yul\":11013:11016   */\n      dup3\n        /* \"#utility.yul\":11009:11025   */\n      add\n        /* \"#utility.yul\":11105:11109   */\n      0x00\n        /* \"#utility.yul\":11098:11103   */\n      dup3\n        /* \"#utility.yul\":11094:11110   */\n      add\n        /* \"#utility.yul\":11088:11111   */\n      mload\n        /* \"#utility.yul\":11124:11187   */\n      tag_652\n        /* \"#utility.yul\":11181:11185   */\n      0x00\n        /* \"#utility.yul\":11176:11179   */\n      dup6\n        /* \"#utility.yul\":11172:11186   */\n      add\n        /* \"#utility.yul\":11158:11170   */\n      dup3\n        /* \"#utility.yul\":11124:11187   */\n      tag_456\n      jump\t// in\n    tag_652:\n        /* \"#utility.yul\":11035:11197   */\n      pop\n        /* \"#utility.yul\":11282:11286   */\n      0x20\n        /* \"#utility.yul\":11275:11280   */\n      dup3\n        /* \"#utility.yul\":11271:11287   */\n      add\n        /* \"#utility.yul\":11265:11288   */\n      mload\n        /* \"#utility.yul\":11301:11364   */\n      tag_653\n        /* \"#utility.yul\":11358:11362   */\n      0x20\n        /* \"#utility.yul\":11353:11356   */\n      dup6\n        /* \"#utility.yul\":11349:11363   */\n      add\n        /* \"#utility.yul\":11335:11347   */\n      dup3\n        /* \"#utility.yul\":11301:11364   */\n      tag_457\n      jump\t// in\n    tag_653:\n        /* \"#utility.yul\":11207:11374   */\n      pop\n        /* \"#utility.yul\":11457:11461   */\n      0x40\n        /* \"#utility.yul\":11450:11455   */\n      dup3\n        /* \"#utility.yul\":11446:11462   */\n      add\n        /* \"#utility.yul\":11440:11463   */\n      mload\n        /* \"#utility.yul\":11476:11539   */\n      tag_654\n        /* \"#utility.yul\":11533:11537   */\n      0x40\n        /* \"#utility.yul\":11528:11531   */\n      dup6\n        /* \"#utility.yul\":11524:11538   */\n      add\n        /* \"#utility.yul\":11510:11522   */\n      dup3\n        /* \"#utility.yul\":11476:11539   */\n      tag_457\n      jump\t// in\n    tag_654:\n        /* \"#utility.yul\":11384:11549   */\n      pop\n        /* \"#utility.yul\":11632:11636   */\n      0x60\n        /* \"#utility.yul\":11625:11630   */\n      dup3\n        /* \"#utility.yul\":11621:11637   */\n      add\n        /* \"#utility.yul\":11615:11638   */\n      mload\n        /* \"#utility.yul\":11651:11714   */\n      tag_655\n        /* \"#utility.yul\":11708:11712   */\n      0x60\n        /* \"#utility.yul\":11703:11706   */\n      dup6\n        /* \"#utility.yul\":11699:11713   */\n      add\n        /* \"#utility.yul\":11685:11697   */\n      dup3\n        /* \"#utility.yul\":11651:11714   */\n      tag_457\n      jump\t// in\n    tag_655:\n        /* \"#utility.yul\":11559:11724   */\n      pop\n        /* \"#utility.yul\":11814:11818   */\n      0x80\n        /* \"#utility.yul\":11807:11812   */\n      dup3\n        /* \"#utility.yul\":11803:11819   */\n      add\n        /* \"#utility.yul\":11797:11820   */\n      mload\n        /* \"#utility.yul\":11833:11896   */\n      tag_656\n        /* \"#utility.yul\":11890:11894   */\n      0x80\n        /* \"#utility.yul\":11885:11888   */\n      dup6\n        /* \"#utility.yul\":11881:11895   */\n      add\n        /* \"#utility.yul\":11867:11879   */\n      dup3\n        /* \"#utility.yul\":11833:11896   */\n      tag_456\n      jump\t// in\n    tag_656:\n        /* \"#utility.yul\":11734:11906   */\n      pop\n        /* \"#utility.yul\":11999:12003   */\n      0xa0\n        /* \"#utility.yul\":11992:11997   */\n      dup3\n        /* \"#utility.yul\":11988:12004   */\n      add\n        /* \"#utility.yul\":11982:12005   */\n      mload\n        /* \"#utility.yul\":12018:12081   */\n      tag_657\n        /* \"#utility.yul\":12075:12079   */\n      0xa0\n        /* \"#utility.yul\":12070:12073   */\n      dup6\n        /* \"#utility.yul\":12066:12080   */\n      add\n        /* \"#utility.yul\":12052:12064   */\n      dup3\n        /* \"#utility.yul\":12018:12081   */\n      tag_456\n      jump\t// in\n    tag_657:\n        /* \"#utility.yul\":11916:12091   */\n      pop\n        /* \"#utility.yul\":12176:12180   */\n      0xc0\n        /* \"#utility.yul\":12169:12174   */\n      dup3\n        /* \"#utility.yul\":12165:12181   */\n      add\n        /* \"#utility.yul\":12159:12182   */\n      mload\n        /* \"#utility.yul\":12195:12312   */\n      tag_658\n        /* \"#utility.yul\":12306:12310   */\n      0xc0\n        /* \"#utility.yul\":12301:12304   */\n      dup6\n        /* \"#utility.yul\":12297:12311   */\n      add\n        /* \"#utility.yul\":12283:12295   */\n      dup3\n        /* \"#utility.yul\":12195:12312   */\n      tag_468\n      jump\t// in\n    tag_658:\n        /* \"#utility.yul\":12101:12322   */\n      pop\n        /* \"#utility.yul\":10987:12329   */\n      pop\n        /* \"#utility.yul\":10869:12329   */\n      pop\n      pop\n      jump\t// out\n        /* \"#utility.yul\":12335:12662   */\n    tag_59:\n        /* \"#utility.yul\":12480:12484   */\n      0x00\n        /* \"#utility.yul\":12518:12521   */\n      0x03c0\n        /* \"#utility.yul\":12507:12516   */\n      dup3\n        /* \"#utility.yul\":12503:12522   */\n      add\n        /* \"#utility.yul\":12495:12522   */\n      swap1\n      pop\n        /* \"#utility.yul\":12532:12655   */\n      tag_660\n        /* \"#utility.yul\":12652:12653   */\n      0x00\n        /* \"#utility.yul\":12641:12650   */\n      dup4\n        /* \"#utility.yul\":12637:12654   */\n      add\n        /* \"#utility.yul\":12628:12634   */\n      dup5\n        /* \"#utility.yul\":12532:12655   */\n      tag_469\n      jump\t// in\n    tag_660:\n        /* \"#utility.yul\":12335:12662   */\n      swap3\n      swap2\n      pop\n      pop\n      jump\t// out\n        /* \"#utility.yul\":12668:12758   */\n    tag_470:\n        /* \"#utility.yul\":12702:12709   */\n      0x00\n        /* \"#utility.yul\":12745:12750   */\n      dup2\n        /* \"#utility.yul\":12738:12751   */\n      iszero\n        /* \"#utility.yul\":12731:12752   */\n      iszero\n        /* \"#utility.yul\":12720:12752   */\n      swap1\n      pop\n        /* \"#utility.yul\":12668:12758   */\n      swap2\n      swap1\n      pop\n      jump\t// out\n        /* \"#utility.yul\":12764:12863   */\n    tag_471:\n        /* \"#utility.yul\":12835:12856   */\n      tag_663\n        /* \"#utility.yul\":12850:12855   */\n      dup2\n        /* \"#utility.yul\":12835:12856   */\n      tag_470\n      jump\t// in\n    tag_663:\n        /* \"#utility.yul\":12830:12833   */\n      dup3\n        /* \"#utility.yul\":12823:12857   */\n      mstore\n        /* \"#utility.yul\":12764:12863   */\n      pop\n      pop\n      jump\t// out\n        /* \"#utility.yul\":12923:14008   */\n    tag_472:\n        /* \"#utility.yul\":13080:13084   */\n      0xa0\n        /* \"#utility.yul\":13075:13078   */\n      dup3\n        /* \"#utility.yul\":13071:13085   */\n      add\n        /* \"#utility.yul\":13176:13180   */\n      0x00\n        /* \"#utility.yul\":13169:13174   */\n      dup3\n        /* \"#utility.yul\":13165:13181   */\n      add\n        /* \"#utility.yul\":13159:13182   */\n      mload\n        /* \"#utility.yul\":13195:13258   */\n      tag_665\n        /* \"#utility.yul\":13252:13256   */\n      0x00\n        /* \"#utility.yul\":13247:13250   */\n      dup6\n        /* \"#utility.yul\":13243:13257   */\n      add\n        /* \"#utility.yul\":13229:13241   */\n      dup3\n        /* \"#utility.yul\":13195:13258   */\n      tag_456\n      jump\t// in\n    tag_665:\n        /* \"#utility.yul\":13095:13268   */\n      pop\n        /* \"#utility.yul\":13366:13370   */\n      0x20\n        /* \"#utility.yul\":13359:13364   */\n      dup3\n        /* \"#utility.yul\":13355:13371   */\n      add\n        /* \"#utility.yul\":13349:13372   */\n      mload\n        /* \"#utility.yul\":13385:13448   */\n      tag_666\n        /* \"#utility.yul\":13442:13446   */\n      0x20\n        /* \"#utility.yul\":13437:13440   */\n      dup6\n        /* \"#utility.yul\":13433:13447   */\n      add\n        /* \"#utility.yul\":13419:13431   */\n      dup3\n        /* \"#utility.yul\":13385:13448   */\n      tag_456\n      jump\t// in\n    tag_666:\n        /* \"#utility.yul\":13278:13458   */\n      pop\n        /* \"#utility.yul\":13548:13552   */\n      0x40\n        /* \"#utility.yul\":13541:13546   */\n      dup3\n        /* \"#utility.yul\":13537:13553   */\n      add\n        /* \"#utility.yul\":13531:13554   */\n      mload\n        /* \"#utility.yul\":13567:13630   */\n      tag_667\n        /* \"#utility.yul\":13624:13628   */\n      0x40\n        /* \"#utility.yul\":13619:13622   */\n      dup6\n        /* \"#utility.yul\":13615:13629   */\n      add\n        /* \"#utility.yul\":13601:13613   */\n      dup3\n        /* \"#utility.yul\":13567:13630   */\n      tag_456\n      jump\t// in\n    tag_667:\n        /* \"#utility.yul\":13468:13640   */\n      pop\n        /* \"#utility.yul\":13733:13737   */\n      0x60\n        /* \"#utility.yul\":13726:13731   */\n      dup3\n        /* \"#utility.yul\":13722:13738   */\n      add\n        /* \"#utility.yul\":13716:13739   */\n      mload\n        /* \"#utility.yul\":13752:13815   */\n      tag_668\n        /* \"#utility.yul\":13809:13813   */\n      0x60\n        /* \"#utility.yul\":13804:13807   */\n      dup6\n        /* \"#utility.yul\":13800:13814   */\n      add\n        /* \"#utility.yul\":13786:13798   */\n      dup3\n        /* \"#utility.yul\":13752:13815   */\n      tag_456\n      jump\t// in\n    tag_668:\n        /* \"#utility.yul\":13650:13825   */\n      pop\n        /* \"#utility.yul\":13915:13919   */\n      0x80\n        /* \"#utility.yul\":13908:13913   */\n      dup3\n        /* \"#utility.yul\":13904:13920   */\n      add\n        /* \"#utility.yul\":13898:13921   */\n      mload\n        /* \"#utility.yul\":13934:13991   */\n      tag_669\n        /* \"#utility.yul\":13985:13989   */\n      0x80\n        /* \"#utility.yul\":13980:13983   */\n      dup6\n        /* \"#utility.yul\":13976:13990   */\n      add\n        /* \"#utility.yul\":13962:13974   */\n      dup3\n        /* \"#utility.yul\":13934:13991   */\n      tag_471\n      jump\t// in\n    tag_669:\n        /* \"#utility.yul\":13835:14001   */\n      pop\n        /* \"#utility.yul\":13049:14008   */\n      pop\n        /* \"#utility.yul\":12923:14008   */\n      pop\n      pop\n      jump\t// out\n        /* \"#utility.yul\":14014:14357   */\n    tag_64:\n        /* \"#utility.yul\":14167:14171   */\n      0x00\n        /* \"#utility.yul\":14205:14208   */\n      0xa0\n        /* \"#utility.yul\":14194:14203   */\n      dup3\n        /* \"#utility.yul\":14190:14209   */\n      add\n        /* \"#utility.yul\":14182:14209   */\n      swap1\n      pop\n        /* \"#utility.yul\":14219:14350   */\n      tag_671\n        /* \"#utility.yul\":14347:14348   */\n      0x00\n        /* \"#utility.yul\":14336:14345   */\n      dup4\n        /* \"#utility.yul\":14332:14349   */\n      add\n        /* \"#utility.yul\":14323:14329   */\n      dup5\n        /* \"#utility.yul\":14219:14350   */\n      tag_472\n      jump\t// in\n    tag_671:\n        /* \"#utility.yul\":14014:14357   */\n      swap3\n      swap2\n      pop\n      pop\n      jump\t// out\n        /* \"#utility.yul\":14363:14982   */\n    tag_67:\n        /* \"#utility.yul\":14440:14446   */\n      0x00\n        /* \"#utility.yul\":14448:14454   */\n      0x00\n        /* \"#utility.yul\":14456:14462   */\n      0x00\n        /* \"#utility.yul\":14505:14507   */\n      0x60\n        /* \"#utility.yul\":14493:14502   */\n      dup5\n        /* \"#utility.yul\":14484:14491   */\n      dup7\n        /* \"#utility.yul\":14480:14503   */\n      sub\n        /* \"#utility.yul\":14476:14508   */\n      slt\n        /* \"#utility.yul\":14473:14592   */\n      iszero\n      tag_673\n      jumpi\n        /* \"#utility.yul\":14511:14590   */\n      tag_674\n      tag_444\n      jump\t// in\n    tag_674:\n        /* \"#utility.yul\":14473:14592   */\n    tag_673:\n        /* \"#utility.yul\":14631:14632   */\n      0x00\n        /* \"#utility.yul\":14656:14709   */\n      tag_675\n        /* \"#utility.yul\":14701:14708   */\n      dup7\n        /* \"#utility.yul\":14692:14698   */\n      dup3\n        /* \"#utility.yul\":14681:14690   */\n      dup8\n        /* \"#utility.yul\":14677:14699   */\n      add\n        /* \"#utility.yul\":14656:14709   */\n      tag_447\n      jump\t// in\n    tag_675:\n        /* \"#utility.yul\":14646:14709   */\n      swap4\n      pop\n        /* \"#utility.yul\":14602:14719   */\n      pop\n        /* \"#utility.yul\":14758:14760   */\n      0x20\n        /* \"#utility.yul\":14784:14837   */\n      tag_676\n        /* \"#utility.yul\":14829:14836   */\n      dup7\n        /* \"#utility.yul\":14820:14826   */\n      dup3\n        /* \"#utility.yul\":14809:14818   */\n      dup8\n        /* \"#utility.yul\":14805:14827   */\n      add\n        /* \"#utility.yul\":14784:14837   */\n      tag_447\n      jump\t// in\n    tag_676:\n        /* \"#utility.yul\":14774:14837   */\n      swap3\n      pop\n        /* \"#utility.yul\":14729:14847   */\n      pop\n        /* \"#utility.yul\":14886:14888   */\n      0x40\n        /* \"#utility.yul\":14912:14965   */\n      tag_677\n        /* \"#utility.yul\":14957:14964   */\n      dup7\n        /* \"#utility.yul\":14948:14954   */\n      dup3\n        /* \"#utility.yul\":14937:14946   */\n      dup8\n        /* \"#utility.yul\":14933:14955   */\n      add\n        /* \"#utility.yul\":14912:14965   */\n      tag_447\n      jump\t// in\n    tag_677:\n        /* \"#utility.yul\":14902:14965   */\n      swap2\n      pop\n        /* \"#utility.yul\":14857:14975   */\n      pop\n        /* \"#utility.yul\":14363:14982   */\n      swap3\n      pop\n      swap3\n      pop\n      swap3\n      jump\t// out\n        /* \"#utility.yul\":14988:15102   */\n    tag_473:\n        /* \"#utility.yul\":15055:15061   */\n      0x00\n        /* \"#utility.yul\":15089:15094   */\n      dup2\n        /* \"#utility.yul\":15083:15095   */\n      mload\n        /* \"#utility.yul\":15073:15095   */\n      swap1\n      pop\n        /* \"#utility.yul\":14988:15102   */\n      swap2\n      swap1\n      pop\n      jump\t// out\n        /* \"#utility.yul\":15108:15292   */\n    tag_474:\n        /* \"#utility.yul\":15207:15218   */\n      0x00\n        /* \"#utility.yul\":15241:15247   */\n      dup3\n        /* \"#utility.yul\":15236:15239   */\n      dup3\n        /* \"#utility.yul\":15229:15248   */\n      mstore\n        /* \"#utility.yul\":15281:15285   */\n      0x20\n        /* \"#utility.yul\":15276:15279   */\n      dup3\n        /* \"#utility.yul\":15272:15286   */\n      add\n        /* \"#utility.yul\":15257:15286   */\n      swap1\n      pop\n        /* \"#utility.yul\":15108:15292   */\n      swap3\n      swap2\n      pop\n      pop\n      jump\t// out\n        /* \"#utility.yul\":15298:15430   */\n    tag_475:\n        /* \"#utility.yul\":15365:15369   */\n      0x00\n        /* \"#utility.yul\":15388:15391   */\n      dup2\n        /* \"#utility.yul\":15380:15391   */\n      swap1\n      pop\n        /* \"#utility.yul\":15418:15422   */\n      0x20\n        /* \"#utility.yul\":15413:15416   */\n      dup3\n        /* \"#utility.yul\":15409:15423   */\n      add\n        /* \"#utility.yul\":15401:15423   */\n      swap1\n      pop\n        /* \"#utility.yul\":15298:15430   */\n      swap2\n      swap1\n      pop\n      jump\t// out\n        /* \"#utility.yul\":15436:15615   */\n    tag_476:\n        /* \"#utility.yul\":15505:15515   */\n      0x00\n        /* \"#utility.yul\":15526:15572   */\n      tag_682\n        /* \"#utility.yul\":15568:15571   */\n      dup4\n        /* \"#utility.yul\":15560:15566   */\n      dup4\n        /* \"#utility.yul\":15526:15572   */\n      tag_456\n      jump\t// in\n    tag_682:\n        /* \"#utility.yul\":15604:15608   */\n      0x20\n        /* \"#utility.yul\":15599:15602   */\n      dup4\n        /* \"#utility.yul\":15595:15609   */\n      add\n        /* \"#utility.yul\":15581:15609   */\n      swap1\n      pop\n        /* \"#utility.yul\":15436:15615   */\n      swap3\n      swap2\n      pop\n      pop\n      jump\t// out\n        /* \"#utility.yul\":15621:15734   */\n    tag_477:\n        /* \"#utility.yul\":15691:15695   */\n      0x00\n        /* \"#utility.yul\":15723:15727   */\n      0x20\n        /* \"#utility.yul\":15718:15721   */\n      dup3\n        /* \"#utility.yul\":15714:15728   */\n      add\n        /* \"#utility.yul\":15706:15728   */\n      swap1\n      pop\n        /* \"#utility.yul\":15621:15734   */\n      swap2\n      swap1\n      pop\n      jump\t// out\n        /* \"#utility.yul\":15770:16502   */\n    tag_478:\n        /* \"#utility.yul\":15889:15892   */\n      0x00\n        /* \"#utility.yul\":15918:15972   */\n      tag_685\n        /* \"#utility.yul\":15966:15971   */\n      dup3\n        /* \"#utility.yul\":15918:15972   */\n      tag_473\n      jump\t// in\n    tag_685:\n        /* \"#utility.yul\":15988:16074   */\n      tag_686\n        /* \"#utility.yul\":16067:16073   */\n      dup2\n        /* \"#utility.yul\":16062:16065   */\n      dup6\n        /* \"#utility.yul\":15988:16074   */\n      tag_474\n      jump\t// in\n    tag_686:\n        /* \"#utility.yul\":15981:16074   */\n      swap4\n      pop\n        /* \"#utility.yul\":16098:16154   */\n      tag_687\n        /* \"#utility.yul\":16148:16153   */\n      dup4\n        /* \"#utility.yul\":16098:16154   */\n      tag_475\n      jump\t// in\n    tag_687:\n        /* \"#utility.yul\":16177:16184   */\n      dup1\n        /* \"#utility.yul\":16208:16209   */\n      0x00\n        /* \"#utility.yul\":16193:16477   */\n    tag_688:\n        /* \"#utility.yul\":16218:16224   */\n      dup4\n        /* \"#utility.yul\":16215:16216   */\n      dup2\n        /* \"#utility.yul\":16212:16225   */\n      lt\n        /* \"#utility.yul\":16193:16477   */\n      iszero\n      tag_690\n      jumpi\n        /* \"#utility.yul\":16294:16300   */\n      dup2\n        /* \"#utility.yul\":16288:16301   */\n      mload\n        /* \"#utility.yul\":16321:16384   */\n      tag_691\n        /* \"#utility.yul\":16380:16383   */\n      dup9\n        /* \"#utility.yul\":16365:16378   */\n      dup3\n        /* \"#utility.yul\":16321:16384   */\n      tag_476\n      jump\t// in\n    tag_691:\n        /* \"#utility.yul\":16314:16384   */\n      swap8\n      pop\n        /* \"#utility.yul\":16407:16467   */\n      tag_692\n        /* \"#utility.yul\":16460:16466   */\n      dup4\n        /* \"#utility.yul\":16407:16467   */\n      tag_477\n      jump\t// in\n    tag_692:\n        /* \"#utility.yul\":16397:16467   */\n      swap3\n      pop\n        /* \"#utility.yul\":16253:16477   */\n      pop\n        /* \"#utility.yul\":16240:16241   */\n      0x01\n        /* \"#utility.yul\":16237:16238   */\n      dup2\n        /* \"#utility.yul\":16233:16242   */\n      add\n        /* \"#utility.yul\":16228:16242   */\n      swap1\n      pop\n        /* \"#utility.yul\":16193:16477   */\n      jump(tag_688)\n    tag_690:\n        /* \"#utility.yul\":16197:16211   */\n      pop\n        /* \"#utility.yul\":16493:16496   */\n      dup6\n        /* \"#utility.yul\":16486:16496   */\n      swap4\n      pop\n        /* \"#utility.yul\":15894:16502   */\n      pop\n      pop\n      pop\n        /* \"#utility.yul\":15770:16502   */\n      swap3\n      swap2\n      pop\n      pop\n      jump\t// out\n        /* \"#utility.yul\":16508:16881   */\n    tag_75:\n        /* \"#utility.yul\":16651:16655   */\n      0x00\n        /* \"#utility.yul\":16689:16691   */\n      0x20\n        /* \"#utility.yul\":16678:16687   */\n      dup3\n        /* \"#utility.yul\":16674:16692   */\n      add\n        /* \"#utility.yul\":16666:16692   */\n      swap1\n      pop\n        /* \"#utility.yul\":16738:16747   */\n      dup2\n        /* \"#utility.yul\":16732:16736   */\n      dup2\n        /* \"#utility.yul\":16728:16748   */\n      sub\n        /* \"#utility.yul\":16724:16725   */\n      0x00\n        /* \"#utility.yul\":16713:16722   */\n      dup4\n        /* \"#utility.yul\":16709:16726   */\n      add\n        /* \"#utility.yul\":16702:16749   */\n      mstore\n        /* \"#utility.yul\":16766:16874   */\n      tag_694\n        /* \"#utility.yul\":16869:16873   */\n      dup2\n        /* \"#utility.yul\":16860:16866   */\n      dup5\n        /* \"#utility.yul\":16766:16874   */\n      tag_478\n      jump\t// in\n    tag_694:\n        /* \"#utility.yul\":16758:16874   */\n      swap1\n      pop\n        /* \"#utility.yul\":16508:16881   */\n      swap3\n      swap2\n      pop\n      pop\n      jump\t// out\n        /* \"#utility.yul\":16887:16996   */\n    tag_479:\n        /* \"#utility.yul\":16968:16989   */\n      tag_696\n        /* \"#utility.yul\":16983:16988   */\n      dup2\n        /* \"#utility.yul\":16968:16989   */\n      tag_470\n      jump\t// in\n    tag_696:\n        /* \"#utility.yul\":16963:16966   */\n      dup3\n        /* \"#utility.yul\":16956:16990   */\n      mstore\n        /* \"#utility.yul\":16887:16996   */\n      pop\n      pop\n      jump\t// out\n        /* \"#utility.yul\":17002:17212   */\n    tag_84:\n        /* \"#utility.yul\":17089:17093   */\n      0x00\n        /* \"#utility.yul\":17127:17129   */\n      0x20\n        /* \"#utility.yul\":17116:17125   */\n      dup3\n        /* \"#utility.yul\":17112:17130   */\n      add\n        /* \"#utility.yul\":17104:17130   */\n      swap1\n      pop\n        /* \"#utility.yul\":17140:17205   */\n      tag_698\n        /* \"#utility.yul\":17202:17203   */\n      0x00\n        /* \"#utility.yul\":17191:17200   */\n      dup4\n        /* \"#utility.yul\":17187:17204   */\n      add\n        /* \"#utility.yul\":17178:17184   */\n      dup5\n        /* \"#utility.yul\":17140:17205   */\n      tag_479\n      jump\t// in\n    tag_698:\n        /* \"#utility.yul\":17002:17212   */\n      swap3\n      swap2\n      pop\n      pop\n      jump\t// out\n        /* \"#utility.yul\":17218:17361   */\n    tag_480:\n        /* \"#utility.yul\":17275:17280   */\n      0x00\n        /* \"#utility.yul\":17306:17312   */\n      dup2\n        /* \"#utility.yul\":17300:17313   */\n      mload\n        /* \"#utility.yul\":17291:17313   */\n      swap1\n      pop\n        /* \"#utility.yul\":17322:17355   */\n      tag_700\n        /* \"#utility.yul\":17349:17354   */\n      dup2\n        /* \"#utility.yul\":17322:17355   */\n      tag_454\n      jump\t// in\n    tag_700:\n        /* \"#utility.yul\":17218:17361   */\n      swap3\n      swap2\n      pop\n      pop\n      jump\t// out\n        /* \"#utility.yul\":17367:17718   */\n    tag_97:\n        /* \"#utility.yul\":17437:17443   */\n      0x00\n        /* \"#utility.yul\":17486:17488   */\n      0x20\n        /* \"#utility.yul\":17474:17483   */\n      dup3\n        /* \"#utility.yul\":17465:17472   */\n      dup5\n        /* \"#utility.yul\":17461:17484   */\n      sub\n        /* \"#utility.yul\":17457:17489   */\n      slt\n        /* \"#utility.yul\":17454:17573   */\n      iszero\n      tag_702\n      jumpi\n        /* \"#utility.yul\":17492:17571   */\n      tag_703\n      tag_444\n      jump\t// in\n    tag_703:\n        /* \"#utility.yul\":17454:17573   */\n    tag_702:\n        /* \"#utility.yul\":17612:17613   */\n      0x00\n        /* \"#utility.yul\":17637:17701   */\n      tag_704\n        /* \"#utility.yul\":17693:17700   */\n      dup5\n        /* \"#utility.yul\":17684:17690   */\n      dup3\n        /* \"#utility.yul\":17673:17682   */\n      dup6\n        /* \"#utility.yul\":17669:17691   */\n      add\n        /* \"#utility.yul\":17637:17701   */\n      tag_480\n      jump\t// in\n    tag_704:\n        /* \"#utility.yul\":17627:17701   */\n      swap2\n      pop\n        /* \"#utility.yul\":17583:17711   */\n      pop\n        /* \"#utility.yul\":17367:17718   */\n      swap3\n      swap2\n      pop\n      pop\n      jump\t// out\n        /* \"#utility.yul\":17724:17892   */\n    tag_481:\n        /* \"#utility.yul\":17864:17884   */\n      0x50656e73696f6e2041646d696e204f6e6c790000000000000000000000000000\n        /* \"#utility.yul\":17860:17861   */\n      0x00\n        /* \"#utility.yul\":17852:17858   */\n      dup3\n        /* \"#utility.yul\":17848:17862   */\n      add\n        /* \"#utility.yul\":17841:17885   */\n      mstore\n        /* \"#utility.yul\":17724:17892   */\n      pop\n      jump\t// out\n        /* \"#utility.yul\":17898:18264   */\n    tag_482:\n        /* \"#utility.yul\":18040:18043   */\n      0x00\n        /* \"#utility.yul\":18061:18128   */\n      tag_707\n        /* \"#utility.yul\":18125:18127   */\n      0x12\n        /* \"#utility.yul\":18120:18123   */\n      dup4\n        /* \"#utility.yul\":18061:18128   */\n      tag_439\n      jump\t// in\n    tag_707:\n        /* \"#utility.yul\":18054:18128   */\n      swap2\n      pop\n        /* \"#utility.yul\":18137:18230   */\n      tag_708\n        /* \"#utility.yul\":18226:18229   */\n      dup3\n        /* \"#utility.yul\":18137:18230   */\n      tag_481\n      jump\t// in\n    tag_708:\n        /* \"#utility.yul\":18255:18257   */\n      0x20\n        /* \"#utility.yul\":18250:18253   */\n      dup3\n        /* \"#utility.yul\":18246:18258   */\n      add\n        /* \"#utility.yul\":18239:18258   */\n      swap1\n      pop\n        /* \"#utility.yul\":17898:18264   */\n      swap2\n      swap1\n      pop\n      jump\t// out\n        /* \"#utility.yul\":18270:18689   */\n    tag_100:\n        /* \"#utility.yul\":18436:18440   */\n      0x00\n        /* \"#utility.yul\":18474:18476   */\n      0x20\n        /* \"#utility.yul\":18463:18472   */\n      dup3\n        /* \"#utility.yul\":18459:18477   */\n      add\n        /* \"#utility.yul\":18451:18477   */\n      swap1\n      pop\n        /* \"#utility.yul\":18523:18532   */\n      dup2\n        /* \"#utility.yul\":18517:18521   */\n      dup2\n        /* \"#utility.yul\":18513:18533   */\n      sub\n        /* \"#utility.yul\":18509:18510   */\n      0x00\n        /* \"#utility.yul\":18498:18507   */\n      dup4\n        /* \"#utility.yul\":18494:18511   */\n      add\n        /* \"#utility.yul\":18487:18534   */\n      mstore\n        /* \"#utility.yul\":18551:18682   */\n      tag_710\n        /* \"#utility.yul\":18677:18681   */\n      dup2\n        /* \"#utility.yul\":18551:18682   */\n      tag_482\n      jump\t// in\n    tag_710:\n        /* \"#utility.yul\":18543:18682   */\n      swap1\n      pop\n        /* \"#utility.yul\":18270:18689   */\n      swap2\n      swap1\n      pop\n      jump\t// out\n        /* \"#utility.yul\":18695:18857   */\n    tag_483:\n        /* \"#utility.yul\":18835:18849   */\n      0x7661756c74206c6f636b65640000000000000000000000000000000000000000\n        /* \"#utility.yul\":18831:18832   */\n      0x00\n        /* \"#utility.yul\":18823:18829   */\n      dup3\n        /* \"#utility.yul\":18819:18833   */\n      add\n        /* \"#utility.yul\":18812:18850   */\n      mstore\n        /* \"#utility.yul\":18695:18857   */\n      pop\n      jump\t// out\n        /* \"#utility.yul\":18863:19229   */\n    tag_484:\n        /* \"#utility.yul\":19005:19008   */\n      0x00\n        /* \"#utility.yul\":19026:19093   */\n      tag_713\n        /* \"#utility.yul\":19090:19092   */\n      0x0c\n        /* \"#utility.yul\":19085:19088   */\n      dup4\n        /* \"#utility.yul\":19026:19093   */\n      tag_439\n      jump\t// in\n    tag_713:\n        /* \"#utility.yul\":19019:19093   */\n      swap2\n      pop\n        /* \"#utility.yul\":19102:19195   */\n      tag_714\n        /* \"#utility.yul\":19191:19194   */\n      dup3\n        /* \"#utility.yul\":19102:19195   */\n      tag_483\n      jump\t// in\n    tag_714:\n        /* \"#utility.yul\":19220:19222   */\n      0x20\n        /* \"#utility.yul\":19215:19218   */\n      dup3\n        /* \"#utility.yul\":19211:19223   */\n      add\n        /* \"#utility.yul\":19204:19223   */\n      swap1\n      pop\n        /* \"#utility.yul\":18863:19229   */\n      swap2\n      swap1\n      pop\n      jump\t// out\n        /* \"#utility.yul\":19235:19654   */\n    tag_104:\n        /* \"#utility.yul\":19401:19405   */\n      0x00\n        /* \"#utility.yul\":19439:19441   */\n      0x20\n        /* \"#utility.yul\":19428:19437   */\n      dup3\n        /* \"#utility.yul\":19424:19442   */\n      add\n        /* \"#utility.yul\":19416:19442   */\n      swap1\n      pop\n        /* \"#utility.yul\":19488:19497   */\n      dup2\n        /* \"#utility.yul\":19482:19486   */\n      dup2\n        /* \"#utility.yul\":19478:19498   */\n      sub\n        /* \"#utility.yul\":19474:19475   */\n      0x00\n        /* \"#utility.yul\":19463:19472   */\n      dup4\n        /* \"#utility.yul\":19459:19476   */\n      add\n        /* \"#utility.yul\":19452:19499   */\n      mstore\n        /* \"#utility.yul\":19516:19647   */\n      tag_716\n        /* \"#utility.yul\":19642:19646   */\n      dup2\n        /* \"#utility.yul\":19516:19647   */\n      tag_484\n      jump\t// in\n    tag_716:\n        /* \"#utility.yul\":19508:19647   */\n      swap1\n      pop\n        /* \"#utility.yul\":19235:19654   */\n      swap2\n      swap1\n      pop\n      jump\t// out\n        /* \"#utility.yul\":19660:19822   */\n    tag_485:\n        /* \"#utility.yul\":19800:19814   */\n      0x7661756c7420636c6f7365640000000000000000000000000000000000000000\n        /* \"#utility.yul\":19796:19797   */\n      0x00\n        /* \"#utility.yul\":19788:19794   */\n      dup3\n        /* \"#utility.yul\":19784:19798   */\n      add\n        /* \"#utility.yul\":19777:19815   */\n      mstore\n        /* \"#utility.yul\":19660:19822   */\n      pop\n      jump\t// out\n        /* \"#utility.yul\":19828:20194   */\n    tag_486:\n        /* \"#utility.yul\":19970:19973   */\n      0x00\n        /* \"#utility.yul\":19991:20058   */\n      tag_719\n        /* \"#utility.yul\":20055:20057   */\n      0x0c\n        /* \"#utility.yul\":20050:20053   */\n      dup4\n        /* \"#utility.yul\":19991:20058   */\n      tag_439\n      jump\t// in\n    tag_719:\n        /* \"#utility.yul\":19984:20058   */\n      swap2\n      pop\n        /* \"#utility.yul\":20067:20160   */\n      tag_720\n        /* \"#utility.yul\":20156:20159   */\n      dup3\n        /* \"#utility.yul\":20067:20160   */\n      tag_485\n      jump\t// in\n    tag_720:\n        /* \"#utility.yul\":20185:20187   */\n      0x20\n        /* \"#utility.yul\":20180:20183   */\n      dup3\n        /* \"#utility.yul\":20176:20188   */\n      add\n        /* \"#utility.yul\":20169:20188   */\n      swap1\n      pop\n        /* \"#utility.yul\":19828:20194   */\n      swap2\n      swap1\n      pop\n      jump\t// out\n        /* \"#utility.yul\":20200:20619   */\n    tag_112:\n        /* \"#utility.yul\":20366:20370   */\n      0x00\n        /* \"#utility.yul\":20404:20406   */\n      0x20\n        /* \"#utility.yul\":20393:20402   */\n      dup3\n        /* \"#utility.yul\":20389:20407   */\n      add\n        /* \"#utility.yul\":20381:20407   */\n      swap1\n      pop\n        /* \"#utility.yul\":20453:20462   */\n      dup2\n        /* \"#utility.yul\":20447:20451   */\n      dup2\n        /* \"#utility.yul\":20443:20463   */\n      sub\n        /* \"#utility.yul\":20439:20440   */\n      0x00\n        /* \"#utility.yul\":20428:20437   */\n      dup4\n        /* \"#utility.yul\":20424:20441   */\n      add\n        /* \"#utility.yul\":20417:20464   */\n      mstore\n        /* \"#utility.yul\":20481:20612   */\n      tag_722\n        /* \"#utility.yul\":20607:20611   */\n      dup2\n        /* \"#utility.yul\":20481:20612   */\n      tag_486\n      jump\t// in\n    tag_722:\n        /* \"#utility.yul\":20473:20612   */\n      swap1\n      pop\n        /* \"#utility.yul\":20200:20619   */\n      swap2\n      swap1\n      pop\n      jump\t// out\n        /* \"#utility.yul\":20625:20789   */\n    tag_487:\n        /* \"#utility.yul\":20765:20781   */\n      0x70656e73696f6e20636c6f736564000000000000000000000000000000000000\n        /* \"#utility.yul\":20761:20762   */\n      0x00\n        /* \"#utility.yul\":20753:20759   */\n      dup3\n        /* \"#utility.yul\":20749:20763   */\n      add\n        /* \"#utility.yul\":20742:20782   */\n      mstore\n        /* \"#utility.yul\":20625:20789   */\n      pop\n      jump\t// out\n        /* \"#utility.yul\":20795:21161   */\n    tag_488:\n        /* \"#utility.yul\":20937:20940   */\n      0x00\n        /* \"#utility.yul\":20958:21025   */\n      tag_725\n        /* \"#utility.yul\":21022:21024   */\n      0x0e\n        /* \"#utility.yul\":21017:21020   */\n      dup4\n        /* \"#utility.yul\":20958:21025   */\n      tag_439\n      jump\t// in\n    tag_725:\n        /* \"#utility.yul\":20951:21025   */\n      swap2\n      pop\n        /* \"#utility.yul\":21034:21127   */\n      tag_726\n        /* \"#utility.yul\":21123:21126   */\n      dup3\n        /* \"#utility.yul\":21034:21127   */\n      tag_487\n      jump\t// in\n    tag_726:\n        /* \"#utility.yul\":21152:21154   */\n      0x20\n        /* \"#utility.yul\":21147:21150   */\n      dup3\n        /* \"#utility.yul\":21143:21155   */\n      add\n        /* \"#utility.yul\":21136:21155   */\n      swap1\n      pop\n        /* \"#utility.yul\":20795:21161   */\n      swap2\n      swap1\n      pop\n      jump\t// out\n        /* \"#utility.yul\":21167:21586   */\n    tag_122:\n        /* \"#utility.yul\":21333:21337   */\n      0x00\n        /* \"#utility.yul\":21371:21373   */\n      0x20\n        /* \"#utility.yul\":21360:21369   */\n      dup3\n        /* \"#utility.yul\":21356:21374   */\n      add\n        /* \"#utility.yul\":21348:21374   */\n      swap1\n      pop\n        /* \"#utility.yul\":21420:21429   */\n      dup2\n        /* \"#utility.yul\":21414:21418   */\n      dup2\n        /* \"#utility.yul\":21410:21430   */\n      sub\n        /* \"#utility.yul\":21406:21407   */\n      0x00\n        /* \"#utility.yul\":21395:21404   */\n      dup4\n        /* \"#utility.yul\":21391:21408   */\n      add\n        /* \"#utility.yul\":21384:21431   */\n      mstore\n        /* \"#utility.yul\":21448:21579   */\n      tag_728\n        /* \"#utility.yul\":21574:21578   */\n      dup2\n        /* \"#utility.yul\":21448:21579   */\n      tag_488\n      jump\t// in\n    tag_728:\n        /* \"#utility.yul\":21440:21579   */\n      swap1\n      pop\n        /* \"#utility.yul\":21167:21586   */\n      swap2\n      swap1\n      pop\n      jump\t// out\n        /* \"#utility.yul\":21592:21761   */\n    tag_489:\n        /* \"#utility.yul\":21732:21753   */\n      0x70656e73696f6e20696e20747265617375727900000000000000000000000000\n        /* \"#utility.yul\":21728:21729   */\n      0x00\n        /* \"#utility.yul\":21720:21726   */\n      dup3\n        /* \"#utility.yul\":21716:21730   */\n      add\n        /* \"#utility.yul\":21709:21754   */\n      mstore\n        /* \"#utility.yul\":21592:21761   */\n      pop\n      jump\t// out\n        /* \"#utility.yul\":21767:22133   */\n    tag_490:\n        /* \"#utility.yul\":21909:21912   */\n      0x00\n        /* \"#utility.yul\":21930:21997   */\n      tag_731\n        /* \"#utility.yul\":21994:21996   */\n      0x13\n        /* \"#utility.yul\":21989:21992   */\n      dup4\n        /* \"#utility.yul\":21930:21997   */\n      tag_439\n      jump\t// in\n    tag_731:\n        /* \"#utility.yul\":21923:21997   */\n      swap2\n      pop\n        /* \"#utility.yul\":22006:22099   */\n      tag_732\n        /* \"#utility.yul\":22095:22098   */\n      dup3\n        /* \"#utility.yul\":22006:22099   */\n      tag_489\n      jump\t// in\n    tag_732:\n        /* \"#utility.yul\":22124:22126   */\n      0x20\n        /* \"#utility.yul\":22119:22122   */\n      dup3\n        /* \"#utility.yul\":22115:22127   */\n      add\n        /* \"#utility.yul\":22108:22127   */\n      swap1\n      pop\n        /* \"#utility.yul\":21767:22133   */\n      swap2\n      swap1\n      pop\n      jump\t// out\n        /* \"#utility.yul\":22139:22558   */\n    tag_125:\n        /* \"#utility.yul\":22305:22309   */\n      0x00\n        /* \"#utility.yul\":22343:22345   */\n      0x20\n        /* \"#utility.yul\":22332:22341   */\n      dup3\n        /* \"#utility.yul\":22328:22346   */\n      add\n        /* \"#utility.yul\":22320:22346   */\n      swap1\n      pop\n        /* \"#utility.yul\":22392:22401   */\n      dup2\n        /* \"#utility.yul\":22386:22390   */\n      dup2\n        /* \"#utility.yul\":22382:22402   */\n      sub\n        /* \"#utility.yul\":22378:22379   */\n      0x00\n        /* \"#utility.yul\":22367:22376   */\n      dup4\n        /* \"#utility.yul\":22363:22380   */\n      add\n        /* \"#utility.yul\":22356:22403   */\n      mstore\n        /* \"#utility.yul\":22420:22551   */\n      tag_734\n        /* \"#utility.yul\":22546:22550   */\n      dup2\n        /* \"#utility.yul\":22420:22551   */\n      tag_490\n      jump\t// in\n    tag_734:\n        /* \"#utility.yul\":22412:22551   */\n      swap1\n      pop\n        /* \"#utility.yul\":22139:22558   */\n      swap2\n      swap1\n      pop\n      jump\t// out\n        /* \"#utility.yul\":22564:22682   */\n    tag_491:\n        /* \"#utility.yul\":22651:22675   */\n      tag_736\n        /* \"#utility.yul\":22669:22674   */\n      dup2\n        /* \"#utility.yul\":22651:22675   */\n      tag_453\n      jump\t// in\n    tag_736:\n        /* \"#utility.yul\":22646:22649   */\n      dup3\n        /* \"#utility.yul\":22639:22676   */\n      mstore\n        /* \"#utility.yul\":22564:22682   */\n      pop\n      pop\n      jump\t// out\n        /* \"#utility.yul\":22688:22910   */\n    tag_133:\n        /* \"#utility.yul\":22781:22785   */\n      0x00\n        /* \"#utility.yul\":22819:22821   */\n      0x20\n        /* \"#utility.yul\":22808:22817   */\n      dup3\n        /* \"#utility.yul\":22804:22822   */\n      add\n        /* \"#utility.yul\":22796:22822   */\n      swap1\n      pop\n        /* \"#utility.yul\":22832:22903   */\n      tag_738\n        /* \"#utility.yul\":22900:22901   */\n      0x00\n        /* \"#utility.yul\":22889:22898   */\n      dup4\n        /* \"#utility.yul\":22885:22902   */\n      add\n        /* \"#utility.yul\":22876:22882   */\n      dup5\n        /* \"#utility.yul\":22832:22903   */\n      tag_491\n      jump\t// in\n    tag_738:\n        /* \"#utility.yul\":22688:22910   */\n      swap3\n      swap2\n      pop\n      pop\n      jump\t// out\n        /* \"#utility.yul\":22916:23059   */\n    tag_492:\n        /* \"#utility.yul\":22973:22978   */\n      0x00\n        /* \"#utility.yul\":23004:23010   */\n      dup2\n        /* \"#utility.yul\":22998:23011   */\n      mload\n        /* \"#utility.yul\":22989:23011   */\n      swap1\n      pop\n        /* \"#utility.yul\":23020:23053   */\n      tag_740\n        /* \"#utility.yul\":23047:23052   */\n      dup2\n        /* \"#utility.yul\":23020:23053   */\n      tag_446\n      jump\t// in\n    tag_740:\n        /* \"#utility.yul\":22916:23059   */\n      swap3\n      swap2\n      pop\n      pop\n      jump\t// out\n        /* \"#utility.yul\":23065:23416   */\n    tag_137:\n        /* \"#utility.yul\":23135:23141   */\n      0x00\n        /* \"#utility.yul\":23184:23186   */\n      0x20\n        /* \"#utility.yul\":23172:23181   */\n      dup3\n        /* \"#utility.yul\":23163:23170   */\n      dup5\n        /* \"#utility.yul\":23159:23182   */\n      sub\n        /* \"#utility.yul\":23155:23187   */\n      slt\n        /* \"#utility.yul\":23152:23271   */\n      iszero\n      tag_742\n      jumpi\n        /* \"#utility.yul\":23190:23269   */\n      tag_743\n      tag_444\n      jump\t// in\n    tag_743:\n        /* \"#utility.yul\":23152:23271   */\n    tag_742:\n        /* \"#utility.yul\":23310:23311   */\n      0x00\n        /* \"#utility.yul\":23335:23399   */\n      tag_744\n        /* \"#utility.yul\":23391:23398   */\n      dup5\n        /* \"#utility.yul\":23382:23388   */\n      dup3\n        /* \"#utility.yul\":23371:23380   */\n      dup6\n        /* \"#utility.yul\":23367:23389   */\n      add\n        /* \"#utility.yul\":23335:23399   */\n      tag_492\n      jump\t// in\n    tag_744:\n        /* \"#utility.yul\":23325:23399   */\n      swap2\n      pop\n        /* \"#utility.yul\":23281:23409   */\n      pop\n        /* \"#utility.yul\":23065:23416   */\n      swap3\n      swap2\n      pop\n      pop\n      jump\t// out\n        /* \"#utility.yul\":23422:23754   */\n    tag_139:\n        /* \"#utility.yul\":23543:23547   */\n      0x00\n        /* \"#utility.yul\":23581:23583   */\n      0x40\n        /* \"#utility.yul\":23570:23579   */\n      dup3\n        /* \"#utility.yul\":23566:23584   */\n      add\n        /* \"#utility.yul\":23558:23584   */\n      swap1\n      pop\n        /* \"#utility.yul\":23594:23665   */\n      tag_746\n        /* \"#utility.yul\":23662:23663   */\n      0x00\n        /* \"#utility.yul\":23651:23660   */\n      dup4\n        /* \"#utility.yul\":23647:23664   */\n      add\n        /* \"#utility.yul\":23638:23644   */\n      dup6\n        /* \"#utility.yul\":23594:23665   */\n      tag_491\n      jump\t// in\n    tag_746:\n        /* \"#utility.yul\":23675:23747   */\n      tag_747\n        /* \"#utility.yul\":23743:23745   */\n      0x20\n        /* \"#utility.yul\":23732:23741   */\n      dup4\n        /* \"#utility.yul\":23728:23746   */\n      add\n        /* \"#utility.yul\":23719:23725   */\n      dup5\n        /* \"#utility.yul\":23675:23747   */\n      tag_437\n      jump\t// in\n    tag_747:\n        /* \"#utility.yul\":23422:23754   */\n      swap4\n      swap3\n      pop\n      pop\n      pop\n      jump\t// out\n        /* \"#utility.yul\":23760:23876   */\n    tag_493:\n        /* \"#utility.yul\":23830:23851   */\n      tag_749\n        /* \"#utility.yul\":23845:23850   */\n      dup2\n        /* \"#utility.yul\":23830:23851   */\n      tag_470\n      jump\t// in\n    tag_749:\n        /* \"#utility.yul\":23823:23828   */\n      dup2\n        /* \"#utility.yul\":23820:23852   */\n      eq\n        /* \"#utility.yul\":23810:23870   */\n      tag_750\n      jumpi\n        /* \"#utility.yul\":23866:23867   */\n      0x00\n        /* \"#utility.yul\":23863:23864   */\n      0x00\n        /* \"#utility.yul\":23856:23868   */\n      revert\n        /* \"#utility.yul\":23810:23870   */\n    tag_750:\n        /* \"#utility.yul\":23760:23876   */\n      pop\n      jump\t// out\n        /* \"#utility.yul\":23882:24019   */\n    tag_494:\n        /* \"#utility.yul\":23936:23941   */\n      0x00\n        /* \"#utility.yul\":23967:23973   */\n      dup2\n        /* \"#utility.yul\":23961:23974   */\n      mload\n        /* \"#utility.yul\":23952:23974   */\n      swap1\n      pop\n        /* \"#utility.yul\":23983:24013   */\n      tag_752\n        /* \"#utility.yul\":24007:24012   */\n      dup2\n        /* \"#utility.yul\":23983:24013   */\n      tag_493\n      jump\t// in\n    tag_752:\n        /* \"#utility.yul\":23882:24019   */\n      swap3\n      swap2\n      pop\n      pop\n      jump\t// out\n        /* \"#utility.yul\":24025:24370   */\n    tag_143:\n        /* \"#utility.yul\":24092:24098   */\n      0x00\n        /* \"#utility.yul\":24141:24143   */\n      0x20\n        /* \"#utility.yul\":24129:24138   */\n      dup3\n        /* \"#utility.yul\":24120:24127   */\n      dup5\n        /* \"#utility.yul\":24116:24139   */\n      sub\n        /* \"#utility.yul\":24112:24144   */\n      slt\n        /* \"#utility.yul\":24109:24228   */\n      iszero\n      tag_754\n      jumpi\n        /* \"#utility.yul\":24147:24226   */\n      tag_755\n      tag_444\n      jump\t// in\n    tag_755:\n        /* \"#utility.yul\":24109:24228   */\n    tag_754:\n        /* \"#utility.yul\":24267:24268   */\n      0x00\n        /* \"#utility.yul\":24292:24353   */\n      tag_756\n        /* \"#utility.yul\":24345:24352   */\n      dup5\n        /* \"#utility.yul\":24336:24342   */\n      dup3\n        /* \"#utility.yul\":24325:24334   */\n      dup6\n        /* \"#utility.yul\":24321:24343   */\n      add\n        /* \"#utility.yul\":24292:24353   */\n      tag_494\n      jump\t// in\n    tag_756:\n        /* \"#utility.yul\":24282:24353   */\n      swap2\n      pop\n        /* \"#utility.yul\":24238:24363   */\n      pop\n        /* \"#utility.yul\":24025:24370   */\n      swap3\n      swap2\n      pop\n      pop\n      jump\t// out\n        /* \"#utility.yul\":24376:24539   */\n    tag_495:\n        /* \"#utility.yul\":24516:24531   */\n      0x5472656173757279204f6e6c7900000000000000000000000000000000000000\n        /* \"#utility.yul\":24512:24513   */\n      0x00\n        /* \"#utility.yul\":24504:24510   */\n      dup3\n        /* \"#utility.yul\":24500:24514   */\n      add\n        /* \"#utility.yul\":24493:24532   */\n      mstore\n        /* \"#utility.yul\":24376:24539   */\n      pop\n      jump\t// out\n        /* \"#utility.yul\":24545:24911   */\n    tag_496:\n        /* \"#utility.yul\":24687:24690   */\n      0x00\n        /* \"#utility.yul\":24708:24775   */\n      tag_759\n        /* \"#utility.yul\":24772:24774   */\n      0x0d\n        /* \"#utility.yul\":24767:24770   */\n      dup4\n        /* \"#utility.yul\":24708:24775   */\n      tag_439\n      jump\t// in\n    tag_759:\n        /* \"#utility.yul\":24701:24775   */\n      swap2\n      pop\n        /* \"#utility.yul\":24784:24877   */\n      tag_760\n        /* \"#utility.yul\":24873:24876   */\n      dup3\n        /* \"#utility.yul\":24784:24877   */\n      tag_495\n      jump\t// in\n    tag_760:\n        /* \"#utility.yul\":24902:24904   */\n      0x20\n        /* \"#utility.yul\":24897:24900   */\n      dup3\n        /* \"#utility.yul\":24893:24905   */\n      add\n        /* \"#utility.yul\":24886:24905   */\n      swap1\n      pop\n        /* \"#utility.yul\":24545:24911   */\n      swap2\n      swap1\n      pop\n      jump\t// out\n        /* \"#utility.yul\":24917:25336   */\n    tag_162:\n        /* \"#utility.yul\":25083:25087   */\n      0x00\n        /* \"#utility.yul\":25121:25123   */\n      0x20\n        /* \"#utility.yul\":25110:25119   */\n      dup3\n        /* \"#utility.yul\":25106:25124   */\n      add\n        /* \"#utility.yul\":25098:25124   */\n      swap1\n      pop\n        /* \"#utility.yul\":25170:25179   */\n      dup2\n        /* \"#utility.yul\":25164:25168   */\n      dup2\n        /* \"#utility.yul\":25160:25180   */\n      sub\n        /* \"#utility.yul\":25156:25157   */\n      0x00\n        /* \"#utility.yul\":25145:25154   */\n      dup4\n        /* \"#utility.yul\":25141:25158   */\n      add\n        /* \"#utility.yul\":25134:25181   */\n      mstore\n        /* \"#utility.yul\":25198:25329   */\n      tag_762\n        /* \"#utility.yul\":25324:25328   */\n      dup2\n        /* \"#utility.yul\":25198:25329   */\n      tag_496\n      jump\t// in\n    tag_762:\n        /* \"#utility.yul\":25190:25329   */\n      swap1\n      pop\n        /* \"#utility.yul\":24917:25336   */\n      swap2\n      swap1\n      pop\n      jump\t// out\n        /* \"#utility.yul\":25342:25518   */\n    tag_497:\n        /* \"#utility.yul\":25482:25510   */\n      0x696e76616c69642070656e73696f6e2070756c6c207374617465000000000000\n        /* \"#utility.yul\":25478:25479   */\n      0x00\n        /* \"#utility.yul\":25470:25476   */\n      dup3\n        /* \"#utility.yul\":25466:25480   */\n      add\n        /* \"#utility.yul\":25459:25511   */\n      mstore\n        /* \"#utility.yul\":25342:25518   */\n      pop\n      jump\t// out\n        /* \"#utility.yul\":25524:25890   */\n    tag_498:\n        /* \"#utility.yul\":25666:25669   */\n      0x00\n        /* \"#utility.yul\":25687:25754   */\n      tag_765\n        /* \"#utility.yul\":25751:25753   */\n      0x1a\n        /* \"#utility.yul\":25746:25749   */\n      dup4\n        /* \"#utility.yul\":25687:25754   */\n      tag_439\n      jump\t// in\n    tag_765:\n        /* \"#utility.yul\":25680:25754   */\n      swap2\n      pop\n        /* \"#utility.yul\":25763:25856   */\n      tag_766\n        /* \"#utility.yul\":25852:25855   */\n      dup3\n        /* \"#utility.yul\":25763:25856   */\n      tag_497\n      jump\t// in\n    tag_766:\n        /* \"#utility.yul\":25881:25883   */\n      0x20\n        /* \"#utility.yul\":25876:25879   */\n      dup3\n        /* \"#utility.yul\":25872:25884   */\n      add\n        /* \"#utility.yul\":25865:25884   */\n      swap1\n      pop\n        /* \"#utility.yul\":25524:25890   */\n      swap2\n      swap1\n      pop\n      jump\t// out\n        /* \"#utility.yul\":25896:26315   */\n    tag_171:\n        /* \"#utility.yul\":26062:26066   */\n      0x00\n        /* \"#utility.yul\":26100:26102   */\n      0x20\n        /* \"#utility.yul\":26089:26098   */\n      dup3\n        /* \"#utility.yul\":26085:26103   */\n      add\n        /* \"#utility.yul\":26077:26103   */\n      swap1\n      pop\n        /* \"#utility.yul\":26149:26158   */\n      dup2\n        /* \"#utility.yul\":26143:26147   */\n      dup2\n        /* \"#utility.yul\":26139:26159   */\n      sub\n        /* \"#utility.yul\":26135:26136   */\n      0x00\n        /* \"#utility.yul\":26124:26133   */\n      dup4\n        /* \"#utility.yul\":26120:26137   */\n      add\n        /* \"#utility.yul\":26113:26160   */\n      mstore\n        /* \"#utility.yul\":26177:26308   */\n      tag_768\n        /* \"#utility.yul\":26303:26307   */\n      dup2\n        /* \"#utility.yul\":26177:26308   */\n      tag_498\n      jump\t// in\n    tag_768:\n        /* \"#utility.yul\":26169:26308   */\n      swap1\n      pop\n        /* \"#utility.yul\":25896:26315   */\n      swap2\n      swap1\n      pop\n      jump\t// out\n        /* \"#utility.yul\":26321:26491   */\n    tag_499:\n        /* \"#utility.yul\":26461:26483   */\n      0x7661756c7420616c72656164792070756c6c6564000000000000000000000000\n        /* \"#utility.yul\":26457:26458   */\n      0x00\n        /* \"#utility.yul\":26449:26455   */\n      dup3\n        /* \"#utility.yul\":26445:26459   */\n      add\n        /* \"#utility.yul\":26438:26484   */\n      mstore\n        /* \"#utility.yul\":26321:26491   */\n      pop\n      jump\t// out\n        /* \"#utility.yul\":26497:26863   */\n    tag_500:\n        /* \"#utility.yul\":26639:26642   */\n      0x00\n        /* \"#utility.yul\":26660:26727   */\n      tag_771\n        /* \"#utility.yul\":26724:26726   */\n      0x14\n        /* \"#utility.yul\":26719:26722   */\n      dup4\n        /* \"#utility.yul\":26660:26727   */\n      tag_439\n      jump\t// in\n    tag_771:\n        /* \"#utility.yul\":26653:26727   */\n      swap2\n      pop\n        /* \"#utility.yul\":26736:26829   */\n      tag_772\n        /* \"#utility.yul\":26825:26828   */\n      dup3\n        /* \"#utility.yul\":26736:26829   */\n      tag_499\n      jump\t// in\n    tag_772:\n        /* \"#utility.yul\":26854:26856   */\n      0x20\n        /* \"#utility.yul\":26849:26852   */\n      dup3\n        /* \"#utility.yul\":26845:26857   */\n      add\n        /* \"#utility.yul\":26838:26857   */\n      swap1\n      pop\n        /* \"#utility.yul\":26497:26863   */\n      swap2\n      swap1\n      pop\n      jump\t// out\n        /* \"#utility.yul\":26869:27288   */\n    tag_174:\n        /* \"#utility.yul\":27035:27039   */\n      0x00\n        /* \"#utility.yul\":27073:27075   */\n      0x20\n        /* \"#utility.yul\":27062:27071   */\n      dup3\n        /* \"#utility.yul\":27058:27076   */\n      add\n        /* \"#utility.yul\":27050:27076   */\n      swap1\n      pop\n        /* \"#utility.yul\":27122:27131   */\n      dup2\n        /* \"#utility.yul\":27116:27120   */\n      dup2\n        /* \"#utility.yul\":27112:27132   */\n      sub\n        /* \"#utility.yul\":27108:27109   */\n      0x00\n        /* \"#utility.yul\":27097:27106   */\n      dup4\n        /* \"#utility.yul\":27093:27110   */\n      add\n        /* \"#utility.yul\":27086:27133   */\n      mstore\n        /* \"#utility.yul\":27150:27281   */\n      tag_774\n        /* \"#utility.yul\":27276:27280   */\n      dup2\n        /* \"#utility.yul\":27150:27281   */\n      tag_500\n      jump\t// in\n    tag_774:\n        /* \"#utility.yul\":27142:27281   */\n      swap1\n      pop\n        /* \"#utility.yul\":26869:27288   */\n      swap2\n      swap1\n      pop\n      jump\t// out\n        /* \"#utility.yul\":27294:27462   */\n    tag_501:\n        /* \"#utility.yul\":27434:27454   */\n      0x70656e73696f6e206e6f7420636c6f7365640000000000000000000000000000\n        /* \"#utility.yul\":27430:27431   */\n      0x00\n        /* \"#utility.yul\":27422:27428   */\n      dup3\n        /* \"#utility.yul\":27418:27432   */\n      add\n        /* \"#utility.yul\":27411:27455   */\n      mstore\n        /* \"#utility.yul\":27294:27462   */\n      pop\n      jump\t// out\n        /* \"#utility.yul\":27468:27834   */\n    tag_502:\n        /* \"#utility.yul\":27610:27613   */\n      0x00\n        /* \"#utility.yul\":27631:27698   */\n      tag_777\n        /* \"#utility.yul\":27695:27697   */\n      0x12\n        /* \"#utility.yul\":27690:27693   */\n      dup4\n        /* \"#utility.yul\":27631:27698   */\n      tag_439\n      jump\t// in\n    tag_777:\n        /* \"#utility.yul\":27624:27698   */\n      swap2\n      pop\n        /* \"#utility.yul\":27707:27800   */\n      tag_778\n        /* \"#utility.yul\":27796:27799   */\n      dup3\n        /* \"#utility.yul\":27707:27800   */\n      tag_501\n      jump\t// in\n    tag_778:\n        /* \"#utility.yul\":27825:27827   */\n      0x20\n        /* \"#utility.yul\":27820:27823   */\n      dup3\n        /* \"#utility.yul\":27816:27828   */\n      add\n        /* \"#utility.yul\":27809:27828   */\n      swap1\n      pop\n        /* \"#utility.yul\":27468:27834   */\n      swap2\n      swap1\n      pop\n      jump\t// out\n        /* \"#utility.yul\":27840:28259   */\n    tag_200:\n        /* \"#utility.yul\":28006:28010   */\n      0x00\n        /* \"#utility.yul\":28044:28046   */\n      0x20\n        /* \"#utility.yul\":28033:28042   */\n      dup3\n        /* \"#utility.yul\":28029:28047   */\n      add\n        /* \"#utility.yul\":28021:28047   */\n      swap1\n      pop\n        /* \"#utility.yul\":28093:28102   */\n      dup2\n        /* \"#utility.yul\":28087:28091   */\n      dup2\n        /* \"#utility.yul\":28083:28103   */\n      sub\n        /* \"#utility.yul\":28079:28080   */\n      0x00\n        /* \"#utility.yul\":28068:28077   */\n      dup4\n        /* \"#utility.yul\":28064:28081   */\n      add\n        /* \"#utility.yul\":28057:28104   */\n      mstore\n        /* \"#utility.yul\":28121:28252   */\n      tag_780\n        /* \"#utility.yul\":28247:28251   */\n      dup2\n        /* \"#utility.yul\":28121:28252   */\n      tag_502\n      jump\t// in\n    tag_780:\n        /* \"#utility.yul\":28113:28252   */\n      swap1\n      pop\n        /* \"#utility.yul\":27840:28259   */\n      swap2\n      swap1\n      pop\n      jump\t// out\n        /* \"#utility.yul\":28265:28446   */\n    tag_503:\n        /* \"#utility.yul\":28405:28438   */\n      0x696e73756666696369656e74207072696e636970616c2072657475726e656400\n        /* \"#utility.yul\":28401:28402   */\n      0x00\n        /* \"#utility.yul\":28393:28399   */\n      dup3\n        /* \"#utility.yul\":28389:28403   */\n      add\n        /* \"#utility.yul\":28382:28439   */\n      mstore\n        /* \"#utility.yul\":28265:28446   */\n      pop\n      jump\t// out\n        /* \"#utility.yul\":28452:28818   */\n    tag_504:\n        /* \"#utility.yul\":28594:28597   */\n      0x00\n        /* \"#utility.yul\":28615:28682   */\n      tag_783\n        /* \"#utility.yul\":28679:28681   */\n      0x1f\n        /* \"#utility.yul\":28674:28677   */\n      dup4\n        /* \"#utility.yul\":28615:28682   */\n      tag_439\n      jump\t// in\n    tag_783:\n        /* \"#utility.yul\":28608:28682   */\n      swap2\n      pop\n        /* \"#utility.yul\":28691:28784   */\n      tag_784\n        /* \"#utility.yul\":28780:28783   */\n      dup3\n        /* \"#utility.yul\":28691:28784   */\n      tag_503\n      jump\t// in\n    tag_784:\n        /* \"#utility.yul\":28809:28811   */\n      0x20\n        /* \"#utility.yul\":28804:28807   */\n      dup3\n        /* \"#utility.yul\":28800:28812   */\n      add\n        /* \"#utility.yul\":28793:28812   */\n      swap1\n      pop\n        /* \"#utility.yul\":28452:28818   */\n      swap2\n      swap1\n      pop\n      jump\t// out\n        /* \"#utility.yul\":28824:29243   */\n    tag_244:\n        /* \"#utility.yul\":28990:28994   */\n      0x00\n        /* \"#utility.yul\":29028:29030   */\n      0x20\n        /* \"#utility.yul\":29017:29026   */\n      dup3\n        /* \"#utility.yul\":29013:29031   */\n      add\n        /* \"#utility.yul\":29005:29031   */\n      swap1\n      pop\n        /* \"#utility.yul\":29077:29086   */\n      dup2\n        /* \"#utility.yul\":29071:29075   */\n      dup2\n        /* \"#utility.yul\":29067:29087   */\n      sub\n        /* \"#utility.yul\":29063:29064   */\n      0x00\n        /* \"#utility.yul\":29052:29061   */\n      dup4\n        /* \"#utility.yul\":29048:29065   */\n      add\n        /* \"#utility.yul\":29041:29088   */\n      mstore\n        /* \"#utility.yul\":29105:29236   */\n      tag_786\n        /* \"#utility.yul\":29231:29235   */\n      dup2\n        /* \"#utility.yul\":29105:29236   */\n      tag_504\n      jump\t// in\n    tag_786:\n        /* \"#utility.yul\":29097:29236   */\n      swap1\n      pop\n        /* \"#utility.yul\":28824:29243   */\n      swap2\n      swap1\n      pop\n      jump\t// out\n        /* \"#utility.yul\":29249:29429   */\n    tag_505:\n        /* \"#utility.yul\":29297:29374   */\n      0x4e487b7100000000000000000000000000000000000000000000000000000000\n        /* \"#utility.yul\":29294:29295   */\n      0x00\n        /* \"#utility.yul\":29287:29375   */\n      mstore\n        /* \"#utility.yul\":29394:29398   */\n      0x11\n        /* \"#utility.yul\":29391:29392   */\n      0x04\n        /* \"#utility.yul\":29384:29399   */\n      mstore\n        /* \"#utility.yul\":29418:29422   */\n      0x24\n        /* \"#utility.yul\":29415:29416   */\n      0x00\n        /* \"#utility.yul\":29408:29423   */\n      revert\n        /* \"#utility.yul\":29435:29626   */\n    tag_246:\n        /* \"#utility.yul\":29475:29478   */\n      0x00\n        /* \"#utility.yul\":29494:29514   */\n      tag_789\n        /* \"#utility.yul\":29512:29513   */\n      dup3\n        /* \"#utility.yul\":29494:29514   */\n      tag_436\n      jump\t// in\n    tag_789:\n        /* \"#utility.yul\":29489:29514   */\n      swap2\n      pop\n        /* \"#utility.yul\":29528:29548   */\n      tag_790\n        /* \"#utility.yul\":29546:29547   */\n      dup4\n        /* \"#utility.yul\":29528:29548   */\n      tag_436\n      jump\t// in\n    tag_790:\n        /* \"#utility.yul\":29523:29548   */\n      swap3\n      pop\n        /* \"#utility.yul\":29571:29572   */\n      dup3\n        /* \"#utility.yul\":29568:29569   */\n      dup3\n        /* \"#utility.yul\":29564:29573   */\n      add\n        /* \"#utility.yul\":29557:29573   */\n      swap1\n      pop\n        /* \"#utility.yul\":29592:29595   */\n      dup1\n        /* \"#utility.yul\":29589:29590   */\n      dup3\n        /* \"#utility.yul\":29586:29596   */\n      gt\n        /* \"#utility.yul\":29583:29619   */\n      iszero\n      tag_791\n      jumpi\n        /* \"#utility.yul\":29599:29617   */\n      tag_792\n      tag_505\n      jump\t// in\n    tag_792:\n        /* \"#utility.yul\":29583:29619   */\n    tag_791:\n        /* \"#utility.yul\":29435:29626   */\n      swap3\n      swap2\n      pop\n      pop\n      jump\t// out\n        /* \"#utility.yul\":29632:29798   */\n    tag_506:\n        /* \"#utility.yul\":29772:29790   */\n      0x7661756c74206e6f742070756c6c656400000000000000000000000000000000\n        /* \"#utility.yul\":29768:29769   */\n      0x00\n        /* \"#utility.yul\":29760:29766   */\n      dup3\n        /* \"#utility.yul\":29756:29770   */\n      add\n        /* \"#utility.yul\":29749:29791   */\n      mstore\n        /* \"#utility.yul\":29632:29798   */\n      pop\n      jump\t// out\n        /* \"#utility.yul\":29804:30170   */\n    tag_507:\n        /* \"#utility.yul\":29946:29949   */\n      0x00\n        /* \"#utility.yul\":29967:30034   */\n      tag_795\n        /* \"#utility.yul\":30031:30033   */\n      0x10\n        /* \"#utility.yul\":30026:30029   */\n      dup4\n        /* \"#utility.yul\":29967:30034   */\n      tag_439\n      jump\t// in\n    tag_795:\n        /* \"#utility.yul\":29960:30034   */\n      swap2\n      pop\n        /* \"#utility.yul\":30043:30136   */\n      tag_796\n        /* \"#utility.yul\":30132:30135   */\n      dup3\n        /* \"#utility.yul\":30043:30136   */\n      tag_506\n      jump\t// in\n    tag_796:\n        /* \"#utility.yul\":30161:30163   */\n      0x20\n        /* \"#utility.yul\":30156:30159   */\n      dup3\n        /* \"#utility.yul\":30152:30164   */\n      add\n        /* \"#utility.yul\":30145:30164   */\n      swap1\n      pop\n        /* \"#utility.yul\":29804:30170   */\n      swap2\n      swap1\n      pop\n      jump\t// out\n        /* \"#utility.yul\":30176:30595   */\n    tag_249:\n        /* \"#utility.yul\":30342:30346   */\n      0x00\n        /* \"#utility.yul\":30380:30382   */\n      0x20\n        /* \"#utility.yul\":30369:30378   */\n      dup3\n        /* \"#utility.yul\":30365:30383   */\n      add\n        /* \"#utility.yul\":30357:30383   */\n      swap1\n      pop\n        /* \"#utility.yul\":30429:30438   */\n      dup2\n        /* \"#utility.yul\":30423:30427   */\n      dup2\n        /* \"#utility.yul\":30419:30439   */\n      sub\n        /* \"#utility.yul\":30415:30416   */\n      0x00\n        /* \"#utility.yul\":30404:30413   */\n      dup4\n        /* \"#utility.yul\":30400:30417   */\n      add\n        /* \"#utility.yul\":30393:30440   */\n      mstore\n        /* \"#utility.yul\":30457:30588   */\n      tag_798\n        /* \"#utility.yul\":30583:30587   */\n      dup2\n        /* \"#utility.yul\":30457:30588   */\n      tag_507\n      jump\t// in\n    tag_798:\n        /* \"#utility.yul\":30449:30588   */\n      swap1\n      pop\n        /* \"#utility.yul\":30176:30595   */\n      swap2\n      swap1\n      pop\n      jump\t// out\n        /* \"#utility.yul\":30601:30779   */\n    tag_508:\n        /* \"#utility.yul\":30741:30771   */\n      0x696e7375666669656e74207472616e736d69747465642076616c756500000000\n        /* \"#utility.yul\":30737:30738   */\n      0x00\n        /* \"#utility.yul\":30729:30735   */\n      dup3\n        /* \"#utility.yul\":30725:30739   */\n      add\n        /* \"#utility.yul\":30718:30772   */\n      mstore\n        /* \"#utility.yul\":30601:30779   */\n      pop\n      jump\t// out\n        /* \"#utility.yul\":30785:31151   */\n    tag_509:\n        /* \"#utility.yul\":30927:30930   */\n      0x00\n        /* \"#utility.yul\":30948:31015   */\n      tag_801\n        /* \"#utility.yul\":31012:31014   */\n      0x1c\n        /* \"#utility.yul\":31007:31010   */\n      dup4\n        /* \"#utility.yul\":30948:31015   */\n      tag_439\n      jump\t// in\n    tag_801:\n        /* \"#utility.yul\":30941:31015   */\n      swap2\n      pop\n        /* \"#utility.yul\":31024:31117   */\n      tag_802\n        /* \"#utility.yul\":31113:31116   */\n      dup3\n        /* \"#utility.yul\":31024:31117   */\n      tag_508\n      jump\t// in\n    tag_802:\n        /* \"#utility.yul\":31142:31144   */\n      0x20\n        /* \"#utility.yul\":31137:31140   */\n      dup3\n        /* \"#utility.yul\":31133:31145   */\n      add\n        /* \"#utility.yul\":31126:31145   */\n      swap1\n      pop\n        /* \"#utility.yul\":30785:31151   */\n      swap2\n      swap1\n      pop\n      jump\t// out\n        /* \"#utility.yul\":31157:31576   */\n    tag_253:\n        /* \"#utility.yul\":31323:31327   */\n      0x00\n        /* \"#utility.yul\":31361:31363   */\n      0x20\n        /* \"#utility.yul\":31350:31359   */\n      dup3\n        /* \"#utility.yul\":31346:31364   */\n      add\n        /* \"#utility.yul\":31338:31364   */\n      swap1\n      pop\n        /* \"#utility.yul\":31410:31419   */\n      dup2\n        /* \"#utility.yul\":31404:31408   */\n      dup2\n        /* \"#utility.yul\":31400:31420   */\n      sub\n        /* \"#utility.yul\":31396:31397   */\n      0x00\n        /* \"#utility.yul\":31385:31394   */\n      dup4\n        /* \"#utility.yul\":31381:31398   */\n      add\n        /* \"#utility.yul\":31374:31421   */\n      mstore\n        /* \"#utility.yul\":31438:31569   */\n      tag_804\n        /* \"#utility.yul\":31564:31568   */\n      dup2\n        /* \"#utility.yul\":31438:31569   */\n      tag_509\n      jump\t// in\n    tag_804:\n        /* \"#utility.yul\":31430:31569   */\n      swap1\n      pop\n        /* \"#utility.yul\":31157:31576   */\n      swap2\n      swap1\n      pop\n      jump\t// out\n        /* \"#utility.yul\":31582:32024   */\n    tag_256:\n        /* \"#utility.yul\":31731:31735   */\n      0x00\n        /* \"#utility.yul\":31769:31771   */\n      0x60\n        /* \"#utility.yul\":31758:31767   */\n      dup3\n        /* \"#utility.yul\":31754:31772   */\n      add\n        /* \"#utility.yul\":31746:31772   */\n      swap1\n      pop\n        /* \"#utility.yul\":31782:31853   */\n      tag_806\n        /* \"#utility.yul\":31850:31851   */\n      0x00\n        /* \"#utility.yul\":31839:31848   */\n      dup4\n        /* \"#utility.yul\":31835:31852   */\n      add\n        /* \"#utility.yul\":31826:31832   */\n      dup7\n        /* \"#utility.yul\":31782:31853   */\n      tag_491\n      jump\t// in\n    tag_806:\n        /* \"#utility.yul\":31863:31935   */\n      tag_807\n        /* \"#utility.yul\":31931:31933   */\n      0x20\n        /* \"#utility.yul\":31920:31929   */\n      dup4\n        /* \"#utility.yul\":31916:31934   */\n      add\n        /* \"#utility.yul\":31907:31913   */\n      dup6\n        /* \"#utility.yul\":31863:31935   */\n      tag_491\n      jump\t// in\n    tag_807:\n        /* \"#utility.yul\":31945:32017   */\n      tag_808\n        /* \"#utility.yul\":32013:32015   */\n      0x40\n        /* \"#utility.yul\":32002:32011   */\n      dup4\n        /* \"#utility.yul\":31998:32016   */\n      add\n        /* \"#utility.yul\":31989:31995   */\n      dup5\n        /* \"#utility.yul\":31945:32017   */\n      tag_437\n      jump\t// in\n    tag_808:\n        /* \"#utility.yul\":31582:32024   */\n      swap5\n      swap4\n      pop\n      pop\n      pop\n      pop\n      jump\t// out\n        /* \"#utility.yul\":32030:32224   */\n    tag_261:\n        /* \"#utility.yul\":32070:32074   */\n      0x00\n        /* \"#utility.yul\":32090:32110   */\n      tag_810\n        /* \"#utility.yul\":32108:32109   */\n      dup3\n        /* \"#utility.yul\":32090:32110   */\n      tag_436\n      jump\t// in\n    tag_810:\n        /* \"#utility.yul\":32085:32110   */\n      swap2\n      pop\n        /* \"#utility.yul\":32124:32144   */\n      tag_811\n        /* \"#utility.yul\":32142:32143   */\n      dup4\n        /* \"#utility.yul\":32124:32144   */\n      tag_436\n      jump\t// in\n    tag_811:\n        /* \"#utility.yul\":32119:32144   */\n      swap3\n      pop\n        /* \"#utility.yul\":32168:32169   */\n      dup3\n        /* \"#utility.yul\":32165:32166   */\n      dup3\n        /* \"#utility.yul\":32161:32170   */\n      sub\n        /* \"#utility.yul\":32153:32170   */\n      swap1\n      pop\n        /* \"#utility.yul\":32192:32193   */\n      dup2\n        /* \"#utility.yul\":32186:32190   */\n      dup2\n        /* \"#utility.yul\":32183:32194   */\n      gt\n        /* \"#utility.yul\":32180:32217   */\n      iszero\n      tag_812\n      jumpi\n        /* \"#utility.yul\":32197:32215   */\n      tag_813\n      tag_505\n      jump\t// in\n    tag_813:\n        /* \"#utility.yul\":32180:32217   */\n    tag_812:\n        /* \"#utility.yul\":32030:32224   */\n      swap3\n      swap2\n      pop\n      pop\n      jump\t// out\n        /* \"#utility.yul\":32230:32458   */\n    tag_510:\n        /* \"#utility.yul\":32370:32404   */\n      0x636f6e747269627574696f6e7320746f6f206672657175656e74207761697420\n        /* \"#utility.yul\":32366:32367   */\n      0x00\n        /* \"#utility.yul\":32358:32364   */\n      dup3\n        /* \"#utility.yul\":32354:32368   */\n      add\n        /* \"#utility.yul\":32347:32405   */\n      mstore\n        /* \"#utility.yul\":32439:32450   */\n      0x7265717569726564200000000000000000000000000000000000000000000000\n        /* \"#utility.yul\":32434:32436   */\n      0x20\n        /* \"#utility.yul\":32426:32432   */\n      dup3\n        /* \"#utility.yul\":32422:32437   */\n      add\n        /* \"#utility.yul\":32415:32451   */\n      mstore\n        /* \"#utility.yul\":32230:32458   */\n      pop\n      jump\t// out\n        /* \"#utility.yul\":32464:32830   */\n    tag_511:\n        /* \"#utility.yul\":32606:32609   */\n      0x00\n        /* \"#utility.yul\":32627:32694   */\n      tag_816\n        /* \"#utility.yul\":32691:32693   */\n      0x29\n        /* \"#utility.yul\":32686:32689   */\n      dup4\n        /* \"#utility.yul\":32627:32694   */\n      tag_439\n      jump\t// in\n    tag_816:\n        /* \"#utility.yul\":32620:32694   */\n      swap2\n      pop\n        /* \"#utility.yul\":32703:32796   */\n      tag_817\n        /* \"#utility.yul\":32792:32795   */\n      dup3\n        /* \"#utility.yul\":32703:32796   */\n      tag_510\n      jump\t// in\n    tag_817:\n        /* \"#utility.yul\":32821:32823   */\n      0x40\n        /* \"#utility.yul\":32816:32819   */\n      dup3\n        /* \"#utility.yul\":32812:32824   */\n      add\n        /* \"#utility.yul\":32805:32824   */\n      swap1\n      pop\n        /* \"#utility.yul\":32464:32830   */\n      swap2\n      swap1\n      pop\n      jump\t// out\n        /* \"#utility.yul\":32836:33255   */\n    tag_274:\n        /* \"#utility.yul\":33002:33006   */\n      0x00\n        /* \"#utility.yul\":33040:33042   */\n      0x20\n        /* \"#utility.yul\":33029:33038   */\n      dup3\n        /* \"#utility.yul\":33025:33043   */\n      add\n        /* \"#utility.yul\":33017:33043   */\n      swap1\n      pop\n        /* \"#utility.yul\":33089:33098   */\n      dup2\n        /* \"#utility.yul\":33083:33087   */\n      dup2\n        /* \"#utility.yul\":33079:33099   */\n      sub\n        /* \"#utility.yul\":33075:33076   */\n      0x00\n        /* \"#utility.yul\":33064:33073   */\n      dup4\n        /* \"#utility.yul\":33060:33077   */\n      add\n        /* \"#utility.yul\":33053:33100   */\n      mstore\n        /* \"#utility.yul\":33117:33248   */\n      tag_819\n        /* \"#utility.yul\":33243:33247   */\n      dup2\n        /* \"#utility.yul\":33117:33248   */\n      tag_511\n      jump\t// in\n    tag_819:\n        /* \"#utility.yul\":33109:33248   */\n      swap1\n      pop\n        /* \"#utility.yul\":32836:33255   */\n      swap2\n      swap1\n      pop\n      jump\t// out\n        /* \"#utility.yul\":33261:33426   */\n    tag_512:\n        /* \"#utility.yul\":33401:33418   */\n      0x70656e73696f6e206d6174757265640000000000000000000000000000000000\n        /* \"#utility.yul\":33397:33398   */\n      0x00\n        /* \"#utility.yul\":33389:33395   */\n      dup3\n        /* \"#utility.yul\":33385:33399   */\n      add\n        /* \"#utility.yul\":33378:33419   */\n      mstore\n        /* \"#utility.yul\":33261:33426   */\n      pop\n      jump\t// out\n        /* \"#utility.yul\":33432:33798   */\n    tag_513:\n        /* \"#utility.yul\":33574:33577   */\n      0x00\n        /* \"#utility.yul\":33595:33662   */\n      tag_822\n        /* \"#utility.yul\":33659:33661   */\n      0x0f\n        /* \"#utility.yul\":33654:33657   */\n      dup4\n        /* \"#utility.yul\":33595:33662   */\n      tag_439\n      jump\t// in\n    tag_822:\n        /* \"#utility.yul\":33588:33662   */\n      swap2\n      pop\n        /* \"#utility.yul\":33671:33764   */\n      tag_823\n        /* \"#utility.yul\":33760:33763   */\n      dup3\n        /* \"#utility.yul\":33671:33764   */\n      tag_512\n      jump\t// in\n    tag_823:\n        /* \"#utility.yul\":33789:33791   */\n      0x20\n        /* \"#utility.yul\":33784:33787   */\n      dup3\n        /* \"#utility.yul\":33780:33792   */\n      add\n        /* \"#utility.yul\":33773:33792   */\n      swap1\n      pop\n        /* \"#utility.yul\":33432:33798   */\n      swap2\n      swap1\n      pop\n      jump\t// out\n        /* \"#utility.yul\":33804:34223   */\n    tag_281:\n        /* \"#utility.yul\":33970:33974   */\n      0x00\n        /* \"#utility.yul\":34008:34010   */\n      0x20\n        /* \"#utility.yul\":33997:34006   */\n      dup3\n        /* \"#utility.yul\":33993:34011   */\n      add\n        /* \"#utility.yul\":33985:34011   */\n      swap1\n      pop\n        /* \"#utility.yul\":34057:34066   */\n      dup2\n        /* \"#utility.yul\":34051:34055   */\n      dup2\n        /* \"#utility.yul\":34047:34067   */\n      sub\n        /* \"#utility.yul\":34043:34044   */\n      0x00\n        /* \"#utility.yul\":34032:34041   */\n      dup4\n        /* \"#utility.yul\":34028:34045   */\n      add\n        /* \"#utility.yul\":34021:34068   */\n      mstore\n        /* \"#utility.yul\":34085:34216   */\n      tag_825\n        /* \"#utility.yul\":34211:34215   */\n      dup2\n        /* \"#utility.yul\":34085:34216   */\n      tag_513\n      jump\t// in\n    tag_825:\n        /* \"#utility.yul\":34077:34216   */\n      swap1\n      pop\n        /* \"#utility.yul\":33804:34223   */\n      swap2\n      swap1\n      pop\n      jump\t// out\n        /* \"#utility.yul\":34229:34395   */\n    tag_514:\n        /* \"#utility.yul\":34369:34387   */\n      0x70656e73696f6e206e6f74206f70656e00000000000000000000000000000000\n        /* \"#utility.yul\":34365:34366   */\n      0x00\n        /* \"#utility.yul\":34357:34363   */\n      dup3\n        /* \"#utility.yul\":34353:34367   */\n      add\n        /* \"#utility.yul\":34346:34388   */\n      mstore\n        /* \"#utility.yul\":34229:34395   */\n      pop\n      jump\t// out\n        /* \"#utility.yul\":34401:34767   */\n    tag_515:\n        /* \"#utility.yul\":34543:34546   */\n      0x00\n        /* \"#utility.yul\":34564:34631   */\n      tag_828\n        /* \"#utility.yul\":34628:34630   */\n      0x10\n        /* \"#utility.yul\":34623:34626   */\n      dup4\n        /* \"#utility.yul\":34564:34631   */\n      tag_439\n      jump\t// in\n    tag_828:\n        /* \"#utility.yul\":34557:34631   */\n      swap2\n      pop\n        /* \"#utility.yul\":34640:34733   */\n      tag_829\n        /* \"#utility.yul\":34729:34732   */\n      dup3\n        /* \"#utility.yul\":34640:34733   */\n      tag_514\n      jump\t// in\n    tag_829:\n        /* \"#utility.yul\":34758:34760   */\n      0x20\n        /* \"#utility.yul\":34753:34756   */\n      dup3\n        /* \"#utility.yul\":34749:34761   */\n      add\n        /* \"#utility.yul\":34742:34761   */\n      swap1\n      pop\n        /* \"#utility.yul\":34401:34767   */\n      swap2\n      swap1\n      pop\n      jump\t// out\n        /* \"#utility.yul\":34773:35192   */\n    tag_288:\n        /* \"#utility.yul\":34939:34943   */\n      0x00\n        /* \"#utility.yul\":34977:34979   */\n      0x20\n        /* \"#utility.yul\":34966:34975   */\n      dup3\n        /* \"#utility.yul\":34962:34980   */\n      add\n        /* \"#utility.yul\":34954:34980   */\n      swap1\n      pop\n        /* \"#utility.yul\":35026:35035   */\n      dup2\n        /* \"#utility.yul\":35020:35024   */\n      dup2\n        /* \"#utility.yul\":35016:35036   */\n      sub\n        /* \"#utility.yul\":35012:35013   */\n      0x00\n        /* \"#utility.yul\":35001:35010   */\n      dup4\n        /* \"#utility.yul\":34997:35014   */\n      add\n        /* \"#utility.yul\":34990:35037   */\n      mstore\n        /* \"#utility.yul\":35054:35185   */\n      tag_831\n        /* \"#utility.yul\":35180:35184   */\n      dup2\n        /* \"#utility.yul\":35054:35185   */\n      tag_515\n      jump\t// in\n    tag_831:\n        /* \"#utility.yul\":35046:35185   */\n      swap1\n      pop\n        /* \"#utility.yul\":34773:35192   */\n      swap2\n      swap1\n      pop\n      jump\t// out\n        /* \"#utility.yul\":35198:35434   */\n    tag_516:\n        /* \"#utility.yul\":35338:35372   */\n      0x696e76616c696420636f6e747269627574696f6e206569746865722072616973\n        /* \"#utility.yul\":35334:35335   */\n      0x00\n        /* \"#utility.yul\":35326:35332   */\n      dup3\n        /* \"#utility.yul\":35322:35336   */\n      add\n        /* \"#utility.yul\":35315:35373   */\n      mstore\n        /* \"#utility.yul\":35407:35426   */\n      0x65206f72206c6f77657220616d6f756e74000000000000000000000000000000\n        /* \"#utility.yul\":35402:35404   */\n      0x20\n        /* \"#utility.yul\":35394:35400   */\n      dup3\n        /* \"#utility.yul\":35390:35405   */\n      add\n        /* \"#utility.yul\":35383:35427   */\n      mstore\n        /* \"#utility.yul\":35198:35434   */\n      pop\n      jump\t// out\n        /* \"#utility.yul\":35440:35806   */\n    tag_517:\n        /* \"#utility.yul\":35582:35585   */\n      0x00\n        /* \"#utility.yul\":35603:35670   */\n      tag_834\n        /* \"#utility.yul\":35667:35669   */\n      0x31\n        /* \"#utility.yul\":35662:35665   */\n      dup4\n        /* \"#utility.yul\":35603:35670   */\n      tag_439\n      jump\t// in\n    tag_834:\n        /* \"#utility.yul\":35596:35670   */\n      swap2\n      pop\n        /* \"#utility.yul\":35679:35772   */\n      tag_835\n        /* \"#utility.yul\":35768:35771   */\n      dup3\n        /* \"#utility.yul\":35679:35772   */\n      tag_516\n      jump\t// in\n    tag_835:\n        /* \"#utility.yul\":35797:35799   */\n      0x40\n        /* \"#utility.yul\":35792:35795   */\n      dup3\n        /* \"#utility.yul\":35788:35800   */\n      add\n        /* \"#utility.yul\":35781:35800   */\n      swap1\n      pop\n        /* \"#utility.yul\":35440:35806   */\n      swap2\n      swap1\n      pop\n      jump\t// out\n        /* \"#utility.yul\":35812:36231   */\n    tag_296:\n        /* \"#utility.yul\":35978:35982   */\n      0x00\n        /* \"#utility.yul\":36016:36018   */\n      0x20\n        /* \"#utility.yul\":36005:36014   */\n      dup3\n        /* \"#utility.yul\":36001:36019   */\n      add\n        /* \"#utility.yul\":35993:36019   */\n      swap1\n      pop\n        /* \"#utility.yul\":36065:36074   */\n      dup2\n        /* \"#utility.yul\":36059:36063   */\n      dup2\n        /* \"#utility.yul\":36055:36075   */\n      sub\n        /* \"#utility.yul\":36051:36052   */\n      0x00\n        /* \"#utility.yul\":36040:36049   */\n      dup4\n        /* \"#utility.yul\":36036:36053   */\n      add\n        /* \"#utility.yul\":36029:36076   */\n      mstore\n        /* \"#utility.yul\":36093:36224   */\n      tag_837\n        /* \"#utility.yul\":36219:36223   */\n      dup2\n        /* \"#utility.yul\":36093:36224   */\n      tag_517\n      jump\t// in\n    tag_837:\n        /* \"#utility.yul\":36085:36224   */\n      swap1\n      pop\n        /* \"#utility.yul\":35812:36231   */\n      swap2\n      swap1\n      pop\n      jump\t// out\n        /* \"#utility.yul\":36237:36470   */\n    tag_301:\n        /* \"#utility.yul\":36276:36279   */\n      0x00\n        /* \"#utility.yul\":36299:36323   */\n      tag_839\n        /* \"#utility.yul\":36317:36322   */\n      dup3\n        /* \"#utility.yul\":36299:36323   */\n      tag_436\n      jump\t// in\n    tag_839:\n        /* \"#utility.yul\":36290:36323   */\n      swap2\n      pop\n        /* \"#utility.yul\":36345:36411   */\n      0xffffffffffffffffffffffffffffffffffffffffffffffffffffffffffffffff\n        /* \"#utility.yul\":36338:36343   */\n      dup3\n        /* \"#utility.yul\":36335:36412   */\n      sub\n        /* \"#utility.yul\":36332:36435   */\n      tag_840\n      jumpi\n        /* \"#utility.yul\":36415:36433   */\n      tag_841\n      tag_505\n      jump\t// in\n    tag_841:\n        /* \"#utility.yul\":36332:36435   */\n    tag_840:\n        /* \"#utility.yul\":36462:36463   */\n      0x01\n        /* \"#utility.yul\":36455:36460   */\n      dup3\n        /* \"#utility.yul\":36451:36464   */\n      add\n        /* \"#utility.yul\":36444:36464   */\n      swap1\n      pop\n        /* \"#utility.yul\":36237:36470   */\n      swap2\n      swap1\n      pop\n      jump\t// out\n        /* \"#utility.yul\":36476:36636   */\n    tag_518:\n        /* \"#utility.yul\":36616:36628   */\n      0x6f776e6572206f6e6c7900000000000000000000000000000000000000000000\n        /* \"#utility.yul\":36612:36613   */\n      0x00\n        /* \"#utility.yul\":36604:36610   */\n      dup3\n        /* \"#utility.yul\":36600:36614   */\n      add\n        /* \"#utility.yul\":36593:36629   */\n      mstore\n        /* \"#utility.yul\":36476:36636   */\n      pop\n      jump\t// out\n        /* \"#utility.yul\":36642:37008   */\n    tag_519:\n        /* \"#utility.yul\":36784:36787   */\n      0x00\n        /* \"#utility.yul\":36805:36872   */\n      tag_844\n        /* \"#utility.yul\":36869:36871   */\n      0x0a\n        /* \"#utility.yul\":36864:36867   */\n      dup4\n        /* \"#utility.yul\":36805:36872   */\n      tag_439\n      jump\t// in\n    tag_844:\n        /* \"#utility.yul\":36798:36872   */\n      swap2\n      pop\n        /* \"#utility.yul\":36881:36974   */\n      tag_845\n        /* \"#utility.yul\":36970:36973   */\n      dup3\n        /* \"#utility.yul\":36881:36974   */\n      tag_518\n      jump\t// in\n    tag_845:\n        /* \"#utility.yul\":36999:37001   */\n      0x20\n        /* \"#utility.yul\":36994:36997   */\n      dup3\n        /* \"#utility.yul\":36990:37002   */\n      add\n        /* \"#utility.yul\":36983:37002   */\n      swap1\n      pop\n        /* \"#utility.yul\":36642:37008   */\n      swap2\n      swap1\n      pop\n      jump\t// out\n        /* \"#utility.yul\":37014:37433   */\n    tag_318:\n        /* \"#utility.yul\":37180:37184   */\n      0x00\n        /* \"#utility.yul\":37218:37220   */\n      0x20\n        /* \"#utility.yul\":37207:37216   */\n      dup3\n        /* \"#utility.yul\":37203:37221   */\n      add\n        /* \"#utility.yul\":37195:37221   */\n      swap1\n      pop\n        /* \"#utility.yul\":37267:37276   */\n      dup2\n        /* \"#utility.yul\":37261:37265   */\n      dup2\n        /* \"#utility.yul\":37257:37277   */\n      sub\n        /* \"#utility.yul\":37253:37254   */\n      0x00\n        /* \"#utility.yul\":37242:37251   */\n      dup4\n        /* \"#utility.yul\":37238:37255   */\n      add\n        /* \"#utility.yul\":37231:37278   */\n      mstore\n        /* \"#utility.yul\":37295:37426   */\n      tag_847\n        /* \"#utility.yul\":37421:37425   */\n      dup2\n        /* \"#utility.yul\":37295:37426   */\n      tag_519\n      jump\t// in\n    tag_847:\n        /* \"#utility.yul\":37287:37426   */\n      swap1\n      pop\n        /* \"#utility.yul\":37014:37433   */\n      swap2\n      swap1\n      pop\n      jump\t// out\n        /* \"#utility.yul\":37439:37611   */\n    tag_520:\n        /* \"#utility.yul\":37579:37603   */\n      0x696e76616c69642070656e73696f6e2073746174757300000000000000000000\n        /* \"#utility.yul\":37575:37576   */\n      0x00\n        /* \"#utility.yul\":37567:37573   */\n      dup3\n        /* \"#utility.yul\":37563:37577   */\n      add\n        /* \"#utility.yul\":37556:37604   */\n      mstore\n        /* \"#utility.yul\":37439:37611   */\n      pop\n      jump\t// out\n        /* \"#utility.yul\":37617:37983   */\n    tag_521:\n        /* \"#utility.yul\":37759:37762   */\n      0x00\n        /* \"#utility.yul\":37780:37847   */\n      tag_850\n        /* \"#utility.yul\":37844:37846   */\n      0x16\n        /* \"#utility.yul\":37839:37842   */\n      dup4\n        /* \"#utility.yul\":37780:37847   */\n      tag_439\n      jump\t// in\n    tag_850:\n        /* \"#utility.yul\":37773:37847   */\n      swap2\n      pop\n        /* \"#utility.yul\":37856:37949   */\n      tag_851\n        /* \"#utility.yul\":37945:37948   */\n      dup3\n        /* \"#utility.yul\":37856:37949   */\n      tag_520\n      jump\t// in\n    tag_851:\n        /* \"#utility.yul\":37974:37976   */\n      0x20\n        /* \"#utility.yul\":37969:37972   */\n      dup3\n        /* \"#utility.yul\":37965:37977   */\n      add\n        /* \"#utility.yul\":37958:37977   */\n      swap1\n      pop\n        /* \"#utility.yul\":37617:37983   */\n      swap2\n      swap1\n      pop\n      jump\t// out\n        /* \"#utility.yul\":37989:38408   */\n    tag_336:\n        /* \"#utility.yul\":38155:38159   */\n      0x00\n        /* \"#utility.yul\":38193:38195   */\n      0x20\n        /* \"#utility.yul\":38182:38191   */\n      dup3\n        /* \"#utility.yul\":38178:38196   */\n      add\n        /* \"#utility.yul\":38170:38196   */\n      swap1\n      pop\n        /* \"#utility.yul\":38242:38251   */\n      dup2\n        /* \"#utility.yul\":38236:38240   */\n      dup2\n        /* \"#utility.yul\":38232:38252   */\n      sub\n        /* \"#utility.yul\":38228:38229   */\n      0x00\n        /* \"#utility.yul\":38217:38226   */\n      dup4\n        /* \"#utility.yul\":38213:38230   */\n      add\n        /* \"#utility.yul\":38206:38253   */\n      mstore\n        /* \"#utility.yul\":38270:38401   */\n      tag_853\n        /* \"#utility.yul\":38396:38400   */\n      dup2\n        /* \"#utility.yul\":38270:38401   */\n      tag_521\n      jump\t// in\n    tag_853:\n        /* \"#utility.yul\":38262:38401   */\n      swap1\n      pop\n        /* \"#utility.yul\":37989:38408   */\n      swap2\n      swap1\n      pop\n      jump\t// out\n        /* \"#utility.yul\":38414:38579   */\n    tag_522:\n        /* \"#utility.yul\":38554:38571   */\n      0x70656e73696f6e20736574746c65640000000000000000000000000000000000\n        /* \"#utility.yul\":38550:38551   */\n      0x00\n        /* \"#utility.yul\":38542:38548   */\n      dup3\n        /* \"#utility.yul\":38538:38552   */\n      add\n        /* \"#utility.yul\":38531:38572   */\n      mstore\n        /* \"#utility.yul\":38414:38579   */\n      pop\n      jump\t// out\n        /* \"#utility.yul\":38585:38951   */\n    tag_523:\n        /* \"#utility.yul\":38727:38730   */\n      0x00\n        /* \"#utility.yul\":38748:38815   */\n      tag_856\n        /* \"#utility.yul\":38812:38814   */\n      0x0f\n        /* \"#utility.yul\":38807:38810   */\n      dup4\n        /* \"#utility.yul\":38748:38815   */\n      tag_439\n      jump\t// in\n    tag_856:\n        /* \"#utility.yul\":38741:38815   */\n      swap2\n      pop\n        /* \"#utility.yul\":38824:38917   */\n      tag_857\n        /* \"#utility.yul\":38913:38916   */\n      dup3\n        /* \"#utility.yul\":38824:38917   */\n      tag_522\n      jump\t// in\n    tag_857:\n        /* \"#utility.yul\":38942:38944   */\n      0x20\n        /* \"#utility.yul\":38937:38940   */\n      dup3\n        /* \"#utility.yul\":38933:38945   */\n      add\n        /* \"#utility.yul\":38926:38945   */\n      swap1\n      pop\n        /* \"#utility.yul\":38585:38951   */\n      swap2\n      swap1\n      pop\n      jump\t// out\n        /* \"#utility.yul\":38957:39376   */\n    tag_343:\n        /* \"#utility.yul\":39123:39127   */\n      0x00\n        /* \"#utility.yul\":39161:39163   */\n      0x20\n        /* \"#utility.yul\":39150:39159   */\n      dup3\n        /* \"#utility.yul\":39146:39164   */\n      add\n        /* \"#utility.yul\":39138:39164   */\n      swap1\n      pop\n        /* \"#utility.yul\":39210:39219   */\n      dup2\n        /* \"#utility.yul\":39204:39208   */\n      dup2\n        /* \"#utility.yul\":39200:39220   */\n      sub\n        /* \"#utility.yul\":39196:39197   */\n      0x00\n        /* \"#utility.yul\":39185:39194   */\n      dup4\n        /* \"#utility.yul\":39181:39198   */\n      add\n        /* \"#utility.yul\":39174:39221   */\n      mstore\n        /* \"#utility.yul\":39238:39369   */\n      tag_859\n        /* \"#utility.yul\":39364:39368   */\n      dup2\n        /* \"#utility.yul\":39238:39369   */\n      tag_523\n      jump\t// in\n    tag_859:\n        /* \"#utility.yul\":39230:39369   */\n      swap1\n      pop\n        /* \"#utility.yul\":38957:39376   */\n      swap2\n      swap1\n      pop\n      jump\t// out\n        /* \"#utility.yul\":39382:39562   */\n    tag_524:\n        /* \"#utility.yul\":39522:39554   */\n      0x696e73756666696369656e7420656d6d697373696f6e2062616c616e63650000\n        /* \"#utility.yul\":39518:39519   */\n      0x00\n        /* \"#utility.yul\":39510:39516   */\n      dup3\n        /* \"#utility.yul\":39506:39520   */\n      add\n        /* \"#utility.yul\":39499:39555   */\n      mstore\n        /* \"#utility.yul\":39382:39562   */\n      pop\n      jump\t// out\n        /* \"#utility.yul\":39568:39934   */\n    tag_525:\n        /* \"#utility.yul\":39710:39713   */\n      0x00\n        /* \"#utility.yul\":39731:39798   */\n      tag_862\n        /* \"#utility.yul\":39795:39797   */\n      0x1e\n        /* \"#utility.yul\":39790:39793   */\n      dup4\n        /* \"#utility.yul\":39731:39798   */\n      tag_439\n      jump\t// in\n    tag_862:\n        /* \"#utility.yul\":39724:39798   */\n      swap2\n      pop\n        /* \"#utility.yul\":39807:39900   */\n      tag_863\n        /* \"#utility.yul\":39896:39899   */\n      dup3\n        /* \"#utility.yul\":39807:39900   */\n      tag_524\n      jump\t// in\n    tag_863:\n        /* \"#utility.yul\":39925:39927   */\n      0x20\n        /* \"#utility.yul\":39920:39923   */\n      dup3\n        /* \"#utility.yul\":39916:39928   */\n      add\n        /* \"#utility.yul\":39909:39928   */\n      swap1\n      pop\n        /* \"#utility.yul\":39568:39934   */\n      swap2\n      swap1\n      pop\n      jump\t// out\n        /* \"#utility.yul\":39940:40359   */\n    tag_346:\n        /* \"#utility.yul\":40106:40110   */\n      0x00\n        /* \"#utility.yul\":40144:40146   */\n      0x20\n        /* \"#utility.yul\":40133:40142   */\n      dup3\n        /* \"#utility.yul\":40129:40147   */\n      add\n        /* \"#utility.yul\":40121:40147   */\n      swap1\n      pop\n        /* \"#utility.yul\":40193:40202   */\n      dup2\n        /* \"#utility.yul\":40187:40191   */\n      dup2\n        /* \"#utility.yul\":40183:40203   */\n      sub\n        /* \"#utility.yul\":40179:40180   */\n      0x00\n        /* \"#utility.yul\":40168:40177   */\n      dup4\n        /* \"#utility.yul\":40164:40181   */\n      add\n        /* \"#utility.yul\":40157:40204   */\n      mstore\n        /* \"#utility.yul\":40221:40352   */\n      tag_865\n        /* \"#utility.yul\":40347:40351   */\n      dup2\n        /* \"#utility.yul\":40221:40352   */\n      tag_525\n      jump\t// in\n    tag_865:\n        /* \"#utility.yul\":40213:40352   */\n      swap1\n      pop\n        /* \"#utility.yul\":39940:40359   */\n      swap2\n      swap1\n      pop\n      jump\t// out\n        /* \"#utility.yul\":40365:40482   */\n    tag_526:\n        /* \"#utility.yul\":40474:40475   */\n      0x00\n        /* \"#utility.yul\":40471:40472   */\n      0x00\n        /* \"#utility.yul\":40464:40476   */\n      revert\n        /* \"#utility.yul\":40488:40668   */\n    tag_527:\n        /* \"#utility.yul\":40536:40613   */\n      0x4e487b7100000000000000000000000000000000000000000000000000000000\n        /* \"#utility.yul\":40533:40534   */\n      0x00\n        /* \"#utility.yul\":40526:40614   */\n      mstore\n        /* \"#utility.yul\":40633:40637   */\n      0x41\n        /* \"#utility.yul\":40630:40631   */\n      0x04\n        /* \"#utility.yul\":40623:40638   */\n      mstore\n        /* \"#utility.yul\":40657:40661   */\n      0x24\n        /* \"#utility.yul\":40654:40655   */\n      0x00\n        /* \"#utility.yul\":40647:40662   */\n      revert\n        /* \"#utility.yul\":40674:40955   */\n    tag_528:\n        /* \"#utility.yul\":40757:40784   */\n      tag_869\n        /* \"#utility.yul\":40779:40783   */\n      dup3\n        /* \"#utility.yul\":40757:40784   */\n      tag_441\n      jump\t// in\n    tag_869:\n        /* \"#utility.yul\":40749:40755   */\n      dup2\n        /* \"#utility.yul\":40745:40785   */\n      add\n        /* \"#utility.yul\":40887:40893   */\n      dup2\n        /* \"#utility.yul\":40875:40885   */\n      dup2\n        /* \"#utility.yul\":40872:40894   */\n      lt\n        /* \"#utility.yul\":40851:40869   */\n      0xffffffffffffffff\n        /* \"#utility.yul\":40839:40849   */\n      dup3\n        /* \"#utility.yul\":40836:40870   */\n      gt\n        /* \"#utility.yul\":40833:40895   */\n      or\n        /* \"#utility.yul\":40830:40918   */\n      iszero\n      tag_870\n      jumpi\n        /* \"#utility.yul\":40898:40916   */\n      tag_871\n      tag_527\n      jump\t// in\n    tag_871:\n        /* \"#utility.yul\":40830:40918   */\n    tag_870:\n        /* \"#utility.yul\":40938:40948   */\n      dup1\n        /* \"#utility.yul\":40934:40936   */\n      0x40\n        /* \"#utility.yul\":40927:40949   */\n      mstore\n        /* \"#utility.yul\":40717:40955   */\n      pop\n        /* \"#utility.yul\":40674:40955   */\n      pop\n      pop\n      jump\t// out\n        /* \"#utility.yul\":40961:41090   */\n    tag_529:\n        /* \"#utility.yul\":40995:41001   */\n      0x00\n        /* \"#utility.yul\":41022:41042   */\n      tag_873\n      tag_443\n      jump\t// in\n    tag_873:\n        /* \"#utility.yul\":41012:41042   */\n      swap1\n      pop\n        /* \"#utility.yul\":41051:41084   */\n      tag_874\n        /* \"#utility.yul\":41079:41083   */\n      dup3\n        /* \"#utility.yul\":41071:41077   */\n      dup3\n        /* \"#utility.yul\":41051:41084   */\n      tag_528\n      jump\t// in\n    tag_874:\n        /* \"#utility.yul\":40961:41090   */\n      swap2\n      swap1\n      pop\n      jump\t// out\n        /* \"#utility.yul\":41219:41331   */\n    tag_531:\n        /* \"#utility.yul\":41305:41306   */\n      0x03\n        /* \"#utility.yul\":41298:41303   */\n      dup2\n        /* \"#utility.yul\":41295:41307   */\n      lt\n        /* \"#utility.yul\":41285:41325   */\n      tag_877\n      jumpi\n        /* \"#utility.yul\":41321:41322   */\n      0x00\n        /* \"#utility.yul\":41318:41319   */\n      0x00\n        /* \"#utility.yul\":41311:41323   */\n      revert\n        /* \"#utility.yul\":41285:41325   */\n    tag_877:\n        /* \"#utility.yul\":41219:41331   */\n      pop\n      jump\t// out\n        /* \"#utility.yul\":41337:41506   */\n    tag_532:\n        /* \"#utility.yul\":41407:41412   */\n      0x00\n        /* \"#utility.yul\":41438:41444   */\n      dup2\n        /* \"#utility.yul\":41432:41445   */\n      mload\n        /* \"#utility.yul\":41423:41445   */\n      swap1\n      pop\n        /* \"#utility.yul\":41454:41500   */\n      tag_879\n        /* \"#utility.yul\":41494:41499   */\n      dup2\n        /* \"#utility.yul\":41454:41500   */\n      tag_531\n      jump\t// in\n    tag_879:\n        /* \"#utility.yul\":41337:41506   */\n      swap3\n      swap2\n      pop\n      pop\n      jump\t// out\n        /* \"#utility.yul\":41512:41624   */\n    tag_533:\n        /* \"#utility.yul\":41598:41599   */\n      0x04\n        /* \"#utility.yul\":41591:41596   */\n      dup2\n        /* \"#utility.yul\":41588:41600   */\n      lt\n        /* \"#utility.yul\":41578:41618   */\n      tag_881\n      jumpi\n        /* \"#utility.yul\":41614:41615   */\n      0x00\n        /* \"#utility.yul\":41611:41612   */\n      0x00\n        /* \"#utility.yul\":41604:41616   */\n      revert\n        /* \"#utility.yul\":41578:41618   */\n    tag_881:\n        /* \"#utility.yul\":41512:41624   */\n      pop\n      jump\t// out\n        /* \"#utility.yul\":41630:41799   */\n    tag_534:\n        /* \"#utility.yul\":41700:41705   */\n      0x00\n        /* \"#utility.yul\":41731:41737   */\n      dup2\n        /* \"#utility.yul\":41725:41738   */\n      mload\n        /* \"#utility.yul\":41716:41738   */\n      swap1\n      pop\n        /* \"#utility.yul\":41747:41793   */\n      tag_883\n        /* \"#utility.yul\":41787:41792   */\n      dup2\n        /* \"#utility.yul\":41747:41793   */\n      tag_533\n      jump\t// in\n    tag_883:\n        /* \"#utility.yul\":41630:41799   */\n      swap3\n      swap2\n      pop\n      pop\n      jump\t// out\n        /* \"#utility.yul\":41837:43196   */\n    tag_535:\n        /* \"#utility.yul\":41932:41937   */\n      0x00\n        /* \"#utility.yul\":41976:41980   */\n      0xc0\n        /* \"#utility.yul\":41964:41973   */\n      dup3\n        /* \"#utility.yul\":41959:41962   */\n      dup5\n        /* \"#utility.yul\":41955:41974   */\n      sub\n        /* \"#utility.yul\":41951:41981   */\n      slt\n        /* \"#utility.yul\":41948:42065   */\n      iszero\n      tag_885\n      jumpi\n        /* \"#utility.yul\":41984:42063   */\n      tag_886\n      tag_526\n      jump\t// in\n    tag_886:\n        /* \"#utility.yul\":41948:42065   */\n    tag_885:\n        /* \"#utility.yul\":42083:42104   */\n      tag_887\n        /* \"#utility.yul\":42099:42103   */\n      0xc0\n        /* \"#utility.yul\":42083:42104   */\n      tag_529\n      jump\t// in\n    tag_887:\n        /* \"#utility.yul\":42074:42104   */\n      swap1\n      pop\n        /* \"#utility.yul\":42167:42168   */\n      0x00\n        /* \"#utility.yul\":42207:42280   */\n      tag_888\n        /* \"#utility.yul\":42276:42279   */\n      dup5\n        /* \"#utility.yul\":42267:42273   */\n      dup3\n        /* \"#utility.yul\":42256:42265   */\n      dup6\n        /* \"#utility.yul\":42252:42274   */\n      add\n        /* \"#utility.yul\":42207:42280   */\n      tag_534\n      jump\t// in\n    tag_888:\n        /* \"#utility.yul\":42200:42204   */\n      0x00\n        /* \"#utility.yul\":42193:42198   */\n      dup4\n        /* \"#utility.yul\":42189:42205   */\n      add\n        /* \"#utility.yul\":42182:42281   */\n      mstore\n        /* \"#utility.yul\":42114:42292   */\n      pop\n        /* \"#utility.yul\":42351:42353   */\n      0x20\n        /* \"#utility.yul\":42392:42452   */\n      tag_889\n        /* \"#utility.yul\":42448:42451   */\n      dup5\n        /* \"#utility.yul\":42439:42445   */\n      dup3\n        /* \"#utility.yul\":42428:42437   */\n      dup6\n        /* \"#utility.yul\":42424:42446   */\n      add\n        /* \"#utility.yul\":42392:42452   */\n      tag_492\n      jump\t// in\n    tag_889:\n        /* \"#utility.yul\":42385:42389   */\n      0x20\n        /* \"#utility.yul\":42378:42383   */\n      dup4\n        /* \"#utility.yul\":42374:42390   */\n      add\n        /* \"#utility.yul\":42367:42453   */\n      mstore\n        /* \"#utility.yul\":42302:42464   */\n      pop\n        /* \"#utility.yul\":42532:42534   */\n      0x40\n        /* \"#utility.yul\":42573:42633   */\n      tag_890\n        /* \"#utility.yul\":42629:42632   */\n      dup5\n        /* \"#utility.yul\":42620:42626   */\n      dup3\n        /* \"#utility.yul\":42609:42618   */\n      dup6\n        /* \"#utility.yul\":42605:42627   */\n      add\n        /* \"#utility.yul\":42573:42633   */\n      tag_492\n      jump\t// in\n    tag_890:\n        /* \"#utility.yul\":42566:42570   */\n      0x40\n        /* \"#utility.yul\":42559:42564   */\n      dup4\n        /* \"#utility.yul\":42555:42571   */\n      add\n        /* \"#utility.yul\":42548:42634   */\n      mstore\n        /* \"#utility.yul\":42474:42645   */\n      pop\n        /* \"#utility.yul\":42713:42715   */\n      0x60\n        /* \"#utility.yul\":42754:42814   */\n      tag_891\n        /* \"#utility.yul\":42810:42813   */\n      dup5\n        /* \"#utility.yul\":42801:42807   */\n      dup3\n        /* \"#utility.yul\":42790:42799   */\n      dup6\n        /* \"#utility.yul\":42786:42808   */\n      add\n        /* \"#utility.yul\":42754:42814   */\n      tag_492\n      jump\t// in\n    tag_891:\n        /* \"#utility.yul\":42747:42751   */\n      0x60\n        /* \"#utility.yul\":42740:42745   */\n      dup4\n        /* \"#utility.yul\":42736:42752   */\n      add\n        /* \"#utility.yul\":42729:42815   */\n      mstore\n        /* \"#utility.yul\":42655:42826   */\n      pop\n        /* \"#utility.yul\":42895:42898   */\n      0x80\n        /* \"#utility.yul\":42937:42997   */\n      tag_892\n        /* \"#utility.yul\":42993:42996   */\n      dup5\n        /* \"#utility.yul\":42984:42990   */\n      dup3\n        /* \"#utility.yul\":42973:42982   */\n      dup6\n        /* \"#utility.yul\":42969:42991   */\n      add\n        /* \"#utility.yul\":42937:42997   */\n      tag_492\n      jump\t// in\n    tag_892:\n        /* \"#utility.yul\":42930:42934   */\n      0x80\n        /* \"#utility.yul\":42923:42928   */\n      dup4\n        /* \"#utility.yul\":42919:42935   */\n      add\n        /* \"#utility.yul\":42912:42998   */\n      mstore\n        /* \"#utility.yul\":42836:43009   */\n      pop\n        /* \"#utility.yul\":43075:43078   */\n      0xa0\n        /* \"#utility.yul\":43117:43177   */\n      tag_893\n        /* \"#utility.yul\":43173:43176   */\n      dup5\n        /* \"#utility.yul\":43164:43170   */\n      dup3\n        /* \"#utility.yul\":43153:43162   */\n      dup6\n        /* \"#utility.yul\":43149:43171   */\n      add\n        /* \"#utility.yul\":43117:43177   */\n      tag_492\n      jump\t// in\n    tag_893:\n        /* \"#utility.yul\":43110:43114   */\n      0xa0\n        /* \"#utility.yul\":43103:43108   */\n      dup4\n        /* \"#utility.yul\":43099:43115   */\n      add\n        /* \"#utility.yul\":43092:43178   */\n      mstore\n        /* \"#utility.yul\":43019:43189   */\n      pop\n        /* \"#utility.yul\":41837:43196   */\n      swap3\n      swap2\n      pop\n      pop\n      jump\t// out\n        /* \"#utility.yul\":43226:43861   */\n    tag_536:\n        /* \"#utility.yul\":43313:43318   */\n      0x00\n        /* \"#utility.yul\":43357:43361   */\n      0x40\n        /* \"#utility.yul\":43345:43354   */\n      dup3\n        /* \"#utility.yul\":43340:43343   */\n      dup5\n        /* \"#utility.yul\":43336:43355   */\n      sub\n        /* \"#utility.yul\":43332:43362   */\n      slt\n        /* \"#utility.yul\":43329:43446   */\n      iszero\n      tag_895\n      jumpi\n        /* \"#utility.yul\":43365:43444   */\n      tag_896\n      tag_526\n      jump\t// in\n    tag_896:\n        /* \"#utility.yul\":43329:43446   */\n    tag_895:\n        /* \"#utility.yul\":43464:43485   */\n      tag_897\n        /* \"#utility.yul\":43480:43484   */\n      0x40\n        /* \"#utility.yul\":43464:43485   */\n      tag_529\n      jump\t// in\n    tag_897:\n        /* \"#utility.yul\":43455:43485   */\n      swap1\n      pop\n        /* \"#utility.yul\":43557:43558   */\n      0x00\n        /* \"#utility.yul\":43597:43657   */\n      tag_898\n        /* \"#utility.yul\":43653:43656   */\n      dup5\n        /* \"#utility.yul\":43644:43650   */\n      dup3\n        /* \"#utility.yul\":43633:43642   */\n      dup6\n        /* \"#utility.yul\":43629:43651   */\n      add\n        /* \"#utility.yul\":43597:43657   */\n      tag_492\n      jump\t// in\n    tag_898:\n        /* \"#utility.yul\":43590:43594   */\n      0x00\n        /* \"#utility.yul\":43583:43588   */\n      dup4\n        /* \"#utility.yul\":43579:43595   */\n      add\n        /* \"#utility.yul\":43572:43658   */\n      mstore\n        /* \"#utility.yul\":43495:43669   */\n      pop\n        /* \"#utility.yul\":43741:43743   */\n      0x20\n        /* \"#utility.yul\":43782:43842   */\n      tag_899\n        /* \"#utility.yul\":43838:43841   */\n      dup5\n        /* \"#utility.yul\":43829:43835   */\n      dup3\n        /* \"#utility.yul\":43818:43827   */\n      dup6\n        /* \"#utility.yul\":43814:43836   */\n      add\n        /* \"#utility.yul\":43782:43842   */\n      tag_492\n      jump\t// in\n    tag_899:\n        /* \"#utility.yul\":43775:43779   */\n      0x20\n        /* \"#utility.yul\":43768:43773   */\n      dup4\n        /* \"#utility.yul\":43764:43780   */\n      add\n        /* \"#utility.yul\":43757:43843   */\n      mstore\n        /* \"#utility.yul\":43679:43854   */\n      pop\n        /* \"#utility.yul\":43226:43861   */\n      swap3\n      swap2\n      pop\n      pop\n      jump\t// out\n        /* \"#utility.yul\":43891:46611   */\n    tag_537:\n        /* \"#utility.yul\":43978:43983   */\n      0x00\n        /* \"#utility.yul\":44022:44028   */\n      0x0300\n        /* \"#utility.yul\":44010:44019   */\n      dup3\n        /* \"#utility.yul\":44005:44008   */\n      dup5\n        /* \"#utility.yul\":44001:44020   */\n      sub\n        /* \"#utility.yul\":43997:44029   */\n      slt\n        /* \"#utility.yul\":43994:44113   */\n      iszero\n      tag_901\n      jumpi\n        /* \"#utility.yul\":44032:44111   */\n      tag_902\n      tag_526\n      jump\t// in\n    tag_902:\n        /* \"#utility.yul\":43994:44113   */\n    tag_901:\n        /* \"#utility.yul\":44131:44154   */\n      tag_903\n        /* \"#utility.yul\":44147:44153   */\n      0x01a0\n        /* \"#utility.yul\":44131:44154   */\n      tag_529\n      jump\t// in\n    tag_903:\n        /* \"#utility.yul\":44122:44154   */\n      swap1\n      pop\n        /* \"#utility.yul\":44211:44212   */\n      0x00\n        /* \"#utility.yul\":44251:44311   */\n      tag_904\n        /* \"#utility.yul\":44307:44310   */\n      dup5\n        /* \"#utility.yul\":44298:44304   */\n      dup3\n        /* \"#utility.yul\":44287:44296   */\n      dup6\n        /* \"#utility.yul\":44283:44305   */\n      add\n        /* \"#utility.yul\":44251:44311   */\n      tag_492\n      jump\t// in\n    tag_904:\n        /* \"#utility.yul\":44244:44248   */\n      0x00\n        /* \"#utility.yul\":44237:44242   */\n      dup4\n        /* \"#utility.yul\":44233:44249   */\n      add\n        /* \"#utility.yul\":44226:44312   */\n      mstore\n        /* \"#utility.yul\":44164:44323   */\n      pop\n        /* \"#utility.yul\":44386:44388   */\n      0x20\n        /* \"#utility.yul\":44427:44487   */\n      tag_905\n        /* \"#utility.yul\":44483:44486   */\n      dup5\n        /* \"#utility.yul\":44474:44480   */\n      dup3\n        /* \"#utility.yul\":44463:44472   */\n      dup6\n        /* \"#utility.yul\":44459:44481   */\n      add\n        /* \"#utility.yul\":44427:44487   */\n      tag_480\n      jump\t// in\n    tag_905:\n        /* \"#utility.yul\":44420:44424   */\n      0x20\n        /* \"#utility.yul\":44413:44418   */\n      dup4\n        /* \"#utility.yul\":44409:44425   */\n      add\n        /* \"#utility.yul\":44402:44488   */\n      mstore\n        /* \"#utility.yul\":44333:44499   */\n      pop\n        /* \"#utility.yul\":44559:44561   */\n      0x40\n        /* \"#utility.yul\":44600:44660   */\n      tag_906\n        /* \"#utility.yul\":44656:44659   */\n      dup5\n        /* \"#utility.yul\":44647:44653   */\n      dup3\n        /* \"#utility.yul\":44636:44645   */\n      dup6\n        /* \"#utility.yul\":44632:44654   */\n      add\n        /* \"#utility.yul\":44600:44660   */\n      tag_480\n      jump\t// in\n    tag_906:\n        /* \"#utility.yul\":44593:44597   */\n      0x40\n        /* \"#utility.yul\":44586:44591   */\n      dup4\n        /* \"#utility.yul\":44582:44598   */\n      add\n        /* \"#utility.yul\":44575:44661   */\n      mstore\n        /* \"#utility.yul\":44509:44672   */\n      pop\n        /* \"#utility.yul\":44744:44746   */\n      0x60\n        /* \"#utility.yul\":44785:44845   */\n      tag_907\n        /* \"#utility.yul\":44841:44844   */\n      dup5\n        /* \"#utility.yul\":44832:44838   */\n      dup3\n        /* \"#utility.yul\":44821:44830   */\n      dup6\n        /* \"#utility.yul\":44817:44839   */\n      add\n        /* \"#utility.yul\":44785:44845   */\n      tag_492\n      jump\t// in\n    tag_907:\n        /* \"#utility.yul\":44778:44782   */\n      0x60\n        /* \"#utility.yul\":44771:44776   */\n      dup4\n        /* \"#utility.yul\":44767:44783   */\n      add\n        /* \"#utility.yul\":44760:44846   */\n      mstore\n        /* \"#utility.yul\":44682:44857   */\n      pop\n        /* \"#utility.yul\":44931:44934   */\n      0x80\n        /* \"#utility.yul\":44973:45033   */\n      tag_908\n        /* \"#utility.yul\":45029:45032   */\n      dup5\n        /* \"#utility.yul\":45020:45026   */\n      dup3\n        /* \"#utility.yul\":45009:45018   */\n      dup6\n        /* \"#utility.yul\":45005:45027   */\n      add\n        /* \"#utility.yul\":44973:45033   */\n      tag_492\n      jump\t// in\n    tag_908:\n        /* \"#utility.yul\":44966:44970   */\n      0x80\n        /* \"#utility.yul\":44959:44964   */\n      dup4\n        /* \"#utility.yul\":44955:44971   */\n      add\n        /* \"#utility.yul\":44948:45034   */\n      mstore\n        /* \"#utility.yul\":44867:45045   */\n      pop\n        /* \"#utility.yul\":45108:45111   */\n      0xa0\n        /* \"#utility.yul\":45150:45210   */\n      tag_909\n        /* \"#utility.yul\":45206:45209   */\n      dup5\n        /* \"#utility.yul\":45197:45203   */\n      dup3\n        /* \"#utility.yul\":45186:45195   */\n      dup6\n        /* \"#utility.yul\":45182:45204   */\n      add\n        /* \"#utility.yul\":45150:45210   */\n      tag_492\n      jump\t// in\n    tag_909:\n        /* \"#utility.yul\":45143:45147   */\n      0xa0\n        /* \"#utility.yul\":45136:45141   */\n      dup4\n        /* \"#utility.yul\":45132:45148   */\n      add\n        /* \"#utility.yul\":45125:45211   */\n      mstore\n        /* \"#utility.yul\":45055:45222   */\n      pop\n        /* \"#utility.yul\":45285:45288   */\n      0xc0\n        /* \"#utility.yul\":45327:45400   */\n      tag_910\n        /* \"#utility.yul\":45396:45399   */\n      dup5\n        /* \"#utility.yul\":45387:45393   */\n      dup3\n        /* \"#utility.yul\":45376:45385   */\n      dup6\n        /* \"#utility.yul\":45372:45394   */\n      add\n        /* \"#utility.yul\":45327:45400   */\n      tag_532\n      jump\t// in\n    tag_910:\n        /* \"#utility.yul\":45320:45324   */\n      0xc0\n        /* \"#utility.yul\":45313:45318   */\n      dup4\n        /* \"#utility.yul\":45309:45325   */\n      add\n        /* \"#utility.yul\":45302:45401   */\n      mstore\n        /* \"#utility.yul\":45232:45412   */\n      pop\n        /* \"#utility.yul\":45487:45490   */\n      0xe0\n        /* \"#utility.yul\":45529:45624   */\n      tag_911\n        /* \"#utility.yul\":45620:45623   */\n      dup5\n        /* \"#utility.yul\":45611:45617   */\n      dup3\n        /* \"#utility.yul\":45600:45609   */\n      dup6\n        /* \"#utility.yul\":45596:45618   */\n      add\n        /* \"#utility.yul\":45529:45624   */\n      tag_535\n      jump\t// in\n    tag_911:\n        /* \"#utility.yul\":45522:45526   */\n      0xe0\n        /* \"#utility.yul\":45515:45520   */\n      dup4\n        /* \"#utility.yul\":45511:45527   */\n      add\n        /* \"#utility.yul\":45504:45625   */\n      mstore\n        /* \"#utility.yul\":45422:45636   */\n      pop\n        /* \"#utility.yul\":45707:45710   */\n      0x01a0\n        /* \"#utility.yul\":45751:45846   */\n      tag_912\n        /* \"#utility.yul\":45842:45845   */\n      dup5\n        /* \"#utility.yul\":45833:45839   */\n      dup3\n        /* \"#utility.yul\":45822:45831   */\n      dup6\n        /* \"#utility.yul\":45818:45840   */\n      add\n        /* \"#utility.yul\":45751:45846   */\n      tag_535\n      jump\t// in\n    tag_912:\n        /* \"#utility.yul\":45742:45748   */\n      0x0100\n        /* \"#utility.yul\":45735:45740   */\n      dup4\n        /* \"#utility.yul\":45731:45749   */\n      add\n        /* \"#utility.yul\":45724:45847   */\n      mstore\n        /* \"#utility.yul\":45646:45858   */\n      pop\n        /* \"#utility.yul\":45922:45925   */\n      0x0260\n        /* \"#utility.yul\":45966:46053   */\n      tag_913\n        /* \"#utility.yul\":46049:46052   */\n      dup5\n        /* \"#utility.yul\":46040:46046   */\n      dup3\n        /* \"#utility.yul\":46029:46038   */\n      dup6\n        /* \"#utility.yul\":46025:46047   */\n      add\n        /* \"#utility.yul\":45966:46053   */\n      tag_536\n      jump\t// in\n    tag_913:\n        /* \"#utility.yul\":45957:45963   */\n      0x0120\n        /* \"#utility.yul\":45950:45955   */\n      dup4\n        /* \"#utility.yul\":45946:45964   */\n      add\n        /* \"#utility.yul\":45939:46054   */\n      mstore\n        /* \"#utility.yul\":45868:46065   */\n      pop\n        /* \"#utility.yul\":46131:46134   */\n      0x02a0\n        /* \"#utility.yul\":46175:46235   */\n      tag_914\n        /* \"#utility.yul\":46231:46234   */\n      dup5\n        /* \"#utility.yul\":46222:46228   */\n      dup3\n        /* \"#utility.yul\":46211:46220   */\n      dup6\n        /* \"#utility.yul\":46207:46229   */\n      add\n        /* \"#utility.yul\":46175:46235   */\n      tag_492\n      jump\t// in\n    tag_914:\n        /* \"#utility.yul\":46166:46172   */\n      0x0140\n        /* \"#utility.yul\":46159:46164   */\n      dup4\n        /* \"#utility.yul\":46155:46173   */\n      add\n        /* \"#utility.yul\":46148:46236   */\n      mstore\n        /* \"#utility.yul\":46075:46247   */\n      pop\n        /* \"#utility.yul\":46312:46315   */\n      0x02c0\n        /* \"#utility.yul\":46356:46416   */\n      tag_915\n        /* \"#utility.yul\":46412:46415   */\n      dup5\n        /* \"#utility.yul\":46403:46409   */\n      dup3\n        /* \"#utility.yul\":46392:46401   */\n      dup6\n        /* \"#utility.yul\":46388:46410   */\n      add\n        /* \"#utility.yul\":46356:46416   */\n      tag_492\n      jump\t// in\n    tag_915:\n        /* \"#utility.yul\":46347:46353   */\n      0x0160\n        /* \"#utility.yul\":46340:46345   */\n      dup4\n        /* \"#utility.yul\":46336:46354   */\n      add\n        /* \"#utility.yul\":46329:46417   */\n      mstore\n        /* \"#utility.yul\":46257:46428   */\n      pop\n        /* \"#utility.yul\":46488:46491   */\n      0x02e0\n        /* \"#utility.yul\":46532:46592   */\n      tag_916\n        /* \"#utility.yul\":46588:46591   */\n      dup5\n        /* \"#utility.yul\":46579:46585   */\n      dup3\n        /* \"#utility.yul\":46568:46577   */\n      dup6\n        /* \"#utility.yul\":46564:46586   */\n      add\n        /* \"#utility.yul\":46532:46592   */\n      tag_492\n      jump\t// in\n    tag_916:\n        /* \"#utility.yul\":46523:46529   */\n      0x0180\n        /* \"#utility.yul\":46516:46521   */\n      dup4\n        /* \"#utility.yul\":46512:46530   */\n      add\n        /* \"#utility.yul\":46505:46593   */\n      mstore\n        /* \"#utility.yul\":46438:46604   */\n      pop\n        /* \"#utility.yul\":43891:46611   */\n      swap3\n      swap2\n      pop\n      pop\n      jump\t// out\n        /* \"#utility.yul\":46640:48165   */\n    tag_538:\n        /* \"#utility.yul\":46726:46731   */\n      0x00\n        /* \"#utility.yul\":46770:46776   */\n      0x03c0\n        /* \"#utility.yul\":46758:46767   */\n      dup3\n        /* \"#utility.yul\":46753:46756   */\n      dup5\n        /* \"#utility.yul\":46749:46768   */\n      sub\n        /* \"#utility.yul\":46745:46777   */\n      slt\n        /* \"#utility.yul\":46742:46861   */\n      iszero\n      tag_918\n      jumpi\n        /* \"#utility.yul\":46780:46859   */\n      tag_919\n      tag_526\n      jump\t// in\n    tag_919:\n        /* \"#utility.yul\":46742:46861   */\n    tag_918:\n        /* \"#utility.yul\":46879:46900   */\n      tag_920\n        /* \"#utility.yul\":46895:46899   */\n      0xe0\n        /* \"#utility.yul\":46879:46900   */\n      tag_529\n      jump\t// in\n    tag_920:\n        /* \"#utility.yul\":46870:46900   */\n      swap1\n      pop\n        /* \"#utility.yul\":46957:46958   */\n      0x00\n        /* \"#utility.yul\":46997:47057   */\n      tag_921\n        /* \"#utility.yul\":47053:47056   */\n      dup5\n        /* \"#utility.yul\":47044:47050   */\n      dup3\n        /* \"#utility.yul\":47033:47042   */\n      dup6\n        /* \"#utility.yul\":47029:47051   */\n      add\n        /* \"#utility.yul\":46997:47057   */\n      tag_492\n      jump\t// in\n    tag_921:\n        /* \"#utility.yul\":46990:46994   */\n      0x00\n        /* \"#utility.yul\":46983:46988   */\n      dup4\n        /* \"#utility.yul\":46979:46995   */\n      add\n        /* \"#utility.yul\":46972:47058   */\n      mstore\n        /* \"#utility.yul\":46910:47069   */\n      pop\n        /* \"#utility.yul\":47131:47133   */\n      0x20\n        /* \"#utility.yul\":47172:47232   */\n      tag_922\n        /* \"#utility.yul\":47228:47231   */\n      dup5\n        /* \"#utility.yul\":47219:47225   */\n      dup3\n        /* \"#utility.yul\":47208:47217   */\n      dup6\n        /* \"#utility.yul\":47204:47226   */\n      add\n        /* \"#utility.yul\":47172:47232   */\n      tag_480\n      jump\t// in\n    tag_922:\n        /* \"#utility.yul\":47165:47169   */\n      0x20\n        /* \"#utility.yul\":47158:47163   */\n      dup4\n        /* \"#utility.yul\":47154:47170   */\n      add\n        /* \"#utility.yul\":47147:47233   */\n      mstore\n        /* \"#utility.yul\":47079:47244   */\n      pop\n        /* \"#utility.yul\":47304:47306   */\n      0x40\n        /* \"#utility.yul\":47345:47405   */\n      tag_923\n        /* \"#utility.yul\":47401:47404   */\n      dup5\n        /* \"#utility.yul\":47392:47398   */\n      dup3\n        /* \"#utility.yul\":47381:47390   */\n      dup6\n        /* \"#utility.yul\":47377:47399   */\n      add\n        /* \"#utility.yul\":47345:47405   */\n      tag_480\n      jump\t// in\n    tag_923:\n        /* \"#utility.yul\":47338:47342   */\n      0x40\n        /* \"#utility.yul\":47331:47336   */\n      dup4\n        /* \"#utility.yul\":47327:47343   */\n      add\n        /* \"#utility.yul\":47320:47406   */\n      mstore\n        /* \"#utility.yul\":47254:47417   */\n      pop\n        /* \"#utility.yul\":47477:47479   */\n      0x60\n        /* \"#utility.yul\":47518:47578   */\n      tag_924\n        /* \"#utility.yul\":47574:47577   */\n      dup5\n        /* \"#utility.yul\":47565:47571   */\n      dup3\n        /* \"#utility.yul\":47554:47563   */\n      dup6\n        /* \"#utility.yul\":47550:47572   */\n      add\n        /* \"#utility.yul\":47518:47578   */\n      tag_480\n      jump\t// in\n    tag_924:\n        /* \"#utility.yul\":47511:47515   */\n      0x60\n        /* \"#utility.yul\":47504:47509   */\n      dup4\n        /* \"#utility.yul\":47500:47516   */\n      add\n        /* \"#utility.yul\":47493:47579   */\n      mstore\n        /* \"#utility.yul\":47427:47590   */\n      pop\n        /* \"#utility.yul\":47657:47660   */\n      0x80\n        /* \"#utility.yul\":47699:47759   */\n      tag_925\n        /* \"#utility.yul\":47755:47758   */\n      dup5\n        /* \"#utility.yul\":47746:47752   */\n      dup3\n        /* \"#utility.yul\":47735:47744   */\n      dup6\n        /* \"#utility.yul\":47731:47753   */\n      add\n        /* \"#utility.yul\":47699:47759   */\n      tag_492\n      jump\t// in\n    tag_925:\n        /* \"#utility.yul\":47692:47696   */\n      0x80\n        /* \"#utility.yul\":47685:47690   */\n      dup4\n        /* \"#utility.yul\":47681:47697   */\n      add\n        /* \"#utility.yul\":47674:47760   */\n      mstore\n        /* \"#utility.yul\":47600:47771   */\n      pop\n        /* \"#utility.yul\":47841:47844   */\n      0xa0\n        /* \"#utility.yul\":47883:47943   */\n      tag_926\n        /* \"#utility.yul\":47939:47942   */\n      dup5\n        /* \"#utility.yul\":47930:47936   */\n      dup3\n        /* \"#utility.yul\":47919:47928   */\n      dup6\n        /* \"#utility.yul\":47915:47937   */\n      add\n        /* \"#utility.yul\":47883:47943   */\n      tag_492\n      jump\t// in\n    tag_926:\n        /* \"#utility.yul\":47876:47880   */\n      0xa0\n        /* \"#utility.yul\":47869:47874   */\n      dup4\n        /* \"#utility.yul\":47865:47881   */\n      add\n        /* \"#utility.yul\":47858:47944   */\n      mstore\n        /* \"#utility.yul\":47781:47955   */\n      pop\n        /* \"#utility.yul\":48017:48020   */\n      0xc0\n        /* \"#utility.yul\":48059:48146   */\n      tag_927\n        /* \"#utility.yul\":48142:48145   */\n      dup5\n        /* \"#utility.yul\":48133:48139   */\n      dup3\n        /* \"#utility.yul\":48122:48131   */\n      dup6\n        /* \"#utility.yul\":48118:48140   */\n      add\n        /* \"#utility.yul\":48059:48146   */\n      tag_537\n      jump\t// in\n    tag_927:\n        /* \"#utility.yul\":48052:48056   */\n      0xc0\n        /* \"#utility.yul\":48045:48050   */\n      dup4\n        /* \"#utility.yul\":48041:48057   */\n      add\n        /* \"#utility.yul\":48034:48147   */\n      mstore\n        /* \"#utility.yul\":47965:48158   */\n      pop\n        /* \"#utility.yul\":46640:48165   */\n      swap3\n      swap2\n      pop\n      pop\n      jump\t// out\n        /* \"#utility.yul\":48171:48575   */\n    tag_369:\n        /* \"#utility.yul\":48267:48273   */\n      0x00\n        /* \"#utility.yul\":48316:48319   */\n      0x03c0\n        /* \"#utility.yul\":48304:48313   */\n      dup3\n        /* \"#utility.yul\":48295:48302   */\n      dup5\n        /* \"#utility.yul\":48291:48314   */\n      sub\n        /* \"#utility.yul\":48287:48320   */\n      slt\n        /* \"#utility.yul\":48284:48404   */\n      iszero\n      tag_929\n      jumpi\n        /* \"#utility.yul\":48323:48402   */\n      tag_930\n      tag_444\n      jump\t// in\n    tag_930:\n        /* \"#utility.yul\":48284:48404   */\n    tag_929:\n        /* \"#utility.yul\":48443:48444   */\n      0x00\n        /* \"#utility.yul\":48468:48558   */\n      tag_931\n        /* \"#utility.yul\":48550:48557   */\n      dup5\n        /* \"#utility.yul\":48541:48547   */\n      dup3\n        /* \"#utility.yul\":48530:48539   */\n      dup6\n        /* \"#utility.yul\":48526:48548   */\n      add\n        /* \"#utility.yul\":48468:48558   */\n      tag_538\n      jump\t// in\n    tag_931:\n        /* \"#utility.yul\":48458:48558   */\n      swap2\n      pop\n        /* \"#utility.yul\":48414:48568   */\n      pop\n        /* \"#utility.yul\":48171:48575   */\n      swap3\n      swap2\n      pop\n      pop\n      jump\t// out\n        /* \"#utility.yul\":48581:48698   */\n    tag_539:\n        /* \"#utility.yul\":48665:48667   */\n      0x0a\n        /* \"#utility.yul\":48658:48663   */\n      dup2\n        /* \"#utility.yul\":48655:48668   */\n      lt\n        /* \"#utility.yul\":48645:48692   */\n      tag_933\n      jumpi\n        /* \"#utility.yul\":48672:48690   */\n      tag_934\n      tag_107\n      jump\t// in\n    tag_934:\n        /* \"#utility.yul\":48645:48692   */\n    tag_933:\n        /* \"#utility.yul\":48581:48698   */\n      pop\n      jump\t// out\n        /* \"#utility.yul\":48704:48837   */\n    tag_540:\n        /* \"#utility.yul\":48752:48759   */\n      0x00\n        /* \"#utility.yul\":48781:48786   */\n      dup2\n        /* \"#utility.yul\":48770:48786   */\n      swap1\n      pop\n        /* \"#utility.yul\":48787:48831   */\n      tag_936\n        /* \"#utility.yul\":48825:48830   */\n      dup3\n        /* \"#utility.yul\":48787:48831   */\n      tag_539\n      jump\t// in\n    tag_936:\n        /* \"#utility.yul\":48704:48837   */\n      swap2\n      swap1\n      pop\n      jump\t// out\n        /* \"#utility.yul\":48843:48976   */\n    tag_541:\n        /* \"#utility.yul\":48902:48911   */\n      0x00\n        /* \"#utility.yul\":48935:48970   */\n      tag_938\n        /* \"#utility.yul\":48964:48969   */\n      dup3\n        /* \"#utility.yul\":48935:48970   */\n      tag_540\n      jump\t// in\n    tag_938:\n        /* \"#utility.yul\":48922:48970   */\n      swap1\n      pop\n        /* \"#utility.yul\":48843:48976   */\n      swap2\n      swap1\n      pop\n      jump\t// out\n        /* \"#utility.yul\":48982:49131   */\n    tag_542:\n        /* \"#utility.yul\":49078:49124   */\n      tag_940\n        /* \"#utility.yul\":49118:49123   */\n      dup2\n        /* \"#utility.yul\":49078:49124   */\n      tag_541\n      jump\t// in\n    tag_940:\n        /* \"#utility.yul\":49073:49076   */\n      dup3\n        /* \"#utility.yul\":49066:49125   */\n      mstore\n        /* \"#utility.yul\":48982:49131   */\n      pop\n      pop\n      jump\t// out\n        /* \"#utility.yul\":49137:49254   */\n    tag_543:\n        /* \"#utility.yul\":49222:49223   */\n      0x06\n        /* \"#utility.yul\":49215:49220   */\n      dup2\n        /* \"#utility.yul\":49212:49224   */\n      lt\n        /* \"#utility.yul\":49202:49248   */\n      tag_942\n      jumpi\n        /* \"#utility.yul\":49228:49246   */\n      tag_943\n      tag_107\n      jump\t// in\n    tag_943:\n        /* \"#utility.yul\":49202:49248   */\n    tag_942:\n        /* \"#utility.yul\":49137:49254   */\n      pop\n      jump\t// out\n        /* \"#utility.yul\":49260:49395   */\n    tag_544:\n        /* \"#utility.yul\":49309:49316   */\n      0x00\n        /* \"#utility.yul\":49338:49343   */\n      dup2\n        /* \"#utility.yul\":49327:49343   */\n      swap1\n      pop\n        /* \"#utility.yul\":49344:49389   */\n      tag_945\n        /* \"#utility.yul\":49383:49388   */\n      dup3\n        /* \"#utility.yul\":49344:49389   */\n      tag_543\n      jump\t// in\n    tag_945:\n        /* \"#utility.yul\":49260:49395   */\n      swap2\n      swap1\n      pop\n      jump\t// out\n        /* \"#utility.yul\":49401:49536   */\n    tag_545:\n        /* \"#utility.yul\":49461:49470   */\n      0x00\n        /* \"#utility.yul\":49494:49530   */\n      tag_947\n        /* \"#utility.yul\":49524:49529   */\n      dup3\n        /* \"#utility.yul\":49494:49530   */\n      tag_544\n      jump\t// in\n    tag_947:\n        /* \"#utility.yul\":49481:49530   */\n      swap1\n      pop\n        /* \"#utility.yul\":49401:49536   */\n      swap2\n      swap1\n      pop\n      jump\t// out\n        /* \"#utility.yul\":49542:49693   */\n    tag_546:\n        /* \"#utility.yul\":49639:49686   */\n      tag_949\n        /* \"#utility.yul\":49680:49685   */\n      dup2\n        /* \"#utility.yul\":49639:49686   */\n      tag_545\n      jump\t// in\n    tag_949:\n        /* \"#utility.yul\":49634:49637   */\n      dup3\n        /* \"#utility.yul\":49627:49687   */\n      mstore\n        /* \"#utility.yul\":49542:49693   */\n      pop\n      pop\n      jump\t// out\n        /* \"#utility.yul\":49699:50512   */\n    tag_376:\n        /* \"#utility.yul\":49951:49955   */\n      0x00\n        /* \"#utility.yul\":49989:49992   */\n      0xc0\n        /* \"#utility.yul\":49978:49987   */\n      dup3\n        /* \"#utility.yul\":49974:49993   */\n      add\n        /* \"#utility.yul\":49966:49993   */\n      swap1\n      pop\n        /* \"#utility.yul\":50003:50083   */\n      tag_951\n        /* \"#utility.yul\":50080:50081   */\n      0x00\n        /* \"#utility.yul\":50069:50078   */\n      dup4\n        /* \"#utility.yul\":50065:50082   */\n      add\n        /* \"#utility.yul\":50056:50062   */\n      dup10\n        /* \"#utility.yul\":50003:50083   */\n      tag_542\n      jump\t// in\n    tag_951:\n        /* \"#utility.yul\":50093:50175   */\n      tag_952\n        /* \"#utility.yul\":50171:50173   */\n      0x20\n        /* \"#utility.yul\":50160:50169   */\n      dup4\n        /* \"#utility.yul\":50156:50174   */\n      add\n        /* \"#utility.yul\":50147:50153   */\n      dup9\n        /* \"#utility.yul\":50093:50175   */\n      tag_546\n      jump\t// in\n    tag_952:\n        /* \"#utility.yul\":50185:50257   */\n      tag_953\n        /* \"#utility.yul\":50253:50255   */\n      0x40\n        /* \"#utility.yul\":50242:50251   */\n      dup4\n        /* \"#utility.yul\":50238:50256   */\n      add\n        /* \"#utility.yul\":50229:50235   */\n      dup8\n        /* \"#utility.yul\":50185:50257   */\n      tag_437\n      jump\t// in\n    tag_953:\n        /* \"#utility.yul\":50267:50339   */\n      tag_954\n        /* \"#utility.yul\":50335:50337   */\n      0x60\n        /* \"#utility.yul\":50324:50333   */\n      dup4\n        /* \"#utility.yul\":50320:50338   */\n      add\n        /* \"#utility.yul\":50311:50317   */\n      dup7\n        /* \"#utility.yul\":50267:50339   */\n      tag_491\n      jump\t// in\n    tag_954:\n        /* \"#utility.yul\":50349:50422   */\n      tag_955\n        /* \"#utility.yul\":50417:50420   */\n      0x80\n        /* \"#utility.yul\":50406:50415   */\n      dup4\n        /* \"#utility.yul\":50402:50421   */\n      add\n        /* \"#utility.yul\":50393:50399   */\n      dup6\n        /* \"#utility.yul\":50349:50422   */\n      tag_437\n      jump\t// in\n    tag_955:\n        /* \"#utility.yul\":50432:50505   */\n      tag_956\n        /* \"#utility.yul\":50500:50503   */\n      0xa0\n        /* \"#utility.yul\":50489:50498   */\n      dup4\n        /* \"#utility.yul\":50485:50504   */\n      add\n        /* \"#utility.yul\":50476:50482   */\n      dup5\n        /* \"#utility.yul\":50432:50505   */\n      tag_491\n      jump\t// in\n    tag_956:\n        /* \"#utility.yul\":49699:50512   */\n      swap8\n      swap7\n      pop\n      pop\n      pop\n      pop\n      pop\n      pop\n      pop\n      jump\t// out\n        /* \"#utility.yul\":50518:50928   */\n    tag_393:\n        /* \"#utility.yul\":50558:50565   */\n      0x00\n        /* \"#utility.yul\":50581:50601   */\n      tag_958\n        /* \"#utility.yul\":50599:50600   */\n      dup3\n        /* \"#utility.yul\":50581:50601   */\n      tag_436\n      jump\t// in\n    tag_958:\n        /* \"#utility.yul\":50576:50601   */\n      swap2\n      pop\n        /* \"#utility.yul\":50615:50635   */\n      tag_959\n        /* \"#utility.yul\":50633:50634   */\n      dup4\n        /* \"#utility.yul\":50615:50635   */\n      tag_436\n      jump\t// in\n    tag_959:\n        /* \"#utility.yul\":50610:50635   */\n      swap3\n      pop\n        /* \"#utility.yul\":50670:50671   */\n      dup3\n        /* \"#utility.yul\":50667:50668   */\n      dup3\n        /* \"#utility.yul\":50663:50672   */\n      mul\n        /* \"#utility.yul\":50692:50722   */\n      tag_960\n        /* \"#utility.yul\":50710:50721   */\n      dup2\n        /* \"#utility.yul\":50692:50722   */\n      tag_436\n      jump\t// in\n    tag_960:\n        /* \"#utility.yul\":50681:50722   */\n      swap2\n      pop\n        /* \"#utility.yul\":50871:50872   */\n      dup3\n        /* \"#utility.yul\":50862:50869   */\n      dup3\n        /* \"#utility.yul\":50858:50873   */\n      div\n        /* \"#utility.yul\":50855:50856   */\n      dup5\n        /* \"#utility.yul\":50852:50874   */\n      eq\n        /* \"#utility.yul\":50832:50833   */\n      dup4\n        /* \"#utility.yul\":50825:50834   */\n      iszero\n        /* \"#utility.yul\":50805:50888   */\n      or\n        /* \"#utility.yul\":50782:50921   */\n      tag_961\n      jumpi\n        /* \"#utility.yul\":50901:50919   */\n      tag_962\n      tag_505\n      jump\t// in\n    tag_962:\n        /* \"#utility.yul\":50782:50921   */\n    tag_961:\n        /* \"#utility.yul\":50566:50928   */\n      pop\n        /* \"#utility.yul\":50518:50928   */\n      swap3\n      swap2\n      pop\n      pop\n      jump\t// out\n        /* \"#utility.yul\":50934:51106   */\n    tag_547:\n        /* \"#utility.yul\":51074:51098   */\n      0x636f6e747269627574696f6e206d69732d6d6174636800000000000000000000\n        /* \"#utility.yul\":51070:51071   */\n      0x00\n        /* \"#utility.yul\":51062:51068   */\n      dup3\n        /* \"#utility.yul\":51058:51072   */\n      add\n        /* \"#utility.yul\":51051:51099   */\n      mstore\n        /* \"#utility.yul\":50934:51106   */\n      pop\n      jump\t// out\n        /* \"#utility.yul\":51112:51478   */\n    tag_548:\n        /* \"#utility.yul\":51254:51257   */\n      0x00\n        /* \"#utility.yul\":51275:51342   */\n      tag_965\n        /* \"#utility.yul\":51339:51341   */\n      0x16\n        /* \"#utility.yul\":51334:51337   */\n      dup4\n        /* \"#utility.yul\":51275:51342   */\n      tag_439\n      jump\t// in\n    tag_965:\n        /* \"#utility.yul\":51268:51342   */\n      swap2\n      pop\n        /* \"#utility.yul\":51351:51444   */\n      tag_966\n        /* \"#utility.yul\":51440:51443   */\n      dup3\n        /* \"#utility.yul\":51351:51444   */\n      tag_547\n      jump\t// in\n    tag_966:\n        /* \"#utility.yul\":51469:51471   */\n      0x20\n        /* \"#utility.yul\":51464:51467   */\n      dup3\n        /* \"#utility.yul\":51460:51472   */\n      add\n        /* \"#utility.yul\":51453:51472   */\n      swap1\n      pop\n        /* \"#utility.yul\":51112:51478   */\n      swap2\n      swap1\n      pop\n      jump\t// out\n        /* \"#utility.yul\":51484:51903   */\n    tag_415:\n        /* \"#utility.yul\":51650:51654   */\n      0x00\n        /* \"#utility.yul\":51688:51690   */\n      0x20\n        /* \"#utility.yul\":51677:51686   */\n      dup3\n        /* \"#utility.yul\":51673:51691   */\n      add\n        /* \"#utility.yul\":51665:51691   */\n      swap1\n      pop\n        /* \"#utility.yul\":51737:51746   */\n      dup2\n        /* \"#utility.yul\":51731:51735   */\n      dup2\n        /* \"#utility.yul\":51727:51747   */\n      sub\n        /* \"#utility.yul\":51723:51724   */\n      0x00\n        /* \"#utility.yul\":51712:51721   */\n      dup4\n        /* \"#utility.yul\":51708:51725   */\n      add\n        /* \"#utility.yul\":51701:51748   */\n      mstore\n        /* \"#utility.yul\":51765:51896   */\n      tag_968\n        /* \"#utility.yul\":51891:51895   */\n      dup2\n        /* \"#utility.yul\":51765:51896   */\n      tag_548\n      jump\t// in\n    tag_968:\n        /* \"#utility.yul\":51757:51896   */\n      swap1\n      pop\n        /* \"#utility.yul\":51484:51903   */\n      swap2\n      swap1\n      pop\n      jump\t// out\n\n    auxdata: 0xa26469706673582212201b5ee906dfaac17a2a3bb3f53fd6210446c9a95524b534225d87668ff6e5315a64736f6c634300081e0033\n}\n",
				"bytecode": {
					"linkReferences": {},
					"object": "60c06040525f5f5f6101000a81548160ff021916908315150217905550348015610027575f5ffd5b50604051614273380380614273833981810160405281019061004991906101af565b815f60036101000a81548173ffffffffffffffffffffffffffffffffffffffff021916908373ffffffffffffffffffffffffffffffffffffffff16021790555080608081815250505f5f60016101000a81548160ff021916908360038111156100b5576100b46101ed565b5b02179055505f5f60026101000a81548160ff021916908360028111156100de576100dd6101ed565b5b02179055503073ffffffffffffffffffffffffffffffffffffffff1660a08173ffffffffffffffffffffffffffffffffffffffff1681525050505061021a565b5f5ffd5b5f73ffffffffffffffffffffffffffffffffffffffff82169050919050565b5f61014b82610122565b9050919050565b61015b81610141565b8114610165575f5ffd5b50565b5f8151905061017681610152565b92915050565b5f819050919050565b61018e8161017c565b8114610198575f5ffd5b50565b5f815190506101a981610185565b92915050565b5f5f604083850312156101c5576101c461011e565b5b5f6101d285828601610168565b92505060206101e38582860161019b565b9150509250929050565b7f4e487b71000000000000000000000000000000000000000000000000000000005f52602160045260245ffd5b60805160a051613ff26102815f395f8181610726015281816107d5015281816110af015281816111520152818161164a01528181611a1b015261238301525f81816108db01528181610d4b01528181611712015281816120d301526122140152613ff25ff3fe6080604052600436106100dc575f3560e01c8063734880181161007e578063b8c8933811610058578063b8c89338146102af578063c1cbbca7146102eb578063cde4c10c1461031b578063e77ef21f14610345576100dc565b8063734880181461022b578063805275a2146102555780639f08c7551461027f576100dc565b806343d726d6116100ba57806343d726d61461015e5780634d0392a8146101885780634e69d560146101c557806351cff8d9146101ef576100dc565b80630d8e6e2c146100e057806312065fe01461010a57806317d7de7c14610134575b5f5ffd5b3480156100eb575f5ffd5b506100f461036f565b60405161010191906128b0565b60405180910390f35b348015610115575f5ffd5b5061011e610377565b60405161012b91906128b0565b60405180910390f35b34801561013f575f5ffd5b50610148610380565b6040516101559190612939565b60405180910390f35b348015610169575f5ffd5b506101726103bd565b60405161017f91906128b0565b60405180910390f35b348015610193575f5ffd5b506101ae60048036038101906101a99190612990565b610910565b6040516101bc9291906129bb565b60405180910390f35b3480156101d0575f5ffd5b506101d9610dcf565b6040516101e69190612a55565b60405180910390f35b3480156101fa575f5ffd5b5061021560048036038101906102109190612ac8565b610de4565b60405161022291906128b0565b60405180910390f35b348015610236575f5ffd5b5061023f611252565b60405161024c9190612dd9565b60405180910390f35b348015610260575f5ffd5b50610269611267565b6040516102769190612e73565b60405180910390f35b61029960048036038101906102949190612e8c565b6112c2565b6040516102a691906128b0565b60405180910390f35b3480156102ba575f5ffd5b506102d560048036038101906102d09190612990565b6117b6565b6040516102e29190612f84565b60405180910390f35b61030560048036038101906103009190612990565b61181d565b60405161031291906128b0565b60405180910390f35b348015610326575f5ffd5b5061032f611a90565b60405161033c9190612fb3565b60405180910390f35b348015610350575f5ffd5b50610359611ce0565b60405161036691906128b0565b60405180910390f35b5f6012905090565b5f600154905090565b60606040518060400160405280601781526020017f4d4544414c4c494f4e5f50454e53494f4e5f5641554c54000000000000000000815250905090565b5f5f60039054906101000a900473ffffffffffffffffffffffffffffffffffffffff1673ffffffffffffffffffffffffffffffffffffffff1663bf40fac16040518060400160405280601181526020017f52455345525645445f4d505f41444d494e0000000000000000000000000000008152506040518263ffffffff1660e01b815260040161044d9190612939565b602060405180830381865afa158015610468573d5f5f3e3d5ffd5b505050506040513d601f19601f8201168201806040525081019061048c9190612fe0565b73ffffffffffffffffffffffffffffffffffffffff163373ffffffffffffffffffffffffffffffffffffffff16146104f9576040517f08c379a00000000000000000000000000000000000000000000000000000000081526004016104f090613055565b60405180910390fd5b5f5f9054906101000a900460ff1615610547576040517f08c379a000000000000000000000000000000000000000000000000000000000815260040161053e906130bd565b60405180910390fd5b6002600381111561055b5761055a6129e2565b5b5f60019054906101000a900460ff16600381111561057c5761057b6129e2565b5b036105bc576040517f08c379a00000000000000000000000000000000000000000000000000000000081526004016105b390613125565b60405180910390fd5b5f6105c5612121565b9050600260038111156105db576105da6129e2565b5b5f60019054906101000a900460ff1660038111156105fc576105fb6129e2565b5b0361063c576040517f08c379a00000000000000000000000000000000000000000000000000000000081526004016106339061318d565b60405180910390fd5b60036004015f9054906101000a900460ff161561068e576040517f08c379a0000000000000000000000000000000000000000000000000000000008152600401610685906131f5565b60405180910390fd5b60015f5f6101000a81548160ff02191690831515021790555060025f60016101000a81548160ff021916908360038111156106cc576106cb6129e2565b5b02179055505f5f905073eeeeeeeeeeeeeeeeeeeeeeeeeeeeeeeeeeeeeeee73ffffffffffffffffffffffffffffffffffffffff168260c001516040015173ffffffffffffffffffffffffffffffffffffffff16036107ab577f000000000000000000000000000000000000000000000000000000000000000073ffffffffffffffffffffffffffffffffffffffff16319050816040015173ffffffffffffffffffffffffffffffffffffffff166108fc8290811502906040515f60405180830381858888f193505050501580156107a5573d5f5f3e3d5ffd5b506108d3565b5f8260c001516040015190508073ffffffffffffffffffffffffffffffffffffffff166370a082317f00000000000000000000000000000000000000000000000000000000000000006040518263ffffffff1660e01b81526004016108109190613222565b602060405180830381865afa15801561082b573d5f5f3e3d5ffd5b505050506040513d601f19601f8201168201806040525081019061084f919061324f565b91508073ffffffffffffffffffffffffffffffffffffffff1663a9059cbb8460400151846040518363ffffffff1660e01b815260040161089092919061327a565b6020604051808303815f875af11580156108ac573d5f5f3e3d5ffd5b505050506040513d601f19601f820116820180604052508101906108d091906132cb565b50505b61090960075f7f0000000000000000000000000000000000000000000000000000000000000000848660c0015160400151612294565b9250505090565b5f5f5f5f9054906101000a900460ff1615610960576040517f08c379a0000000000000000000000000000000000000000000000000000000008152600401610957906130bd565b60405180910390fd5b60026003811115610974576109736129e2565b5b5f60019054906101000a900460ff166003811115610995576109946129e2565b5b036109d5576040517f08c379a00000000000000000000000000000000000000000000000000000000081526004016109cc90613125565b60405180910390fd5b5f60039054906101000a900473ffffffffffffffffffffffffffffffffffffffff1673ffffffffffffffffffffffffffffffffffffffff1663bf40fac16040518060400160405280601481526020017f52455345525645445f4d505f54524541535552590000000000000000000000008152506040518263ffffffff1660e01b8152600401610a649190612939565b602060405180830381865afa158015610a7f573d5f5f3e3d5ffd5b505050506040513d601f19601f82011682018060405250810190610aa39190612fe0565b73ffffffffffffffffffffffffffffffffffffffff163373ffffffffffffffffffffffffffffffffffffffff1614610b10576040517f08c379a0000000000000000000000000000000000000000000000000000000008152600401610b0790613340565b60405180910390fd5b5f610b19612121565b90505f6003811115610b2e57610b2d6129e2565b5b5f60019054906101000a900460ff166003811115610b4f57610b4e6129e2565b5b14610b8f576040517f08c379a0000000000000000000000000000000000000000000000000000000008152600401610b86906133a8565b60405180910390fd5b60015f5f6101000a81548160ff02191690831515021790555060036004015f9054906101000a900460ff1615610bfa576040517f08c379a0000000000000000000000000000000000000000000000000000000008152600401610bf190613410565b60405180910390fd5b600160036004015f6101000a81548160ff02191690831515021790555060015492508260038001819055505f8160c0015160400151905073eeeeeeeeeeeeeeeeeeeeeeeeeeeeeeeeeeeeeeee73ffffffffffffffffffffffffffffffffffffffff168173ffffffffffffffffffffffffffffffffffffffff1603610cc1573373ffffffffffffffffffffffffffffffffffffffff166108fc8590811502906040515f60405180830381858888f19350505050158015610cbb573d5f5f3e3d5ffd5b50610d43565b5f8190508073ffffffffffffffffffffffffffffffffffffffff1663095ea7b333876040518363ffffffff1660e01b8152600401610d0092919061327a565b6020604051808303815f875af1158015610d1c573d5f5f3e3d5ffd5b505050506040513d601f19601f82011682018060405250810190610d4091906132cb565b50505b610d7960035f7f0000000000000000000000000000000000000000000000000000000000000000878660c0015160400151612294565b925060085f8681526020019081526020015f2083908060018154018082558091505060019003905f5260205f20015f90919091909150555f5f5f6101000a81548160ff0219169083151502179055505050915091565b5f5f60019054906101000a900460ff16905090565b5f5f60039054906101000a900473ffffffffffffffffffffffffffffffffffffffff1673ffffffffffffffffffffffffffffffffffffffff1663bf40fac16040518060400160405280601181526020017f52455345525645445f4d505f41444d494e0000000000000000000000000000008152506040518263ffffffff1660e01b8152600401610e749190612939565b602060405180830381865afa158015610e8f573d5f5f3e3d5ffd5b505050506040513d601f19601f82011682018060405250810190610eb39190612fe0565b73ffffffffffffffffffffffffffffffffffffffff163373ffffffffffffffffffffffffffffffffffffffff1614610f20576040517f08c379a0000000000000000000000000000000000000000000000000000000008152600401610f1790613055565b60405180910390fd5b60026003811115610f3457610f336129e2565b5b5f60019054906101000a900460ff166003811115610f5557610f546129e2565b5b14610f95576040517f08c379a0000000000000000000000000000000000000000000000000000000008152600401610f8c90613478565b60405180910390fd5b5f5f60039054906101000a900473ffffffffffffffffffffffffffffffffffffffff1673ffffffffffffffffffffffffffffffffffffffff1663bf40fac16040518060400160405280601081526020017f52455345525645445f4d505f42414e4b000000000000000000000000000000008152506040518263ffffffff1660e01b81526004016110259190612939565b602060405180830381865afa158015611040573d5f5f3e3d5ffd5b505050506040513d601f19601f820116820180604052508101906110649190612fe0565b905073eeeeeeeeeeeeeeeeeeeeeeeeeeeeeeeeeeeeeeee73ffffffffffffffffffffffffffffffffffffffff168373ffffffffffffffffffffffffffffffffffffffff1603611130577f000000000000000000000000000000000000000000000000000000000000000073ffffffffffffffffffffffffffffffffffffffff163191508073ffffffffffffffffffffffffffffffffffffffff166108fc8390811502906040515f60405180830381858888f1935050505015801561112a573d5f5f3e3d5ffd5b5061124c565b5f8390508073ffffffffffffffffffffffffffffffffffffffff166370a082317f00000000000000000000000000000000000000000000000000000000000000006040518263ffffffff1660e01b815260040161118d9190613222565b602060405180830381865afa1580156111a8573d5f5f3e3d5ffd5b505050506040513d601f19601f820116820180604052508101906111cc919061324f565b92508073ffffffffffffffffffffffffffffffffffffffff1663a9059cbb83856040518363ffffffff1660e01b815260040161120992919061327a565b6020604051808303815f875af1158015611225573d5f5f3e3d5ffd5b505050506040513d601f19601f8201168201806040525081019061124991906132cb565b50505b50919050565b61125a6126e5565b611262612121565b905090565b61126f612764565b60036040518060a00160405290815f8201548152602001600182015481526020016002820154815260200160038201548152602001600482015f9054906101000a900460ff161515151581525050905090565b5f5f5f9054906101000a900460ff1615611311576040517f08c379a0000000000000000000000000000000000000000000000000000000008152600401611308906130bd565b60405180910390fd5b60026003811115611325576113246129e2565b5b5f60019054906101000a900460ff166003811115611346576113456129e2565b5b03611386576040517f08c379a000000000000000000000000000000000000000000000000000000000815260040161137d90613125565b60405180910390fd5b5f60039054906101000a900473ffffffffffffffffffffffffffffffffffffffff1673ffffffffffffffffffffffffffffffffffffffff1663bf40fac16040518060400160405280601481526020017f52455345525645445f4d505f54524541535552590000000000000000000000008152506040518263ffffffff1660e01b81526004016114159190612939565b602060405180830381865afa158015611430573d5f5f3e3d5ffd5b505050506040513d601f19601f820116820180604052508101906114549190612fe0565b73ffffffffffffffffffffffffffffffffffffffff163373ffffffffffffffffffffffffffffffffffffffff16146114c1576040517f08c379a00000000000000000000000000000000000000000000000000000000081526004016114b890613340565b60405180910390fd5b60015f5f6101000a81548160ff0219169083151502179055505f6114e3612121565b9050600380015484101561152c576040517f08c379a0000000000000000000000000000000000000000000000000000000008152600401611523906134e0565b60405180910390fd5b5f8385611539919061352b565b905060036004015f9054906101000a900460ff1661158c576040517f08c379a0000000000000000000000000000000000000000000000000000000008152600401611583906135a8565b60405180910390fd5b5f8260c0015160400151905073eeeeeeeeeeeeeeeeeeeeeeeeeeeeeeeeeeeeeeee73ffffffffffffffffffffffffffffffffffffffff168173ffffffffffffffffffffffffffffffffffffffff16036116275781341015611622576040517f08c379a000000000000000000000000000000000000000000000000000000000815260040161161990613610565b60405180910390fd5b6116cb565b5f8190508073ffffffffffffffffffffffffffffffffffffffff166323b872dd337f0000000000000000000000000000000000000000000000000000000000000000866040518463ffffffff1660e01b81526004016116889392919061362e565b6020604051808303815f875af11580156116a4573d5f5f3e3d5ffd5b505050506040513d601f19601f820116820180604052508101906116c891906132cb565b50505b5f60038001546001546116de9190613663565b9050856003800154826116f1919061352b565b6116fb919061352b565b60018190555061170a84612410565b61174060015f7f0000000000000000000000000000000000000000000000000000000000000000868860c0015160400151612294565b945060085f8981526020019081526020015f2085908060018154018082558091505060019003905f5260205f20015f90919091909150555f60036004015f6101000a81548160ff0219169083151502179055505f5f5f6101000a81548160ff021916908315150217905550505050509392505050565b606060085f8381526020019081526020015f2080548060200260200160405190810160405280929190818152602001828054801561181157602002820191905f5260205f20905b8154815260200190600101908083116117fd575b50505050509050919050565b5f60015f5f6101000a81548160ff02191690831515021790555042600360010154111561187f576040517f08c379a000000000000000000000000000000000000000000000000000000000815260040161187690613706565b60405180910390fd5b60016002811115611893576118926129e2565b5b5f60029054906101000a900460ff1660028111156118b4576118b36129e2565b5b036118f4576040517f08c379a00000000000000000000000000000000000000000000000000000000081526004016118eb9061376e565b60405180910390fd5b5f6003811115611907576119066129e2565b5b5f60019054906101000a900460ff166003811115611928576119276129e2565b5b14611968576040517f08c379a000000000000000000000000000000000000000000000000000000000815260040161195f906137d6565b60405180910390fd5b5f611971612121565b90506119878160c0015160e001515f015161247d565b60036001015f82825461199a919061352b565b925050819055508060c0015160e001516040015183101580156119c957508060c0015160e00151606001518311155b611a08576040517f08c379a00000000000000000000000000000000000000000000000000000000081526004016119ff90613864565b60405180910390fd5b5f8160c00151604001519050611a3f81857f000000000000000000000000000000000000000000000000000000000000000061256c565b508360015f828254611a51919061352b565b9250508190555060035f015f815480929190611a6c90613882565b91905055505f5f5f6101000a81548160ff0219169083151502179055505050919050565b5f5f60039054906101000a900473ffffffffffffffffffffffffffffffffffffffff1673ffffffffffffffffffffffffffffffffffffffff1663bf40fac16040518060400160405280601181526020017f52455345525645445f4d505f41444d494e0000000000000000000000000000008152506040518263ffffffff1660e01b8152600401611b209190612939565b602060405180830381865afa158015611b3b573d5f5f3e3d5ffd5b505050506040513d601f19601f82011682018060405250810190611b5f9190612fe0565b73ffffffffffffffffffffffffffffffffffffffff163373ffffffffffffffffffffffffffffffffffffffff1614611bcc576040517f08c379a0000000000000000000000000000000000000000000000000000000008152600401611bc390613055565b60405180910390fd5b5f60039054906101000a900473ffffffffffffffffffffffffffffffffffffffff1673ffffffffffffffffffffffffffffffffffffffff1663bf40fac16040518060400160405280601481526020017f52455345525645445f4d505f52454749535445520000000000000000000000008152506040518263ffffffff1660e01b8152600401611c5b9190612939565b602060405180830381865afa158015611c76573d5f5f3e3d5ffd5b505050506040513d601f19601f82011682018060405250810190611c9a9190612fe0565b5f60036101000a81548173ffffffffffffffffffffffffffffffffffffffff021916908373ffffffffffffffffffffffffffffffffffffffff1602179055506001905090565b5f611ce9612121565b6040015173ffffffffffffffffffffffffffffffffffffffff163373ffffffffffffffffffffffffffffffffffffffff1614611d5a576040517f08c379a0000000000000000000000000000000000000000000000000000000008152600401611d5190613913565b60405180910390fd5b5f5f9054906101000a900460ff1615611da8576040517f08c379a0000000000000000000000000000000000000000000000000000000008152600401611d9f906130bd565b60405180910390fd5b60026003811115611dbc57611dbb6129e2565b5b5f60019054906101000a900460ff166003811115611ddd57611ddc6129e2565b5b03611e1d576040517f08c379a0000000000000000000000000000000000000000000000000000000008152600401611e1490613125565b60405180910390fd5b5f611e26612121565b905060015f5f6101000a81548160ff02191690831515021790555060016003811115611e5557611e546129e2565b5b5f60019054906101000a900460ff166003811115611e7657611e756129e2565b5b14611eb6576040517f08c379a0000000000000000000000000000000000000000000000000000000008152600401611ead9061397b565b60405180910390fd5b600280811115611ec957611ec86129e2565b5b5f60029054906101000a900460ff166002811115611eea57611ee96129e2565b5b03611f2a576040517f08c379a0000000000000000000000000000000000000000000000000000000008152600401611f21906139e3565b60405180910390fd5b5f8160c001516101000151604001519050806001541015611f80576040517f08c379a0000000000000000000000000000000000000000000000000000000008152600401611f7790613a4b565b60405180910390fd5b5f826040015190508160015f828254611f999190613663565b9250508190555073eeeeeeeeeeeeeeeeeeeeeeeeeeeeeeeeeeeeeeee73ffffffffffffffffffffffffffffffffffffffff168360c001516040015173ffffffffffffffffffffffffffffffffffffffff1603612038578073ffffffffffffffffffffffffffffffffffffffff166108fc8390811502906040515f60405180830381858888f19350505050158015612032573d5f5f3e3d5ffd5b506120c2565b5f8360c001516040015190508073ffffffffffffffffffffffffffffffffffffffff1663a9059cbb83856040518363ffffffff1660e01b815260040161207f92919061327a565b6020604051808303815f875af115801561209b573d5f5f3e3d5ffd5b505050506040513d601f19601f820116820180604052508101906120bf91906132cb565b50505b6120cb836126a1565b61210160025f7f0000000000000000000000000000000000000000000000000000000000000000858760c0015160400151612294565b93505f5f5f6101000a81548160ff02191690831515021790555050505090565b6121296126e5565b5f60039054906101000a900473ffffffffffffffffffffffffffffffffffffffff1673ffffffffffffffffffffffffffffffffffffffff1663bf40fac16040518060400160405280602081526020017f52455345525645445f4d4544414c4c494f4e5f50454e53494f4e535f434f52458152506040518263ffffffff1660e01b81526004016121b89190612939565b602060405180830381865afa1580156121d3573d5f5f3e3d5ffd5b505050506040513d601f19601f820116820180604052508101906121f79190612fe0565b73ffffffffffffffffffffffffffffffffffffffff166377bdfdf27f00000000000000000000000000000000000000000000000000000000000000006040518263ffffffff1660e01b815260040161224f91906128b0565b6103c060405180830381865afa15801561226b573d5f5f3e3d5ffd5b505050506040513d601f19601f8201168201806040525081019061228f9190613dfc565b905090565b5f5f60039054906101000a900473ffffffffffffffffffffffffffffffffffffffff1673ffffffffffffffffffffffffffffffffffffffff1663bf40fac16040518060400160405280601681526020017f52455345525645445f4d505f54585f4d414e41474552000000000000000000008152506040518263ffffffff1660e01b81526004016123249190612939565b602060405180830381865afa15801561233f573d5f5f3e3d5ffd5b505050506040513d601f19601f820116820180604052508101906123639190612fe0565b73ffffffffffffffffffffffffffffffffffffffff1663ee16e6398787877f000000000000000000000000000000000000000000000000000000000000000088886040518763ffffffff1660e01b81526004016123c596959493929190613eb4565b6020604051808303815f875af11580156123e1573d5f5f3e3d5ffd5b505050506040513d601f19601f82011682018060405250810190612405919061324f565b905095945050505050565b8060c0015160e0015160a001516001541061247a5760015f60026101000a81548160ff0219169083600281111561244a576124496129e2565b5b021790555060015f60016101000a81548160ff02191690836003811115612474576124736129e2565b5b02179055505b50565b5f6201518090505f6003811115612497576124966129e2565b5b8260038111156124aa576124a96129e2565b5b0315612567576007816124bd9190613f13565b9050600160038111156124d3576124d26129e2565b5b8260038111156124e6576124e56129e2565b5b0315612567576004816124f99190613f13565b90506002600381111561250f5761250e6129e2565b5b826003811115612522576125216129e2565b5b0315612567576003816125359190613f13565b905060038081111561254a576125496129e2565b5b82600381111561255d5761255c6129e2565b5b0315612567575f90505b919050565b5f73eeeeeeeeeeeeeeeeeeeeeeeeeeeeeeeeeeeeeeee73ffffffffffffffffffffffffffffffffffffffff168473ffffffffffffffffffffffffffffffffffffffff16036125fc57823410156125f7576040517f08c379a00000000000000000000000000000000000000000000000000000000081526004016125ee90613f9e565b60405180910390fd5b612680565b5f8490508073ffffffffffffffffffffffffffffffffffffffff166323b872dd3385876040518463ffffffff1660e01b815260040161263d9392919061362e565b6020604051808303815f875af1158015612659573d5f5f3e3d5ffd5b505050506040513d601f19601f8201168201806040525081019061267d91906132cb565b50505b8173ffffffffffffffffffffffffffffffffffffffff163190509392505050565b8060c00151610100015160a00151600254106126e25760025f60026101000a81548160ff021916908360028111156126dc576126db6129e2565b5b02179055505b50565b6040518060e001604052805f81526020015f73ffffffffffffffffffffffffffffffffffffffff1681526020015f73ffffffffffffffffffffffffffffffffffffffff1681526020015f73ffffffffffffffffffffffffffffffffffffffff1681526020015f81526020015f815260200161275e612790565b81525090565b6040518060a001604052805f81526020015f81526020015f81526020015f81526020015f151581525090565b604051806101a001604052805f81526020015f73ffffffffffffffffffffffffffffffffffffffff1681526020015f73ffffffffffffffffffffffffffffffffffffffff1681526020015f81526020015f81526020015f81526020015f60028111156127ff576127fe6129e2565b5b815260200161280c61283e565b815260200161281961283e565b8152602001612826612880565b81526020015f81526020015f81526020015f81525090565b6040518060c001604052805f600381111561285c5761285b6129e2565b5b81526020015f81526020015f81526020015f81526020015f81526020015f81525090565b60405180604001604052805f81526020015f81525090565b5f819050919050565b6128aa81612898565b82525050565b5f6020820190506128c35f8301846128a1565b92915050565b5f81519050919050565b5f82825260208201905092915050565b8281835e5f83830152505050565b5f601f19601f8301169050919050565b5f61290b826128c9565b61291581856128d3565b93506129258185602086016128e3565b61292e816128f1565b840191505092915050565b5f6020820190508181035f8301526129518184612901565b905092915050565b5f604051905090565b5f5ffd5b61296f81612898565b8114612979575f5ffd5b50565b5f8135905061298a81612966565b92915050565b5f602082840312156129a5576129a4612962565b5b5f6129b28482850161297c565b91505092915050565b5f6040820190506129ce5f8301856128a1565b6129db60208301846128a1565b9392505050565b7f4e487b71000000000000000000000000000000000000000000000000000000005f52602160045260245ffd5b60048110612a2057612a1f6129e2565b5b50565b5f819050612a3082612a0f565b919050565b5f612a3f82612a23565b9050919050565b612a4f81612a35565b82525050565b5f602082019050612a685f830184612a46565b92915050565b5f73ffffffffffffffffffffffffffffffffffffffff82169050919050565b5f612a9782612a6e565b9050919050565b612aa781612a8d565b8114612ab1575f5ffd5b50565b5f81359050612ac281612a9e565b92915050565b5f60208284031215612add57612adc612962565b5b5f612aea84828501612ab4565b91505092915050565b612afc81612898565b82525050565b612b0b81612a8d565b82525050565b60038110612b2257612b216129e2565b5b50565b5f819050612b3282612b11565b919050565b5f612b4182612b25565b9050919050565b612b5181612b37565b82525050565b60048110612b6857612b676129e2565b5b50565b5f819050612b7882612b57565b919050565b5f612b8782612b6b565b9050919050565b612b9781612b7d565b82525050565b60c082015f820151612bb15f850182612b8e565b506020820151612bc46020850182612af3565b506040820151612bd76040850182612af3565b506060820151612bea6060850182612af3565b506080820151612bfd6080850182612af3565b5060a0820151612c1060a0850182612af3565b50505050565b604082015f820151612c2a5f850182612af3565b506020820151612c3d6020850182612af3565b50505050565b61030082015f820151612c585f850182612af3565b506020820151612c6b6020850182612b02565b506040820151612c7e6040850182612b02565b506060820151612c916060850182612af3565b506080820151612ca46080850182612af3565b5060a0820151612cb760a0850182612af3565b5060c0820151612cca60c0850182612b48565b5060e0820151612cdd60e0850182612b9d565b50610100820151612cf26101a0850182612b9d565b50610120820151612d07610260850182612c16565b50610140820151612d1c6102a0850182612af3565b50610160820151612d316102c0850182612af3565b50610180820151612d466102e0850182612af3565b50505050565b6103c082015f820151612d615f850182612af3565b506020820151612d746020850182612b02565b506040820151612d876040850182612b02565b506060820151612d9a6060850182612b02565b506080820151612dad6080850182612af3565b5060a0820151612dc060a0850182612af3565b5060c0820151612dd360c0850182612c43565b50505050565b5f6103c082019050612ded5f830184612d4c565b92915050565b5f8115159050919050565b612e0781612df3565b82525050565b60a082015f820151612e215f850182612af3565b506020820151612e346020850182612af3565b506040820151612e476040850182612af3565b506060820151612e5a6060850182612af3565b506080820151612e6d6080850182612dfe565b50505050565b5f60a082019050612e865f830184612e0d565b92915050565b5f5f5f60608486031215612ea357612ea2612962565b5b5f612eb08682870161297c565b9350506020612ec18682870161297c565b9250506040612ed28682870161297c565b9150509250925092565b5f81519050919050565b5f82825260208201905092915050565b5f819050602082019050919050565b5f612f108383612af3565b60208301905092915050565b5f602082019050919050565b5f612f3282612edc565b612f3c8185612ee6565b9350612f4783612ef6565b805f5b83811015612f77578151612f5e8882612f05565b9750612f6983612f1c565b925050600181019050612f4a565b5085935050505092915050565b5f6020820190508181035f830152612f9c8184612f28565b905092915050565b612fad81612df3565b82525050565b5f602082019050612fc65f830184612fa4565b92915050565b5f81519050612fda81612a9e565b92915050565b5f60208284031215612ff557612ff4612962565b5b5f61300284828501612fcc565b91505092915050565b7f50656e73696f6e2041646d696e204f6e6c7900000000000000000000000000005f82015250565b5f61303f6012836128d3565b915061304a8261300b565b602082019050919050565b5f6020820190508181035f83015261306c81613033565b9050919050565b7f7661756c74206c6f636b656400000000000000000000000000000000000000005f82015250565b5f6130a7600c836128d3565b91506130b282613073565b602082019050919050565b5f6020820190508181035f8301526130d48161309b565b9050919050565b7f7661756c7420636c6f73656400000000000000000000000000000000000000005f82015250565b5f61310f600c836128d3565b915061311a826130db565b602082019050919050565b5f6020820190508181035f83015261313c81613103565b9050919050565b7f70656e73696f6e20636c6f7365640000000000000000000000000000000000005f82015250565b5f613177600e836128d3565b915061318282613143565b602082019050919050565b5f6020820190508181035f8301526131a48161316b565b9050919050565b7f70656e73696f6e20696e207472656173757279000000000000000000000000005f82015250565b5f6131df6013836128d3565b91506131ea826131ab565b602082019050919050565b5f6020820190508181035f83015261320c816131d3565b9050919050565b61321c81612a8d565b82525050565b5f6020820190506132355f830184613213565b92915050565b5f8151905061324981612966565b92915050565b5f6020828403121561326457613263612962565b5b5f6132718482850161323b565b91505092915050565b5f60408201905061328d5f830185613213565b61329a60208301846128a1565b9392505050565b6132aa81612df3565b81146132b4575f5ffd5b50565b5f815190506132c5816132a1565b92915050565b5f602082840312156132e0576132df612962565b5b5f6132ed848285016132b7565b91505092915050565b7f5472656173757279204f6e6c79000000000000000000000000000000000000005f82015250565b5f61332a600d836128d3565b9150613335826132f6565b602082019050919050565b5f6020820190508181035f8301526133578161331e565b9050919050565b7f696e76616c69642070656e73696f6e2070756c6c2073746174650000000000005f82015250565b5f613392601a836128d3565b915061339d8261335e565b602082019050919050565b5f6020820190508181035f8301526133bf81613386565b9050919050565b7f7661756c7420616c72656164792070756c6c65640000000000000000000000005f82015250565b5f6133fa6014836128d3565b9150613405826133c6565b602082019050919050565b5f6020820190508181035f830152613427816133ee565b9050919050565b7f70656e73696f6e206e6f7420636c6f73656400000000000000000000000000005f82015250565b5f6134626012836128d3565b915061346d8261342e565b602082019050919050565b5f6020820190508181035f83015261348f81613456565b9050919050565b7f696e73756666696369656e74207072696e636970616c2072657475726e6564005f82015250565b5f6134ca601f836128d3565b91506134d582613496565b602082019050919050565b5f6020820190508181035f8301526134f7816134be565b9050919050565b7f4e487b71000000000000000000000000000000000000000000000000000000005f52601160045260245ffd5b5f61353582612898565b915061354083612898565b9250828201905080821115613558576135576134fe565b5b92915050565b7f7661756c74206e6f742070756c6c6564000000000000000000000000000000005f82015250565b5f6135926010836128d3565b915061359d8261355e565b602082019050919050565b5f6020820190508181035f8301526135bf81613586565b9050919050565b7f696e7375666669656e74207472616e736d69747465642076616c7565000000005f82015250565b5f6135fa601c836128d3565b9150613605826135c6565b602082019050919050565b5f6020820190508181035f830152613627816135ee565b9050919050565b5f6060820190506136415f830186613213565b61364e6020830185613213565b61365b60408301846128a1565b949350505050565b5f61366d82612898565b915061367883612898565b92508282039050818111156136905761368f6134fe565b5b92915050565b7f636f6e747269627574696f6e7320746f6f206672657175656e742077616974205f8201527f7265717569726564200000000000000000000000000000000000000000000000602082015250565b5f6136f06029836128d3565b91506136fb82613696565b604082019050919050565b5f6020820190508181035f83015261371d816136e4565b9050919050565b7f70656e73696f6e206d61747572656400000000000000000000000000000000005f82015250565b5f613758600f836128d3565b915061376382613724565b602082019050919050565b5f6020820190508181035f8301526137858161374c565b9050919050565b7f70656e73696f6e206e6f74206f70656e000000000000000000000000000000005f82015250565b5f6137c06010836128d3565b91506137cb8261378c565b602082019050919050565b5f6020820190508181035f8301526137ed816137b4565b9050919050565b7f696e76616c696420636f6e747269627574696f6e2065697468657220726169735f8201527f65206f72206c6f77657220616d6f756e74000000000000000000000000000000602082015250565b5f61384e6031836128d3565b9150613859826137f4565b604082019050919050565b5f6020820190508181035f83015261387b81613842565b9050919050565b5f61388c82612898565b91507fffffffffffffffffffffffffffffffffffffffffffffffffffffffffffffffff82036138be576138bd6134fe565b5b600182019050919050565b7f6f776e6572206f6e6c79000000000000000000000000000000000000000000005f82015250565b5f6138fd600a836128d3565b9150613908826138c9565b602082019050919050565b5f6020820190508181035f83015261392a816138f1565b9050919050565b7f696e76616c69642070656e73696f6e20737461747573000000000000000000005f82015250565b5f6139656016836128d3565b915061397082613931565b602082019050919050565b5f6020820190508181035f83015261399281613959565b9050919050565b7f70656e73696f6e20736574746c656400000000000000000000000000000000005f82015250565b5f6139cd600f836128d3565b91506139d882613999565b602082019050919050565b5f6020820190508181035f8301526139fa816139c1565b9050919050565b7f696e73756666696369656e7420656d6d697373696f6e2062616c616e636500005f82015250565b5f613a35601e836128d3565b9150613a4082613a01565b602082019050919050565b5f6020820190508181035f830152613a6281613a29565b9050919050565b5f5ffd5b7f4e487b71000000000000000000000000000000000000000000000000000000005f52604160045260245ffd5b613aa3826128f1565b810181811067ffffffffffffffff82111715613ac257613ac1613a6d565b5b80604052505050565b5f613ad4612959565b9050613ae08282613a9a565b919050565b60038110613af1575f5ffd5b50565b5f81519050613b0281613ae5565b92915050565b60048110613b14575f5ffd5b50565b5f81519050613b2581613b08565b92915050565b5f60c08284031215613b4057613b3f613a69565b5b613b4a60c0613acb565b90505f613b5984828501613b17565b5f830152506020613b6c8482850161323b565b6020830152506040613b808482850161323b565b6040830152506060613b948482850161323b565b6060830152506080613ba88482850161323b565b60808301525060a0613bbc8482850161323b565b60a08301525092915050565b5f60408284031215613bdd57613bdc613a69565b5b613be76040613acb565b90505f613bf68482850161323b565b5f830152506020613c098482850161323b565b60208301525092915050565b5f6103008284031215613c2b57613c2a613a69565b5b613c366101a0613acb565b90505f613c458482850161323b565b5f830152506020613c5884828501612fcc565b6020830152506040613c6c84828501612fcc565b6040830152506060613c808482850161323b565b6060830152506080613c948482850161323b565b60808301525060a0613ca88482850161323b565b60a08301525060c0613cbc84828501613af4565b60c08301525060e0613cd084828501613b2b565b60e0830152506101a0613ce584828501613b2b565b61010083015250610260613cfb84828501613bc8565b610120830152506102a0613d118482850161323b565b610140830152506102c0613d278482850161323b565b610160830152506102e0613d3d8482850161323b565b6101808301525092915050565b5f6103c08284031215613d6057613d5f613a69565b5b613d6a60e0613acb565b90505f613d798482850161323b565b5f830152506020613d8c84828501612fcc565b6020830152506040613da084828501612fcc565b6040830152506060613db484828501612fcc565b6060830152506080613dc88482850161323b565b60808301525060a0613ddc8482850161323b565b60a08301525060c0613df084828501613c15565b60c08301525092915050565b5f6103c08284031215613e1257613e11612962565b5b5f613e1f84828501613d4a565b91505092915050565b600a8110613e3957613e386129e2565b5b50565b5f819050613e4982613e28565b919050565b5f613e5882613e3c565b9050919050565b613e6881613e4e565b82525050565b60068110613e7f57613e7e6129e2565b5b50565b5f819050613e8f82613e6e565b919050565b5f613e9e82613e82565b9050919050565b613eae81613e94565b82525050565b5f60c082019050613ec75f830189613e5f565b613ed46020830188613ea5565b613ee160408301876128a1565b613eee6060830186613213565b613efb60808301856128a1565b613f0860a0830184613213565b979650505050505050565b5f613f1d82612898565b9150613f2883612898565b9250828202613f3681612898565b91508282048414831517613f4d57613f4c6134fe565b5b5092915050565b7f636f6e747269627574696f6e206d69732d6d61746368000000000000000000005f82015250565b5f613f886016836128d3565b9150613f9382613f54565b602082019050919050565b5f6020820190508181035f830152613fb581613f7c565b905091905056fea26469706673582212201b5ee906dfaac17a2a3bb3f53fd6210446c9a95524b534225d87668ff6e5315a64736f6c634300081e0033",
					"opcodes": "PUSH1 0xC0 PUSH1 0x40 MSTORE PUSH0 PUSH0 PUSH0 PUSH2 0x100 EXP DUP2 SLOAD DUP2 PUSH1 0xFF MUL NOT AND SWAP1 DUP4 ISZERO ISZERO MUL OR SWAP1 SSTORE POP CALLVALUE DUP1 ISZERO PUSH2 0x27 JUMPI PUSH0 PUSH0 REVERT JUMPDEST POP PUSH1 0x40 MLOAD PUSH2 0x4273 CODESIZE SUB DUP1 PUSH2 0x4273 DUP4 CODECOPY DUP2 DUP2 ADD PUSH1 0x40 MSTORE DUP2 ADD SWAP1 PUSH2 0x49 SWAP2 SWAP1 PUSH2 0x1AF JUMP JUMPDEST DUP2 PUSH0 PUSH1 0x3 PUSH2 0x100 EXP DUP2 SLOAD DUP2 PUSH20 0xFFFFFFFFFFFFFFFFFFFFFFFFFFFFFFFFFFFFFFFF MUL NOT AND SWAP1 DUP4 PUSH20 0xFFFFFFFFFFFFFFFFFFFFFFFFFFFFFFFFFFFFFFFF AND MUL OR SWAP1 SSTORE POP DUP1 PUSH1 0x80 DUP2 DUP2 MSTORE POP POP PUSH0 PUSH0 PUSH1 0x1 PUSH2 0x100 EXP DUP2 SLOAD DUP2 PUSH1 0xFF MUL NOT AND SWAP1 DUP4 PUSH1 0x3 DUP2 GT ISZERO PUSH2 0xB5 JUMPI PUSH2 0xB4 PUSH2 0x1ED JUMP JUMPDEST JUMPDEST MUL OR SWAP1 SSTORE POP PUSH0 PUSH0 PUSH1 0x2 PUSH2 0x100 EXP DUP2 SLOAD DUP2 PUSH1 0xFF MUL NOT AND SWAP1 DUP4 PUSH1 0x2 DUP2 GT ISZERO PUSH2 0xDE JUMPI PUSH2 0xDD PUSH2 0x1ED JUMP JUMPDEST JUMPDEST MUL OR SWAP1 SSTORE POP ADDRESS PUSH20 0xFFFFFFFFFFFFFFFFFFFFFFFFFFFFFFFFFFFFFFFF AND PUSH1 0xA0 DUP2 PUSH20 0xFFFFFFFFFFFFFFFFFFFFFFFFFFFFFFFFFFFFFFFF AND DUP2 MSTORE POP POP POP POP PUSH2 0x21A JUMP JUMPDEST PUSH0 PUSH0 REVERT JUMPDEST PUSH0 PUSH20 0xFFFFFFFFFFFFFFFFFFFFFFFFFFFFFFFFFFFFFFFF DUP3 AND SWAP1 POP SWAP2 SWAP1 POP JUMP JUMPDEST PUSH0 PUSH2 0x14B DUP3 PUSH2 0x122 JUMP JUMPDEST SWAP1 POP SWAP2 SWAP1 POP JUMP JUMPDEST PUSH2 0x15B DUP2 PUSH2 0x141 JUMP JUMPDEST DUP2 EQ PUSH2 0x165 JUMPI PUSH0 PUSH0 REVERT JUMPDEST POP JUMP JUMPDEST PUSH0 DUP2 MLOAD SWAP1 POP PUSH2 0x176 DUP2 PUSH2 0x152 JUMP JUMPDEST SWAP3 SWAP2 POP POP JUMP JUMPDEST PUSH0 DUP2 SWAP1 POP SWAP2 SWAP1 POP JUMP JUMPDEST PUSH2 0x18E DUP2 PUSH2 0x17C JUMP JUMPDEST DUP2 EQ PUSH2 0x198 JUMPI PUSH0 PUSH0 REVERT JUMPDEST POP JUMP JUMPDEST PUSH0 DUP2 MLOAD SWAP1 POP PUSH2 0x1A9 DUP2 PUSH2 0x185 JUMP JUMPDEST SWAP3 SWAP2 POP POP JUMP JUMPDEST PUSH0 PUSH0 PUSH1 0x40 DUP4 DUP6 SUB SLT ISZERO PUSH2 0x1C5 JUMPI PUSH2 0x1C4 PUSH2 0x11E JUMP JUMPDEST JUMPDEST PUSH0 PUSH2 0x1D2 DUP6 DUP3 DUP7 ADD PUSH2 0x168 JUMP JUMPDEST SWAP3 POP POP PUSH1 0x20 PUSH2 0x1E3 DUP6 DUP3 DUP7 ADD PUSH2 0x19B JUMP JUMPDEST SWAP2 POP POP SWAP3 POP SWAP3 SWAP1 POP JUMP JUMPDEST PUSH32 0x4E487B7100000000000000000000000000000000000000000000000000000000 PUSH0 MSTORE PUSH1 0x21 PUSH1 0x4 MSTORE PUSH1 0x24 PUSH0 REVERT JUMPDEST PUSH1 0x80 MLOAD PUSH1 0xA0 MLOAD PUSH2 0x3FF2 PUSH2 0x281 PUSH0 CODECOPY PUSH0 DUP2 DUP2 PUSH2 0x726 ADD MSTORE DUP2 DUP2 PUSH2 0x7D5 ADD MSTORE DUP2 DUP2 PUSH2 0x10AF ADD MSTORE DUP2 DUP2 PUSH2 0x1152 ADD MSTORE DUP2 DUP2 PUSH2 0x164A ADD MSTORE DUP2 DUP2 PUSH2 0x1A1B ADD MSTORE PUSH2 0x2383 ADD MSTORE PUSH0 DUP2 DUP2 PUSH2 0x8DB ADD MSTORE DUP2 DUP2 PUSH2 0xD4B ADD MSTORE DUP2 DUP2 PUSH2 0x1712 ADD MSTORE DUP2 DUP2 PUSH2 0x20D3 ADD MSTORE PUSH2 0x2214 ADD MSTORE PUSH2 0x3FF2 PUSH0 RETURN INVALID PUSH1 0x80 PUSH1 0x40 MSTORE PUSH1 0x4 CALLDATASIZE LT PUSH2 0xDC JUMPI PUSH0 CALLDATALOAD PUSH1 0xE0 SHR DUP1 PUSH4 0x73488018 GT PUSH2 0x7E JUMPI DUP1 PUSH4 0xB8C89338 GT PUSH2 0x58 JUMPI DUP1 PUSH4 0xB8C89338 EQ PUSH2 0x2AF JUMPI DUP1 PUSH4 0xC1CBBCA7 EQ PUSH2 0x2EB JUMPI DUP1 PUSH4 0xCDE4C10C EQ PUSH2 0x31B JUMPI DUP1 PUSH4 0xE77EF21F EQ PUSH2 0x345 JUMPI PUSH2 0xDC JUMP JUMPDEST DUP1 PUSH4 0x73488018 EQ PUSH2 0x22B JUMPI DUP1 PUSH4 0x805275A2 EQ PUSH2 0x255 JUMPI DUP1 PUSH4 0x9F08C755 EQ PUSH2 0x27F JUMPI PUSH2 0xDC JUMP JUMPDEST DUP1 PUSH4 0x43D726D6 GT PUSH2 0xBA JUMPI DUP1 PUSH4 0x43D726D6 EQ PUSH2 0x15E JUMPI DUP1 PUSH4 0x4D0392A8 EQ PUSH2 0x188 JUMPI DUP1 PUSH4 0x4E69D560 EQ PUSH2 0x1C5 JUMPI DUP1 PUSH4 0x51CFF8D9 EQ PUSH2 0x1EF JUMPI PUSH2 0xDC JUMP JUMPDEST DUP1 PUSH4 0xD8E6E2C EQ PUSH2 0xE0 JUMPI DUP1 PUSH4 0x12065FE0 EQ PUSH2 0x10A JUMPI DUP1 PUSH4 0x17D7DE7C EQ PUSH2 0x134 JUMPI JUMPDEST PUSH0 PUSH0 REVERT JUMPDEST CALLVALUE DUP1 ISZERO PUSH2 0xEB JUMPI PUSH0 PUSH0 REVERT JUMPDEST POP PUSH2 0xF4 PUSH2 0x36F JUMP JUMPDEST PUSH1 0x40 MLOAD PUSH2 0x101 SWAP2 SWAP1 PUSH2 0x28B0 JUMP JUMPDEST PUSH1 0x40 MLOAD DUP1 SWAP2 SUB SWAP1 RETURN JUMPDEST CALLVALUE DUP1 ISZERO PUSH2 0x115 JUMPI PUSH0 PUSH0 REVERT JUMPDEST POP PUSH2 0x11E PUSH2 0x377 JUMP JUMPDEST PUSH1 0x40 MLOAD PUSH2 0x12B SWAP2 SWAP1 PUSH2 0x28B0 JUMP JUMPDEST PUSH1 0x40 MLOAD DUP1 SWAP2 SUB SWAP1 RETURN JUMPDEST CALLVALUE DUP1 ISZERO PUSH2 0x13F JUMPI PUSH0 PUSH0 REVERT JUMPDEST POP PUSH2 0x148 PUSH2 0x380 JUMP JUMPDEST PUSH1 0x40 MLOAD PUSH2 0x155 SWAP2 SWAP1 PUSH2 0x2939 JUMP JUMPDEST PUSH1 0x40 MLOAD DUP1 SWAP2 SUB SWAP1 RETURN JUMPDEST CALLVALUE DUP1 ISZERO PUSH2 0x169 JUMPI PUSH0 PUSH0 REVERT JUMPDEST POP PUSH2 0x172 PUSH2 0x3BD JUMP JUMPDEST PUSH1 0x40 MLOAD PUSH2 0x17F SWAP2 SWAP1 PUSH2 0x28B0 JUMP JUMPDEST PUSH1 0x40 MLOAD DUP1 SWAP2 SUB SWAP1 RETURN JUMPDEST CALLVALUE DUP1 ISZERO PUSH2 0x193 JUMPI PUSH0 PUSH0 REVERT JUMPDEST POP PUSH2 0x1AE PUSH1 0x4 DUP1 CALLDATASIZE SUB DUP2 ADD SWAP1 PUSH2 0x1A9 SWAP2 SWAP1 PUSH2 0x2990 JUMP JUMPDEST PUSH2 0x910 JUMP JUMPDEST PUSH1 0x40 MLOAD PUSH2 0x1BC SWAP3 SWAP2 SWAP1 PUSH2 0x29BB JUMP JUMPDEST PUSH1 0x40 MLOAD DUP1 SWAP2 SUB SWAP1 RETURN JUMPDEST CALLVALUE DUP1 ISZERO PUSH2 0x1D0 JUMPI PUSH0 PUSH0 REVERT JUMPDEST POP PUSH2 0x1D9 PUSH2 0xDCF JUMP JUMPDEST PUSH1 0x40 MLOAD PUSH2 0x1E6 SWAP2 SWAP1 PUSH2 0x2A55 JUMP JUMPDEST PUSH1 0x40 MLOAD DUP1 SWAP2 SUB SWAP1 RETURN JUMPDEST CALLVALUE DUP1 ISZERO PUSH2 0x1FA JUMPI PUSH0 PUSH0 REVERT JUMPDEST POP PUSH2 0x215 PUSH1 0x4 DUP1 CALLDATASIZE SUB DUP2 ADD SWAP1 PUSH2 0x210 SWAP2 SWAP1 PUSH2 0x2AC8 JUMP JUMPDEST PUSH2 0xDE4 JUMP JUMPDEST PUSH1 0x40 MLOAD PUSH2 0x222 SWAP2 SWAP1 PUSH2 0x28B0 JUMP JUMPDEST PUSH1 0x40 MLOAD DUP1 SWAP2 SUB SWAP1 RETURN JUMPDEST CALLVALUE DUP1 ISZERO PUSH2 0x236 JUMPI PUSH0 PUSH0 REVERT JUMPDEST POP PUSH2 0x23F PUSH2 0x1252 JUMP JUMPDEST PUSH1 0x40 MLOAD PUSH2 0x24C SWAP2 SWAP1 PUSH2 0x2DD9 JUMP JUMPDEST PUSH1 0x40 MLOAD DUP1 SWAP2 SUB SWAP1 RETURN JUMPDEST CALLVALUE DUP1 ISZERO PUSH2 0x260 JUMPI PUSH0 PUSH0 REVERT JUMPDEST POP PUSH2 0x269 PUSH2 0x1267 JUMP JUMPDEST PUSH1 0x40 MLOAD PUSH2 0x276 SWAP2 SWAP1 PUSH2 0x2E73 JUMP JUMPDEST PUSH1 0x40 MLOAD DUP1 SWAP2 SUB SWAP1 RETURN JUMPDEST PUSH2 0x299 PUSH1 0x4 DUP1 CALLDATASIZE SUB DUP2 ADD SWAP1 PUSH2 0x294 SWAP2 SWAP1 PUSH2 0x2E8C JUMP JUMPDEST PUSH2 0x12C2 JUMP JUMPDEST PUSH1 0x40 MLOAD PUSH2 0x2A6 SWAP2 SWAP1 PUSH2 0x28B0 JUMP JUMPDEST PUSH1 0x40 MLOAD DUP1 SWAP2 SUB SWAP1 RETURN JUMPDEST CALLVALUE DUP1 ISZERO PUSH2 0x2BA JUMPI PUSH0 PUSH0 REVERT JUMPDEST POP PUSH2 0x2D5 PUSH1 0x4 DUP1 CALLDATASIZE SUB DUP2 ADD SWAP1 PUSH2 0x2D0 SWAP2 SWAP1 PUSH2 0x2990 JUMP JUMPDEST PUSH2 0x17B6 JUMP JUMPDEST PUSH1 0x40 MLOAD PUSH2 0x2E2 SWAP2 SWAP1 PUSH2 0x2F84 JUMP JUMPDEST PUSH1 0x40 MLOAD DUP1 SWAP2 SUB SWAP1 RETURN JUMPDEST PUSH2 0x305 PUSH1 0x4 DUP1 CALLDATASIZE SUB DUP2 ADD SWAP1 PUSH2 0x300 SWAP2 SWAP1 PUSH2 0x2990 JUMP JUMPDEST PUSH2 0x181D JUMP JUMPDEST PUSH1 0x40 MLOAD PUSH2 0x312 SWAP2 SWAP1 PUSH2 0x28B0 JUMP JUMPDEST PUSH1 0x40 MLOAD DUP1 SWAP2 SUB SWAP1 RETURN JUMPDEST CALLVALUE DUP1 ISZERO PUSH2 0x326 JUMPI PUSH0 PUSH0 REVERT JUMPDEST POP PUSH2 0x32F PUSH2 0x1A90 JUMP JUMPDEST PUSH1 0x40 MLOAD PUSH2 0x33C SWAP2 SWAP1 PUSH2 0x2FB3 JUMP JUMPDEST PUSH1 0x40 MLOAD DUP1 SWAP2 SUB SWAP1 RETURN JUMPDEST CALLVALUE DUP1 ISZERO PUSH2 0x350 JUMPI PUSH0 PUSH0 REVERT JUMPDEST POP PUSH2 0x359 PUSH2 0x1CE0 JUMP JUMPDEST PUSH1 0x40 MLOAD PUSH2 0x366 SWAP2 SWAP1 PUSH2 0x28B0 JUMP JUMPDEST PUSH1 0x40 MLOAD DUP1 SWAP2 SUB SWAP1 RETURN JUMPDEST PUSH0 PUSH1 0x12 SWAP1 POP SWAP1 JUMP JUMPDEST PUSH0 PUSH1 0x1 SLOAD SWAP1 POP SWAP1 JUMP JUMPDEST PUSH1 0x60 PUSH1 0x40 MLOAD DUP1 PUSH1 0x40 ADD PUSH1 0x40 MSTORE DUP1 PUSH1 0x17 DUP2 MSTORE PUSH1 0x20 ADD PUSH32 0x4D4544414C4C494F4E5F50454E53494F4E5F5641554C54000000000000000000 DUP2 MSTORE POP SWAP1 POP SWAP1 JUMP JUMPDEST PUSH0 PUSH0 PUSH1 0x3 SWAP1 SLOAD SWAP1 PUSH2 0x100 EXP SWAP1 DIV PUSH20 0xFFFFFFFFFFFFFFFFFFFFFFFFFFFFFFFFFFFFFFFF AND PUSH20 0xFFFFFFFFFFFFFFFFFFFFFFFFFFFFFFFFFFFFFFFF AND PUSH4 0xBF40FAC1 PUSH1 0x40 MLOAD DUP1 PUSH1 0x40 ADD PUSH1 0x40 MSTORE DUP1 PUSH1 0x11 DUP2 MSTORE PUSH1 0x20 ADD PUSH32 0x52455345525645445F4D505F41444D494E000000000000000000000000000000 DUP2 MSTORE POP PUSH1 0x40 MLOAD DUP3 PUSH4 0xFFFFFFFF AND PUSH1 0xE0 SHL DUP2 MSTORE PUSH1 0x4 ADD PUSH2 0x44D SWAP2 SWAP1 PUSH2 0x2939 JUMP JUMPDEST PUSH1 0x20 PUSH1 0x40 MLOAD DUP1 DUP4 SUB DUP2 DUP7 GAS STATICCALL ISZERO DUP1 ISZERO PUSH2 0x468 JUMPI RETURNDATASIZE PUSH0 PUSH0 RETURNDATACOPY RETURNDATASIZE PUSH0 REVERT JUMPDEST POP POP POP POP PUSH1 0x40 MLOAD RETURNDATASIZE PUSH1 0x1F NOT PUSH1 0x1F DUP3 ADD AND DUP3 ADD DUP1 PUSH1 0x40 MSTORE POP DUP2 ADD SWAP1 PUSH2 0x48C SWAP2 SWAP1 PUSH2 0x2FE0 JUMP JUMPDEST PUSH20 0xFFFFFFFFFFFFFFFFFFFFFFFFFFFFFFFFFFFFFFFF AND CALLER PUSH20 0xFFFFFFFFFFFFFFFFFFFFFFFFFFFFFFFFFFFFFFFF AND EQ PUSH2 0x4F9 JUMPI PUSH1 0x40 MLOAD PUSH32 0x8C379A000000000000000000000000000000000000000000000000000000000 DUP2 MSTORE PUSH1 0x4 ADD PUSH2 0x4F0 SWAP1 PUSH2 0x3055 JUMP JUMPDEST PUSH1 0x40 MLOAD DUP1 SWAP2 SUB SWAP1 REVERT JUMPDEST PUSH0 PUSH0 SWAP1 SLOAD SWAP1 PUSH2 0x100 EXP SWAP1 DIV PUSH1 0xFF AND ISZERO PUSH2 0x547 JUMPI PUSH1 0x40 MLOAD PUSH32 0x8C379A000000000000000000000000000000000000000000000000000000000 DUP2 MSTORE PUSH1 0x4 ADD PUSH2 0x53E SWAP1 PUSH2 0x30BD JUMP JUMPDEST PUSH1 0x40 MLOAD DUP1 SWAP2 SUB SWAP1 REVERT JUMPDEST PUSH1 0x2 PUSH1 0x3 DUP2 GT ISZERO PUSH2 0x55B JUMPI PUSH2 0x55A PUSH2 0x29E2 JUMP JUMPDEST JUMPDEST PUSH0 PUSH1 0x1 SWAP1 SLOAD SWAP1 PUSH2 0x100 EXP SWAP1 DIV PUSH1 0xFF AND PUSH1 0x3 DUP2 GT ISZERO PUSH2 0x57C JUMPI PUSH2 0x57B PUSH2 0x29E2 JUMP JUMPDEST JUMPDEST SUB PUSH2 0x5BC JUMPI PUSH1 0x40 MLOAD PUSH32 0x8C379A000000000000000000000000000000000000000000000000000000000 DUP2 MSTORE PUSH1 0x4 ADD PUSH2 0x5B3 SWAP1 PUSH2 0x3125 JUMP JUMPDEST PUSH1 0x40 MLOAD DUP1 SWAP2 SUB SWAP1 REVERT JUMPDEST PUSH0 PUSH2 0x5C5 PUSH2 0x2121 JUMP JUMPDEST SWAP1 POP PUSH1 0x2 PUSH1 0x3 DUP2 GT ISZERO PUSH2 0x5DB JUMPI PUSH2 0x5DA PUSH2 0x29E2 JUMP JUMPDEST JUMPDEST PUSH0 PUSH1 0x1 SWAP1 SLOAD SWAP1 PUSH2 0x100 EXP SWAP1 DIV PUSH1 0xFF AND PUSH1 0x3 DUP2 GT ISZERO PUSH2 0x5FC JUMPI PUSH2 0x5FB PUSH2 0x29E2 JUMP JUMPDEST JUMPDEST SUB PUSH2 0x63C JUMPI PUSH1 0x40 MLOAD PUSH32 0x8C379A000000000000000000000000000000000000000000000000000000000 DUP2 MSTORE PUSH1 0x4 ADD PUSH2 0x633 SWAP1 PUSH2 0x318D JUMP JUMPDEST PUSH1 0x40 MLOAD DUP1 SWAP2 SUB SWAP1 REVERT JUMPDEST PUSH1 0x3 PUSH1 0x4 ADD PUSH0 SWAP1 SLOAD SWAP1 PUSH2 0x100 EXP SWAP1 DIV PUSH1 0xFF AND ISZERO PUSH2 0x68E JUMPI PUSH1 0x40 MLOAD PUSH32 0x8C379A000000000000000000000000000000000000000000000000000000000 DUP2 MSTORE PUSH1 0x4 ADD PUSH2 0x685 SWAP1 PUSH2 0x31F5 JUMP JUMPDEST PUSH1 0x40 MLOAD DUP1 SWAP2 SUB SWAP1 REVERT JUMPDEST PUSH1 0x1 PUSH0 PUSH0 PUSH2 0x100 EXP DUP2 SLOAD DUP2 PUSH1 0xFF MUL NOT AND SWAP1 DUP4 ISZERO ISZERO MUL OR SWAP1 SSTORE POP PUSH1 0x2 PUSH0 PUSH1 0x1 PUSH2 0x100 EXP DUP2 SLOAD DUP2 PUSH1 0xFF MUL NOT AND SWAP1 DUP4 PUSH1 0x3 DUP2 GT ISZERO PUSH2 0x6CC JUMPI PUSH2 0x6CB PUSH2 0x29E2 JUMP JUMPDEST JUMPDEST MUL OR SWAP1 SSTORE POP PUSH0 PUSH0 SWAP1 POP PUSH20 0xEEEEEEEEEEEEEEEEEEEEEEEEEEEEEEEEEEEEEEEE PUSH20 0xFFFFFFFFFFFFFFFFFFFFFFFFFFFFFFFFFFFFFFFF AND DUP3 PUSH1 0xC0 ADD MLOAD PUSH1 0x40 ADD MLOAD PUSH20 0xFFFFFFFFFFFFFFFFFFFFFFFFFFFFFFFFFFFFFFFF AND SUB PUSH2 0x7AB JUMPI PUSH32 0x0 PUSH20 0xFFFFFFFFFFFFFFFFFFFFFFFFFFFFFFFFFFFFFFFF AND BALANCE SWAP1 POP DUP2 PUSH1 0x40 ADD MLOAD PUSH20 0xFFFFFFFFFFFFFFFFFFFFFFFFFFFFFFFFFFFFFFFF AND PUSH2 0x8FC DUP3 SWAP1 DUP2 ISZERO MUL SWAP1 PUSH1 0x40 MLOAD PUSH0 PUSH1 0x40 MLOAD DUP1 DUP4 SUB DUP2 DUP6 DUP9 DUP9 CALL SWAP4 POP POP POP POP ISZERO DUP1 ISZERO PUSH2 0x7A5 JUMPI RETURNDATASIZE PUSH0 PUSH0 RETURNDATACOPY RETURNDATASIZE PUSH0 REVERT JUMPDEST POP PUSH2 0x8D3 JUMP JUMPDEST PUSH0 DUP3 PUSH1 0xC0 ADD MLOAD PUSH1 0x40 ADD MLOAD SWAP1 POP DUP1 PUSH20 0xFFFFFFFFFFFFFFFFFFFFFFFFFFFFFFFFFFFFFFFF AND PUSH4 0x70A08231 PUSH32 0x0 PUSH1 0x40 MLOAD DUP3 PUSH4 0xFFFFFFFF AND PUSH1 0xE0 SHL DUP2 MSTORE PUSH1 0x4 ADD PUSH2 0x810 SWAP2 SWAP1 PUSH2 0x3222 JUMP JUMPDEST PUSH1 0x20 PUSH1 0x40 MLOAD DUP1 DUP4 SUB DUP2 DUP7 GAS STATICCALL ISZERO DUP1 ISZERO PUSH2 0x82B JUMPI RETURNDATASIZE PUSH0 PUSH0 RETURNDATACOPY RETURNDATASIZE PUSH0 REVERT JUMPDEST POP POP POP POP PUSH1 0x40 MLOAD RETURNDATASIZE PUSH1 0x1F NOT PUSH1 0x1F DUP3 ADD AND DUP3 ADD DUP1 PUSH1 0x40 MSTORE POP DUP2 ADD SWAP1 PUSH2 0x84F SWAP2 SWAP1 PUSH2 0x324F JUMP JUMPDEST SWAP2 POP DUP1 PUSH20 0xFFFFFFFFFFFFFFFFFFFFFFFFFFFFFFFFFFFFFFFF AND PUSH4 0xA9059CBB DUP5 PUSH1 0x40 ADD MLOAD DUP5 PUSH1 0x40 MLOAD DUP4 PUSH4 0xFFFFFFFF AND PUSH1 0xE0 SHL DUP2 MSTORE PUSH1 0x4 ADD PUSH2 0x890 SWAP3 SWAP2 SWAP1 PUSH2 0x327A JUMP JUMPDEST PUSH1 0x20 PUSH1 0x40 MLOAD DUP1 DUP4 SUB DUP2 PUSH0 DUP8 GAS CALL ISZERO DUP1 ISZERO PUSH2 0x8AC JUMPI RETURNDATASIZE PUSH0 PUSH0 RETURNDATACOPY RETURNDATASIZE PUSH0 REVERT JUMPDEST POP POP POP POP PUSH1 0x40 MLOAD RETURNDATASIZE PUSH1 0x1F NOT PUSH1 0x1F DUP3 ADD AND DUP3 ADD DUP1 PUSH1 0x40 MSTORE POP DUP2 ADD SWAP1 PUSH2 0x8D0 SWAP2 SWAP1 PUSH2 0x32CB JUMP JUMPDEST POP POP JUMPDEST PUSH2 0x909 PUSH1 0x7 PUSH0 PUSH32 0x0 DUP5 DUP7 PUSH1 0xC0 ADD MLOAD PUSH1 0x40 ADD MLOAD PUSH2 0x2294 JUMP JUMPDEST SWAP3 POP POP POP SWAP1 JUMP JUMPDEST PUSH0 PUSH0 PUSH0 PUSH0 SWAP1 SLOAD SWAP1 PUSH2 0x100 EXP SWAP1 DIV PUSH1 0xFF AND ISZERO PUSH2 0x960 JUMPI PUSH1 0x40 MLOAD PUSH32 0x8C379A000000000000000000000000000000000000000000000000000000000 DUP2 MSTORE PUSH1 0x4 ADD PUSH2 0x957 SWAP1 PUSH2 0x30BD JUMP JUMPDEST PUSH1 0x40 MLOAD DUP1 SWAP2 SUB SWAP1 REVERT JUMPDEST PUSH1 0x2 PUSH1 0x3 DUP2 GT ISZERO PUSH2 0x974 JUMPI PUSH2 0x973 PUSH2 0x29E2 JUMP JUMPDEST JUMPDEST PUSH0 PUSH1 0x1 SWAP1 SLOAD SWAP1 PUSH2 0x100 EXP SWAP1 DIV PUSH1 0xFF AND PUSH1 0x3 DUP2 GT ISZERO PUSH2 0x995 JUMPI PUSH2 0x994 PUSH2 0x29E2 JUMP JUMPDEST JUMPDEST SUB PUSH2 0x9D5 JUMPI PUSH1 0x40 MLOAD PUSH32 0x8C379A000000000000000000000000000000000000000000000000000000000 DUP2 MSTORE PUSH1 0x4 ADD PUSH2 0x9CC SWAP1 PUSH2 0x3125 JUMP JUMPDEST PUSH1 0x40 MLOAD DUP1 SWAP2 SUB SWAP1 REVERT JUMPDEST PUSH0 PUSH1 0x3 SWAP1 SLOAD SWAP1 PUSH2 0x100 EXP SWAP1 DIV PUSH20 0xFFFFFFFFFFFFFFFFFFFFFFFFFFFFFFFFFFFFFFFF AND PUSH20 0xFFFFFFFFFFFFFFFFFFFFFFFFFFFFFFFFFFFFFFFF AND PUSH4 0xBF40FAC1 PUSH1 0x40 MLOAD DUP1 PUSH1 0x40 ADD PUSH1 0x40 MSTORE DUP1 PUSH1 0x14 DUP2 MSTORE PUSH1 0x20 ADD PUSH32 0x52455345525645445F4D505F5452454153555259000000000000000000000000 DUP2 MSTORE POP PUSH1 0x40 MLOAD DUP3 PUSH4 0xFFFFFFFF AND PUSH1 0xE0 SHL DUP2 MSTORE PUSH1 0x4 ADD PUSH2 0xA64 SWAP2 SWAP1 PUSH2 0x2939 JUMP JUMPDEST PUSH1 0x20 PUSH1 0x40 MLOAD DUP1 DUP4 SUB DUP2 DUP7 GAS STATICCALL ISZERO DUP1 ISZERO PUSH2 0xA7F JUMPI RETURNDATASIZE PUSH0 PUSH0 RETURNDATACOPY RETURNDATASIZE PUSH0 REVERT JUMPDEST POP POP POP POP PUSH1 0x40 MLOAD RETURNDATASIZE PUSH1 0x1F NOT PUSH1 0x1F DUP3 ADD AND DUP3 ADD DUP1 PUSH1 0x40 MSTORE POP DUP2 ADD SWAP1 PUSH2 0xAA3 SWAP2 SWAP1 PUSH2 0x2FE0 JUMP JUMPDEST PUSH20 0xFFFFFFFFFFFFFFFFFFFFFFFFFFFFFFFFFFFFFFFF AND CALLER PUSH20 0xFFFFFFFFFFFFFFFFFFFFFFFFFFFFFFFFFFFFFFFF AND EQ PUSH2 0xB10 JUMPI PUSH1 0x40 MLOAD PUSH32 0x8C379A000000000000000000000000000000000000000000000000000000000 DUP2 MSTORE PUSH1 0x4 ADD PUSH2 0xB07 SWAP1 PUSH2 0x3340 JUMP JUMPDEST PUSH1 0x40 MLOAD DUP1 SWAP2 SUB SWAP1 REVERT JUMPDEST PUSH0 PUSH2 0xB19 PUSH2 0x2121 JUMP JUMPDEST SWAP1 POP PUSH0 PUSH1 0x3 DUP2 GT ISZERO PUSH2 0xB2E JUMPI PUSH2 0xB2D PUSH2 0x29E2 JUMP JUMPDEST JUMPDEST PUSH0 PUSH1 0x1 SWAP1 SLOAD SWAP1 PUSH2 0x100 EXP SWAP1 DIV PUSH1 0xFF AND PUSH1 0x3 DUP2 GT ISZERO PUSH2 0xB4F JUMPI PUSH2 0xB4E PUSH2 0x29E2 JUMP JUMPDEST JUMPDEST EQ PUSH2 0xB8F JUMPI PUSH1 0x40 MLOAD PUSH32 0x8C379A000000000000000000000000000000000000000000000000000000000 DUP2 MSTORE PUSH1 0x4 ADD PUSH2 0xB86 SWAP1 PUSH2 0x33A8 JUMP JUMPDEST PUSH1 0x40 MLOAD DUP1 SWAP2 SUB SWAP1 REVERT JUMPDEST PUSH1 0x1 PUSH0 PUSH0 PUSH2 0x100 EXP DUP2 SLOAD DUP2 PUSH1 0xFF MUL NOT AND SWAP1 DUP4 ISZERO ISZERO MUL OR SWAP1 SSTORE POP PUSH1 0x3 PUSH1 0x4 ADD PUSH0 SWAP1 SLOAD SWAP1 PUSH2 0x100 EXP SWAP1 DIV PUSH1 0xFF AND ISZERO PUSH2 0xBFA JUMPI PUSH1 0x40 MLOAD PUSH32 0x8C379A000000000000000000000000000000000000000000000000000000000 DUP2 MSTORE PUSH1 0x4 ADD PUSH2 0xBF1 SWAP1 PUSH2 0x3410 JUMP JUMPDEST PUSH1 0x40 MLOAD DUP1 SWAP2 SUB SWAP1 REVERT JUMPDEST PUSH1 0x1 PUSH1 0x3 PUSH1 0x4 ADD PUSH0 PUSH2 0x100 EXP DUP2 SLOAD DUP2 PUSH1 0xFF MUL NOT AND SWAP1 DUP4 ISZERO ISZERO MUL OR SWAP1 SSTORE POP PUSH1 0x1 SLOAD SWAP3 POP DUP3 PUSH1 0x3 DUP1 ADD DUP2 SWAP1 SSTORE POP PUSH0 DUP2 PUSH1 0xC0 ADD MLOAD PUSH1 0x40 ADD MLOAD SWAP1 POP PUSH20 0xEEEEEEEEEEEEEEEEEEEEEEEEEEEEEEEEEEEEEEEE PUSH20 0xFFFFFFFFFFFFFFFFFFFFFFFFFFFFFFFFFFFFFFFF AND DUP2 PUSH20 0xFFFFFFFFFFFFFFFFFFFFFFFFFFFFFFFFFFFFFFFF AND SUB PUSH2 0xCC1 JUMPI CALLER PUSH20 0xFFFFFFFFFFFFFFFFFFFFFFFFFFFFFFFFFFFFFFFF AND PUSH2 0x8FC DUP6 SWAP1 DUP2 ISZERO MUL SWAP1 PUSH1 0x40 MLOAD PUSH0 PUSH1 0x40 MLOAD DUP1 DUP4 SUB DUP2 DUP6 DUP9 DUP9 CALL SWAP4 POP POP POP POP ISZERO DUP1 ISZERO PUSH2 0xCBB JUMPI RETURNDATASIZE PUSH0 PUSH0 RETURNDATACOPY RETURNDATASIZE PUSH0 REVERT JUMPDEST POP PUSH2 0xD43 JUMP JUMPDEST PUSH0 DUP2 SWAP1 POP DUP1 PUSH20 0xFFFFFFFFFFFFFFFFFFFFFFFFFFFFFFFFFFFFFFFF AND PUSH4 0x95EA7B3 CALLER DUP8 PUSH1 0x40 MLOAD DUP4 PUSH4 0xFFFFFFFF AND PUSH1 0xE0 SHL DUP2 MSTORE PUSH1 0x4 ADD PUSH2 0xD00 SWAP3 SWAP2 SWAP1 PUSH2 0x327A JUMP JUMPDEST PUSH1 0x20 PUSH1 0x40 MLOAD DUP1 DUP4 SUB DUP2 PUSH0 DUP8 GAS CALL ISZERO DUP1 ISZERO PUSH2 0xD1C JUMPI RETURNDATASIZE PUSH0 PUSH0 RETURNDATACOPY RETURNDATASIZE PUSH0 REVERT JUMPDEST POP POP POP POP PUSH1 0x40 MLOAD RETURNDATASIZE PUSH1 0x1F NOT PUSH1 0x1F DUP3 ADD AND DUP3 ADD DUP1 PUSH1 0x40 MSTORE POP DUP2 ADD SWAP1 PUSH2 0xD40 SWAP2 SWAP1 PUSH2 0x32CB JUMP JUMPDEST POP POP JUMPDEST PUSH2 0xD79 PUSH1 0x3 PUSH0 PUSH32 0x0 DUP8 DUP7 PUSH1 0xC0 ADD MLOAD PUSH1 0x40 ADD MLOAD PUSH2 0x2294 JUMP JUMPDEST SWAP3 POP PUSH1 0x8 PUSH0 DUP7 DUP2 MSTORE PUSH1 0x20 ADD SWAP1 DUP2 MSTORE PUSH1 0x20 ADD PUSH0 KECCAK256 DUP4 SWAP1 DUP1 PUSH1 0x1 DUP2 SLOAD ADD DUP1 DUP3 SSTORE DUP1 SWAP2 POP POP PUSH1 0x1 SWAP1 SUB SWAP1 PUSH0 MSTORE PUSH1 0x20 PUSH0 KECCAK256 ADD PUSH0 SWAP1 SWAP2 SWAP1 SWAP2 SWAP1 SWAP2 POP SSTORE PUSH0 PUSH0 PUSH0 PUSH2 0x100 EXP DUP2 SLOAD DUP2 PUSH1 0xFF MUL NOT AND SWAP1 DUP4 ISZERO ISZERO MUL OR SWAP1 SSTORE POP POP POP SWAP2 POP SWAP2 JUMP JUMPDEST PUSH0 PUSH0 PUSH1 0x1 SWAP1 SLOAD SWAP1 PUSH2 0x100 EXP SWAP1 DIV PUSH1 0xFF AND SWAP1 POP SWAP1 JUMP JUMPDEST PUSH0 PUSH0 PUSH1 0x3 SWAP1 SLOAD SWAP1 PUSH2 0x100 EXP SWAP1 DIV PUSH20 0xFFFFFFFFFFFFFFFFFFFFFFFFFFFFFFFFFFFFFFFF AND PUSH20 0xFFFFFFFFFFFFFFFFFFFFFFFFFFFFFFFFFFFFFFFF AND PUSH4 0xBF40FAC1 PUSH1 0x40 MLOAD DUP1 PUSH1 0x40 ADD PUSH1 0x40 MSTORE DUP1 PUSH1 0x11 DUP2 MSTORE PUSH1 0x20 ADD PUSH32 0x52455345525645445F4D505F41444D494E000000000000000000000000000000 DUP2 MSTORE POP PUSH1 0x40 MLOAD DUP3 PUSH4 0xFFFFFFFF AND PUSH1 0xE0 SHL DUP2 MSTORE PUSH1 0x4 ADD PUSH2 0xE74 SWAP2 SWAP1 PUSH2 0x2939 JUMP JUMPDEST PUSH1 0x20 PUSH1 0x40 MLOAD DUP1 DUP4 SUB DUP2 DUP7 GAS STATICCALL ISZERO DUP1 ISZERO PUSH2 0xE8F JUMPI RETURNDATASIZE PUSH0 PUSH0 RETURNDATACOPY RETURNDATASIZE PUSH0 REVERT JUMPDEST POP POP POP POP PUSH1 0x40 MLOAD RETURNDATASIZE PUSH1 0x1F NOT PUSH1 0x1F DUP3 ADD AND DUP3 ADD DUP1 PUSH1 0x40 MSTORE POP DUP2 ADD SWAP1 PUSH2 0xEB3 SWAP2 SWAP1 PUSH2 0x2FE0 JUMP JUMPDEST PUSH20 0xFFFFFFFFFFFFFFFFFFFFFFFFFFFFFFFFFFFFFFFF AND CALLER PUSH20 0xFFFFFFFFFFFFFFFFFFFFFFFFFFFFFFFFFFFFFFFF AND EQ PUSH2 0xF20 JUMPI PUSH1 0x40 MLOAD PUSH32 0x8C379A000000000000000000000000000000000000000000000000000000000 DUP2 MSTORE PUSH1 0x4 ADD PUSH2 0xF17 SWAP1 PUSH2 0x3055 JUMP JUMPDEST PUSH1 0x40 MLOAD DUP1 SWAP2 SUB SWAP1 REVERT JUMPDEST PUSH1 0x2 PUSH1 0x3 DUP2 GT ISZERO PUSH2 0xF34 JUMPI PUSH2 0xF33 PUSH2 0x29E2 JUMP JUMPDEST JUMPDEST PUSH0 PUSH1 0x1 SWAP1 SLOAD SWAP1 PUSH2 0x100 EXP SWAP1 DIV PUSH1 0xFF AND PUSH1 0x3 DUP2 GT ISZERO PUSH2 0xF55 JUMPI PUSH2 0xF54 PUSH2 0x29E2 JUMP JUMPDEST JUMPDEST EQ PUSH2 0xF95 JUMPI PUSH1 0x40 MLOAD PUSH32 0x8C379A000000000000000000000000000000000000000000000000000000000 DUP2 MSTORE PUSH1 0x4 ADD PUSH2 0xF8C SWAP1 PUSH2 0x3478 JUMP JUMPDEST PUSH1 0x40 MLOAD DUP1 SWAP2 SUB SWAP1 REVERT JUMPDEST PUSH0 PUSH0 PUSH1 0x3 SWAP1 SLOAD SWAP1 PUSH2 0x100 EXP SWAP1 DIV PUSH20 0xFFFFFFFFFFFFFFFFFFFFFFFFFFFFFFFFFFFFFFFF AND PUSH20 0xFFFFFFFFFFFFFFFFFFFFFFFFFFFFFFFFFFFFFFFF AND PUSH4 0xBF40FAC1 PUSH1 0x40 MLOAD DUP1 PUSH1 0x40 ADD PUSH1 0x40 MSTORE DUP1 PUSH1 0x10 DUP2 MSTORE PUSH1 0x20 ADD PUSH32 0x52455345525645445F4D505F42414E4B00000000000000000000000000000000 DUP2 MSTORE POP PUSH1 0x40 MLOAD DUP3 PUSH4 0xFFFFFFFF AND PUSH1 0xE0 SHL DUP2 MSTORE PUSH1 0x4 ADD PUSH2 0x1025 SWAP2 SWAP1 PUSH2 0x2939 JUMP JUMPDEST PUSH1 0x20 PUSH1 0x40 MLOAD DUP1 DUP4 SUB DUP2 DUP7 GAS STATICCALL ISZERO DUP1 ISZERO PUSH2 0x1040 JUMPI RETURNDATASIZE PUSH0 PUSH0 RETURNDATACOPY RETURNDATASIZE PUSH0 REVERT JUMPDEST POP POP POP POP PUSH1 0x40 MLOAD RETURNDATASIZE PUSH1 0x1F NOT PUSH1 0x1F DUP3 ADD AND DUP3 ADD DUP1 PUSH1 0x40 MSTORE POP DUP2 ADD SWAP1 PUSH2 0x1064 SWAP2 SWAP1 PUSH2 0x2FE0 JUMP JUMPDEST SWAP1 POP PUSH20 0xEEEEEEEEEEEEEEEEEEEEEEEEEEEEEEEEEEEEEEEE PUSH20 0xFFFFFFFFFFFFFFFFFFFFFFFFFFFFFFFFFFFFFFFF AND DUP4 PUSH20 0xFFFFFFFFFFFFFFFFFFFFFFFFFFFFFFFFFFFFFFFF AND SUB PUSH2 0x1130 JUMPI PUSH32 0x0 PUSH20 0xFFFFFFFFFFFFFFFFFFFFFFFFFFFFFFFFFFFFFFFF AND BALANCE SWAP2 POP DUP1 PUSH20 0xFFFFFFFFFFFFFFFFFFFFFFFFFFFFFFFFFFFFFFFF AND PUSH2 0x8FC DUP4 SWAP1 DUP2 ISZERO MUL SWAP1 PUSH1 0x40 MLOAD PUSH0 PUSH1 0x40 MLOAD DUP1 DUP4 SUB DUP2 DUP6 DUP9 DUP9 CALL SWAP4 POP POP POP POP ISZERO DUP1 ISZERO PUSH2 0x112A JUMPI RETURNDATASIZE PUSH0 PUSH0 RETURNDATACOPY RETURNDATASIZE PUSH0 REVERT JUMPDEST POP PUSH2 0x124C JUMP JUMPDEST PUSH0 DUP4 SWAP1 POP DUP1 PUSH20 0xFFFFFFFFFFFFFFFFFFFFFFFFFFFFFFFFFFFFFFFF AND PUSH4 0x70A08231 PUSH32 0x0 PUSH1 0x40 MLOAD DUP3 PUSH4 0xFFFFFFFF AND PUSH1 0xE0 SHL DUP2 MSTORE PUSH1 0x4 ADD PUSH2 0x118D SWAP2 SWAP1 PUSH2 0x3222 JUMP JUMPDEST PUSH1 0x20 PUSH1 0x40 MLOAD DUP1 DUP4 SUB DUP2 DUP7 GAS STATICCALL ISZERO DUP1 ISZERO PUSH2 0x11A8 JUMPI RETURNDATASIZE PUSH0 PUSH0 RETURNDATACOPY RETURNDATASIZE PUSH0 REVERT JUMPDEST POP POP POP POP PUSH1 0x40 MLOAD RETURNDATASIZE PUSH1 0x1F NOT PUSH1 0x1F DUP3 ADD AND DUP3 ADD DUP1 PUSH1 0x40 MSTORE POP DUP2 ADD SWAP1 PUSH2 0x11CC SWAP2 SWAP1 PUSH2 0x324F JUMP JUMPDEST SWAP3 POP DUP1 PUSH20 0xFFFFFFFFFFFFFFFFFFFFFFFFFFFFFFFFFFFFFFFF AND PUSH4 0xA9059CBB DUP4 DUP6 PUSH1 0x40 MLOAD DUP4 PUSH4 0xFFFFFFFF AND PUSH1 0xE0 SHL DUP2 MSTORE PUSH1 0x4 ADD PUSH2 0x1209 SWAP3 SWAP2 SWAP1 PUSH2 0x327A JUMP JUMPDEST PUSH1 0x20 PUSH1 0x40 MLOAD DUP1 DUP4 SUB DUP2 PUSH0 DUP8 GAS CALL ISZERO DUP1 ISZERO PUSH2 0x1225 JUMPI RETURNDATASIZE PUSH0 PUSH0 RETURNDATACOPY RETURNDATASIZE PUSH0 REVERT JUMPDEST POP POP POP POP PUSH1 0x40 MLOAD RETURNDATASIZE PUSH1 0x1F NOT PUSH1 0x1F DUP3 ADD AND DUP3 ADD DUP1 PUSH1 0x40 MSTORE POP DUP2 ADD SWAP1 PUSH2 0x1249 SWAP2 SWAP1 PUSH2 0x32CB JUMP JUMPDEST POP POP JUMPDEST POP SWAP2 SWAP1 POP JUMP JUMPDEST PUSH2 0x125A PUSH2 0x26E5 JUMP JUMPDEST PUSH2 0x1262 PUSH2 0x2121 JUMP JUMPDEST SWAP1 POP SWAP1 JUMP JUMPDEST PUSH2 0x126F PUSH2 0x2764 JUMP JUMPDEST PUSH1 0x3 PUSH1 0x40 MLOAD DUP1 PUSH1 0xA0 ADD PUSH1 0x40 MSTORE SWAP1 DUP2 PUSH0 DUP3 ADD SLOAD DUP2 MSTORE PUSH1 0x20 ADD PUSH1 0x1 DUP3 ADD SLOAD DUP2 MSTORE PUSH1 0x20 ADD PUSH1 0x2 DUP3 ADD SLOAD DUP2 MSTORE PUSH1 0x20 ADD PUSH1 0x3 DUP3 ADD SLOAD DUP2 MSTORE PUSH1 0x20 ADD PUSH1 0x4 DUP3 ADD PUSH0 SWAP1 SLOAD SWAP1 PUSH2 0x100 EXP SWAP1 DIV PUSH1 0xFF AND ISZERO ISZERO ISZERO ISZERO DUP2 MSTORE POP POP SWAP1 POP SWAP1 JUMP JUMPDEST PUSH0 PUSH0 PUSH0 SWAP1 SLOAD SWAP1 PUSH2 0x100 EXP SWAP1 DIV PUSH1 0xFF AND ISZERO PUSH2 0x1311 JUMPI PUSH1 0x40 MLOAD PUSH32 0x8C379A000000000000000000000000000000000000000000000000000000000 DUP2 MSTORE PUSH1 0x4 ADD PUSH2 0x1308 SWAP1 PUSH2 0x30BD JUMP JUMPDEST PUSH1 0x40 MLOAD DUP1 SWAP2 SUB SWAP1 REVERT JUMPDEST PUSH1 0x2 PUSH1 0x3 DUP2 GT ISZERO PUSH2 0x1325 JUMPI PUSH2 0x1324 PUSH2 0x29E2 JUMP JUMPDEST JUMPDEST PUSH0 PUSH1 0x1 SWAP1 SLOAD SWAP1 PUSH2 0x100 EXP SWAP1 DIV PUSH1 0xFF AND PUSH1 0x3 DUP2 GT ISZERO PUSH2 0x1346 JUMPI PUSH2 0x1345 PUSH2 0x29E2 JUMP JUMPDEST JUMPDEST SUB PUSH2 0x1386 JUMPI PUSH1 0x40 MLOAD PUSH32 0x8C379A000000000000000000000000000000000000000000000000000000000 DUP2 MSTORE PUSH1 0x4 ADD PUSH2 0x137D SWAP1 PUSH2 0x3125 JUMP JUMPDEST PUSH1 0x40 MLOAD DUP1 SWAP2 SUB SWAP1 REVERT JUMPDEST PUSH0 PUSH1 0x3 SWAP1 SLOAD SWAP1 PUSH2 0x100 EXP SWAP1 DIV PUSH20 0xFFFFFFFFFFFFFFFFFFFFFFFFFFFFFFFFFFFFFFFF AND PUSH20 0xFFFFFFFFFFFFFFFFFFFFFFFFFFFFFFFFFFFFFFFF AND PUSH4 0xBF40FAC1 PUSH1 0x40 MLOAD DUP1 PUSH1 0x40 ADD PUSH1 0x40 MSTORE DUP1 PUSH1 0x14 DUP2 MSTORE PUSH1 0x20 ADD PUSH32 0x52455345525645445F4D505F5452454153555259000000000000000000000000 DUP2 MSTORE POP PUSH1 0x40 MLOAD DUP3 PUSH4 0xFFFFFFFF AND PUSH1 0xE0 SHL DUP2 MSTORE PUSH1 0x4 ADD PUSH2 0x1415 SWAP2 SWAP1 PUSH2 0x2939 JUMP JUMPDEST PUSH1 0x20 PUSH1 0x40 MLOAD DUP1 DUP4 SUB DUP2 DUP7 GAS STATICCALL ISZERO DUP1 ISZERO PUSH2 0x1430 JUMPI RETURNDATASIZE PUSH0 PUSH0 RETURNDATACOPY RETURNDATASIZE PUSH0 REVERT JUMPDEST POP POP POP POP PUSH1 0x40 MLOAD RETURNDATASIZE PUSH1 0x1F NOT PUSH1 0x1F DUP3 ADD AND DUP3 ADD DUP1 PUSH1 0x40 MSTORE POP DUP2 ADD SWAP1 PUSH2 0x1454 SWAP2 SWAP1 PUSH2 0x2FE0 JUMP JUMPDEST PUSH20 0xFFFFFFFFFFFFFFFFFFFFFFFFFFFFFFFFFFFFFFFF AND CALLER PUSH20 0xFFFFFFFFFFFFFFFFFFFFFFFFFFFFFFFFFFFFFFFF AND EQ PUSH2 0x14C1 JUMPI PUSH1 0x40 MLOAD PUSH32 0x8C379A000000000000000000000000000000000000000000000000000000000 DUP2 MSTORE PUSH1 0x4 ADD PUSH2 0x14B8 SWAP1 PUSH2 0x3340 JUMP JUMPDEST PUSH1 0x40 MLOAD DUP1 SWAP2 SUB SWAP1 REVERT JUMPDEST PUSH1 0x1 PUSH0 PUSH0 PUSH2 0x100 EXP DUP2 SLOAD DUP2 PUSH1 0xFF MUL NOT AND SWAP1 DUP4 ISZERO ISZERO MUL OR SWAP1 SSTORE POP PUSH0 PUSH2 0x14E3 PUSH2 0x2121 JUMP JUMPDEST SWAP1 POP PUSH1 0x3 DUP1 ADD SLOAD DUP5 LT ISZERO PUSH2 0x152C JUMPI PUSH1 0x40 MLOAD PUSH32 0x8C379A000000000000000000000000000000000000000000000000000000000 DUP2 MSTORE PUSH1 0x4 ADD PUSH2 0x1523 SWAP1 PUSH2 0x34E0 JUMP JUMPDEST PUSH1 0x40 MLOAD DUP1 SWAP2 SUB SWAP1 REVERT JUMPDEST PUSH0 DUP4 DUP6 PUSH2 0x1539 SWAP2 SWAP1 PUSH2 0x352B JUMP JUMPDEST SWAP1 POP PUSH1 0x3 PUSH1 0x4 ADD PUSH0 SWAP1 SLOAD SWAP1 PUSH2 0x100 EXP SWAP1 DIV PUSH1 0xFF AND PUSH2 0x158C JUMPI PUSH1 0x40 MLOAD PUSH32 0x8C379A000000000000000000000000000000000000000000000000000000000 DUP2 MSTORE PUSH1 0x4 ADD PUSH2 0x1583 SWAP1 PUSH2 0x35A8 JUMP JUMPDEST PUSH1 0x40 MLOAD DUP1 SWAP2 SUB SWAP1 REVERT JUMPDEST PUSH0 DUP3 PUSH1 0xC0 ADD MLOAD PUSH1 0x40 ADD MLOAD SWAP1 POP PUSH20 0xEEEEEEEEEEEEEEEEEEEEEEEEEEEEEEEEEEEEEEEE PUSH20 0xFFFFFFFFFFFFFFFFFFFFFFFFFFFFFFFFFFFFFFFF AND DUP2 PUSH20 0xFFFFFFFFFFFFFFFFFFFFFFFFFFFFFFFFFFFFFFFF AND SUB PUSH2 0x1627 JUMPI DUP2 CALLVALUE LT ISZERO PUSH2 0x1622 JUMPI PUSH1 0x40 MLOAD PUSH32 0x8C379A000000000000000000000000000000000000000000000000000000000 DUP2 MSTORE PUSH1 0x4 ADD PUSH2 0x1619 SWAP1 PUSH2 0x3610 JUMP JUMPDEST PUSH1 0x40 MLOAD DUP1 SWAP2 SUB SWAP1 REVERT JUMPDEST PUSH2 0x16CB JUMP JUMPDEST PUSH0 DUP2 SWAP1 POP DUP1 PUSH20 0xFFFFFFFFFFFFFFFFFFFFFFFFFFFFFFFFFFFFFFFF AND PUSH4 0x23B872DD CALLER PUSH32 0x0 DUP7 PUSH1 0x40 MLOAD DUP5 PUSH4 0xFFFFFFFF AND PUSH1 0xE0 SHL DUP2 MSTORE PUSH1 0x4 ADD PUSH2 0x1688 SWAP4 SWAP3 SWAP2 SWAP1 PUSH2 0x362E JUMP JUMPDEST PUSH1 0x20 PUSH1 0x40 MLOAD DUP1 DUP4 SUB DUP2 PUSH0 DUP8 GAS CALL ISZERO DUP1 ISZERO PUSH2 0x16A4 JUMPI RETURNDATASIZE PUSH0 PUSH0 RETURNDATACOPY RETURNDATASIZE PUSH0 REVERT JUMPDEST POP POP POP POP PUSH1 0x40 MLOAD RETURNDATASIZE PUSH1 0x1F NOT PUSH1 0x1F DUP3 ADD AND DUP3 ADD DUP1 PUSH1 0x40 MSTORE POP DUP2 ADD SWAP1 PUSH2 0x16C8 SWAP2 SWAP1 PUSH2 0x32CB JUMP JUMPDEST POP POP JUMPDEST PUSH0 PUSH1 0x3 DUP1 ADD SLOAD PUSH1 0x1 SLOAD PUSH2 0x16DE SWAP2 SWAP1 PUSH2 0x3663 JUMP JUMPDEST SWAP1 POP DUP6 PUSH1 0x3 DUP1 ADD SLOAD DUP3 PUSH2 0x16F1 SWAP2 SWAP1 PUSH2 0x352B JUMP JUMPDEST PUSH2 0x16FB SWAP2 SWAP1 PUSH2 0x352B JUMP JUMPDEST PUSH1 0x1 DUP2 SWAP1 SSTORE POP PUSH2 0x170A DUP5 PUSH2 0x2410 JUMP JUMPDEST PUSH2 0x1740 PUSH1 0x1 PUSH0 PUSH32 0x0 DUP7 DUP9 PUSH1 0xC0 ADD MLOAD PUSH1 0x40 ADD MLOAD PUSH2 0x2294 JUMP JUMPDEST SWAP5 POP PUSH1 0x8 PUSH0 DUP10 DUP2 MSTORE PUSH1 0x20 ADD SWAP1 DUP2 MSTORE PUSH1 0x20 ADD PUSH0 KECCAK256 DUP6 SWAP1 DUP1 PUSH1 0x1 DUP2 SLOAD ADD DUP1 DUP3 SSTORE DUP1 SWAP2 POP POP PUSH1 0x1 SWAP1 SUB SWAP1 PUSH0 MSTORE PUSH1 0x20 PUSH0 KECCAK256 ADD PUSH0 SWAP1 SWAP2 SWAP1 SWAP2 SWAP1 SWAP2 POP SSTORE PUSH0 PUSH1 0x3 PUSH1 0x4 ADD PUSH0 PUSH2 0x100 EXP DUP2 SLOAD DUP2 PUSH1 0xFF MUL NOT AND SWAP1 DUP4 ISZERO ISZERO MUL OR SWAP1 SSTORE POP PUSH0 PUSH0 PUSH0 PUSH2 0x100 EXP DUP2 SLOAD DUP2 PUSH1 0xFF MUL NOT AND SWAP1 DUP4 ISZERO ISZERO MUL OR SWAP1 SSTORE POP POP POP POP POP SWAP4 SWAP3 POP POP POP JUMP JUMPDEST PUSH1 0x60 PUSH1 0x8 PUSH0 DUP4 DUP2 MSTORE PUSH1 0x20 ADD SWAP1 DUP2 MSTORE PUSH1 0x20 ADD PUSH0 KECCAK256 DUP1 SLOAD DUP1 PUSH1 0x20 MUL PUSH1 0x20 ADD PUSH1 0x40 MLOAD SWAP1 DUP2 ADD PUSH1 0x40 MSTORE DUP1 SWAP3 SWAP2 SWAP1 DUP2 DUP2 MSTORE PUSH1 0x20 ADD DUP3 DUP1 SLOAD DUP1 ISZERO PUSH2 0x1811 JUMPI PUSH1 0x20 MUL DUP3 ADD SWAP2 SWAP1 PUSH0 MSTORE PUSH1 0x20 PUSH0 KECCAK256 SWAP1 JUMPDEST DUP2 SLOAD DUP2 MSTORE PUSH1 0x20 ADD SWAP1 PUSH1 0x1 ADD SWAP1 DUP1 DUP4 GT PUSH2 0x17FD JUMPI JUMPDEST POP POP POP POP POP SWAP1 POP SWAP2 SWAP1 POP JUMP JUMPDEST PUSH0 PUSH1 0x1 PUSH0 PUSH0 PUSH2 0x100 EXP DUP2 SLOAD DUP2 PUSH1 0xFF MUL NOT AND SWAP1 DUP4 ISZERO ISZERO MUL OR SWAP1 SSTORE POP TIMESTAMP PUSH1 0x3 PUSH1 0x1 ADD SLOAD GT ISZERO PUSH2 0x187F JUMPI PUSH1 0x40 MLOAD PUSH32 0x8C379A000000000000000000000000000000000000000000000000000000000 DUP2 MSTORE PUSH1 0x4 ADD PUSH2 0x1876 SWAP1 PUSH2 0x3706 JUMP JUMPDEST PUSH1 0x40 MLOAD DUP1 SWAP2 SUB SWAP1 REVERT JUMPDEST PUSH1 0x1 PUSH1 0x2 DUP2 GT ISZERO PUSH2 0x1893 JUMPI PUSH2 0x1892 PUSH2 0x29E2 JUMP JUMPDEST JUMPDEST PUSH0 PUSH1 0x2 SWAP1 SLOAD SWAP1 PUSH2 0x100 EXP SWAP1 DIV PUSH1 0xFF AND PUSH1 0x2 DUP2 GT ISZERO PUSH2 0x18B4 JUMPI PUSH2 0x18B3 PUSH2 0x29E2 JUMP JUMPDEST JUMPDEST SUB PUSH2 0x18F4 JUMPI PUSH1 0x40 MLOAD PUSH32 0x8C379A000000000000000000000000000000000000000000000000000000000 DUP2 MSTORE PUSH1 0x4 ADD PUSH2 0x18EB SWAP1 PUSH2 0x376E JUMP JUMPDEST PUSH1 0x40 MLOAD DUP1 SWAP2 SUB SWAP1 REVERT JUMPDEST PUSH0 PUSH1 0x3 DUP2 GT ISZERO PUSH2 0x1907 JUMPI PUSH2 0x1906 PUSH2 0x29E2 JUMP JUMPDEST JUMPDEST PUSH0 PUSH1 0x1 SWAP1 SLOAD SWAP1 PUSH2 0x100 EXP SWAP1 DIV PUSH1 0xFF AND PUSH1 0x3 DUP2 GT ISZERO PUSH2 0x1928 JUMPI PUSH2 0x1927 PUSH2 0x29E2 JUMP JUMPDEST JUMPDEST EQ PUSH2 0x1968 JUMPI PUSH1 0x40 MLOAD PUSH32 0x8C379A000000000000000000000000000000000000000000000000000000000 DUP2 MSTORE PUSH1 0x4 ADD PUSH2 0x195F SWAP1 PUSH2 0x37D6 JUMP JUMPDEST PUSH1 0x40 MLOAD DUP1 SWAP2 SUB SWAP1 REVERT JUMPDEST PUSH0 PUSH2 0x1971 PUSH2 0x2121 JUMP JUMPDEST SWAP1 POP PUSH2 0x1987 DUP2 PUSH1 0xC0 ADD MLOAD PUSH1 0xE0 ADD MLOAD PUSH0 ADD MLOAD PUSH2 0x247D JUMP JUMPDEST PUSH1 0x3 PUSH1 0x1 ADD PUSH0 DUP3 DUP3 SLOAD PUSH2 0x199A SWAP2 SWAP1 PUSH2 0x352B JUMP JUMPDEST SWAP3 POP POP DUP2 SWAP1 SSTORE POP DUP1 PUSH1 0xC0 ADD MLOAD PUSH1 0xE0 ADD MLOAD PUSH1 0x40 ADD MLOAD DUP4 LT ISZERO DUP1 ISZERO PUSH2 0x19C9 JUMPI POP DUP1 PUSH1 0xC0 ADD MLOAD PUSH1 0xE0 ADD MLOAD PUSH1 0x60 ADD MLOAD DUP4 GT ISZERO JUMPDEST PUSH2 0x1A08 JUMPI PUSH1 0x40 MLOAD PUSH32 0x8C379A000000000000000000000000000000000000000000000000000000000 DUP2 MSTORE PUSH1 0x4 ADD PUSH2 0x19FF SWAP1 PUSH2 0x3864 JUMP JUMPDEST PUSH1 0x40 MLOAD DUP1 SWAP2 SUB SWAP1 REVERT JUMPDEST PUSH0 DUP2 PUSH1 0xC0 ADD MLOAD PUSH1 0x40 ADD MLOAD SWAP1 POP PUSH2 0x1A3F DUP2 DUP6 PUSH32 0x0 PUSH2 0x256C JUMP JUMPDEST POP DUP4 PUSH1 0x1 PUSH0 DUP3 DUP3 SLOAD PUSH2 0x1A51 SWAP2 SWAP1 PUSH2 0x352B JUMP JUMPDEST SWAP3 POP POP DUP2 SWAP1 SSTORE POP PUSH1 0x3 PUSH0 ADD PUSH0 DUP2 SLOAD DUP1 SWAP3 SWAP2 SWAP1 PUSH2 0x1A6C SWAP1 PUSH2 0x3882 JUMP JUMPDEST SWAP2 SWAP1 POP SSTORE POP PUSH0 PUSH0 PUSH0 PUSH2 0x100 EXP DUP2 SLOAD DUP2 PUSH1 0xFF MUL NOT AND SWAP1 DUP4 ISZERO ISZERO MUL OR SWAP1 SSTORE POP POP POP SWAP2 SWAP1 POP JUMP JUMPDEST PUSH0 PUSH0 PUSH1 0x3 SWAP1 SLOAD SWAP1 PUSH2 0x100 EXP SWAP1 DIV PUSH20 0xFFFFFFFFFFFFFFFFFFFFFFFFFFFFFFFFFFFFFFFF AND PUSH20 0xFFFFFFFFFFFFFFFFFFFFFFFFFFFFFFFFFFFFFFFF AND PUSH4 0xBF40FAC1 PUSH1 0x40 MLOAD DUP1 PUSH1 0x40 ADD PUSH1 0x40 MSTORE DUP1 PUSH1 0x11 DUP2 MSTORE PUSH1 0x20 ADD PUSH32 0x52455345525645445F4D505F41444D494E000000000000000000000000000000 DUP2 MSTORE POP PUSH1 0x40 MLOAD DUP3 PUSH4 0xFFFFFFFF AND PUSH1 0xE0 SHL DUP2 MSTORE PUSH1 0x4 ADD PUSH2 0x1B20 SWAP2 SWAP1 PUSH2 0x2939 JUMP JUMPDEST PUSH1 0x20 PUSH1 0x40 MLOAD DUP1 DUP4 SUB DUP2 DUP7 GAS STATICCALL ISZERO DUP1 ISZERO PUSH2 0x1B3B JUMPI RETURNDATASIZE PUSH0 PUSH0 RETURNDATACOPY RETURNDATASIZE PUSH0 REVERT JUMPDEST POP POP POP POP PUSH1 0x40 MLOAD RETURNDATASIZE PUSH1 0x1F NOT PUSH1 0x1F DUP3 ADD AND DUP3 ADD DUP1 PUSH1 0x40 MSTORE POP DUP2 ADD SWAP1 PUSH2 0x1B5F SWAP2 SWAP1 PUSH2 0x2FE0 JUMP JUMPDEST PUSH20 0xFFFFFFFFFFFFFFFFFFFFFFFFFFFFFFFFFFFFFFFF AND CALLER PUSH20 0xFFFFFFFFFFFFFFFFFFFFFFFFFFFFFFFFFFFFFFFF AND EQ PUSH2 0x1BCC JUMPI PUSH1 0x40 MLOAD PUSH32 0x8C379A000000000000000000000000000000000000000000000000000000000 DUP2 MSTORE PUSH1 0x4 ADD PUSH2 0x1BC3 SWAP1 PUSH2 0x3055 JUMP JUMPDEST PUSH1 0x40 MLOAD DUP1 SWAP2 SUB SWAP1 REVERT JUMPDEST PUSH0 PUSH1 0x3 SWAP1 SLOAD SWAP1 PUSH2 0x100 EXP SWAP1 DIV PUSH20 0xFFFFFFFFFFFFFFFFFFFFFFFFFFFFFFFFFFFFFFFF AND PUSH20 0xFFFFFFFFFFFFFFFFFFFFFFFFFFFFFFFFFFFFFFFF AND PUSH4 0xBF40FAC1 PUSH1 0x40 MLOAD DUP1 PUSH1 0x40 ADD PUSH1 0x40 MSTORE DUP1 PUSH1 0x14 DUP2 MSTORE PUSH1 0x20 ADD PUSH32 0x52455345525645445F4D505F5245474953544552000000000000000000000000 DUP2 MSTORE POP PUSH1 0x40 MLOAD DUP3 PUSH4 0xFFFFFFFF AND PUSH1 0xE0 SHL DUP2 MSTORE PUSH1 0x4 ADD PUSH2 0x1C5B SWAP2 SWAP1 PUSH2 0x2939 JUMP JUMPDEST PUSH1 0x20 PUSH1 0x40 MLOAD DUP1 DUP4 SUB DUP2 DUP7 GAS STATICCALL ISZERO DUP1 ISZERO PUSH2 0x1C76 JUMPI RETURNDATASIZE PUSH0 PUSH0 RETURNDATACOPY RETURNDATASIZE PUSH0 REVERT JUMPDEST POP POP POP POP PUSH1 0x40 MLOAD RETURNDATASIZE PUSH1 0x1F NOT PUSH1 0x1F DUP3 ADD AND DUP3 ADD DUP1 PUSH1 0x40 MSTORE POP DUP2 ADD SWAP1 PUSH2 0x1C9A SWAP2 SWAP1 PUSH2 0x2FE0 JUMP JUMPDEST PUSH0 PUSH1 0x3 PUSH2 0x100 EXP DUP2 SLOAD DUP2 PUSH20 0xFFFFFFFFFFFFFFFFFFFFFFFFFFFFFFFFFFFFFFFF MUL NOT AND SWAP1 DUP4 PUSH20 0xFFFFFFFFFFFFFFFFFFFFFFFFFFFFFFFFFFFFFFFF AND MUL OR SWAP1 SSTORE POP PUSH1 0x1 SWAP1 POP SWAP1 JUMP JUMPDEST PUSH0 PUSH2 0x1CE9 PUSH2 0x2121 JUMP JUMPDEST PUSH1 0x40 ADD MLOAD PUSH20 0xFFFFFFFFFFFFFFFFFFFFFFFFFFFFFFFFFFFFFFFF AND CALLER PUSH20 0xFFFFFFFFFFFFFFFFFFFFFFFFFFFFFFFFFFFFFFFF AND EQ PUSH2 0x1D5A JUMPI PUSH1 0x40 MLOAD PUSH32 0x8C379A000000000000000000000000000000000000000000000000000000000 DUP2 MSTORE PUSH1 0x4 ADD PUSH2 0x1D51 SWAP1 PUSH2 0x3913 JUMP JUMPDEST PUSH1 0x40 MLOAD DUP1 SWAP2 SUB SWAP1 REVERT JUMPDEST PUSH0 PUSH0 SWAP1 SLOAD SWAP1 PUSH2 0x100 EXP SWAP1 DIV PUSH1 0xFF AND ISZERO PUSH2 0x1DA8 JUMPI PUSH1 0x40 MLOAD PUSH32 0x8C379A000000000000000000000000000000000000000000000000000000000 DUP2 MSTORE PUSH1 0x4 ADD PUSH2 0x1D9F SWAP1 PUSH2 0x30BD JUMP JUMPDEST PUSH1 0x40 MLOAD DUP1 SWAP2 SUB SWAP1 REVERT JUMPDEST PUSH1 0x2 PUSH1 0x3 DUP2 GT ISZERO PUSH2 0x1DBC JUMPI PUSH2 0x1DBB PUSH2 0x29E2 JUMP JUMPDEST JUMPDEST PUSH0 PUSH1 0x1 SWAP1 SLOAD SWAP1 PUSH2 0x100 EXP SWAP1 DIV PUSH1 0xFF AND PUSH1 0x3 DUP2 GT ISZERO PUSH2 0x1DDD JUMPI PUSH2 0x1DDC PUSH2 0x29E2 JUMP JUMPDEST JUMPDEST SUB PUSH2 0x1E1D JUMPI PUSH1 0x40 MLOAD PUSH32 0x8C379A000000000000000000000000000000000000000000000000000000000 DUP2 MSTORE PUSH1 0x4 ADD PUSH2 0x1E14 SWAP1 PUSH2 0x3125 JUMP JUMPDEST PUSH1 0x40 MLOAD DUP1 SWAP2 SUB SWAP1 REVERT JUMPDEST PUSH0 PUSH2 0x1E26 PUSH2 0x2121 JUMP JUMPDEST SWAP1 POP PUSH1 0x1 PUSH0 PUSH0 PUSH2 0x100 EXP DUP2 SLOAD DUP2 PUSH1 0xFF MUL NOT AND SWAP1 DUP4 ISZERO ISZERO MUL OR SWAP1 SSTORE POP PUSH1 0x1 PUSH1 0x3 DUP2 GT ISZERO PUSH2 0x1E55 JUMPI PUSH2 0x1E54 PUSH2 0x29E2 JUMP JUMPDEST JUMPDEST PUSH0 PUSH1 0x1 SWAP1 SLOAD SWAP1 PUSH2 0x100 EXP SWAP1 DIV PUSH1 0xFF AND PUSH1 0x3 DUP2 GT ISZERO PUSH2 0x1E76 JUMPI PUSH2 0x1E75 PUSH2 0x29E2 JUMP JUMPDEST JUMPDEST EQ PUSH2 0x1EB6 JUMPI PUSH1 0x40 MLOAD PUSH32 0x8C379A000000000000000000000000000000000000000000000000000000000 DUP2 MSTORE PUSH1 0x4 ADD PUSH2 0x1EAD SWAP1 PUSH2 0x397B JUMP JUMPDEST PUSH1 0x40 MLOAD DUP1 SWAP2 SUB SWAP1 REVERT JUMPDEST PUSH1 0x2 DUP1 DUP2 GT ISZERO PUSH2 0x1EC9 JUMPI PUSH2 0x1EC8 PUSH2 0x29E2 JUMP JUMPDEST JUMPDEST PUSH0 PUSH1 0x2 SWAP1 SLOAD SWAP1 PUSH2 0x100 EXP SWAP1 DIV PUSH1 0xFF AND PUSH1 0x2 DUP2 GT ISZERO PUSH2 0x1EEA JUMPI PUSH2 0x1EE9 PUSH2 0x29E2 JUMP JUMPDEST JUMPDEST SUB PUSH2 0x1F2A JUMPI PUSH1 0x40 MLOAD PUSH32 0x8C379A000000000000000000000000000000000000000000000000000000000 DUP2 MSTORE PUSH1 0x4 ADD PUSH2 0x1F21 SWAP1 PUSH2 0x39E3 JUMP JUMPDEST PUSH1 0x40 MLOAD DUP1 SWAP2 SUB SWAP1 REVERT JUMPDEST PUSH0 DUP2 PUSH1 0xC0 ADD MLOAD PUSH2 0x100 ADD MLOAD PUSH1 0x40 ADD MLOAD SWAP1 POP DUP1 PUSH1 0x1 SLOAD LT ISZERO PUSH2 0x1F80 JUMPI PUSH1 0x40 MLOAD PUSH32 0x8C379A000000000000000000000000000000000000000000000000000000000 DUP2 MSTORE PUSH1 0x4 ADD PUSH2 0x1F77 SWAP1 PUSH2 0x3A4B JUMP JUMPDEST PUSH1 0x40 MLOAD DUP1 SWAP2 SUB SWAP1 REVERT JUMPDEST PUSH0 DUP3 PUSH1 0x40 ADD MLOAD SWAP1 POP DUP2 PUSH1 0x1 PUSH0 DUP3 DUP3 SLOAD PUSH2 0x1F99 SWAP2 SWAP1 PUSH2 0x3663 JUMP JUMPDEST SWAP3 POP POP DUP2 SWAP1 SSTORE POP PUSH20 0xEEEEEEEEEEEEEEEEEEEEEEEEEEEEEEEEEEEEEEEE PUSH20 0xFFFFFFFFFFFFFFFFFFFFFFFFFFFFFFFFFFFFFFFF AND DUP4 PUSH1 0xC0 ADD MLOAD PUSH1 0x40 ADD MLOAD PUSH20 0xFFFFFFFFFFFFFFFFFFFFFFFFFFFFFFFFFFFFFFFF AND SUB PUSH2 0x2038 JUMPI DUP1 PUSH20 0xFFFFFFFFFFFFFFFFFFFFFFFFFFFFFFFFFFFFFFFF AND PUSH2 0x8FC DUP4 SWAP1 DUP2 ISZERO MUL SWAP1 PUSH1 0x40 MLOAD PUSH0 PUSH1 0x40 MLOAD DUP1 DUP4 SUB DUP2 DUP6 DUP9 DUP9 CALL SWAP4 POP POP POP POP ISZERO DUP1 ISZERO PUSH2 0x2032 JUMPI RETURNDATASIZE PUSH0 PUSH0 RETURNDATACOPY RETURNDATASIZE PUSH0 REVERT JUMPDEST POP PUSH2 0x20C2 JUMP JUMPDEST PUSH0 DUP4 PUSH1 0xC0 ADD MLOAD PUSH1 0x40 ADD MLOAD SWAP1 POP DUP1 PUSH20 0xFFFFFFFFFFFFFFFFFFFFFFFFFFFFFFFFFFFFFFFF AND PUSH4 0xA9059CBB DUP4 DUP6 PUSH1 0x40 MLOAD DUP4 PUSH4 0xFFFFFFFF AND PUSH1 0xE0 SHL DUP2 MSTORE PUSH1 0x4 ADD PUSH2 0x207F SWAP3 SWAP2 SWAP1 PUSH2 0x327A JUMP JUMPDEST PUSH1 0x20 PUSH1 0x40 MLOAD DUP1 DUP4 SUB DUP2 PUSH0 DUP8 GAS CALL ISZERO DUP1 ISZERO PUSH2 0x209B JUMPI RETURNDATASIZE PUSH0 PUSH0 RETURNDATACOPY RETURNDATASIZE PUSH0 REVERT JUMPDEST POP POP POP POP PUSH1 0x40 MLOAD RETURNDATASIZE PUSH1 0x1F NOT PUSH1 0x1F DUP3 ADD AND DUP3 ADD DUP1 PUSH1 0x40 MSTORE POP DUP2 ADD SWAP1 PUSH2 0x20BF SWAP2 SWAP1 PUSH2 0x32CB JUMP JUMPDEST POP POP JUMPDEST PUSH2 0x20CB DUP4 PUSH2 0x26A1 JUMP JUMPDEST PUSH2 0x2101 PUSH1 0x2 PUSH0 PUSH32 0x0 DUP6 DUP8 PUSH1 0xC0 ADD MLOAD PUSH1 0x40 ADD MLOAD PUSH2 0x2294 JUMP JUMPDEST SWAP4 POP PUSH0 PUSH0 PUSH0 PUSH2 0x100 EXP DUP2 SLOAD DUP2 PUSH1 0xFF MUL NOT AND SWAP1 DUP4 ISZERO ISZERO MUL OR SWAP1 SSTORE POP POP POP POP SWAP1 JUMP JUMPDEST PUSH2 0x2129 PUSH2 0x26E5 JUMP JUMPDEST PUSH0 PUSH1 0x3 SWAP1 SLOAD SWAP1 PUSH2 0x100 EXP SWAP1 DIV PUSH20 0xFFFFFFFFFFFFFFFFFFFFFFFFFFFFFFFFFFFFFFFF AND PUSH20 0xFFFFFFFFFFFFFFFFFFFFFFFFFFFFFFFFFFFFFFFF AND PUSH4 0xBF40FAC1 PUSH1 0x40 MLOAD DUP1 PUSH1 0x40 ADD PUSH1 0x40 MSTORE DUP1 PUSH1 0x20 DUP2 MSTORE PUSH1 0x20 ADD PUSH32 0x52455345525645445F4D4544414C4C494F4E5F50454E53494F4E535F434F5245 DUP2 MSTORE POP PUSH1 0x40 MLOAD DUP3 PUSH4 0xFFFFFFFF AND PUSH1 0xE0 SHL DUP2 MSTORE PUSH1 0x4 ADD PUSH2 0x21B8 SWAP2 SWAP1 PUSH2 0x2939 JUMP JUMPDEST PUSH1 0x20 PUSH1 0x40 MLOAD DUP1 DUP4 SUB DUP2 DUP7 GAS STATICCALL ISZERO DUP1 ISZERO PUSH2 0x21D3 JUMPI RETURNDATASIZE PUSH0 PUSH0 RETURNDATACOPY RETURNDATASIZE PUSH0 REVERT JUMPDEST POP POP POP POP PUSH1 0x40 MLOAD RETURNDATASIZE PUSH1 0x1F NOT PUSH1 0x1F DUP3 ADD AND DUP3 ADD DUP1 PUSH1 0x40 MSTORE POP DUP2 ADD SWAP1 PUSH2 0x21F7 SWAP2 SWAP1 PUSH2 0x2FE0 JUMP JUMPDEST PUSH20 0xFFFFFFFFFFFFFFFFFFFFFFFFFFFFFFFFFFFFFFFF AND PUSH4 0x77BDFDF2 PUSH32 0x0 PUSH1 0x40 MLOAD DUP3 PUSH4 0xFFFFFFFF AND PUSH1 0xE0 SHL DUP2 MSTORE PUSH1 0x4 ADD PUSH2 0x224F SWAP2 SWAP1 PUSH2 0x28B0 JUMP JUMPDEST PUSH2 0x3C0 PUSH1 0x40 MLOAD DUP1 DUP4 SUB DUP2 DUP7 GAS STATICCALL ISZERO DUP1 ISZERO PUSH2 0x226B JUMPI RETURNDATASIZE PUSH0 PUSH0 RETURNDATACOPY RETURNDATASIZE PUSH0 REVERT JUMPDEST POP POP POP POP PUSH1 0x40 MLOAD RETURNDATASIZE PUSH1 0x1F NOT PUSH1 0x1F DUP3 ADD AND DUP3 ADD DUP1 PUSH1 0x40 MSTORE POP DUP2 ADD SWAP1 PUSH2 0x228F SWAP2 SWAP1 PUSH2 0x3DFC JUMP JUMPDEST SWAP1 POP SWAP1 JUMP JUMPDEST PUSH0 PUSH0 PUSH1 0x3 SWAP1 SLOAD SWAP1 PUSH2 0x100 EXP SWAP1 DIV PUSH20 0xFFFFFFFFFFFFFFFFFFFFFFFFFFFFFFFFFFFFFFFF AND PUSH20 0xFFFFFFFFFFFFFFFFFFFFFFFFFFFFFFFFFFFFFFFF AND PUSH4 0xBF40FAC1 PUSH1 0x40 MLOAD DUP1 PUSH1 0x40 ADD PUSH1 0x40 MSTORE DUP1 PUSH1 0x16 DUP2 MSTORE PUSH1 0x20 ADD PUSH32 0x52455345525645445F4D505F54585F4D414E4147455200000000000000000000 DUP2 MSTORE POP PUSH1 0x40 MLOAD DUP3 PUSH4 0xFFFFFFFF AND PUSH1 0xE0 SHL DUP2 MSTORE PUSH1 0x4 ADD PUSH2 0x2324 SWAP2 SWAP1 PUSH2 0x2939 JUMP JUMPDEST PUSH1 0x20 PUSH1 0x40 MLOAD DUP1 DUP4 SUB DUP2 DUP7 GAS STATICCALL ISZERO DUP1 ISZERO PUSH2 0x233F JUMPI RETURNDATASIZE PUSH0 PUSH0 RETURNDATACOPY RETURNDATASIZE PUSH0 REVERT JUMPDEST POP POP POP POP PUSH1 0x40 MLOAD RETURNDATASIZE PUSH1 0x1F NOT PUSH1 0x1F DUP3 ADD AND DUP3 ADD DUP1 PUSH1 0x40 MSTORE POP DUP2 ADD SWAP1 PUSH2 0x2363 SWAP2 SWAP1 PUSH2 0x2FE0 JUMP JUMPDEST PUSH20 0xFFFFFFFFFFFFFFFFFFFFFFFFFFFFFFFFFFFFFFFF AND PUSH4 0xEE16E639 DUP8 DUP8 DUP8 PUSH32 0x0 DUP9 DUP9 PUSH1 0x40 MLOAD DUP8 PUSH4 0xFFFFFFFF AND PUSH1 0xE0 SHL DUP2 MSTORE PUSH1 0x4 ADD PUSH2 0x23C5 SWAP7 SWAP6 SWAP5 SWAP4 SWAP3 SWAP2 SWAP1 PUSH2 0x3EB4 JUMP JUMPDEST PUSH1 0x20 PUSH1 0x40 MLOAD DUP1 DUP4 SUB DUP2 PUSH0 DUP8 GAS CALL ISZERO DUP1 ISZERO PUSH2 0x23E1 JUMPI RETURNDATASIZE PUSH0 PUSH0 RETURNDATACOPY RETURNDATASIZE PUSH0 REVERT JUMPDEST POP POP POP POP PUSH1 0x40 MLOAD RETURNDATASIZE PUSH1 0x1F NOT PUSH1 0x1F DUP3 ADD AND DUP3 ADD DUP1 PUSH1 0x40 MSTORE POP DUP2 ADD SWAP1 PUSH2 0x2405 SWAP2 SWAP1 PUSH2 0x324F JUMP JUMPDEST SWAP1 POP SWAP6 SWAP5 POP POP POP POP POP JUMP JUMPDEST DUP1 PUSH1 0xC0 ADD MLOAD PUSH1 0xE0 ADD MLOAD PUSH1 0xA0 ADD MLOAD PUSH1 0x1 SLOAD LT PUSH2 0x247A JUMPI PUSH1 0x1 PUSH0 PUSH1 0x2 PUSH2 0x100 EXP DUP2 SLOAD DUP2 PUSH1 0xFF MUL NOT AND SWAP1 DUP4 PUSH1 0x2 DUP2 GT ISZERO PUSH2 0x244A JUMPI PUSH2 0x2449 PUSH2 0x29E2 JUMP JUMPDEST JUMPDEST MUL OR SWAP1 SSTORE POP PUSH1 0x1 PUSH0 PUSH1 0x1 PUSH2 0x100 EXP DUP2 SLOAD DUP2 PUSH1 0xFF MUL NOT AND SWAP1 DUP4 PUSH1 0x3 DUP2 GT ISZERO PUSH2 0x2474 JUMPI PUSH2 0x2473 PUSH2 0x29E2 JUMP JUMPDEST JUMPDEST MUL OR SWAP1 SSTORE POP JUMPDEST POP JUMP JUMPDEST PUSH0 PUSH3 0x15180 SWAP1 POP PUSH0 PUSH1 0x3 DUP2 GT ISZERO PUSH2 0x2497 JUMPI PUSH2 0x2496 PUSH2 0x29E2 JUMP JUMPDEST JUMPDEST DUP3 PUSH1 0x3 DUP2 GT ISZERO PUSH2 0x24AA JUMPI PUSH2 0x24A9 PUSH2 0x29E2 JUMP JUMPDEST JUMPDEST SUB ISZERO PUSH2 0x2567 JUMPI PUSH1 0x7 DUP2 PUSH2 0x24BD SWAP2 SWAP1 PUSH2 0x3F13 JUMP JUMPDEST SWAP1 POP PUSH1 0x1 PUSH1 0x3 DUP2 GT ISZERO PUSH2 0x24D3 JUMPI PUSH2 0x24D2 PUSH2 0x29E2 JUMP JUMPDEST JUMPDEST DUP3 PUSH1 0x3 DUP2 GT ISZERO PUSH2 0x24E6 JUMPI PUSH2 0x24E5 PUSH2 0x29E2 JUMP JUMPDEST JUMPDEST SUB ISZERO PUSH2 0x2567 JUMPI PUSH1 0x4 DUP2 PUSH2 0x24F9 SWAP2 SWAP1 PUSH2 0x3F13 JUMP JUMPDEST SWAP1 POP PUSH1 0x2 PUSH1 0x3 DUP2 GT ISZERO PUSH2 0x250F JUMPI PUSH2 0x250E PUSH2 0x29E2 JUMP JUMPDEST JUMPDEST DUP3 PUSH1 0x3 DUP2 GT ISZERO PUSH2 0x2522 JUMPI PUSH2 0x2521 PUSH2 0x29E2 JUMP JUMPDEST JUMPDEST SUB ISZERO PUSH2 0x2567 JUMPI PUSH1 0x3 DUP2 PUSH2 0x2535 SWAP2 SWAP1 PUSH2 0x3F13 JUMP JUMPDEST SWAP1 POP PUSH1 0x3 DUP1 DUP2 GT ISZERO PUSH2 0x254A JUMPI PUSH2 0x2549 PUSH2 0x29E2 JUMP JUMPDEST JUMPDEST DUP3 PUSH1 0x3 DUP2 GT ISZERO PUSH2 0x255D JUMPI PUSH2 0x255C PUSH2 0x29E2 JUMP JUMPDEST JUMPDEST SUB ISZERO PUSH2 0x2567 JUMPI PUSH0 SWAP1 POP JUMPDEST SWAP2 SWAP1 POP JUMP JUMPDEST PUSH0 PUSH20 0xEEEEEEEEEEEEEEEEEEEEEEEEEEEEEEEEEEEEEEEE PUSH20 0xFFFFFFFFFFFFFFFFFFFFFFFFFFFFFFFFFFFFFFFF AND DUP5 PUSH20 0xFFFFFFFFFFFFFFFFFFFFFFFFFFFFFFFFFFFFFFFF AND SUB PUSH2 0x25FC JUMPI DUP3 CALLVALUE LT ISZERO PUSH2 0x25F7 JUMPI PUSH1 0x40 MLOAD PUSH32 0x8C379A000000000000000000000000000000000000000000000000000000000 DUP2 MSTORE PUSH1 0x4 ADD PUSH2 0x25EE SWAP1 PUSH2 0x3F9E JUMP JUMPDEST PUSH1 0x40 MLOAD DUP1 SWAP2 SUB SWAP1 REVERT JUMPDEST PUSH2 0x2680 JUMP JUMPDEST PUSH0 DUP5 SWAP1 POP DUP1 PUSH20 0xFFFFFFFFFFFFFFFFFFFFFFFFFFFFFFFFFFFFFFFF AND PUSH4 0x23B872DD CALLER DUP6 DUP8 PUSH1 0x40 MLOAD DUP5 PUSH4 0xFFFFFFFF AND PUSH1 0xE0 SHL DUP2 MSTORE PUSH1 0x4 ADD PUSH2 0x263D SWAP4 SWAP3 SWAP2 SWAP1 PUSH2 0x362E JUMP JUMPDEST PUSH1 0x20 PUSH1 0x40 MLOAD DUP1 DUP4 SUB DUP2 PUSH0 DUP8 GAS CALL ISZERO DUP1 ISZERO PUSH2 0x2659 JUMPI RETURNDATASIZE PUSH0 PUSH0 RETURNDATACOPY RETURNDATASIZE PUSH0 REVERT JUMPDEST POP POP POP POP PUSH1 0x40 MLOAD RETURNDATASIZE PUSH1 0x1F NOT PUSH1 0x1F DUP3 ADD AND DUP3 ADD DUP1 PUSH1 0x40 MSTORE POP DUP2 ADD SWAP1 PUSH2 0x267D SWAP2 SWAP1 PUSH2 0x32CB JUMP JUMPDEST POP POP JUMPDEST DUP2 PUSH20 0xFFFFFFFFFFFFFFFFFFFFFFFFFFFFFFFFFFFFFFFF AND BALANCE SWAP1 POP SWAP4 SWAP3 POP POP POP JUMP JUMPDEST DUP1 PUSH1 0xC0 ADD MLOAD PUSH2 0x100 ADD MLOAD PUSH1 0xA0 ADD MLOAD PUSH1 0x2 SLOAD LT PUSH2 0x26E2 JUMPI PUSH1 0x2 PUSH0 PUSH1 0x2 PUSH2 0x100 EXP DUP2 SLOAD DUP2 PUSH1 0xFF MUL NOT AND SWAP1 DUP4 PUSH1 0x2 DUP2 GT ISZERO PUSH2 0x26DC JUMPI PUSH2 0x26DB PUSH2 0x29E2 JUMP JUMPDEST JUMPDEST MUL OR SWAP1 SSTORE POP JUMPDEST POP JUMP JUMPDEST PUSH1 0x40 MLOAD DUP1 PUSH1 0xE0 ADD PUSH1 0x40 MSTORE DUP1 PUSH0 DUP2 MSTORE PUSH1 0x20 ADD PUSH0 PUSH20 0xFFFFFFFFFFFFFFFFFFFFFFFFFFFFFFFFFFFFFFFF AND DUP2 MSTORE PUSH1 0x20 ADD PUSH0 PUSH20 0xFFFFFFFFFFFFFFFFFFFFFFFFFFFFFFFFFFFFFFFF AND DUP2 MSTORE PUSH1 0x20 ADD PUSH0 PUSH20 0xFFFFFFFFFFFFFFFFFFFFFFFFFFFFFFFFFFFFFFFF AND DUP2 MSTORE PUSH1 0x20 ADD PUSH0 DUP2 MSTORE PUSH1 0x20 ADD PUSH0 DUP2 MSTORE PUSH1 0x20 ADD PUSH2 0x275E PUSH2 0x2790 JUMP JUMPDEST DUP2 MSTORE POP SWAP1 JUMP JUMPDEST PUSH1 0x40 MLOAD DUP1 PUSH1 0xA0 ADD PUSH1 0x40 MSTORE DUP1 PUSH0 DUP2 MSTORE PUSH1 0x20 ADD PUSH0 DUP2 MSTORE PUSH1 0x20 ADD PUSH0 DUP2 MSTORE PUSH1 0x20 ADD PUSH0 DUP2 MSTORE PUSH1 0x20 ADD PUSH0 ISZERO ISZERO DUP2 MSTORE POP SWAP1 JUMP JUMPDEST PUSH1 0x40 MLOAD DUP1 PUSH2 0x1A0 ADD PUSH1 0x40 MSTORE DUP1 PUSH0 DUP2 MSTORE PUSH1 0x20 ADD PUSH0 PUSH20 0xFFFFFFFFFFFFFFFFFFFFFFFFFFFFFFFFFFFFFFFF AND DUP2 MSTORE PUSH1 0x20 ADD PUSH0 PUSH20 0xFFFFFFFFFFFFFFFFFFFFFFFFFFFFFFFFFFFFFFFF AND DUP2 MSTORE PUSH1 0x20 ADD PUSH0 DUP2 MSTORE PUSH1 0x20 ADD PUSH0 DUP2 MSTORE PUSH1 0x20 ADD PUSH0 DUP2 MSTORE PUSH1 0x20 ADD PUSH0 PUSH1 0x2 DUP2 GT ISZERO PUSH2 0x27FF JUMPI PUSH2 0x27FE PUSH2 0x29E2 JUMP JUMPDEST JUMPDEST DUP2 MSTORE PUSH1 0x20 ADD PUSH2 0x280C PUSH2 0x283E JUMP JUMPDEST DUP2 MSTORE PUSH1 0x20 ADD PUSH2 0x2819 PUSH2 0x283E JUMP JUMPDEST DUP2 MSTORE PUSH1 0x20 ADD PUSH2 0x2826 PUSH2 0x2880 JUMP JUMPDEST DUP2 MSTORE PUSH1 0x20 ADD PUSH0 DUP2 MSTORE PUSH1 0x20 ADD PUSH0 DUP2 MSTORE PUSH1 0x20 ADD PUSH0 DUP2 MSTORE POP SWAP1 JUMP JUMPDEST PUSH1 0x40 MLOAD DUP1 PUSH1 0xC0 ADD PUSH1 0x40 MSTORE DUP1 PUSH0 PUSH1 0x3 DUP2 GT ISZERO PUSH2 0x285C JUMPI PUSH2 0x285B PUSH2 0x29E2 JUMP JUMPDEST JUMPDEST DUP2 MSTORE PUSH1 0x20 ADD PUSH0 DUP2 MSTORE PUSH1 0x20 ADD PUSH0 DUP2 MSTORE PUSH1 0x20 ADD PUSH0 DUP2 MSTORE PUSH1 0x20 ADD PUSH0 DUP2 MSTORE PUSH1 0x20 ADD PUSH0 DUP2 MSTORE POP SWAP1 JUMP JUMPDEST PUSH1 0x40 MLOAD DUP1 PUSH1 0x40 ADD PUSH1 0x40 MSTORE DUP1 PUSH0 DUP2 MSTORE PUSH1 0x20 ADD PUSH0 DUP2 MSTORE POP SWAP1 JUMP JUMPDEST PUSH0 DUP2 SWAP1 POP SWAP2 SWAP1 POP JUMP JUMPDEST PUSH2 0x28AA DUP2 PUSH2 0x2898 JUMP JUMPDEST DUP3 MSTORE POP POP JUMP JUMPDEST PUSH0 PUSH1 0x20 DUP3 ADD SWAP1 POP PUSH2 0x28C3 PUSH0 DUP4 ADD DUP5 PUSH2 0x28A1 JUMP JUMPDEST SWAP3 SWAP2 POP POP JUMP JUMPDEST PUSH0 DUP2 MLOAD SWAP1 POP SWAP2 SWAP1 POP JUMP JUMPDEST PUSH0 DUP3 DUP3 MSTORE PUSH1 0x20 DUP3 ADD SWAP1 POP SWAP3 SWAP2 POP POP JUMP JUMPDEST DUP3 DUP2 DUP4 MCOPY PUSH0 DUP4 DUP4 ADD MSTORE POP POP POP JUMP JUMPDEST PUSH0 PUSH1 0x1F NOT PUSH1 0x1F DUP4 ADD AND SWAP1 POP SWAP2 SWAP1 POP JUMP JUMPDEST PUSH0 PUSH2 0x290B DUP3 PUSH2 0x28C9 JUMP JUMPDEST PUSH2 0x2915 DUP2 DUP6 PUSH2 0x28D3 JUMP JUMPDEST SWAP4 POP PUSH2 0x2925 DUP2 DUP6 PUSH1 0x20 DUP7 ADD PUSH2 0x28E3 JUMP JUMPDEST PUSH2 0x292E DUP2 PUSH2 0x28F1 JUMP JUMPDEST DUP5 ADD SWAP2 POP POP SWAP3 SWAP2 POP POP JUMP JUMPDEST PUSH0 PUSH1 0x20 DUP3 ADD SWAP1 POP DUP2 DUP2 SUB PUSH0 DUP4 ADD MSTORE PUSH2 0x2951 DUP2 DUP5 PUSH2 0x2901 JUMP JUMPDEST SWAP1 POP SWAP3 SWAP2 POP POP JUMP JUMPDEST PUSH0 PUSH1 0x40 MLOAD SWAP1 POP SWAP1 JUMP JUMPDEST PUSH0 PUSH0 REVERT JUMPDEST PUSH2 0x296F DUP2 PUSH2 0x2898 JUMP JUMPDEST DUP2 EQ PUSH2 0x2979 JUMPI PUSH0 PUSH0 REVERT JUMPDEST POP JUMP JUMPDEST PUSH0 DUP2 CALLDATALOAD SWAP1 POP PUSH2 0x298A DUP2 PUSH2 0x2966 JUMP JUMPDEST SWAP3 SWAP2 POP POP JUMP JUMPDEST PUSH0 PUSH1 0x20 DUP3 DUP5 SUB SLT ISZERO PUSH2 0x29A5 JUMPI PUSH2 0x29A4 PUSH2 0x2962 JUMP JUMPDEST JUMPDEST PUSH0 PUSH2 0x29B2 DUP5 DUP3 DUP6 ADD PUSH2 0x297C JUMP JUMPDEST SWAP2 POP POP SWAP3 SWAP2 POP POP JUMP JUMPDEST PUSH0 PUSH1 0x40 DUP3 ADD SWAP1 POP PUSH2 0x29CE PUSH0 DUP4 ADD DUP6 PUSH2 0x28A1 JUMP JUMPDEST PUSH2 0x29DB PUSH1 0x20 DUP4 ADD DUP5 PUSH2 0x28A1 JUMP JUMPDEST SWAP4 SWAP3 POP POP POP JUMP JUMPDEST PUSH32 0x4E487B7100000000000000000000000000000000000000000000000000000000 PUSH0 MSTORE PUSH1 0x21 PUSH1 0x4 MSTORE PUSH1 0x24 PUSH0 REVERT JUMPDEST PUSH1 0x4 DUP2 LT PUSH2 0x2A20 JUMPI PUSH2 0x2A1F PUSH2 0x29E2 JUMP JUMPDEST JUMPDEST POP JUMP JUMPDEST PUSH0 DUP2 SWAP1 POP PUSH2 0x2A30 DUP3 PUSH2 0x2A0F JUMP JUMPDEST SWAP2 SWAP1 POP JUMP JUMPDEST PUSH0 PUSH2 0x2A3F DUP3 PUSH2 0x2A23 JUMP JUMPDEST SWAP1 POP SWAP2 SWAP1 POP JUMP JUMPDEST PUSH2 0x2A4F DUP2 PUSH2 0x2A35 JUMP JUMPDEST DUP3 MSTORE POP POP JUMP JUMPDEST PUSH0 PUSH1 0x20 DUP3 ADD SWAP1 POP PUSH2 0x2A68 PUSH0 DUP4 ADD DUP5 PUSH2 0x2A46 JUMP JUMPDEST SWAP3 SWAP2 POP POP JUMP JUMPDEST PUSH0 PUSH20 0xFFFFFFFFFFFFFFFFFFFFFFFFFFFFFFFFFFFFFFFF DUP3 AND SWAP1 POP SWAP2 SWAP1 POP JUMP JUMPDEST PUSH0 PUSH2 0x2A97 DUP3 PUSH2 0x2A6E JUMP JUMPDEST SWAP1 POP SWAP2 SWAP1 POP JUMP JUMPDEST PUSH2 0x2AA7 DUP2 PUSH2 0x2A8D JUMP JUMPDEST DUP2 EQ PUSH2 0x2AB1 JUMPI PUSH0 PUSH0 REVERT JUMPDEST POP JUMP JUMPDEST PUSH0 DUP2 CALLDATALOAD SWAP1 POP PUSH2 0x2AC2 DUP2 PUSH2 0x2A9E JUMP JUMPDEST SWAP3 SWAP2 POP POP JUMP JUMPDEST PUSH0 PUSH1 0x20 DUP3 DUP5 SUB SLT ISZERO PUSH2 0x2ADD JUMPI PUSH2 0x2ADC PUSH2 0x2962 JUMP JUMPDEST JUMPDEST PUSH0 PUSH2 0x2AEA DUP5 DUP3 DUP6 ADD PUSH2 0x2AB4 JUMP JUMPDEST SWAP2 POP POP SWAP3 SWAP2 POP POP JUMP JUMPDEST PUSH2 0x2AFC DUP2 PUSH2 0x2898 JUMP JUMPDEST DUP3 MSTORE POP POP JUMP JUMPDEST PUSH2 0x2B0B DUP2 PUSH2 0x2A8D JUMP JUMPDEST DUP3 MSTORE POP POP JUMP JUMPDEST PUSH1 0x3 DUP2 LT PUSH2 0x2B22 JUMPI PUSH2 0x2B21 PUSH2 0x29E2 JUMP JUMPDEST JUMPDEST POP JUMP JUMPDEST PUSH0 DUP2 SWAP1 POP PUSH2 0x2B32 DUP3 PUSH2 0x2B11 JUMP JUMPDEST SWAP2 SWAP1 POP JUMP JUMPDEST PUSH0 PUSH2 0x2B41 DUP3 PUSH2 0x2B25 JUMP JUMPDEST SWAP1 POP SWAP2 SWAP1 POP JUMP JUMPDEST PUSH2 0x2B51 DUP2 PUSH2 0x2B37 JUMP JUMPDEST DUP3 MSTORE POP POP JUMP JUMPDEST PUSH1 0x4 DUP2 LT PUSH2 0x2B68 JUMPI PUSH2 0x2B67 PUSH2 0x29E2 JUMP JUMPDEST JUMPDEST POP JUMP JUMPDEST PUSH0 DUP2 SWAP1 POP PUSH2 0x2B78 DUP3 PUSH2 0x2B57 JUMP JUMPDEST SWAP2 SWAP1 POP JUMP JUMPDEST PUSH0 PUSH2 0x2B87 DUP3 PUSH2 0x2B6B JUMP JUMPDEST SWAP1 POP SWAP2 SWAP1 POP JUMP JUMPDEST PUSH2 0x2B97 DUP2 PUSH2 0x2B7D JUMP JUMPDEST DUP3 MSTORE POP POP JUMP JUMPDEST PUSH1 0xC0 DUP3 ADD PUSH0 DUP3 ADD MLOAD PUSH2 0x2BB1 PUSH0 DUP6 ADD DUP3 PUSH2 0x2B8E JUMP JUMPDEST POP PUSH1 0x20 DUP3 ADD MLOAD PUSH2 0x2BC4 PUSH1 0x20 DUP6 ADD DUP3 PUSH2 0x2AF3 JUMP JUMPDEST POP PUSH1 0x40 DUP3 ADD MLOAD PUSH2 0x2BD7 PUSH1 0x40 DUP6 ADD DUP3 PUSH2 0x2AF3 JUMP JUMPDEST POP PUSH1 0x60 DUP3 ADD MLOAD PUSH2 0x2BEA PUSH1 0x60 DUP6 ADD DUP3 PUSH2 0x2AF3 JUMP JUMPDEST POP PUSH1 0x80 DUP3 ADD MLOAD PUSH2 0x2BFD PUSH1 0x80 DUP6 ADD DUP3 PUSH2 0x2AF3 JUMP JUMPDEST POP PUSH1 0xA0 DUP3 ADD MLOAD PUSH2 0x2C10 PUSH1 0xA0 DUP6 ADD DUP3 PUSH2 0x2AF3 JUMP JUMPDEST POP POP POP POP JUMP JUMPDEST PUSH1 0x40 DUP3 ADD PUSH0 DUP3 ADD MLOAD PUSH2 0x2C2A PUSH0 DUP6 ADD DUP3 PUSH2 0x2AF3 JUMP JUMPDEST POP PUSH1 0x20 DUP3 ADD MLOAD PUSH2 0x2C3D PUSH1 0x20 DUP6 ADD DUP3 PUSH2 0x2AF3 JUMP JUMPDEST POP POP POP POP JUMP JUMPDEST PUSH2 0x300 DUP3 ADD PUSH0 DUP3 ADD MLOAD PUSH2 0x2C58 PUSH0 DUP6 ADD DUP3 PUSH2 0x2AF3 JUMP JUMPDEST POP PUSH1 0x20 DUP3 ADD MLOAD PUSH2 0x2C6B PUSH1 0x20 DUP6 ADD DUP3 PUSH2 0x2B02 JUMP JUMPDEST POP PUSH1 0x40 DUP3 ADD MLOAD PUSH2 0x2C7E PUSH1 0x40 DUP6 ADD DUP3 PUSH2 0x2B02 JUMP JUMPDEST POP PUSH1 0x60 DUP3 ADD MLOAD PUSH2 0x2C91 PUSH1 0x60 DUP6 ADD DUP3 PUSH2 0x2AF3 JUMP JUMPDEST POP PUSH1 0x80 DUP3 ADD MLOAD PUSH2 0x2CA4 PUSH1 0x80 DUP6 ADD DUP3 PUSH2 0x2AF3 JUMP JUMPDEST POP PUSH1 0xA0 DUP3 ADD MLOAD PUSH2 0x2CB7 PUSH1 0xA0 DUP6 ADD DUP3 PUSH2 0x2AF3 JUMP JUMPDEST POP PUSH1 0xC0 DUP3 ADD MLOAD PUSH2 0x2CCA PUSH1 0xC0 DUP6 ADD DUP3 PUSH2 0x2B48 JUMP JUMPDEST POP PUSH1 0xE0 DUP3 ADD MLOAD PUSH2 0x2CDD PUSH1 0xE0 DUP6 ADD DUP3 PUSH2 0x2B9D JUMP JUMPDEST POP PUSH2 0x100 DUP3 ADD MLOAD PUSH2 0x2CF2 PUSH2 0x1A0 DUP6 ADD DUP3 PUSH2 0x2B9D JUMP JUMPDEST POP PUSH2 0x120 DUP3 ADD MLOAD PUSH2 0x2D07 PUSH2 0x260 DUP6 ADD DUP3 PUSH2 0x2C16 JUMP JUMPDEST POP PUSH2 0x140 DUP3 ADD MLOAD PUSH2 0x2D1C PUSH2 0x2A0 DUP6 ADD DUP3 PUSH2 0x2AF3 JUMP JUMPDEST POP PUSH2 0x160 DUP3 ADD MLOAD PUSH2 0x2D31 PUSH2 0x2C0 DUP6 ADD DUP3 PUSH2 0x2AF3 JUMP JUMPDEST POP PUSH2 0x180 DUP3 ADD MLOAD PUSH2 0x2D46 PUSH2 0x2E0 DUP6 ADD DUP3 PUSH2 0x2AF3 JUMP JUMPDEST POP POP POP POP JUMP JUMPDEST PUSH2 0x3C0 DUP3 ADD PUSH0 DUP3 ADD MLOAD PUSH2 0x2D61 PUSH0 DUP6 ADD DUP3 PUSH2 0x2AF3 JUMP JUMPDEST POP PUSH1 0x20 DUP3 ADD MLOAD PUSH2 0x2D74 PUSH1 0x20 DUP6 ADD DUP3 PUSH2 0x2B02 JUMP JUMPDEST POP PUSH1 0x40 DUP3 ADD MLOAD PUSH2 0x2D87 PUSH1 0x40 DUP6 ADD DUP3 PUSH2 0x2B02 JUMP JUMPDEST POP PUSH1 0x60 DUP3 ADD MLOAD PUSH2 0x2D9A PUSH1 0x60 DUP6 ADD DUP3 PUSH2 0x2B02 JUMP JUMPDEST POP PUSH1 0x80 DUP3 ADD MLOAD PUSH2 0x2DAD PUSH1 0x80 DUP6 ADD DUP3 PUSH2 0x2AF3 JUMP JUMPDEST POP PUSH1 0xA0 DUP3 ADD MLOAD PUSH2 0x2DC0 PUSH1 0xA0 DUP6 ADD DUP3 PUSH2 0x2AF3 JUMP JUMPDEST POP PUSH1 0xC0 DUP3 ADD MLOAD PUSH2 0x2DD3 PUSH1 0xC0 DUP6 ADD DUP3 PUSH2 0x2C43 JUMP JUMPDEST POP POP POP POP JUMP JUMPDEST PUSH0 PUSH2 0x3C0 DUP3 ADD SWAP1 POP PUSH2 0x2DED PUSH0 DUP4 ADD DUP5 PUSH2 0x2D4C JUMP JUMPDEST SWAP3 SWAP2 POP POP JUMP JUMPDEST PUSH0 DUP2 ISZERO ISZERO SWAP1 POP SWAP2 SWAP1 POP JUMP JUMPDEST PUSH2 0x2E07 DUP2 PUSH2 0x2DF3 JUMP JUMPDEST DUP3 MSTORE POP POP JUMP JUMPDEST PUSH1 0xA0 DUP3 ADD PUSH0 DUP3 ADD MLOAD PUSH2 0x2E21 PUSH0 DUP6 ADD DUP3 PUSH2 0x2AF3 JUMP JUMPDEST POP PUSH1 0x20 DUP3 ADD MLOAD PUSH2 0x2E34 PUSH1 0x20 DUP6 ADD DUP3 PUSH2 0x2AF3 JUMP JUMPDEST POP PUSH1 0x40 DUP3 ADD MLOAD PUSH2 0x2E47 PUSH1 0x40 DUP6 ADD DUP3 PUSH2 0x2AF3 JUMP JUMPDEST POP PUSH1 0x60 DUP3 ADD MLOAD PUSH2 0x2E5A PUSH1 0x60 DUP6 ADD DUP3 PUSH2 0x2AF3 JUMP JUMPDEST POP PUSH1 0x80 DUP3 ADD MLOAD PUSH2 0x2E6D PUSH1 0x80 DUP6 ADD DUP3 PUSH2 0x2DFE JUMP JUMPDEST POP POP POP POP JUMP JUMPDEST PUSH0 PUSH1 0xA0 DUP3 ADD SWAP1 POP PUSH2 0x2E86 PUSH0 DUP4 ADD DUP5 PUSH2 0x2E0D JUMP JUMPDEST SWAP3 SWAP2 POP POP JUMP JUMPDEST PUSH0 PUSH0 PUSH0 PUSH1 0x60 DUP5 DUP7 SUB SLT ISZERO PUSH2 0x2EA3 JUMPI PUSH2 0x2EA2 PUSH2 0x2962 JUMP JUMPDEST JUMPDEST PUSH0 PUSH2 0x2EB0 DUP7 DUP3 DUP8 ADD PUSH2 0x297C JUMP JUMPDEST SWAP4 POP POP PUSH1 0x20 PUSH2 0x2EC1 DUP7 DUP3 DUP8 ADD PUSH2 0x297C JUMP JUMPDEST SWAP3 POP POP PUSH1 0x40 PUSH2 0x2ED2 DUP7 DUP3 DUP8 ADD PUSH2 0x297C JUMP JUMPDEST SWAP2 POP POP SWAP3 POP SWAP3 POP SWAP3 JUMP JUMPDEST PUSH0 DUP2 MLOAD SWAP1 POP SWAP2 SWAP1 POP JUMP JUMPDEST PUSH0 DUP3 DUP3 MSTORE PUSH1 0x20 DUP3 ADD SWAP1 POP SWAP3 SWAP2 POP POP JUMP JUMPDEST PUSH0 DUP2 SWAP1 POP PUSH1 0x20 DUP3 ADD SWAP1 POP SWAP2 SWAP1 POP JUMP JUMPDEST PUSH0 PUSH2 0x2F10 DUP4 DUP4 PUSH2 0x2AF3 JUMP JUMPDEST PUSH1 0x20 DUP4 ADD SWAP1 POP SWAP3 SWAP2 POP POP JUMP JUMPDEST PUSH0 PUSH1 0x20 DUP3 ADD SWAP1 POP SWAP2 SWAP1 POP JUMP JUMPDEST PUSH0 PUSH2 0x2F32 DUP3 PUSH2 0x2EDC JUMP JUMPDEST PUSH2 0x2F3C DUP2 DUP6 PUSH2 0x2EE6 JUMP JUMPDEST SWAP4 POP PUSH2 0x2F47 DUP4 PUSH2 0x2EF6 JUMP JUMPDEST DUP1 PUSH0 JUMPDEST DUP4 DUP2 LT ISZERO PUSH2 0x2F77 JUMPI DUP2 MLOAD PUSH2 0x2F5E DUP9 DUP3 PUSH2 0x2F05 JUMP JUMPDEST SWAP8 POP PUSH2 0x2F69 DUP4 PUSH2 0x2F1C JUMP JUMPDEST SWAP3 POP POP PUSH1 0x1 DUP2 ADD SWAP1 POP PUSH2 0x2F4A JUMP JUMPDEST POP DUP6 SWAP4 POP POP POP POP SWAP3 SWAP2 POP POP JUMP JUMPDEST PUSH0 PUSH1 0x20 DUP3 ADD SWAP1 POP DUP2 DUP2 SUB PUSH0 DUP4 ADD MSTORE PUSH2 0x2F9C DUP2 DUP5 PUSH2 0x2F28 JUMP JUMPDEST SWAP1 POP SWAP3 SWAP2 POP POP JUMP JUMPDEST PUSH2 0x2FAD DUP2 PUSH2 0x2DF3 JUMP JUMPDEST DUP3 MSTORE POP POP JUMP JUMPDEST PUSH0 PUSH1 0x20 DUP3 ADD SWAP1 POP PUSH2 0x2FC6 PUSH0 DUP4 ADD DUP5 PUSH2 0x2FA4 JUMP JUMPDEST SWAP3 SWAP2 POP POP JUMP JUMPDEST PUSH0 DUP2 MLOAD SWAP1 POP PUSH2 0x2FDA DUP2 PUSH2 0x2A9E JUMP JUMPDEST SWAP3 SWAP2 POP POP JUMP JUMPDEST PUSH0 PUSH1 0x20 DUP3 DUP5 SUB SLT ISZERO PUSH2 0x2FF5 JUMPI PUSH2 0x2FF4 PUSH2 0x2962 JUMP JUMPDEST JUMPDEST PUSH0 PUSH2 0x3002 DUP5 DUP3 DUP6 ADD PUSH2 0x2FCC JUMP JUMPDEST SWAP2 POP POP SWAP3 SWAP2 POP POP JUMP JUMPDEST PUSH32 0x50656E73696F6E2041646D696E204F6E6C790000000000000000000000000000 PUSH0 DUP3 ADD MSTORE POP JUMP JUMPDEST PUSH0 PUSH2 0x303F PUSH1 0x12 DUP4 PUSH2 0x28D3 JUMP JUMPDEST SWAP2 POP PUSH2 0x304A DUP3 PUSH2 0x300B JUMP JUMPDEST PUSH1 0x20 DUP3 ADD SWAP1 POP SWAP2 SWAP1 POP JUMP JUMPDEST PUSH0 PUSH1 0x20 DUP3 ADD SWAP1 POP DUP2 DUP2 SUB PUSH0 DUP4 ADD MSTORE PUSH2 0x306C DUP2 PUSH2 0x3033 JUMP JUMPDEST SWAP1 POP SWAP2 SWAP1 POP JUMP JUMPDEST PUSH32 0x7661756C74206C6F636B65640000000000000000000000000000000000000000 PUSH0 DUP3 ADD MSTORE POP JUMP JUMPDEST PUSH0 PUSH2 0x30A7 PUSH1 0xC DUP4 PUSH2 0x28D3 JUMP JUMPDEST SWAP2 POP PUSH2 0x30B2 DUP3 PUSH2 0x3073 JUMP JUMPDEST PUSH1 0x20 DUP3 ADD SWAP1 POP SWAP2 SWAP1 POP JUMP JUMPDEST PUSH0 PUSH1 0x20 DUP3 ADD SWAP1 POP DUP2 DUP2 SUB PUSH0 DUP4 ADD MSTORE PUSH2 0x30D4 DUP2 PUSH2 0x309B JUMP JUMPDEST SWAP1 POP SWAP2 SWAP1 POP JUMP JUMPDEST PUSH32 0x7661756C7420636C6F7365640000000000000000000000000000000000000000 PUSH0 DUP3 ADD MSTORE POP JUMP JUMPDEST PUSH0 PUSH2 0x310F PUSH1 0xC DUP4 PUSH2 0x28D3 JUMP JUMPDEST SWAP2 POP PUSH2 0x311A DUP3 PUSH2 0x30DB JUMP JUMPDEST PUSH1 0x20 DUP3 ADD SWAP1 POP SWAP2 SWAP1 POP JUMP JUMPDEST PUSH0 PUSH1 0x20 DUP3 ADD SWAP1 POP DUP2 DUP2 SUB PUSH0 DUP4 ADD MSTORE PUSH2 0x313C DUP2 PUSH2 0x3103 JUMP JUMPDEST SWAP1 POP SWAP2 SWAP1 POP JUMP JUMPDEST PUSH32 0x70656E73696F6E20636C6F736564000000000000000000000000000000000000 PUSH0 DUP3 ADD MSTORE POP JUMP JUMPDEST PUSH0 PUSH2 0x3177 PUSH1 0xE DUP4 PUSH2 0x28D3 JUMP JUMPDEST SWAP2 POP PUSH2 0x3182 DUP3 PUSH2 0x3143 JUMP JUMPDEST PUSH1 0x20 DUP3 ADD SWAP1 POP SWAP2 SWAP1 POP JUMP JUMPDEST PUSH0 PUSH1 0x20 DUP3 ADD SWAP1 POP DUP2 DUP2 SUB PUSH0 DUP4 ADD MSTORE PUSH2 0x31A4 DUP2 PUSH2 0x316B JUMP JUMPDEST SWAP1 POP SWAP2 SWAP1 POP JUMP JUMPDEST PUSH32 0x70656E73696F6E20696E20747265617375727900000000000000000000000000 PUSH0 DUP3 ADD MSTORE POP JUMP JUMPDEST PUSH0 PUSH2 0x31DF PUSH1 0x13 DUP4 PUSH2 0x28D3 JUMP JUMPDEST SWAP2 POP PUSH2 0x31EA DUP3 PUSH2 0x31AB JUMP JUMPDEST PUSH1 0x20 DUP3 ADD SWAP1 POP SWAP2 SWAP1 POP JUMP JUMPDEST PUSH0 PUSH1 0x20 DUP3 ADD SWAP1 POP DUP2 DUP2 SUB PUSH0 DUP4 ADD MSTORE PUSH2 0x320C DUP2 PUSH2 0x31D3 JUMP JUMPDEST SWAP1 POP SWAP2 SWAP1 POP JUMP JUMPDEST PUSH2 0x321C DUP2 PUSH2 0x2A8D JUMP JUMPDEST DUP3 MSTORE POP POP JUMP JUMPDEST PUSH0 PUSH1 0x20 DUP3 ADD SWAP1 POP PUSH2 0x3235 PUSH0 DUP4 ADD DUP5 PUSH2 0x3213 JUMP JUMPDEST SWAP3 SWAP2 POP POP JUMP JUMPDEST PUSH0 DUP2 MLOAD SWAP1 POP PUSH2 0x3249 DUP2 PUSH2 0x2966 JUMP JUMPDEST SWAP3 SWAP2 POP POP JUMP JUMPDEST PUSH0 PUSH1 0x20 DUP3 DUP5 SUB SLT ISZERO PUSH2 0x3264 JUMPI PUSH2 0x3263 PUSH2 0x2962 JUMP JUMPDEST JUMPDEST PUSH0 PUSH2 0x3271 DUP5 DUP3 DUP6 ADD PUSH2 0x323B JUMP JUMPDEST SWAP2 POP POP SWAP3 SWAP2 POP POP JUMP JUMPDEST PUSH0 PUSH1 0x40 DUP3 ADD SWAP1 POP PUSH2 0x328D PUSH0 DUP4 ADD DUP6 PUSH2 0x3213 JUMP JUMPDEST PUSH2 0x329A PUSH1 0x20 DUP4 ADD DUP5 PUSH2 0x28A1 JUMP JUMPDEST SWAP4 SWAP3 POP POP POP JUMP JUMPDEST PUSH2 0x32AA DUP2 PUSH2 0x2DF3 JUMP JUMPDEST DUP2 EQ PUSH2 0x32B4 JUMPI PUSH0 PUSH0 REVERT JUMPDEST POP JUMP JUMPDEST PUSH0 DUP2 MLOAD SWAP1 POP PUSH2 0x32C5 DUP2 PUSH2 0x32A1 JUMP JUMPDEST SWAP3 SWAP2 POP POP JUMP JUMPDEST PUSH0 PUSH1 0x20 DUP3 DUP5 SUB SLT ISZERO PUSH2 0x32E0 JUMPI PUSH2 0x32DF PUSH2 0x2962 JUMP JUMPDEST JUMPDEST PUSH0 PUSH2 0x32ED DUP5 DUP3 DUP6 ADD PUSH2 0x32B7 JUMP JUMPDEST SWAP2 POP POP SWAP3 SWAP2 POP POP JUMP JUMPDEST PUSH32 0x5472656173757279204F6E6C7900000000000000000000000000000000000000 PUSH0 DUP3 ADD MSTORE POP JUMP JUMPDEST PUSH0 PUSH2 0x332A PUSH1 0xD DUP4 PUSH2 0x28D3 JUMP JUMPDEST SWAP2 POP PUSH2 0x3335 DUP3 PUSH2 0x32F6 JUMP JUMPDEST PUSH1 0x20 DUP3 ADD SWAP1 POP SWAP2 SWAP1 POP JUMP JUMPDEST PUSH0 PUSH1 0x20 DUP3 ADD SWAP1 POP DUP2 DUP2 SUB PUSH0 DUP4 ADD MSTORE PUSH2 0x3357 DUP2 PUSH2 0x331E JUMP JUMPDEST SWAP1 POP SWAP2 SWAP1 POP JUMP JUMPDEST PUSH32 0x696E76616C69642070656E73696F6E2070756C6C207374617465000000000000 PUSH0 DUP3 ADD MSTORE POP JUMP JUMPDEST PUSH0 PUSH2 0x3392 PUSH1 0x1A DUP4 PUSH2 0x28D3 JUMP JUMPDEST SWAP2 POP PUSH2 0x339D DUP3 PUSH2 0x335E JUMP JUMPDEST PUSH1 0x20 DUP3 ADD SWAP1 POP SWAP2 SWAP1 POP JUMP JUMPDEST PUSH0 PUSH1 0x20 DUP3 ADD SWAP1 POP DUP2 DUP2 SUB PUSH0 DUP4 ADD MSTORE PUSH2 0x33BF DUP2 PUSH2 0x3386 JUMP JUMPDEST SWAP1 POP SWAP2 SWAP1 POP JUMP JUMPDEST PUSH32 0x7661756C7420616C72656164792070756C6C6564000000000000000000000000 PUSH0 DUP3 ADD MSTORE POP JUMP JUMPDEST PUSH0 PUSH2 0x33FA PUSH1 0x14 DUP4 PUSH2 0x28D3 JUMP JUMPDEST SWAP2 POP PUSH2 0x3405 DUP3 PUSH2 0x33C6 JUMP JUMPDEST PUSH1 0x20 DUP3 ADD SWAP1 POP SWAP2 SWAP1 POP JUMP JUMPDEST PUSH0 PUSH1 0x20 DUP3 ADD SWAP1 POP DUP2 DUP2 SUB PUSH0 DUP4 ADD MSTORE PUSH2 0x3427 DUP2 PUSH2 0x33EE JUMP JUMPDEST SWAP1 POP SWAP2 SWAP1 POP JUMP JUMPDEST PUSH32 0x70656E73696F6E206E6F7420636C6F7365640000000000000000000000000000 PUSH0 DUP3 ADD MSTORE POP JUMP JUMPDEST PUSH0 PUSH2 0x3462 PUSH1 0x12 DUP4 PUSH2 0x28D3 JUMP JUMPDEST SWAP2 POP PUSH2 0x346D DUP3 PUSH2 0x342E JUMP JUMPDEST PUSH1 0x20 DUP3 ADD SWAP1 POP SWAP2 SWAP1 POP JUMP JUMPDEST PUSH0 PUSH1 0x20 DUP3 ADD SWAP1 POP DUP2 DUP2 SUB PUSH0 DUP4 ADD MSTORE PUSH2 0x348F DUP2 PUSH2 0x3456 JUMP JUMPDEST SWAP1 POP SWAP2 SWAP1 POP JUMP JUMPDEST PUSH32 0x696E73756666696369656E74207072696E636970616C2072657475726E656400 PUSH0 DUP3 ADD MSTORE POP JUMP JUMPDEST PUSH0 PUSH2 0x34CA PUSH1 0x1F DUP4 PUSH2 0x28D3 JUMP JUMPDEST SWAP2 POP PUSH2 0x34D5 DUP3 PUSH2 0x3496 JUMP JUMPDEST PUSH1 0x20 DUP3 ADD SWAP1 POP SWAP2 SWAP1 POP JUMP JUMPDEST PUSH0 PUSH1 0x20 DUP3 ADD SWAP1 POP DUP2 DUP2 SUB PUSH0 DUP4 ADD MSTORE PUSH2 0x34F7 DUP2 PUSH2 0x34BE JUMP JUMPDEST SWAP1 POP SWAP2 SWAP1 POP JUMP JUMPDEST PUSH32 0x4E487B7100000000000000000000000000000000000000000000000000000000 PUSH0 MSTORE PUSH1 0x11 PUSH1 0x4 MSTORE PUSH1 0x24 PUSH0 REVERT JUMPDEST PUSH0 PUSH2 0x3535 DUP3 PUSH2 0x2898 JUMP JUMPDEST SWAP2 POP PUSH2 0x3540 DUP4 PUSH2 0x2898 JUMP JUMPDEST SWAP3 POP DUP3 DUP3 ADD SWAP1 POP DUP1 DUP3 GT ISZERO PUSH2 0x3558 JUMPI PUSH2 0x3557 PUSH2 0x34FE JUMP JUMPDEST JUMPDEST SWAP3 SWAP2 POP POP JUMP JUMPDEST PUSH32 0x7661756C74206E6F742070756C6C656400000000000000000000000000000000 PUSH0 DUP3 ADD MSTORE POP JUMP JUMPDEST PUSH0 PUSH2 0x3592 PUSH1 0x10 DUP4 PUSH2 0x28D3 JUMP JUMPDEST SWAP2 POP PUSH2 0x359D DUP3 PUSH2 0x355E JUMP JUMPDEST PUSH1 0x20 DUP3 ADD SWAP1 POP SWAP2 SWAP1 POP JUMP JUMPDEST PUSH0 PUSH1 0x20 DUP3 ADD SWAP1 POP DUP2 DUP2 SUB PUSH0 DUP4 ADD MSTORE PUSH2 0x35BF DUP2 PUSH2 0x3586 JUMP JUMPDEST SWAP1 POP SWAP2 SWAP1 POP JUMP JUMPDEST PUSH32 0x696E7375666669656E74207472616E736D69747465642076616C756500000000 PUSH0 DUP3 ADD MSTORE POP JUMP JUMPDEST PUSH0 PUSH2 0x35FA PUSH1 0x1C DUP4 PUSH2 0x28D3 JUMP JUMPDEST SWAP2 POP PUSH2 0x3605 DUP3 PUSH2 0x35C6 JUMP JUMPDEST PUSH1 0x20 DUP3 ADD SWAP1 POP SWAP2 SWAP1 POP JUMP JUMPDEST PUSH0 PUSH1 0x20 DUP3 ADD SWAP1 POP DUP2 DUP2 SUB PUSH0 DUP4 ADD MSTORE PUSH2 0x3627 DUP2 PUSH2 0x35EE JUMP JUMPDEST SWAP1 POP SWAP2 SWAP1 POP JUMP JUMPDEST PUSH0 PUSH1 0x60 DUP3 ADD SWAP1 POP PUSH2 0x3641 PUSH0 DUP4 ADD DUP7 PUSH2 0x3213 JUMP JUMPDEST PUSH2 0x364E PUSH1 0x20 DUP4 ADD DUP6 PUSH2 0x3213 JUMP JUMPDEST PUSH2 0x365B PUSH1 0x40 DUP4 ADD DUP5 PUSH2 0x28A1 JUMP JUMPDEST SWAP5 SWAP4 POP POP POP POP JUMP JUMPDEST PUSH0 PUSH2 0x366D DUP3 PUSH2 0x2898 JUMP JUMPDEST SWAP2 POP PUSH2 0x3678 DUP4 PUSH2 0x2898 JUMP JUMPDEST SWAP3 POP DUP3 DUP3 SUB SWAP1 POP DUP2 DUP2 GT ISZERO PUSH2 0x3690 JUMPI PUSH2 0x368F PUSH2 0x34FE JUMP JUMPDEST JUMPDEST SWAP3 SWAP2 POP POP JUMP JUMPDEST PUSH32 0x636F6E747269627574696F6E7320746F6F206672657175656E74207761697420 PUSH0 DUP3 ADD MSTORE PUSH32 0x7265717569726564200000000000000000000000000000000000000000000000 PUSH1 0x20 DUP3 ADD MSTORE POP JUMP JUMPDEST PUSH0 PUSH2 0x36F0 PUSH1 0x29 DUP4 PUSH2 0x28D3 JUMP JUMPDEST SWAP2 POP PUSH2 0x36FB DUP3 PUSH2 0x3696 JUMP JUMPDEST PUSH1 0x40 DUP3 ADD SWAP1 POP SWAP2 SWAP1 POP JUMP JUMPDEST PUSH0 PUSH1 0x20 DUP3 ADD SWAP1 POP DUP2 DUP2 SUB PUSH0 DUP4 ADD MSTORE PUSH2 0x371D DUP2 PUSH2 0x36E4 JUMP JUMPDEST SWAP1 POP SWAP2 SWAP1 POP JUMP JUMPDEST PUSH32 0x70656E73696F6E206D6174757265640000000000000000000000000000000000 PUSH0 DUP3 ADD MSTORE POP JUMP JUMPDEST PUSH0 PUSH2 0x3758 PUSH1 0xF DUP4 PUSH2 0x28D3 JUMP JUMPDEST SWAP2 POP PUSH2 0x3763 DUP3 PUSH2 0x3724 JUMP JUMPDEST PUSH1 0x20 DUP3 ADD SWAP1 POP SWAP2 SWAP1 POP JUMP JUMPDEST PUSH0 PUSH1 0x20 DUP3 ADD SWAP1 POP DUP2 DUP2 SUB PUSH0 DUP4 ADD MSTORE PUSH2 0x3785 DUP2 PUSH2 0x374C JUMP JUMPDEST SWAP1 POP SWAP2 SWAP1 POP JUMP JUMPDEST PUSH32 0x70656E73696F6E206E6F74206F70656E00000000000000000000000000000000 PUSH0 DUP3 ADD MSTORE POP JUMP JUMPDEST PUSH0 PUSH2 0x37C0 PUSH1 0x10 DUP4 PUSH2 0x28D3 JUMP JUMPDEST SWAP2 POP PUSH2 0x37CB DUP3 PUSH2 0x378C JUMP JUMPDEST PUSH1 0x20 DUP3 ADD SWAP1 POP SWAP2 SWAP1 POP JUMP JUMPDEST PUSH0 PUSH1 0x20 DUP3 ADD SWAP1 POP DUP2 DUP2 SUB PUSH0 DUP4 ADD MSTORE PUSH2 0x37ED DUP2 PUSH2 0x37B4 JUMP JUMPDEST SWAP1 POP SWAP2 SWAP1 POP JUMP JUMPDEST PUSH32 0x696E76616C696420636F6E747269627574696F6E206569746865722072616973 PUSH0 DUP3 ADD MSTORE PUSH32 0x65206F72206C6F77657220616D6F756E74000000000000000000000000000000 PUSH1 0x20 DUP3 ADD MSTORE POP JUMP JUMPDEST PUSH0 PUSH2 0x384E PUSH1 0x31 DUP4 PUSH2 0x28D3 JUMP JUMPDEST SWAP2 POP PUSH2 0x3859 DUP3 PUSH2 0x37F4 JUMP JUMPDEST PUSH1 0x40 DUP3 ADD SWAP1 POP SWAP2 SWAP1 POP JUMP JUMPDEST PUSH0 PUSH1 0x20 DUP3 ADD SWAP1 POP DUP2 DUP2 SUB PUSH0 DUP4 ADD MSTORE PUSH2 0x387B DUP2 PUSH2 0x3842 JUMP JUMPDEST SWAP1 POP SWAP2 SWAP1 POP JUMP JUMPDEST PUSH0 PUSH2 0x388C DUP3 PUSH2 0x2898 JUMP JUMPDEST SWAP2 POP PUSH32 0xFFFFFFFFFFFFFFFFFFFFFFFFFFFFFFFFFFFFFFFFFFFFFFFFFFFFFFFFFFFFFFFF DUP3 SUB PUSH2 0x38BE JUMPI PUSH2 0x38BD PUSH2 0x34FE JUMP JUMPDEST JUMPDEST PUSH1 0x1 DUP3 ADD SWAP1 POP SWAP2 SWAP1 POP JUMP JUMPDEST PUSH32 0x6F776E6572206F6E6C7900000000000000000000000000000000000000000000 PUSH0 DUP3 ADD MSTORE POP JUMP JUMPDEST PUSH0 PUSH2 0x38FD PUSH1 0xA DUP4 PUSH2 0x28D3 JUMP JUMPDEST SWAP2 POP PUSH2 0x3908 DUP3 PUSH2 0x38C9 JUMP JUMPDEST PUSH1 0x20 DUP3 ADD SWAP1 POP SWAP2 SWAP1 POP JUMP JUMPDEST PUSH0 PUSH1 0x20 DUP3 ADD SWAP1 POP DUP2 DUP2 SUB PUSH0 DUP4 ADD MSTORE PUSH2 0x392A DUP2 PUSH2 0x38F1 JUMP JUMPDEST SWAP1 POP SWAP2 SWAP1 POP JUMP JUMPDEST PUSH32 0x696E76616C69642070656E73696F6E2073746174757300000000000000000000 PUSH0 DUP3 ADD MSTORE POP JUMP JUMPDEST PUSH0 PUSH2 0x3965 PUSH1 0x16 DUP4 PUSH2 0x28D3 JUMP JUMPDEST SWAP2 POP PUSH2 0x3970 DUP3 PUSH2 0x3931 JUMP JUMPDEST PUSH1 0x20 DUP3 ADD SWAP1 POP SWAP2 SWAP1 POP JUMP JUMPDEST PUSH0 PUSH1 0x20 DUP3 ADD SWAP1 POP DUP2 DUP2 SUB PUSH0 DUP4 ADD MSTORE PUSH2 0x3992 DUP2 PUSH2 0x3959 JUMP JUMPDEST SWAP1 POP SWAP2 SWAP1 POP JUMP JUMPDEST PUSH32 0x70656E73696F6E20736574746C65640000000000000000000000000000000000 PUSH0 DUP3 ADD MSTORE POP JUMP JUMPDEST PUSH0 PUSH2 0x39CD PUSH1 0xF DUP4 PUSH2 0x28D3 JUMP JUMPDEST SWAP2 POP PUSH2 0x39D8 DUP3 PUSH2 0x3999 JUMP JUMPDEST PUSH1 0x20 DUP3 ADD SWAP1 POP SWAP2 SWAP1 POP JUMP JUMPDEST PUSH0 PUSH1 0x20 DUP3 ADD SWAP1 POP DUP2 DUP2 SUB PUSH0 DUP4 ADD MSTORE PUSH2 0x39FA DUP2 PUSH2 0x39C1 JUMP JUMPDEST SWAP1 POP SWAP2 SWAP1 POP JUMP JUMPDEST PUSH32 0x696E73756666696369656E7420656D6D697373696F6E2062616C616E63650000 PUSH0 DUP3 ADD MSTORE POP JUMP JUMPDEST PUSH0 PUSH2 0x3A35 PUSH1 0x1E DUP4 PUSH2 0x28D3 JUMP JUMPDEST SWAP2 POP PUSH2 0x3A40 DUP3 PUSH2 0x3A01 JUMP JUMPDEST PUSH1 0x20 DUP3 ADD SWAP1 POP SWAP2 SWAP1 POP JUMP JUMPDEST PUSH0 PUSH1 0x20 DUP3 ADD SWAP1 POP DUP2 DUP2 SUB PUSH0 DUP4 ADD MSTORE PUSH2 0x3A62 DUP2 PUSH2 0x3A29 JUMP JUMPDEST SWAP1 POP SWAP2 SWAP1 POP JUMP JUMPDEST PUSH0 PUSH0 REVERT JUMPDEST PUSH32 0x4E487B7100000000000000000000000000000000000000000000000000000000 PUSH0 MSTORE PUSH1 0x41 PUSH1 0x4 MSTORE PUSH1 0x24 PUSH0 REVERT JUMPDEST PUSH2 0x3AA3 DUP3 PUSH2 0x28F1 JUMP JUMPDEST DUP2 ADD DUP2 DUP2 LT PUSH8 0xFFFFFFFFFFFFFFFF DUP3 GT OR ISZERO PUSH2 0x3AC2 JUMPI PUSH2 0x3AC1 PUSH2 0x3A6D JUMP JUMPDEST JUMPDEST DUP1 PUSH1 0x40 MSTORE POP POP POP JUMP JUMPDEST PUSH0 PUSH2 0x3AD4 PUSH2 0x2959 JUMP JUMPDEST SWAP1 POP PUSH2 0x3AE0 DUP3 DUP3 PUSH2 0x3A9A JUMP JUMPDEST SWAP2 SWAP1 POP JUMP JUMPDEST PUSH1 0x3 DUP2 LT PUSH2 0x3AF1 JUMPI PUSH0 PUSH0 REVERT JUMPDEST POP JUMP JUMPDEST PUSH0 DUP2 MLOAD SWAP1 POP PUSH2 0x3B02 DUP2 PUSH2 0x3AE5 JUMP JUMPDEST SWAP3 SWAP2 POP POP JUMP JUMPDEST PUSH1 0x4 DUP2 LT PUSH2 0x3B14 JUMPI PUSH0 PUSH0 REVERT JUMPDEST POP JUMP JUMPDEST PUSH0 DUP2 MLOAD SWAP1 POP PUSH2 0x3B25 DUP2 PUSH2 0x3B08 JUMP JUMPDEST SWAP3 SWAP2 POP POP JUMP JUMPDEST PUSH0 PUSH1 0xC0 DUP3 DUP5 SUB SLT ISZERO PUSH2 0x3B40 JUMPI PUSH2 0x3B3F PUSH2 0x3A69 JUMP JUMPDEST JUMPDEST PUSH2 0x3B4A PUSH1 0xC0 PUSH2 0x3ACB JUMP JUMPDEST SWAP1 POP PUSH0 PUSH2 0x3B59 DUP5 DUP3 DUP6 ADD PUSH2 0x3B17 JUMP JUMPDEST PUSH0 DUP4 ADD MSTORE POP PUSH1 0x20 PUSH2 0x3B6C DUP5 DUP3 DUP6 ADD PUSH2 0x323B JUMP JUMPDEST PUSH1 0x20 DUP4 ADD MSTORE POP PUSH1 0x40 PUSH2 0x3B80 DUP5 DUP3 DUP6 ADD PUSH2 0x323B JUMP JUMPDEST PUSH1 0x40 DUP4 ADD MSTORE POP PUSH1 0x60 PUSH2 0x3B94 DUP5 DUP3 DUP6 ADD PUSH2 0x323B JUMP JUMPDEST PUSH1 0x60 DUP4 ADD MSTORE POP PUSH1 0x80 PUSH2 0x3BA8 DUP5 DUP3 DUP6 ADD PUSH2 0x323B JUMP JUMPDEST PUSH1 0x80 DUP4 ADD MSTORE POP PUSH1 0xA0 PUSH2 0x3BBC DUP5 DUP3 DUP6 ADD PUSH2 0x323B JUMP JUMPDEST PUSH1 0xA0 DUP4 ADD MSTORE POP SWAP3 SWAP2 POP POP JUMP JUMPDEST PUSH0 PUSH1 0x40 DUP3 DUP5 SUB SLT ISZERO PUSH2 0x3BDD JUMPI PUSH2 0x3BDC PUSH2 0x3A69 JUMP JUMPDEST JUMPDEST PUSH2 0x3BE7 PUSH1 0x40 PUSH2 0x3ACB JUMP JUMPDEST SWAP1 POP PUSH0 PUSH2 0x3BF6 DUP5 DUP3 DUP6 ADD PUSH2 0x323B JUMP JUMPDEST PUSH0 DUP4 ADD MSTORE POP PUSH1 0x20 PUSH2 0x3C09 DUP5 DUP3 DUP6 ADD PUSH2 0x323B JUMP JUMPDEST PUSH1 0x20 DUP4 ADD MSTORE POP SWAP3 SWAP2 POP POP JUMP JUMPDEST PUSH0 PUSH2 0x300 DUP3 DUP5 SUB SLT ISZERO PUSH2 0x3C2B JUMPI PUSH2 0x3C2A PUSH2 0x3A69 JUMP JUMPDEST JUMPDEST PUSH2 0x3C36 PUSH2 0x1A0 PUSH2 0x3ACB JUMP JUMPDEST SWAP1 POP PUSH0 PUSH2 0x3C45 DUP5 DUP3 DUP6 ADD PUSH2 0x323B JUMP JUMPDEST PUSH0 DUP4 ADD MSTORE POP PUSH1 0x20 PUSH2 0x3C58 DUP5 DUP3 DUP6 ADD PUSH2 0x2FCC JUMP JUMPDEST PUSH1 0x20 DUP4 ADD MSTORE POP PUSH1 0x40 PUSH2 0x3C6C DUP5 DUP3 DUP6 ADD PUSH2 0x2FCC JUMP JUMPDEST PUSH1 0x40 DUP4 ADD MSTORE POP PUSH1 0x60 PUSH2 0x3C80 DUP5 DUP3 DUP6 ADD PUSH2 0x323B JUMP JUMPDEST PUSH1 0x60 DUP4 ADD MSTORE POP PUSH1 0x80 PUSH2 0x3C94 DUP5 DUP3 DUP6 ADD PUSH2 0x323B JUMP JUMPDEST PUSH1 0x80 DUP4 ADD MSTORE POP PUSH1 0xA0 PUSH2 0x3CA8 DUP5 DUP3 DUP6 ADD PUSH2 0x323B JUMP JUMPDEST PUSH1 0xA0 DUP4 ADD MSTORE POP PUSH1 0xC0 PUSH2 0x3CBC DUP5 DUP3 DUP6 ADD PUSH2 0x3AF4 JUMP JUMPDEST PUSH1 0xC0 DUP4 ADD MSTORE POP PUSH1 0xE0 PUSH2 0x3CD0 DUP5 DUP3 DUP6 ADD PUSH2 0x3B2B JUMP JUMPDEST PUSH1 0xE0 DUP4 ADD MSTORE POP PUSH2 0x1A0 PUSH2 0x3CE5 DUP5 DUP3 DUP6 ADD PUSH2 0x3B2B JUMP JUMPDEST PUSH2 0x100 DUP4 ADD MSTORE POP PUSH2 0x260 PUSH2 0x3CFB DUP5 DUP3 DUP6 ADD PUSH2 0x3BC8 JUMP JUMPDEST PUSH2 0x120 DUP4 ADD MSTORE POP PUSH2 0x2A0 PUSH2 0x3D11 DUP5 DUP3 DUP6 ADD PUSH2 0x323B JUMP JUMPDEST PUSH2 0x140 DUP4 ADD MSTORE POP PUSH2 0x2C0 PUSH2 0x3D27 DUP5 DUP3 DUP6 ADD PUSH2 0x323B JUMP JUMPDEST PUSH2 0x160 DUP4 ADD MSTORE POP PUSH2 0x2E0 PUSH2 0x3D3D DUP5 DUP3 DUP6 ADD PUSH2 0x323B JUMP JUMPDEST PUSH2 0x180 DUP4 ADD MSTORE POP SWAP3 SWAP2 POP POP JUMP JUMPDEST PUSH0 PUSH2 0x3C0 DUP3 DUP5 SUB SLT ISZERO PUSH2 0x3D60 JUMPI PUSH2 0x3D5F PUSH2 0x3A69 JUMP JUMPDEST JUMPDEST PUSH2 0x3D6A PUSH1 0xE0 PUSH2 0x3ACB JUMP JUMPDEST SWAP1 POP PUSH0 PUSH2 0x3D79 DUP5 DUP3 DUP6 ADD PUSH2 0x323B JUMP JUMPDEST PUSH0 DUP4 ADD MSTORE POP PUSH1 0x20 PUSH2 0x3D8C DUP5 DUP3 DUP6 ADD PUSH2 0x2FCC JUMP JUMPDEST PUSH1 0x20 DUP4 ADD MSTORE POP PUSH1 0x40 PUSH2 0x3DA0 DUP5 DUP3 DUP6 ADD PUSH2 0x2FCC JUMP JUMPDEST PUSH1 0x40 DUP4 ADD MSTORE POP PUSH1 0x60 PUSH2 0x3DB4 DUP5 DUP3 DUP6 ADD PUSH2 0x2FCC JUMP JUMPDEST PUSH1 0x60 DUP4 ADD MSTORE POP PUSH1 0x80 PUSH2 0x3DC8 DUP5 DUP3 DUP6 ADD PUSH2 0x323B JUMP JUMPDEST PUSH1 0x80 DUP4 ADD MSTORE POP PUSH1 0xA0 PUSH2 0x3DDC DUP5 DUP3 DUP6 ADD PUSH2 0x323B JUMP JUMPDEST PUSH1 0xA0 DUP4 ADD MSTORE POP PUSH1 0xC0 PUSH2 0x3DF0 DUP5 DUP3 DUP6 ADD PUSH2 0x3C15 JUMP JUMPDEST PUSH1 0xC0 DUP4 ADD MSTORE POP SWAP3 SWAP2 POP POP JUMP JUMPDEST PUSH0 PUSH2 0x3C0 DUP3 DUP5 SUB SLT ISZERO PUSH2 0x3E12 JUMPI PUSH2 0x3E11 PUSH2 0x2962 JUMP JUMPDEST JUMPDEST PUSH0 PUSH2 0x3E1F DUP5 DUP3 DUP6 ADD PUSH2 0x3D4A JUMP JUMPDEST SWAP2 POP POP SWAP3 SWAP2 POP POP JUMP JUMPDEST PUSH1 0xA DUP2 LT PUSH2 0x3E39 JUMPI PUSH2 0x3E38 PUSH2 0x29E2 JUMP JUMPDEST JUMPDEST POP JUMP JUMPDEST PUSH0 DUP2 SWAP1 POP PUSH2 0x3E49 DUP3 PUSH2 0x3E28 JUMP JUMPDEST SWAP2 SWAP1 POP JUMP JUMPDEST PUSH0 PUSH2 0x3E58 DUP3 PUSH2 0x3E3C JUMP JUMPDEST SWAP1 POP SWAP2 SWAP1 POP JUMP JUMPDEST PUSH2 0x3E68 DUP2 PUSH2 0x3E4E JUMP JUMPDEST DUP3 MSTORE POP POP JUMP JUMPDEST PUSH1 0x6 DUP2 LT PUSH2 0x3E7F JUMPI PUSH2 0x3E7E PUSH2 0x29E2 JUMP JUMPDEST JUMPDEST POP JUMP JUMPDEST PUSH0 DUP2 SWAP1 POP PUSH2 0x3E8F DUP3 PUSH2 0x3E6E JUMP JUMPDEST SWAP2 SWAP1 POP JUMP JUMPDEST PUSH0 PUSH2 0x3E9E DUP3 PUSH2 0x3E82 JUMP JUMPDEST SWAP1 POP SWAP2 SWAP1 POP JUMP JUMPDEST PUSH2 0x3EAE DUP2 PUSH2 0x3E94 JUMP JUMPDEST DUP3 MSTORE POP POP JUMP JUMPDEST PUSH0 PUSH1 0xC0 DUP3 ADD SWAP1 POP PUSH2 0x3EC7 PUSH0 DUP4 ADD DUP10 PUSH2 0x3E5F JUMP JUMPDEST PUSH2 0x3ED4 PUSH1 0x20 DUP4 ADD DUP9 PUSH2 0x3EA5 JUMP JUMPDEST PUSH2 0x3EE1 PUSH1 0x40 DUP4 ADD DUP8 PUSH2 0x28A1 JUMP JUMPDEST PUSH2 0x3EEE PUSH1 0x60 DUP4 ADD DUP7 PUSH2 0x3213 JUMP JUMPDEST PUSH2 0x3EFB PUSH1 0x80 DUP4 ADD DUP6 PUSH2 0x28A1 JUMP JUMPDEST PUSH2 0x3F08 PUSH1 0xA0 DUP4 ADD DUP5 PUSH2 0x3213 JUMP JUMPDEST SWAP8 SWAP7 POP POP POP POP POP POP POP JUMP JUMPDEST PUSH0 PUSH2 0x3F1D DUP3 PUSH2 0x2898 JUMP JUMPDEST SWAP2 POP PUSH2 0x3F28 DUP4 PUSH2 0x2898 JUMP JUMPDEST SWAP3 POP DUP3 DUP3 MUL PUSH2 0x3F36 DUP2 PUSH2 0x2898 JUMP JUMPDEST SWAP2 POP DUP3 DUP3 DIV DUP5 EQ DUP4 ISZERO OR PUSH2 0x3F4D JUMPI PUSH2 0x3F4C PUSH2 0x34FE JUMP JUMPDEST JUMPDEST POP SWAP3 SWAP2 POP POP JUMP JUMPDEST PUSH32 0x636F6E747269627574696F6E206D69732D6D6174636800000000000000000000 PUSH0 DUP3 ADD MSTORE POP JUMP JUMPDEST PUSH0 PUSH2 0x3F88 PUSH1 0x16 DUP4 PUSH2 0x28D3 JUMP JUMPDEST SWAP2 POP PUSH2 0x3F93 DUP3 PUSH2 0x3F54 JUMP JUMPDEST PUSH1 0x20 DUP3 ADD SWAP1 POP SWAP2 SWAP1 POP JUMP JUMPDEST PUSH0 PUSH1 0x20 DUP3 ADD SWAP1 POP DUP2 DUP2 SUB PUSH0 DUP4 ADD MSTORE PUSH2 0x3FB5 DUP2 PUSH2 0x3F7C JUMP JUMPDEST SWAP1 POP SWAP2 SWAP1 POP JUMP INVALID LOG2 PUSH5 0x6970667358 0x22 SLT KECCAK256 SHL MCOPY 0xE9 MOD 0xDF 0xAA 0xC1 PUSH27 0x2A3BB3F53FD6210446C9A95524B534225D87668FF6E5315A64736F PUSH13 0x634300081E0033000000000000 "
				},
				"gasEstimates": {
					"creation": {
						"codeDepositCost": "3274000",
						"executionCost": "infinite",
						"totalCost": "infinite"
					},
					"external": {
						"close()": "infinite",
						"contribute(uint256)": "infinite",
						"drawdown()": "infinite",
						"getBalance()": "2478",
						"getName()": "infinite",
						"getPension()": "infinite",
						"getPensionMetrics()": "infinite",
						"getStatus()": "2678",
						"getTx(uint256)": "infinite",
						"getVersion()": "356",
						"notifyChangeOfAddress()": "infinite",
						"pull(uint256)": "infinite",
						"push(uint256,uint256,uint256)": "infinite",
						"withdraw(address)": "infinite"
					},
					"internal": {
						"addTx(enum TxType,enum ObjType,uint256,uint256,address)": "infinite",
						"checkMaturity(struct MPension memory)": "infinite",
						"checkSettlement(struct MPension memory)": "infinite",
						"getPensionInternal()": "infinite"
					}
				},
				"methodIdentifiers": {
					"close()": "43d726d6",
					"contribute(uint256)": "c1cbbca7",
					"drawdown()": "e77ef21f",
					"getBalance()": "12065fe0",
					"getName()": "17d7de7c",
					"getPension()": "73488018",
					"getPensionMetrics()": "805275a2",
					"getStatus()": "4e69d560",
					"getTx(uint256)": "b8c89338",
					"getVersion()": "0d8e6e2c",
					"notifyChangeOfAddress()": "cde4c10c",
					"pull(uint256)": "4d0392a8",
					"push(uint256,uint256,uint256)": "9f08c755",
					"withdraw(address)": "51cff8d9"
				}
			},
			"storageLayout": {
				"storage": [
					{
						"astId": 198,
						"contract": "contracts/core/MPensionVault.sol:MPensionVault",
						"label": "locked",
						"offset": 0,
						"slot": "0",
						"type": "t_bool"
					},
					{
						"astId": 201,
						"contract": "contracts/core/MPensionVault.sol:MPensionVault",
						"label": "status",
						"offset": 1,
						"slot": "0",
						"type": "t_enum(MPStatus)1429"
					},
					{
						"astId": 204,
						"contract": "contracts/core/MPensionVault.sol:MPensionVault",
						"label": "scheduleStatus",
						"offset": 2,
						"slot": "0",
						"type": "t_enum(MPScheduleStatus)1433"
					},
					{
						"astId": 207,
						"contract": "contracts/core/MPensionVault.sol:MPensionVault",
						"label": "register",
						"offset": 3,
						"slot": "0",
						"type": "t_contract(IRegister)1236"
					},
					{
						"astId": 209,
						"contract": "contracts/core/MPensionVault.sol:MPensionVault",
						"label": "pensionBalance",
						"offset": 0,
						"slot": "1",
						"type": "t_uint256"
					},
					{
						"astId": 211,
						"contract": "contracts/core/MPensionVault.sol:MPensionVault",
						"label": "emissionBalance",
						"offset": 0,
						"slot": "2",
						"type": "t_uint256"
					},
					{
						"astId": 214,
						"contract": "contracts/core/MPensionVault.sol:MPensionVault",
						"label": "metrics",
						"offset": 0,
						"slot": "3",
						"type": "t_struct(PensionMetrics)98_storage"
					},
					{
						"astId": 219,
						"contract": "contracts/core/MPensionVault.sol:MPensionVault",
						"label": "txIdsByTreasuryId",
						"offset": 0,
						"slot": "8",
						"type": "t_mapping(t_uint256,t_array(t_uint256)dyn_storage)"
					}
				],
				"types": {
					"t_array(t_uint256)dyn_storage": {
						"base": "t_uint256",
						"encoding": "dynamic_array",
						"label": "uint256[]",
						"numberOfBytes": "32"
					},
					"t_bool": {
						"encoding": "inplace",
						"label": "bool",
						"numberOfBytes": "1"
					},
					"t_contract(IRegister)1236": {
						"encoding": "inplace",
						"label": "contract IRegister",
						"numberOfBytes": "20"
					},
					"t_enum(MPScheduleStatus)1433": {
						"encoding": "inplace",
						"label": "enum MPScheduleStatus",
						"numberOfBytes": "1"
					},
					"t_enum(MPStatus)1429": {
						"encoding": "inplace",
						"label": "enum MPStatus",
						"numberOfBytes": "1"
					},
					"t_mapping(t_uint256,t_array(t_uint256)dyn_storage)": {
						"encoding": "mapping",
						"key": "t_uint256",
						"label": "mapping(uint256 => uint256[])",
						"numberOfBytes": "32",
						"value": "t_array(t_uint256)dyn_storage"
					},
					"t_struct(PensionMetrics)98_storage": {
						"encoding": "inplace",
						"label": "struct PensionMetrics",
						"members": [
							{
								"astId": 89,
								"contract": "contracts/core/MPensionVault.sol:MPensionVault",
								"label": "contributions",
								"offset": 0,
								"slot": "0",
								"type": "t_uint256"
							},
							{
								"astId": 91,
								"contract": "contracts/core/MPensionVault.sol:MPensionVault",
								"label": "lastContributionDate",
								"offset": 0,
								"slot": "1",
								"type": "t_uint256"
							},
							{
								"astId": 93,
								"contract": "contracts/core/MPensionVault.sol:MPensionVault",
								"label": "lastPullDate",
								"offset": 0,
								"slot": "2",
								"type": "t_uint256"
							},
							{
								"astId": 95,
								"contract": "contracts/core/MPensionVault.sol:MPensionVault",
								"label": "issuedPrincipal",
								"offset": 0,
								"slot": "3",
								"type": "t_uint256"
							},
							{
								"astId": 97,
								"contract": "contracts/core/MPensionVault.sol:MPensionVault",
								"label": "isInTreasury",
								"offset": 0,
								"slot": "4",
								"type": "t_bool"
							}
						],
						"numberOfBytes": "160"
					},
					"t_uint256": {
						"encoding": "inplace",
						"label": "uint256",
						"numberOfBytes": "32"
					}
				}
			},
			"userdoc": {
				"kind": "user",
				"methods": {},
				"version": 1
			}
		}
	}
}