{
	"contracts/core/MPensionVault.sol": {
		"MPensionVault": {
			"abi": [
				{
					"inputs": [
						{
							"internalType": "address",
							"name": "_register",
							"type": "address"
						},
						{
							"internalType": "uint256",
							"name": "_mPensionId",
							"type": "uint256"
						}
					],
					"stateMutability": "nonpayable",
					"type": "constructor"
				},
				{
					"inputs": [],
					"name": "close",
					"outputs": [
						{
							"internalType": "uint256",
							"name": "_txId",
							"type": "uint256"
						}
					],
					"stateMutability": "nonpayable",
					"type": "function"
				},
				{
					"inputs": [
						{
							"internalType": "uint256",
							"name": "_amount",
							"type": "uint256"
						}
					],
					"name": "contribute",
					"outputs": [
						{
							"internalType": "uint256",
							"name": "_txId",
							"type": "uint256"
						}
					],
					"stateMutability": "payable",
					"type": "function"
				},
				{
					"inputs": [],
					"name": "drawdown",
					"outputs": [
						{
							"internalType": "uint256",
							"name": "_txId",
							"type": "uint256"
						}
					],
					"stateMutability": "nonpayable",
					"type": "function"
				},
				{
					"inputs": [],
					"name": "getBalance",
					"outputs": [
						{
							"internalType": "uint256",
							"name": "_balance",
							"type": "uint256"
						}
					],
					"stateMutability": "view",
					"type": "function"
				},
				{
					"inputs": [],
					"name": "getName",
					"outputs": [
						{
							"internalType": "string",
							"name": "_name",
							"type": "string"
						}
					],
					"stateMutability": "pure",
					"type": "function"
				},
				{
					"inputs": [],
					"name": "getPension",
					"outputs": [
						{
							"components": [
								{
									"internalType": "uint256",
									"name": "id",
									"type": "uint256"
								},
								{
									"internalType": "address",
									"name": "creator",
									"type": "address"
								},
								{
									"internalType": "address",
									"name": "owner",
									"type": "address"
								},
								{
									"internalType": "address",
									"name": "treasury",
									"type": "address"
								},
								{
									"internalType": "address",
									"name": "vault",
									"type": "address"
								},
								{
									"internalType": "uint256",
									"name": "maturityDate",
									"type": "uint256"
								},
								{
									"internalType": "uint256",
									"name": "dissolutionDate",
									"type": "uint256"
								},
								{
									"components": [
										{
											"internalType": "uint256",
											"name": "id",
											"type": "uint256"
										},
										{
											"internalType": "address",
											"name": "provider",
											"type": "address"
										},
										{
											"internalType": "address",
											"name": "erc20",
											"type": "address"
										},
										{
											"internalType": "uint256",
											"name": "principalOnMaturity",
											"type": "uint256"
										},
										{
											"internalType": "uint256",
											"name": "interest",
											"type": "uint256"
										},
										{
											"internalType": "enum RiskType",
											"name": "riskType",
											"type": "uint8"
										},
										{
											"internalType": "address",
											"name": "treasury",
											"type": "address"
										},
										{
											"internalType": "enum TreasuryType",
											"name": "treasuryType",
											"type": "uint8"
										},
										{
											"components": [
												{
													"internalType": "enum Schedule",
													"name": "schedule",
													"type": "uint8"
												},
												{
													"internalType": "uint256",
													"name": "term",
													"type": "uint256"
												},
												{
													"internalType": "uint256",
													"name": "minimumAmount",
													"type": "uint256"
												},
												{
													"internalType": "uint256",
													"name": "maximumAmount",
													"type": "uint256"
												},
												{
													"internalType": "uint256",
													"name": "totalIntervals",
													"type": "uint256"
												},
												{
													"internalType": "uint256",
													"name": "totalAmount",
													"type": "uint256"
												}
											],
											"internalType": "struct FinancialSchedule",
											"name": "contributionSchedule",
											"type": "tuple"
										},
										{
											"components": [
												{
													"internalType": "enum Schedule",
													"name": "schedule",
													"type": "uint8"
												},
												{
													"internalType": "uint256",
													"name": "term",
													"type": "uint256"
												},
												{
													"internalType": "uint256",
													"name": "minimumAmount",
													"type": "uint256"
												},
												{
													"internalType": "uint256",
													"name": "maximumAmount",
													"type": "uint256"
												},
												{
													"internalType": "uint256",
													"name": "totalIntervals",
													"type": "uint256"
												},
												{
													"internalType": "uint256",
													"name": "totalAmount",
													"type": "uint256"
												}
											],
											"internalType": "struct FinancialSchedule",
											"name": "emissionSchedule",
											"type": "tuple"
										},
										{
											"components": [
												{
													"internalType": "uint256",
													"name": "maxGainPercentage",
													"type": "uint256"
												},
												{
													"internalType": "uint256",
													"name": "maxLossPercentage",
													"type": "uint256"
												}
											],
											"internalType": "struct Tolerance",
											"name": "tolerance",
											"type": "tuple"
										}
									],
									"internalType": "struct MPProduct",
									"name": "product",
									"type": "tuple"
								}
							],
							"internalType": "struct MPension",
							"name": "_mPension",
							"type": "tuple"
						}
					],
					"stateMutability": "view",
					"type": "function"
				},
				{
					"inputs": [],
					"name": "getStatus",
					"outputs": [
						{
							"internalType": "enum MPStatus",
							"name": "_status",
							"type": "uint8"
						}
					],
					"stateMutability": "view",
					"type": "function"
				},
				{
					"inputs": [
						{
							"internalType": "uint256",
							"name": "_treasuryId",
							"type": "uint256"
						}
					],
					"name": "getTx",
					"outputs": [
						{
							"internalType": "uint256[]",
							"name": "_txId",
							"type": "uint256[]"
						}
					],
					"stateMutability": "view",
					"type": "function"
				},
				{
					"inputs": [],
					"name": "getVersion",
					"outputs": [
						{
							"internalType": "uint256",
							"name": "_version",
							"type": "uint256"
						}
					],
					"stateMutability": "pure",
					"type": "function"
				},
				{
					"inputs": [
						{
							"internalType": "uint256",
							"name": "_treasuryId",
							"type": "uint256"
						}
					],
					"name": "pull",
					"outputs": [
						{
							"internalType": "uint256",
							"name": "_principal",
							"type": "uint256"
						},
						{
							"internalType": "uint256",
							"name": "_txId",
							"type": "uint256"
						}
					],
					"stateMutability": "nonpayable",
					"type": "function"
				},
				{
					"inputs": [
						{
							"internalType": "uint256",
							"name": "_treasuryId",
							"type": "uint256"
						},
						{
							"internalType": "uint256",
							"name": "_principal",
							"type": "uint256"
						},
						{
							"internalType": "uint256",
							"name": "_earnings",
							"type": "uint256"
						}
					],
					"name": "push",
					"outputs": [
						{
							"internalType": "uint256",
							"name": "_txId",
							"type": "uint256"
						}
					],
					"stateMutability": "payable",
					"type": "function"
				},
				{
					"inputs": [
						{
							"internalType": "address",
							"name": "_erc20",
							"type": "address"
						}
					],
					"name": "withdraw",
					"outputs": [
						{
							"internalType": "uint256",
							"name": "_amount",
							"type": "uint256"
						}
					],
					"stateMutability": "nonpayable",
					"type": "function"
				}
			],
			"devdoc": {
				"kind": "dev",
				"methods": {},
				"version": 1
			},
			"evm": {
				"assembly": "    /* \"contracts/core/MPensionVault.sol\":411:10608  contract MPensionVault is IMPensionVault, IVersion { ... */\n  mstore(0x40, 0xc0)\n    /* \"contracts/core/MPensionVault.sol\":1768:1971  constructor(address _register, uint256 _mPensionId) {... */\n  callvalue\n  dup1\n  iszero\n  tag_1\n  jumpi\n  revert(0x00, 0x00)\ntag_1:\n  pop\n  mload(0x40)\n  sub(codesize, bytecodeSize)\n  dup1\n  bytecodeSize\n  dup4\n  codecopy\n  dup2\n  dup2\n  add\n  0x40\n  mstore\n  dup2\n  add\n  swap1\n  tag_2\n  swap2\n  swap1\n  tag_3\n  jump\t// in\ntag_2:\n    /* \"contracts/core/MPensionVault.sol\":1852:1861  _register */\n  dup2\n    /* \"contracts/core/MPensionVault.sol\":1831:1839  register */\n  0x00\n  0x03\n    /* \"contracts/core/MPensionVault.sol\":1831:1862  register = IRegister(_register) */\n  0x0100\n  exp\n  dup2\n  sload\n  dup2\n  0xffffffffffffffffffffffffffffffffffffffff\n  mul\n  not\n  and\n  swap1\n  dup4\n  0xffffffffffffffffffffffffffffffffffffffff\n  and\n  mul\n  or\n  swap1\n  sstore\n  pop\n    /* \"contracts/core/MPensionVault.sol\":1886:1897  _mPensionId */\n  dup1\n    /* \"contracts/core/MPensionVault.sol\":1874:1897  pensionId = _mPensionId */\n  0x80\n  dup2\n  dup2\n  mstore\n  pop\n  pop\n    /* \"contracts/core/MPensionVault.sol\":1918:1931  MPStatus.OPEN */\n  0x00\n    /* \"contracts/core/MPensionVault.sol\":1909:1915  status */\n  0x00\n  0x01\n    /* \"contracts/core/MPensionVault.sol\":1909:1931  status = MPStatus.OPEN */\n  0x0100\n  exp\n  dup2\n  sload\n  dup2\n  0xff\n  mul\n  not\n  and\n  swap1\n  dup4\n  0x03\n  dup2\n  gt\n  iszero\n  tag_6\n  jumpi\n  tag_7\n  tag_8\n  jump\t// in\ntag_7:\ntag_6:\n  mul\n  or\n  swap1\n  sstore\n  pop\n    /* \"contracts/core/MPensionVault.sol\":1958:1962  this */\n  address\n    /* \"contracts/core/MPensionVault.sol\":1943:1963  self = address(this) */\n  0xffffffffffffffffffffffffffffffffffffffff\n  and\n  0xa0\n  dup2\n  0xffffffffffffffffffffffffffffffffffffffff\n  and\n  dup2\n  mstore\n  pop\n  pop\n    /* \"contracts/core/MPensionVault.sol\":1768:1971  constructor(address _register, uint256 _mPensionId) {... */\n  pop\n  pop\n    /* \"contracts/core/MPensionVault.sol\":411:10608  contract MPensionVault is IMPensionVault, IVersion { ... */\n  jump(tag_9)\n    /* \"#utility.yul\":88:205   */\ntag_11:\n    /* \"#utility.yul\":197:198   */\n  0x00\n    /* \"#utility.yul\":194:195   */\n  0x00\n    /* \"#utility.yul\":187:199   */\n  revert\n    /* \"#utility.yul\":334:460   */\ntag_13:\n    /* \"#utility.yul\":371:378   */\n  0x00\n    /* \"#utility.yul\":411:453   */\n  0xffffffffffffffffffffffffffffffffffffffff\n    /* \"#utility.yul\":404:409   */\n  dup3\n    /* \"#utility.yul\":400:454   */\n  and\n    /* \"#utility.yul\":389:454   */\n  swap1\n  pop\n    /* \"#utility.yul\":334:460   */\n  swap2\n  swap1\n  pop\n  jump\t// out\n    /* \"#utility.yul\":466:562   */\ntag_14:\n    /* \"#utility.yul\":503:510   */\n  0x00\n    /* \"#utility.yul\":532:556   */\n  tag_26\n    /* \"#utility.yul\":550:555   */\n  dup3\n    /* \"#utility.yul\":532:556   */\n  tag_13\n  jump\t// in\ntag_26:\n    /* \"#utility.yul\":521:556   */\n  swap1\n  pop\n    /* \"#utility.yul\":466:562   */\n  swap2\n  swap1\n  pop\n  jump\t// out\n    /* \"#utility.yul\":568:690   */\ntag_15:\n    /* \"#utility.yul\":641:665   */\n  tag_28\n    /* \"#utility.yul\":659:664   */\n  dup2\n    /* \"#utility.yul\":641:665   */\n  tag_14\n  jump\t// in\ntag_28:\n    /* \"#utility.yul\":634:639   */\n  dup2\n    /* \"#utility.yul\":631:666   */\n  eq\n    /* \"#utility.yul\":621:684   */\n  tag_29\n  jumpi\n    /* \"#utility.yul\":680:681   */\n  0x00\n    /* \"#utility.yul\":677:678   */\n  0x00\n    /* \"#utility.yul\":670:682   */\n  revert\n    /* \"#utility.yul\":621:684   */\ntag_29:\n    /* \"#utility.yul\":568:690   */\n  pop\n  jump\t// out\n    /* \"#utility.yul\":696:839   */\ntag_16:\n    /* \"#utility.yul\":753:758   */\n  0x00\n    /* \"#utility.yul\":784:790   */\n  dup2\n    /* \"#utility.yul\":778:791   */\n  mload\n    /* \"#utility.yul\":769:791   */\n  swap1\n  pop\n    /* \"#utility.yul\":800:833   */\n  tag_31\n    /* \"#utility.yul\":827:832   */\n  dup2\n    /* \"#utility.yul\":800:833   */\n  tag_15\n  jump\t// in\ntag_31:\n    /* \"#utility.yul\":696:839   */\n  swap3\n  swap2\n  pop\n  pop\n  jump\t// out\n    /* \"#utility.yul\":845:922   */\ntag_17:\n    /* \"#utility.yul\":882:889   */\n  0x00\n    /* \"#utility.yul\":911:916   */\n  dup2\n    /* \"#utility.yul\":900:916   */\n  swap1\n  pop\n    /* \"#utility.yul\":845:922   */\n  swap2\n  swap1\n  pop\n  jump\t// out\n    /* \"#utility.yul\":928:1050   */\ntag_18:\n    /* \"#utility.yul\":1001:1025   */\n  tag_34\n    /* \"#utility.yul\":1019:1024   */\n  dup2\n    /* \"#utility.yul\":1001:1025   */\n  tag_17\n  jump\t// in\ntag_34:\n    /* \"#utility.yul\":994:999   */\n  dup2\n    /* \"#utility.yul\":991:1026   */\n  eq\n    /* \"#utility.yul\":981:1044   */\n  tag_35\n  jumpi\n    /* \"#utility.yul\":1040:1041   */\n  0x00\n    /* \"#utility.yul\":1037:1038   */\n  0x00\n    /* \"#utility.yul\":1030:1042   */\n  revert\n    /* \"#utility.yul\":981:1044   */\ntag_35:\n    /* \"#utility.yul\":928:1050   */\n  pop\n  jump\t// out\n    /* \"#utility.yul\":1056:1199   */\ntag_19:\n    /* \"#utility.yul\":1113:1118   */\n  0x00\n    /* \"#utility.yul\":1144:1150   */\n  dup2\n    /* \"#utility.yul\":1138:1151   */\n  mload\n    /* \"#utility.yul\":1129:1151   */\n  swap1\n  pop\n    /* \"#utility.yul\":1160:1193   */\n  tag_37\n    /* \"#utility.yul\":1187:1192   */\n  dup2\n    /* \"#utility.yul\":1160:1193   */\n  tag_18\n  jump\t// in\ntag_37:\n    /* \"#utility.yul\":1056:1199   */\n  swap3\n  swap2\n  pop\n  pop\n  jump\t// out\n    /* \"#utility.yul\":1205:1712   */\ntag_3:\n    /* \"#utility.yul\":1284:1290   */\n  0x00\n    /* \"#utility.yul\":1292:1298   */\n  0x00\n    /* \"#utility.yul\":1341:1343   */\n  0x40\n    /* \"#utility.yul\":1329:1338   */\n  dup4\n    /* \"#utility.yul\":1320:1327   */\n  dup6\n    /* \"#utility.yul\":1316:1339   */\n  sub\n    /* \"#utility.yul\":1312:1344   */\n  slt\n    /* \"#utility.yul\":1309:1428   */\n  iszero\n  tag_39\n  jumpi\n    /* \"#utility.yul\":1347:1426   */\n  tag_40\n  tag_11\n  jump\t// in\ntag_40:\n    /* \"#utility.yul\":1309:1428   */\ntag_39:\n    /* \"#utility.yul\":1467:1468   */\n  0x00\n    /* \"#utility.yul\":1492:1556   */\n  tag_41\n    /* \"#utility.yul\":1548:1555   */\n  dup6\n    /* \"#utility.yul\":1539:1545   */\n  dup3\n    /* \"#utility.yul\":1528:1537   */\n  dup7\n    /* \"#utility.yul\":1524:1546   */\n  add\n    /* \"#utility.yul\":1492:1556   */\n  tag_16\n  jump\t// in\ntag_41:\n    /* \"#utility.yul\":1482:1556   */\n  swap3\n  pop\n    /* \"#utility.yul\":1438:1566   */\n  pop\n    /* \"#utility.yul\":1605:1607   */\n  0x20\n    /* \"#utility.yul\":1631:1695   */\n  tag_42\n    /* \"#utility.yul\":1687:1694   */\n  dup6\n    /* \"#utility.yul\":1678:1684   */\n  dup3\n    /* \"#utility.yul\":1667:1676   */\n  dup7\n    /* \"#utility.yul\":1663:1685   */\n  add\n    /* \"#utility.yul\":1631:1695   */\n  tag_19\n  jump\t// in\ntag_42:\n    /* \"#utility.yul\":1621:1695   */\n  swap2\n  pop\n    /* \"#utility.yul\":1576:1705   */\n  pop\n    /* \"#utility.yul\":1205:1712   */\n  swap3\n  pop\n  swap3\n  swap1\n  pop\n  jump\t// out\n    /* \"#utility.yul\":1718:1898   */\ntag_8:\n    /* \"#utility.yul\":1766:1843   */\n  0x4e487b7100000000000000000000000000000000000000000000000000000000\n    /* \"#utility.yul\":1763:1764   */\n  0x00\n    /* \"#utility.yul\":1756:1844   */\n  mstore\n    /* \"#utility.yul\":1863:1867   */\n  0x21\n    /* \"#utility.yul\":1860:1861   */\n  0x04\n    /* \"#utility.yul\":1853:1868   */\n  mstore\n    /* \"#utility.yul\":1887:1891   */\n  0x24\n    /* \"#utility.yul\":1884:1885   */\n  0x00\n    /* \"#utility.yul\":1877:1892   */\n  revert\n    /* \"contracts/core/MPensionVault.sol\":411:10608  contract MPensionVault is IMPensionVault, IVersion { ... */\ntag_9:\n  mload(0x80)\n  mload(0xa0)\n  codecopy(0x00, dataOffset(sub_0), dataSize(sub_0))\n  0x00\n  assignImmutable(\"0x05dee4192aaad4acb149f9615e8a72a761fc8cdb1d8b4e9c00fe66665f5a8184\")\n  0x00\n  assignImmutable(\"0x0697183ae8eedd43b56f90cfa450ea6e3ac27fb69f1056ee33ccc5a9587bcd2a\")\n  return(0x00, dataSize(sub_0))\nstop\n\nsub_0: assembly {\n        /* \"contracts/core/MPensionVault.sol\":411:10608  contract MPensionVault is IMPensionVault, IVersion { ... */\n      mstore(0x40, 0x80)\n      jumpi(tag_1, lt(calldatasize, 0x04))\n      shr(0xe0, calldataload(0x00))\n      dup1\n      0x51cff8d9\n      gt\n      tag_14\n      jumpi\n      dup1\n      0x51cff8d9\n      eq\n      tag_8\n      jumpi\n      dup1\n      0x73488018\n      eq\n      tag_9\n      jumpi\n      dup1\n      0x9f08c755\n      eq\n      tag_10\n      jumpi\n      dup1\n      0xb8c89338\n      eq\n      tag_11\n      jumpi\n      dup1\n      0xc1cbbca7\n      eq\n      tag_12\n      jumpi\n      dup1\n      0xe77ef21f\n      eq\n      tag_13\n      jumpi\n      jump(tag_1)\n    tag_14:\n      dup1\n      0x0d8e6e2c\n      eq\n      tag_2\n      jumpi\n      dup1\n      0x12065fe0\n      eq\n      tag_3\n      jumpi\n      dup1\n      0x17d7de7c\n      eq\n      tag_4\n      jumpi\n      dup1\n      0x43d726d6\n      eq\n      tag_5\n      jumpi\n      dup1\n      0x4d0392a8\n      eq\n      tag_6\n      jumpi\n      dup1\n      0x4e69d560\n      eq\n      tag_7\n      jumpi\n    tag_1:\n      revert(0x00, 0x00)\n        /* \"contracts/core/MPensionVault.sol\":2082:2179  function getVersion() pure external returns (uint256 _version){ ... */\n    tag_2:\n      callvalue\n      dup1\n      iszero\n      tag_15\n      jumpi\n      revert(0x00, 0x00)\n    tag_15:\n      pop\n      tag_16\n      tag_17\n      jump\t// in\n    tag_16:\n      mload(0x40)\n      tag_18\n      swap2\n      swap1\n      tag_19\n      jump\t// in\n    tag_18:\n      mload(0x40)\n      dup1\n      swap2\n      sub\n      swap1\n      return\n        /* \"contracts/core/MPensionVault.sol\":2413:2516  function getBalance() view external returns (uint256 _balance){... */\n    tag_3:\n      callvalue\n      dup1\n      iszero\n      tag_20\n      jumpi\n      revert(0x00, 0x00)\n    tag_20:\n      pop\n      tag_21\n      tag_22\n      jump\t// in\n    tag_21:\n      mload(0x40)\n      tag_23\n      swap2\n      swap1\n      tag_19\n      jump\t// in\n    tag_23:\n      mload(0x40)\n      dup1\n      swap2\n      sub\n      swap1\n      return\n        /* \"contracts/core/MPensionVault.sol\":1979:2074  function getName() pure external returns (string memory _name) { ... */\n    tag_4:\n      callvalue\n      dup1\n      iszero\n      tag_24\n      jumpi\n      revert(0x00, 0x00)\n    tag_24:\n      pop\n      tag_25\n      tag_26\n      jump\t// in\n    tag_25:\n      mload(0x40)\n      tag_27\n      swap2\n      swap1\n      tag_28\n      jump\t// in\n    tag_27:\n      mload(0x40)\n      dup1\n      swap2\n      sub\n      swap1\n      return\n        /* \"contracts/core/MPensionVault.sol\":5017:5849  function close() external adminOnly semaphore returns (uint256 _txId){... */\n    tag_5:\n      callvalue\n      dup1\n      iszero\n      tag_29\n      jumpi\n      revert(0x00, 0x00)\n    tag_29:\n      pop\n      tag_30\n      tag_31\n      jump\t// in\n    tag_30:\n      mload(0x40)\n      tag_32\n      swap2\n      swap1\n      tag_19\n      jump\t// in\n    tag_32:\n      mload(0x40)\n      dup1\n      swap2\n      sub\n      swap1\n      return\n        /* \"contracts/core/MPensionVault.sol\":6435:7466  function pull(uint256 _treasuryId) external semaphore returns (uint256 _principal, uint256 _txId){... */\n    tag_6:\n      callvalue\n      dup1\n      iszero\n      tag_33\n      jumpi\n      revert(0x00, 0x00)\n    tag_33:\n      pop\n      tag_34\n      0x04\n      dup1\n      calldatasize\n      sub\n      dup2\n      add\n      swap1\n      tag_35\n      swap2\n      swap1\n      tag_36\n      jump\t// in\n    tag_35:\n      tag_37\n      jump\t// in\n    tag_34:\n      mload(0x40)\n      tag_38\n      swap3\n      swap2\n      swap1\n      tag_39\n      jump\t// in\n    tag_38:\n      mload(0x40)\n      dup1\n      swap2\n      sub\n      swap1\n      return\n        /* \"contracts/core/MPensionVault.sol\":2187:2282  function getStatus() view external returns (MPStatus _status) {... */\n    tag_7:\n      callvalue\n      dup1\n      iszero\n      tag_40\n      jumpi\n      revert(0x00, 0x00)\n    tag_40:\n      pop\n      tag_41\n      tag_42\n      jump\t// in\n    tag_41:\n      mload(0x40)\n      tag_43\n      swap2\n      swap1\n      tag_44\n      jump\t// in\n    tag_43:\n      mload(0x40)\n      dup1\n      swap2\n      sub\n      swap1\n      return\n        /* \"contracts/core/MPensionVault.sol\":5857:6396  function withdraw(address _erc20) adminOnly external returns (uint256 _amount) {... */\n    tag_8:\n      callvalue\n      dup1\n      iszero\n      tag_45\n      jumpi\n      revert(0x00, 0x00)\n    tag_45:\n      pop\n      tag_46\n      0x04\n      dup1\n      calldatasize\n      sub\n      dup2\n      add\n      swap1\n      tag_47\n      swap2\n      swap1\n      tag_48\n      jump\t// in\n    tag_47:\n      tag_49\n      jump\t// in\n    tag_46:\n      mload(0x40)\n      tag_50\n      swap2\n      swap1\n      tag_19\n      jump\t// in\n    tag_50:\n      mload(0x40)\n      dup1\n      swap2\n      sub\n      swap1\n      return\n        /* \"contracts/core/MPensionVault.sol\":2290:2405  function getPension() view external returns (MPension memory _mPension){... */\n    tag_9:\n      callvalue\n      dup1\n      iszero\n      tag_51\n      jumpi\n      revert(0x00, 0x00)\n    tag_51:\n      pop\n      tag_52\n      tag_53\n      jump\t// in\n    tag_52:\n      mload(0x40)\n      tag_54\n      swap2\n      swap1\n      tag_55\n      jump\t// in\n    tag_54:\n      mload(0x40)\n      dup1\n      swap2\n      sub\n      swap1\n      return\n        /* \"contracts/core/MPensionVault.sol\":7475:8876  function push(uint256 _treasuryId, uint256 _principal, uint256 _earnings)  payable external semaphore returns (uint256 _txId){... */\n    tag_10:\n      tag_56\n      0x04\n      dup1\n      calldatasize\n      sub\n      dup2\n      add\n      swap1\n      tag_57\n      swap2\n      swap1\n      tag_58\n      jump\t// in\n    tag_57:\n      tag_59\n      jump\t// in\n    tag_56:\n      mload(0x40)\n      tag_60\n      swap2\n      swap1\n      tag_19\n      jump\t// in\n    tag_60:\n      mload(0x40)\n      dup1\n      swap2\n      sub\n      swap1\n      return\n        /* \"contracts/core/MPensionVault.sol\":2524:2663  function getTx(uint256 _treasuryId) view external returns (uint256 [] memory _txId){... */\n    tag_11:\n      callvalue\n      dup1\n      iszero\n      tag_61\n      jumpi\n      revert(0x00, 0x00)\n    tag_61:\n      pop\n      tag_62\n      0x04\n      dup1\n      calldatasize\n      sub\n      dup2\n      add\n      swap1\n      tag_63\n      swap2\n      swap1\n      tag_36\n      jump\t// in\n    tag_63:\n      tag_64\n      jump\t// in\n    tag_62:\n      mload(0x40)\n      tag_65\n      swap2\n      swap1\n      tag_66\n      jump\t// in\n    tag_65:\n      mload(0x40)\n      dup1\n      swap2\n      sub\n      swap1\n      return\n        /* \"contracts/core/MPensionVault.sol\":2671:3984  function contribute(uint256 _amount) payable external semaphore returns (uint256 _txId){... */\n    tag_12:\n      tag_67\n      0x04\n      dup1\n      calldatasize\n      sub\n      dup2\n      add\n      swap1\n      tag_68\n      swap2\n      swap1\n      tag_36\n      jump\t// in\n    tag_68:\n      tag_69\n      jump\t// in\n    tag_67:\n      mload(0x40)\n      tag_70\n      swap2\n      swap1\n      tag_19\n      jump\t// in\n    tag_70:\n      mload(0x40)\n      dup1\n      swap2\n      sub\n      swap1\n      return\n        /* \"contracts/core/MPensionVault.sol\":3992:5009  function drawdown() external ownerOnly semaphore returns (uint256 _txId){... */\n    tag_13:\n      callvalue\n      dup1\n      iszero\n      tag_71\n      jumpi\n      revert(0x00, 0x00)\n    tag_71:\n      pop\n      tag_72\n      tag_73\n      jump\t// in\n    tag_72:\n      mload(0x40)\n      tag_74\n      swap2\n      swap1\n      tag_19\n      jump\t// in\n    tag_74:\n      mload(0x40)\n      dup1\n      swap2\n      sub\n      swap1\n      return\n        /* \"contracts/core/MPensionVault.sol\":2082:2179  function getVersion() pure external returns (uint256 _version){ ... */\n    tag_17:\n        /* \"contracts/core/MPensionVault.sol\":2127:2143  uint256 _version */\n      0x00\n        /* \"contracts/core/MPensionVault.sol\":973:974  1 */\n      0x01\n        /* \"contracts/core/MPensionVault.sol\":2156:2170  return version */\n      swap1\n      pop\n        /* \"contracts/core/MPensionVault.sol\":2082:2179  function getVersion() pure external returns (uint256 _version){ ... */\n      swap1\n      jump\t// out\n        /* \"contracts/core/MPensionVault.sol\":2413:2516  function getBalance() view external returns (uint256 _balance){... */\n    tag_22:\n        /* \"contracts/core/MPensionVault.sol\":2458:2474  uint256 _balance */\n      0x00\n        /* \"contracts/core/MPensionVault.sol\":2493:2507  pensionBalance */\n      sload(0x02)\n        /* \"contracts/core/MPensionVault.sol\":2486:2507  return pensionBalance */\n      swap1\n      pop\n        /* \"contracts/core/MPensionVault.sol\":2413:2516  function getBalance() view external returns (uint256 _balance){... */\n      swap1\n      jump\t// out\n        /* \"contracts/core/MPensionVault.sol\":1979:2074  function getName() pure external returns (string memory _name) { ... */\n    tag_26:\n        /* \"contracts/core/MPensionVault.sol\":2021:2040  string memory _name */\n      0x60\n        /* \"contracts/core/MPensionVault.sol\":2061:2065  name */\n      mload(0x40)\n      dup1\n      0x40\n      add\n      0x40\n      mstore\n      dup1\n      0x16\n      dup2\n      mstore\n      0x20\n      add\n      0x4d4544414c494f4e5f50454e53494f4e5f5641554c5400000000000000000000\n      dup2\n      mstore\n      pop\n        /* \"contracts/core/MPensionVault.sol\":2054:2065  return name */\n      swap1\n      pop\n        /* \"contracts/core/MPensionVault.sol\":1979:2074  function getName() pure external returns (string memory _name) { ... */\n      swap1\n      jump\t// out\n        /* \"contracts/core/MPensionVault.sol\":5017:5849  function close() external adminOnly semaphore returns (uint256 _txId){... */\n    tag_31:\n        /* \"contracts/core/MPensionVault.sol\":5072:5085  uint256 _txId */\n      0x00\n        /* \"contracts/core/MPensionVault.sol\":802:810  register */\n      0x00\n      0x03\n      swap1\n      sload\n      swap1\n      0x0100\n      exp\n      swap1\n      div\n      0xffffffffffffffffffffffffffffffffffffffff\n      and\n        /* \"contracts/core/MPensionVault.sol\":802:821  register.getAddress */\n      0xffffffffffffffffffffffffffffffffffffffff\n      and\n      0xbf40fac1\n        /* \"contracts/core/MPensionVault.sol\":822:838  PENSION_ADMIN_CA */\n      mload(0x40)\n      dup1\n      0x40\n      add\n      0x40\n      mstore\n      dup1\n      0x11\n      dup2\n      mstore\n      0x20\n      add\n      0x52455345525645445f4d505f41444d494e000000000000000000000000000000\n      dup2\n      mstore\n      pop\n        /* \"contracts/core/MPensionVault.sol\":802:839  register.getAddress(PENSION_ADMIN_CA) */\n      mload(0x40)\n      dup3\n      0xffffffff\n      and\n      0xe0\n      shl\n      dup2\n      mstore\n      0x04\n      add\n      tag_79\n      swap2\n      swap1\n      tag_28\n      jump\t// in\n    tag_79:\n      0x20\n      mload(0x40)\n      dup1\n      dup4\n      sub\n      dup2\n      dup7\n      gas\n      staticcall\n      iszero\n      dup1\n      iszero\n      tag_81\n      jumpi\n      returndatacopy(0x00, 0x00, returndatasize)\n      revert(0x00, returndatasize)\n    tag_81:\n      pop\n      pop\n      pop\n      pop\n      mload(0x40)\n      returndatasize\n      not(0x1f)\n      0x1f\n      dup3\n      add\n      and\n      dup3\n      add\n      dup1\n      0x40\n      mstore\n      pop\n      dup2\n      add\n      swap1\n      tag_82\n      swap2\n      swap1\n      tag_83\n      jump\t// in\n    tag_82:\n        /* \"contracts/core/MPensionVault.sol\":788:839  msg.sender == register.getAddress(PENSION_ADMIN_CA) */\n      0xffffffffffffffffffffffffffffffffffffffff\n      and\n        /* \"contracts/core/MPensionVault.sol\":788:798  msg.sender */\n      caller\n        /* \"contracts/core/MPensionVault.sol\":788:839  msg.sender == register.getAddress(PENSION_ADMIN_CA) */\n      0xffffffffffffffffffffffffffffffffffffffff\n      and\n      eq\n        /* \"contracts/core/MPensionVault.sol\":780:862  require(msg.sender == register.getAddress(PENSION_ADMIN_CA), \"Pension Admin Only\") */\n      tag_84\n      jumpi\n      mload(0x40)\n      0x08c379a000000000000000000000000000000000000000000000000000000000\n      dup2\n      mstore\n      0x04\n      add\n      tag_85\n      swap1\n      tag_86\n      jump\t// in\n    tag_85:\n      mload(0x40)\n      dup1\n      swap2\n      sub\n      swap1\n      revert\n    tag_84:\n        /* \"contracts/core/MPensionVault.sol\":512:518  locked */\n      0x00\n      0x00\n      swap1\n      sload\n      swap1\n      0x0100\n      exp\n      swap1\n      div\n      0xff\n      and\n        /* \"contracts/core/MPensionVault.sol\":511:518  !locked */\n      iszero\n        /* \"contracts/core/MPensionVault.sol\":503:535  require(!locked, \"vault locked\") */\n      tag_88\n      jumpi\n      mload(0x40)\n      0x08c379a000000000000000000000000000000000000000000000000000000000\n      dup2\n      mstore\n      0x04\n      add\n      tag_89\n      swap1\n      tag_90\n      jump\t// in\n    tag_89:\n      mload(0x40)\n      dup1\n      swap2\n      sub\n      swap1\n      revert\n    tag_88:\n        /* \"contracts/core/MPensionVault.sol\":564:579  MPStatus.CLOSED */\n      0x02\n        /* \"contracts/core/MPensionVault.sol\":554:579  status != MPStatus.CLOSED */\n      0x03\n      dup2\n      gt\n      iszero\n      tag_91\n      jumpi\n      tag_92\n      tag_93\n      jump\t// in\n    tag_92:\n    tag_91:\n        /* \"contracts/core/MPensionVault.sol\":554:560  status */\n      0x00\n      0x01\n      swap1\n      sload\n      swap1\n      0x0100\n      exp\n      swap1\n      div\n      0xff\n      and\n        /* \"contracts/core/MPensionVault.sol\":554:579  status != MPStatus.CLOSED */\n      0x03\n      dup2\n      gt\n      iszero\n      tag_94\n      jumpi\n      tag_95\n      tag_93\n      jump\t// in\n    tag_95:\n    tag_94:\n      sub\n        /* \"contracts/core/MPensionVault.sol\":546:596  require(status != MPStatus.CLOSED, \"vault closed\") */\n      tag_96\n      jumpi\n      mload(0x40)\n      0x08c379a000000000000000000000000000000000000000000000000000000000\n      dup2\n      mstore\n      0x04\n      add\n      tag_97\n      swap1\n      tag_98\n      jump\t// in\n    tag_97:\n      mload(0x40)\n      dup1\n      swap2\n      sub\n      swap1\n      revert\n    tag_96:\n        /* \"contracts/core/MPensionVault.sol\":5097:5121  MPension memory pension_ */\n      0x00\n        /* \"contracts/core/MPensionVault.sol\":5124:5144  getPensionInternal() */\n      tag_100\n        /* \"contracts/core/MPensionVault.sol\":5124:5142  getPensionInternal */\n      tag_101\n        /* \"contracts/core/MPensionVault.sol\":5124:5144  getPensionInternal() */\n      jump\t// in\n    tag_100:\n        /* \"contracts/core/MPensionVault.sol\":5097:5144  MPension memory pension_ = getPensionInternal() */\n      swap1\n      pop\n        /* \"contracts/core/MPensionVault.sol\":5174:5189  MPStatus.CLOSED */\n      0x02\n        /* \"contracts/core/MPensionVault.sol\":5164:5189  status != MPStatus.CLOSED */\n      0x03\n      dup2\n      gt\n      iszero\n      tag_102\n      jumpi\n      tag_103\n      tag_93\n      jump\t// in\n    tag_103:\n    tag_102:\n        /* \"contracts/core/MPensionVault.sol\":5164:5170  status */\n      0x00\n      0x01\n      swap1\n      sload\n      swap1\n      0x0100\n      exp\n      swap1\n      div\n      0xff\n      and\n        /* \"contracts/core/MPensionVault.sol\":5164:5189  status != MPStatus.CLOSED */\n      0x03\n      dup2\n      gt\n      iszero\n      tag_104\n      jumpi\n      tag_105\n      tag_93\n      jump\t// in\n    tag_105:\n    tag_104:\n      sub\n        /* \"contracts/core/MPensionVault.sol\":5156:5208  require(status != MPStatus.CLOSED, \"pension closed\") */\n      tag_106\n      jumpi\n      mload(0x40)\n      0x08c379a000000000000000000000000000000000000000000000000000000000\n      dup2\n      mstore\n      0x04\n      add\n      tag_107\n      swap1\n      tag_108\n      jump\t// in\n    tag_107:\n      mload(0x40)\n      dup1\n      swap2\n      sub\n      swap1\n      revert\n    tag_106:\n        /* \"contracts/core/MPensionVault.sol\":5229:5241  isInTreasury */\n      0x07\n      0x00\n      swap1\n      sload\n      swap1\n      0x0100\n      exp\n      swap1\n      div\n      0xff\n      and\n        /* \"contracts/core/MPensionVault.sol\":5228:5241  !isInTreasury */\n      iszero\n        /* \"contracts/core/MPensionVault.sol\":5220:5265  require(!isInTreasury, \"pension in treasury\") */\n      tag_109\n      jumpi\n      mload(0x40)\n      0x08c379a000000000000000000000000000000000000000000000000000000000\n      dup2\n      mstore\n      0x04\n      add\n      tag_110\n      swap1\n      tag_111\n      jump\t// in\n    tag_110:\n      mload(0x40)\n      dup1\n      swap2\n      sub\n      swap1\n      revert\n    tag_109:\n        /* \"contracts/core/MPensionVault.sol\":5285:5289  true */\n      0x01\n        /* \"contracts/core/MPensionVault.sol\":5276:5282  locked */\n      0x00\n      0x00\n        /* \"contracts/core/MPensionVault.sol\":5276:5289  locked = true */\n      0x0100\n      exp\n      dup2\n      sload\n      dup2\n      0xff\n      mul\n      not\n      and\n      swap1\n      dup4\n      iszero\n      iszero\n      mul\n      or\n      swap1\n      sstore\n      pop\n        /* \"contracts/core/MPensionVault.sol\":5310:5325  MPStatus.CLOSED */\n      0x02\n        /* \"contracts/core/MPensionVault.sol\":5301:5307  status */\n      0x00\n      0x01\n        /* \"contracts/core/MPensionVault.sol\":5301:5325  status = MPStatus.CLOSED */\n      0x0100\n      exp\n      dup2\n      sload\n      dup2\n      0xff\n      mul\n      not\n      and\n      swap1\n      dup4\n      0x03\n      dup2\n      gt\n      iszero\n      tag_112\n      jumpi\n      tag_113\n      tag_93\n      jump\t// in\n    tag_113:\n    tag_112:\n      mul\n      or\n      swap1\n      sstore\n      pop\n        /* \"contracts/core/MPensionVault.sol\":5337:5356  uint256 settlement_ */\n      0x00\n        /* \"contracts/core/MPensionVault.sol\":5359:5360  0 */\n      0x00\n        /* \"contracts/core/MPensionVault.sol\":5337:5360  uint256 settlement_ = 0 */\n      swap1\n      pop\n        /* \"contracts/core/MPensionVault.sol\":1009:1051  0xEeeeeEeeeEeEeeEeEeEeeEEEeeeeEeeeeeeeEEeE */\n      0xeeeeeeeeeeeeeeeeeeeeeeeeeeeeeeeeeeeeeeee\n        /* \"contracts/core/MPensionVault.sol\":5374:5406  pension_.product.erc20 == NATIVE */\n      0xffffffffffffffffffffffffffffffffffffffff\n      and\n        /* \"contracts/core/MPensionVault.sol\":5374:5382  pension_ */\n      dup3\n        /* \"contracts/core/MPensionVault.sol\":5374:5390  pension_.product */\n      0xe0\n      add\n      mload\n        /* \"contracts/core/MPensionVault.sol\":5374:5396  pension_.product.erc20 */\n      0x40\n      add\n      mload\n        /* \"contracts/core/MPensionVault.sol\":5374:5406  pension_.product.erc20 == NATIVE */\n      0xffffffffffffffffffffffffffffffffffffffff\n      and\n      sub\n        /* \"contracts/core/MPensionVault.sol\":5371:5721  if(pension_.product.erc20 == NATIVE) {... */\n      tag_114\n      jumpi\n        /* \"contracts/core/MPensionVault.sol\":5437:5441  self */\n      immutable(\"0x05dee4192aaad4acb149f9615e8a72a761fc8cdb1d8b4e9c00fe66665f5a8184\")\n        /* \"contracts/core/MPensionVault.sol\":5437:5449  self.balance */\n      0xffffffffffffffffffffffffffffffffffffffff\n      and\n      balance\n        /* \"contracts/core/MPensionVault.sol\":5423:5449  settlement_ = self.balance */\n      swap1\n      pop\n        /* \"contracts/core/MPensionVault.sol\":5473:5481  pension_ */\n      dup2\n        /* \"contracts/core/MPensionVault.sol\":5473:5487  pension_.owner */\n      0x40\n      add\n      mload\n        /* \"contracts/core/MPensionVault.sol\":5465:5497  payable(pension_.owner).transfer */\n      0xffffffffffffffffffffffffffffffffffffffff\n      and\n        /* \"contracts/core/MPensionVault.sol\":5465:5510  payable(pension_.owner).transfer(settlement_) */\n      0x08fc\n        /* \"contracts/core/MPensionVault.sol\":5498:5509  settlement_ */\n      dup3\n        /* \"contracts/core/MPensionVault.sol\":5465:5510  payable(pension_.owner).transfer(settlement_) */\n      swap1\n      dup2\n      iszero\n      mul\n      swap1\n      mload(0x40)\n      0x00\n      mload(0x40)\n      dup1\n      dup4\n      sub\n      dup2\n      dup6\n      dup9\n      dup9\n      call\n      swap4\n      pop\n      pop\n      pop\n      pop\n      iszero\n      dup1\n      iszero\n      tag_116\n      jumpi\n      returndatacopy(0x00, 0x00, returndatasize)\n      revert(0x00, returndatasize)\n    tag_116:\n      pop\n        /* \"contracts/core/MPensionVault.sol\":5371:5721  if(pension_.product.erc20 == NATIVE) {... */\n      jump(tag_117)\n    tag_114:\n        /* \"contracts/core/MPensionVault.sol\":5552:5565  IERC20 erc20_ */\n      0x00\n        /* \"contracts/core/MPensionVault.sol\":5575:5583  pension_ */\n      dup3\n        /* \"contracts/core/MPensionVault.sol\":5575:5591  pension_.product */\n      0xe0\n      add\n      mload\n        /* \"contracts/core/MPensionVault.sol\":5575:5597  pension_.product.erc20 */\n      0x40\n      add\n      mload\n        /* \"contracts/core/MPensionVault.sol\":5552:5598  IERC20 erc20_ = IERC20(pension_.product.erc20) */\n      swap1\n      pop\n        /* \"contracts/core/MPensionVault.sol\":5627:5633  erc20_ */\n      dup1\n        /* \"contracts/core/MPensionVault.sol\":5627:5643  erc20_.balanceOf */\n      0xffffffffffffffffffffffffffffffffffffffff\n      and\n      0x70a08231\n        /* \"contracts/core/MPensionVault.sol\":5644:5648  self */\n      immutable(\"0x05dee4192aaad4acb149f9615e8a72a761fc8cdb1d8b4e9c00fe66665f5a8184\")\n        /* \"contracts/core/MPensionVault.sol\":5627:5649  erc20_.balanceOf(self) */\n      mload(0x40)\n      dup3\n      0xffffffff\n      and\n      0xe0\n      shl\n      dup2\n      mstore\n      0x04\n      add\n      tag_118\n      swap2\n      swap1\n      tag_119\n      jump\t// in\n    tag_118:\n      0x20\n      mload(0x40)\n      dup1\n      dup4\n      sub\n      dup2\n      dup7\n      gas\n      staticcall\n      iszero\n      dup1\n      iszero\n      tag_121\n      jumpi\n      returndatacopy(0x00, 0x00, returndatasize)\n      revert(0x00, returndatasize)\n    tag_121:\n      pop\n      pop\n      pop\n      pop\n      mload(0x40)\n      returndatasize\n      not(0x1f)\n      0x1f\n      dup3\n      add\n      and\n      dup3\n      add\n      dup1\n      0x40\n      mstore\n      pop\n      dup2\n      add\n      swap1\n      tag_122\n      swap2\n      swap1\n      tag_123\n      jump\t// in\n    tag_122:\n        /* \"contracts/core/MPensionVault.sol\":5613:5649  settlement_ = erc20_.balanceOf(self) */\n      swap2\n      pop\n        /* \"contracts/core/MPensionVault.sol\":5665:5671  erc20_ */\n      dup1\n        /* \"contracts/core/MPensionVault.sol\":5665:5680  erc20_.transfer */\n      0xffffffffffffffffffffffffffffffffffffffff\n      and\n      0xa9059cbb\n        /* \"contracts/core/MPensionVault.sol\":5681:5689  pension_ */\n      dup5\n        /* \"contracts/core/MPensionVault.sol\":5681:5695  pension_.owner */\n      0x40\n      add\n      mload\n        /* \"contracts/core/MPensionVault.sol\":5697:5708  settlement_ */\n      dup5\n        /* \"contracts/core/MPensionVault.sol\":5665:5709  erc20_.transfer(pension_.owner, settlement_) */\n      mload(0x40)\n      dup4\n      0xffffffff\n      and\n      0xe0\n      shl\n      dup2\n      mstore\n      0x04\n      add\n      tag_124\n      swap3\n      swap2\n      swap1\n      tag_125\n      jump\t// in\n    tag_124:\n      0x20\n      mload(0x40)\n      dup1\n      dup4\n      sub\n      dup2\n      0x00\n      dup8\n      gas\n      call\n      iszero\n      dup1\n      iszero\n      tag_127\n      jumpi\n      returndatacopy(0x00, 0x00, returndatasize)\n      revert(0x00, returndatasize)\n    tag_127:\n      pop\n      pop\n      pop\n      pop\n      mload(0x40)\n      returndatasize\n      not(0x1f)\n      0x1f\n      dup3\n      add\n      and\n      dup3\n      add\n      dup1\n      0x40\n      mstore\n      pop\n      dup2\n      add\n      swap1\n      tag_128\n      swap2\n      swap1\n      tag_129\n      jump\t// in\n    tag_128:\n      pop\n        /* \"contracts/core/MPensionVault.sol\":5537:5721  {... */\n      pop\n        /* \"contracts/core/MPensionVault.sol\":5371:5721  if(pension_.product.erc20 == NATIVE) {... */\n    tag_117:\n        /* \"contracts/core/MPensionVault.sol\":5749:5816  addTx(TxType.CLOSE, pensionId, settlement_, pension_.product.erc20) */\n      tag_130\n        /* \"contracts/core/MPensionVault.sol\":5755:5767  TxType.CLOSE */\n      0x07\n        /* \"contracts/core/MPensionVault.sol\":5769:5778  pensionId */\n      immutable(\"0x0697183ae8eedd43b56f90cfa450ea6e3ac27fb69f1056ee33ccc5a9587bcd2a\")\n        /* \"contracts/core/MPensionVault.sol\":5780:5791  settlement_ */\n      dup4\n        /* \"contracts/core/MPensionVault.sol\":5793:5801  pension_ */\n      dup6\n        /* \"contracts/core/MPensionVault.sol\":5793:5809  pension_.product */\n      0xe0\n      add\n      mload\n        /* \"contracts/core/MPensionVault.sol\":5793:5815  pension_.product.erc20 */\n      0x40\n      add\n      mload\n        /* \"contracts/core/MPensionVault.sol\":5749:5754  addTx */\n      tag_131\n        /* \"contracts/core/MPensionVault.sol\":5749:5816  addTx(TxType.CLOSE, pensionId, settlement_, pension_.product.erc20) */\n      jump\t// in\n    tag_130:\n        /* \"contracts/core/MPensionVault.sol\":5741:5816  _txId = addTx(TxType.CLOSE, pensionId, settlement_, pension_.product.erc20) */\n      swap3\n      pop\n        /* \"contracts/core/MPensionVault.sol\":5827:5839  return _txId */\n      pop\n      pop\n        /* \"contracts/core/MPensionVault.sol\":5017:5849  function close() external adminOnly semaphore returns (uint256 _txId){... */\n      swap1\n      jump\t// out\n        /* \"contracts/core/MPensionVault.sol\":6435:7466  function pull(uint256 _treasuryId) external semaphore returns (uint256 _principal, uint256 _txId){... */\n    tag_37:\n        /* \"contracts/core/MPensionVault.sol\":6498:6516  uint256 _principal */\n      0x00\n        /* \"contracts/core/MPensionVault.sol\":6518:6531  uint256 _txId */\n      0x00\n        /* \"contracts/core/MPensionVault.sol\":512:518  locked */\n      0x00\n      0x00\n      swap1\n      sload\n      swap1\n      0x0100\n      exp\n      swap1\n      div\n      0xff\n      and\n        /* \"contracts/core/MPensionVault.sol\":511:518  !locked */\n      iszero\n        /* \"contracts/core/MPensionVault.sol\":503:535  require(!locked, \"vault locked\") */\n      tag_133\n      jumpi\n      mload(0x40)\n      0x08c379a000000000000000000000000000000000000000000000000000000000\n      dup2\n      mstore\n      0x04\n      add\n      tag_134\n      swap1\n      tag_90\n      jump\t// in\n    tag_134:\n      mload(0x40)\n      dup1\n      swap2\n      sub\n      swap1\n      revert\n    tag_133:\n        /* \"contracts/core/MPensionVault.sol\":564:579  MPStatus.CLOSED */\n      0x02\n        /* \"contracts/core/MPensionVault.sol\":554:579  status != MPStatus.CLOSED */\n      0x03\n      dup2\n      gt\n      iszero\n      tag_135\n      jumpi\n      tag_136\n      tag_93\n      jump\t// in\n    tag_136:\n    tag_135:\n        /* \"contracts/core/MPensionVault.sol\":554:560  status */\n      0x00\n      0x01\n      swap1\n      sload\n      swap1\n      0x0100\n      exp\n      swap1\n      div\n      0xff\n      and\n        /* \"contracts/core/MPensionVault.sol\":554:579  status != MPStatus.CLOSED */\n      0x03\n      dup2\n      gt\n      iszero\n      tag_137\n      jumpi\n      tag_138\n      tag_93\n      jump\t// in\n    tag_138:\n    tag_137:\n      sub\n        /* \"contracts/core/MPensionVault.sol\":546:596  require(status != MPStatus.CLOSED, \"vault closed\") */\n      tag_139\n      jumpi\n      mload(0x40)\n      0x08c379a000000000000000000000000000000000000000000000000000000000\n      dup2\n      mstore\n      0x04\n      add\n      tag_140\n      swap1\n      tag_98\n      jump\t// in\n    tag_140:\n      mload(0x40)\n      dup1\n      swap2\n      sub\n      swap1\n      revert\n    tag_139:\n        /* \"contracts/core/MPensionVault.sol\":6543:6567  MPension memory pension_ */\n      0x00\n        /* \"contracts/core/MPensionVault.sol\":6570:6590  getPensionInternal() */\n      tag_142\n        /* \"contracts/core/MPensionVault.sol\":6570:6588  getPensionInternal */\n      tag_101\n        /* \"contracts/core/MPensionVault.sol\":6570:6590  getPensionInternal() */\n      jump\t// in\n    tag_142:\n        /* \"contracts/core/MPensionVault.sol\":6543:6590  MPension memory pension_ = getPensionInternal() */\n      swap1\n      pop\n        /* \"contracts/core/MPensionVault.sol\":6624:6632  pension_ */\n      dup1\n        /* \"contracts/core/MPensionVault.sol\":6624:6641  pension_.treasury */\n      0x60\n      add\n      mload\n        /* \"contracts/core/MPensionVault.sol\":6610:6641  msg.sender == pension_.treasury */\n      0xffffffffffffffffffffffffffffffffffffffff\n      and\n        /* \"contracts/core/MPensionVault.sol\":6610:6620  msg.sender */\n      caller\n        /* \"contracts/core/MPensionVault.sol\":6610:6641  msg.sender == pension_.treasury */\n      0xffffffffffffffffffffffffffffffffffffffff\n      and\n      eq\n        /* \"contracts/core/MPensionVault.sol\":6602:6659  require(msg.sender == pension_.treasury, \"treasury only\") */\n      tag_143\n      jumpi\n      mload(0x40)\n      0x08c379a000000000000000000000000000000000000000000000000000000000\n      dup2\n      mstore\n      0x04\n      add\n      tag_144\n      swap1\n      tag_145\n      jump\t// in\n    tag_144:\n      mload(0x40)\n      dup1\n      swap2\n      sub\n      swap1\n      revert\n    tag_143:\n        /* \"contracts/core/MPensionVault.sol\":6689:6702  MPStatus.OPEN */\n      0x00\n        /* \"contracts/core/MPensionVault.sol\":6679:6702  status == MPStatus.OPEN */\n      0x03\n      dup2\n      gt\n      iszero\n      tag_146\n      jumpi\n      tag_147\n      tag_93\n      jump\t// in\n    tag_147:\n    tag_146:\n        /* \"contracts/core/MPensionVault.sol\":6679:6685  status */\n      0x00\n      0x01\n      swap1\n      sload\n      swap1\n      0x0100\n      exp\n      swap1\n      div\n      0xff\n      and\n        /* \"contracts/core/MPensionVault.sol\":6679:6702  status == MPStatus.OPEN */\n      0x03\n      dup2\n      gt\n      iszero\n      tag_148\n      jumpi\n      tag_149\n      tag_93\n      jump\t// in\n    tag_149:\n    tag_148:\n      eq\n        /* \"contracts/core/MPensionVault.sol\":6671:6734  require(status == MPStatus.OPEN, \"invalid pension pull state\" ) */\n      tag_150\n      jumpi\n      mload(0x40)\n      0x08c379a000000000000000000000000000000000000000000000000000000000\n      dup2\n      mstore\n      0x04\n      add\n      tag_151\n      swap1\n      tag_152\n      jump\t// in\n    tag_151:\n      mload(0x40)\n      dup1\n      swap2\n      sub\n      swap1\n      revert\n    tag_150:\n        /* \"contracts/core/MPensionVault.sol\":6754:6758  true */\n      0x01\n        /* \"contracts/core/MPensionVault.sol\":6745:6751  locked */\n      0x00\n      0x00\n        /* \"contracts/core/MPensionVault.sol\":6745:6758  locked = true */\n      0x0100\n      exp\n      dup2\n      sload\n      dup2\n      0xff\n      mul\n      not\n      and\n      swap1\n      dup4\n      iszero\n      iszero\n      mul\n      or\n      swap1\n      sstore\n      pop\n        /* \"contracts/core/MPensionVault.sol\":6779:6791  isInTreasury */\n      0x07\n      0x00\n      swap1\n      sload\n      swap1\n      0x0100\n      exp\n      swap1\n      div\n      0xff\n      and\n        /* \"contracts/core/MPensionVault.sol\":6778:6791  !isInTreasury */\n      iszero\n        /* \"contracts/core/MPensionVault.sol\":6770:6815  require(!isInTreasury,\"vault already pulled\") */\n      tag_153\n      jumpi\n      mload(0x40)\n      0x08c379a000000000000000000000000000000000000000000000000000000000\n      dup2\n      mstore\n      0x04\n      add\n      tag_154\n      swap1\n      tag_155\n      jump\t// in\n    tag_154:\n      mload(0x40)\n      dup1\n      swap2\n      sub\n      swap1\n      revert\n    tag_153:\n        /* \"contracts/core/MPensionVault.sol\":6842:6846  true */\n      0x01\n        /* \"contracts/core/MPensionVault.sol\":6827:6839  isInTreasury */\n      0x07\n      0x00\n        /* \"contracts/core/MPensionVault.sol\":6827:6846  isInTreasury = true */\n      0x0100\n      exp\n      dup2\n      sload\n      dup2\n      0xff\n      mul\n      not\n      and\n      swap1\n      dup4\n      iszero\n      iszero\n      mul\n      or\n      swap1\n      sstore\n      pop\n        /* \"contracts/core/MPensionVault.sol\":6871:6885  pensionBalance */\n      sload(0x02)\n        /* \"contracts/core/MPensionVault.sol\":6858:6885  _principal = pensionBalance */\n      swap3\n      pop\n        /* \"contracts/core/MPensionVault.sol\":6914:6924  _principal */\n      dup3\n        /* \"contracts/core/MPensionVault.sol\":6896:6911  issuedPrincipal */\n      0x06\n        /* \"contracts/core/MPensionVault.sol\":6896:6924  issuedPrincipal = _principal */\n      dup2\n      swap1\n      sstore\n      pop\n        /* \"contracts/core/MPensionVault.sol\":6939:6960  address erc20Address_ */\n      0x00\n        /* \"contracts/core/MPensionVault.sol\":6963:6971  pension_ */\n      dup2\n        /* \"contracts/core/MPensionVault.sol\":6963:6979  pension_.product */\n      0xe0\n      add\n      mload\n        /* \"contracts/core/MPensionVault.sol\":6963:6985  pension_.product.erc20 */\n      0x40\n      add\n      mload\n        /* \"contracts/core/MPensionVault.sol\":6939:6985  address erc20Address_ = pension_.product.erc20 */\n      swap1\n      pop\n        /* \"contracts/core/MPensionVault.sol\":1009:1051  0xEeeeeEeeeEeEeeEeEeEeeEEEeeeeEeeeeeeeEEeE */\n      0xeeeeeeeeeeeeeeeeeeeeeeeeeeeeeeeeeeeeeeee\n        /* \"contracts/core/MPensionVault.sol\":7000:7023  erc20Address_ == NATIVE */\n      0xffffffffffffffffffffffffffffffffffffffff\n      and\n        /* \"contracts/core/MPensionVault.sol\":7000:7013  erc20Address_ */\n      dup2\n        /* \"contracts/core/MPensionVault.sol\":7000:7023  erc20Address_ == NATIVE */\n      0xffffffffffffffffffffffffffffffffffffffff\n      and\n      sub\n        /* \"contracts/core/MPensionVault.sol\":6997:7239  if(erc20Address_ == NATIVE) {... */\n      tag_156\n      jumpi\n        /* \"contracts/core/MPensionVault.sol\":7048:7056  pension_ */\n      dup2\n        /* \"contracts/core/MPensionVault.sol\":7048:7065  pension_.treasury */\n      0x60\n      add\n      mload\n        /* \"contracts/core/MPensionVault.sol\":7040:7075  payable(pension_.treasury).transfer */\n      0xffffffffffffffffffffffffffffffffffffffff\n      and\n        /* \"contracts/core/MPensionVault.sol\":7040:7087  payable(pension_.treasury).transfer(_principal) */\n      0x08fc\n        /* \"contracts/core/MPensionVault.sol\":7076:7086  _principal */\n      dup6\n        /* \"contracts/core/MPensionVault.sol\":7040:7087  payable(pension_.treasury).transfer(_principal) */\n      swap1\n      dup2\n      iszero\n      mul\n      swap1\n      mload(0x40)\n      0x00\n      mload(0x40)\n      dup1\n      dup4\n      sub\n      dup2\n      dup6\n      dup9\n      dup9\n      call\n      swap4\n      pop\n      pop\n      pop\n      pop\n      iszero\n      dup1\n      iszero\n      tag_158\n      jumpi\n      returndatacopy(0x00, 0x00, returndatasize)\n      revert(0x00, returndatasize)\n    tag_158:\n      pop\n        /* \"contracts/core/MPensionVault.sol\":6997:7239  if(erc20Address_ == NATIVE) {... */\n      jump(tag_159)\n    tag_156:\n        /* \"contracts/core/MPensionVault.sol\":7130:7143  IERC20 erc20_ */\n      0x00\n        /* \"contracts/core/MPensionVault.sol\":7153:7166  erc20Address_ */\n      dup2\n        /* \"contracts/core/MPensionVault.sol\":7130:7167  IERC20 erc20_ = IERC20(erc20Address_) */\n      swap1\n      pop\n        /* \"contracts/core/MPensionVault.sol\":7182:7188  erc20_ */\n      dup1\n        /* \"contracts/core/MPensionVault.sol\":7182:7196  erc20_.approve */\n      0xffffffffffffffffffffffffffffffffffffffff\n      and\n      0x095ea7b3\n        /* \"contracts/core/MPensionVault.sol\":7197:7205  pension_ */\n      dup5\n        /* \"contracts/core/MPensionVault.sol\":7197:7214  pension_.treasury */\n      0x60\n      add\n      mload\n        /* \"contracts/core/MPensionVault.sol\":7216:7226  _principal */\n      dup8\n        /* \"contracts/core/MPensionVault.sol\":7182:7227  erc20_.approve(pension_.treasury, _principal) */\n      mload(0x40)\n      dup4\n      0xffffffff\n      and\n      0xe0\n      shl\n      dup2\n      mstore\n      0x04\n      add\n      tag_160\n      swap3\n      swap2\n      swap1\n      tag_125\n      jump\t// in\n    tag_160:\n      0x20\n      mload(0x40)\n      dup1\n      dup4\n      sub\n      dup2\n      0x00\n      dup8\n      gas\n      call\n      iszero\n      dup1\n      iszero\n      tag_162\n      jumpi\n      returndatacopy(0x00, 0x00, returndatasize)\n      revert(0x00, returndatasize)\n    tag_162:\n      pop\n      pop\n      pop\n      pop\n      mload(0x40)\n      returndatasize\n      not(0x1f)\n      0x1f\n      dup3\n      add\n      and\n      dup3\n      add\n      dup1\n      0x40\n      mstore\n      pop\n      dup2\n      add\n      swap1\n      tag_163\n      swap2\n      swap1\n      tag_129\n      jump\t// in\n    tag_163:\n      pop\n        /* \"contracts/core/MPensionVault.sol\":7114:7239  { ... */\n      pop\n        /* \"contracts/core/MPensionVault.sol\":6997:7239  if(erc20Address_ == NATIVE) {... */\n    tag_159:\n        /* \"contracts/core/MPensionVault.sol\":7259:7324  addTx(TxType.PULL, pensionId, _principal, pension_.product.erc20) */\n      tag_164\n        /* \"contracts/core/MPensionVault.sol\":7265:7276  TxType.PULL */\n      0x03\n        /* \"contracts/core/MPensionVault.sol\":7278:7287  pensionId */\n      immutable(\"0x0697183ae8eedd43b56f90cfa450ea6e3ac27fb69f1056ee33ccc5a9587bcd2a\")\n        /* \"contracts/core/MPensionVault.sol\":7289:7299  _principal */\n      dup7\n        /* \"contracts/core/MPensionVault.sol\":7301:7309  pension_ */\n      dup6\n        /* \"contracts/core/MPensionVault.sol\":7301:7317  pension_.product */\n      0xe0\n      add\n      mload\n        /* \"contracts/core/MPensionVault.sol\":7301:7323  pension_.product.erc20 */\n      0x40\n      add\n      mload\n        /* \"contracts/core/MPensionVault.sol\":7259:7264  addTx */\n      tag_131\n        /* \"contracts/core/MPensionVault.sol\":7259:7324  addTx(TxType.PULL, pensionId, _principal, pension_.product.erc20) */\n      jump\t// in\n    tag_164:\n        /* \"contracts/core/MPensionVault.sol\":7251:7324  _txId = addTx(TxType.PULL, pensionId, _principal, pension_.product.erc20) */\n      swap3\n      pop\n        /* \"contracts/core/MPensionVault.sol\":7335:7352  txIdsByTreasuryId */\n      0x08\n        /* \"contracts/core/MPensionVault.sol\":7335:7365  txIdsByTreasuryId[_treasuryId] */\n      0x00\n        /* \"contracts/core/MPensionVault.sol\":7353:7364  _treasuryId */\n      dup7\n        /* \"contracts/core/MPensionVault.sol\":7335:7365  txIdsByTreasuryId[_treasuryId] */\n      dup2\n      mstore\n      0x20\n      add\n      swap1\n      dup2\n      mstore\n      0x20\n      add\n      0x00\n      keccak256\n        /* \"contracts/core/MPensionVault.sol\":7371:7376  _txId */\n      dup4\n        /* \"contracts/core/MPensionVault.sol\":7335:7377  txIdsByTreasuryId[_treasuryId].push(_txId) */\n      swap1\n      dup1\n      0x01\n      dup2\n      sload\n      add\n      dup1\n      dup3\n      sstore\n      dup1\n      swap2\n      pop\n      pop\n      0x01\n      swap1\n      sub\n      swap1\n      0x00\n      mstore\n      keccak256(0x00, 0x20)\n      add\n      0x00\n      swap1\n      swap2\n      swap1\n      swap2\n      swap1\n      swap2\n      pop\n      sstore\n        /* \"contracts/core/MPensionVault.sol\":7397:7402  false */\n      0x00\n        /* \"contracts/core/MPensionVault.sol\":7388:7394  locked */\n      0x00\n      0x00\n        /* \"contracts/core/MPensionVault.sol\":7388:7402  locked = false */\n      0x0100\n      exp\n      dup2\n      sload\n      dup2\n      0xff\n      mul\n      not\n      and\n      swap1\n      dup4\n      iszero\n      iszero\n      mul\n      or\n      swap1\n      sstore\n      pop\n        /* \"contracts/core/MPensionVault.sol\":7432:7458  return (_principal, _txId) */\n      pop\n      pop\n        /* \"contracts/core/MPensionVault.sol\":6435:7466  function pull(uint256 _treasuryId) external semaphore returns (uint256 _principal, uint256 _txId){... */\n      swap2\n      pop\n      swap2\n      jump\t// out\n        /* \"contracts/core/MPensionVault.sol\":2187:2282  function getStatus() view external returns (MPStatus _status) {... */\n    tag_42:\n        /* \"contracts/core/MPensionVault.sol\":2231:2247  MPStatus _status */\n      0x00\n        /* \"contracts/core/MPensionVault.sol\":2267:2273  status */\n      0x00\n      0x01\n      swap1\n      sload\n      swap1\n      0x0100\n      exp\n      swap1\n      div\n      0xff\n      and\n        /* \"contracts/core/MPensionVault.sol\":2260:2273  return status */\n      swap1\n      pop\n        /* \"contracts/core/MPensionVault.sol\":2187:2282  function getStatus() view external returns (MPStatus _status) {... */\n      swap1\n      jump\t// out\n        /* \"contracts/core/MPensionVault.sol\":5857:6396  function withdraw(address _erc20) adminOnly external returns (uint256 _amount) {... */\n    tag_49:\n        /* \"contracts/core/MPensionVault.sol\":5919:5934  uint256 _amount */\n      0x00\n        /* \"contracts/core/MPensionVault.sol\":802:810  register */\n      0x00\n      0x03\n      swap1\n      sload\n      swap1\n      0x0100\n      exp\n      swap1\n      div\n      0xffffffffffffffffffffffffffffffffffffffff\n      and\n        /* \"contracts/core/MPensionVault.sol\":802:821  register.getAddress */\n      0xffffffffffffffffffffffffffffffffffffffff\n      and\n      0xbf40fac1\n        /* \"contracts/core/MPensionVault.sol\":822:838  PENSION_ADMIN_CA */\n      mload(0x40)\n      dup1\n      0x40\n      add\n      0x40\n      mstore\n      dup1\n      0x11\n      dup2\n      mstore\n      0x20\n      add\n      0x52455345525645445f4d505f41444d494e000000000000000000000000000000\n      dup2\n      mstore\n      pop\n        /* \"contracts/core/MPensionVault.sol\":802:839  register.getAddress(PENSION_ADMIN_CA) */\n      mload(0x40)\n      dup3\n      0xffffffff\n      and\n      0xe0\n      shl\n      dup2\n      mstore\n      0x04\n      add\n      tag_168\n      swap2\n      swap1\n      tag_28\n      jump\t// in\n    tag_168:\n      0x20\n      mload(0x40)\n      dup1\n      dup4\n      sub\n      dup2\n      dup7\n      gas\n      staticcall\n      iszero\n      dup1\n      iszero\n      tag_170\n      jumpi\n      returndatacopy(0x00, 0x00, returndatasize)\n      revert(0x00, returndatasize)\n    tag_170:\n      pop\n      pop\n      pop\n      pop\n      mload(0x40)\n      returndatasize\n      not(0x1f)\n      0x1f\n      dup3\n      add\n      and\n      dup3\n      add\n      dup1\n      0x40\n      mstore\n      pop\n      dup2\n      add\n      swap1\n      tag_171\n      swap2\n      swap1\n      tag_83\n      jump\t// in\n    tag_171:\n        /* \"contracts/core/MPensionVault.sol\":788:839  msg.sender == register.getAddress(PENSION_ADMIN_CA) */\n      0xffffffffffffffffffffffffffffffffffffffff\n      and\n        /* \"contracts/core/MPensionVault.sol\":788:798  msg.sender */\n      caller\n        /* \"contracts/core/MPensionVault.sol\":788:839  msg.sender == register.getAddress(PENSION_ADMIN_CA) */\n      0xffffffffffffffffffffffffffffffffffffffff\n      and\n      eq\n        /* \"contracts/core/MPensionVault.sol\":780:862  require(msg.sender == register.getAddress(PENSION_ADMIN_CA), \"Pension Admin Only\") */\n      tag_172\n      jumpi\n      mload(0x40)\n      0x08c379a000000000000000000000000000000000000000000000000000000000\n      dup2\n      mstore\n      0x04\n      add\n      tag_173\n      swap1\n      tag_86\n      jump\t// in\n    tag_173:\n      mload(0x40)\n      dup1\n      swap2\n      sub\n      swap1\n      revert\n    tag_172:\n        /* \"contracts/core/MPensionVault.sol\":5965:5980  MPStatus.CLOSED */\n      0x02\n        /* \"contracts/core/MPensionVault.sol\":5955:5980  status == MPStatus.CLOSED */\n      0x03\n      dup2\n      gt\n      iszero\n      tag_175\n      jumpi\n      tag_176\n      tag_93\n      jump\t// in\n    tag_176:\n    tag_175:\n        /* \"contracts/core/MPensionVault.sol\":5955:5961  status */\n      0x00\n      0x01\n      swap1\n      sload\n      swap1\n      0x0100\n      exp\n      swap1\n      div\n      0xff\n      and\n        /* \"contracts/core/MPensionVault.sol\":5955:5980  status == MPStatus.CLOSED */\n      0x03\n      dup2\n      gt\n      iszero\n      tag_177\n      jumpi\n      tag_178\n      tag_93\n      jump\t// in\n    tag_178:\n    tag_177:\n      eq\n        /* \"contracts/core/MPensionVault.sol\":5947:6003  require(status == MPStatus.CLOSED, \"pension not closed\") */\n      tag_179\n      jumpi\n      mload(0x40)\n      0x08c379a000000000000000000000000000000000000000000000000000000000\n      dup2\n      mstore\n      0x04\n      add\n      tag_180\n      swap1\n      tag_181\n      jump\t// in\n    tag_180:\n      mload(0x40)\n      dup1\n      swap2\n      sub\n      swap1\n      revert\n    tag_179:\n        /* \"contracts/core/MPensionVault.sol\":6014:6027  address bank_ */\n      0x00\n        /* \"contracts/core/MPensionVault.sol\":6030:6038  register */\n      0x00\n      0x03\n      swap1\n      sload\n      swap1\n      0x0100\n      exp\n      swap1\n      div\n      0xffffffffffffffffffffffffffffffffffffffff\n      and\n        /* \"contracts/core/MPensionVault.sol\":6030:6049  register.getAddress */\n      0xffffffffffffffffffffffffffffffffffffffff\n      and\n      0xbf40fac1\n        /* \"contracts/core/MPensionVault.sol\":6050:6065  BANK_ADDRESS_CA */\n      mload(0x40)\n      dup1\n      0x40\n      add\n      0x40\n      mstore\n      dup1\n      0x15\n      dup2\n      mstore\n      0x20\n      add\n      0x52455345525645445f42414e4b5f414444524553530000000000000000000000\n      dup2\n      mstore\n      pop\n        /* \"contracts/core/MPensionVault.sol\":6030:6066  register.getAddress(BANK_ADDRESS_CA) */\n      mload(0x40)\n      dup3\n      0xffffffff\n      and\n      0xe0\n      shl\n      dup2\n      mstore\n      0x04\n      add\n      tag_182\n      swap2\n      swap1\n      tag_28\n      jump\t// in\n    tag_182:\n      0x20\n      mload(0x40)\n      dup1\n      dup4\n      sub\n      dup2\n      dup7\n      gas\n      staticcall\n      iszero\n      dup1\n      iszero\n      tag_184\n      jumpi\n      returndatacopy(0x00, 0x00, returndatasize)\n      revert(0x00, returndatasize)\n    tag_184:\n      pop\n      pop\n      pop\n      pop\n      mload(0x40)\n      returndatasize\n      not(0x1f)\n      0x1f\n      dup3\n      add\n      and\n      dup3\n      add\n      dup1\n      0x40\n      mstore\n      pop\n      dup2\n      add\n      swap1\n      tag_185\n      swap2\n      swap1\n      tag_83\n      jump\t// in\n    tag_185:\n        /* \"contracts/core/MPensionVault.sol\":6014:6066  address bank_ = register.getAddress(BANK_ADDRESS_CA) */\n      swap1\n      pop\n        /* \"contracts/core/MPensionVault.sol\":1009:1051  0xEeeeeEeeeEeEeeEeEeEeeEEEeeeeEeeeeeeeEEeE */\n      0xeeeeeeeeeeeeeeeeeeeeeeeeeeeeeeeeeeeeeeee\n        /* \"contracts/core/MPensionVault.sol\":6081:6097  _erc20 == NATIVE */\n      0xffffffffffffffffffffffffffffffffffffffff\n      and\n        /* \"contracts/core/MPensionVault.sol\":6081:6087  _erc20 */\n      dup4\n        /* \"contracts/core/MPensionVault.sol\":6081:6097  _erc20 == NATIVE */\n      0xffffffffffffffffffffffffffffffffffffffff\n      and\n      sub\n        /* \"contracts/core/MPensionVault.sol\":6078:6363  if(_erc20 == NATIVE) {... */\n      tag_186\n      jumpi\n        /* \"contracts/core/MPensionVault.sol\":6124:6128  self */\n      immutable(\"0x05dee4192aaad4acb149f9615e8a72a761fc8cdb1d8b4e9c00fe66665f5a8184\")\n        /* \"contracts/core/MPensionVault.sol\":6124:6136  self.balance */\n      0xffffffffffffffffffffffffffffffffffffffff\n      and\n      balance\n        /* \"contracts/core/MPensionVault.sol\":6114:6136  _amount = self.balance */\n      swap2\n      pop\n        /* \"contracts/core/MPensionVault.sol\":6160:6165  bank_ */\n      dup1\n        /* \"contracts/core/MPensionVault.sol\":6152:6175  payable(bank_).transfer */\n      0xffffffffffffffffffffffffffffffffffffffff\n      and\n        /* \"contracts/core/MPensionVault.sol\":6152:6184  payable(bank_).transfer(_amount) */\n      0x08fc\n        /* \"contracts/core/MPensionVault.sol\":6176:6183  _amount */\n      dup4\n        /* \"contracts/core/MPensionVault.sol\":6152:6184  payable(bank_).transfer(_amount) */\n      swap1\n      dup2\n      iszero\n      mul\n      swap1\n      mload(0x40)\n      0x00\n      mload(0x40)\n      dup1\n      dup4\n      sub\n      dup2\n      dup6\n      dup9\n      dup9\n      call\n      swap4\n      pop\n      pop\n      pop\n      pop\n      iszero\n      dup1\n      iszero\n      tag_188\n      jumpi\n      returndatacopy(0x00, 0x00, returndatasize)\n      revert(0x00, returndatasize)\n    tag_188:\n      pop\n        /* \"contracts/core/MPensionVault.sol\":6078:6363  if(_erc20 == NATIVE) {... */\n      jump(tag_189)\n    tag_186:\n        /* \"contracts/core/MPensionVault.sol\":6227:6240  IERC20 erc20_ */\n      0x00\n        /* \"contracts/core/MPensionVault.sol\":6250:6256  _erc20 */\n      dup4\n        /* \"contracts/core/MPensionVault.sol\":6227:6257  IERC20 erc20_ = IERC20(_erc20) */\n      swap1\n      pop\n        /* \"contracts/core/MPensionVault.sol\":6282:6288  erc20_ */\n      dup1\n        /* \"contracts/core/MPensionVault.sol\":6282:6298  erc20_.balanceOf */\n      0xffffffffffffffffffffffffffffffffffffffff\n      and\n      0x70a08231\n        /* \"contracts/core/MPensionVault.sol\":6299:6303  self */\n      immutable(\"0x05dee4192aaad4acb149f9615e8a72a761fc8cdb1d8b4e9c00fe66665f5a8184\")\n        /* \"contracts/core/MPensionVault.sol\":6282:6304  erc20_.balanceOf(self) */\n      mload(0x40)\n      dup3\n      0xffffffff\n      and\n      0xe0\n      shl\n      dup2\n      mstore\n      0x04\n      add\n      tag_190\n      swap2\n      swap1\n      tag_119\n      jump\t// in\n    tag_190:\n      0x20\n      mload(0x40)\n      dup1\n      dup4\n      sub\n      dup2\n      dup7\n      gas\n      staticcall\n      iszero\n      dup1\n      iszero\n      tag_192\n      jumpi\n      returndatacopy(0x00, 0x00, returndatasize)\n      revert(0x00, returndatasize)\n    tag_192:\n      pop\n      pop\n      pop\n      pop\n      mload(0x40)\n      returndatasize\n      not(0x1f)\n      0x1f\n      dup3\n      add\n      and\n      dup3\n      add\n      dup1\n      0x40\n      mstore\n      pop\n      dup2\n      add\n      swap1\n      tag_193\n      swap2\n      swap1\n      tag_123\n      jump\t// in\n    tag_193:\n        /* \"contracts/core/MPensionVault.sol\":6272:6304  _amount = erc20_.balanceOf(self) */\n      swap3\n      pop\n        /* \"contracts/core/MPensionVault.sol\":6319:6325  erc20_ */\n      dup1\n        /* \"contracts/core/MPensionVault.sol\":6319:6334  erc20_.transfer */\n      0xffffffffffffffffffffffffffffffffffffffff\n      and\n      0xa9059cbb\n        /* \"contracts/core/MPensionVault.sol\":6335:6340  bank_ */\n      dup4\n        /* \"contracts/core/MPensionVault.sol\":6342:6349  _amount */\n      dup6\n        /* \"contracts/core/MPensionVault.sol\":6319:6350  erc20_.transfer(bank_, _amount) */\n      mload(0x40)\n      dup4\n      0xffffffff\n      and\n      0xe0\n      shl\n      dup2\n      mstore\n      0x04\n      add\n      tag_194\n      swap3\n      swap2\n      swap1\n      tag_125\n      jump\t// in\n    tag_194:\n      0x20\n      mload(0x40)\n      dup1\n      dup4\n      sub\n      dup2\n      0x00\n      dup8\n      gas\n      call\n      iszero\n      dup1\n      iszero\n      tag_196\n      jumpi\n      returndatacopy(0x00, 0x00, returndatasize)\n      revert(0x00, returndatasize)\n    tag_196:\n      pop\n      pop\n      pop\n      pop\n      mload(0x40)\n      returndatasize\n      not(0x1f)\n      0x1f\n      dup3\n      add\n      and\n      dup3\n      add\n      dup1\n      0x40\n      mstore\n      pop\n      dup2\n      add\n      swap1\n      tag_197\n      swap2\n      swap1\n      tag_129\n      jump\t// in\n    tag_197:\n      pop\n        /* \"contracts/core/MPensionVault.sol\":6211:6363  { ... */\n      pop\n        /* \"contracts/core/MPensionVault.sol\":6078:6363  if(_erc20 == NATIVE) {... */\n    tag_189:\n        /* \"contracts/core/MPensionVault.sol\":6373:6387  return _amount */\n      pop\n        /* \"contracts/core/MPensionVault.sol\":5857:6396  function withdraw(address _erc20) adminOnly external returns (uint256 _amount) {... */\n      swap2\n      swap1\n      pop\n      jump\t// out\n        /* \"contracts/core/MPensionVault.sol\":2290:2405  function getPension() view external returns (MPension memory _mPension){... */\n    tag_53:\n        /* \"contracts/core/MPensionVault.sol\":2335:2360  MPension memory _mPension */\n      tag_198\n      tag_199\n      jump\t// in\n    tag_198:\n        /* \"contracts/core/MPensionVault.sol\":2377:2397  getPensionInternal() */\n      tag_201\n        /* \"contracts/core/MPensionVault.sol\":2377:2395  getPensionInternal */\n      tag_101\n        /* \"contracts/core/MPensionVault.sol\":2377:2397  getPensionInternal() */\n      jump\t// in\n    tag_201:\n        /* \"contracts/core/MPensionVault.sol\":2370:2397  return getPensionInternal() */\n      swap1\n      pop\n        /* \"contracts/core/MPensionVault.sol\":2290:2405  function getPension() view external returns (MPension memory _mPension){... */\n      swap1\n      jump\t// out\n        /* \"contracts/core/MPensionVault.sol\":7475:8876  function push(uint256 _treasuryId, uint256 _principal, uint256 _earnings)  payable external semaphore returns (uint256 _txId){... */\n    tag_59:\n        /* \"contracts/core/MPensionVault.sol\":7586:7599  uint256 _txId */\n      0x00\n        /* \"contracts/core/MPensionVault.sol\":512:518  locked */\n      0x00\n      0x00\n      swap1\n      sload\n      swap1\n      0x0100\n      exp\n      swap1\n      div\n      0xff\n      and\n        /* \"contracts/core/MPensionVault.sol\":511:518  !locked */\n      iszero\n        /* \"contracts/core/MPensionVault.sol\":503:535  require(!locked, \"vault locked\") */\n      tag_203\n      jumpi\n      mload(0x40)\n      0x08c379a000000000000000000000000000000000000000000000000000000000\n      dup2\n      mstore\n      0x04\n      add\n      tag_204\n      swap1\n      tag_90\n      jump\t// in\n    tag_204:\n      mload(0x40)\n      dup1\n      swap2\n      sub\n      swap1\n      revert\n    tag_203:\n        /* \"contracts/core/MPensionVault.sol\":564:579  MPStatus.CLOSED */\n      0x02\n        /* \"contracts/core/MPensionVault.sol\":554:579  status != MPStatus.CLOSED */\n      0x03\n      dup2\n      gt\n      iszero\n      tag_205\n      jumpi\n      tag_206\n      tag_93\n      jump\t// in\n    tag_206:\n    tag_205:\n        /* \"contracts/core/MPensionVault.sol\":554:560  status */\n      0x00\n      0x01\n      swap1\n      sload\n      swap1\n      0x0100\n      exp\n      swap1\n      div\n      0xff\n      and\n        /* \"contracts/core/MPensionVault.sol\":554:579  status != MPStatus.CLOSED */\n      0x03\n      dup2\n      gt\n      iszero\n      tag_207\n      jumpi\n      tag_208\n      tag_93\n      jump\t// in\n    tag_208:\n    tag_207:\n      sub\n        /* \"contracts/core/MPensionVault.sol\":546:596  require(status != MPStatus.CLOSED, \"vault closed\") */\n      tag_209\n      jumpi\n      mload(0x40)\n      0x08c379a000000000000000000000000000000000000000000000000000000000\n      dup2\n      mstore\n      0x04\n      add\n      tag_210\n      swap1\n      tag_98\n      jump\t// in\n    tag_210:\n      mload(0x40)\n      dup1\n      swap2\n      sub\n      swap1\n      revert\n    tag_209:\n        /* \"contracts/core/MPensionVault.sol\":7620:7624  true */\n      0x01\n        /* \"contracts/core/MPensionVault.sol\":7611:7617  locked */\n      0x00\n      0x00\n        /* \"contracts/core/MPensionVault.sol\":7611:7624  locked = true */\n      0x0100\n      exp\n      dup2\n      sload\n      dup2\n      0xff\n      mul\n      not\n      and\n      swap1\n      dup4\n      iszero\n      iszero\n      mul\n      or\n      swap1\n      sstore\n      pop\n        /* \"contracts/core/MPensionVault.sol\":7638:7662  MPension memory pension_ */\n      0x00\n        /* \"contracts/core/MPensionVault.sol\":7665:7685  getPensionInternal() */\n      tag_212\n        /* \"contracts/core/MPensionVault.sol\":7665:7683  getPensionInternal */\n      tag_101\n        /* \"contracts/core/MPensionVault.sol\":7665:7685  getPensionInternal() */\n      jump\t// in\n    tag_212:\n        /* \"contracts/core/MPensionVault.sol\":7638:7685  MPension memory pension_ = getPensionInternal() */\n      swap1\n      pop\n        /* \"contracts/core/MPensionVault.sol\":7723:7731  pension_ */\n      dup1\n        /* \"contracts/core/MPensionVault.sol\":7723:7740  pension_.treasury */\n      0x60\n      add\n      mload\n        /* \"contracts/core/MPensionVault.sol\":7709:7740  msg.sender == pension_.treasury */\n      0xffffffffffffffffffffffffffffffffffffffff\n      and\n        /* \"contracts/core/MPensionVault.sol\":7709:7719  msg.sender */\n      caller\n        /* \"contracts/core/MPensionVault.sol\":7709:7740  msg.sender == pension_.treasury */\n      0xffffffffffffffffffffffffffffffffffffffff\n      and\n      eq\n        /* \"contracts/core/MPensionVault.sol\":7701:7758  require(msg.sender == pension_.treasury, \"treasury only\") */\n      tag_213\n      jumpi\n      mload(0x40)\n      0x08c379a000000000000000000000000000000000000000000000000000000000\n      dup2\n      mstore\n      0x04\n      add\n      tag_214\n      swap1\n      tag_145\n      jump\t// in\n    tag_214:\n      mload(0x40)\n      dup1\n      swap2\n      sub\n      swap1\n      revert\n    tag_213:\n        /* \"contracts/core/MPensionVault.sol\":7792:7807  issuedPrincipal */\n      sload(0x06)\n        /* \"contracts/core/MPensionVault.sol\":7778:7788  _principal */\n      dup5\n        /* \"contracts/core/MPensionVault.sol\":7778:7807  _principal >= issuedPrincipal */\n      lt\n      iszero\n        /* \"contracts/core/MPensionVault.sol\":7770:7843  require(_principal >= issuedPrincipal, \"insufficient principal returned\") */\n      tag_215\n      jumpi\n      mload(0x40)\n      0x08c379a000000000000000000000000000000000000000000000000000000000\n      dup2\n      mstore\n      0x04\n      add\n      tag_216\n      swap1\n      tag_217\n      jump\t// in\n    tag_216:\n      mload(0x40)\n      dup1\n      swap2\n      sub\n      swap1\n      revert\n    tag_215:\n        /* \"contracts/core/MPensionVault.sol\":7856:7881  uint256 transmittedTotal_ */\n      0x00\n        /* \"contracts/core/MPensionVault.sol\":7897:7906  _earnings */\n      dup4\n        /* \"contracts/core/MPensionVault.sol\":7884:7894  _principal */\n      dup6\n        /* \"contracts/core/MPensionVault.sol\":7884:7906  _principal + _earnings */\n      tag_218\n      swap2\n      swap1\n      tag_219\n      jump\t// in\n    tag_218:\n        /* \"contracts/core/MPensionVault.sol\":7856:7906  uint256 transmittedTotal_ = _principal + _earnings */\n      swap1\n      pop\n        /* \"contracts/core/MPensionVault.sol\":7928:7940  isInTreasury */\n      0x07\n      0x00\n      swap1\n      sload\n      swap1\n      0x0100\n      exp\n      swap1\n      div\n      0xff\n      and\n        /* \"contracts/core/MPensionVault.sol\":7920:7961  require(isInTreasury, \"vault not pulled\") */\n      tag_220\n      jumpi\n      mload(0x40)\n      0x08c379a000000000000000000000000000000000000000000000000000000000\n      dup2\n      mstore\n      0x04\n      add\n      tag_221\n      swap1\n      tag_222\n      jump\t// in\n    tag_221:\n      mload(0x40)\n      dup1\n      swap2\n      sub\n      swap1\n      revert\n    tag_220:\n        /* \"contracts/core/MPensionVault.sol\":7975:7996  address erc20Address_ */\n      0x00\n        /* \"contracts/core/MPensionVault.sol\":7999:8007  pension_ */\n      dup3\n        /* \"contracts/core/MPensionVault.sol\":7999:8015  pension_.product */\n      0xe0\n      add\n      mload\n        /* \"contracts/core/MPensionVault.sol\":7999:8021  pension_.product.erc20 */\n      0x40\n      add\n      mload\n        /* \"contracts/core/MPensionVault.sol\":7975:8021  address erc20Address_ = pension_.product.erc20 */\n      swap1\n      pop\n        /* \"contracts/core/MPensionVault.sol\":1009:1051  0xEeeeeEeeeEeEeeEeEeEeeEEEeeeeEeeeeeeeEEeE */\n      0xeeeeeeeeeeeeeeeeeeeeeeeeeeeeeeeeeeeeeeee\n        /* \"contracts/core/MPensionVault.sol\":8036:8059  erc20Address_ == NATIVE */\n      0xffffffffffffffffffffffffffffffffffffffff\n      and\n        /* \"contracts/core/MPensionVault.sol\":8036:8049  erc20Address_ */\n      dup2\n        /* \"contracts/core/MPensionVault.sol\":8036:8059  erc20Address_ == NATIVE */\n      0xffffffffffffffffffffffffffffffffffffffff\n      and\n      sub\n        /* \"contracts/core/MPensionVault.sol\":8033:8311  if(erc20Address_ == NATIVE) {... */\n      tag_223\n      jumpi\n        /* \"contracts/core/MPensionVault.sol\":8097:8114  transmittedTotal_ */\n      dup2\n        /* \"contracts/core/MPensionVault.sol\":8084:8093  msg.value */\n      callvalue\n        /* \"contracts/core/MPensionVault.sol\":8084:8114  msg.value >= transmittedTotal_ */\n      lt\n      iszero\n        /* \"contracts/core/MPensionVault.sol\":8076:8147  require(msg.value >= transmittedTotal_, \"insuffient transmitted value\") */\n      tag_224\n      jumpi\n      mload(0x40)\n      0x08c379a000000000000000000000000000000000000000000000000000000000\n      dup2\n      mstore\n      0x04\n      add\n      tag_225\n      swap1\n      tag_226\n      jump\t// in\n    tag_225:\n      mload(0x40)\n      dup1\n      swap2\n      sub\n      swap1\n      revert\n    tag_224:\n        /* \"contracts/core/MPensionVault.sol\":8033:8311  if(erc20Address_ == NATIVE) {... */\n      jump(tag_227)\n    tag_223:\n        /* \"contracts/core/MPensionVault.sol\":8191:8204  IERC20 erc20_ */\n      0x00\n        /* \"contracts/core/MPensionVault.sol\":8214:8227  erc20Address_ */\n      dup2\n        /* \"contracts/core/MPensionVault.sol\":8191:8228  IERC20 erc20_ = IERC20(erc20Address_) */\n      swap1\n      pop\n        /* \"contracts/core/MPensionVault.sol\":8243:8249  erc20_ */\n      dup1\n        /* \"contracts/core/MPensionVault.sol\":8243:8262  erc20_.transferFrom */\n      0xffffffffffffffffffffffffffffffffffffffff\n      and\n      0x23b872dd\n        /* \"contracts/core/MPensionVault.sol\":8263:8273  msg.sender */\n      caller\n        /* \"contracts/core/MPensionVault.sol\":8275:8279  self */\n      immutable(\"0x05dee4192aaad4acb149f9615e8a72a761fc8cdb1d8b4e9c00fe66665f5a8184\")\n        /* \"contracts/core/MPensionVault.sol\":8281:8298  transmittedTotal_ */\n      dup7\n        /* \"contracts/core/MPensionVault.sol\":8243:8299  erc20_.transferFrom(msg.sender, self, transmittedTotal_) */\n      mload(0x40)\n      dup5\n      0xffffffff\n      and\n      0xe0\n      shl\n      dup2\n      mstore\n      0x04\n      add\n      tag_228\n      swap4\n      swap3\n      swap2\n      swap1\n      tag_229\n      jump\t// in\n    tag_228:\n      0x20\n      mload(0x40)\n      dup1\n      dup4\n      sub\n      dup2\n      0x00\n      dup8\n      gas\n      call\n      iszero\n      dup1\n      iszero\n      tag_231\n      jumpi\n      returndatacopy(0x00, 0x00, returndatasize)\n      revert(0x00, returndatasize)\n    tag_231:\n      pop\n      pop\n      pop\n      pop\n      mload(0x40)\n      returndatasize\n      not(0x1f)\n      0x1f\n      dup3\n      add\n      and\n      dup3\n      add\n      dup1\n      0x40\n      mstore\n      pop\n      dup2\n      add\n      swap1\n      tag_232\n      swap2\n      swap1\n      tag_129\n      jump\t// in\n    tag_232:\n      pop\n        /* \"contracts/core/MPensionVault.sol\":8175:8311  { ... */\n      pop\n        /* \"contracts/core/MPensionVault.sol\":8033:8311  if(erc20Address_ == NATIVE) {... */\n    tag_227:\n        /* \"contracts/core/MPensionVault.sol\":8321:8348  uint256 interimDifferential */\n      0x00\n        /* \"contracts/core/MPensionVault.sol\":8368:8383  issuedPrincipal */\n      sload(0x06)\n        /* \"contracts/core/MPensionVault.sol\":8351:8365  pensionBalance */\n      sload(0x02)\n        /* \"contracts/core/MPensionVault.sol\":8351:8383  pensionBalance - issuedPrincipal */\n      tag_233\n      swap2\n      swap1\n      tag_234\n      jump\t// in\n    tag_233:\n        /* \"contracts/core/MPensionVault.sol\":8321:8383  uint256 interimDifferential = pensionBalance - issuedPrincipal */\n      swap1\n      pop\n        /* \"contracts/core/MPensionVault.sol\":8452:8461  _earnings */\n      dup6\n        /* \"contracts/core/MPensionVault.sol\":8434:8449  issuedPrincipal */\n      sload(0x06)\n        /* \"contracts/core/MPensionVault.sol\":8412:8431  interimDifferential */\n      dup3\n        /* \"contracts/core/MPensionVault.sol\":8412:8449  interimDifferential + issuedPrincipal */\n      tag_235\n      swap2\n      swap1\n      tag_219\n      jump\t// in\n    tag_235:\n        /* \"contracts/core/MPensionVault.sol\":8412:8461  interimDifferential + issuedPrincipal + _earnings */\n      tag_236\n      swap2\n      swap1\n      tag_219\n      jump\t// in\n    tag_236:\n        /* \"contracts/core/MPensionVault.sol\":8395:8409  pensionBalance */\n      0x02\n        /* \"contracts/core/MPensionVault.sol\":8395:8461  pensionBalance = interimDifferential + issuedPrincipal + _earnings */\n      dup2\n      swap1\n      sstore\n      pop\n        /* \"contracts/core/MPensionVault.sol\":8590:8605  checkMaturity() */\n      tag_237\n        /* \"contracts/core/MPensionVault.sol\":8590:8603  checkMaturity */\n      tag_238\n        /* \"contracts/core/MPensionVault.sol\":8590:8605  checkMaturity() */\n      jump\t// in\n    tag_237:\n        /* \"contracts/core/MPensionVault.sol\":8624:8702  addTx(TxType.CONTRIBUTE, pensionId, transmittedTotal_, pension_.product.erc20) */\n      tag_239\n        /* \"contracts/core/MPensionVault.sol\":8630:8647  TxType.CONTRIBUTE */\n      0x01\n        /* \"contracts/core/MPensionVault.sol\":8649:8658  pensionId */\n      immutable(\"0x0697183ae8eedd43b56f90cfa450ea6e3ac27fb69f1056ee33ccc5a9587bcd2a\")\n        /* \"contracts/core/MPensionVault.sol\":8660:8677  transmittedTotal_ */\n      dup6\n        /* \"contracts/core/MPensionVault.sol\":8679:8687  pension_ */\n      dup8\n        /* \"contracts/core/MPensionVault.sol\":8679:8695  pension_.product */\n      0xe0\n      add\n      mload\n        /* \"contracts/core/MPensionVault.sol\":8679:8701  pension_.product.erc20 */\n      0x40\n      add\n      mload\n        /* \"contracts/core/MPensionVault.sol\":8624:8629  addTx */\n      tag_131\n        /* \"contracts/core/MPensionVault.sol\":8624:8702  addTx(TxType.CONTRIBUTE, pensionId, transmittedTotal_, pension_.product.erc20) */\n      jump\t// in\n    tag_239:\n        /* \"contracts/core/MPensionVault.sol\":8616:8702  _txId = addTx(TxType.CONTRIBUTE, pensionId, transmittedTotal_, pension_.product.erc20) */\n      swap5\n      pop\n        /* \"contracts/core/MPensionVault.sol\":8713:8730  txIdsByTreasuryId */\n      0x08\n        /* \"contracts/core/MPensionVault.sol\":8713:8743  txIdsByTreasuryId[_treasuryId] */\n      0x00\n        /* \"contracts/core/MPensionVault.sol\":8731:8742  _treasuryId */\n      dup10\n        /* \"contracts/core/MPensionVault.sol\":8713:8743  txIdsByTreasuryId[_treasuryId] */\n      dup2\n      mstore\n      0x20\n      add\n      swap1\n      dup2\n      mstore\n      0x20\n      add\n      0x00\n      keccak256\n        /* \"contracts/core/MPensionVault.sol\":8749:8754  _txId */\n      dup6\n        /* \"contracts/core/MPensionVault.sol\":8713:8755  txIdsByTreasuryId[_treasuryId].push(_txId) */\n      swap1\n      dup1\n      0x01\n      dup2\n      sload\n      add\n      dup1\n      dup3\n      sstore\n      dup1\n      swap2\n      pop\n      pop\n      0x01\n      swap1\n      sub\n      swap1\n      0x00\n      mstore\n      keccak256(0x00, 0x20)\n      add\n      0x00\n      swap1\n      swap2\n      swap1\n      swap2\n      swap1\n      swap2\n      pop\n      sstore\n        /* \"contracts/core/MPensionVault.sol\":8783:8788  false */\n      0x00\n        /* \"contracts/core/MPensionVault.sol\":8768:8780  isInTreasury */\n      0x07\n      0x00\n        /* \"contracts/core/MPensionVault.sol\":8768:8788  isInTreasury = false */\n      0x0100\n      exp\n      dup2\n      sload\n      dup2\n      0xff\n      mul\n      not\n      and\n      swap1\n      dup4\n      iszero\n      iszero\n      mul\n      or\n      swap1\n      sstore\n      pop\n        /* \"contracts/core/MPensionVault.sol\":8820:8825  false */\n      0x00\n        /* \"contracts/core/MPensionVault.sol\":8811:8817  locked */\n      0x00\n      0x00\n        /* \"contracts/core/MPensionVault.sol\":8811:8825  locked = false */\n      0x0100\n      exp\n      dup2\n      sload\n      dup2\n      0xff\n      mul\n      not\n      and\n      swap1\n      dup4\n      iszero\n      iszero\n      mul\n      or\n      swap1\n      sstore\n      pop\n        /* \"contracts/core/MPensionVault.sol\":8854:8866  return _txId */\n      pop\n      pop\n      pop\n      pop\n        /* \"contracts/core/MPensionVault.sol\":7475:8876  function push(uint256 _treasuryId, uint256 _principal, uint256 _earnings)  payable external semaphore returns (uint256 _txId){... */\n      swap4\n      swap3\n      pop\n      pop\n      pop\n      jump\t// out\n        /* \"contracts/core/MPensionVault.sol\":2524:2663  function getTx(uint256 _treasuryId) view external returns (uint256 [] memory _txId){... */\n    tag_64:\n        /* \"contracts/core/MPensionVault.sol\":2583:2606  uint256 [] memory _txId */\n      0x60\n        /* \"contracts/core/MPensionVault.sol\":2625:2642  txIdsByTreasuryId */\n      0x08\n        /* \"contracts/core/MPensionVault.sol\":2625:2655  txIdsByTreasuryId[_treasuryId] */\n      0x00\n        /* \"contracts/core/MPensionVault.sol\":2643:2654  _treasuryId */\n      dup4\n        /* \"contracts/core/MPensionVault.sol\":2625:2655  txIdsByTreasuryId[_treasuryId] */\n      dup2\n      mstore\n      0x20\n      add\n      swap1\n      dup2\n      mstore\n      0x20\n      add\n      0x00\n      keccak256\n        /* \"contracts/core/MPensionVault.sol\":2618:2655  return txIdsByTreasuryId[_treasuryId] */\n      dup1\n      sload\n      dup1\n      0x20\n      mul\n      0x20\n      add\n      mload(0x40)\n      swap1\n      dup2\n      add\n      0x40\n      mstore\n      dup1\n      swap3\n      swap2\n      swap1\n      dup2\n      dup2\n      mstore\n      0x20\n      add\n      dup3\n      dup1\n      sload\n      dup1\n      iszero\n      tag_242\n      jumpi\n      0x20\n      mul\n      dup3\n      add\n      swap2\n      swap1\n      0x00\n      mstore\n      keccak256(0x00, 0x20)\n      swap1\n    tag_243:\n      dup2\n      sload\n      dup2\n      mstore\n      0x20\n      add\n      swap1\n      0x01\n      add\n      swap1\n      dup1\n      dup4\n      gt\n      tag_243\n      jumpi\n    tag_242:\n      pop\n      pop\n      pop\n      pop\n      pop\n      swap1\n      pop\n        /* \"contracts/core/MPensionVault.sol\":2524:2663  function getTx(uint256 _treasuryId) view external returns (uint256 [] memory _txId){... */\n      swap2\n      swap1\n      pop\n      jump\t// out\n        /* \"contracts/core/MPensionVault.sol\":2671:3984  function contribute(uint256 _amount) payable external semaphore returns (uint256 _txId){... */\n    tag_69:\n        /* \"contracts/core/MPensionVault.sol\":2744:2757  uint256 _txId */\n      0x00\n        /* \"contracts/core/MPensionVault.sol\":512:518  locked */\n      0x00\n      0x00\n      swap1\n      sload\n      swap1\n      0x0100\n      exp\n      swap1\n      div\n      0xff\n      and\n        /* \"contracts/core/MPensionVault.sol\":511:518  !locked */\n      iszero\n        /* \"contracts/core/MPensionVault.sol\":503:535  require(!locked, \"vault locked\") */\n      tag_245\n      jumpi\n      mload(0x40)\n      0x08c379a000000000000000000000000000000000000000000000000000000000\n      dup2\n      mstore\n      0x04\n      add\n      tag_246\n      swap1\n      tag_90\n      jump\t// in\n    tag_246:\n      mload(0x40)\n      dup1\n      swap2\n      sub\n      swap1\n      revert\n    tag_245:\n        /* \"contracts/core/MPensionVault.sol\":564:579  MPStatus.CLOSED */\n      0x02\n        /* \"contracts/core/MPensionVault.sol\":554:579  status != MPStatus.CLOSED */\n      0x03\n      dup2\n      gt\n      iszero\n      tag_247\n      jumpi\n      tag_248\n      tag_93\n      jump\t// in\n    tag_248:\n    tag_247:\n        /* \"contracts/core/MPensionVault.sol\":554:560  status */\n      0x00\n      0x01\n      swap1\n      sload\n      swap1\n      0x0100\n      exp\n      swap1\n      div\n      0xff\n      and\n        /* \"contracts/core/MPensionVault.sol\":554:579  status != MPStatus.CLOSED */\n      0x03\n      dup2\n      gt\n      iszero\n      tag_249\n      jumpi\n      tag_250\n      tag_93\n      jump\t// in\n    tag_250:\n    tag_249:\n      sub\n        /* \"contracts/core/MPensionVault.sol\":546:596  require(status != MPStatus.CLOSED, \"vault closed\") */\n      tag_251\n      jumpi\n      mload(0x40)\n      0x08c379a000000000000000000000000000000000000000000000000000000000\n      dup2\n      mstore\n      0x04\n      add\n      tag_252\n      swap1\n      tag_98\n      jump\t// in\n    tag_252:\n      mload(0x40)\n      dup1\n      swap2\n      sub\n      swap1\n      revert\n    tag_251:\n        /* \"contracts/core/MPensionVault.sol\":2778:2782  true */\n      0x01\n        /* \"contracts/core/MPensionVault.sol\":2769:2775  locked */\n      0x00\n      0x00\n        /* \"contracts/core/MPensionVault.sol\":2769:2782  locked = true */\n      0x0100\n      exp\n      dup2\n      sload\n      dup2\n      0xff\n      mul\n      not\n      and\n      swap1\n      dup4\n      iszero\n      iszero\n      mul\n      or\n      swap1\n      sstore\n      pop\n        /* \"contracts/core/MPensionVault.sol\":2837:2852  block.timestamp */\n      timestamp\n        /* \"contracts/core/MPensionVault.sol\":2817:2833  lastContribution */\n      sload(0x04)\n        /* \"contracts/core/MPensionVault.sol\":2817:2852  lastContribution <= block.timestamp */\n      gt\n      iszero\n        /* \"contracts/core/MPensionVault.sol\":2809:2899  require(lastContribution <= block.timestamp, \"contributions too frequent wait required \" ) */\n      tag_254\n      jumpi\n      mload(0x40)\n      0x08c379a000000000000000000000000000000000000000000000000000000000\n      dup2\n      mstore\n      0x04\n      add\n      tag_255\n      swap1\n      tag_256\n      jump\t// in\n    tag_255:\n      mload(0x40)\n      dup1\n      swap2\n      sub\n      swap1\n      revert\n    tag_254:\n        /* \"contracts/core/MPensionVault.sol\":2936:2960  MPScheduleStatus.MATURED */\n      0x00\n        /* \"contracts/core/MPensionVault.sol\":2918:2960  scheduleStatus != MPScheduleStatus.MATURED */\n      0x01\n      dup2\n      gt\n      iszero\n      tag_257\n      jumpi\n      tag_258\n      tag_93\n      jump\t// in\n    tag_258:\n    tag_257:\n        /* \"contracts/core/MPensionVault.sol\":2918:2932  scheduleStatus */\n      0x00\n      0x02\n      swap1\n      sload\n      swap1\n      0x0100\n      exp\n      swap1\n      div\n      0xff\n      and\n        /* \"contracts/core/MPensionVault.sol\":2918:2960  scheduleStatus != MPScheduleStatus.MATURED */\n      0x01\n      dup2\n      gt\n      iszero\n      tag_259\n      jumpi\n      tag_260\n      tag_93\n      jump\t// in\n    tag_260:\n    tag_259:\n      sub\n        /* \"contracts/core/MPensionVault.sol\":2910:2980  require(scheduleStatus != MPScheduleStatus.MATURED, \"pension matured\") */\n      tag_261\n      jumpi\n      mload(0x40)\n      0x08c379a000000000000000000000000000000000000000000000000000000000\n      dup2\n      mstore\n      0x04\n      add\n      tag_262\n      swap1\n      tag_263\n      jump\t// in\n    tag_262:\n      mload(0x40)\n      dup1\n      swap2\n      sub\n      swap1\n      revert\n    tag_261:\n        /* \"contracts/core/MPensionVault.sol\":3009:3022  MPStatus.OPEN */\n      0x00\n        /* \"contracts/core/MPensionVault.sol\":2999:3022  status == MPStatus.OPEN */\n      0x03\n      dup2\n      gt\n      iszero\n      tag_264\n      jumpi\n      tag_265\n      tag_93\n      jump\t// in\n    tag_265:\n    tag_264:\n        /* \"contracts/core/MPensionVault.sol\":2999:3005  status */\n      0x00\n      0x01\n      swap1\n      sload\n      swap1\n      0x0100\n      exp\n      swap1\n      div\n      0xff\n      and\n        /* \"contracts/core/MPensionVault.sol\":2999:3022  status == MPStatus.OPEN */\n      0x03\n      dup2\n      gt\n      iszero\n      tag_266\n      jumpi\n      tag_267\n      tag_93\n      jump\t// in\n    tag_267:\n    tag_266:\n      eq\n        /* \"contracts/core/MPensionVault.sol\":2991:3043  require(status == MPStatus.OPEN, \"pension not open\") */\n      tag_268\n      jumpi\n      mload(0x40)\n      0x08c379a000000000000000000000000000000000000000000000000000000000\n      dup2\n      mstore\n      0x04\n      add\n      tag_269\n      swap1\n      tag_270\n      jump\t// in\n    tag_269:\n      mload(0x40)\n      dup1\n      swap2\n      sub\n      swap1\n      revert\n    tag_268:\n        /* \"contracts/core/MPensionVault.sol\":3056:3080  MPension memory pension_ */\n      0x00\n        /* \"contracts/core/MPensionVault.sol\":3083:3103  getPensionInternal() */\n      tag_271\n        /* \"contracts/core/MPensionVault.sol\":3083:3101  getPensionInternal */\n      tag_101\n        /* \"contracts/core/MPensionVault.sol\":3083:3103  getPensionInternal() */\n      jump\t// in\n    tag_271:\n        /* \"contracts/core/MPensionVault.sol\":3056:3103  MPension memory pension_ = getPensionInternal() */\n      swap1\n      pop\n        /* \"contracts/core/MPensionVault.sol\":3135:3193  getSeconds(pension_.product.contributionSchedule.schedule) */\n      tag_272\n        /* \"contracts/core/MPensionVault.sol\":3146:3154  pension_ */\n      dup2\n        /* \"contracts/core/MPensionVault.sol\":3146:3162  pension_.product */\n      0xe0\n      add\n      mload\n        /* \"contracts/core/MPensionVault.sol\":3146:3183  pension_.product.contributionSchedule */\n      0x0100\n      add\n      mload\n        /* \"contracts/core/MPensionVault.sol\":3146:3192  pension_.product.contributionSchedule.schedule */\n      0x00\n      add\n      mload\n        /* \"contracts/core/MPensionVault.sol\":3135:3145  getSeconds */\n      tag_273\n        /* \"contracts/core/MPensionVault.sol\":3135:3193  getSeconds(pension_.product.contributionSchedule.schedule) */\n      jump\t// in\n    tag_272:\n        /* \"contracts/core/MPensionVault.sol\":3115:3131  lastContribution */\n      0x04\n      0x00\n        /* \"contracts/core/MPensionVault.sol\":3115:3193  lastContribution += getSeconds(pension_.product.contributionSchedule.schedule) */\n      dup3\n      dup3\n      sload\n      tag_274\n      swap2\n      swap1\n      tag_219\n      jump\t// in\n    tag_274:\n      swap3\n      pop\n      pop\n      dup2\n      swap1\n      sstore\n      pop\n        /* \"contracts/core/MPensionVault.sol\":3226:3234  pension_ */\n      dup1\n        /* \"contracts/core/MPensionVault.sol\":3226:3242  pension_.product */\n      0xe0\n      add\n      mload\n        /* \"contracts/core/MPensionVault.sol\":3226:3263  pension_.product.contributionSchedule */\n      0x0100\n      add\n      mload\n        /* \"contracts/core/MPensionVault.sol\":3226:3277  pension_.product.contributionSchedule.minimumAmount */\n      0x40\n      add\n      mload\n        /* \"contracts/core/MPensionVault.sol\":3215:3222  _amount */\n      dup4\n        /* \"contracts/core/MPensionVault.sol\":3215:3277  _amount >= pension_.product.contributionSchedule.minimumAmount */\n      lt\n      iszero\n        /* \"contracts/core/MPensionVault.sol\":3215:3343  _amount >= pension_.product.contributionSchedule.minimumAmount && _amount <= pension_.product.contributionSchedule.maximumAmount */\n      dup1\n      iszero\n      tag_275\n      jumpi\n      pop\n        /* \"contracts/core/MPensionVault.sol\":3292:3300  pension_ */\n      dup1\n        /* \"contracts/core/MPensionVault.sol\":3292:3308  pension_.product */\n      0xe0\n      add\n      mload\n        /* \"contracts/core/MPensionVault.sol\":3292:3329  pension_.product.contributionSchedule */\n      0x0100\n      add\n      mload\n        /* \"contracts/core/MPensionVault.sol\":3292:3343  pension_.product.contributionSchedule.maximumAmount */\n      0x60\n      add\n      mload\n        /* \"contracts/core/MPensionVault.sol\":3281:3288  _amount */\n      dup4\n        /* \"contracts/core/MPensionVault.sol\":3281:3343  _amount <= pension_.product.contributionSchedule.maximumAmount */\n      gt\n      iszero\n        /* \"contracts/core/MPensionVault.sol\":3215:3343  _amount >= pension_.product.contributionSchedule.minimumAmount && _amount <= pension_.product.contributionSchedule.maximumAmount */\n    tag_275:\n        /* \"contracts/core/MPensionVault.sol\":3207:3397  require(_amount >= pension_.product.contributionSchedule.minimumAmount && _amount <= pension_.product.contributionSchedule.maximumAmount, \"invalid contribution either raise or lower amount\") */\n      tag_276\n      jumpi\n      mload(0x40)\n      0x08c379a000000000000000000000000000000000000000000000000000000000\n      dup2\n      mstore\n      0x04\n      add\n      tag_277\n      swap1\n      tag_278\n      jump\t// in\n    tag_277:\n      mload(0x40)\n      dup1\n      swap2\n      sub\n      swap1\n      revert\n    tag_276:\n        /* \"contracts/core/MPensionVault.sol\":3410:3431  address erc20Address_ */\n      0x00\n        /* \"contracts/core/MPensionVault.sol\":3434:3442  pension_ */\n      dup2\n        /* \"contracts/core/MPensionVault.sol\":3434:3450  pension_.product */\n      0xe0\n      add\n      mload\n        /* \"contracts/core/MPensionVault.sol\":3434:3456  pension_.product.erc20 */\n      0x40\n      add\n      mload\n        /* \"contracts/core/MPensionVault.sol\":3410:3456  address erc20Address_ = pension_.product.erc20 */\n      swap1\n      pop\n        /* \"contracts/core/MPensionVault.sol\":1009:1051  0xEeeeeEeeeEeEeeEeEeEeeEEEeeeeEeeeeeeeEEeE */\n      0xeeeeeeeeeeeeeeeeeeeeeeeeeeeeeeeeeeeeeeee\n        /* \"contracts/core/MPensionVault.sol\":3471:3494  erc20Address_ == NATIVE */\n      0xffffffffffffffffffffffffffffffffffffffff\n      and\n        /* \"contracts/core/MPensionVault.sol\":3471:3484  erc20Address_ */\n      dup2\n        /* \"contracts/core/MPensionVault.sol\":3471:3494  erc20Address_ == NATIVE */\n      0xffffffffffffffffffffffffffffffffffffffff\n      and\n      sub\n        /* \"contracts/core/MPensionVault.sol\":3468:3721  if(erc20Address_ == NATIVE) {... */\n      tag_279\n      jumpi\n        /* \"contracts/core/MPensionVault.sol\":3532:3539  _amount */\n      dup4\n        /* \"contracts/core/MPensionVault.sol\":3519:3528  msg.value */\n      callvalue\n        /* \"contracts/core/MPensionVault.sol\":3519:3539  msg.value >= _amount */\n      lt\n      iszero\n        /* \"contracts/core/MPensionVault.sol\":3511:3566  require(msg.value >= _amount, \"contribution mis-match\") */\n      tag_280\n      jumpi\n      mload(0x40)\n      0x08c379a000000000000000000000000000000000000000000000000000000000\n      dup2\n      mstore\n      0x04\n      add\n      tag_281\n      swap1\n      tag_282\n      jump\t// in\n    tag_281:\n      mload(0x40)\n      dup1\n      swap2\n      sub\n      swap1\n      revert\n    tag_280:\n        /* \"contracts/core/MPensionVault.sol\":3468:3721  if(erc20Address_ == NATIVE) {... */\n      jump(tag_283)\n    tag_279:\n        /* \"contracts/core/MPensionVault.sol\":3610:3623  IERC20 erc20_ */\n      0x00\n        /* \"contracts/core/MPensionVault.sol\":3633:3646  erc20Address_ */\n      dup2\n        /* \"contracts/core/MPensionVault.sol\":3610:3647  IERC20 erc20_ = IERC20(erc20Address_) */\n      swap1\n      pop\n        /* \"contracts/core/MPensionVault.sol\":3662:3668  erc20_ */\n      dup1\n        /* \"contracts/core/MPensionVault.sol\":3662:3681  erc20_.transferFrom */\n      0xffffffffffffffffffffffffffffffffffffffff\n      and\n      0x23b872dd\n        /* \"contracts/core/MPensionVault.sol\":3682:3692  msg.sender */\n      caller\n        /* \"contracts/core/MPensionVault.sol\":3694:3698  self */\n      immutable(\"0x05dee4192aaad4acb149f9615e8a72a761fc8cdb1d8b4e9c00fe66665f5a8184\")\n        /* \"contracts/core/MPensionVault.sol\":3700:3707  _amount */\n      dup9\n        /* \"contracts/core/MPensionVault.sol\":3662:3708  erc20_.transferFrom(msg.sender, self, _amount) */\n      mload(0x40)\n      dup5\n      0xffffffff\n      and\n      0xe0\n      shl\n      dup2\n      mstore\n      0x04\n      add\n      tag_284\n      swap4\n      swap3\n      swap2\n      swap1\n      tag_229\n      jump\t// in\n    tag_284:\n      0x20\n      mload(0x40)\n      dup1\n      dup4\n      sub\n      dup2\n      0x00\n      dup8\n      gas\n      call\n      iszero\n      dup1\n      iszero\n      tag_286\n      jumpi\n      returndatacopy(0x00, 0x00, returndatasize)\n      revert(0x00, returndatasize)\n    tag_286:\n      pop\n      pop\n      pop\n      pop\n      mload(0x40)\n      returndatasize\n      not(0x1f)\n      0x1f\n      dup3\n      add\n      and\n      dup3\n      add\n      dup1\n      0x40\n      mstore\n      pop\n      dup2\n      add\n      swap1\n      tag_287\n      swap2\n      swap1\n      tag_129\n      jump\t// in\n    tag_287:\n      pop\n        /* \"contracts/core/MPensionVault.sol\":3594:3721  { ... */\n      pop\n        /* \"contracts/core/MPensionVault.sol\":3468:3721  if(erc20Address_ == NATIVE) {... */\n    tag_283:\n        /* \"contracts/core/MPensionVault.sol\":3749:3756  _amount */\n      dup4\n        /* \"contracts/core/MPensionVault.sol\":3731:3745  pensionBalance */\n      0x02\n      0x00\n        /* \"contracts/core/MPensionVault.sol\":3731:3756  pensionBalance += _amount */\n      dup3\n      dup3\n      sload\n      tag_288\n      swap2\n      swap1\n      tag_219\n      jump\t// in\n    tag_288:\n      swap3\n      pop\n      pop\n      dup2\n      swap1\n      sstore\n      pop\n        /* \"contracts/core/MPensionVault.sol\":3768:3781  contributions */\n      0x01\n      0x00\n        /* \"contracts/core/MPensionVault.sol\":3768:3783  contributions++ */\n      dup2\n      sload\n      dup1\n      swap3\n      swap2\n      swap1\n      tag_289\n      swap1\n      tag_290\n      jump\t// in\n    tag_289:\n      swap2\n      swap1\n      pop\n      sstore\n      pop\n        /* \"contracts/core/MPensionVault.sol\":3795:3810  checkMaturity() */\n      tag_291\n        /* \"contracts/core/MPensionVault.sol\":3795:3808  checkMaturity */\n      tag_238\n        /* \"contracts/core/MPensionVault.sol\":3795:3810  checkMaturity() */\n      jump\t// in\n    tag_291:\n        /* \"contracts/core/MPensionVault.sol\":3840:3908  addTx(TxType.CONTRIBUTE, pensionId, _amount, pension_.product.erc20) */\n      tag_292\n        /* \"contracts/core/MPensionVault.sol\":3846:3863  TxType.CONTRIBUTE */\n      0x01\n        /* \"contracts/core/MPensionVault.sol\":3865:3874  pensionId */\n      immutable(\"0x0697183ae8eedd43b56f90cfa450ea6e3ac27fb69f1056ee33ccc5a9587bcd2a\")\n        /* \"contracts/core/MPensionVault.sol\":3876:3883  _amount */\n      dup7\n        /* \"contracts/core/MPensionVault.sol\":3885:3893  pension_ */\n      dup6\n        /* \"contracts/core/MPensionVault.sol\":3885:3901  pension_.product */\n      0xe0\n      add\n      mload\n        /* \"contracts/core/MPensionVault.sol\":3885:3907  pension_.product.erc20 */\n      0x40\n      add\n      mload\n        /* \"contracts/core/MPensionVault.sol\":3840:3845  addTx */\n      tag_131\n        /* \"contracts/core/MPensionVault.sol\":3840:3908  addTx(TxType.CONTRIBUTE, pensionId, _amount, pension_.product.erc20) */\n      jump\t// in\n    tag_292:\n        /* \"contracts/core/MPensionVault.sol\":3832:3908  _txId = addTx(TxType.CONTRIBUTE, pensionId, _amount, pension_.product.erc20) */\n      swap3\n      pop\n        /* \"contracts/core/MPensionVault.sol\":3928:3933  false */\n      0x00\n        /* \"contracts/core/MPensionVault.sol\":3919:3925  locked */\n      0x00\n      0x00\n        /* \"contracts/core/MPensionVault.sol\":3919:3933  locked = false */\n      0x0100\n      exp\n      dup2\n      sload\n      dup2\n      0xff\n      mul\n      not\n      and\n      swap1\n      dup4\n      iszero\n      iszero\n      mul\n      or\n      swap1\n      sstore\n      pop\n        /* \"contracts/core/MPensionVault.sol\":3962:3974  return _txId */\n      pop\n      pop\n        /* \"contracts/core/MPensionVault.sol\":2671:3984  function contribute(uint256 _amount) payable external semaphore returns (uint256 _txId){... */\n      swap2\n      swap1\n      pop\n      jump\t// out\n        /* \"contracts/core/MPensionVault.sol\":3992:5009  function drawdown() external ownerOnly semaphore returns (uint256 _txId){... */\n    tag_73:\n        /* \"contracts/core/MPensionVault.sol\":4050:4063  uint256 _txId */\n      0x00\n        /* \"contracts/core/MPensionVault.sol\":680:700  getPensionInternal() */\n      tag_294\n        /* \"contracts/core/MPensionVault.sol\":680:698  getPensionInternal */\n      tag_101\n        /* \"contracts/core/MPensionVault.sol\":680:700  getPensionInternal() */\n      jump\t// in\n    tag_294:\n        /* \"contracts/core/MPensionVault.sol\":680:706  getPensionInternal().owner */\n      0x40\n      add\n      mload\n        /* \"contracts/core/MPensionVault.sol\":666:706  msg.sender == getPensionInternal().owner */\n      0xffffffffffffffffffffffffffffffffffffffff\n      and\n        /* \"contracts/core/MPensionVault.sol\":666:676  msg.sender */\n      caller\n        /* \"contracts/core/MPensionVault.sol\":666:706  msg.sender == getPensionInternal().owner */\n      0xffffffffffffffffffffffffffffffffffffffff\n      and\n      eq\n        /* \"contracts/core/MPensionVault.sol\":658:721  require(msg.sender == getPensionInternal().owner, \"owner only\") */\n      tag_295\n      jumpi\n      mload(0x40)\n      0x08c379a000000000000000000000000000000000000000000000000000000000\n      dup2\n      mstore\n      0x04\n      add\n      tag_296\n      swap1\n      tag_297\n      jump\t// in\n    tag_296:\n      mload(0x40)\n      dup1\n      swap2\n      sub\n      swap1\n      revert\n    tag_295:\n        /* \"contracts/core/MPensionVault.sol\":512:518  locked */\n      0x00\n      0x00\n      swap1\n      sload\n      swap1\n      0x0100\n      exp\n      swap1\n      div\n      0xff\n      and\n        /* \"contracts/core/MPensionVault.sol\":511:518  !locked */\n      iszero\n        /* \"contracts/core/MPensionVault.sol\":503:535  require(!locked, \"vault locked\") */\n      tag_299\n      jumpi\n      mload(0x40)\n      0x08c379a000000000000000000000000000000000000000000000000000000000\n      dup2\n      mstore\n      0x04\n      add\n      tag_300\n      swap1\n      tag_90\n      jump\t// in\n    tag_300:\n      mload(0x40)\n      dup1\n      swap2\n      sub\n      swap1\n      revert\n    tag_299:\n        /* \"contracts/core/MPensionVault.sol\":564:579  MPStatus.CLOSED */\n      0x02\n        /* \"contracts/core/MPensionVault.sol\":554:579  status != MPStatus.CLOSED */\n      0x03\n      dup2\n      gt\n      iszero\n      tag_301\n      jumpi\n      tag_302\n      tag_93\n      jump\t// in\n    tag_302:\n    tag_301:\n        /* \"contracts/core/MPensionVault.sol\":554:560  status */\n      0x00\n      0x01\n      swap1\n      sload\n      swap1\n      0x0100\n      exp\n      swap1\n      div\n      0xff\n      and\n        /* \"contracts/core/MPensionVault.sol\":554:579  status != MPStatus.CLOSED */\n      0x03\n      dup2\n      gt\n      iszero\n      tag_303\n      jumpi\n      tag_304\n      tag_93\n      jump\t// in\n    tag_304:\n    tag_303:\n      sub\n        /* \"contracts/core/MPensionVault.sol\":546:596  require(status != MPStatus.CLOSED, \"vault closed\") */\n      tag_305\n      jumpi\n      mload(0x40)\n      0x08c379a000000000000000000000000000000000000000000000000000000000\n      dup2\n      mstore\n      0x04\n      add\n      tag_306\n      swap1\n      tag_98\n      jump\t// in\n    tag_306:\n      mload(0x40)\n      dup1\n      swap2\n      sub\n      swap1\n      revert\n    tag_305:\n        /* \"contracts/core/MPensionVault.sol\":4075:4099  MPension memory pension_ */\n      0x00\n        /* \"contracts/core/MPensionVault.sol\":4102:4122  getPensionInternal() */\n      tag_308\n        /* \"contracts/core/MPensionVault.sol\":4102:4120  getPensionInternal */\n      tag_101\n        /* \"contracts/core/MPensionVault.sol\":4102:4122  getPensionInternal() */\n      jump\t// in\n    tag_308:\n        /* \"contracts/core/MPensionVault.sol\":4075:4122  MPension memory pension_ = getPensionInternal() */\n      swap1\n      pop\n        /* \"contracts/core/MPensionVault.sol\":4146:4150  true */\n      0x01\n        /* \"contracts/core/MPensionVault.sol\":4137:4143  locked */\n      0x00\n      0x00\n        /* \"contracts/core/MPensionVault.sol\":4137:4150  locked = true */\n      0x0100\n      exp\n      dup2\n      sload\n      dup2\n      0xff\n      mul\n      not\n      and\n      swap1\n      dup4\n      iszero\n      iszero\n      mul\n      or\n      swap1\n      sstore\n      pop\n        /* \"contracts/core/MPensionVault.sol\":4180:4201  MPStatus.DISBURSEMENT */\n      0x01\n        /* \"contracts/core/MPensionVault.sol\":4170:4201  status == MPStatus.DISBURSEMENT */\n      0x03\n      dup2\n      gt\n      iszero\n      tag_309\n      jumpi\n      tag_310\n      tag_93\n      jump\t// in\n    tag_310:\n    tag_309:\n        /* \"contracts/core/MPensionVault.sol\":4170:4176  status */\n      0x00\n      0x01\n      swap1\n      sload\n      swap1\n      0x0100\n      exp\n      swap1\n      div\n      0xff\n      and\n        /* \"contracts/core/MPensionVault.sol\":4170:4201  status == MPStatus.DISBURSEMENT */\n      0x03\n      dup2\n      gt\n      iszero\n      tag_311\n      jumpi\n      tag_312\n      tag_93\n      jump\t// in\n    tag_312:\n    tag_311:\n      eq\n        /* \"contracts/core/MPensionVault.sol\":4162:4228  require(status == MPStatus.DISBURSEMENT, \"invalid pension status\") */\n      tag_313\n      jumpi\n      mload(0x40)\n      0x08c379a000000000000000000000000000000000000000000000000000000000\n      dup2\n      mstore\n      0x04\n      add\n      tag_314\n      swap1\n      tag_315\n      jump\t// in\n    tag_314:\n      mload(0x40)\n      dup1\n      swap2\n      sub\n      swap1\n      revert\n    tag_313:\n        /* \"contracts/core/MPensionVault.sol\":4266:4290  MPScheduleStatus.SETTLED */\n      0x01\n        /* \"contracts/core/MPensionVault.sol\":4248:4290  scheduleStatus != MPScheduleStatus.SETTLED */\n      dup1\n      dup2\n      gt\n      iszero\n      tag_316\n      jumpi\n      tag_317\n      tag_93\n      jump\t// in\n    tag_317:\n    tag_316:\n        /* \"contracts/core/MPensionVault.sol\":4248:4262  scheduleStatus */\n      0x00\n      0x02\n      swap1\n      sload\n      swap1\n      0x0100\n      exp\n      swap1\n      div\n      0xff\n      and\n        /* \"contracts/core/MPensionVault.sol\":4248:4290  scheduleStatus != MPScheduleStatus.SETTLED */\n      0x01\n      dup2\n      gt\n      iszero\n      tag_318\n      jumpi\n      tag_319\n      tag_93\n      jump\t// in\n    tag_319:\n    tag_318:\n      sub\n        /* \"contracts/core/MPensionVault.sol\":4240:4310  require(scheduleStatus != MPScheduleStatus.SETTLED, \"pension settled\") */\n      tag_320\n      jumpi\n      mload(0x40)\n      0x08c379a000000000000000000000000000000000000000000000000000000000\n      dup2\n      mstore\n      0x04\n      add\n      tag_321\n      swap1\n      tag_322\n      jump\t// in\n    tag_321:\n      mload(0x40)\n      dup1\n      swap2\n      sub\n      swap1\n      revert\n    tag_320:\n        /* \"contracts/core/MPensionVault.sol\":4323:4341  uint256 emmission_ */\n      0x00\n        /* \"contracts/core/MPensionVault.sol\":4344:4352  pension_ */\n      dup2\n        /* \"contracts/core/MPensionVault.sol\":4344:4360  pension_.product */\n      0xe0\n      add\n      mload\n        /* \"contracts/core/MPensionVault.sol\":4344:4377  pension_.product.emissionSchedule */\n      0x0120\n      add\n      mload\n        /* \"contracts/core/MPensionVault.sol\":4344:4391  pension_.product.emissionSchedule.minimumAmount */\n      0x40\n      add\n      mload\n        /* \"contracts/core/MPensionVault.sol\":4323:4391  uint256 emmission_ = pension_.product.emissionSchedule.minimumAmount */\n      swap1\n      pop\n        /* \"contracts/core/MPensionVault.sol\":4430:4440  emmission_ */\n      dup1\n        /* \"contracts/core/MPensionVault.sol\":4412:4426  pensionBalance */\n      sload(0x02)\n        /* \"contracts/core/MPensionVault.sol\":4412:4440  pensionBalance >= emmission_ */\n      lt\n      iszero\n        /* \"contracts/core/MPensionVault.sol\":4404:4475  require(pensionBalance >= emmission_, \"insufficient emmission balance\") */\n      tag_323\n      jumpi\n      mload(0x40)\n      0x08c379a000000000000000000000000000000000000000000000000000000000\n      dup2\n      mstore\n      0x04\n      add\n      tag_324\n      swap1\n      tag_325\n      jump\t// in\n    tag_324:\n      mload(0x40)\n      dup1\n      swap2\n      sub\n      swap1\n      revert\n    tag_323:\n        /* \"contracts/core/MPensionVault.sol\":4493:4507  address owner_ */\n      0x00\n        /* \"contracts/core/MPensionVault.sol\":4510:4518  pension_ */\n      dup3\n        /* \"contracts/core/MPensionVault.sol\":4510:4524  pension_.owner */\n      0x40\n      add\n      mload\n        /* \"contracts/core/MPensionVault.sol\":4493:4524  address owner_ = pension_.owner */\n      swap1\n      pop\n        /* \"contracts/core/MPensionVault.sol\":4554:4564  emmission_ */\n      dup2\n        /* \"contracts/core/MPensionVault.sol\":4536:4550  pensionBalance */\n      0x02\n      0x00\n        /* \"contracts/core/MPensionVault.sol\":4536:4564  pensionBalance -= emmission_ */\n      dup3\n      dup3\n      sload\n      tag_326\n      swap2\n      swap1\n      tag_234\n      jump\t// in\n    tag_326:\n      swap3\n      pop\n      pop\n      dup2\n      swap1\n      sstore\n      pop\n        /* \"contracts/core/MPensionVault.sol\":1009:1051  0xEeeeeEeeeEeEeeEeEeEeeEEEeeeeEeeeeeeeEEeE */\n      0xeeeeeeeeeeeeeeeeeeeeeeeeeeeeeeeeeeeeeeee\n        /* \"contracts/core/MPensionVault.sol\":4581:4613  pension_.product.erc20 == NATIVE */\n      0xffffffffffffffffffffffffffffffffffffffff\n      and\n        /* \"contracts/core/MPensionVault.sol\":4581:4589  pension_ */\n      dup4\n        /* \"contracts/core/MPensionVault.sol\":4581:4597  pension_.product */\n      0xe0\n      add\n      mload\n        /* \"contracts/core/MPensionVault.sol\":4581:4603  pension_.product.erc20 */\n      0x40\n      add\n      mload\n        /* \"contracts/core/MPensionVault.sol\":4581:4613  pension_.product.erc20 == NATIVE */\n      0xffffffffffffffffffffffffffffffffffffffff\n      and\n      sub\n        /* \"contracts/core/MPensionVault.sol\":4578:4818  if(pension_.product.erc20 == NATIVE) {... */\n      tag_327\n      jumpi\n        /* \"contracts/core/MPensionVault.sol\":4638:4644  owner_ */\n      dup1\n        /* \"contracts/core/MPensionVault.sol\":4630:4654  payable(owner_).transfer */\n      0xffffffffffffffffffffffffffffffffffffffff\n      and\n        /* \"contracts/core/MPensionVault.sol\":4630:4666  payable(owner_).transfer(emmission_) */\n      0x08fc\n        /* \"contracts/core/MPensionVault.sol\":4655:4665  emmission_ */\n      dup4\n        /* \"contracts/core/MPensionVault.sol\":4630:4666  payable(owner_).transfer(emmission_) */\n      swap1\n      dup2\n      iszero\n      mul\n      swap1\n      mload(0x40)\n      0x00\n      mload(0x40)\n      dup1\n      dup4\n      sub\n      dup2\n      dup6\n      dup9\n      dup9\n      call\n      swap4\n      pop\n      pop\n      pop\n      pop\n      iszero\n      dup1\n      iszero\n      tag_329\n      jumpi\n      returndatacopy(0x00, 0x00, returndatasize)\n      revert(0x00, returndatasize)\n    tag_329:\n      pop\n        /* \"contracts/core/MPensionVault.sol\":4578:4818  if(pension_.product.erc20 == NATIVE) {... */\n      jump(tag_330)\n    tag_327:\n        /* \"contracts/core/MPensionVault.sol\":4709:4722  IERC20 erc20_ */\n      0x00\n        /* \"contracts/core/MPensionVault.sol\":4732:4740  pension_ */\n      dup4\n        /* \"contracts/core/MPensionVault.sol\":4732:4748  pension_.product */\n      0xe0\n      add\n      mload\n        /* \"contracts/core/MPensionVault.sol\":4732:4754  pension_.product.erc20 */\n      0x40\n      add\n      mload\n        /* \"contracts/core/MPensionVault.sol\":4709:4755  IERC20 erc20_ = IERC20(pension_.product.erc20) */\n      swap1\n      pop\n        /* \"contracts/core/MPensionVault.sol\":4770:4776  erc20_ */\n      dup1\n        /* \"contracts/core/MPensionVault.sol\":4770:4785  erc20_.transfer */\n      0xffffffffffffffffffffffffffffffffffffffff\n      and\n      0xa9059cbb\n        /* \"contracts/core/MPensionVault.sol\":4786:4792  owner_ */\n      dup4\n        /* \"contracts/core/MPensionVault.sol\":4794:4804  emmission_ */\n      dup6\n        /* \"contracts/core/MPensionVault.sol\":4770:4805  erc20_.transfer(owner_, emmission_) */\n      mload(0x40)\n      dup4\n      0xffffffff\n      and\n      0xe0\n      shl\n      dup2\n      mstore\n      0x04\n      add\n      tag_331\n      swap3\n      swap2\n      swap1\n      tag_125\n      jump\t// in\n    tag_331:\n      0x20\n      mload(0x40)\n      dup1\n      dup4\n      sub\n      dup2\n      0x00\n      dup8\n      gas\n      call\n      iszero\n      dup1\n      iszero\n      tag_333\n      jumpi\n      returndatacopy(0x00, 0x00, returndatasize)\n      revert(0x00, returndatasize)\n    tag_333:\n      pop\n      pop\n      pop\n      pop\n      mload(0x40)\n      returndatasize\n      not(0x1f)\n      0x1f\n      dup3\n      add\n      and\n      dup3\n      add\n      dup1\n      0x40\n      mstore\n      pop\n      dup2\n      add\n      swap1\n      tag_334\n      swap2\n      swap1\n      tag_129\n      jump\t// in\n    tag_334:\n      pop\n        /* \"contracts/core/MPensionVault.sol\":4693:4818  { ... */\n      pop\n        /* \"contracts/core/MPensionVault.sol\":4578:4818  if(pension_.product.erc20 == NATIVE) {... */\n    tag_330:\n        /* \"contracts/core/MPensionVault.sol\":4828:4845  checkSettlement() */\n      tag_335\n        /* \"contracts/core/MPensionVault.sol\":4828:4843  checkSettlement */\n      tag_336\n        /* \"contracts/core/MPensionVault.sol\":4828:4845  checkSettlement() */\n      jump\t// in\n    tag_335:\n        /* \"contracts/core/MPensionVault.sol\":4864:4933  addTx(TxType.DRAWDOWN, pensionId, emmission_, pension_.product.erc20) */\n      tag_337\n        /* \"contracts/core/MPensionVault.sol\":4870:4885  TxType.DRAWDOWN */\n      0x02\n        /* \"contracts/core/MPensionVault.sol\":4887:4896  pensionId */\n      immutable(\"0x0697183ae8eedd43b56f90cfa450ea6e3ac27fb69f1056ee33ccc5a9587bcd2a\")\n        /* \"contracts/core/MPensionVault.sol\":4898:4908  emmission_ */\n      dup5\n        /* \"contracts/core/MPensionVault.sol\":4910:4918  pension_ */\n      dup7\n        /* \"contracts/core/MPensionVault.sol\":4910:4926  pension_.product */\n      0xe0\n      add\n      mload\n        /* \"contracts/core/MPensionVault.sol\":4910:4932  pension_.product.erc20 */\n      0x40\n      add\n      mload\n        /* \"contracts/core/MPensionVault.sol\":4864:4869  addTx */\n      tag_131\n        /* \"contracts/core/MPensionVault.sol\":4864:4933  addTx(TxType.DRAWDOWN, pensionId, emmission_, pension_.product.erc20) */\n      jump\t// in\n    tag_337:\n        /* \"contracts/core/MPensionVault.sol\":4856:4933  _txId = addTx(TxType.DRAWDOWN, pensionId, emmission_, pension_.product.erc20) */\n      swap4\n      pop\n        /* \"contracts/core/MPensionVault.sol\":4953:4958  false */\n      0x00\n        /* \"contracts/core/MPensionVault.sol\":4944:4950  locked */\n      0x00\n      0x00\n        /* \"contracts/core/MPensionVault.sol\":4944:4958  locked = false */\n      0x0100\n      exp\n      dup2\n      sload\n      dup2\n      0xff\n      mul\n      not\n      and\n      swap1\n      dup4\n      iszero\n      iszero\n      mul\n      or\n      swap1\n      sstore\n      pop\n        /* \"contracts/core/MPensionVault.sol\":4987:4999  return _txId */\n      pop\n      pop\n      pop\n        /* \"contracts/core/MPensionVault.sol\":3992:5009  function drawdown() external ownerOnly semaphore returns (uint256 _txId){... */\n      swap1\n      jump\t// out\n        /* \"contracts/core/MPensionVault.sol\":9819:10042  function getPensionInternal() view internal returns (MPension memory _mPension){ ... */\n    tag_101:\n        /* \"contracts/core/MPensionVault.sol\":9872:9897  MPension memory _mPension */\n      tag_338\n      tag_199\n      jump\t// in\n    tag_338:\n        /* \"contracts/core/MPensionVault.sol\":9942:9950  register */\n      0x00\n      0x03\n      swap1\n      sload\n      swap1\n      0x0100\n      exp\n      swap1\n      div\n      0xffffffffffffffffffffffffffffffffffffffff\n      and\n        /* \"contracts/core/MPensionVault.sol\":9942:9961  register.getAddress */\n      0xffffffffffffffffffffffffffffffffffffffff\n      and\n      0xbf40fac1\n        /* \"contracts/core/MPensionVault.sol\":9962:9982  MEDALION_PENSIONS_CA */\n      mload(0x40)\n      dup1\n      0x40\n      add\n      0x40\n      mstore\n      dup1\n      0x1a\n      dup2\n      mstore\n      0x20\n      add\n      0x52455345525645445f4d4544414c494f4e5f50454e53494f4e53000000000000\n      dup2\n      mstore\n      pop\n        /* \"contracts/core/MPensionVault.sol\":9942:9983  register.getAddress(MEDALION_PENSIONS_CA) */\n      mload(0x40)\n      dup3\n      0xffffffff\n      and\n      0xe0\n      shl\n      dup2\n      mstore\n      0x04\n      add\n      tag_340\n      swap2\n      swap1\n      tag_28\n      jump\t// in\n    tag_340:\n      0x20\n      mload(0x40)\n      dup1\n      dup4\n      sub\n      dup2\n      dup7\n      gas\n      staticcall\n      iszero\n      dup1\n      iszero\n      tag_342\n      jumpi\n      returndatacopy(0x00, 0x00, returndatasize)\n      revert(0x00, returndatasize)\n    tag_342:\n      pop\n      pop\n      pop\n      pop\n      mload(0x40)\n      returndatasize\n      not(0x1f)\n      0x1f\n      dup3\n      add\n      and\n      dup3\n      add\n      dup1\n      0x40\n      mstore\n      pop\n      dup2\n      add\n      swap1\n      tag_343\n      swap2\n      swap1\n      tag_83\n      jump\t// in\n    tag_343:\n        /* \"contracts/core/MPensionVault.sol\":9924:9995  IMedalionPensions(register.getAddress(MEDALION_PENSIONS_CA)).getPension */\n      0xffffffffffffffffffffffffffffffffffffffff\n      and\n      0x77bdfdf2\n        /* \"contracts/core/MPensionVault.sol\":9996:10005  pensionId */\n      immutable(\"0x0697183ae8eedd43b56f90cfa450ea6e3ac27fb69f1056ee33ccc5a9587bcd2a\")\n        /* \"contracts/core/MPensionVault.sol\":9924:10006  IMedalionPensions(register.getAddress(MEDALION_PENSIONS_CA)).getPension(pensionId) */\n      mload(0x40)\n      dup3\n      0xffffffff\n      and\n      0xe0\n      shl\n      dup2\n      mstore\n      0x04\n      add\n      tag_344\n      swap2\n      swap1\n      tag_19\n      jump\t// in\n    tag_344:\n      0x03a0\n      mload(0x40)\n      dup1\n      dup4\n      sub\n      dup2\n      dup7\n      gas\n      staticcall\n      iszero\n      dup1\n      iszero\n      tag_346\n      jumpi\n      returndatacopy(0x00, 0x00, returndatasize)\n      revert(0x00, returndatasize)\n    tag_346:\n      pop\n      pop\n      pop\n      pop\n      mload(0x40)\n      returndatasize\n      not(0x1f)\n      0x1f\n      dup3\n      add\n      and\n      dup3\n      add\n      dup1\n      0x40\n      mstore\n      pop\n      dup2\n      add\n      swap1\n      tag_347\n      swap2\n      swap1\n      tag_348\n      jump\t// in\n    tag_347:\n        /* \"contracts/core/MPensionVault.sol\":9912:10006  _mPension = IMedalionPensions(register.getAddress(MEDALION_PENSIONS_CA)).getPension(pensionId) */\n      swap1\n      pop\n        /* \"contracts/core/MPensionVault.sol\":9819:10042  function getPensionInternal() view internal returns (MPension memory _mPension){ ... */\n      swap1\n      jump\t// out\n        /* \"contracts/core/MPensionVault.sol\":8886:9128  function addTx(TxType _txType, uint256 _pensionId, uint256 _amount, address _erc20) internal returns (uint256 _txId){... */\n    tag_131:\n        /* \"contracts/core/MPensionVault.sol\":8988:9001  uint256 _txId */\n      0x00\n        /* \"contracts/core/MPensionVault.sol\":9034:9042  register */\n      0x00\n      0x03\n      swap1\n      sload\n      swap1\n      0x0100\n      exp\n      swap1\n      div\n      0xffffffffffffffffffffffffffffffffffffffff\n      and\n        /* \"contracts/core/MPensionVault.sol\":9034:9053  register.getAddress */\n      0xffffffffffffffffffffffffffffffffffffffff\n      and\n      0xbf40fac1\n        /* \"contracts/core/MPensionVault.sol\":9054:9067  TX_MANAGER_CA */\n      mload(0x40)\n      dup1\n      0x40\n      add\n      0x40\n      mstore\n      dup1\n      0x13\n      dup2\n      mstore\n      0x20\n      add\n      0x52455345525645445f54585f4d414e4147455200000000000000000000000000\n      dup2\n      mstore\n      pop\n        /* \"contracts/core/MPensionVault.sol\":9034:9068  register.getAddress(TX_MANAGER_CA) */\n      mload(0x40)\n      dup3\n      0xffffffff\n      and\n      0xe0\n      shl\n      dup2\n      mstore\n      0x04\n      add\n      tag_350\n      swap2\n      swap1\n      tag_28\n      jump\t// in\n    tag_350:\n      0x20\n      mload(0x40)\n      dup1\n      dup4\n      sub\n      dup2\n      dup7\n      gas\n      staticcall\n      iszero\n      dup1\n      iszero\n      tag_352\n      jumpi\n      returndatacopy(0x00, 0x00, returndatasize)\n      revert(0x00, returndatasize)\n    tag_352:\n      pop\n      pop\n      pop\n      pop\n      mload(0x40)\n      returndatasize\n      not(0x1f)\n      0x1f\n      dup3\n      add\n      and\n      dup3\n      add\n      dup1\n      0x40\n      mstore\n      pop\n      dup2\n      add\n      swap1\n      tag_353\n      swap2\n      swap1\n      tag_83\n      jump\t// in\n    tag_353:\n        /* \"contracts/core/MPensionVault.sol\":9021:9075  IMPTxManager(register.getAddress(TX_MANAGER_CA)).addTx */\n      0xffffffffffffffffffffffffffffffffffffffff\n      and\n      0xce351608\n        /* \"contracts/core/MPensionVault.sol\":9076:9083  _txType */\n      dup7\n        /* \"contracts/core/MPensionVault.sol\":9085:9095  _pensionId */\n      dup7\n        /* \"contracts/core/MPensionVault.sol\":9097:9101  self */\n      immutable(\"0x05dee4192aaad4acb149f9615e8a72a761fc8cdb1d8b4e9c00fe66665f5a8184\")\n        /* \"contracts/core/MPensionVault.sol\":9103:9110  _amount */\n      dup8\n        /* \"contracts/core/MPensionVault.sol\":9112:9118  _erc20 */\n      dup8\n        /* \"contracts/core/MPensionVault.sol\":9021:9119  IMPTxManager(register.getAddress(TX_MANAGER_CA)).addTx(_txType, _pensionId, self, _amount, _erc20) */\n      mload(0x40)\n      dup7\n      0xffffffff\n      and\n      0xe0\n      shl\n      dup2\n      mstore\n      0x04\n      add\n      tag_354\n      swap6\n      swap5\n      swap4\n      swap3\n      swap2\n      swap1\n      tag_355\n      jump\t// in\n    tag_354:\n      0x20\n      mload(0x40)\n      dup1\n      dup4\n      sub\n      dup2\n      0x00\n      dup8\n      gas\n      call\n      iszero\n      dup1\n      iszero\n      tag_357\n      jumpi\n      returndatacopy(0x00, 0x00, returndatasize)\n      revert(0x00, returndatasize)\n    tag_357:\n      pop\n      pop\n      pop\n      pop\n      mload(0x40)\n      returndatasize\n      not(0x1f)\n      0x1f\n      dup3\n      add\n      and\n      dup3\n      add\n      dup1\n      0x40\n      mstore\n      pop\n      dup2\n      add\n      swap1\n      tag_358\n      swap2\n      swap1\n      tag_123\n      jump\t// in\n    tag_358:\n        /* \"contracts/core/MPensionVault.sol\":9014:9119  return IMPTxManager(register.getAddress(TX_MANAGER_CA)).addTx(_txType, _pensionId, self, _amount, _erc20) */\n      swap1\n      pop\n        /* \"contracts/core/MPensionVault.sol\":8886:9128  function addTx(TxType _txType, uint256 _pensionId, uint256 _amount, address _erc20) internal returns (uint256 _txId){... */\n      swap5\n      swap4\n      pop\n      pop\n      pop\n      pop\n      jump\t// out\n        /* \"contracts/core/MPensionVault.sol\":9239:9540  function checkMaturity() internal { ... */\n    tag_238:\n        /* \"contracts/core/MPensionVault.sol\":9285:9309  MPension memory pension_ */\n      0x00\n        /* \"contracts/core/MPensionVault.sol\":9312:9332  getPensionInternal() */\n      tag_360\n        /* \"contracts/core/MPensionVault.sol\":9312:9330  getPensionInternal */\n      tag_101\n        /* \"contracts/core/MPensionVault.sol\":9312:9332  getPensionInternal() */\n      jump\t// in\n    tag_360:\n        /* \"contracts/core/MPensionVault.sol\":9285:9332  MPension memory pension_ = getPensionInternal() */\n      swap1\n      pop\n        /* \"contracts/core/MPensionVault.sol\":9366:9374  pension_ */\n      dup1\n        /* \"contracts/core/MPensionVault.sol\":9366:9382  pension_.product */\n      0xe0\n      add\n      mload\n        /* \"contracts/core/MPensionVault.sol\":9366:9403  pension_.product.contributionSchedule */\n      0x0100\n      add\n      mload\n        /* \"contracts/core/MPensionVault.sol\":9366:9415  pension_.product.contributionSchedule.totalAmount */\n      0xa0\n      add\n      mload\n        /* \"contracts/core/MPensionVault.sol\":9348:9362  pensionBalance */\n      sload(0x02)\n        /* \"contracts/core/MPensionVault.sol\":9348:9415  pensionBalance >= pension_.product.contributionSchedule.totalAmount */\n      lt\n        /* \"contracts/core/MPensionVault.sol\":9345:9533  if(pensionBalance >= pension_.product.contributionSchedule.totalAmount) { ... */\n      tag_361\n      jumpi\n        /* \"contracts/core/MPensionVault.sol\":9450:9474  MPScheduleStatus.MATURED */\n      0x00\n        /* \"contracts/core/MPensionVault.sol\":9433:9447  scheduleStatus */\n      0x00\n      0x02\n        /* \"contracts/core/MPensionVault.sol\":9433:9474  scheduleStatus = MPScheduleStatus.MATURED */\n      0x0100\n      exp\n      dup2\n      sload\n      dup2\n      0xff\n      mul\n      not\n      and\n      swap1\n      dup4\n      0x01\n      dup2\n      gt\n      iszero\n      tag_362\n      jumpi\n      tag_363\n      tag_93\n      jump\t// in\n    tag_363:\n    tag_362:\n      mul\n      or\n      swap1\n      sstore\n      pop\n        /* \"contracts/core/MPensionVault.sol\":9499:9520  MPStatus.DISBURSEMENT */\n      0x01\n        /* \"contracts/core/MPensionVault.sol\":9490:9496  status */\n      0x00\n      0x01\n        /* \"contracts/core/MPensionVault.sol\":9490:9520  status = MPStatus.DISBURSEMENT */\n      0x0100\n      exp\n      dup2\n      sload\n      dup2\n      0xff\n      mul\n      not\n      and\n      swap1\n      dup4\n      0x03\n      dup2\n      gt\n      iszero\n      tag_364\n      jumpi\n      tag_365\n      tag_93\n      jump\t// in\n    tag_365:\n    tag_364:\n      mul\n      or\n      swap1\n      sstore\n      pop\n        /* \"contracts/core/MPensionVault.sol\":9345:9533  if(pensionBalance >= pension_.product.contributionSchedule.totalAmount) { ... */\n    tag_361:\n        /* \"contracts/core/MPensionVault.sol\":9273:9540  { ... */\n      pop\n        /* \"contracts/core/MPensionVault.sol\":9239:9540  function checkMaturity() internal { ... */\n      jump\t// out\n        /* \"contracts/core/MPensionVault.sol\":10050:10603  function getSeconds(Schedule _schedule) pure internal returns (uint256 _seconds){... */\n    tag_273:\n        /* \"contracts/core/MPensionVault.sol\":10113:10129  uint256 _seconds */\n      0x00\n        /* \"contracts/core/MPensionVault.sol\":10152:10160  60*60*24 */\n      0x015180\n        /* \"contracts/core/MPensionVault.sol\":10141:10160  _seconds = 60*60*24 */\n      swap1\n      pop\n        /* \"contracts/core/MPensionVault.sol\":10188:10202  Schedule.DAILY */\n      0x00\n        /* \"contracts/core/MPensionVault.sol\":10175:10202  _schedule == Schedule.DAILY */\n      0x03\n      dup2\n      gt\n      iszero\n      tag_367\n      jumpi\n      tag_368\n      tag_93\n      jump\t// in\n    tag_368:\n    tag_367:\n        /* \"contracts/core/MPensionVault.sol\":10175:10184  _schedule */\n      dup3\n        /* \"contracts/core/MPensionVault.sol\":10175:10202  _schedule == Schedule.DAILY */\n      0x03\n      dup2\n      gt\n      iszero\n      tag_369\n      jumpi\n      tag_370\n      tag_93\n      jump\t// in\n    tag_370:\n    tag_369:\n      sub\n        /* \"contracts/core/MPensionVault.sol\":10172:10245  if(_schedule == Schedule.DAILY){... */\n      iszero\n        /* \"contracts/core/MPensionVault.sol\":10218:10233  return _seconds */\n      tag_366\n        /* \"contracts/core/MPensionVault.sol\":10172:10245  if(_schedule == Schedule.DAILY){... */\n      jumpi\n        /* \"contracts/core/MPensionVault.sol\":10267:10268  7 */\n      0x07\n        /* \"contracts/core/MPensionVault.sol\":10255:10268  _seconds *= 7 */\n      dup2\n      tag_372\n      swap2\n      swap1\n      tag_373\n      jump\t// in\n    tag_372:\n      swap1\n      pop\n        /* \"contracts/core/MPensionVault.sol\":10296:10311  Schedule.WEEKLY */\n      0x01\n        /* \"contracts/core/MPensionVault.sol\":10283:10311  _schedule == Schedule.WEEKLY */\n      0x03\n      dup2\n      gt\n      iszero\n      tag_374\n      jumpi\n      tag_375\n      tag_93\n      jump\t// in\n    tag_375:\n    tag_374:\n        /* \"contracts/core/MPensionVault.sol\":10283:10292  _schedule */\n      dup3\n        /* \"contracts/core/MPensionVault.sol\":10283:10311  _schedule == Schedule.WEEKLY */\n      0x03\n      dup2\n      gt\n      iszero\n      tag_376\n      jumpi\n      tag_377\n      tag_93\n      jump\t// in\n    tag_377:\n    tag_376:\n      sub\n        /* \"contracts/core/MPensionVault.sol\":10280:10354  if(_schedule == Schedule.WEEKLY){... */\n      iszero\n        /* \"contracts/core/MPensionVault.sol\":10327:10342  return _seconds */\n      tag_366\n        /* \"contracts/core/MPensionVault.sol\":10280:10354  if(_schedule == Schedule.WEEKLY){... */\n      jumpi\n        /* \"contracts/core/MPensionVault.sol\":10376:10377  4 */\n      0x04\n        /* \"contracts/core/MPensionVault.sol\":10364:10377  _seconds *= 4 */\n      dup2\n      tag_379\n      swap2\n      swap1\n      tag_373\n      jump\t// in\n    tag_379:\n      swap1\n      pop\n        /* \"contracts/core/MPensionVault.sol\":10404:10420  Schedule.MONTHLY */\n      0x02\n        /* \"contracts/core/MPensionVault.sol\":10391:10420  _schedule == Schedule.MONTHLY */\n      0x03\n      dup2\n      gt\n      iszero\n      tag_380\n      jumpi\n      tag_381\n      tag_93\n      jump\t// in\n    tag_381:\n    tag_380:\n        /* \"contracts/core/MPensionVault.sol\":10391:10400  _schedule */\n      dup3\n        /* \"contracts/core/MPensionVault.sol\":10391:10420  _schedule == Schedule.MONTHLY */\n      0x03\n      dup2\n      gt\n      iszero\n      tag_382\n      jumpi\n      tag_383\n      tag_93\n      jump\t// in\n    tag_383:\n    tag_382:\n      sub\n        /* \"contracts/core/MPensionVault.sol\":10388:10463  if(_schedule == Schedule.MONTHLY){... */\n      iszero\n        /* \"contracts/core/MPensionVault.sol\":10436:10451  return _seconds */\n      tag_366\n        /* \"contracts/core/MPensionVault.sol\":10388:10463  if(_schedule == Schedule.MONTHLY){... */\n      jumpi\n        /* \"contracts/core/MPensionVault.sol\":10485:10486  3 */\n      0x03\n        /* \"contracts/core/MPensionVault.sol\":10473:10486  _seconds *= 3 */\n      dup2\n      tag_385\n      swap2\n      swap1\n      tag_373\n      jump\t// in\n    tag_385:\n      swap1\n      pop\n        /* \"contracts/core/MPensionVault.sol\":10514:10532  Schedule.QUARTERLY */\n      0x03\n        /* \"contracts/core/MPensionVault.sol\":10501:10532  _schedule == Schedule.QUARTERLY */\n      dup1\n      dup2\n      gt\n      iszero\n      tag_386\n      jumpi\n      tag_387\n      tag_93\n      jump\t// in\n    tag_387:\n    tag_386:\n        /* \"contracts/core/MPensionVault.sol\":10501:10510  _schedule */\n      dup3\n        /* \"contracts/core/MPensionVault.sol\":10501:10532  _schedule == Schedule.QUARTERLY */\n      0x03\n      dup2\n      gt\n      iszero\n      tag_388\n      jumpi\n      tag_389\n      tag_93\n      jump\t// in\n    tag_389:\n    tag_388:\n      sub\n        /* \"contracts/core/MPensionVault.sol\":10498:10576  if(_schedule == Schedule.QUARTERLY){... */\n      iszero\n        /* \"contracts/core/MPensionVault.sol\":10549:10564  return _seconds */\n      tag_366\n        /* \"contracts/core/MPensionVault.sol\":10498:10576  if(_schedule == Schedule.QUARTERLY){... */\n      jumpi\n        /* \"contracts/core/MPensionVault.sol\":10593:10594  0 */\n      0x00\n        /* \"contracts/core/MPensionVault.sol\":10586:10594  return 0 */\n      swap1\n      pop\n        /* \"contracts/core/MPensionVault.sol\":10050:10603  function getSeconds(Schedule _schedule) pure internal returns (uint256 _seconds){... */\n    tag_366:\n      swap2\n      swap1\n      pop\n      jump\t// out\n        /* \"contracts/core/MPensionVault.sol\":9548:9811  function checkSettlement() internal { ... */\n    tag_336:\n        /* \"contracts/core/MPensionVault.sol\":9596:9620  MPension memory pension_ */\n      0x00\n        /* \"contracts/core/MPensionVault.sol\":9623:9643  getPensionInternal() */\n      tag_392\n        /* \"contracts/core/MPensionVault.sol\":9623:9641  getPensionInternal */\n      tag_101\n        /* \"contracts/core/MPensionVault.sol\":9623:9643  getPensionInternal() */\n      jump\t// in\n    tag_392:\n        /* \"contracts/core/MPensionVault.sol\":9596:9643  MPension memory pension_ = getPensionInternal() */\n      swap1\n      pop\n        /* \"contracts/core/MPensionVault.sol\":9678:9686  pension_ */\n      dup1\n        /* \"contracts/core/MPensionVault.sol\":9678:9694  pension_.product */\n      0xe0\n      add\n      mload\n        /* \"contracts/core/MPensionVault.sol\":9678:9711  pension_.product.emissionSchedule */\n      0x0120\n      add\n      mload\n        /* \"contracts/core/MPensionVault.sol\":9678:9723  pension_.product.emissionSchedule.totalAmount */\n      0xa0\n      add\n      mload\n        /* \"contracts/core/MPensionVault.sol\":9659:9674  emissionBalance */\n      sload(0x03)\n        /* \"contracts/core/MPensionVault.sol\":9659:9723  emissionBalance >= pension_.product.emissionSchedule.totalAmount */\n      lt\n        /* \"contracts/core/MPensionVault.sol\":9656:9794  if(emissionBalance >= pension_.product.emissionSchedule.totalAmount ) {... */\n      tag_393\n      jumpi\n        /* \"contracts/core/MPensionVault.sol\":9758:9782  MPScheduleStatus.SETTLED */\n      0x01\n        /* \"contracts/core/MPensionVault.sol\":9741:9755  scheduleStatus */\n      0x00\n      0x02\n        /* \"contracts/core/MPensionVault.sol\":9741:9782  scheduleStatus = MPScheduleStatus.SETTLED */\n      0x0100\n      exp\n      dup2\n      sload\n      dup2\n      0xff\n      mul\n      not\n      and\n      swap1\n      dup4\n      0x01\n      dup2\n      gt\n      iszero\n      tag_394\n      jumpi\n      tag_395\n      tag_93\n      jump\t// in\n    tag_395:\n    tag_394:\n      mul\n      or\n      swap1\n      sstore\n      pop\n        /* \"contracts/core/MPensionVault.sol\":9656:9794  if(emissionBalance >= pension_.product.emissionSchedule.totalAmount ) {... */\n    tag_393:\n        /* \"contracts/core/MPensionVault.sol\":9584:9811  { ... */\n      pop\n        /* \"contracts/core/MPensionVault.sol\":9548:9811  function checkSettlement() internal { ... */\n      jump\t// out\n    tag_199:\n      mload(0x40)\n      dup1\n      0x0100\n      add\n      0x40\n      mstore\n      dup1\n      0x00\n      dup2\n      mstore\n      0x20\n      add\n      and(0xffffffffffffffffffffffffffffffffffffffff, 0x00)\n      dup2\n      mstore\n      0x20\n      add\n      and(0xffffffffffffffffffffffffffffffffffffffff, 0x00)\n      dup2\n      mstore\n      0x20\n      add\n      and(0xffffffffffffffffffffffffffffffffffffffff, 0x00)\n      dup2\n      mstore\n      0x20\n      add\n      and(0xffffffffffffffffffffffffffffffffffffffff, 0x00)\n      dup2\n      mstore\n      0x20\n      add\n      0x00\n      dup2\n      mstore\n      0x20\n      add\n      0x00\n      dup2\n      mstore\n      0x20\n      add\n      tag_396\n      tag_397\n      jump\t// in\n    tag_396:\n      dup2\n      mstore\n      pop\n      swap1\n      jump\t// out\n    tag_397:\n      mload(0x40)\n      dup1\n      0x0160\n      add\n      0x40\n      mstore\n      dup1\n      0x00\n      dup2\n      mstore\n      0x20\n      add\n      and(0xffffffffffffffffffffffffffffffffffffffff, 0x00)\n      dup2\n      mstore\n      0x20\n      add\n      and(0xffffffffffffffffffffffffffffffffffffffff, 0x00)\n      dup2\n      mstore\n      0x20\n      add\n      0x00\n      dup2\n      mstore\n      0x20\n      add\n      0x00\n      dup2\n      mstore\n      0x20\n      add\n      0x00\n      0x02\n      dup2\n      gt\n      iszero\n      tag_398\n      jumpi\n      tag_399\n      tag_93\n      jump\t// in\n    tag_399:\n    tag_398:\n      dup2\n      mstore\n      0x20\n      add\n      and(0xffffffffffffffffffffffffffffffffffffffff, 0x00)\n      dup2\n      mstore\n      0x20\n      add\n      0x00\n      0x01\n      dup2\n      gt\n      iszero\n      tag_400\n      jumpi\n      tag_401\n      tag_93\n      jump\t// in\n    tag_401:\n    tag_400:\n      dup2\n      mstore\n      0x20\n      add\n      tag_402\n      tag_403\n      jump\t// in\n    tag_402:\n      dup2\n      mstore\n      0x20\n      add\n      tag_404\n      tag_403\n      jump\t// in\n    tag_404:\n      dup2\n      mstore\n      0x20\n      add\n      tag_405\n      tag_406\n      jump\t// in\n    tag_405:\n      dup2\n      mstore\n      pop\n      swap1\n      jump\t// out\n    tag_403:\n      mload(0x40)\n      dup1\n      0xc0\n      add\n      0x40\n      mstore\n      dup1\n      0x00\n      0x03\n      dup2\n      gt\n      iszero\n      tag_407\n      jumpi\n      tag_408\n      tag_93\n      jump\t// in\n    tag_408:\n    tag_407:\n      dup2\n      mstore\n      0x20\n      add\n      0x00\n      dup2\n      mstore\n      0x20\n      add\n      0x00\n      dup2\n      mstore\n      0x20\n      add\n      0x00\n      dup2\n      mstore\n      0x20\n      add\n      0x00\n      dup2\n      mstore\n      0x20\n      add\n      0x00\n      dup2\n      mstore\n      pop\n      swap1\n      jump\t// out\n    tag_406:\n      mload(0x40)\n      dup1\n      0x40\n      add\n      0x40\n      mstore\n      dup1\n      0x00\n      dup2\n      mstore\n      0x20\n      add\n      0x00\n      dup2\n      mstore\n      pop\n      swap1\n      jump\t// out\n        /* \"#utility.yul\":7:84   */\n    tag_409:\n        /* \"#utility.yul\":44:51   */\n      0x00\n        /* \"#utility.yul\":73:78   */\n      dup2\n        /* \"#utility.yul\":62:78   */\n      swap1\n      pop\n        /* \"#utility.yul\":7:84   */\n      swap2\n      swap1\n      pop\n      jump\t// out\n        /* \"#utility.yul\":90:208   */\n    tag_410:\n        /* \"#utility.yul\":177:201   */\n      tag_524\n        /* \"#utility.yul\":195:200   */\n      dup2\n        /* \"#utility.yul\":177:201   */\n      tag_409\n      jump\t// in\n    tag_524:\n        /* \"#utility.yul\":172:175   */\n      dup3\n        /* \"#utility.yul\":165:202   */\n      mstore\n        /* \"#utility.yul\":90:208   */\n      pop\n      pop\n      jump\t// out\n        /* \"#utility.yul\":214:436   */\n    tag_19:\n        /* \"#utility.yul\":307:311   */\n      0x00\n        /* \"#utility.yul\":345:347   */\n      0x20\n        /* \"#utility.yul\":334:343   */\n      dup3\n        /* \"#utility.yul\":330:348   */\n      add\n        /* \"#utility.yul\":322:348   */\n      swap1\n      pop\n        /* \"#utility.yul\":358:429   */\n      tag_526\n        /* \"#utility.yul\":426:427   */\n      0x00\n        /* \"#utility.yul\":415:424   */\n      dup4\n        /* \"#utility.yul\":411:428   */\n      add\n        /* \"#utility.yul\":402:408   */\n      dup5\n        /* \"#utility.yul\":358:429   */\n      tag_410\n      jump\t// in\n    tag_526:\n        /* \"#utility.yul\":214:436   */\n      swap3\n      swap2\n      pop\n      pop\n      jump\t// out\n        /* \"#utility.yul\":442:541   */\n    tag_411:\n        /* \"#utility.yul\":494:500   */\n      0x00\n        /* \"#utility.yul\":528:533   */\n      dup2\n        /* \"#utility.yul\":522:534   */\n      mload\n        /* \"#utility.yul\":512:534   */\n      swap1\n      pop\n        /* \"#utility.yul\":442:541   */\n      swap2\n      swap1\n      pop\n      jump\t// out\n        /* \"#utility.yul\":547:716   */\n    tag_412:\n        /* \"#utility.yul\":631:642   */\n      0x00\n        /* \"#utility.yul\":665:671   */\n      dup3\n        /* \"#utility.yul\":660:663   */\n      dup3\n        /* \"#utility.yul\":653:672   */\n      mstore\n        /* \"#utility.yul\":705:709   */\n      0x20\n        /* \"#utility.yul\":700:703   */\n      dup3\n        /* \"#utility.yul\":696:710   */\n      add\n        /* \"#utility.yul\":681:710   */\n      swap1\n      pop\n        /* \"#utility.yul\":547:716   */\n      swap3\n      swap2\n      pop\n      pop\n      jump\t// out\n        /* \"#utility.yul\":722:861   */\n    tag_413:\n        /* \"#utility.yul\":811:817   */\n      dup3\n        /* \"#utility.yul\":806:809   */\n      dup2\n        /* \"#utility.yul\":801:804   */\n      dup4\n        /* \"#utility.yul\":795:818   */\n      mcopy\n        /* \"#utility.yul\":852:853   */\n      0x00\n        /* \"#utility.yul\":843:849   */\n      dup4\n        /* \"#utility.yul\":838:841   */\n      dup4\n        /* \"#utility.yul\":834:850   */\n      add\n        /* \"#utility.yul\":827:854   */\n      mstore\n        /* \"#utility.yul\":722:861   */\n      pop\n      pop\n      pop\n      jump\t// out\n        /* \"#utility.yul\":867:969   */\n    tag_414:\n        /* \"#utility.yul\":908:914   */\n      0x00\n        /* \"#utility.yul\":959:961   */\n      0x1f\n        /* \"#utility.yul\":955:962   */\n      not\n        /* \"#utility.yul\":950:952   */\n      0x1f\n        /* \"#utility.yul\":943:948   */\n      dup4\n        /* \"#utility.yul\":939:953   */\n      add\n        /* \"#utility.yul\":935:963   */\n      and\n        /* \"#utility.yul\":925:963   */\n      swap1\n      pop\n        /* \"#utility.yul\":867:969   */\n      swap2\n      swap1\n      pop\n      jump\t// out\n        /* \"#utility.yul\":975:1352   */\n    tag_415:\n        /* \"#utility.yul\":1063:1066   */\n      0x00\n        /* \"#utility.yul\":1091:1130   */\n      tag_532\n        /* \"#utility.yul\":1124:1129   */\n      dup3\n        /* \"#utility.yul\":1091:1130   */\n      tag_411\n      jump\t// in\n    tag_532:\n        /* \"#utility.yul\":1146:1217   */\n      tag_533\n        /* \"#utility.yul\":1210:1216   */\n      dup2\n        /* \"#utility.yul\":1205:1208   */\n      dup6\n        /* \"#utility.yul\":1146:1217   */\n      tag_412\n      jump\t// in\n    tag_533:\n        /* \"#utility.yul\":1139:1217   */\n      swap4\n      pop\n        /* \"#utility.yul\":1226:1291   */\n      tag_534\n        /* \"#utility.yul\":1284:1290   */\n      dup2\n        /* \"#utility.yul\":1279:1282   */\n      dup6\n        /* \"#utility.yul\":1272:1276   */\n      0x20\n        /* \"#utility.yul\":1265:1270   */\n      dup7\n        /* \"#utility.yul\":1261:1277   */\n      add\n        /* \"#utility.yul\":1226:1291   */\n      tag_413\n      jump\t// in\n    tag_534:\n        /* \"#utility.yul\":1316:1345   */\n      tag_535\n        /* \"#utility.yul\":1338:1344   */\n      dup2\n        /* \"#utility.yul\":1316:1345   */\n      tag_414\n      jump\t// in\n    tag_535:\n        /* \"#utility.yul\":1311:1314   */\n      dup5\n        /* \"#utility.yul\":1307:1346   */\n      add\n        /* \"#utility.yul\":1300:1346   */\n      swap2\n      pop\n        /* \"#utility.yul\":1067:1352   */\n      pop\n        /* \"#utility.yul\":975:1352   */\n      swap3\n      swap2\n      pop\n      pop\n      jump\t// out\n        /* \"#utility.yul\":1358:1671   */\n    tag_28:\n        /* \"#utility.yul\":1471:1475   */\n      0x00\n        /* \"#utility.yul\":1509:1511   */\n      0x20\n        /* \"#utility.yul\":1498:1507   */\n      dup3\n        /* \"#utility.yul\":1494:1512   */\n      add\n        /* \"#utility.yul\":1486:1512   */\n      swap1\n      pop\n        /* \"#utility.yul\":1558:1567   */\n      dup2\n        /* \"#utility.yul\":1552:1556   */\n      dup2\n        /* \"#utility.yul\":1548:1568   */\n      sub\n        /* \"#utility.yul\":1544:1545   */\n      0x00\n        /* \"#utility.yul\":1533:1542   */\n      dup4\n        /* \"#utility.yul\":1529:1546   */\n      add\n        /* \"#utility.yul\":1522:1569   */\n      mstore\n        /* \"#utility.yul\":1586:1664   */\n      tag_537\n        /* \"#utility.yul\":1659:1663   */\n      dup2\n        /* \"#utility.yul\":1650:1656   */\n      dup5\n        /* \"#utility.yul\":1586:1664   */\n      tag_415\n      jump\t// in\n    tag_537:\n        /* \"#utility.yul\":1578:1664   */\n      swap1\n      pop\n        /* \"#utility.yul\":1358:1671   */\n      swap3\n      swap2\n      pop\n      pop\n      jump\t// out\n        /* \"#utility.yul\":1677:1752   */\n    tag_416:\n        /* \"#utility.yul\":1710:1716   */\n      0x00\n        /* \"#utility.yul\":1743:1745   */\n      0x40\n        /* \"#utility.yul\":1737:1746   */\n      mload\n        /* \"#utility.yul\":1727:1746   */\n      swap1\n      pop\n        /* \"#utility.yul\":1677:1752   */\n      swap1\n      jump\t// out\n        /* \"#utility.yul\":1758:1875   */\n    tag_417:\n        /* \"#utility.yul\":1867:1868   */\n      0x00\n        /* \"#utility.yul\":1864:1865   */\n      0x00\n        /* \"#utility.yul\":1857:1869   */\n      revert\n        /* \"#utility.yul\":2004:2126   */\n    tag_419:\n        /* \"#utility.yul\":2077:2101   */\n      tag_542\n        /* \"#utility.yul\":2095:2100   */\n      dup2\n        /* \"#utility.yul\":2077:2101   */\n      tag_409\n      jump\t// in\n    tag_542:\n        /* \"#utility.yul\":2070:2075   */\n      dup2\n        /* \"#utility.yul\":2067:2102   */\n      eq\n        /* \"#utility.yul\":2057:2120   */\n      tag_543\n      jumpi\n        /* \"#utility.yul\":2116:2117   */\n      0x00\n        /* \"#utility.yul\":2113:2114   */\n      0x00\n        /* \"#utility.yul\":2106:2118   */\n      revert\n        /* \"#utility.yul\":2057:2120   */\n    tag_543:\n        /* \"#utility.yul\":2004:2126   */\n      pop\n      jump\t// out\n        /* \"#utility.yul\":2132:2271   */\n    tag_420:\n        /* \"#utility.yul\":2178:2183   */\n      0x00\n        /* \"#utility.yul\":2216:2222   */\n      dup2\n        /* \"#utility.yul\":2203:2223   */\n      calldataload\n        /* \"#utility.yul\":2194:2223   */\n      swap1\n      pop\n        /* \"#utility.yul\":2232:2265   */\n      tag_545\n        /* \"#utility.yul\":2259:2264   */\n      dup2\n        /* \"#utility.yul\":2232:2265   */\n      tag_419\n      jump\t// in\n    tag_545:\n        /* \"#utility.yul\":2132:2271   */\n      swap3\n      swap2\n      pop\n      pop\n      jump\t// out\n        /* \"#utility.yul\":2277:2606   */\n    tag_36:\n        /* \"#utility.yul\":2336:2342   */\n      0x00\n        /* \"#utility.yul\":2385:2387   */\n      0x20\n        /* \"#utility.yul\":2373:2382   */\n      dup3\n        /* \"#utility.yul\":2364:2371   */\n      dup5\n        /* \"#utility.yul\":2360:2383   */\n      sub\n        /* \"#utility.yul\":2356:2388   */\n      slt\n        /* \"#utility.yul\":2353:2472   */\n      iszero\n      tag_547\n      jumpi\n        /* \"#utility.yul\":2391:2470   */\n      tag_548\n      tag_417\n      jump\t// in\n    tag_548:\n        /* \"#utility.yul\":2353:2472   */\n    tag_547:\n        /* \"#utility.yul\":2511:2512   */\n      0x00\n        /* \"#utility.yul\":2536:2589   */\n      tag_549\n        /* \"#utility.yul\":2581:2588   */\n      dup5\n        /* \"#utility.yul\":2572:2578   */\n      dup3\n        /* \"#utility.yul\":2561:2570   */\n      dup6\n        /* \"#utility.yul\":2557:2579   */\n      add\n        /* \"#utility.yul\":2536:2589   */\n      tag_420\n      jump\t// in\n    tag_549:\n        /* \"#utility.yul\":2526:2589   */\n      swap2\n      pop\n        /* \"#utility.yul\":2482:2599   */\n      pop\n        /* \"#utility.yul\":2277:2606   */\n      swap3\n      swap2\n      pop\n      pop\n      jump\t// out\n        /* \"#utility.yul\":2612:2944   */\n    tag_39:\n        /* \"#utility.yul\":2733:2737   */\n      0x00\n        /* \"#utility.yul\":2771:2773   */\n      0x40\n        /* \"#utility.yul\":2760:2769   */\n      dup3\n        /* \"#utility.yul\":2756:2774   */\n      add\n        /* \"#utility.yul\":2748:2774   */\n      swap1\n      pop\n        /* \"#utility.yul\":2784:2855   */\n      tag_551\n        /* \"#utility.yul\":2852:2853   */\n      0x00\n        /* \"#utility.yul\":2841:2850   */\n      dup4\n        /* \"#utility.yul\":2837:2854   */\n      add\n        /* \"#utility.yul\":2828:2834   */\n      dup6\n        /* \"#utility.yul\":2784:2855   */\n      tag_410\n      jump\t// in\n    tag_551:\n        /* \"#utility.yul\":2865:2937   */\n      tag_552\n        /* \"#utility.yul\":2933:2935   */\n      0x20\n        /* \"#utility.yul\":2922:2931   */\n      dup4\n        /* \"#utility.yul\":2918:2936   */\n      add\n        /* \"#utility.yul\":2909:2915   */\n      dup5\n        /* \"#utility.yul\":2865:2937   */\n      tag_410\n      jump\t// in\n    tag_552:\n        /* \"#utility.yul\":2612:2944   */\n      swap4\n      swap3\n      pop\n      pop\n      pop\n      jump\t// out\n        /* \"#utility.yul\":2950:3130   */\n    tag_93:\n        /* \"#utility.yul\":2998:3075   */\n      0x4e487b7100000000000000000000000000000000000000000000000000000000\n        /* \"#utility.yul\":2995:2996   */\n      0x00\n        /* \"#utility.yul\":2988:3076   */\n      mstore\n        /* \"#utility.yul\":3095:3099   */\n      0x21\n        /* \"#utility.yul\":3092:3093   */\n      0x04\n        /* \"#utility.yul\":3085:3100   */\n      mstore\n        /* \"#utility.yul\":3119:3123   */\n      0x24\n        /* \"#utility.yul\":3116:3117   */\n      0x00\n        /* \"#utility.yul\":3109:3124   */\n      revert\n        /* \"#utility.yul\":3136:3254   */\n    tag_421:\n        /* \"#utility.yul\":3222:3223   */\n      0x04\n        /* \"#utility.yul\":3215:3220   */\n      dup2\n        /* \"#utility.yul\":3212:3224   */\n      lt\n        /* \"#utility.yul\":3202:3248   */\n      tag_555\n      jumpi\n        /* \"#utility.yul\":3228:3246   */\n      tag_556\n      tag_93\n      jump\t// in\n    tag_556:\n        /* \"#utility.yul\":3202:3248   */\n    tag_555:\n        /* \"#utility.yul\":3136:3254   */\n      pop\n      jump\t// out\n        /* \"#utility.yul\":3260:3397   */\n    tag_422:\n        /* \"#utility.yul\":3310:3317   */\n      0x00\n        /* \"#utility.yul\":3339:3344   */\n      dup2\n        /* \"#utility.yul\":3328:3344   */\n      swap1\n      pop\n        /* \"#utility.yul\":3345:3391   */\n      tag_558\n        /* \"#utility.yul\":3385:3390   */\n      dup3\n        /* \"#utility.yul\":3345:3391   */\n      tag_421\n      jump\t// in\n    tag_558:\n        /* \"#utility.yul\":3260:3397   */\n      swap2\n      swap1\n      pop\n      jump\t// out\n        /* \"#utility.yul\":3403:3540   */\n    tag_423:\n        /* \"#utility.yul\":3464:3473   */\n      0x00\n        /* \"#utility.yul\":3497:3534   */\n      tag_560\n        /* \"#utility.yul\":3528:3533   */\n      dup3\n        /* \"#utility.yul\":3497:3534   */\n      tag_422\n      jump\t// in\n    tag_560:\n        /* \"#utility.yul\":3484:3534   */\n      swap1\n      pop\n        /* \"#utility.yul\":3403:3540   */\n      swap2\n      swap1\n      pop\n      jump\t// out\n        /* \"#utility.yul\":3546:3699   */\n    tag_424:\n        /* \"#utility.yul\":3644:3692   */\n      tag_562\n        /* \"#utility.yul\":3686:3691   */\n      dup2\n        /* \"#utility.yul\":3644:3692   */\n      tag_423\n      jump\t// in\n    tag_562:\n        /* \"#utility.yul\":3639:3642   */\n      dup3\n        /* \"#utility.yul\":3632:3693   */\n      mstore\n        /* \"#utility.yul\":3546:3699   */\n      pop\n      pop\n      jump\t// out\n        /* \"#utility.yul\":3705:3949   */\n    tag_44:\n        /* \"#utility.yul\":3809:3813   */\n      0x00\n        /* \"#utility.yul\":3847:3849   */\n      0x20\n        /* \"#utility.yul\":3836:3845   */\n      dup3\n        /* \"#utility.yul\":3832:3850   */\n      add\n        /* \"#utility.yul\":3824:3850   */\n      swap1\n      pop\n        /* \"#utility.yul\":3860:3942   */\n      tag_564\n        /* \"#utility.yul\":3939:3940   */\n      0x00\n        /* \"#utility.yul\":3928:3937   */\n      dup4\n        /* \"#utility.yul\":3924:3941   */\n      add\n        /* \"#utility.yul\":3915:3921   */\n      dup5\n        /* \"#utility.yul\":3860:3942   */\n      tag_424\n      jump\t// in\n    tag_564:\n        /* \"#utility.yul\":3705:3949   */\n      swap3\n      swap2\n      pop\n      pop\n      jump\t// out\n        /* \"#utility.yul\":3955:4081   */\n    tag_425:\n        /* \"#utility.yul\":3992:3999   */\n      0x00\n        /* \"#utility.yul\":4032:4074   */\n      0xffffffffffffffffffffffffffffffffffffffff\n        /* \"#utility.yul\":4025:4030   */\n      dup3\n        /* \"#utility.yul\":4021:4075   */\n      and\n        /* \"#utility.yul\":4010:4075   */\n      swap1\n      pop\n        /* \"#utility.yul\":3955:4081   */\n      swap2\n      swap1\n      pop\n      jump\t// out\n        /* \"#utility.yul\":4087:4183   */\n    tag_426:\n        /* \"#utility.yul\":4124:4131   */\n      0x00\n        /* \"#utility.yul\":4153:4177   */\n      tag_567\n        /* \"#utility.yul\":4171:4176   */\n      dup3\n        /* \"#utility.yul\":4153:4177   */\n      tag_425\n      jump\t// in\n    tag_567:\n        /* \"#utility.yul\":4142:4177   */\n      swap1\n      pop\n        /* \"#utility.yul\":4087:4183   */\n      swap2\n      swap1\n      pop\n      jump\t// out\n        /* \"#utility.yul\":4189:4311   */\n    tag_427:\n        /* \"#utility.yul\":4262:4286   */\n      tag_569\n        /* \"#utility.yul\":4280:4285   */\n      dup2\n        /* \"#utility.yul\":4262:4286   */\n      tag_426\n      jump\t// in\n    tag_569:\n        /* \"#utility.yul\":4255:4260   */\n      dup2\n        /* \"#utility.yul\":4252:4287   */\n      eq\n        /* \"#utility.yul\":4242:4305   */\n      tag_570\n      jumpi\n        /* \"#utility.yul\":4301:4302   */\n      0x00\n        /* \"#utility.yul\":4298:4299   */\n      0x00\n        /* \"#utility.yul\":4291:4303   */\n      revert\n        /* \"#utility.yul\":4242:4305   */\n    tag_570:\n        /* \"#utility.yul\":4189:4311   */\n      pop\n      jump\t// out\n        /* \"#utility.yul\":4317:4456   */\n    tag_428:\n        /* \"#utility.yul\":4363:4368   */\n      0x00\n        /* \"#utility.yul\":4401:4407   */\n      dup2\n        /* \"#utility.yul\":4388:4408   */\n      calldataload\n        /* \"#utility.yul\":4379:4408   */\n      swap1\n      pop\n        /* \"#utility.yul\":4417:4450   */\n      tag_572\n        /* \"#utility.yul\":4444:4449   */\n      dup2\n        /* \"#utility.yul\":4417:4450   */\n      tag_427\n      jump\t// in\n    tag_572:\n        /* \"#utility.yul\":4317:4456   */\n      swap3\n      swap2\n      pop\n      pop\n      jump\t// out\n        /* \"#utility.yul\":4462:4791   */\n    tag_48:\n        /* \"#utility.yul\":4521:4527   */\n      0x00\n        /* \"#utility.yul\":4570:4572   */\n      0x20\n        /* \"#utility.yul\":4558:4567   */\n      dup3\n        /* \"#utility.yul\":4549:4556   */\n      dup5\n        /* \"#utility.yul\":4545:4568   */\n      sub\n        /* \"#utility.yul\":4541:4573   */\n      slt\n        /* \"#utility.yul\":4538:4657   */\n      iszero\n      tag_574\n      jumpi\n        /* \"#utility.yul\":4576:4655   */\n      tag_575\n      tag_417\n      jump\t// in\n    tag_575:\n        /* \"#utility.yul\":4538:4657   */\n    tag_574:\n        /* \"#utility.yul\":4696:4697   */\n      0x00\n        /* \"#utility.yul\":4721:4774   */\n      tag_576\n        /* \"#utility.yul\":4766:4773   */\n      dup5\n        /* \"#utility.yul\":4757:4763   */\n      dup3\n        /* \"#utility.yul\":4746:4755   */\n      dup6\n        /* \"#utility.yul\":4742:4764   */\n      add\n        /* \"#utility.yul\":4721:4774   */\n      tag_428\n      jump\t// in\n    tag_576:\n        /* \"#utility.yul\":4711:4774   */\n      swap2\n      pop\n        /* \"#utility.yul\":4667:4784   */\n      pop\n        /* \"#utility.yul\":4462:4791   */\n      swap3\n      swap2\n      pop\n      pop\n      jump\t// out\n        /* \"#utility.yul\":4797:4905   */\n    tag_429:\n        /* \"#utility.yul\":4874:4898   */\n      tag_578\n        /* \"#utility.yul\":4892:4897   */\n      dup2\n        /* \"#utility.yul\":4874:4898   */\n      tag_409\n      jump\t// in\n    tag_578:\n        /* \"#utility.yul\":4869:4872   */\n      dup3\n        /* \"#utility.yul\":4862:4899   */\n      mstore\n        /* \"#utility.yul\":4797:4905   */\n      pop\n      pop\n      jump\t// out\n        /* \"#utility.yul\":4911:5019   */\n    tag_430:\n        /* \"#utility.yul\":4988:5012   */\n      tag_580\n        /* \"#utility.yul\":5006:5011   */\n      dup2\n        /* \"#utility.yul\":4988:5012   */\n      tag_426\n      jump\t// in\n    tag_580:\n        /* \"#utility.yul\":4983:4986   */\n      dup3\n        /* \"#utility.yul\":4976:5013   */\n      mstore\n        /* \"#utility.yul\":4911:5019   */\n      pop\n      pop\n      jump\t// out\n        /* \"#utility.yul\":5025:5143   */\n    tag_431:\n        /* \"#utility.yul\":5111:5112   */\n      0x03\n        /* \"#utility.yul\":5104:5109   */\n      dup2\n        /* \"#utility.yul\":5101:5113   */\n      lt\n        /* \"#utility.yul\":5091:5137   */\n      tag_582\n      jumpi\n        /* \"#utility.yul\":5117:5135   */\n      tag_583\n      tag_93\n      jump\t// in\n    tag_583:\n        /* \"#utility.yul\":5091:5137   */\n    tag_582:\n        /* \"#utility.yul\":5025:5143   */\n      pop\n      jump\t// out\n        /* \"#utility.yul\":5149:5286   */\n    tag_432:\n        /* \"#utility.yul\":5199:5206   */\n      0x00\n        /* \"#utility.yul\":5228:5233   */\n      dup2\n        /* \"#utility.yul\":5217:5233   */\n      swap1\n      pop\n        /* \"#utility.yul\":5234:5280   */\n      tag_585\n        /* \"#utility.yul\":5274:5279   */\n      dup3\n        /* \"#utility.yul\":5234:5280   */\n      tag_431\n      jump\t// in\n    tag_585:\n        /* \"#utility.yul\":5149:5286   */\n      swap2\n      swap1\n      pop\n      jump\t// out\n        /* \"#utility.yul\":5292:5429   */\n    tag_433:\n        /* \"#utility.yul\":5353:5362   */\n      0x00\n        /* \"#utility.yul\":5386:5423   */\n      tag_587\n        /* \"#utility.yul\":5417:5422   */\n      dup3\n        /* \"#utility.yul\":5386:5423   */\n      tag_432\n      jump\t// in\n    tag_587:\n        /* \"#utility.yul\":5373:5423   */\n      swap1\n      pop\n        /* \"#utility.yul\":5292:5429   */\n      swap2\n      swap1\n      pop\n      jump\t// out\n        /* \"#utility.yul\":5435:5578   */\n    tag_434:\n        /* \"#utility.yul\":5523:5571   */\n      tag_589\n        /* \"#utility.yul\":5565:5570   */\n      dup2\n        /* \"#utility.yul\":5523:5571   */\n      tag_433\n      jump\t// in\n    tag_589:\n        /* \"#utility.yul\":5518:5521   */\n      dup3\n        /* \"#utility.yul\":5511:5572   */\n      mstore\n        /* \"#utility.yul\":5435:5578   */\n      pop\n      pop\n      jump\t// out\n        /* \"#utility.yul\":5584:5706   */\n    tag_435:\n        /* \"#utility.yul\":5674:5675   */\n      0x02\n        /* \"#utility.yul\":5667:5672   */\n      dup2\n        /* \"#utility.yul\":5664:5676   */\n      lt\n        /* \"#utility.yul\":5654:5700   */\n      tag_591\n      jumpi\n        /* \"#utility.yul\":5680:5698   */\n      tag_592\n      tag_93\n      jump\t// in\n    tag_592:\n        /* \"#utility.yul\":5654:5700   */\n    tag_591:\n        /* \"#utility.yul\":5584:5706   */\n      pop\n      jump\t// out\n        /* \"#utility.yul\":5712:5857   */\n    tag_436:\n        /* \"#utility.yul\":5766:5773   */\n      0x00\n        /* \"#utility.yul\":5795:5800   */\n      dup2\n        /* \"#utility.yul\":5784:5800   */\n      swap1\n      pop\n        /* \"#utility.yul\":5801:5851   */\n      tag_594\n        /* \"#utility.yul\":5845:5850   */\n      dup3\n        /* \"#utility.yul\":5801:5851   */\n      tag_435\n      jump\t// in\n    tag_594:\n        /* \"#utility.yul\":5712:5857   */\n      swap2\n      swap1\n      pop\n      jump\t// out\n        /* \"#utility.yul\":5863:6008   */\n    tag_437:\n        /* \"#utility.yul\":5928:5937   */\n      0x00\n        /* \"#utility.yul\":5961:6002   */\n      tag_596\n        /* \"#utility.yul\":5996:6001   */\n      dup3\n        /* \"#utility.yul\":5961:6002   */\n      tag_436\n      jump\t// in\n    tag_596:\n        /* \"#utility.yul\":5948:6002   */\n      swap1\n      pop\n        /* \"#utility.yul\":5863:6008   */\n      swap2\n      swap1\n      pop\n      jump\t// out\n        /* \"#utility.yul\":6014:6165   */\n    tag_438:\n        /* \"#utility.yul\":6106:6158   */\n      tag_598\n        /* \"#utility.yul\":6152:6157   */\n      dup2\n        /* \"#utility.yul\":6106:6158   */\n      tag_437\n      jump\t// in\n    tag_598:\n        /* \"#utility.yul\":6101:6104   */\n      dup3\n        /* \"#utility.yul\":6094:6159   */\n      mstore\n        /* \"#utility.yul\":6014:6165   */\n      pop\n      pop\n      jump\t// out\n        /* \"#utility.yul\":6171:6289   */\n    tag_439:\n        /* \"#utility.yul\":6257:6258   */\n      0x04\n        /* \"#utility.yul\":6250:6255   */\n      dup2\n        /* \"#utility.yul\":6247:6259   */\n      lt\n        /* \"#utility.yul\":6237:6283   */\n      tag_600\n      jumpi\n        /* \"#utility.yul\":6263:6281   */\n      tag_601\n      tag_93\n      jump\t// in\n    tag_601:\n        /* \"#utility.yul\":6237:6283   */\n    tag_600:\n        /* \"#utility.yul\":6171:6289   */\n      pop\n      jump\t// out\n        /* \"#utility.yul\":6295:6432   */\n    tag_440:\n        /* \"#utility.yul\":6345:6352   */\n      0x00\n        /* \"#utility.yul\":6374:6379   */\n      dup2\n        /* \"#utility.yul\":6363:6379   */\n      swap1\n      pop\n        /* \"#utility.yul\":6380:6426   */\n      tag_603\n        /* \"#utility.yul\":6420:6425   */\n      dup3\n        /* \"#utility.yul\":6380:6426   */\n      tag_439\n      jump\t// in\n    tag_603:\n        /* \"#utility.yul\":6295:6432   */\n      swap2\n      swap1\n      pop\n      jump\t// out\n        /* \"#utility.yul\":6438:6575   */\n    tag_441:\n        /* \"#utility.yul\":6499:6508   */\n      0x00\n        /* \"#utility.yul\":6532:6569   */\n      tag_605\n        /* \"#utility.yul\":6563:6568   */\n      dup3\n        /* \"#utility.yul\":6532:6569   */\n      tag_440\n      jump\t// in\n    tag_605:\n        /* \"#utility.yul\":6519:6569   */\n      swap1\n      pop\n        /* \"#utility.yul\":6438:6575   */\n      swap2\n      swap1\n      pop\n      jump\t// out\n        /* \"#utility.yul\":6581:6724   */\n    tag_442:\n        /* \"#utility.yul\":6669:6717   */\n      tag_607\n        /* \"#utility.yul\":6711:6716   */\n      dup2\n        /* \"#utility.yul\":6669:6717   */\n      tag_441\n      jump\t// in\n    tag_607:\n        /* \"#utility.yul\":6664:6667   */\n      dup3\n        /* \"#utility.yul\":6657:6718   */\n      mstore\n        /* \"#utility.yul\":6581:6724   */\n      pop\n      pop\n      jump\t// out\n        /* \"#utility.yul\":6790:8053   */\n    tag_443:\n        /* \"#utility.yul\":6947:6951   */\n      0xc0\n        /* \"#utility.yul\":6942:6945   */\n      dup3\n        /* \"#utility.yul\":6938:6952   */\n      add\n        /* \"#utility.yul\":7038:7042   */\n      0x00\n        /* \"#utility.yul\":7031:7036   */\n      dup3\n        /* \"#utility.yul\":7027:7043   */\n      add\n        /* \"#utility.yul\":7021:7044   */\n      mload\n        /* \"#utility.yul\":7057:7131   */\n      tag_609\n        /* \"#utility.yul\":7125:7129   */\n      0x00\n        /* \"#utility.yul\":7120:7123   */\n      dup6\n        /* \"#utility.yul\":7116:7130   */\n      add\n        /* \"#utility.yul\":7102:7114   */\n      dup3\n        /* \"#utility.yul\":7057:7131   */\n      tag_442\n      jump\t// in\n    tag_609:\n        /* \"#utility.yul\":6962:7141   */\n      pop\n        /* \"#utility.yul\":7223:7227   */\n      0x20\n        /* \"#utility.yul\":7216:7221   */\n      dup3\n        /* \"#utility.yul\":7212:7228   */\n      add\n        /* \"#utility.yul\":7206:7229   */\n      mload\n        /* \"#utility.yul\":7242:7305   */\n      tag_610\n        /* \"#utility.yul\":7299:7303   */\n      0x20\n        /* \"#utility.yul\":7294:7297   */\n      dup6\n        /* \"#utility.yul\":7290:7304   */\n      add\n        /* \"#utility.yul\":7276:7288   */\n      dup3\n        /* \"#utility.yul\":7242:7305   */\n      tag_429\n      jump\t// in\n    tag_610:\n        /* \"#utility.yul\":7151:7315   */\n      pop\n        /* \"#utility.yul\":7406:7410   */\n      0x40\n        /* \"#utility.yul\":7399:7404   */\n      dup3\n        /* \"#utility.yul\":7395:7411   */\n      add\n        /* \"#utility.yul\":7389:7412   */\n      mload\n        /* \"#utility.yul\":7425:7488   */\n      tag_611\n        /* \"#utility.yul\":7482:7486   */\n      0x40\n        /* \"#utility.yul\":7477:7480   */\n      dup6\n        /* \"#utility.yul\":7473:7487   */\n      add\n        /* \"#utility.yul\":7459:7471   */\n      dup3\n        /* \"#utility.yul\":7425:7488   */\n      tag_429\n      jump\t// in\n    tag_611:\n        /* \"#utility.yul\":7325:7498   */\n      pop\n        /* \"#utility.yul\":7589:7593   */\n      0x60\n        /* \"#utility.yul\":7582:7587   */\n      dup3\n        /* \"#utility.yul\":7578:7594   */\n      add\n        /* \"#utility.yul\":7572:7595   */\n      mload\n        /* \"#utility.yul\":7608:7671   */\n      tag_612\n        /* \"#utility.yul\":7665:7669   */\n      0x60\n        /* \"#utility.yul\":7660:7663   */\n      dup6\n        /* \"#utility.yul\":7656:7670   */\n      add\n        /* \"#utility.yul\":7642:7654   */\n      dup3\n        /* \"#utility.yul\":7608:7671   */\n      tag_429\n      jump\t// in\n    tag_612:\n        /* \"#utility.yul\":7508:7681   */\n      pop\n        /* \"#utility.yul\":7773:7777   */\n      0x80\n        /* \"#utility.yul\":7766:7771   */\n      dup3\n        /* \"#utility.yul\":7762:7778   */\n      add\n        /* \"#utility.yul\":7756:7779   */\n      mload\n        /* \"#utility.yul\":7792:7855   */\n      tag_613\n        /* \"#utility.yul\":7849:7853   */\n      0x80\n        /* \"#utility.yul\":7844:7847   */\n      dup6\n        /* \"#utility.yul\":7840:7854   */\n      add\n        /* \"#utility.yul\":7826:7838   */\n      dup3\n        /* \"#utility.yul\":7792:7855   */\n      tag_429\n      jump\t// in\n    tag_613:\n        /* \"#utility.yul\":7691:7865   */\n      pop\n        /* \"#utility.yul\":7954:7958   */\n      0xa0\n        /* \"#utility.yul\":7947:7952   */\n      dup3\n        /* \"#utility.yul\":7943:7959   */\n      add\n        /* \"#utility.yul\":7937:7960   */\n      mload\n        /* \"#utility.yul\":7973:8036   */\n      tag_614\n        /* \"#utility.yul\":8030:8034   */\n      0xa0\n        /* \"#utility.yul\":8025:8028   */\n      dup6\n        /* \"#utility.yul\":8021:8035   */\n      add\n        /* \"#utility.yul\":8007:8019   */\n      dup3\n        /* \"#utility.yul\":7973:8036   */\n      tag_429\n      jump\t// in\n    tag_614:\n        /* \"#utility.yul\":7875:8046   */\n      pop\n        /* \"#utility.yul\":6916:8053   */\n      pop\n        /* \"#utility.yul\":6790:8053   */\n      pop\n      pop\n      jump\t// out\n        /* \"#utility.yul\":8103:8630   */\n    tag_444:\n        /* \"#utility.yul\":8244:8248   */\n      0x40\n        /* \"#utility.yul\":8239:8242   */\n      dup3\n        /* \"#utility.yul\":8235:8249   */\n      add\n        /* \"#utility.yul\":8344:8348   */\n      0x00\n        /* \"#utility.yul\":8337:8342   */\n      dup3\n        /* \"#utility.yul\":8333:8349   */\n      add\n        /* \"#utility.yul\":8327:8350   */\n      mload\n        /* \"#utility.yul\":8363:8426   */\n      tag_616\n        /* \"#utility.yul\":8420:8424   */\n      0x00\n        /* \"#utility.yul\":8415:8418   */\n      dup6\n        /* \"#utility.yul\":8411:8425   */\n      add\n        /* \"#utility.yul\":8397:8409   */\n      dup3\n        /* \"#utility.yul\":8363:8426   */\n      tag_429\n      jump\t// in\n    tag_616:\n        /* \"#utility.yul\":8259:8436   */\n      pop\n        /* \"#utility.yul\":8531:8535   */\n      0x20\n        /* \"#utility.yul\":8524:8529   */\n      dup3\n        /* \"#utility.yul\":8520:8536   */\n      add\n        /* \"#utility.yul\":8514:8537   */\n      mload\n        /* \"#utility.yul\":8550:8613   */\n      tag_617\n        /* \"#utility.yul\":8607:8611   */\n      0x20\n        /* \"#utility.yul\":8602:8605   */\n      dup6\n        /* \"#utility.yul\":8598:8612   */\n      add\n        /* \"#utility.yul\":8584:8596   */\n      dup3\n        /* \"#utility.yul\":8550:8613   */\n      tag_429\n      jump\t// in\n    tag_617:\n        /* \"#utility.yul\":8446:8623   */\n      pop\n        /* \"#utility.yul\":8213:8630   */\n      pop\n        /* \"#utility.yul\":8103:8630   */\n      pop\n      pop\n      jump\t// out\n        /* \"#utility.yul\":8680:11052   */\n    tag_445:\n        /* \"#utility.yul\":8821:8827   */\n      0x02c0\n        /* \"#utility.yul\":8816:8819   */\n      dup3\n        /* \"#utility.yul\":8812:8828   */\n      add\n        /* \"#utility.yul\":8908:8912   */\n      0x00\n        /* \"#utility.yul\":8901:8906   */\n      dup3\n        /* \"#utility.yul\":8897:8913   */\n      add\n        /* \"#utility.yul\":8891:8914   */\n      mload\n        /* \"#utility.yul\":8927:8990   */\n      tag_619\n        /* \"#utility.yul\":8984:8988   */\n      0x00\n        /* \"#utility.yul\":8979:8982   */\n      dup6\n        /* \"#utility.yul\":8975:8989   */\n      add\n        /* \"#utility.yul\":8961:8973   */\n      dup3\n        /* \"#utility.yul\":8927:8990   */\n      tag_429\n      jump\t// in\n    tag_619:\n        /* \"#utility.yul\":8838:9000   */\n      pop\n        /* \"#utility.yul\":9086:9090   */\n      0x20\n        /* \"#utility.yul\":9079:9084   */\n      dup3\n        /* \"#utility.yul\":9075:9091   */\n      add\n        /* \"#utility.yul\":9069:9092   */\n      mload\n        /* \"#utility.yul\":9105:9168   */\n      tag_620\n        /* \"#utility.yul\":9162:9166   */\n      0x20\n        /* \"#utility.yul\":9157:9160   */\n      dup6\n        /* \"#utility.yul\":9153:9167   */\n      add\n        /* \"#utility.yul\":9139:9151   */\n      dup3\n        /* \"#utility.yul\":9105:9168   */\n      tag_430\n      jump\t// in\n    tag_620:\n        /* \"#utility.yul\":9010:9178   */\n      pop\n        /* \"#utility.yul\":9261:9265   */\n      0x40\n        /* \"#utility.yul\":9254:9259   */\n      dup3\n        /* \"#utility.yul\":9250:9266   */\n      add\n        /* \"#utility.yul\":9244:9267   */\n      mload\n        /* \"#utility.yul\":9280:9343   */\n      tag_621\n        /* \"#utility.yul\":9337:9341   */\n      0x40\n        /* \"#utility.yul\":9332:9335   */\n      dup6\n        /* \"#utility.yul\":9328:9342   */\n      add\n        /* \"#utility.yul\":9314:9326   */\n      dup3\n        /* \"#utility.yul\":9280:9343   */\n      tag_430\n      jump\t// in\n    tag_621:\n        /* \"#utility.yul\":9188:9353   */\n      pop\n        /* \"#utility.yul\":9450:9454   */\n      0x60\n        /* \"#utility.yul\":9443:9448   */\n      dup3\n        /* \"#utility.yul\":9439:9455   */\n      add\n        /* \"#utility.yul\":9433:9456   */\n      mload\n        /* \"#utility.yul\":9469:9532   */\n      tag_622\n        /* \"#utility.yul\":9526:9530   */\n      0x60\n        /* \"#utility.yul\":9521:9524   */\n      dup6\n        /* \"#utility.yul\":9517:9531   */\n      add\n        /* \"#utility.yul\":9503:9515   */\n      dup3\n        /* \"#utility.yul\":9469:9532   */\n      tag_429\n      jump\t// in\n    tag_622:\n        /* \"#utility.yul\":9363:9542   */\n      pop\n        /* \"#utility.yul\":9628:9632   */\n      0x80\n        /* \"#utility.yul\":9621:9626   */\n      dup3\n        /* \"#utility.yul\":9617:9633   */\n      add\n        /* \"#utility.yul\":9611:9634   */\n      mload\n        /* \"#utility.yul\":9647:9710   */\n      tag_623\n        /* \"#utility.yul\":9704:9708   */\n      0x80\n        /* \"#utility.yul\":9699:9702   */\n      dup6\n        /* \"#utility.yul\":9695:9709   */\n      add\n        /* \"#utility.yul\":9681:9693   */\n      dup3\n        /* \"#utility.yul\":9647:9710   */\n      tag_429\n      jump\t// in\n    tag_623:\n        /* \"#utility.yul\":9552:9720   */\n      pop\n        /* \"#utility.yul\":9806:9810   */\n      0xa0\n        /* \"#utility.yul\":9799:9804   */\n      dup3\n        /* \"#utility.yul\":9795:9811   */\n      add\n        /* \"#utility.yul\":9789:9812   */\n      mload\n        /* \"#utility.yul\":9825:9899   */\n      tag_624\n        /* \"#utility.yul\":9893:9897   */\n      0xa0\n        /* \"#utility.yul\":9888:9891   */\n      dup6\n        /* \"#utility.yul\":9884:9898   */\n      add\n        /* \"#utility.yul\":9870:9882   */\n      dup3\n        /* \"#utility.yul\":9825:9899   */\n      tag_434\n      jump\t// in\n    tag_624:\n        /* \"#utility.yul\":9730:9909   */\n      pop\n        /* \"#utility.yul\":9995:9999   */\n      0xc0\n        /* \"#utility.yul\":9988:9993   */\n      dup3\n        /* \"#utility.yul\":9984:10000   */\n      add\n        /* \"#utility.yul\":9978:10001   */\n      mload\n        /* \"#utility.yul\":10014:10077   */\n      tag_625\n        /* \"#utility.yul\":10071:10075   */\n      0xc0\n        /* \"#utility.yul\":10066:10069   */\n      dup6\n        /* \"#utility.yul\":10062:10076   */\n      add\n        /* \"#utility.yul\":10048:10060   */\n      dup3\n        /* \"#utility.yul\":10014:10077   */\n      tag_430\n      jump\t// in\n    tag_625:\n        /* \"#utility.yul\":9919:10087   */\n      pop\n        /* \"#utility.yul\":10177:10181   */\n      0xe0\n        /* \"#utility.yul\":10170:10175   */\n      dup3\n        /* \"#utility.yul\":10166:10182   */\n      add\n        /* \"#utility.yul\":10160:10183   */\n      mload\n        /* \"#utility.yul\":10196:10274   */\n      tag_626\n        /* \"#utility.yul\":10268:10272   */\n      0xe0\n        /* \"#utility.yul\":10263:10266   */\n      dup6\n        /* \"#utility.yul\":10259:10273   */\n      add\n        /* \"#utility.yul\":10245:10257   */\n      dup3\n        /* \"#utility.yul\":10196:10274   */\n      tag_438\n      jump\t// in\n    tag_626:\n        /* \"#utility.yul\":10097:10284   */\n      pop\n        /* \"#utility.yul\":10382:10388   */\n      0x0100\n        /* \"#utility.yul\":10375:10380   */\n      dup3\n        /* \"#utility.yul\":10371:10389   */\n      add\n        /* \"#utility.yul\":10365:10390   */\n      mload\n        /* \"#utility.yul\":10403:10538   */\n      tag_627\n        /* \"#utility.yul\":10530:10536   */\n      0x0100\n        /* \"#utility.yul\":10525:10528   */\n      dup6\n        /* \"#utility.yul\":10521:10537   */\n      add\n        /* \"#utility.yul\":10507:10519   */\n      dup3\n        /* \"#utility.yul\":10403:10538   */\n      tag_443\n      jump\t// in\n    tag_627:\n        /* \"#utility.yul\":10294:10548   */\n      pop\n        /* \"#utility.yul\":10642:10648   */\n      0x0120\n        /* \"#utility.yul\":10635:10640   */\n      dup3\n        /* \"#utility.yul\":10631:10649   */\n      add\n        /* \"#utility.yul\":10625:10650   */\n      mload\n        /* \"#utility.yul\":10663:10798   */\n      tag_628\n        /* \"#utility.yul\":10790:10796   */\n      0x01c0\n        /* \"#utility.yul\":10785:10788   */\n      dup6\n        /* \"#utility.yul\":10781:10797   */\n      add\n        /* \"#utility.yul\":10767:10779   */\n      dup3\n        /* \"#utility.yul\":10663:10798   */\n      tag_443\n      jump\t// in\n    tag_628:\n        /* \"#utility.yul\":10558:10808   */\n      pop\n        /* \"#utility.yul\":10895:10901   */\n      0x0140\n        /* \"#utility.yul\":10888:10893   */\n      dup3\n        /* \"#utility.yul\":10884:10902   */\n      add\n        /* \"#utility.yul\":10878:10903   */\n      mload\n        /* \"#utility.yul\":10916:11035   */\n      tag_629\n        /* \"#utility.yul\":11027:11033   */\n      0x0280\n        /* \"#utility.yul\":11022:11025   */\n      dup6\n        /* \"#utility.yul\":11018:11034   */\n      add\n        /* \"#utility.yul\":11004:11016   */\n      dup3\n        /* \"#utility.yul\":10916:11035   */\n      tag_444\n      jump\t// in\n    tag_629:\n        /* \"#utility.yul\":10818:11045   */\n      pop\n        /* \"#utility.yul\":8790:11052   */\n      pop\n        /* \"#utility.yul\":8680:11052   */\n      pop\n      pop\n      jump\t// out\n        /* \"#utility.yul\":11100:12738   */\n    tag_446:\n        /* \"#utility.yul\":11249:11255   */\n      0x03a0\n        /* \"#utility.yul\":11244:11247   */\n      dup3\n        /* \"#utility.yul\":11240:11256   */\n      add\n        /* \"#utility.yul\":11336:11340   */\n      0x00\n        /* \"#utility.yul\":11329:11334   */\n      dup3\n        /* \"#utility.yul\":11325:11341   */\n      add\n        /* \"#utility.yul\":11319:11342   */\n      mload\n        /* \"#utility.yul\":11355:11418   */\n      tag_631\n        /* \"#utility.yul\":11412:11416   */\n      0x00\n        /* \"#utility.yul\":11407:11410   */\n      dup6\n        /* \"#utility.yul\":11403:11417   */\n      add\n        /* \"#utility.yul\":11389:11401   */\n      dup3\n        /* \"#utility.yul\":11355:11418   */\n      tag_429\n      jump\t// in\n    tag_631:\n        /* \"#utility.yul\":11266:11428   */\n      pop\n        /* \"#utility.yul\":11513:11517   */\n      0x20\n        /* \"#utility.yul\":11506:11511   */\n      dup3\n        /* \"#utility.yul\":11502:11518   */\n      add\n        /* \"#utility.yul\":11496:11519   */\n      mload\n        /* \"#utility.yul\":11532:11595   */\n      tag_632\n        /* \"#utility.yul\":11589:11593   */\n      0x20\n        /* \"#utility.yul\":11584:11587   */\n      dup6\n        /* \"#utility.yul\":11580:11594   */\n      add\n        /* \"#utility.yul\":11566:11578   */\n      dup3\n        /* \"#utility.yul\":11532:11595   */\n      tag_430\n      jump\t// in\n    tag_632:\n        /* \"#utility.yul\":11438:11605   */\n      pop\n        /* \"#utility.yul\":11688:11692   */\n      0x40\n        /* \"#utility.yul\":11681:11686   */\n      dup3\n        /* \"#utility.yul\":11677:11693   */\n      add\n        /* \"#utility.yul\":11671:11694   */\n      mload\n        /* \"#utility.yul\":11707:11770   */\n      tag_633\n        /* \"#utility.yul\":11764:11768   */\n      0x40\n        /* \"#utility.yul\":11759:11762   */\n      dup6\n        /* \"#utility.yul\":11755:11769   */\n      add\n        /* \"#utility.yul\":11741:11753   */\n      dup3\n        /* \"#utility.yul\":11707:11770   */\n      tag_430\n      jump\t// in\n    tag_633:\n        /* \"#utility.yul\":11615:11780   */\n      pop\n        /* \"#utility.yul\":11866:11870   */\n      0x60\n        /* \"#utility.yul\":11859:11864   */\n      dup3\n        /* \"#utility.yul\":11855:11871   */\n      add\n        /* \"#utility.yul\":11849:11872   */\n      mload\n        /* \"#utility.yul\":11885:11948   */\n      tag_634\n        /* \"#utility.yul\":11942:11946   */\n      0x60\n        /* \"#utility.yul\":11937:11940   */\n      dup6\n        /* \"#utility.yul\":11933:11947   */\n      add\n        /* \"#utility.yul\":11919:11931   */\n      dup3\n        /* \"#utility.yul\":11885:11948   */\n      tag_430\n      jump\t// in\n    tag_634:\n        /* \"#utility.yul\":11790:11958   */\n      pop\n        /* \"#utility.yul\":12041:12045   */\n      0x80\n        /* \"#utility.yul\":12034:12039   */\n      dup3\n        /* \"#utility.yul\":12030:12046   */\n      add\n        /* \"#utility.yul\":12024:12047   */\n      mload\n        /* \"#utility.yul\":12060:12123   */\n      tag_635\n        /* \"#utility.yul\":12117:12121   */\n      0x80\n        /* \"#utility.yul\":12112:12115   */\n      dup6\n        /* \"#utility.yul\":12108:12122   */\n      add\n        /* \"#utility.yul\":12094:12106   */\n      dup3\n        /* \"#utility.yul\":12060:12123   */\n      tag_430\n      jump\t// in\n    tag_635:\n        /* \"#utility.yul\":11968:12133   */\n      pop\n        /* \"#utility.yul\":12223:12227   */\n      0xa0\n        /* \"#utility.yul\":12216:12221   */\n      dup3\n        /* \"#utility.yul\":12212:12228   */\n      add\n        /* \"#utility.yul\":12206:12229   */\n      mload\n        /* \"#utility.yul\":12242:12305   */\n      tag_636\n        /* \"#utility.yul\":12299:12303   */\n      0xa0\n        /* \"#utility.yul\":12294:12297   */\n      dup6\n        /* \"#utility.yul\":12290:12304   */\n      add\n        /* \"#utility.yul\":12276:12288   */\n      dup3\n        /* \"#utility.yul\":12242:12305   */\n      tag_429\n      jump\t// in\n    tag_636:\n        /* \"#utility.yul\":12143:12315   */\n      pop\n        /* \"#utility.yul\":12408:12412   */\n      0xc0\n        /* \"#utility.yul\":12401:12406   */\n      dup3\n        /* \"#utility.yul\":12397:12413   */\n      add\n        /* \"#utility.yul\":12391:12414   */\n      mload\n        /* \"#utility.yul\":12427:12490   */\n      tag_637\n        /* \"#utility.yul\":12484:12488   */\n      0xc0\n        /* \"#utility.yul\":12479:12482   */\n      dup6\n        /* \"#utility.yul\":12475:12489   */\n      add\n        /* \"#utility.yul\":12461:12473   */\n      dup3\n        /* \"#utility.yul\":12427:12490   */\n      tag_429\n      jump\t// in\n    tag_637:\n        /* \"#utility.yul\":12325:12500   */\n      pop\n        /* \"#utility.yul\":12585:12589   */\n      0xe0\n        /* \"#utility.yul\":12578:12583   */\n      dup3\n        /* \"#utility.yul\":12574:12590   */\n      add\n        /* \"#utility.yul\":12568:12591   */\n      mload\n        /* \"#utility.yul\":12604:12721   */\n      tag_638\n        /* \"#utility.yul\":12715:12719   */\n      0xe0\n        /* \"#utility.yul\":12710:12713   */\n      dup6\n        /* \"#utility.yul\":12706:12720   */\n      add\n        /* \"#utility.yul\":12692:12704   */\n      dup3\n        /* \"#utility.yul\":12604:12721   */\n      tag_445\n      jump\t// in\n    tag_638:\n        /* \"#utility.yul\":12510:12731   */\n      pop\n        /* \"#utility.yul\":11218:12738   */\n      pop\n        /* \"#utility.yul\":11100:12738   */\n      pop\n      pop\n      jump\t// out\n        /* \"#utility.yul\":12744:13071   */\n    tag_55:\n        /* \"#utility.yul\":12889:12893   */\n      0x00\n        /* \"#utility.yul\":12927:12930   */\n      0x03a0\n        /* \"#utility.yul\":12916:12925   */\n      dup3\n        /* \"#utility.yul\":12912:12931   */\n      add\n        /* \"#utility.yul\":12904:12931   */\n      swap1\n      pop\n        /* \"#utility.yul\":12941:13064   */\n      tag_640\n        /* \"#utility.yul\":13061:13062   */\n      0x00\n        /* \"#utility.yul\":13050:13059   */\n      dup4\n        /* \"#utility.yul\":13046:13063   */\n      add\n        /* \"#utility.yul\":13037:13043   */\n      dup5\n        /* \"#utility.yul\":12941:13064   */\n      tag_446\n      jump\t// in\n    tag_640:\n        /* \"#utility.yul\":12744:13071   */\n      swap3\n      swap2\n      pop\n      pop\n      jump\t// out\n        /* \"#utility.yul\":13077:13696   */\n    tag_58:\n        /* \"#utility.yul\":13154:13160   */\n      0x00\n        /* \"#utility.yul\":13162:13168   */\n      0x00\n        /* \"#utility.yul\":13170:13176   */\n      0x00\n        /* \"#utility.yul\":13219:13221   */\n      0x60\n        /* \"#utility.yul\":13207:13216   */\n      dup5\n        /* \"#utility.yul\":13198:13205   */\n      dup7\n        /* \"#utility.yul\":13194:13217   */\n      sub\n        /* \"#utility.yul\":13190:13222   */\n      slt\n        /* \"#utility.yul\":13187:13306   */\n      iszero\n      tag_642\n      jumpi\n        /* \"#utility.yul\":13225:13304   */\n      tag_643\n      tag_417\n      jump\t// in\n    tag_643:\n        /* \"#utility.yul\":13187:13306   */\n    tag_642:\n        /* \"#utility.yul\":13345:13346   */\n      0x00\n        /* \"#utility.yul\":13370:13423   */\n      tag_644\n        /* \"#utility.yul\":13415:13422   */\n      dup7\n        /* \"#utility.yul\":13406:13412   */\n      dup3\n        /* \"#utility.yul\":13395:13404   */\n      dup8\n        /* \"#utility.yul\":13391:13413   */\n      add\n        /* \"#utility.yul\":13370:13423   */\n      tag_420\n      jump\t// in\n    tag_644:\n        /* \"#utility.yul\":13360:13423   */\n      swap4\n      pop\n        /* \"#utility.yul\":13316:13433   */\n      pop\n        /* \"#utility.yul\":13472:13474   */\n      0x20\n        /* \"#utility.yul\":13498:13551   */\n      tag_645\n        /* \"#utility.yul\":13543:13550   */\n      dup7\n        /* \"#utility.yul\":13534:13540   */\n      dup3\n        /* \"#utility.yul\":13523:13532   */\n      dup8\n        /* \"#utility.yul\":13519:13541   */\n      add\n        /* \"#utility.yul\":13498:13551   */\n      tag_420\n      jump\t// in\n    tag_645:\n        /* \"#utility.yul\":13488:13551   */\n      swap3\n      pop\n        /* \"#utility.yul\":13443:13561   */\n      pop\n        /* \"#utility.yul\":13600:13602   */\n      0x40\n        /* \"#utility.yul\":13626:13679   */\n      tag_646\n        /* \"#utility.yul\":13671:13678   */\n      dup7\n        /* \"#utility.yul\":13662:13668   */\n      dup3\n        /* \"#utility.yul\":13651:13660   */\n      dup8\n        /* \"#utility.yul\":13647:13669   */\n      add\n        /* \"#utility.yul\":13626:13679   */\n      tag_420\n      jump\t// in\n    tag_646:\n        /* \"#utility.yul\":13616:13679   */\n      swap2\n      pop\n        /* \"#utility.yul\":13571:13689   */\n      pop\n        /* \"#utility.yul\":13077:13696   */\n      swap3\n      pop\n      swap3\n      pop\n      swap3\n      jump\t// out\n        /* \"#utility.yul\":13702:13816   */\n    tag_447:\n        /* \"#utility.yul\":13769:13775   */\n      0x00\n        /* \"#utility.yul\":13803:13808   */\n      dup2\n        /* \"#utility.yul\":13797:13809   */\n      mload\n        /* \"#utility.yul\":13787:13809   */\n      swap1\n      pop\n        /* \"#utility.yul\":13702:13816   */\n      swap2\n      swap1\n      pop\n      jump\t// out\n        /* \"#utility.yul\":13822:14006   */\n    tag_448:\n        /* \"#utility.yul\":13921:13932   */\n      0x00\n        /* \"#utility.yul\":13955:13961   */\n      dup3\n        /* \"#utility.yul\":13950:13953   */\n      dup3\n        /* \"#utility.yul\":13943:13962   */\n      mstore\n        /* \"#utility.yul\":13995:13999   */\n      0x20\n        /* \"#utility.yul\":13990:13993   */\n      dup3\n        /* \"#utility.yul\":13986:14000   */\n      add\n        /* \"#utility.yul\":13971:14000   */\n      swap1\n      pop\n        /* \"#utility.yul\":13822:14006   */\n      swap3\n      swap2\n      pop\n      pop\n      jump\t// out\n        /* \"#utility.yul\":14012:14144   */\n    tag_449:\n        /* \"#utility.yul\":14079:14083   */\n      0x00\n        /* \"#utility.yul\":14102:14105   */\n      dup2\n        /* \"#utility.yul\":14094:14105   */\n      swap1\n      pop\n        /* \"#utility.yul\":14132:14136   */\n      0x20\n        /* \"#utility.yul\":14127:14130   */\n      dup3\n        /* \"#utility.yul\":14123:14137   */\n      add\n        /* \"#utility.yul\":14115:14137   */\n      swap1\n      pop\n        /* \"#utility.yul\":14012:14144   */\n      swap2\n      swap1\n      pop\n      jump\t// out\n        /* \"#utility.yul\":14150:14329   */\n    tag_450:\n        /* \"#utility.yul\":14219:14229   */\n      0x00\n        /* \"#utility.yul\":14240:14286   */\n      tag_651\n        /* \"#utility.yul\":14282:14285   */\n      dup4\n        /* \"#utility.yul\":14274:14280   */\n      dup4\n        /* \"#utility.yul\":14240:14286   */\n      tag_429\n      jump\t// in\n    tag_651:\n        /* \"#utility.yul\":14318:14322   */\n      0x20\n        /* \"#utility.yul\":14313:14316   */\n      dup4\n        /* \"#utility.yul\":14309:14323   */\n      add\n        /* \"#utility.yul\":14295:14323   */\n      swap1\n      pop\n        /* \"#utility.yul\":14150:14329   */\n      swap3\n      swap2\n      pop\n      pop\n      jump\t// out\n        /* \"#utility.yul\":14335:14448   */\n    tag_451:\n        /* \"#utility.yul\":14405:14409   */\n      0x00\n        /* \"#utility.yul\":14437:14441   */\n      0x20\n        /* \"#utility.yul\":14432:14435   */\n      dup3\n        /* \"#utility.yul\":14428:14442   */\n      add\n        /* \"#utility.yul\":14420:14442   */\n      swap1\n      pop\n        /* \"#utility.yul\":14335:14448   */\n      swap2\n      swap1\n      pop\n      jump\t// out\n        /* \"#utility.yul\":14484:15216   */\n    tag_452:\n        /* \"#utility.yul\":14603:14606   */\n      0x00\n        /* \"#utility.yul\":14632:14686   */\n      tag_654\n        /* \"#utility.yul\":14680:14685   */\n      dup3\n        /* \"#utility.yul\":14632:14686   */\n      tag_447\n      jump\t// in\n    tag_654:\n        /* \"#utility.yul\":14702:14788   */\n      tag_655\n        /* \"#utility.yul\":14781:14787   */\n      dup2\n        /* \"#utility.yul\":14776:14779   */\n      dup6\n        /* \"#utility.yul\":14702:14788   */\n      tag_448\n      jump\t// in\n    tag_655:\n        /* \"#utility.yul\":14695:14788   */\n      swap4\n      pop\n        /* \"#utility.yul\":14812:14868   */\n      tag_656\n        /* \"#utility.yul\":14862:14867   */\n      dup4\n        /* \"#utility.yul\":14812:14868   */\n      tag_449\n      jump\t// in\n    tag_656:\n        /* \"#utility.yul\":14891:14898   */\n      dup1\n        /* \"#utility.yul\":14922:14923   */\n      0x00\n        /* \"#utility.yul\":14907:15191   */\n    tag_657:\n        /* \"#utility.yul\":14932:14938   */\n      dup4\n        /* \"#utility.yul\":14929:14930   */\n      dup2\n        /* \"#utility.yul\":14926:14939   */\n      lt\n        /* \"#utility.yul\":14907:15191   */\n      iszero\n      tag_659\n      jumpi\n        /* \"#utility.yul\":15008:15014   */\n      dup2\n        /* \"#utility.yul\":15002:15015   */\n      mload\n        /* \"#utility.yul\":15035:15098   */\n      tag_660\n        /* \"#utility.yul\":15094:15097   */\n      dup9\n        /* \"#utility.yul\":15079:15092   */\n      dup3\n        /* \"#utility.yul\":15035:15098   */\n      tag_450\n      jump\t// in\n    tag_660:\n        /* \"#utility.yul\":15028:15098   */\n      swap8\n      pop\n        /* \"#utility.yul\":15121:15181   */\n      tag_661\n        /* \"#utility.yul\":15174:15180   */\n      dup4\n        /* \"#utility.yul\":15121:15181   */\n      tag_451\n      jump\t// in\n    tag_661:\n        /* \"#utility.yul\":15111:15181   */\n      swap3\n      pop\n        /* \"#utility.yul\":14967:15191   */\n      pop\n        /* \"#utility.yul\":14954:14955   */\n      0x01\n        /* \"#utility.yul\":14951:14952   */\n      dup2\n        /* \"#utility.yul\":14947:14956   */\n      add\n        /* \"#utility.yul\":14942:14956   */\n      swap1\n      pop\n        /* \"#utility.yul\":14907:15191   */\n      jump(tag_657)\n    tag_659:\n        /* \"#utility.yul\":14911:14925   */\n      pop\n        /* \"#utility.yul\":15207:15210   */\n      dup6\n        /* \"#utility.yul\":15200:15210   */\n      swap4\n      pop\n        /* \"#utility.yul\":14608:15216   */\n      pop\n      pop\n      pop\n        /* \"#utility.yul\":14484:15216   */\n      swap3\n      swap2\n      pop\n      pop\n      jump\t// out\n        /* \"#utility.yul\":15222:15595   */\n    tag_66:\n        /* \"#utility.yul\":15365:15369   */\n      0x00\n        /* \"#utility.yul\":15403:15405   */\n      0x20\n        /* \"#utility.yul\":15392:15401   */\n      dup3\n        /* \"#utility.yul\":15388:15406   */\n      add\n        /* \"#utility.yul\":15380:15406   */\n      swap1\n      pop\n        /* \"#utility.yul\":15452:15461   */\n      dup2\n        /* \"#utility.yul\":15446:15450   */\n      dup2\n        /* \"#utility.yul\":15442:15462   */\n      sub\n        /* \"#utility.yul\":15438:15439   */\n      0x00\n        /* \"#utility.yul\":15427:15436   */\n      dup4\n        /* \"#utility.yul\":15423:15440   */\n      add\n        /* \"#utility.yul\":15416:15463   */\n      mstore\n        /* \"#utility.yul\":15480:15588   */\n      tag_663\n        /* \"#utility.yul\":15583:15587   */\n      dup2\n        /* \"#utility.yul\":15574:15580   */\n      dup5\n        /* \"#utility.yul\":15480:15588   */\n      tag_452\n      jump\t// in\n    tag_663:\n        /* \"#utility.yul\":15472:15588   */\n      swap1\n      pop\n        /* \"#utility.yul\":15222:15595   */\n      swap3\n      swap2\n      pop\n      pop\n      jump\t// out\n        /* \"#utility.yul\":15601:15744   */\n    tag_453:\n        /* \"#utility.yul\":15658:15663   */\n      0x00\n        /* \"#utility.yul\":15689:15695   */\n      dup2\n        /* \"#utility.yul\":15683:15696   */\n      mload\n        /* \"#utility.yul\":15674:15696   */\n      swap1\n      pop\n        /* \"#utility.yul\":15705:15738   */\n      tag_665\n        /* \"#utility.yul\":15732:15737   */\n      dup2\n        /* \"#utility.yul\":15705:15738   */\n      tag_427\n      jump\t// in\n    tag_665:\n        /* \"#utility.yul\":15601:15744   */\n      swap3\n      swap2\n      pop\n      pop\n      jump\t// out\n        /* \"#utility.yul\":15750:16101   */\n    tag_83:\n        /* \"#utility.yul\":15820:15826   */\n      0x00\n        /* \"#utility.yul\":15869:15871   */\n      0x20\n        /* \"#utility.yul\":15857:15866   */\n      dup3\n        /* \"#utility.yul\":15848:15855   */\n      dup5\n        /* \"#utility.yul\":15844:15867   */\n      sub\n        /* \"#utility.yul\":15840:15872   */\n      slt\n        /* \"#utility.yul\":15837:15956   */\n      iszero\n      tag_667\n      jumpi\n        /* \"#utility.yul\":15875:15954   */\n      tag_668\n      tag_417\n      jump\t// in\n    tag_668:\n        /* \"#utility.yul\":15837:15956   */\n    tag_667:\n        /* \"#utility.yul\":15995:15996   */\n      0x00\n        /* \"#utility.yul\":16020:16084   */\n      tag_669\n        /* \"#utility.yul\":16076:16083   */\n      dup5\n        /* \"#utility.yul\":16067:16073   */\n      dup3\n        /* \"#utility.yul\":16056:16065   */\n      dup6\n        /* \"#utility.yul\":16052:16074   */\n      add\n        /* \"#utility.yul\":16020:16084   */\n      tag_453\n      jump\t// in\n    tag_669:\n        /* \"#utility.yul\":16010:16084   */\n      swap2\n      pop\n        /* \"#utility.yul\":15966:16094   */\n      pop\n        /* \"#utility.yul\":15750:16101   */\n      swap3\n      swap2\n      pop\n      pop\n      jump\t// out\n        /* \"#utility.yul\":16107:16275   */\n    tag_454:\n        /* \"#utility.yul\":16247:16267   */\n      0x50656e73696f6e2041646d696e204f6e6c790000000000000000000000000000\n        /* \"#utility.yul\":16243:16244   */\n      0x00\n        /* \"#utility.yul\":16235:16241   */\n      dup3\n        /* \"#utility.yul\":16231:16245   */\n      add\n        /* \"#utility.yul\":16224:16268   */\n      mstore\n        /* \"#utility.yul\":16107:16275   */\n      pop\n      jump\t// out\n        /* \"#utility.yul\":16281:16647   */\n    tag_455:\n        /* \"#utility.yul\":16423:16426   */\n      0x00\n        /* \"#utility.yul\":16444:16511   */\n      tag_672\n        /* \"#utility.yul\":16508:16510   */\n      0x12\n        /* \"#utility.yul\":16503:16506   */\n      dup4\n        /* \"#utility.yul\":16444:16511   */\n      tag_412\n      jump\t// in\n    tag_672:\n        /* \"#utility.yul\":16437:16511   */\n      swap2\n      pop\n        /* \"#utility.yul\":16520:16613   */\n      tag_673\n        /* \"#utility.yul\":16609:16612   */\n      dup3\n        /* \"#utility.yul\":16520:16613   */\n      tag_454\n      jump\t// in\n    tag_673:\n        /* \"#utility.yul\":16638:16640   */\n      0x20\n        /* \"#utility.yul\":16633:16636   */\n      dup3\n        /* \"#utility.yul\":16629:16641   */\n      add\n        /* \"#utility.yul\":16622:16641   */\n      swap1\n      pop\n        /* \"#utility.yul\":16281:16647   */\n      swap2\n      swap1\n      pop\n      jump\t// out\n        /* \"#utility.yul\":16653:17072   */\n    tag_86:\n        /* \"#utility.yul\":16819:16823   */\n      0x00\n        /* \"#utility.yul\":16857:16859   */\n      0x20\n        /* \"#utility.yul\":16846:16855   */\n      dup3\n        /* \"#utility.yul\":16842:16860   */\n      add\n        /* \"#utility.yul\":16834:16860   */\n      swap1\n      pop\n        /* \"#utility.yul\":16906:16915   */\n      dup2\n        /* \"#utility.yul\":16900:16904   */\n      dup2\n        /* \"#utility.yul\":16896:16916   */\n      sub\n        /* \"#utility.yul\":16892:16893   */\n      0x00\n        /* \"#utility.yul\":16881:16890   */\n      dup4\n        /* \"#utility.yul\":16877:16894   */\n      add\n        /* \"#utility.yul\":16870:16917   */\n      mstore\n        /* \"#utility.yul\":16934:17065   */\n      tag_675\n        /* \"#utility.yul\":17060:17064   */\n      dup2\n        /* \"#utility.yul\":16934:17065   */\n      tag_455\n      jump\t// in\n    tag_675:\n        /* \"#utility.yul\":16926:17065   */\n      swap1\n      pop\n        /* \"#utility.yul\":16653:17072   */\n      swap2\n      swap1\n      pop\n      jump\t// out\n        /* \"#utility.yul\":17078:17240   */\n    tag_456:\n        /* \"#utility.yul\":17218:17232   */\n      0x7661756c74206c6f636b65640000000000000000000000000000000000000000\n        /* \"#utility.yul\":17214:17215   */\n      0x00\n        /* \"#utility.yul\":17206:17212   */\n      dup3\n        /* \"#utility.yul\":17202:17216   */\n      add\n        /* \"#utility.yul\":17195:17233   */\n      mstore\n        /* \"#utility.yul\":17078:17240   */\n      pop\n      jump\t// out\n        /* \"#utility.yul\":17246:17612   */\n    tag_457:\n        /* \"#utility.yul\":17388:17391   */\n      0x00\n        /* \"#utility.yul\":17409:17476   */\n      tag_678\n        /* \"#utility.yul\":17473:17475   */\n      0x0c\n        /* \"#utility.yul\":17468:17471   */\n      dup4\n        /* \"#utility.yul\":17409:17476   */\n      tag_412\n      jump\t// in\n    tag_678:\n        /* \"#utility.yul\":17402:17476   */\n      swap2\n      pop\n        /* \"#utility.yul\":17485:17578   */\n      tag_679\n        /* \"#utility.yul\":17574:17577   */\n      dup3\n        /* \"#utility.yul\":17485:17578   */\n      tag_456\n      jump\t// in\n    tag_679:\n        /* \"#utility.yul\":17603:17605   */\n      0x20\n        /* \"#utility.yul\":17598:17601   */\n      dup3\n        /* \"#utility.yul\":17594:17606   */\n      add\n        /* \"#utility.yul\":17587:17606   */\n      swap1\n      pop\n        /* \"#utility.yul\":17246:17612   */\n      swap2\n      swap1\n      pop\n      jump\t// out\n        /* \"#utility.yul\":17618:18037   */\n    tag_90:\n        /* \"#utility.yul\":17784:17788   */\n      0x00\n        /* \"#utility.yul\":17822:17824   */\n      0x20\n        /* \"#utility.yul\":17811:17820   */\n      dup3\n        /* \"#utility.yul\":17807:17825   */\n      add\n        /* \"#utility.yul\":17799:17825   */\n      swap1\n      pop\n        /* \"#utility.yul\":17871:17880   */\n      dup2\n        /* \"#utility.yul\":17865:17869   */\n      dup2\n        /* \"#utility.yul\":17861:17881   */\n      sub\n        /* \"#utility.yul\":17857:17858   */\n      0x00\n        /* \"#utility.yul\":17846:17855   */\n      dup4\n        /* \"#utility.yul\":17842:17859   */\n      add\n        /* \"#utility.yul\":17835:17882   */\n      mstore\n        /* \"#utility.yul\":17899:18030   */\n      tag_681\n        /* \"#utility.yul\":18025:18029   */\n      dup2\n        /* \"#utility.yul\":17899:18030   */\n      tag_457\n      jump\t// in\n    tag_681:\n        /* \"#utility.yul\":17891:18030   */\n      swap1\n      pop\n        /* \"#utility.yul\":17618:18037   */\n      swap2\n      swap1\n      pop\n      jump\t// out\n        /* \"#utility.yul\":18043:18205   */\n    tag_458:\n        /* \"#utility.yul\":18183:18197   */\n      0x7661756c7420636c6f7365640000000000000000000000000000000000000000\n        /* \"#utility.yul\":18179:18180   */\n      0x00\n        /* \"#utility.yul\":18171:18177   */\n      dup3\n        /* \"#utility.yul\":18167:18181   */\n      add\n        /* \"#utility.yul\":18160:18198   */\n      mstore\n        /* \"#utility.yul\":18043:18205   */\n      pop\n      jump\t// out\n        /* \"#utility.yul\":18211:18577   */\n    tag_459:\n        /* \"#utility.yul\":18353:18356   */\n      0x00\n        /* \"#utility.yul\":18374:18441   */\n      tag_684\n        /* \"#utility.yul\":18438:18440   */\n      0x0c\n        /* \"#utility.yul\":18433:18436   */\n      dup4\n        /* \"#utility.yul\":18374:18441   */\n      tag_412\n      jump\t// in\n    tag_684:\n        /* \"#utility.yul\":18367:18441   */\n      swap2\n      pop\n        /* \"#utility.yul\":18450:18543   */\n      tag_685\n        /* \"#utility.yul\":18539:18542   */\n      dup3\n        /* \"#utility.yul\":18450:18543   */\n      tag_458\n      jump\t// in\n    tag_685:\n        /* \"#utility.yul\":18568:18570   */\n      0x20\n        /* \"#utility.yul\":18563:18566   */\n      dup3\n        /* \"#utility.yul\":18559:18571   */\n      add\n        /* \"#utility.yul\":18552:18571   */\n      swap1\n      pop\n        /* \"#utility.yul\":18211:18577   */\n      swap2\n      swap1\n      pop\n      jump\t// out\n        /* \"#utility.yul\":18583:19002   */\n    tag_98:\n        /* \"#utility.yul\":18749:18753   */\n      0x00\n        /* \"#utility.yul\":18787:18789   */\n      0x20\n        /* \"#utility.yul\":18776:18785   */\n      dup3\n        /* \"#utility.yul\":18772:18790   */\n      add\n        /* \"#utility.yul\":18764:18790   */\n      swap1\n      pop\n        /* \"#utility.yul\":18836:18845   */\n      dup2\n        /* \"#utility.yul\":18830:18834   */\n      dup2\n        /* \"#utility.yul\":18826:18846   */\n      sub\n        /* \"#utility.yul\":18822:18823   */\n      0x00\n        /* \"#utility.yul\":18811:18820   */\n      dup4\n        /* \"#utility.yul\":18807:18824   */\n      add\n        /* \"#utility.yul\":18800:18847   */\n      mstore\n        /* \"#utility.yul\":18864:18995   */\n      tag_687\n        /* \"#utility.yul\":18990:18994   */\n      dup2\n        /* \"#utility.yul\":18864:18995   */\n      tag_459\n      jump\t// in\n    tag_687:\n        /* \"#utility.yul\":18856:18995   */\n      swap1\n      pop\n        /* \"#utility.yul\":18583:19002   */\n      swap2\n      swap1\n      pop\n      jump\t// out\n        /* \"#utility.yul\":19008:19172   */\n    tag_460:\n        /* \"#utility.yul\":19148:19164   */\n      0x70656e73696f6e20636c6f736564000000000000000000000000000000000000\n        /* \"#utility.yul\":19144:19145   */\n      0x00\n        /* \"#utility.yul\":19136:19142   */\n      dup3\n        /* \"#utility.yul\":19132:19146   */\n      add\n        /* \"#utility.yul\":19125:19165   */\n      mstore\n        /* \"#utility.yul\":19008:19172   */\n      pop\n      jump\t// out\n        /* \"#utility.yul\":19178:19544   */\n    tag_461:\n        /* \"#utility.yul\":19320:19323   */\n      0x00\n        /* \"#utility.yul\":19341:19408   */\n      tag_690\n        /* \"#utility.yul\":19405:19407   */\n      0x0e\n        /* \"#utility.yul\":19400:19403   */\n      dup4\n        /* \"#utility.yul\":19341:19408   */\n      tag_412\n      jump\t// in\n    tag_690:\n        /* \"#utility.yul\":19334:19408   */\n      swap2\n      pop\n        /* \"#utility.yul\":19417:19510   */\n      tag_691\n        /* \"#utility.yul\":19506:19509   */\n      dup3\n        /* \"#utility.yul\":19417:19510   */\n      tag_460\n      jump\t// in\n    tag_691:\n        /* \"#utility.yul\":19535:19537   */\n      0x20\n        /* \"#utility.yul\":19530:19533   */\n      dup3\n        /* \"#utility.yul\":19526:19538   */\n      add\n        /* \"#utility.yul\":19519:19538   */\n      swap1\n      pop\n        /* \"#utility.yul\":19178:19544   */\n      swap2\n      swap1\n      pop\n      jump\t// out\n        /* \"#utility.yul\":19550:19969   */\n    tag_108:\n        /* \"#utility.yul\":19716:19720   */\n      0x00\n        /* \"#utility.yul\":19754:19756   */\n      0x20\n        /* \"#utility.yul\":19743:19752   */\n      dup3\n        /* \"#utility.yul\":19739:19757   */\n      add\n        /* \"#utility.yul\":19731:19757   */\n      swap1\n      pop\n        /* \"#utility.yul\":19803:19812   */\n      dup2\n        /* \"#utility.yul\":19797:19801   */\n      dup2\n        /* \"#utility.yul\":19793:19813   */\n      sub\n        /* \"#utility.yul\":19789:19790   */\n      0x00\n        /* \"#utility.yul\":19778:19787   */\n      dup4\n        /* \"#utility.yul\":19774:19791   */\n      add\n        /* \"#utility.yul\":19767:19814   */\n      mstore\n        /* \"#utility.yul\":19831:19962   */\n      tag_693\n        /* \"#utility.yul\":19957:19961   */\n      dup2\n        /* \"#utility.yul\":19831:19962   */\n      tag_461\n      jump\t// in\n    tag_693:\n        /* \"#utility.yul\":19823:19962   */\n      swap1\n      pop\n        /* \"#utility.yul\":19550:19969   */\n      swap2\n      swap1\n      pop\n      jump\t// out\n        /* \"#utility.yul\":19975:20144   */\n    tag_462:\n        /* \"#utility.yul\":20115:20136   */\n      0x70656e73696f6e20696e20747265617375727900000000000000000000000000\n        /* \"#utility.yul\":20111:20112   */\n      0x00\n        /* \"#utility.yul\":20103:20109   */\n      dup3\n        /* \"#utility.yul\":20099:20113   */\n      add\n        /* \"#utility.yul\":20092:20137   */\n      mstore\n        /* \"#utility.yul\":19975:20144   */\n      pop\n      jump\t// out\n        /* \"#utility.yul\":20150:20516   */\n    tag_463:\n        /* \"#utility.yul\":20292:20295   */\n      0x00\n        /* \"#utility.yul\":20313:20380   */\n      tag_696\n        /* \"#utility.yul\":20377:20379   */\n      0x13\n        /* \"#utility.yul\":20372:20375   */\n      dup4\n        /* \"#utility.yul\":20313:20380   */\n      tag_412\n      jump\t// in\n    tag_696:\n        /* \"#utility.yul\":20306:20380   */\n      swap2\n      pop\n        /* \"#utility.yul\":20389:20482   */\n      tag_697\n        /* \"#utility.yul\":20478:20481   */\n      dup3\n        /* \"#utility.yul\":20389:20482   */\n      tag_462\n      jump\t// in\n    tag_697:\n        /* \"#utility.yul\":20507:20509   */\n      0x20\n        /* \"#utility.yul\":20502:20505   */\n      dup3\n        /* \"#utility.yul\":20498:20510   */\n      add\n        /* \"#utility.yul\":20491:20510   */\n      swap1\n      pop\n        /* \"#utility.yul\":20150:20516   */\n      swap2\n      swap1\n      pop\n      jump\t// out\n        /* \"#utility.yul\":20522:20941   */\n    tag_111:\n        /* \"#utility.yul\":20688:20692   */\n      0x00\n        /* \"#utility.yul\":20726:20728   */\n      0x20\n        /* \"#utility.yul\":20715:20724   */\n      dup3\n        /* \"#utility.yul\":20711:20729   */\n      add\n        /* \"#utility.yul\":20703:20729   */\n      swap1\n      pop\n        /* \"#utility.yul\":20775:20784   */\n      dup2\n        /* \"#utility.yul\":20769:20773   */\n      dup2\n        /* \"#utility.yul\":20765:20785   */\n      sub\n        /* \"#utility.yul\":20761:20762   */\n      0x00\n        /* \"#utility.yul\":20750:20759   */\n      dup4\n        /* \"#utility.yul\":20746:20763   */\n      add\n        /* \"#utility.yul\":20739:20786   */\n      mstore\n        /* \"#utility.yul\":20803:20934   */\n      tag_699\n        /* \"#utility.yul\":20929:20933   */\n      dup2\n        /* \"#utility.yul\":20803:20934   */\n      tag_463\n      jump\t// in\n    tag_699:\n        /* \"#utility.yul\":20795:20934   */\n      swap1\n      pop\n        /* \"#utility.yul\":20522:20941   */\n      swap2\n      swap1\n      pop\n      jump\t// out\n        /* \"#utility.yul\":20947:21065   */\n    tag_464:\n        /* \"#utility.yul\":21034:21058   */\n      tag_701\n        /* \"#utility.yul\":21052:21057   */\n      dup2\n        /* \"#utility.yul\":21034:21058   */\n      tag_426\n      jump\t// in\n    tag_701:\n        /* \"#utility.yul\":21029:21032   */\n      dup3\n        /* \"#utility.yul\":21022:21059   */\n      mstore\n        /* \"#utility.yul\":20947:21065   */\n      pop\n      pop\n      jump\t// out\n        /* \"#utility.yul\":21071:21293   */\n    tag_119:\n        /* \"#utility.yul\":21164:21168   */\n      0x00\n        /* \"#utility.yul\":21202:21204   */\n      0x20\n        /* \"#utility.yul\":21191:21200   */\n      dup3\n        /* \"#utility.yul\":21187:21205   */\n      add\n        /* \"#utility.yul\":21179:21205   */\n      swap1\n      pop\n        /* \"#utility.yul\":21215:21286   */\n      tag_703\n        /* \"#utility.yul\":21283:21284   */\n      0x00\n        /* \"#utility.yul\":21272:21281   */\n      dup4\n        /* \"#utility.yul\":21268:21285   */\n      add\n        /* \"#utility.yul\":21259:21265   */\n      dup5\n        /* \"#utility.yul\":21215:21286   */\n      tag_464\n      jump\t// in\n    tag_703:\n        /* \"#utility.yul\":21071:21293   */\n      swap3\n      swap2\n      pop\n      pop\n      jump\t// out\n        /* \"#utility.yul\":21299:21442   */\n    tag_465:\n        /* \"#utility.yul\":21356:21361   */\n      0x00\n        /* \"#utility.yul\":21387:21393   */\n      dup2\n        /* \"#utility.yul\":21381:21394   */\n      mload\n        /* \"#utility.yul\":21372:21394   */\n      swap1\n      pop\n        /* \"#utility.yul\":21403:21436   */\n      tag_705\n        /* \"#utility.yul\":21430:21435   */\n      dup2\n        /* \"#utility.yul\":21403:21436   */\n      tag_419\n      jump\t// in\n    tag_705:\n        /* \"#utility.yul\":21299:21442   */\n      swap3\n      swap2\n      pop\n      pop\n      jump\t// out\n        /* \"#utility.yul\":21448:21799   */\n    tag_123:\n        /* \"#utility.yul\":21518:21524   */\n      0x00\n        /* \"#utility.yul\":21567:21569   */\n      0x20\n        /* \"#utility.yul\":21555:21564   */\n      dup3\n        /* \"#utility.yul\":21546:21553   */\n      dup5\n        /* \"#utility.yul\":21542:21565   */\n      sub\n        /* \"#utility.yul\":21538:21570   */\n      slt\n        /* \"#utility.yul\":21535:21654   */\n      iszero\n      tag_707\n      jumpi\n        /* \"#utility.yul\":21573:21652   */\n      tag_708\n      tag_417\n      jump\t// in\n    tag_708:\n        /* \"#utility.yul\":21535:21654   */\n    tag_707:\n        /* \"#utility.yul\":21693:21694   */\n      0x00\n        /* \"#utility.yul\":21718:21782   */\n      tag_709\n        /* \"#utility.yul\":21774:21781   */\n      dup5\n        /* \"#utility.yul\":21765:21771   */\n      dup3\n        /* \"#utility.yul\":21754:21763   */\n      dup6\n        /* \"#utility.yul\":21750:21772   */\n      add\n        /* \"#utility.yul\":21718:21782   */\n      tag_465\n      jump\t// in\n    tag_709:\n        /* \"#utility.yul\":21708:21782   */\n      swap2\n      pop\n        /* \"#utility.yul\":21664:21792   */\n      pop\n        /* \"#utility.yul\":21448:21799   */\n      swap3\n      swap2\n      pop\n      pop\n      jump\t// out\n        /* \"#utility.yul\":21805:22137   */\n    tag_125:\n        /* \"#utility.yul\":21926:21930   */\n      0x00\n        /* \"#utility.yul\":21964:21966   */\n      0x40\n        /* \"#utility.yul\":21953:21962   */\n      dup3\n        /* \"#utility.yul\":21949:21967   */\n      add\n        /* \"#utility.yul\":21941:21967   */\n      swap1\n      pop\n        /* \"#utility.yul\":21977:22048   */\n      tag_711\n        /* \"#utility.yul\":22045:22046   */\n      0x00\n        /* \"#utility.yul\":22034:22043   */\n      dup4\n        /* \"#utility.yul\":22030:22047   */\n      add\n        /* \"#utility.yul\":22021:22027   */\n      dup6\n        /* \"#utility.yul\":21977:22048   */\n      tag_464\n      jump\t// in\n    tag_711:\n        /* \"#utility.yul\":22058:22130   */\n      tag_712\n        /* \"#utility.yul\":22126:22128   */\n      0x20\n        /* \"#utility.yul\":22115:22124   */\n      dup4\n        /* \"#utility.yul\":22111:22129   */\n      add\n        /* \"#utility.yul\":22102:22108   */\n      dup5\n        /* \"#utility.yul\":22058:22130   */\n      tag_410\n      jump\t// in\n    tag_712:\n        /* \"#utility.yul\":21805:22137   */\n      swap4\n      swap3\n      pop\n      pop\n      pop\n      jump\t// out\n        /* \"#utility.yul\":22143:22233   */\n    tag_466:\n        /* \"#utility.yul\":22177:22184   */\n      0x00\n        /* \"#utility.yul\":22220:22225   */\n      dup2\n        /* \"#utility.yul\":22213:22226   */\n      iszero\n        /* \"#utility.yul\":22206:22227   */\n      iszero\n        /* \"#utility.yul\":22195:22227   */\n      swap1\n      pop\n        /* \"#utility.yul\":22143:22233   */\n      swap2\n      swap1\n      pop\n      jump\t// out\n        /* \"#utility.yul\":22239:22355   */\n    tag_467:\n        /* \"#utility.yul\":22309:22330   */\n      tag_715\n        /* \"#utility.yul\":22324:22329   */\n      dup2\n        /* \"#utility.yul\":22309:22330   */\n      tag_466\n      jump\t// in\n    tag_715:\n        /* \"#utility.yul\":22302:22307   */\n      dup2\n        /* \"#utility.yul\":22299:22331   */\n      eq\n        /* \"#utility.yul\":22289:22349   */\n      tag_716\n      jumpi\n        /* \"#utility.yul\":22345:22346   */\n      0x00\n        /* \"#utility.yul\":22342:22343   */\n      0x00\n        /* \"#utility.yul\":22335:22347   */\n      revert\n        /* \"#utility.yul\":22289:22349   */\n    tag_716:\n        /* \"#utility.yul\":22239:22355   */\n      pop\n      jump\t// out\n        /* \"#utility.yul\":22361:22498   */\n    tag_468:\n        /* \"#utility.yul\":22415:22420   */\n      0x00\n        /* \"#utility.yul\":22446:22452   */\n      dup2\n        /* \"#utility.yul\":22440:22453   */\n      mload\n        /* \"#utility.yul\":22431:22453   */\n      swap1\n      pop\n        /* \"#utility.yul\":22462:22492   */\n      tag_718\n        /* \"#utility.yul\":22486:22491   */\n      dup2\n        /* \"#utility.yul\":22462:22492   */\n      tag_467\n      jump\t// in\n    tag_718:\n        /* \"#utility.yul\":22361:22498   */\n      swap3\n      swap2\n      pop\n      pop\n      jump\t// out\n        /* \"#utility.yul\":22504:22849   */\n    tag_129:\n        /* \"#utility.yul\":22571:22577   */\n      0x00\n        /* \"#utility.yul\":22620:22622   */\n      0x20\n        /* \"#utility.yul\":22608:22617   */\n      dup3\n        /* \"#utility.yul\":22599:22606   */\n      dup5\n        /* \"#utility.yul\":22595:22618   */\n      sub\n        /* \"#utility.yul\":22591:22623   */\n      slt\n        /* \"#utility.yul\":22588:22707   */\n      iszero\n      tag_720\n      jumpi\n        /* \"#utility.yul\":22626:22705   */\n      tag_721\n      tag_417\n      jump\t// in\n    tag_721:\n        /* \"#utility.yul\":22588:22707   */\n    tag_720:\n        /* \"#utility.yul\":22746:22747   */\n      0x00\n        /* \"#utility.yul\":22771:22832   */\n      tag_722\n        /* \"#utility.yul\":22824:22831   */\n      dup5\n        /* \"#utility.yul\":22815:22821   */\n      dup3\n        /* \"#utility.yul\":22804:22813   */\n      dup6\n        /* \"#utility.yul\":22800:22822   */\n      add\n        /* \"#utility.yul\":22771:22832   */\n      tag_468\n      jump\t// in\n    tag_722:\n        /* \"#utility.yul\":22761:22832   */\n      swap2\n      pop\n        /* \"#utility.yul\":22717:22842   */\n      pop\n        /* \"#utility.yul\":22504:22849   */\n      swap3\n      swap2\n      pop\n      pop\n      jump\t// out\n        /* \"#utility.yul\":22855:23018   */\n    tag_469:\n        /* \"#utility.yul\":22995:23010   */\n      0x7472656173757279206f6e6c7900000000000000000000000000000000000000\n        /* \"#utility.yul\":22991:22992   */\n      0x00\n        /* \"#utility.yul\":22983:22989   */\n      dup3\n        /* \"#utility.yul\":22979:22993   */\n      add\n        /* \"#utility.yul\":22972:23011   */\n      mstore\n        /* \"#utility.yul\":22855:23018   */\n      pop\n      jump\t// out\n        /* \"#utility.yul\":23024:23390   */\n    tag_470:\n        /* \"#utility.yul\":23166:23169   */\n      0x00\n        /* \"#utility.yul\":23187:23254   */\n      tag_725\n        /* \"#utility.yul\":23251:23253   */\n      0x0d\n        /* \"#utility.yul\":23246:23249   */\n      dup4\n        /* \"#utility.yul\":23187:23254   */\n      tag_412\n      jump\t// in\n    tag_725:\n        /* \"#utility.yul\":23180:23254   */\n      swap2\n      pop\n        /* \"#utility.yul\":23263:23356   */\n      tag_726\n        /* \"#utility.yul\":23352:23355   */\n      dup3\n        /* \"#utility.yul\":23263:23356   */\n      tag_469\n      jump\t// in\n    tag_726:\n        /* \"#utility.yul\":23381:23383   */\n      0x20\n        /* \"#utility.yul\":23376:23379   */\n      dup3\n        /* \"#utility.yul\":23372:23384   */\n      add\n        /* \"#utility.yul\":23365:23384   */\n      swap1\n      pop\n        /* \"#utility.yul\":23024:23390   */\n      swap2\n      swap1\n      pop\n      jump\t// out\n        /* \"#utility.yul\":23396:23815   */\n    tag_145:\n        /* \"#utility.yul\":23562:23566   */\n      0x00\n        /* \"#utility.yul\":23600:23602   */\n      0x20\n        /* \"#utility.yul\":23589:23598   */\n      dup3\n        /* \"#utility.yul\":23585:23603   */\n      add\n        /* \"#utility.yul\":23577:23603   */\n      swap1\n      pop\n        /* \"#utility.yul\":23649:23658   */\n      dup2\n        /* \"#utility.yul\":23643:23647   */\n      dup2\n        /* \"#utility.yul\":23639:23659   */\n      sub\n        /* \"#utility.yul\":23635:23636   */\n      0x00\n        /* \"#utility.yul\":23624:23633   */\n      dup4\n        /* \"#utility.yul\":23620:23637   */\n      add\n        /* \"#utility.yul\":23613:23660   */\n      mstore\n        /* \"#utility.yul\":23677:23808   */\n      tag_728\n        /* \"#utility.yul\":23803:23807   */\n      dup2\n        /* \"#utility.yul\":23677:23808   */\n      tag_470\n      jump\t// in\n    tag_728:\n        /* \"#utility.yul\":23669:23808   */\n      swap1\n      pop\n        /* \"#utility.yul\":23396:23815   */\n      swap2\n      swap1\n      pop\n      jump\t// out\n        /* \"#utility.yul\":23821:23997   */\n    tag_471:\n        /* \"#utility.yul\":23961:23989   */\n      0x696e76616c69642070656e73696f6e2070756c6c207374617465000000000000\n        /* \"#utility.yul\":23957:23958   */\n      0x00\n        /* \"#utility.yul\":23949:23955   */\n      dup3\n        /* \"#utility.yul\":23945:23959   */\n      add\n        /* \"#utility.yul\":23938:23990   */\n      mstore\n        /* \"#utility.yul\":23821:23997   */\n      pop\n      jump\t// out\n        /* \"#utility.yul\":24003:24369   */\n    tag_472:\n        /* \"#utility.yul\":24145:24148   */\n      0x00\n        /* \"#utility.yul\":24166:24233   */\n      tag_731\n        /* \"#utility.yul\":24230:24232   */\n      0x1a\n        /* \"#utility.yul\":24225:24228   */\n      dup4\n        /* \"#utility.yul\":24166:24233   */\n      tag_412\n      jump\t// in\n    tag_731:\n        /* \"#utility.yul\":24159:24233   */\n      swap2\n      pop\n        /* \"#utility.yul\":24242:24335   */\n      tag_732\n        /* \"#utility.yul\":24331:24334   */\n      dup3\n        /* \"#utility.yul\":24242:24335   */\n      tag_471\n      jump\t// in\n    tag_732:\n        /* \"#utility.yul\":24360:24362   */\n      0x20\n        /* \"#utility.yul\":24355:24358   */\n      dup3\n        /* \"#utility.yul\":24351:24363   */\n      add\n        /* \"#utility.yul\":24344:24363   */\n      swap1\n      pop\n        /* \"#utility.yul\":24003:24369   */\n      swap2\n      swap1\n      pop\n      jump\t// out\n        /* \"#utility.yul\":24375:24794   */\n    tag_152:\n        /* \"#utility.yul\":24541:24545   */\n      0x00\n        /* \"#utility.yul\":24579:24581   */\n      0x20\n        /* \"#utility.yul\":24568:24577   */\n      dup3\n        /* \"#utility.yul\":24564:24582   */\n      add\n        /* \"#utility.yul\":24556:24582   */\n      swap1\n      pop\n        /* \"#utility.yul\":24628:24637   */\n      dup2\n        /* \"#utility.yul\":24622:24626   */\n      dup2\n        /* \"#utility.yul\":24618:24638   */\n      sub\n        /* \"#utility.yul\":24614:24615   */\n      0x00\n        /* \"#utility.yul\":24603:24612   */\n      dup4\n        /* \"#utility.yul\":24599:24616   */\n      add\n        /* \"#utility.yul\":24592:24639   */\n      mstore\n        /* \"#utility.yul\":24656:24787   */\n      tag_734\n        /* \"#utility.yul\":24782:24786   */\n      dup2\n        /* \"#utility.yul\":24656:24787   */\n      tag_472\n      jump\t// in\n    tag_734:\n        /* \"#utility.yul\":24648:24787   */\n      swap1\n      pop\n        /* \"#utility.yul\":24375:24794   */\n      swap2\n      swap1\n      pop\n      jump\t// out\n        /* \"#utility.yul\":24800:24970   */\n    tag_473:\n        /* \"#utility.yul\":24940:24962   */\n      0x7661756c7420616c72656164792070756c6c6564000000000000000000000000\n        /* \"#utility.yul\":24936:24937   */\n      0x00\n        /* \"#utility.yul\":24928:24934   */\n      dup3\n        /* \"#utility.yul\":24924:24938   */\n      add\n        /* \"#utility.yul\":24917:24963   */\n      mstore\n        /* \"#utility.yul\":24800:24970   */\n      pop\n      jump\t// out\n        /* \"#utility.yul\":24976:25342   */\n    tag_474:\n        /* \"#utility.yul\":25118:25121   */\n      0x00\n        /* \"#utility.yul\":25139:25206   */\n      tag_737\n        /* \"#utility.yul\":25203:25205   */\n      0x14\n        /* \"#utility.yul\":25198:25201   */\n      dup4\n        /* \"#utility.yul\":25139:25206   */\n      tag_412\n      jump\t// in\n    tag_737:\n        /* \"#utility.yul\":25132:25206   */\n      swap2\n      pop\n        /* \"#utility.yul\":25215:25308   */\n      tag_738\n        /* \"#utility.yul\":25304:25307   */\n      dup3\n        /* \"#utility.yul\":25215:25308   */\n      tag_473\n      jump\t// in\n    tag_738:\n        /* \"#utility.yul\":25333:25335   */\n      0x20\n        /* \"#utility.yul\":25328:25331   */\n      dup3\n        /* \"#utility.yul\":25324:25336   */\n      add\n        /* \"#utility.yul\":25317:25336   */\n      swap1\n      pop\n        /* \"#utility.yul\":24976:25342   */\n      swap2\n      swap1\n      pop\n      jump\t// out\n        /* \"#utility.yul\":25348:25767   */\n    tag_155:\n        /* \"#utility.yul\":25514:25518   */\n      0x00\n        /* \"#utility.yul\":25552:25554   */\n      0x20\n        /* \"#utility.yul\":25541:25550   */\n      dup3\n        /* \"#utility.yul\":25537:25555   */\n      add\n        /* \"#utility.yul\":25529:25555   */\n      swap1\n      pop\n        /* \"#utility.yul\":25601:25610   */\n      dup2\n        /* \"#utility.yul\":25595:25599   */\n      dup2\n        /* \"#utility.yul\":25591:25611   */\n      sub\n        /* \"#utility.yul\":25587:25588   */\n      0x00\n        /* \"#utility.yul\":25576:25585   */\n      dup4\n        /* \"#utility.yul\":25572:25589   */\n      add\n        /* \"#utility.yul\":25565:25612   */\n      mstore\n        /* \"#utility.yul\":25629:25760   */\n      tag_740\n        /* \"#utility.yul\":25755:25759   */\n      dup2\n        /* \"#utility.yul\":25629:25760   */\n      tag_474\n      jump\t// in\n    tag_740:\n        /* \"#utility.yul\":25621:25760   */\n      swap1\n      pop\n        /* \"#utility.yul\":25348:25767   */\n      swap2\n      swap1\n      pop\n      jump\t// out\n        /* \"#utility.yul\":25773:25941   */\n    tag_475:\n        /* \"#utility.yul\":25913:25933   */\n      0x70656e73696f6e206e6f7420636c6f7365640000000000000000000000000000\n        /* \"#utility.yul\":25909:25910   */\n      0x00\n        /* \"#utility.yul\":25901:25907   */\n      dup3\n        /* \"#utility.yul\":25897:25911   */\n      add\n        /* \"#utility.yul\":25890:25934   */\n      mstore\n        /* \"#utility.yul\":25773:25941   */\n      pop\n      jump\t// out\n        /* \"#utility.yul\":25947:26313   */\n    tag_476:\n        /* \"#utility.yul\":26089:26092   */\n      0x00\n        /* \"#utility.yul\":26110:26177   */\n      tag_743\n        /* \"#utility.yul\":26174:26176   */\n      0x12\n        /* \"#utility.yul\":26169:26172   */\n      dup4\n        /* \"#utility.yul\":26110:26177   */\n      tag_412\n      jump\t// in\n    tag_743:\n        /* \"#utility.yul\":26103:26177   */\n      swap2\n      pop\n        /* \"#utility.yul\":26186:26279   */\n      tag_744\n        /* \"#utility.yul\":26275:26278   */\n      dup3\n        /* \"#utility.yul\":26186:26279   */\n      tag_475\n      jump\t// in\n    tag_744:\n        /* \"#utility.yul\":26304:26306   */\n      0x20\n        /* \"#utility.yul\":26299:26302   */\n      dup3\n        /* \"#utility.yul\":26295:26307   */\n      add\n        /* \"#utility.yul\":26288:26307   */\n      swap1\n      pop\n        /* \"#utility.yul\":25947:26313   */\n      swap2\n      swap1\n      pop\n      jump\t// out\n        /* \"#utility.yul\":26319:26738   */\n    tag_181:\n        /* \"#utility.yul\":26485:26489   */\n      0x00\n        /* \"#utility.yul\":26523:26525   */\n      0x20\n        /* \"#utility.yul\":26512:26521   */\n      dup3\n        /* \"#utility.yul\":26508:26526   */\n      add\n        /* \"#utility.yul\":26500:26526   */\n      swap1\n      pop\n        /* \"#utility.yul\":26572:26581   */\n      dup2\n        /* \"#utility.yul\":26566:26570   */\n      dup2\n        /* \"#utility.yul\":26562:26582   */\n      sub\n        /* \"#utility.yul\":26558:26559   */\n      0x00\n        /* \"#utility.yul\":26547:26556   */\n      dup4\n        /* \"#utility.yul\":26543:26560   */\n      add\n        /* \"#utility.yul\":26536:26583   */\n      mstore\n        /* \"#utility.yul\":26600:26731   */\n      tag_746\n        /* \"#utility.yul\":26726:26730   */\n      dup2\n        /* \"#utility.yul\":26600:26731   */\n      tag_476\n      jump\t// in\n    tag_746:\n        /* \"#utility.yul\":26592:26731   */\n      swap1\n      pop\n        /* \"#utility.yul\":26319:26738   */\n      swap2\n      swap1\n      pop\n      jump\t// out\n        /* \"#utility.yul\":26744:26925   */\n    tag_477:\n        /* \"#utility.yul\":26884:26917   */\n      0x696e73756666696369656e74207072696e636970616c2072657475726e656400\n        /* \"#utility.yul\":26880:26881   */\n      0x00\n        /* \"#utility.yul\":26872:26878   */\n      dup3\n        /* \"#utility.yul\":26868:26882   */\n      add\n        /* \"#utility.yul\":26861:26918   */\n      mstore\n        /* \"#utility.yul\":26744:26925   */\n      pop\n      jump\t// out\n        /* \"#utility.yul\":26931:27297   */\n    tag_478:\n        /* \"#utility.yul\":27073:27076   */\n      0x00\n        /* \"#utility.yul\":27094:27161   */\n      tag_749\n        /* \"#utility.yul\":27158:27160   */\n      0x1f\n        /* \"#utility.yul\":27153:27156   */\n      dup4\n        /* \"#utility.yul\":27094:27161   */\n      tag_412\n      jump\t// in\n    tag_749:\n        /* \"#utility.yul\":27087:27161   */\n      swap2\n      pop\n        /* \"#utility.yul\":27170:27263   */\n      tag_750\n        /* \"#utility.yul\":27259:27262   */\n      dup3\n        /* \"#utility.yul\":27170:27263   */\n      tag_477\n      jump\t// in\n    tag_750:\n        /* \"#utility.yul\":27288:27290   */\n      0x20\n        /* \"#utility.yul\":27283:27286   */\n      dup3\n        /* \"#utility.yul\":27279:27291   */\n      add\n        /* \"#utility.yul\":27272:27291   */\n      swap1\n      pop\n        /* \"#utility.yul\":26931:27297   */\n      swap2\n      swap1\n      pop\n      jump\t// out\n        /* \"#utility.yul\":27303:27722   */\n    tag_217:\n        /* \"#utility.yul\":27469:27473   */\n      0x00\n        /* \"#utility.yul\":27507:27509   */\n      0x20\n        /* \"#utility.yul\":27496:27505   */\n      dup3\n        /* \"#utility.yul\":27492:27510   */\n      add\n        /* \"#utility.yul\":27484:27510   */\n      swap1\n      pop\n        /* \"#utility.yul\":27556:27565   */\n      dup2\n        /* \"#utility.yul\":27550:27554   */\n      dup2\n        /* \"#utility.yul\":27546:27566   */\n      sub\n        /* \"#utility.yul\":27542:27543   */\n      0x00\n        /* \"#utility.yul\":27531:27540   */\n      dup4\n        /* \"#utility.yul\":27527:27544   */\n      add\n        /* \"#utility.yul\":27520:27567   */\n      mstore\n        /* \"#utility.yul\":27584:27715   */\n      tag_752\n        /* \"#utility.yul\":27710:27714   */\n      dup2\n        /* \"#utility.yul\":27584:27715   */\n      tag_478\n      jump\t// in\n    tag_752:\n        /* \"#utility.yul\":27576:27715   */\n      swap1\n      pop\n        /* \"#utility.yul\":27303:27722   */\n      swap2\n      swap1\n      pop\n      jump\t// out\n        /* \"#utility.yul\":27728:27908   */\n    tag_479:\n        /* \"#utility.yul\":27776:27853   */\n      0x4e487b7100000000000000000000000000000000000000000000000000000000\n        /* \"#utility.yul\":27773:27774   */\n      0x00\n        /* \"#utility.yul\":27766:27854   */\n      mstore\n        /* \"#utility.yul\":27873:27877   */\n      0x11\n        /* \"#utility.yul\":27870:27871   */\n      0x04\n        /* \"#utility.yul\":27863:27878   */\n      mstore\n        /* \"#utility.yul\":27897:27901   */\n      0x24\n        /* \"#utility.yul\":27894:27895   */\n      0x00\n        /* \"#utility.yul\":27887:27902   */\n      revert\n        /* \"#utility.yul\":27914:28105   */\n    tag_219:\n        /* \"#utility.yul\":27954:27957   */\n      0x00\n        /* \"#utility.yul\":27973:27993   */\n      tag_755\n        /* \"#utility.yul\":27991:27992   */\n      dup3\n        /* \"#utility.yul\":27973:27993   */\n      tag_409\n      jump\t// in\n    tag_755:\n        /* \"#utility.yul\":27968:27993   */\n      swap2\n      pop\n        /* \"#utility.yul\":28007:28027   */\n      tag_756\n        /* \"#utility.yul\":28025:28026   */\n      dup4\n        /* \"#utility.yul\":28007:28027   */\n      tag_409\n      jump\t// in\n    tag_756:\n        /* \"#utility.yul\":28002:28027   */\n      swap3\n      pop\n        /* \"#utility.yul\":28050:28051   */\n      dup3\n        /* \"#utility.yul\":28047:28048   */\n      dup3\n        /* \"#utility.yul\":28043:28052   */\n      add\n        /* \"#utility.yul\":28036:28052   */\n      swap1\n      pop\n        /* \"#utility.yul\":28071:28074   */\n      dup1\n        /* \"#utility.yul\":28068:28069   */\n      dup3\n        /* \"#utility.yul\":28065:28075   */\n      gt\n        /* \"#utility.yul\":28062:28098   */\n      iszero\n      tag_757\n      jumpi\n        /* \"#utility.yul\":28078:28096   */\n      tag_758\n      tag_479\n      jump\t// in\n    tag_758:\n        /* \"#utility.yul\":28062:28098   */\n    tag_757:\n        /* \"#utility.yul\":27914:28105   */\n      swap3\n      swap2\n      pop\n      pop\n      jump\t// out\n        /* \"#utility.yul\":28111:28277   */\n    tag_480:\n        /* \"#utility.yul\":28251:28269   */\n      0x7661756c74206e6f742070756c6c656400000000000000000000000000000000\n        /* \"#utility.yul\":28247:28248   */\n      0x00\n        /* \"#utility.yul\":28239:28245   */\n      dup3\n        /* \"#utility.yul\":28235:28249   */\n      add\n        /* \"#utility.yul\":28228:28270   */\n      mstore\n        /* \"#utility.yul\":28111:28277   */\n      pop\n      jump\t// out\n        /* \"#utility.yul\":28283:28649   */\n    tag_481:\n        /* \"#utility.yul\":28425:28428   */\n      0x00\n        /* \"#utility.yul\":28446:28513   */\n      tag_761\n        /* \"#utility.yul\":28510:28512   */\n      0x10\n        /* \"#utility.yul\":28505:28508   */\n      dup4\n        /* \"#utility.yul\":28446:28513   */\n      tag_412\n      jump\t// in\n    tag_761:\n        /* \"#utility.yul\":28439:28513   */\n      swap2\n      pop\n        /* \"#utility.yul\":28522:28615   */\n      tag_762\n        /* \"#utility.yul\":28611:28614   */\n      dup3\n        /* \"#utility.yul\":28522:28615   */\n      tag_480\n      jump\t// in\n    tag_762:\n        /* \"#utility.yul\":28640:28642   */\n      0x20\n        /* \"#utility.yul\":28635:28638   */\n      dup3\n        /* \"#utility.yul\":28631:28643   */\n      add\n        /* \"#utility.yul\":28624:28643   */\n      swap1\n      pop\n        /* \"#utility.yul\":28283:28649   */\n      swap2\n      swap1\n      pop\n      jump\t// out\n        /* \"#utility.yul\":28655:29074   */\n    tag_222:\n        /* \"#utility.yul\":28821:28825   */\n      0x00\n        /* \"#utility.yul\":28859:28861   */\n      0x20\n        /* \"#utility.yul\":28848:28857   */\n      dup3\n        /* \"#utility.yul\":28844:28862   */\n      add\n        /* \"#utility.yul\":28836:28862   */\n      swap1\n      pop\n        /* \"#utility.yul\":28908:28917   */\n      dup2\n        /* \"#utility.yul\":28902:28906   */\n      dup2\n        /* \"#utility.yul\":28898:28918   */\n      sub\n        /* \"#utility.yul\":28894:28895   */\n      0x00\n        /* \"#utility.yul\":28883:28892   */\n      dup4\n        /* \"#utility.yul\":28879:28896   */\n      add\n        /* \"#utility.yul\":28872:28919   */\n      mstore\n        /* \"#utility.yul\":28936:29067   */\n      tag_764\n        /* \"#utility.yul\":29062:29066   */\n      dup2\n        /* \"#utility.yul\":28936:29067   */\n      tag_481\n      jump\t// in\n    tag_764:\n        /* \"#utility.yul\":28928:29067   */\n      swap1\n      pop\n        /* \"#utility.yul\":28655:29074   */\n      swap2\n      swap1\n      pop\n      jump\t// out\n        /* \"#utility.yul\":29080:29258   */\n    tag_482:\n        /* \"#utility.yul\":29220:29250   */\n      0x696e7375666669656e74207472616e736d69747465642076616c756500000000\n        /* \"#utility.yul\":29216:29217   */\n      0x00\n        /* \"#utility.yul\":29208:29214   */\n      dup3\n        /* \"#utility.yul\":29204:29218   */\n      add\n        /* \"#utility.yul\":29197:29251   */\n      mstore\n        /* \"#utility.yul\":29080:29258   */\n      pop\n      jump\t// out\n        /* \"#utility.yul\":29264:29630   */\n    tag_483:\n        /* \"#utility.yul\":29406:29409   */\n      0x00\n        /* \"#utility.yul\":29427:29494   */\n      tag_767\n        /* \"#utility.yul\":29491:29493   */\n      0x1c\n        /* \"#utility.yul\":29486:29489   */\n      dup4\n        /* \"#utility.yul\":29427:29494   */\n      tag_412\n      jump\t// in\n    tag_767:\n        /* \"#utility.yul\":29420:29494   */\n      swap2\n      pop\n        /* \"#utility.yul\":29503:29596   */\n      tag_768\n        /* \"#utility.yul\":29592:29595   */\n      dup3\n        /* \"#utility.yul\":29503:29596   */\n      tag_482\n      jump\t// in\n    tag_768:\n        /* \"#utility.yul\":29621:29623   */\n      0x20\n        /* \"#utility.yul\":29616:29619   */\n      dup3\n        /* \"#utility.yul\":29612:29624   */\n      add\n        /* \"#utility.yul\":29605:29624   */\n      swap1\n      pop\n        /* \"#utility.yul\":29264:29630   */\n      swap2\n      swap1\n      pop\n      jump\t// out\n        /* \"#utility.yul\":29636:30055   */\n    tag_226:\n        /* \"#utility.yul\":29802:29806   */\n      0x00\n        /* \"#utility.yul\":29840:29842   */\n      0x20\n        /* \"#utility.yul\":29829:29838   */\n      dup3\n        /* \"#utility.yul\":29825:29843   */\n      add\n        /* \"#utility.yul\":29817:29843   */\n      swap1\n      pop\n        /* \"#utility.yul\":29889:29898   */\n      dup2\n        /* \"#utility.yul\":29883:29887   */\n      dup2\n        /* \"#utility.yul\":29879:29899   */\n      sub\n        /* \"#utility.yul\":29875:29876   */\n      0x00\n        /* \"#utility.yul\":29864:29873   */\n      dup4\n        /* \"#utility.yul\":29860:29877   */\n      add\n        /* \"#utility.yul\":29853:29900   */\n      mstore\n        /* \"#utility.yul\":29917:30048   */\n      tag_770\n        /* \"#utility.yul\":30043:30047   */\n      dup2\n        /* \"#utility.yul\":29917:30048   */\n      tag_483\n      jump\t// in\n    tag_770:\n        /* \"#utility.yul\":29909:30048   */\n      swap1\n      pop\n        /* \"#utility.yul\":29636:30055   */\n      swap2\n      swap1\n      pop\n      jump\t// out\n        /* \"#utility.yul\":30061:30503   */\n    tag_229:\n        /* \"#utility.yul\":30210:30214   */\n      0x00\n        /* \"#utility.yul\":30248:30250   */\n      0x60\n        /* \"#utility.yul\":30237:30246   */\n      dup3\n        /* \"#utility.yul\":30233:30251   */\n      add\n        /* \"#utility.yul\":30225:30251   */\n      swap1\n      pop\n        /* \"#utility.yul\":30261:30332   */\n      tag_772\n        /* \"#utility.yul\":30329:30330   */\n      0x00\n        /* \"#utility.yul\":30318:30327   */\n      dup4\n        /* \"#utility.yul\":30314:30331   */\n      add\n        /* \"#utility.yul\":30305:30311   */\n      dup7\n        /* \"#utility.yul\":30261:30332   */\n      tag_464\n      jump\t// in\n    tag_772:\n        /* \"#utility.yul\":30342:30414   */\n      tag_773\n        /* \"#utility.yul\":30410:30412   */\n      0x20\n        /* \"#utility.yul\":30399:30408   */\n      dup4\n        /* \"#utility.yul\":30395:30413   */\n      add\n        /* \"#utility.yul\":30386:30392   */\n      dup6\n        /* \"#utility.yul\":30342:30414   */\n      tag_464\n      jump\t// in\n    tag_773:\n        /* \"#utility.yul\":30424:30496   */\n      tag_774\n        /* \"#utility.yul\":30492:30494   */\n      0x40\n        /* \"#utility.yul\":30481:30490   */\n      dup4\n        /* \"#utility.yul\":30477:30495   */\n      add\n        /* \"#utility.yul\":30468:30474   */\n      dup5\n        /* \"#utility.yul\":30424:30496   */\n      tag_410\n      jump\t// in\n    tag_774:\n        /* \"#utility.yul\":30061:30503   */\n      swap5\n      swap4\n      pop\n      pop\n      pop\n      pop\n      jump\t// out\n        /* \"#utility.yul\":30509:30703   */\n    tag_234:\n        /* \"#utility.yul\":30549:30553   */\n      0x00\n        /* \"#utility.yul\":30569:30589   */\n      tag_776\n        /* \"#utility.yul\":30587:30588   */\n      dup3\n        /* \"#utility.yul\":30569:30589   */\n      tag_409\n      jump\t// in\n    tag_776:\n        /* \"#utility.yul\":30564:30589   */\n      swap2\n      pop\n        /* \"#utility.yul\":30603:30623   */\n      tag_777\n        /* \"#utility.yul\":30621:30622   */\n      dup4\n        /* \"#utility.yul\":30603:30623   */\n      tag_409\n      jump\t// in\n    tag_777:\n        /* \"#utility.yul\":30598:30623   */\n      swap3\n      pop\n        /* \"#utility.yul\":30647:30648   */\n      dup3\n        /* \"#utility.yul\":30644:30645   */\n      dup3\n        /* \"#utility.yul\":30640:30649   */\n      sub\n        /* \"#utility.yul\":30632:30649   */\n      swap1\n      pop\n        /* \"#utility.yul\":30671:30672   */\n      dup2\n        /* \"#utility.yul\":30665:30669   */\n      dup2\n        /* \"#utility.yul\":30662:30673   */\n      gt\n        /* \"#utility.yul\":30659:30696   */\n      iszero\n      tag_778\n      jumpi\n        /* \"#utility.yul\":30676:30694   */\n      tag_779\n      tag_479\n      jump\t// in\n    tag_779:\n        /* \"#utility.yul\":30659:30696   */\n    tag_778:\n        /* \"#utility.yul\":30509:30703   */\n      swap3\n      swap2\n      pop\n      pop\n      jump\t// out\n        /* \"#utility.yul\":30709:30937   */\n    tag_484:\n        /* \"#utility.yul\":30849:30883   */\n      0x636f6e747269627574696f6e7320746f6f206672657175656e74207761697420\n        /* \"#utility.yul\":30845:30846   */\n      0x00\n        /* \"#utility.yul\":30837:30843   */\n      dup3\n        /* \"#utility.yul\":30833:30847   */\n      add\n        /* \"#utility.yul\":30826:30884   */\n      mstore\n        /* \"#utility.yul\":30918:30929   */\n      0x7265717569726564200000000000000000000000000000000000000000000000\n        /* \"#utility.yul\":30913:30915   */\n      0x20\n        /* \"#utility.yul\":30905:30911   */\n      dup3\n        /* \"#utility.yul\":30901:30916   */\n      add\n        /* \"#utility.yul\":30894:30930   */\n      mstore\n        /* \"#utility.yul\":30709:30937   */\n      pop\n      jump\t// out\n        /* \"#utility.yul\":30943:31309   */\n    tag_485:\n        /* \"#utility.yul\":31085:31088   */\n      0x00\n        /* \"#utility.yul\":31106:31173   */\n      tag_782\n        /* \"#utility.yul\":31170:31172   */\n      0x29\n        /* \"#utility.yul\":31165:31168   */\n      dup4\n        /* \"#utility.yul\":31106:31173   */\n      tag_412\n      jump\t// in\n    tag_782:\n        /* \"#utility.yul\":31099:31173   */\n      swap2\n      pop\n        /* \"#utility.yul\":31182:31275   */\n      tag_783\n        /* \"#utility.yul\":31271:31274   */\n      dup3\n        /* \"#utility.yul\":31182:31275   */\n      tag_484\n      jump\t// in\n    tag_783:\n        /* \"#utility.yul\":31300:31302   */\n      0x40\n        /* \"#utility.yul\":31295:31298   */\n      dup3\n        /* \"#utility.yul\":31291:31303   */\n      add\n        /* \"#utility.yul\":31284:31303   */\n      swap1\n      pop\n        /* \"#utility.yul\":30943:31309   */\n      swap2\n      swap1\n      pop\n      jump\t// out\n        /* \"#utility.yul\":31315:31734   */\n    tag_256:\n        /* \"#utility.yul\":31481:31485   */\n      0x00\n        /* \"#utility.yul\":31519:31521   */\n      0x20\n        /* \"#utility.yul\":31508:31517   */\n      dup3\n        /* \"#utility.yul\":31504:31522   */\n      add\n        /* \"#utility.yul\":31496:31522   */\n      swap1\n      pop\n        /* \"#utility.yul\":31568:31577   */\n      dup2\n        /* \"#utility.yul\":31562:31566   */\n      dup2\n        /* \"#utility.yul\":31558:31578   */\n      sub\n        /* \"#utility.yul\":31554:31555   */\n      0x00\n        /* \"#utility.yul\":31543:31552   */\n      dup4\n        /* \"#utility.yul\":31539:31556   */\n      add\n        /* \"#utility.yul\":31532:31579   */\n      mstore\n        /* \"#utility.yul\":31596:31727   */\n      tag_785\n        /* \"#utility.yul\":31722:31726   */\n      dup2\n        /* \"#utility.yul\":31596:31727   */\n      tag_485\n      jump\t// in\n    tag_785:\n        /* \"#utility.yul\":31588:31727   */\n      swap1\n      pop\n        /* \"#utility.yul\":31315:31734   */\n      swap2\n      swap1\n      pop\n      jump\t// out\n        /* \"#utility.yul\":31740:31905   */\n    tag_486:\n        /* \"#utility.yul\":31880:31897   */\n      0x70656e73696f6e206d6174757265640000000000000000000000000000000000\n        /* \"#utility.yul\":31876:31877   */\n      0x00\n        /* \"#utility.yul\":31868:31874   */\n      dup3\n        /* \"#utility.yul\":31864:31878   */\n      add\n        /* \"#utility.yul\":31857:31898   */\n      mstore\n        /* \"#utility.yul\":31740:31905   */\n      pop\n      jump\t// out\n        /* \"#utility.yul\":31911:32277   */\n    tag_487:\n        /* \"#utility.yul\":32053:32056   */\n      0x00\n        /* \"#utility.yul\":32074:32141   */\n      tag_788\n        /* \"#utility.yul\":32138:32140   */\n      0x0f\n        /* \"#utility.yul\":32133:32136   */\n      dup4\n        /* \"#utility.yul\":32074:32141   */\n      tag_412\n      jump\t// in\n    tag_788:\n        /* \"#utility.yul\":32067:32141   */\n      swap2\n      pop\n        /* \"#utility.yul\":32150:32243   */\n      tag_789\n        /* \"#utility.yul\":32239:32242   */\n      dup3\n        /* \"#utility.yul\":32150:32243   */\n      tag_486\n      jump\t// in\n    tag_789:\n        /* \"#utility.yul\":32268:32270   */\n      0x20\n        /* \"#utility.yul\":32263:32266   */\n      dup3\n        /* \"#utility.yul\":32259:32271   */\n      add\n        /* \"#utility.yul\":32252:32271   */\n      swap1\n      pop\n        /* \"#utility.yul\":31911:32277   */\n      swap2\n      swap1\n      pop\n      jump\t// out\n        /* \"#utility.yul\":32283:32702   */\n    tag_263:\n        /* \"#utility.yul\":32449:32453   */\n      0x00\n        /* \"#utility.yul\":32487:32489   */\n      0x20\n        /* \"#utility.yul\":32476:32485   */\n      dup3\n        /* \"#utility.yul\":32472:32490   */\n      add\n        /* \"#utility.yul\":32464:32490   */\n      swap1\n      pop\n        /* \"#utility.yul\":32536:32545   */\n      dup2\n        /* \"#utility.yul\":32530:32534   */\n      dup2\n        /* \"#utility.yul\":32526:32546   */\n      sub\n        /* \"#utility.yul\":32522:32523   */\n      0x00\n        /* \"#utility.yul\":32511:32520   */\n      dup4\n        /* \"#utility.yul\":32507:32524   */\n      add\n        /* \"#utility.yul\":32500:32547   */\n      mstore\n        /* \"#utility.yul\":32564:32695   */\n      tag_791\n        /* \"#utility.yul\":32690:32694   */\n      dup2\n        /* \"#utility.yul\":32564:32695   */\n      tag_487\n      jump\t// in\n    tag_791:\n        /* \"#utility.yul\":32556:32695   */\n      swap1\n      pop\n        /* \"#utility.yul\":32283:32702   */\n      swap2\n      swap1\n      pop\n      jump\t// out\n        /* \"#utility.yul\":32708:32874   */\n    tag_488:\n        /* \"#utility.yul\":32848:32866   */\n      0x70656e73696f6e206e6f74206f70656e00000000000000000000000000000000\n        /* \"#utility.yul\":32844:32845   */\n      0x00\n        /* \"#utility.yul\":32836:32842   */\n      dup3\n        /* \"#utility.yul\":32832:32846   */\n      add\n        /* \"#utility.yul\":32825:32867   */\n      mstore\n        /* \"#utility.yul\":32708:32874   */\n      pop\n      jump\t// out\n        /* \"#utility.yul\":32880:33246   */\n    tag_489:\n        /* \"#utility.yul\":33022:33025   */\n      0x00\n        /* \"#utility.yul\":33043:33110   */\n      tag_794\n        /* \"#utility.yul\":33107:33109   */\n      0x10\n        /* \"#utility.yul\":33102:33105   */\n      dup4\n        /* \"#utility.yul\":33043:33110   */\n      tag_412\n      jump\t// in\n    tag_794:\n        /* \"#utility.yul\":33036:33110   */\n      swap2\n      pop\n        /* \"#utility.yul\":33119:33212   */\n      tag_795\n        /* \"#utility.yul\":33208:33211   */\n      dup3\n        /* \"#utility.yul\":33119:33212   */\n      tag_488\n      jump\t// in\n    tag_795:\n        /* \"#utility.yul\":33237:33239   */\n      0x20\n        /* \"#utility.yul\":33232:33235   */\n      dup3\n        /* \"#utility.yul\":33228:33240   */\n      add\n        /* \"#utility.yul\":33221:33240   */\n      swap1\n      pop\n        /* \"#utility.yul\":32880:33246   */\n      swap2\n      swap1\n      pop\n      jump\t// out\n        /* \"#utility.yul\":33252:33671   */\n    tag_270:\n        /* \"#utility.yul\":33418:33422   */\n      0x00\n        /* \"#utility.yul\":33456:33458   */\n      0x20\n        /* \"#utility.yul\":33445:33454   */\n      dup3\n        /* \"#utility.yul\":33441:33459   */\n      add\n        /* \"#utility.yul\":33433:33459   */\n      swap1\n      pop\n        /* \"#utility.yul\":33505:33514   */\n      dup2\n        /* \"#utility.yul\":33499:33503   */\n      dup2\n        /* \"#utility.yul\":33495:33515   */\n      sub\n        /* \"#utility.yul\":33491:33492   */\n      0x00\n        /* \"#utility.yul\":33480:33489   */\n      dup4\n        /* \"#utility.yul\":33476:33493   */\n      add\n        /* \"#utility.yul\":33469:33516   */\n      mstore\n        /* \"#utility.yul\":33533:33664   */\n      tag_797\n        /* \"#utility.yul\":33659:33663   */\n      dup2\n        /* \"#utility.yul\":33533:33664   */\n      tag_489\n      jump\t// in\n    tag_797:\n        /* \"#utility.yul\":33525:33664   */\n      swap1\n      pop\n        /* \"#utility.yul\":33252:33671   */\n      swap2\n      swap1\n      pop\n      jump\t// out\n        /* \"#utility.yul\":33677:33913   */\n    tag_490:\n        /* \"#utility.yul\":33817:33851   */\n      0x696e76616c696420636f6e747269627574696f6e206569746865722072616973\n        /* \"#utility.yul\":33813:33814   */\n      0x00\n        /* \"#utility.yul\":33805:33811   */\n      dup3\n        /* \"#utility.yul\":33801:33815   */\n      add\n        /* \"#utility.yul\":33794:33852   */\n      mstore\n        /* \"#utility.yul\":33886:33905   */\n      0x65206f72206c6f77657220616d6f756e74000000000000000000000000000000\n        /* \"#utility.yul\":33881:33883   */\n      0x20\n        /* \"#utility.yul\":33873:33879   */\n      dup3\n        /* \"#utility.yul\":33869:33884   */\n      add\n        /* \"#utility.yul\":33862:33906   */\n      mstore\n        /* \"#utility.yul\":33677:33913   */\n      pop\n      jump\t// out\n        /* \"#utility.yul\":33919:34285   */\n    tag_491:\n        /* \"#utility.yul\":34061:34064   */\n      0x00\n        /* \"#utility.yul\":34082:34149   */\n      tag_800\n        /* \"#utility.yul\":34146:34148   */\n      0x31\n        /* \"#utility.yul\":34141:34144   */\n      dup4\n        /* \"#utility.yul\":34082:34149   */\n      tag_412\n      jump\t// in\n    tag_800:\n        /* \"#utility.yul\":34075:34149   */\n      swap2\n      pop\n        /* \"#utility.yul\":34158:34251   */\n      tag_801\n        /* \"#utility.yul\":34247:34250   */\n      dup3\n        /* \"#utility.yul\":34158:34251   */\n      tag_490\n      jump\t// in\n    tag_801:\n        /* \"#utility.yul\":34276:34278   */\n      0x40\n        /* \"#utility.yul\":34271:34274   */\n      dup3\n        /* \"#utility.yul\":34267:34279   */\n      add\n        /* \"#utility.yul\":34260:34279   */\n      swap1\n      pop\n        /* \"#utility.yul\":33919:34285   */\n      swap2\n      swap1\n      pop\n      jump\t// out\n        /* \"#utility.yul\":34291:34710   */\n    tag_278:\n        /* \"#utility.yul\":34457:34461   */\n      0x00\n        /* \"#utility.yul\":34495:34497   */\n      0x20\n        /* \"#utility.yul\":34484:34493   */\n      dup3\n        /* \"#utility.yul\":34480:34498   */\n      add\n        /* \"#utility.yul\":34472:34498   */\n      swap1\n      pop\n        /* \"#utility.yul\":34544:34553   */\n      dup2\n        /* \"#utility.yul\":34538:34542   */\n      dup2\n        /* \"#utility.yul\":34534:34554   */\n      sub\n        /* \"#utility.yul\":34530:34531   */\n      0x00\n        /* \"#utility.yul\":34519:34528   */\n      dup4\n        /* \"#utility.yul\":34515:34532   */\n      add\n        /* \"#utility.yul\":34508:34555   */\n      mstore\n        /* \"#utility.yul\":34572:34703   */\n      tag_803\n        /* \"#utility.yul\":34698:34702   */\n      dup2\n        /* \"#utility.yul\":34572:34703   */\n      tag_491\n      jump\t// in\n    tag_803:\n        /* \"#utility.yul\":34564:34703   */\n      swap1\n      pop\n        /* \"#utility.yul\":34291:34710   */\n      swap2\n      swap1\n      pop\n      jump\t// out\n        /* \"#utility.yul\":34716:34888   */\n    tag_492:\n        /* \"#utility.yul\":34856:34880   */\n      0x636f6e747269627574696f6e206d69732d6d6174636800000000000000000000\n        /* \"#utility.yul\":34852:34853   */\n      0x00\n        /* \"#utility.yul\":34844:34850   */\n      dup3\n        /* \"#utility.yul\":34840:34854   */\n      add\n        /* \"#utility.yul\":34833:34881   */\n      mstore\n        /* \"#utility.yul\":34716:34888   */\n      pop\n      jump\t// out\n        /* \"#utility.yul\":34894:35260   */\n    tag_493:\n        /* \"#utility.yul\":35036:35039   */\n      0x00\n        /* \"#utility.yul\":35057:35124   */\n      tag_806\n        /* \"#utility.yul\":35121:35123   */\n      0x16\n        /* \"#utility.yul\":35116:35119   */\n      dup4\n        /* \"#utility.yul\":35057:35124   */\n      tag_412\n      jump\t// in\n    tag_806:\n        /* \"#utility.yul\":35050:35124   */\n      swap2\n      pop\n        /* \"#utility.yul\":35133:35226   */\n      tag_807\n        /* \"#utility.yul\":35222:35225   */\n      dup3\n        /* \"#utility.yul\":35133:35226   */\n      tag_492\n      jump\t// in\n    tag_807:\n        /* \"#utility.yul\":35251:35253   */\n      0x20\n        /* \"#utility.yul\":35246:35249   */\n      dup3\n        /* \"#utility.yul\":35242:35254   */\n      add\n        /* \"#utility.yul\":35235:35254   */\n      swap1\n      pop\n        /* \"#utility.yul\":34894:35260   */\n      swap2\n      swap1\n      pop\n      jump\t// out\n        /* \"#utility.yul\":35266:35685   */\n    tag_282:\n        /* \"#utility.yul\":35432:35436   */\n      0x00\n        /* \"#utility.yul\":35470:35472   */\n      0x20\n        /* \"#utility.yul\":35459:35468   */\n      dup3\n        /* \"#utility.yul\":35455:35473   */\n      add\n        /* \"#utility.yul\":35447:35473   */\n      swap1\n      pop\n        /* \"#utility.yul\":35519:35528   */\n      dup2\n        /* \"#utility.yul\":35513:35517   */\n      dup2\n        /* \"#utility.yul\":35509:35529   */\n      sub\n        /* \"#utility.yul\":35505:35506   */\n      0x00\n        /* \"#utility.yul\":35494:35503   */\n      dup4\n        /* \"#utility.yul\":35490:35507   */\n      add\n        /* \"#utility.yul\":35483:35530   */\n      mstore\n        /* \"#utility.yul\":35547:35678   */\n      tag_809\n        /* \"#utility.yul\":35673:35677   */\n      dup2\n        /* \"#utility.yul\":35547:35678   */\n      tag_493\n      jump\t// in\n    tag_809:\n        /* \"#utility.yul\":35539:35678   */\n      swap1\n      pop\n        /* \"#utility.yul\":35266:35685   */\n      swap2\n      swap1\n      pop\n      jump\t// out\n        /* \"#utility.yul\":35691:35924   */\n    tag_290:\n        /* \"#utility.yul\":35730:35733   */\n      0x00\n        /* \"#utility.yul\":35753:35777   */\n      tag_811\n        /* \"#utility.yul\":35771:35776   */\n      dup3\n        /* \"#utility.yul\":35753:35777   */\n      tag_409\n      jump\t// in\n    tag_811:\n        /* \"#utility.yul\":35744:35777   */\n      swap2\n      pop\n        /* \"#utility.yul\":35799:35865   */\n      0xffffffffffffffffffffffffffffffffffffffffffffffffffffffffffffffff\n        /* \"#utility.yul\":35792:35797   */\n      dup3\n        /* \"#utility.yul\":35789:35866   */\n      sub\n        /* \"#utility.yul\":35786:35889   */\n      tag_812\n      jumpi\n        /* \"#utility.yul\":35869:35887   */\n      tag_813\n      tag_479\n      jump\t// in\n    tag_813:\n        /* \"#utility.yul\":35786:35889   */\n    tag_812:\n        /* \"#utility.yul\":35916:35917   */\n      0x01\n        /* \"#utility.yul\":35909:35914   */\n      dup3\n        /* \"#utility.yul\":35905:35918   */\n      add\n        /* \"#utility.yul\":35898:35918   */\n      swap1\n      pop\n        /* \"#utility.yul\":35691:35924   */\n      swap2\n      swap1\n      pop\n      jump\t// out\n        /* \"#utility.yul\":35930:36090   */\n    tag_494:\n        /* \"#utility.yul\":36070:36082   */\n      0x6f776e6572206f6e6c7900000000000000000000000000000000000000000000\n        /* \"#utility.yul\":36066:36067   */\n      0x00\n        /* \"#utility.yul\":36058:36064   */\n      dup3\n        /* \"#utility.yul\":36054:36068   */\n      add\n        /* \"#utility.yul\":36047:36083   */\n      mstore\n        /* \"#utility.yul\":35930:36090   */\n      pop\n      jump\t// out\n        /* \"#utility.yul\":36096:36462   */\n    tag_495:\n        /* \"#utility.yul\":36238:36241   */\n      0x00\n        /* \"#utility.yul\":36259:36326   */\n      tag_816\n        /* \"#utility.yul\":36323:36325   */\n      0x0a\n        /* \"#utility.yul\":36318:36321   */\n      dup4\n        /* \"#utility.yul\":36259:36326   */\n      tag_412\n      jump\t// in\n    tag_816:\n        /* \"#utility.yul\":36252:36326   */\n      swap2\n      pop\n        /* \"#utility.yul\":36335:36428   */\n      tag_817\n        /* \"#utility.yul\":36424:36427   */\n      dup3\n        /* \"#utility.yul\":36335:36428   */\n      tag_494\n      jump\t// in\n    tag_817:\n        /* \"#utility.yul\":36453:36455   */\n      0x20\n        /* \"#utility.yul\":36448:36451   */\n      dup3\n        /* \"#utility.yul\":36444:36456   */\n      add\n        /* \"#utility.yul\":36437:36456   */\n      swap1\n      pop\n        /* \"#utility.yul\":36096:36462   */\n      swap2\n      swap1\n      pop\n      jump\t// out\n        /* \"#utility.yul\":36468:36887   */\n    tag_297:\n        /* \"#utility.yul\":36634:36638   */\n      0x00\n        /* \"#utility.yul\":36672:36674   */\n      0x20\n        /* \"#utility.yul\":36661:36670   */\n      dup3\n        /* \"#utility.yul\":36657:36675   */\n      add\n        /* \"#utility.yul\":36649:36675   */\n      swap1\n      pop\n        /* \"#utility.yul\":36721:36730   */\n      dup2\n        /* \"#utility.yul\":36715:36719   */\n      dup2\n        /* \"#utility.yul\":36711:36731   */\n      sub\n        /* \"#utility.yul\":36707:36708   */\n      0x00\n        /* \"#utility.yul\":36696:36705   */\n      dup4\n        /* \"#utility.yul\":36692:36709   */\n      add\n        /* \"#utility.yul\":36685:36732   */\n      mstore\n        /* \"#utility.yul\":36749:36880   */\n      tag_819\n        /* \"#utility.yul\":36875:36879   */\n      dup2\n        /* \"#utility.yul\":36749:36880   */\n      tag_495\n      jump\t// in\n    tag_819:\n        /* \"#utility.yul\":36741:36880   */\n      swap1\n      pop\n        /* \"#utility.yul\":36468:36887   */\n      swap2\n      swap1\n      pop\n      jump\t// out\n        /* \"#utility.yul\":36893:37065   */\n    tag_496:\n        /* \"#utility.yul\":37033:37057   */\n      0x696e76616c69642070656e73696f6e2073746174757300000000000000000000\n        /* \"#utility.yul\":37029:37030   */\n      0x00\n        /* \"#utility.yul\":37021:37027   */\n      dup3\n        /* \"#utility.yul\":37017:37031   */\n      add\n        /* \"#utility.yul\":37010:37058   */\n      mstore\n        /* \"#utility.yul\":36893:37065   */\n      pop\n      jump\t// out\n        /* \"#utility.yul\":37071:37437   */\n    tag_497:\n        /* \"#utility.yul\":37213:37216   */\n      0x00\n        /* \"#utility.yul\":37234:37301   */\n      tag_822\n        /* \"#utility.yul\":37298:37300   */\n      0x16\n        /* \"#utility.yul\":37293:37296   */\n      dup4\n        /* \"#utility.yul\":37234:37301   */\n      tag_412\n      jump\t// in\n    tag_822:\n        /* \"#utility.yul\":37227:37301   */\n      swap2\n      pop\n        /* \"#utility.yul\":37310:37403   */\n      tag_823\n        /* \"#utility.yul\":37399:37402   */\n      dup3\n        /* \"#utility.yul\":37310:37403   */\n      tag_496\n      jump\t// in\n    tag_823:\n        /* \"#utility.yul\":37428:37430   */\n      0x20\n        /* \"#utility.yul\":37423:37426   */\n      dup3\n        /* \"#utility.yul\":37419:37431   */\n      add\n        /* \"#utility.yul\":37412:37431   */\n      swap1\n      pop\n        /* \"#utility.yul\":37071:37437   */\n      swap2\n      swap1\n      pop\n      jump\t// out\n        /* \"#utility.yul\":37443:37862   */\n    tag_315:\n        /* \"#utility.yul\":37609:37613   */\n      0x00\n        /* \"#utility.yul\":37647:37649   */\n      0x20\n        /* \"#utility.yul\":37636:37645   */\n      dup3\n        /* \"#utility.yul\":37632:37650   */\n      add\n        /* \"#utility.yul\":37624:37650   */\n      swap1\n      pop\n        /* \"#utility.yul\":37696:37705   */\n      dup2\n        /* \"#utility.yul\":37690:37694   */\n      dup2\n        /* \"#utility.yul\":37686:37706   */\n      sub\n        /* \"#utility.yul\":37682:37683   */\n      0x00\n        /* \"#utility.yul\":37671:37680   */\n      dup4\n        /* \"#utility.yul\":37667:37684   */\n      add\n        /* \"#utility.yul\":37660:37707   */\n      mstore\n        /* \"#utility.yul\":37724:37855   */\n      tag_825\n        /* \"#utility.yul\":37850:37854   */\n      dup2\n        /* \"#utility.yul\":37724:37855   */\n      tag_497\n      jump\t// in\n    tag_825:\n        /* \"#utility.yul\":37716:37855   */\n      swap1\n      pop\n        /* \"#utility.yul\":37443:37862   */\n      swap2\n      swap1\n      pop\n      jump\t// out\n        /* \"#utility.yul\":37868:38033   */\n    tag_498:\n        /* \"#utility.yul\":38008:38025   */\n      0x70656e73696f6e20736574746c65640000000000000000000000000000000000\n        /* \"#utility.yul\":38004:38005   */\n      0x00\n        /* \"#utility.yul\":37996:38002   */\n      dup3\n        /* \"#utility.yul\":37992:38006   */\n      add\n        /* \"#utility.yul\":37985:38026   */\n      mstore\n        /* \"#utility.yul\":37868:38033   */\n      pop\n      jump\t// out\n        /* \"#utility.yul\":38039:38405   */\n    tag_499:\n        /* \"#utility.yul\":38181:38184   */\n      0x00\n        /* \"#utility.yul\":38202:38269   */\n      tag_828\n        /* \"#utility.yul\":38266:38268   */\n      0x0f\n        /* \"#utility.yul\":38261:38264   */\n      dup4\n        /* \"#utility.yul\":38202:38269   */\n      tag_412\n      jump\t// in\n    tag_828:\n        /* \"#utility.yul\":38195:38269   */\n      swap2\n      pop\n        /* \"#utility.yul\":38278:38371   */\n      tag_829\n        /* \"#utility.yul\":38367:38370   */\n      dup3\n        /* \"#utility.yul\":38278:38371   */\n      tag_498\n      jump\t// in\n    tag_829:\n        /* \"#utility.yul\":38396:38398   */\n      0x20\n        /* \"#utility.yul\":38391:38394   */\n      dup3\n        /* \"#utility.yul\":38387:38399   */\n      add\n        /* \"#utility.yul\":38380:38399   */\n      swap1\n      pop\n        /* \"#utility.yul\":38039:38405   */\n      swap2\n      swap1\n      pop\n      jump\t// out\n        /* \"#utility.yul\":38411:38830   */\n    tag_322:\n        /* \"#utility.yul\":38577:38581   */\n      0x00\n        /* \"#utility.yul\":38615:38617   */\n      0x20\n        /* \"#utility.yul\":38604:38613   */\n      dup3\n        /* \"#utility.yul\":38600:38618   */\n      add\n        /* \"#utility.yul\":38592:38618   */\n      swap1\n      pop\n        /* \"#utility.yul\":38664:38673   */\n      dup2\n        /* \"#utility.yul\":38658:38662   */\n      dup2\n        /* \"#utility.yul\":38654:38674   */\n      sub\n        /* \"#utility.yul\":38650:38651   */\n      0x00\n        /* \"#utility.yul\":38639:38648   */\n      dup4\n        /* \"#utility.yul\":38635:38652   */\n      add\n        /* \"#utility.yul\":38628:38675   */\n      mstore\n        /* \"#utility.yul\":38692:38823   */\n      tag_831\n        /* \"#utility.yul\":38818:38822   */\n      dup2\n        /* \"#utility.yul\":38692:38823   */\n      tag_499\n      jump\t// in\n    tag_831:\n        /* \"#utility.yul\":38684:38823   */\n      swap1\n      pop\n        /* \"#utility.yul\":38411:38830   */\n      swap2\n      swap1\n      pop\n      jump\t// out\n        /* \"#utility.yul\":38836:39016   */\n    tag_500:\n        /* \"#utility.yul\":38976:39008   */\n      0x696e73756666696369656e7420656d6d697373696f6e2062616c616e63650000\n        /* \"#utility.yul\":38972:38973   */\n      0x00\n        /* \"#utility.yul\":38964:38970   */\n      dup3\n        /* \"#utility.yul\":38960:38974   */\n      add\n        /* \"#utility.yul\":38953:39009   */\n      mstore\n        /* \"#utility.yul\":38836:39016   */\n      pop\n      jump\t// out\n        /* \"#utility.yul\":39022:39388   */\n    tag_501:\n        /* \"#utility.yul\":39164:39167   */\n      0x00\n        /* \"#utility.yul\":39185:39252   */\n      tag_834\n        /* \"#utility.yul\":39249:39251   */\n      0x1e\n        /* \"#utility.yul\":39244:39247   */\n      dup4\n        /* \"#utility.yul\":39185:39252   */\n      tag_412\n      jump\t// in\n    tag_834:\n        /* \"#utility.yul\":39178:39252   */\n      swap2\n      pop\n        /* \"#utility.yul\":39261:39354   */\n      tag_835\n        /* \"#utility.yul\":39350:39353   */\n      dup3\n        /* \"#utility.yul\":39261:39354   */\n      tag_500\n      jump\t// in\n    tag_835:\n        /* \"#utility.yul\":39379:39381   */\n      0x20\n        /* \"#utility.yul\":39374:39377   */\n      dup3\n        /* \"#utility.yul\":39370:39382   */\n      add\n        /* \"#utility.yul\":39363:39382   */\n      swap1\n      pop\n        /* \"#utility.yul\":39022:39388   */\n      swap2\n      swap1\n      pop\n      jump\t// out\n        /* \"#utility.yul\":39394:39813   */\n    tag_325:\n        /* \"#utility.yul\":39560:39564   */\n      0x00\n        /* \"#utility.yul\":39598:39600   */\n      0x20\n        /* \"#utility.yul\":39587:39596   */\n      dup3\n        /* \"#utility.yul\":39583:39601   */\n      add\n        /* \"#utility.yul\":39575:39601   */\n      swap1\n      pop\n        /* \"#utility.yul\":39647:39656   */\n      dup2\n        /* \"#utility.yul\":39641:39645   */\n      dup2\n        /* \"#utility.yul\":39637:39657   */\n      sub\n        /* \"#utility.yul\":39633:39634   */\n      0x00\n        /* \"#utility.yul\":39622:39631   */\n      dup4\n        /* \"#utility.yul\":39618:39635   */\n      add\n        /* \"#utility.yul\":39611:39658   */\n      mstore\n        /* \"#utility.yul\":39675:39806   */\n      tag_837\n        /* \"#utility.yul\":39801:39805   */\n      dup2\n        /* \"#utility.yul\":39675:39806   */\n      tag_501\n      jump\t// in\n    tag_837:\n        /* \"#utility.yul\":39667:39806   */\n      swap1\n      pop\n        /* \"#utility.yul\":39394:39813   */\n      swap2\n      swap1\n      pop\n      jump\t// out\n        /* \"#utility.yul\":39819:39936   */\n    tag_502:\n        /* \"#utility.yul\":39928:39929   */\n      0x00\n        /* \"#utility.yul\":39925:39926   */\n      0x00\n        /* \"#utility.yul\":39918:39930   */\n      revert\n        /* \"#utility.yul\":39942:40122   */\n    tag_503:\n        /* \"#utility.yul\":39990:40067   */\n      0x4e487b7100000000000000000000000000000000000000000000000000000000\n        /* \"#utility.yul\":39987:39988   */\n      0x00\n        /* \"#utility.yul\":39980:40068   */\n      mstore\n        /* \"#utility.yul\":40087:40091   */\n      0x41\n        /* \"#utility.yul\":40084:40085   */\n      0x04\n        /* \"#utility.yul\":40077:40092   */\n      mstore\n        /* \"#utility.yul\":40111:40115   */\n      0x24\n        /* \"#utility.yul\":40108:40109   */\n      0x00\n        /* \"#utility.yul\":40101:40116   */\n      revert\n        /* \"#utility.yul\":40128:40409   */\n    tag_504:\n        /* \"#utility.yul\":40211:40238   */\n      tag_841\n        /* \"#utility.yul\":40233:40237   */\n      dup3\n        /* \"#utility.yul\":40211:40238   */\n      tag_414\n      jump\t// in\n    tag_841:\n        /* \"#utility.yul\":40203:40209   */\n      dup2\n        /* \"#utility.yul\":40199:40239   */\n      add\n        /* \"#utility.yul\":40341:40347   */\n      dup2\n        /* \"#utility.yul\":40329:40339   */\n      dup2\n        /* \"#utility.yul\":40326:40348   */\n      lt\n        /* \"#utility.yul\":40305:40323   */\n      0xffffffffffffffff\n        /* \"#utility.yul\":40293:40303   */\n      dup3\n        /* \"#utility.yul\":40290:40324   */\n      gt\n        /* \"#utility.yul\":40287:40349   */\n      or\n        /* \"#utility.yul\":40284:40372   */\n      iszero\n      tag_842\n      jumpi\n        /* \"#utility.yul\":40352:40370   */\n      tag_843\n      tag_503\n      jump\t// in\n    tag_843:\n        /* \"#utility.yul\":40284:40372   */\n    tag_842:\n        /* \"#utility.yul\":40392:40402   */\n      dup1\n        /* \"#utility.yul\":40388:40390   */\n      0x40\n        /* \"#utility.yul\":40381:40403   */\n      mstore\n        /* \"#utility.yul\":40171:40409   */\n      pop\n        /* \"#utility.yul\":40128:40409   */\n      pop\n      pop\n      jump\t// out\n        /* \"#utility.yul\":40415:40544   */\n    tag_505:\n        /* \"#utility.yul\":40449:40455   */\n      0x00\n        /* \"#utility.yul\":40476:40496   */\n      tag_845\n      tag_416\n      jump\t// in\n    tag_845:\n        /* \"#utility.yul\":40466:40496   */\n      swap1\n      pop\n        /* \"#utility.yul\":40505:40538   */\n      tag_846\n        /* \"#utility.yul\":40533:40537   */\n      dup3\n        /* \"#utility.yul\":40525:40531   */\n      dup3\n        /* \"#utility.yul\":40505:40538   */\n      tag_504\n      jump\t// in\n    tag_846:\n        /* \"#utility.yul\":40415:40544   */\n      swap2\n      swap1\n      pop\n      jump\t// out\n        /* \"#utility.yul\":40673:40785   */\n    tag_507:\n        /* \"#utility.yul\":40759:40760   */\n      0x03\n        /* \"#utility.yul\":40752:40757   */\n      dup2\n        /* \"#utility.yul\":40749:40761   */\n      lt\n        /* \"#utility.yul\":40739:40779   */\n      tag_849\n      jumpi\n        /* \"#utility.yul\":40775:40776   */\n      0x00\n        /* \"#utility.yul\":40772:40773   */\n      0x00\n        /* \"#utility.yul\":40765:40777   */\n      revert\n        /* \"#utility.yul\":40739:40779   */\n    tag_849:\n        /* \"#utility.yul\":40673:40785   */\n      pop\n      jump\t// out\n        /* \"#utility.yul\":40791:40960   */\n    tag_508:\n        /* \"#utility.yul\":40861:40866   */\n      0x00\n        /* \"#utility.yul\":40892:40898   */\n      dup2\n        /* \"#utility.yul\":40886:40899   */\n      mload\n        /* \"#utility.yul\":40877:40899   */\n      swap1\n      pop\n        /* \"#utility.yul\":40908:40954   */\n      tag_851\n        /* \"#utility.yul\":40948:40953   */\n      dup2\n        /* \"#utility.yul\":40908:40954   */\n      tag_507\n      jump\t// in\n    tag_851:\n        /* \"#utility.yul\":40791:40960   */\n      swap3\n      swap2\n      pop\n      pop\n      jump\t// out\n        /* \"#utility.yul\":40966:41082   */\n    tag_509:\n        /* \"#utility.yul\":41056:41057   */\n      0x02\n        /* \"#utility.yul\":41049:41054   */\n      dup2\n        /* \"#utility.yul\":41046:41058   */\n      lt\n        /* \"#utility.yul\":41036:41076   */\n      tag_853\n      jumpi\n        /* \"#utility.yul\":41072:41073   */\n      0x00\n        /* \"#utility.yul\":41069:41070   */\n      0x00\n        /* \"#utility.yul\":41062:41074   */\n      revert\n        /* \"#utility.yul\":41036:41076   */\n    tag_853:\n        /* \"#utility.yul\":40966:41082   */\n      pop\n      jump\t// out\n        /* \"#utility.yul\":41088:41265   */\n    tag_510:\n        /* \"#utility.yul\":41162:41167   */\n      0x00\n        /* \"#utility.yul\":41193:41199   */\n      dup2\n        /* \"#utility.yul\":41187:41200   */\n      mload\n        /* \"#utility.yul\":41178:41200   */\n      swap1\n      pop\n        /* \"#utility.yul\":41209:41259   */\n      tag_855\n        /* \"#utility.yul\":41253:41258   */\n      dup2\n        /* \"#utility.yul\":41209:41259   */\n      tag_509\n      jump\t// in\n    tag_855:\n        /* \"#utility.yul\":41088:41265   */\n      swap3\n      swap2\n      pop\n      pop\n      jump\t// out\n        /* \"#utility.yul\":41271:41383   */\n    tag_511:\n        /* \"#utility.yul\":41357:41358   */\n      0x04\n        /* \"#utility.yul\":41350:41355   */\n      dup2\n        /* \"#utility.yul\":41347:41359   */\n      lt\n        /* \"#utility.yul\":41337:41377   */\n      tag_857\n      jumpi\n        /* \"#utility.yul\":41373:41374   */\n      0x00\n        /* \"#utility.yul\":41370:41371   */\n      0x00\n        /* \"#utility.yul\":41363:41375   */\n      revert\n        /* \"#utility.yul\":41337:41377   */\n    tag_857:\n        /* \"#utility.yul\":41271:41383   */\n      pop\n      jump\t// out\n        /* \"#utility.yul\":41389:41558   */\n    tag_512:\n        /* \"#utility.yul\":41459:41464   */\n      0x00\n        /* \"#utility.yul\":41490:41496   */\n      dup2\n        /* \"#utility.yul\":41484:41497   */\n      mload\n        /* \"#utility.yul\":41475:41497   */\n      swap1\n      pop\n        /* \"#utility.yul\":41506:41552   */\n      tag_859\n        /* \"#utility.yul\":41546:41551   */\n      dup2\n        /* \"#utility.yul\":41506:41552   */\n      tag_511\n      jump\t// in\n    tag_859:\n        /* \"#utility.yul\":41389:41558   */\n      swap3\n      swap2\n      pop\n      pop\n      jump\t// out\n        /* \"#utility.yul\":41596:42955   */\n    tag_513:\n        /* \"#utility.yul\":41691:41696   */\n      0x00\n        /* \"#utility.yul\":41735:41739   */\n      0xc0\n        /* \"#utility.yul\":41723:41732   */\n      dup3\n        /* \"#utility.yul\":41718:41721   */\n      dup5\n        /* \"#utility.yul\":41714:41733   */\n      sub\n        /* \"#utility.yul\":41710:41740   */\n      slt\n        /* \"#utility.yul\":41707:41824   */\n      iszero\n      tag_861\n      jumpi\n        /* \"#utility.yul\":41743:41822   */\n      tag_862\n      tag_502\n      jump\t// in\n    tag_862:\n        /* \"#utility.yul\":41707:41824   */\n    tag_861:\n        /* \"#utility.yul\":41842:41863   */\n      tag_863\n        /* \"#utility.yul\":41858:41862   */\n      0xc0\n        /* \"#utility.yul\":41842:41863   */\n      tag_505\n      jump\t// in\n    tag_863:\n        /* \"#utility.yul\":41833:41863   */\n      swap1\n      pop\n        /* \"#utility.yul\":41926:41927   */\n      0x00\n        /* \"#utility.yul\":41966:42039   */\n      tag_864\n        /* \"#utility.yul\":42035:42038   */\n      dup5\n        /* \"#utility.yul\":42026:42032   */\n      dup3\n        /* \"#utility.yul\":42015:42024   */\n      dup6\n        /* \"#utility.yul\":42011:42033   */\n      add\n        /* \"#utility.yul\":41966:42039   */\n      tag_512\n      jump\t// in\n    tag_864:\n        /* \"#utility.yul\":41959:41963   */\n      0x00\n        /* \"#utility.yul\":41952:41957   */\n      dup4\n        /* \"#utility.yul\":41948:41964   */\n      add\n        /* \"#utility.yul\":41941:42040   */\n      mstore\n        /* \"#utility.yul\":41873:42051   */\n      pop\n        /* \"#utility.yul\":42110:42112   */\n      0x20\n        /* \"#utility.yul\":42151:42211   */\n      tag_865\n        /* \"#utility.yul\":42207:42210   */\n      dup5\n        /* \"#utility.yul\":42198:42204   */\n      dup3\n        /* \"#utility.yul\":42187:42196   */\n      dup6\n        /* \"#utility.yul\":42183:42205   */\n      add\n        /* \"#utility.yul\":42151:42211   */\n      tag_465\n      jump\t// in\n    tag_865:\n        /* \"#utility.yul\":42144:42148   */\n      0x20\n        /* \"#utility.yul\":42137:42142   */\n      dup4\n        /* \"#utility.yul\":42133:42149   */\n      add\n        /* \"#utility.yul\":42126:42212   */\n      mstore\n        /* \"#utility.yul\":42061:42223   */\n      pop\n        /* \"#utility.yul\":42291:42293   */\n      0x40\n        /* \"#utility.yul\":42332:42392   */\n      tag_866\n        /* \"#utility.yul\":42388:42391   */\n      dup5\n        /* \"#utility.yul\":42379:42385   */\n      dup3\n        /* \"#utility.yul\":42368:42377   */\n      dup6\n        /* \"#utility.yul\":42364:42386   */\n      add\n        /* \"#utility.yul\":42332:42392   */\n      tag_465\n      jump\t// in\n    tag_866:\n        /* \"#utility.yul\":42325:42329   */\n      0x40\n        /* \"#utility.yul\":42318:42323   */\n      dup4\n        /* \"#utility.yul\":42314:42330   */\n      add\n        /* \"#utility.yul\":42307:42393   */\n      mstore\n        /* \"#utility.yul\":42233:42404   */\n      pop\n        /* \"#utility.yul\":42472:42474   */\n      0x60\n        /* \"#utility.yul\":42513:42573   */\n      tag_867\n        /* \"#utility.yul\":42569:42572   */\n      dup5\n        /* \"#utility.yul\":42560:42566   */\n      dup3\n        /* \"#utility.yul\":42549:42558   */\n      dup6\n        /* \"#utility.yul\":42545:42567   */\n      add\n        /* \"#utility.yul\":42513:42573   */\n      tag_465\n      jump\t// in\n    tag_867:\n        /* \"#utility.yul\":42506:42510   */\n      0x60\n        /* \"#utility.yul\":42499:42504   */\n      dup4\n        /* \"#utility.yul\":42495:42511   */\n      add\n        /* \"#utility.yul\":42488:42574   */\n      mstore\n        /* \"#utility.yul\":42414:42585   */\n      pop\n        /* \"#utility.yul\":42654:42657   */\n      0x80\n        /* \"#utility.yul\":42696:42756   */\n      tag_868\n        /* \"#utility.yul\":42752:42755   */\n      dup5\n        /* \"#utility.yul\":42743:42749   */\n      dup3\n        /* \"#utility.yul\":42732:42741   */\n      dup6\n        /* \"#utility.yul\":42728:42750   */\n      add\n        /* \"#utility.yul\":42696:42756   */\n      tag_465\n      jump\t// in\n    tag_868:\n        /* \"#utility.yul\":42689:42693   */\n      0x80\n        /* \"#utility.yul\":42682:42687   */\n      dup4\n        /* \"#utility.yul\":42678:42694   */\n      add\n        /* \"#utility.yul\":42671:42757   */\n      mstore\n        /* \"#utility.yul\":42595:42768   */\n      pop\n        /* \"#utility.yul\":42834:42837   */\n      0xa0\n        /* \"#utility.yul\":42876:42936   */\n      tag_869\n        /* \"#utility.yul\":42932:42935   */\n      dup5\n        /* \"#utility.yul\":42923:42929   */\n      dup3\n        /* \"#utility.yul\":42912:42921   */\n      dup6\n        /* \"#utility.yul\":42908:42930   */\n      add\n        /* \"#utility.yul\":42876:42936   */\n      tag_465\n      jump\t// in\n    tag_869:\n        /* \"#utility.yul\":42869:42873   */\n      0xa0\n        /* \"#utility.yul\":42862:42867   */\n      dup4\n        /* \"#utility.yul\":42858:42874   */\n      add\n        /* \"#utility.yul\":42851:42937   */\n      mstore\n        /* \"#utility.yul\":42778:42948   */\n      pop\n        /* \"#utility.yul\":41596:42955   */\n      swap3\n      swap2\n      pop\n      pop\n      jump\t// out\n        /* \"#utility.yul\":42985:43620   */\n    tag_514:\n        /* \"#utility.yul\":43072:43077   */\n      0x00\n        /* \"#utility.yul\":43116:43120   */\n      0x40\n        /* \"#utility.yul\":43104:43113   */\n      dup3\n        /* \"#utility.yul\":43099:43102   */\n      dup5\n        /* \"#utility.yul\":43095:43114   */\n      sub\n        /* \"#utility.yul\":43091:43121   */\n      slt\n        /* \"#utility.yul\":43088:43205   */\n      iszero\n      tag_871\n      jumpi\n        /* \"#utility.yul\":43124:43203   */\n      tag_872\n      tag_502\n      jump\t// in\n    tag_872:\n        /* \"#utility.yul\":43088:43205   */\n    tag_871:\n        /* \"#utility.yul\":43223:43244   */\n      tag_873\n        /* \"#utility.yul\":43239:43243   */\n      0x40\n        /* \"#utility.yul\":43223:43244   */\n      tag_505\n      jump\t// in\n    tag_873:\n        /* \"#utility.yul\":43214:43244   */\n      swap1\n      pop\n        /* \"#utility.yul\":43316:43317   */\n      0x00\n        /* \"#utility.yul\":43356:43416   */\n      tag_874\n        /* \"#utility.yul\":43412:43415   */\n      dup5\n        /* \"#utility.yul\":43403:43409   */\n      dup3\n        /* \"#utility.yul\":43392:43401   */\n      dup6\n        /* \"#utility.yul\":43388:43410   */\n      add\n        /* \"#utility.yul\":43356:43416   */\n      tag_465\n      jump\t// in\n    tag_874:\n        /* \"#utility.yul\":43349:43353   */\n      0x00\n        /* \"#utility.yul\":43342:43347   */\n      dup4\n        /* \"#utility.yul\":43338:43354   */\n      add\n        /* \"#utility.yul\":43331:43417   */\n      mstore\n        /* \"#utility.yul\":43254:43428   */\n      pop\n        /* \"#utility.yul\":43500:43502   */\n      0x20\n        /* \"#utility.yul\":43541:43601   */\n      tag_875\n        /* \"#utility.yul\":43597:43600   */\n      dup5\n        /* \"#utility.yul\":43588:43594   */\n      dup3\n        /* \"#utility.yul\":43577:43586   */\n      dup6\n        /* \"#utility.yul\":43573:43595   */\n      add\n        /* \"#utility.yul\":43541:43601   */\n      tag_465\n      jump\t// in\n    tag_875:\n        /* \"#utility.yul\":43534:43538   */\n      0x20\n        /* \"#utility.yul\":43527:43532   */\n      dup4\n        /* \"#utility.yul\":43523:43539   */\n      add\n        /* \"#utility.yul\":43516:43602   */\n      mstore\n        /* \"#utility.yul\":43438:43613   */\n      pop\n        /* \"#utility.yul\":42985:43620   */\n      swap3\n      swap2\n      pop\n      pop\n      jump\t// out\n        /* \"#utility.yul\":43650:46022   */\n    tag_515:\n        /* \"#utility.yul\":43737:43742   */\n      0x00\n        /* \"#utility.yul\":43781:43787   */\n      0x02c0\n        /* \"#utility.yul\":43769:43778   */\n      dup3\n        /* \"#utility.yul\":43764:43767   */\n      dup5\n        /* \"#utility.yul\":43760:43779   */\n      sub\n        /* \"#utility.yul\":43756:43788   */\n      slt\n        /* \"#utility.yul\":43753:43872   */\n      iszero\n      tag_877\n      jumpi\n        /* \"#utility.yul\":43791:43870   */\n      tag_878\n      tag_502\n      jump\t// in\n    tag_878:\n        /* \"#utility.yul\":43753:43872   */\n    tag_877:\n        /* \"#utility.yul\":43890:43913   */\n      tag_879\n        /* \"#utility.yul\":43906:43912   */\n      0x0160\n        /* \"#utility.yul\":43890:43913   */\n      tag_505\n      jump\t// in\n    tag_879:\n        /* \"#utility.yul\":43881:43913   */\n      swap1\n      pop\n        /* \"#utility.yul\":43970:43971   */\n      0x00\n        /* \"#utility.yul\":44010:44070   */\n      tag_880\n        /* \"#utility.yul\":44066:44069   */\n      dup5\n        /* \"#utility.yul\":44057:44063   */\n      dup3\n        /* \"#utility.yul\":44046:44055   */\n      dup6\n        /* \"#utility.yul\":44042:44064   */\n      add\n        /* \"#utility.yul\":44010:44070   */\n      tag_465\n      jump\t// in\n    tag_880:\n        /* \"#utility.yul\":44003:44007   */\n      0x00\n        /* \"#utility.yul\":43996:44001   */\n      dup4\n        /* \"#utility.yul\":43992:44008   */\n      add\n        /* \"#utility.yul\":43985:44071   */\n      mstore\n        /* \"#utility.yul\":43923:44082   */\n      pop\n        /* \"#utility.yul\":44145:44147   */\n      0x20\n        /* \"#utility.yul\":44186:44246   */\n      tag_881\n        /* \"#utility.yul\":44242:44245   */\n      dup5\n        /* \"#utility.yul\":44233:44239   */\n      dup3\n        /* \"#utility.yul\":44222:44231   */\n      dup6\n        /* \"#utility.yul\":44218:44240   */\n      add\n        /* \"#utility.yul\":44186:44246   */\n      tag_453\n      jump\t// in\n    tag_881:\n        /* \"#utility.yul\":44179:44183   */\n      0x20\n        /* \"#utility.yul\":44172:44177   */\n      dup4\n        /* \"#utility.yul\":44168:44184   */\n      add\n        /* \"#utility.yul\":44161:44247   */\n      mstore\n        /* \"#utility.yul\":44092:44258   */\n      pop\n        /* \"#utility.yul\":44318:44320   */\n      0x40\n        /* \"#utility.yul\":44359:44419   */\n      tag_882\n        /* \"#utility.yul\":44415:44418   */\n      dup5\n        /* \"#utility.yul\":44406:44412   */\n      dup3\n        /* \"#utility.yul\":44395:44404   */\n      dup6\n        /* \"#utility.yul\":44391:44413   */\n      add\n        /* \"#utility.yul\":44359:44419   */\n      tag_453\n      jump\t// in\n    tag_882:\n        /* \"#utility.yul\":44352:44356   */\n      0x40\n        /* \"#utility.yul\":44345:44350   */\n      dup4\n        /* \"#utility.yul\":44341:44357   */\n      add\n        /* \"#utility.yul\":44334:44420   */\n      mstore\n        /* \"#utility.yul\":44268:44431   */\n      pop\n        /* \"#utility.yul\":44505:44507   */\n      0x60\n        /* \"#utility.yul\":44546:44606   */\n      tag_883\n        /* \"#utility.yul\":44602:44605   */\n      dup5\n        /* \"#utility.yul\":44593:44599   */\n      dup3\n        /* \"#utility.yul\":44582:44591   */\n      dup6\n        /* \"#utility.yul\":44578:44600   */\n      add\n        /* \"#utility.yul\":44546:44606   */\n      tag_465\n      jump\t// in\n    tag_883:\n        /* \"#utility.yul\":44539:44543   */\n      0x60\n        /* \"#utility.yul\":44532:44537   */\n      dup4\n        /* \"#utility.yul\":44528:44544   */\n      add\n        /* \"#utility.yul\":44521:44607   */\n      mstore\n        /* \"#utility.yul\":44441:44618   */\n      pop\n        /* \"#utility.yul\":44681:44684   */\n      0x80\n        /* \"#utility.yul\":44723:44783   */\n      tag_884\n        /* \"#utility.yul\":44779:44782   */\n      dup5\n        /* \"#utility.yul\":44770:44776   */\n      dup3\n        /* \"#utility.yul\":44759:44768   */\n      dup6\n        /* \"#utility.yul\":44755:44777   */\n      add\n        /* \"#utility.yul\":44723:44783   */\n      tag_465\n      jump\t// in\n    tag_884:\n        /* \"#utility.yul\":44716:44720   */\n      0x80\n        /* \"#utility.yul\":44709:44714   */\n      dup4\n        /* \"#utility.yul\":44705:44721   */\n      add\n        /* \"#utility.yul\":44698:44784   */\n      mstore\n        /* \"#utility.yul\":44628:44795   */\n      pop\n        /* \"#utility.yul\":44858:44861   */\n      0xa0\n        /* \"#utility.yul\":44900:44973   */\n      tag_885\n        /* \"#utility.yul\":44969:44972   */\n      dup5\n        /* \"#utility.yul\":44960:44966   */\n      dup3\n        /* \"#utility.yul\":44949:44958   */\n      dup6\n        /* \"#utility.yul\":44945:44967   */\n      add\n        /* \"#utility.yul\":44900:44973   */\n      tag_508\n      jump\t// in\n    tag_885:\n        /* \"#utility.yul\":44893:44897   */\n      0xa0\n        /* \"#utility.yul\":44886:44891   */\n      dup4\n        /* \"#utility.yul\":44882:44898   */\n      add\n        /* \"#utility.yul\":44875:44974   */\n      mstore\n        /* \"#utility.yul\":44805:44985   */\n      pop\n        /* \"#utility.yul\":45048:45051   */\n      0xc0\n        /* \"#utility.yul\":45090:45150   */\n      tag_886\n        /* \"#utility.yul\":45146:45149   */\n      dup5\n        /* \"#utility.yul\":45137:45143   */\n      dup3\n        /* \"#utility.yul\":45126:45135   */\n      dup6\n        /* \"#utility.yul\":45122:45144   */\n      add\n        /* \"#utility.yul\":45090:45150   */\n      tag_453\n      jump\t// in\n    tag_886:\n        /* \"#utility.yul\":45083:45087   */\n      0xc0\n        /* \"#utility.yul\":45076:45081   */\n      dup4\n        /* \"#utility.yul\":45072:45088   */\n      add\n        /* \"#utility.yul\":45065:45151   */\n      mstore\n        /* \"#utility.yul\":44995:45162   */\n      pop\n        /* \"#utility.yul\":45229:45232   */\n      0xe0\n        /* \"#utility.yul\":45271:45348   */\n      tag_887\n        /* \"#utility.yul\":45344:45347   */\n      dup5\n        /* \"#utility.yul\":45335:45341   */\n      dup3\n        /* \"#utility.yul\":45324:45333   */\n      dup6\n        /* \"#utility.yul\":45320:45342   */\n      add\n        /* \"#utility.yul\":45271:45348   */\n      tag_510\n      jump\t// in\n    tag_887:\n        /* \"#utility.yul\":45264:45268   */\n      0xe0\n        /* \"#utility.yul\":45257:45262   */\n      dup4\n        /* \"#utility.yul\":45253:45269   */\n      add\n        /* \"#utility.yul\":45246:45349   */\n      mstore\n        /* \"#utility.yul\":45172:45360   */\n      pop\n        /* \"#utility.yul\":45435:45438   */\n      0x0100\n        /* \"#utility.yul\":45479:45574   */\n      tag_888\n        /* \"#utility.yul\":45570:45573   */\n      dup5\n        /* \"#utility.yul\":45561:45567   */\n      dup3\n        /* \"#utility.yul\":45550:45559   */\n      dup6\n        /* \"#utility.yul\":45546:45568   */\n      add\n        /* \"#utility.yul\":45479:45574   */\n      tag_513\n      jump\t// in\n    tag_888:\n        /* \"#utility.yul\":45470:45476   */\n      0x0100\n        /* \"#utility.yul\":45463:45468   */\n      dup4\n        /* \"#utility.yul\":45459:45477   */\n      add\n        /* \"#utility.yul\":45452:45575   */\n      mstore\n        /* \"#utility.yul\":45370:45586   */\n      pop\n        /* \"#utility.yul\":45657:45660   */\n      0x01c0\n        /* \"#utility.yul\":45701:45796   */\n      tag_889\n        /* \"#utility.yul\":45792:45795   */\n      dup5\n        /* \"#utility.yul\":45783:45789   */\n      dup3\n        /* \"#utility.yul\":45772:45781   */\n      dup6\n        /* \"#utility.yul\":45768:45790   */\n      add\n        /* \"#utility.yul\":45701:45796   */\n      tag_513\n      jump\t// in\n    tag_889:\n        /* \"#utility.yul\":45692:45698   */\n      0x0120\n        /* \"#utility.yul\":45685:45690   */\n      dup4\n        /* \"#utility.yul\":45681:45699   */\n      add\n        /* \"#utility.yul\":45674:45797   */\n      mstore\n        /* \"#utility.yul\":45596:45808   */\n      pop\n        /* \"#utility.yul\":45872:45875   */\n      0x0280\n        /* \"#utility.yul\":45916:46003   */\n      tag_890\n        /* \"#utility.yul\":45999:46002   */\n      dup5\n        /* \"#utility.yul\":45990:45996   */\n      dup3\n        /* \"#utility.yul\":45979:45988   */\n      dup6\n        /* \"#utility.yul\":45975:45997   */\n      add\n        /* \"#utility.yul\":45916:46003   */\n      tag_514\n      jump\t// in\n    tag_890:\n        /* \"#utility.yul\":45907:45913   */\n      0x0140\n        /* \"#utility.yul\":45900:45905   */\n      dup4\n        /* \"#utility.yul\":45896:45914   */\n      add\n        /* \"#utility.yul\":45889:46004   */\n      mstore\n        /* \"#utility.yul\":45818:46015   */\n      pop\n        /* \"#utility.yul\":43650:46022   */\n      swap3\n      swap2\n      pop\n      pop\n      jump\t// out\n        /* \"#utility.yul\":46051:47755   */\n    tag_516:\n        /* \"#utility.yul\":46137:46142   */\n      0x00\n        /* \"#utility.yul\":46181:46187   */\n      0x03a0\n        /* \"#utility.yul\":46169:46178   */\n      dup3\n        /* \"#utility.yul\":46164:46167   */\n      dup5\n        /* \"#utility.yul\":46160:46179   */\n      sub\n        /* \"#utility.yul\":46156:46188   */\n      slt\n        /* \"#utility.yul\":46153:46272   */\n      iszero\n      tag_892\n      jumpi\n        /* \"#utility.yul\":46191:46270   */\n      tag_893\n      tag_502\n      jump\t// in\n    tag_893:\n        /* \"#utility.yul\":46153:46272   */\n    tag_892:\n        /* \"#utility.yul\":46290:46313   */\n      tag_894\n        /* \"#utility.yul\":46306:46312   */\n      0x0100\n        /* \"#utility.yul\":46290:46313   */\n      tag_505\n      jump\t// in\n    tag_894:\n        /* \"#utility.yul\":46281:46313   */\n      swap1\n      pop\n        /* \"#utility.yul\":46370:46371   */\n      0x00\n        /* \"#utility.yul\":46410:46470   */\n      tag_895\n        /* \"#utility.yul\":46466:46469   */\n      dup5\n        /* \"#utility.yul\":46457:46463   */\n      dup3\n        /* \"#utility.yul\":46446:46455   */\n      dup6\n        /* \"#utility.yul\":46442:46464   */\n      add\n        /* \"#utility.yul\":46410:46470   */\n      tag_465\n      jump\t// in\n    tag_895:\n        /* \"#utility.yul\":46403:46407   */\n      0x00\n        /* \"#utility.yul\":46396:46401   */\n      dup4\n        /* \"#utility.yul\":46392:46408   */\n      add\n        /* \"#utility.yul\":46385:46471   */\n      mstore\n        /* \"#utility.yul\":46323:46482   */\n      pop\n        /* \"#utility.yul\":46544:46546   */\n      0x20\n        /* \"#utility.yul\":46585:46645   */\n      tag_896\n        /* \"#utility.yul\":46641:46644   */\n      dup5\n        /* \"#utility.yul\":46632:46638   */\n      dup3\n        /* \"#utility.yul\":46621:46630   */\n      dup6\n        /* \"#utility.yul\":46617:46639   */\n      add\n        /* \"#utility.yul\":46585:46645   */\n      tag_453\n      jump\t// in\n    tag_896:\n        /* \"#utility.yul\":46578:46582   */\n      0x20\n        /* \"#utility.yul\":46571:46576   */\n      dup4\n        /* \"#utility.yul\":46567:46583   */\n      add\n        /* \"#utility.yul\":46560:46646   */\n      mstore\n        /* \"#utility.yul\":46492:46657   */\n      pop\n        /* \"#utility.yul\":46717:46719   */\n      0x40\n        /* \"#utility.yul\":46758:46818   */\n      tag_897\n        /* \"#utility.yul\":46814:46817   */\n      dup5\n        /* \"#utility.yul\":46805:46811   */\n      dup3\n        /* \"#utility.yul\":46794:46803   */\n      dup6\n        /* \"#utility.yul\":46790:46812   */\n      add\n        /* \"#utility.yul\":46758:46818   */\n      tag_453\n      jump\t// in\n    tag_897:\n        /* \"#utility.yul\":46751:46755   */\n      0x40\n        /* \"#utility.yul\":46744:46749   */\n      dup4\n        /* \"#utility.yul\":46740:46756   */\n      add\n        /* \"#utility.yul\":46733:46819   */\n      mstore\n        /* \"#utility.yul\":46667:46830   */\n      pop\n        /* \"#utility.yul\":46893:46895   */\n      0x60\n        /* \"#utility.yul\":46934:46994   */\n      tag_898\n        /* \"#utility.yul\":46990:46993   */\n      dup5\n        /* \"#utility.yul\":46981:46987   */\n      dup3\n        /* \"#utility.yul\":46970:46979   */\n      dup6\n        /* \"#utility.yul\":46966:46988   */\n      add\n        /* \"#utility.yul\":46934:46994   */\n      tag_453\n      jump\t// in\n    tag_898:\n        /* \"#utility.yul\":46927:46931   */\n      0x60\n        /* \"#utility.yul\":46920:46925   */\n      dup4\n        /* \"#utility.yul\":46916:46932   */\n      add\n        /* \"#utility.yul\":46909:46995   */\n      mstore\n        /* \"#utility.yul\":46840:47006   */\n      pop\n        /* \"#utility.yul\":47066:47069   */\n      0x80\n        /* \"#utility.yul\":47108:47168   */\n      tag_899\n        /* \"#utility.yul\":47164:47167   */\n      dup5\n        /* \"#utility.yul\":47155:47161   */\n      dup3\n        /* \"#utility.yul\":47144:47153   */\n      dup6\n        /* \"#utility.yul\":47140:47162   */\n      add\n        /* \"#utility.yul\":47108:47168   */\n      tag_453\n      jump\t// in\n    tag_899:\n        /* \"#utility.yul\":47101:47105   */\n      0x80\n        /* \"#utility.yul\":47094:47099   */\n      dup4\n        /* \"#utility.yul\":47090:47106   */\n      add\n        /* \"#utility.yul\":47083:47169   */\n      mstore\n        /* \"#utility.yul\":47016:47180   */\n      pop\n        /* \"#utility.yul\":47247:47250   */\n      0xa0\n        /* \"#utility.yul\":47289:47349   */\n      tag_900\n        /* \"#utility.yul\":47345:47348   */\n      dup5\n        /* \"#utility.yul\":47336:47342   */\n      dup3\n        /* \"#utility.yul\":47325:47334   */\n      dup6\n        /* \"#utility.yul\":47321:47343   */\n      add\n        /* \"#utility.yul\":47289:47349   */\n      tag_465\n      jump\t// in\n    tag_900:\n        /* \"#utility.yul\":47282:47286   */\n      0xa0\n        /* \"#utility.yul\":47275:47280   */\n      dup4\n        /* \"#utility.yul\":47271:47287   */\n      add\n        /* \"#utility.yul\":47264:47350   */\n      mstore\n        /* \"#utility.yul\":47190:47361   */\n      pop\n        /* \"#utility.yul\":47431:47434   */\n      0xc0\n        /* \"#utility.yul\":47473:47533   */\n      tag_901\n        /* \"#utility.yul\":47529:47532   */\n      dup5\n        /* \"#utility.yul\":47520:47526   */\n      dup3\n        /* \"#utility.yul\":47509:47518   */\n      dup6\n        /* \"#utility.yul\":47505:47527   */\n      add\n        /* \"#utility.yul\":47473:47533   */\n      tag_465\n      jump\t// in\n    tag_901:\n        /* \"#utility.yul\":47466:47470   */\n      0xc0\n        /* \"#utility.yul\":47459:47464   */\n      dup4\n        /* \"#utility.yul\":47455:47471   */\n      add\n        /* \"#utility.yul\":47448:47534   */\n      mstore\n        /* \"#utility.yul\":47371:47545   */\n      pop\n        /* \"#utility.yul\":47607:47610   */\n      0xe0\n        /* \"#utility.yul\":47649:47736   */\n      tag_902\n        /* \"#utility.yul\":47732:47735   */\n      dup5\n        /* \"#utility.yul\":47723:47729   */\n      dup3\n        /* \"#utility.yul\":47712:47721   */\n      dup6\n        /* \"#utility.yul\":47708:47730   */\n      add\n        /* \"#utility.yul\":47649:47736   */\n      tag_515\n      jump\t// in\n    tag_902:\n        /* \"#utility.yul\":47642:47646   */\n      0xe0\n        /* \"#utility.yul\":47635:47640   */\n      dup4\n        /* \"#utility.yul\":47631:47647   */\n      add\n        /* \"#utility.yul\":47624:47737   */\n      mstore\n        /* \"#utility.yul\":47555:47748   */\n      pop\n        /* \"#utility.yul\":46051:47755   */\n      swap3\n      swap2\n      pop\n      pop\n      jump\t// out\n        /* \"#utility.yul\":47761:48165   */\n    tag_348:\n        /* \"#utility.yul\":47857:47863   */\n      0x00\n        /* \"#utility.yul\":47906:47909   */\n      0x03a0\n        /* \"#utility.yul\":47894:47903   */\n      dup3\n        /* \"#utility.yul\":47885:47892   */\n      dup5\n        /* \"#utility.yul\":47881:47904   */\n      sub\n        /* \"#utility.yul\":47877:47910   */\n      slt\n        /* \"#utility.yul\":47874:47994   */\n      iszero\n      tag_904\n      jumpi\n        /* \"#utility.yul\":47913:47992   */\n      tag_905\n      tag_417\n      jump\t// in\n    tag_905:\n        /* \"#utility.yul\":47874:47994   */\n    tag_904:\n        /* \"#utility.yul\":48033:48034   */\n      0x00\n        /* \"#utility.yul\":48058:48148   */\n      tag_906\n        /* \"#utility.yul\":48140:48147   */\n      dup5\n        /* \"#utility.yul\":48131:48137   */\n      dup3\n        /* \"#utility.yul\":48120:48129   */\n      dup6\n        /* \"#utility.yul\":48116:48138   */\n      add\n        /* \"#utility.yul\":48058:48148   */\n      tag_516\n      jump\t// in\n    tag_906:\n        /* \"#utility.yul\":48048:48148   */\n      swap2\n      pop\n        /* \"#utility.yul\":48004:48158   */\n      pop\n        /* \"#utility.yul\":47761:48165   */\n      swap3\n      swap2\n      pop\n      pop\n      jump\t// out\n        /* \"#utility.yul\":48171:48287   */\n    tag_517:\n        /* \"#utility.yul\":48255:48256   */\n      0x08\n        /* \"#utility.yul\":48248:48253   */\n      dup2\n        /* \"#utility.yul\":48245:48257   */\n      lt\n        /* \"#utility.yul\":48235:48281   */\n      tag_908\n      jumpi\n        /* \"#utility.yul\":48261:48279   */\n      tag_909\n      tag_93\n      jump\t// in\n    tag_909:\n        /* \"#utility.yul\":48235:48281   */\n    tag_908:\n        /* \"#utility.yul\":48171:48287   */\n      pop\n      jump\t// out\n        /* \"#utility.yul\":48293:48426   */\n    tag_518:\n        /* \"#utility.yul\":48341:48348   */\n      0x00\n        /* \"#utility.yul\":48370:48375   */\n      dup2\n        /* \"#utility.yul\":48359:48375   */\n      swap1\n      pop\n        /* \"#utility.yul\":48376:48420   */\n      tag_911\n        /* \"#utility.yul\":48414:48419   */\n      dup3\n        /* \"#utility.yul\":48376:48420   */\n      tag_517\n      jump\t// in\n    tag_911:\n        /* \"#utility.yul\":48293:48426   */\n      swap2\n      swap1\n      pop\n      jump\t// out\n        /* \"#utility.yul\":48432:48565   */\n    tag_519:\n        /* \"#utility.yul\":48491:48500   */\n      0x00\n        /* \"#utility.yul\":48524:48559   */\n      tag_913\n        /* \"#utility.yul\":48553:48558   */\n      dup3\n        /* \"#utility.yul\":48524:48559   */\n      tag_518\n      jump\t// in\n    tag_913:\n        /* \"#utility.yul\":48511:48559   */\n      swap1\n      pop\n        /* \"#utility.yul\":48432:48565   */\n      swap2\n      swap1\n      pop\n      jump\t// out\n        /* \"#utility.yul\":48571:48720   */\n    tag_520:\n        /* \"#utility.yul\":48667:48713   */\n      tag_915\n        /* \"#utility.yul\":48707:48712   */\n      dup2\n        /* \"#utility.yul\":48667:48713   */\n      tag_519\n      jump\t// in\n    tag_915:\n        /* \"#utility.yul\":48662:48665   */\n      dup3\n        /* \"#utility.yul\":48655:48714   */\n      mstore\n        /* \"#utility.yul\":48571:48720   */\n      pop\n      pop\n      jump\t// out\n        /* \"#utility.yul\":48726:49408   */\n    tag_355:\n        /* \"#utility.yul\":48940:48944   */\n      0x00\n        /* \"#utility.yul\":48978:48981   */\n      0xa0\n        /* \"#utility.yul\":48967:48976   */\n      dup3\n        /* \"#utility.yul\":48963:48982   */\n      add\n        /* \"#utility.yul\":48955:48982   */\n      swap1\n      pop\n        /* \"#utility.yul\":48992:49072   */\n      tag_917\n        /* \"#utility.yul\":49069:49070   */\n      0x00\n        /* \"#utility.yul\":49058:49067   */\n      dup4\n        /* \"#utility.yul\":49054:49071   */\n      add\n        /* \"#utility.yul\":49045:49051   */\n      dup9\n        /* \"#utility.yul\":48992:49072   */\n      tag_520\n      jump\t// in\n    tag_917:\n        /* \"#utility.yul\":49082:49154   */\n      tag_918\n        /* \"#utility.yul\":49150:49152   */\n      0x20\n        /* \"#utility.yul\":49139:49148   */\n      dup4\n        /* \"#utility.yul\":49135:49153   */\n      add\n        /* \"#utility.yul\":49126:49132   */\n      dup8\n        /* \"#utility.yul\":49082:49154   */\n      tag_410\n      jump\t// in\n    tag_918:\n        /* \"#utility.yul\":49164:49236   */\n      tag_919\n        /* \"#utility.yul\":49232:49234   */\n      0x40\n        /* \"#utility.yul\":49221:49230   */\n      dup4\n        /* \"#utility.yul\":49217:49235   */\n      add\n        /* \"#utility.yul\":49208:49214   */\n      dup7\n        /* \"#utility.yul\":49164:49236   */\n      tag_464\n      jump\t// in\n    tag_919:\n        /* \"#utility.yul\":49246:49318   */\n      tag_920\n        /* \"#utility.yul\":49314:49316   */\n      0x60\n        /* \"#utility.yul\":49303:49312   */\n      dup4\n        /* \"#utility.yul\":49299:49317   */\n      add\n        /* \"#utility.yul\":49290:49296   */\n      dup6\n        /* \"#utility.yul\":49246:49318   */\n      tag_410\n      jump\t// in\n    tag_920:\n        /* \"#utility.yul\":49328:49401   */\n      tag_921\n        /* \"#utility.yul\":49396:49399   */\n      0x80\n        /* \"#utility.yul\":49385:49394   */\n      dup4\n        /* \"#utility.yul\":49381:49400   */\n      add\n        /* \"#utility.yul\":49372:49378   */\n      dup5\n        /* \"#utility.yul\":49328:49401   */\n      tag_464\n      jump\t// in\n    tag_921:\n        /* \"#utility.yul\":48726:49408   */\n      swap7\n      swap6\n      pop\n      pop\n      pop\n      pop\n      pop\n      pop\n      jump\t// out\n        /* \"#utility.yul\":49414:49824   */\n    tag_373:\n        /* \"#utility.yul\":49454:49461   */\n      0x00\n        /* \"#utility.yul\":49477:49497   */\n      tag_923\n        /* \"#utility.yul\":49495:49496   */\n      dup3\n        /* \"#utility.yul\":49477:49497   */\n      tag_409\n      jump\t// in\n    tag_923:\n        /* \"#utility.yul\":49472:49497   */\n      swap2\n      pop\n        /* \"#utility.yul\":49511:49531   */\n      tag_924\n        /* \"#utility.yul\":49529:49530   */\n      dup4\n        /* \"#utility.yul\":49511:49531   */\n      tag_409\n      jump\t// in\n    tag_924:\n        /* \"#utility.yul\":49506:49531   */\n      swap3\n      pop\n        /* \"#utility.yul\":49566:49567   */\n      dup3\n        /* \"#utility.yul\":49563:49564   */\n      dup3\n        /* \"#utility.yul\":49559:49568   */\n      mul\n        /* \"#utility.yul\":49588:49618   */\n      tag_925\n        /* \"#utility.yul\":49606:49617   */\n      dup2\n        /* \"#utility.yul\":49588:49618   */\n      tag_409\n      jump\t// in\n    tag_925:\n        /* \"#utility.yul\":49577:49618   */\n      swap2\n      pop\n        /* \"#utility.yul\":49767:49768   */\n      dup3\n        /* \"#utility.yul\":49758:49765   */\n      dup3\n        /* \"#utility.yul\":49754:49769   */\n      div\n        /* \"#utility.yul\":49751:49752   */\n      dup5\n        /* \"#utility.yul\":49748:49770   */\n      eq\n        /* \"#utility.yul\":49728:49729   */\n      dup4\n        /* \"#utility.yul\":49721:49730   */\n      iszero\n        /* \"#utility.yul\":49701:49784   */\n      or\n        /* \"#utility.yul\":49678:49817   */\n      tag_926\n      jumpi\n        /* \"#utility.yul\":49797:49815   */\n      tag_927\n      tag_479\n      jump\t// in\n    tag_927:\n        /* \"#utility.yul\":49678:49817   */\n    tag_926:\n        /* \"#utility.yul\":49462:49824   */\n      pop\n        /* \"#utility.yul\":49414:49824   */\n      swap3\n      swap2\n      pop\n      pop\n      jump\t// out\n\n    auxdata: 0xa2646970667358221220ca8c16c0ddd2f0a6361e831c481d699bb3162a5d3894719fd0ca68aa7e8033b764736f6c634300081e0033\n}\n",
				"bytecode": {
					"linkReferences": {},
					"object": "60c060405234801561000f575f5ffd5b50604051613d7c380380613d7c8339818101604052810190610031919061016e565b815f60036101000a81548173ffffffffffffffffffffffffffffffffffffffff021916908373ffffffffffffffffffffffffffffffffffffffff16021790555080608081815250505f5f60016101000a81548160ff0219169083600381111561009d5761009c6101ac565b5b02179055503073ffffffffffffffffffffffffffffffffffffffff1660a08173ffffffffffffffffffffffffffffffffffffffff168152505050506101d9565b5f5ffd5b5f73ffffffffffffffffffffffffffffffffffffffff82169050919050565b5f61010a826100e1565b9050919050565b61011a81610100565b8114610124575f5ffd5b50565b5f8151905061013581610111565b92915050565b5f819050919050565b61014d8161013b565b8114610157575f5ffd5b50565b5f8151905061016881610144565b92915050565b5f5f60408385031215610184576101836100dd565b5b5f61019185828601610127565b92505060206101a28582860161015a565b9150509250929050565b7f4e487b71000000000000000000000000000000000000000000000000000000005f52602160045260245ffd5b60805160a051613b356102475f395f81816106990152818161074801528181610f5701528181610ffa015281816113c9015281816118fb01526120a901525f818161084d01528181610bf30152818161148b015281816119ba01528181611dfa0152611f3b0152613b355ff3fe6080604052600436106100a6575f3560e01c806351cff8d91161006357806351cff8d9146101b957806373488018146101f55780639f08c7551461021f578063b8c893381461024f578063c1cbbca71461028b578063e77ef21f146102bb576100a6565b80630d8e6e2c146100aa57806312065fe0146100d457806317d7de7c146100fe57806343d726d6146101285780634d0392a8146101525780634e69d5601461018f575b5f5ffd5b3480156100b5575f5ffd5b506100be6102e5565b6040516100cb91906124c2565b60405180910390f35b3480156100df575f5ffd5b506100e86102ed565b6040516100f591906124c2565b60405180910390f35b348015610109575f5ffd5b506101126102f6565b60405161011f919061254b565b60405180910390f35b348015610133575f5ffd5b5061013c610333565b60405161014991906124c2565b60405180910390f35b34801561015d575f5ffd5b50610178600480360381019061017391906125a2565b610882565b6040516101869291906125cd565b60405180910390f35b34801561019a575f5ffd5b506101a3610c77565b6040516101b09190612667565b60405180910390f35b3480156101c4575f5ffd5b506101df60048036038101906101da91906126da565b610c8c565b6040516101ec91906124c2565b60405180910390f35b348015610200575f5ffd5b506102096110fa565b6040516102169190612a1a565b60405180910390f35b61023960048036038101906102349190612a34565b61110f565b60405161024691906124c2565b60405180910390f35b34801561025a575f5ffd5b50610275600480360381019061027091906125a2565b61152c565b6040516102829190612b2c565b60405180910390f35b6102a560048036038101906102a091906125a2565b611593565b6040516102b291906124c2565b60405180910390f35b3480156102c6575f5ffd5b506102cf611a09565b6040516102dc91906124c2565b60405180910390f35b5f6001905090565b5f600254905090565b60606040518060400160405280601681526020017f4d4544414c494f4e5f50454e53494f4e5f5641554c5400000000000000000000815250905090565b5f5f60039054906101000a900473ffffffffffffffffffffffffffffffffffffffff1673ffffffffffffffffffffffffffffffffffffffff1663bf40fac16040518060400160405280601181526020017f52455345525645445f4d505f41444d494e0000000000000000000000000000008152506040518263ffffffff1660e01b81526004016103c3919061254b565b602060405180830381865afa1580156103de573d5f5f3e3d5ffd5b505050506040513d601f19601f820116820180604052508101906104029190612b60565b73ffffffffffffffffffffffffffffffffffffffff163373ffffffffffffffffffffffffffffffffffffffff161461046f576040517f08c379a000000000000000000000000000000000000000000000000000000000815260040161046690612bd5565b60405180910390fd5b5f5f9054906101000a900460ff16156104bd576040517f08c379a00000000000000000000000000000000000000000000000000000000081526004016104b490612c3d565b60405180910390fd5b600260038111156104d1576104d06125f4565b5b5f60019054906101000a900460ff1660038111156104f2576104f16125f4565b5b03610532576040517f08c379a000000000000000000000000000000000000000000000000000000000815260040161052990612ca5565b60405180910390fd5b5f61053b611e48565b905060026003811115610551576105506125f4565b5b5f60019054906101000a900460ff166003811115610572576105716125f4565b5b036105b2576040517f08c379a00000000000000000000000000000000000000000000000000000000081526004016105a990612d0d565b60405180910390fd5b60075f9054906101000a900460ff1615610601576040517f08c379a00000000000000000000000000000000000000000000000000000000081526004016105f890612d75565b60405180910390fd5b60015f5f6101000a81548160ff02191690831515021790555060025f60016101000a81548160ff0219169083600381111561063f5761063e6125f4565b5b02179055505f5f905073eeeeeeeeeeeeeeeeeeeeeeeeeeeeeeeeeeeeeeee73ffffffffffffffffffffffffffffffffffffffff168260e001516040015173ffffffffffffffffffffffffffffffffffffffff160361071e577f000000000000000000000000000000000000000000000000000000000000000073ffffffffffffffffffffffffffffffffffffffff16319050816040015173ffffffffffffffffffffffffffffffffffffffff166108fc8290811502906040515f60405180830381858888f19350505050158015610718573d5f5f3e3d5ffd5b50610846565b5f8260e001516040015190508073ffffffffffffffffffffffffffffffffffffffff166370a082317f00000000000000000000000000000000000000000000000000000000000000006040518263ffffffff1660e01b81526004016107839190612da2565b602060405180830381865afa15801561079e573d5f5f3e3d5ffd5b505050506040513d601f19601f820116820180604052508101906107c29190612dcf565b91508073ffffffffffffffffffffffffffffffffffffffff1663a9059cbb8460400151846040518363ffffffff1660e01b8152600401610803929190612dfa565b6020604051808303815f875af115801561081f573d5f5f3e3d5ffd5b505050506040513d601f19601f820116820180604052508101906108439190612e56565b50505b61087b60077f0000000000000000000000000000000000000000000000000000000000000000838560e0015160400151611fbb565b9250505090565b5f5f5f5f9054906101000a900460ff16156108d2576040517f08c379a00000000000000000000000000000000000000000000000000000000081526004016108c990612c3d565b60405180910390fd5b600260038111156108e6576108e56125f4565b5b5f60019054906101000a900460ff166003811115610907576109066125f4565b5b03610947576040517f08c379a000000000000000000000000000000000000000000000000000000000815260040161093e90612ca5565b60405180910390fd5b5f610950611e48565b9050806060015173ffffffffffffffffffffffffffffffffffffffff163373ffffffffffffffffffffffffffffffffffffffff16146109c4576040517f08c379a00000000000000000000000000000000000000000000000000000000081526004016109bb90612ecb565b60405180910390fd5b5f60038111156109d7576109d66125f4565b5b5f60019054906101000a900460ff1660038111156109f8576109f76125f4565b5b14610a38576040517f08c379a0000000000000000000000000000000000000000000000000000000008152600401610a2f90612f33565b60405180910390fd5b60015f5f6101000a81548160ff02191690831515021790555060075f9054906101000a900460ff1615610aa0576040517f08c379a0000000000000000000000000000000000000000000000000000000008152600401610a9790612f9b565b60405180910390fd5b600160075f6101000a81548160ff0219169083151502179055506002549250826006819055505f8160e0015160400151905073eeeeeeeeeeeeeeeeeeeeeeeeeeeeeeeeeeeeeeee73ffffffffffffffffffffffffffffffffffffffff168173ffffffffffffffffffffffffffffffffffffffff1603610b6657816060015173ffffffffffffffffffffffffffffffffffffffff166108fc8590811502906040515f60405180830381858888f19350505050158015610b60573d5f5f3e3d5ffd5b50610bec565b5f8190508073ffffffffffffffffffffffffffffffffffffffff1663095ea7b38460600151876040518363ffffffff1660e01b8152600401610ba9929190612dfa565b6020604051808303815f875af1158015610bc5573d5f5f3e3d5ffd5b505050506040513d601f19601f82011682018060405250810190610be99190612e56565b50505b610c2160037f0000000000000000000000000000000000000000000000000000000000000000868560e0015160400151611fbb565b925060085f8681526020019081526020015f2083908060018154018082558091505060019003905f5260205f20015f90919091909150555f5f5f6101000a81548160ff0219169083151502179055505050915091565b5f5f60019054906101000a900460ff16905090565b5f5f60039054906101000a900473ffffffffffffffffffffffffffffffffffffffff1673ffffffffffffffffffffffffffffffffffffffff1663bf40fac16040518060400160405280601181526020017f52455345525645445f4d505f41444d494e0000000000000000000000000000008152506040518263ffffffff1660e01b8152600401610d1c919061254b565b602060405180830381865afa158015610d37573d5f5f3e3d5ffd5b505050506040513d601f19601f82011682018060405250810190610d5b9190612b60565b73ffffffffffffffffffffffffffffffffffffffff163373ffffffffffffffffffffffffffffffffffffffff1614610dc8576040517f08c379a0000000000000000000000000000000000000000000000000000000008152600401610dbf90612bd5565b60405180910390fd5b60026003811115610ddc57610ddb6125f4565b5b5f60019054906101000a900460ff166003811115610dfd57610dfc6125f4565b5b14610e3d576040517f08c379a0000000000000000000000000000000000000000000000000000000008152600401610e3490613003565b60405180910390fd5b5f5f60039054906101000a900473ffffffffffffffffffffffffffffffffffffffff1673ffffffffffffffffffffffffffffffffffffffff1663bf40fac16040518060400160405280601581526020017f52455345525645445f42414e4b5f4144445245535300000000000000000000008152506040518263ffffffff1660e01b8152600401610ecd919061254b565b602060405180830381865afa158015610ee8573d5f5f3e3d5ffd5b505050506040513d601f19601f82011682018060405250810190610f0c9190612b60565b905073eeeeeeeeeeeeeeeeeeeeeeeeeeeeeeeeeeeeeeee73ffffffffffffffffffffffffffffffffffffffff168373ffffffffffffffffffffffffffffffffffffffff1603610fd8577f000000000000000000000000000000000000000000000000000000000000000073ffffffffffffffffffffffffffffffffffffffff163191508073ffffffffffffffffffffffffffffffffffffffff166108fc8390811502906040515f60405180830381858888f19350505050158015610fd2573d5f5f3e3d5ffd5b506110f4565b5f8390508073ffffffffffffffffffffffffffffffffffffffff166370a082317f00000000000000000000000000000000000000000000000000000000000000006040518263ffffffff1660e01b81526004016110359190612da2565b602060405180830381865afa158015611050573d5f5f3e3d5ffd5b505050506040513d601f19601f820116820180604052508101906110749190612dcf565b92508073ffffffffffffffffffffffffffffffffffffffff1663a9059cbb83856040518363ffffffff1660e01b81526004016110b1929190612dfa565b6020604051808303815f875af11580156110cd573d5f5f3e3d5ffd5b505050506040513d601f19601f820116820180604052508101906110f19190612e56565b50505b50919050565b6111026122ea565b61110a611e48565b905090565b5f5f5f9054906101000a900460ff161561115e576040517f08c379a000000000000000000000000000000000000000000000000000000000815260040161115590612c3d565b60405180910390fd5b60026003811115611172576111716125f4565b5b5f60019054906101000a900460ff166003811115611193576111926125f4565b5b036111d3576040517f08c379a00000000000000000000000000000000000000000000000000000000081526004016111ca90612ca5565b60405180910390fd5b60015f5f6101000a81548160ff0219169083151502179055505f6111f5611e48565b9050806060015173ffffffffffffffffffffffffffffffffffffffff163373ffffffffffffffffffffffffffffffffffffffff1614611269576040517f08c379a000000000000000000000000000000000000000000000000000000000815260040161126090612ecb565b60405180910390fd5b6006548410156112ae576040517f08c379a00000000000000000000000000000000000000000000000000000000081526004016112a59061306b565b60405180910390fd5b5f83856112bb91906130b6565b905060075f9054906101000a900460ff1661130b576040517f08c379a000000000000000000000000000000000000000000000000000000000815260040161130290613133565b60405180910390fd5b5f8260e0015160400151905073eeeeeeeeeeeeeeeeeeeeeeeeeeeeeeeeeeeeeeee73ffffffffffffffffffffffffffffffffffffffff168173ffffffffffffffffffffffffffffffffffffffff16036113a657813410156113a1576040517f08c379a00000000000000000000000000000000000000000000000000000000081526004016113989061319b565b60405180910390fd5b61144a565b5f8190508073ffffffffffffffffffffffffffffffffffffffff166323b872dd337f0000000000000000000000000000000000000000000000000000000000000000866040518463ffffffff1660e01b8152600401611407939291906131b9565b6020604051808303815f875af1158015611423573d5f5f3e3d5ffd5b505050506040513d601f19601f820116820180604052508101906114479190612e56565b50505b5f60065460025461145b91906131ee565b9050856006548261146c91906130b6565b61147691906130b6565b600281905550611484612134565b6114b960017f0000000000000000000000000000000000000000000000000000000000000000858760e0015160400151611fbb565b945060085f8981526020019081526020015f2085908060018154018082558091505060019003905f5260205f20015f90919091909150555f60075f6101000a81548160ff0219169083151502179055505f5f5f6101000a81548160ff021916908315150217905550505050509392505050565b606060085f8381526020019081526020015f2080548060200260200160405190810160405280929190818152602001828054801561158757602002820191905f5260205f20905b815481526020019060010190808311611573575b50505050509050919050565b5f5f5f9054906101000a900460ff16156115e2576040517f08c379a00000000000000000000000000000000000000000000000000000000081526004016115d990612c3d565b60405180910390fd5b600260038111156115f6576115f56125f4565b5b5f60019054906101000a900460ff166003811115611617576116166125f4565b5b03611657576040517f08c379a000000000000000000000000000000000000000000000000000000000815260040161164e90612ca5565b60405180910390fd5b60015f5f6101000a81548160ff0219169083151502179055504260045411156116b5576040517f08c379a00000000000000000000000000000000000000000000000000000000081526004016116ac90613291565b60405180910390fd5b5f60018111156116c8576116c76125f4565b5b5f60029054906101000a900460ff1660018111156116e9576116e86125f4565b5b03611729576040517f08c379a0000000000000000000000000000000000000000000000000000000008152600401611720906132f9565b60405180910390fd5b5f600381111561173c5761173b6125f4565b5b5f60019054906101000a900460ff16600381111561175d5761175c6125f4565b5b1461179d576040517f08c379a000000000000000000000000000000000000000000000000000000000815260040161179490613361565b60405180910390fd5b5f6117a6611e48565b90506117bd8160e0015161010001515f01516121ac565b60045f8282546117cd91906130b6565b925050819055508060e0015161010001516040015183101580156117fe57508060e001516101000151606001518311155b61183d576040517f08c379a0000000000000000000000000000000000000000000000000000000008152600401611834906133ef565b60405180910390fd5b5f8160e0015160400151905073eeeeeeeeeeeeeeeeeeeeeeeeeeeeeeeeeeeeeeee73ffffffffffffffffffffffffffffffffffffffff168173ffffffffffffffffffffffffffffffffffffffff16036118d857833410156118d3576040517f08c379a00000000000000000000000000000000000000000000000000000000081526004016118ca90613457565b60405180910390fd5b61197c565b5f8190508073ffffffffffffffffffffffffffffffffffffffff166323b872dd337f0000000000000000000000000000000000000000000000000000000000000000886040518463ffffffff1660e01b8152600401611939939291906131b9565b6020604051808303815f875af1158015611955573d5f5f3e3d5ffd5b505050506040513d601f19601f820116820180604052508101906119799190612e56565b50505b8360025f82825461198d91906130b6565b9250508190555060015f8154809291906119a690613475565b91905055506119b3612134565b6119e860017f0000000000000000000000000000000000000000000000000000000000000000868560e0015160400151611fbb565b92505f5f5f6101000a81548160ff0219169083151502179055505050919050565b5f611a12611e48565b6040015173ffffffffffffffffffffffffffffffffffffffff163373ffffffffffffffffffffffffffffffffffffffff1614611a83576040517f08c379a0000000000000000000000000000000000000000000000000000000008152600401611a7a90613506565b60405180910390fd5b5f5f9054906101000a900460ff1615611ad1576040517f08c379a0000000000000000000000000000000000000000000000000000000008152600401611ac890612c3d565b60405180910390fd5b60026003811115611ae557611ae46125f4565b5b5f60019054906101000a900460ff166003811115611b0657611b056125f4565b5b03611b46576040517f08c379a0000000000000000000000000000000000000000000000000000000008152600401611b3d90612ca5565b60405180910390fd5b5f611b4f611e48565b905060015f5f6101000a81548160ff02191690831515021790555060016003811115611b7e57611b7d6125f4565b5b5f60019054906101000a900460ff166003811115611b9f57611b9e6125f4565b5b14611bdf576040517f08c379a0000000000000000000000000000000000000000000000000000000008152600401611bd69061356e565b60405180910390fd5b600180811115611bf257611bf16125f4565b5b5f60029054906101000a900460ff166001811115611c1357611c126125f4565b5b03611c53576040517f08c379a0000000000000000000000000000000000000000000000000000000008152600401611c4a906135d6565b60405180910390fd5b5f8160e001516101200151604001519050806002541015611ca9576040517f08c379a0000000000000000000000000000000000000000000000000000000008152600401611ca09061363e565b60405180910390fd5b5f826040015190508160025f828254611cc291906131ee565b9250508190555073eeeeeeeeeeeeeeeeeeeeeeeeeeeeeeeeeeeeeeee73ffffffffffffffffffffffffffffffffffffffff168360e001516040015173ffffffffffffffffffffffffffffffffffffffff1603611d61578073ffffffffffffffffffffffffffffffffffffffff166108fc8390811502906040515f60405180830381858888f19350505050158015611d5b573d5f5f3e3d5ffd5b50611deb565b5f8360e001516040015190508073ffffffffffffffffffffffffffffffffffffffff1663a9059cbb83856040518363ffffffff1660e01b8152600401611da8929190612dfa565b6020604051808303815f875af1158015611dc4573d5f5f3e3d5ffd5b505050506040513d601f19601f82011682018060405250810190611de89190612e56565b50505b611df361229b565b611e2860027f0000000000000000000000000000000000000000000000000000000000000000848660e0015160400151611fbb565b93505f5f5f6101000a81548160ff02191690831515021790555050505090565b611e506122ea565b5f60039054906101000a900473ffffffffffffffffffffffffffffffffffffffff1673ffffffffffffffffffffffffffffffffffffffff1663bf40fac16040518060400160405280601a81526020017f52455345525645445f4d4544414c494f4e5f50454e53494f4e530000000000008152506040518263ffffffff1660e01b8152600401611edf919061254b565b602060405180830381865afa158015611efa573d5f5f3e3d5ffd5b505050506040513d601f19601f82011682018060405250810190611f1e9190612b60565b73ffffffffffffffffffffffffffffffffffffffff166377bdfdf27f00000000000000000000000000000000000000000000000000000000000000006040518263ffffffff1660e01b8152600401611f7691906124c2565b6103a060405180830381865afa158015611f92573d5f5f3e3d5ffd5b505050506040513d601f19601f82011682018060405250810190611fb691906139fb565b905090565b5f5f60039054906101000a900473ffffffffffffffffffffffffffffffffffffffff1673ffffffffffffffffffffffffffffffffffffffff1663bf40fac16040518060400160405280601381526020017f52455345525645445f54585f4d414e41474552000000000000000000000000008152506040518263ffffffff1660e01b815260040161204b919061254b565b602060405180830381865afa158015612066573d5f5f3e3d5ffd5b505050506040513d601f19601f8201168201806040525081019061208a9190612b60565b73ffffffffffffffffffffffffffffffffffffffff1663ce35160886867f000000000000000000000000000000000000000000000000000000000000000087876040518663ffffffff1660e01b81526004016120ea959493929190613a6d565b6020604051808303815f875af1158015612106573d5f5f3e3d5ffd5b505050506040513d601f19601f8201168201806040525081019061212a9190612dcf565b9050949350505050565b5f61213d611e48565b90508060e00151610100015160a00151600254106121a9575f5f60026101000a81548160ff02191690836001811115612179576121786125f4565b5b021790555060015f60016101000a81548160ff021916908360038111156121a3576121a26125f4565b5b02179055505b50565b5f6201518090505f60038111156121c6576121c56125f4565b5b8260038111156121d9576121d86125f4565b5b0315612296576007816121ec9190613abe565b905060016003811115612202576122016125f4565b5b826003811115612215576122146125f4565b5b0315612296576004816122289190613abe565b90506002600381111561223e5761223d6125f4565b5b826003811115612251576122506125f4565b5b0315612296576003816122649190613abe565b9050600380811115612279576122786125f4565b5b82600381111561228c5761228b6125f4565b5b0315612296575f90505b919050565b5f6122a4611e48565b90508060e00151610120015160a00151600354106122e75760015f60026101000a81548160ff021916908360018111156122e1576122e06125f4565b5b02179055505b50565b6040518061010001604052805f81526020015f73ffffffffffffffffffffffffffffffffffffffff1681526020015f73ffffffffffffffffffffffffffffffffffffffff1681526020015f73ffffffffffffffffffffffffffffffffffffffff1681526020015f73ffffffffffffffffffffffffffffffffffffffff1681526020015f81526020015f8152602001612380612386565b81525090565b6040518061016001604052805f81526020015f73ffffffffffffffffffffffffffffffffffffffff1681526020015f73ffffffffffffffffffffffffffffffffffffffff1681526020015f81526020015f81526020015f60028111156123ef576123ee6125f4565b5b81526020015f73ffffffffffffffffffffffffffffffffffffffff1681526020015f6001811115612423576124226125f4565b5b8152602001612430612450565b815260200161243d612450565b815260200161244a612492565b81525090565b6040518060c001604052805f600381111561246e5761246d6125f4565b5b81526020015f81526020015f81526020015f81526020015f81526020015f81525090565b60405180604001604052805f81526020015f81525090565b5f819050919050565b6124bc816124aa565b82525050565b5f6020820190506124d55f8301846124b3565b92915050565b5f81519050919050565b5f82825260208201905092915050565b8281835e5f83830152505050565b5f601f19601f8301169050919050565b5f61251d826124db565b61252781856124e5565b93506125378185602086016124f5565b61254081612503565b840191505092915050565b5f6020820190508181035f8301526125638184612513565b905092915050565b5f604051905090565b5f5ffd5b612581816124aa565b811461258b575f5ffd5b50565b5f8135905061259c81612578565b92915050565b5f602082840312156125b7576125b6612574565b5b5f6125c48482850161258e565b91505092915050565b5f6040820190506125e05f8301856124b3565b6125ed60208301846124b3565b9392505050565b7f4e487b71000000000000000000000000000000000000000000000000000000005f52602160045260245ffd5b60048110612632576126316125f4565b5b50565b5f81905061264282612621565b919050565b5f61265182612635565b9050919050565b61266181612647565b82525050565b5f60208201905061267a5f830184612658565b92915050565b5f73ffffffffffffffffffffffffffffffffffffffff82169050919050565b5f6126a982612680565b9050919050565b6126b98161269f565b81146126c3575f5ffd5b50565b5f813590506126d4816126b0565b92915050565b5f602082840312156126ef576126ee612574565b5b5f6126fc848285016126c6565b91505092915050565b61270e816124aa565b82525050565b61271d8161269f565b82525050565b60038110612734576127336125f4565b5b50565b5f81905061274482612723565b919050565b5f61275382612737565b9050919050565b61276381612749565b82525050565b6002811061277a576127796125f4565b5b50565b5f81905061278a82612769565b919050565b5f6127998261277d565b9050919050565b6127a98161278f565b82525050565b600481106127c0576127bf6125f4565b5b50565b5f8190506127d0826127af565b919050565b5f6127df826127c3565b9050919050565b6127ef816127d5565b82525050565b60c082015f8201516128095f8501826127e6565b50602082015161281c6020850182612705565b50604082015161282f6040850182612705565b5060608201516128426060850182612705565b5060808201516128556080850182612705565b5060a082015161286860a0850182612705565b50505050565b604082015f8201516128825f850182612705565b5060208201516128956020850182612705565b50505050565b6102c082015f8201516128b05f850182612705565b5060208201516128c36020850182612714565b5060408201516128d66040850182612714565b5060608201516128e96060850182612705565b5060808201516128fc6080850182612705565b5060a082015161290f60a085018261275a565b5060c082015161292260c0850182612714565b5060e082015161293560e08501826127a0565b5061010082015161294a6101008501826127f5565b5061012082015161295f6101c08501826127f5565b5061014082015161297461028085018261286e565b50505050565b6103a082015f82015161298f5f850182612705565b5060208201516129a26020850182612714565b5060408201516129b56040850182612714565b5060608201516129c86060850182612714565b5060808201516129db6080850182612714565b5060a08201516129ee60a0850182612705565b5060c0820151612a0160c0850182612705565b5060e0820151612a1460e085018261289b565b50505050565b5f6103a082019050612a2e5f83018461297a565b92915050565b5f5f5f60608486031215612a4b57612a4a612574565b5b5f612a588682870161258e565b9350506020612a698682870161258e565b9250506040612a7a8682870161258e565b9150509250925092565b5f81519050919050565b5f82825260208201905092915050565b5f819050602082019050919050565b5f612ab88383612705565b60208301905092915050565b5f602082019050919050565b5f612ada82612a84565b612ae48185612a8e565b9350612aef83612a9e565b805f5b83811015612b1f578151612b068882612aad565b9750612b1183612ac4565b925050600181019050612af2565b5085935050505092915050565b5f6020820190508181035f830152612b448184612ad0565b905092915050565b5f81519050612b5a816126b0565b92915050565b5f60208284031215612b7557612b74612574565b5b5f612b8284828501612b4c565b91505092915050565b7f50656e73696f6e2041646d696e204f6e6c7900000000000000000000000000005f82015250565b5f612bbf6012836124e5565b9150612bca82612b8b565b602082019050919050565b5f6020820190508181035f830152612bec81612bb3565b9050919050565b7f7661756c74206c6f636b656400000000000000000000000000000000000000005f82015250565b5f612c27600c836124e5565b9150612c3282612bf3565b602082019050919050565b5f6020820190508181035f830152612c5481612c1b565b9050919050565b7f7661756c7420636c6f73656400000000000000000000000000000000000000005f82015250565b5f612c8f600c836124e5565b9150612c9a82612c5b565b602082019050919050565b5f6020820190508181035f830152612cbc81612c83565b9050919050565b7f70656e73696f6e20636c6f7365640000000000000000000000000000000000005f82015250565b5f612cf7600e836124e5565b9150612d0282612cc3565b602082019050919050565b5f6020820190508181035f830152612d2481612ceb565b9050919050565b7f70656e73696f6e20696e207472656173757279000000000000000000000000005f82015250565b5f612d5f6013836124e5565b9150612d6a82612d2b565b602082019050919050565b5f6020820190508181035f830152612d8c81612d53565b9050919050565b612d9c8161269f565b82525050565b5f602082019050612db55f830184612d93565b92915050565b5f81519050612dc981612578565b92915050565b5f60208284031215612de457612de3612574565b5b5f612df184828501612dbb565b91505092915050565b5f604082019050612e0d5f830185612d93565b612e1a60208301846124b3565b9392505050565b5f8115159050919050565b612e3581612e21565b8114612e3f575f5ffd5b50565b5f81519050612e5081612e2c565b92915050565b5f60208284031215612e6b57612e6a612574565b5b5f612e7884828501612e42565b91505092915050565b7f7472656173757279206f6e6c79000000000000000000000000000000000000005f82015250565b5f612eb5600d836124e5565b9150612ec082612e81565b602082019050919050565b5f6020820190508181035f830152612ee281612ea9565b9050919050565b7f696e76616c69642070656e73696f6e2070756c6c2073746174650000000000005f82015250565b5f612f1d601a836124e5565b9150612f2882612ee9565b602082019050919050565b5f6020820190508181035f830152612f4a81612f11565b9050919050565b7f7661756c7420616c72656164792070756c6c65640000000000000000000000005f82015250565b5f612f856014836124e5565b9150612f9082612f51565b602082019050919050565b5f6020820190508181035f830152612fb281612f79565b9050919050565b7f70656e73696f6e206e6f7420636c6f73656400000000000000000000000000005f82015250565b5f612fed6012836124e5565b9150612ff882612fb9565b602082019050919050565b5f6020820190508181035f83015261301a81612fe1565b9050919050565b7f696e73756666696369656e74207072696e636970616c2072657475726e6564005f82015250565b5f613055601f836124e5565b915061306082613021565b602082019050919050565b5f6020820190508181035f83015261308281613049565b9050919050565b7f4e487b71000000000000000000000000000000000000000000000000000000005f52601160045260245ffd5b5f6130c0826124aa565b91506130cb836124aa565b92508282019050808211156130e3576130e2613089565b5b92915050565b7f7661756c74206e6f742070756c6c6564000000000000000000000000000000005f82015250565b5f61311d6010836124e5565b9150613128826130e9565b602082019050919050565b5f6020820190508181035f83015261314a81613111565b9050919050565b7f696e7375666669656e74207472616e736d69747465642076616c7565000000005f82015250565b5f613185601c836124e5565b915061319082613151565b602082019050919050565b5f6020820190508181035f8301526131b281613179565b9050919050565b5f6060820190506131cc5f830186612d93565b6131d96020830185612d93565b6131e660408301846124b3565b949350505050565b5f6131f8826124aa565b9150613203836124aa565b925082820390508181111561321b5761321a613089565b5b92915050565b7f636f6e747269627574696f6e7320746f6f206672657175656e742077616974205f8201527f7265717569726564200000000000000000000000000000000000000000000000602082015250565b5f61327b6029836124e5565b915061328682613221565b604082019050919050565b5f6020820190508181035f8301526132a88161326f565b9050919050565b7f70656e73696f6e206d61747572656400000000000000000000000000000000005f82015250565b5f6132e3600f836124e5565b91506132ee826132af565b602082019050919050565b5f6020820190508181035f830152613310816132d7565b9050919050565b7f70656e73696f6e206e6f74206f70656e000000000000000000000000000000005f82015250565b5f61334b6010836124e5565b915061335682613317565b602082019050919050565b5f6020820190508181035f8301526133788161333f565b9050919050565b7f696e76616c696420636f6e747269627574696f6e2065697468657220726169735f8201527f65206f72206c6f77657220616d6f756e74000000000000000000000000000000602082015250565b5f6133d96031836124e5565b91506133e48261337f565b604082019050919050565b5f6020820190508181035f830152613406816133cd565b9050919050565b7f636f6e747269627574696f6e206d69732d6d61746368000000000000000000005f82015250565b5f6134416016836124e5565b915061344c8261340d565b602082019050919050565b5f6020820190508181035f83015261346e81613435565b9050919050565b5f61347f826124aa565b91507fffffffffffffffffffffffffffffffffffffffffffffffffffffffffffffffff82036134b1576134b0613089565b5b600182019050919050565b7f6f776e6572206f6e6c79000000000000000000000000000000000000000000005f82015250565b5f6134f0600a836124e5565b91506134fb826134bc565b602082019050919050565b5f6020820190508181035f83015261351d816134e4565b9050919050565b7f696e76616c69642070656e73696f6e20737461747573000000000000000000005f82015250565b5f6135586016836124e5565b915061356382613524565b602082019050919050565b5f6020820190508181035f8301526135858161354c565b9050919050565b7f70656e73696f6e20736574746c656400000000000000000000000000000000005f82015250565b5f6135c0600f836124e5565b91506135cb8261358c565b602082019050919050565b5f6020820190508181035f8301526135ed816135b4565b9050919050565b7f696e73756666696369656e7420656d6d697373696f6e2062616c616e636500005f82015250565b5f613628601e836124e5565b9150613633826135f4565b602082019050919050565b5f6020820190508181035f8301526136558161361c565b9050919050565b5f5ffd5b7f4e487b71000000000000000000000000000000000000000000000000000000005f52604160045260245ffd5b61369682612503565b810181811067ffffffffffffffff821117156136b5576136b4613660565b5b80604052505050565b5f6136c761256b565b90506136d3828261368d565b919050565b600381106136e4575f5ffd5b50565b5f815190506136f5816136d8565b92915050565b60028110613707575f5ffd5b50565b5f81519050613718816136fb565b92915050565b6004811061372a575f5ffd5b50565b5f8151905061373b8161371e565b92915050565b5f60c082840312156137565761375561365c565b5b61376060c06136be565b90505f61376f8482850161372d565b5f83015250602061378284828501612dbb565b602083015250604061379684828501612dbb565b60408301525060606137aa84828501612dbb565b60608301525060806137be84828501612dbb565b60808301525060a06137d284828501612dbb565b60a08301525092915050565b5f604082840312156137f3576137f261365c565b5b6137fd60406136be565b90505f61380c84828501612dbb565b5f83015250602061381f84828501612dbb565b60208301525092915050565b5f6102c082840312156138415761384061365c565b5b61384c6101606136be565b90505f61385b84828501612dbb565b5f83015250602061386e84828501612b4c565b602083015250604061388284828501612b4c565b604083015250606061389684828501612dbb565b60608301525060806138aa84828501612dbb565b60808301525060a06138be848285016136e7565b60a08301525060c06138d284828501612b4c565b60c08301525060e06138e68482850161370a565b60e0830152506101006138fb84828501613741565b610100830152506101c061391184828501613741565b61012083015250610280613927848285016137de565b6101408301525092915050565b5f6103a0828403121561394a5761394961365c565b5b6139556101006136be565b90505f61396484828501612dbb565b5f83015250602061397784828501612b4c565b602083015250604061398b84828501612b4c565b604083015250606061399f84828501612b4c565b60608301525060806139b384828501612b4c565b60808301525060a06139c784828501612dbb565b60a08301525060c06139db84828501612dbb565b60c08301525060e06139ef8482850161382b565b60e08301525092915050565b5f6103a08284031215613a1157613a10612574565b5b5f613a1e84828501613934565b91505092915050565b60088110613a3857613a376125f4565b5b50565b5f819050613a4882613a27565b919050565b5f613a5782613a3b565b9050919050565b613a6781613a4d565b82525050565b5f60a082019050613a805f830188613a5e565b613a8d60208301876124b3565b613a9a6040830186612d93565b613aa760608301856124b3565b613ab46080830184612d93565b9695505050505050565b5f613ac8826124aa565b9150613ad3836124aa565b9250828202613ae1816124aa565b91508282048414831517613af857613af7613089565b5b509291505056fea2646970667358221220ca8c16c0ddd2f0a6361e831c481d699bb3162a5d3894719fd0ca68aa7e8033b764736f6c634300081e0033",
					"opcodes": "PUSH1 0xC0 PUSH1 0x40 MSTORE CALLVALUE DUP1 ISZERO PUSH2 0xF JUMPI PUSH0 PUSH0 REVERT JUMPDEST POP PUSH1 0x40 MLOAD PUSH2 0x3D7C CODESIZE SUB DUP1 PUSH2 0x3D7C DUP4 CODECOPY DUP2 DUP2 ADD PUSH1 0x40 MSTORE DUP2 ADD SWAP1 PUSH2 0x31 SWAP2 SWAP1 PUSH2 0x16E JUMP JUMPDEST DUP2 PUSH0 PUSH1 0x3 PUSH2 0x100 EXP DUP2 SLOAD DUP2 PUSH20 0xFFFFFFFFFFFFFFFFFFFFFFFFFFFFFFFFFFFFFFFF MUL NOT AND SWAP1 DUP4 PUSH20 0xFFFFFFFFFFFFFFFFFFFFFFFFFFFFFFFFFFFFFFFF AND MUL OR SWAP1 SSTORE POP DUP1 PUSH1 0x80 DUP2 DUP2 MSTORE POP POP PUSH0 PUSH0 PUSH1 0x1 PUSH2 0x100 EXP DUP2 SLOAD DUP2 PUSH1 0xFF MUL NOT AND SWAP1 DUP4 PUSH1 0x3 DUP2 GT ISZERO PUSH2 0x9D JUMPI PUSH2 0x9C PUSH2 0x1AC JUMP JUMPDEST JUMPDEST MUL OR SWAP1 SSTORE POP ADDRESS PUSH20 0xFFFFFFFFFFFFFFFFFFFFFFFFFFFFFFFFFFFFFFFF AND PUSH1 0xA0 DUP2 PUSH20 0xFFFFFFFFFFFFFFFFFFFFFFFFFFFFFFFFFFFFFFFF AND DUP2 MSTORE POP POP POP POP PUSH2 0x1D9 JUMP JUMPDEST PUSH0 PUSH0 REVERT JUMPDEST PUSH0 PUSH20 0xFFFFFFFFFFFFFFFFFFFFFFFFFFFFFFFFFFFFFFFF DUP3 AND SWAP1 POP SWAP2 SWAP1 POP JUMP JUMPDEST PUSH0 PUSH2 0x10A DUP3 PUSH2 0xE1 JUMP JUMPDEST SWAP1 POP SWAP2 SWAP1 POP JUMP JUMPDEST PUSH2 0x11A DUP2 PUSH2 0x100 JUMP JUMPDEST DUP2 EQ PUSH2 0x124 JUMPI PUSH0 PUSH0 REVERT JUMPDEST POP JUMP JUMPDEST PUSH0 DUP2 MLOAD SWAP1 POP PUSH2 0x135 DUP2 PUSH2 0x111 JUMP JUMPDEST SWAP3 SWAP2 POP POP JUMP JUMPDEST PUSH0 DUP2 SWAP1 POP SWAP2 SWAP1 POP JUMP JUMPDEST PUSH2 0x14D DUP2 PUSH2 0x13B JUMP JUMPDEST DUP2 EQ PUSH2 0x157 JUMPI PUSH0 PUSH0 REVERT JUMPDEST POP JUMP JUMPDEST PUSH0 DUP2 MLOAD SWAP1 POP PUSH2 0x168 DUP2 PUSH2 0x144 JUMP JUMPDEST SWAP3 SWAP2 POP POP JUMP JUMPDEST PUSH0 PUSH0 PUSH1 0x40 DUP4 DUP6 SUB SLT ISZERO PUSH2 0x184 JUMPI PUSH2 0x183 PUSH2 0xDD JUMP JUMPDEST JUMPDEST PUSH0 PUSH2 0x191 DUP6 DUP3 DUP7 ADD PUSH2 0x127 JUMP JUMPDEST SWAP3 POP POP PUSH1 0x20 PUSH2 0x1A2 DUP6 DUP3 DUP7 ADD PUSH2 0x15A JUMP JUMPDEST SWAP2 POP POP SWAP3 POP SWAP3 SWAP1 POP JUMP JUMPDEST PUSH32 0x4E487B7100000000000000000000000000000000000000000000000000000000 PUSH0 MSTORE PUSH1 0x21 PUSH1 0x4 MSTORE PUSH1 0x24 PUSH0 REVERT JUMPDEST PUSH1 0x80 MLOAD PUSH1 0xA0 MLOAD PUSH2 0x3B35 PUSH2 0x247 PUSH0 CODECOPY PUSH0 DUP2 DUP2 PUSH2 0x699 ADD MSTORE DUP2 DUP2 PUSH2 0x748 ADD MSTORE DUP2 DUP2 PUSH2 0xF57 ADD MSTORE DUP2 DUP2 PUSH2 0xFFA ADD MSTORE DUP2 DUP2 PUSH2 0x13C9 ADD MSTORE DUP2 DUP2 PUSH2 0x18FB ADD MSTORE PUSH2 0x20A9 ADD MSTORE PUSH0 DUP2 DUP2 PUSH2 0x84D ADD MSTORE DUP2 DUP2 PUSH2 0xBF3 ADD MSTORE DUP2 DUP2 PUSH2 0x148B ADD MSTORE DUP2 DUP2 PUSH2 0x19BA ADD MSTORE DUP2 DUP2 PUSH2 0x1DFA ADD MSTORE PUSH2 0x1F3B ADD MSTORE PUSH2 0x3B35 PUSH0 RETURN INVALID PUSH1 0x80 PUSH1 0x40 MSTORE PUSH1 0x4 CALLDATASIZE LT PUSH2 0xA6 JUMPI PUSH0 CALLDATALOAD PUSH1 0xE0 SHR DUP1 PUSH4 0x51CFF8D9 GT PUSH2 0x63 JUMPI DUP1 PUSH4 0x51CFF8D9 EQ PUSH2 0x1B9 JUMPI DUP1 PUSH4 0x73488018 EQ PUSH2 0x1F5 JUMPI DUP1 PUSH4 0x9F08C755 EQ PUSH2 0x21F JUMPI DUP1 PUSH4 0xB8C89338 EQ PUSH2 0x24F JUMPI DUP1 PUSH4 0xC1CBBCA7 EQ PUSH2 0x28B JUMPI DUP1 PUSH4 0xE77EF21F EQ PUSH2 0x2BB JUMPI PUSH2 0xA6 JUMP JUMPDEST DUP1 PUSH4 0xD8E6E2C EQ PUSH2 0xAA JUMPI DUP1 PUSH4 0x12065FE0 EQ PUSH2 0xD4 JUMPI DUP1 PUSH4 0x17D7DE7C EQ PUSH2 0xFE JUMPI DUP1 PUSH4 0x43D726D6 EQ PUSH2 0x128 JUMPI DUP1 PUSH4 0x4D0392A8 EQ PUSH2 0x152 JUMPI DUP1 PUSH4 0x4E69D560 EQ PUSH2 0x18F JUMPI JUMPDEST PUSH0 PUSH0 REVERT JUMPDEST CALLVALUE DUP1 ISZERO PUSH2 0xB5 JUMPI PUSH0 PUSH0 REVERT JUMPDEST POP PUSH2 0xBE PUSH2 0x2E5 JUMP JUMPDEST PUSH1 0x40 MLOAD PUSH2 0xCB SWAP2 SWAP1 PUSH2 0x24C2 JUMP JUMPDEST PUSH1 0x40 MLOAD DUP1 SWAP2 SUB SWAP1 RETURN JUMPDEST CALLVALUE DUP1 ISZERO PUSH2 0xDF JUMPI PUSH0 PUSH0 REVERT JUMPDEST POP PUSH2 0xE8 PUSH2 0x2ED JUMP JUMPDEST PUSH1 0x40 MLOAD PUSH2 0xF5 SWAP2 SWAP1 PUSH2 0x24C2 JUMP JUMPDEST PUSH1 0x40 MLOAD DUP1 SWAP2 SUB SWAP1 RETURN JUMPDEST CALLVALUE DUP1 ISZERO PUSH2 0x109 JUMPI PUSH0 PUSH0 REVERT JUMPDEST POP PUSH2 0x112 PUSH2 0x2F6 JUMP JUMPDEST PUSH1 0x40 MLOAD PUSH2 0x11F SWAP2 SWAP1 PUSH2 0x254B JUMP JUMPDEST PUSH1 0x40 MLOAD DUP1 SWAP2 SUB SWAP1 RETURN JUMPDEST CALLVALUE DUP1 ISZERO PUSH2 0x133 JUMPI PUSH0 PUSH0 REVERT JUMPDEST POP PUSH2 0x13C PUSH2 0x333 JUMP JUMPDEST PUSH1 0x40 MLOAD PUSH2 0x149 SWAP2 SWAP1 PUSH2 0x24C2 JUMP JUMPDEST PUSH1 0x40 MLOAD DUP1 SWAP2 SUB SWAP1 RETURN JUMPDEST CALLVALUE DUP1 ISZERO PUSH2 0x15D JUMPI PUSH0 PUSH0 REVERT JUMPDEST POP PUSH2 0x178 PUSH1 0x4 DUP1 CALLDATASIZE SUB DUP2 ADD SWAP1 PUSH2 0x173 SWAP2 SWAP1 PUSH2 0x25A2 JUMP JUMPDEST PUSH2 0x882 JUMP JUMPDEST PUSH1 0x40 MLOAD PUSH2 0x186 SWAP3 SWAP2 SWAP1 PUSH2 0x25CD JUMP JUMPDEST PUSH1 0x40 MLOAD DUP1 SWAP2 SUB SWAP1 RETURN JUMPDEST CALLVALUE DUP1 ISZERO PUSH2 0x19A JUMPI PUSH0 PUSH0 REVERT JUMPDEST POP PUSH2 0x1A3 PUSH2 0xC77 JUMP JUMPDEST PUSH1 0x40 MLOAD PUSH2 0x1B0 SWAP2 SWAP1 PUSH2 0x2667 JUMP JUMPDEST PUSH1 0x40 MLOAD DUP1 SWAP2 SUB SWAP1 RETURN JUMPDEST CALLVALUE DUP1 ISZERO PUSH2 0x1C4 JUMPI PUSH0 PUSH0 REVERT JUMPDEST POP PUSH2 0x1DF PUSH1 0x4 DUP1 CALLDATASIZE SUB DUP2 ADD SWAP1 PUSH2 0x1DA SWAP2 SWAP1 PUSH2 0x26DA JUMP JUMPDEST PUSH2 0xC8C JUMP JUMPDEST PUSH1 0x40 MLOAD PUSH2 0x1EC SWAP2 SWAP1 PUSH2 0x24C2 JUMP JUMPDEST PUSH1 0x40 MLOAD DUP1 SWAP2 SUB SWAP1 RETURN JUMPDEST CALLVALUE DUP1 ISZERO PUSH2 0x200 JUMPI PUSH0 PUSH0 REVERT JUMPDEST POP PUSH2 0x209 PUSH2 0x10FA JUMP JUMPDEST PUSH1 0x40 MLOAD PUSH2 0x216 SWAP2 SWAP1 PUSH2 0x2A1A JUMP JUMPDEST PUSH1 0x40 MLOAD DUP1 SWAP2 SUB SWAP1 RETURN JUMPDEST PUSH2 0x239 PUSH1 0x4 DUP1 CALLDATASIZE SUB DUP2 ADD SWAP1 PUSH2 0x234 SWAP2 SWAP1 PUSH2 0x2A34 JUMP JUMPDEST PUSH2 0x110F JUMP JUMPDEST PUSH1 0x40 MLOAD PUSH2 0x246 SWAP2 SWAP1 PUSH2 0x24C2 JUMP JUMPDEST PUSH1 0x40 MLOAD DUP1 SWAP2 SUB SWAP1 RETURN JUMPDEST CALLVALUE DUP1 ISZERO PUSH2 0x25A JUMPI PUSH0 PUSH0 REVERT JUMPDEST POP PUSH2 0x275 PUSH1 0x4 DUP1 CALLDATASIZE SUB DUP2 ADD SWAP1 PUSH2 0x270 SWAP2 SWAP1 PUSH2 0x25A2 JUMP JUMPDEST PUSH2 0x152C JUMP JUMPDEST PUSH1 0x40 MLOAD PUSH2 0x282 SWAP2 SWAP1 PUSH2 0x2B2C JUMP JUMPDEST PUSH1 0x40 MLOAD DUP1 SWAP2 SUB SWAP1 RETURN JUMPDEST PUSH2 0x2A5 PUSH1 0x4 DUP1 CALLDATASIZE SUB DUP2 ADD SWAP1 PUSH2 0x2A0 SWAP2 SWAP1 PUSH2 0x25A2 JUMP JUMPDEST PUSH2 0x1593 JUMP JUMPDEST PUSH1 0x40 MLOAD PUSH2 0x2B2 SWAP2 SWAP1 PUSH2 0x24C2 JUMP JUMPDEST PUSH1 0x40 MLOAD DUP1 SWAP2 SUB SWAP1 RETURN JUMPDEST CALLVALUE DUP1 ISZERO PUSH2 0x2C6 JUMPI PUSH0 PUSH0 REVERT JUMPDEST POP PUSH2 0x2CF PUSH2 0x1A09 JUMP JUMPDEST PUSH1 0x40 MLOAD PUSH2 0x2DC SWAP2 SWAP1 PUSH2 0x24C2 JUMP JUMPDEST PUSH1 0x40 MLOAD DUP1 SWAP2 SUB SWAP1 RETURN JUMPDEST PUSH0 PUSH1 0x1 SWAP1 POP SWAP1 JUMP JUMPDEST PUSH0 PUSH1 0x2 SLOAD SWAP1 POP SWAP1 JUMP JUMPDEST PUSH1 0x60 PUSH1 0x40 MLOAD DUP1 PUSH1 0x40 ADD PUSH1 0x40 MSTORE DUP1 PUSH1 0x16 DUP2 MSTORE PUSH1 0x20 ADD PUSH32 0x4D4544414C494F4E5F50454E53494F4E5F5641554C5400000000000000000000 DUP2 MSTORE POP SWAP1 POP SWAP1 JUMP JUMPDEST PUSH0 PUSH0 PUSH1 0x3 SWAP1 SLOAD SWAP1 PUSH2 0x100 EXP SWAP1 DIV PUSH20 0xFFFFFFFFFFFFFFFFFFFFFFFFFFFFFFFFFFFFFFFF AND PUSH20 0xFFFFFFFFFFFFFFFFFFFFFFFFFFFFFFFFFFFFFFFF AND PUSH4 0xBF40FAC1 PUSH1 0x40 MLOAD DUP1 PUSH1 0x40 ADD PUSH1 0x40 MSTORE DUP1 PUSH1 0x11 DUP2 MSTORE PUSH1 0x20 ADD PUSH32 0x52455345525645445F4D505F41444D494E000000000000000000000000000000 DUP2 MSTORE POP PUSH1 0x40 MLOAD DUP3 PUSH4 0xFFFFFFFF AND PUSH1 0xE0 SHL DUP2 MSTORE PUSH1 0x4 ADD PUSH2 0x3C3 SWAP2 SWAP1 PUSH2 0x254B JUMP JUMPDEST PUSH1 0x20 PUSH1 0x40 MLOAD DUP1 DUP4 SUB DUP2 DUP7 GAS STATICCALL ISZERO DUP1 ISZERO PUSH2 0x3DE JUMPI RETURNDATASIZE PUSH0 PUSH0 RETURNDATACOPY RETURNDATASIZE PUSH0 REVERT JUMPDEST POP POP POP POP PUSH1 0x40 MLOAD RETURNDATASIZE PUSH1 0x1F NOT PUSH1 0x1F DUP3 ADD AND DUP3 ADD DUP1 PUSH1 0x40 MSTORE POP DUP2 ADD SWAP1 PUSH2 0x402 SWAP2 SWAP1 PUSH2 0x2B60 JUMP JUMPDEST PUSH20 0xFFFFFFFFFFFFFFFFFFFFFFFFFFFFFFFFFFFFFFFF AND CALLER PUSH20 0xFFFFFFFFFFFFFFFFFFFFFFFFFFFFFFFFFFFFFFFF AND EQ PUSH2 0x46F JUMPI PUSH1 0x40 MLOAD PUSH32 0x8C379A000000000000000000000000000000000000000000000000000000000 DUP2 MSTORE PUSH1 0x4 ADD PUSH2 0x466 SWAP1 PUSH2 0x2BD5 JUMP JUMPDEST PUSH1 0x40 MLOAD DUP1 SWAP2 SUB SWAP1 REVERT JUMPDEST PUSH0 PUSH0 SWAP1 SLOAD SWAP1 PUSH2 0x100 EXP SWAP1 DIV PUSH1 0xFF AND ISZERO PUSH2 0x4BD JUMPI PUSH1 0x40 MLOAD PUSH32 0x8C379A000000000000000000000000000000000000000000000000000000000 DUP2 MSTORE PUSH1 0x4 ADD PUSH2 0x4B4 SWAP1 PUSH2 0x2C3D JUMP JUMPDEST PUSH1 0x40 MLOAD DUP1 SWAP2 SUB SWAP1 REVERT JUMPDEST PUSH1 0x2 PUSH1 0x3 DUP2 GT ISZERO PUSH2 0x4D1 JUMPI PUSH2 0x4D0 PUSH2 0x25F4 JUMP JUMPDEST JUMPDEST PUSH0 PUSH1 0x1 SWAP1 SLOAD SWAP1 PUSH2 0x100 EXP SWAP1 DIV PUSH1 0xFF AND PUSH1 0x3 DUP2 GT ISZERO PUSH2 0x4F2 JUMPI PUSH2 0x4F1 PUSH2 0x25F4 JUMP JUMPDEST JUMPDEST SUB PUSH2 0x532 JUMPI PUSH1 0x40 MLOAD PUSH32 0x8C379A000000000000000000000000000000000000000000000000000000000 DUP2 MSTORE PUSH1 0x4 ADD PUSH2 0x529 SWAP1 PUSH2 0x2CA5 JUMP JUMPDEST PUSH1 0x40 MLOAD DUP1 SWAP2 SUB SWAP1 REVERT JUMPDEST PUSH0 PUSH2 0x53B PUSH2 0x1E48 JUMP JUMPDEST SWAP1 POP PUSH1 0x2 PUSH1 0x3 DUP2 GT ISZERO PUSH2 0x551 JUMPI PUSH2 0x550 PUSH2 0x25F4 JUMP JUMPDEST JUMPDEST PUSH0 PUSH1 0x1 SWAP1 SLOAD SWAP1 PUSH2 0x100 EXP SWAP1 DIV PUSH1 0xFF AND PUSH1 0x3 DUP2 GT ISZERO PUSH2 0x572 JUMPI PUSH2 0x571 PUSH2 0x25F4 JUMP JUMPDEST JUMPDEST SUB PUSH2 0x5B2 JUMPI PUSH1 0x40 MLOAD PUSH32 0x8C379A000000000000000000000000000000000000000000000000000000000 DUP2 MSTORE PUSH1 0x4 ADD PUSH2 0x5A9 SWAP1 PUSH2 0x2D0D JUMP JUMPDEST PUSH1 0x40 MLOAD DUP1 SWAP2 SUB SWAP1 REVERT JUMPDEST PUSH1 0x7 PUSH0 SWAP1 SLOAD SWAP1 PUSH2 0x100 EXP SWAP1 DIV PUSH1 0xFF AND ISZERO PUSH2 0x601 JUMPI PUSH1 0x40 MLOAD PUSH32 0x8C379A000000000000000000000000000000000000000000000000000000000 DUP2 MSTORE PUSH1 0x4 ADD PUSH2 0x5F8 SWAP1 PUSH2 0x2D75 JUMP JUMPDEST PUSH1 0x40 MLOAD DUP1 SWAP2 SUB SWAP1 REVERT JUMPDEST PUSH1 0x1 PUSH0 PUSH0 PUSH2 0x100 EXP DUP2 SLOAD DUP2 PUSH1 0xFF MUL NOT AND SWAP1 DUP4 ISZERO ISZERO MUL OR SWAP1 SSTORE POP PUSH1 0x2 PUSH0 PUSH1 0x1 PUSH2 0x100 EXP DUP2 SLOAD DUP2 PUSH1 0xFF MUL NOT AND SWAP1 DUP4 PUSH1 0x3 DUP2 GT ISZERO PUSH2 0x63F JUMPI PUSH2 0x63E PUSH2 0x25F4 JUMP JUMPDEST JUMPDEST MUL OR SWAP1 SSTORE POP PUSH0 PUSH0 SWAP1 POP PUSH20 0xEEEEEEEEEEEEEEEEEEEEEEEEEEEEEEEEEEEEEEEE PUSH20 0xFFFFFFFFFFFFFFFFFFFFFFFFFFFFFFFFFFFFFFFF AND DUP3 PUSH1 0xE0 ADD MLOAD PUSH1 0x40 ADD MLOAD PUSH20 0xFFFFFFFFFFFFFFFFFFFFFFFFFFFFFFFFFFFFFFFF AND SUB PUSH2 0x71E JUMPI PUSH32 0x0 PUSH20 0xFFFFFFFFFFFFFFFFFFFFFFFFFFFFFFFFFFFFFFFF AND BALANCE SWAP1 POP DUP2 PUSH1 0x40 ADD MLOAD PUSH20 0xFFFFFFFFFFFFFFFFFFFFFFFFFFFFFFFFFFFFFFFF AND PUSH2 0x8FC DUP3 SWAP1 DUP2 ISZERO MUL SWAP1 PUSH1 0x40 MLOAD PUSH0 PUSH1 0x40 MLOAD DUP1 DUP4 SUB DUP2 DUP6 DUP9 DUP9 CALL SWAP4 POP POP POP POP ISZERO DUP1 ISZERO PUSH2 0x718 JUMPI RETURNDATASIZE PUSH0 PUSH0 RETURNDATACOPY RETURNDATASIZE PUSH0 REVERT JUMPDEST POP PUSH2 0x846 JUMP JUMPDEST PUSH0 DUP3 PUSH1 0xE0 ADD MLOAD PUSH1 0x40 ADD MLOAD SWAP1 POP DUP1 PUSH20 0xFFFFFFFFFFFFFFFFFFFFFFFFFFFFFFFFFFFFFFFF AND PUSH4 0x70A08231 PUSH32 0x0 PUSH1 0x40 MLOAD DUP3 PUSH4 0xFFFFFFFF AND PUSH1 0xE0 SHL DUP2 MSTORE PUSH1 0x4 ADD PUSH2 0x783 SWAP2 SWAP1 PUSH2 0x2DA2 JUMP JUMPDEST PUSH1 0x20 PUSH1 0x40 MLOAD DUP1 DUP4 SUB DUP2 DUP7 GAS STATICCALL ISZERO DUP1 ISZERO PUSH2 0x79E JUMPI RETURNDATASIZE PUSH0 PUSH0 RETURNDATACOPY RETURNDATASIZE PUSH0 REVERT JUMPDEST POP POP POP POP PUSH1 0x40 MLOAD RETURNDATASIZE PUSH1 0x1F NOT PUSH1 0x1F DUP3 ADD AND DUP3 ADD DUP1 PUSH1 0x40 MSTORE POP DUP2 ADD SWAP1 PUSH2 0x7C2 SWAP2 SWAP1 PUSH2 0x2DCF JUMP JUMPDEST SWAP2 POP DUP1 PUSH20 0xFFFFFFFFFFFFFFFFFFFFFFFFFFFFFFFFFFFFFFFF AND PUSH4 0xA9059CBB DUP5 PUSH1 0x40 ADD MLOAD DUP5 PUSH1 0x40 MLOAD DUP4 PUSH4 0xFFFFFFFF AND PUSH1 0xE0 SHL DUP2 MSTORE PUSH1 0x4 ADD PUSH2 0x803 SWAP3 SWAP2 SWAP1 PUSH2 0x2DFA JUMP JUMPDEST PUSH1 0x20 PUSH1 0x40 MLOAD DUP1 DUP4 SUB DUP2 PUSH0 DUP8 GAS CALL ISZERO DUP1 ISZERO PUSH2 0x81F JUMPI RETURNDATASIZE PUSH0 PUSH0 RETURNDATACOPY RETURNDATASIZE PUSH0 REVERT JUMPDEST POP POP POP POP PUSH1 0x40 MLOAD RETURNDATASIZE PUSH1 0x1F NOT PUSH1 0x1F DUP3 ADD AND DUP3 ADD DUP1 PUSH1 0x40 MSTORE POP DUP2 ADD SWAP1 PUSH2 0x843 SWAP2 SWAP1 PUSH2 0x2E56 JUMP JUMPDEST POP POP JUMPDEST PUSH2 0x87B PUSH1 0x7 PUSH32 0x0 DUP4 DUP6 PUSH1 0xE0 ADD MLOAD PUSH1 0x40 ADD MLOAD PUSH2 0x1FBB JUMP JUMPDEST SWAP3 POP POP POP SWAP1 JUMP JUMPDEST PUSH0 PUSH0 PUSH0 PUSH0 SWAP1 SLOAD SWAP1 PUSH2 0x100 EXP SWAP1 DIV PUSH1 0xFF AND ISZERO PUSH2 0x8D2 JUMPI PUSH1 0x40 MLOAD PUSH32 0x8C379A000000000000000000000000000000000000000000000000000000000 DUP2 MSTORE PUSH1 0x4 ADD PUSH2 0x8C9 SWAP1 PUSH2 0x2C3D JUMP JUMPDEST PUSH1 0x40 MLOAD DUP1 SWAP2 SUB SWAP1 REVERT JUMPDEST PUSH1 0x2 PUSH1 0x3 DUP2 GT ISZERO PUSH2 0x8E6 JUMPI PUSH2 0x8E5 PUSH2 0x25F4 JUMP JUMPDEST JUMPDEST PUSH0 PUSH1 0x1 SWAP1 SLOAD SWAP1 PUSH2 0x100 EXP SWAP1 DIV PUSH1 0xFF AND PUSH1 0x3 DUP2 GT ISZERO PUSH2 0x907 JUMPI PUSH2 0x906 PUSH2 0x25F4 JUMP JUMPDEST JUMPDEST SUB PUSH2 0x947 JUMPI PUSH1 0x40 MLOAD PUSH32 0x8C379A000000000000000000000000000000000000000000000000000000000 DUP2 MSTORE PUSH1 0x4 ADD PUSH2 0x93E SWAP1 PUSH2 0x2CA5 JUMP JUMPDEST PUSH1 0x40 MLOAD DUP1 SWAP2 SUB SWAP1 REVERT JUMPDEST PUSH0 PUSH2 0x950 PUSH2 0x1E48 JUMP JUMPDEST SWAP1 POP DUP1 PUSH1 0x60 ADD MLOAD PUSH20 0xFFFFFFFFFFFFFFFFFFFFFFFFFFFFFFFFFFFFFFFF AND CALLER PUSH20 0xFFFFFFFFFFFFFFFFFFFFFFFFFFFFFFFFFFFFFFFF AND EQ PUSH2 0x9C4 JUMPI PUSH1 0x40 MLOAD PUSH32 0x8C379A000000000000000000000000000000000000000000000000000000000 DUP2 MSTORE PUSH1 0x4 ADD PUSH2 0x9BB SWAP1 PUSH2 0x2ECB JUMP JUMPDEST PUSH1 0x40 MLOAD DUP1 SWAP2 SUB SWAP1 REVERT JUMPDEST PUSH0 PUSH1 0x3 DUP2 GT ISZERO PUSH2 0x9D7 JUMPI PUSH2 0x9D6 PUSH2 0x25F4 JUMP JUMPDEST JUMPDEST PUSH0 PUSH1 0x1 SWAP1 SLOAD SWAP1 PUSH2 0x100 EXP SWAP1 DIV PUSH1 0xFF AND PUSH1 0x3 DUP2 GT ISZERO PUSH2 0x9F8 JUMPI PUSH2 0x9F7 PUSH2 0x25F4 JUMP JUMPDEST JUMPDEST EQ PUSH2 0xA38 JUMPI PUSH1 0x40 MLOAD PUSH32 0x8C379A000000000000000000000000000000000000000000000000000000000 DUP2 MSTORE PUSH1 0x4 ADD PUSH2 0xA2F SWAP1 PUSH2 0x2F33 JUMP JUMPDEST PUSH1 0x40 MLOAD DUP1 SWAP2 SUB SWAP1 REVERT JUMPDEST PUSH1 0x1 PUSH0 PUSH0 PUSH2 0x100 EXP DUP2 SLOAD DUP2 PUSH1 0xFF MUL NOT AND SWAP1 DUP4 ISZERO ISZERO MUL OR SWAP1 SSTORE POP PUSH1 0x7 PUSH0 SWAP1 SLOAD SWAP1 PUSH2 0x100 EXP SWAP1 DIV PUSH1 0xFF AND ISZERO PUSH2 0xAA0 JUMPI PUSH1 0x40 MLOAD PUSH32 0x8C379A000000000000000000000000000000000000000000000000000000000 DUP2 MSTORE PUSH1 0x4 ADD PUSH2 0xA97 SWAP1 PUSH2 0x2F9B JUMP JUMPDEST PUSH1 0x40 MLOAD DUP1 SWAP2 SUB SWAP1 REVERT JUMPDEST PUSH1 0x1 PUSH1 0x7 PUSH0 PUSH2 0x100 EXP DUP2 SLOAD DUP2 PUSH1 0xFF MUL NOT AND SWAP1 DUP4 ISZERO ISZERO MUL OR SWAP1 SSTORE POP PUSH1 0x2 SLOAD SWAP3 POP DUP3 PUSH1 0x6 DUP2 SWAP1 SSTORE POP PUSH0 DUP2 PUSH1 0xE0 ADD MLOAD PUSH1 0x40 ADD MLOAD SWAP1 POP PUSH20 0xEEEEEEEEEEEEEEEEEEEEEEEEEEEEEEEEEEEEEEEE PUSH20 0xFFFFFFFFFFFFFFFFFFFFFFFFFFFFFFFFFFFFFFFF AND DUP2 PUSH20 0xFFFFFFFFFFFFFFFFFFFFFFFFFFFFFFFFFFFFFFFF AND SUB PUSH2 0xB66 JUMPI DUP2 PUSH1 0x60 ADD MLOAD PUSH20 0xFFFFFFFFFFFFFFFFFFFFFFFFFFFFFFFFFFFFFFFF AND PUSH2 0x8FC DUP6 SWAP1 DUP2 ISZERO MUL SWAP1 PUSH1 0x40 MLOAD PUSH0 PUSH1 0x40 MLOAD DUP1 DUP4 SUB DUP2 DUP6 DUP9 DUP9 CALL SWAP4 POP POP POP POP ISZERO DUP1 ISZERO PUSH2 0xB60 JUMPI RETURNDATASIZE PUSH0 PUSH0 RETURNDATACOPY RETURNDATASIZE PUSH0 REVERT JUMPDEST POP PUSH2 0xBEC JUMP JUMPDEST PUSH0 DUP2 SWAP1 POP DUP1 PUSH20 0xFFFFFFFFFFFFFFFFFFFFFFFFFFFFFFFFFFFFFFFF AND PUSH4 0x95EA7B3 DUP5 PUSH1 0x60 ADD MLOAD DUP8 PUSH1 0x40 MLOAD DUP4 PUSH4 0xFFFFFFFF AND PUSH1 0xE0 SHL DUP2 MSTORE PUSH1 0x4 ADD PUSH2 0xBA9 SWAP3 SWAP2 SWAP1 PUSH2 0x2DFA JUMP JUMPDEST PUSH1 0x20 PUSH1 0x40 MLOAD DUP1 DUP4 SUB DUP2 PUSH0 DUP8 GAS CALL ISZERO DUP1 ISZERO PUSH2 0xBC5 JUMPI RETURNDATASIZE PUSH0 PUSH0 RETURNDATACOPY RETURNDATASIZE PUSH0 REVERT JUMPDEST POP POP POP POP PUSH1 0x40 MLOAD RETURNDATASIZE PUSH1 0x1F NOT PUSH1 0x1F DUP3 ADD AND DUP3 ADD DUP1 PUSH1 0x40 MSTORE POP DUP2 ADD SWAP1 PUSH2 0xBE9 SWAP2 SWAP1 PUSH2 0x2E56 JUMP JUMPDEST POP POP JUMPDEST PUSH2 0xC21 PUSH1 0x3 PUSH32 0x0 DUP7 DUP6 PUSH1 0xE0 ADD MLOAD PUSH1 0x40 ADD MLOAD PUSH2 0x1FBB JUMP JUMPDEST SWAP3 POP PUSH1 0x8 PUSH0 DUP7 DUP2 MSTORE PUSH1 0x20 ADD SWAP1 DUP2 MSTORE PUSH1 0x20 ADD PUSH0 KECCAK256 DUP4 SWAP1 DUP1 PUSH1 0x1 DUP2 SLOAD ADD DUP1 DUP3 SSTORE DUP1 SWAP2 POP POP PUSH1 0x1 SWAP1 SUB SWAP1 PUSH0 MSTORE PUSH1 0x20 PUSH0 KECCAK256 ADD PUSH0 SWAP1 SWAP2 SWAP1 SWAP2 SWAP1 SWAP2 POP SSTORE PUSH0 PUSH0 PUSH0 PUSH2 0x100 EXP DUP2 SLOAD DUP2 PUSH1 0xFF MUL NOT AND SWAP1 DUP4 ISZERO ISZERO MUL OR SWAP1 SSTORE POP POP POP SWAP2 POP SWAP2 JUMP JUMPDEST PUSH0 PUSH0 PUSH1 0x1 SWAP1 SLOAD SWAP1 PUSH2 0x100 EXP SWAP1 DIV PUSH1 0xFF AND SWAP1 POP SWAP1 JUMP JUMPDEST PUSH0 PUSH0 PUSH1 0x3 SWAP1 SLOAD SWAP1 PUSH2 0x100 EXP SWAP1 DIV PUSH20 0xFFFFFFFFFFFFFFFFFFFFFFFFFFFFFFFFFFFFFFFF AND PUSH20 0xFFFFFFFFFFFFFFFFFFFFFFFFFFFFFFFFFFFFFFFF AND PUSH4 0xBF40FAC1 PUSH1 0x40 MLOAD DUP1 PUSH1 0x40 ADD PUSH1 0x40 MSTORE DUP1 PUSH1 0x11 DUP2 MSTORE PUSH1 0x20 ADD PUSH32 0x52455345525645445F4D505F41444D494E000000000000000000000000000000 DUP2 MSTORE POP PUSH1 0x40 MLOAD DUP3 PUSH4 0xFFFFFFFF AND PUSH1 0xE0 SHL DUP2 MSTORE PUSH1 0x4 ADD PUSH2 0xD1C SWAP2 SWAP1 PUSH2 0x254B JUMP JUMPDEST PUSH1 0x20 PUSH1 0x40 MLOAD DUP1 DUP4 SUB DUP2 DUP7 GAS STATICCALL ISZERO DUP1 ISZERO PUSH2 0xD37 JUMPI RETURNDATASIZE PUSH0 PUSH0 RETURNDATACOPY RETURNDATASIZE PUSH0 REVERT JUMPDEST POP POP POP POP PUSH1 0x40 MLOAD RETURNDATASIZE PUSH1 0x1F NOT PUSH1 0x1F DUP3 ADD AND DUP3 ADD DUP1 PUSH1 0x40 MSTORE POP DUP2 ADD SWAP1 PUSH2 0xD5B SWAP2 SWAP1 PUSH2 0x2B60 JUMP JUMPDEST PUSH20 0xFFFFFFFFFFFFFFFFFFFFFFFFFFFFFFFFFFFFFFFF AND CALLER PUSH20 0xFFFFFFFFFFFFFFFFFFFFFFFFFFFFFFFFFFFFFFFF AND EQ PUSH2 0xDC8 JUMPI PUSH1 0x40 MLOAD PUSH32 0x8C379A000000000000000000000000000000000000000000000000000000000 DUP2 MSTORE PUSH1 0x4 ADD PUSH2 0xDBF SWAP1 PUSH2 0x2BD5 JUMP JUMPDEST PUSH1 0x40 MLOAD DUP1 SWAP2 SUB SWAP1 REVERT JUMPDEST PUSH1 0x2 PUSH1 0x3 DUP2 GT ISZERO PUSH2 0xDDC JUMPI PUSH2 0xDDB PUSH2 0x25F4 JUMP JUMPDEST JUMPDEST PUSH0 PUSH1 0x1 SWAP1 SLOAD SWAP1 PUSH2 0x100 EXP SWAP1 DIV PUSH1 0xFF AND PUSH1 0x3 DUP2 GT ISZERO PUSH2 0xDFD JUMPI PUSH2 0xDFC PUSH2 0x25F4 JUMP JUMPDEST JUMPDEST EQ PUSH2 0xE3D JUMPI PUSH1 0x40 MLOAD PUSH32 0x8C379A000000000000000000000000000000000000000000000000000000000 DUP2 MSTORE PUSH1 0x4 ADD PUSH2 0xE34 SWAP1 PUSH2 0x3003 JUMP JUMPDEST PUSH1 0x40 MLOAD DUP1 SWAP2 SUB SWAP1 REVERT JUMPDEST PUSH0 PUSH0 PUSH1 0x3 SWAP1 SLOAD SWAP1 PUSH2 0x100 EXP SWAP1 DIV PUSH20 0xFFFFFFFFFFFFFFFFFFFFFFFFFFFFFFFFFFFFFFFF AND PUSH20 0xFFFFFFFFFFFFFFFFFFFFFFFFFFFFFFFFFFFFFFFF AND PUSH4 0xBF40FAC1 PUSH1 0x40 MLOAD DUP1 PUSH1 0x40 ADD PUSH1 0x40 MSTORE DUP1 PUSH1 0x15 DUP2 MSTORE PUSH1 0x20 ADD PUSH32 0x52455345525645445F42414E4B5F414444524553530000000000000000000000 DUP2 MSTORE POP PUSH1 0x40 MLOAD DUP3 PUSH4 0xFFFFFFFF AND PUSH1 0xE0 SHL DUP2 MSTORE PUSH1 0x4 ADD PUSH2 0xECD SWAP2 SWAP1 PUSH2 0x254B JUMP JUMPDEST PUSH1 0x20 PUSH1 0x40 MLOAD DUP1 DUP4 SUB DUP2 DUP7 GAS STATICCALL ISZERO DUP1 ISZERO PUSH2 0xEE8 JUMPI RETURNDATASIZE PUSH0 PUSH0 RETURNDATACOPY RETURNDATASIZE PUSH0 REVERT JUMPDEST POP POP POP POP PUSH1 0x40 MLOAD RETURNDATASIZE PUSH1 0x1F NOT PUSH1 0x1F DUP3 ADD AND DUP3 ADD DUP1 PUSH1 0x40 MSTORE POP DUP2 ADD SWAP1 PUSH2 0xF0C SWAP2 SWAP1 PUSH2 0x2B60 JUMP JUMPDEST SWAP1 POP PUSH20 0xEEEEEEEEEEEEEEEEEEEEEEEEEEEEEEEEEEEEEEEE PUSH20 0xFFFFFFFFFFFFFFFFFFFFFFFFFFFFFFFFFFFFFFFF AND DUP4 PUSH20 0xFFFFFFFFFFFFFFFFFFFFFFFFFFFFFFFFFFFFFFFF AND SUB PUSH2 0xFD8 JUMPI PUSH32 0x0 PUSH20 0xFFFFFFFFFFFFFFFFFFFFFFFFFFFFFFFFFFFFFFFF AND BALANCE SWAP2 POP DUP1 PUSH20 0xFFFFFFFFFFFFFFFFFFFFFFFFFFFFFFFFFFFFFFFF AND PUSH2 0x8FC DUP4 SWAP1 DUP2 ISZERO MUL SWAP1 PUSH1 0x40 MLOAD PUSH0 PUSH1 0x40 MLOAD DUP1 DUP4 SUB DUP2 DUP6 DUP9 DUP9 CALL SWAP4 POP POP POP POP ISZERO DUP1 ISZERO PUSH2 0xFD2 JUMPI RETURNDATASIZE PUSH0 PUSH0 RETURNDATACOPY RETURNDATASIZE PUSH0 REVERT JUMPDEST POP PUSH2 0x10F4 JUMP JUMPDEST PUSH0 DUP4 SWAP1 POP DUP1 PUSH20 0xFFFFFFFFFFFFFFFFFFFFFFFFFFFFFFFFFFFFFFFF AND PUSH4 0x70A08231 PUSH32 0x0 PUSH1 0x40 MLOAD DUP3 PUSH4 0xFFFFFFFF AND PUSH1 0xE0 SHL DUP2 MSTORE PUSH1 0x4 ADD PUSH2 0x1035 SWAP2 SWAP1 PUSH2 0x2DA2 JUMP JUMPDEST PUSH1 0x20 PUSH1 0x40 MLOAD DUP1 DUP4 SUB DUP2 DUP7 GAS STATICCALL ISZERO DUP1 ISZERO PUSH2 0x1050 JUMPI RETURNDATASIZE PUSH0 PUSH0 RETURNDATACOPY RETURNDATASIZE PUSH0 REVERT JUMPDEST POP POP POP POP PUSH1 0x40 MLOAD RETURNDATASIZE PUSH1 0x1F NOT PUSH1 0x1F DUP3 ADD AND DUP3 ADD DUP1 PUSH1 0x40 MSTORE POP DUP2 ADD SWAP1 PUSH2 0x1074 SWAP2 SWAP1 PUSH2 0x2DCF JUMP JUMPDEST SWAP3 POP DUP1 PUSH20 0xFFFFFFFFFFFFFFFFFFFFFFFFFFFFFFFFFFFFFFFF AND PUSH4 0xA9059CBB DUP4 DUP6 PUSH1 0x40 MLOAD DUP4 PUSH4 0xFFFFFFFF AND PUSH1 0xE0 SHL DUP2 MSTORE PUSH1 0x4 ADD PUSH2 0x10B1 SWAP3 SWAP2 SWAP1 PUSH2 0x2DFA JUMP JUMPDEST PUSH1 0x20 PUSH1 0x40 MLOAD DUP1 DUP4 SUB DUP2 PUSH0 DUP8 GAS CALL ISZERO DUP1 ISZERO PUSH2 0x10CD JUMPI RETURNDATASIZE PUSH0 PUSH0 RETURNDATACOPY RETURNDATASIZE PUSH0 REVERT JUMPDEST POP POP POP POP PUSH1 0x40 MLOAD RETURNDATASIZE PUSH1 0x1F NOT PUSH1 0x1F DUP3 ADD AND DUP3 ADD DUP1 PUSH1 0x40 MSTORE POP DUP2 ADD SWAP1 PUSH2 0x10F1 SWAP2 SWAP1 PUSH2 0x2E56 JUMP JUMPDEST POP POP JUMPDEST POP SWAP2 SWAP1 POP JUMP JUMPDEST PUSH2 0x1102 PUSH2 0x22EA JUMP JUMPDEST PUSH2 0x110A PUSH2 0x1E48 JUMP JUMPDEST SWAP1 POP SWAP1 JUMP JUMPDEST PUSH0 PUSH0 PUSH0 SWAP1 SLOAD SWAP1 PUSH2 0x100 EXP SWAP1 DIV PUSH1 0xFF AND ISZERO PUSH2 0x115E JUMPI PUSH1 0x40 MLOAD PUSH32 0x8C379A000000000000000000000000000000000000000000000000000000000 DUP2 MSTORE PUSH1 0x4 ADD PUSH2 0x1155 SWAP1 PUSH2 0x2C3D JUMP JUMPDEST PUSH1 0x40 MLOAD DUP1 SWAP2 SUB SWAP1 REVERT JUMPDEST PUSH1 0x2 PUSH1 0x3 DUP2 GT ISZERO PUSH2 0x1172 JUMPI PUSH2 0x1171 PUSH2 0x25F4 JUMP JUMPDEST JUMPDEST PUSH0 PUSH1 0x1 SWAP1 SLOAD SWAP1 PUSH2 0x100 EXP SWAP1 DIV PUSH1 0xFF AND PUSH1 0x3 DUP2 GT ISZERO PUSH2 0x1193 JUMPI PUSH2 0x1192 PUSH2 0x25F4 JUMP JUMPDEST JUMPDEST SUB PUSH2 0x11D3 JUMPI PUSH1 0x40 MLOAD PUSH32 0x8C379A000000000000000000000000000000000000000000000000000000000 DUP2 MSTORE PUSH1 0x4 ADD PUSH2 0x11CA SWAP1 PUSH2 0x2CA5 JUMP JUMPDEST PUSH1 0x40 MLOAD DUP1 SWAP2 SUB SWAP1 REVERT JUMPDEST PUSH1 0x1 PUSH0 PUSH0 PUSH2 0x100 EXP DUP2 SLOAD DUP2 PUSH1 0xFF MUL NOT AND SWAP1 DUP4 ISZERO ISZERO MUL OR SWAP1 SSTORE POP PUSH0 PUSH2 0x11F5 PUSH2 0x1E48 JUMP JUMPDEST SWAP1 POP DUP1 PUSH1 0x60 ADD MLOAD PUSH20 0xFFFFFFFFFFFFFFFFFFFFFFFFFFFFFFFFFFFFFFFF AND CALLER PUSH20 0xFFFFFFFFFFFFFFFFFFFFFFFFFFFFFFFFFFFFFFFF AND EQ PUSH2 0x1269 JUMPI PUSH1 0x40 MLOAD PUSH32 0x8C379A000000000000000000000000000000000000000000000000000000000 DUP2 MSTORE PUSH1 0x4 ADD PUSH2 0x1260 SWAP1 PUSH2 0x2ECB JUMP JUMPDEST PUSH1 0x40 MLOAD DUP1 SWAP2 SUB SWAP1 REVERT JUMPDEST PUSH1 0x6 SLOAD DUP5 LT ISZERO PUSH2 0x12AE JUMPI PUSH1 0x40 MLOAD PUSH32 0x8C379A000000000000000000000000000000000000000000000000000000000 DUP2 MSTORE PUSH1 0x4 ADD PUSH2 0x12A5 SWAP1 PUSH2 0x306B JUMP JUMPDEST PUSH1 0x40 MLOAD DUP1 SWAP2 SUB SWAP1 REVERT JUMPDEST PUSH0 DUP4 DUP6 PUSH2 0x12BB SWAP2 SWAP1 PUSH2 0x30B6 JUMP JUMPDEST SWAP1 POP PUSH1 0x7 PUSH0 SWAP1 SLOAD SWAP1 PUSH2 0x100 EXP SWAP1 DIV PUSH1 0xFF AND PUSH2 0x130B JUMPI PUSH1 0x40 MLOAD PUSH32 0x8C379A000000000000000000000000000000000000000000000000000000000 DUP2 MSTORE PUSH1 0x4 ADD PUSH2 0x1302 SWAP1 PUSH2 0x3133 JUMP JUMPDEST PUSH1 0x40 MLOAD DUP1 SWAP2 SUB SWAP1 REVERT JUMPDEST PUSH0 DUP3 PUSH1 0xE0 ADD MLOAD PUSH1 0x40 ADD MLOAD SWAP1 POP PUSH20 0xEEEEEEEEEEEEEEEEEEEEEEEEEEEEEEEEEEEEEEEE PUSH20 0xFFFFFFFFFFFFFFFFFFFFFFFFFFFFFFFFFFFFFFFF AND DUP2 PUSH20 0xFFFFFFFFFFFFFFFFFFFFFFFFFFFFFFFFFFFFFFFF AND SUB PUSH2 0x13A6 JUMPI DUP2 CALLVALUE LT ISZERO PUSH2 0x13A1 JUMPI PUSH1 0x40 MLOAD PUSH32 0x8C379A000000000000000000000000000000000000000000000000000000000 DUP2 MSTORE PUSH1 0x4 ADD PUSH2 0x1398 SWAP1 PUSH2 0x319B JUMP JUMPDEST PUSH1 0x40 MLOAD DUP1 SWAP2 SUB SWAP1 REVERT JUMPDEST PUSH2 0x144A JUMP JUMPDEST PUSH0 DUP2 SWAP1 POP DUP1 PUSH20 0xFFFFFFFFFFFFFFFFFFFFFFFFFFFFFFFFFFFFFFFF AND PUSH4 0x23B872DD CALLER PUSH32 0x0 DUP7 PUSH1 0x40 MLOAD DUP5 PUSH4 0xFFFFFFFF AND PUSH1 0xE0 SHL DUP2 MSTORE PUSH1 0x4 ADD PUSH2 0x1407 SWAP4 SWAP3 SWAP2 SWAP1 PUSH2 0x31B9 JUMP JUMPDEST PUSH1 0x20 PUSH1 0x40 MLOAD DUP1 DUP4 SUB DUP2 PUSH0 DUP8 GAS CALL ISZERO DUP1 ISZERO PUSH2 0x1423 JUMPI RETURNDATASIZE PUSH0 PUSH0 RETURNDATACOPY RETURNDATASIZE PUSH0 REVERT JUMPDEST POP POP POP POP PUSH1 0x40 MLOAD RETURNDATASIZE PUSH1 0x1F NOT PUSH1 0x1F DUP3 ADD AND DUP3 ADD DUP1 PUSH1 0x40 MSTORE POP DUP2 ADD SWAP1 PUSH2 0x1447 SWAP2 SWAP1 PUSH2 0x2E56 JUMP JUMPDEST POP POP JUMPDEST PUSH0 PUSH1 0x6 SLOAD PUSH1 0x2 SLOAD PUSH2 0x145B SWAP2 SWAP1 PUSH2 0x31EE JUMP JUMPDEST SWAP1 POP DUP6 PUSH1 0x6 SLOAD DUP3 PUSH2 0x146C SWAP2 SWAP1 PUSH2 0x30B6 JUMP JUMPDEST PUSH2 0x1476 SWAP2 SWAP1 PUSH2 0x30B6 JUMP JUMPDEST PUSH1 0x2 DUP2 SWAP1 SSTORE POP PUSH2 0x1484 PUSH2 0x2134 JUMP JUMPDEST PUSH2 0x14B9 PUSH1 0x1 PUSH32 0x0 DUP6 DUP8 PUSH1 0xE0 ADD MLOAD PUSH1 0x40 ADD MLOAD PUSH2 0x1FBB JUMP JUMPDEST SWAP5 POP PUSH1 0x8 PUSH0 DUP10 DUP2 MSTORE PUSH1 0x20 ADD SWAP1 DUP2 MSTORE PUSH1 0x20 ADD PUSH0 KECCAK256 DUP6 SWAP1 DUP1 PUSH1 0x1 DUP2 SLOAD ADD DUP1 DUP3 SSTORE DUP1 SWAP2 POP POP PUSH1 0x1 SWAP1 SUB SWAP1 PUSH0 MSTORE PUSH1 0x20 PUSH0 KECCAK256 ADD PUSH0 SWAP1 SWAP2 SWAP1 SWAP2 SWAP1 SWAP2 POP SSTORE PUSH0 PUSH1 0x7 PUSH0 PUSH2 0x100 EXP DUP2 SLOAD DUP2 PUSH1 0xFF MUL NOT AND SWAP1 DUP4 ISZERO ISZERO MUL OR SWAP1 SSTORE POP PUSH0 PUSH0 PUSH0 PUSH2 0x100 EXP DUP2 SLOAD DUP2 PUSH1 0xFF MUL NOT AND SWAP1 DUP4 ISZERO ISZERO MUL OR SWAP1 SSTORE POP POP POP POP POP SWAP4 SWAP3 POP POP POP JUMP JUMPDEST PUSH1 0x60 PUSH1 0x8 PUSH0 DUP4 DUP2 MSTORE PUSH1 0x20 ADD SWAP1 DUP2 MSTORE PUSH1 0x20 ADD PUSH0 KECCAK256 DUP1 SLOAD DUP1 PUSH1 0x20 MUL PUSH1 0x20 ADD PUSH1 0x40 MLOAD SWAP1 DUP2 ADD PUSH1 0x40 MSTORE DUP1 SWAP3 SWAP2 SWAP1 DUP2 DUP2 MSTORE PUSH1 0x20 ADD DUP3 DUP1 SLOAD DUP1 ISZERO PUSH2 0x1587 JUMPI PUSH1 0x20 MUL DUP3 ADD SWAP2 SWAP1 PUSH0 MSTORE PUSH1 0x20 PUSH0 KECCAK256 SWAP1 JUMPDEST DUP2 SLOAD DUP2 MSTORE PUSH1 0x20 ADD SWAP1 PUSH1 0x1 ADD SWAP1 DUP1 DUP4 GT PUSH2 0x1573 JUMPI JUMPDEST POP POP POP POP POP SWAP1 POP SWAP2 SWAP1 POP JUMP JUMPDEST PUSH0 PUSH0 PUSH0 SWAP1 SLOAD SWAP1 PUSH2 0x100 EXP SWAP1 DIV PUSH1 0xFF AND ISZERO PUSH2 0x15E2 JUMPI PUSH1 0x40 MLOAD PUSH32 0x8C379A000000000000000000000000000000000000000000000000000000000 DUP2 MSTORE PUSH1 0x4 ADD PUSH2 0x15D9 SWAP1 PUSH2 0x2C3D JUMP JUMPDEST PUSH1 0x40 MLOAD DUP1 SWAP2 SUB SWAP1 REVERT JUMPDEST PUSH1 0x2 PUSH1 0x3 DUP2 GT ISZERO PUSH2 0x15F6 JUMPI PUSH2 0x15F5 PUSH2 0x25F4 JUMP JUMPDEST JUMPDEST PUSH0 PUSH1 0x1 SWAP1 SLOAD SWAP1 PUSH2 0x100 EXP SWAP1 DIV PUSH1 0xFF AND PUSH1 0x3 DUP2 GT ISZERO PUSH2 0x1617 JUMPI PUSH2 0x1616 PUSH2 0x25F4 JUMP JUMPDEST JUMPDEST SUB PUSH2 0x1657 JUMPI PUSH1 0x40 MLOAD PUSH32 0x8C379A000000000000000000000000000000000000000000000000000000000 DUP2 MSTORE PUSH1 0x4 ADD PUSH2 0x164E SWAP1 PUSH2 0x2CA5 JUMP JUMPDEST PUSH1 0x40 MLOAD DUP1 SWAP2 SUB SWAP1 REVERT JUMPDEST PUSH1 0x1 PUSH0 PUSH0 PUSH2 0x100 EXP DUP2 SLOAD DUP2 PUSH1 0xFF MUL NOT AND SWAP1 DUP4 ISZERO ISZERO MUL OR SWAP1 SSTORE POP TIMESTAMP PUSH1 0x4 SLOAD GT ISZERO PUSH2 0x16B5 JUMPI PUSH1 0x40 MLOAD PUSH32 0x8C379A000000000000000000000000000000000000000000000000000000000 DUP2 MSTORE PUSH1 0x4 ADD PUSH2 0x16AC SWAP1 PUSH2 0x3291 JUMP JUMPDEST PUSH1 0x40 MLOAD DUP1 SWAP2 SUB SWAP1 REVERT JUMPDEST PUSH0 PUSH1 0x1 DUP2 GT ISZERO PUSH2 0x16C8 JUMPI PUSH2 0x16C7 PUSH2 0x25F4 JUMP JUMPDEST JUMPDEST PUSH0 PUSH1 0x2 SWAP1 SLOAD SWAP1 PUSH2 0x100 EXP SWAP1 DIV PUSH1 0xFF AND PUSH1 0x1 DUP2 GT ISZERO PUSH2 0x16E9 JUMPI PUSH2 0x16E8 PUSH2 0x25F4 JUMP JUMPDEST JUMPDEST SUB PUSH2 0x1729 JUMPI PUSH1 0x40 MLOAD PUSH32 0x8C379A000000000000000000000000000000000000000000000000000000000 DUP2 MSTORE PUSH1 0x4 ADD PUSH2 0x1720 SWAP1 PUSH2 0x32F9 JUMP JUMPDEST PUSH1 0x40 MLOAD DUP1 SWAP2 SUB SWAP1 REVERT JUMPDEST PUSH0 PUSH1 0x3 DUP2 GT ISZERO PUSH2 0x173C JUMPI PUSH2 0x173B PUSH2 0x25F4 JUMP JUMPDEST JUMPDEST PUSH0 PUSH1 0x1 SWAP1 SLOAD SWAP1 PUSH2 0x100 EXP SWAP1 DIV PUSH1 0xFF AND PUSH1 0x3 DUP2 GT ISZERO PUSH2 0x175D JUMPI PUSH2 0x175C PUSH2 0x25F4 JUMP JUMPDEST JUMPDEST EQ PUSH2 0x179D JUMPI PUSH1 0x40 MLOAD PUSH32 0x8C379A000000000000000000000000000000000000000000000000000000000 DUP2 MSTORE PUSH1 0x4 ADD PUSH2 0x1794 SWAP1 PUSH2 0x3361 JUMP JUMPDEST PUSH1 0x40 MLOAD DUP1 SWAP2 SUB SWAP1 REVERT JUMPDEST PUSH0 PUSH2 0x17A6 PUSH2 0x1E48 JUMP JUMPDEST SWAP1 POP PUSH2 0x17BD DUP2 PUSH1 0xE0 ADD MLOAD PUSH2 0x100 ADD MLOAD PUSH0 ADD MLOAD PUSH2 0x21AC JUMP JUMPDEST PUSH1 0x4 PUSH0 DUP3 DUP3 SLOAD PUSH2 0x17CD SWAP2 SWAP1 PUSH2 0x30B6 JUMP JUMPDEST SWAP3 POP POP DUP2 SWAP1 SSTORE POP DUP1 PUSH1 0xE0 ADD MLOAD PUSH2 0x100 ADD MLOAD PUSH1 0x40 ADD MLOAD DUP4 LT ISZERO DUP1 ISZERO PUSH2 0x17FE JUMPI POP DUP1 PUSH1 0xE0 ADD MLOAD PUSH2 0x100 ADD MLOAD PUSH1 0x60 ADD MLOAD DUP4 GT ISZERO JUMPDEST PUSH2 0x183D JUMPI PUSH1 0x40 MLOAD PUSH32 0x8C379A000000000000000000000000000000000000000000000000000000000 DUP2 MSTORE PUSH1 0x4 ADD PUSH2 0x1834 SWAP1 PUSH2 0x33EF JUMP JUMPDEST PUSH1 0x40 MLOAD DUP1 SWAP2 SUB SWAP1 REVERT JUMPDEST PUSH0 DUP2 PUSH1 0xE0 ADD MLOAD PUSH1 0x40 ADD MLOAD SWAP1 POP PUSH20 0xEEEEEEEEEEEEEEEEEEEEEEEEEEEEEEEEEEEEEEEE PUSH20 0xFFFFFFFFFFFFFFFFFFFFFFFFFFFFFFFFFFFFFFFF AND DUP2 PUSH20 0xFFFFFFFFFFFFFFFFFFFFFFFFFFFFFFFFFFFFFFFF AND SUB PUSH2 0x18D8 JUMPI DUP4 CALLVALUE LT ISZERO PUSH2 0x18D3 JUMPI PUSH1 0x40 MLOAD PUSH32 0x8C379A000000000000000000000000000000000000000000000000000000000 DUP2 MSTORE PUSH1 0x4 ADD PUSH2 0x18CA SWAP1 PUSH2 0x3457 JUMP JUMPDEST PUSH1 0x40 MLOAD DUP1 SWAP2 SUB SWAP1 REVERT JUMPDEST PUSH2 0x197C JUMP JUMPDEST PUSH0 DUP2 SWAP1 POP DUP1 PUSH20 0xFFFFFFFFFFFFFFFFFFFFFFFFFFFFFFFFFFFFFFFF AND PUSH4 0x23B872DD CALLER PUSH32 0x0 DUP9 PUSH1 0x40 MLOAD DUP5 PUSH4 0xFFFFFFFF AND PUSH1 0xE0 SHL DUP2 MSTORE PUSH1 0x4 ADD PUSH2 0x1939 SWAP4 SWAP3 SWAP2 SWAP1 PUSH2 0x31B9 JUMP JUMPDEST PUSH1 0x20 PUSH1 0x40 MLOAD DUP1 DUP4 SUB DUP2 PUSH0 DUP8 GAS CALL ISZERO DUP1 ISZERO PUSH2 0x1955 JUMPI RETURNDATASIZE PUSH0 PUSH0 RETURNDATACOPY RETURNDATASIZE PUSH0 REVERT JUMPDEST POP POP POP POP PUSH1 0x40 MLOAD RETURNDATASIZE PUSH1 0x1F NOT PUSH1 0x1F DUP3 ADD AND DUP3 ADD DUP1 PUSH1 0x40 MSTORE POP DUP2 ADD SWAP1 PUSH2 0x1979 SWAP2 SWAP1 PUSH2 0x2E56 JUMP JUMPDEST POP POP JUMPDEST DUP4 PUSH1 0x2 PUSH0 DUP3 DUP3 SLOAD PUSH2 0x198D SWAP2 SWAP1 PUSH2 0x30B6 JUMP JUMPDEST SWAP3 POP POP DUP2 SWAP1 SSTORE POP PUSH1 0x1 PUSH0 DUP2 SLOAD DUP1 SWAP3 SWAP2 SWAP1 PUSH2 0x19A6 SWAP1 PUSH2 0x3475 JUMP JUMPDEST SWAP2 SWAP1 POP SSTORE POP PUSH2 0x19B3 PUSH2 0x2134 JUMP JUMPDEST PUSH2 0x19E8 PUSH1 0x1 PUSH32 0x0 DUP7 DUP6 PUSH1 0xE0 ADD MLOAD PUSH1 0x40 ADD MLOAD PUSH2 0x1FBB JUMP JUMPDEST SWAP3 POP PUSH0 PUSH0 PUSH0 PUSH2 0x100 EXP DUP2 SLOAD DUP2 PUSH1 0xFF MUL NOT AND SWAP1 DUP4 ISZERO ISZERO MUL OR SWAP1 SSTORE POP POP POP SWAP2 SWAP1 POP JUMP JUMPDEST PUSH0 PUSH2 0x1A12 PUSH2 0x1E48 JUMP JUMPDEST PUSH1 0x40 ADD MLOAD PUSH20 0xFFFFFFFFFFFFFFFFFFFFFFFFFFFFFFFFFFFFFFFF AND CALLER PUSH20 0xFFFFFFFFFFFFFFFFFFFFFFFFFFFFFFFFFFFFFFFF AND EQ PUSH2 0x1A83 JUMPI PUSH1 0x40 MLOAD PUSH32 0x8C379A000000000000000000000000000000000000000000000000000000000 DUP2 MSTORE PUSH1 0x4 ADD PUSH2 0x1A7A SWAP1 PUSH2 0x3506 JUMP JUMPDEST PUSH1 0x40 MLOAD DUP1 SWAP2 SUB SWAP1 REVERT JUMPDEST PUSH0 PUSH0 SWAP1 SLOAD SWAP1 PUSH2 0x100 EXP SWAP1 DIV PUSH1 0xFF AND ISZERO PUSH2 0x1AD1 JUMPI PUSH1 0x40 MLOAD PUSH32 0x8C379A000000000000000000000000000000000000000000000000000000000 DUP2 MSTORE PUSH1 0x4 ADD PUSH2 0x1AC8 SWAP1 PUSH2 0x2C3D JUMP JUMPDEST PUSH1 0x40 MLOAD DUP1 SWAP2 SUB SWAP1 REVERT JUMPDEST PUSH1 0x2 PUSH1 0x3 DUP2 GT ISZERO PUSH2 0x1AE5 JUMPI PUSH2 0x1AE4 PUSH2 0x25F4 JUMP JUMPDEST JUMPDEST PUSH0 PUSH1 0x1 SWAP1 SLOAD SWAP1 PUSH2 0x100 EXP SWAP1 DIV PUSH1 0xFF AND PUSH1 0x3 DUP2 GT ISZERO PUSH2 0x1B06 JUMPI PUSH2 0x1B05 PUSH2 0x25F4 JUMP JUMPDEST JUMPDEST SUB PUSH2 0x1B46 JUMPI PUSH1 0x40 MLOAD PUSH32 0x8C379A000000000000000000000000000000000000000000000000000000000 DUP2 MSTORE PUSH1 0x4 ADD PUSH2 0x1B3D SWAP1 PUSH2 0x2CA5 JUMP JUMPDEST PUSH1 0x40 MLOAD DUP1 SWAP2 SUB SWAP1 REVERT JUMPDEST PUSH0 PUSH2 0x1B4F PUSH2 0x1E48 JUMP JUMPDEST SWAP1 POP PUSH1 0x1 PUSH0 PUSH0 PUSH2 0x100 EXP DUP2 SLOAD DUP2 PUSH1 0xFF MUL NOT AND SWAP1 DUP4 ISZERO ISZERO MUL OR SWAP1 SSTORE POP PUSH1 0x1 PUSH1 0x3 DUP2 GT ISZERO PUSH2 0x1B7E JUMPI PUSH2 0x1B7D PUSH2 0x25F4 JUMP JUMPDEST JUMPDEST PUSH0 PUSH1 0x1 SWAP1 SLOAD SWAP1 PUSH2 0x100 EXP SWAP1 DIV PUSH1 0xFF AND PUSH1 0x3 DUP2 GT ISZERO PUSH2 0x1B9F JUMPI PUSH2 0x1B9E PUSH2 0x25F4 JUMP JUMPDEST JUMPDEST EQ PUSH2 0x1BDF JUMPI PUSH1 0x40 MLOAD PUSH32 0x8C379A000000000000000000000000000000000000000000000000000000000 DUP2 MSTORE PUSH1 0x4 ADD PUSH2 0x1BD6 SWAP1 PUSH2 0x356E JUMP JUMPDEST PUSH1 0x40 MLOAD DUP1 SWAP2 SUB SWAP1 REVERT JUMPDEST PUSH1 0x1 DUP1 DUP2 GT ISZERO PUSH2 0x1BF2 JUMPI PUSH2 0x1BF1 PUSH2 0x25F4 JUMP JUMPDEST JUMPDEST PUSH0 PUSH1 0x2 SWAP1 SLOAD SWAP1 PUSH2 0x100 EXP SWAP1 DIV PUSH1 0xFF AND PUSH1 0x1 DUP2 GT ISZERO PUSH2 0x1C13 JUMPI PUSH2 0x1C12 PUSH2 0x25F4 JUMP JUMPDEST JUMPDEST SUB PUSH2 0x1C53 JUMPI PUSH1 0x40 MLOAD PUSH32 0x8C379A000000000000000000000000000000000000000000000000000000000 DUP2 MSTORE PUSH1 0x4 ADD PUSH2 0x1C4A SWAP1 PUSH2 0x35D6 JUMP JUMPDEST PUSH1 0x40 MLOAD DUP1 SWAP2 SUB SWAP1 REVERT JUMPDEST PUSH0 DUP2 PUSH1 0xE0 ADD MLOAD PUSH2 0x120 ADD MLOAD PUSH1 0x40 ADD MLOAD SWAP1 POP DUP1 PUSH1 0x2 SLOAD LT ISZERO PUSH2 0x1CA9 JUMPI PUSH1 0x40 MLOAD PUSH32 0x8C379A000000000000000000000000000000000000000000000000000000000 DUP2 MSTORE PUSH1 0x4 ADD PUSH2 0x1CA0 SWAP1 PUSH2 0x363E JUMP JUMPDEST PUSH1 0x40 MLOAD DUP1 SWAP2 SUB SWAP1 REVERT JUMPDEST PUSH0 DUP3 PUSH1 0x40 ADD MLOAD SWAP1 POP DUP2 PUSH1 0x2 PUSH0 DUP3 DUP3 SLOAD PUSH2 0x1CC2 SWAP2 SWAP1 PUSH2 0x31EE JUMP JUMPDEST SWAP3 POP POP DUP2 SWAP1 SSTORE POP PUSH20 0xEEEEEEEEEEEEEEEEEEEEEEEEEEEEEEEEEEEEEEEE PUSH20 0xFFFFFFFFFFFFFFFFFFFFFFFFFFFFFFFFFFFFFFFF AND DUP4 PUSH1 0xE0 ADD MLOAD PUSH1 0x40 ADD MLOAD PUSH20 0xFFFFFFFFFFFFFFFFFFFFFFFFFFFFFFFFFFFFFFFF AND SUB PUSH2 0x1D61 JUMPI DUP1 PUSH20 0xFFFFFFFFFFFFFFFFFFFFFFFFFFFFFFFFFFFFFFFF AND PUSH2 0x8FC DUP4 SWAP1 DUP2 ISZERO MUL SWAP1 PUSH1 0x40 MLOAD PUSH0 PUSH1 0x40 MLOAD DUP1 DUP4 SUB DUP2 DUP6 DUP9 DUP9 CALL SWAP4 POP POP POP POP ISZERO DUP1 ISZERO PUSH2 0x1D5B JUMPI RETURNDATASIZE PUSH0 PUSH0 RETURNDATACOPY RETURNDATASIZE PUSH0 REVERT JUMPDEST POP PUSH2 0x1DEB JUMP JUMPDEST PUSH0 DUP4 PUSH1 0xE0 ADD MLOAD PUSH1 0x40 ADD MLOAD SWAP1 POP DUP1 PUSH20 0xFFFFFFFFFFFFFFFFFFFFFFFFFFFFFFFFFFFFFFFF AND PUSH4 0xA9059CBB DUP4 DUP6 PUSH1 0x40 MLOAD DUP4 PUSH4 0xFFFFFFFF AND PUSH1 0xE0 SHL DUP2 MSTORE PUSH1 0x4 ADD PUSH2 0x1DA8 SWAP3 SWAP2 SWAP1 PUSH2 0x2DFA JUMP JUMPDEST PUSH1 0x20 PUSH1 0x40 MLOAD DUP1 DUP4 SUB DUP2 PUSH0 DUP8 GAS CALL ISZERO DUP1 ISZERO PUSH2 0x1DC4 JUMPI RETURNDATASIZE PUSH0 PUSH0 RETURNDATACOPY RETURNDATASIZE PUSH0 REVERT JUMPDEST POP POP POP POP PUSH1 0x40 MLOAD RETURNDATASIZE PUSH1 0x1F NOT PUSH1 0x1F DUP3 ADD AND DUP3 ADD DUP1 PUSH1 0x40 MSTORE POP DUP2 ADD SWAP1 PUSH2 0x1DE8 SWAP2 SWAP1 PUSH2 0x2E56 JUMP JUMPDEST POP POP JUMPDEST PUSH2 0x1DF3 PUSH2 0x229B JUMP JUMPDEST PUSH2 0x1E28 PUSH1 0x2 PUSH32 0x0 DUP5 DUP7 PUSH1 0xE0 ADD MLOAD PUSH1 0x40 ADD MLOAD PUSH2 0x1FBB JUMP JUMPDEST SWAP4 POP PUSH0 PUSH0 PUSH0 PUSH2 0x100 EXP DUP2 SLOAD DUP2 PUSH1 0xFF MUL NOT AND SWAP1 DUP4 ISZERO ISZERO MUL OR SWAP1 SSTORE POP POP POP POP SWAP1 JUMP JUMPDEST PUSH2 0x1E50 PUSH2 0x22EA JUMP JUMPDEST PUSH0 PUSH1 0x3 SWAP1 SLOAD SWAP1 PUSH2 0x100 EXP SWAP1 DIV PUSH20 0xFFFFFFFFFFFFFFFFFFFFFFFFFFFFFFFFFFFFFFFF AND PUSH20 0xFFFFFFFFFFFFFFFFFFFFFFFFFFFFFFFFFFFFFFFF AND PUSH4 0xBF40FAC1 PUSH1 0x40 MLOAD DUP1 PUSH1 0x40 ADD PUSH1 0x40 MSTORE DUP1 PUSH1 0x1A DUP2 MSTORE PUSH1 0x20 ADD PUSH32 0x52455345525645445F4D4544414C494F4E5F50454E53494F4E53000000000000 DUP2 MSTORE POP PUSH1 0x40 MLOAD DUP3 PUSH4 0xFFFFFFFF AND PUSH1 0xE0 SHL DUP2 MSTORE PUSH1 0x4 ADD PUSH2 0x1EDF SWAP2 SWAP1 PUSH2 0x254B JUMP JUMPDEST PUSH1 0x20 PUSH1 0x40 MLOAD DUP1 DUP4 SUB DUP2 DUP7 GAS STATICCALL ISZERO DUP1 ISZERO PUSH2 0x1EFA JUMPI RETURNDATASIZE PUSH0 PUSH0 RETURNDATACOPY RETURNDATASIZE PUSH0 REVERT JUMPDEST POP POP POP POP PUSH1 0x40 MLOAD RETURNDATASIZE PUSH1 0x1F NOT PUSH1 0x1F DUP3 ADD AND DUP3 ADD DUP1 PUSH1 0x40 MSTORE POP DUP2 ADD SWAP1 PUSH2 0x1F1E SWAP2 SWAP1 PUSH2 0x2B60 JUMP JUMPDEST PUSH20 0xFFFFFFFFFFFFFFFFFFFFFFFFFFFFFFFFFFFFFFFF AND PUSH4 0x77BDFDF2 PUSH32 0x0 PUSH1 0x40 MLOAD DUP3 PUSH4 0xFFFFFFFF AND PUSH1 0xE0 SHL DUP2 MSTORE PUSH1 0x4 ADD PUSH2 0x1F76 SWAP2 SWAP1 PUSH2 0x24C2 JUMP JUMPDEST PUSH2 0x3A0 PUSH1 0x40 MLOAD DUP1 DUP4 SUB DUP2 DUP7 GAS STATICCALL ISZERO DUP1 ISZERO PUSH2 0x1F92 JUMPI RETURNDATASIZE PUSH0 PUSH0 RETURNDATACOPY RETURNDATASIZE PUSH0 REVERT JUMPDEST POP POP POP POP PUSH1 0x40 MLOAD RETURNDATASIZE PUSH1 0x1F NOT PUSH1 0x1F DUP3 ADD AND DUP3 ADD DUP1 PUSH1 0x40 MSTORE POP DUP2 ADD SWAP1 PUSH2 0x1FB6 SWAP2 SWAP1 PUSH2 0x39FB JUMP JUMPDEST SWAP1 POP SWAP1 JUMP JUMPDEST PUSH0 PUSH0 PUSH1 0x3 SWAP1 SLOAD SWAP1 PUSH2 0x100 EXP SWAP1 DIV PUSH20 0xFFFFFFFFFFFFFFFFFFFFFFFFFFFFFFFFFFFFFFFF AND PUSH20 0xFFFFFFFFFFFFFFFFFFFFFFFFFFFFFFFFFFFFFFFF AND PUSH4 0xBF40FAC1 PUSH1 0x40 MLOAD DUP1 PUSH1 0x40 ADD PUSH1 0x40 MSTORE DUP1 PUSH1 0x13 DUP2 MSTORE PUSH1 0x20 ADD PUSH32 0x52455345525645445F54585F4D414E4147455200000000000000000000000000 DUP2 MSTORE POP PUSH1 0x40 MLOAD DUP3 PUSH4 0xFFFFFFFF AND PUSH1 0xE0 SHL DUP2 MSTORE PUSH1 0x4 ADD PUSH2 0x204B SWAP2 SWAP1 PUSH2 0x254B JUMP JUMPDEST PUSH1 0x20 PUSH1 0x40 MLOAD DUP1 DUP4 SUB DUP2 DUP7 GAS STATICCALL ISZERO DUP1 ISZERO PUSH2 0x2066 JUMPI RETURNDATASIZE PUSH0 PUSH0 RETURNDATACOPY RETURNDATASIZE PUSH0 REVERT JUMPDEST POP POP POP POP PUSH1 0x40 MLOAD RETURNDATASIZE PUSH1 0x1F NOT PUSH1 0x1F DUP3 ADD AND DUP3 ADD DUP1 PUSH1 0x40 MSTORE POP DUP2 ADD SWAP1 PUSH2 0x208A SWAP2 SWAP1 PUSH2 0x2B60 JUMP JUMPDEST PUSH20 0xFFFFFFFFFFFFFFFFFFFFFFFFFFFFFFFFFFFFFFFF AND PUSH4 0xCE351608 DUP7 DUP7 PUSH32 0x0 DUP8 DUP8 PUSH1 0x40 MLOAD DUP7 PUSH4 0xFFFFFFFF AND PUSH1 0xE0 SHL DUP2 MSTORE PUSH1 0x4 ADD PUSH2 0x20EA SWAP6 SWAP5 SWAP4 SWAP3 SWAP2 SWAP1 PUSH2 0x3A6D JUMP JUMPDEST PUSH1 0x20 PUSH1 0x40 MLOAD DUP1 DUP4 SUB DUP2 PUSH0 DUP8 GAS CALL ISZERO DUP1 ISZERO PUSH2 0x2106 JUMPI RETURNDATASIZE PUSH0 PUSH0 RETURNDATACOPY RETURNDATASIZE PUSH0 REVERT JUMPDEST POP POP POP POP PUSH1 0x40 MLOAD RETURNDATASIZE PUSH1 0x1F NOT PUSH1 0x1F DUP3 ADD AND DUP3 ADD DUP1 PUSH1 0x40 MSTORE POP DUP2 ADD SWAP1 PUSH2 0x212A SWAP2 SWAP1 PUSH2 0x2DCF JUMP JUMPDEST SWAP1 POP SWAP5 SWAP4 POP POP POP POP JUMP JUMPDEST PUSH0 PUSH2 0x213D PUSH2 0x1E48 JUMP JUMPDEST SWAP1 POP DUP1 PUSH1 0xE0 ADD MLOAD PUSH2 0x100 ADD MLOAD PUSH1 0xA0 ADD MLOAD PUSH1 0x2 SLOAD LT PUSH2 0x21A9 JUMPI PUSH0 PUSH0 PUSH1 0x2 PUSH2 0x100 EXP DUP2 SLOAD DUP2 PUSH1 0xFF MUL NOT AND SWAP1 DUP4 PUSH1 0x1 DUP2 GT ISZERO PUSH2 0x2179 JUMPI PUSH2 0x2178 PUSH2 0x25F4 JUMP JUMPDEST JUMPDEST MUL OR SWAP1 SSTORE POP PUSH1 0x1 PUSH0 PUSH1 0x1 PUSH2 0x100 EXP DUP2 SLOAD DUP2 PUSH1 0xFF MUL NOT AND SWAP1 DUP4 PUSH1 0x3 DUP2 GT ISZERO PUSH2 0x21A3 JUMPI PUSH2 0x21A2 PUSH2 0x25F4 JUMP JUMPDEST JUMPDEST MUL OR SWAP1 SSTORE POP JUMPDEST POP JUMP JUMPDEST PUSH0 PUSH3 0x15180 SWAP1 POP PUSH0 PUSH1 0x3 DUP2 GT ISZERO PUSH2 0x21C6 JUMPI PUSH2 0x21C5 PUSH2 0x25F4 JUMP JUMPDEST JUMPDEST DUP3 PUSH1 0x3 DUP2 GT ISZERO PUSH2 0x21D9 JUMPI PUSH2 0x21D8 PUSH2 0x25F4 JUMP JUMPDEST JUMPDEST SUB ISZERO PUSH2 0x2296 JUMPI PUSH1 0x7 DUP2 PUSH2 0x21EC SWAP2 SWAP1 PUSH2 0x3ABE JUMP JUMPDEST SWAP1 POP PUSH1 0x1 PUSH1 0x3 DUP2 GT ISZERO PUSH2 0x2202 JUMPI PUSH2 0x2201 PUSH2 0x25F4 JUMP JUMPDEST JUMPDEST DUP3 PUSH1 0x3 DUP2 GT ISZERO PUSH2 0x2215 JUMPI PUSH2 0x2214 PUSH2 0x25F4 JUMP JUMPDEST JUMPDEST SUB ISZERO PUSH2 0x2296 JUMPI PUSH1 0x4 DUP2 PUSH2 0x2228 SWAP2 SWAP1 PUSH2 0x3ABE JUMP JUMPDEST SWAP1 POP PUSH1 0x2 PUSH1 0x3 DUP2 GT ISZERO PUSH2 0x223E JUMPI PUSH2 0x223D PUSH2 0x25F4 JUMP JUMPDEST JUMPDEST DUP3 PUSH1 0x3 DUP2 GT ISZERO PUSH2 0x2251 JUMPI PUSH2 0x2250 PUSH2 0x25F4 JUMP JUMPDEST JUMPDEST SUB ISZERO PUSH2 0x2296 JUMPI PUSH1 0x3 DUP2 PUSH2 0x2264 SWAP2 SWAP1 PUSH2 0x3ABE JUMP JUMPDEST SWAP1 POP PUSH1 0x3 DUP1 DUP2 GT ISZERO PUSH2 0x2279 JUMPI PUSH2 0x2278 PUSH2 0x25F4 JUMP JUMPDEST JUMPDEST DUP3 PUSH1 0x3 DUP2 GT ISZERO PUSH2 0x228C JUMPI PUSH2 0x228B PUSH2 0x25F4 JUMP JUMPDEST JUMPDEST SUB ISZERO PUSH2 0x2296 JUMPI PUSH0 SWAP1 POP JUMPDEST SWAP2 SWAP1 POP JUMP JUMPDEST PUSH0 PUSH2 0x22A4 PUSH2 0x1E48 JUMP JUMPDEST SWAP1 POP DUP1 PUSH1 0xE0 ADD MLOAD PUSH2 0x120 ADD MLOAD PUSH1 0xA0 ADD MLOAD PUSH1 0x3 SLOAD LT PUSH2 0x22E7 JUMPI PUSH1 0x1 PUSH0 PUSH1 0x2 PUSH2 0x100 EXP DUP2 SLOAD DUP2 PUSH1 0xFF MUL NOT AND SWAP1 DUP4 PUSH1 0x1 DUP2 GT ISZERO PUSH2 0x22E1 JUMPI PUSH2 0x22E0 PUSH2 0x25F4 JUMP JUMPDEST JUMPDEST MUL OR SWAP1 SSTORE POP JUMPDEST POP JUMP JUMPDEST PUSH1 0x40 MLOAD DUP1 PUSH2 0x100 ADD PUSH1 0x40 MSTORE DUP1 PUSH0 DUP2 MSTORE PUSH1 0x20 ADD PUSH0 PUSH20 0xFFFFFFFFFFFFFFFFFFFFFFFFFFFFFFFFFFFFFFFF AND DUP2 MSTORE PUSH1 0x20 ADD PUSH0 PUSH20 0xFFFFFFFFFFFFFFFFFFFFFFFFFFFFFFFFFFFFFFFF AND DUP2 MSTORE PUSH1 0x20 ADD PUSH0 PUSH20 0xFFFFFFFFFFFFFFFFFFFFFFFFFFFFFFFFFFFFFFFF AND DUP2 MSTORE PUSH1 0x20 ADD PUSH0 PUSH20 0xFFFFFFFFFFFFFFFFFFFFFFFFFFFFFFFFFFFFFFFF AND DUP2 MSTORE PUSH1 0x20 ADD PUSH0 DUP2 MSTORE PUSH1 0x20 ADD PUSH0 DUP2 MSTORE PUSH1 0x20 ADD PUSH2 0x2380 PUSH2 0x2386 JUMP JUMPDEST DUP2 MSTORE POP SWAP1 JUMP JUMPDEST PUSH1 0x40 MLOAD DUP1 PUSH2 0x160 ADD PUSH1 0x40 MSTORE DUP1 PUSH0 DUP2 MSTORE PUSH1 0x20 ADD PUSH0 PUSH20 0xFFFFFFFFFFFFFFFFFFFFFFFFFFFFFFFFFFFFFFFF AND DUP2 MSTORE PUSH1 0x20 ADD PUSH0 PUSH20 0xFFFFFFFFFFFFFFFFFFFFFFFFFFFFFFFFFFFFFFFF AND DUP2 MSTORE PUSH1 0x20 ADD PUSH0 DUP2 MSTORE PUSH1 0x20 ADD PUSH0 DUP2 MSTORE PUSH1 0x20 ADD PUSH0 PUSH1 0x2 DUP2 GT ISZERO PUSH2 0x23EF JUMPI PUSH2 0x23EE PUSH2 0x25F4 JUMP JUMPDEST JUMPDEST DUP2 MSTORE PUSH1 0x20 ADD PUSH0 PUSH20 0xFFFFFFFFFFFFFFFFFFFFFFFFFFFFFFFFFFFFFFFF AND DUP2 MSTORE PUSH1 0x20 ADD PUSH0 PUSH1 0x1 DUP2 GT ISZERO PUSH2 0x2423 JUMPI PUSH2 0x2422 PUSH2 0x25F4 JUMP JUMPDEST JUMPDEST DUP2 MSTORE PUSH1 0x20 ADD PUSH2 0x2430 PUSH2 0x2450 JUMP JUMPDEST DUP2 MSTORE PUSH1 0x20 ADD PUSH2 0x243D PUSH2 0x2450 JUMP JUMPDEST DUP2 MSTORE PUSH1 0x20 ADD PUSH2 0x244A PUSH2 0x2492 JUMP JUMPDEST DUP2 MSTORE POP SWAP1 JUMP JUMPDEST PUSH1 0x40 MLOAD DUP1 PUSH1 0xC0 ADD PUSH1 0x40 MSTORE DUP1 PUSH0 PUSH1 0x3 DUP2 GT ISZERO PUSH2 0x246E JUMPI PUSH2 0x246D PUSH2 0x25F4 JUMP JUMPDEST JUMPDEST DUP2 MSTORE PUSH1 0x20 ADD PUSH0 DUP2 MSTORE PUSH1 0x20 ADD PUSH0 DUP2 MSTORE PUSH1 0x20 ADD PUSH0 DUP2 MSTORE PUSH1 0x20 ADD PUSH0 DUP2 MSTORE PUSH1 0x20 ADD PUSH0 DUP2 MSTORE POP SWAP1 JUMP JUMPDEST PUSH1 0x40 MLOAD DUP1 PUSH1 0x40 ADD PUSH1 0x40 MSTORE DUP1 PUSH0 DUP2 MSTORE PUSH1 0x20 ADD PUSH0 DUP2 MSTORE POP SWAP1 JUMP JUMPDEST PUSH0 DUP2 SWAP1 POP SWAP2 SWAP1 POP JUMP JUMPDEST PUSH2 0x24BC DUP2 PUSH2 0x24AA JUMP JUMPDEST DUP3 MSTORE POP POP JUMP JUMPDEST PUSH0 PUSH1 0x20 DUP3 ADD SWAP1 POP PUSH2 0x24D5 PUSH0 DUP4 ADD DUP5 PUSH2 0x24B3 JUMP JUMPDEST SWAP3 SWAP2 POP POP JUMP JUMPDEST PUSH0 DUP2 MLOAD SWAP1 POP SWAP2 SWAP1 POP JUMP JUMPDEST PUSH0 DUP3 DUP3 MSTORE PUSH1 0x20 DUP3 ADD SWAP1 POP SWAP3 SWAP2 POP POP JUMP JUMPDEST DUP3 DUP2 DUP4 MCOPY PUSH0 DUP4 DUP4 ADD MSTORE POP POP POP JUMP JUMPDEST PUSH0 PUSH1 0x1F NOT PUSH1 0x1F DUP4 ADD AND SWAP1 POP SWAP2 SWAP1 POP JUMP JUMPDEST PUSH0 PUSH2 0x251D DUP3 PUSH2 0x24DB JUMP JUMPDEST PUSH2 0x2527 DUP2 DUP6 PUSH2 0x24E5 JUMP JUMPDEST SWAP4 POP PUSH2 0x2537 DUP2 DUP6 PUSH1 0x20 DUP7 ADD PUSH2 0x24F5 JUMP JUMPDEST PUSH2 0x2540 DUP2 PUSH2 0x2503 JUMP JUMPDEST DUP5 ADD SWAP2 POP POP SWAP3 SWAP2 POP POP JUMP JUMPDEST PUSH0 PUSH1 0x20 DUP3 ADD SWAP1 POP DUP2 DUP2 SUB PUSH0 DUP4 ADD MSTORE PUSH2 0x2563 DUP2 DUP5 PUSH2 0x2513 JUMP JUMPDEST SWAP1 POP SWAP3 SWAP2 POP POP JUMP JUMPDEST PUSH0 PUSH1 0x40 MLOAD SWAP1 POP SWAP1 JUMP JUMPDEST PUSH0 PUSH0 REVERT JUMPDEST PUSH2 0x2581 DUP2 PUSH2 0x24AA JUMP JUMPDEST DUP2 EQ PUSH2 0x258B JUMPI PUSH0 PUSH0 REVERT JUMPDEST POP JUMP JUMPDEST PUSH0 DUP2 CALLDATALOAD SWAP1 POP PUSH2 0x259C DUP2 PUSH2 0x2578 JUMP JUMPDEST SWAP3 SWAP2 POP POP JUMP JUMPDEST PUSH0 PUSH1 0x20 DUP3 DUP5 SUB SLT ISZERO PUSH2 0x25B7 JUMPI PUSH2 0x25B6 PUSH2 0x2574 JUMP JUMPDEST JUMPDEST PUSH0 PUSH2 0x25C4 DUP5 DUP3 DUP6 ADD PUSH2 0x258E JUMP JUMPDEST SWAP2 POP POP SWAP3 SWAP2 POP POP JUMP JUMPDEST PUSH0 PUSH1 0x40 DUP3 ADD SWAP1 POP PUSH2 0x25E0 PUSH0 DUP4 ADD DUP6 PUSH2 0x24B3 JUMP JUMPDEST PUSH2 0x25ED PUSH1 0x20 DUP4 ADD DUP5 PUSH2 0x24B3 JUMP JUMPDEST SWAP4 SWAP3 POP POP POP JUMP JUMPDEST PUSH32 0x4E487B7100000000000000000000000000000000000000000000000000000000 PUSH0 MSTORE PUSH1 0x21 PUSH1 0x4 MSTORE PUSH1 0x24 PUSH0 REVERT JUMPDEST PUSH1 0x4 DUP2 LT PUSH2 0x2632 JUMPI PUSH2 0x2631 PUSH2 0x25F4 JUMP JUMPDEST JUMPDEST POP JUMP JUMPDEST PUSH0 DUP2 SWAP1 POP PUSH2 0x2642 DUP3 PUSH2 0x2621 JUMP JUMPDEST SWAP2 SWAP1 POP JUMP JUMPDEST PUSH0 PUSH2 0x2651 DUP3 PUSH2 0x2635 JUMP JUMPDEST SWAP1 POP SWAP2 SWAP1 POP JUMP JUMPDEST PUSH2 0x2661 DUP2 PUSH2 0x2647 JUMP JUMPDEST DUP3 MSTORE POP POP JUMP JUMPDEST PUSH0 PUSH1 0x20 DUP3 ADD SWAP1 POP PUSH2 0x267A PUSH0 DUP4 ADD DUP5 PUSH2 0x2658 JUMP JUMPDEST SWAP3 SWAP2 POP POP JUMP JUMPDEST PUSH0 PUSH20 0xFFFFFFFFFFFFFFFFFFFFFFFFFFFFFFFFFFFFFFFF DUP3 AND SWAP1 POP SWAP2 SWAP1 POP JUMP JUMPDEST PUSH0 PUSH2 0x26A9 DUP3 PUSH2 0x2680 JUMP JUMPDEST SWAP1 POP SWAP2 SWAP1 POP JUMP JUMPDEST PUSH2 0x26B9 DUP2 PUSH2 0x269F JUMP JUMPDEST DUP2 EQ PUSH2 0x26C3 JUMPI PUSH0 PUSH0 REVERT JUMPDEST POP JUMP JUMPDEST PUSH0 DUP2 CALLDATALOAD SWAP1 POP PUSH2 0x26D4 DUP2 PUSH2 0x26B0 JUMP JUMPDEST SWAP3 SWAP2 POP POP JUMP JUMPDEST PUSH0 PUSH1 0x20 DUP3 DUP5 SUB SLT ISZERO PUSH2 0x26EF JUMPI PUSH2 0x26EE PUSH2 0x2574 JUMP JUMPDEST JUMPDEST PUSH0 PUSH2 0x26FC DUP5 DUP3 DUP6 ADD PUSH2 0x26C6 JUMP JUMPDEST SWAP2 POP POP SWAP3 SWAP2 POP POP JUMP JUMPDEST PUSH2 0x270E DUP2 PUSH2 0x24AA JUMP JUMPDEST DUP3 MSTORE POP POP JUMP JUMPDEST PUSH2 0x271D DUP2 PUSH2 0x269F JUMP JUMPDEST DUP3 MSTORE POP POP JUMP JUMPDEST PUSH1 0x3 DUP2 LT PUSH2 0x2734 JUMPI PUSH2 0x2733 PUSH2 0x25F4 JUMP JUMPDEST JUMPDEST POP JUMP JUMPDEST PUSH0 DUP2 SWAP1 POP PUSH2 0x2744 DUP3 PUSH2 0x2723 JUMP JUMPDEST SWAP2 SWAP1 POP JUMP JUMPDEST PUSH0 PUSH2 0x2753 DUP3 PUSH2 0x2737 JUMP JUMPDEST SWAP1 POP SWAP2 SWAP1 POP JUMP JUMPDEST PUSH2 0x2763 DUP2 PUSH2 0x2749 JUMP JUMPDEST DUP3 MSTORE POP POP JUMP JUMPDEST PUSH1 0x2 DUP2 LT PUSH2 0x277A JUMPI PUSH2 0x2779 PUSH2 0x25F4 JUMP JUMPDEST JUMPDEST POP JUMP JUMPDEST PUSH0 DUP2 SWAP1 POP PUSH2 0x278A DUP3 PUSH2 0x2769 JUMP JUMPDEST SWAP2 SWAP1 POP JUMP JUMPDEST PUSH0 PUSH2 0x2799 DUP3 PUSH2 0x277D JUMP JUMPDEST SWAP1 POP SWAP2 SWAP1 POP JUMP JUMPDEST PUSH2 0x27A9 DUP2 PUSH2 0x278F JUMP JUMPDEST DUP3 MSTORE POP POP JUMP JUMPDEST PUSH1 0x4 DUP2 LT PUSH2 0x27C0 JUMPI PUSH2 0x27BF PUSH2 0x25F4 JUMP JUMPDEST JUMPDEST POP JUMP JUMPDEST PUSH0 DUP2 SWAP1 POP PUSH2 0x27D0 DUP3 PUSH2 0x27AF JUMP JUMPDEST SWAP2 SWAP1 POP JUMP JUMPDEST PUSH0 PUSH2 0x27DF DUP3 PUSH2 0x27C3 JUMP JUMPDEST SWAP1 POP SWAP2 SWAP1 POP JUMP JUMPDEST PUSH2 0x27EF DUP2 PUSH2 0x27D5 JUMP JUMPDEST DUP3 MSTORE POP POP JUMP JUMPDEST PUSH1 0xC0 DUP3 ADD PUSH0 DUP3 ADD MLOAD PUSH2 0x2809 PUSH0 DUP6 ADD DUP3 PUSH2 0x27E6 JUMP JUMPDEST POP PUSH1 0x20 DUP3 ADD MLOAD PUSH2 0x281C PUSH1 0x20 DUP6 ADD DUP3 PUSH2 0x2705 JUMP JUMPDEST POP PUSH1 0x40 DUP3 ADD MLOAD PUSH2 0x282F PUSH1 0x40 DUP6 ADD DUP3 PUSH2 0x2705 JUMP JUMPDEST POP PUSH1 0x60 DUP3 ADD MLOAD PUSH2 0x2842 PUSH1 0x60 DUP6 ADD DUP3 PUSH2 0x2705 JUMP JUMPDEST POP PUSH1 0x80 DUP3 ADD MLOAD PUSH2 0x2855 PUSH1 0x80 DUP6 ADD DUP3 PUSH2 0x2705 JUMP JUMPDEST POP PUSH1 0xA0 DUP3 ADD MLOAD PUSH2 0x2868 PUSH1 0xA0 DUP6 ADD DUP3 PUSH2 0x2705 JUMP JUMPDEST POP POP POP POP JUMP JUMPDEST PUSH1 0x40 DUP3 ADD PUSH0 DUP3 ADD MLOAD PUSH2 0x2882 PUSH0 DUP6 ADD DUP3 PUSH2 0x2705 JUMP JUMPDEST POP PUSH1 0x20 DUP3 ADD MLOAD PUSH2 0x2895 PUSH1 0x20 DUP6 ADD DUP3 PUSH2 0x2705 JUMP JUMPDEST POP POP POP POP JUMP JUMPDEST PUSH2 0x2C0 DUP3 ADD PUSH0 DUP3 ADD MLOAD PUSH2 0x28B0 PUSH0 DUP6 ADD DUP3 PUSH2 0x2705 JUMP JUMPDEST POP PUSH1 0x20 DUP3 ADD MLOAD PUSH2 0x28C3 PUSH1 0x20 DUP6 ADD DUP3 PUSH2 0x2714 JUMP JUMPDEST POP PUSH1 0x40 DUP3 ADD MLOAD PUSH2 0x28D6 PUSH1 0x40 DUP6 ADD DUP3 PUSH2 0x2714 JUMP JUMPDEST POP PUSH1 0x60 DUP3 ADD MLOAD PUSH2 0x28E9 PUSH1 0x60 DUP6 ADD DUP3 PUSH2 0x2705 JUMP JUMPDEST POP PUSH1 0x80 DUP3 ADD MLOAD PUSH2 0x28FC PUSH1 0x80 DUP6 ADD DUP3 PUSH2 0x2705 JUMP JUMPDEST POP PUSH1 0xA0 DUP3 ADD MLOAD PUSH2 0x290F PUSH1 0xA0 DUP6 ADD DUP3 PUSH2 0x275A JUMP JUMPDEST POP PUSH1 0xC0 DUP3 ADD MLOAD PUSH2 0x2922 PUSH1 0xC0 DUP6 ADD DUP3 PUSH2 0x2714 JUMP JUMPDEST POP PUSH1 0xE0 DUP3 ADD MLOAD PUSH2 0x2935 PUSH1 0xE0 DUP6 ADD DUP3 PUSH2 0x27A0 JUMP JUMPDEST POP PUSH2 0x100 DUP3 ADD MLOAD PUSH2 0x294A PUSH2 0x100 DUP6 ADD DUP3 PUSH2 0x27F5 JUMP JUMPDEST POP PUSH2 0x120 DUP3 ADD MLOAD PUSH2 0x295F PUSH2 0x1C0 DUP6 ADD DUP3 PUSH2 0x27F5 JUMP JUMPDEST POP PUSH2 0x140 DUP3 ADD MLOAD PUSH2 0x2974 PUSH2 0x280 DUP6 ADD DUP3 PUSH2 0x286E JUMP JUMPDEST POP POP POP POP JUMP JUMPDEST PUSH2 0x3A0 DUP3 ADD PUSH0 DUP3 ADD MLOAD PUSH2 0x298F PUSH0 DUP6 ADD DUP3 PUSH2 0x2705 JUMP JUMPDEST POP PUSH1 0x20 DUP3 ADD MLOAD PUSH2 0x29A2 PUSH1 0x20 DUP6 ADD DUP3 PUSH2 0x2714 JUMP JUMPDEST POP PUSH1 0x40 DUP3 ADD MLOAD PUSH2 0x29B5 PUSH1 0x40 DUP6 ADD DUP3 PUSH2 0x2714 JUMP JUMPDEST POP PUSH1 0x60 DUP3 ADD MLOAD PUSH2 0x29C8 PUSH1 0x60 DUP6 ADD DUP3 PUSH2 0x2714 JUMP JUMPDEST POP PUSH1 0x80 DUP3 ADD MLOAD PUSH2 0x29DB PUSH1 0x80 DUP6 ADD DUP3 PUSH2 0x2714 JUMP JUMPDEST POP PUSH1 0xA0 DUP3 ADD MLOAD PUSH2 0x29EE PUSH1 0xA0 DUP6 ADD DUP3 PUSH2 0x2705 JUMP JUMPDEST POP PUSH1 0xC0 DUP3 ADD MLOAD PUSH2 0x2A01 PUSH1 0xC0 DUP6 ADD DUP3 PUSH2 0x2705 JUMP JUMPDEST POP PUSH1 0xE0 DUP3 ADD MLOAD PUSH2 0x2A14 PUSH1 0xE0 DUP6 ADD DUP3 PUSH2 0x289B JUMP JUMPDEST POP POP POP POP JUMP JUMPDEST PUSH0 PUSH2 0x3A0 DUP3 ADD SWAP1 POP PUSH2 0x2A2E PUSH0 DUP4 ADD DUP5 PUSH2 0x297A JUMP JUMPDEST SWAP3 SWAP2 POP POP JUMP JUMPDEST PUSH0 PUSH0 PUSH0 PUSH1 0x60 DUP5 DUP7 SUB SLT ISZERO PUSH2 0x2A4B JUMPI PUSH2 0x2A4A PUSH2 0x2574 JUMP JUMPDEST JUMPDEST PUSH0 PUSH2 0x2A58 DUP7 DUP3 DUP8 ADD PUSH2 0x258E JUMP JUMPDEST SWAP4 POP POP PUSH1 0x20 PUSH2 0x2A69 DUP7 DUP3 DUP8 ADD PUSH2 0x258E JUMP JUMPDEST SWAP3 POP POP PUSH1 0x40 PUSH2 0x2A7A DUP7 DUP3 DUP8 ADD PUSH2 0x258E JUMP JUMPDEST SWAP2 POP POP SWAP3 POP SWAP3 POP SWAP3 JUMP JUMPDEST PUSH0 DUP2 MLOAD SWAP1 POP SWAP2 SWAP1 POP JUMP JUMPDEST PUSH0 DUP3 DUP3 MSTORE PUSH1 0x20 DUP3 ADD SWAP1 POP SWAP3 SWAP2 POP POP JUMP JUMPDEST PUSH0 DUP2 SWAP1 POP PUSH1 0x20 DUP3 ADD SWAP1 POP SWAP2 SWAP1 POP JUMP JUMPDEST PUSH0 PUSH2 0x2AB8 DUP4 DUP4 PUSH2 0x2705 JUMP JUMPDEST PUSH1 0x20 DUP4 ADD SWAP1 POP SWAP3 SWAP2 POP POP JUMP JUMPDEST PUSH0 PUSH1 0x20 DUP3 ADD SWAP1 POP SWAP2 SWAP1 POP JUMP JUMPDEST PUSH0 PUSH2 0x2ADA DUP3 PUSH2 0x2A84 JUMP JUMPDEST PUSH2 0x2AE4 DUP2 DUP6 PUSH2 0x2A8E JUMP JUMPDEST SWAP4 POP PUSH2 0x2AEF DUP4 PUSH2 0x2A9E JUMP JUMPDEST DUP1 PUSH0 JUMPDEST DUP4 DUP2 LT ISZERO PUSH2 0x2B1F JUMPI DUP2 MLOAD PUSH2 0x2B06 DUP9 DUP3 PUSH2 0x2AAD JUMP JUMPDEST SWAP8 POP PUSH2 0x2B11 DUP4 PUSH2 0x2AC4 JUMP JUMPDEST SWAP3 POP POP PUSH1 0x1 DUP2 ADD SWAP1 POP PUSH2 0x2AF2 JUMP JUMPDEST POP DUP6 SWAP4 POP POP POP POP SWAP3 SWAP2 POP POP JUMP JUMPDEST PUSH0 PUSH1 0x20 DUP3 ADD SWAP1 POP DUP2 DUP2 SUB PUSH0 DUP4 ADD MSTORE PUSH2 0x2B44 DUP2 DUP5 PUSH2 0x2AD0 JUMP JUMPDEST SWAP1 POP SWAP3 SWAP2 POP POP JUMP JUMPDEST PUSH0 DUP2 MLOAD SWAP1 POP PUSH2 0x2B5A DUP2 PUSH2 0x26B0 JUMP JUMPDEST SWAP3 SWAP2 POP POP JUMP JUMPDEST PUSH0 PUSH1 0x20 DUP3 DUP5 SUB SLT ISZERO PUSH2 0x2B75 JUMPI PUSH2 0x2B74 PUSH2 0x2574 JUMP JUMPDEST JUMPDEST PUSH0 PUSH2 0x2B82 DUP5 DUP3 DUP6 ADD PUSH2 0x2B4C JUMP JUMPDEST SWAP2 POP POP SWAP3 SWAP2 POP POP JUMP JUMPDEST PUSH32 0x50656E73696F6E2041646D696E204F6E6C790000000000000000000000000000 PUSH0 DUP3 ADD MSTORE POP JUMP JUMPDEST PUSH0 PUSH2 0x2BBF PUSH1 0x12 DUP4 PUSH2 0x24E5 JUMP JUMPDEST SWAP2 POP PUSH2 0x2BCA DUP3 PUSH2 0x2B8B JUMP JUMPDEST PUSH1 0x20 DUP3 ADD SWAP1 POP SWAP2 SWAP1 POP JUMP JUMPDEST PUSH0 PUSH1 0x20 DUP3 ADD SWAP1 POP DUP2 DUP2 SUB PUSH0 DUP4 ADD MSTORE PUSH2 0x2BEC DUP2 PUSH2 0x2BB3 JUMP JUMPDEST SWAP1 POP SWAP2 SWAP1 POP JUMP JUMPDEST PUSH32 0x7661756C74206C6F636B65640000000000000000000000000000000000000000 PUSH0 DUP3 ADD MSTORE POP JUMP JUMPDEST PUSH0 PUSH2 0x2C27 PUSH1 0xC DUP4 PUSH2 0x24E5 JUMP JUMPDEST SWAP2 POP PUSH2 0x2C32 DUP3 PUSH2 0x2BF3 JUMP JUMPDEST PUSH1 0x20 DUP3 ADD SWAP1 POP SWAP2 SWAP1 POP JUMP JUMPDEST PUSH0 PUSH1 0x20 DUP3 ADD SWAP1 POP DUP2 DUP2 SUB PUSH0 DUP4 ADD MSTORE PUSH2 0x2C54 DUP2 PUSH2 0x2C1B JUMP JUMPDEST SWAP1 POP SWAP2 SWAP1 POP JUMP JUMPDEST PUSH32 0x7661756C7420636C6F7365640000000000000000000000000000000000000000 PUSH0 DUP3 ADD MSTORE POP JUMP JUMPDEST PUSH0 PUSH2 0x2C8F PUSH1 0xC DUP4 PUSH2 0x24E5 JUMP JUMPDEST SWAP2 POP PUSH2 0x2C9A DUP3 PUSH2 0x2C5B JUMP JUMPDEST PUSH1 0x20 DUP3 ADD SWAP1 POP SWAP2 SWAP1 POP JUMP JUMPDEST PUSH0 PUSH1 0x20 DUP3 ADD SWAP1 POP DUP2 DUP2 SUB PUSH0 DUP4 ADD MSTORE PUSH2 0x2CBC DUP2 PUSH2 0x2C83 JUMP JUMPDEST SWAP1 POP SWAP2 SWAP1 POP JUMP JUMPDEST PUSH32 0x70656E73696F6E20636C6F736564000000000000000000000000000000000000 PUSH0 DUP3 ADD MSTORE POP JUMP JUMPDEST PUSH0 PUSH2 0x2CF7 PUSH1 0xE DUP4 PUSH2 0x24E5 JUMP JUMPDEST SWAP2 POP PUSH2 0x2D02 DUP3 PUSH2 0x2CC3 JUMP JUMPDEST PUSH1 0x20 DUP3 ADD SWAP1 POP SWAP2 SWAP1 POP JUMP JUMPDEST PUSH0 PUSH1 0x20 DUP3 ADD SWAP1 POP DUP2 DUP2 SUB PUSH0 DUP4 ADD MSTORE PUSH2 0x2D24 DUP2 PUSH2 0x2CEB JUMP JUMPDEST SWAP1 POP SWAP2 SWAP1 POP JUMP JUMPDEST PUSH32 0x70656E73696F6E20696E20747265617375727900000000000000000000000000 PUSH0 DUP3 ADD MSTORE POP JUMP JUMPDEST PUSH0 PUSH2 0x2D5F PUSH1 0x13 DUP4 PUSH2 0x24E5 JUMP JUMPDEST SWAP2 POP PUSH2 0x2D6A DUP3 PUSH2 0x2D2B JUMP JUMPDEST PUSH1 0x20 DUP3 ADD SWAP1 POP SWAP2 SWAP1 POP JUMP JUMPDEST PUSH0 PUSH1 0x20 DUP3 ADD SWAP1 POP DUP2 DUP2 SUB PUSH0 DUP4 ADD MSTORE PUSH2 0x2D8C DUP2 PUSH2 0x2D53 JUMP JUMPDEST SWAP1 POP SWAP2 SWAP1 POP JUMP JUMPDEST PUSH2 0x2D9C DUP2 PUSH2 0x269F JUMP JUMPDEST DUP3 MSTORE POP POP JUMP JUMPDEST PUSH0 PUSH1 0x20 DUP3 ADD SWAP1 POP PUSH2 0x2DB5 PUSH0 DUP4 ADD DUP5 PUSH2 0x2D93 JUMP JUMPDEST SWAP3 SWAP2 POP POP JUMP JUMPDEST PUSH0 DUP2 MLOAD SWAP1 POP PUSH2 0x2DC9 DUP2 PUSH2 0x2578 JUMP JUMPDEST SWAP3 SWAP2 POP POP JUMP JUMPDEST PUSH0 PUSH1 0x20 DUP3 DUP5 SUB SLT ISZERO PUSH2 0x2DE4 JUMPI PUSH2 0x2DE3 PUSH2 0x2574 JUMP JUMPDEST JUMPDEST PUSH0 PUSH2 0x2DF1 DUP5 DUP3 DUP6 ADD PUSH2 0x2DBB JUMP JUMPDEST SWAP2 POP POP SWAP3 SWAP2 POP POP JUMP JUMPDEST PUSH0 PUSH1 0x40 DUP3 ADD SWAP1 POP PUSH2 0x2E0D PUSH0 DUP4 ADD DUP6 PUSH2 0x2D93 JUMP JUMPDEST PUSH2 0x2E1A PUSH1 0x20 DUP4 ADD DUP5 PUSH2 0x24B3 JUMP JUMPDEST SWAP4 SWAP3 POP POP POP JUMP JUMPDEST PUSH0 DUP2 ISZERO ISZERO SWAP1 POP SWAP2 SWAP1 POP JUMP JUMPDEST PUSH2 0x2E35 DUP2 PUSH2 0x2E21 JUMP JUMPDEST DUP2 EQ PUSH2 0x2E3F JUMPI PUSH0 PUSH0 REVERT JUMPDEST POP JUMP JUMPDEST PUSH0 DUP2 MLOAD SWAP1 POP PUSH2 0x2E50 DUP2 PUSH2 0x2E2C JUMP JUMPDEST SWAP3 SWAP2 POP POP JUMP JUMPDEST PUSH0 PUSH1 0x20 DUP3 DUP5 SUB SLT ISZERO PUSH2 0x2E6B JUMPI PUSH2 0x2E6A PUSH2 0x2574 JUMP JUMPDEST JUMPDEST PUSH0 PUSH2 0x2E78 DUP5 DUP3 DUP6 ADD PUSH2 0x2E42 JUMP JUMPDEST SWAP2 POP POP SWAP3 SWAP2 POP POP JUMP JUMPDEST PUSH32 0x7472656173757279206F6E6C7900000000000000000000000000000000000000 PUSH0 DUP3 ADD MSTORE POP JUMP JUMPDEST PUSH0 PUSH2 0x2EB5 PUSH1 0xD DUP4 PUSH2 0x24E5 JUMP JUMPDEST SWAP2 POP PUSH2 0x2EC0 DUP3 PUSH2 0x2E81 JUMP JUMPDEST PUSH1 0x20 DUP3 ADD SWAP1 POP SWAP2 SWAP1 POP JUMP JUMPDEST PUSH0 PUSH1 0x20 DUP3 ADD SWAP1 POP DUP2 DUP2 SUB PUSH0 DUP4 ADD MSTORE PUSH2 0x2EE2 DUP2 PUSH2 0x2EA9 JUMP JUMPDEST SWAP1 POP SWAP2 SWAP1 POP JUMP JUMPDEST PUSH32 0x696E76616C69642070656E73696F6E2070756C6C207374617465000000000000 PUSH0 DUP3 ADD MSTORE POP JUMP JUMPDEST PUSH0 PUSH2 0x2F1D PUSH1 0x1A DUP4 PUSH2 0x24E5 JUMP JUMPDEST SWAP2 POP PUSH2 0x2F28 DUP3 PUSH2 0x2EE9 JUMP JUMPDEST PUSH1 0x20 DUP3 ADD SWAP1 POP SWAP2 SWAP1 POP JUMP JUMPDEST PUSH0 PUSH1 0x20 DUP3 ADD SWAP1 POP DUP2 DUP2 SUB PUSH0 DUP4 ADD MSTORE PUSH2 0x2F4A DUP2 PUSH2 0x2F11 JUMP JUMPDEST SWAP1 POP SWAP2 SWAP1 POP JUMP JUMPDEST PUSH32 0x7661756C7420616C72656164792070756C6C6564000000000000000000000000 PUSH0 DUP3 ADD MSTORE POP JUMP JUMPDEST PUSH0 PUSH2 0x2F85 PUSH1 0x14 DUP4 PUSH2 0x24E5 JUMP JUMPDEST SWAP2 POP PUSH2 0x2F90 DUP3 PUSH2 0x2F51 JUMP JUMPDEST PUSH1 0x20 DUP3 ADD SWAP1 POP SWAP2 SWAP1 POP JUMP JUMPDEST PUSH0 PUSH1 0x20 DUP3 ADD SWAP1 POP DUP2 DUP2 SUB PUSH0 DUP4 ADD MSTORE PUSH2 0x2FB2 DUP2 PUSH2 0x2F79 JUMP JUMPDEST SWAP1 POP SWAP2 SWAP1 POP JUMP JUMPDEST PUSH32 0x70656E73696F6E206E6F7420636C6F7365640000000000000000000000000000 PUSH0 DUP3 ADD MSTORE POP JUMP JUMPDEST PUSH0 PUSH2 0x2FED PUSH1 0x12 DUP4 PUSH2 0x24E5 JUMP JUMPDEST SWAP2 POP PUSH2 0x2FF8 DUP3 PUSH2 0x2FB9 JUMP JUMPDEST PUSH1 0x20 DUP3 ADD SWAP1 POP SWAP2 SWAP1 POP JUMP JUMPDEST PUSH0 PUSH1 0x20 DUP3 ADD SWAP1 POP DUP2 DUP2 SUB PUSH0 DUP4 ADD MSTORE PUSH2 0x301A DUP2 PUSH2 0x2FE1 JUMP JUMPDEST SWAP1 POP SWAP2 SWAP1 POP JUMP JUMPDEST PUSH32 0x696E73756666696369656E74207072696E636970616C2072657475726E656400 PUSH0 DUP3 ADD MSTORE POP JUMP JUMPDEST PUSH0 PUSH2 0x3055 PUSH1 0x1F DUP4 PUSH2 0x24E5 JUMP JUMPDEST SWAP2 POP PUSH2 0x3060 DUP3 PUSH2 0x3021 JUMP JUMPDEST PUSH1 0x20 DUP3 ADD SWAP1 POP SWAP2 SWAP1 POP JUMP JUMPDEST PUSH0 PUSH1 0x20 DUP3 ADD SWAP1 POP DUP2 DUP2 SUB PUSH0 DUP4 ADD MSTORE PUSH2 0x3082 DUP2 PUSH2 0x3049 JUMP JUMPDEST SWAP1 POP SWAP2 SWAP1 POP JUMP JUMPDEST PUSH32 0x4E487B7100000000000000000000000000000000000000000000000000000000 PUSH0 MSTORE PUSH1 0x11 PUSH1 0x4 MSTORE PUSH1 0x24 PUSH0 REVERT JUMPDEST PUSH0 PUSH2 0x30C0 DUP3 PUSH2 0x24AA JUMP JUMPDEST SWAP2 POP PUSH2 0x30CB DUP4 PUSH2 0x24AA JUMP JUMPDEST SWAP3 POP DUP3 DUP3 ADD SWAP1 POP DUP1 DUP3 GT ISZERO PUSH2 0x30E3 JUMPI PUSH2 0x30E2 PUSH2 0x3089 JUMP JUMPDEST JUMPDEST SWAP3 SWAP2 POP POP JUMP JUMPDEST PUSH32 0x7661756C74206E6F742070756C6C656400000000000000000000000000000000 PUSH0 DUP3 ADD MSTORE POP JUMP JUMPDEST PUSH0 PUSH2 0x311D PUSH1 0x10 DUP4 PUSH2 0x24E5 JUMP JUMPDEST SWAP2 POP PUSH2 0x3128 DUP3 PUSH2 0x30E9 JUMP JUMPDEST PUSH1 0x20 DUP3 ADD SWAP1 POP SWAP2 SWAP1 POP JUMP JUMPDEST PUSH0 PUSH1 0x20 DUP3 ADD SWAP1 POP DUP2 DUP2 SUB PUSH0 DUP4 ADD MSTORE PUSH2 0x314A DUP2 PUSH2 0x3111 JUMP JUMPDEST SWAP1 POP SWAP2 SWAP1 POP JUMP JUMPDEST PUSH32 0x696E7375666669656E74207472616E736D69747465642076616C756500000000 PUSH0 DUP3 ADD MSTORE POP JUMP JUMPDEST PUSH0 PUSH2 0x3185 PUSH1 0x1C DUP4 PUSH2 0x24E5 JUMP JUMPDEST SWAP2 POP PUSH2 0x3190 DUP3 PUSH2 0x3151 JUMP JUMPDEST PUSH1 0x20 DUP3 ADD SWAP1 POP SWAP2 SWAP1 POP JUMP JUMPDEST PUSH0 PUSH1 0x20 DUP3 ADD SWAP1 POP DUP2 DUP2 SUB PUSH0 DUP4 ADD MSTORE PUSH2 0x31B2 DUP2 PUSH2 0x3179 JUMP JUMPDEST SWAP1 POP SWAP2 SWAP1 POP JUMP JUMPDEST PUSH0 PUSH1 0x60 DUP3 ADD SWAP1 POP PUSH2 0x31CC PUSH0 DUP4 ADD DUP7 PUSH2 0x2D93 JUMP JUMPDEST PUSH2 0x31D9 PUSH1 0x20 DUP4 ADD DUP6 PUSH2 0x2D93 JUMP JUMPDEST PUSH2 0x31E6 PUSH1 0x40 DUP4 ADD DUP5 PUSH2 0x24B3 JUMP JUMPDEST SWAP5 SWAP4 POP POP POP POP JUMP JUMPDEST PUSH0 PUSH2 0x31F8 DUP3 PUSH2 0x24AA JUMP JUMPDEST SWAP2 POP PUSH2 0x3203 DUP4 PUSH2 0x24AA JUMP JUMPDEST SWAP3 POP DUP3 DUP3 SUB SWAP1 POP DUP2 DUP2 GT ISZERO PUSH2 0x321B JUMPI PUSH2 0x321A PUSH2 0x3089 JUMP JUMPDEST JUMPDEST SWAP3 SWAP2 POP POP JUMP JUMPDEST PUSH32 0x636F6E747269627574696F6E7320746F6F206672657175656E74207761697420 PUSH0 DUP3 ADD MSTORE PUSH32 0x7265717569726564200000000000000000000000000000000000000000000000 PUSH1 0x20 DUP3 ADD MSTORE POP JUMP JUMPDEST PUSH0 PUSH2 0x327B PUSH1 0x29 DUP4 PUSH2 0x24E5 JUMP JUMPDEST SWAP2 POP PUSH2 0x3286 DUP3 PUSH2 0x3221 JUMP JUMPDEST PUSH1 0x40 DUP3 ADD SWAP1 POP SWAP2 SWAP1 POP JUMP JUMPDEST PUSH0 PUSH1 0x20 DUP3 ADD SWAP1 POP DUP2 DUP2 SUB PUSH0 DUP4 ADD MSTORE PUSH2 0x32A8 DUP2 PUSH2 0x326F JUMP JUMPDEST SWAP1 POP SWAP2 SWAP1 POP JUMP JUMPDEST PUSH32 0x70656E73696F6E206D6174757265640000000000000000000000000000000000 PUSH0 DUP3 ADD MSTORE POP JUMP JUMPDEST PUSH0 PUSH2 0x32E3 PUSH1 0xF DUP4 PUSH2 0x24E5 JUMP JUMPDEST SWAP2 POP PUSH2 0x32EE DUP3 PUSH2 0x32AF JUMP JUMPDEST PUSH1 0x20 DUP3 ADD SWAP1 POP SWAP2 SWAP1 POP JUMP JUMPDEST PUSH0 PUSH1 0x20 DUP3 ADD SWAP1 POP DUP2 DUP2 SUB PUSH0 DUP4 ADD MSTORE PUSH2 0x3310 DUP2 PUSH2 0x32D7 JUMP JUMPDEST SWAP1 POP SWAP2 SWAP1 POP JUMP JUMPDEST PUSH32 0x70656E73696F6E206E6F74206F70656E00000000000000000000000000000000 PUSH0 DUP3 ADD MSTORE POP JUMP JUMPDEST PUSH0 PUSH2 0x334B PUSH1 0x10 DUP4 PUSH2 0x24E5 JUMP JUMPDEST SWAP2 POP PUSH2 0x3356 DUP3 PUSH2 0x3317 JUMP JUMPDEST PUSH1 0x20 DUP3 ADD SWAP1 POP SWAP2 SWAP1 POP JUMP JUMPDEST PUSH0 PUSH1 0x20 DUP3 ADD SWAP1 POP DUP2 DUP2 SUB PUSH0 DUP4 ADD MSTORE PUSH2 0x3378 DUP2 PUSH2 0x333F JUMP JUMPDEST SWAP1 POP SWAP2 SWAP1 POP JUMP JUMPDEST PUSH32 0x696E76616C696420636F6E747269627574696F6E206569746865722072616973 PUSH0 DUP3 ADD MSTORE PUSH32 0x65206F72206C6F77657220616D6F756E74000000000000000000000000000000 PUSH1 0x20 DUP3 ADD MSTORE POP JUMP JUMPDEST PUSH0 PUSH2 0x33D9 PUSH1 0x31 DUP4 PUSH2 0x24E5 JUMP JUMPDEST SWAP2 POP PUSH2 0x33E4 DUP3 PUSH2 0x337F JUMP JUMPDEST PUSH1 0x40 DUP3 ADD SWAP1 POP SWAP2 SWAP1 POP JUMP JUMPDEST PUSH0 PUSH1 0x20 DUP3 ADD SWAP1 POP DUP2 DUP2 SUB PUSH0 DUP4 ADD MSTORE PUSH2 0x3406 DUP2 PUSH2 0x33CD JUMP JUMPDEST SWAP1 POP SWAP2 SWAP1 POP JUMP JUMPDEST PUSH32 0x636F6E747269627574696F6E206D69732D6D6174636800000000000000000000 PUSH0 DUP3 ADD MSTORE POP JUMP JUMPDEST PUSH0 PUSH2 0x3441 PUSH1 0x16 DUP4 PUSH2 0x24E5 JUMP JUMPDEST SWAP2 POP PUSH2 0x344C DUP3 PUSH2 0x340D JUMP JUMPDEST PUSH1 0x20 DUP3 ADD SWAP1 POP SWAP2 SWAP1 POP JUMP JUMPDEST PUSH0 PUSH1 0x20 DUP3 ADD SWAP1 POP DUP2 DUP2 SUB PUSH0 DUP4 ADD MSTORE PUSH2 0x346E DUP2 PUSH2 0x3435 JUMP JUMPDEST SWAP1 POP SWAP2 SWAP1 POP JUMP JUMPDEST PUSH0 PUSH2 0x347F DUP3 PUSH2 0x24AA JUMP JUMPDEST SWAP2 POP PUSH32 0xFFFFFFFFFFFFFFFFFFFFFFFFFFFFFFFFFFFFFFFFFFFFFFFFFFFFFFFFFFFFFFFF DUP3 SUB PUSH2 0x34B1 JUMPI PUSH2 0x34B0 PUSH2 0x3089 JUMP JUMPDEST JUMPDEST PUSH1 0x1 DUP3 ADD SWAP1 POP SWAP2 SWAP1 POP JUMP JUMPDEST PUSH32 0x6F776E6572206F6E6C7900000000000000000000000000000000000000000000 PUSH0 DUP3 ADD MSTORE POP JUMP JUMPDEST PUSH0 PUSH2 0x34F0 PUSH1 0xA DUP4 PUSH2 0x24E5 JUMP JUMPDEST SWAP2 POP PUSH2 0x34FB DUP3 PUSH2 0x34BC JUMP JUMPDEST PUSH1 0x20 DUP3 ADD SWAP1 POP SWAP2 SWAP1 POP JUMP JUMPDEST PUSH0 PUSH1 0x20 DUP3 ADD SWAP1 POP DUP2 DUP2 SUB PUSH0 DUP4 ADD MSTORE PUSH2 0x351D DUP2 PUSH2 0x34E4 JUMP JUMPDEST SWAP1 POP SWAP2 SWAP1 POP JUMP JUMPDEST PUSH32 0x696E76616C69642070656E73696F6E2073746174757300000000000000000000 PUSH0 DUP3 ADD MSTORE POP JUMP JUMPDEST PUSH0 PUSH2 0x3558 PUSH1 0x16 DUP4 PUSH2 0x24E5 JUMP JUMPDEST SWAP2 POP PUSH2 0x3563 DUP3 PUSH2 0x3524 JUMP JUMPDEST PUSH1 0x20 DUP3 ADD SWAP1 POP SWAP2 SWAP1 POP JUMP JUMPDEST PUSH0 PUSH1 0x20 DUP3 ADD SWAP1 POP DUP2 DUP2 SUB PUSH0 DUP4 ADD MSTORE PUSH2 0x3585 DUP2 PUSH2 0x354C JUMP JUMPDEST SWAP1 POP SWAP2 SWAP1 POP JUMP JUMPDEST PUSH32 0x70656E73696F6E20736574746C65640000000000000000000000000000000000 PUSH0 DUP3 ADD MSTORE POP JUMP JUMPDEST PUSH0 PUSH2 0x35C0 PUSH1 0xF DUP4 PUSH2 0x24E5 JUMP JUMPDEST SWAP2 POP PUSH2 0x35CB DUP3 PUSH2 0x358C JUMP JUMPDEST PUSH1 0x20 DUP3 ADD SWAP1 POP SWAP2 SWAP1 POP JUMP JUMPDEST PUSH0 PUSH1 0x20 DUP3 ADD SWAP1 POP DUP2 DUP2 SUB PUSH0 DUP4 ADD MSTORE PUSH2 0x35ED DUP2 PUSH2 0x35B4 JUMP JUMPDEST SWAP1 POP SWAP2 SWAP1 POP JUMP JUMPDEST PUSH32 0x696E73756666696369656E7420656D6D697373696F6E2062616C616E63650000 PUSH0 DUP3 ADD MSTORE POP JUMP JUMPDEST PUSH0 PUSH2 0x3628 PUSH1 0x1E DUP4 PUSH2 0x24E5 JUMP JUMPDEST SWAP2 POP PUSH2 0x3633 DUP3 PUSH2 0x35F4 JUMP JUMPDEST PUSH1 0x20 DUP3 ADD SWAP1 POP SWAP2 SWAP1 POP JUMP JUMPDEST PUSH0 PUSH1 0x20 DUP3 ADD SWAP1 POP DUP2 DUP2 SUB PUSH0 DUP4 ADD MSTORE PUSH2 0x3655 DUP2 PUSH2 0x361C JUMP JUMPDEST SWAP1 POP SWAP2 SWAP1 POP JUMP JUMPDEST PUSH0 PUSH0 REVERT JUMPDEST PUSH32 0x4E487B7100000000000000000000000000000000000000000000000000000000 PUSH0 MSTORE PUSH1 0x41 PUSH1 0x4 MSTORE PUSH1 0x24 PUSH0 REVERT JUMPDEST PUSH2 0x3696 DUP3 PUSH2 0x2503 JUMP JUMPDEST DUP2 ADD DUP2 DUP2 LT PUSH8 0xFFFFFFFFFFFFFFFF DUP3 GT OR ISZERO PUSH2 0x36B5 JUMPI PUSH2 0x36B4 PUSH2 0x3660 JUMP JUMPDEST JUMPDEST DUP1 PUSH1 0x40 MSTORE POP POP POP JUMP JUMPDEST PUSH0 PUSH2 0x36C7 PUSH2 0x256B JUMP JUMPDEST SWAP1 POP PUSH2 0x36D3 DUP3 DUP3 PUSH2 0x368D JUMP JUMPDEST SWAP2 SWAP1 POP JUMP JUMPDEST PUSH1 0x3 DUP2 LT PUSH2 0x36E4 JUMPI PUSH0 PUSH0 REVERT JUMPDEST POP JUMP JUMPDEST PUSH0 DUP2 MLOAD SWAP1 POP PUSH2 0x36F5 DUP2 PUSH2 0x36D8 JUMP JUMPDEST SWAP3 SWAP2 POP POP JUMP JUMPDEST PUSH1 0x2 DUP2 LT PUSH2 0x3707 JUMPI PUSH0 PUSH0 REVERT JUMPDEST POP JUMP JUMPDEST PUSH0 DUP2 MLOAD SWAP1 POP PUSH2 0x3718 DUP2 PUSH2 0x36FB JUMP JUMPDEST SWAP3 SWAP2 POP POP JUMP JUMPDEST PUSH1 0x4 DUP2 LT PUSH2 0x372A JUMPI PUSH0 PUSH0 REVERT JUMPDEST POP JUMP JUMPDEST PUSH0 DUP2 MLOAD SWAP1 POP PUSH2 0x373B DUP2 PUSH2 0x371E JUMP JUMPDEST SWAP3 SWAP2 POP POP JUMP JUMPDEST PUSH0 PUSH1 0xC0 DUP3 DUP5 SUB SLT ISZERO PUSH2 0x3756 JUMPI PUSH2 0x3755 PUSH2 0x365C JUMP JUMPDEST JUMPDEST PUSH2 0x3760 PUSH1 0xC0 PUSH2 0x36BE JUMP JUMPDEST SWAP1 POP PUSH0 PUSH2 0x376F DUP5 DUP3 DUP6 ADD PUSH2 0x372D JUMP JUMPDEST PUSH0 DUP4 ADD MSTORE POP PUSH1 0x20 PUSH2 0x3782 DUP5 DUP3 DUP6 ADD PUSH2 0x2DBB JUMP JUMPDEST PUSH1 0x20 DUP4 ADD MSTORE POP PUSH1 0x40 PUSH2 0x3796 DUP5 DUP3 DUP6 ADD PUSH2 0x2DBB JUMP JUMPDEST PUSH1 0x40 DUP4 ADD MSTORE POP PUSH1 0x60 PUSH2 0x37AA DUP5 DUP3 DUP6 ADD PUSH2 0x2DBB JUMP JUMPDEST PUSH1 0x60 DUP4 ADD MSTORE POP PUSH1 0x80 PUSH2 0x37BE DUP5 DUP3 DUP6 ADD PUSH2 0x2DBB JUMP JUMPDEST PUSH1 0x80 DUP4 ADD MSTORE POP PUSH1 0xA0 PUSH2 0x37D2 DUP5 DUP3 DUP6 ADD PUSH2 0x2DBB JUMP JUMPDEST PUSH1 0xA0 DUP4 ADD MSTORE POP SWAP3 SWAP2 POP POP JUMP JUMPDEST PUSH0 PUSH1 0x40 DUP3 DUP5 SUB SLT ISZERO PUSH2 0x37F3 JUMPI PUSH2 0x37F2 PUSH2 0x365C JUMP JUMPDEST JUMPDEST PUSH2 0x37FD PUSH1 0x40 PUSH2 0x36BE JUMP JUMPDEST SWAP1 POP PUSH0 PUSH2 0x380C DUP5 DUP3 DUP6 ADD PUSH2 0x2DBB JUMP JUMPDEST PUSH0 DUP4 ADD MSTORE POP PUSH1 0x20 PUSH2 0x381F DUP5 DUP3 DUP6 ADD PUSH2 0x2DBB JUMP JUMPDEST PUSH1 0x20 DUP4 ADD MSTORE POP SWAP3 SWAP2 POP POP JUMP JUMPDEST PUSH0 PUSH2 0x2C0 DUP3 DUP5 SUB SLT ISZERO PUSH2 0x3841 JUMPI PUSH2 0x3840 PUSH2 0x365C JUMP JUMPDEST JUMPDEST PUSH2 0x384C PUSH2 0x160 PUSH2 0x36BE JUMP JUMPDEST SWAP1 POP PUSH0 PUSH2 0x385B DUP5 DUP3 DUP6 ADD PUSH2 0x2DBB JUMP JUMPDEST PUSH0 DUP4 ADD MSTORE POP PUSH1 0x20 PUSH2 0x386E DUP5 DUP3 DUP6 ADD PUSH2 0x2B4C JUMP JUMPDEST PUSH1 0x20 DUP4 ADD MSTORE POP PUSH1 0x40 PUSH2 0x3882 DUP5 DUP3 DUP6 ADD PUSH2 0x2B4C JUMP JUMPDEST PUSH1 0x40 DUP4 ADD MSTORE POP PUSH1 0x60 PUSH2 0x3896 DUP5 DUP3 DUP6 ADD PUSH2 0x2DBB JUMP JUMPDEST PUSH1 0x60 DUP4 ADD MSTORE POP PUSH1 0x80 PUSH2 0x38AA DUP5 DUP3 DUP6 ADD PUSH2 0x2DBB JUMP JUMPDEST PUSH1 0x80 DUP4 ADD MSTORE POP PUSH1 0xA0 PUSH2 0x38BE DUP5 DUP3 DUP6 ADD PUSH2 0x36E7 JUMP JUMPDEST PUSH1 0xA0 DUP4 ADD MSTORE POP PUSH1 0xC0 PUSH2 0x38D2 DUP5 DUP3 DUP6 ADD PUSH2 0x2B4C JUMP JUMPDEST PUSH1 0xC0 DUP4 ADD MSTORE POP PUSH1 0xE0 PUSH2 0x38E6 DUP5 DUP3 DUP6 ADD PUSH2 0x370A JUMP JUMPDEST PUSH1 0xE0 DUP4 ADD MSTORE POP PUSH2 0x100 PUSH2 0x38FB DUP5 DUP3 DUP6 ADD PUSH2 0x3741 JUMP JUMPDEST PUSH2 0x100 DUP4 ADD MSTORE POP PUSH2 0x1C0 PUSH2 0x3911 DUP5 DUP3 DUP6 ADD PUSH2 0x3741 JUMP JUMPDEST PUSH2 0x120 DUP4 ADD MSTORE POP PUSH2 0x280 PUSH2 0x3927 DUP5 DUP3 DUP6 ADD PUSH2 0x37DE JUMP JUMPDEST PUSH2 0x140 DUP4 ADD MSTORE POP SWAP3 SWAP2 POP POP JUMP JUMPDEST PUSH0 PUSH2 0x3A0 DUP3 DUP5 SUB SLT ISZERO PUSH2 0x394A JUMPI PUSH2 0x3949 PUSH2 0x365C JUMP JUMPDEST JUMPDEST PUSH2 0x3955 PUSH2 0x100 PUSH2 0x36BE JUMP JUMPDEST SWAP1 POP PUSH0 PUSH2 0x3964 DUP5 DUP3 DUP6 ADD PUSH2 0x2DBB JUMP JUMPDEST PUSH0 DUP4 ADD MSTORE POP PUSH1 0x20 PUSH2 0x3977 DUP5 DUP3 DUP6 ADD PUSH2 0x2B4C JUMP JUMPDEST PUSH1 0x20 DUP4 ADD MSTORE POP PUSH1 0x40 PUSH2 0x398B DUP5 DUP3 DUP6 ADD PUSH2 0x2B4C JUMP JUMPDEST PUSH1 0x40 DUP4 ADD MSTORE POP PUSH1 0x60 PUSH2 0x399F DUP5 DUP3 DUP6 ADD PUSH2 0x2B4C JUMP JUMPDEST PUSH1 0x60 DUP4 ADD MSTORE POP PUSH1 0x80 PUSH2 0x39B3 DUP5 DUP3 DUP6 ADD PUSH2 0x2B4C JUMP JUMPDEST PUSH1 0x80 DUP4 ADD MSTORE POP PUSH1 0xA0 PUSH2 0x39C7 DUP5 DUP3 DUP6 ADD PUSH2 0x2DBB JUMP JUMPDEST PUSH1 0xA0 DUP4 ADD MSTORE POP PUSH1 0xC0 PUSH2 0x39DB DUP5 DUP3 DUP6 ADD PUSH2 0x2DBB JUMP JUMPDEST PUSH1 0xC0 DUP4 ADD MSTORE POP PUSH1 0xE0 PUSH2 0x39EF DUP5 DUP3 DUP6 ADD PUSH2 0x382B JUMP JUMPDEST PUSH1 0xE0 DUP4 ADD MSTORE POP SWAP3 SWAP2 POP POP JUMP JUMPDEST PUSH0 PUSH2 0x3A0 DUP3 DUP5 SUB SLT ISZERO PUSH2 0x3A11 JUMPI PUSH2 0x3A10 PUSH2 0x2574 JUMP JUMPDEST JUMPDEST PUSH0 PUSH2 0x3A1E DUP5 DUP3 DUP6 ADD PUSH2 0x3934 JUMP JUMPDEST SWAP2 POP POP SWAP3 SWAP2 POP POP JUMP JUMPDEST PUSH1 0x8 DUP2 LT PUSH2 0x3A38 JUMPI PUSH2 0x3A37 PUSH2 0x25F4 JUMP JUMPDEST JUMPDEST POP JUMP JUMPDEST PUSH0 DUP2 SWAP1 POP PUSH2 0x3A48 DUP3 PUSH2 0x3A27 JUMP JUMPDEST SWAP2 SWAP1 POP JUMP JUMPDEST PUSH0 PUSH2 0x3A57 DUP3 PUSH2 0x3A3B JUMP JUMPDEST SWAP1 POP SWAP2 SWAP1 POP JUMP JUMPDEST PUSH2 0x3A67 DUP2 PUSH2 0x3A4D JUMP JUMPDEST DUP3 MSTORE POP POP JUMP JUMPDEST PUSH0 PUSH1 0xA0 DUP3 ADD SWAP1 POP PUSH2 0x3A80 PUSH0 DUP4 ADD DUP9 PUSH2 0x3A5E JUMP JUMPDEST PUSH2 0x3A8D PUSH1 0x20 DUP4 ADD DUP8 PUSH2 0x24B3 JUMP JUMPDEST PUSH2 0x3A9A PUSH1 0x40 DUP4 ADD DUP7 PUSH2 0x2D93 JUMP JUMPDEST PUSH2 0x3AA7 PUSH1 0x60 DUP4 ADD DUP6 PUSH2 0x24B3 JUMP JUMPDEST PUSH2 0x3AB4 PUSH1 0x80 DUP4 ADD DUP5 PUSH2 0x2D93 JUMP JUMPDEST SWAP7 SWAP6 POP POP POP POP POP POP JUMP JUMPDEST PUSH0 PUSH2 0x3AC8 DUP3 PUSH2 0x24AA JUMP JUMPDEST SWAP2 POP PUSH2 0x3AD3 DUP4 PUSH2 0x24AA JUMP JUMPDEST SWAP3 POP DUP3 DUP3 MUL PUSH2 0x3AE1 DUP2 PUSH2 0x24AA JUMP JUMPDEST SWAP2 POP DUP3 DUP3 DIV DUP5 EQ DUP4 ISZERO OR PUSH2 0x3AF8 JUMPI PUSH2 0x3AF7 PUSH2 0x3089 JUMP JUMPDEST JUMPDEST POP SWAP3 SWAP2 POP POP JUMP INVALID LOG2 PUSH5 0x6970667358 0x22 SLT KECCAK256 0xCA DUP13 AND 0xC0 0xDD 0xD2 CREATE 0xA6 CALLDATASIZE 0x1E DUP4 SHR BASEFEE SAR PUSH10 0x9BB3162A5D3894719FD0 0xCA PUSH9 0xAA7E8033B764736F6C PUSH4 0x4300081E STOP CALLER "
				},
				"gasEstimates": {
					"creation": {
						"codeDepositCost": "3031400",
						"executionCost": "infinite",
						"totalCost": "infinite"
					},
					"external": {
						"close()": "infinite",
						"contribute(uint256)": "infinite",
						"drawdown()": "infinite",
						"getBalance()": "2455",
						"getName()": "infinite",
						"getPension()": "infinite",
						"getStatus()": "2722",
						"getTx(uint256)": "infinite",
						"getVersion()": "333",
						"pull(uint256)": "infinite",
						"push(uint256,uint256,uint256)": "infinite",
						"withdraw(address)": "infinite"
					},
					"internal": {
						"addTx(enum TxType,uint256,uint256,address)": "infinite",
						"checkMaturity()": "infinite",
						"checkSettlement()": "infinite",
						"getPensionInternal()": "infinite",
						"getSeconds(enum Schedule)": "infinite"
					}
				},
				"methodIdentifiers": {
					"close()": "43d726d6",
					"contribute(uint256)": "c1cbbca7",
					"drawdown()": "e77ef21f",
					"getBalance()": "12065fe0",
					"getName()": "17d7de7c",
					"getPension()": "73488018",
					"getStatus()": "4e69d560",
					"getTx(uint256)": "b8c89338",
					"getVersion()": "0d8e6e2c",
					"pull(uint256)": "4d0392a8",
					"push(uint256,uint256,uint256)": "9f08c755",
					"withdraw(address)": "51cff8d9"
				}
			},
			"storageLayout": {
				"storage": [
					{
						"astId": 164,
						"contract": "contracts/core/MPensionVault.sol:MPensionVault",
						"label": "locked",
						"offset": 0,
						"slot": "0",
						"type": "t_bool"
					},
					{
						"astId": 167,
						"contract": "contracts/core/MPensionVault.sol:MPensionVault",
						"label": "status",
						"offset": 1,
						"slot": "0",
						"type": "t_enum(MPStatus)1280"
					},
					{
						"astId": 170,
						"contract": "contracts/core/MPensionVault.sol:MPensionVault",
						"label": "scheduleStatus",
						"offset": 2,
						"slot": "0",
						"type": "t_enum(MPScheduleStatus)1283"
					},
					{
						"astId": 173,
						"contract": "contracts/core/MPensionVault.sol:MPensionVault",
						"label": "register",
						"offset": 3,
						"slot": "0",
						"type": "t_contract(IRegister)1260"
					},
					{
						"astId": 175,
						"contract": "contracts/core/MPensionVault.sol:MPensionVault",
						"label": "contributions",
						"offset": 0,
						"slot": "1",
						"type": "t_uint256"
					},
					{
						"astId": 177,
						"contract": "contracts/core/MPensionVault.sol:MPensionVault",
						"label": "pensionBalance",
						"offset": 0,
						"slot": "2",
						"type": "t_uint256"
					},
					{
						"astId": 179,
						"contract": "contracts/core/MPensionVault.sol:MPensionVault",
						"label": "emissionBalance",
						"offset": 0,
						"slot": "3",
						"type": "t_uint256"
					},
					{
						"astId": 181,
						"contract": "contracts/core/MPensionVault.sol:MPensionVault",
						"label": "lastContribution",
						"offset": 0,
						"slot": "4",
						"type": "t_uint256"
					},
					{
						"astId": 183,
						"contract": "contracts/core/MPensionVault.sol:MPensionVault",
						"label": "lastPull",
						"offset": 0,
						"slot": "5",
						"type": "t_uint256"
					},
					{
						"astId": 185,
						"contract": "contracts/core/MPensionVault.sol:MPensionVault",
						"label": "issuedPrincipal",
						"offset": 0,
						"slot": "6",
						"type": "t_uint256"
					},
					{
						"astId": 187,
						"contract": "contracts/core/MPensionVault.sol:MPensionVault",
						"label": "isInTreasury",
						"offset": 0,
						"slot": "7",
						"type": "t_bool"
					},
					{
						"astId": 192,
						"contract": "contracts/core/MPensionVault.sol:MPensionVault",
						"label": "txIdsByTreasuryId",
						"offset": 0,
						"slot": "8",
						"type": "t_mapping(t_uint256,t_array(t_uint256)dyn_storage)"
					}
				],
				"types": {
					"t_array(t_uint256)dyn_storage": {
						"base": "t_uint256",
						"encoding": "dynamic_array",
						"label": "uint256[]",
						"numberOfBytes": "32"
					},
					"t_bool": {
						"encoding": "inplace",
						"label": "bool",
						"numberOfBytes": "1"
					},
					"t_contract(IRegister)1260": {
						"encoding": "inplace",
						"label": "contract IRegister",
						"numberOfBytes": "20"
					},
					"t_enum(MPScheduleStatus)1283": {
						"encoding": "inplace",
						"label": "enum MPScheduleStatus",
						"numberOfBytes": "1"
					},
					"t_enum(MPStatus)1280": {
						"encoding": "inplace",
						"label": "enum MPStatus",
						"numberOfBytes": "1"
					},
					"t_mapping(t_uint256,t_array(t_uint256)dyn_storage)": {
						"encoding": "mapping",
						"key": "t_uint256",
						"label": "mapping(uint256 => uint256[])",
						"numberOfBytes": "32",
						"value": "t_array(t_uint256)dyn_storage"
					},
					"t_uint256": {
						"encoding": "inplace",
						"label": "uint256",
						"numberOfBytes": "32"
					}
				}
			},
			"userdoc": {
				"kind": "user",
				"methods": {},
				"version": 1
			}
		}
	}
}