{
	"contracts/core/MPensionVault_flattened.sol": {
		"MPensionVault": {
			"abi": [
				{
					"inputs": [
						{
							"internalType": "address",
							"name": "_register",
							"type": "address"
						},
						{
							"internalType": "uint256",
							"name": "_mPensionId",
							"type": "uint256"
						}
					],
					"stateMutability": "nonpayable",
					"type": "constructor"
				},
				{
					"inputs": [],
					"name": "close",
					"outputs": [
						{
							"internalType": "uint256",
							"name": "_txId",
							"type": "uint256"
						}
					],
					"stateMutability": "nonpayable",
					"type": "function"
				},
				{
					"inputs": [
						{
							"internalType": "uint256",
							"name": "_amount",
							"type": "uint256"
						}
					],
					"name": "contribute",
					"outputs": [
						{
							"internalType": "uint256",
							"name": "_txId",
							"type": "uint256"
						}
					],
					"stateMutability": "payable",
					"type": "function"
				},
				{
					"inputs": [],
					"name": "drawdown",
					"outputs": [
						{
							"internalType": "uint256",
							"name": "_txId",
							"type": "uint256"
						}
					],
					"stateMutability": "nonpayable",
					"type": "function"
				},
				{
					"inputs": [],
					"name": "getBalance",
					"outputs": [
						{
							"internalType": "uint256",
							"name": "_balance",
							"type": "uint256"
						}
					],
					"stateMutability": "view",
					"type": "function"
				},
				{
					"inputs": [],
					"name": "getName",
					"outputs": [
						{
							"internalType": "string",
							"name": "_name",
							"type": "string"
						}
					],
					"stateMutability": "pure",
					"type": "function"
				},
				{
					"inputs": [],
					"name": "getPension",
					"outputs": [
						{
							"components": [
								{
									"internalType": "uint256",
									"name": "id",
									"type": "uint256"
								},
								{
									"internalType": "address",
									"name": "creator",
									"type": "address"
								},
								{
									"internalType": "address",
									"name": "owner",
									"type": "address"
								},
								{
									"internalType": "address",
									"name": "vault",
									"type": "address"
								},
								{
									"internalType": "uint256",
									"name": "maturityDate",
									"type": "uint256"
								},
								{
									"internalType": "uint256",
									"name": "dissolutionDate",
									"type": "uint256"
								},
								{
									"components": [
										{
											"internalType": "uint256",
											"name": "id",
											"type": "uint256"
										},
										{
											"internalType": "address",
											"name": "provider",
											"type": "address"
										},
										{
											"internalType": "address",
											"name": "erc20",
											"type": "address"
										},
										{
											"internalType": "uint256",
											"name": "totalContribution",
											"type": "uint256"
										},
										{
											"internalType": "uint256",
											"name": "principalOnMaturity",
											"type": "uint256"
										},
										{
											"internalType": "uint256",
											"name": "interest",
											"type": "uint256"
										},
										{
											"internalType": "enum RiskType",
											"name": "riskType",
											"type": "uint8"
										},
										{
											"components": [
												{
													"internalType": "enum Schedule",
													"name": "schedule",
													"type": "uint8"
												},
												{
													"internalType": "uint256",
													"name": "term",
													"type": "uint256"
												},
												{
													"internalType": "uint256",
													"name": "minimumAmount",
													"type": "uint256"
												},
												{
													"internalType": "uint256",
													"name": "maximumAmount",
													"type": "uint256"
												},
												{
													"internalType": "uint256",
													"name": "totalIntervals",
													"type": "uint256"
												},
												{
													"internalType": "uint256",
													"name": "totalAmount",
													"type": "uint256"
												}
											],
											"internalType": "struct FinancialSchedule",
											"name": "contributionSchedule",
											"type": "tuple"
										},
										{
											"components": [
												{
													"internalType": "enum Schedule",
													"name": "schedule",
													"type": "uint8"
												},
												{
													"internalType": "uint256",
													"name": "term",
													"type": "uint256"
												},
												{
													"internalType": "uint256",
													"name": "minimumAmount",
													"type": "uint256"
												},
												{
													"internalType": "uint256",
													"name": "maximumAmount",
													"type": "uint256"
												},
												{
													"internalType": "uint256",
													"name": "totalIntervals",
													"type": "uint256"
												},
												{
													"internalType": "uint256",
													"name": "totalAmount",
													"type": "uint256"
												}
											],
											"internalType": "struct FinancialSchedule",
											"name": "emissionSchedule",
											"type": "tuple"
										},
										{
											"components": [
												{
													"internalType": "uint256",
													"name": "maxGainPercentage",
													"type": "uint256"
												},
												{
													"internalType": "uint256",
													"name": "maxLossPercentage",
													"type": "uint256"
												}
											],
											"internalType": "struct Tolerance",
											"name": "tolerance",
											"type": "tuple"
										},
										{
											"internalType": "uint256",
											"name": "createdDate",
											"type": "uint256"
										},
										{
											"internalType": "uint256",
											"name": "expiryDate",
											"type": "uint256"
										},
										{
											"internalType": "uint256",
											"name": "units",
											"type": "uint256"
										}
									],
									"internalType": "struct MPProduct",
									"name": "product",
									"type": "tuple"
								}
							],
							"internalType": "struct MPension",
							"name": "_mPension",
							"type": "tuple"
						}
					],
					"stateMutability": "view",
					"type": "function"
				},
				{
					"inputs": [],
					"name": "getStatus",
					"outputs": [
						{
							"internalType": "enum MPStatus",
							"name": "_status",
							"type": "uint8"
						}
					],
					"stateMutability": "view",
					"type": "function"
				},
				{
					"inputs": [
						{
							"internalType": "uint256",
							"name": "_treasuryId",
							"type": "uint256"
						}
					],
					"name": "getTx",
					"outputs": [
						{
							"internalType": "uint256[]",
							"name": "_txId",
							"type": "uint256[]"
						}
					],
					"stateMutability": "view",
					"type": "function"
				},
				{
					"inputs": [],
					"name": "getVersion",
					"outputs": [
						{
							"internalType": "uint256",
							"name": "_version",
							"type": "uint256"
						}
					],
					"stateMutability": "pure",
					"type": "function"
				},
				{
					"inputs": [],
					"name": "notifyChangeOfAddress",
					"outputs": [
						{
							"internalType": "bool",
							"name": "_acknowledged",
							"type": "bool"
						}
					],
					"stateMutability": "nonpayable",
					"type": "function"
				},
				{
					"inputs": [
						{
							"internalType": "uint256",
							"name": "_treasuryId",
							"type": "uint256"
						}
					],
					"name": "pull",
					"outputs": [
						{
							"internalType": "uint256",
							"name": "_principal",
							"type": "uint256"
						},
						{
							"internalType": "uint256",
							"name": "_txId",
							"type": "uint256"
						}
					],
					"stateMutability": "nonpayable",
					"type": "function"
				},
				{
					"inputs": [
						{
							"internalType": "uint256",
							"name": "_treasuryId",
							"type": "uint256"
						},
						{
							"internalType": "uint256",
							"name": "_principal",
							"type": "uint256"
						},
						{
							"internalType": "uint256",
							"name": "_earnings",
							"type": "uint256"
						}
					],
					"name": "push",
					"outputs": [
						{
							"internalType": "uint256",
							"name": "_txId",
							"type": "uint256"
						}
					],
					"stateMutability": "payable",
					"type": "function"
				},
				{
					"inputs": [
						{
							"internalType": "address",
							"name": "_erc20",
							"type": "address"
						}
					],
					"name": "withdraw",
					"outputs": [
						{
							"internalType": "uint256",
							"name": "_amount",
							"type": "uint256"
						}
					],
					"stateMutability": "nonpayable",
					"type": "function"
				}
			],
			"devdoc": {
				"kind": "dev",
				"methods": {},
				"version": 1
			},
			"evm": {
				"assembly": "    /* \"contracts/core/MPensionVault_flattened.sol\":8198:18851  contract MPensionVault is IMPensionVault, IVersion { ... */\n  mstore(0x40, 0xc0)\n    /* \"contracts/core/MPensionVault_flattened.sol\":9839:10042  constructor(address _register, uint256 _mPensionId) {... */\n  callvalue\n  dup1\n  iszero\n  tag_1\n  jumpi\n  revert(0x00, 0x00)\ntag_1:\n  pop\n  mload(0x40)\n  sub(codesize, bytecodeSize)\n  dup1\n  bytecodeSize\n  dup4\n  codecopy\n  dup2\n  dup2\n  add\n  0x40\n  mstore\n  dup2\n  add\n  swap1\n  tag_2\n  swap2\n  swap1\n  tag_3\n  jump\t// in\ntag_2:\n    /* \"contracts/core/MPensionVault_flattened.sol\":9923:9932  _register */\n  dup2\n    /* \"contracts/core/MPensionVault_flattened.sol\":9902:9910  register */\n  0x00\n  0x03\n    /* \"contracts/core/MPensionVault_flattened.sol\":9902:9933  register = IRegister(_register) */\n  0x0100\n  exp\n  dup2\n  sload\n  dup2\n  0xffffffffffffffffffffffffffffffffffffffff\n  mul\n  not\n  and\n  swap1\n  dup4\n  0xffffffffffffffffffffffffffffffffffffffff\n  and\n  mul\n  or\n  swap1\n  sstore\n  pop\n    /* \"contracts/core/MPensionVault_flattened.sol\":9957:9968  _mPensionId */\n  dup1\n    /* \"contracts/core/MPensionVault_flattened.sol\":9945:9968  pensionId = _mPensionId */\n  0x80\n  dup2\n  dup2\n  mstore\n  pop\n  pop\n    /* \"contracts/core/MPensionVault_flattened.sol\":9989:10002  MPStatus.OPEN */\n  0x00\n    /* \"contracts/core/MPensionVault_flattened.sol\":9980:9986  status */\n  0x00\n  0x01\n    /* \"contracts/core/MPensionVault_flattened.sol\":9980:10002  status = MPStatus.OPEN */\n  0x0100\n  exp\n  dup2\n  sload\n  dup2\n  0xff\n  mul\n  not\n  and\n  swap1\n  dup4\n  0x03\n  dup2\n  gt\n  iszero\n  tag_6\n  jumpi\n  tag_7\n  tag_8\n  jump\t// in\ntag_7:\ntag_6:\n  mul\n  or\n  swap1\n  sstore\n  pop\n    /* \"contracts/core/MPensionVault_flattened.sol\":10029:10033  this */\n  address\n    /* \"contracts/core/MPensionVault_flattened.sol\":10014:10034  self = address(this) */\n  0xffffffffffffffffffffffffffffffffffffffff\n  and\n  0xa0\n  dup2\n  0xffffffffffffffffffffffffffffffffffffffff\n  and\n  dup2\n  mstore\n  pop\n  pop\n    /* \"contracts/core/MPensionVault_flattened.sol\":9839:10042  constructor(address _register, uint256 _mPensionId) {... */\n  pop\n  pop\n    /* \"contracts/core/MPensionVault_flattened.sol\":8198:18851  contract MPensionVault is IMPensionVault, IVersion { ... */\n  jump(tag_9)\n    /* \"#utility.yul\":88:205   */\ntag_11:\n    /* \"#utility.yul\":197:198   */\n  0x00\n    /* \"#utility.yul\":194:195   */\n  0x00\n    /* \"#utility.yul\":187:199   */\n  revert\n    /* \"#utility.yul\":334:460   */\ntag_13:\n    /* \"#utility.yul\":371:378   */\n  0x00\n    /* \"#utility.yul\":411:453   */\n  0xffffffffffffffffffffffffffffffffffffffff\n    /* \"#utility.yul\":404:409   */\n  dup3\n    /* \"#utility.yul\":400:454   */\n  and\n    /* \"#utility.yul\":389:454   */\n  swap1\n  pop\n    /* \"#utility.yul\":334:460   */\n  swap2\n  swap1\n  pop\n  jump\t// out\n    /* \"#utility.yul\":466:562   */\ntag_14:\n    /* \"#utility.yul\":503:510   */\n  0x00\n    /* \"#utility.yul\":532:556   */\n  tag_26\n    /* \"#utility.yul\":550:555   */\n  dup3\n    /* \"#utility.yul\":532:556   */\n  tag_13\n  jump\t// in\ntag_26:\n    /* \"#utility.yul\":521:556   */\n  swap1\n  pop\n    /* \"#utility.yul\":466:562   */\n  swap2\n  swap1\n  pop\n  jump\t// out\n    /* \"#utility.yul\":568:690   */\ntag_15:\n    /* \"#utility.yul\":641:665   */\n  tag_28\n    /* \"#utility.yul\":659:664   */\n  dup2\n    /* \"#utility.yul\":641:665   */\n  tag_14\n  jump\t// in\ntag_28:\n    /* \"#utility.yul\":634:639   */\n  dup2\n    /* \"#utility.yul\":631:666   */\n  eq\n    /* \"#utility.yul\":621:684   */\n  tag_29\n  jumpi\n    /* \"#utility.yul\":680:681   */\n  0x00\n    /* \"#utility.yul\":677:678   */\n  0x00\n    /* \"#utility.yul\":670:682   */\n  revert\n    /* \"#utility.yul\":621:684   */\ntag_29:\n    /* \"#utility.yul\":568:690   */\n  pop\n  jump\t// out\n    /* \"#utility.yul\":696:839   */\ntag_16:\n    /* \"#utility.yul\":753:758   */\n  0x00\n    /* \"#utility.yul\":784:790   */\n  dup2\n    /* \"#utility.yul\":778:791   */\n  mload\n    /* \"#utility.yul\":769:791   */\n  swap1\n  pop\n    /* \"#utility.yul\":800:833   */\n  tag_31\n    /* \"#utility.yul\":827:832   */\n  dup2\n    /* \"#utility.yul\":800:833   */\n  tag_15\n  jump\t// in\ntag_31:\n    /* \"#utility.yul\":696:839   */\n  swap3\n  swap2\n  pop\n  pop\n  jump\t// out\n    /* \"#utility.yul\":845:922   */\ntag_17:\n    /* \"#utility.yul\":882:889   */\n  0x00\n    /* \"#utility.yul\":911:916   */\n  dup2\n    /* \"#utility.yul\":900:916   */\n  swap1\n  pop\n    /* \"#utility.yul\":845:922   */\n  swap2\n  swap1\n  pop\n  jump\t// out\n    /* \"#utility.yul\":928:1050   */\ntag_18:\n    /* \"#utility.yul\":1001:1025   */\n  tag_34\n    /* \"#utility.yul\":1019:1024   */\n  dup2\n    /* \"#utility.yul\":1001:1025   */\n  tag_17\n  jump\t// in\ntag_34:\n    /* \"#utility.yul\":994:999   */\n  dup2\n    /* \"#utility.yul\":991:1026   */\n  eq\n    /* \"#utility.yul\":981:1044   */\n  tag_35\n  jumpi\n    /* \"#utility.yul\":1040:1041   */\n  0x00\n    /* \"#utility.yul\":1037:1038   */\n  0x00\n    /* \"#utility.yul\":1030:1042   */\n  revert\n    /* \"#utility.yul\":981:1044   */\ntag_35:\n    /* \"#utility.yul\":928:1050   */\n  pop\n  jump\t// out\n    /* \"#utility.yul\":1056:1199   */\ntag_19:\n    /* \"#utility.yul\":1113:1118   */\n  0x00\n    /* \"#utility.yul\":1144:1150   */\n  dup2\n    /* \"#utility.yul\":1138:1151   */\n  mload\n    /* \"#utility.yul\":1129:1151   */\n  swap1\n  pop\n    /* \"#utility.yul\":1160:1193   */\n  tag_37\n    /* \"#utility.yul\":1187:1192   */\n  dup2\n    /* \"#utility.yul\":1160:1193   */\n  tag_18\n  jump\t// in\ntag_37:\n    /* \"#utility.yul\":1056:1199   */\n  swap3\n  swap2\n  pop\n  pop\n  jump\t// out\n    /* \"#utility.yul\":1205:1712   */\ntag_3:\n    /* \"#utility.yul\":1284:1290   */\n  0x00\n    /* \"#utility.yul\":1292:1298   */\n  0x00\n    /* \"#utility.yul\":1341:1343   */\n  0x40\n    /* \"#utility.yul\":1329:1338   */\n  dup4\n    /* \"#utility.yul\":1320:1327   */\n  dup6\n    /* \"#utility.yul\":1316:1339   */\n  sub\n    /* \"#utility.yul\":1312:1344   */\n  slt\n    /* \"#utility.yul\":1309:1428   */\n  iszero\n  tag_39\n  jumpi\n    /* \"#utility.yul\":1347:1426   */\n  tag_40\n  tag_11\n  jump\t// in\ntag_40:\n    /* \"#utility.yul\":1309:1428   */\ntag_39:\n    /* \"#utility.yul\":1467:1468   */\n  0x00\n    /* \"#utility.yul\":1492:1556   */\n  tag_41\n    /* \"#utility.yul\":1548:1555   */\n  dup6\n    /* \"#utility.yul\":1539:1545   */\n  dup3\n    /* \"#utility.yul\":1528:1537   */\n  dup7\n    /* \"#utility.yul\":1524:1546   */\n  add\n    /* \"#utility.yul\":1492:1556   */\n  tag_16\n  jump\t// in\ntag_41:\n    /* \"#utility.yul\":1482:1556   */\n  swap3\n  pop\n    /* \"#utility.yul\":1438:1566   */\n  pop\n    /* \"#utility.yul\":1605:1607   */\n  0x20\n    /* \"#utility.yul\":1631:1695   */\n  tag_42\n    /* \"#utility.yul\":1687:1694   */\n  dup6\n    /* \"#utility.yul\":1678:1684   */\n  dup3\n    /* \"#utility.yul\":1667:1676   */\n  dup7\n    /* \"#utility.yul\":1663:1685   */\n  add\n    /* \"#utility.yul\":1631:1695   */\n  tag_19\n  jump\t// in\ntag_42:\n    /* \"#utility.yul\":1621:1695   */\n  swap2\n  pop\n    /* \"#utility.yul\":1576:1705   */\n  pop\n    /* \"#utility.yul\":1205:1712   */\n  swap3\n  pop\n  swap3\n  swap1\n  pop\n  jump\t// out\n    /* \"#utility.yul\":1718:1898   */\ntag_8:\n    /* \"#utility.yul\":1766:1843   */\n  0x4e487b7100000000000000000000000000000000000000000000000000000000\n    /* \"#utility.yul\":1763:1764   */\n  0x00\n    /* \"#utility.yul\":1756:1844   */\n  mstore\n    /* \"#utility.yul\":1863:1867   */\n  0x21\n    /* \"#utility.yul\":1860:1861   */\n  0x04\n    /* \"#utility.yul\":1853:1868   */\n  mstore\n    /* \"#utility.yul\":1887:1891   */\n  0x24\n    /* \"#utility.yul\":1884:1885   */\n  0x00\n    /* \"#utility.yul\":1877:1892   */\n  revert\n    /* \"contracts/core/MPensionVault_flattened.sol\":8198:18851  contract MPensionVault is IMPensionVault, IVersion { ... */\ntag_9:\n  mload(0x80)\n  mload(0xa0)\n  codecopy(0x00, dataOffset(sub_0), dataSize(sub_0))\n  0x00\n  assignImmutable(\"0x9e1fb2b79e882622ed243a034292b4fa176df601f71d921cffbf6c845001c2b4\")\n  0x00\n  assignImmutable(\"0x42d683e394a4df18653c7650f8aa08cb69f6a4b0d0acad4653af662538b2a674\")\n  return(0x00, dataSize(sub_0))\nstop\n\nsub_0: assembly {\n        /* \"contracts/core/MPensionVault_flattened.sol\":8198:18851  contract MPensionVault is IMPensionVault, IVersion { ... */\n      mstore(0x40, 0x80)\n      jumpi(tag_1, lt(calldatasize, 0x04))\n      shr(0xe0, calldataload(0x00))\n      dup1\n      0x51cff8d9\n      gt\n      tag_15\n      jumpi\n      dup1\n      0xb8c89338\n      gt\n      tag_16\n      jumpi\n      dup1\n      0xb8c89338\n      eq\n      tag_11\n      jumpi\n      dup1\n      0xc1cbbca7\n      eq\n      tag_12\n      jumpi\n      dup1\n      0xcde4c10c\n      eq\n      tag_13\n      jumpi\n      dup1\n      0xe77ef21f\n      eq\n      tag_14\n      jumpi\n      jump(tag_1)\n    tag_16:\n      dup1\n      0x51cff8d9\n      eq\n      tag_8\n      jumpi\n      dup1\n      0x73488018\n      eq\n      tag_9\n      jumpi\n      dup1\n      0x9f08c755\n      eq\n      tag_10\n      jumpi\n      jump(tag_1)\n    tag_15:\n      dup1\n      0x0d8e6e2c\n      eq\n      tag_2\n      jumpi\n      dup1\n      0x12065fe0\n      eq\n      tag_3\n      jumpi\n      dup1\n      0x17d7de7c\n      eq\n      tag_4\n      jumpi\n      dup1\n      0x43d726d6\n      eq\n      tag_5\n      jumpi\n      dup1\n      0x4d0392a8\n      eq\n      tag_6\n      jumpi\n      dup1\n      0x4e69d560\n      eq\n      tag_7\n      jumpi\n    tag_1:\n      revert(0x00, 0x00)\n        /* \"contracts/core/MPensionVault_flattened.sol\":10153:10250  function getVersion() pure external returns (uint256 _version){ ... */\n    tag_2:\n      callvalue\n      dup1\n      iszero\n      tag_17\n      jumpi\n      revert(0x00, 0x00)\n    tag_17:\n      pop\n      tag_18\n      tag_19\n      jump\t// in\n    tag_18:\n      mload(0x40)\n      tag_20\n      swap2\n      swap1\n      tag_21\n      jump\t// in\n    tag_20:\n      mload(0x40)\n      dup1\n      swap2\n      sub\n      swap1\n      return\n        /* \"contracts/core/MPensionVault_flattened.sol\":10484:10587  function getBalance() view external returns (uint256 _balance){... */\n    tag_3:\n      callvalue\n      dup1\n      iszero\n      tag_22\n      jumpi\n      revert(0x00, 0x00)\n    tag_22:\n      pop\n      tag_23\n      tag_24\n      jump\t// in\n    tag_23:\n      mload(0x40)\n      tag_25\n      swap2\n      swap1\n      tag_21\n      jump\t// in\n    tag_25:\n      mload(0x40)\n      dup1\n      swap2\n      sub\n      swap1\n      return\n        /* \"contracts/core/MPensionVault_flattened.sol\":10050:10145  function getName() pure external returns (string memory _name) { ... */\n    tag_4:\n      callvalue\n      dup1\n      iszero\n      tag_26\n      jumpi\n      revert(0x00, 0x00)\n    tag_26:\n      pop\n      tag_27\n      tag_28\n      jump\t// in\n    tag_27:\n      mload(0x40)\n      tag_29\n      swap2\n      swap1\n      tag_30\n      jump\t// in\n    tag_29:\n      mload(0x40)\n      dup1\n      swap2\n      sub\n      swap1\n      return\n        /* \"contracts/core/MPensionVault_flattened.sol\":13124:13974  function close() external adminOnly semaphore returns (uint256 _txId){... */\n    tag_5:\n      callvalue\n      dup1\n      iszero\n      tag_31\n      jumpi\n      revert(0x00, 0x00)\n    tag_31:\n      pop\n      tag_32\n      tag_33\n      jump\t// in\n    tag_32:\n      mload(0x40)\n      tag_34\n      swap2\n      swap1\n      tag_21\n      jump\t// in\n    tag_34:\n      mload(0x40)\n      dup1\n      swap2\n      sub\n      swap1\n      return\n        /* \"contracts/core/MPensionVault_flattened.sol\":14552:15531  function pull(uint256 _treasuryId) external semaphore treasuryOnly returns (uint256 _principal, uint256 _txId){... */\n    tag_6:\n      callvalue\n      dup1\n      iszero\n      tag_35\n      jumpi\n      revert(0x00, 0x00)\n    tag_35:\n      pop\n      tag_36\n      0x04\n      dup1\n      calldatasize\n      sub\n      dup2\n      add\n      swap1\n      tag_37\n      swap2\n      swap1\n      tag_38\n      jump\t// in\n    tag_37:\n      tag_39\n      jump\t// in\n    tag_36:\n      mload(0x40)\n      tag_40\n      swap3\n      swap2\n      swap1\n      tag_41\n      jump\t// in\n    tag_40:\n      mload(0x40)\n      dup1\n      swap2\n      sub\n      swap1\n      return\n        /* \"contracts/core/MPensionVault_flattened.sol\":10258:10353  function getStatus() view external returns (MPStatus _status) {... */\n    tag_7:\n      callvalue\n      dup1\n      iszero\n      tag_42\n      jumpi\n      revert(0x00, 0x00)\n    tag_42:\n      pop\n      tag_43\n      tag_44\n      jump\t// in\n    tag_43:\n      mload(0x40)\n      tag_45\n      swap2\n      swap1\n      tag_46\n      jump\t// in\n    tag_45:\n      mload(0x40)\n      dup1\n      swap2\n      sub\n      swap1\n      return\n        /* \"contracts/core/MPensionVault_flattened.sol\":13982:14513  function withdraw(address _erc20) adminOnly external returns (uint256 _amount) {... */\n    tag_8:\n      callvalue\n      dup1\n      iszero\n      tag_47\n      jumpi\n      revert(0x00, 0x00)\n    tag_47:\n      pop\n      tag_48\n      0x04\n      dup1\n      calldatasize\n      sub\n      dup2\n      add\n      swap1\n      tag_49\n      swap2\n      swap1\n      tag_50\n      jump\t// in\n    tag_49:\n      tag_51\n      jump\t// in\n    tag_48:\n      mload(0x40)\n      tag_52\n      swap2\n      swap1\n      tag_21\n      jump\t// in\n    tag_52:\n      mload(0x40)\n      dup1\n      swap2\n      sub\n      swap1\n      return\n        /* \"contracts/core/MPensionVault_flattened.sol\":10361:10476  function getPension() view external returns (MPension memory _mPension){... */\n    tag_9:\n      callvalue\n      dup1\n      iszero\n      tag_53\n      jumpi\n      revert(0x00, 0x00)\n    tag_53:\n      pop\n      tag_54\n      tag_55\n      jump\t// in\n    tag_54:\n      mload(0x40)\n      tag_56\n      swap2\n      swap1\n      tag_57\n      jump\t// in\n    tag_56:\n      mload(0x40)\n      dup1\n      swap2\n      sub\n      swap1\n      return\n        /* \"contracts/core/MPensionVault_flattened.sol\":15540:16903  function push(uint256 _treasuryId, uint256 _principal, uint256 _earnings)  payable external semaphore treasuryOnly returns (uint256 _txId){... */\n    tag_10:\n      tag_58\n      0x04\n      dup1\n      calldatasize\n      sub\n      dup2\n      add\n      swap1\n      tag_59\n      swap2\n      swap1\n      tag_60\n      jump\t// in\n    tag_59:\n      tag_61\n      jump\t// in\n    tag_58:\n      mload(0x40)\n      tag_62\n      swap2\n      swap1\n      tag_21\n      jump\t// in\n    tag_62:\n      mload(0x40)\n      dup1\n      swap2\n      sub\n      swap1\n      return\n        /* \"contracts/core/MPensionVault_flattened.sol\":10595:10734  function getTx(uint256 _treasuryId) view external returns (uint256 [] memory _txId){... */\n    tag_11:\n      callvalue\n      dup1\n      iszero\n      tag_63\n      jumpi\n      revert(0x00, 0x00)\n    tag_63:\n      pop\n      tag_64\n      0x04\n      dup1\n      calldatasize\n      sub\n      dup2\n      add\n      swap1\n      tag_65\n      swap2\n      swap1\n      tag_38\n      jump\t// in\n    tag_65:\n      tag_66\n      jump\t// in\n    tag_64:\n      mload(0x40)\n      tag_67\n      swap2\n      swap1\n      tag_68\n      jump\t// in\n    tag_67:\n      mload(0x40)\n      dup1\n      swap2\n      sub\n      swap1\n      return\n        /* \"contracts/core/MPensionVault_flattened.sol\":10742:12073  function contribute(uint256 _amount) payable external semaphore returns (uint256 _txId){... */\n    tag_12:\n      tag_69\n      0x04\n      dup1\n      calldatasize\n      sub\n      dup2\n      add\n      swap1\n      tag_70\n      swap2\n      swap1\n      tag_38\n      jump\t// in\n    tag_70:\n      tag_71\n      jump\t// in\n    tag_69:\n      mload(0x40)\n      tag_72\n      swap2\n      swap1\n      tag_21\n      jump\t// in\n    tag_72:\n      mload(0x40)\n      dup1\n      swap2\n      sub\n      swap1\n      return\n        /* \"contracts/core/MPensionVault_flattened.sol\":16911:17089  function notifyChangeOfAddress() external adminOnly returns (bool _acknowledged) { ... */\n    tag_13:\n      callvalue\n      dup1\n      iszero\n      tag_73\n      jumpi\n      revert(0x00, 0x00)\n    tag_73:\n      pop\n      tag_74\n      tag_75\n      jump\t// in\n    tag_74:\n      mload(0x40)\n      tag_76\n      swap2\n      swap1\n      tag_77\n      jump\t// in\n    tag_76:\n      mload(0x40)\n      dup1\n      swap2\n      sub\n      swap1\n      return\n        /* \"contracts/core/MPensionVault_flattened.sol\":12081:13116  function drawdown() external ownerOnly semaphore returns (uint256 _txId){... */\n    tag_14:\n      callvalue\n      dup1\n      iszero\n      tag_78\n      jumpi\n      revert(0x00, 0x00)\n    tag_78:\n      pop\n      tag_79\n      tag_80\n      jump\t// in\n    tag_79:\n      mload(0x40)\n      tag_81\n      swap2\n      swap1\n      tag_21\n      jump\t// in\n    tag_81:\n      mload(0x40)\n      dup1\n      swap2\n      sub\n      swap1\n      return\n        /* \"contracts/core/MPensionVault_flattened.sol\":10153:10250  function getVersion() pure external returns (uint256 _version){ ... */\n    tag_19:\n        /* \"contracts/core/MPensionVault_flattened.sol\":10198:10214  uint256 _version */\n      0x00\n        /* \"contracts/core/MPensionVault_flattened.sol\":8896:8897  2 */\n      0x02\n        /* \"contracts/core/MPensionVault_flattened.sol\":10227:10241  return version */\n      swap1\n      pop\n        /* \"contracts/core/MPensionVault_flattened.sol\":10153:10250  function getVersion() pure external returns (uint256 _version){ ... */\n      swap1\n      jump\t// out\n        /* \"contracts/core/MPensionVault_flattened.sol\":10484:10587  function getBalance() view external returns (uint256 _balance){... */\n    tag_24:\n        /* \"contracts/core/MPensionVault_flattened.sol\":10529:10545  uint256 _balance */\n      0x00\n        /* \"contracts/core/MPensionVault_flattened.sol\":10564:10578  pensionBalance */\n      sload(0x02)\n        /* \"contracts/core/MPensionVault_flattened.sol\":10557:10578  return pensionBalance */\n      swap1\n      pop\n        /* \"contracts/core/MPensionVault_flattened.sol\":10484:10587  function getBalance() view external returns (uint256 _balance){... */\n      swap1\n      jump\t// out\n        /* \"contracts/core/MPensionVault_flattened.sol\":10050:10145  function getName() pure external returns (string memory _name) { ... */\n    tag_28:\n        /* \"contracts/core/MPensionVault_flattened.sol\":10092:10111  string memory _name */\n      0x60\n        /* \"contracts/core/MPensionVault_flattened.sol\":10132:10136  name */\n      mload(0x40)\n      dup1\n      0x40\n      add\n      0x40\n      mstore\n      dup1\n      0x17\n      dup2\n      mstore\n      0x20\n      add\n      0x4d4544414c4c494f4e5f50454e53494f4e5f5641554c54000000000000000000\n      dup2\n      mstore\n      pop\n        /* \"contracts/core/MPensionVault_flattened.sol\":10125:10136  return name */\n      swap1\n      pop\n        /* \"contracts/core/MPensionVault_flattened.sol\":10050:10145  function getName() pure external returns (string memory _name) { ... */\n      swap1\n      jump\t// out\n        /* \"contracts/core/MPensionVault_flattened.sol\":13124:13974  function close() external adminOnly semaphore returns (uint256 _txId){... */\n    tag_33:\n        /* \"contracts/core/MPensionVault_flattened.sol\":13179:13192  uint256 _txId */\n      0x00\n        /* \"contracts/core/MPensionVault_flattened.sol\":8589:8597  register */\n      0x00\n      0x03\n      swap1\n      sload\n      swap1\n      0x0100\n      exp\n      swap1\n      div\n      0xffffffffffffffffffffffffffffffffffffffff\n      and\n        /* \"contracts/core/MPensionVault_flattened.sol\":8589:8608  register.getAddress */\n      0xffffffffffffffffffffffffffffffffffffffff\n      and\n      0xbf40fac1\n        /* \"contracts/core/MPensionVault_flattened.sol\":8609:8625  PENSION_ADMIN_CA */\n      mload(0x40)\n      dup1\n      0x40\n      add\n      0x40\n      mstore\n      dup1\n      0x11\n      dup2\n      mstore\n      0x20\n      add\n      0x52455345525645445f4d505f41444d494e000000000000000000000000000000\n      dup2\n      mstore\n      pop\n        /* \"contracts/core/MPensionVault_flattened.sol\":8589:8626  register.getAddress(PENSION_ADMIN_CA) */\n      mload(0x40)\n      dup3\n      0xffffffff\n      and\n      0xe0\n      shl\n      dup2\n      mstore\n      0x04\n      add\n      tag_86\n      swap2\n      swap1\n      tag_30\n      jump\t// in\n    tag_86:\n      0x20\n      mload(0x40)\n      dup1\n      dup4\n      sub\n      dup2\n      dup7\n      gas\n      staticcall\n      iszero\n      dup1\n      iszero\n      tag_88\n      jumpi\n      returndatacopy(0x00, 0x00, returndatasize)\n      revert(0x00, returndatasize)\n    tag_88:\n      pop\n      pop\n      pop\n      pop\n      mload(0x40)\n      returndatasize\n      not(0x1f)\n      0x1f\n      dup3\n      add\n      and\n      dup3\n      add\n      dup1\n      0x40\n      mstore\n      pop\n      dup2\n      add\n      swap1\n      tag_89\n      swap2\n      swap1\n      tag_90\n      jump\t// in\n    tag_89:\n        /* \"contracts/core/MPensionVault_flattened.sol\":8575:8626  msg.sender == register.getAddress(PENSION_ADMIN_CA) */\n      0xffffffffffffffffffffffffffffffffffffffff\n      and\n        /* \"contracts/core/MPensionVault_flattened.sol\":8575:8585  msg.sender */\n      caller\n        /* \"contracts/core/MPensionVault_flattened.sol\":8575:8626  msg.sender == register.getAddress(PENSION_ADMIN_CA) */\n      0xffffffffffffffffffffffffffffffffffffffff\n      and\n      eq\n        /* \"contracts/core/MPensionVault_flattened.sol\":8567:8649  require(msg.sender == register.getAddress(PENSION_ADMIN_CA), \"Pension Admin Only\") */\n      tag_91\n      jumpi\n      mload(0x40)\n      0x08c379a000000000000000000000000000000000000000000000000000000000\n      dup2\n      mstore\n      0x04\n      add\n      tag_92\n      swap1\n      tag_93\n      jump\t// in\n    tag_92:\n      mload(0x40)\n      dup1\n      swap2\n      sub\n      swap1\n      revert\n    tag_91:\n        /* \"contracts/core/MPensionVault_flattened.sol\":8299:8305  locked */\n      0x00\n      0x00\n      swap1\n      sload\n      swap1\n      0x0100\n      exp\n      swap1\n      div\n      0xff\n      and\n        /* \"contracts/core/MPensionVault_flattened.sol\":8298:8305  !locked */\n      iszero\n        /* \"contracts/core/MPensionVault_flattened.sol\":8290:8322  require(!locked, \"vault locked\") */\n      tag_95\n      jumpi\n      mload(0x40)\n      0x08c379a000000000000000000000000000000000000000000000000000000000\n      dup2\n      mstore\n      0x04\n      add\n      tag_96\n      swap1\n      tag_97\n      jump\t// in\n    tag_96:\n      mload(0x40)\n      dup1\n      swap2\n      sub\n      swap1\n      revert\n    tag_95:\n        /* \"contracts/core/MPensionVault_flattened.sol\":8351:8366  MPStatus.CLOSED */\n      0x02\n        /* \"contracts/core/MPensionVault_flattened.sol\":8341:8366  status != MPStatus.CLOSED */\n      0x03\n      dup2\n      gt\n      iszero\n      tag_98\n      jumpi\n      tag_99\n      tag_100\n      jump\t// in\n    tag_99:\n    tag_98:\n        /* \"contracts/core/MPensionVault_flattened.sol\":8341:8347  status */\n      0x00\n      0x01\n      swap1\n      sload\n      swap1\n      0x0100\n      exp\n      swap1\n      div\n      0xff\n      and\n        /* \"contracts/core/MPensionVault_flattened.sol\":8341:8366  status != MPStatus.CLOSED */\n      0x03\n      dup2\n      gt\n      iszero\n      tag_101\n      jumpi\n      tag_102\n      tag_100\n      jump\t// in\n    tag_102:\n    tag_101:\n      sub\n        /* \"contracts/core/MPensionVault_flattened.sol\":8333:8383  require(status != MPStatus.CLOSED, \"vault closed\") */\n      tag_103\n      jumpi\n      mload(0x40)\n      0x08c379a000000000000000000000000000000000000000000000000000000000\n      dup2\n      mstore\n      0x04\n      add\n      tag_104\n      swap1\n      tag_105\n      jump\t// in\n    tag_104:\n      mload(0x40)\n      dup1\n      swap2\n      sub\n      swap1\n      revert\n    tag_103:\n        /* \"contracts/core/MPensionVault_flattened.sol\":13204:13228  MPension memory pension_ */\n      0x00\n        /* \"contracts/core/MPensionVault_flattened.sol\":13231:13251  getPensionInternal() */\n      tag_107\n        /* \"contracts/core/MPensionVault_flattened.sol\":13231:13249  getPensionInternal */\n      tag_108\n        /* \"contracts/core/MPensionVault_flattened.sol\":13231:13251  getPensionInternal() */\n      jump\t// in\n    tag_107:\n        /* \"contracts/core/MPensionVault_flattened.sol\":13204:13251  MPension memory pension_ = getPensionInternal() */\n      swap1\n      pop\n        /* \"contracts/core/MPensionVault_flattened.sol\":13281:13296  MPStatus.CLOSED */\n      0x02\n        /* \"contracts/core/MPensionVault_flattened.sol\":13271:13296  status != MPStatus.CLOSED */\n      0x03\n      dup2\n      gt\n      iszero\n      tag_109\n      jumpi\n      tag_110\n      tag_100\n      jump\t// in\n    tag_110:\n    tag_109:\n        /* \"contracts/core/MPensionVault_flattened.sol\":13271:13277  status */\n      0x00\n      0x01\n      swap1\n      sload\n      swap1\n      0x0100\n      exp\n      swap1\n      div\n      0xff\n      and\n        /* \"contracts/core/MPensionVault_flattened.sol\":13271:13296  status != MPStatus.CLOSED */\n      0x03\n      dup2\n      gt\n      iszero\n      tag_111\n      jumpi\n      tag_112\n      tag_100\n      jump\t// in\n    tag_112:\n    tag_111:\n      sub\n        /* \"contracts/core/MPensionVault_flattened.sol\":13263:13315  require(status != MPStatus.CLOSED, \"pension closed\") */\n      tag_113\n      jumpi\n      mload(0x40)\n      0x08c379a000000000000000000000000000000000000000000000000000000000\n      dup2\n      mstore\n      0x04\n      add\n      tag_114\n      swap1\n      tag_115\n      jump\t// in\n    tag_114:\n      mload(0x40)\n      dup1\n      swap2\n      sub\n      swap1\n      revert\n    tag_113:\n        /* \"contracts/core/MPensionVault_flattened.sol\":13336:13348  isInTreasury */\n      0x07\n      0x00\n      swap1\n      sload\n      swap1\n      0x0100\n      exp\n      swap1\n      div\n      0xff\n      and\n        /* \"contracts/core/MPensionVault_flattened.sol\":13335:13348  !isInTreasury */\n      iszero\n        /* \"contracts/core/MPensionVault_flattened.sol\":13327:13372  require(!isInTreasury, \"pension in treasury\") */\n      tag_116\n      jumpi\n      mload(0x40)\n      0x08c379a000000000000000000000000000000000000000000000000000000000\n      dup2\n      mstore\n      0x04\n      add\n      tag_117\n      swap1\n      tag_118\n      jump\t// in\n    tag_117:\n      mload(0x40)\n      dup1\n      swap2\n      sub\n      swap1\n      revert\n    tag_116:\n        /* \"contracts/core/MPensionVault_flattened.sol\":13392:13396  true */\n      0x01\n        /* \"contracts/core/MPensionVault_flattened.sol\":13383:13389  locked */\n      0x00\n      0x00\n        /* \"contracts/core/MPensionVault_flattened.sol\":13383:13396  locked = true */\n      0x0100\n      exp\n      dup2\n      sload\n      dup2\n      0xff\n      mul\n      not\n      and\n      swap1\n      dup4\n      iszero\n      iszero\n      mul\n      or\n      swap1\n      sstore\n      pop\n        /* \"contracts/core/MPensionVault_flattened.sol\":13417:13432  MPStatus.CLOSED */\n      0x02\n        /* \"contracts/core/MPensionVault_flattened.sol\":13408:13414  status */\n      0x00\n      0x01\n        /* \"contracts/core/MPensionVault_flattened.sol\":13408:13432  status = MPStatus.CLOSED */\n      0x0100\n      exp\n      dup2\n      sload\n      dup2\n      0xff\n      mul\n      not\n      and\n      swap1\n      dup4\n      0x03\n      dup2\n      gt\n      iszero\n      tag_119\n      jumpi\n      tag_120\n      tag_100\n      jump\t// in\n    tag_120:\n    tag_119:\n      mul\n      or\n      swap1\n      sstore\n      pop\n        /* \"contracts/core/MPensionVault_flattened.sol\":13444:13463  uint256 settlement_ */\n      0x00\n        /* \"contracts/core/MPensionVault_flattened.sol\":13466:13467  0 */\n      0x00\n        /* \"contracts/core/MPensionVault_flattened.sol\":13444:13467  uint256 settlement_ = 0 */\n      swap1\n      pop\n        /* \"contracts/core/MPensionVault_flattened.sol\":8932:8974  0xEeeeeEeeeEeEeeEeEeEeeEEEeeeeEeeeeeeeEEeE */\n      0xeeeeeeeeeeeeeeeeeeeeeeeeeeeeeeeeeeeeeeee\n        /* \"contracts/core/MPensionVault_flattened.sol\":13481:13513  pension_.product.erc20 == NATIVE */\n      0xffffffffffffffffffffffffffffffffffffffff\n      and\n        /* \"contracts/core/MPensionVault_flattened.sol\":13481:13489  pension_ */\n      dup3\n        /* \"contracts/core/MPensionVault_flattened.sol\":13481:13497  pension_.product */\n      0xc0\n      add\n      mload\n        /* \"contracts/core/MPensionVault_flattened.sol\":13481:13503  pension_.product.erc20 */\n      0x40\n      add\n      mload\n        /* \"contracts/core/MPensionVault_flattened.sol\":13481:13513  pension_.product.erc20 == NATIVE */\n      0xffffffffffffffffffffffffffffffffffffffff\n      and\n      sub\n        /* \"contracts/core/MPensionVault_flattened.sol\":13478:13828  if(pension_.product.erc20 == NATIVE) {... */\n      tag_121\n      jumpi\n        /* \"contracts/core/MPensionVault_flattened.sol\":13544:13548  self */\n      immutable(\"0x9e1fb2b79e882622ed243a034292b4fa176df601f71d921cffbf6c845001c2b4\")\n        /* \"contracts/core/MPensionVault_flattened.sol\":13544:13556  self.balance */\n      0xffffffffffffffffffffffffffffffffffffffff\n      and\n      balance\n        /* \"contracts/core/MPensionVault_flattened.sol\":13530:13556  settlement_ = self.balance */\n      swap1\n      pop\n        /* \"contracts/core/MPensionVault_flattened.sol\":13580:13588  pension_ */\n      dup2\n        /* \"contracts/core/MPensionVault_flattened.sol\":13580:13594  pension_.owner */\n      0x40\n      add\n      mload\n        /* \"contracts/core/MPensionVault_flattened.sol\":13572:13604  payable(pension_.owner).transfer */\n      0xffffffffffffffffffffffffffffffffffffffff\n      and\n        /* \"contracts/core/MPensionVault_flattened.sol\":13572:13617  payable(pension_.owner).transfer(settlement_) */\n      0x08fc\n        /* \"contracts/core/MPensionVault_flattened.sol\":13605:13616  settlement_ */\n      dup3\n        /* \"contracts/core/MPensionVault_flattened.sol\":13572:13617  payable(pension_.owner).transfer(settlement_) */\n      swap1\n      dup2\n      iszero\n      mul\n      swap1\n      mload(0x40)\n      0x00\n      mload(0x40)\n      dup1\n      dup4\n      sub\n      dup2\n      dup6\n      dup9\n      dup9\n      call\n      swap4\n      pop\n      pop\n      pop\n      pop\n      iszero\n      dup1\n      iszero\n      tag_123\n      jumpi\n      returndatacopy(0x00, 0x00, returndatasize)\n      revert(0x00, returndatasize)\n    tag_123:\n      pop\n        /* \"contracts/core/MPensionVault_flattened.sol\":13478:13828  if(pension_.product.erc20 == NATIVE) {... */\n      jump(tag_124)\n    tag_121:\n        /* \"contracts/core/MPensionVault_flattened.sol\":13659:13672  IERC20 erc20_ */\n      0x00\n        /* \"contracts/core/MPensionVault_flattened.sol\":13682:13690  pension_ */\n      dup3\n        /* \"contracts/core/MPensionVault_flattened.sol\":13682:13698  pension_.product */\n      0xc0\n      add\n      mload\n        /* \"contracts/core/MPensionVault_flattened.sol\":13682:13704  pension_.product.erc20 */\n      0x40\n      add\n      mload\n        /* \"contracts/core/MPensionVault_flattened.sol\":13659:13705  IERC20 erc20_ = IERC20(pension_.product.erc20) */\n      swap1\n      pop\n        /* \"contracts/core/MPensionVault_flattened.sol\":13734:13740  erc20_ */\n      dup1\n        /* \"contracts/core/MPensionVault_flattened.sol\":13734:13750  erc20_.balanceOf */\n      0xffffffffffffffffffffffffffffffffffffffff\n      and\n      0x70a08231\n        /* \"contracts/core/MPensionVault_flattened.sol\":13751:13755  self */\n      immutable(\"0x9e1fb2b79e882622ed243a034292b4fa176df601f71d921cffbf6c845001c2b4\")\n        /* \"contracts/core/MPensionVault_flattened.sol\":13734:13756  erc20_.balanceOf(self) */\n      mload(0x40)\n      dup3\n      0xffffffff\n      and\n      0xe0\n      shl\n      dup2\n      mstore\n      0x04\n      add\n      tag_125\n      swap2\n      swap1\n      tag_126\n      jump\t// in\n    tag_125:\n      0x20\n      mload(0x40)\n      dup1\n      dup4\n      sub\n      dup2\n      dup7\n      gas\n      staticcall\n      iszero\n      dup1\n      iszero\n      tag_128\n      jumpi\n      returndatacopy(0x00, 0x00, returndatasize)\n      revert(0x00, returndatasize)\n    tag_128:\n      pop\n      pop\n      pop\n      pop\n      mload(0x40)\n      returndatasize\n      not(0x1f)\n      0x1f\n      dup3\n      add\n      and\n      dup3\n      add\n      dup1\n      0x40\n      mstore\n      pop\n      dup2\n      add\n      swap1\n      tag_129\n      swap2\n      swap1\n      tag_130\n      jump\t// in\n    tag_129:\n        /* \"contracts/core/MPensionVault_flattened.sol\":13720:13756  settlement_ = erc20_.balanceOf(self) */\n      swap2\n      pop\n        /* \"contracts/core/MPensionVault_flattened.sol\":13772:13778  erc20_ */\n      dup1\n        /* \"contracts/core/MPensionVault_flattened.sol\":13772:13787  erc20_.transfer */\n      0xffffffffffffffffffffffffffffffffffffffff\n      and\n      0xa9059cbb\n        /* \"contracts/core/MPensionVault_flattened.sol\":13788:13796  pension_ */\n      dup5\n        /* \"contracts/core/MPensionVault_flattened.sol\":13788:13802  pension_.owner */\n      0x40\n      add\n      mload\n        /* \"contracts/core/MPensionVault_flattened.sol\":13804:13815  settlement_ */\n      dup5\n        /* \"contracts/core/MPensionVault_flattened.sol\":13772:13816  erc20_.transfer(pension_.owner, settlement_) */\n      mload(0x40)\n      dup4\n      0xffffffff\n      and\n      0xe0\n      shl\n      dup2\n      mstore\n      0x04\n      add\n      tag_131\n      swap3\n      swap2\n      swap1\n      tag_132\n      jump\t// in\n    tag_131:\n      0x20\n      mload(0x40)\n      dup1\n      dup4\n      sub\n      dup2\n      0x00\n      dup8\n      gas\n      call\n      iszero\n      dup1\n      iszero\n      tag_134\n      jumpi\n      returndatacopy(0x00, 0x00, returndatasize)\n      revert(0x00, returndatasize)\n    tag_134:\n      pop\n      pop\n      pop\n      pop\n      mload(0x40)\n      returndatasize\n      not(0x1f)\n      0x1f\n      dup3\n      add\n      and\n      dup3\n      add\n      dup1\n      0x40\n      mstore\n      pop\n      dup2\n      add\n      swap1\n      tag_135\n      swap2\n      swap1\n      tag_136\n      jump\t// in\n    tag_135:\n      pop\n        /* \"contracts/core/MPensionVault_flattened.sol\":13644:13828  {... */\n      pop\n        /* \"contracts/core/MPensionVault_flattened.sol\":13478:13828  if(pension_.product.erc20 == NATIVE) {... */\n    tag_124:\n        /* \"contracts/core/MPensionVault_flattened.sol\":13856:13941  addTx(TxType.CLOSE, ObjType.MPENSION, pensionId, settlement_, pension_.product.erc20) */\n      tag_137\n        /* \"contracts/core/MPensionVault_flattened.sol\":13862:13874  TxType.CLOSE */\n      0x07\n        /* \"contracts/core/MPensionVault_flattened.sol\":13876:13892  ObjType.MPENSION */\n      0x00\n        /* \"contracts/core/MPensionVault_flattened.sol\":13894:13903  pensionId */\n      immutable(\"0x42d683e394a4df18653c7650f8aa08cb69f6a4b0d0acad4653af662538b2a674\")\n        /* \"contracts/core/MPensionVault_flattened.sol\":13905:13916  settlement_ */\n      dup5\n        /* \"contracts/core/MPensionVault_flattened.sol\":13918:13926  pension_ */\n      dup7\n        /* \"contracts/core/MPensionVault_flattened.sol\":13918:13934  pension_.product */\n      0xc0\n      add\n      mload\n        /* \"contracts/core/MPensionVault_flattened.sol\":13918:13940  pension_.product.erc20 */\n      0x40\n      add\n      mload\n        /* \"contracts/core/MPensionVault_flattened.sol\":13856:13861  addTx */\n      tag_138\n        /* \"contracts/core/MPensionVault_flattened.sol\":13856:13941  addTx(TxType.CLOSE, ObjType.MPENSION, pensionId, settlement_, pension_.product.erc20) */\n      jump\t// in\n    tag_137:\n        /* \"contracts/core/MPensionVault_flattened.sol\":13848:13941  _txId = addTx(TxType.CLOSE, ObjType.MPENSION, pensionId, settlement_, pension_.product.erc20) */\n      swap3\n      pop\n        /* \"contracts/core/MPensionVault_flattened.sol\":13952:13964  return _txId */\n      pop\n      pop\n        /* \"contracts/core/MPensionVault_flattened.sol\":13124:13974  function close() external adminOnly semaphore returns (uint256 _txId){... */\n      swap1\n      jump\t// out\n        /* \"contracts/core/MPensionVault_flattened.sol\":14552:15531  function pull(uint256 _treasuryId) external semaphore treasuryOnly returns (uint256 _principal, uint256 _txId){... */\n    tag_39:\n        /* \"contracts/core/MPensionVault_flattened.sol\":14628:14646  uint256 _principal */\n      0x00\n        /* \"contracts/core/MPensionVault_flattened.sol\":14648:14661  uint256 _txId */\n      0x00\n        /* \"contracts/core/MPensionVault_flattened.sol\":8299:8305  locked */\n      0x00\n      0x00\n      swap1\n      sload\n      swap1\n      0x0100\n      exp\n      swap1\n      div\n      0xff\n      and\n        /* \"contracts/core/MPensionVault_flattened.sol\":8298:8305  !locked */\n      iszero\n        /* \"contracts/core/MPensionVault_flattened.sol\":8290:8322  require(!locked, \"vault locked\") */\n      tag_140\n      jumpi\n      mload(0x40)\n      0x08c379a000000000000000000000000000000000000000000000000000000000\n      dup2\n      mstore\n      0x04\n      add\n      tag_141\n      swap1\n      tag_97\n      jump\t// in\n    tag_141:\n      mload(0x40)\n      dup1\n      swap2\n      sub\n      swap1\n      revert\n    tag_140:\n        /* \"contracts/core/MPensionVault_flattened.sol\":8351:8366  MPStatus.CLOSED */\n      0x02\n        /* \"contracts/core/MPensionVault_flattened.sol\":8341:8366  status != MPStatus.CLOSED */\n      0x03\n      dup2\n      gt\n      iszero\n      tag_142\n      jumpi\n      tag_143\n      tag_100\n      jump\t// in\n    tag_143:\n    tag_142:\n        /* \"contracts/core/MPensionVault_flattened.sol\":8341:8347  status */\n      0x00\n      0x01\n      swap1\n      sload\n      swap1\n      0x0100\n      exp\n      swap1\n      div\n      0xff\n      and\n        /* \"contracts/core/MPensionVault_flattened.sol\":8341:8366  status != MPStatus.CLOSED */\n      0x03\n      dup2\n      gt\n      iszero\n      tag_144\n      jumpi\n      tag_145\n      tag_100\n      jump\t// in\n    tag_145:\n    tag_144:\n      sub\n        /* \"contracts/core/MPensionVault_flattened.sol\":8333:8383  require(status != MPStatus.CLOSED, \"vault closed\") */\n      tag_146\n      jumpi\n      mload(0x40)\n      0x08c379a000000000000000000000000000000000000000000000000000000000\n      dup2\n      mstore\n      0x04\n      add\n      tag_147\n      swap1\n      tag_105\n      jump\t// in\n    tag_147:\n      mload(0x40)\n      dup1\n      swap2\n      sub\n      swap1\n      revert\n    tag_146:\n        /* \"contracts/core/MPensionVault_flattened.sol\":8733:8741  register */\n      0x00\n      0x03\n      swap1\n      sload\n      swap1\n      0x0100\n      exp\n      swap1\n      div\n      0xffffffffffffffffffffffffffffffffffffffff\n      and\n        /* \"contracts/core/MPensionVault_flattened.sol\":8733:8752  register.getAddress */\n      0xffffffffffffffffffffffffffffffffffffffff\n      and\n      0xbf40fac1\n        /* \"contracts/core/MPensionVault_flattened.sol\":8753:8764  TREASURY_CA */\n      mload(0x40)\n      dup1\n      0x40\n      add\n      0x40\n      mstore\n      dup1\n      0x14\n      dup2\n      mstore\n      0x20\n      add\n      0x52455345525645445f4d505f5452454153555259000000000000000000000000\n      dup2\n      mstore\n      pop\n        /* \"contracts/core/MPensionVault_flattened.sol\":8733:8765  register.getAddress(TREASURY_CA) */\n      mload(0x40)\n      dup3\n      0xffffffff\n      and\n      0xe0\n      shl\n      dup2\n      mstore\n      0x04\n      add\n      tag_149\n      swap2\n      swap1\n      tag_30\n      jump\t// in\n    tag_149:\n      0x20\n      mload(0x40)\n      dup1\n      dup4\n      sub\n      dup2\n      dup7\n      gas\n      staticcall\n      iszero\n      dup1\n      iszero\n      tag_151\n      jumpi\n      returndatacopy(0x00, 0x00, returndatasize)\n      revert(0x00, returndatasize)\n    tag_151:\n      pop\n      pop\n      pop\n      pop\n      mload(0x40)\n      returndatasize\n      not(0x1f)\n      0x1f\n      dup3\n      add\n      and\n      dup3\n      add\n      dup1\n      0x40\n      mstore\n      pop\n      dup2\n      add\n      swap1\n      tag_152\n      swap2\n      swap1\n      tag_90\n      jump\t// in\n    tag_152:\n        /* \"contracts/core/MPensionVault_flattened.sol\":8719:8765  msg.sender == register.getAddress(TREASURY_CA) */\n      0xffffffffffffffffffffffffffffffffffffffff\n      and\n        /* \"contracts/core/MPensionVault_flattened.sol\":8719:8729  msg.sender */\n      caller\n        /* \"contracts/core/MPensionVault_flattened.sol\":8719:8765  msg.sender == register.getAddress(TREASURY_CA) */\n      0xffffffffffffffffffffffffffffffffffffffff\n      and\n      eq\n        /* \"contracts/core/MPensionVault_flattened.sol\":8711:8783  require(msg.sender == register.getAddress(TREASURY_CA), \"Treasury Only\") */\n      tag_153\n      jumpi\n      mload(0x40)\n      0x08c379a000000000000000000000000000000000000000000000000000000000\n      dup2\n      mstore\n      0x04\n      add\n      tag_154\n      swap1\n      tag_155\n      jump\t// in\n    tag_154:\n      mload(0x40)\n      dup1\n      swap2\n      sub\n      swap1\n      revert\n    tag_153:\n        /* \"contracts/core/MPensionVault_flattened.sol\":14673:14697  MPension memory pension_ */\n      0x00\n        /* \"contracts/core/MPensionVault_flattened.sol\":14700:14720  getPensionInternal() */\n      tag_157\n        /* \"contracts/core/MPensionVault_flattened.sol\":14700:14718  getPensionInternal */\n      tag_108\n        /* \"contracts/core/MPensionVault_flattened.sol\":14700:14720  getPensionInternal() */\n      jump\t// in\n    tag_157:\n        /* \"contracts/core/MPensionVault_flattened.sol\":14673:14720  MPension memory pension_ = getPensionInternal() */\n      swap1\n      pop\n        /* \"contracts/core/MPensionVault_flattened.sol\":14750:14763  MPStatus.OPEN */\n      0x00\n        /* \"contracts/core/MPensionVault_flattened.sol\":14740:14763  status == MPStatus.OPEN */\n      0x03\n      dup2\n      gt\n      iszero\n      tag_158\n      jumpi\n      tag_159\n      tag_100\n      jump\t// in\n    tag_159:\n    tag_158:\n        /* \"contracts/core/MPensionVault_flattened.sol\":14740:14746  status */\n      0x00\n      0x01\n      swap1\n      sload\n      swap1\n      0x0100\n      exp\n      swap1\n      div\n      0xff\n      and\n        /* \"contracts/core/MPensionVault_flattened.sol\":14740:14763  status == MPStatus.OPEN */\n      0x03\n      dup2\n      gt\n      iszero\n      tag_160\n      jumpi\n      tag_161\n      tag_100\n      jump\t// in\n    tag_161:\n    tag_160:\n      eq\n        /* \"contracts/core/MPensionVault_flattened.sol\":14732:14795  require(status == MPStatus.OPEN, \"invalid pension pull state\" ) */\n      tag_162\n      jumpi\n      mload(0x40)\n      0x08c379a000000000000000000000000000000000000000000000000000000000\n      dup2\n      mstore\n      0x04\n      add\n      tag_163\n      swap1\n      tag_164\n      jump\t// in\n    tag_163:\n      mload(0x40)\n      dup1\n      swap2\n      sub\n      swap1\n      revert\n    tag_162:\n        /* \"contracts/core/MPensionVault_flattened.sol\":14815:14819  true */\n      0x01\n        /* \"contracts/core/MPensionVault_flattened.sol\":14806:14812  locked */\n      0x00\n      0x00\n        /* \"contracts/core/MPensionVault_flattened.sol\":14806:14819  locked = true */\n      0x0100\n      exp\n      dup2\n      sload\n      dup2\n      0xff\n      mul\n      not\n      and\n      swap1\n      dup4\n      iszero\n      iszero\n      mul\n      or\n      swap1\n      sstore\n      pop\n        /* \"contracts/core/MPensionVault_flattened.sol\":14840:14852  isInTreasury */\n      0x07\n      0x00\n      swap1\n      sload\n      swap1\n      0x0100\n      exp\n      swap1\n      div\n      0xff\n      and\n        /* \"contracts/core/MPensionVault_flattened.sol\":14839:14852  !isInTreasury */\n      iszero\n        /* \"contracts/core/MPensionVault_flattened.sol\":14831:14876  require(!isInTreasury,\"vault already pulled\") */\n      tag_165\n      jumpi\n      mload(0x40)\n      0x08c379a000000000000000000000000000000000000000000000000000000000\n      dup2\n      mstore\n      0x04\n      add\n      tag_166\n      swap1\n      tag_167\n      jump\t// in\n    tag_166:\n      mload(0x40)\n      dup1\n      swap2\n      sub\n      swap1\n      revert\n    tag_165:\n        /* \"contracts/core/MPensionVault_flattened.sol\":14903:14907  true */\n      0x01\n        /* \"contracts/core/MPensionVault_flattened.sol\":14888:14900  isInTreasury */\n      0x07\n      0x00\n        /* \"contracts/core/MPensionVault_flattened.sol\":14888:14907  isInTreasury = true */\n      0x0100\n      exp\n      dup2\n      sload\n      dup2\n      0xff\n      mul\n      not\n      and\n      swap1\n      dup4\n      iszero\n      iszero\n      mul\n      or\n      swap1\n      sstore\n      pop\n        /* \"contracts/core/MPensionVault_flattened.sol\":14932:14946  pensionBalance */\n      sload(0x02)\n        /* \"contracts/core/MPensionVault_flattened.sol\":14919:14946  _principal = pensionBalance */\n      swap3\n      pop\n        /* \"contracts/core/MPensionVault_flattened.sol\":14975:14985  _principal */\n      dup3\n        /* \"contracts/core/MPensionVault_flattened.sol\":14957:14972  issuedPrincipal */\n      0x06\n        /* \"contracts/core/MPensionVault_flattened.sol\":14957:14985  issuedPrincipal = _principal */\n      dup2\n      swap1\n      sstore\n      pop\n        /* \"contracts/core/MPensionVault_flattened.sol\":15000:15021  address erc20Address_ */\n      0x00\n        /* \"contracts/core/MPensionVault_flattened.sol\":15024:15032  pension_ */\n      dup2\n        /* \"contracts/core/MPensionVault_flattened.sol\":15024:15040  pension_.product */\n      0xc0\n      add\n      mload\n        /* \"contracts/core/MPensionVault_flattened.sol\":15024:15046  pension_.product.erc20 */\n      0x40\n      add\n      mload\n        /* \"contracts/core/MPensionVault_flattened.sol\":15000:15046  address erc20Address_ = pension_.product.erc20 */\n      swap1\n      pop\n        /* \"contracts/core/MPensionVault_flattened.sol\":8932:8974  0xEeeeeEeeeEeEeeEeEeEeeEEEeeeeEeeeeeeeEEeE */\n      0xeeeeeeeeeeeeeeeeeeeeeeeeeeeeeeeeeeeeeeee\n        /* \"contracts/core/MPensionVault_flattened.sol\":15061:15084  erc20Address_ == NATIVE */\n      0xffffffffffffffffffffffffffffffffffffffff\n      and\n        /* \"contracts/core/MPensionVault_flattened.sol\":15061:15074  erc20Address_ */\n      dup2\n        /* \"contracts/core/MPensionVault_flattened.sol\":15061:15084  erc20Address_ == NATIVE */\n      0xffffffffffffffffffffffffffffffffffffffff\n      and\n      sub\n        /* \"contracts/core/MPensionVault_flattened.sol\":15058:15286  if(erc20Address_ == NATIVE) {... */\n      tag_168\n      jumpi\n        /* \"contracts/core/MPensionVault_flattened.sol\":15109:15119  msg.sender */\n      caller\n        /* \"contracts/core/MPensionVault_flattened.sol\":15101:15129  payable(msg.sender).transfer */\n      0xffffffffffffffffffffffffffffffffffffffff\n      and\n        /* \"contracts/core/MPensionVault_flattened.sol\":15101:15141  payable(msg.sender).transfer(_principal) */\n      0x08fc\n        /* \"contracts/core/MPensionVault_flattened.sol\":15130:15140  _principal */\n      dup6\n        /* \"contracts/core/MPensionVault_flattened.sol\":15101:15141  payable(msg.sender).transfer(_principal) */\n      swap1\n      dup2\n      iszero\n      mul\n      swap1\n      mload(0x40)\n      0x00\n      mload(0x40)\n      dup1\n      dup4\n      sub\n      dup2\n      dup6\n      dup9\n      dup9\n      call\n      swap4\n      pop\n      pop\n      pop\n      pop\n      iszero\n      dup1\n      iszero\n      tag_170\n      jumpi\n      returndatacopy(0x00, 0x00, returndatasize)\n      revert(0x00, returndatasize)\n    tag_170:\n      pop\n        /* \"contracts/core/MPensionVault_flattened.sol\":15058:15286  if(erc20Address_ == NATIVE) {... */\n      jump(tag_171)\n    tag_168:\n        /* \"contracts/core/MPensionVault_flattened.sol\":15184:15197  IERC20 erc20_ */\n      0x00\n        /* \"contracts/core/MPensionVault_flattened.sol\":15207:15220  erc20Address_ */\n      dup2\n        /* \"contracts/core/MPensionVault_flattened.sol\":15184:15221  IERC20 erc20_ = IERC20(erc20Address_) */\n      swap1\n      pop\n        /* \"contracts/core/MPensionVault_flattened.sol\":15236:15242  erc20_ */\n      dup1\n        /* \"contracts/core/MPensionVault_flattened.sol\":15236:15250  erc20_.approve */\n      0xffffffffffffffffffffffffffffffffffffffff\n      and\n      0x095ea7b3\n        /* \"contracts/core/MPensionVault_flattened.sol\":15251:15261  msg.sender */\n      caller\n        /* \"contracts/core/MPensionVault_flattened.sol\":15263:15273  _principal */\n      dup8\n        /* \"contracts/core/MPensionVault_flattened.sol\":15236:15274  erc20_.approve(msg.sender, _principal) */\n      mload(0x40)\n      dup4\n      0xffffffff\n      and\n      0xe0\n      shl\n      dup2\n      mstore\n      0x04\n      add\n      tag_172\n      swap3\n      swap2\n      swap1\n      tag_132\n      jump\t// in\n    tag_172:\n      0x20\n      mload(0x40)\n      dup1\n      dup4\n      sub\n      dup2\n      0x00\n      dup8\n      gas\n      call\n      iszero\n      dup1\n      iszero\n      tag_174\n      jumpi\n      returndatacopy(0x00, 0x00, returndatasize)\n      revert(0x00, returndatasize)\n    tag_174:\n      pop\n      pop\n      pop\n      pop\n      mload(0x40)\n      returndatasize\n      not(0x1f)\n      0x1f\n      dup3\n      add\n      and\n      dup3\n      add\n      dup1\n      0x40\n      mstore\n      pop\n      dup2\n      add\n      swap1\n      tag_175\n      swap2\n      swap1\n      tag_136\n      jump\t// in\n    tag_175:\n      pop\n        /* \"contracts/core/MPensionVault_flattened.sol\":15168:15286  { ... */\n      pop\n        /* \"contracts/core/MPensionVault_flattened.sol\":15058:15286  if(erc20Address_ == NATIVE) {... */\n    tag_171:\n        /* \"contracts/core/MPensionVault_flattened.sol\":15306:15389  addTx(TxType.PULL, ObjType.MPENSION, pensionId, _principal, pension_.product.erc20) */\n      tag_176\n        /* \"contracts/core/MPensionVault_flattened.sol\":15312:15323  TxType.PULL */\n      0x03\n        /* \"contracts/core/MPensionVault_flattened.sol\":15325:15341  ObjType.MPENSION */\n      0x00\n        /* \"contracts/core/MPensionVault_flattened.sol\":15343:15352  pensionId */\n      immutable(\"0x42d683e394a4df18653c7650f8aa08cb69f6a4b0d0acad4653af662538b2a674\")\n        /* \"contracts/core/MPensionVault_flattened.sol\":15354:15364  _principal */\n      dup8\n        /* \"contracts/core/MPensionVault_flattened.sol\":15366:15374  pension_ */\n      dup7\n        /* \"contracts/core/MPensionVault_flattened.sol\":15366:15382  pension_.product */\n      0xc0\n      add\n      mload\n        /* \"contracts/core/MPensionVault_flattened.sol\":15366:15388  pension_.product.erc20 */\n      0x40\n      add\n      mload\n        /* \"contracts/core/MPensionVault_flattened.sol\":15306:15311  addTx */\n      tag_138\n        /* \"contracts/core/MPensionVault_flattened.sol\":15306:15389  addTx(TxType.PULL, ObjType.MPENSION, pensionId, _principal, pension_.product.erc20) */\n      jump\t// in\n    tag_176:\n        /* \"contracts/core/MPensionVault_flattened.sol\":15298:15389  _txId = addTx(TxType.PULL, ObjType.MPENSION, pensionId, _principal, pension_.product.erc20) */\n      swap3\n      pop\n        /* \"contracts/core/MPensionVault_flattened.sol\":15400:15417  txIdsByTreasuryId */\n      0x08\n        /* \"contracts/core/MPensionVault_flattened.sol\":15400:15430  txIdsByTreasuryId[_treasuryId] */\n      0x00\n        /* \"contracts/core/MPensionVault_flattened.sol\":15418:15429  _treasuryId */\n      dup7\n        /* \"contracts/core/MPensionVault_flattened.sol\":15400:15430  txIdsByTreasuryId[_treasuryId] */\n      dup2\n      mstore\n      0x20\n      add\n      swap1\n      dup2\n      mstore\n      0x20\n      add\n      0x00\n      keccak256\n        /* \"contracts/core/MPensionVault_flattened.sol\":15436:15441  _txId */\n      dup4\n        /* \"contracts/core/MPensionVault_flattened.sol\":15400:15442  txIdsByTreasuryId[_treasuryId].push(_txId) */\n      swap1\n      dup1\n      0x01\n      dup2\n      sload\n      add\n      dup1\n      dup3\n      sstore\n      dup1\n      swap2\n      pop\n      pop\n      0x01\n      swap1\n      sub\n      swap1\n      0x00\n      mstore\n      keccak256(0x00, 0x20)\n      add\n      0x00\n      swap1\n      swap2\n      swap1\n      swap2\n      swap1\n      swap2\n      pop\n      sstore\n        /* \"contracts/core/MPensionVault_flattened.sol\":15462:15467  false */\n      0x00\n        /* \"contracts/core/MPensionVault_flattened.sol\":15453:15459  locked */\n      0x00\n      0x00\n        /* \"contracts/core/MPensionVault_flattened.sol\":15453:15467  locked = false */\n      0x0100\n      exp\n      dup2\n      sload\n      dup2\n      0xff\n      mul\n      not\n      and\n      swap1\n      dup4\n      iszero\n      iszero\n      mul\n      or\n      swap1\n      sstore\n      pop\n        /* \"contracts/core/MPensionVault_flattened.sol\":15497:15523  return (_principal, _txId) */\n      pop\n      pop\n        /* \"contracts/core/MPensionVault_flattened.sol\":14552:15531  function pull(uint256 _treasuryId) external semaphore treasuryOnly returns (uint256 _principal, uint256 _txId){... */\n      swap2\n      pop\n      swap2\n      jump\t// out\n        /* \"contracts/core/MPensionVault_flattened.sol\":10258:10353  function getStatus() view external returns (MPStatus _status) {... */\n    tag_44:\n        /* \"contracts/core/MPensionVault_flattened.sol\":10302:10318  MPStatus _status */\n      0x00\n        /* \"contracts/core/MPensionVault_flattened.sol\":10338:10344  status */\n      0x00\n      0x01\n      swap1\n      sload\n      swap1\n      0x0100\n      exp\n      swap1\n      div\n      0xff\n      and\n        /* \"contracts/core/MPensionVault_flattened.sol\":10331:10344  return status */\n      swap1\n      pop\n        /* \"contracts/core/MPensionVault_flattened.sol\":10258:10353  function getStatus() view external returns (MPStatus _status) {... */\n      swap1\n      jump\t// out\n        /* \"contracts/core/MPensionVault_flattened.sol\":13982:14513  function withdraw(address _erc20) adminOnly external returns (uint256 _amount) {... */\n    tag_51:\n        /* \"contracts/core/MPensionVault_flattened.sol\":14044:14059  uint256 _amount */\n      0x00\n        /* \"contracts/core/MPensionVault_flattened.sol\":8589:8597  register */\n      0x00\n      0x03\n      swap1\n      sload\n      swap1\n      0x0100\n      exp\n      swap1\n      div\n      0xffffffffffffffffffffffffffffffffffffffff\n      and\n        /* \"contracts/core/MPensionVault_flattened.sol\":8589:8608  register.getAddress */\n      0xffffffffffffffffffffffffffffffffffffffff\n      and\n      0xbf40fac1\n        /* \"contracts/core/MPensionVault_flattened.sol\":8609:8625  PENSION_ADMIN_CA */\n      mload(0x40)\n      dup1\n      0x40\n      add\n      0x40\n      mstore\n      dup1\n      0x11\n      dup2\n      mstore\n      0x20\n      add\n      0x52455345525645445f4d505f41444d494e000000000000000000000000000000\n      dup2\n      mstore\n      pop\n        /* \"contracts/core/MPensionVault_flattened.sol\":8589:8626  register.getAddress(PENSION_ADMIN_CA) */\n      mload(0x40)\n      dup3\n      0xffffffff\n      and\n      0xe0\n      shl\n      dup2\n      mstore\n      0x04\n      add\n      tag_180\n      swap2\n      swap1\n      tag_30\n      jump\t// in\n    tag_180:\n      0x20\n      mload(0x40)\n      dup1\n      dup4\n      sub\n      dup2\n      dup7\n      gas\n      staticcall\n      iszero\n      dup1\n      iszero\n      tag_182\n      jumpi\n      returndatacopy(0x00, 0x00, returndatasize)\n      revert(0x00, returndatasize)\n    tag_182:\n      pop\n      pop\n      pop\n      pop\n      mload(0x40)\n      returndatasize\n      not(0x1f)\n      0x1f\n      dup3\n      add\n      and\n      dup3\n      add\n      dup1\n      0x40\n      mstore\n      pop\n      dup2\n      add\n      swap1\n      tag_183\n      swap2\n      swap1\n      tag_90\n      jump\t// in\n    tag_183:\n        /* \"contracts/core/MPensionVault_flattened.sol\":8575:8626  msg.sender == register.getAddress(PENSION_ADMIN_CA) */\n      0xffffffffffffffffffffffffffffffffffffffff\n      and\n        /* \"contracts/core/MPensionVault_flattened.sol\":8575:8585  msg.sender */\n      caller\n        /* \"contracts/core/MPensionVault_flattened.sol\":8575:8626  msg.sender == register.getAddress(PENSION_ADMIN_CA) */\n      0xffffffffffffffffffffffffffffffffffffffff\n      and\n      eq\n        /* \"contracts/core/MPensionVault_flattened.sol\":8567:8649  require(msg.sender == register.getAddress(PENSION_ADMIN_CA), \"Pension Admin Only\") */\n      tag_184\n      jumpi\n      mload(0x40)\n      0x08c379a000000000000000000000000000000000000000000000000000000000\n      dup2\n      mstore\n      0x04\n      add\n      tag_185\n      swap1\n      tag_93\n      jump\t// in\n    tag_185:\n      mload(0x40)\n      dup1\n      swap2\n      sub\n      swap1\n      revert\n    tag_184:\n        /* \"contracts/core/MPensionVault_flattened.sol\":14090:14105  MPStatus.CLOSED */\n      0x02\n        /* \"contracts/core/MPensionVault_flattened.sol\":14080:14105  status == MPStatus.CLOSED */\n      0x03\n      dup2\n      gt\n      iszero\n      tag_187\n      jumpi\n      tag_188\n      tag_100\n      jump\t// in\n    tag_188:\n    tag_187:\n        /* \"contracts/core/MPensionVault_flattened.sol\":14080:14086  status */\n      0x00\n      0x01\n      swap1\n      sload\n      swap1\n      0x0100\n      exp\n      swap1\n      div\n      0xff\n      and\n        /* \"contracts/core/MPensionVault_flattened.sol\":14080:14105  status == MPStatus.CLOSED */\n      0x03\n      dup2\n      gt\n      iszero\n      tag_189\n      jumpi\n      tag_190\n      tag_100\n      jump\t// in\n    tag_190:\n    tag_189:\n      eq\n        /* \"contracts/core/MPensionVault_flattened.sol\":14072:14128  require(status == MPStatus.CLOSED, \"pension not closed\") */\n      tag_191\n      jumpi\n      mload(0x40)\n      0x08c379a000000000000000000000000000000000000000000000000000000000\n      dup2\n      mstore\n      0x04\n      add\n      tag_192\n      swap1\n      tag_193\n      jump\t// in\n    tag_192:\n      mload(0x40)\n      dup1\n      swap2\n      sub\n      swap1\n      revert\n    tag_191:\n        /* \"contracts/core/MPensionVault_flattened.sol\":14139:14152  address bank_ */\n      0x00\n        /* \"contracts/core/MPensionVault_flattened.sol\":14155:14163  register */\n      0x00\n      0x03\n      swap1\n      sload\n      swap1\n      0x0100\n      exp\n      swap1\n      div\n      0xffffffffffffffffffffffffffffffffffffffff\n      and\n        /* \"contracts/core/MPensionVault_flattened.sol\":14155:14174  register.getAddress */\n      0xffffffffffffffffffffffffffffffffffffffff\n      and\n      0xbf40fac1\n        /* \"contracts/core/MPensionVault_flattened.sol\":14175:14182  BANK_CA */\n      mload(0x40)\n      dup1\n      0x40\n      add\n      0x40\n      mstore\n      dup1\n      0x10\n      dup2\n      mstore\n      0x20\n      add\n      0x52455345525645445f4d505f42414e4b00000000000000000000000000000000\n      dup2\n      mstore\n      pop\n        /* \"contracts/core/MPensionVault_flattened.sol\":14155:14183  register.getAddress(BANK_CA) */\n      mload(0x40)\n      dup3\n      0xffffffff\n      and\n      0xe0\n      shl\n      dup2\n      mstore\n      0x04\n      add\n      tag_194\n      swap2\n      swap1\n      tag_30\n      jump\t// in\n    tag_194:\n      0x20\n      mload(0x40)\n      dup1\n      dup4\n      sub\n      dup2\n      dup7\n      gas\n      staticcall\n      iszero\n      dup1\n      iszero\n      tag_196\n      jumpi\n      returndatacopy(0x00, 0x00, returndatasize)\n      revert(0x00, returndatasize)\n    tag_196:\n      pop\n      pop\n      pop\n      pop\n      mload(0x40)\n      returndatasize\n      not(0x1f)\n      0x1f\n      dup3\n      add\n      and\n      dup3\n      add\n      dup1\n      0x40\n      mstore\n      pop\n      dup2\n      add\n      swap1\n      tag_197\n      swap2\n      swap1\n      tag_90\n      jump\t// in\n    tag_197:\n        /* \"contracts/core/MPensionVault_flattened.sol\":14139:14183  address bank_ = register.getAddress(BANK_CA) */\n      swap1\n      pop\n        /* \"contracts/core/MPensionVault_flattened.sol\":8932:8974  0xEeeeeEeeeEeEeeEeEeEeeEEEeeeeEeeeeeeeEEeE */\n      0xeeeeeeeeeeeeeeeeeeeeeeeeeeeeeeeeeeeeeeee\n        /* \"contracts/core/MPensionVault_flattened.sol\":14198:14214  _erc20 == NATIVE */\n      0xffffffffffffffffffffffffffffffffffffffff\n      and\n        /* \"contracts/core/MPensionVault_flattened.sol\":14198:14204  _erc20 */\n      dup4\n        /* \"contracts/core/MPensionVault_flattened.sol\":14198:14214  _erc20 == NATIVE */\n      0xffffffffffffffffffffffffffffffffffffffff\n      and\n      sub\n        /* \"contracts/core/MPensionVault_flattened.sol\":14195:14480  if(_erc20 == NATIVE) {... */\n      tag_198\n      jumpi\n        /* \"contracts/core/MPensionVault_flattened.sol\":14241:14245  self */\n      immutable(\"0x9e1fb2b79e882622ed243a034292b4fa176df601f71d921cffbf6c845001c2b4\")\n        /* \"contracts/core/MPensionVault_flattened.sol\":14241:14253  self.balance */\n      0xffffffffffffffffffffffffffffffffffffffff\n      and\n      balance\n        /* \"contracts/core/MPensionVault_flattened.sol\":14231:14253  _amount = self.balance */\n      swap2\n      pop\n        /* \"contracts/core/MPensionVault_flattened.sol\":14277:14282  bank_ */\n      dup1\n        /* \"contracts/core/MPensionVault_flattened.sol\":14269:14292  payable(bank_).transfer */\n      0xffffffffffffffffffffffffffffffffffffffff\n      and\n        /* \"contracts/core/MPensionVault_flattened.sol\":14269:14301  payable(bank_).transfer(_amount) */\n      0x08fc\n        /* \"contracts/core/MPensionVault_flattened.sol\":14293:14300  _amount */\n      dup4\n        /* \"contracts/core/MPensionVault_flattened.sol\":14269:14301  payable(bank_).transfer(_amount) */\n      swap1\n      dup2\n      iszero\n      mul\n      swap1\n      mload(0x40)\n      0x00\n      mload(0x40)\n      dup1\n      dup4\n      sub\n      dup2\n      dup6\n      dup9\n      dup9\n      call\n      swap4\n      pop\n      pop\n      pop\n      pop\n      iszero\n      dup1\n      iszero\n      tag_200\n      jumpi\n      returndatacopy(0x00, 0x00, returndatasize)\n      revert(0x00, returndatasize)\n    tag_200:\n      pop\n        /* \"contracts/core/MPensionVault_flattened.sol\":14195:14480  if(_erc20 == NATIVE) {... */\n      jump(tag_201)\n    tag_198:\n        /* \"contracts/core/MPensionVault_flattened.sol\":14344:14357  IERC20 erc20_ */\n      0x00\n        /* \"contracts/core/MPensionVault_flattened.sol\":14367:14373  _erc20 */\n      dup4\n        /* \"contracts/core/MPensionVault_flattened.sol\":14344:14374  IERC20 erc20_ = IERC20(_erc20) */\n      swap1\n      pop\n        /* \"contracts/core/MPensionVault_flattened.sol\":14399:14405  erc20_ */\n      dup1\n        /* \"contracts/core/MPensionVault_flattened.sol\":14399:14415  erc20_.balanceOf */\n      0xffffffffffffffffffffffffffffffffffffffff\n      and\n      0x70a08231\n        /* \"contracts/core/MPensionVault_flattened.sol\":14416:14420  self */\n      immutable(\"0x9e1fb2b79e882622ed243a034292b4fa176df601f71d921cffbf6c845001c2b4\")\n        /* \"contracts/core/MPensionVault_flattened.sol\":14399:14421  erc20_.balanceOf(self) */\n      mload(0x40)\n      dup3\n      0xffffffff\n      and\n      0xe0\n      shl\n      dup2\n      mstore\n      0x04\n      add\n      tag_202\n      swap2\n      swap1\n      tag_126\n      jump\t// in\n    tag_202:\n      0x20\n      mload(0x40)\n      dup1\n      dup4\n      sub\n      dup2\n      dup7\n      gas\n      staticcall\n      iszero\n      dup1\n      iszero\n      tag_204\n      jumpi\n      returndatacopy(0x00, 0x00, returndatasize)\n      revert(0x00, returndatasize)\n    tag_204:\n      pop\n      pop\n      pop\n      pop\n      mload(0x40)\n      returndatasize\n      not(0x1f)\n      0x1f\n      dup3\n      add\n      and\n      dup3\n      add\n      dup1\n      0x40\n      mstore\n      pop\n      dup2\n      add\n      swap1\n      tag_205\n      swap2\n      swap1\n      tag_130\n      jump\t// in\n    tag_205:\n        /* \"contracts/core/MPensionVault_flattened.sol\":14389:14421  _amount = erc20_.balanceOf(self) */\n      swap3\n      pop\n        /* \"contracts/core/MPensionVault_flattened.sol\":14436:14442  erc20_ */\n      dup1\n        /* \"contracts/core/MPensionVault_flattened.sol\":14436:14451  erc20_.transfer */\n      0xffffffffffffffffffffffffffffffffffffffff\n      and\n      0xa9059cbb\n        /* \"contracts/core/MPensionVault_flattened.sol\":14452:14457  bank_ */\n      dup4\n        /* \"contracts/core/MPensionVault_flattened.sol\":14459:14466  _amount */\n      dup6\n        /* \"contracts/core/MPensionVault_flattened.sol\":14436:14467  erc20_.transfer(bank_, _amount) */\n      mload(0x40)\n      dup4\n      0xffffffff\n      and\n      0xe0\n      shl\n      dup2\n      mstore\n      0x04\n      add\n      tag_206\n      swap3\n      swap2\n      swap1\n      tag_132\n      jump\t// in\n    tag_206:\n      0x20\n      mload(0x40)\n      dup1\n      dup4\n      sub\n      dup2\n      0x00\n      dup8\n      gas\n      call\n      iszero\n      dup1\n      iszero\n      tag_208\n      jumpi\n      returndatacopy(0x00, 0x00, returndatasize)\n      revert(0x00, returndatasize)\n    tag_208:\n      pop\n      pop\n      pop\n      pop\n      mload(0x40)\n      returndatasize\n      not(0x1f)\n      0x1f\n      dup3\n      add\n      and\n      dup3\n      add\n      dup1\n      0x40\n      mstore\n      pop\n      dup2\n      add\n      swap1\n      tag_209\n      swap2\n      swap1\n      tag_136\n      jump\t// in\n    tag_209:\n      pop\n        /* \"contracts/core/MPensionVault_flattened.sol\":14328:14480  { ... */\n      pop\n        /* \"contracts/core/MPensionVault_flattened.sol\":14195:14480  if(_erc20 == NATIVE) {... */\n    tag_201:\n        /* \"contracts/core/MPensionVault_flattened.sol\":14490:14504  return _amount */\n      pop\n        /* \"contracts/core/MPensionVault_flattened.sol\":13982:14513  function withdraw(address _erc20) adminOnly external returns (uint256 _amount) {... */\n      swap2\n      swap1\n      pop\n      jump\t// out\n        /* \"contracts/core/MPensionVault_flattened.sol\":10361:10476  function getPension() view external returns (MPension memory _mPension){... */\n    tag_55:\n        /* \"contracts/core/MPensionVault_flattened.sol\":10406:10431  MPension memory _mPension */\n      tag_210\n      tag_211\n      jump\t// in\n    tag_210:\n        /* \"contracts/core/MPensionVault_flattened.sol\":10448:10468  getPensionInternal() */\n      tag_213\n        /* \"contracts/core/MPensionVault_flattened.sol\":10448:10466  getPensionInternal */\n      tag_108\n        /* \"contracts/core/MPensionVault_flattened.sol\":10448:10468  getPensionInternal() */\n      jump\t// in\n    tag_213:\n        /* \"contracts/core/MPensionVault_flattened.sol\":10441:10468  return getPensionInternal() */\n      swap1\n      pop\n        /* \"contracts/core/MPensionVault_flattened.sol\":10361:10476  function getPension() view external returns (MPension memory _mPension){... */\n      swap1\n      jump\t// out\n        /* \"contracts/core/MPensionVault_flattened.sol\":15540:16903  function push(uint256 _treasuryId, uint256 _principal, uint256 _earnings)  payable external semaphore treasuryOnly returns (uint256 _txId){... */\n    tag_61:\n        /* \"contracts/core/MPensionVault_flattened.sol\":15664:15677  uint256 _txId */\n      0x00\n        /* \"contracts/core/MPensionVault_flattened.sol\":8299:8305  locked */\n      0x00\n      0x00\n      swap1\n      sload\n      swap1\n      0x0100\n      exp\n      swap1\n      div\n      0xff\n      and\n        /* \"contracts/core/MPensionVault_flattened.sol\":8298:8305  !locked */\n      iszero\n        /* \"contracts/core/MPensionVault_flattened.sol\":8290:8322  require(!locked, \"vault locked\") */\n      tag_215\n      jumpi\n      mload(0x40)\n      0x08c379a000000000000000000000000000000000000000000000000000000000\n      dup2\n      mstore\n      0x04\n      add\n      tag_216\n      swap1\n      tag_97\n      jump\t// in\n    tag_216:\n      mload(0x40)\n      dup1\n      swap2\n      sub\n      swap1\n      revert\n    tag_215:\n        /* \"contracts/core/MPensionVault_flattened.sol\":8351:8366  MPStatus.CLOSED */\n      0x02\n        /* \"contracts/core/MPensionVault_flattened.sol\":8341:8366  status != MPStatus.CLOSED */\n      0x03\n      dup2\n      gt\n      iszero\n      tag_217\n      jumpi\n      tag_218\n      tag_100\n      jump\t// in\n    tag_218:\n    tag_217:\n        /* \"contracts/core/MPensionVault_flattened.sol\":8341:8347  status */\n      0x00\n      0x01\n      swap1\n      sload\n      swap1\n      0x0100\n      exp\n      swap1\n      div\n      0xff\n      and\n        /* \"contracts/core/MPensionVault_flattened.sol\":8341:8366  status != MPStatus.CLOSED */\n      0x03\n      dup2\n      gt\n      iszero\n      tag_219\n      jumpi\n      tag_220\n      tag_100\n      jump\t// in\n    tag_220:\n    tag_219:\n      sub\n        /* \"contracts/core/MPensionVault_flattened.sol\":8333:8383  require(status != MPStatus.CLOSED, \"vault closed\") */\n      tag_221\n      jumpi\n      mload(0x40)\n      0x08c379a000000000000000000000000000000000000000000000000000000000\n      dup2\n      mstore\n      0x04\n      add\n      tag_222\n      swap1\n      tag_105\n      jump\t// in\n    tag_222:\n      mload(0x40)\n      dup1\n      swap2\n      sub\n      swap1\n      revert\n    tag_221:\n        /* \"contracts/core/MPensionVault_flattened.sol\":8733:8741  register */\n      0x00\n      0x03\n      swap1\n      sload\n      swap1\n      0x0100\n      exp\n      swap1\n      div\n      0xffffffffffffffffffffffffffffffffffffffff\n      and\n        /* \"contracts/core/MPensionVault_flattened.sol\":8733:8752  register.getAddress */\n      0xffffffffffffffffffffffffffffffffffffffff\n      and\n      0xbf40fac1\n        /* \"contracts/core/MPensionVault_flattened.sol\":8753:8764  TREASURY_CA */\n      mload(0x40)\n      dup1\n      0x40\n      add\n      0x40\n      mstore\n      dup1\n      0x14\n      dup2\n      mstore\n      0x20\n      add\n      0x52455345525645445f4d505f5452454153555259000000000000000000000000\n      dup2\n      mstore\n      pop\n        /* \"contracts/core/MPensionVault_flattened.sol\":8733:8765  register.getAddress(TREASURY_CA) */\n      mload(0x40)\n      dup3\n      0xffffffff\n      and\n      0xe0\n      shl\n      dup2\n      mstore\n      0x04\n      add\n      tag_224\n      swap2\n      swap1\n      tag_30\n      jump\t// in\n    tag_224:\n      0x20\n      mload(0x40)\n      dup1\n      dup4\n      sub\n      dup2\n      dup7\n      gas\n      staticcall\n      iszero\n      dup1\n      iszero\n      tag_226\n      jumpi\n      returndatacopy(0x00, 0x00, returndatasize)\n      revert(0x00, returndatasize)\n    tag_226:\n      pop\n      pop\n      pop\n      pop\n      mload(0x40)\n      returndatasize\n      not(0x1f)\n      0x1f\n      dup3\n      add\n      and\n      dup3\n      add\n      dup1\n      0x40\n      mstore\n      pop\n      dup2\n      add\n      swap1\n      tag_227\n      swap2\n      swap1\n      tag_90\n      jump\t// in\n    tag_227:\n        /* \"contracts/core/MPensionVault_flattened.sol\":8719:8765  msg.sender == register.getAddress(TREASURY_CA) */\n      0xffffffffffffffffffffffffffffffffffffffff\n      and\n        /* \"contracts/core/MPensionVault_flattened.sol\":8719:8729  msg.sender */\n      caller\n        /* \"contracts/core/MPensionVault_flattened.sol\":8719:8765  msg.sender == register.getAddress(TREASURY_CA) */\n      0xffffffffffffffffffffffffffffffffffffffff\n      and\n      eq\n        /* \"contracts/core/MPensionVault_flattened.sol\":8711:8783  require(msg.sender == register.getAddress(TREASURY_CA), \"Treasury Only\") */\n      tag_228\n      jumpi\n      mload(0x40)\n      0x08c379a000000000000000000000000000000000000000000000000000000000\n      dup2\n      mstore\n      0x04\n      add\n      tag_229\n      swap1\n      tag_155\n      jump\t// in\n    tag_229:\n      mload(0x40)\n      dup1\n      swap2\n      sub\n      swap1\n      revert\n    tag_228:\n        /* \"contracts/core/MPensionVault_flattened.sol\":15698:15702  true */\n      0x01\n        /* \"contracts/core/MPensionVault_flattened.sol\":15689:15695  locked */\n      0x00\n      0x00\n        /* \"contracts/core/MPensionVault_flattened.sol\":15689:15702  locked = true */\n      0x0100\n      exp\n      dup2\n      sload\n      dup2\n      0xff\n      mul\n      not\n      and\n      swap1\n      dup4\n      iszero\n      iszero\n      mul\n      or\n      swap1\n      sstore\n      pop\n        /* \"contracts/core/MPensionVault_flattened.sol\":15716:15740  MPension memory pension_ */\n      0x00\n        /* \"contracts/core/MPensionVault_flattened.sol\":15743:15763  getPensionInternal() */\n      tag_231\n        /* \"contracts/core/MPensionVault_flattened.sol\":15743:15761  getPensionInternal */\n      tag_108\n        /* \"contracts/core/MPensionVault_flattened.sol\":15743:15763  getPensionInternal() */\n      jump\t// in\n    tag_231:\n        /* \"contracts/core/MPensionVault_flattened.sol\":15716:15763  MPension memory pension_ = getPensionInternal() */\n      swap1\n      pop\n        /* \"contracts/core/MPensionVault_flattened.sol\":15801:15816  issuedPrincipal */\n      sload(0x06)\n        /* \"contracts/core/MPensionVault_flattened.sol\":15787:15797  _principal */\n      dup5\n        /* \"contracts/core/MPensionVault_flattened.sol\":15787:15816  _principal >= issuedPrincipal */\n      lt\n      iszero\n        /* \"contracts/core/MPensionVault_flattened.sol\":15779:15852  require(_principal >= issuedPrincipal, \"insufficient principal returned\") */\n      tag_232\n      jumpi\n      mload(0x40)\n      0x08c379a000000000000000000000000000000000000000000000000000000000\n      dup2\n      mstore\n      0x04\n      add\n      tag_233\n      swap1\n      tag_234\n      jump\t// in\n    tag_233:\n      mload(0x40)\n      dup1\n      swap2\n      sub\n      swap1\n      revert\n    tag_232:\n        /* \"contracts/core/MPensionVault_flattened.sol\":15865:15890  uint256 transmittedTotal_ */\n      0x00\n        /* \"contracts/core/MPensionVault_flattened.sol\":15906:15915  _earnings */\n      dup4\n        /* \"contracts/core/MPensionVault_flattened.sol\":15893:15903  _principal */\n      dup6\n        /* \"contracts/core/MPensionVault_flattened.sol\":15893:15915  _principal + _earnings */\n      tag_235\n      swap2\n      swap1\n      tag_236\n      jump\t// in\n    tag_235:\n        /* \"contracts/core/MPensionVault_flattened.sol\":15865:15915  uint256 transmittedTotal_ = _principal + _earnings */\n      swap1\n      pop\n        /* \"contracts/core/MPensionVault_flattened.sol\":15937:15949  isInTreasury */\n      0x07\n      0x00\n      swap1\n      sload\n      swap1\n      0x0100\n      exp\n      swap1\n      div\n      0xff\n      and\n        /* \"contracts/core/MPensionVault_flattened.sol\":15929:15970  require(isInTreasury, \"vault not pulled\") */\n      tag_237\n      jumpi\n      mload(0x40)\n      0x08c379a000000000000000000000000000000000000000000000000000000000\n      dup2\n      mstore\n      0x04\n      add\n      tag_238\n      swap1\n      tag_239\n      jump\t// in\n    tag_238:\n      mload(0x40)\n      dup1\n      swap2\n      sub\n      swap1\n      revert\n    tag_237:\n        /* \"contracts/core/MPensionVault_flattened.sol\":15984:16005  address erc20Address_ */\n      0x00\n        /* \"contracts/core/MPensionVault_flattened.sol\":16008:16016  pension_ */\n      dup3\n        /* \"contracts/core/MPensionVault_flattened.sol\":16008:16024  pension_.product */\n      0xc0\n      add\n      mload\n        /* \"contracts/core/MPensionVault_flattened.sol\":16008:16030  pension_.product.erc20 */\n      0x40\n      add\n      mload\n        /* \"contracts/core/MPensionVault_flattened.sol\":15984:16030  address erc20Address_ = pension_.product.erc20 */\n      swap1\n      pop\n        /* \"contracts/core/MPensionVault_flattened.sol\":8932:8974  0xEeeeeEeeeEeEeeEeEeEeeEEEeeeeEeeeeeeeEEeE */\n      0xeeeeeeeeeeeeeeeeeeeeeeeeeeeeeeeeeeeeeeee\n        /* \"contracts/core/MPensionVault_flattened.sol\":16045:16068  erc20Address_ == NATIVE */\n      0xffffffffffffffffffffffffffffffffffffffff\n      and\n        /* \"contracts/core/MPensionVault_flattened.sol\":16045:16058  erc20Address_ */\n      dup2\n        /* \"contracts/core/MPensionVault_flattened.sol\":16045:16068  erc20Address_ == NATIVE */\n      0xffffffffffffffffffffffffffffffffffffffff\n      and\n      sub\n        /* \"contracts/core/MPensionVault_flattened.sol\":16042:16320  if(erc20Address_ == NATIVE) {... */\n      tag_240\n      jumpi\n        /* \"contracts/core/MPensionVault_flattened.sol\":16106:16123  transmittedTotal_ */\n      dup2\n        /* \"contracts/core/MPensionVault_flattened.sol\":16093:16102  msg.value */\n      callvalue\n        /* \"contracts/core/MPensionVault_flattened.sol\":16093:16123  msg.value >= transmittedTotal_ */\n      lt\n      iszero\n        /* \"contracts/core/MPensionVault_flattened.sol\":16085:16156  require(msg.value >= transmittedTotal_, \"insuffient transmitted value\") */\n      tag_241\n      jumpi\n      mload(0x40)\n      0x08c379a000000000000000000000000000000000000000000000000000000000\n      dup2\n      mstore\n      0x04\n      add\n      tag_242\n      swap1\n      tag_243\n      jump\t// in\n    tag_242:\n      mload(0x40)\n      dup1\n      swap2\n      sub\n      swap1\n      revert\n    tag_241:\n        /* \"contracts/core/MPensionVault_flattened.sol\":16042:16320  if(erc20Address_ == NATIVE) {... */\n      jump(tag_244)\n    tag_240:\n        /* \"contracts/core/MPensionVault_flattened.sol\":16200:16213  IERC20 erc20_ */\n      0x00\n        /* \"contracts/core/MPensionVault_flattened.sol\":16223:16236  erc20Address_ */\n      dup2\n        /* \"contracts/core/MPensionVault_flattened.sol\":16200:16237  IERC20 erc20_ = IERC20(erc20Address_) */\n      swap1\n      pop\n        /* \"contracts/core/MPensionVault_flattened.sol\":16252:16258  erc20_ */\n      dup1\n        /* \"contracts/core/MPensionVault_flattened.sol\":16252:16271  erc20_.transferFrom */\n      0xffffffffffffffffffffffffffffffffffffffff\n      and\n      0x23b872dd\n        /* \"contracts/core/MPensionVault_flattened.sol\":16272:16282  msg.sender */\n      caller\n        /* \"contracts/core/MPensionVault_flattened.sol\":16284:16288  self */\n      immutable(\"0x9e1fb2b79e882622ed243a034292b4fa176df601f71d921cffbf6c845001c2b4\")\n        /* \"contracts/core/MPensionVault_flattened.sol\":16290:16307  transmittedTotal_ */\n      dup7\n        /* \"contracts/core/MPensionVault_flattened.sol\":16252:16308  erc20_.transferFrom(msg.sender, self, transmittedTotal_) */\n      mload(0x40)\n      dup5\n      0xffffffff\n      and\n      0xe0\n      shl\n      dup2\n      mstore\n      0x04\n      add\n      tag_245\n      swap4\n      swap3\n      swap2\n      swap1\n      tag_246\n      jump\t// in\n    tag_245:\n      0x20\n      mload(0x40)\n      dup1\n      dup4\n      sub\n      dup2\n      0x00\n      dup8\n      gas\n      call\n      iszero\n      dup1\n      iszero\n      tag_248\n      jumpi\n      returndatacopy(0x00, 0x00, returndatasize)\n      revert(0x00, returndatasize)\n    tag_248:\n      pop\n      pop\n      pop\n      pop\n      mload(0x40)\n      returndatasize\n      not(0x1f)\n      0x1f\n      dup3\n      add\n      and\n      dup3\n      add\n      dup1\n      0x40\n      mstore\n      pop\n      dup2\n      add\n      swap1\n      tag_249\n      swap2\n      swap1\n      tag_136\n      jump\t// in\n    tag_249:\n      pop\n        /* \"contracts/core/MPensionVault_flattened.sol\":16184:16320  { ... */\n      pop\n        /* \"contracts/core/MPensionVault_flattened.sol\":16042:16320  if(erc20Address_ == NATIVE) {... */\n    tag_244:\n        /* \"contracts/core/MPensionVault_flattened.sol\":16330:16357  uint256 interimDifferential */\n      0x00\n        /* \"contracts/core/MPensionVault_flattened.sol\":16377:16392  issuedPrincipal */\n      sload(0x06)\n        /* \"contracts/core/MPensionVault_flattened.sol\":16360:16374  pensionBalance */\n      sload(0x02)\n        /* \"contracts/core/MPensionVault_flattened.sol\":16360:16392  pensionBalance - issuedPrincipal */\n      tag_250\n      swap2\n      swap1\n      tag_251\n      jump\t// in\n    tag_250:\n        /* \"contracts/core/MPensionVault_flattened.sol\":16330:16392  uint256 interimDifferential = pensionBalance - issuedPrincipal */\n      swap1\n      pop\n        /* \"contracts/core/MPensionVault_flattened.sol\":16461:16470  _earnings */\n      dup6\n        /* \"contracts/core/MPensionVault_flattened.sol\":16443:16458  issuedPrincipal */\n      sload(0x06)\n        /* \"contracts/core/MPensionVault_flattened.sol\":16421:16440  interimDifferential */\n      dup3\n        /* \"contracts/core/MPensionVault_flattened.sol\":16421:16458  interimDifferential + issuedPrincipal */\n      tag_252\n      swap2\n      swap1\n      tag_236\n      jump\t// in\n    tag_252:\n        /* \"contracts/core/MPensionVault_flattened.sol\":16421:16470  interimDifferential + issuedPrincipal + _earnings */\n      tag_253\n      swap2\n      swap1\n      tag_236\n      jump\t// in\n    tag_253:\n        /* \"contracts/core/MPensionVault_flattened.sol\":16404:16418  pensionBalance */\n      0x02\n        /* \"contracts/core/MPensionVault_flattened.sol\":16404:16470  pensionBalance = interimDifferential + issuedPrincipal + _earnings */\n      dup2\n      swap1\n      sstore\n      pop\n        /* \"contracts/core/MPensionVault_flattened.sol\":16599:16614  checkMaturity() */\n      tag_254\n        /* \"contracts/core/MPensionVault_flattened.sol\":16599:16612  checkMaturity */\n      tag_255\n        /* \"contracts/core/MPensionVault_flattened.sol\":16599:16614  checkMaturity() */\n      jump\t// in\n    tag_254:\n        /* \"contracts/core/MPensionVault_flattened.sol\":16633:16729  addTx(TxType.CONTRIBUTE, ObjType.MPENSION, pensionId, transmittedTotal_, pension_.product.erc20) */\n      tag_256\n        /* \"contracts/core/MPensionVault_flattened.sol\":16639:16656  TxType.CONTRIBUTE */\n      0x01\n        /* \"contracts/core/MPensionVault_flattened.sol\":16658:16674  ObjType.MPENSION */\n      0x00\n        /* \"contracts/core/MPensionVault_flattened.sol\":16676:16685  pensionId */\n      immutable(\"0x42d683e394a4df18653c7650f8aa08cb69f6a4b0d0acad4653af662538b2a674\")\n        /* \"contracts/core/MPensionVault_flattened.sol\":16687:16704  transmittedTotal_ */\n      dup7\n        /* \"contracts/core/MPensionVault_flattened.sol\":16706:16714  pension_ */\n      dup9\n        /* \"contracts/core/MPensionVault_flattened.sol\":16706:16722  pension_.product */\n      0xc0\n      add\n      mload\n        /* \"contracts/core/MPensionVault_flattened.sol\":16706:16728  pension_.product.erc20 */\n      0x40\n      add\n      mload\n        /* \"contracts/core/MPensionVault_flattened.sol\":16633:16638  addTx */\n      tag_138\n        /* \"contracts/core/MPensionVault_flattened.sol\":16633:16729  addTx(TxType.CONTRIBUTE, ObjType.MPENSION, pensionId, transmittedTotal_, pension_.product.erc20) */\n      jump\t// in\n    tag_256:\n        /* \"contracts/core/MPensionVault_flattened.sol\":16625:16729  _txId = addTx(TxType.CONTRIBUTE, ObjType.MPENSION, pensionId, transmittedTotal_, pension_.product.erc20) */\n      swap5\n      pop\n        /* \"contracts/core/MPensionVault_flattened.sol\":16740:16757  txIdsByTreasuryId */\n      0x08\n        /* \"contracts/core/MPensionVault_flattened.sol\":16740:16770  txIdsByTreasuryId[_treasuryId] */\n      0x00\n        /* \"contracts/core/MPensionVault_flattened.sol\":16758:16769  _treasuryId */\n      dup10\n        /* \"contracts/core/MPensionVault_flattened.sol\":16740:16770  txIdsByTreasuryId[_treasuryId] */\n      dup2\n      mstore\n      0x20\n      add\n      swap1\n      dup2\n      mstore\n      0x20\n      add\n      0x00\n      keccak256\n        /* \"contracts/core/MPensionVault_flattened.sol\":16776:16781  _txId */\n      dup6\n        /* \"contracts/core/MPensionVault_flattened.sol\":16740:16782  txIdsByTreasuryId[_treasuryId].push(_txId) */\n      swap1\n      dup1\n      0x01\n      dup2\n      sload\n      add\n      dup1\n      dup3\n      sstore\n      dup1\n      swap2\n      pop\n      pop\n      0x01\n      swap1\n      sub\n      swap1\n      0x00\n      mstore\n      keccak256(0x00, 0x20)\n      add\n      0x00\n      swap1\n      swap2\n      swap1\n      swap2\n      swap1\n      swap2\n      pop\n      sstore\n        /* \"contracts/core/MPensionVault_flattened.sol\":16810:16815  false */\n      0x00\n        /* \"contracts/core/MPensionVault_flattened.sol\":16795:16807  isInTreasury */\n      0x07\n      0x00\n        /* \"contracts/core/MPensionVault_flattened.sol\":16795:16815  isInTreasury = false */\n      0x0100\n      exp\n      dup2\n      sload\n      dup2\n      0xff\n      mul\n      not\n      and\n      swap1\n      dup4\n      iszero\n      iszero\n      mul\n      or\n      swap1\n      sstore\n      pop\n        /* \"contracts/core/MPensionVault_flattened.sol\":16847:16852  false */\n      0x00\n        /* \"contracts/core/MPensionVault_flattened.sol\":16838:16844  locked */\n      0x00\n      0x00\n        /* \"contracts/core/MPensionVault_flattened.sol\":16838:16852  locked = false */\n      0x0100\n      exp\n      dup2\n      sload\n      dup2\n      0xff\n      mul\n      not\n      and\n      swap1\n      dup4\n      iszero\n      iszero\n      mul\n      or\n      swap1\n      sstore\n      pop\n        /* \"contracts/core/MPensionVault_flattened.sol\":16881:16893  return _txId */\n      pop\n      pop\n      pop\n      pop\n        /* \"contracts/core/MPensionVault_flattened.sol\":15540:16903  function push(uint256 _treasuryId, uint256 _principal, uint256 _earnings)  payable external semaphore treasuryOnly returns (uint256 _txId){... */\n      swap4\n      swap3\n      pop\n      pop\n      pop\n      jump\t// out\n        /* \"contracts/core/MPensionVault_flattened.sol\":10595:10734  function getTx(uint256 _treasuryId) view external returns (uint256 [] memory _txId){... */\n    tag_66:\n        /* \"contracts/core/MPensionVault_flattened.sol\":10654:10677  uint256 [] memory _txId */\n      0x60\n        /* \"contracts/core/MPensionVault_flattened.sol\":10696:10713  txIdsByTreasuryId */\n      0x08\n        /* \"contracts/core/MPensionVault_flattened.sol\":10696:10726  txIdsByTreasuryId[_treasuryId] */\n      0x00\n        /* \"contracts/core/MPensionVault_flattened.sol\":10714:10725  _treasuryId */\n      dup4\n        /* \"contracts/core/MPensionVault_flattened.sol\":10696:10726  txIdsByTreasuryId[_treasuryId] */\n      dup2\n      mstore\n      0x20\n      add\n      swap1\n      dup2\n      mstore\n      0x20\n      add\n      0x00\n      keccak256\n        /* \"contracts/core/MPensionVault_flattened.sol\":10689:10726  return txIdsByTreasuryId[_treasuryId] */\n      dup1\n      sload\n      dup1\n      0x20\n      mul\n      0x20\n      add\n      mload(0x40)\n      swap1\n      dup2\n      add\n      0x40\n      mstore\n      dup1\n      swap3\n      swap2\n      swap1\n      dup2\n      dup2\n      mstore\n      0x20\n      add\n      dup3\n      dup1\n      sload\n      dup1\n      iszero\n      tag_259\n      jumpi\n      0x20\n      mul\n      dup3\n      add\n      swap2\n      swap1\n      0x00\n      mstore\n      keccak256(0x00, 0x20)\n      swap1\n    tag_260:\n      dup2\n      sload\n      dup2\n      mstore\n      0x20\n      add\n      swap1\n      0x01\n      add\n      swap1\n      dup1\n      dup4\n      gt\n      tag_260\n      jumpi\n    tag_259:\n      pop\n      pop\n      pop\n      pop\n      pop\n      swap1\n      pop\n        /* \"contracts/core/MPensionVault_flattened.sol\":10595:10734  function getTx(uint256 _treasuryId) view external returns (uint256 [] memory _txId){... */\n      swap2\n      swap1\n      pop\n      jump\t// out\n        /* \"contracts/core/MPensionVault_flattened.sol\":10742:12073  function contribute(uint256 _amount) payable external semaphore returns (uint256 _txId){... */\n    tag_71:\n        /* \"contracts/core/MPensionVault_flattened.sol\":10815:10828  uint256 _txId */\n      0x00\n        /* \"contracts/core/MPensionVault_flattened.sol\":8299:8305  locked */\n      0x00\n      0x00\n      swap1\n      sload\n      swap1\n      0x0100\n      exp\n      swap1\n      div\n      0xff\n      and\n        /* \"contracts/core/MPensionVault_flattened.sol\":8298:8305  !locked */\n      iszero\n        /* \"contracts/core/MPensionVault_flattened.sol\":8290:8322  require(!locked, \"vault locked\") */\n      tag_262\n      jumpi\n      mload(0x40)\n      0x08c379a000000000000000000000000000000000000000000000000000000000\n      dup2\n      mstore\n      0x04\n      add\n      tag_263\n      swap1\n      tag_97\n      jump\t// in\n    tag_263:\n      mload(0x40)\n      dup1\n      swap2\n      sub\n      swap1\n      revert\n    tag_262:\n        /* \"contracts/core/MPensionVault_flattened.sol\":8351:8366  MPStatus.CLOSED */\n      0x02\n        /* \"contracts/core/MPensionVault_flattened.sol\":8341:8366  status != MPStatus.CLOSED */\n      0x03\n      dup2\n      gt\n      iszero\n      tag_264\n      jumpi\n      tag_265\n      tag_100\n      jump\t// in\n    tag_265:\n    tag_264:\n        /* \"contracts/core/MPensionVault_flattened.sol\":8341:8347  status */\n      0x00\n      0x01\n      swap1\n      sload\n      swap1\n      0x0100\n      exp\n      swap1\n      div\n      0xff\n      and\n        /* \"contracts/core/MPensionVault_flattened.sol\":8341:8366  status != MPStatus.CLOSED */\n      0x03\n      dup2\n      gt\n      iszero\n      tag_266\n      jumpi\n      tag_267\n      tag_100\n      jump\t// in\n    tag_267:\n    tag_266:\n      sub\n        /* \"contracts/core/MPensionVault_flattened.sol\":8333:8383  require(status != MPStatus.CLOSED, \"vault closed\") */\n      tag_268\n      jumpi\n      mload(0x40)\n      0x08c379a000000000000000000000000000000000000000000000000000000000\n      dup2\n      mstore\n      0x04\n      add\n      tag_269\n      swap1\n      tag_105\n      jump\t// in\n    tag_269:\n      mload(0x40)\n      dup1\n      swap2\n      sub\n      swap1\n      revert\n    tag_268:\n        /* \"contracts/core/MPensionVault_flattened.sol\":10849:10853  true */\n      0x01\n        /* \"contracts/core/MPensionVault_flattened.sol\":10840:10846  locked */\n      0x00\n      0x00\n        /* \"contracts/core/MPensionVault_flattened.sol\":10840:10853  locked = true */\n      0x0100\n      exp\n      dup2\n      sload\n      dup2\n      0xff\n      mul\n      not\n      and\n      swap1\n      dup4\n      iszero\n      iszero\n      mul\n      or\n      swap1\n      sstore\n      pop\n        /* \"contracts/core/MPensionVault_flattened.sol\":10908:10923  block.timestamp */\n      timestamp\n        /* \"contracts/core/MPensionVault_flattened.sol\":10888:10904  lastContribution */\n      sload(0x04)\n        /* \"contracts/core/MPensionVault_flattened.sol\":10888:10923  lastContribution <= block.timestamp */\n      gt\n      iszero\n        /* \"contracts/core/MPensionVault_flattened.sol\":10880:10970  require(lastContribution <= block.timestamp, \"contributions too frequent wait required \" ) */\n      tag_271\n      jumpi\n      mload(0x40)\n      0x08c379a000000000000000000000000000000000000000000000000000000000\n      dup2\n      mstore\n      0x04\n      add\n      tag_272\n      swap1\n      tag_273\n      jump\t// in\n    tag_272:\n      mload(0x40)\n      dup1\n      swap2\n      sub\n      swap1\n      revert\n    tag_271:\n        /* \"contracts/core/MPensionVault_flattened.sol\":11007:11031  MPScheduleStatus.MATURED */\n      0x00\n        /* \"contracts/core/MPensionVault_flattened.sol\":10989:11031  scheduleStatus != MPScheduleStatus.MATURED */\n      0x01\n      dup2\n      gt\n      iszero\n      tag_274\n      jumpi\n      tag_275\n      tag_100\n      jump\t// in\n    tag_275:\n    tag_274:\n        /* \"contracts/core/MPensionVault_flattened.sol\":10989:11003  scheduleStatus */\n      0x00\n      0x02\n      swap1\n      sload\n      swap1\n      0x0100\n      exp\n      swap1\n      div\n      0xff\n      and\n        /* \"contracts/core/MPensionVault_flattened.sol\":10989:11031  scheduleStatus != MPScheduleStatus.MATURED */\n      0x01\n      dup2\n      gt\n      iszero\n      tag_276\n      jumpi\n      tag_277\n      tag_100\n      jump\t// in\n    tag_277:\n    tag_276:\n      sub\n        /* \"contracts/core/MPensionVault_flattened.sol\":10981:11051  require(scheduleStatus != MPScheduleStatus.MATURED, \"pension matured\") */\n      tag_278\n      jumpi\n      mload(0x40)\n      0x08c379a000000000000000000000000000000000000000000000000000000000\n      dup2\n      mstore\n      0x04\n      add\n      tag_279\n      swap1\n      tag_280\n      jump\t// in\n    tag_279:\n      mload(0x40)\n      dup1\n      swap2\n      sub\n      swap1\n      revert\n    tag_278:\n        /* \"contracts/core/MPensionVault_flattened.sol\":11080:11093  MPStatus.OPEN */\n      0x00\n        /* \"contracts/core/MPensionVault_flattened.sol\":11070:11093  status == MPStatus.OPEN */\n      0x03\n      dup2\n      gt\n      iszero\n      tag_281\n      jumpi\n      tag_282\n      tag_100\n      jump\t// in\n    tag_282:\n    tag_281:\n        /* \"contracts/core/MPensionVault_flattened.sol\":11070:11076  status */\n      0x00\n      0x01\n      swap1\n      sload\n      swap1\n      0x0100\n      exp\n      swap1\n      div\n      0xff\n      and\n        /* \"contracts/core/MPensionVault_flattened.sol\":11070:11093  status == MPStatus.OPEN */\n      0x03\n      dup2\n      gt\n      iszero\n      tag_283\n      jumpi\n      tag_284\n      tag_100\n      jump\t// in\n    tag_284:\n    tag_283:\n      eq\n        /* \"contracts/core/MPensionVault_flattened.sol\":11062:11114  require(status == MPStatus.OPEN, \"pension not open\") */\n      tag_285\n      jumpi\n      mload(0x40)\n      0x08c379a000000000000000000000000000000000000000000000000000000000\n      dup2\n      mstore\n      0x04\n      add\n      tag_286\n      swap1\n      tag_287\n      jump\t// in\n    tag_286:\n      mload(0x40)\n      dup1\n      swap2\n      sub\n      swap1\n      revert\n    tag_285:\n        /* \"contracts/core/MPensionVault_flattened.sol\":11127:11151  MPension memory pension_ */\n      0x00\n        /* \"contracts/core/MPensionVault_flattened.sol\":11154:11174  getPensionInternal() */\n      tag_288\n        /* \"contracts/core/MPensionVault_flattened.sol\":11154:11172  getPensionInternal */\n      tag_108\n        /* \"contracts/core/MPensionVault_flattened.sol\":11154:11174  getPensionInternal() */\n      jump\t// in\n    tag_288:\n        /* \"contracts/core/MPensionVault_flattened.sol\":11127:11174  MPension memory pension_ = getPensionInternal() */\n      swap1\n      pop\n        /* \"contracts/core/MPensionVault_flattened.sol\":11206:11264  getSeconds(pension_.product.contributionSchedule.schedule) */\n      tag_289\n        /* \"contracts/core/MPensionVault_flattened.sol\":11217:11225  pension_ */\n      dup2\n        /* \"contracts/core/MPensionVault_flattened.sol\":11217:11233  pension_.product */\n      0xc0\n      add\n      mload\n        /* \"contracts/core/MPensionVault_flattened.sol\":11217:11254  pension_.product.contributionSchedule */\n      0xe0\n      add\n      mload\n        /* \"contracts/core/MPensionVault_flattened.sol\":11217:11263  pension_.product.contributionSchedule.schedule */\n      0x00\n      add\n      mload\n        /* \"contracts/core/MPensionVault_flattened.sol\":11206:11216  getSeconds */\n      tag_290\n        /* \"contracts/core/MPensionVault_flattened.sol\":11206:11264  getSeconds(pension_.product.contributionSchedule.schedule) */\n      jump\t// in\n    tag_289:\n        /* \"contracts/core/MPensionVault_flattened.sol\":11186:11202  lastContribution */\n      0x04\n      0x00\n        /* \"contracts/core/MPensionVault_flattened.sol\":11186:11264  lastContribution += getSeconds(pension_.product.contributionSchedule.schedule) */\n      dup3\n      dup3\n      sload\n      tag_291\n      swap2\n      swap1\n      tag_236\n      jump\t// in\n    tag_291:\n      swap3\n      pop\n      pop\n      dup2\n      swap1\n      sstore\n      pop\n        /* \"contracts/core/MPensionVault_flattened.sol\":11297:11305  pension_ */\n      dup1\n        /* \"contracts/core/MPensionVault_flattened.sol\":11297:11313  pension_.product */\n      0xc0\n      add\n      mload\n        /* \"contracts/core/MPensionVault_flattened.sol\":11297:11334  pension_.product.contributionSchedule */\n      0xe0\n      add\n      mload\n        /* \"contracts/core/MPensionVault_flattened.sol\":11297:11348  pension_.product.contributionSchedule.minimumAmount */\n      0x40\n      add\n      mload\n        /* \"contracts/core/MPensionVault_flattened.sol\":11286:11293  _amount */\n      dup4\n        /* \"contracts/core/MPensionVault_flattened.sol\":11286:11348  _amount >= pension_.product.contributionSchedule.minimumAmount */\n      lt\n      iszero\n        /* \"contracts/core/MPensionVault_flattened.sol\":11286:11414  _amount >= pension_.product.contributionSchedule.minimumAmount && _amount <= pension_.product.contributionSchedule.maximumAmount */\n      dup1\n      iszero\n      tag_292\n      jumpi\n      pop\n        /* \"contracts/core/MPensionVault_flattened.sol\":11363:11371  pension_ */\n      dup1\n        /* \"contracts/core/MPensionVault_flattened.sol\":11363:11379  pension_.product */\n      0xc0\n      add\n      mload\n        /* \"contracts/core/MPensionVault_flattened.sol\":11363:11400  pension_.product.contributionSchedule */\n      0xe0\n      add\n      mload\n        /* \"contracts/core/MPensionVault_flattened.sol\":11363:11414  pension_.product.contributionSchedule.maximumAmount */\n      0x60\n      add\n      mload\n        /* \"contracts/core/MPensionVault_flattened.sol\":11352:11359  _amount */\n      dup4\n        /* \"contracts/core/MPensionVault_flattened.sol\":11352:11414  _amount <= pension_.product.contributionSchedule.maximumAmount */\n      gt\n      iszero\n        /* \"contracts/core/MPensionVault_flattened.sol\":11286:11414  _amount >= pension_.product.contributionSchedule.minimumAmount && _amount <= pension_.product.contributionSchedule.maximumAmount */\n    tag_292:\n        /* \"contracts/core/MPensionVault_flattened.sol\":11278:11468  require(_amount >= pension_.product.contributionSchedule.minimumAmount && _amount <= pension_.product.contributionSchedule.maximumAmount, \"invalid contribution either raise or lower amount\") */\n      tag_293\n      jumpi\n      mload(0x40)\n      0x08c379a000000000000000000000000000000000000000000000000000000000\n      dup2\n      mstore\n      0x04\n      add\n      tag_294\n      swap1\n      tag_295\n      jump\t// in\n    tag_294:\n      mload(0x40)\n      dup1\n      swap2\n      sub\n      swap1\n      revert\n    tag_293:\n        /* \"contracts/core/MPensionVault_flattened.sol\":11481:11502  address erc20Address_ */\n      0x00\n        /* \"contracts/core/MPensionVault_flattened.sol\":11505:11513  pension_ */\n      dup2\n        /* \"contracts/core/MPensionVault_flattened.sol\":11505:11521  pension_.product */\n      0xc0\n      add\n      mload\n        /* \"contracts/core/MPensionVault_flattened.sol\":11505:11527  pension_.product.erc20 */\n      0x40\n      add\n      mload\n        /* \"contracts/core/MPensionVault_flattened.sol\":11481:11527  address erc20Address_ = pension_.product.erc20 */\n      swap1\n      pop\n        /* \"contracts/core/MPensionVault_flattened.sol\":8932:8974  0xEeeeeEeeeEeEeeEeEeEeeEEEeeeeEeeeeeeeEEeE */\n      0xeeeeeeeeeeeeeeeeeeeeeeeeeeeeeeeeeeeeeeee\n        /* \"contracts/core/MPensionVault_flattened.sol\":11542:11565  erc20Address_ == NATIVE */\n      0xffffffffffffffffffffffffffffffffffffffff\n      and\n        /* \"contracts/core/MPensionVault_flattened.sol\":11542:11555  erc20Address_ */\n      dup2\n        /* \"contracts/core/MPensionVault_flattened.sol\":11542:11565  erc20Address_ == NATIVE */\n      0xffffffffffffffffffffffffffffffffffffffff\n      and\n      sub\n        /* \"contracts/core/MPensionVault_flattened.sol\":11539:11792  if(erc20Address_ == NATIVE) {... */\n      tag_296\n      jumpi\n        /* \"contracts/core/MPensionVault_flattened.sol\":11603:11610  _amount */\n      dup4\n        /* \"contracts/core/MPensionVault_flattened.sol\":11590:11599  msg.value */\n      callvalue\n        /* \"contracts/core/MPensionVault_flattened.sol\":11590:11610  msg.value >= _amount */\n      lt\n      iszero\n        /* \"contracts/core/MPensionVault_flattened.sol\":11582:11637  require(msg.value >= _amount, \"contribution mis-match\") */\n      tag_297\n      jumpi\n      mload(0x40)\n      0x08c379a000000000000000000000000000000000000000000000000000000000\n      dup2\n      mstore\n      0x04\n      add\n      tag_298\n      swap1\n      tag_299\n      jump\t// in\n    tag_298:\n      mload(0x40)\n      dup1\n      swap2\n      sub\n      swap1\n      revert\n    tag_297:\n        /* \"contracts/core/MPensionVault_flattened.sol\":11539:11792  if(erc20Address_ == NATIVE) {... */\n      jump(tag_300)\n    tag_296:\n        /* \"contracts/core/MPensionVault_flattened.sol\":11681:11694  IERC20 erc20_ */\n      0x00\n        /* \"contracts/core/MPensionVault_flattened.sol\":11704:11717  erc20Address_ */\n      dup2\n        /* \"contracts/core/MPensionVault_flattened.sol\":11681:11718  IERC20 erc20_ = IERC20(erc20Address_) */\n      swap1\n      pop\n        /* \"contracts/core/MPensionVault_flattened.sol\":11733:11739  erc20_ */\n      dup1\n        /* \"contracts/core/MPensionVault_flattened.sol\":11733:11752  erc20_.transferFrom */\n      0xffffffffffffffffffffffffffffffffffffffff\n      and\n      0x23b872dd\n        /* \"contracts/core/MPensionVault_flattened.sol\":11753:11763  msg.sender */\n      caller\n        /* \"contracts/core/MPensionVault_flattened.sol\":11765:11769  self */\n      immutable(\"0x9e1fb2b79e882622ed243a034292b4fa176df601f71d921cffbf6c845001c2b4\")\n        /* \"contracts/core/MPensionVault_flattened.sol\":11771:11778  _amount */\n      dup9\n        /* \"contracts/core/MPensionVault_flattened.sol\":11733:11779  erc20_.transferFrom(msg.sender, self, _amount) */\n      mload(0x40)\n      dup5\n      0xffffffff\n      and\n      0xe0\n      shl\n      dup2\n      mstore\n      0x04\n      add\n      tag_301\n      swap4\n      swap3\n      swap2\n      swap1\n      tag_246\n      jump\t// in\n    tag_301:\n      0x20\n      mload(0x40)\n      dup1\n      dup4\n      sub\n      dup2\n      0x00\n      dup8\n      gas\n      call\n      iszero\n      dup1\n      iszero\n      tag_303\n      jumpi\n      returndatacopy(0x00, 0x00, returndatasize)\n      revert(0x00, returndatasize)\n    tag_303:\n      pop\n      pop\n      pop\n      pop\n      mload(0x40)\n      returndatasize\n      not(0x1f)\n      0x1f\n      dup3\n      add\n      and\n      dup3\n      add\n      dup1\n      0x40\n      mstore\n      pop\n      dup2\n      add\n      swap1\n      tag_304\n      swap2\n      swap1\n      tag_136\n      jump\t// in\n    tag_304:\n      pop\n        /* \"contracts/core/MPensionVault_flattened.sol\":11665:11792  { ... */\n      pop\n        /* \"contracts/core/MPensionVault_flattened.sol\":11539:11792  if(erc20Address_ == NATIVE) {... */\n    tag_300:\n        /* \"contracts/core/MPensionVault_flattened.sol\":11820:11827  _amount */\n      dup4\n        /* \"contracts/core/MPensionVault_flattened.sol\":11802:11816  pensionBalance */\n      0x02\n      0x00\n        /* \"contracts/core/MPensionVault_flattened.sol\":11802:11827  pensionBalance += _amount */\n      dup3\n      dup3\n      sload\n      tag_305\n      swap2\n      swap1\n      tag_236\n      jump\t// in\n    tag_305:\n      swap3\n      pop\n      pop\n      dup2\n      swap1\n      sstore\n      pop\n        /* \"contracts/core/MPensionVault_flattened.sol\":11839:11852  contributions */\n      0x01\n      0x00\n        /* \"contracts/core/MPensionVault_flattened.sol\":11839:11854  contributions++ */\n      dup2\n      sload\n      dup1\n      swap3\n      swap2\n      swap1\n      tag_306\n      swap1\n      tag_307\n      jump\t// in\n    tag_306:\n      swap2\n      swap1\n      pop\n      sstore\n      pop\n        /* \"contracts/core/MPensionVault_flattened.sol\":11866:11881  checkMaturity() */\n      tag_308\n        /* \"contracts/core/MPensionVault_flattened.sol\":11866:11879  checkMaturity */\n      tag_255\n        /* \"contracts/core/MPensionVault_flattened.sol\":11866:11881  checkMaturity() */\n      jump\t// in\n    tag_308:\n        /* \"contracts/core/MPensionVault_flattened.sol\":11911:11997  addTx(TxType.CONTRIBUTE, ObjType.MPENSION, pensionId, _amount, pension_.product.erc20) */\n      tag_309\n        /* \"contracts/core/MPensionVault_flattened.sol\":11917:11934  TxType.CONTRIBUTE */\n      0x01\n        /* \"contracts/core/MPensionVault_flattened.sol\":11936:11952  ObjType.MPENSION */\n      0x00\n        /* \"contracts/core/MPensionVault_flattened.sol\":11954:11963  pensionId */\n      immutable(\"0x42d683e394a4df18653c7650f8aa08cb69f6a4b0d0acad4653af662538b2a674\")\n        /* \"contracts/core/MPensionVault_flattened.sol\":11965:11972  _amount */\n      dup8\n        /* \"contracts/core/MPensionVault_flattened.sol\":11974:11982  pension_ */\n      dup7\n        /* \"contracts/core/MPensionVault_flattened.sol\":11974:11990  pension_.product */\n      0xc0\n      add\n      mload\n        /* \"contracts/core/MPensionVault_flattened.sol\":11974:11996  pension_.product.erc20 */\n      0x40\n      add\n      mload\n        /* \"contracts/core/MPensionVault_flattened.sol\":11911:11916  addTx */\n      tag_138\n        /* \"contracts/core/MPensionVault_flattened.sol\":11911:11997  addTx(TxType.CONTRIBUTE, ObjType.MPENSION, pensionId, _amount, pension_.product.erc20) */\n      jump\t// in\n    tag_309:\n        /* \"contracts/core/MPensionVault_flattened.sol\":11903:11997  _txId = addTx(TxType.CONTRIBUTE, ObjType.MPENSION, pensionId, _amount, pension_.product.erc20) */\n      swap3\n      pop\n        /* \"contracts/core/MPensionVault_flattened.sol\":12017:12022  false */\n      0x00\n        /* \"contracts/core/MPensionVault_flattened.sol\":12008:12014  locked */\n      0x00\n      0x00\n        /* \"contracts/core/MPensionVault_flattened.sol\":12008:12022  locked = false */\n      0x0100\n      exp\n      dup2\n      sload\n      dup2\n      0xff\n      mul\n      not\n      and\n      swap1\n      dup4\n      iszero\n      iszero\n      mul\n      or\n      swap1\n      sstore\n      pop\n        /* \"contracts/core/MPensionVault_flattened.sol\":12051:12063  return _txId */\n      pop\n      pop\n        /* \"contracts/core/MPensionVault_flattened.sol\":10742:12073  function contribute(uint256 _amount) payable external semaphore returns (uint256 _txId){... */\n      swap2\n      swap1\n      pop\n      jump\t// out\n        /* \"contracts/core/MPensionVault_flattened.sol\":16911:17089  function notifyChangeOfAddress() external adminOnly returns (bool _acknowledged) { ... */\n    tag_75:\n        /* \"contracts/core/MPensionVault_flattened.sol\":16972:16990  bool _acknowledged */\n      0x00\n        /* \"contracts/core/MPensionVault_flattened.sol\":8589:8597  register */\n      0x00\n      0x03\n      swap1\n      sload\n      swap1\n      0x0100\n      exp\n      swap1\n      div\n      0xffffffffffffffffffffffffffffffffffffffff\n      and\n        /* \"contracts/core/MPensionVault_flattened.sol\":8589:8608  register.getAddress */\n      0xffffffffffffffffffffffffffffffffffffffff\n      and\n      0xbf40fac1\n        /* \"contracts/core/MPensionVault_flattened.sol\":8609:8625  PENSION_ADMIN_CA */\n      mload(0x40)\n      dup1\n      0x40\n      add\n      0x40\n      mstore\n      dup1\n      0x11\n      dup2\n      mstore\n      0x20\n      add\n      0x52455345525645445f4d505f41444d494e000000000000000000000000000000\n      dup2\n      mstore\n      pop\n        /* \"contracts/core/MPensionVault_flattened.sol\":8589:8626  register.getAddress(PENSION_ADMIN_CA) */\n      mload(0x40)\n      dup3\n      0xffffffff\n      and\n      0xe0\n      shl\n      dup2\n      mstore\n      0x04\n      add\n      tag_311\n      swap2\n      swap1\n      tag_30\n      jump\t// in\n    tag_311:\n      0x20\n      mload(0x40)\n      dup1\n      dup4\n      sub\n      dup2\n      dup7\n      gas\n      staticcall\n      iszero\n      dup1\n      iszero\n      tag_313\n      jumpi\n      returndatacopy(0x00, 0x00, returndatasize)\n      revert(0x00, returndatasize)\n    tag_313:\n      pop\n      pop\n      pop\n      pop\n      mload(0x40)\n      returndatasize\n      not(0x1f)\n      0x1f\n      dup3\n      add\n      and\n      dup3\n      add\n      dup1\n      0x40\n      mstore\n      pop\n      dup2\n      add\n      swap1\n      tag_314\n      swap2\n      swap1\n      tag_90\n      jump\t// in\n    tag_314:\n        /* \"contracts/core/MPensionVault_flattened.sol\":8575:8626  msg.sender == register.getAddress(PENSION_ADMIN_CA) */\n      0xffffffffffffffffffffffffffffffffffffffff\n      and\n        /* \"contracts/core/MPensionVault_flattened.sol\":8575:8585  msg.sender */\n      caller\n        /* \"contracts/core/MPensionVault_flattened.sol\":8575:8626  msg.sender == register.getAddress(PENSION_ADMIN_CA) */\n      0xffffffffffffffffffffffffffffffffffffffff\n      and\n      eq\n        /* \"contracts/core/MPensionVault_flattened.sol\":8567:8649  require(msg.sender == register.getAddress(PENSION_ADMIN_CA), \"Pension Admin Only\") */\n      tag_315\n      jumpi\n      mload(0x40)\n      0x08c379a000000000000000000000000000000000000000000000000000000000\n      dup2\n      mstore\n      0x04\n      add\n      tag_316\n      swap1\n      tag_93\n      jump\t// in\n    tag_316:\n      mload(0x40)\n      dup1\n      swap2\n      sub\n      swap1\n      revert\n    tag_315:\n        /* \"contracts/core/MPensionVault_flattened.sol\":17025:17033  register */\n      0x00\n      0x03\n      swap1\n      sload\n      swap1\n      0x0100\n      exp\n      swap1\n      div\n      0xffffffffffffffffffffffffffffffffffffffff\n      and\n        /* \"contracts/core/MPensionVault_flattened.sol\":17025:17044  register.getAddress */\n      0xffffffffffffffffffffffffffffffffffffffff\n      and\n      0xbf40fac1\n        /* \"contracts/core/MPensionVault_flattened.sol\":17045:17056  REGISTER_CA */\n      mload(0x40)\n      dup1\n      0x40\n      add\n      0x40\n      mstore\n      dup1\n      0x14\n      dup2\n      mstore\n      0x20\n      add\n      0x52455345525645445f4d505f5245474953544552000000000000000000000000\n      dup2\n      mstore\n      pop\n        /* \"contracts/core/MPensionVault_flattened.sol\":17025:17057  register.getAddress(REGISTER_CA) */\n      mload(0x40)\n      dup3\n      0xffffffff\n      and\n      0xe0\n      shl\n      dup2\n      mstore\n      0x04\n      add\n      tag_318\n      swap2\n      swap1\n      tag_30\n      jump\t// in\n    tag_318:\n      0x20\n      mload(0x40)\n      dup1\n      dup4\n      sub\n      dup2\n      dup7\n      gas\n      staticcall\n      iszero\n      dup1\n      iszero\n      tag_320\n      jumpi\n      returndatacopy(0x00, 0x00, returndatasize)\n      revert(0x00, returndatasize)\n    tag_320:\n      pop\n      pop\n      pop\n      pop\n      mload(0x40)\n      returndatasize\n      not(0x1f)\n      0x1f\n      dup3\n      add\n      and\n      dup3\n      add\n      dup1\n      0x40\n      mstore\n      pop\n      dup2\n      add\n      swap1\n      tag_321\n      swap2\n      swap1\n      tag_90\n      jump\t// in\n    tag_321:\n        /* \"contracts/core/MPensionVault_flattened.sol\":17004:17012  register */\n      0x00\n      0x03\n        /* \"contracts/core/MPensionVault_flattened.sol\":17004:17058  register = IRegister(register.getAddress(REGISTER_CA)) */\n      0x0100\n      exp\n      dup2\n      sload\n      dup2\n      0xffffffffffffffffffffffffffffffffffffffff\n      mul\n      not\n      and\n      swap1\n      dup4\n      0xffffffffffffffffffffffffffffffffffffffff\n      and\n      mul\n      or\n      swap1\n      sstore\n      pop\n        /* \"contracts/core/MPensionVault_flattened.sol\":17076:17080  true */\n      0x01\n        /* \"contracts/core/MPensionVault_flattened.sol\":17069:17080  return true */\n      swap1\n      pop\n        /* \"contracts/core/MPensionVault_flattened.sol\":16911:17089  function notifyChangeOfAddress() external adminOnly returns (bool _acknowledged) { ... */\n      swap1\n      jump\t// out\n        /* \"contracts/core/MPensionVault_flattened.sol\":12081:13116  function drawdown() external ownerOnly semaphore returns (uint256 _txId){... */\n    tag_80:\n        /* \"contracts/core/MPensionVault_flattened.sol\":12139:12152  uint256 _txId */\n      0x00\n        /* \"contracts/core/MPensionVault_flattened.sol\":8467:8487  getPensionInternal() */\n      tag_323\n        /* \"contracts/core/MPensionVault_flattened.sol\":8467:8485  getPensionInternal */\n      tag_108\n        /* \"contracts/core/MPensionVault_flattened.sol\":8467:8487  getPensionInternal() */\n      jump\t// in\n    tag_323:\n        /* \"contracts/core/MPensionVault_flattened.sol\":8467:8493  getPensionInternal().owner */\n      0x40\n      add\n      mload\n        /* \"contracts/core/MPensionVault_flattened.sol\":8453:8493  msg.sender == getPensionInternal().owner */\n      0xffffffffffffffffffffffffffffffffffffffff\n      and\n        /* \"contracts/core/MPensionVault_flattened.sol\":8453:8463  msg.sender */\n      caller\n        /* \"contracts/core/MPensionVault_flattened.sol\":8453:8493  msg.sender == getPensionInternal().owner */\n      0xffffffffffffffffffffffffffffffffffffffff\n      and\n      eq\n        /* \"contracts/core/MPensionVault_flattened.sol\":8445:8508  require(msg.sender == getPensionInternal().owner, \"owner only\") */\n      tag_324\n      jumpi\n      mload(0x40)\n      0x08c379a000000000000000000000000000000000000000000000000000000000\n      dup2\n      mstore\n      0x04\n      add\n      tag_325\n      swap1\n      tag_326\n      jump\t// in\n    tag_325:\n      mload(0x40)\n      dup1\n      swap2\n      sub\n      swap1\n      revert\n    tag_324:\n        /* \"contracts/core/MPensionVault_flattened.sol\":8299:8305  locked */\n      0x00\n      0x00\n      swap1\n      sload\n      swap1\n      0x0100\n      exp\n      swap1\n      div\n      0xff\n      and\n        /* \"contracts/core/MPensionVault_flattened.sol\":8298:8305  !locked */\n      iszero\n        /* \"contracts/core/MPensionVault_flattened.sol\":8290:8322  require(!locked, \"vault locked\") */\n      tag_328\n      jumpi\n      mload(0x40)\n      0x08c379a000000000000000000000000000000000000000000000000000000000\n      dup2\n      mstore\n      0x04\n      add\n      tag_329\n      swap1\n      tag_97\n      jump\t// in\n    tag_329:\n      mload(0x40)\n      dup1\n      swap2\n      sub\n      swap1\n      revert\n    tag_328:\n        /* \"contracts/core/MPensionVault_flattened.sol\":8351:8366  MPStatus.CLOSED */\n      0x02\n        /* \"contracts/core/MPensionVault_flattened.sol\":8341:8366  status != MPStatus.CLOSED */\n      0x03\n      dup2\n      gt\n      iszero\n      tag_330\n      jumpi\n      tag_331\n      tag_100\n      jump\t// in\n    tag_331:\n    tag_330:\n        /* \"contracts/core/MPensionVault_flattened.sol\":8341:8347  status */\n      0x00\n      0x01\n      swap1\n      sload\n      swap1\n      0x0100\n      exp\n      swap1\n      div\n      0xff\n      and\n        /* \"contracts/core/MPensionVault_flattened.sol\":8341:8366  status != MPStatus.CLOSED */\n      0x03\n      dup2\n      gt\n      iszero\n      tag_332\n      jumpi\n      tag_333\n      tag_100\n      jump\t// in\n    tag_333:\n    tag_332:\n      sub\n        /* \"contracts/core/MPensionVault_flattened.sol\":8333:8383  require(status != MPStatus.CLOSED, \"vault closed\") */\n      tag_334\n      jumpi\n      mload(0x40)\n      0x08c379a000000000000000000000000000000000000000000000000000000000\n      dup2\n      mstore\n      0x04\n      add\n      tag_335\n      swap1\n      tag_105\n      jump\t// in\n    tag_335:\n      mload(0x40)\n      dup1\n      swap2\n      sub\n      swap1\n      revert\n    tag_334:\n        /* \"contracts/core/MPensionVault_flattened.sol\":12164:12188  MPension memory pension_ */\n      0x00\n        /* \"contracts/core/MPensionVault_flattened.sol\":12191:12211  getPensionInternal() */\n      tag_337\n        /* \"contracts/core/MPensionVault_flattened.sol\":12191:12209  getPensionInternal */\n      tag_108\n        /* \"contracts/core/MPensionVault_flattened.sol\":12191:12211  getPensionInternal() */\n      jump\t// in\n    tag_337:\n        /* \"contracts/core/MPensionVault_flattened.sol\":12164:12211  MPension memory pension_ = getPensionInternal() */\n      swap1\n      pop\n        /* \"contracts/core/MPensionVault_flattened.sol\":12235:12239  true */\n      0x01\n        /* \"contracts/core/MPensionVault_flattened.sol\":12226:12232  locked */\n      0x00\n      0x00\n        /* \"contracts/core/MPensionVault_flattened.sol\":12226:12239  locked = true */\n      0x0100\n      exp\n      dup2\n      sload\n      dup2\n      0xff\n      mul\n      not\n      and\n      swap1\n      dup4\n      iszero\n      iszero\n      mul\n      or\n      swap1\n      sstore\n      pop\n        /* \"contracts/core/MPensionVault_flattened.sol\":12269:12290  MPStatus.DISBURSEMENT */\n      0x01\n        /* \"contracts/core/MPensionVault_flattened.sol\":12259:12290  status == MPStatus.DISBURSEMENT */\n      0x03\n      dup2\n      gt\n      iszero\n      tag_338\n      jumpi\n      tag_339\n      tag_100\n      jump\t// in\n    tag_339:\n    tag_338:\n        /* \"contracts/core/MPensionVault_flattened.sol\":12259:12265  status */\n      0x00\n      0x01\n      swap1\n      sload\n      swap1\n      0x0100\n      exp\n      swap1\n      div\n      0xff\n      and\n        /* \"contracts/core/MPensionVault_flattened.sol\":12259:12290  status == MPStatus.DISBURSEMENT */\n      0x03\n      dup2\n      gt\n      iszero\n      tag_340\n      jumpi\n      tag_341\n      tag_100\n      jump\t// in\n    tag_341:\n    tag_340:\n      eq\n        /* \"contracts/core/MPensionVault_flattened.sol\":12251:12317  require(status == MPStatus.DISBURSEMENT, \"invalid pension status\") */\n      tag_342\n      jumpi\n      mload(0x40)\n      0x08c379a000000000000000000000000000000000000000000000000000000000\n      dup2\n      mstore\n      0x04\n      add\n      tag_343\n      swap1\n      tag_344\n      jump\t// in\n    tag_343:\n      mload(0x40)\n      dup1\n      swap2\n      sub\n      swap1\n      revert\n    tag_342:\n        /* \"contracts/core/MPensionVault_flattened.sol\":12355:12379  MPScheduleStatus.SETTLED */\n      0x01\n        /* \"contracts/core/MPensionVault_flattened.sol\":12337:12379  scheduleStatus != MPScheduleStatus.SETTLED */\n      dup1\n      dup2\n      gt\n      iszero\n      tag_345\n      jumpi\n      tag_346\n      tag_100\n      jump\t// in\n    tag_346:\n    tag_345:\n        /* \"contracts/core/MPensionVault_flattened.sol\":12337:12351  scheduleStatus */\n      0x00\n      0x02\n      swap1\n      sload\n      swap1\n      0x0100\n      exp\n      swap1\n      div\n      0xff\n      and\n        /* \"contracts/core/MPensionVault_flattened.sol\":12337:12379  scheduleStatus != MPScheduleStatus.SETTLED */\n      0x01\n      dup2\n      gt\n      iszero\n      tag_347\n      jumpi\n      tag_348\n      tag_100\n      jump\t// in\n    tag_348:\n    tag_347:\n      sub\n        /* \"contracts/core/MPensionVault_flattened.sol\":12329:12399  require(scheduleStatus != MPScheduleStatus.SETTLED, \"pension settled\") */\n      tag_349\n      jumpi\n      mload(0x40)\n      0x08c379a000000000000000000000000000000000000000000000000000000000\n      dup2\n      mstore\n      0x04\n      add\n      tag_350\n      swap1\n      tag_351\n      jump\t// in\n    tag_350:\n      mload(0x40)\n      dup1\n      swap2\n      sub\n      swap1\n      revert\n    tag_349:\n        /* \"contracts/core/MPensionVault_flattened.sol\":12412:12430  uint256 emmission_ */\n      0x00\n        /* \"contracts/core/MPensionVault_flattened.sol\":12433:12441  pension_ */\n      dup2\n        /* \"contracts/core/MPensionVault_flattened.sol\":12433:12449  pension_.product */\n      0xc0\n      add\n      mload\n        /* \"contracts/core/MPensionVault_flattened.sol\":12433:12466  pension_.product.emissionSchedule */\n      0x0100\n      add\n      mload\n        /* \"contracts/core/MPensionVault_flattened.sol\":12433:12480  pension_.product.emissionSchedule.minimumAmount */\n      0x40\n      add\n      mload\n        /* \"contracts/core/MPensionVault_flattened.sol\":12412:12480  uint256 emmission_ = pension_.product.emissionSchedule.minimumAmount */\n      swap1\n      pop\n        /* \"contracts/core/MPensionVault_flattened.sol\":12519:12529  emmission_ */\n      dup1\n        /* \"contracts/core/MPensionVault_flattened.sol\":12501:12515  pensionBalance */\n      sload(0x02)\n        /* \"contracts/core/MPensionVault_flattened.sol\":12501:12529  pensionBalance >= emmission_ */\n      lt\n      iszero\n        /* \"contracts/core/MPensionVault_flattened.sol\":12493:12564  require(pensionBalance >= emmission_, \"insufficient emmission balance\") */\n      tag_352\n      jumpi\n      mload(0x40)\n      0x08c379a000000000000000000000000000000000000000000000000000000000\n      dup2\n      mstore\n      0x04\n      add\n      tag_353\n      swap1\n      tag_354\n      jump\t// in\n    tag_353:\n      mload(0x40)\n      dup1\n      swap2\n      sub\n      swap1\n      revert\n    tag_352:\n        /* \"contracts/core/MPensionVault_flattened.sol\":12582:12596  address owner_ */\n      0x00\n        /* \"contracts/core/MPensionVault_flattened.sol\":12599:12607  pension_ */\n      dup3\n        /* \"contracts/core/MPensionVault_flattened.sol\":12599:12613  pension_.owner */\n      0x40\n      add\n      mload\n        /* \"contracts/core/MPensionVault_flattened.sol\":12582:12613  address owner_ = pension_.owner */\n      swap1\n      pop\n        /* \"contracts/core/MPensionVault_flattened.sol\":12643:12653  emmission_ */\n      dup2\n        /* \"contracts/core/MPensionVault_flattened.sol\":12625:12639  pensionBalance */\n      0x02\n      0x00\n        /* \"contracts/core/MPensionVault_flattened.sol\":12625:12653  pensionBalance -= emmission_ */\n      dup3\n      dup3\n      sload\n      tag_355\n      swap2\n      swap1\n      tag_251\n      jump\t// in\n    tag_355:\n      swap3\n      pop\n      pop\n      dup2\n      swap1\n      sstore\n      pop\n        /* \"contracts/core/MPensionVault_flattened.sol\":8932:8974  0xEeeeeEeeeEeEeeEeEeEeeEEEeeeeEeeeeeeeEEeE */\n      0xeeeeeeeeeeeeeeeeeeeeeeeeeeeeeeeeeeeeeeee\n        /* \"contracts/core/MPensionVault_flattened.sol\":12670:12702  pension_.product.erc20 == NATIVE */\n      0xffffffffffffffffffffffffffffffffffffffff\n      and\n        /* \"contracts/core/MPensionVault_flattened.sol\":12670:12678  pension_ */\n      dup4\n        /* \"contracts/core/MPensionVault_flattened.sol\":12670:12686  pension_.product */\n      0xc0\n      add\n      mload\n        /* \"contracts/core/MPensionVault_flattened.sol\":12670:12692  pension_.product.erc20 */\n      0x40\n      add\n      mload\n        /* \"contracts/core/MPensionVault_flattened.sol\":12670:12702  pension_.product.erc20 == NATIVE */\n      0xffffffffffffffffffffffffffffffffffffffff\n      and\n      sub\n        /* \"contracts/core/MPensionVault_flattened.sol\":12667:12907  if(pension_.product.erc20 == NATIVE) {... */\n      tag_356\n      jumpi\n        /* \"contracts/core/MPensionVault_flattened.sol\":12727:12733  owner_ */\n      dup1\n        /* \"contracts/core/MPensionVault_flattened.sol\":12719:12743  payable(owner_).transfer */\n      0xffffffffffffffffffffffffffffffffffffffff\n      and\n        /* \"contracts/core/MPensionVault_flattened.sol\":12719:12755  payable(owner_).transfer(emmission_) */\n      0x08fc\n        /* \"contracts/core/MPensionVault_flattened.sol\":12744:12754  emmission_ */\n      dup4\n        /* \"contracts/core/MPensionVault_flattened.sol\":12719:12755  payable(owner_).transfer(emmission_) */\n      swap1\n      dup2\n      iszero\n      mul\n      swap1\n      mload(0x40)\n      0x00\n      mload(0x40)\n      dup1\n      dup4\n      sub\n      dup2\n      dup6\n      dup9\n      dup9\n      call\n      swap4\n      pop\n      pop\n      pop\n      pop\n      iszero\n      dup1\n      iszero\n      tag_358\n      jumpi\n      returndatacopy(0x00, 0x00, returndatasize)\n      revert(0x00, returndatasize)\n    tag_358:\n      pop\n        /* \"contracts/core/MPensionVault_flattened.sol\":12667:12907  if(pension_.product.erc20 == NATIVE) {... */\n      jump(tag_359)\n    tag_356:\n        /* \"contracts/core/MPensionVault_flattened.sol\":12798:12811  IERC20 erc20_ */\n      0x00\n        /* \"contracts/core/MPensionVault_flattened.sol\":12821:12829  pension_ */\n      dup4\n        /* \"contracts/core/MPensionVault_flattened.sol\":12821:12837  pension_.product */\n      0xc0\n      add\n      mload\n        /* \"contracts/core/MPensionVault_flattened.sol\":12821:12843  pension_.product.erc20 */\n      0x40\n      add\n      mload\n        /* \"contracts/core/MPensionVault_flattened.sol\":12798:12844  IERC20 erc20_ = IERC20(pension_.product.erc20) */\n      swap1\n      pop\n        /* \"contracts/core/MPensionVault_flattened.sol\":12859:12865  erc20_ */\n      dup1\n        /* \"contracts/core/MPensionVault_flattened.sol\":12859:12874  erc20_.transfer */\n      0xffffffffffffffffffffffffffffffffffffffff\n      and\n      0xa9059cbb\n        /* \"contracts/core/MPensionVault_flattened.sol\":12875:12881  owner_ */\n      dup4\n        /* \"contracts/core/MPensionVault_flattened.sol\":12883:12893  emmission_ */\n      dup6\n        /* \"contracts/core/MPensionVault_flattened.sol\":12859:12894  erc20_.transfer(owner_, emmission_) */\n      mload(0x40)\n      dup4\n      0xffffffff\n      and\n      0xe0\n      shl\n      dup2\n      mstore\n      0x04\n      add\n      tag_360\n      swap3\n      swap2\n      swap1\n      tag_132\n      jump\t// in\n    tag_360:\n      0x20\n      mload(0x40)\n      dup1\n      dup4\n      sub\n      dup2\n      0x00\n      dup8\n      gas\n      call\n      iszero\n      dup1\n      iszero\n      tag_362\n      jumpi\n      returndatacopy(0x00, 0x00, returndatasize)\n      revert(0x00, returndatasize)\n    tag_362:\n      pop\n      pop\n      pop\n      pop\n      mload(0x40)\n      returndatasize\n      not(0x1f)\n      0x1f\n      dup3\n      add\n      and\n      dup3\n      add\n      dup1\n      0x40\n      mstore\n      pop\n      dup2\n      add\n      swap1\n      tag_363\n      swap2\n      swap1\n      tag_136\n      jump\t// in\n    tag_363:\n      pop\n        /* \"contracts/core/MPensionVault_flattened.sol\":12782:12907  { ... */\n      pop\n        /* \"contracts/core/MPensionVault_flattened.sol\":12667:12907  if(pension_.product.erc20 == NATIVE) {... */\n    tag_359:\n        /* \"contracts/core/MPensionVault_flattened.sol\":12917:12934  checkSettlement() */\n      tag_364\n        /* \"contracts/core/MPensionVault_flattened.sol\":12917:12932  checkSettlement */\n      tag_365\n        /* \"contracts/core/MPensionVault_flattened.sol\":12917:12934  checkSettlement() */\n      jump\t// in\n    tag_364:\n        /* \"contracts/core/MPensionVault_flattened.sol\":12953:13040  addTx(TxType.DRAWDOWN, ObjType.MPENSION, pensionId, emmission_, pension_.product.erc20) */\n      tag_366\n        /* \"contracts/core/MPensionVault_flattened.sol\":12959:12974  TxType.DRAWDOWN */\n      0x02\n        /* \"contracts/core/MPensionVault_flattened.sol\":12976:12992  ObjType.MPENSION */\n      0x00\n        /* \"contracts/core/MPensionVault_flattened.sol\":12994:13003  pensionId */\n      immutable(\"0x42d683e394a4df18653c7650f8aa08cb69f6a4b0d0acad4653af662538b2a674\")\n        /* \"contracts/core/MPensionVault_flattened.sol\":13005:13015  emmission_ */\n      dup6\n        /* \"contracts/core/MPensionVault_flattened.sol\":13017:13025  pension_ */\n      dup8\n        /* \"contracts/core/MPensionVault_flattened.sol\":13017:13033  pension_.product */\n      0xc0\n      add\n      mload\n        /* \"contracts/core/MPensionVault_flattened.sol\":13017:13039  pension_.product.erc20 */\n      0x40\n      add\n      mload\n        /* \"contracts/core/MPensionVault_flattened.sol\":12953:12958  addTx */\n      tag_138\n        /* \"contracts/core/MPensionVault_flattened.sol\":12953:13040  addTx(TxType.DRAWDOWN, ObjType.MPENSION, pensionId, emmission_, pension_.product.erc20) */\n      jump\t// in\n    tag_366:\n        /* \"contracts/core/MPensionVault_flattened.sol\":12945:13040  _txId = addTx(TxType.DRAWDOWN, ObjType.MPENSION, pensionId, emmission_, pension_.product.erc20) */\n      swap4\n      pop\n        /* \"contracts/core/MPensionVault_flattened.sol\":13060:13065  false */\n      0x00\n        /* \"contracts/core/MPensionVault_flattened.sol\":13051:13057  locked */\n      0x00\n      0x00\n        /* \"contracts/core/MPensionVault_flattened.sol\":13051:13065  locked = false */\n      0x0100\n      exp\n      dup2\n      sload\n      dup2\n      0xff\n      mul\n      not\n      and\n      swap1\n      dup4\n      iszero\n      iszero\n      mul\n      or\n      swap1\n      sstore\n      pop\n        /* \"contracts/core/MPensionVault_flattened.sol\":13094:13106  return _txId */\n      pop\n      pop\n      pop\n        /* \"contracts/core/MPensionVault_flattened.sol\":12081:13116  function drawdown() external ownerOnly semaphore returns (uint256 _txId){... */\n      swap1\n      jump\t// out\n        /* \"contracts/core/MPensionVault_flattened.sol\":18061:18285  function getPensionInternal() view internal returns (MPension memory _mPension){ ... */\n    tag_108:\n        /* \"contracts/core/MPensionVault_flattened.sol\":18114:18139  MPension memory _mPension */\n      tag_367\n      tag_211\n      jump\t// in\n    tag_367:\n        /* \"contracts/core/MPensionVault_flattened.sol\":18185:18193  register */\n      0x00\n      0x03\n      swap1\n      sload\n      swap1\n      0x0100\n      exp\n      swap1\n      div\n      0xffffffffffffffffffffffffffffffffffffffff\n      and\n        /* \"contracts/core/MPensionVault_flattened.sol\":18185:18204  register.getAddress */\n      0xffffffffffffffffffffffffffffffffffffffff\n      and\n      0xbf40fac1\n        /* \"contracts/core/MPensionVault_flattened.sol\":18205:18225  MEDALION_PENSIONS_CA */\n      mload(0x40)\n      dup1\n      0x40\n      add\n      0x40\n      mstore\n      dup1\n      0x20\n      dup2\n      mstore\n      0x20\n      add\n      0x52455345525645445f4d4544414c4c494f4e5f50454e53494f4e535f434f5245\n      dup2\n      mstore\n      pop\n        /* \"contracts/core/MPensionVault_flattened.sol\":18185:18226  register.getAddress(MEDALION_PENSIONS_CA) */\n      mload(0x40)\n      dup3\n      0xffffffff\n      and\n      0xe0\n      shl\n      dup2\n      mstore\n      0x04\n      add\n      tag_369\n      swap2\n      swap1\n      tag_30\n      jump\t// in\n    tag_369:\n      0x20\n      mload(0x40)\n      dup1\n      dup4\n      sub\n      dup2\n      dup7\n      gas\n      staticcall\n      iszero\n      dup1\n      iszero\n      tag_371\n      jumpi\n      returndatacopy(0x00, 0x00, returndatasize)\n      revert(0x00, returndatasize)\n    tag_371:\n      pop\n      pop\n      pop\n      pop\n      mload(0x40)\n      returndatasize\n      not(0x1f)\n      0x1f\n      dup3\n      add\n      and\n      dup3\n      add\n      dup1\n      0x40\n      mstore\n      pop\n      dup2\n      add\n      swap1\n      tag_372\n      swap2\n      swap1\n      tag_90\n      jump\t// in\n    tag_372:\n        /* \"contracts/core/MPensionVault_flattened.sol\":18166:18238  IMedallionPensions(register.getAddress(MEDALION_PENSIONS_CA)).getPension */\n      0xffffffffffffffffffffffffffffffffffffffff\n      and\n      0x77bdfdf2\n        /* \"contracts/core/MPensionVault_flattened.sol\":18239:18248  pensionId */\n      immutable(\"0x42d683e394a4df18653c7650f8aa08cb69f6a4b0d0acad4653af662538b2a674\")\n        /* \"contracts/core/MPensionVault_flattened.sol\":18166:18249  IMedallionPensions(register.getAddress(MEDALION_PENSIONS_CA)).getPension(pensionId) */\n      mload(0x40)\n      dup3\n      0xffffffff\n      and\n      0xe0\n      shl\n      dup2\n      mstore\n      0x04\n      add\n      tag_373\n      swap2\n      swap1\n      tag_21\n      jump\t// in\n    tag_373:\n      0x03c0\n      mload(0x40)\n      dup1\n      dup4\n      sub\n      dup2\n      dup7\n      gas\n      staticcall\n      iszero\n      dup1\n      iszero\n      tag_375\n      jumpi\n      returndatacopy(0x00, 0x00, returndatasize)\n      revert(0x00, returndatasize)\n    tag_375:\n      pop\n      pop\n      pop\n      pop\n      mload(0x40)\n      returndatasize\n      not(0x1f)\n      0x1f\n      dup3\n      add\n      and\n      dup3\n      add\n      dup1\n      0x40\n      mstore\n      pop\n      dup2\n      add\n      swap1\n      tag_376\n      swap2\n      swap1\n      tag_377\n      jump\t// in\n    tag_376:\n        /* \"contracts/core/MPensionVault_flattened.sol\":18154:18249  _mPension = IMedallionPensions(register.getAddress(MEDALION_PENSIONS_CA)).getPension(pensionId) */\n      swap1\n      pop\n        /* \"contracts/core/MPensionVault_flattened.sol\":18061:18285  function getPensionInternal() view internal returns (MPension memory _mPension){ ... */\n      swap1\n      jump\t// out\n        /* \"contracts/core/MPensionVault_flattened.sol\":17201:17470  function addTx(TxType _txType,ObjType _objType, uint256 _pensionId, uint256 _amount, address _erc20) internal returns (uint256 _txId){... */\n    tag_138:\n        /* \"contracts/core/MPensionVault_flattened.sol\":17320:17333  uint256 _txId */\n      0x00\n        /* \"contracts/core/MPensionVault_flattened.sol\":17366:17374  register */\n      0x00\n      0x03\n      swap1\n      sload\n      swap1\n      0x0100\n      exp\n      swap1\n      div\n      0xffffffffffffffffffffffffffffffffffffffff\n      and\n        /* \"contracts/core/MPensionVault_flattened.sol\":17366:17385  register.getAddress */\n      0xffffffffffffffffffffffffffffffffffffffff\n      and\n      0xbf40fac1\n        /* \"contracts/core/MPensionVault_flattened.sol\":17386:17399  TX_MANAGER_CA */\n      mload(0x40)\n      dup1\n      0x40\n      add\n      0x40\n      mstore\n      dup1\n      0x16\n      dup2\n      mstore\n      0x20\n      add\n      0x52455345525645445f4d505f54585f4d414e4147455200000000000000000000\n      dup2\n      mstore\n      pop\n        /* \"contracts/core/MPensionVault_flattened.sol\":17366:17400  register.getAddress(TX_MANAGER_CA) */\n      mload(0x40)\n      dup3\n      0xffffffff\n      and\n      0xe0\n      shl\n      dup2\n      mstore\n      0x04\n      add\n      tag_379\n      swap2\n      swap1\n      tag_30\n      jump\t// in\n    tag_379:\n      0x20\n      mload(0x40)\n      dup1\n      dup4\n      sub\n      dup2\n      dup7\n      gas\n      staticcall\n      iszero\n      dup1\n      iszero\n      tag_381\n      jumpi\n      returndatacopy(0x00, 0x00, returndatasize)\n      revert(0x00, returndatasize)\n    tag_381:\n      pop\n      pop\n      pop\n      pop\n      mload(0x40)\n      returndatasize\n      not(0x1f)\n      0x1f\n      dup3\n      add\n      and\n      dup3\n      add\n      dup1\n      0x40\n      mstore\n      pop\n      dup2\n      add\n      swap1\n      tag_382\n      swap2\n      swap1\n      tag_90\n      jump\t// in\n    tag_382:\n        /* \"contracts/core/MPensionVault_flattened.sol\":17353:17407  IMPTxManager(register.getAddress(TX_MANAGER_CA)).addTx */\n      0xffffffffffffffffffffffffffffffffffffffff\n      and\n      0xee16e639\n        /* \"contracts/core/MPensionVault_flattened.sol\":17408:17415  _txType */\n      dup8\n        /* \"contracts/core/MPensionVault_flattened.sol\":17417:17425  _objType */\n      dup8\n        /* \"contracts/core/MPensionVault_flattened.sol\":17427:17437  _pensionId */\n      dup8\n        /* \"contracts/core/MPensionVault_flattened.sol\":17439:17443  self */\n      immutable(\"0x9e1fb2b79e882622ed243a034292b4fa176df601f71d921cffbf6c845001c2b4\")\n        /* \"contracts/core/MPensionVault_flattened.sol\":17445:17452  _amount */\n      dup9\n        /* \"contracts/core/MPensionVault_flattened.sol\":17454:17460  _erc20 */\n      dup9\n        /* \"contracts/core/MPensionVault_flattened.sol\":17353:17461  IMPTxManager(register.getAddress(TX_MANAGER_CA)).addTx(_txType, _objType, _pensionId, self, _amount, _erc20) */\n      mload(0x40)\n      dup8\n      0xffffffff\n      and\n      0xe0\n      shl\n      dup2\n      mstore\n      0x04\n      add\n      tag_383\n      swap7\n      swap6\n      swap5\n      swap4\n      swap3\n      swap2\n      swap1\n      tag_384\n      jump\t// in\n    tag_383:\n      0x20\n      mload(0x40)\n      dup1\n      dup4\n      sub\n      dup2\n      0x00\n      dup8\n      gas\n      call\n      iszero\n      dup1\n      iszero\n      tag_386\n      jumpi\n      returndatacopy(0x00, 0x00, returndatasize)\n      revert(0x00, returndatasize)\n    tag_386:\n      pop\n      pop\n      pop\n      pop\n      mload(0x40)\n      returndatasize\n      not(0x1f)\n      0x1f\n      dup3\n      add\n      and\n      dup3\n      add\n      dup1\n      0x40\n      mstore\n      pop\n      dup2\n      add\n      swap1\n      tag_387\n      swap2\n      swap1\n      tag_130\n      jump\t// in\n    tag_387:\n        /* \"contracts/core/MPensionVault_flattened.sol\":17346:17461  return IMPTxManager(register.getAddress(TX_MANAGER_CA)).addTx(_txType, _objType, _pensionId, self, _amount, _erc20) */\n      swap1\n      pop\n        /* \"contracts/core/MPensionVault_flattened.sol\":17201:17470  function addTx(TxType _txType,ObjType _objType, uint256 _pensionId, uint256 _amount, address _erc20) internal returns (uint256 _txId){... */\n      swap6\n      swap5\n      pop\n      pop\n      pop\n      pop\n      pop\n      jump\t// out\n        /* \"contracts/core/MPensionVault_flattened.sol\":17481:17782  function checkMaturity() internal { ... */\n    tag_255:\n        /* \"contracts/core/MPensionVault_flattened.sol\":17527:17551  MPension memory pension_ */\n      0x00\n        /* \"contracts/core/MPensionVault_flattened.sol\":17554:17574  getPensionInternal() */\n      tag_389\n        /* \"contracts/core/MPensionVault_flattened.sol\":17554:17572  getPensionInternal */\n      tag_108\n        /* \"contracts/core/MPensionVault_flattened.sol\":17554:17574  getPensionInternal() */\n      jump\t// in\n    tag_389:\n        /* \"contracts/core/MPensionVault_flattened.sol\":17527:17574  MPension memory pension_ = getPensionInternal() */\n      swap1\n      pop\n        /* \"contracts/core/MPensionVault_flattened.sol\":17608:17616  pension_ */\n      dup1\n        /* \"contracts/core/MPensionVault_flattened.sol\":17608:17624  pension_.product */\n      0xc0\n      add\n      mload\n        /* \"contracts/core/MPensionVault_flattened.sol\":17608:17645  pension_.product.contributionSchedule */\n      0xe0\n      add\n      mload\n        /* \"contracts/core/MPensionVault_flattened.sol\":17608:17657  pension_.product.contributionSchedule.totalAmount */\n      0xa0\n      add\n      mload\n        /* \"contracts/core/MPensionVault_flattened.sol\":17590:17604  pensionBalance */\n      sload(0x02)\n        /* \"contracts/core/MPensionVault_flattened.sol\":17590:17657  pensionBalance >= pension_.product.contributionSchedule.totalAmount */\n      lt\n        /* \"contracts/core/MPensionVault_flattened.sol\":17587:17775  if(pensionBalance >= pension_.product.contributionSchedule.totalAmount) { ... */\n      tag_390\n      jumpi\n        /* \"contracts/core/MPensionVault_flattened.sol\":17692:17716  MPScheduleStatus.MATURED */\n      0x00\n        /* \"contracts/core/MPensionVault_flattened.sol\":17675:17689  scheduleStatus */\n      0x00\n      0x02\n        /* \"contracts/core/MPensionVault_flattened.sol\":17675:17716  scheduleStatus = MPScheduleStatus.MATURED */\n      0x0100\n      exp\n      dup2\n      sload\n      dup2\n      0xff\n      mul\n      not\n      and\n      swap1\n      dup4\n      0x01\n      dup2\n      gt\n      iszero\n      tag_391\n      jumpi\n      tag_392\n      tag_100\n      jump\t// in\n    tag_392:\n    tag_391:\n      mul\n      or\n      swap1\n      sstore\n      pop\n        /* \"contracts/core/MPensionVault_flattened.sol\":17741:17762  MPStatus.DISBURSEMENT */\n      0x01\n        /* \"contracts/core/MPensionVault_flattened.sol\":17732:17738  status */\n      0x00\n      0x01\n        /* \"contracts/core/MPensionVault_flattened.sol\":17732:17762  status = MPStatus.DISBURSEMENT */\n      0x0100\n      exp\n      dup2\n      sload\n      dup2\n      0xff\n      mul\n      not\n      and\n      swap1\n      dup4\n      0x03\n      dup2\n      gt\n      iszero\n      tag_393\n      jumpi\n      tag_394\n      tag_100\n      jump\t// in\n    tag_394:\n    tag_393:\n      mul\n      or\n      swap1\n      sstore\n      pop\n        /* \"contracts/core/MPensionVault_flattened.sol\":17587:17775  if(pensionBalance >= pension_.product.contributionSchedule.totalAmount) { ... */\n    tag_390:\n        /* \"contracts/core/MPensionVault_flattened.sol\":17515:17782  { ... */\n      pop\n        /* \"contracts/core/MPensionVault_flattened.sol\":17481:17782  function checkMaturity() internal { ... */\n      jump\t// out\n        /* \"contracts/core/MPensionVault_flattened.sol\":18293:18846  function getSeconds(Schedule _schedule) pure internal returns (uint256 _seconds){... */\n    tag_290:\n        /* \"contracts/core/MPensionVault_flattened.sol\":18356:18372  uint256 _seconds */\n      0x00\n        /* \"contracts/core/MPensionVault_flattened.sol\":18395:18403  60*60*24 */\n      0x015180\n        /* \"contracts/core/MPensionVault_flattened.sol\":18384:18403  _seconds = 60*60*24 */\n      swap1\n      pop\n        /* \"contracts/core/MPensionVault_flattened.sol\":18431:18445  Schedule.DAILY */\n      0x00\n        /* \"contracts/core/MPensionVault_flattened.sol\":18418:18445  _schedule == Schedule.DAILY */\n      0x03\n      dup2\n      gt\n      iszero\n      tag_396\n      jumpi\n      tag_397\n      tag_100\n      jump\t// in\n    tag_397:\n    tag_396:\n        /* \"contracts/core/MPensionVault_flattened.sol\":18418:18427  _schedule */\n      dup3\n        /* \"contracts/core/MPensionVault_flattened.sol\":18418:18445  _schedule == Schedule.DAILY */\n      0x03\n      dup2\n      gt\n      iszero\n      tag_398\n      jumpi\n      tag_399\n      tag_100\n      jump\t// in\n    tag_399:\n    tag_398:\n      sub\n        /* \"contracts/core/MPensionVault_flattened.sol\":18415:18488  if(_schedule == Schedule.DAILY){... */\n      iszero\n        /* \"contracts/core/MPensionVault_flattened.sol\":18461:18476  return _seconds */\n      tag_395\n        /* \"contracts/core/MPensionVault_flattened.sol\":18415:18488  if(_schedule == Schedule.DAILY){... */\n      jumpi\n        /* \"contracts/core/MPensionVault_flattened.sol\":18510:18511  7 */\n      0x07\n        /* \"contracts/core/MPensionVault_flattened.sol\":18498:18511  _seconds *= 7 */\n      dup2\n      tag_401\n      swap2\n      swap1\n      tag_402\n      jump\t// in\n    tag_401:\n      swap1\n      pop\n        /* \"contracts/core/MPensionVault_flattened.sol\":18539:18554  Schedule.WEEKLY */\n      0x01\n        /* \"contracts/core/MPensionVault_flattened.sol\":18526:18554  _schedule == Schedule.WEEKLY */\n      0x03\n      dup2\n      gt\n      iszero\n      tag_403\n      jumpi\n      tag_404\n      tag_100\n      jump\t// in\n    tag_404:\n    tag_403:\n        /* \"contracts/core/MPensionVault_flattened.sol\":18526:18535  _schedule */\n      dup3\n        /* \"contracts/core/MPensionVault_flattened.sol\":18526:18554  _schedule == Schedule.WEEKLY */\n      0x03\n      dup2\n      gt\n      iszero\n      tag_405\n      jumpi\n      tag_406\n      tag_100\n      jump\t// in\n    tag_406:\n    tag_405:\n      sub\n        /* \"contracts/core/MPensionVault_flattened.sol\":18523:18597  if(_schedule == Schedule.WEEKLY){... */\n      iszero\n        /* \"contracts/core/MPensionVault_flattened.sol\":18570:18585  return _seconds */\n      tag_395\n        /* \"contracts/core/MPensionVault_flattened.sol\":18523:18597  if(_schedule == Schedule.WEEKLY){... */\n      jumpi\n        /* \"contracts/core/MPensionVault_flattened.sol\":18619:18620  4 */\n      0x04\n        /* \"contracts/core/MPensionVault_flattened.sol\":18607:18620  _seconds *= 4 */\n      dup2\n      tag_408\n      swap2\n      swap1\n      tag_402\n      jump\t// in\n    tag_408:\n      swap1\n      pop\n        /* \"contracts/core/MPensionVault_flattened.sol\":18647:18663  Schedule.MONTHLY */\n      0x02\n        /* \"contracts/core/MPensionVault_flattened.sol\":18634:18663  _schedule == Schedule.MONTHLY */\n      0x03\n      dup2\n      gt\n      iszero\n      tag_409\n      jumpi\n      tag_410\n      tag_100\n      jump\t// in\n    tag_410:\n    tag_409:\n        /* \"contracts/core/MPensionVault_flattened.sol\":18634:18643  _schedule */\n      dup3\n        /* \"contracts/core/MPensionVault_flattened.sol\":18634:18663  _schedule == Schedule.MONTHLY */\n      0x03\n      dup2\n      gt\n      iszero\n      tag_411\n      jumpi\n      tag_412\n      tag_100\n      jump\t// in\n    tag_412:\n    tag_411:\n      sub\n        /* \"contracts/core/MPensionVault_flattened.sol\":18631:18706  if(_schedule == Schedule.MONTHLY){... */\n      iszero\n        /* \"contracts/core/MPensionVault_flattened.sol\":18679:18694  return _seconds */\n      tag_395\n        /* \"contracts/core/MPensionVault_flattened.sol\":18631:18706  if(_schedule == Schedule.MONTHLY){... */\n      jumpi\n        /* \"contracts/core/MPensionVault_flattened.sol\":18728:18729  3 */\n      0x03\n        /* \"contracts/core/MPensionVault_flattened.sol\":18716:18729  _seconds *= 3 */\n      dup2\n      tag_414\n      swap2\n      swap1\n      tag_402\n      jump\t// in\n    tag_414:\n      swap1\n      pop\n        /* \"contracts/core/MPensionVault_flattened.sol\":18757:18775  Schedule.QUARTERLY */\n      0x03\n        /* \"contracts/core/MPensionVault_flattened.sol\":18744:18775  _schedule == Schedule.QUARTERLY */\n      dup1\n      dup2\n      gt\n      iszero\n      tag_415\n      jumpi\n      tag_416\n      tag_100\n      jump\t// in\n    tag_416:\n    tag_415:\n        /* \"contracts/core/MPensionVault_flattened.sol\":18744:18753  _schedule */\n      dup3\n        /* \"contracts/core/MPensionVault_flattened.sol\":18744:18775  _schedule == Schedule.QUARTERLY */\n      0x03\n      dup2\n      gt\n      iszero\n      tag_417\n      jumpi\n      tag_418\n      tag_100\n      jump\t// in\n    tag_418:\n    tag_417:\n      sub\n        /* \"contracts/core/MPensionVault_flattened.sol\":18741:18819  if(_schedule == Schedule.QUARTERLY){... */\n      iszero\n        /* \"contracts/core/MPensionVault_flattened.sol\":18792:18807  return _seconds */\n      tag_395\n        /* \"contracts/core/MPensionVault_flattened.sol\":18741:18819  if(_schedule == Schedule.QUARTERLY){... */\n      jumpi\n        /* \"contracts/core/MPensionVault_flattened.sol\":18836:18837  0 */\n      0x00\n        /* \"contracts/core/MPensionVault_flattened.sol\":18829:18837  return 0 */\n      swap1\n      pop\n        /* \"contracts/core/MPensionVault_flattened.sol\":18293:18846  function getSeconds(Schedule _schedule) pure internal returns (uint256 _seconds){... */\n    tag_395:\n      swap2\n      swap1\n      pop\n      jump\t// out\n        /* \"contracts/core/MPensionVault_flattened.sol\":17790:18053  function checkSettlement() internal { ... */\n    tag_365:\n        /* \"contracts/core/MPensionVault_flattened.sol\":17838:17862  MPension memory pension_ */\n      0x00\n        /* \"contracts/core/MPensionVault_flattened.sol\":17865:17885  getPensionInternal() */\n      tag_421\n        /* \"contracts/core/MPensionVault_flattened.sol\":17865:17883  getPensionInternal */\n      tag_108\n        /* \"contracts/core/MPensionVault_flattened.sol\":17865:17885  getPensionInternal() */\n      jump\t// in\n    tag_421:\n        /* \"contracts/core/MPensionVault_flattened.sol\":17838:17885  MPension memory pension_ = getPensionInternal() */\n      swap1\n      pop\n        /* \"contracts/core/MPensionVault_flattened.sol\":17920:17928  pension_ */\n      dup1\n        /* \"contracts/core/MPensionVault_flattened.sol\":17920:17936  pension_.product */\n      0xc0\n      add\n      mload\n        /* \"contracts/core/MPensionVault_flattened.sol\":17920:17953  pension_.product.emissionSchedule */\n      0x0100\n      add\n      mload\n        /* \"contracts/core/MPensionVault_flattened.sol\":17920:17965  pension_.product.emissionSchedule.totalAmount */\n      0xa0\n      add\n      mload\n        /* \"contracts/core/MPensionVault_flattened.sol\":17901:17916  emissionBalance */\n      sload(0x03)\n        /* \"contracts/core/MPensionVault_flattened.sol\":17901:17965  emissionBalance >= pension_.product.emissionSchedule.totalAmount */\n      lt\n        /* \"contracts/core/MPensionVault_flattened.sol\":17898:18036  if(emissionBalance >= pension_.product.emissionSchedule.totalAmount ) {... */\n      tag_422\n      jumpi\n        /* \"contracts/core/MPensionVault_flattened.sol\":18000:18024  MPScheduleStatus.SETTLED */\n      0x01\n        /* \"contracts/core/MPensionVault_flattened.sol\":17983:17997  scheduleStatus */\n      0x00\n      0x02\n        /* \"contracts/core/MPensionVault_flattened.sol\":17983:18024  scheduleStatus = MPScheduleStatus.SETTLED */\n      0x0100\n      exp\n      dup2\n      sload\n      dup2\n      0xff\n      mul\n      not\n      and\n      swap1\n      dup4\n      0x01\n      dup2\n      gt\n      iszero\n      tag_423\n      jumpi\n      tag_424\n      tag_100\n      jump\t// in\n    tag_424:\n    tag_423:\n      mul\n      or\n      swap1\n      sstore\n      pop\n        /* \"contracts/core/MPensionVault_flattened.sol\":17898:18036  if(emissionBalance >= pension_.product.emissionSchedule.totalAmount ) {... */\n    tag_422:\n        /* \"contracts/core/MPensionVault_flattened.sol\":17826:18053  { ... */\n      pop\n        /* \"contracts/core/MPensionVault_flattened.sol\":17790:18053  function checkSettlement() internal { ... */\n      jump\t// out\n    tag_211:\n      mload(0x40)\n      dup1\n      0xe0\n      add\n      0x40\n      mstore\n      dup1\n      0x00\n      dup2\n      mstore\n      0x20\n      add\n      and(0xffffffffffffffffffffffffffffffffffffffff, 0x00)\n      dup2\n      mstore\n      0x20\n      add\n      and(0xffffffffffffffffffffffffffffffffffffffff, 0x00)\n      dup2\n      mstore\n      0x20\n      add\n      and(0xffffffffffffffffffffffffffffffffffffffff, 0x00)\n      dup2\n      mstore\n      0x20\n      add\n      0x00\n      dup2\n      mstore\n      0x20\n      add\n      0x00\n      dup2\n      mstore\n      0x20\n      add\n      tag_425\n      tag_426\n      jump\t// in\n    tag_425:\n      dup2\n      mstore\n      pop\n      swap1\n      jump\t// out\n    tag_426:\n      mload(0x40)\n      dup1\n      0x01a0\n      add\n      0x40\n      mstore\n      dup1\n      0x00\n      dup2\n      mstore\n      0x20\n      add\n      and(0xffffffffffffffffffffffffffffffffffffffff, 0x00)\n      dup2\n      mstore\n      0x20\n      add\n      and(0xffffffffffffffffffffffffffffffffffffffff, 0x00)\n      dup2\n      mstore\n      0x20\n      add\n      0x00\n      dup2\n      mstore\n      0x20\n      add\n      0x00\n      dup2\n      mstore\n      0x20\n      add\n      0x00\n      dup2\n      mstore\n      0x20\n      add\n      0x00\n      0x02\n      dup2\n      gt\n      iszero\n      tag_427\n      jumpi\n      tag_428\n      tag_100\n      jump\t// in\n    tag_428:\n    tag_427:\n      dup2\n      mstore\n      0x20\n      add\n      tag_429\n      tag_430\n      jump\t// in\n    tag_429:\n      dup2\n      mstore\n      0x20\n      add\n      tag_431\n      tag_430\n      jump\t// in\n    tag_431:\n      dup2\n      mstore\n      0x20\n      add\n      tag_432\n      tag_433\n      jump\t// in\n    tag_432:\n      dup2\n      mstore\n      0x20\n      add\n      0x00\n      dup2\n      mstore\n      0x20\n      add\n      0x00\n      dup2\n      mstore\n      0x20\n      add\n      0x00\n      dup2\n      mstore\n      pop\n      swap1\n      jump\t// out\n    tag_430:\n      mload(0x40)\n      dup1\n      0xc0\n      add\n      0x40\n      mstore\n      dup1\n      0x00\n      0x03\n      dup2\n      gt\n      iszero\n      tag_434\n      jumpi\n      tag_435\n      tag_100\n      jump\t// in\n    tag_435:\n    tag_434:\n      dup2\n      mstore\n      0x20\n      add\n      0x00\n      dup2\n      mstore\n      0x20\n      add\n      0x00\n      dup2\n      mstore\n      0x20\n      add\n      0x00\n      dup2\n      mstore\n      0x20\n      add\n      0x00\n      dup2\n      mstore\n      0x20\n      add\n      0x00\n      dup2\n      mstore\n      pop\n      swap1\n      jump\t// out\n    tag_433:\n      mload(0x40)\n      dup1\n      0x40\n      add\n      0x40\n      mstore\n      dup1\n      0x00\n      dup2\n      mstore\n      0x20\n      add\n      0x00\n      dup2\n      mstore\n      pop\n      swap1\n      jump\t// out\n        /* \"#utility.yul\":7:84   */\n    tag_436:\n        /* \"#utility.yul\":44:51   */\n      0x00\n        /* \"#utility.yul\":73:78   */\n      dup2\n        /* \"#utility.yul\":62:78   */\n      swap1\n      pop\n        /* \"#utility.yul\":7:84   */\n      swap2\n      swap1\n      pop\n      jump\t// out\n        /* \"#utility.yul\":90:208   */\n    tag_437:\n        /* \"#utility.yul\":177:201   */\n      tag_550\n        /* \"#utility.yul\":195:200   */\n      dup2\n        /* \"#utility.yul\":177:201   */\n      tag_436\n      jump\t// in\n    tag_550:\n        /* \"#utility.yul\":172:175   */\n      dup3\n        /* \"#utility.yul\":165:202   */\n      mstore\n        /* \"#utility.yul\":90:208   */\n      pop\n      pop\n      jump\t// out\n        /* \"#utility.yul\":214:436   */\n    tag_21:\n        /* \"#utility.yul\":307:311   */\n      0x00\n        /* \"#utility.yul\":345:347   */\n      0x20\n        /* \"#utility.yul\":334:343   */\n      dup3\n        /* \"#utility.yul\":330:348   */\n      add\n        /* \"#utility.yul\":322:348   */\n      swap1\n      pop\n        /* \"#utility.yul\":358:429   */\n      tag_552\n        /* \"#utility.yul\":426:427   */\n      0x00\n        /* \"#utility.yul\":415:424   */\n      dup4\n        /* \"#utility.yul\":411:428   */\n      add\n        /* \"#utility.yul\":402:408   */\n      dup5\n        /* \"#utility.yul\":358:429   */\n      tag_437\n      jump\t// in\n    tag_552:\n        /* \"#utility.yul\":214:436   */\n      swap3\n      swap2\n      pop\n      pop\n      jump\t// out\n        /* \"#utility.yul\":442:541   */\n    tag_438:\n        /* \"#utility.yul\":494:500   */\n      0x00\n        /* \"#utility.yul\":528:533   */\n      dup2\n        /* \"#utility.yul\":522:534   */\n      mload\n        /* \"#utility.yul\":512:534   */\n      swap1\n      pop\n        /* \"#utility.yul\":442:541   */\n      swap2\n      swap1\n      pop\n      jump\t// out\n        /* \"#utility.yul\":547:716   */\n    tag_439:\n        /* \"#utility.yul\":631:642   */\n      0x00\n        /* \"#utility.yul\":665:671   */\n      dup3\n        /* \"#utility.yul\":660:663   */\n      dup3\n        /* \"#utility.yul\":653:672   */\n      mstore\n        /* \"#utility.yul\":705:709   */\n      0x20\n        /* \"#utility.yul\":700:703   */\n      dup3\n        /* \"#utility.yul\":696:710   */\n      add\n        /* \"#utility.yul\":681:710   */\n      swap1\n      pop\n        /* \"#utility.yul\":547:716   */\n      swap3\n      swap2\n      pop\n      pop\n      jump\t// out\n        /* \"#utility.yul\":722:861   */\n    tag_440:\n        /* \"#utility.yul\":811:817   */\n      dup3\n        /* \"#utility.yul\":806:809   */\n      dup2\n        /* \"#utility.yul\":801:804   */\n      dup4\n        /* \"#utility.yul\":795:818   */\n      mcopy\n        /* \"#utility.yul\":852:853   */\n      0x00\n        /* \"#utility.yul\":843:849   */\n      dup4\n        /* \"#utility.yul\":838:841   */\n      dup4\n        /* \"#utility.yul\":834:850   */\n      add\n        /* \"#utility.yul\":827:854   */\n      mstore\n        /* \"#utility.yul\":722:861   */\n      pop\n      pop\n      pop\n      jump\t// out\n        /* \"#utility.yul\":867:969   */\n    tag_441:\n        /* \"#utility.yul\":908:914   */\n      0x00\n        /* \"#utility.yul\":959:961   */\n      0x1f\n        /* \"#utility.yul\":955:962   */\n      not\n        /* \"#utility.yul\":950:952   */\n      0x1f\n        /* \"#utility.yul\":943:948   */\n      dup4\n        /* \"#utility.yul\":939:953   */\n      add\n        /* \"#utility.yul\":935:963   */\n      and\n        /* \"#utility.yul\":925:963   */\n      swap1\n      pop\n        /* \"#utility.yul\":867:969   */\n      swap2\n      swap1\n      pop\n      jump\t// out\n        /* \"#utility.yul\":975:1352   */\n    tag_442:\n        /* \"#utility.yul\":1063:1066   */\n      0x00\n        /* \"#utility.yul\":1091:1130   */\n      tag_558\n        /* \"#utility.yul\":1124:1129   */\n      dup3\n        /* \"#utility.yul\":1091:1130   */\n      tag_438\n      jump\t// in\n    tag_558:\n        /* \"#utility.yul\":1146:1217   */\n      tag_559\n        /* \"#utility.yul\":1210:1216   */\n      dup2\n        /* \"#utility.yul\":1205:1208   */\n      dup6\n        /* \"#utility.yul\":1146:1217   */\n      tag_439\n      jump\t// in\n    tag_559:\n        /* \"#utility.yul\":1139:1217   */\n      swap4\n      pop\n        /* \"#utility.yul\":1226:1291   */\n      tag_560\n        /* \"#utility.yul\":1284:1290   */\n      dup2\n        /* \"#utility.yul\":1279:1282   */\n      dup6\n        /* \"#utility.yul\":1272:1276   */\n      0x20\n        /* \"#utility.yul\":1265:1270   */\n      dup7\n        /* \"#utility.yul\":1261:1277   */\n      add\n        /* \"#utility.yul\":1226:1291   */\n      tag_440\n      jump\t// in\n    tag_560:\n        /* \"#utility.yul\":1316:1345   */\n      tag_561\n        /* \"#utility.yul\":1338:1344   */\n      dup2\n        /* \"#utility.yul\":1316:1345   */\n      tag_441\n      jump\t// in\n    tag_561:\n        /* \"#utility.yul\":1311:1314   */\n      dup5\n        /* \"#utility.yul\":1307:1346   */\n      add\n        /* \"#utility.yul\":1300:1346   */\n      swap2\n      pop\n        /* \"#utility.yul\":1067:1352   */\n      pop\n        /* \"#utility.yul\":975:1352   */\n      swap3\n      swap2\n      pop\n      pop\n      jump\t// out\n        /* \"#utility.yul\":1358:1671   */\n    tag_30:\n        /* \"#utility.yul\":1471:1475   */\n      0x00\n        /* \"#utility.yul\":1509:1511   */\n      0x20\n        /* \"#utility.yul\":1498:1507   */\n      dup3\n        /* \"#utility.yul\":1494:1512   */\n      add\n        /* \"#utility.yul\":1486:1512   */\n      swap1\n      pop\n        /* \"#utility.yul\":1558:1567   */\n      dup2\n        /* \"#utility.yul\":1552:1556   */\n      dup2\n        /* \"#utility.yul\":1548:1568   */\n      sub\n        /* \"#utility.yul\":1544:1545   */\n      0x00\n        /* \"#utility.yul\":1533:1542   */\n      dup4\n        /* \"#utility.yul\":1529:1546   */\n      add\n        /* \"#utility.yul\":1522:1569   */\n      mstore\n        /* \"#utility.yul\":1586:1664   */\n      tag_563\n        /* \"#utility.yul\":1659:1663   */\n      dup2\n        /* \"#utility.yul\":1650:1656   */\n      dup5\n        /* \"#utility.yul\":1586:1664   */\n      tag_442\n      jump\t// in\n    tag_563:\n        /* \"#utility.yul\":1578:1664   */\n      swap1\n      pop\n        /* \"#utility.yul\":1358:1671   */\n      swap3\n      swap2\n      pop\n      pop\n      jump\t// out\n        /* \"#utility.yul\":1677:1752   */\n    tag_443:\n        /* \"#utility.yul\":1710:1716   */\n      0x00\n        /* \"#utility.yul\":1743:1745   */\n      0x40\n        /* \"#utility.yul\":1737:1746   */\n      mload\n        /* \"#utility.yul\":1727:1746   */\n      swap1\n      pop\n        /* \"#utility.yul\":1677:1752   */\n      swap1\n      jump\t// out\n        /* \"#utility.yul\":1758:1875   */\n    tag_444:\n        /* \"#utility.yul\":1867:1868   */\n      0x00\n        /* \"#utility.yul\":1864:1865   */\n      0x00\n        /* \"#utility.yul\":1857:1869   */\n      revert\n        /* \"#utility.yul\":2004:2126   */\n    tag_446:\n        /* \"#utility.yul\":2077:2101   */\n      tag_568\n        /* \"#utility.yul\":2095:2100   */\n      dup2\n        /* \"#utility.yul\":2077:2101   */\n      tag_436\n      jump\t// in\n    tag_568:\n        /* \"#utility.yul\":2070:2075   */\n      dup2\n        /* \"#utility.yul\":2067:2102   */\n      eq\n        /* \"#utility.yul\":2057:2120   */\n      tag_569\n      jumpi\n        /* \"#utility.yul\":2116:2117   */\n      0x00\n        /* \"#utility.yul\":2113:2114   */\n      0x00\n        /* \"#utility.yul\":2106:2118   */\n      revert\n        /* \"#utility.yul\":2057:2120   */\n    tag_569:\n        /* \"#utility.yul\":2004:2126   */\n      pop\n      jump\t// out\n        /* \"#utility.yul\":2132:2271   */\n    tag_447:\n        /* \"#utility.yul\":2178:2183   */\n      0x00\n        /* \"#utility.yul\":2216:2222   */\n      dup2\n        /* \"#utility.yul\":2203:2223   */\n      calldataload\n        /* \"#utility.yul\":2194:2223   */\n      swap1\n      pop\n        /* \"#utility.yul\":2232:2265   */\n      tag_571\n        /* \"#utility.yul\":2259:2264   */\n      dup2\n        /* \"#utility.yul\":2232:2265   */\n      tag_446\n      jump\t// in\n    tag_571:\n        /* \"#utility.yul\":2132:2271   */\n      swap3\n      swap2\n      pop\n      pop\n      jump\t// out\n        /* \"#utility.yul\":2277:2606   */\n    tag_38:\n        /* \"#utility.yul\":2336:2342   */\n      0x00\n        /* \"#utility.yul\":2385:2387   */\n      0x20\n        /* \"#utility.yul\":2373:2382   */\n      dup3\n        /* \"#utility.yul\":2364:2371   */\n      dup5\n        /* \"#utility.yul\":2360:2383   */\n      sub\n        /* \"#utility.yul\":2356:2388   */\n      slt\n        /* \"#utility.yul\":2353:2472   */\n      iszero\n      tag_573\n      jumpi\n        /* \"#utility.yul\":2391:2470   */\n      tag_574\n      tag_444\n      jump\t// in\n    tag_574:\n        /* \"#utility.yul\":2353:2472   */\n    tag_573:\n        /* \"#utility.yul\":2511:2512   */\n      0x00\n        /* \"#utility.yul\":2536:2589   */\n      tag_575\n        /* \"#utility.yul\":2581:2588   */\n      dup5\n        /* \"#utility.yul\":2572:2578   */\n      dup3\n        /* \"#utility.yul\":2561:2570   */\n      dup6\n        /* \"#utility.yul\":2557:2579   */\n      add\n        /* \"#utility.yul\":2536:2589   */\n      tag_447\n      jump\t// in\n    tag_575:\n        /* \"#utility.yul\":2526:2589   */\n      swap2\n      pop\n        /* \"#utility.yul\":2482:2599   */\n      pop\n        /* \"#utility.yul\":2277:2606   */\n      swap3\n      swap2\n      pop\n      pop\n      jump\t// out\n        /* \"#utility.yul\":2612:2944   */\n    tag_41:\n        /* \"#utility.yul\":2733:2737   */\n      0x00\n        /* \"#utility.yul\":2771:2773   */\n      0x40\n        /* \"#utility.yul\":2760:2769   */\n      dup3\n        /* \"#utility.yul\":2756:2774   */\n      add\n        /* \"#utility.yul\":2748:2774   */\n      swap1\n      pop\n        /* \"#utility.yul\":2784:2855   */\n      tag_577\n        /* \"#utility.yul\":2852:2853   */\n      0x00\n        /* \"#utility.yul\":2841:2850   */\n      dup4\n        /* \"#utility.yul\":2837:2854   */\n      add\n        /* \"#utility.yul\":2828:2834   */\n      dup6\n        /* \"#utility.yul\":2784:2855   */\n      tag_437\n      jump\t// in\n    tag_577:\n        /* \"#utility.yul\":2865:2937   */\n      tag_578\n        /* \"#utility.yul\":2933:2935   */\n      0x20\n        /* \"#utility.yul\":2922:2931   */\n      dup4\n        /* \"#utility.yul\":2918:2936   */\n      add\n        /* \"#utility.yul\":2909:2915   */\n      dup5\n        /* \"#utility.yul\":2865:2937   */\n      tag_437\n      jump\t// in\n    tag_578:\n        /* \"#utility.yul\":2612:2944   */\n      swap4\n      swap3\n      pop\n      pop\n      pop\n      jump\t// out\n        /* \"#utility.yul\":2950:3130   */\n    tag_100:\n        /* \"#utility.yul\":2998:3075   */\n      0x4e487b7100000000000000000000000000000000000000000000000000000000\n        /* \"#utility.yul\":2995:2996   */\n      0x00\n        /* \"#utility.yul\":2988:3076   */\n      mstore\n        /* \"#utility.yul\":3095:3099   */\n      0x21\n        /* \"#utility.yul\":3092:3093   */\n      0x04\n        /* \"#utility.yul\":3085:3100   */\n      mstore\n        /* \"#utility.yul\":3119:3123   */\n      0x24\n        /* \"#utility.yul\":3116:3117   */\n      0x00\n        /* \"#utility.yul\":3109:3124   */\n      revert\n        /* \"#utility.yul\":3136:3251   */\n    tag_448:\n        /* \"#utility.yul\":3219:3220   */\n      0x04\n        /* \"#utility.yul\":3212:3217   */\n      dup2\n        /* \"#utility.yul\":3209:3221   */\n      lt\n        /* \"#utility.yul\":3199:3245   */\n      tag_581\n      jumpi\n        /* \"#utility.yul\":3225:3243   */\n      tag_582\n      tag_100\n      jump\t// in\n    tag_582:\n        /* \"#utility.yul\":3199:3245   */\n    tag_581:\n        /* \"#utility.yul\":3136:3251   */\n      pop\n      jump\t// out\n        /* \"#utility.yul\":3257:3388   */\n    tag_449:\n        /* \"#utility.yul\":3304:3311   */\n      0x00\n        /* \"#utility.yul\":3333:3338   */\n      dup2\n        /* \"#utility.yul\":3322:3338   */\n      swap1\n      pop\n        /* \"#utility.yul\":3339:3382   */\n      tag_584\n        /* \"#utility.yul\":3376:3381   */\n      dup3\n        /* \"#utility.yul\":3339:3382   */\n      tag_448\n      jump\t// in\n    tag_584:\n        /* \"#utility.yul\":3257:3388   */\n      swap2\n      swap1\n      pop\n      jump\t// out\n        /* \"#utility.yul\":3394:3525   */\n    tag_450:\n        /* \"#utility.yul\":3452:3461   */\n      0x00\n        /* \"#utility.yul\":3485:3519   */\n      tag_586\n        /* \"#utility.yul\":3513:3518   */\n      dup3\n        /* \"#utility.yul\":3485:3519   */\n      tag_449\n      jump\t// in\n    tag_586:\n        /* \"#utility.yul\":3472:3519   */\n      swap1\n      pop\n        /* \"#utility.yul\":3394:3525   */\n      swap2\n      swap1\n      pop\n      jump\t// out\n        /* \"#utility.yul\":3531:3678   */\n    tag_451:\n        /* \"#utility.yul\":3626:3671   */\n      tag_588\n        /* \"#utility.yul\":3665:3670   */\n      dup2\n        /* \"#utility.yul\":3626:3671   */\n      tag_450\n      jump\t// in\n    tag_588:\n        /* \"#utility.yul\":3621:3624   */\n      dup3\n        /* \"#utility.yul\":3614:3672   */\n      mstore\n        /* \"#utility.yul\":3531:3678   */\n      pop\n      pop\n      jump\t// out\n        /* \"#utility.yul\":3684:3922   */\n    tag_46:\n        /* \"#utility.yul\":3785:3789   */\n      0x00\n        /* \"#utility.yul\":3823:3825   */\n      0x20\n        /* \"#utility.yul\":3812:3821   */\n      dup3\n        /* \"#utility.yul\":3808:3826   */\n      add\n        /* \"#utility.yul\":3800:3826   */\n      swap1\n      pop\n        /* \"#utility.yul\":3836:3915   */\n      tag_590\n        /* \"#utility.yul\":3912:3913   */\n      0x00\n        /* \"#utility.yul\":3901:3910   */\n      dup4\n        /* \"#utility.yul\":3897:3914   */\n      add\n        /* \"#utility.yul\":3888:3894   */\n      dup5\n        /* \"#utility.yul\":3836:3915   */\n      tag_451\n      jump\t// in\n    tag_590:\n        /* \"#utility.yul\":3684:3922   */\n      swap3\n      swap2\n      pop\n      pop\n      jump\t// out\n        /* \"#utility.yul\":3928:4054   */\n    tag_452:\n        /* \"#utility.yul\":3965:3972   */\n      0x00\n        /* \"#utility.yul\":4005:4047   */\n      0xffffffffffffffffffffffffffffffffffffffff\n        /* \"#utility.yul\":3998:4003   */\n      dup3\n        /* \"#utility.yul\":3994:4048   */\n      and\n        /* \"#utility.yul\":3983:4048   */\n      swap1\n      pop\n        /* \"#utility.yul\":3928:4054   */\n      swap2\n      swap1\n      pop\n      jump\t// out\n        /* \"#utility.yul\":4060:4156   */\n    tag_453:\n        /* \"#utility.yul\":4097:4104   */\n      0x00\n        /* \"#utility.yul\":4126:4150   */\n      tag_593\n        /* \"#utility.yul\":4144:4149   */\n      dup3\n        /* \"#utility.yul\":4126:4150   */\n      tag_452\n      jump\t// in\n    tag_593:\n        /* \"#utility.yul\":4115:4150   */\n      swap1\n      pop\n        /* \"#utility.yul\":4060:4156   */\n      swap2\n      swap1\n      pop\n      jump\t// out\n        /* \"#utility.yul\":4162:4284   */\n    tag_454:\n        /* \"#utility.yul\":4235:4259   */\n      tag_595\n        /* \"#utility.yul\":4253:4258   */\n      dup2\n        /* \"#utility.yul\":4235:4259   */\n      tag_453\n      jump\t// in\n    tag_595:\n        /* \"#utility.yul\":4228:4233   */\n      dup2\n        /* \"#utility.yul\":4225:4260   */\n      eq\n        /* \"#utility.yul\":4215:4278   */\n      tag_596\n      jumpi\n        /* \"#utility.yul\":4274:4275   */\n      0x00\n        /* \"#utility.yul\":4271:4272   */\n      0x00\n        /* \"#utility.yul\":4264:4276   */\n      revert\n        /* \"#utility.yul\":4215:4278   */\n    tag_596:\n        /* \"#utility.yul\":4162:4284   */\n      pop\n      jump\t// out\n        /* \"#utility.yul\":4290:4429   */\n    tag_455:\n        /* \"#utility.yul\":4336:4341   */\n      0x00\n        /* \"#utility.yul\":4374:4380   */\n      dup2\n        /* \"#utility.yul\":4361:4381   */\n      calldataload\n        /* \"#utility.yul\":4352:4381   */\n      swap1\n      pop\n        /* \"#utility.yul\":4390:4423   */\n      tag_598\n        /* \"#utility.yul\":4417:4422   */\n      dup2\n        /* \"#utility.yul\":4390:4423   */\n      tag_454\n      jump\t// in\n    tag_598:\n        /* \"#utility.yul\":4290:4429   */\n      swap3\n      swap2\n      pop\n      pop\n      jump\t// out\n        /* \"#utility.yul\":4435:4764   */\n    tag_50:\n        /* \"#utility.yul\":4494:4500   */\n      0x00\n        /* \"#utility.yul\":4543:4545   */\n      0x20\n        /* \"#utility.yul\":4531:4540   */\n      dup3\n        /* \"#utility.yul\":4522:4529   */\n      dup5\n        /* \"#utility.yul\":4518:4541   */\n      sub\n        /* \"#utility.yul\":4514:4546   */\n      slt\n        /* \"#utility.yul\":4511:4630   */\n      iszero\n      tag_600\n      jumpi\n        /* \"#utility.yul\":4549:4628   */\n      tag_601\n      tag_444\n      jump\t// in\n    tag_601:\n        /* \"#utility.yul\":4511:4630   */\n    tag_600:\n        /* \"#utility.yul\":4669:4670   */\n      0x00\n        /* \"#utility.yul\":4694:4747   */\n      tag_602\n        /* \"#utility.yul\":4739:4746   */\n      dup5\n        /* \"#utility.yul\":4730:4736   */\n      dup3\n        /* \"#utility.yul\":4719:4728   */\n      dup6\n        /* \"#utility.yul\":4715:4737   */\n      add\n        /* \"#utility.yul\":4694:4747   */\n      tag_455\n      jump\t// in\n    tag_602:\n        /* \"#utility.yul\":4684:4747   */\n      swap2\n      pop\n        /* \"#utility.yul\":4640:4757   */\n      pop\n        /* \"#utility.yul\":4435:4764   */\n      swap3\n      swap2\n      pop\n      pop\n      jump\t// out\n        /* \"#utility.yul\":4770:4878   */\n    tag_456:\n        /* \"#utility.yul\":4847:4871   */\n      tag_604\n        /* \"#utility.yul\":4865:4870   */\n      dup2\n        /* \"#utility.yul\":4847:4871   */\n      tag_436\n      jump\t// in\n    tag_604:\n        /* \"#utility.yul\":4842:4845   */\n      dup3\n        /* \"#utility.yul\":4835:4872   */\n      mstore\n        /* \"#utility.yul\":4770:4878   */\n      pop\n      pop\n      jump\t// out\n        /* \"#utility.yul\":4884:4992   */\n    tag_457:\n        /* \"#utility.yul\":4961:4985   */\n      tag_606\n        /* \"#utility.yul\":4979:4984   */\n      dup2\n        /* \"#utility.yul\":4961:4985   */\n      tag_453\n      jump\t// in\n    tag_606:\n        /* \"#utility.yul\":4956:4959   */\n      dup3\n        /* \"#utility.yul\":4949:4986   */\n      mstore\n        /* \"#utility.yul\":4884:4992   */\n      pop\n      pop\n      jump\t// out\n        /* \"#utility.yul\":4998:5115   */\n    tag_458:\n        /* \"#utility.yul\":5083:5084   */\n      0x03\n        /* \"#utility.yul\":5076:5081   */\n      dup2\n        /* \"#utility.yul\":5073:5085   */\n      lt\n        /* \"#utility.yul\":5063:5109   */\n      tag_608\n      jumpi\n        /* \"#utility.yul\":5089:5107   */\n      tag_609\n      tag_100\n      jump\t// in\n    tag_609:\n        /* \"#utility.yul\":5063:5109   */\n    tag_608:\n        /* \"#utility.yul\":4998:5115   */\n      pop\n      jump\t// out\n        /* \"#utility.yul\":5121:5256   */\n    tag_459:\n        /* \"#utility.yul\":5170:5177   */\n      0x00\n        /* \"#utility.yul\":5199:5204   */\n      dup2\n        /* \"#utility.yul\":5188:5204   */\n      swap1\n      pop\n        /* \"#utility.yul\":5205:5250   */\n      tag_611\n        /* \"#utility.yul\":5244:5249   */\n      dup3\n        /* \"#utility.yul\":5205:5250   */\n      tag_458\n      jump\t// in\n    tag_611:\n        /* \"#utility.yul\":5121:5256   */\n      swap2\n      swap1\n      pop\n      jump\t// out\n        /* \"#utility.yul\":5262:5397   */\n    tag_460:\n        /* \"#utility.yul\":5322:5331   */\n      0x00\n        /* \"#utility.yul\":5355:5391   */\n      tag_613\n        /* \"#utility.yul\":5385:5390   */\n      dup3\n        /* \"#utility.yul\":5355:5391   */\n      tag_459\n      jump\t// in\n    tag_613:\n        /* \"#utility.yul\":5342:5391   */\n      swap1\n      pop\n        /* \"#utility.yul\":5262:5397   */\n      swap2\n      swap1\n      pop\n      jump\t// out\n        /* \"#utility.yul\":5403:5544   */\n    tag_461:\n        /* \"#utility.yul\":5490:5537   */\n      tag_615\n        /* \"#utility.yul\":5531:5536   */\n      dup2\n        /* \"#utility.yul\":5490:5537   */\n      tag_460\n      jump\t// in\n    tag_615:\n        /* \"#utility.yul\":5485:5488   */\n      dup3\n        /* \"#utility.yul\":5478:5538   */\n      mstore\n        /* \"#utility.yul\":5403:5544   */\n      pop\n      pop\n      jump\t// out\n        /* \"#utility.yul\":5550:5667   */\n    tag_462:\n        /* \"#utility.yul\":5635:5636   */\n      0x04\n        /* \"#utility.yul\":5628:5633   */\n      dup2\n        /* \"#utility.yul\":5625:5637   */\n      lt\n        /* \"#utility.yul\":5615:5661   */\n      tag_617\n      jumpi\n        /* \"#utility.yul\":5641:5659   */\n      tag_618\n      tag_100\n      jump\t// in\n    tag_618:\n        /* \"#utility.yul\":5615:5661   */\n    tag_617:\n        /* \"#utility.yul\":5550:5667   */\n      pop\n      jump\t// out\n        /* \"#utility.yul\":5673:5808   */\n    tag_463:\n        /* \"#utility.yul\":5722:5729   */\n      0x00\n        /* \"#utility.yul\":5751:5756   */\n      dup2\n        /* \"#utility.yul\":5740:5756   */\n      swap1\n      pop\n        /* \"#utility.yul\":5757:5802   */\n      tag_620\n        /* \"#utility.yul\":5796:5801   */\n      dup3\n        /* \"#utility.yul\":5757:5802   */\n      tag_462\n      jump\t// in\n    tag_620:\n        /* \"#utility.yul\":5673:5808   */\n      swap2\n      swap1\n      pop\n      jump\t// out\n        /* \"#utility.yul\":5814:5949   */\n    tag_464:\n        /* \"#utility.yul\":5874:5883   */\n      0x00\n        /* \"#utility.yul\":5907:5943   */\n      tag_622\n        /* \"#utility.yul\":5937:5942   */\n      dup3\n        /* \"#utility.yul\":5907:5943   */\n      tag_463\n      jump\t// in\n    tag_622:\n        /* \"#utility.yul\":5894:5943   */\n      swap1\n      pop\n        /* \"#utility.yul\":5814:5949   */\n      swap2\n      swap1\n      pop\n      jump\t// out\n        /* \"#utility.yul\":5955:6096   */\n    tag_465:\n        /* \"#utility.yul\":6042:6089   */\n      tag_624\n        /* \"#utility.yul\":6083:6088   */\n      dup2\n        /* \"#utility.yul\":6042:6089   */\n      tag_464\n      jump\t// in\n    tag_624:\n        /* \"#utility.yul\":6037:6040   */\n      dup3\n        /* \"#utility.yul\":6030:6090   */\n      mstore\n        /* \"#utility.yul\":5955:6096   */\n      pop\n      pop\n      jump\t// out\n        /* \"#utility.yul\":6162:7422   */\n    tag_466:\n        /* \"#utility.yul\":6317:6321   */\n      0xc0\n        /* \"#utility.yul\":6312:6315   */\n      dup3\n        /* \"#utility.yul\":6308:6322   */\n      add\n        /* \"#utility.yul\":6408:6412   */\n      0x00\n        /* \"#utility.yul\":6401:6406   */\n      dup3\n        /* \"#utility.yul\":6397:6413   */\n      add\n        /* \"#utility.yul\":6391:6414   */\n      mload\n        /* \"#utility.yul\":6427:6500   */\n      tag_626\n        /* \"#utility.yul\":6494:6498   */\n      0x00\n        /* \"#utility.yul\":6489:6492   */\n      dup6\n        /* \"#utility.yul\":6485:6499   */\n      add\n        /* \"#utility.yul\":6471:6483   */\n      dup3\n        /* \"#utility.yul\":6427:6500   */\n      tag_465\n      jump\t// in\n    tag_626:\n        /* \"#utility.yul\":6332:6510   */\n      pop\n        /* \"#utility.yul\":6592:6596   */\n      0x20\n        /* \"#utility.yul\":6585:6590   */\n      dup3\n        /* \"#utility.yul\":6581:6597   */\n      add\n        /* \"#utility.yul\":6575:6598   */\n      mload\n        /* \"#utility.yul\":6611:6674   */\n      tag_627\n        /* \"#utility.yul\":6668:6672   */\n      0x20\n        /* \"#utility.yul\":6663:6666   */\n      dup6\n        /* \"#utility.yul\":6659:6673   */\n      add\n        /* \"#utility.yul\":6645:6657   */\n      dup3\n        /* \"#utility.yul\":6611:6674   */\n      tag_456\n      jump\t// in\n    tag_627:\n        /* \"#utility.yul\":6520:6684   */\n      pop\n        /* \"#utility.yul\":6775:6779   */\n      0x40\n        /* \"#utility.yul\":6768:6773   */\n      dup3\n        /* \"#utility.yul\":6764:6780   */\n      add\n        /* \"#utility.yul\":6758:6781   */\n      mload\n        /* \"#utility.yul\":6794:6857   */\n      tag_628\n        /* \"#utility.yul\":6851:6855   */\n      0x40\n        /* \"#utility.yul\":6846:6849   */\n      dup6\n        /* \"#utility.yul\":6842:6856   */\n      add\n        /* \"#utility.yul\":6828:6840   */\n      dup3\n        /* \"#utility.yul\":6794:6857   */\n      tag_456\n      jump\t// in\n    tag_628:\n        /* \"#utility.yul\":6694:6867   */\n      pop\n        /* \"#utility.yul\":6958:6962   */\n      0x60\n        /* \"#utility.yul\":6951:6956   */\n      dup3\n        /* \"#utility.yul\":6947:6963   */\n      add\n        /* \"#utility.yul\":6941:6964   */\n      mload\n        /* \"#utility.yul\":6977:7040   */\n      tag_629\n        /* \"#utility.yul\":7034:7038   */\n      0x60\n        /* \"#utility.yul\":7029:7032   */\n      dup6\n        /* \"#utility.yul\":7025:7039   */\n      add\n        /* \"#utility.yul\":7011:7023   */\n      dup3\n        /* \"#utility.yul\":6977:7040   */\n      tag_456\n      jump\t// in\n    tag_629:\n        /* \"#utility.yul\":6877:7050   */\n      pop\n        /* \"#utility.yul\":7142:7146   */\n      0x80\n        /* \"#utility.yul\":7135:7140   */\n      dup3\n        /* \"#utility.yul\":7131:7147   */\n      add\n        /* \"#utility.yul\":7125:7148   */\n      mload\n        /* \"#utility.yul\":7161:7224   */\n      tag_630\n        /* \"#utility.yul\":7218:7222   */\n      0x80\n        /* \"#utility.yul\":7213:7216   */\n      dup6\n        /* \"#utility.yul\":7209:7223   */\n      add\n        /* \"#utility.yul\":7195:7207   */\n      dup3\n        /* \"#utility.yul\":7161:7224   */\n      tag_456\n      jump\t// in\n    tag_630:\n        /* \"#utility.yul\":7060:7234   */\n      pop\n        /* \"#utility.yul\":7323:7327   */\n      0xa0\n        /* \"#utility.yul\":7316:7321   */\n      dup3\n        /* \"#utility.yul\":7312:7328   */\n      add\n        /* \"#utility.yul\":7306:7329   */\n      mload\n        /* \"#utility.yul\":7342:7405   */\n      tag_631\n        /* \"#utility.yul\":7399:7403   */\n      0xa0\n        /* \"#utility.yul\":7394:7397   */\n      dup6\n        /* \"#utility.yul\":7390:7404   */\n      add\n        /* \"#utility.yul\":7376:7388   */\n      dup3\n        /* \"#utility.yul\":7342:7405   */\n      tag_456\n      jump\t// in\n    tag_631:\n        /* \"#utility.yul\":7244:7415   */\n      pop\n        /* \"#utility.yul\":6286:7422   */\n      pop\n        /* \"#utility.yul\":6162:7422   */\n      pop\n      pop\n      jump\t// out\n        /* \"#utility.yul\":7472:7997   */\n    tag_467:\n        /* \"#utility.yul\":7611:7615   */\n      0x40\n        /* \"#utility.yul\":7606:7609   */\n      dup3\n        /* \"#utility.yul\":7602:7616   */\n      add\n        /* \"#utility.yul\":7711:7715   */\n      0x00\n        /* \"#utility.yul\":7704:7709   */\n      dup3\n        /* \"#utility.yul\":7700:7716   */\n      add\n        /* \"#utility.yul\":7694:7717   */\n      mload\n        /* \"#utility.yul\":7730:7793   */\n      tag_633\n        /* \"#utility.yul\":7787:7791   */\n      0x00\n        /* \"#utility.yul\":7782:7785   */\n      dup6\n        /* \"#utility.yul\":7778:7792   */\n      add\n        /* \"#utility.yul\":7764:7776   */\n      dup3\n        /* \"#utility.yul\":7730:7793   */\n      tag_456\n      jump\t// in\n    tag_633:\n        /* \"#utility.yul\":7626:7803   */\n      pop\n        /* \"#utility.yul\":7898:7902   */\n      0x20\n        /* \"#utility.yul\":7891:7896   */\n      dup3\n        /* \"#utility.yul\":7887:7903   */\n      add\n        /* \"#utility.yul\":7881:7904   */\n      mload\n        /* \"#utility.yul\":7917:7980   */\n      tag_634\n        /* \"#utility.yul\":7974:7978   */\n      0x20\n        /* \"#utility.yul\":7969:7972   */\n      dup6\n        /* \"#utility.yul\":7965:7979   */\n      add\n        /* \"#utility.yul\":7951:7963   */\n      dup3\n        /* \"#utility.yul\":7917:7980   */\n      tag_456\n      jump\t// in\n    tag_634:\n        /* \"#utility.yul\":7813:7990   */\n      pop\n        /* \"#utility.yul\":7580:7997   */\n      pop\n        /* \"#utility.yul\":7472:7997   */\n      pop\n      pop\n      jump\t// out\n        /* \"#utility.yul\":8047:10764   */\n    tag_468:\n        /* \"#utility.yul\":8184:8190   */\n      0x0300\n        /* \"#utility.yul\":8179:8182   */\n      dup3\n        /* \"#utility.yul\":8175:8191   */\n      add\n        /* \"#utility.yul\":8271:8275   */\n      0x00\n        /* \"#utility.yul\":8264:8269   */\n      dup3\n        /* \"#utility.yul\":8260:8276   */\n      add\n        /* \"#utility.yul\":8254:8277   */\n      mload\n        /* \"#utility.yul\":8290:8353   */\n      tag_636\n        /* \"#utility.yul\":8347:8351   */\n      0x00\n        /* \"#utility.yul\":8342:8345   */\n      dup6\n        /* \"#utility.yul\":8338:8352   */\n      add\n        /* \"#utility.yul\":8324:8336   */\n      dup3\n        /* \"#utility.yul\":8290:8353   */\n      tag_456\n      jump\t// in\n    tag_636:\n        /* \"#utility.yul\":8201:8363   */\n      pop\n        /* \"#utility.yul\":8449:8453   */\n      0x20\n        /* \"#utility.yul\":8442:8447   */\n      dup3\n        /* \"#utility.yul\":8438:8454   */\n      add\n        /* \"#utility.yul\":8432:8455   */\n      mload\n        /* \"#utility.yul\":8468:8531   */\n      tag_637\n        /* \"#utility.yul\":8525:8529   */\n      0x20\n        /* \"#utility.yul\":8520:8523   */\n      dup6\n        /* \"#utility.yul\":8516:8530   */\n      add\n        /* \"#utility.yul\":8502:8514   */\n      dup3\n        /* \"#utility.yul\":8468:8531   */\n      tag_457\n      jump\t// in\n    tag_637:\n        /* \"#utility.yul\":8373:8541   */\n      pop\n        /* \"#utility.yul\":8624:8628   */\n      0x40\n        /* \"#utility.yul\":8617:8622   */\n      dup3\n        /* \"#utility.yul\":8613:8629   */\n      add\n        /* \"#utility.yul\":8607:8630   */\n      mload\n        /* \"#utility.yul\":8643:8706   */\n      tag_638\n        /* \"#utility.yul\":8700:8704   */\n      0x40\n        /* \"#utility.yul\":8695:8698   */\n      dup6\n        /* \"#utility.yul\":8691:8705   */\n      add\n        /* \"#utility.yul\":8677:8689   */\n      dup3\n        /* \"#utility.yul\":8643:8706   */\n      tag_457\n      jump\t// in\n    tag_638:\n        /* \"#utility.yul\":8551:8716   */\n      pop\n        /* \"#utility.yul\":8811:8815   */\n      0x60\n        /* \"#utility.yul\":8804:8809   */\n      dup3\n        /* \"#utility.yul\":8800:8816   */\n      add\n        /* \"#utility.yul\":8794:8817   */\n      mload\n        /* \"#utility.yul\":8830:8893   */\n      tag_639\n        /* \"#utility.yul\":8887:8891   */\n      0x60\n        /* \"#utility.yul\":8882:8885   */\n      dup6\n        /* \"#utility.yul\":8878:8892   */\n      add\n        /* \"#utility.yul\":8864:8876   */\n      dup3\n        /* \"#utility.yul\":8830:8893   */\n      tag_456\n      jump\t// in\n    tag_639:\n        /* \"#utility.yul\":8726:8903   */\n      pop\n        /* \"#utility.yul\":9000:9004   */\n      0x80\n        /* \"#utility.yul\":8993:8998   */\n      dup3\n        /* \"#utility.yul\":8989:9005   */\n      add\n        /* \"#utility.yul\":8983:9006   */\n      mload\n        /* \"#utility.yul\":9019:9082   */\n      tag_640\n        /* \"#utility.yul\":9076:9080   */\n      0x80\n        /* \"#utility.yul\":9071:9074   */\n      dup6\n        /* \"#utility.yul\":9067:9081   */\n      add\n        /* \"#utility.yul\":9053:9065   */\n      dup3\n        /* \"#utility.yul\":9019:9082   */\n      tag_456\n      jump\t// in\n    tag_640:\n        /* \"#utility.yul\":8913:9092   */\n      pop\n        /* \"#utility.yul\":9178:9182   */\n      0xa0\n        /* \"#utility.yul\":9171:9176   */\n      dup3\n        /* \"#utility.yul\":9167:9183   */\n      add\n        /* \"#utility.yul\":9161:9184   */\n      mload\n        /* \"#utility.yul\":9197:9260   */\n      tag_641\n        /* \"#utility.yul\":9254:9258   */\n      0xa0\n        /* \"#utility.yul\":9249:9252   */\n      dup6\n        /* \"#utility.yul\":9245:9259   */\n      add\n        /* \"#utility.yul\":9231:9243   */\n      dup3\n        /* \"#utility.yul\":9197:9260   */\n      tag_456\n      jump\t// in\n    tag_641:\n        /* \"#utility.yul\":9102:9270   */\n      pop\n        /* \"#utility.yul\":9356:9360   */\n      0xc0\n        /* \"#utility.yul\":9349:9354   */\n      dup3\n        /* \"#utility.yul\":9345:9361   */\n      add\n        /* \"#utility.yul\":9339:9362   */\n      mload\n        /* \"#utility.yul\":9375:9448   */\n      tag_642\n        /* \"#utility.yul\":9442:9446   */\n      0xc0\n        /* \"#utility.yul\":9437:9440   */\n      dup6\n        /* \"#utility.yul\":9433:9447   */\n      add\n        /* \"#utility.yul\":9419:9431   */\n      dup3\n        /* \"#utility.yul\":9375:9448   */\n      tag_461\n      jump\t// in\n    tag_642:\n        /* \"#utility.yul\":9280:9458   */\n      pop\n        /* \"#utility.yul\":9556:9560   */\n      0xe0\n        /* \"#utility.yul\":9549:9554   */\n      dup3\n        /* \"#utility.yul\":9545:9561   */\n      add\n        /* \"#utility.yul\":9539:9562   */\n      mload\n        /* \"#utility.yul\":9575:9706   */\n      tag_643\n        /* \"#utility.yul\":9700:9704   */\n      0xe0\n        /* \"#utility.yul\":9695:9698   */\n      dup6\n        /* \"#utility.yul\":9691:9705   */\n      add\n        /* \"#utility.yul\":9677:9689   */\n      dup3\n        /* \"#utility.yul\":9575:9706   */\n      tag_466\n      jump\t// in\n    tag_643:\n        /* \"#utility.yul\":9468:9716   */\n      pop\n        /* \"#utility.yul\":9810:9816   */\n      0x0100\n        /* \"#utility.yul\":9803:9808   */\n      dup3\n        /* \"#utility.yul\":9799:9817   */\n      add\n        /* \"#utility.yul\":9793:9818   */\n      mload\n        /* \"#utility.yul\":9831:9964   */\n      tag_644\n        /* \"#utility.yul\":9956:9962   */\n      0x01a0\n        /* \"#utility.yul\":9951:9954   */\n      dup6\n        /* \"#utility.yul\":9947:9963   */\n      add\n        /* \"#utility.yul\":9933:9945   */\n      dup3\n        /* \"#utility.yul\":9831:9964   */\n      tag_466\n      jump\t// in\n    tag_644:\n        /* \"#utility.yul\":9726:9974   */\n      pop\n        /* \"#utility.yul\":10061:10067   */\n      0x0120\n        /* \"#utility.yul\":10054:10059   */\n      dup3\n        /* \"#utility.yul\":10050:10068   */\n      add\n        /* \"#utility.yul\":10044:10069   */\n      mload\n        /* \"#utility.yul\":10082:10199   */\n      tag_645\n        /* \"#utility.yul\":10191:10197   */\n      0x0260\n        /* \"#utility.yul\":10186:10189   */\n      dup6\n        /* \"#utility.yul\":10182:10198   */\n      add\n        /* \"#utility.yul\":10168:10180   */\n      dup3\n        /* \"#utility.yul\":10082:10199   */\n      tag_467\n      jump\t// in\n    tag_645:\n        /* \"#utility.yul\":9984:10209   */\n      pop\n        /* \"#utility.yul\":10298:10304   */\n      0x0140\n        /* \"#utility.yul\":10291:10296   */\n      dup3\n        /* \"#utility.yul\":10287:10305   */\n      add\n        /* \"#utility.yul\":10281:10306   */\n      mload\n        /* \"#utility.yul\":10319:10384   */\n      tag_646\n        /* \"#utility.yul\":10376:10382   */\n      0x02a0\n        /* \"#utility.yul\":10371:10374   */\n      dup6\n        /* \"#utility.yul\":10367:10383   */\n      add\n        /* \"#utility.yul\":10353:10365   */\n      dup3\n        /* \"#utility.yul\":10319:10384   */\n      tag_456\n      jump\t// in\n    tag_646:\n        /* \"#utility.yul\":10219:10394   */\n      pop\n        /* \"#utility.yul\":10482:10488   */\n      0x0160\n        /* \"#utility.yul\":10475:10480   */\n      dup3\n        /* \"#utility.yul\":10471:10489   */\n      add\n        /* \"#utility.yul\":10465:10490   */\n      mload\n        /* \"#utility.yul\":10503:10568   */\n      tag_647\n        /* \"#utility.yul\":10560:10566   */\n      0x02c0\n        /* \"#utility.yul\":10555:10558   */\n      dup6\n        /* \"#utility.yul\":10551:10567   */\n      add\n        /* \"#utility.yul\":10537:10549   */\n      dup3\n        /* \"#utility.yul\":10503:10568   */\n      tag_456\n      jump\t// in\n    tag_647:\n        /* \"#utility.yul\":10404:10578   */\n      pop\n        /* \"#utility.yul\":10661:10667   */\n      0x0180\n        /* \"#utility.yul\":10654:10659   */\n      dup3\n        /* \"#utility.yul\":10650:10668   */\n      add\n        /* \"#utility.yul\":10644:10669   */\n      mload\n        /* \"#utility.yul\":10682:10747   */\n      tag_648\n        /* \"#utility.yul\":10739:10745   */\n      0x02e0\n        /* \"#utility.yul\":10734:10737   */\n      dup6\n        /* \"#utility.yul\":10730:10746   */\n      add\n        /* \"#utility.yul\":10716:10728   */\n      dup3\n        /* \"#utility.yul\":10682:10747   */\n      tag_456\n      jump\t// in\n    tag_648:\n        /* \"#utility.yul\":10588:10757   */\n      pop\n        /* \"#utility.yul\":8153:10764   */\n      pop\n        /* \"#utility.yul\":8047:10764   */\n      pop\n      pop\n      jump\t// out\n        /* \"#utility.yul\":10812:12264   */\n    tag_469:\n        /* \"#utility.yul\":10957:10963   */\n      0x03c0\n        /* \"#utility.yul\":10952:10955   */\n      dup3\n        /* \"#utility.yul\":10948:10964   */\n      add\n        /* \"#utility.yul\":11044:11048   */\n      0x00\n        /* \"#utility.yul\":11037:11042   */\n      dup3\n        /* \"#utility.yul\":11033:11049   */\n      add\n        /* \"#utility.yul\":11027:11050   */\n      mload\n        /* \"#utility.yul\":11063:11126   */\n      tag_650\n        /* \"#utility.yul\":11120:11124   */\n      0x00\n        /* \"#utility.yul\":11115:11118   */\n      dup6\n        /* \"#utility.yul\":11111:11125   */\n      add\n        /* \"#utility.yul\":11097:11109   */\n      dup3\n        /* \"#utility.yul\":11063:11126   */\n      tag_456\n      jump\t// in\n    tag_650:\n        /* \"#utility.yul\":10974:11136   */\n      pop\n        /* \"#utility.yul\":11221:11225   */\n      0x20\n        /* \"#utility.yul\":11214:11219   */\n      dup3\n        /* \"#utility.yul\":11210:11226   */\n      add\n        /* \"#utility.yul\":11204:11227   */\n      mload\n        /* \"#utility.yul\":11240:11303   */\n      tag_651\n        /* \"#utility.yul\":11297:11301   */\n      0x20\n        /* \"#utility.yul\":11292:11295   */\n      dup6\n        /* \"#utility.yul\":11288:11302   */\n      add\n        /* \"#utility.yul\":11274:11286   */\n      dup3\n        /* \"#utility.yul\":11240:11303   */\n      tag_457\n      jump\t// in\n    tag_651:\n        /* \"#utility.yul\":11146:11313   */\n      pop\n        /* \"#utility.yul\":11396:11400   */\n      0x40\n        /* \"#utility.yul\":11389:11394   */\n      dup3\n        /* \"#utility.yul\":11385:11401   */\n      add\n        /* \"#utility.yul\":11379:11402   */\n      mload\n        /* \"#utility.yul\":11415:11478   */\n      tag_652\n        /* \"#utility.yul\":11472:11476   */\n      0x40\n        /* \"#utility.yul\":11467:11470   */\n      dup6\n        /* \"#utility.yul\":11463:11477   */\n      add\n        /* \"#utility.yul\":11449:11461   */\n      dup3\n        /* \"#utility.yul\":11415:11478   */\n      tag_457\n      jump\t// in\n    tag_652:\n        /* \"#utility.yul\":11323:11488   */\n      pop\n        /* \"#utility.yul\":11571:11575   */\n      0x60\n        /* \"#utility.yul\":11564:11569   */\n      dup3\n        /* \"#utility.yul\":11560:11576   */\n      add\n        /* \"#utility.yul\":11554:11577   */\n      mload\n        /* \"#utility.yul\":11590:11653   */\n      tag_653\n        /* \"#utility.yul\":11647:11651   */\n      0x60\n        /* \"#utility.yul\":11642:11645   */\n      dup6\n        /* \"#utility.yul\":11638:11652   */\n      add\n        /* \"#utility.yul\":11624:11636   */\n      dup3\n        /* \"#utility.yul\":11590:11653   */\n      tag_457\n      jump\t// in\n    tag_653:\n        /* \"#utility.yul\":11498:11663   */\n      pop\n        /* \"#utility.yul\":11753:11757   */\n      0x80\n        /* \"#utility.yul\":11746:11751   */\n      dup3\n        /* \"#utility.yul\":11742:11758   */\n      add\n        /* \"#utility.yul\":11736:11759   */\n      mload\n        /* \"#utility.yul\":11772:11835   */\n      tag_654\n        /* \"#utility.yul\":11829:11833   */\n      0x80\n        /* \"#utility.yul\":11824:11827   */\n      dup6\n        /* \"#utility.yul\":11820:11834   */\n      add\n        /* \"#utility.yul\":11806:11818   */\n      dup3\n        /* \"#utility.yul\":11772:11835   */\n      tag_456\n      jump\t// in\n    tag_654:\n        /* \"#utility.yul\":11673:11845   */\n      pop\n        /* \"#utility.yul\":11938:11942   */\n      0xa0\n        /* \"#utility.yul\":11931:11936   */\n      dup3\n        /* \"#utility.yul\":11927:11943   */\n      add\n        /* \"#utility.yul\":11921:11944   */\n      mload\n        /* \"#utility.yul\":11957:12020   */\n      tag_655\n        /* \"#utility.yul\":12014:12018   */\n      0xa0\n        /* \"#utility.yul\":12009:12012   */\n      dup6\n        /* \"#utility.yul\":12005:12019   */\n      add\n        /* \"#utility.yul\":11991:12003   */\n      dup3\n        /* \"#utility.yul\":11957:12020   */\n      tag_456\n      jump\t// in\n    tag_655:\n        /* \"#utility.yul\":11855:12030   */\n      pop\n        /* \"#utility.yul\":12115:12119   */\n      0xc0\n        /* \"#utility.yul\":12108:12113   */\n      dup3\n        /* \"#utility.yul\":12104:12120   */\n      add\n        /* \"#utility.yul\":12098:12121   */\n      mload\n        /* \"#utility.yul\":12134:12247   */\n      tag_656\n        /* \"#utility.yul\":12241:12245   */\n      0xc0\n        /* \"#utility.yul\":12236:12239   */\n      dup6\n        /* \"#utility.yul\":12232:12246   */\n      add\n        /* \"#utility.yul\":12218:12230   */\n      dup3\n        /* \"#utility.yul\":12134:12247   */\n      tag_468\n      jump\t// in\n    tag_656:\n        /* \"#utility.yul\":12040:12257   */\n      pop\n        /* \"#utility.yul\":10926:12264   */\n      pop\n        /* \"#utility.yul\":10812:12264   */\n      pop\n      pop\n      jump\t// out\n        /* \"#utility.yul\":12270:12589   */\n    tag_57:\n        /* \"#utility.yul\":12411:12415   */\n      0x00\n        /* \"#utility.yul\":12449:12452   */\n      0x03c0\n        /* \"#utility.yul\":12438:12447   */\n      dup3\n        /* \"#utility.yul\":12434:12453   */\n      add\n        /* \"#utility.yul\":12426:12453   */\n      swap1\n      pop\n        /* \"#utility.yul\":12463:12582   */\n      tag_658\n        /* \"#utility.yul\":12579:12580   */\n      0x00\n        /* \"#utility.yul\":12568:12577   */\n      dup4\n        /* \"#utility.yul\":12564:12581   */\n      add\n        /* \"#utility.yul\":12555:12561   */\n      dup5\n        /* \"#utility.yul\":12463:12582   */\n      tag_469\n      jump\t// in\n    tag_658:\n        /* \"#utility.yul\":12270:12589   */\n      swap3\n      swap2\n      pop\n      pop\n      jump\t// out\n        /* \"#utility.yul\":12595:13214   */\n    tag_60:\n        /* \"#utility.yul\":12672:12678   */\n      0x00\n        /* \"#utility.yul\":12680:12686   */\n      0x00\n        /* \"#utility.yul\":12688:12694   */\n      0x00\n        /* \"#utility.yul\":12737:12739   */\n      0x60\n        /* \"#utility.yul\":12725:12734   */\n      dup5\n        /* \"#utility.yul\":12716:12723   */\n      dup7\n        /* \"#utility.yul\":12712:12735   */\n      sub\n        /* \"#utility.yul\":12708:12740   */\n      slt\n        /* \"#utility.yul\":12705:12824   */\n      iszero\n      tag_660\n      jumpi\n        /* \"#utility.yul\":12743:12822   */\n      tag_661\n      tag_444\n      jump\t// in\n    tag_661:\n        /* \"#utility.yul\":12705:12824   */\n    tag_660:\n        /* \"#utility.yul\":12863:12864   */\n      0x00\n        /* \"#utility.yul\":12888:12941   */\n      tag_662\n        /* \"#utility.yul\":12933:12940   */\n      dup7\n        /* \"#utility.yul\":12924:12930   */\n      dup3\n        /* \"#utility.yul\":12913:12922   */\n      dup8\n        /* \"#utility.yul\":12909:12931   */\n      add\n        /* \"#utility.yul\":12888:12941   */\n      tag_447\n      jump\t// in\n    tag_662:\n        /* \"#utility.yul\":12878:12941   */\n      swap4\n      pop\n        /* \"#utility.yul\":12834:12951   */\n      pop\n        /* \"#utility.yul\":12990:12992   */\n      0x20\n        /* \"#utility.yul\":13016:13069   */\n      tag_663\n        /* \"#utility.yul\":13061:13068   */\n      dup7\n        /* \"#utility.yul\":13052:13058   */\n      dup3\n        /* \"#utility.yul\":13041:13050   */\n      dup8\n        /* \"#utility.yul\":13037:13059   */\n      add\n        /* \"#utility.yul\":13016:13069   */\n      tag_447\n      jump\t// in\n    tag_663:\n        /* \"#utility.yul\":13006:13069   */\n      swap3\n      pop\n        /* \"#utility.yul\":12961:13079   */\n      pop\n        /* \"#utility.yul\":13118:13120   */\n      0x40\n        /* \"#utility.yul\":13144:13197   */\n      tag_664\n        /* \"#utility.yul\":13189:13196   */\n      dup7\n        /* \"#utility.yul\":13180:13186   */\n      dup3\n        /* \"#utility.yul\":13169:13178   */\n      dup8\n        /* \"#utility.yul\":13165:13187   */\n      add\n        /* \"#utility.yul\":13144:13197   */\n      tag_447\n      jump\t// in\n    tag_664:\n        /* \"#utility.yul\":13134:13197   */\n      swap2\n      pop\n        /* \"#utility.yul\":13089:13207   */\n      pop\n        /* \"#utility.yul\":12595:13214   */\n      swap3\n      pop\n      swap3\n      pop\n      swap3\n      jump\t// out\n        /* \"#utility.yul\":13220:13334   */\n    tag_470:\n        /* \"#utility.yul\":13287:13293   */\n      0x00\n        /* \"#utility.yul\":13321:13326   */\n      dup2\n        /* \"#utility.yul\":13315:13327   */\n      mload\n        /* \"#utility.yul\":13305:13327   */\n      swap1\n      pop\n        /* \"#utility.yul\":13220:13334   */\n      swap2\n      swap1\n      pop\n      jump\t// out\n        /* \"#utility.yul\":13340:13524   */\n    tag_471:\n        /* \"#utility.yul\":13439:13450   */\n      0x00\n        /* \"#utility.yul\":13473:13479   */\n      dup3\n        /* \"#utility.yul\":13468:13471   */\n      dup3\n        /* \"#utility.yul\":13461:13480   */\n      mstore\n        /* \"#utility.yul\":13513:13517   */\n      0x20\n        /* \"#utility.yul\":13508:13511   */\n      dup3\n        /* \"#utility.yul\":13504:13518   */\n      add\n        /* \"#utility.yul\":13489:13518   */\n      swap1\n      pop\n        /* \"#utility.yul\":13340:13524   */\n      swap3\n      swap2\n      pop\n      pop\n      jump\t// out\n        /* \"#utility.yul\":13530:13662   */\n    tag_472:\n        /* \"#utility.yul\":13597:13601   */\n      0x00\n        /* \"#utility.yul\":13620:13623   */\n      dup2\n        /* \"#utility.yul\":13612:13623   */\n      swap1\n      pop\n        /* \"#utility.yul\":13650:13654   */\n      0x20\n        /* \"#utility.yul\":13645:13648   */\n      dup3\n        /* \"#utility.yul\":13641:13655   */\n      add\n        /* \"#utility.yul\":13633:13655   */\n      swap1\n      pop\n        /* \"#utility.yul\":13530:13662   */\n      swap2\n      swap1\n      pop\n      jump\t// out\n        /* \"#utility.yul\":13668:13847   */\n    tag_473:\n        /* \"#utility.yul\":13737:13747   */\n      0x00\n        /* \"#utility.yul\":13758:13804   */\n      tag_669\n        /* \"#utility.yul\":13800:13803   */\n      dup4\n        /* \"#utility.yul\":13792:13798   */\n      dup4\n        /* \"#utility.yul\":13758:13804   */\n      tag_456\n      jump\t// in\n    tag_669:\n        /* \"#utility.yul\":13836:13840   */\n      0x20\n        /* \"#utility.yul\":13831:13834   */\n      dup4\n        /* \"#utility.yul\":13827:13841   */\n      add\n        /* \"#utility.yul\":13813:13841   */\n      swap1\n      pop\n        /* \"#utility.yul\":13668:13847   */\n      swap3\n      swap2\n      pop\n      pop\n      jump\t// out\n        /* \"#utility.yul\":13853:13966   */\n    tag_474:\n        /* \"#utility.yul\":13923:13927   */\n      0x00\n        /* \"#utility.yul\":13955:13959   */\n      0x20\n        /* \"#utility.yul\":13950:13953   */\n      dup3\n        /* \"#utility.yul\":13946:13960   */\n      add\n        /* \"#utility.yul\":13938:13960   */\n      swap1\n      pop\n        /* \"#utility.yul\":13853:13966   */\n      swap2\n      swap1\n      pop\n      jump\t// out\n        /* \"#utility.yul\":14002:14734   */\n    tag_475:\n        /* \"#utility.yul\":14121:14124   */\n      0x00\n        /* \"#utility.yul\":14150:14204   */\n      tag_672\n        /* \"#utility.yul\":14198:14203   */\n      dup3\n        /* \"#utility.yul\":14150:14204   */\n      tag_470\n      jump\t// in\n    tag_672:\n        /* \"#utility.yul\":14220:14306   */\n      tag_673\n        /* \"#utility.yul\":14299:14305   */\n      dup2\n        /* \"#utility.yul\":14294:14297   */\n      dup6\n        /* \"#utility.yul\":14220:14306   */\n      tag_471\n      jump\t// in\n    tag_673:\n        /* \"#utility.yul\":14213:14306   */\n      swap4\n      pop\n        /* \"#utility.yul\":14330:14386   */\n      tag_674\n        /* \"#utility.yul\":14380:14385   */\n      dup4\n        /* \"#utility.yul\":14330:14386   */\n      tag_472\n      jump\t// in\n    tag_674:\n        /* \"#utility.yul\":14409:14416   */\n      dup1\n        /* \"#utility.yul\":14440:14441   */\n      0x00\n        /* \"#utility.yul\":14425:14709   */\n    tag_675:\n        /* \"#utility.yul\":14450:14456   */\n      dup4\n        /* \"#utility.yul\":14447:14448   */\n      dup2\n        /* \"#utility.yul\":14444:14457   */\n      lt\n        /* \"#utility.yul\":14425:14709   */\n      iszero\n      tag_677\n      jumpi\n        /* \"#utility.yul\":14526:14532   */\n      dup2\n        /* \"#utility.yul\":14520:14533   */\n      mload\n        /* \"#utility.yul\":14553:14616   */\n      tag_678\n        /* \"#utility.yul\":14612:14615   */\n      dup9\n        /* \"#utility.yul\":14597:14610   */\n      dup3\n        /* \"#utility.yul\":14553:14616   */\n      tag_473\n      jump\t// in\n    tag_678:\n        /* \"#utility.yul\":14546:14616   */\n      swap8\n      pop\n        /* \"#utility.yul\":14639:14699   */\n      tag_679\n        /* \"#utility.yul\":14692:14698   */\n      dup4\n        /* \"#utility.yul\":14639:14699   */\n      tag_474\n      jump\t// in\n    tag_679:\n        /* \"#utility.yul\":14629:14699   */\n      swap3\n      pop\n        /* \"#utility.yul\":14485:14709   */\n      pop\n        /* \"#utility.yul\":14472:14473   */\n      0x01\n        /* \"#utility.yul\":14469:14470   */\n      dup2\n        /* \"#utility.yul\":14465:14474   */\n      add\n        /* \"#utility.yul\":14460:14474   */\n      swap1\n      pop\n        /* \"#utility.yul\":14425:14709   */\n      jump(tag_675)\n    tag_677:\n        /* \"#utility.yul\":14429:14443   */\n      pop\n        /* \"#utility.yul\":14725:14728   */\n      dup6\n        /* \"#utility.yul\":14718:14728   */\n      swap4\n      pop\n        /* \"#utility.yul\":14126:14734   */\n      pop\n      pop\n      pop\n        /* \"#utility.yul\":14002:14734   */\n      swap3\n      swap2\n      pop\n      pop\n      jump\t// out\n        /* \"#utility.yul\":14740:15113   */\n    tag_68:\n        /* \"#utility.yul\":14883:14887   */\n      0x00\n        /* \"#utility.yul\":14921:14923   */\n      0x20\n        /* \"#utility.yul\":14910:14919   */\n      dup3\n        /* \"#utility.yul\":14906:14924   */\n      add\n        /* \"#utility.yul\":14898:14924   */\n      swap1\n      pop\n        /* \"#utility.yul\":14970:14979   */\n      dup2\n        /* \"#utility.yul\":14964:14968   */\n      dup2\n        /* \"#utility.yul\":14960:14980   */\n      sub\n        /* \"#utility.yul\":14956:14957   */\n      0x00\n        /* \"#utility.yul\":14945:14954   */\n      dup4\n        /* \"#utility.yul\":14941:14958   */\n      add\n        /* \"#utility.yul\":14934:14981   */\n      mstore\n        /* \"#utility.yul\":14998:15106   */\n      tag_681\n        /* \"#utility.yul\":15101:15105   */\n      dup2\n        /* \"#utility.yul\":15092:15098   */\n      dup5\n        /* \"#utility.yul\":14998:15106   */\n      tag_475\n      jump\t// in\n    tag_681:\n        /* \"#utility.yul\":14990:15106   */\n      swap1\n      pop\n        /* \"#utility.yul\":14740:15113   */\n      swap3\n      swap2\n      pop\n      pop\n      jump\t// out\n        /* \"#utility.yul\":15119:15209   */\n    tag_476:\n        /* \"#utility.yul\":15153:15160   */\n      0x00\n        /* \"#utility.yul\":15196:15201   */\n      dup2\n        /* \"#utility.yul\":15189:15202   */\n      iszero\n        /* \"#utility.yul\":15182:15203   */\n      iszero\n        /* \"#utility.yul\":15171:15203   */\n      swap1\n      pop\n        /* \"#utility.yul\":15119:15209   */\n      swap2\n      swap1\n      pop\n      jump\t// out\n        /* \"#utility.yul\":15215:15324   */\n    tag_477:\n        /* \"#utility.yul\":15296:15317   */\n      tag_684\n        /* \"#utility.yul\":15311:15316   */\n      dup2\n        /* \"#utility.yul\":15296:15317   */\n      tag_476\n      jump\t// in\n    tag_684:\n        /* \"#utility.yul\":15291:15294   */\n      dup3\n        /* \"#utility.yul\":15284:15318   */\n      mstore\n        /* \"#utility.yul\":15215:15324   */\n      pop\n      pop\n      jump\t// out\n        /* \"#utility.yul\":15330:15540   */\n    tag_77:\n        /* \"#utility.yul\":15417:15421   */\n      0x00\n        /* \"#utility.yul\":15455:15457   */\n      0x20\n        /* \"#utility.yul\":15444:15453   */\n      dup3\n        /* \"#utility.yul\":15440:15458   */\n      add\n        /* \"#utility.yul\":15432:15458   */\n      swap1\n      pop\n        /* \"#utility.yul\":15468:15533   */\n      tag_686\n        /* \"#utility.yul\":15530:15531   */\n      0x00\n        /* \"#utility.yul\":15519:15528   */\n      dup4\n        /* \"#utility.yul\":15515:15532   */\n      add\n        /* \"#utility.yul\":15506:15512   */\n      dup5\n        /* \"#utility.yul\":15468:15533   */\n      tag_477\n      jump\t// in\n    tag_686:\n        /* \"#utility.yul\":15330:15540   */\n      swap3\n      swap2\n      pop\n      pop\n      jump\t// out\n        /* \"#utility.yul\":15546:15689   */\n    tag_478:\n        /* \"#utility.yul\":15603:15608   */\n      0x00\n        /* \"#utility.yul\":15634:15640   */\n      dup2\n        /* \"#utility.yul\":15628:15641   */\n      mload\n        /* \"#utility.yul\":15619:15641   */\n      swap1\n      pop\n        /* \"#utility.yul\":15650:15683   */\n      tag_688\n        /* \"#utility.yul\":15677:15682   */\n      dup2\n        /* \"#utility.yul\":15650:15683   */\n      tag_454\n      jump\t// in\n    tag_688:\n        /* \"#utility.yul\":15546:15689   */\n      swap3\n      swap2\n      pop\n      pop\n      jump\t// out\n        /* \"#utility.yul\":15695:16046   */\n    tag_90:\n        /* \"#utility.yul\":15765:15771   */\n      0x00\n        /* \"#utility.yul\":15814:15816   */\n      0x20\n        /* \"#utility.yul\":15802:15811   */\n      dup3\n        /* \"#utility.yul\":15793:15800   */\n      dup5\n        /* \"#utility.yul\":15789:15812   */\n      sub\n        /* \"#utility.yul\":15785:15817   */\n      slt\n        /* \"#utility.yul\":15782:15901   */\n      iszero\n      tag_690\n      jumpi\n        /* \"#utility.yul\":15820:15899   */\n      tag_691\n      tag_444\n      jump\t// in\n    tag_691:\n        /* \"#utility.yul\":15782:15901   */\n    tag_690:\n        /* \"#utility.yul\":15940:15941   */\n      0x00\n        /* \"#utility.yul\":15965:16029   */\n      tag_692\n        /* \"#utility.yul\":16021:16028   */\n      dup5\n        /* \"#utility.yul\":16012:16018   */\n      dup3\n        /* \"#utility.yul\":16001:16010   */\n      dup6\n        /* \"#utility.yul\":15997:16019   */\n      add\n        /* \"#utility.yul\":15965:16029   */\n      tag_478\n      jump\t// in\n    tag_692:\n        /* \"#utility.yul\":15955:16029   */\n      swap2\n      pop\n        /* \"#utility.yul\":15911:16039   */\n      pop\n        /* \"#utility.yul\":15695:16046   */\n      swap3\n      swap2\n      pop\n      pop\n      jump\t// out\n        /* \"#utility.yul\":16052:16220   */\n    tag_479:\n        /* \"#utility.yul\":16192:16212   */\n      0x50656e73696f6e2041646d696e204f6e6c790000000000000000000000000000\n        /* \"#utility.yul\":16188:16189   */\n      0x00\n        /* \"#utility.yul\":16180:16186   */\n      dup3\n        /* \"#utility.yul\":16176:16190   */\n      add\n        /* \"#utility.yul\":16169:16213   */\n      mstore\n        /* \"#utility.yul\":16052:16220   */\n      pop\n      jump\t// out\n        /* \"#utility.yul\":16226:16592   */\n    tag_480:\n        /* \"#utility.yul\":16368:16371   */\n      0x00\n        /* \"#utility.yul\":16389:16456   */\n      tag_695\n        /* \"#utility.yul\":16453:16455   */\n      0x12\n        /* \"#utility.yul\":16448:16451   */\n      dup4\n        /* \"#utility.yul\":16389:16456   */\n      tag_439\n      jump\t// in\n    tag_695:\n        /* \"#utility.yul\":16382:16456   */\n      swap2\n      pop\n        /* \"#utility.yul\":16465:16558   */\n      tag_696\n        /* \"#utility.yul\":16554:16557   */\n      dup3\n        /* \"#utility.yul\":16465:16558   */\n      tag_479\n      jump\t// in\n    tag_696:\n        /* \"#utility.yul\":16583:16585   */\n      0x20\n        /* \"#utility.yul\":16578:16581   */\n      dup3\n        /* \"#utility.yul\":16574:16586   */\n      add\n        /* \"#utility.yul\":16567:16586   */\n      swap1\n      pop\n        /* \"#utility.yul\":16226:16592   */\n      swap2\n      swap1\n      pop\n      jump\t// out\n        /* \"#utility.yul\":16598:17017   */\n    tag_93:\n        /* \"#utility.yul\":16764:16768   */\n      0x00\n        /* \"#utility.yul\":16802:16804   */\n      0x20\n        /* \"#utility.yul\":16791:16800   */\n      dup3\n        /* \"#utility.yul\":16787:16805   */\n      add\n        /* \"#utility.yul\":16779:16805   */\n      swap1\n      pop\n        /* \"#utility.yul\":16851:16860   */\n      dup2\n        /* \"#utility.yul\":16845:16849   */\n      dup2\n        /* \"#utility.yul\":16841:16861   */\n      sub\n        /* \"#utility.yul\":16837:16838   */\n      0x00\n        /* \"#utility.yul\":16826:16835   */\n      dup4\n        /* \"#utility.yul\":16822:16839   */\n      add\n        /* \"#utility.yul\":16815:16862   */\n      mstore\n        /* \"#utility.yul\":16879:17010   */\n      tag_698\n        /* \"#utility.yul\":17005:17009   */\n      dup2\n        /* \"#utility.yul\":16879:17010   */\n      tag_480\n      jump\t// in\n    tag_698:\n        /* \"#utility.yul\":16871:17010   */\n      swap1\n      pop\n        /* \"#utility.yul\":16598:17017   */\n      swap2\n      swap1\n      pop\n      jump\t// out\n        /* \"#utility.yul\":17023:17185   */\n    tag_481:\n        /* \"#utility.yul\":17163:17177   */\n      0x7661756c74206c6f636b65640000000000000000000000000000000000000000\n        /* \"#utility.yul\":17159:17160   */\n      0x00\n        /* \"#utility.yul\":17151:17157   */\n      dup3\n        /* \"#utility.yul\":17147:17161   */\n      add\n        /* \"#utility.yul\":17140:17178   */\n      mstore\n        /* \"#utility.yul\":17023:17185   */\n      pop\n      jump\t// out\n        /* \"#utility.yul\":17191:17557   */\n    tag_482:\n        /* \"#utility.yul\":17333:17336   */\n      0x00\n        /* \"#utility.yul\":17354:17421   */\n      tag_701\n        /* \"#utility.yul\":17418:17420   */\n      0x0c\n        /* \"#utility.yul\":17413:17416   */\n      dup4\n        /* \"#utility.yul\":17354:17421   */\n      tag_439\n      jump\t// in\n    tag_701:\n        /* \"#utility.yul\":17347:17421   */\n      swap2\n      pop\n        /* \"#utility.yul\":17430:17523   */\n      tag_702\n        /* \"#utility.yul\":17519:17522   */\n      dup3\n        /* \"#utility.yul\":17430:17523   */\n      tag_481\n      jump\t// in\n    tag_702:\n        /* \"#utility.yul\":17548:17550   */\n      0x20\n        /* \"#utility.yul\":17543:17546   */\n      dup3\n        /* \"#utility.yul\":17539:17551   */\n      add\n        /* \"#utility.yul\":17532:17551   */\n      swap1\n      pop\n        /* \"#utility.yul\":17191:17557   */\n      swap2\n      swap1\n      pop\n      jump\t// out\n        /* \"#utility.yul\":17563:17982   */\n    tag_97:\n        /* \"#utility.yul\":17729:17733   */\n      0x00\n        /* \"#utility.yul\":17767:17769   */\n      0x20\n        /* \"#utility.yul\":17756:17765   */\n      dup3\n        /* \"#utility.yul\":17752:17770   */\n      add\n        /* \"#utility.yul\":17744:17770   */\n      swap1\n      pop\n        /* \"#utility.yul\":17816:17825   */\n      dup2\n        /* \"#utility.yul\":17810:17814   */\n      dup2\n        /* \"#utility.yul\":17806:17826   */\n      sub\n        /* \"#utility.yul\":17802:17803   */\n      0x00\n        /* \"#utility.yul\":17791:17800   */\n      dup4\n        /* \"#utility.yul\":17787:17804   */\n      add\n        /* \"#utility.yul\":17780:17827   */\n      mstore\n        /* \"#utility.yul\":17844:17975   */\n      tag_704\n        /* \"#utility.yul\":17970:17974   */\n      dup2\n        /* \"#utility.yul\":17844:17975   */\n      tag_482\n      jump\t// in\n    tag_704:\n        /* \"#utility.yul\":17836:17975   */\n      swap1\n      pop\n        /* \"#utility.yul\":17563:17982   */\n      swap2\n      swap1\n      pop\n      jump\t// out\n        /* \"#utility.yul\":17988:18150   */\n    tag_483:\n        /* \"#utility.yul\":18128:18142   */\n      0x7661756c7420636c6f7365640000000000000000000000000000000000000000\n        /* \"#utility.yul\":18124:18125   */\n      0x00\n        /* \"#utility.yul\":18116:18122   */\n      dup3\n        /* \"#utility.yul\":18112:18126   */\n      add\n        /* \"#utility.yul\":18105:18143   */\n      mstore\n        /* \"#utility.yul\":17988:18150   */\n      pop\n      jump\t// out\n        /* \"#utility.yul\":18156:18522   */\n    tag_484:\n        /* \"#utility.yul\":18298:18301   */\n      0x00\n        /* \"#utility.yul\":18319:18386   */\n      tag_707\n        /* \"#utility.yul\":18383:18385   */\n      0x0c\n        /* \"#utility.yul\":18378:18381   */\n      dup4\n        /* \"#utility.yul\":18319:18386   */\n      tag_439\n      jump\t// in\n    tag_707:\n        /* \"#utility.yul\":18312:18386   */\n      swap2\n      pop\n        /* \"#utility.yul\":18395:18488   */\n      tag_708\n        /* \"#utility.yul\":18484:18487   */\n      dup3\n        /* \"#utility.yul\":18395:18488   */\n      tag_483\n      jump\t// in\n    tag_708:\n        /* \"#utility.yul\":18513:18515   */\n      0x20\n        /* \"#utility.yul\":18508:18511   */\n      dup3\n        /* \"#utility.yul\":18504:18516   */\n      add\n        /* \"#utility.yul\":18497:18516   */\n      swap1\n      pop\n        /* \"#utility.yul\":18156:18522   */\n      swap2\n      swap1\n      pop\n      jump\t// out\n        /* \"#utility.yul\":18528:18947   */\n    tag_105:\n        /* \"#utility.yul\":18694:18698   */\n      0x00\n        /* \"#utility.yul\":18732:18734   */\n      0x20\n        /* \"#utility.yul\":18721:18730   */\n      dup3\n        /* \"#utility.yul\":18717:18735   */\n      add\n        /* \"#utility.yul\":18709:18735   */\n      swap1\n      pop\n        /* \"#utility.yul\":18781:18790   */\n      dup2\n        /* \"#utility.yul\":18775:18779   */\n      dup2\n        /* \"#utility.yul\":18771:18791   */\n      sub\n        /* \"#utility.yul\":18767:18768   */\n      0x00\n        /* \"#utility.yul\":18756:18765   */\n      dup4\n        /* \"#utility.yul\":18752:18769   */\n      add\n        /* \"#utility.yul\":18745:18792   */\n      mstore\n        /* \"#utility.yul\":18809:18940   */\n      tag_710\n        /* \"#utility.yul\":18935:18939   */\n      dup2\n        /* \"#utility.yul\":18809:18940   */\n      tag_484\n      jump\t// in\n    tag_710:\n        /* \"#utility.yul\":18801:18940   */\n      swap1\n      pop\n        /* \"#utility.yul\":18528:18947   */\n      swap2\n      swap1\n      pop\n      jump\t// out\n        /* \"#utility.yul\":18953:19117   */\n    tag_485:\n        /* \"#utility.yul\":19093:19109   */\n      0x70656e73696f6e20636c6f736564000000000000000000000000000000000000\n        /* \"#utility.yul\":19089:19090   */\n      0x00\n        /* \"#utility.yul\":19081:19087   */\n      dup3\n        /* \"#utility.yul\":19077:19091   */\n      add\n        /* \"#utility.yul\":19070:19110   */\n      mstore\n        /* \"#utility.yul\":18953:19117   */\n      pop\n      jump\t// out\n        /* \"#utility.yul\":19123:19489   */\n    tag_486:\n        /* \"#utility.yul\":19265:19268   */\n      0x00\n        /* \"#utility.yul\":19286:19353   */\n      tag_713\n        /* \"#utility.yul\":19350:19352   */\n      0x0e\n        /* \"#utility.yul\":19345:19348   */\n      dup4\n        /* \"#utility.yul\":19286:19353   */\n      tag_439\n      jump\t// in\n    tag_713:\n        /* \"#utility.yul\":19279:19353   */\n      swap2\n      pop\n        /* \"#utility.yul\":19362:19455   */\n      tag_714\n        /* \"#utility.yul\":19451:19454   */\n      dup3\n        /* \"#utility.yul\":19362:19455   */\n      tag_485\n      jump\t// in\n    tag_714:\n        /* \"#utility.yul\":19480:19482   */\n      0x20\n        /* \"#utility.yul\":19475:19478   */\n      dup3\n        /* \"#utility.yul\":19471:19483   */\n      add\n        /* \"#utility.yul\":19464:19483   */\n      swap1\n      pop\n        /* \"#utility.yul\":19123:19489   */\n      swap2\n      swap1\n      pop\n      jump\t// out\n        /* \"#utility.yul\":19495:19914   */\n    tag_115:\n        /* \"#utility.yul\":19661:19665   */\n      0x00\n        /* \"#utility.yul\":19699:19701   */\n      0x20\n        /* \"#utility.yul\":19688:19697   */\n      dup3\n        /* \"#utility.yul\":19684:19702   */\n      add\n        /* \"#utility.yul\":19676:19702   */\n      swap1\n      pop\n        /* \"#utility.yul\":19748:19757   */\n      dup2\n        /* \"#utility.yul\":19742:19746   */\n      dup2\n        /* \"#utility.yul\":19738:19758   */\n      sub\n        /* \"#utility.yul\":19734:19735   */\n      0x00\n        /* \"#utility.yul\":19723:19732   */\n      dup4\n        /* \"#utility.yul\":19719:19736   */\n      add\n        /* \"#utility.yul\":19712:19759   */\n      mstore\n        /* \"#utility.yul\":19776:19907   */\n      tag_716\n        /* \"#utility.yul\":19902:19906   */\n      dup2\n        /* \"#utility.yul\":19776:19907   */\n      tag_486\n      jump\t// in\n    tag_716:\n        /* \"#utility.yul\":19768:19907   */\n      swap1\n      pop\n        /* \"#utility.yul\":19495:19914   */\n      swap2\n      swap1\n      pop\n      jump\t// out\n        /* \"#utility.yul\":19920:20089   */\n    tag_487:\n        /* \"#utility.yul\":20060:20081   */\n      0x70656e73696f6e20696e20747265617375727900000000000000000000000000\n        /* \"#utility.yul\":20056:20057   */\n      0x00\n        /* \"#utility.yul\":20048:20054   */\n      dup3\n        /* \"#utility.yul\":20044:20058   */\n      add\n        /* \"#utility.yul\":20037:20082   */\n      mstore\n        /* \"#utility.yul\":19920:20089   */\n      pop\n      jump\t// out\n        /* \"#utility.yul\":20095:20461   */\n    tag_488:\n        /* \"#utility.yul\":20237:20240   */\n      0x00\n        /* \"#utility.yul\":20258:20325   */\n      tag_719\n        /* \"#utility.yul\":20322:20324   */\n      0x13\n        /* \"#utility.yul\":20317:20320   */\n      dup4\n        /* \"#utility.yul\":20258:20325   */\n      tag_439\n      jump\t// in\n    tag_719:\n        /* \"#utility.yul\":20251:20325   */\n      swap2\n      pop\n        /* \"#utility.yul\":20334:20427   */\n      tag_720\n        /* \"#utility.yul\":20423:20426   */\n      dup3\n        /* \"#utility.yul\":20334:20427   */\n      tag_487\n      jump\t// in\n    tag_720:\n        /* \"#utility.yul\":20452:20454   */\n      0x20\n        /* \"#utility.yul\":20447:20450   */\n      dup3\n        /* \"#utility.yul\":20443:20455   */\n      add\n        /* \"#utility.yul\":20436:20455   */\n      swap1\n      pop\n        /* \"#utility.yul\":20095:20461   */\n      swap2\n      swap1\n      pop\n      jump\t// out\n        /* \"#utility.yul\":20467:20886   */\n    tag_118:\n        /* \"#utility.yul\":20633:20637   */\n      0x00\n        /* \"#utility.yul\":20671:20673   */\n      0x20\n        /* \"#utility.yul\":20660:20669   */\n      dup3\n        /* \"#utility.yul\":20656:20674   */\n      add\n        /* \"#utility.yul\":20648:20674   */\n      swap1\n      pop\n        /* \"#utility.yul\":20720:20729   */\n      dup2\n        /* \"#utility.yul\":20714:20718   */\n      dup2\n        /* \"#utility.yul\":20710:20730   */\n      sub\n        /* \"#utility.yul\":20706:20707   */\n      0x00\n        /* \"#utility.yul\":20695:20704   */\n      dup4\n        /* \"#utility.yul\":20691:20708   */\n      add\n        /* \"#utility.yul\":20684:20731   */\n      mstore\n        /* \"#utility.yul\":20748:20879   */\n      tag_722\n        /* \"#utility.yul\":20874:20878   */\n      dup2\n        /* \"#utility.yul\":20748:20879   */\n      tag_488\n      jump\t// in\n    tag_722:\n        /* \"#utility.yul\":20740:20879   */\n      swap1\n      pop\n        /* \"#utility.yul\":20467:20886   */\n      swap2\n      swap1\n      pop\n      jump\t// out\n        /* \"#utility.yul\":20892:21010   */\n    tag_489:\n        /* \"#utility.yul\":20979:21003   */\n      tag_724\n        /* \"#utility.yul\":20997:21002   */\n      dup2\n        /* \"#utility.yul\":20979:21003   */\n      tag_453\n      jump\t// in\n    tag_724:\n        /* \"#utility.yul\":20974:20977   */\n      dup3\n        /* \"#utility.yul\":20967:21004   */\n      mstore\n        /* \"#utility.yul\":20892:21010   */\n      pop\n      pop\n      jump\t// out\n        /* \"#utility.yul\":21016:21238   */\n    tag_126:\n        /* \"#utility.yul\":21109:21113   */\n      0x00\n        /* \"#utility.yul\":21147:21149   */\n      0x20\n        /* \"#utility.yul\":21136:21145   */\n      dup3\n        /* \"#utility.yul\":21132:21150   */\n      add\n        /* \"#utility.yul\":21124:21150   */\n      swap1\n      pop\n        /* \"#utility.yul\":21160:21231   */\n      tag_726\n        /* \"#utility.yul\":21228:21229   */\n      0x00\n        /* \"#utility.yul\":21217:21226   */\n      dup4\n        /* \"#utility.yul\":21213:21230   */\n      add\n        /* \"#utility.yul\":21204:21210   */\n      dup5\n        /* \"#utility.yul\":21160:21231   */\n      tag_489\n      jump\t// in\n    tag_726:\n        /* \"#utility.yul\":21016:21238   */\n      swap3\n      swap2\n      pop\n      pop\n      jump\t// out\n        /* \"#utility.yul\":21244:21387   */\n    tag_490:\n        /* \"#utility.yul\":21301:21306   */\n      0x00\n        /* \"#utility.yul\":21332:21338   */\n      dup2\n        /* \"#utility.yul\":21326:21339   */\n      mload\n        /* \"#utility.yul\":21317:21339   */\n      swap1\n      pop\n        /* \"#utility.yul\":21348:21381   */\n      tag_728\n        /* \"#utility.yul\":21375:21380   */\n      dup2\n        /* \"#utility.yul\":21348:21381   */\n      tag_446\n      jump\t// in\n    tag_728:\n        /* \"#utility.yul\":21244:21387   */\n      swap3\n      swap2\n      pop\n      pop\n      jump\t// out\n        /* \"#utility.yul\":21393:21744   */\n    tag_130:\n        /* \"#utility.yul\":21463:21469   */\n      0x00\n        /* \"#utility.yul\":21512:21514   */\n      0x20\n        /* \"#utility.yul\":21500:21509   */\n      dup3\n        /* \"#utility.yul\":21491:21498   */\n      dup5\n        /* \"#utility.yul\":21487:21510   */\n      sub\n        /* \"#utility.yul\":21483:21515   */\n      slt\n        /* \"#utility.yul\":21480:21599   */\n      iszero\n      tag_730\n      jumpi\n        /* \"#utility.yul\":21518:21597   */\n      tag_731\n      tag_444\n      jump\t// in\n    tag_731:\n        /* \"#utility.yul\":21480:21599   */\n    tag_730:\n        /* \"#utility.yul\":21638:21639   */\n      0x00\n        /* \"#utility.yul\":21663:21727   */\n      tag_732\n        /* \"#utility.yul\":21719:21726   */\n      dup5\n        /* \"#utility.yul\":21710:21716   */\n      dup3\n        /* \"#utility.yul\":21699:21708   */\n      dup6\n        /* \"#utility.yul\":21695:21717   */\n      add\n        /* \"#utility.yul\":21663:21727   */\n      tag_490\n      jump\t// in\n    tag_732:\n        /* \"#utility.yul\":21653:21727   */\n      swap2\n      pop\n        /* \"#utility.yul\":21609:21737   */\n      pop\n        /* \"#utility.yul\":21393:21744   */\n      swap3\n      swap2\n      pop\n      pop\n      jump\t// out\n        /* \"#utility.yul\":21750:22082   */\n    tag_132:\n        /* \"#utility.yul\":21871:21875   */\n      0x00\n        /* \"#utility.yul\":21909:21911   */\n      0x40\n        /* \"#utility.yul\":21898:21907   */\n      dup3\n        /* \"#utility.yul\":21894:21912   */\n      add\n        /* \"#utility.yul\":21886:21912   */\n      swap1\n      pop\n        /* \"#utility.yul\":21922:21993   */\n      tag_734\n        /* \"#utility.yul\":21990:21991   */\n      0x00\n        /* \"#utility.yul\":21979:21988   */\n      dup4\n        /* \"#utility.yul\":21975:21992   */\n      add\n        /* \"#utility.yul\":21966:21972   */\n      dup6\n        /* \"#utility.yul\":21922:21993   */\n      tag_489\n      jump\t// in\n    tag_734:\n        /* \"#utility.yul\":22003:22075   */\n      tag_735\n        /* \"#utility.yul\":22071:22073   */\n      0x20\n        /* \"#utility.yul\":22060:22069   */\n      dup4\n        /* \"#utility.yul\":22056:22074   */\n      add\n        /* \"#utility.yul\":22047:22053   */\n      dup5\n        /* \"#utility.yul\":22003:22075   */\n      tag_437\n      jump\t// in\n    tag_735:\n        /* \"#utility.yul\":21750:22082   */\n      swap4\n      swap3\n      pop\n      pop\n      pop\n      jump\t// out\n        /* \"#utility.yul\":22088:22204   */\n    tag_491:\n        /* \"#utility.yul\":22158:22179   */\n      tag_737\n        /* \"#utility.yul\":22173:22178   */\n      dup2\n        /* \"#utility.yul\":22158:22179   */\n      tag_476\n      jump\t// in\n    tag_737:\n        /* \"#utility.yul\":22151:22156   */\n      dup2\n        /* \"#utility.yul\":22148:22180   */\n      eq\n        /* \"#utility.yul\":22138:22198   */\n      tag_738\n      jumpi\n        /* \"#utility.yul\":22194:22195   */\n      0x00\n        /* \"#utility.yul\":22191:22192   */\n      0x00\n        /* \"#utility.yul\":22184:22196   */\n      revert\n        /* \"#utility.yul\":22138:22198   */\n    tag_738:\n        /* \"#utility.yul\":22088:22204   */\n      pop\n      jump\t// out\n        /* \"#utility.yul\":22210:22347   */\n    tag_492:\n        /* \"#utility.yul\":22264:22269   */\n      0x00\n        /* \"#utility.yul\":22295:22301   */\n      dup2\n        /* \"#utility.yul\":22289:22302   */\n      mload\n        /* \"#utility.yul\":22280:22302   */\n      swap1\n      pop\n        /* \"#utility.yul\":22311:22341   */\n      tag_740\n        /* \"#utility.yul\":22335:22340   */\n      dup2\n        /* \"#utility.yul\":22311:22341   */\n      tag_491\n      jump\t// in\n    tag_740:\n        /* \"#utility.yul\":22210:22347   */\n      swap3\n      swap2\n      pop\n      pop\n      jump\t// out\n        /* \"#utility.yul\":22353:22698   */\n    tag_136:\n        /* \"#utility.yul\":22420:22426   */\n      0x00\n        /* \"#utility.yul\":22469:22471   */\n      0x20\n        /* \"#utility.yul\":22457:22466   */\n      dup3\n        /* \"#utility.yul\":22448:22455   */\n      dup5\n        /* \"#utility.yul\":22444:22467   */\n      sub\n        /* \"#utility.yul\":22440:22472   */\n      slt\n        /* \"#utility.yul\":22437:22556   */\n      iszero\n      tag_742\n      jumpi\n        /* \"#utility.yul\":22475:22554   */\n      tag_743\n      tag_444\n      jump\t// in\n    tag_743:\n        /* \"#utility.yul\":22437:22556   */\n    tag_742:\n        /* \"#utility.yul\":22595:22596   */\n      0x00\n        /* \"#utility.yul\":22620:22681   */\n      tag_744\n        /* \"#utility.yul\":22673:22680   */\n      dup5\n        /* \"#utility.yul\":22664:22670   */\n      dup3\n        /* \"#utility.yul\":22653:22662   */\n      dup6\n        /* \"#utility.yul\":22649:22671   */\n      add\n        /* \"#utility.yul\":22620:22681   */\n      tag_492\n      jump\t// in\n    tag_744:\n        /* \"#utility.yul\":22610:22681   */\n      swap2\n      pop\n        /* \"#utility.yul\":22566:22691   */\n      pop\n        /* \"#utility.yul\":22353:22698   */\n      swap3\n      swap2\n      pop\n      pop\n      jump\t// out\n        /* \"#utility.yul\":22704:22867   */\n    tag_493:\n        /* \"#utility.yul\":22844:22859   */\n      0x5472656173757279204f6e6c7900000000000000000000000000000000000000\n        /* \"#utility.yul\":22840:22841   */\n      0x00\n        /* \"#utility.yul\":22832:22838   */\n      dup3\n        /* \"#utility.yul\":22828:22842   */\n      add\n        /* \"#utility.yul\":22821:22860   */\n      mstore\n        /* \"#utility.yul\":22704:22867   */\n      pop\n      jump\t// out\n        /* \"#utility.yul\":22873:23239   */\n    tag_494:\n        /* \"#utility.yul\":23015:23018   */\n      0x00\n        /* \"#utility.yul\":23036:23103   */\n      tag_747\n        /* \"#utility.yul\":23100:23102   */\n      0x0d\n        /* \"#utility.yul\":23095:23098   */\n      dup4\n        /* \"#utility.yul\":23036:23103   */\n      tag_439\n      jump\t// in\n    tag_747:\n        /* \"#utility.yul\":23029:23103   */\n      swap2\n      pop\n        /* \"#utility.yul\":23112:23205   */\n      tag_748\n        /* \"#utility.yul\":23201:23204   */\n      dup3\n        /* \"#utility.yul\":23112:23205   */\n      tag_493\n      jump\t// in\n    tag_748:\n        /* \"#utility.yul\":23230:23232   */\n      0x20\n        /* \"#utility.yul\":23225:23228   */\n      dup3\n        /* \"#utility.yul\":23221:23233   */\n      add\n        /* \"#utility.yul\":23214:23233   */\n      swap1\n      pop\n        /* \"#utility.yul\":22873:23239   */\n      swap2\n      swap1\n      pop\n      jump\t// out\n        /* \"#utility.yul\":23245:23664   */\n    tag_155:\n        /* \"#utility.yul\":23411:23415   */\n      0x00\n        /* \"#utility.yul\":23449:23451   */\n      0x20\n        /* \"#utility.yul\":23438:23447   */\n      dup3\n        /* \"#utility.yul\":23434:23452   */\n      add\n        /* \"#utility.yul\":23426:23452   */\n      swap1\n      pop\n        /* \"#utility.yul\":23498:23507   */\n      dup2\n        /* \"#utility.yul\":23492:23496   */\n      dup2\n        /* \"#utility.yul\":23488:23508   */\n      sub\n        /* \"#utility.yul\":23484:23485   */\n      0x00\n        /* \"#utility.yul\":23473:23482   */\n      dup4\n        /* \"#utility.yul\":23469:23486   */\n      add\n        /* \"#utility.yul\":23462:23509   */\n      mstore\n        /* \"#utility.yul\":23526:23657   */\n      tag_750\n        /* \"#utility.yul\":23652:23656   */\n      dup2\n        /* \"#utility.yul\":23526:23657   */\n      tag_494\n      jump\t// in\n    tag_750:\n        /* \"#utility.yul\":23518:23657   */\n      swap1\n      pop\n        /* \"#utility.yul\":23245:23664   */\n      swap2\n      swap1\n      pop\n      jump\t// out\n        /* \"#utility.yul\":23670:23846   */\n    tag_495:\n        /* \"#utility.yul\":23810:23838   */\n      0x696e76616c69642070656e73696f6e2070756c6c207374617465000000000000\n        /* \"#utility.yul\":23806:23807   */\n      0x00\n        /* \"#utility.yul\":23798:23804   */\n      dup3\n        /* \"#utility.yul\":23794:23808   */\n      add\n        /* \"#utility.yul\":23787:23839   */\n      mstore\n        /* \"#utility.yul\":23670:23846   */\n      pop\n      jump\t// out\n        /* \"#utility.yul\":23852:24218   */\n    tag_496:\n        /* \"#utility.yul\":23994:23997   */\n      0x00\n        /* \"#utility.yul\":24015:24082   */\n      tag_753\n        /* \"#utility.yul\":24079:24081   */\n      0x1a\n        /* \"#utility.yul\":24074:24077   */\n      dup4\n        /* \"#utility.yul\":24015:24082   */\n      tag_439\n      jump\t// in\n    tag_753:\n        /* \"#utility.yul\":24008:24082   */\n      swap2\n      pop\n        /* \"#utility.yul\":24091:24184   */\n      tag_754\n        /* \"#utility.yul\":24180:24183   */\n      dup3\n        /* \"#utility.yul\":24091:24184   */\n      tag_495\n      jump\t// in\n    tag_754:\n        /* \"#utility.yul\":24209:24211   */\n      0x20\n        /* \"#utility.yul\":24204:24207   */\n      dup3\n        /* \"#utility.yul\":24200:24212   */\n      add\n        /* \"#utility.yul\":24193:24212   */\n      swap1\n      pop\n        /* \"#utility.yul\":23852:24218   */\n      swap2\n      swap1\n      pop\n      jump\t// out\n        /* \"#utility.yul\":24224:24643   */\n    tag_164:\n        /* \"#utility.yul\":24390:24394   */\n      0x00\n        /* \"#utility.yul\":24428:24430   */\n      0x20\n        /* \"#utility.yul\":24417:24426   */\n      dup3\n        /* \"#utility.yul\":24413:24431   */\n      add\n        /* \"#utility.yul\":24405:24431   */\n      swap1\n      pop\n        /* \"#utility.yul\":24477:24486   */\n      dup2\n        /* \"#utility.yul\":24471:24475   */\n      dup2\n        /* \"#utility.yul\":24467:24487   */\n      sub\n        /* \"#utility.yul\":24463:24464   */\n      0x00\n        /* \"#utility.yul\":24452:24461   */\n      dup4\n        /* \"#utility.yul\":24448:24465   */\n      add\n        /* \"#utility.yul\":24441:24488   */\n      mstore\n        /* \"#utility.yul\":24505:24636   */\n      tag_756\n        /* \"#utility.yul\":24631:24635   */\n      dup2\n        /* \"#utility.yul\":24505:24636   */\n      tag_496\n      jump\t// in\n    tag_756:\n        /* \"#utility.yul\":24497:24636   */\n      swap1\n      pop\n        /* \"#utility.yul\":24224:24643   */\n      swap2\n      swap1\n      pop\n      jump\t// out\n        /* \"#utility.yul\":24649:24819   */\n    tag_497:\n        /* \"#utility.yul\":24789:24811   */\n      0x7661756c7420616c72656164792070756c6c6564000000000000000000000000\n        /* \"#utility.yul\":24785:24786   */\n      0x00\n        /* \"#utility.yul\":24777:24783   */\n      dup3\n        /* \"#utility.yul\":24773:24787   */\n      add\n        /* \"#utility.yul\":24766:24812   */\n      mstore\n        /* \"#utility.yul\":24649:24819   */\n      pop\n      jump\t// out\n        /* \"#utility.yul\":24825:25191   */\n    tag_498:\n        /* \"#utility.yul\":24967:24970   */\n      0x00\n        /* \"#utility.yul\":24988:25055   */\n      tag_759\n        /* \"#utility.yul\":25052:25054   */\n      0x14\n        /* \"#utility.yul\":25047:25050   */\n      dup4\n        /* \"#utility.yul\":24988:25055   */\n      tag_439\n      jump\t// in\n    tag_759:\n        /* \"#utility.yul\":24981:25055   */\n      swap2\n      pop\n        /* \"#utility.yul\":25064:25157   */\n      tag_760\n        /* \"#utility.yul\":25153:25156   */\n      dup3\n        /* \"#utility.yul\":25064:25157   */\n      tag_497\n      jump\t// in\n    tag_760:\n        /* \"#utility.yul\":25182:25184   */\n      0x20\n        /* \"#utility.yul\":25177:25180   */\n      dup3\n        /* \"#utility.yul\":25173:25185   */\n      add\n        /* \"#utility.yul\":25166:25185   */\n      swap1\n      pop\n        /* \"#utility.yul\":24825:25191   */\n      swap2\n      swap1\n      pop\n      jump\t// out\n        /* \"#utility.yul\":25197:25616   */\n    tag_167:\n        /* \"#utility.yul\":25363:25367   */\n      0x00\n        /* \"#utility.yul\":25401:25403   */\n      0x20\n        /* \"#utility.yul\":25390:25399   */\n      dup3\n        /* \"#utility.yul\":25386:25404   */\n      add\n        /* \"#utility.yul\":25378:25404   */\n      swap1\n      pop\n        /* \"#utility.yul\":25450:25459   */\n      dup2\n        /* \"#utility.yul\":25444:25448   */\n      dup2\n        /* \"#utility.yul\":25440:25460   */\n      sub\n        /* \"#utility.yul\":25436:25437   */\n      0x00\n        /* \"#utility.yul\":25425:25434   */\n      dup4\n        /* \"#utility.yul\":25421:25438   */\n      add\n        /* \"#utility.yul\":25414:25461   */\n      mstore\n        /* \"#utility.yul\":25478:25609   */\n      tag_762\n        /* \"#utility.yul\":25604:25608   */\n      dup2\n        /* \"#utility.yul\":25478:25609   */\n      tag_498\n      jump\t// in\n    tag_762:\n        /* \"#utility.yul\":25470:25609   */\n      swap1\n      pop\n        /* \"#utility.yul\":25197:25616   */\n      swap2\n      swap1\n      pop\n      jump\t// out\n        /* \"#utility.yul\":25622:25790   */\n    tag_499:\n        /* \"#utility.yul\":25762:25782   */\n      0x70656e73696f6e206e6f7420636c6f7365640000000000000000000000000000\n        /* \"#utility.yul\":25758:25759   */\n      0x00\n        /* \"#utility.yul\":25750:25756   */\n      dup3\n        /* \"#utility.yul\":25746:25760   */\n      add\n        /* \"#utility.yul\":25739:25783   */\n      mstore\n        /* \"#utility.yul\":25622:25790   */\n      pop\n      jump\t// out\n        /* \"#utility.yul\":25796:26162   */\n    tag_500:\n        /* \"#utility.yul\":25938:25941   */\n      0x00\n        /* \"#utility.yul\":25959:26026   */\n      tag_765\n        /* \"#utility.yul\":26023:26025   */\n      0x12\n        /* \"#utility.yul\":26018:26021   */\n      dup4\n        /* \"#utility.yul\":25959:26026   */\n      tag_439\n      jump\t// in\n    tag_765:\n        /* \"#utility.yul\":25952:26026   */\n      swap2\n      pop\n        /* \"#utility.yul\":26035:26128   */\n      tag_766\n        /* \"#utility.yul\":26124:26127   */\n      dup3\n        /* \"#utility.yul\":26035:26128   */\n      tag_499\n      jump\t// in\n    tag_766:\n        /* \"#utility.yul\":26153:26155   */\n      0x20\n        /* \"#utility.yul\":26148:26151   */\n      dup3\n        /* \"#utility.yul\":26144:26156   */\n      add\n        /* \"#utility.yul\":26137:26156   */\n      swap1\n      pop\n        /* \"#utility.yul\":25796:26162   */\n      swap2\n      swap1\n      pop\n      jump\t// out\n        /* \"#utility.yul\":26168:26587   */\n    tag_193:\n        /* \"#utility.yul\":26334:26338   */\n      0x00\n        /* \"#utility.yul\":26372:26374   */\n      0x20\n        /* \"#utility.yul\":26361:26370   */\n      dup3\n        /* \"#utility.yul\":26357:26375   */\n      add\n        /* \"#utility.yul\":26349:26375   */\n      swap1\n      pop\n        /* \"#utility.yul\":26421:26430   */\n      dup2\n        /* \"#utility.yul\":26415:26419   */\n      dup2\n        /* \"#utility.yul\":26411:26431   */\n      sub\n        /* \"#utility.yul\":26407:26408   */\n      0x00\n        /* \"#utility.yul\":26396:26405   */\n      dup4\n        /* \"#utility.yul\":26392:26409   */\n      add\n        /* \"#utility.yul\":26385:26432   */\n      mstore\n        /* \"#utility.yul\":26449:26580   */\n      tag_768\n        /* \"#utility.yul\":26575:26579   */\n      dup2\n        /* \"#utility.yul\":26449:26580   */\n      tag_500\n      jump\t// in\n    tag_768:\n        /* \"#utility.yul\":26441:26580   */\n      swap1\n      pop\n        /* \"#utility.yul\":26168:26587   */\n      swap2\n      swap1\n      pop\n      jump\t// out\n        /* \"#utility.yul\":26593:26774   */\n    tag_501:\n        /* \"#utility.yul\":26733:26766   */\n      0x696e73756666696369656e74207072696e636970616c2072657475726e656400\n        /* \"#utility.yul\":26729:26730   */\n      0x00\n        /* \"#utility.yul\":26721:26727   */\n      dup3\n        /* \"#utility.yul\":26717:26731   */\n      add\n        /* \"#utility.yul\":26710:26767   */\n      mstore\n        /* \"#utility.yul\":26593:26774   */\n      pop\n      jump\t// out\n        /* \"#utility.yul\":26780:27146   */\n    tag_502:\n        /* \"#utility.yul\":26922:26925   */\n      0x00\n        /* \"#utility.yul\":26943:27010   */\n      tag_771\n        /* \"#utility.yul\":27007:27009   */\n      0x1f\n        /* \"#utility.yul\":27002:27005   */\n      dup4\n        /* \"#utility.yul\":26943:27010   */\n      tag_439\n      jump\t// in\n    tag_771:\n        /* \"#utility.yul\":26936:27010   */\n      swap2\n      pop\n        /* \"#utility.yul\":27019:27112   */\n      tag_772\n        /* \"#utility.yul\":27108:27111   */\n      dup3\n        /* \"#utility.yul\":27019:27112   */\n      tag_501\n      jump\t// in\n    tag_772:\n        /* \"#utility.yul\":27137:27139   */\n      0x20\n        /* \"#utility.yul\":27132:27135   */\n      dup3\n        /* \"#utility.yul\":27128:27140   */\n      add\n        /* \"#utility.yul\":27121:27140   */\n      swap1\n      pop\n        /* \"#utility.yul\":26780:27146   */\n      swap2\n      swap1\n      pop\n      jump\t// out\n        /* \"#utility.yul\":27152:27571   */\n    tag_234:\n        /* \"#utility.yul\":27318:27322   */\n      0x00\n        /* \"#utility.yul\":27356:27358   */\n      0x20\n        /* \"#utility.yul\":27345:27354   */\n      dup3\n        /* \"#utility.yul\":27341:27359   */\n      add\n        /* \"#utility.yul\":27333:27359   */\n      swap1\n      pop\n        /* \"#utility.yul\":27405:27414   */\n      dup2\n        /* \"#utility.yul\":27399:27403   */\n      dup2\n        /* \"#utility.yul\":27395:27415   */\n      sub\n        /* \"#utility.yul\":27391:27392   */\n      0x00\n        /* \"#utility.yul\":27380:27389   */\n      dup4\n        /* \"#utility.yul\":27376:27393   */\n      add\n        /* \"#utility.yul\":27369:27416   */\n      mstore\n        /* \"#utility.yul\":27433:27564   */\n      tag_774\n        /* \"#utility.yul\":27559:27563   */\n      dup2\n        /* \"#utility.yul\":27433:27564   */\n      tag_502\n      jump\t// in\n    tag_774:\n        /* \"#utility.yul\":27425:27564   */\n      swap1\n      pop\n        /* \"#utility.yul\":27152:27571   */\n      swap2\n      swap1\n      pop\n      jump\t// out\n        /* \"#utility.yul\":27577:27757   */\n    tag_503:\n        /* \"#utility.yul\":27625:27702   */\n      0x4e487b7100000000000000000000000000000000000000000000000000000000\n        /* \"#utility.yul\":27622:27623   */\n      0x00\n        /* \"#utility.yul\":27615:27703   */\n      mstore\n        /* \"#utility.yul\":27722:27726   */\n      0x11\n        /* \"#utility.yul\":27719:27720   */\n      0x04\n        /* \"#utility.yul\":27712:27727   */\n      mstore\n        /* \"#utility.yul\":27746:27750   */\n      0x24\n        /* \"#utility.yul\":27743:27744   */\n      0x00\n        /* \"#utility.yul\":27736:27751   */\n      revert\n        /* \"#utility.yul\":27763:27954   */\n    tag_236:\n        /* \"#utility.yul\":27803:27806   */\n      0x00\n        /* \"#utility.yul\":27822:27842   */\n      tag_777\n        /* \"#utility.yul\":27840:27841   */\n      dup3\n        /* \"#utility.yul\":27822:27842   */\n      tag_436\n      jump\t// in\n    tag_777:\n        /* \"#utility.yul\":27817:27842   */\n      swap2\n      pop\n        /* \"#utility.yul\":27856:27876   */\n      tag_778\n        /* \"#utility.yul\":27874:27875   */\n      dup4\n        /* \"#utility.yul\":27856:27876   */\n      tag_436\n      jump\t// in\n    tag_778:\n        /* \"#utility.yul\":27851:27876   */\n      swap3\n      pop\n        /* \"#utility.yul\":27899:27900   */\n      dup3\n        /* \"#utility.yul\":27896:27897   */\n      dup3\n        /* \"#utility.yul\":27892:27901   */\n      add\n        /* \"#utility.yul\":27885:27901   */\n      swap1\n      pop\n        /* \"#utility.yul\":27920:27923   */\n      dup1\n        /* \"#utility.yul\":27917:27918   */\n      dup3\n        /* \"#utility.yul\":27914:27924   */\n      gt\n        /* \"#utility.yul\":27911:27947   */\n      iszero\n      tag_779\n      jumpi\n        /* \"#utility.yul\":27927:27945   */\n      tag_780\n      tag_503\n      jump\t// in\n    tag_780:\n        /* \"#utility.yul\":27911:27947   */\n    tag_779:\n        /* \"#utility.yul\":27763:27954   */\n      swap3\n      swap2\n      pop\n      pop\n      jump\t// out\n        /* \"#utility.yul\":27960:28126   */\n    tag_504:\n        /* \"#utility.yul\":28100:28118   */\n      0x7661756c74206e6f742070756c6c656400000000000000000000000000000000\n        /* \"#utility.yul\":28096:28097   */\n      0x00\n        /* \"#utility.yul\":28088:28094   */\n      dup3\n        /* \"#utility.yul\":28084:28098   */\n      add\n        /* \"#utility.yul\":28077:28119   */\n      mstore\n        /* \"#utility.yul\":27960:28126   */\n      pop\n      jump\t// out\n        /* \"#utility.yul\":28132:28498   */\n    tag_505:\n        /* \"#utility.yul\":28274:28277   */\n      0x00\n        /* \"#utility.yul\":28295:28362   */\n      tag_783\n        /* \"#utility.yul\":28359:28361   */\n      0x10\n        /* \"#utility.yul\":28354:28357   */\n      dup4\n        /* \"#utility.yul\":28295:28362   */\n      tag_439\n      jump\t// in\n    tag_783:\n        /* \"#utility.yul\":28288:28362   */\n      swap2\n      pop\n        /* \"#utility.yul\":28371:28464   */\n      tag_784\n        /* \"#utility.yul\":28460:28463   */\n      dup3\n        /* \"#utility.yul\":28371:28464   */\n      tag_504\n      jump\t// in\n    tag_784:\n        /* \"#utility.yul\":28489:28491   */\n      0x20\n        /* \"#utility.yul\":28484:28487   */\n      dup3\n        /* \"#utility.yul\":28480:28492   */\n      add\n        /* \"#utility.yul\":28473:28492   */\n      swap1\n      pop\n        /* \"#utility.yul\":28132:28498   */\n      swap2\n      swap1\n      pop\n      jump\t// out\n        /* \"#utility.yul\":28504:28923   */\n    tag_239:\n        /* \"#utility.yul\":28670:28674   */\n      0x00\n        /* \"#utility.yul\":28708:28710   */\n      0x20\n        /* \"#utility.yul\":28697:28706   */\n      dup3\n        /* \"#utility.yul\":28693:28711   */\n      add\n        /* \"#utility.yul\":28685:28711   */\n      swap1\n      pop\n        /* \"#utility.yul\":28757:28766   */\n      dup2\n        /* \"#utility.yul\":28751:28755   */\n      dup2\n        /* \"#utility.yul\":28747:28767   */\n      sub\n        /* \"#utility.yul\":28743:28744   */\n      0x00\n        /* \"#utility.yul\":28732:28741   */\n      dup4\n        /* \"#utility.yul\":28728:28745   */\n      add\n        /* \"#utility.yul\":28721:28768   */\n      mstore\n        /* \"#utility.yul\":28785:28916   */\n      tag_786\n        /* \"#utility.yul\":28911:28915   */\n      dup2\n        /* \"#utility.yul\":28785:28916   */\n      tag_505\n      jump\t// in\n    tag_786:\n        /* \"#utility.yul\":28777:28916   */\n      swap1\n      pop\n        /* \"#utility.yul\":28504:28923   */\n      swap2\n      swap1\n      pop\n      jump\t// out\n        /* \"#utility.yul\":28929:29107   */\n    tag_506:\n        /* \"#utility.yul\":29069:29099   */\n      0x696e7375666669656e74207472616e736d69747465642076616c756500000000\n        /* \"#utility.yul\":29065:29066   */\n      0x00\n        /* \"#utility.yul\":29057:29063   */\n      dup3\n        /* \"#utility.yul\":29053:29067   */\n      add\n        /* \"#utility.yul\":29046:29100   */\n      mstore\n        /* \"#utility.yul\":28929:29107   */\n      pop\n      jump\t// out\n        /* \"#utility.yul\":29113:29479   */\n    tag_507:\n        /* \"#utility.yul\":29255:29258   */\n      0x00\n        /* \"#utility.yul\":29276:29343   */\n      tag_789\n        /* \"#utility.yul\":29340:29342   */\n      0x1c\n        /* \"#utility.yul\":29335:29338   */\n      dup4\n        /* \"#utility.yul\":29276:29343   */\n      tag_439\n      jump\t// in\n    tag_789:\n        /* \"#utility.yul\":29269:29343   */\n      swap2\n      pop\n        /* \"#utility.yul\":29352:29445   */\n      tag_790\n        /* \"#utility.yul\":29441:29444   */\n      dup3\n        /* \"#utility.yul\":29352:29445   */\n      tag_506\n      jump\t// in\n    tag_790:\n        /* \"#utility.yul\":29470:29472   */\n      0x20\n        /* \"#utility.yul\":29465:29468   */\n      dup3\n        /* \"#utility.yul\":29461:29473   */\n      add\n        /* \"#utility.yul\":29454:29473   */\n      swap1\n      pop\n        /* \"#utility.yul\":29113:29479   */\n      swap2\n      swap1\n      pop\n      jump\t// out\n        /* \"#utility.yul\":29485:29904   */\n    tag_243:\n        /* \"#utility.yul\":29651:29655   */\n      0x00\n        /* \"#utility.yul\":29689:29691   */\n      0x20\n        /* \"#utility.yul\":29678:29687   */\n      dup3\n        /* \"#utility.yul\":29674:29692   */\n      add\n        /* \"#utility.yul\":29666:29692   */\n      swap1\n      pop\n        /* \"#utility.yul\":29738:29747   */\n      dup2\n        /* \"#utility.yul\":29732:29736   */\n      dup2\n        /* \"#utility.yul\":29728:29748   */\n      sub\n        /* \"#utility.yul\":29724:29725   */\n      0x00\n        /* \"#utility.yul\":29713:29722   */\n      dup4\n        /* \"#utility.yul\":29709:29726   */\n      add\n        /* \"#utility.yul\":29702:29749   */\n      mstore\n        /* \"#utility.yul\":29766:29897   */\n      tag_792\n        /* \"#utility.yul\":29892:29896   */\n      dup2\n        /* \"#utility.yul\":29766:29897   */\n      tag_507\n      jump\t// in\n    tag_792:\n        /* \"#utility.yul\":29758:29897   */\n      swap1\n      pop\n        /* \"#utility.yul\":29485:29904   */\n      swap2\n      swap1\n      pop\n      jump\t// out\n        /* \"#utility.yul\":29910:30352   */\n    tag_246:\n        /* \"#utility.yul\":30059:30063   */\n      0x00\n        /* \"#utility.yul\":30097:30099   */\n      0x60\n        /* \"#utility.yul\":30086:30095   */\n      dup3\n        /* \"#utility.yul\":30082:30100   */\n      add\n        /* \"#utility.yul\":30074:30100   */\n      swap1\n      pop\n        /* \"#utility.yul\":30110:30181   */\n      tag_794\n        /* \"#utility.yul\":30178:30179   */\n      0x00\n        /* \"#utility.yul\":30167:30176   */\n      dup4\n        /* \"#utility.yul\":30163:30180   */\n      add\n        /* \"#utility.yul\":30154:30160   */\n      dup7\n        /* \"#utility.yul\":30110:30181   */\n      tag_489\n      jump\t// in\n    tag_794:\n        /* \"#utility.yul\":30191:30263   */\n      tag_795\n        /* \"#utility.yul\":30259:30261   */\n      0x20\n        /* \"#utility.yul\":30248:30257   */\n      dup4\n        /* \"#utility.yul\":30244:30262   */\n      add\n        /* \"#utility.yul\":30235:30241   */\n      dup6\n        /* \"#utility.yul\":30191:30263   */\n      tag_489\n      jump\t// in\n    tag_795:\n        /* \"#utility.yul\":30273:30345   */\n      tag_796\n        /* \"#utility.yul\":30341:30343   */\n      0x40\n        /* \"#utility.yul\":30330:30339   */\n      dup4\n        /* \"#utility.yul\":30326:30344   */\n      add\n        /* \"#utility.yul\":30317:30323   */\n      dup5\n        /* \"#utility.yul\":30273:30345   */\n      tag_437\n      jump\t// in\n    tag_796:\n        /* \"#utility.yul\":29910:30352   */\n      swap5\n      swap4\n      pop\n      pop\n      pop\n      pop\n      jump\t// out\n        /* \"#utility.yul\":30358:30552   */\n    tag_251:\n        /* \"#utility.yul\":30398:30402   */\n      0x00\n        /* \"#utility.yul\":30418:30438   */\n      tag_798\n        /* \"#utility.yul\":30436:30437   */\n      dup3\n        /* \"#utility.yul\":30418:30438   */\n      tag_436\n      jump\t// in\n    tag_798:\n        /* \"#utility.yul\":30413:30438   */\n      swap2\n      pop\n        /* \"#utility.yul\":30452:30472   */\n      tag_799\n        /* \"#utility.yul\":30470:30471   */\n      dup4\n        /* \"#utility.yul\":30452:30472   */\n      tag_436\n      jump\t// in\n    tag_799:\n        /* \"#utility.yul\":30447:30472   */\n      swap3\n      pop\n        /* \"#utility.yul\":30496:30497   */\n      dup3\n        /* \"#utility.yul\":30493:30494   */\n      dup3\n        /* \"#utility.yul\":30489:30498   */\n      sub\n        /* \"#utility.yul\":30481:30498   */\n      swap1\n      pop\n        /* \"#utility.yul\":30520:30521   */\n      dup2\n        /* \"#utility.yul\":30514:30518   */\n      dup2\n        /* \"#utility.yul\":30511:30522   */\n      gt\n        /* \"#utility.yul\":30508:30545   */\n      iszero\n      tag_800\n      jumpi\n        /* \"#utility.yul\":30525:30543   */\n      tag_801\n      tag_503\n      jump\t// in\n    tag_801:\n        /* \"#utility.yul\":30508:30545   */\n    tag_800:\n        /* \"#utility.yul\":30358:30552   */\n      swap3\n      swap2\n      pop\n      pop\n      jump\t// out\n        /* \"#utility.yul\":30558:30786   */\n    tag_508:\n        /* \"#utility.yul\":30698:30732   */\n      0x636f6e747269627574696f6e7320746f6f206672657175656e74207761697420\n        /* \"#utility.yul\":30694:30695   */\n      0x00\n        /* \"#utility.yul\":30686:30692   */\n      dup3\n        /* \"#utility.yul\":30682:30696   */\n      add\n        /* \"#utility.yul\":30675:30733   */\n      mstore\n        /* \"#utility.yul\":30767:30778   */\n      0x7265717569726564200000000000000000000000000000000000000000000000\n        /* \"#utility.yul\":30762:30764   */\n      0x20\n        /* \"#utility.yul\":30754:30760   */\n      dup3\n        /* \"#utility.yul\":30750:30765   */\n      add\n        /* \"#utility.yul\":30743:30779   */\n      mstore\n        /* \"#utility.yul\":30558:30786   */\n      pop\n      jump\t// out\n        /* \"#utility.yul\":30792:31158   */\n    tag_509:\n        /* \"#utility.yul\":30934:30937   */\n      0x00\n        /* \"#utility.yul\":30955:31022   */\n      tag_804\n        /* \"#utility.yul\":31019:31021   */\n      0x29\n        /* \"#utility.yul\":31014:31017   */\n      dup4\n        /* \"#utility.yul\":30955:31022   */\n      tag_439\n      jump\t// in\n    tag_804:\n        /* \"#utility.yul\":30948:31022   */\n      swap2\n      pop\n        /* \"#utility.yul\":31031:31124   */\n      tag_805\n        /* \"#utility.yul\":31120:31123   */\n      dup3\n        /* \"#utility.yul\":31031:31124   */\n      tag_508\n      jump\t// in\n    tag_805:\n        /* \"#utility.yul\":31149:31151   */\n      0x40\n        /* \"#utility.yul\":31144:31147   */\n      dup3\n        /* \"#utility.yul\":31140:31152   */\n      add\n        /* \"#utility.yul\":31133:31152   */\n      swap1\n      pop\n        /* \"#utility.yul\":30792:31158   */\n      swap2\n      swap1\n      pop\n      jump\t// out\n        /* \"#utility.yul\":31164:31583   */\n    tag_273:\n        /* \"#utility.yul\":31330:31334   */\n      0x00\n        /* \"#utility.yul\":31368:31370   */\n      0x20\n        /* \"#utility.yul\":31357:31366   */\n      dup3\n        /* \"#utility.yul\":31353:31371   */\n      add\n        /* \"#utility.yul\":31345:31371   */\n      swap1\n      pop\n        /* \"#utility.yul\":31417:31426   */\n      dup2\n        /* \"#utility.yul\":31411:31415   */\n      dup2\n        /* \"#utility.yul\":31407:31427   */\n      sub\n        /* \"#utility.yul\":31403:31404   */\n      0x00\n        /* \"#utility.yul\":31392:31401   */\n      dup4\n        /* \"#utility.yul\":31388:31405   */\n      add\n        /* \"#utility.yul\":31381:31428   */\n      mstore\n        /* \"#utility.yul\":31445:31576   */\n      tag_807\n        /* \"#utility.yul\":31571:31575   */\n      dup2\n        /* \"#utility.yul\":31445:31576   */\n      tag_509\n      jump\t// in\n    tag_807:\n        /* \"#utility.yul\":31437:31576   */\n      swap1\n      pop\n        /* \"#utility.yul\":31164:31583   */\n      swap2\n      swap1\n      pop\n      jump\t// out\n        /* \"#utility.yul\":31589:31754   */\n    tag_510:\n        /* \"#utility.yul\":31729:31746   */\n      0x70656e73696f6e206d6174757265640000000000000000000000000000000000\n        /* \"#utility.yul\":31725:31726   */\n      0x00\n        /* \"#utility.yul\":31717:31723   */\n      dup3\n        /* \"#utility.yul\":31713:31727   */\n      add\n        /* \"#utility.yul\":31706:31747   */\n      mstore\n        /* \"#utility.yul\":31589:31754   */\n      pop\n      jump\t// out\n        /* \"#utility.yul\":31760:32126   */\n    tag_511:\n        /* \"#utility.yul\":31902:31905   */\n      0x00\n        /* \"#utility.yul\":31923:31990   */\n      tag_810\n        /* \"#utility.yul\":31987:31989   */\n      0x0f\n        /* \"#utility.yul\":31982:31985   */\n      dup4\n        /* \"#utility.yul\":31923:31990   */\n      tag_439\n      jump\t// in\n    tag_810:\n        /* \"#utility.yul\":31916:31990   */\n      swap2\n      pop\n        /* \"#utility.yul\":31999:32092   */\n      tag_811\n        /* \"#utility.yul\":32088:32091   */\n      dup3\n        /* \"#utility.yul\":31999:32092   */\n      tag_510\n      jump\t// in\n    tag_811:\n        /* \"#utility.yul\":32117:32119   */\n      0x20\n        /* \"#utility.yul\":32112:32115   */\n      dup3\n        /* \"#utility.yul\":32108:32120   */\n      add\n        /* \"#utility.yul\":32101:32120   */\n      swap1\n      pop\n        /* \"#utility.yul\":31760:32126   */\n      swap2\n      swap1\n      pop\n      jump\t// out\n        /* \"#utility.yul\":32132:32551   */\n    tag_280:\n        /* \"#utility.yul\":32298:32302   */\n      0x00\n        /* \"#utility.yul\":32336:32338   */\n      0x20\n        /* \"#utility.yul\":32325:32334   */\n      dup3\n        /* \"#utility.yul\":32321:32339   */\n      add\n        /* \"#utility.yul\":32313:32339   */\n      swap1\n      pop\n        /* \"#utility.yul\":32385:32394   */\n      dup2\n        /* \"#utility.yul\":32379:32383   */\n      dup2\n        /* \"#utility.yul\":32375:32395   */\n      sub\n        /* \"#utility.yul\":32371:32372   */\n      0x00\n        /* \"#utility.yul\":32360:32369   */\n      dup4\n        /* \"#utility.yul\":32356:32373   */\n      add\n        /* \"#utility.yul\":32349:32396   */\n      mstore\n        /* \"#utility.yul\":32413:32544   */\n      tag_813\n        /* \"#utility.yul\":32539:32543   */\n      dup2\n        /* \"#utility.yul\":32413:32544   */\n      tag_511\n      jump\t// in\n    tag_813:\n        /* \"#utility.yul\":32405:32544   */\n      swap1\n      pop\n        /* \"#utility.yul\":32132:32551   */\n      swap2\n      swap1\n      pop\n      jump\t// out\n        /* \"#utility.yul\":32557:32723   */\n    tag_512:\n        /* \"#utility.yul\":32697:32715   */\n      0x70656e73696f6e206e6f74206f70656e00000000000000000000000000000000\n        /* \"#utility.yul\":32693:32694   */\n      0x00\n        /* \"#utility.yul\":32685:32691   */\n      dup3\n        /* \"#utility.yul\":32681:32695   */\n      add\n        /* \"#utility.yul\":32674:32716   */\n      mstore\n        /* \"#utility.yul\":32557:32723   */\n      pop\n      jump\t// out\n        /* \"#utility.yul\":32729:33095   */\n    tag_513:\n        /* \"#utility.yul\":32871:32874   */\n      0x00\n        /* \"#utility.yul\":32892:32959   */\n      tag_816\n        /* \"#utility.yul\":32956:32958   */\n      0x10\n        /* \"#utility.yul\":32951:32954   */\n      dup4\n        /* \"#utility.yul\":32892:32959   */\n      tag_439\n      jump\t// in\n    tag_816:\n        /* \"#utility.yul\":32885:32959   */\n      swap2\n      pop\n        /* \"#utility.yul\":32968:33061   */\n      tag_817\n        /* \"#utility.yul\":33057:33060   */\n      dup3\n        /* \"#utility.yul\":32968:33061   */\n      tag_512\n      jump\t// in\n    tag_817:\n        /* \"#utility.yul\":33086:33088   */\n      0x20\n        /* \"#utility.yul\":33081:33084   */\n      dup3\n        /* \"#utility.yul\":33077:33089   */\n      add\n        /* \"#utility.yul\":33070:33089   */\n      swap1\n      pop\n        /* \"#utility.yul\":32729:33095   */\n      swap2\n      swap1\n      pop\n      jump\t// out\n        /* \"#utility.yul\":33101:33520   */\n    tag_287:\n        /* \"#utility.yul\":33267:33271   */\n      0x00\n        /* \"#utility.yul\":33305:33307   */\n      0x20\n        /* \"#utility.yul\":33294:33303   */\n      dup3\n        /* \"#utility.yul\":33290:33308   */\n      add\n        /* \"#utility.yul\":33282:33308   */\n      swap1\n      pop\n        /* \"#utility.yul\":33354:33363   */\n      dup2\n        /* \"#utility.yul\":33348:33352   */\n      dup2\n        /* \"#utility.yul\":33344:33364   */\n      sub\n        /* \"#utility.yul\":33340:33341   */\n      0x00\n        /* \"#utility.yul\":33329:33338   */\n      dup4\n        /* \"#utility.yul\":33325:33342   */\n      add\n        /* \"#utility.yul\":33318:33365   */\n      mstore\n        /* \"#utility.yul\":33382:33513   */\n      tag_819\n        /* \"#utility.yul\":33508:33512   */\n      dup2\n        /* \"#utility.yul\":33382:33513   */\n      tag_513\n      jump\t// in\n    tag_819:\n        /* \"#utility.yul\":33374:33513   */\n      swap1\n      pop\n        /* \"#utility.yul\":33101:33520   */\n      swap2\n      swap1\n      pop\n      jump\t// out\n        /* \"#utility.yul\":33526:33762   */\n    tag_514:\n        /* \"#utility.yul\":33666:33700   */\n      0x696e76616c696420636f6e747269627574696f6e206569746865722072616973\n        /* \"#utility.yul\":33662:33663   */\n      0x00\n        /* \"#utility.yul\":33654:33660   */\n      dup3\n        /* \"#utility.yul\":33650:33664   */\n      add\n        /* \"#utility.yul\":33643:33701   */\n      mstore\n        /* \"#utility.yul\":33735:33754   */\n      0x65206f72206c6f77657220616d6f756e74000000000000000000000000000000\n        /* \"#utility.yul\":33730:33732   */\n      0x20\n        /* \"#utility.yul\":33722:33728   */\n      dup3\n        /* \"#utility.yul\":33718:33733   */\n      add\n        /* \"#utility.yul\":33711:33755   */\n      mstore\n        /* \"#utility.yul\":33526:33762   */\n      pop\n      jump\t// out\n        /* \"#utility.yul\":33768:34134   */\n    tag_515:\n        /* \"#utility.yul\":33910:33913   */\n      0x00\n        /* \"#utility.yul\":33931:33998   */\n      tag_822\n        /* \"#utility.yul\":33995:33997   */\n      0x31\n        /* \"#utility.yul\":33990:33993   */\n      dup4\n        /* \"#utility.yul\":33931:33998   */\n      tag_439\n      jump\t// in\n    tag_822:\n        /* \"#utility.yul\":33924:33998   */\n      swap2\n      pop\n        /* \"#utility.yul\":34007:34100   */\n      tag_823\n        /* \"#utility.yul\":34096:34099   */\n      dup3\n        /* \"#utility.yul\":34007:34100   */\n      tag_514\n      jump\t// in\n    tag_823:\n        /* \"#utility.yul\":34125:34127   */\n      0x40\n        /* \"#utility.yul\":34120:34123   */\n      dup3\n        /* \"#utility.yul\":34116:34128   */\n      add\n        /* \"#utility.yul\":34109:34128   */\n      swap1\n      pop\n        /* \"#utility.yul\":33768:34134   */\n      swap2\n      swap1\n      pop\n      jump\t// out\n        /* \"#utility.yul\":34140:34559   */\n    tag_295:\n        /* \"#utility.yul\":34306:34310   */\n      0x00\n        /* \"#utility.yul\":34344:34346   */\n      0x20\n        /* \"#utility.yul\":34333:34342   */\n      dup3\n        /* \"#utility.yul\":34329:34347   */\n      add\n        /* \"#utility.yul\":34321:34347   */\n      swap1\n      pop\n        /* \"#utility.yul\":34393:34402   */\n      dup2\n        /* \"#utility.yul\":34387:34391   */\n      dup2\n        /* \"#utility.yul\":34383:34403   */\n      sub\n        /* \"#utility.yul\":34379:34380   */\n      0x00\n        /* \"#utility.yul\":34368:34377   */\n      dup4\n        /* \"#utility.yul\":34364:34381   */\n      add\n        /* \"#utility.yul\":34357:34404   */\n      mstore\n        /* \"#utility.yul\":34421:34552   */\n      tag_825\n        /* \"#utility.yul\":34547:34551   */\n      dup2\n        /* \"#utility.yul\":34421:34552   */\n      tag_515\n      jump\t// in\n    tag_825:\n        /* \"#utility.yul\":34413:34552   */\n      swap1\n      pop\n        /* \"#utility.yul\":34140:34559   */\n      swap2\n      swap1\n      pop\n      jump\t// out\n        /* \"#utility.yul\":34565:34737   */\n    tag_516:\n        /* \"#utility.yul\":34705:34729   */\n      0x636f6e747269627574696f6e206d69732d6d6174636800000000000000000000\n        /* \"#utility.yul\":34701:34702   */\n      0x00\n        /* \"#utility.yul\":34693:34699   */\n      dup3\n        /* \"#utility.yul\":34689:34703   */\n      add\n        /* \"#utility.yul\":34682:34730   */\n      mstore\n        /* \"#utility.yul\":34565:34737   */\n      pop\n      jump\t// out\n        /* \"#utility.yul\":34743:35109   */\n    tag_517:\n        /* \"#utility.yul\":34885:34888   */\n      0x00\n        /* \"#utility.yul\":34906:34973   */\n      tag_828\n        /* \"#utility.yul\":34970:34972   */\n      0x16\n        /* \"#utility.yul\":34965:34968   */\n      dup4\n        /* \"#utility.yul\":34906:34973   */\n      tag_439\n      jump\t// in\n    tag_828:\n        /* \"#utility.yul\":34899:34973   */\n      swap2\n      pop\n        /* \"#utility.yul\":34982:35075   */\n      tag_829\n        /* \"#utility.yul\":35071:35074   */\n      dup3\n        /* \"#utility.yul\":34982:35075   */\n      tag_516\n      jump\t// in\n    tag_829:\n        /* \"#utility.yul\":35100:35102   */\n      0x20\n        /* \"#utility.yul\":35095:35098   */\n      dup3\n        /* \"#utility.yul\":35091:35103   */\n      add\n        /* \"#utility.yul\":35084:35103   */\n      swap1\n      pop\n        /* \"#utility.yul\":34743:35109   */\n      swap2\n      swap1\n      pop\n      jump\t// out\n        /* \"#utility.yul\":35115:35534   */\n    tag_299:\n        /* \"#utility.yul\":35281:35285   */\n      0x00\n        /* \"#utility.yul\":35319:35321   */\n      0x20\n        /* \"#utility.yul\":35308:35317   */\n      dup3\n        /* \"#utility.yul\":35304:35322   */\n      add\n        /* \"#utility.yul\":35296:35322   */\n      swap1\n      pop\n        /* \"#utility.yul\":35368:35377   */\n      dup2\n        /* \"#utility.yul\":35362:35366   */\n      dup2\n        /* \"#utility.yul\":35358:35378   */\n      sub\n        /* \"#utility.yul\":35354:35355   */\n      0x00\n        /* \"#utility.yul\":35343:35352   */\n      dup4\n        /* \"#utility.yul\":35339:35356   */\n      add\n        /* \"#utility.yul\":35332:35379   */\n      mstore\n        /* \"#utility.yul\":35396:35527   */\n      tag_831\n        /* \"#utility.yul\":35522:35526   */\n      dup2\n        /* \"#utility.yul\":35396:35527   */\n      tag_517\n      jump\t// in\n    tag_831:\n        /* \"#utility.yul\":35388:35527   */\n      swap1\n      pop\n        /* \"#utility.yul\":35115:35534   */\n      swap2\n      swap1\n      pop\n      jump\t// out\n        /* \"#utility.yul\":35540:35773   */\n    tag_307:\n        /* \"#utility.yul\":35579:35582   */\n      0x00\n        /* \"#utility.yul\":35602:35626   */\n      tag_833\n        /* \"#utility.yul\":35620:35625   */\n      dup3\n        /* \"#utility.yul\":35602:35626   */\n      tag_436\n      jump\t// in\n    tag_833:\n        /* \"#utility.yul\":35593:35626   */\n      swap2\n      pop\n        /* \"#utility.yul\":35648:35714   */\n      0xffffffffffffffffffffffffffffffffffffffffffffffffffffffffffffffff\n        /* \"#utility.yul\":35641:35646   */\n      dup3\n        /* \"#utility.yul\":35638:35715   */\n      sub\n        /* \"#utility.yul\":35635:35738   */\n      tag_834\n      jumpi\n        /* \"#utility.yul\":35718:35736   */\n      tag_835\n      tag_503\n      jump\t// in\n    tag_835:\n        /* \"#utility.yul\":35635:35738   */\n    tag_834:\n        /* \"#utility.yul\":35765:35766   */\n      0x01\n        /* \"#utility.yul\":35758:35763   */\n      dup3\n        /* \"#utility.yul\":35754:35767   */\n      add\n        /* \"#utility.yul\":35747:35767   */\n      swap1\n      pop\n        /* \"#utility.yul\":35540:35773   */\n      swap2\n      swap1\n      pop\n      jump\t// out\n        /* \"#utility.yul\":35779:35939   */\n    tag_518:\n        /* \"#utility.yul\":35919:35931   */\n      0x6f776e6572206f6e6c7900000000000000000000000000000000000000000000\n        /* \"#utility.yul\":35915:35916   */\n      0x00\n        /* \"#utility.yul\":35907:35913   */\n      dup3\n        /* \"#utility.yul\":35903:35917   */\n      add\n        /* \"#utility.yul\":35896:35932   */\n      mstore\n        /* \"#utility.yul\":35779:35939   */\n      pop\n      jump\t// out\n        /* \"#utility.yul\":35945:36311   */\n    tag_519:\n        /* \"#utility.yul\":36087:36090   */\n      0x00\n        /* \"#utility.yul\":36108:36175   */\n      tag_838\n        /* \"#utility.yul\":36172:36174   */\n      0x0a\n        /* \"#utility.yul\":36167:36170   */\n      dup4\n        /* \"#utility.yul\":36108:36175   */\n      tag_439\n      jump\t// in\n    tag_838:\n        /* \"#utility.yul\":36101:36175   */\n      swap2\n      pop\n        /* \"#utility.yul\":36184:36277   */\n      tag_839\n        /* \"#utility.yul\":36273:36276   */\n      dup3\n        /* \"#utility.yul\":36184:36277   */\n      tag_518\n      jump\t// in\n    tag_839:\n        /* \"#utility.yul\":36302:36304   */\n      0x20\n        /* \"#utility.yul\":36297:36300   */\n      dup3\n        /* \"#utility.yul\":36293:36305   */\n      add\n        /* \"#utility.yul\":36286:36305   */\n      swap1\n      pop\n        /* \"#utility.yul\":35945:36311   */\n      swap2\n      swap1\n      pop\n      jump\t// out\n        /* \"#utility.yul\":36317:36736   */\n    tag_326:\n        /* \"#utility.yul\":36483:36487   */\n      0x00\n        /* \"#utility.yul\":36521:36523   */\n      0x20\n        /* \"#utility.yul\":36510:36519   */\n      dup3\n        /* \"#utility.yul\":36506:36524   */\n      add\n        /* \"#utility.yul\":36498:36524   */\n      swap1\n      pop\n        /* \"#utility.yul\":36570:36579   */\n      dup2\n        /* \"#utility.yul\":36564:36568   */\n      dup2\n        /* \"#utility.yul\":36560:36580   */\n      sub\n        /* \"#utility.yul\":36556:36557   */\n      0x00\n        /* \"#utility.yul\":36545:36554   */\n      dup4\n        /* \"#utility.yul\":36541:36558   */\n      add\n        /* \"#utility.yul\":36534:36581   */\n      mstore\n        /* \"#utility.yul\":36598:36729   */\n      tag_841\n        /* \"#utility.yul\":36724:36728   */\n      dup2\n        /* \"#utility.yul\":36598:36729   */\n      tag_519\n      jump\t// in\n    tag_841:\n        /* \"#utility.yul\":36590:36729   */\n      swap1\n      pop\n        /* \"#utility.yul\":36317:36736   */\n      swap2\n      swap1\n      pop\n      jump\t// out\n        /* \"#utility.yul\":36742:36914   */\n    tag_520:\n        /* \"#utility.yul\":36882:36906   */\n      0x696e76616c69642070656e73696f6e2073746174757300000000000000000000\n        /* \"#utility.yul\":36878:36879   */\n      0x00\n        /* \"#utility.yul\":36870:36876   */\n      dup3\n        /* \"#utility.yul\":36866:36880   */\n      add\n        /* \"#utility.yul\":36859:36907   */\n      mstore\n        /* \"#utility.yul\":36742:36914   */\n      pop\n      jump\t// out\n        /* \"#utility.yul\":36920:37286   */\n    tag_521:\n        /* \"#utility.yul\":37062:37065   */\n      0x00\n        /* \"#utility.yul\":37083:37150   */\n      tag_844\n        /* \"#utility.yul\":37147:37149   */\n      0x16\n        /* \"#utility.yul\":37142:37145   */\n      dup4\n        /* \"#utility.yul\":37083:37150   */\n      tag_439\n      jump\t// in\n    tag_844:\n        /* \"#utility.yul\":37076:37150   */\n      swap2\n      pop\n        /* \"#utility.yul\":37159:37252   */\n      tag_845\n        /* \"#utility.yul\":37248:37251   */\n      dup3\n        /* \"#utility.yul\":37159:37252   */\n      tag_520\n      jump\t// in\n    tag_845:\n        /* \"#utility.yul\":37277:37279   */\n      0x20\n        /* \"#utility.yul\":37272:37275   */\n      dup3\n        /* \"#utility.yul\":37268:37280   */\n      add\n        /* \"#utility.yul\":37261:37280   */\n      swap1\n      pop\n        /* \"#utility.yul\":36920:37286   */\n      swap2\n      swap1\n      pop\n      jump\t// out\n        /* \"#utility.yul\":37292:37711   */\n    tag_344:\n        /* \"#utility.yul\":37458:37462   */\n      0x00\n        /* \"#utility.yul\":37496:37498   */\n      0x20\n        /* \"#utility.yul\":37485:37494   */\n      dup3\n        /* \"#utility.yul\":37481:37499   */\n      add\n        /* \"#utility.yul\":37473:37499   */\n      swap1\n      pop\n        /* \"#utility.yul\":37545:37554   */\n      dup2\n        /* \"#utility.yul\":37539:37543   */\n      dup2\n        /* \"#utility.yul\":37535:37555   */\n      sub\n        /* \"#utility.yul\":37531:37532   */\n      0x00\n        /* \"#utility.yul\":37520:37529   */\n      dup4\n        /* \"#utility.yul\":37516:37533   */\n      add\n        /* \"#utility.yul\":37509:37556   */\n      mstore\n        /* \"#utility.yul\":37573:37704   */\n      tag_847\n        /* \"#utility.yul\":37699:37703   */\n      dup2\n        /* \"#utility.yul\":37573:37704   */\n      tag_521\n      jump\t// in\n    tag_847:\n        /* \"#utility.yul\":37565:37704   */\n      swap1\n      pop\n        /* \"#utility.yul\":37292:37711   */\n      swap2\n      swap1\n      pop\n      jump\t// out\n        /* \"#utility.yul\":37717:37882   */\n    tag_522:\n        /* \"#utility.yul\":37857:37874   */\n      0x70656e73696f6e20736574746c65640000000000000000000000000000000000\n        /* \"#utility.yul\":37853:37854   */\n      0x00\n        /* \"#utility.yul\":37845:37851   */\n      dup3\n        /* \"#utility.yul\":37841:37855   */\n      add\n        /* \"#utility.yul\":37834:37875   */\n      mstore\n        /* \"#utility.yul\":37717:37882   */\n      pop\n      jump\t// out\n        /* \"#utility.yul\":37888:38254   */\n    tag_523:\n        /* \"#utility.yul\":38030:38033   */\n      0x00\n        /* \"#utility.yul\":38051:38118   */\n      tag_850\n        /* \"#utility.yul\":38115:38117   */\n      0x0f\n        /* \"#utility.yul\":38110:38113   */\n      dup4\n        /* \"#utility.yul\":38051:38118   */\n      tag_439\n      jump\t// in\n    tag_850:\n        /* \"#utility.yul\":38044:38118   */\n      swap2\n      pop\n        /* \"#utility.yul\":38127:38220   */\n      tag_851\n        /* \"#utility.yul\":38216:38219   */\n      dup3\n        /* \"#utility.yul\":38127:38220   */\n      tag_522\n      jump\t// in\n    tag_851:\n        /* \"#utility.yul\":38245:38247   */\n      0x20\n        /* \"#utility.yul\":38240:38243   */\n      dup3\n        /* \"#utility.yul\":38236:38248   */\n      add\n        /* \"#utility.yul\":38229:38248   */\n      swap1\n      pop\n        /* \"#utility.yul\":37888:38254   */\n      swap2\n      swap1\n      pop\n      jump\t// out\n        /* \"#utility.yul\":38260:38679   */\n    tag_351:\n        /* \"#utility.yul\":38426:38430   */\n      0x00\n        /* \"#utility.yul\":38464:38466   */\n      0x20\n        /* \"#utility.yul\":38453:38462   */\n      dup3\n        /* \"#utility.yul\":38449:38467   */\n      add\n        /* \"#utility.yul\":38441:38467   */\n      swap1\n      pop\n        /* \"#utility.yul\":38513:38522   */\n      dup2\n        /* \"#utility.yul\":38507:38511   */\n      dup2\n        /* \"#utility.yul\":38503:38523   */\n      sub\n        /* \"#utility.yul\":38499:38500   */\n      0x00\n        /* \"#utility.yul\":38488:38497   */\n      dup4\n        /* \"#utility.yul\":38484:38501   */\n      add\n        /* \"#utility.yul\":38477:38524   */\n      mstore\n        /* \"#utility.yul\":38541:38672   */\n      tag_853\n        /* \"#utility.yul\":38667:38671   */\n      dup2\n        /* \"#utility.yul\":38541:38672   */\n      tag_523\n      jump\t// in\n    tag_853:\n        /* \"#utility.yul\":38533:38672   */\n      swap1\n      pop\n        /* \"#utility.yul\":38260:38679   */\n      swap2\n      swap1\n      pop\n      jump\t// out\n        /* \"#utility.yul\":38685:38865   */\n    tag_524:\n        /* \"#utility.yul\":38825:38857   */\n      0x696e73756666696369656e7420656d6d697373696f6e2062616c616e63650000\n        /* \"#utility.yul\":38821:38822   */\n      0x00\n        /* \"#utility.yul\":38813:38819   */\n      dup3\n        /* \"#utility.yul\":38809:38823   */\n      add\n        /* \"#utility.yul\":38802:38858   */\n      mstore\n        /* \"#utility.yul\":38685:38865   */\n      pop\n      jump\t// out\n        /* \"#utility.yul\":38871:39237   */\n    tag_525:\n        /* \"#utility.yul\":39013:39016   */\n      0x00\n        /* \"#utility.yul\":39034:39101   */\n      tag_856\n        /* \"#utility.yul\":39098:39100   */\n      0x1e\n        /* \"#utility.yul\":39093:39096   */\n      dup4\n        /* \"#utility.yul\":39034:39101   */\n      tag_439\n      jump\t// in\n    tag_856:\n        /* \"#utility.yul\":39027:39101   */\n      swap2\n      pop\n        /* \"#utility.yul\":39110:39203   */\n      tag_857\n        /* \"#utility.yul\":39199:39202   */\n      dup3\n        /* \"#utility.yul\":39110:39203   */\n      tag_524\n      jump\t// in\n    tag_857:\n        /* \"#utility.yul\":39228:39230   */\n      0x20\n        /* \"#utility.yul\":39223:39226   */\n      dup3\n        /* \"#utility.yul\":39219:39231   */\n      add\n        /* \"#utility.yul\":39212:39231   */\n      swap1\n      pop\n        /* \"#utility.yul\":38871:39237   */\n      swap2\n      swap1\n      pop\n      jump\t// out\n        /* \"#utility.yul\":39243:39662   */\n    tag_354:\n        /* \"#utility.yul\":39409:39413   */\n      0x00\n        /* \"#utility.yul\":39447:39449   */\n      0x20\n        /* \"#utility.yul\":39436:39445   */\n      dup3\n        /* \"#utility.yul\":39432:39450   */\n      add\n        /* \"#utility.yul\":39424:39450   */\n      swap1\n      pop\n        /* \"#utility.yul\":39496:39505   */\n      dup2\n        /* \"#utility.yul\":39490:39494   */\n      dup2\n        /* \"#utility.yul\":39486:39506   */\n      sub\n        /* \"#utility.yul\":39482:39483   */\n      0x00\n        /* \"#utility.yul\":39471:39480   */\n      dup4\n        /* \"#utility.yul\":39467:39484   */\n      add\n        /* \"#utility.yul\":39460:39507   */\n      mstore\n        /* \"#utility.yul\":39524:39655   */\n      tag_859\n        /* \"#utility.yul\":39650:39654   */\n      dup2\n        /* \"#utility.yul\":39524:39655   */\n      tag_525\n      jump\t// in\n    tag_859:\n        /* \"#utility.yul\":39516:39655   */\n      swap1\n      pop\n        /* \"#utility.yul\":39243:39662   */\n      swap2\n      swap1\n      pop\n      jump\t// out\n        /* \"#utility.yul\":39668:39785   */\n    tag_526:\n        /* \"#utility.yul\":39777:39778   */\n      0x00\n        /* \"#utility.yul\":39774:39775   */\n      0x00\n        /* \"#utility.yul\":39767:39779   */\n      revert\n        /* \"#utility.yul\":39791:39971   */\n    tag_527:\n        /* \"#utility.yul\":39839:39916   */\n      0x4e487b7100000000000000000000000000000000000000000000000000000000\n        /* \"#utility.yul\":39836:39837   */\n      0x00\n        /* \"#utility.yul\":39829:39917   */\n      mstore\n        /* \"#utility.yul\":39936:39940   */\n      0x41\n        /* \"#utility.yul\":39933:39934   */\n      0x04\n        /* \"#utility.yul\":39926:39941   */\n      mstore\n        /* \"#utility.yul\":39960:39964   */\n      0x24\n        /* \"#utility.yul\":39957:39958   */\n      0x00\n        /* \"#utility.yul\":39950:39965   */\n      revert\n        /* \"#utility.yul\":39977:40258   */\n    tag_528:\n        /* \"#utility.yul\":40060:40087   */\n      tag_863\n        /* \"#utility.yul\":40082:40086   */\n      dup3\n        /* \"#utility.yul\":40060:40087   */\n      tag_441\n      jump\t// in\n    tag_863:\n        /* \"#utility.yul\":40052:40058   */\n      dup2\n        /* \"#utility.yul\":40048:40088   */\n      add\n        /* \"#utility.yul\":40190:40196   */\n      dup2\n        /* \"#utility.yul\":40178:40188   */\n      dup2\n        /* \"#utility.yul\":40175:40197   */\n      lt\n        /* \"#utility.yul\":40154:40172   */\n      0xffffffffffffffff\n        /* \"#utility.yul\":40142:40152   */\n      dup3\n        /* \"#utility.yul\":40139:40173   */\n      gt\n        /* \"#utility.yul\":40136:40198   */\n      or\n        /* \"#utility.yul\":40133:40221   */\n      iszero\n      tag_864\n      jumpi\n        /* \"#utility.yul\":40201:40219   */\n      tag_865\n      tag_527\n      jump\t// in\n    tag_865:\n        /* \"#utility.yul\":40133:40221   */\n    tag_864:\n        /* \"#utility.yul\":40241:40251   */\n      dup1\n        /* \"#utility.yul\":40237:40239   */\n      0x40\n        /* \"#utility.yul\":40230:40252   */\n      mstore\n        /* \"#utility.yul\":40020:40258   */\n      pop\n        /* \"#utility.yul\":39977:40258   */\n      pop\n      pop\n      jump\t// out\n        /* \"#utility.yul\":40264:40393   */\n    tag_529:\n        /* \"#utility.yul\":40298:40304   */\n      0x00\n        /* \"#utility.yul\":40325:40345   */\n      tag_867\n      tag_443\n      jump\t// in\n    tag_867:\n        /* \"#utility.yul\":40315:40345   */\n      swap1\n      pop\n        /* \"#utility.yul\":40354:40387   */\n      tag_868\n        /* \"#utility.yul\":40382:40386   */\n      dup3\n        /* \"#utility.yul\":40374:40380   */\n      dup3\n        /* \"#utility.yul\":40354:40387   */\n      tag_528\n      jump\t// in\n    tag_868:\n        /* \"#utility.yul\":40264:40393   */\n      swap2\n      swap1\n      pop\n      jump\t// out\n        /* \"#utility.yul\":40522:40633   */\n    tag_531:\n        /* \"#utility.yul\":40607:40608   */\n      0x03\n        /* \"#utility.yul\":40600:40605   */\n      dup2\n        /* \"#utility.yul\":40597:40609   */\n      lt\n        /* \"#utility.yul\":40587:40627   */\n      tag_871\n      jumpi\n        /* \"#utility.yul\":40623:40624   */\n      0x00\n        /* \"#utility.yul\":40620:40621   */\n      0x00\n        /* \"#utility.yul\":40613:40625   */\n      revert\n        /* \"#utility.yul\":40587:40627   */\n    tag_871:\n        /* \"#utility.yul\":40522:40633   */\n      pop\n      jump\t// out\n        /* \"#utility.yul\":40639:40806   */\n    tag_532:\n        /* \"#utility.yul\":40708:40713   */\n      0x00\n        /* \"#utility.yul\":40739:40745   */\n      dup2\n        /* \"#utility.yul\":40733:40746   */\n      mload\n        /* \"#utility.yul\":40724:40746   */\n      swap1\n      pop\n        /* \"#utility.yul\":40755:40800   */\n      tag_873\n        /* \"#utility.yul\":40794:40799   */\n      dup2\n        /* \"#utility.yul\":40755:40800   */\n      tag_531\n      jump\t// in\n    tag_873:\n        /* \"#utility.yul\":40639:40806   */\n      swap3\n      swap2\n      pop\n      pop\n      jump\t// out\n        /* \"#utility.yul\":40812:40923   */\n    tag_533:\n        /* \"#utility.yul\":40897:40898   */\n      0x04\n        /* \"#utility.yul\":40890:40895   */\n      dup2\n        /* \"#utility.yul\":40887:40899   */\n      lt\n        /* \"#utility.yul\":40877:40917   */\n      tag_875\n      jumpi\n        /* \"#utility.yul\":40913:40914   */\n      0x00\n        /* \"#utility.yul\":40910:40911   */\n      0x00\n        /* \"#utility.yul\":40903:40915   */\n      revert\n        /* \"#utility.yul\":40877:40917   */\n    tag_875:\n        /* \"#utility.yul\":40812:40923   */\n      pop\n      jump\t// out\n        /* \"#utility.yul\":40929:41096   */\n    tag_534:\n        /* \"#utility.yul\":40998:41003   */\n      0x00\n        /* \"#utility.yul\":41029:41035   */\n      dup2\n        /* \"#utility.yul\":41023:41036   */\n      mload\n        /* \"#utility.yul\":41014:41036   */\n      swap1\n      pop\n        /* \"#utility.yul\":41045:41090   */\n      tag_877\n        /* \"#utility.yul\":41084:41089   */\n      dup2\n        /* \"#utility.yul\":41045:41090   */\n      tag_533\n      jump\t// in\n    tag_877:\n        /* \"#utility.yul\":40929:41096   */\n      swap3\n      swap2\n      pop\n      pop\n      jump\t// out\n        /* \"#utility.yul\":41134:42491   */\n    tag_535:\n        /* \"#utility.yul\":41228:41233   */\n      0x00\n        /* \"#utility.yul\":41272:41276   */\n      0xc0\n        /* \"#utility.yul\":41260:41269   */\n      dup3\n        /* \"#utility.yul\":41255:41258   */\n      dup5\n        /* \"#utility.yul\":41251:41270   */\n      sub\n        /* \"#utility.yul\":41247:41277   */\n      slt\n        /* \"#utility.yul\":41244:41361   */\n      iszero\n      tag_879\n      jumpi\n        /* \"#utility.yul\":41280:41359   */\n      tag_880\n      tag_526\n      jump\t// in\n    tag_880:\n        /* \"#utility.yul\":41244:41361   */\n    tag_879:\n        /* \"#utility.yul\":41379:41400   */\n      tag_881\n        /* \"#utility.yul\":41395:41399   */\n      0xc0\n        /* \"#utility.yul\":41379:41400   */\n      tag_529\n      jump\t// in\n    tag_881:\n        /* \"#utility.yul\":41370:41400   */\n      swap1\n      pop\n        /* \"#utility.yul\":41463:41464   */\n      0x00\n        /* \"#utility.yul\":41503:41575   */\n      tag_882\n        /* \"#utility.yul\":41571:41574   */\n      dup5\n        /* \"#utility.yul\":41562:41568   */\n      dup3\n        /* \"#utility.yul\":41551:41560   */\n      dup6\n        /* \"#utility.yul\":41547:41569   */\n      add\n        /* \"#utility.yul\":41503:41575   */\n      tag_534\n      jump\t// in\n    tag_882:\n        /* \"#utility.yul\":41496:41500   */\n      0x00\n        /* \"#utility.yul\":41489:41494   */\n      dup4\n        /* \"#utility.yul\":41485:41501   */\n      add\n        /* \"#utility.yul\":41478:41576   */\n      mstore\n        /* \"#utility.yul\":41410:41587   */\n      pop\n        /* \"#utility.yul\":41646:41648   */\n      0x20\n        /* \"#utility.yul\":41687:41747   */\n      tag_883\n        /* \"#utility.yul\":41743:41746   */\n      dup5\n        /* \"#utility.yul\":41734:41740   */\n      dup3\n        /* \"#utility.yul\":41723:41732   */\n      dup6\n        /* \"#utility.yul\":41719:41741   */\n      add\n        /* \"#utility.yul\":41687:41747   */\n      tag_490\n      jump\t// in\n    tag_883:\n        /* \"#utility.yul\":41680:41684   */\n      0x20\n        /* \"#utility.yul\":41673:41678   */\n      dup4\n        /* \"#utility.yul\":41669:41685   */\n      add\n        /* \"#utility.yul\":41662:41748   */\n      mstore\n        /* \"#utility.yul\":41597:41759   */\n      pop\n        /* \"#utility.yul\":41827:41829   */\n      0x40\n        /* \"#utility.yul\":41868:41928   */\n      tag_884\n        /* \"#utility.yul\":41924:41927   */\n      dup5\n        /* \"#utility.yul\":41915:41921   */\n      dup3\n        /* \"#utility.yul\":41904:41913   */\n      dup6\n        /* \"#utility.yul\":41900:41922   */\n      add\n        /* \"#utility.yul\":41868:41928   */\n      tag_490\n      jump\t// in\n    tag_884:\n        /* \"#utility.yul\":41861:41865   */\n      0x40\n        /* \"#utility.yul\":41854:41859   */\n      dup4\n        /* \"#utility.yul\":41850:41866   */\n      add\n        /* \"#utility.yul\":41843:41929   */\n      mstore\n        /* \"#utility.yul\":41769:41940   */\n      pop\n        /* \"#utility.yul\":42008:42010   */\n      0x60\n        /* \"#utility.yul\":42049:42109   */\n      tag_885\n        /* \"#utility.yul\":42105:42108   */\n      dup5\n        /* \"#utility.yul\":42096:42102   */\n      dup3\n        /* \"#utility.yul\":42085:42094   */\n      dup6\n        /* \"#utility.yul\":42081:42103   */\n      add\n        /* \"#utility.yul\":42049:42109   */\n      tag_490\n      jump\t// in\n    tag_885:\n        /* \"#utility.yul\":42042:42046   */\n      0x60\n        /* \"#utility.yul\":42035:42040   */\n      dup4\n        /* \"#utility.yul\":42031:42047   */\n      add\n        /* \"#utility.yul\":42024:42110   */\n      mstore\n        /* \"#utility.yul\":41950:42121   */\n      pop\n        /* \"#utility.yul\":42190:42193   */\n      0x80\n        /* \"#utility.yul\":42232:42292   */\n      tag_886\n        /* \"#utility.yul\":42288:42291   */\n      dup5\n        /* \"#utility.yul\":42279:42285   */\n      dup3\n        /* \"#utility.yul\":42268:42277   */\n      dup6\n        /* \"#utility.yul\":42264:42286   */\n      add\n        /* \"#utility.yul\":42232:42292   */\n      tag_490\n      jump\t// in\n    tag_886:\n        /* \"#utility.yul\":42225:42229   */\n      0x80\n        /* \"#utility.yul\":42218:42223   */\n      dup4\n        /* \"#utility.yul\":42214:42230   */\n      add\n        /* \"#utility.yul\":42207:42293   */\n      mstore\n        /* \"#utility.yul\":42131:42304   */\n      pop\n        /* \"#utility.yul\":42370:42373   */\n      0xa0\n        /* \"#utility.yul\":42412:42472   */\n      tag_887\n        /* \"#utility.yul\":42468:42471   */\n      dup5\n        /* \"#utility.yul\":42459:42465   */\n      dup3\n        /* \"#utility.yul\":42448:42457   */\n      dup6\n        /* \"#utility.yul\":42444:42466   */\n      add\n        /* \"#utility.yul\":42412:42472   */\n      tag_490\n      jump\t// in\n    tag_887:\n        /* \"#utility.yul\":42405:42409   */\n      0xa0\n        /* \"#utility.yul\":42398:42403   */\n      dup4\n        /* \"#utility.yul\":42394:42410   */\n      add\n        /* \"#utility.yul\":42387:42473   */\n      mstore\n        /* \"#utility.yul\":42314:42484   */\n      pop\n        /* \"#utility.yul\":41134:42491   */\n      swap3\n      swap2\n      pop\n      pop\n      jump\t// out\n        /* \"#utility.yul\":42521:43155   */\n    tag_536:\n        /* \"#utility.yul\":42607:42612   */\n      0x00\n        /* \"#utility.yul\":42651:42655   */\n      0x40\n        /* \"#utility.yul\":42639:42648   */\n      dup3\n        /* \"#utility.yul\":42634:42637   */\n      dup5\n        /* \"#utility.yul\":42630:42649   */\n      sub\n        /* \"#utility.yul\":42626:42656   */\n      slt\n        /* \"#utility.yul\":42623:42740   */\n      iszero\n      tag_889\n      jumpi\n        /* \"#utility.yul\":42659:42738   */\n      tag_890\n      tag_526\n      jump\t// in\n    tag_890:\n        /* \"#utility.yul\":42623:42740   */\n    tag_889:\n        /* \"#utility.yul\":42758:42779   */\n      tag_891\n        /* \"#utility.yul\":42774:42778   */\n      0x40\n        /* \"#utility.yul\":42758:42779   */\n      tag_529\n      jump\t// in\n    tag_891:\n        /* \"#utility.yul\":42749:42779   */\n      swap1\n      pop\n        /* \"#utility.yul\":42851:42852   */\n      0x00\n        /* \"#utility.yul\":42891:42951   */\n      tag_892\n        /* \"#utility.yul\":42947:42950   */\n      dup5\n        /* \"#utility.yul\":42938:42944   */\n      dup3\n        /* \"#utility.yul\":42927:42936   */\n      dup6\n        /* \"#utility.yul\":42923:42945   */\n      add\n        /* \"#utility.yul\":42891:42951   */\n      tag_490\n      jump\t// in\n    tag_892:\n        /* \"#utility.yul\":42884:42888   */\n      0x00\n        /* \"#utility.yul\":42877:42882   */\n      dup4\n        /* \"#utility.yul\":42873:42889   */\n      add\n        /* \"#utility.yul\":42866:42952   */\n      mstore\n        /* \"#utility.yul\":42789:42963   */\n      pop\n        /* \"#utility.yul\":43035:43037   */\n      0x20\n        /* \"#utility.yul\":43076:43136   */\n      tag_893\n        /* \"#utility.yul\":43132:43135   */\n      dup5\n        /* \"#utility.yul\":43123:43129   */\n      dup3\n        /* \"#utility.yul\":43112:43121   */\n      dup6\n        /* \"#utility.yul\":43108:43130   */\n      add\n        /* \"#utility.yul\":43076:43136   */\n      tag_490\n      jump\t// in\n    tag_893:\n        /* \"#utility.yul\":43069:43073   */\n      0x20\n        /* \"#utility.yul\":43062:43067   */\n      dup4\n        /* \"#utility.yul\":43058:43074   */\n      add\n        /* \"#utility.yul\":43051:43137   */\n      mstore\n        /* \"#utility.yul\":42973:43148   */\n      pop\n        /* \"#utility.yul\":42521:43155   */\n      swap3\n      swap2\n      pop\n      pop\n      jump\t// out\n        /* \"#utility.yul\":43185:45899   */\n    tag_537:\n        /* \"#utility.yul\":43270:43275   */\n      0x00\n        /* \"#utility.yul\":43314:43320   */\n      0x0300\n        /* \"#utility.yul\":43302:43311   */\n      dup3\n        /* \"#utility.yul\":43297:43300   */\n      dup5\n        /* \"#utility.yul\":43293:43312   */\n      sub\n        /* \"#utility.yul\":43289:43321   */\n      slt\n        /* \"#utility.yul\":43286:43405   */\n      iszero\n      tag_895\n      jumpi\n        /* \"#utility.yul\":43324:43403   */\n      tag_896\n      tag_526\n      jump\t// in\n    tag_896:\n        /* \"#utility.yul\":43286:43405   */\n    tag_895:\n        /* \"#utility.yul\":43423:43446   */\n      tag_897\n        /* \"#utility.yul\":43439:43445   */\n      0x01a0\n        /* \"#utility.yul\":43423:43446   */\n      tag_529\n      jump\t// in\n    tag_897:\n        /* \"#utility.yul\":43414:43446   */\n      swap1\n      pop\n        /* \"#utility.yul\":43503:43504   */\n      0x00\n        /* \"#utility.yul\":43543:43603   */\n      tag_898\n        /* \"#utility.yul\":43599:43602   */\n      dup5\n        /* \"#utility.yul\":43590:43596   */\n      dup3\n        /* \"#utility.yul\":43579:43588   */\n      dup6\n        /* \"#utility.yul\":43575:43597   */\n      add\n        /* \"#utility.yul\":43543:43603   */\n      tag_490\n      jump\t// in\n    tag_898:\n        /* \"#utility.yul\":43536:43540   */\n      0x00\n        /* \"#utility.yul\":43529:43534   */\n      dup4\n        /* \"#utility.yul\":43525:43541   */\n      add\n        /* \"#utility.yul\":43518:43604   */\n      mstore\n        /* \"#utility.yul\":43456:43615   */\n      pop\n        /* \"#utility.yul\":43678:43680   */\n      0x20\n        /* \"#utility.yul\":43719:43779   */\n      tag_899\n        /* \"#utility.yul\":43775:43778   */\n      dup5\n        /* \"#utility.yul\":43766:43772   */\n      dup3\n        /* \"#utility.yul\":43755:43764   */\n      dup6\n        /* \"#utility.yul\":43751:43773   */\n      add\n        /* \"#utility.yul\":43719:43779   */\n      tag_478\n      jump\t// in\n    tag_899:\n        /* \"#utility.yul\":43712:43716   */\n      0x20\n        /* \"#utility.yul\":43705:43710   */\n      dup4\n        /* \"#utility.yul\":43701:43717   */\n      add\n        /* \"#utility.yul\":43694:43780   */\n      mstore\n        /* \"#utility.yul\":43625:43791   */\n      pop\n        /* \"#utility.yul\":43851:43853   */\n      0x40\n        /* \"#utility.yul\":43892:43952   */\n      tag_900\n        /* \"#utility.yul\":43948:43951   */\n      dup5\n        /* \"#utility.yul\":43939:43945   */\n      dup3\n        /* \"#utility.yul\":43928:43937   */\n      dup6\n        /* \"#utility.yul\":43924:43946   */\n      add\n        /* \"#utility.yul\":43892:43952   */\n      tag_478\n      jump\t// in\n    tag_900:\n        /* \"#utility.yul\":43885:43889   */\n      0x40\n        /* \"#utility.yul\":43878:43883   */\n      dup4\n        /* \"#utility.yul\":43874:43890   */\n      add\n        /* \"#utility.yul\":43867:43953   */\n      mstore\n        /* \"#utility.yul\":43801:43964   */\n      pop\n        /* \"#utility.yul\":44036:44038   */\n      0x60\n        /* \"#utility.yul\":44077:44137   */\n      tag_901\n        /* \"#utility.yul\":44133:44136   */\n      dup5\n        /* \"#utility.yul\":44124:44130   */\n      dup3\n        /* \"#utility.yul\":44113:44122   */\n      dup6\n        /* \"#utility.yul\":44109:44131   */\n      add\n        /* \"#utility.yul\":44077:44137   */\n      tag_490\n      jump\t// in\n    tag_901:\n        /* \"#utility.yul\":44070:44074   */\n      0x60\n        /* \"#utility.yul\":44063:44068   */\n      dup4\n        /* \"#utility.yul\":44059:44075   */\n      add\n        /* \"#utility.yul\":44052:44138   */\n      mstore\n        /* \"#utility.yul\":43974:44149   */\n      pop\n        /* \"#utility.yul\":44223:44226   */\n      0x80\n        /* \"#utility.yul\":44265:44325   */\n      tag_902\n        /* \"#utility.yul\":44321:44324   */\n      dup5\n        /* \"#utility.yul\":44312:44318   */\n      dup3\n        /* \"#utility.yul\":44301:44310   */\n      dup6\n        /* \"#utility.yul\":44297:44319   */\n      add\n        /* \"#utility.yul\":44265:44325   */\n      tag_490\n      jump\t// in\n    tag_902:\n        /* \"#utility.yul\":44258:44262   */\n      0x80\n        /* \"#utility.yul\":44251:44256   */\n      dup4\n        /* \"#utility.yul\":44247:44263   */\n      add\n        /* \"#utility.yul\":44240:44326   */\n      mstore\n        /* \"#utility.yul\":44159:44337   */\n      pop\n        /* \"#utility.yul\":44400:44403   */\n      0xa0\n        /* \"#utility.yul\":44442:44502   */\n      tag_903\n        /* \"#utility.yul\":44498:44501   */\n      dup5\n        /* \"#utility.yul\":44489:44495   */\n      dup3\n        /* \"#utility.yul\":44478:44487   */\n      dup6\n        /* \"#utility.yul\":44474:44496   */\n      add\n        /* \"#utility.yul\":44442:44502   */\n      tag_490\n      jump\t// in\n    tag_903:\n        /* \"#utility.yul\":44435:44439   */\n      0xa0\n        /* \"#utility.yul\":44428:44433   */\n      dup4\n        /* \"#utility.yul\":44424:44440   */\n      add\n        /* \"#utility.yul\":44417:44503   */\n      mstore\n        /* \"#utility.yul\":44347:44514   */\n      pop\n        /* \"#utility.yul\":44577:44580   */\n      0xc0\n        /* \"#utility.yul\":44619:44691   */\n      tag_904\n        /* \"#utility.yul\":44687:44690   */\n      dup5\n        /* \"#utility.yul\":44678:44684   */\n      dup3\n        /* \"#utility.yul\":44667:44676   */\n      dup6\n        /* \"#utility.yul\":44663:44685   */\n      add\n        /* \"#utility.yul\":44619:44691   */\n      tag_532\n      jump\t// in\n    tag_904:\n        /* \"#utility.yul\":44612:44616   */\n      0xc0\n        /* \"#utility.yul\":44605:44610   */\n      dup4\n        /* \"#utility.yul\":44601:44617   */\n      add\n        /* \"#utility.yul\":44594:44692   */\n      mstore\n        /* \"#utility.yul\":44524:44703   */\n      pop\n        /* \"#utility.yul\":44778:44781   */\n      0xe0\n        /* \"#utility.yul\":44820:44914   */\n      tag_905\n        /* \"#utility.yul\":44910:44913   */\n      dup5\n        /* \"#utility.yul\":44901:44907   */\n      dup3\n        /* \"#utility.yul\":44890:44899   */\n      dup6\n        /* \"#utility.yul\":44886:44908   */\n      add\n        /* \"#utility.yul\":44820:44914   */\n      tag_535\n      jump\t// in\n    tag_905:\n        /* \"#utility.yul\":44813:44817   */\n      0xe0\n        /* \"#utility.yul\":44806:44811   */\n      dup4\n        /* \"#utility.yul\":44802:44818   */\n      add\n        /* \"#utility.yul\":44795:44915   */\n      mstore\n        /* \"#utility.yul\":44713:44926   */\n      pop\n        /* \"#utility.yul\":44997:45000   */\n      0x01a0\n        /* \"#utility.yul\":45041:45135   */\n      tag_906\n        /* \"#utility.yul\":45131:45134   */\n      dup5\n        /* \"#utility.yul\":45122:45128   */\n      dup3\n        /* \"#utility.yul\":45111:45120   */\n      dup6\n        /* \"#utility.yul\":45107:45129   */\n      add\n        /* \"#utility.yul\":45041:45135   */\n      tag_535\n      jump\t// in\n    tag_906:\n        /* \"#utility.yul\":45032:45038   */\n      0x0100\n        /* \"#utility.yul\":45025:45030   */\n      dup4\n        /* \"#utility.yul\":45021:45039   */\n      add\n        /* \"#utility.yul\":45014:45136   */\n      mstore\n        /* \"#utility.yul\":44936:45147   */\n      pop\n        /* \"#utility.yul\":45211:45214   */\n      0x0260\n        /* \"#utility.yul\":45255:45341   */\n      tag_907\n        /* \"#utility.yul\":45337:45340   */\n      dup5\n        /* \"#utility.yul\":45328:45334   */\n      dup3\n        /* \"#utility.yul\":45317:45326   */\n      dup6\n        /* \"#utility.yul\":45313:45335   */\n      add\n        /* \"#utility.yul\":45255:45341   */\n      tag_536\n      jump\t// in\n    tag_907:\n        /* \"#utility.yul\":45246:45252   */\n      0x0120\n        /* \"#utility.yul\":45239:45244   */\n      dup4\n        /* \"#utility.yul\":45235:45253   */\n      add\n        /* \"#utility.yul\":45228:45342   */\n      mstore\n        /* \"#utility.yul\":45157:45353   */\n      pop\n        /* \"#utility.yul\":45419:45422   */\n      0x02a0\n        /* \"#utility.yul\":45463:45523   */\n      tag_908\n        /* \"#utility.yul\":45519:45522   */\n      dup5\n        /* \"#utility.yul\":45510:45516   */\n      dup3\n        /* \"#utility.yul\":45499:45508   */\n      dup6\n        /* \"#utility.yul\":45495:45517   */\n      add\n        /* \"#utility.yul\":45463:45523   */\n      tag_490\n      jump\t// in\n    tag_908:\n        /* \"#utility.yul\":45454:45460   */\n      0x0140\n        /* \"#utility.yul\":45447:45452   */\n      dup4\n        /* \"#utility.yul\":45443:45461   */\n      add\n        /* \"#utility.yul\":45436:45524   */\n      mstore\n        /* \"#utility.yul\":45363:45535   */\n      pop\n        /* \"#utility.yul\":45600:45603   */\n      0x02c0\n        /* \"#utility.yul\":45644:45704   */\n      tag_909\n        /* \"#utility.yul\":45700:45703   */\n      dup5\n        /* \"#utility.yul\":45691:45697   */\n      dup3\n        /* \"#utility.yul\":45680:45689   */\n      dup6\n        /* \"#utility.yul\":45676:45698   */\n      add\n        /* \"#utility.yul\":45644:45704   */\n      tag_490\n      jump\t// in\n    tag_909:\n        /* \"#utility.yul\":45635:45641   */\n      0x0160\n        /* \"#utility.yul\":45628:45633   */\n      dup4\n        /* \"#utility.yul\":45624:45642   */\n      add\n        /* \"#utility.yul\":45617:45705   */\n      mstore\n        /* \"#utility.yul\":45545:45716   */\n      pop\n        /* \"#utility.yul\":45776:45779   */\n      0x02e0\n        /* \"#utility.yul\":45820:45880   */\n      tag_910\n        /* \"#utility.yul\":45876:45879   */\n      dup5\n        /* \"#utility.yul\":45867:45873   */\n      dup3\n        /* \"#utility.yul\":45856:45865   */\n      dup6\n        /* \"#utility.yul\":45852:45874   */\n      add\n        /* \"#utility.yul\":45820:45880   */\n      tag_490\n      jump\t// in\n    tag_910:\n        /* \"#utility.yul\":45811:45817   */\n      0x0180\n        /* \"#utility.yul\":45804:45809   */\n      dup4\n        /* \"#utility.yul\":45800:45818   */\n      add\n        /* \"#utility.yul\":45793:45881   */\n      mstore\n        /* \"#utility.yul\":45726:45892   */\n      pop\n        /* \"#utility.yul\":43185:45899   */\n      swap3\n      swap2\n      pop\n      pop\n      jump\t// out\n        /* \"#utility.yul\":45928:47449   */\n    tag_538:\n        /* \"#utility.yul\":46012:46017   */\n      0x00\n        /* \"#utility.yul\":46056:46062   */\n      0x03c0\n        /* \"#utility.yul\":46044:46053   */\n      dup3\n        /* \"#utility.yul\":46039:46042   */\n      dup5\n        /* \"#utility.yul\":46035:46054   */\n      sub\n        /* \"#utility.yul\":46031:46063   */\n      slt\n        /* \"#utility.yul\":46028:46147   */\n      iszero\n      tag_912\n      jumpi\n        /* \"#utility.yul\":46066:46145   */\n      tag_913\n      tag_526\n      jump\t// in\n    tag_913:\n        /* \"#utility.yul\":46028:46147   */\n    tag_912:\n        /* \"#utility.yul\":46165:46186   */\n      tag_914\n        /* \"#utility.yul\":46181:46185   */\n      0xe0\n        /* \"#utility.yul\":46165:46186   */\n      tag_529\n      jump\t// in\n    tag_914:\n        /* \"#utility.yul\":46156:46186   */\n      swap1\n      pop\n        /* \"#utility.yul\":46243:46244   */\n      0x00\n        /* \"#utility.yul\":46283:46343   */\n      tag_915\n        /* \"#utility.yul\":46339:46342   */\n      dup5\n        /* \"#utility.yul\":46330:46336   */\n      dup3\n        /* \"#utility.yul\":46319:46328   */\n      dup6\n        /* \"#utility.yul\":46315:46337   */\n      add\n        /* \"#utility.yul\":46283:46343   */\n      tag_490\n      jump\t// in\n    tag_915:\n        /* \"#utility.yul\":46276:46280   */\n      0x00\n        /* \"#utility.yul\":46269:46274   */\n      dup4\n        /* \"#utility.yul\":46265:46281   */\n      add\n        /* \"#utility.yul\":46258:46344   */\n      mstore\n        /* \"#utility.yul\":46196:46355   */\n      pop\n        /* \"#utility.yul\":46417:46419   */\n      0x20\n        /* \"#utility.yul\":46458:46518   */\n      tag_916\n        /* \"#utility.yul\":46514:46517   */\n      dup5\n        /* \"#utility.yul\":46505:46511   */\n      dup3\n        /* \"#utility.yul\":46494:46503   */\n      dup6\n        /* \"#utility.yul\":46490:46512   */\n      add\n        /* \"#utility.yul\":46458:46518   */\n      tag_478\n      jump\t// in\n    tag_916:\n        /* \"#utility.yul\":46451:46455   */\n      0x20\n        /* \"#utility.yul\":46444:46449   */\n      dup4\n        /* \"#utility.yul\":46440:46456   */\n      add\n        /* \"#utility.yul\":46433:46519   */\n      mstore\n        /* \"#utility.yul\":46365:46530   */\n      pop\n        /* \"#utility.yul\":46590:46592   */\n      0x40\n        /* \"#utility.yul\":46631:46691   */\n      tag_917\n        /* \"#utility.yul\":46687:46690   */\n      dup5\n        /* \"#utility.yul\":46678:46684   */\n      dup3\n        /* \"#utility.yul\":46667:46676   */\n      dup6\n        /* \"#utility.yul\":46663:46685   */\n      add\n        /* \"#utility.yul\":46631:46691   */\n      tag_478\n      jump\t// in\n    tag_917:\n        /* \"#utility.yul\":46624:46628   */\n      0x40\n        /* \"#utility.yul\":46617:46622   */\n      dup4\n        /* \"#utility.yul\":46613:46629   */\n      add\n        /* \"#utility.yul\":46606:46692   */\n      mstore\n        /* \"#utility.yul\":46540:46703   */\n      pop\n        /* \"#utility.yul\":46763:46765   */\n      0x60\n        /* \"#utility.yul\":46804:46864   */\n      tag_918\n        /* \"#utility.yul\":46860:46863   */\n      dup5\n        /* \"#utility.yul\":46851:46857   */\n      dup3\n        /* \"#utility.yul\":46840:46849   */\n      dup6\n        /* \"#utility.yul\":46836:46858   */\n      add\n        /* \"#utility.yul\":46804:46864   */\n      tag_478\n      jump\t// in\n    tag_918:\n        /* \"#utility.yul\":46797:46801   */\n      0x60\n        /* \"#utility.yul\":46790:46795   */\n      dup4\n        /* \"#utility.yul\":46786:46802   */\n      add\n        /* \"#utility.yul\":46779:46865   */\n      mstore\n        /* \"#utility.yul\":46713:46876   */\n      pop\n        /* \"#utility.yul\":46943:46946   */\n      0x80\n        /* \"#utility.yul\":46985:47045   */\n      tag_919\n        /* \"#utility.yul\":47041:47044   */\n      dup5\n        /* \"#utility.yul\":47032:47038   */\n      dup3\n        /* \"#utility.yul\":47021:47030   */\n      dup6\n        /* \"#utility.yul\":47017:47039   */\n      add\n        /* \"#utility.yul\":46985:47045   */\n      tag_490\n      jump\t// in\n    tag_919:\n        /* \"#utility.yul\":46978:46982   */\n      0x80\n        /* \"#utility.yul\":46971:46976   */\n      dup4\n        /* \"#utility.yul\":46967:46983   */\n      add\n        /* \"#utility.yul\":46960:47046   */\n      mstore\n        /* \"#utility.yul\":46886:47057   */\n      pop\n        /* \"#utility.yul\":47127:47130   */\n      0xa0\n        /* \"#utility.yul\":47169:47229   */\n      tag_920\n        /* \"#utility.yul\":47225:47228   */\n      dup5\n        /* \"#utility.yul\":47216:47222   */\n      dup3\n        /* \"#utility.yul\":47205:47214   */\n      dup6\n        /* \"#utility.yul\":47201:47223   */\n      add\n        /* \"#utility.yul\":47169:47229   */\n      tag_490\n      jump\t// in\n    tag_920:\n        /* \"#utility.yul\":47162:47166   */\n      0xa0\n        /* \"#utility.yul\":47155:47160   */\n      dup4\n        /* \"#utility.yul\":47151:47167   */\n      add\n        /* \"#utility.yul\":47144:47230   */\n      mstore\n        /* \"#utility.yul\":47067:47241   */\n      pop\n        /* \"#utility.yul\":47303:47306   */\n      0xc0\n        /* \"#utility.yul\":47345:47430   */\n      tag_921\n        /* \"#utility.yul\":47426:47429   */\n      dup5\n        /* \"#utility.yul\":47417:47423   */\n      dup3\n        /* \"#utility.yul\":47406:47415   */\n      dup6\n        /* \"#utility.yul\":47402:47424   */\n      add\n        /* \"#utility.yul\":47345:47430   */\n      tag_537\n      jump\t// in\n    tag_921:\n        /* \"#utility.yul\":47338:47342   */\n      0xc0\n        /* \"#utility.yul\":47331:47336   */\n      dup4\n        /* \"#utility.yul\":47327:47343   */\n      add\n        /* \"#utility.yul\":47320:47431   */\n      mstore\n        /* \"#utility.yul\":47251:47442   */\n      pop\n        /* \"#utility.yul\":45928:47449   */\n      swap3\n      swap2\n      pop\n      pop\n      jump\t// out\n        /* \"#utility.yul\":47455:47855   */\n    tag_377:\n        /* \"#utility.yul\":47549:47555   */\n      0x00\n        /* \"#utility.yul\":47598:47601   */\n      0x03c0\n        /* \"#utility.yul\":47586:47595   */\n      dup3\n        /* \"#utility.yul\":47577:47584   */\n      dup5\n        /* \"#utility.yul\":47573:47596   */\n      sub\n        /* \"#utility.yul\":47569:47602   */\n      slt\n        /* \"#utility.yul\":47566:47686   */\n      iszero\n      tag_923\n      jumpi\n        /* \"#utility.yul\":47605:47684   */\n      tag_924\n      tag_444\n      jump\t// in\n    tag_924:\n        /* \"#utility.yul\":47566:47686   */\n    tag_923:\n        /* \"#utility.yul\":47725:47726   */\n      0x00\n        /* \"#utility.yul\":47750:47838   */\n      tag_925\n        /* \"#utility.yul\":47830:47837   */\n      dup5\n        /* \"#utility.yul\":47821:47827   */\n      dup3\n        /* \"#utility.yul\":47810:47819   */\n      dup6\n        /* \"#utility.yul\":47806:47828   */\n      add\n        /* \"#utility.yul\":47750:47838   */\n      tag_538\n      jump\t// in\n    tag_925:\n        /* \"#utility.yul\":47740:47838   */\n      swap2\n      pop\n        /* \"#utility.yul\":47696:47848   */\n      pop\n        /* \"#utility.yul\":47455:47855   */\n      swap3\n      swap2\n      pop\n      pop\n      jump\t// out\n        /* \"#utility.yul\":47861:47977   */\n    tag_539:\n        /* \"#utility.yul\":47944:47946   */\n      0x0a\n        /* \"#utility.yul\":47937:47942   */\n      dup2\n        /* \"#utility.yul\":47934:47947   */\n      lt\n        /* \"#utility.yul\":47924:47971   */\n      tag_927\n      jumpi\n        /* \"#utility.yul\":47951:47969   */\n      tag_928\n      tag_100\n      jump\t// in\n    tag_928:\n        /* \"#utility.yul\":47924:47971   */\n    tag_927:\n        /* \"#utility.yul\":47861:47977   */\n      pop\n      jump\t// out\n        /* \"#utility.yul\":47983:48114   */\n    tag_540:\n        /* \"#utility.yul\":48030:48037   */\n      0x00\n        /* \"#utility.yul\":48059:48064   */\n      dup2\n        /* \"#utility.yul\":48048:48064   */\n      swap1\n      pop\n        /* \"#utility.yul\":48065:48108   */\n      tag_930\n        /* \"#utility.yul\":48102:48107   */\n      dup3\n        /* \"#utility.yul\":48065:48108   */\n      tag_539\n      jump\t// in\n    tag_930:\n        /* \"#utility.yul\":47983:48114   */\n      swap2\n      swap1\n      pop\n      jump\t// out\n        /* \"#utility.yul\":48120:48251   */\n    tag_541:\n        /* \"#utility.yul\":48178:48187   */\n      0x00\n        /* \"#utility.yul\":48211:48245   */\n      tag_932\n        /* \"#utility.yul\":48239:48244   */\n      dup3\n        /* \"#utility.yul\":48211:48245   */\n      tag_540\n      jump\t// in\n    tag_932:\n        /* \"#utility.yul\":48198:48245   */\n      swap1\n      pop\n        /* \"#utility.yul\":48120:48251   */\n      swap2\n      swap1\n      pop\n      jump\t// out\n        /* \"#utility.yul\":48257:48404   */\n    tag_542:\n        /* \"#utility.yul\":48352:48397   */\n      tag_934\n        /* \"#utility.yul\":48391:48396   */\n      dup2\n        /* \"#utility.yul\":48352:48397   */\n      tag_541\n      jump\t// in\n    tag_934:\n        /* \"#utility.yul\":48347:48350   */\n      dup3\n        /* \"#utility.yul\":48340:48398   */\n      mstore\n        /* \"#utility.yul\":48257:48404   */\n      pop\n      pop\n      jump\t// out\n        /* \"#utility.yul\":48410:48526   */\n    tag_543:\n        /* \"#utility.yul\":48494:48495   */\n      0x06\n        /* \"#utility.yul\":48487:48492   */\n      dup2\n        /* \"#utility.yul\":48484:48496   */\n      lt\n        /* \"#utility.yul\":48474:48520   */\n      tag_936\n      jumpi\n        /* \"#utility.yul\":48500:48518   */\n      tag_937\n      tag_100\n      jump\t// in\n    tag_937:\n        /* \"#utility.yul\":48474:48520   */\n    tag_936:\n        /* \"#utility.yul\":48410:48526   */\n      pop\n      jump\t// out\n        /* \"#utility.yul\":48532:48665   */\n    tag_544:\n        /* \"#utility.yul\":48580:48587   */\n      0x00\n        /* \"#utility.yul\":48609:48614   */\n      dup2\n        /* \"#utility.yul\":48598:48614   */\n      swap1\n      pop\n        /* \"#utility.yul\":48615:48659   */\n      tag_939\n        /* \"#utility.yul\":48653:48658   */\n      dup3\n        /* \"#utility.yul\":48615:48659   */\n      tag_543\n      jump\t// in\n    tag_939:\n        /* \"#utility.yul\":48532:48665   */\n      swap2\n      swap1\n      pop\n      jump\t// out\n        /* \"#utility.yul\":48671:48804   */\n    tag_545:\n        /* \"#utility.yul\":48730:48739   */\n      0x00\n        /* \"#utility.yul\":48763:48798   */\n      tag_941\n        /* \"#utility.yul\":48792:48797   */\n      dup3\n        /* \"#utility.yul\":48763:48798   */\n      tag_544\n      jump\t// in\n    tag_941:\n        /* \"#utility.yul\":48750:48798   */\n      swap1\n      pop\n        /* \"#utility.yul\":48671:48804   */\n      swap2\n      swap1\n      pop\n      jump\t// out\n        /* \"#utility.yul\":48810:48959   */\n    tag_546:\n        /* \"#utility.yul\":48906:48952   */\n      tag_943\n        /* \"#utility.yul\":48946:48951   */\n      dup2\n        /* \"#utility.yul\":48906:48952   */\n      tag_545\n      jump\t// in\n    tag_943:\n        /* \"#utility.yul\":48901:48904   */\n      dup3\n        /* \"#utility.yul\":48894:48953   */\n      mstore\n        /* \"#utility.yul\":48810:48959   */\n      pop\n      pop\n      jump\t// out\n        /* \"#utility.yul\":48965:49774   */\n    tag_384:\n        /* \"#utility.yul\":49215:49219   */\n      0x00\n        /* \"#utility.yul\":49253:49256   */\n      0xc0\n        /* \"#utility.yul\":49242:49251   */\n      dup3\n        /* \"#utility.yul\":49238:49257   */\n      add\n        /* \"#utility.yul\":49230:49257   */\n      swap1\n      pop\n        /* \"#utility.yul\":49267:49346   */\n      tag_945\n        /* \"#utility.yul\":49343:49344   */\n      0x00\n        /* \"#utility.yul\":49332:49341   */\n      dup4\n        /* \"#utility.yul\":49328:49345   */\n      add\n        /* \"#utility.yul\":49319:49325   */\n      dup10\n        /* \"#utility.yul\":49267:49346   */\n      tag_542\n      jump\t// in\n    tag_945:\n        /* \"#utility.yul\":49356:49437   */\n      tag_946\n        /* \"#utility.yul\":49433:49435   */\n      0x20\n        /* \"#utility.yul\":49422:49431   */\n      dup4\n        /* \"#utility.yul\":49418:49436   */\n      add\n        /* \"#utility.yul\":49409:49415   */\n      dup9\n        /* \"#utility.yul\":49356:49437   */\n      tag_546\n      jump\t// in\n    tag_946:\n        /* \"#utility.yul\":49447:49519   */\n      tag_947\n        /* \"#utility.yul\":49515:49517   */\n      0x40\n        /* \"#utility.yul\":49504:49513   */\n      dup4\n        /* \"#utility.yul\":49500:49518   */\n      add\n        /* \"#utility.yul\":49491:49497   */\n      dup8\n        /* \"#utility.yul\":49447:49519   */\n      tag_437\n      jump\t// in\n    tag_947:\n        /* \"#utility.yul\":49529:49601   */\n      tag_948\n        /* \"#utility.yul\":49597:49599   */\n      0x60\n        /* \"#utility.yul\":49586:49595   */\n      dup4\n        /* \"#utility.yul\":49582:49600   */\n      add\n        /* \"#utility.yul\":49573:49579   */\n      dup7\n        /* \"#utility.yul\":49529:49601   */\n      tag_489\n      jump\t// in\n    tag_948:\n        /* \"#utility.yul\":49611:49684   */\n      tag_949\n        /* \"#utility.yul\":49679:49682   */\n      0x80\n        /* \"#utility.yul\":49668:49677   */\n      dup4\n        /* \"#utility.yul\":49664:49683   */\n      add\n        /* \"#utility.yul\":49655:49661   */\n      dup6\n        /* \"#utility.yul\":49611:49684   */\n      tag_437\n      jump\t// in\n    tag_949:\n        /* \"#utility.yul\":49694:49767   */\n      tag_950\n        /* \"#utility.yul\":49762:49765   */\n      0xa0\n        /* \"#utility.yul\":49751:49760   */\n      dup4\n        /* \"#utility.yul\":49747:49766   */\n      add\n        /* \"#utility.yul\":49738:49744   */\n      dup5\n        /* \"#utility.yul\":49694:49767   */\n      tag_489\n      jump\t// in\n    tag_950:\n        /* \"#utility.yul\":48965:49774   */\n      swap8\n      swap7\n      pop\n      pop\n      pop\n      pop\n      pop\n      pop\n      pop\n      jump\t// out\n        /* \"#utility.yul\":49780:50190   */\n    tag_402:\n        /* \"#utility.yul\":49820:49827   */\n      0x00\n        /* \"#utility.yul\":49843:49863   */\n      tag_952\n        /* \"#utility.yul\":49861:49862   */\n      dup3\n        /* \"#utility.yul\":49843:49863   */\n      tag_436\n      jump\t// in\n    tag_952:\n        /* \"#utility.yul\":49838:49863   */\n      swap2\n      pop\n        /* \"#utility.yul\":49877:49897   */\n      tag_953\n        /* \"#utility.yul\":49895:49896   */\n      dup4\n        /* \"#utility.yul\":49877:49897   */\n      tag_436\n      jump\t// in\n    tag_953:\n        /* \"#utility.yul\":49872:49897   */\n      swap3\n      pop\n        /* \"#utility.yul\":49932:49933   */\n      dup3\n        /* \"#utility.yul\":49929:49930   */\n      dup3\n        /* \"#utility.yul\":49925:49934   */\n      mul\n        /* \"#utility.yul\":49954:49984   */\n      tag_954\n        /* \"#utility.yul\":49972:49983   */\n      dup2\n        /* \"#utility.yul\":49954:49984   */\n      tag_436\n      jump\t// in\n    tag_954:\n        /* \"#utility.yul\":49943:49984   */\n      swap2\n      pop\n        /* \"#utility.yul\":50133:50134   */\n      dup3\n        /* \"#utility.yul\":50124:50131   */\n      dup3\n        /* \"#utility.yul\":50120:50135   */\n      div\n        /* \"#utility.yul\":50117:50118   */\n      dup5\n        /* \"#utility.yul\":50114:50136   */\n      eq\n        /* \"#utility.yul\":50094:50095   */\n      dup4\n        /* \"#utility.yul\":50087:50096   */\n      iszero\n        /* \"#utility.yul\":50067:50150   */\n      or\n        /* \"#utility.yul\":50044:50183   */\n      tag_955\n      jumpi\n        /* \"#utility.yul\":50163:50181   */\n      tag_956\n      tag_503\n      jump\t// in\n    tag_956:\n        /* \"#utility.yul\":50044:50183   */\n    tag_955:\n        /* \"#utility.yul\":49828:50190   */\n      pop\n        /* \"#utility.yul\":49780:50190   */\n      swap3\n      swap2\n      pop\n      pop\n      jump\t// out\n\n    auxdata: 0xa26469706673582212206881b15a3b982f6295be18a8fb204158dc1abac03939a43a35dbe5804abc223164736f6c634300081e0033\n}\n",
				"bytecode": {
					"linkReferences": {},
					"object": "60c060405234801561000f575f5ffd5b506040516141a73803806141a78339818101604052810190610031919061016e565b815f60036101000a81548173ffffffffffffffffffffffffffffffffffffffff021916908373ffffffffffffffffffffffffffffffffffffffff16021790555080608081815250505f5f60016101000a81548160ff0219169083600381111561009d5761009c6101ac565b5b02179055503073ffffffffffffffffffffffffffffffffffffffff1660a08173ffffffffffffffffffffffffffffffffffffffff168152505050506101d9565b5f5ffd5b5f73ffffffffffffffffffffffffffffffffffffffff82169050919050565b5f61010a826100e1565b9050919050565b61011a81610100565b8114610124575f5ffd5b50565b5f8151905061013581610111565b92915050565b5f819050919050565b61014d8161013b565b8114610157575f5ffd5b50565b5f8151905061016881610144565b92915050565b5f5f60408385031215610184576101836100dd565b5b5f61019185828601610127565b92505060206101a28582860161015a565b9150509250929050565b7f4e487b71000000000000000000000000000000000000000000000000000000005f52602160045260245ffd5b60805160a051613f606102475f395f81816106de0152818161078d0152818161105f015281816111020152818161159a01528181611aca01526124cb01525f818161089301528181610cfb0152818161165d01528181611b8a0152818161221b015261235c0152613f605ff3fe6080604052600436106100c1575f3560e01c806351cff8d91161007e578063b8c8933811610058578063b8c893381461026a578063c1cbbca7146102a6578063cde4c10c146102d6578063e77ef21f14610300576100c1565b806351cff8d9146101d457806373488018146102105780639f08c7551461023a576100c1565b80630d8e6e2c146100c557806312065fe0146100ef57806317d7de7c1461011957806343d726d6146101435780634d0392a81461016d5780634e69d560146101aa575b5f5ffd5b3480156100d0575f5ffd5b506100d961032a565b6040516100e691906128ac565b60405180910390f35b3480156100fa575f5ffd5b50610103610332565b60405161011091906128ac565b60405180910390f35b348015610124575f5ffd5b5061012d61033b565b60405161013a9190612935565b60405180910390f35b34801561014e575f5ffd5b50610157610378565b60405161016491906128ac565b60405180910390f35b348015610178575f5ffd5b50610193600480360381019061018e919061298c565b6108c8565b6040516101a19291906129b7565b60405180910390f35b3480156101b5575f5ffd5b506101be610d7f565b6040516101cb9190612a51565b60405180910390f35b3480156101df575f5ffd5b506101fa60048036038101906101f59190612ac4565b610d94565b60405161020791906128ac565b60405180910390f35b34801561021b575f5ffd5b50610224611202565b6040516102319190612dd5565b60405180910390f35b610254600480360381019061024f9190612def565b611217565b60405161026191906128ac565b60405180910390f35b348015610275575f5ffd5b50610290600480360381019061028b919061298c565b6116fe565b60405161029d9190612ee7565b60405180910390f35b6102c060048036038101906102bb919061298c565b611765565b6040516102cd91906128ac565b60405180910390f35b3480156102e1575f5ffd5b506102ea611bd9565b6040516102f79190612f21565b60405180910390f35b34801561030b575f5ffd5b50610314611e29565b60405161032191906128ac565b60405180910390f35b5f6002905090565b5f600254905090565b60606040518060400160405280601781526020017f4d4544414c4c494f4e5f50454e53494f4e5f5641554c54000000000000000000815250905090565b5f5f60039054906101000a900473ffffffffffffffffffffffffffffffffffffffff1673ffffffffffffffffffffffffffffffffffffffff1663bf40fac16040518060400160405280601181526020017f52455345525645445f4d505f41444d494e0000000000000000000000000000008152506040518263ffffffff1660e01b81526004016104089190612935565b602060405180830381865afa158015610423573d5f5f3e3d5ffd5b505050506040513d601f19601f820116820180604052508101906104479190612f4e565b73ffffffffffffffffffffffffffffffffffffffff163373ffffffffffffffffffffffffffffffffffffffff16146104b4576040517f08c379a00000000000000000000000000000000000000000000000000000000081526004016104ab90612fc3565b60405180910390fd5b5f5f9054906101000a900460ff1615610502576040517f08c379a00000000000000000000000000000000000000000000000000000000081526004016104f99061302b565b60405180910390fd5b60026003811115610516576105156129de565b5b5f60019054906101000a900460ff166003811115610537576105366129de565b5b03610577576040517f08c379a000000000000000000000000000000000000000000000000000000000815260040161056e90613093565b60405180910390fd5b5f610580612269565b905060026003811115610596576105956129de565b5b5f60019054906101000a900460ff1660038111156105b7576105b66129de565b5b036105f7576040517f08c379a00000000000000000000000000000000000000000000000000000000081526004016105ee906130fb565b60405180910390fd5b60075f9054906101000a900460ff1615610646576040517f08c379a000000000000000000000000000000000000000000000000000000000815260040161063d90613163565b60405180910390fd5b60015f5f6101000a81548160ff02191690831515021790555060025f60016101000a81548160ff02191690836003811115610684576106836129de565b5b02179055505f5f905073eeeeeeeeeeeeeeeeeeeeeeeeeeeeeeeeeeeeeeee73ffffffffffffffffffffffffffffffffffffffff168260c001516040015173ffffffffffffffffffffffffffffffffffffffff1603610763577f000000000000000000000000000000000000000000000000000000000000000073ffffffffffffffffffffffffffffffffffffffff16319050816040015173ffffffffffffffffffffffffffffffffffffffff166108fc8290811502906040515f60405180830381858888f1935050505015801561075d573d5f5f3e3d5ffd5b5061088b565b5f8260c001516040015190508073ffffffffffffffffffffffffffffffffffffffff166370a082317f00000000000000000000000000000000000000000000000000000000000000006040518263ffffffff1660e01b81526004016107c89190613190565b602060405180830381865afa1580156107e3573d5f5f3e3d5ffd5b505050506040513d601f19601f8201168201806040525081019061080791906131bd565b91508073ffffffffffffffffffffffffffffffffffffffff1663a9059cbb8460400151846040518363ffffffff1660e01b81526004016108489291906131e8565b6020604051808303815f875af1158015610864573d5f5f3e3d5ffd5b505050506040513d601f19601f820116820180604052508101906108889190613239565b50505b6108c160075f7f0000000000000000000000000000000000000000000000000000000000000000848660c00151604001516123dc565b9250505090565b5f5f5f5f9054906101000a900460ff1615610918576040517f08c379a000000000000000000000000000000000000000000000000000000000815260040161090f9061302b565b60405180910390fd5b6002600381111561092c5761092b6129de565b5b5f60019054906101000a900460ff16600381111561094d5761094c6129de565b5b0361098d576040517f08c379a000000000000000000000000000000000000000000000000000000000815260040161098490613093565b60405180910390fd5b5f60039054906101000a900473ffffffffffffffffffffffffffffffffffffffff1673ffffffffffffffffffffffffffffffffffffffff1663bf40fac16040518060400160405280601481526020017f52455345525645445f4d505f54524541535552590000000000000000000000008152506040518263ffffffff1660e01b8152600401610a1c9190612935565b602060405180830381865afa158015610a37573d5f5f3e3d5ffd5b505050506040513d601f19601f82011682018060405250810190610a5b9190612f4e565b73ffffffffffffffffffffffffffffffffffffffff163373ffffffffffffffffffffffffffffffffffffffff1614610ac8576040517f08c379a0000000000000000000000000000000000000000000000000000000008152600401610abf906132ae565b60405180910390fd5b5f610ad1612269565b90505f6003811115610ae657610ae56129de565b5b5f60019054906101000a900460ff166003811115610b0757610b066129de565b5b14610b47576040517f08c379a0000000000000000000000000000000000000000000000000000000008152600401610b3e90613316565b60405180910390fd5b60015f5f6101000a81548160ff02191690831515021790555060075f9054906101000a900460ff1615610baf576040517f08c379a0000000000000000000000000000000000000000000000000000000008152600401610ba69061337e565b60405180910390fd5b600160075f6101000a81548160ff0219169083151502179055506002549250826006819055505f8160c0015160400151905073eeeeeeeeeeeeeeeeeeeeeeeeeeeeeeeeeeeeeeee73ffffffffffffffffffffffffffffffffffffffff168173ffffffffffffffffffffffffffffffffffffffff1603610c71573373ffffffffffffffffffffffffffffffffffffffff166108fc8590811502906040515f60405180830381858888f19350505050158015610c6b573d5f5f3e3d5ffd5b50610cf3565b5f8190508073ffffffffffffffffffffffffffffffffffffffff1663095ea7b333876040518363ffffffff1660e01b8152600401610cb09291906131e8565b6020604051808303815f875af1158015610ccc573d5f5f3e3d5ffd5b505050506040513d601f19601f82011682018060405250810190610cf09190613239565b50505b610d2960035f7f0000000000000000000000000000000000000000000000000000000000000000878660c00151604001516123dc565b925060085f8681526020019081526020015f2083908060018154018082558091505060019003905f5260205f20015f90919091909150555f5f5f6101000a81548160ff0219169083151502179055505050915091565b5f5f60019054906101000a900460ff16905090565b5f5f60039054906101000a900473ffffffffffffffffffffffffffffffffffffffff1673ffffffffffffffffffffffffffffffffffffffff1663bf40fac16040518060400160405280601181526020017f52455345525645445f4d505f41444d494e0000000000000000000000000000008152506040518263ffffffff1660e01b8152600401610e249190612935565b602060405180830381865afa158015610e3f573d5f5f3e3d5ffd5b505050506040513d601f19601f82011682018060405250810190610e639190612f4e565b73ffffffffffffffffffffffffffffffffffffffff163373ffffffffffffffffffffffffffffffffffffffff1614610ed0576040517f08c379a0000000000000000000000000000000000000000000000000000000008152600401610ec790612fc3565b60405180910390fd5b60026003811115610ee457610ee36129de565b5b5f60019054906101000a900460ff166003811115610f0557610f046129de565b5b14610f45576040517f08c379a0000000000000000000000000000000000000000000000000000000008152600401610f3c906133e6565b60405180910390fd5b5f5f60039054906101000a900473ffffffffffffffffffffffffffffffffffffffff1673ffffffffffffffffffffffffffffffffffffffff1663bf40fac16040518060400160405280601081526020017f52455345525645445f4d505f42414e4b000000000000000000000000000000008152506040518263ffffffff1660e01b8152600401610fd59190612935565b602060405180830381865afa158015610ff0573d5f5f3e3d5ffd5b505050506040513d601f19601f820116820180604052508101906110149190612f4e565b905073eeeeeeeeeeeeeeeeeeeeeeeeeeeeeeeeeeeeeeee73ffffffffffffffffffffffffffffffffffffffff168373ffffffffffffffffffffffffffffffffffffffff16036110e0577f000000000000000000000000000000000000000000000000000000000000000073ffffffffffffffffffffffffffffffffffffffff163191508073ffffffffffffffffffffffffffffffffffffffff166108fc8390811502906040515f60405180830381858888f193505050501580156110da573d5f5f3e3d5ffd5b506111fc565b5f8390508073ffffffffffffffffffffffffffffffffffffffff166370a082317f00000000000000000000000000000000000000000000000000000000000000006040518263ffffffff1660e01b815260040161113d9190613190565b602060405180830381865afa158015611158573d5f5f3e3d5ffd5b505050506040513d601f19601f8201168201806040525081019061117c91906131bd565b92508073ffffffffffffffffffffffffffffffffffffffff1663a9059cbb83856040518363ffffffff1660e01b81526004016111b99291906131e8565b6020604051808303815f875af11580156111d5573d5f5f3e3d5ffd5b505050506040513d601f19601f820116820180604052508101906111f99190613239565b50505b50919050565b61120a61270d565b611212612269565b905090565b5f5f5f9054906101000a900460ff1615611266576040517f08c379a000000000000000000000000000000000000000000000000000000000815260040161125d9061302b565b60405180910390fd5b6002600381111561127a576112796129de565b5b5f60019054906101000a900460ff16600381111561129b5761129a6129de565b5b036112db576040517f08c379a00000000000000000000000000000000000000000000000000000000081526004016112d290613093565b60405180910390fd5b5f60039054906101000a900473ffffffffffffffffffffffffffffffffffffffff1673ffffffffffffffffffffffffffffffffffffffff1663bf40fac16040518060400160405280601481526020017f52455345525645445f4d505f54524541535552590000000000000000000000008152506040518263ffffffff1660e01b815260040161136a9190612935565b602060405180830381865afa158015611385573d5f5f3e3d5ffd5b505050506040513d601f19601f820116820180604052508101906113a99190612f4e565b73ffffffffffffffffffffffffffffffffffffffff163373ffffffffffffffffffffffffffffffffffffffff1614611416576040517f08c379a000000000000000000000000000000000000000000000000000000000815260040161140d906132ae565b60405180910390fd5b60015f5f6101000a81548160ff0219169083151502179055505f611438612269565b905060065484101561147f576040517f08c379a00000000000000000000000000000000000000000000000000000000081526004016114769061344e565b60405180910390fd5b5f838561148c9190613499565b905060075f9054906101000a900460ff166114dc576040517f08c379a00000000000000000000000000000000000000000000000000000000081526004016114d390613516565b60405180910390fd5b5f8260c0015160400151905073eeeeeeeeeeeeeeeeeeeeeeeeeeeeeeeeeeeeeeee73ffffffffffffffffffffffffffffffffffffffff168173ffffffffffffffffffffffffffffffffffffffff16036115775781341015611572576040517f08c379a00000000000000000000000000000000000000000000000000000000081526004016115699061357e565b60405180910390fd5b61161b565b5f8190508073ffffffffffffffffffffffffffffffffffffffff166323b872dd337f0000000000000000000000000000000000000000000000000000000000000000866040518463ffffffff1660e01b81526004016115d89392919061359c565b6020604051808303815f875af11580156115f4573d5f5f3e3d5ffd5b505050506040513d601f19601f820116820180604052508101906116189190613239565b50505b5f60065460025461162c91906135d1565b9050856006548261163d9190613499565b6116479190613499565b600281905550611655612558565b61168b60015f7f0000000000000000000000000000000000000000000000000000000000000000868860c00151604001516123dc565b945060085f8981526020019081526020015f2085908060018154018082558091505060019003905f5260205f20015f90919091909150555f60075f6101000a81548160ff0219169083151502179055505f5f5f6101000a81548160ff021916908315150217905550505050509392505050565b606060085f8381526020019081526020015f2080548060200260200160405190810160405280929190818152602001828054801561175957602002820191905f5260205f20905b815481526020019060010190808311611745575b50505050509050919050565b5f5f5f9054906101000a900460ff16156117b4576040517f08c379a00000000000000000000000000000000000000000000000000000000081526004016117ab9061302b565b60405180910390fd5b600260038111156117c8576117c76129de565b5b5f60019054906101000a900460ff1660038111156117e9576117e86129de565b5b03611829576040517f08c379a000000000000000000000000000000000000000000000000000000000815260040161182090613093565b60405180910390fd5b60015f5f6101000a81548160ff021916908315150217905550426004541115611887576040517f08c379a000000000000000000000000000000000000000000000000000000000815260040161187e90613674565b60405180910390fd5b5f600181111561189a576118996129de565b5b5f60029054906101000a900460ff1660018111156118bb576118ba6129de565b5b036118fb576040517f08c379a00000000000000000000000000000000000000000000000000000000081526004016118f2906136dc565b60405180910390fd5b5f600381111561190e5761190d6129de565b5b5f60019054906101000a900460ff16600381111561192f5761192e6129de565b5b1461196f576040517f08c379a000000000000000000000000000000000000000000000000000000000815260040161196690613744565b60405180910390fd5b5f611978612269565b905061198e8160c0015160e001515f01516125cf565b60045f82825461199e9190613499565b925050819055508060c0015160e001516040015183101580156119cd57508060c0015160e00151606001518311155b611a0c576040517f08c379a0000000000000000000000000000000000000000000000000000000008152600401611a03906137d2565b60405180910390fd5b5f8160c0015160400151905073eeeeeeeeeeeeeeeeeeeeeeeeeeeeeeeeeeeeeeee73ffffffffffffffffffffffffffffffffffffffff168173ffffffffffffffffffffffffffffffffffffffff1603611aa75783341015611aa2576040517f08c379a0000000000000000000000000000000000000000000000000000000008152600401611a999061383a565b60405180910390fd5b611b4b565b5f8190508073ffffffffffffffffffffffffffffffffffffffff166323b872dd337f0000000000000000000000000000000000000000000000000000000000000000886040518463ffffffff1660e01b8152600401611b089392919061359c565b6020604051808303815f875af1158015611b24573d5f5f3e3d5ffd5b505050506040513d601f19601f82011682018060405250810190611b489190613239565b50505b8360025f828254611b5c9190613499565b9250508190555060015f815480929190611b7590613858565b9190505550611b82612558565b611bb860015f7f0000000000000000000000000000000000000000000000000000000000000000878660c00151604001516123dc565b92505f5f5f6101000a81548160ff0219169083151502179055505050919050565b5f5f60039054906101000a900473ffffffffffffffffffffffffffffffffffffffff1673ffffffffffffffffffffffffffffffffffffffff1663bf40fac16040518060400160405280601181526020017f52455345525645445f4d505f41444d494e0000000000000000000000000000008152506040518263ffffffff1660e01b8152600401611c699190612935565b602060405180830381865afa158015611c84573d5f5f3e3d5ffd5b505050506040513d601f19601f82011682018060405250810190611ca89190612f4e565b73ffffffffffffffffffffffffffffffffffffffff163373ffffffffffffffffffffffffffffffffffffffff1614611d15576040517f08c379a0000000000000000000000000000000000000000000000000000000008152600401611d0c90612fc3565b60405180910390fd5b5f60039054906101000a900473ffffffffffffffffffffffffffffffffffffffff1673ffffffffffffffffffffffffffffffffffffffff1663bf40fac16040518060400160405280601481526020017f52455345525645445f4d505f52454749535445520000000000000000000000008152506040518263ffffffff1660e01b8152600401611da49190612935565b602060405180830381865afa158015611dbf573d5f5f3e3d5ffd5b505050506040513d601f19601f82011682018060405250810190611de39190612f4e565b5f60036101000a81548173ffffffffffffffffffffffffffffffffffffffff021916908373ffffffffffffffffffffffffffffffffffffffff1602179055506001905090565b5f611e32612269565b6040015173ffffffffffffffffffffffffffffffffffffffff163373ffffffffffffffffffffffffffffffffffffffff1614611ea3576040517f08c379a0000000000000000000000000000000000000000000000000000000008152600401611e9a906138e9565b60405180910390fd5b5f5f9054906101000a900460ff1615611ef1576040517f08c379a0000000000000000000000000000000000000000000000000000000008152600401611ee89061302b565b60405180910390fd5b60026003811115611f0557611f046129de565b5b5f60019054906101000a900460ff166003811115611f2657611f256129de565b5b03611f66576040517f08c379a0000000000000000000000000000000000000000000000000000000008152600401611f5d90613093565b60405180910390fd5b5f611f6f612269565b905060015f5f6101000a81548160ff02191690831515021790555060016003811115611f9e57611f9d6129de565b5b5f60019054906101000a900460ff166003811115611fbf57611fbe6129de565b5b14611fff576040517f08c379a0000000000000000000000000000000000000000000000000000000008152600401611ff690613951565b60405180910390fd5b600180811115612012576120116129de565b5b5f60029054906101000a900460ff166001811115612033576120326129de565b5b03612073576040517f08c379a000000000000000000000000000000000000000000000000000000000815260040161206a906139b9565b60405180910390fd5b5f8160c0015161010001516040015190508060025410156120c9576040517f08c379a00000000000000000000000000000000000000000000000000000000081526004016120c090613a21565b60405180910390fd5b5f826040015190508160025f8282546120e291906135d1565b9250508190555073eeeeeeeeeeeeeeeeeeeeeeeeeeeeeeeeeeeeeeee73ffffffffffffffffffffffffffffffffffffffff168360c001516040015173ffffffffffffffffffffffffffffffffffffffff1603612181578073ffffffffffffffffffffffffffffffffffffffff166108fc8390811502906040515f60405180830381858888f1935050505015801561217b573d5f5f3e3d5ffd5b5061220b565b5f8360c001516040015190508073ffffffffffffffffffffffffffffffffffffffff1663a9059cbb83856040518363ffffffff1660e01b81526004016121c89291906131e8565b6020604051808303815f875af11580156121e4573d5f5f3e3d5ffd5b505050506040513d601f19601f820116820180604052508101906122089190613239565b50505b6122136126be565b61224960025f7f0000000000000000000000000000000000000000000000000000000000000000858760c00151604001516123dc565b93505f5f5f6101000a81548160ff02191690831515021790555050505090565b61227161270d565b5f60039054906101000a900473ffffffffffffffffffffffffffffffffffffffff1673ffffffffffffffffffffffffffffffffffffffff1663bf40fac16040518060400160405280602081526020017f52455345525645445f4d4544414c4c494f4e5f50454e53494f4e535f434f52458152506040518263ffffffff1660e01b81526004016123009190612935565b602060405180830381865afa15801561231b573d5f5f3e3d5ffd5b505050506040513d601f19601f8201168201806040525081019061233f9190612f4e565b73ffffffffffffffffffffffffffffffffffffffff166377bdfdf27f00000000000000000000000000000000000000000000000000000000000000006040518263ffffffff1660e01b815260040161239791906128ac565b6103c060405180830381865afa1580156123b3573d5f5f3e3d5ffd5b505050506040513d601f19601f820116820180604052508101906123d79190613dd2565b905090565b5f5f60039054906101000a900473ffffffffffffffffffffffffffffffffffffffff1673ffffffffffffffffffffffffffffffffffffffff1663bf40fac16040518060400160405280601681526020017f52455345525645445f4d505f54585f4d414e41474552000000000000000000008152506040518263ffffffff1660e01b815260040161246c9190612935565b602060405180830381865afa158015612487573d5f5f3e3d5ffd5b505050506040513d601f19601f820116820180604052508101906124ab9190612f4e565b73ffffffffffffffffffffffffffffffffffffffff1663ee16e6398787877f000000000000000000000000000000000000000000000000000000000000000088886040518763ffffffff1660e01b815260040161250d96959493929190613e8a565b6020604051808303815f875af1158015612529573d5f5f3e3d5ffd5b505050506040513d601f19601f8201168201806040525081019061254d91906131bd565b905095945050505050565b5f612561612269565b90508060c0015160e0015160a00151600254106125cc575f5f60026101000a81548160ff0219169083600181111561259c5761259b6129de565b5b021790555060015f60016101000a81548160ff021916908360038111156125c6576125c56129de565b5b02179055505b50565b5f6201518090505f60038111156125e9576125e86129de565b5b8260038111156125fc576125fb6129de565b5b03156126b95760078161260f9190613ee9565b905060016003811115612625576126246129de565b5b826003811115612638576126376129de565b5b03156126b95760048161264b9190613ee9565b905060026003811115612661576126606129de565b5b826003811115612674576126736129de565b5b03156126b9576003816126879190613ee9565b905060038081111561269c5761269b6129de565b5b8260038111156126af576126ae6129de565b5b03156126b9575f90505b919050565b5f6126c7612269565b90508060c00151610100015160a001516003541061270a5760015f60026101000a81548160ff02191690836001811115612704576127036129de565b5b02179055505b50565b6040518060e001604052805f81526020015f73ffffffffffffffffffffffffffffffffffffffff1681526020015f73ffffffffffffffffffffffffffffffffffffffff1681526020015f73ffffffffffffffffffffffffffffffffffffffff1681526020015f81526020015f815260200161278661278c565b81525090565b604051806101a001604052805f81526020015f73ffffffffffffffffffffffffffffffffffffffff1681526020015f73ffffffffffffffffffffffffffffffffffffffff1681526020015f81526020015f81526020015f81526020015f60028111156127fb576127fa6129de565b5b815260200161280861283a565b815260200161281561283a565b815260200161282261287c565b81526020015f81526020015f81526020015f81525090565b6040518060c001604052805f6003811115612858576128576129de565b5b81526020015f81526020015f81526020015f81526020015f81526020015f81525090565b60405180604001604052805f81526020015f81525090565b5f819050919050565b6128a681612894565b82525050565b5f6020820190506128bf5f83018461289d565b92915050565b5f81519050919050565b5f82825260208201905092915050565b8281835e5f83830152505050565b5f601f19601f8301169050919050565b5f612907826128c5565b61291181856128cf565b93506129218185602086016128df565b61292a816128ed565b840191505092915050565b5f6020820190508181035f83015261294d81846128fd565b905092915050565b5f604051905090565b5f5ffd5b61296b81612894565b8114612975575f5ffd5b50565b5f8135905061298681612962565b92915050565b5f602082840312156129a1576129a061295e565b5b5f6129ae84828501612978565b91505092915050565b5f6040820190506129ca5f83018561289d565b6129d7602083018461289d565b9392505050565b7f4e487b71000000000000000000000000000000000000000000000000000000005f52602160045260245ffd5b60048110612a1c57612a1b6129de565b5b50565b5f819050612a2c82612a0b565b919050565b5f612a3b82612a1f565b9050919050565b612a4b81612a31565b82525050565b5f602082019050612a645f830184612a42565b92915050565b5f73ffffffffffffffffffffffffffffffffffffffff82169050919050565b5f612a9382612a6a565b9050919050565b612aa381612a89565b8114612aad575f5ffd5b50565b5f81359050612abe81612a9a565b92915050565b5f60208284031215612ad957612ad861295e565b5b5f612ae684828501612ab0565b91505092915050565b612af881612894565b82525050565b612b0781612a89565b82525050565b60038110612b1e57612b1d6129de565b5b50565b5f819050612b2e82612b0d565b919050565b5f612b3d82612b21565b9050919050565b612b4d81612b33565b82525050565b60048110612b6457612b636129de565b5b50565b5f819050612b7482612b53565b919050565b5f612b8382612b67565b9050919050565b612b9381612b79565b82525050565b60c082015f820151612bad5f850182612b8a565b506020820151612bc06020850182612aef565b506040820151612bd36040850182612aef565b506060820151612be66060850182612aef565b506080820151612bf96080850182612aef565b5060a0820151612c0c60a0850182612aef565b50505050565b604082015f820151612c265f850182612aef565b506020820151612c396020850182612aef565b50505050565b61030082015f820151612c545f850182612aef565b506020820151612c676020850182612afe565b506040820151612c7a6040850182612afe565b506060820151612c8d6060850182612aef565b506080820151612ca06080850182612aef565b5060a0820151612cb360a0850182612aef565b5060c0820151612cc660c0850182612b44565b5060e0820151612cd960e0850182612b99565b50610100820151612cee6101a0850182612b99565b50610120820151612d03610260850182612c12565b50610140820151612d186102a0850182612aef565b50610160820151612d2d6102c0850182612aef565b50610180820151612d426102e0850182612aef565b50505050565b6103c082015f820151612d5d5f850182612aef565b506020820151612d706020850182612afe565b506040820151612d836040850182612afe565b506060820151612d966060850182612afe565b506080820151612da96080850182612aef565b5060a0820151612dbc60a0850182612aef565b5060c0820151612dcf60c0850182612c3f565b50505050565b5f6103c082019050612de95f830184612d48565b92915050565b5f5f5f60608486031215612e0657612e0561295e565b5b5f612e1386828701612978565b9350506020612e2486828701612978565b9250506040612e3586828701612978565b9150509250925092565b5f81519050919050565b5f82825260208201905092915050565b5f819050602082019050919050565b5f612e738383612aef565b60208301905092915050565b5f602082019050919050565b5f612e9582612e3f565b612e9f8185612e49565b9350612eaa83612e59565b805f5b83811015612eda578151612ec18882612e68565b9750612ecc83612e7f565b925050600181019050612ead565b5085935050505092915050565b5f6020820190508181035f830152612eff8184612e8b565b905092915050565b5f8115159050919050565b612f1b81612f07565b82525050565b5f602082019050612f345f830184612f12565b92915050565b5f81519050612f4881612a9a565b92915050565b5f60208284031215612f6357612f6261295e565b5b5f612f7084828501612f3a565b91505092915050565b7f50656e73696f6e2041646d696e204f6e6c7900000000000000000000000000005f82015250565b5f612fad6012836128cf565b9150612fb882612f79565b602082019050919050565b5f6020820190508181035f830152612fda81612fa1565b9050919050565b7f7661756c74206c6f636b656400000000000000000000000000000000000000005f82015250565b5f613015600c836128cf565b915061302082612fe1565b602082019050919050565b5f6020820190508181035f83015261304281613009565b9050919050565b7f7661756c7420636c6f73656400000000000000000000000000000000000000005f82015250565b5f61307d600c836128cf565b915061308882613049565b602082019050919050565b5f6020820190508181035f8301526130aa81613071565b9050919050565b7f70656e73696f6e20636c6f7365640000000000000000000000000000000000005f82015250565b5f6130e5600e836128cf565b91506130f0826130b1565b602082019050919050565b5f6020820190508181035f830152613112816130d9565b9050919050565b7f70656e73696f6e20696e207472656173757279000000000000000000000000005f82015250565b5f61314d6013836128cf565b915061315882613119565b602082019050919050565b5f6020820190508181035f83015261317a81613141565b9050919050565b61318a81612a89565b82525050565b5f6020820190506131a35f830184613181565b92915050565b5f815190506131b781612962565b92915050565b5f602082840312156131d2576131d161295e565b5b5f6131df848285016131a9565b91505092915050565b5f6040820190506131fb5f830185613181565b613208602083018461289d565b9392505050565b61321881612f07565b8114613222575f5ffd5b50565b5f815190506132338161320f565b92915050565b5f6020828403121561324e5761324d61295e565b5b5f61325b84828501613225565b91505092915050565b7f5472656173757279204f6e6c79000000000000000000000000000000000000005f82015250565b5f613298600d836128cf565b91506132a382613264565b602082019050919050565b5f6020820190508181035f8301526132c58161328c565b9050919050565b7f696e76616c69642070656e73696f6e2070756c6c2073746174650000000000005f82015250565b5f613300601a836128cf565b915061330b826132cc565b602082019050919050565b5f6020820190508181035f83015261332d816132f4565b9050919050565b7f7661756c7420616c72656164792070756c6c65640000000000000000000000005f82015250565b5f6133686014836128cf565b915061337382613334565b602082019050919050565b5f6020820190508181035f8301526133958161335c565b9050919050565b7f70656e73696f6e206e6f7420636c6f73656400000000000000000000000000005f82015250565b5f6133d06012836128cf565b91506133db8261339c565b602082019050919050565b5f6020820190508181035f8301526133fd816133c4565b9050919050565b7f696e73756666696369656e74207072696e636970616c2072657475726e6564005f82015250565b5f613438601f836128cf565b915061344382613404565b602082019050919050565b5f6020820190508181035f8301526134658161342c565b9050919050565b7f4e487b71000000000000000000000000000000000000000000000000000000005f52601160045260245ffd5b5f6134a382612894565b91506134ae83612894565b92508282019050808211156134c6576134c561346c565b5b92915050565b7f7661756c74206e6f742070756c6c6564000000000000000000000000000000005f82015250565b5f6135006010836128cf565b915061350b826134cc565b602082019050919050565b5f6020820190508181035f83015261352d816134f4565b9050919050565b7f696e7375666669656e74207472616e736d69747465642076616c7565000000005f82015250565b5f613568601c836128cf565b915061357382613534565b602082019050919050565b5f6020820190508181035f8301526135958161355c565b9050919050565b5f6060820190506135af5f830186613181565b6135bc6020830185613181565b6135c9604083018461289d565b949350505050565b5f6135db82612894565b91506135e683612894565b92508282039050818111156135fe576135fd61346c565b5b92915050565b7f636f6e747269627574696f6e7320746f6f206672657175656e742077616974205f8201527f7265717569726564200000000000000000000000000000000000000000000000602082015250565b5f61365e6029836128cf565b915061366982613604565b604082019050919050565b5f6020820190508181035f83015261368b81613652565b9050919050565b7f70656e73696f6e206d61747572656400000000000000000000000000000000005f82015250565b5f6136c6600f836128cf565b91506136d182613692565b602082019050919050565b5f6020820190508181035f8301526136f3816136ba565b9050919050565b7f70656e73696f6e206e6f74206f70656e000000000000000000000000000000005f82015250565b5f61372e6010836128cf565b9150613739826136fa565b602082019050919050565b5f6020820190508181035f83015261375b81613722565b9050919050565b7f696e76616c696420636f6e747269627574696f6e2065697468657220726169735f8201527f65206f72206c6f77657220616d6f756e74000000000000000000000000000000602082015250565b5f6137bc6031836128cf565b91506137c782613762565b604082019050919050565b5f6020820190508181035f8301526137e9816137b0565b9050919050565b7f636f6e747269627574696f6e206d69732d6d61746368000000000000000000005f82015250565b5f6138246016836128cf565b915061382f826137f0565b602082019050919050565b5f6020820190508181035f83015261385181613818565b9050919050565b5f61386282612894565b91507fffffffffffffffffffffffffffffffffffffffffffffffffffffffffffffffff82036138945761389361346c565b5b600182019050919050565b7f6f776e6572206f6e6c79000000000000000000000000000000000000000000005f82015250565b5f6138d3600a836128cf565b91506138de8261389f565b602082019050919050565b5f6020820190508181035f830152613900816138c7565b9050919050565b7f696e76616c69642070656e73696f6e20737461747573000000000000000000005f82015250565b5f61393b6016836128cf565b915061394682613907565b602082019050919050565b5f6020820190508181035f8301526139688161392f565b9050919050565b7f70656e73696f6e20736574746c656400000000000000000000000000000000005f82015250565b5f6139a3600f836128cf565b91506139ae8261396f565b602082019050919050565b5f6020820190508181035f8301526139d081613997565b9050919050565b7f696e73756666696369656e7420656d6d697373696f6e2062616c616e636500005f82015250565b5f613a0b601e836128cf565b9150613a16826139d7565b602082019050919050565b5f6020820190508181035f830152613a38816139ff565b9050919050565b5f5ffd5b7f4e487b71000000000000000000000000000000000000000000000000000000005f52604160045260245ffd5b613a79826128ed565b810181811067ffffffffffffffff82111715613a9857613a97613a43565b5b80604052505050565b5f613aaa612955565b9050613ab68282613a70565b919050565b60038110613ac7575f5ffd5b50565b5f81519050613ad881613abb565b92915050565b60048110613aea575f5ffd5b50565b5f81519050613afb81613ade565b92915050565b5f60c08284031215613b1657613b15613a3f565b5b613b2060c0613aa1565b90505f613b2f84828501613aed565b5f830152506020613b42848285016131a9565b6020830152506040613b56848285016131a9565b6040830152506060613b6a848285016131a9565b6060830152506080613b7e848285016131a9565b60808301525060a0613b92848285016131a9565b60a08301525092915050565b5f60408284031215613bb357613bb2613a3f565b5b613bbd6040613aa1565b90505f613bcc848285016131a9565b5f830152506020613bdf848285016131a9565b60208301525092915050565b5f6103008284031215613c0157613c00613a3f565b5b613c0c6101a0613aa1565b90505f613c1b848285016131a9565b5f830152506020613c2e84828501612f3a565b6020830152506040613c4284828501612f3a565b6040830152506060613c56848285016131a9565b6060830152506080613c6a848285016131a9565b60808301525060a0613c7e848285016131a9565b60a08301525060c0613c9284828501613aca565b60c08301525060e0613ca684828501613b01565b60e0830152506101a0613cbb84828501613b01565b61010083015250610260613cd184828501613b9e565b610120830152506102a0613ce7848285016131a9565b610140830152506102c0613cfd848285016131a9565b610160830152506102e0613d13848285016131a9565b6101808301525092915050565b5f6103c08284031215613d3657613d35613a3f565b5b613d4060e0613aa1565b90505f613d4f848285016131a9565b5f830152506020613d6284828501612f3a565b6020830152506040613d7684828501612f3a565b6040830152506060613d8a84828501612f3a565b6060830152506080613d9e848285016131a9565b60808301525060a0613db2848285016131a9565b60a08301525060c0613dc684828501613beb565b60c08301525092915050565b5f6103c08284031215613de857613de761295e565b5b5f613df584828501613d20565b91505092915050565b600a8110613e0f57613e0e6129de565b5b50565b5f819050613e1f82613dfe565b919050565b5f613e2e82613e12565b9050919050565b613e3e81613e24565b82525050565b60068110613e5557613e546129de565b5b50565b5f819050613e6582613e44565b919050565b5f613e7482613e58565b9050919050565b613e8481613e6a565b82525050565b5f60c082019050613e9d5f830189613e35565b613eaa6020830188613e7b565b613eb7604083018761289d565b613ec46060830186613181565b613ed1608083018561289d565b613ede60a0830184613181565b979650505050505050565b5f613ef382612894565b9150613efe83612894565b9250828202613f0c81612894565b91508282048414831517613f2357613f2261346c565b5b509291505056fea26469706673582212206881b15a3b982f6295be18a8fb204158dc1abac03939a43a35dbe5804abc223164736f6c634300081e0033",
					"opcodes": "PUSH1 0xC0 PUSH1 0x40 MSTORE CALLVALUE DUP1 ISZERO PUSH2 0xF JUMPI PUSH0 PUSH0 REVERT JUMPDEST POP PUSH1 0x40 MLOAD PUSH2 0x41A7 CODESIZE SUB DUP1 PUSH2 0x41A7 DUP4 CODECOPY DUP2 DUP2 ADD PUSH1 0x40 MSTORE DUP2 ADD SWAP1 PUSH2 0x31 SWAP2 SWAP1 PUSH2 0x16E JUMP JUMPDEST DUP2 PUSH0 PUSH1 0x3 PUSH2 0x100 EXP DUP2 SLOAD DUP2 PUSH20 0xFFFFFFFFFFFFFFFFFFFFFFFFFFFFFFFFFFFFFFFF MUL NOT AND SWAP1 DUP4 PUSH20 0xFFFFFFFFFFFFFFFFFFFFFFFFFFFFFFFFFFFFFFFF AND MUL OR SWAP1 SSTORE POP DUP1 PUSH1 0x80 DUP2 DUP2 MSTORE POP POP PUSH0 PUSH0 PUSH1 0x1 PUSH2 0x100 EXP DUP2 SLOAD DUP2 PUSH1 0xFF MUL NOT AND SWAP1 DUP4 PUSH1 0x3 DUP2 GT ISZERO PUSH2 0x9D JUMPI PUSH2 0x9C PUSH2 0x1AC JUMP JUMPDEST JUMPDEST MUL OR SWAP1 SSTORE POP ADDRESS PUSH20 0xFFFFFFFFFFFFFFFFFFFFFFFFFFFFFFFFFFFFFFFF AND PUSH1 0xA0 DUP2 PUSH20 0xFFFFFFFFFFFFFFFFFFFFFFFFFFFFFFFFFFFFFFFF AND DUP2 MSTORE POP POP POP POP PUSH2 0x1D9 JUMP JUMPDEST PUSH0 PUSH0 REVERT JUMPDEST PUSH0 PUSH20 0xFFFFFFFFFFFFFFFFFFFFFFFFFFFFFFFFFFFFFFFF DUP3 AND SWAP1 POP SWAP2 SWAP1 POP JUMP JUMPDEST PUSH0 PUSH2 0x10A DUP3 PUSH2 0xE1 JUMP JUMPDEST SWAP1 POP SWAP2 SWAP1 POP JUMP JUMPDEST PUSH2 0x11A DUP2 PUSH2 0x100 JUMP JUMPDEST DUP2 EQ PUSH2 0x124 JUMPI PUSH0 PUSH0 REVERT JUMPDEST POP JUMP JUMPDEST PUSH0 DUP2 MLOAD SWAP1 POP PUSH2 0x135 DUP2 PUSH2 0x111 JUMP JUMPDEST SWAP3 SWAP2 POP POP JUMP JUMPDEST PUSH0 DUP2 SWAP1 POP SWAP2 SWAP1 POP JUMP JUMPDEST PUSH2 0x14D DUP2 PUSH2 0x13B JUMP JUMPDEST DUP2 EQ PUSH2 0x157 JUMPI PUSH0 PUSH0 REVERT JUMPDEST POP JUMP JUMPDEST PUSH0 DUP2 MLOAD SWAP1 POP PUSH2 0x168 DUP2 PUSH2 0x144 JUMP JUMPDEST SWAP3 SWAP2 POP POP JUMP JUMPDEST PUSH0 PUSH0 PUSH1 0x40 DUP4 DUP6 SUB SLT ISZERO PUSH2 0x184 JUMPI PUSH2 0x183 PUSH2 0xDD JUMP JUMPDEST JUMPDEST PUSH0 PUSH2 0x191 DUP6 DUP3 DUP7 ADD PUSH2 0x127 JUMP JUMPDEST SWAP3 POP POP PUSH1 0x20 PUSH2 0x1A2 DUP6 DUP3 DUP7 ADD PUSH2 0x15A JUMP JUMPDEST SWAP2 POP POP SWAP3 POP SWAP3 SWAP1 POP JUMP JUMPDEST PUSH32 0x4E487B7100000000000000000000000000000000000000000000000000000000 PUSH0 MSTORE PUSH1 0x21 PUSH1 0x4 MSTORE PUSH1 0x24 PUSH0 REVERT JUMPDEST PUSH1 0x80 MLOAD PUSH1 0xA0 MLOAD PUSH2 0x3F60 PUSH2 0x247 PUSH0 CODECOPY PUSH0 DUP2 DUP2 PUSH2 0x6DE ADD MSTORE DUP2 DUP2 PUSH2 0x78D ADD MSTORE DUP2 DUP2 PUSH2 0x105F ADD MSTORE DUP2 DUP2 PUSH2 0x1102 ADD MSTORE DUP2 DUP2 PUSH2 0x159A ADD MSTORE DUP2 DUP2 PUSH2 0x1ACA ADD MSTORE PUSH2 0x24CB ADD MSTORE PUSH0 DUP2 DUP2 PUSH2 0x893 ADD MSTORE DUP2 DUP2 PUSH2 0xCFB ADD MSTORE DUP2 DUP2 PUSH2 0x165D ADD MSTORE DUP2 DUP2 PUSH2 0x1B8A ADD MSTORE DUP2 DUP2 PUSH2 0x221B ADD MSTORE PUSH2 0x235C ADD MSTORE PUSH2 0x3F60 PUSH0 RETURN INVALID PUSH1 0x80 PUSH1 0x40 MSTORE PUSH1 0x4 CALLDATASIZE LT PUSH2 0xC1 JUMPI PUSH0 CALLDATALOAD PUSH1 0xE0 SHR DUP1 PUSH4 0x51CFF8D9 GT PUSH2 0x7E JUMPI DUP1 PUSH4 0xB8C89338 GT PUSH2 0x58 JUMPI DUP1 PUSH4 0xB8C89338 EQ PUSH2 0x26A JUMPI DUP1 PUSH4 0xC1CBBCA7 EQ PUSH2 0x2A6 JUMPI DUP1 PUSH4 0xCDE4C10C EQ PUSH2 0x2D6 JUMPI DUP1 PUSH4 0xE77EF21F EQ PUSH2 0x300 JUMPI PUSH2 0xC1 JUMP JUMPDEST DUP1 PUSH4 0x51CFF8D9 EQ PUSH2 0x1D4 JUMPI DUP1 PUSH4 0x73488018 EQ PUSH2 0x210 JUMPI DUP1 PUSH4 0x9F08C755 EQ PUSH2 0x23A JUMPI PUSH2 0xC1 JUMP JUMPDEST DUP1 PUSH4 0xD8E6E2C EQ PUSH2 0xC5 JUMPI DUP1 PUSH4 0x12065FE0 EQ PUSH2 0xEF JUMPI DUP1 PUSH4 0x17D7DE7C EQ PUSH2 0x119 JUMPI DUP1 PUSH4 0x43D726D6 EQ PUSH2 0x143 JUMPI DUP1 PUSH4 0x4D0392A8 EQ PUSH2 0x16D JUMPI DUP1 PUSH4 0x4E69D560 EQ PUSH2 0x1AA JUMPI JUMPDEST PUSH0 PUSH0 REVERT JUMPDEST CALLVALUE DUP1 ISZERO PUSH2 0xD0 JUMPI PUSH0 PUSH0 REVERT JUMPDEST POP PUSH2 0xD9 PUSH2 0x32A JUMP JUMPDEST PUSH1 0x40 MLOAD PUSH2 0xE6 SWAP2 SWAP1 PUSH2 0x28AC JUMP JUMPDEST PUSH1 0x40 MLOAD DUP1 SWAP2 SUB SWAP1 RETURN JUMPDEST CALLVALUE DUP1 ISZERO PUSH2 0xFA JUMPI PUSH0 PUSH0 REVERT JUMPDEST POP PUSH2 0x103 PUSH2 0x332 JUMP JUMPDEST PUSH1 0x40 MLOAD PUSH2 0x110 SWAP2 SWAP1 PUSH2 0x28AC JUMP JUMPDEST PUSH1 0x40 MLOAD DUP1 SWAP2 SUB SWAP1 RETURN JUMPDEST CALLVALUE DUP1 ISZERO PUSH2 0x124 JUMPI PUSH0 PUSH0 REVERT JUMPDEST POP PUSH2 0x12D PUSH2 0x33B JUMP JUMPDEST PUSH1 0x40 MLOAD PUSH2 0x13A SWAP2 SWAP1 PUSH2 0x2935 JUMP JUMPDEST PUSH1 0x40 MLOAD DUP1 SWAP2 SUB SWAP1 RETURN JUMPDEST CALLVALUE DUP1 ISZERO PUSH2 0x14E JUMPI PUSH0 PUSH0 REVERT JUMPDEST POP PUSH2 0x157 PUSH2 0x378 JUMP JUMPDEST PUSH1 0x40 MLOAD PUSH2 0x164 SWAP2 SWAP1 PUSH2 0x28AC JUMP JUMPDEST PUSH1 0x40 MLOAD DUP1 SWAP2 SUB SWAP1 RETURN JUMPDEST CALLVALUE DUP1 ISZERO PUSH2 0x178 JUMPI PUSH0 PUSH0 REVERT JUMPDEST POP PUSH2 0x193 PUSH1 0x4 DUP1 CALLDATASIZE SUB DUP2 ADD SWAP1 PUSH2 0x18E SWAP2 SWAP1 PUSH2 0x298C JUMP JUMPDEST PUSH2 0x8C8 JUMP JUMPDEST PUSH1 0x40 MLOAD PUSH2 0x1A1 SWAP3 SWAP2 SWAP1 PUSH2 0x29B7 JUMP JUMPDEST PUSH1 0x40 MLOAD DUP1 SWAP2 SUB SWAP1 RETURN JUMPDEST CALLVALUE DUP1 ISZERO PUSH2 0x1B5 JUMPI PUSH0 PUSH0 REVERT JUMPDEST POP PUSH2 0x1BE PUSH2 0xD7F JUMP JUMPDEST PUSH1 0x40 MLOAD PUSH2 0x1CB SWAP2 SWAP1 PUSH2 0x2A51 JUMP JUMPDEST PUSH1 0x40 MLOAD DUP1 SWAP2 SUB SWAP1 RETURN JUMPDEST CALLVALUE DUP1 ISZERO PUSH2 0x1DF JUMPI PUSH0 PUSH0 REVERT JUMPDEST POP PUSH2 0x1FA PUSH1 0x4 DUP1 CALLDATASIZE SUB DUP2 ADD SWAP1 PUSH2 0x1F5 SWAP2 SWAP1 PUSH2 0x2AC4 JUMP JUMPDEST PUSH2 0xD94 JUMP JUMPDEST PUSH1 0x40 MLOAD PUSH2 0x207 SWAP2 SWAP1 PUSH2 0x28AC JUMP JUMPDEST PUSH1 0x40 MLOAD DUP1 SWAP2 SUB SWAP1 RETURN JUMPDEST CALLVALUE DUP1 ISZERO PUSH2 0x21B JUMPI PUSH0 PUSH0 REVERT JUMPDEST POP PUSH2 0x224 PUSH2 0x1202 JUMP JUMPDEST PUSH1 0x40 MLOAD PUSH2 0x231 SWAP2 SWAP1 PUSH2 0x2DD5 JUMP JUMPDEST PUSH1 0x40 MLOAD DUP1 SWAP2 SUB SWAP1 RETURN JUMPDEST PUSH2 0x254 PUSH1 0x4 DUP1 CALLDATASIZE SUB DUP2 ADD SWAP1 PUSH2 0x24F SWAP2 SWAP1 PUSH2 0x2DEF JUMP JUMPDEST PUSH2 0x1217 JUMP JUMPDEST PUSH1 0x40 MLOAD PUSH2 0x261 SWAP2 SWAP1 PUSH2 0x28AC JUMP JUMPDEST PUSH1 0x40 MLOAD DUP1 SWAP2 SUB SWAP1 RETURN JUMPDEST CALLVALUE DUP1 ISZERO PUSH2 0x275 JUMPI PUSH0 PUSH0 REVERT JUMPDEST POP PUSH2 0x290 PUSH1 0x4 DUP1 CALLDATASIZE SUB DUP2 ADD SWAP1 PUSH2 0x28B SWAP2 SWAP1 PUSH2 0x298C JUMP JUMPDEST PUSH2 0x16FE JUMP JUMPDEST PUSH1 0x40 MLOAD PUSH2 0x29D SWAP2 SWAP1 PUSH2 0x2EE7 JUMP JUMPDEST PUSH1 0x40 MLOAD DUP1 SWAP2 SUB SWAP1 RETURN JUMPDEST PUSH2 0x2C0 PUSH1 0x4 DUP1 CALLDATASIZE SUB DUP2 ADD SWAP1 PUSH2 0x2BB SWAP2 SWAP1 PUSH2 0x298C JUMP JUMPDEST PUSH2 0x1765 JUMP JUMPDEST PUSH1 0x40 MLOAD PUSH2 0x2CD SWAP2 SWAP1 PUSH2 0x28AC JUMP JUMPDEST PUSH1 0x40 MLOAD DUP1 SWAP2 SUB SWAP1 RETURN JUMPDEST CALLVALUE DUP1 ISZERO PUSH2 0x2E1 JUMPI PUSH0 PUSH0 REVERT JUMPDEST POP PUSH2 0x2EA PUSH2 0x1BD9 JUMP JUMPDEST PUSH1 0x40 MLOAD PUSH2 0x2F7 SWAP2 SWAP1 PUSH2 0x2F21 JUMP JUMPDEST PUSH1 0x40 MLOAD DUP1 SWAP2 SUB SWAP1 RETURN JUMPDEST CALLVALUE DUP1 ISZERO PUSH2 0x30B JUMPI PUSH0 PUSH0 REVERT JUMPDEST POP PUSH2 0x314 PUSH2 0x1E29 JUMP JUMPDEST PUSH1 0x40 MLOAD PUSH2 0x321 SWAP2 SWAP1 PUSH2 0x28AC JUMP JUMPDEST PUSH1 0x40 MLOAD DUP1 SWAP2 SUB SWAP1 RETURN JUMPDEST PUSH0 PUSH1 0x2 SWAP1 POP SWAP1 JUMP JUMPDEST PUSH0 PUSH1 0x2 SLOAD SWAP1 POP SWAP1 JUMP JUMPDEST PUSH1 0x60 PUSH1 0x40 MLOAD DUP1 PUSH1 0x40 ADD PUSH1 0x40 MSTORE DUP1 PUSH1 0x17 DUP2 MSTORE PUSH1 0x20 ADD PUSH32 0x4D4544414C4C494F4E5F50454E53494F4E5F5641554C54000000000000000000 DUP2 MSTORE POP SWAP1 POP SWAP1 JUMP JUMPDEST PUSH0 PUSH0 PUSH1 0x3 SWAP1 SLOAD SWAP1 PUSH2 0x100 EXP SWAP1 DIV PUSH20 0xFFFFFFFFFFFFFFFFFFFFFFFFFFFFFFFFFFFFFFFF AND PUSH20 0xFFFFFFFFFFFFFFFFFFFFFFFFFFFFFFFFFFFFFFFF AND PUSH4 0xBF40FAC1 PUSH1 0x40 MLOAD DUP1 PUSH1 0x40 ADD PUSH1 0x40 MSTORE DUP1 PUSH1 0x11 DUP2 MSTORE PUSH1 0x20 ADD PUSH32 0x52455345525645445F4D505F41444D494E000000000000000000000000000000 DUP2 MSTORE POP PUSH1 0x40 MLOAD DUP3 PUSH4 0xFFFFFFFF AND PUSH1 0xE0 SHL DUP2 MSTORE PUSH1 0x4 ADD PUSH2 0x408 SWAP2 SWAP1 PUSH2 0x2935 JUMP JUMPDEST PUSH1 0x20 PUSH1 0x40 MLOAD DUP1 DUP4 SUB DUP2 DUP7 GAS STATICCALL ISZERO DUP1 ISZERO PUSH2 0x423 JUMPI RETURNDATASIZE PUSH0 PUSH0 RETURNDATACOPY RETURNDATASIZE PUSH0 REVERT JUMPDEST POP POP POP POP PUSH1 0x40 MLOAD RETURNDATASIZE PUSH1 0x1F NOT PUSH1 0x1F DUP3 ADD AND DUP3 ADD DUP1 PUSH1 0x40 MSTORE POP DUP2 ADD SWAP1 PUSH2 0x447 SWAP2 SWAP1 PUSH2 0x2F4E JUMP JUMPDEST PUSH20 0xFFFFFFFFFFFFFFFFFFFFFFFFFFFFFFFFFFFFFFFF AND CALLER PUSH20 0xFFFFFFFFFFFFFFFFFFFFFFFFFFFFFFFFFFFFFFFF AND EQ PUSH2 0x4B4 JUMPI PUSH1 0x40 MLOAD PUSH32 0x8C379A000000000000000000000000000000000000000000000000000000000 DUP2 MSTORE PUSH1 0x4 ADD PUSH2 0x4AB SWAP1 PUSH2 0x2FC3 JUMP JUMPDEST PUSH1 0x40 MLOAD DUP1 SWAP2 SUB SWAP1 REVERT JUMPDEST PUSH0 PUSH0 SWAP1 SLOAD SWAP1 PUSH2 0x100 EXP SWAP1 DIV PUSH1 0xFF AND ISZERO PUSH2 0x502 JUMPI PUSH1 0x40 MLOAD PUSH32 0x8C379A000000000000000000000000000000000000000000000000000000000 DUP2 MSTORE PUSH1 0x4 ADD PUSH2 0x4F9 SWAP1 PUSH2 0x302B JUMP JUMPDEST PUSH1 0x40 MLOAD DUP1 SWAP2 SUB SWAP1 REVERT JUMPDEST PUSH1 0x2 PUSH1 0x3 DUP2 GT ISZERO PUSH2 0x516 JUMPI PUSH2 0x515 PUSH2 0x29DE JUMP JUMPDEST JUMPDEST PUSH0 PUSH1 0x1 SWAP1 SLOAD SWAP1 PUSH2 0x100 EXP SWAP1 DIV PUSH1 0xFF AND PUSH1 0x3 DUP2 GT ISZERO PUSH2 0x537 JUMPI PUSH2 0x536 PUSH2 0x29DE JUMP JUMPDEST JUMPDEST SUB PUSH2 0x577 JUMPI PUSH1 0x40 MLOAD PUSH32 0x8C379A000000000000000000000000000000000000000000000000000000000 DUP2 MSTORE PUSH1 0x4 ADD PUSH2 0x56E SWAP1 PUSH2 0x3093 JUMP JUMPDEST PUSH1 0x40 MLOAD DUP1 SWAP2 SUB SWAP1 REVERT JUMPDEST PUSH0 PUSH2 0x580 PUSH2 0x2269 JUMP JUMPDEST SWAP1 POP PUSH1 0x2 PUSH1 0x3 DUP2 GT ISZERO PUSH2 0x596 JUMPI PUSH2 0x595 PUSH2 0x29DE JUMP JUMPDEST JUMPDEST PUSH0 PUSH1 0x1 SWAP1 SLOAD SWAP1 PUSH2 0x100 EXP SWAP1 DIV PUSH1 0xFF AND PUSH1 0x3 DUP2 GT ISZERO PUSH2 0x5B7 JUMPI PUSH2 0x5B6 PUSH2 0x29DE JUMP JUMPDEST JUMPDEST SUB PUSH2 0x5F7 JUMPI PUSH1 0x40 MLOAD PUSH32 0x8C379A000000000000000000000000000000000000000000000000000000000 DUP2 MSTORE PUSH1 0x4 ADD PUSH2 0x5EE SWAP1 PUSH2 0x30FB JUMP JUMPDEST PUSH1 0x40 MLOAD DUP1 SWAP2 SUB SWAP1 REVERT JUMPDEST PUSH1 0x7 PUSH0 SWAP1 SLOAD SWAP1 PUSH2 0x100 EXP SWAP1 DIV PUSH1 0xFF AND ISZERO PUSH2 0x646 JUMPI PUSH1 0x40 MLOAD PUSH32 0x8C379A000000000000000000000000000000000000000000000000000000000 DUP2 MSTORE PUSH1 0x4 ADD PUSH2 0x63D SWAP1 PUSH2 0x3163 JUMP JUMPDEST PUSH1 0x40 MLOAD DUP1 SWAP2 SUB SWAP1 REVERT JUMPDEST PUSH1 0x1 PUSH0 PUSH0 PUSH2 0x100 EXP DUP2 SLOAD DUP2 PUSH1 0xFF MUL NOT AND SWAP1 DUP4 ISZERO ISZERO MUL OR SWAP1 SSTORE POP PUSH1 0x2 PUSH0 PUSH1 0x1 PUSH2 0x100 EXP DUP2 SLOAD DUP2 PUSH1 0xFF MUL NOT AND SWAP1 DUP4 PUSH1 0x3 DUP2 GT ISZERO PUSH2 0x684 JUMPI PUSH2 0x683 PUSH2 0x29DE JUMP JUMPDEST JUMPDEST MUL OR SWAP1 SSTORE POP PUSH0 PUSH0 SWAP1 POP PUSH20 0xEEEEEEEEEEEEEEEEEEEEEEEEEEEEEEEEEEEEEEEE PUSH20 0xFFFFFFFFFFFFFFFFFFFFFFFFFFFFFFFFFFFFFFFF AND DUP3 PUSH1 0xC0 ADD MLOAD PUSH1 0x40 ADD MLOAD PUSH20 0xFFFFFFFFFFFFFFFFFFFFFFFFFFFFFFFFFFFFFFFF AND SUB PUSH2 0x763 JUMPI PUSH32 0x0 PUSH20 0xFFFFFFFFFFFFFFFFFFFFFFFFFFFFFFFFFFFFFFFF AND BALANCE SWAP1 POP DUP2 PUSH1 0x40 ADD MLOAD PUSH20 0xFFFFFFFFFFFFFFFFFFFFFFFFFFFFFFFFFFFFFFFF AND PUSH2 0x8FC DUP3 SWAP1 DUP2 ISZERO MUL SWAP1 PUSH1 0x40 MLOAD PUSH0 PUSH1 0x40 MLOAD DUP1 DUP4 SUB DUP2 DUP6 DUP9 DUP9 CALL SWAP4 POP POP POP POP ISZERO DUP1 ISZERO PUSH2 0x75D JUMPI RETURNDATASIZE PUSH0 PUSH0 RETURNDATACOPY RETURNDATASIZE PUSH0 REVERT JUMPDEST POP PUSH2 0x88B JUMP JUMPDEST PUSH0 DUP3 PUSH1 0xC0 ADD MLOAD PUSH1 0x40 ADD MLOAD SWAP1 POP DUP1 PUSH20 0xFFFFFFFFFFFFFFFFFFFFFFFFFFFFFFFFFFFFFFFF AND PUSH4 0x70A08231 PUSH32 0x0 PUSH1 0x40 MLOAD DUP3 PUSH4 0xFFFFFFFF AND PUSH1 0xE0 SHL DUP2 MSTORE PUSH1 0x4 ADD PUSH2 0x7C8 SWAP2 SWAP1 PUSH2 0x3190 JUMP JUMPDEST PUSH1 0x20 PUSH1 0x40 MLOAD DUP1 DUP4 SUB DUP2 DUP7 GAS STATICCALL ISZERO DUP1 ISZERO PUSH2 0x7E3 JUMPI RETURNDATASIZE PUSH0 PUSH0 RETURNDATACOPY RETURNDATASIZE PUSH0 REVERT JUMPDEST POP POP POP POP PUSH1 0x40 MLOAD RETURNDATASIZE PUSH1 0x1F NOT PUSH1 0x1F DUP3 ADD AND DUP3 ADD DUP1 PUSH1 0x40 MSTORE POP DUP2 ADD SWAP1 PUSH2 0x807 SWAP2 SWAP1 PUSH2 0x31BD JUMP JUMPDEST SWAP2 POP DUP1 PUSH20 0xFFFFFFFFFFFFFFFFFFFFFFFFFFFFFFFFFFFFFFFF AND PUSH4 0xA9059CBB DUP5 PUSH1 0x40 ADD MLOAD DUP5 PUSH1 0x40 MLOAD DUP4 PUSH4 0xFFFFFFFF AND PUSH1 0xE0 SHL DUP2 MSTORE PUSH1 0x4 ADD PUSH2 0x848 SWAP3 SWAP2 SWAP1 PUSH2 0x31E8 JUMP JUMPDEST PUSH1 0x20 PUSH1 0x40 MLOAD DUP1 DUP4 SUB DUP2 PUSH0 DUP8 GAS CALL ISZERO DUP1 ISZERO PUSH2 0x864 JUMPI RETURNDATASIZE PUSH0 PUSH0 RETURNDATACOPY RETURNDATASIZE PUSH0 REVERT JUMPDEST POP POP POP POP PUSH1 0x40 MLOAD RETURNDATASIZE PUSH1 0x1F NOT PUSH1 0x1F DUP3 ADD AND DUP3 ADD DUP1 PUSH1 0x40 MSTORE POP DUP2 ADD SWAP1 PUSH2 0x888 SWAP2 SWAP1 PUSH2 0x3239 JUMP JUMPDEST POP POP JUMPDEST PUSH2 0x8C1 PUSH1 0x7 PUSH0 PUSH32 0x0 DUP5 DUP7 PUSH1 0xC0 ADD MLOAD PUSH1 0x40 ADD MLOAD PUSH2 0x23DC JUMP JUMPDEST SWAP3 POP POP POP SWAP1 JUMP JUMPDEST PUSH0 PUSH0 PUSH0 PUSH0 SWAP1 SLOAD SWAP1 PUSH2 0x100 EXP SWAP1 DIV PUSH1 0xFF AND ISZERO PUSH2 0x918 JUMPI PUSH1 0x40 MLOAD PUSH32 0x8C379A000000000000000000000000000000000000000000000000000000000 DUP2 MSTORE PUSH1 0x4 ADD PUSH2 0x90F SWAP1 PUSH2 0x302B JUMP JUMPDEST PUSH1 0x40 MLOAD DUP1 SWAP2 SUB SWAP1 REVERT JUMPDEST PUSH1 0x2 PUSH1 0x3 DUP2 GT ISZERO PUSH2 0x92C JUMPI PUSH2 0x92B PUSH2 0x29DE JUMP JUMPDEST JUMPDEST PUSH0 PUSH1 0x1 SWAP1 SLOAD SWAP1 PUSH2 0x100 EXP SWAP1 DIV PUSH1 0xFF AND PUSH1 0x3 DUP2 GT ISZERO PUSH2 0x94D JUMPI PUSH2 0x94C PUSH2 0x29DE JUMP JUMPDEST JUMPDEST SUB PUSH2 0x98D JUMPI PUSH1 0x40 MLOAD PUSH32 0x8C379A000000000000000000000000000000000000000000000000000000000 DUP2 MSTORE PUSH1 0x4 ADD PUSH2 0x984 SWAP1 PUSH2 0x3093 JUMP JUMPDEST PUSH1 0x40 MLOAD DUP1 SWAP2 SUB SWAP1 REVERT JUMPDEST PUSH0 PUSH1 0x3 SWAP1 SLOAD SWAP1 PUSH2 0x100 EXP SWAP1 DIV PUSH20 0xFFFFFFFFFFFFFFFFFFFFFFFFFFFFFFFFFFFFFFFF AND PUSH20 0xFFFFFFFFFFFFFFFFFFFFFFFFFFFFFFFFFFFFFFFF AND PUSH4 0xBF40FAC1 PUSH1 0x40 MLOAD DUP1 PUSH1 0x40 ADD PUSH1 0x40 MSTORE DUP1 PUSH1 0x14 DUP2 MSTORE PUSH1 0x20 ADD PUSH32 0x52455345525645445F4D505F5452454153555259000000000000000000000000 DUP2 MSTORE POP PUSH1 0x40 MLOAD DUP3 PUSH4 0xFFFFFFFF AND PUSH1 0xE0 SHL DUP2 MSTORE PUSH1 0x4 ADD PUSH2 0xA1C SWAP2 SWAP1 PUSH2 0x2935 JUMP JUMPDEST PUSH1 0x20 PUSH1 0x40 MLOAD DUP1 DUP4 SUB DUP2 DUP7 GAS STATICCALL ISZERO DUP1 ISZERO PUSH2 0xA37 JUMPI RETURNDATASIZE PUSH0 PUSH0 RETURNDATACOPY RETURNDATASIZE PUSH0 REVERT JUMPDEST POP POP POP POP PUSH1 0x40 MLOAD RETURNDATASIZE PUSH1 0x1F NOT PUSH1 0x1F DUP3 ADD AND DUP3 ADD DUP1 PUSH1 0x40 MSTORE POP DUP2 ADD SWAP1 PUSH2 0xA5B SWAP2 SWAP1 PUSH2 0x2F4E JUMP JUMPDEST PUSH20 0xFFFFFFFFFFFFFFFFFFFFFFFFFFFFFFFFFFFFFFFF AND CALLER PUSH20 0xFFFFFFFFFFFFFFFFFFFFFFFFFFFFFFFFFFFFFFFF AND EQ PUSH2 0xAC8 JUMPI PUSH1 0x40 MLOAD PUSH32 0x8C379A000000000000000000000000000000000000000000000000000000000 DUP2 MSTORE PUSH1 0x4 ADD PUSH2 0xABF SWAP1 PUSH2 0x32AE JUMP JUMPDEST PUSH1 0x40 MLOAD DUP1 SWAP2 SUB SWAP1 REVERT JUMPDEST PUSH0 PUSH2 0xAD1 PUSH2 0x2269 JUMP JUMPDEST SWAP1 POP PUSH0 PUSH1 0x3 DUP2 GT ISZERO PUSH2 0xAE6 JUMPI PUSH2 0xAE5 PUSH2 0x29DE JUMP JUMPDEST JUMPDEST PUSH0 PUSH1 0x1 SWAP1 SLOAD SWAP1 PUSH2 0x100 EXP SWAP1 DIV PUSH1 0xFF AND PUSH1 0x3 DUP2 GT ISZERO PUSH2 0xB07 JUMPI PUSH2 0xB06 PUSH2 0x29DE JUMP JUMPDEST JUMPDEST EQ PUSH2 0xB47 JUMPI PUSH1 0x40 MLOAD PUSH32 0x8C379A000000000000000000000000000000000000000000000000000000000 DUP2 MSTORE PUSH1 0x4 ADD PUSH2 0xB3E SWAP1 PUSH2 0x3316 JUMP JUMPDEST PUSH1 0x40 MLOAD DUP1 SWAP2 SUB SWAP1 REVERT JUMPDEST PUSH1 0x1 PUSH0 PUSH0 PUSH2 0x100 EXP DUP2 SLOAD DUP2 PUSH1 0xFF MUL NOT AND SWAP1 DUP4 ISZERO ISZERO MUL OR SWAP1 SSTORE POP PUSH1 0x7 PUSH0 SWAP1 SLOAD SWAP1 PUSH2 0x100 EXP SWAP1 DIV PUSH1 0xFF AND ISZERO PUSH2 0xBAF JUMPI PUSH1 0x40 MLOAD PUSH32 0x8C379A000000000000000000000000000000000000000000000000000000000 DUP2 MSTORE PUSH1 0x4 ADD PUSH2 0xBA6 SWAP1 PUSH2 0x337E JUMP JUMPDEST PUSH1 0x40 MLOAD DUP1 SWAP2 SUB SWAP1 REVERT JUMPDEST PUSH1 0x1 PUSH1 0x7 PUSH0 PUSH2 0x100 EXP DUP2 SLOAD DUP2 PUSH1 0xFF MUL NOT AND SWAP1 DUP4 ISZERO ISZERO MUL OR SWAP1 SSTORE POP PUSH1 0x2 SLOAD SWAP3 POP DUP3 PUSH1 0x6 DUP2 SWAP1 SSTORE POP PUSH0 DUP2 PUSH1 0xC0 ADD MLOAD PUSH1 0x40 ADD MLOAD SWAP1 POP PUSH20 0xEEEEEEEEEEEEEEEEEEEEEEEEEEEEEEEEEEEEEEEE PUSH20 0xFFFFFFFFFFFFFFFFFFFFFFFFFFFFFFFFFFFFFFFF AND DUP2 PUSH20 0xFFFFFFFFFFFFFFFFFFFFFFFFFFFFFFFFFFFFFFFF AND SUB PUSH2 0xC71 JUMPI CALLER PUSH20 0xFFFFFFFFFFFFFFFFFFFFFFFFFFFFFFFFFFFFFFFF AND PUSH2 0x8FC DUP6 SWAP1 DUP2 ISZERO MUL SWAP1 PUSH1 0x40 MLOAD PUSH0 PUSH1 0x40 MLOAD DUP1 DUP4 SUB DUP2 DUP6 DUP9 DUP9 CALL SWAP4 POP POP POP POP ISZERO DUP1 ISZERO PUSH2 0xC6B JUMPI RETURNDATASIZE PUSH0 PUSH0 RETURNDATACOPY RETURNDATASIZE PUSH0 REVERT JUMPDEST POP PUSH2 0xCF3 JUMP JUMPDEST PUSH0 DUP2 SWAP1 POP DUP1 PUSH20 0xFFFFFFFFFFFFFFFFFFFFFFFFFFFFFFFFFFFFFFFF AND PUSH4 0x95EA7B3 CALLER DUP8 PUSH1 0x40 MLOAD DUP4 PUSH4 0xFFFFFFFF AND PUSH1 0xE0 SHL DUP2 MSTORE PUSH1 0x4 ADD PUSH2 0xCB0 SWAP3 SWAP2 SWAP1 PUSH2 0x31E8 JUMP JUMPDEST PUSH1 0x20 PUSH1 0x40 MLOAD DUP1 DUP4 SUB DUP2 PUSH0 DUP8 GAS CALL ISZERO DUP1 ISZERO PUSH2 0xCCC JUMPI RETURNDATASIZE PUSH0 PUSH0 RETURNDATACOPY RETURNDATASIZE PUSH0 REVERT JUMPDEST POP POP POP POP PUSH1 0x40 MLOAD RETURNDATASIZE PUSH1 0x1F NOT PUSH1 0x1F DUP3 ADD AND DUP3 ADD DUP1 PUSH1 0x40 MSTORE POP DUP2 ADD SWAP1 PUSH2 0xCF0 SWAP2 SWAP1 PUSH2 0x3239 JUMP JUMPDEST POP POP JUMPDEST PUSH2 0xD29 PUSH1 0x3 PUSH0 PUSH32 0x0 DUP8 DUP7 PUSH1 0xC0 ADD MLOAD PUSH1 0x40 ADD MLOAD PUSH2 0x23DC JUMP JUMPDEST SWAP3 POP PUSH1 0x8 PUSH0 DUP7 DUP2 MSTORE PUSH1 0x20 ADD SWAP1 DUP2 MSTORE PUSH1 0x20 ADD PUSH0 KECCAK256 DUP4 SWAP1 DUP1 PUSH1 0x1 DUP2 SLOAD ADD DUP1 DUP3 SSTORE DUP1 SWAP2 POP POP PUSH1 0x1 SWAP1 SUB SWAP1 PUSH0 MSTORE PUSH1 0x20 PUSH0 KECCAK256 ADD PUSH0 SWAP1 SWAP2 SWAP1 SWAP2 SWAP1 SWAP2 POP SSTORE PUSH0 PUSH0 PUSH0 PUSH2 0x100 EXP DUP2 SLOAD DUP2 PUSH1 0xFF MUL NOT AND SWAP1 DUP4 ISZERO ISZERO MUL OR SWAP1 SSTORE POP POP POP SWAP2 POP SWAP2 JUMP JUMPDEST PUSH0 PUSH0 PUSH1 0x1 SWAP1 SLOAD SWAP1 PUSH2 0x100 EXP SWAP1 DIV PUSH1 0xFF AND SWAP1 POP SWAP1 JUMP JUMPDEST PUSH0 PUSH0 PUSH1 0x3 SWAP1 SLOAD SWAP1 PUSH2 0x100 EXP SWAP1 DIV PUSH20 0xFFFFFFFFFFFFFFFFFFFFFFFFFFFFFFFFFFFFFFFF AND PUSH20 0xFFFFFFFFFFFFFFFFFFFFFFFFFFFFFFFFFFFFFFFF AND PUSH4 0xBF40FAC1 PUSH1 0x40 MLOAD DUP1 PUSH1 0x40 ADD PUSH1 0x40 MSTORE DUP1 PUSH1 0x11 DUP2 MSTORE PUSH1 0x20 ADD PUSH32 0x52455345525645445F4D505F41444D494E000000000000000000000000000000 DUP2 MSTORE POP PUSH1 0x40 MLOAD DUP3 PUSH4 0xFFFFFFFF AND PUSH1 0xE0 SHL DUP2 MSTORE PUSH1 0x4 ADD PUSH2 0xE24 SWAP2 SWAP1 PUSH2 0x2935 JUMP JUMPDEST PUSH1 0x20 PUSH1 0x40 MLOAD DUP1 DUP4 SUB DUP2 DUP7 GAS STATICCALL ISZERO DUP1 ISZERO PUSH2 0xE3F JUMPI RETURNDATASIZE PUSH0 PUSH0 RETURNDATACOPY RETURNDATASIZE PUSH0 REVERT JUMPDEST POP POP POP POP PUSH1 0x40 MLOAD RETURNDATASIZE PUSH1 0x1F NOT PUSH1 0x1F DUP3 ADD AND DUP3 ADD DUP1 PUSH1 0x40 MSTORE POP DUP2 ADD SWAP1 PUSH2 0xE63 SWAP2 SWAP1 PUSH2 0x2F4E JUMP JUMPDEST PUSH20 0xFFFFFFFFFFFFFFFFFFFFFFFFFFFFFFFFFFFFFFFF AND CALLER PUSH20 0xFFFFFFFFFFFFFFFFFFFFFFFFFFFFFFFFFFFFFFFF AND EQ PUSH2 0xED0 JUMPI PUSH1 0x40 MLOAD PUSH32 0x8C379A000000000000000000000000000000000000000000000000000000000 DUP2 MSTORE PUSH1 0x4 ADD PUSH2 0xEC7 SWAP1 PUSH2 0x2FC3 JUMP JUMPDEST PUSH1 0x40 MLOAD DUP1 SWAP2 SUB SWAP1 REVERT JUMPDEST PUSH1 0x2 PUSH1 0x3 DUP2 GT ISZERO PUSH2 0xEE4 JUMPI PUSH2 0xEE3 PUSH2 0x29DE JUMP JUMPDEST JUMPDEST PUSH0 PUSH1 0x1 SWAP1 SLOAD SWAP1 PUSH2 0x100 EXP SWAP1 DIV PUSH1 0xFF AND PUSH1 0x3 DUP2 GT ISZERO PUSH2 0xF05 JUMPI PUSH2 0xF04 PUSH2 0x29DE JUMP JUMPDEST JUMPDEST EQ PUSH2 0xF45 JUMPI PUSH1 0x40 MLOAD PUSH32 0x8C379A000000000000000000000000000000000000000000000000000000000 DUP2 MSTORE PUSH1 0x4 ADD PUSH2 0xF3C SWAP1 PUSH2 0x33E6 JUMP JUMPDEST PUSH1 0x40 MLOAD DUP1 SWAP2 SUB SWAP1 REVERT JUMPDEST PUSH0 PUSH0 PUSH1 0x3 SWAP1 SLOAD SWAP1 PUSH2 0x100 EXP SWAP1 DIV PUSH20 0xFFFFFFFFFFFFFFFFFFFFFFFFFFFFFFFFFFFFFFFF AND PUSH20 0xFFFFFFFFFFFFFFFFFFFFFFFFFFFFFFFFFFFFFFFF AND PUSH4 0xBF40FAC1 PUSH1 0x40 MLOAD DUP1 PUSH1 0x40 ADD PUSH1 0x40 MSTORE DUP1 PUSH1 0x10 DUP2 MSTORE PUSH1 0x20 ADD PUSH32 0x52455345525645445F4D505F42414E4B00000000000000000000000000000000 DUP2 MSTORE POP PUSH1 0x40 MLOAD DUP3 PUSH4 0xFFFFFFFF AND PUSH1 0xE0 SHL DUP2 MSTORE PUSH1 0x4 ADD PUSH2 0xFD5 SWAP2 SWAP1 PUSH2 0x2935 JUMP JUMPDEST PUSH1 0x20 PUSH1 0x40 MLOAD DUP1 DUP4 SUB DUP2 DUP7 GAS STATICCALL ISZERO DUP1 ISZERO PUSH2 0xFF0 JUMPI RETURNDATASIZE PUSH0 PUSH0 RETURNDATACOPY RETURNDATASIZE PUSH0 REVERT JUMPDEST POP POP POP POP PUSH1 0x40 MLOAD RETURNDATASIZE PUSH1 0x1F NOT PUSH1 0x1F DUP3 ADD AND DUP3 ADD DUP1 PUSH1 0x40 MSTORE POP DUP2 ADD SWAP1 PUSH2 0x1014 SWAP2 SWAP1 PUSH2 0x2F4E JUMP JUMPDEST SWAP1 POP PUSH20 0xEEEEEEEEEEEEEEEEEEEEEEEEEEEEEEEEEEEEEEEE PUSH20 0xFFFFFFFFFFFFFFFFFFFFFFFFFFFFFFFFFFFFFFFF AND DUP4 PUSH20 0xFFFFFFFFFFFFFFFFFFFFFFFFFFFFFFFFFFFFFFFF AND SUB PUSH2 0x10E0 JUMPI PUSH32 0x0 PUSH20 0xFFFFFFFFFFFFFFFFFFFFFFFFFFFFFFFFFFFFFFFF AND BALANCE SWAP2 POP DUP1 PUSH20 0xFFFFFFFFFFFFFFFFFFFFFFFFFFFFFFFFFFFFFFFF AND PUSH2 0x8FC DUP4 SWAP1 DUP2 ISZERO MUL SWAP1 PUSH1 0x40 MLOAD PUSH0 PUSH1 0x40 MLOAD DUP1 DUP4 SUB DUP2 DUP6 DUP9 DUP9 CALL SWAP4 POP POP POP POP ISZERO DUP1 ISZERO PUSH2 0x10DA JUMPI RETURNDATASIZE PUSH0 PUSH0 RETURNDATACOPY RETURNDATASIZE PUSH0 REVERT JUMPDEST POP PUSH2 0x11FC JUMP JUMPDEST PUSH0 DUP4 SWAP1 POP DUP1 PUSH20 0xFFFFFFFFFFFFFFFFFFFFFFFFFFFFFFFFFFFFFFFF AND PUSH4 0x70A08231 PUSH32 0x0 PUSH1 0x40 MLOAD DUP3 PUSH4 0xFFFFFFFF AND PUSH1 0xE0 SHL DUP2 MSTORE PUSH1 0x4 ADD PUSH2 0x113D SWAP2 SWAP1 PUSH2 0x3190 JUMP JUMPDEST PUSH1 0x20 PUSH1 0x40 MLOAD DUP1 DUP4 SUB DUP2 DUP7 GAS STATICCALL ISZERO DUP1 ISZERO PUSH2 0x1158 JUMPI RETURNDATASIZE PUSH0 PUSH0 RETURNDATACOPY RETURNDATASIZE PUSH0 REVERT JUMPDEST POP POP POP POP PUSH1 0x40 MLOAD RETURNDATASIZE PUSH1 0x1F NOT PUSH1 0x1F DUP3 ADD AND DUP3 ADD DUP1 PUSH1 0x40 MSTORE POP DUP2 ADD SWAP1 PUSH2 0x117C SWAP2 SWAP1 PUSH2 0x31BD JUMP JUMPDEST SWAP3 POP DUP1 PUSH20 0xFFFFFFFFFFFFFFFFFFFFFFFFFFFFFFFFFFFFFFFF AND PUSH4 0xA9059CBB DUP4 DUP6 PUSH1 0x40 MLOAD DUP4 PUSH4 0xFFFFFFFF AND PUSH1 0xE0 SHL DUP2 MSTORE PUSH1 0x4 ADD PUSH2 0x11B9 SWAP3 SWAP2 SWAP1 PUSH2 0x31E8 JUMP JUMPDEST PUSH1 0x20 PUSH1 0x40 MLOAD DUP1 DUP4 SUB DUP2 PUSH0 DUP8 GAS CALL ISZERO DUP1 ISZERO PUSH2 0x11D5 JUMPI RETURNDATASIZE PUSH0 PUSH0 RETURNDATACOPY RETURNDATASIZE PUSH0 REVERT JUMPDEST POP POP POP POP PUSH1 0x40 MLOAD RETURNDATASIZE PUSH1 0x1F NOT PUSH1 0x1F DUP3 ADD AND DUP3 ADD DUP1 PUSH1 0x40 MSTORE POP DUP2 ADD SWAP1 PUSH2 0x11F9 SWAP2 SWAP1 PUSH2 0x3239 JUMP JUMPDEST POP POP JUMPDEST POP SWAP2 SWAP1 POP JUMP JUMPDEST PUSH2 0x120A PUSH2 0x270D JUMP JUMPDEST PUSH2 0x1212 PUSH2 0x2269 JUMP JUMPDEST SWAP1 POP SWAP1 JUMP JUMPDEST PUSH0 PUSH0 PUSH0 SWAP1 SLOAD SWAP1 PUSH2 0x100 EXP SWAP1 DIV PUSH1 0xFF AND ISZERO PUSH2 0x1266 JUMPI PUSH1 0x40 MLOAD PUSH32 0x8C379A000000000000000000000000000000000000000000000000000000000 DUP2 MSTORE PUSH1 0x4 ADD PUSH2 0x125D SWAP1 PUSH2 0x302B JUMP JUMPDEST PUSH1 0x40 MLOAD DUP1 SWAP2 SUB SWAP1 REVERT JUMPDEST PUSH1 0x2 PUSH1 0x3 DUP2 GT ISZERO PUSH2 0x127A JUMPI PUSH2 0x1279 PUSH2 0x29DE JUMP JUMPDEST JUMPDEST PUSH0 PUSH1 0x1 SWAP1 SLOAD SWAP1 PUSH2 0x100 EXP SWAP1 DIV PUSH1 0xFF AND PUSH1 0x3 DUP2 GT ISZERO PUSH2 0x129B JUMPI PUSH2 0x129A PUSH2 0x29DE JUMP JUMPDEST JUMPDEST SUB PUSH2 0x12DB JUMPI PUSH1 0x40 MLOAD PUSH32 0x8C379A000000000000000000000000000000000000000000000000000000000 DUP2 MSTORE PUSH1 0x4 ADD PUSH2 0x12D2 SWAP1 PUSH2 0x3093 JUMP JUMPDEST PUSH1 0x40 MLOAD DUP1 SWAP2 SUB SWAP1 REVERT JUMPDEST PUSH0 PUSH1 0x3 SWAP1 SLOAD SWAP1 PUSH2 0x100 EXP SWAP1 DIV PUSH20 0xFFFFFFFFFFFFFFFFFFFFFFFFFFFFFFFFFFFFFFFF AND PUSH20 0xFFFFFFFFFFFFFFFFFFFFFFFFFFFFFFFFFFFFFFFF AND PUSH4 0xBF40FAC1 PUSH1 0x40 MLOAD DUP1 PUSH1 0x40 ADD PUSH1 0x40 MSTORE DUP1 PUSH1 0x14 DUP2 MSTORE PUSH1 0x20 ADD PUSH32 0x52455345525645445F4D505F5452454153555259000000000000000000000000 DUP2 MSTORE POP PUSH1 0x40 MLOAD DUP3 PUSH4 0xFFFFFFFF AND PUSH1 0xE0 SHL DUP2 MSTORE PUSH1 0x4 ADD PUSH2 0x136A SWAP2 SWAP1 PUSH2 0x2935 JUMP JUMPDEST PUSH1 0x20 PUSH1 0x40 MLOAD DUP1 DUP4 SUB DUP2 DUP7 GAS STATICCALL ISZERO DUP1 ISZERO PUSH2 0x1385 JUMPI RETURNDATASIZE PUSH0 PUSH0 RETURNDATACOPY RETURNDATASIZE PUSH0 REVERT JUMPDEST POP POP POP POP PUSH1 0x40 MLOAD RETURNDATASIZE PUSH1 0x1F NOT PUSH1 0x1F DUP3 ADD AND DUP3 ADD DUP1 PUSH1 0x40 MSTORE POP DUP2 ADD SWAP1 PUSH2 0x13A9 SWAP2 SWAP1 PUSH2 0x2F4E JUMP JUMPDEST PUSH20 0xFFFFFFFFFFFFFFFFFFFFFFFFFFFFFFFFFFFFFFFF AND CALLER PUSH20 0xFFFFFFFFFFFFFFFFFFFFFFFFFFFFFFFFFFFFFFFF AND EQ PUSH2 0x1416 JUMPI PUSH1 0x40 MLOAD PUSH32 0x8C379A000000000000000000000000000000000000000000000000000000000 DUP2 MSTORE PUSH1 0x4 ADD PUSH2 0x140D SWAP1 PUSH2 0x32AE JUMP JUMPDEST PUSH1 0x40 MLOAD DUP1 SWAP2 SUB SWAP1 REVERT JUMPDEST PUSH1 0x1 PUSH0 PUSH0 PUSH2 0x100 EXP DUP2 SLOAD DUP2 PUSH1 0xFF MUL NOT AND SWAP1 DUP4 ISZERO ISZERO MUL OR SWAP1 SSTORE POP PUSH0 PUSH2 0x1438 PUSH2 0x2269 JUMP JUMPDEST SWAP1 POP PUSH1 0x6 SLOAD DUP5 LT ISZERO PUSH2 0x147F JUMPI PUSH1 0x40 MLOAD PUSH32 0x8C379A000000000000000000000000000000000000000000000000000000000 DUP2 MSTORE PUSH1 0x4 ADD PUSH2 0x1476 SWAP1 PUSH2 0x344E JUMP JUMPDEST PUSH1 0x40 MLOAD DUP1 SWAP2 SUB SWAP1 REVERT JUMPDEST PUSH0 DUP4 DUP6 PUSH2 0x148C SWAP2 SWAP1 PUSH2 0x3499 JUMP JUMPDEST SWAP1 POP PUSH1 0x7 PUSH0 SWAP1 SLOAD SWAP1 PUSH2 0x100 EXP SWAP1 DIV PUSH1 0xFF AND PUSH2 0x14DC JUMPI PUSH1 0x40 MLOAD PUSH32 0x8C379A000000000000000000000000000000000000000000000000000000000 DUP2 MSTORE PUSH1 0x4 ADD PUSH2 0x14D3 SWAP1 PUSH2 0x3516 JUMP JUMPDEST PUSH1 0x40 MLOAD DUP1 SWAP2 SUB SWAP1 REVERT JUMPDEST PUSH0 DUP3 PUSH1 0xC0 ADD MLOAD PUSH1 0x40 ADD MLOAD SWAP1 POP PUSH20 0xEEEEEEEEEEEEEEEEEEEEEEEEEEEEEEEEEEEEEEEE PUSH20 0xFFFFFFFFFFFFFFFFFFFFFFFFFFFFFFFFFFFFFFFF AND DUP2 PUSH20 0xFFFFFFFFFFFFFFFFFFFFFFFFFFFFFFFFFFFFFFFF AND SUB PUSH2 0x1577 JUMPI DUP2 CALLVALUE LT ISZERO PUSH2 0x1572 JUMPI PUSH1 0x40 MLOAD PUSH32 0x8C379A000000000000000000000000000000000000000000000000000000000 DUP2 MSTORE PUSH1 0x4 ADD PUSH2 0x1569 SWAP1 PUSH2 0x357E JUMP JUMPDEST PUSH1 0x40 MLOAD DUP1 SWAP2 SUB SWAP1 REVERT JUMPDEST PUSH2 0x161B JUMP JUMPDEST PUSH0 DUP2 SWAP1 POP DUP1 PUSH20 0xFFFFFFFFFFFFFFFFFFFFFFFFFFFFFFFFFFFFFFFF AND PUSH4 0x23B872DD CALLER PUSH32 0x0 DUP7 PUSH1 0x40 MLOAD DUP5 PUSH4 0xFFFFFFFF AND PUSH1 0xE0 SHL DUP2 MSTORE PUSH1 0x4 ADD PUSH2 0x15D8 SWAP4 SWAP3 SWAP2 SWAP1 PUSH2 0x359C JUMP JUMPDEST PUSH1 0x20 PUSH1 0x40 MLOAD DUP1 DUP4 SUB DUP2 PUSH0 DUP8 GAS CALL ISZERO DUP1 ISZERO PUSH2 0x15F4 JUMPI RETURNDATASIZE PUSH0 PUSH0 RETURNDATACOPY RETURNDATASIZE PUSH0 REVERT JUMPDEST POP POP POP POP PUSH1 0x40 MLOAD RETURNDATASIZE PUSH1 0x1F NOT PUSH1 0x1F DUP3 ADD AND DUP3 ADD DUP1 PUSH1 0x40 MSTORE POP DUP2 ADD SWAP1 PUSH2 0x1618 SWAP2 SWAP1 PUSH2 0x3239 JUMP JUMPDEST POP POP JUMPDEST PUSH0 PUSH1 0x6 SLOAD PUSH1 0x2 SLOAD PUSH2 0x162C SWAP2 SWAP1 PUSH2 0x35D1 JUMP JUMPDEST SWAP1 POP DUP6 PUSH1 0x6 SLOAD DUP3 PUSH2 0x163D SWAP2 SWAP1 PUSH2 0x3499 JUMP JUMPDEST PUSH2 0x1647 SWAP2 SWAP1 PUSH2 0x3499 JUMP JUMPDEST PUSH1 0x2 DUP2 SWAP1 SSTORE POP PUSH2 0x1655 PUSH2 0x2558 JUMP JUMPDEST PUSH2 0x168B PUSH1 0x1 PUSH0 PUSH32 0x0 DUP7 DUP9 PUSH1 0xC0 ADD MLOAD PUSH1 0x40 ADD MLOAD PUSH2 0x23DC JUMP JUMPDEST SWAP5 POP PUSH1 0x8 PUSH0 DUP10 DUP2 MSTORE PUSH1 0x20 ADD SWAP1 DUP2 MSTORE PUSH1 0x20 ADD PUSH0 KECCAK256 DUP6 SWAP1 DUP1 PUSH1 0x1 DUP2 SLOAD ADD DUP1 DUP3 SSTORE DUP1 SWAP2 POP POP PUSH1 0x1 SWAP1 SUB SWAP1 PUSH0 MSTORE PUSH1 0x20 PUSH0 KECCAK256 ADD PUSH0 SWAP1 SWAP2 SWAP1 SWAP2 SWAP1 SWAP2 POP SSTORE PUSH0 PUSH1 0x7 PUSH0 PUSH2 0x100 EXP DUP2 SLOAD DUP2 PUSH1 0xFF MUL NOT AND SWAP1 DUP4 ISZERO ISZERO MUL OR SWAP1 SSTORE POP PUSH0 PUSH0 PUSH0 PUSH2 0x100 EXP DUP2 SLOAD DUP2 PUSH1 0xFF MUL NOT AND SWAP1 DUP4 ISZERO ISZERO MUL OR SWAP1 SSTORE POP POP POP POP POP SWAP4 SWAP3 POP POP POP JUMP JUMPDEST PUSH1 0x60 PUSH1 0x8 PUSH0 DUP4 DUP2 MSTORE PUSH1 0x20 ADD SWAP1 DUP2 MSTORE PUSH1 0x20 ADD PUSH0 KECCAK256 DUP1 SLOAD DUP1 PUSH1 0x20 MUL PUSH1 0x20 ADD PUSH1 0x40 MLOAD SWAP1 DUP2 ADD PUSH1 0x40 MSTORE DUP1 SWAP3 SWAP2 SWAP1 DUP2 DUP2 MSTORE PUSH1 0x20 ADD DUP3 DUP1 SLOAD DUP1 ISZERO PUSH2 0x1759 JUMPI PUSH1 0x20 MUL DUP3 ADD SWAP2 SWAP1 PUSH0 MSTORE PUSH1 0x20 PUSH0 KECCAK256 SWAP1 JUMPDEST DUP2 SLOAD DUP2 MSTORE PUSH1 0x20 ADD SWAP1 PUSH1 0x1 ADD SWAP1 DUP1 DUP4 GT PUSH2 0x1745 JUMPI JUMPDEST POP POP POP POP POP SWAP1 POP SWAP2 SWAP1 POP JUMP JUMPDEST PUSH0 PUSH0 PUSH0 SWAP1 SLOAD SWAP1 PUSH2 0x100 EXP SWAP1 DIV PUSH1 0xFF AND ISZERO PUSH2 0x17B4 JUMPI PUSH1 0x40 MLOAD PUSH32 0x8C379A000000000000000000000000000000000000000000000000000000000 DUP2 MSTORE PUSH1 0x4 ADD PUSH2 0x17AB SWAP1 PUSH2 0x302B JUMP JUMPDEST PUSH1 0x40 MLOAD DUP1 SWAP2 SUB SWAP1 REVERT JUMPDEST PUSH1 0x2 PUSH1 0x3 DUP2 GT ISZERO PUSH2 0x17C8 JUMPI PUSH2 0x17C7 PUSH2 0x29DE JUMP JUMPDEST JUMPDEST PUSH0 PUSH1 0x1 SWAP1 SLOAD SWAP1 PUSH2 0x100 EXP SWAP1 DIV PUSH1 0xFF AND PUSH1 0x3 DUP2 GT ISZERO PUSH2 0x17E9 JUMPI PUSH2 0x17E8 PUSH2 0x29DE JUMP JUMPDEST JUMPDEST SUB PUSH2 0x1829 JUMPI PUSH1 0x40 MLOAD PUSH32 0x8C379A000000000000000000000000000000000000000000000000000000000 DUP2 MSTORE PUSH1 0x4 ADD PUSH2 0x1820 SWAP1 PUSH2 0x3093 JUMP JUMPDEST PUSH1 0x40 MLOAD DUP1 SWAP2 SUB SWAP1 REVERT JUMPDEST PUSH1 0x1 PUSH0 PUSH0 PUSH2 0x100 EXP DUP2 SLOAD DUP2 PUSH1 0xFF MUL NOT AND SWAP1 DUP4 ISZERO ISZERO MUL OR SWAP1 SSTORE POP TIMESTAMP PUSH1 0x4 SLOAD GT ISZERO PUSH2 0x1887 JUMPI PUSH1 0x40 MLOAD PUSH32 0x8C379A000000000000000000000000000000000000000000000000000000000 DUP2 MSTORE PUSH1 0x4 ADD PUSH2 0x187E SWAP1 PUSH2 0x3674 JUMP JUMPDEST PUSH1 0x40 MLOAD DUP1 SWAP2 SUB SWAP1 REVERT JUMPDEST PUSH0 PUSH1 0x1 DUP2 GT ISZERO PUSH2 0x189A JUMPI PUSH2 0x1899 PUSH2 0x29DE JUMP JUMPDEST JUMPDEST PUSH0 PUSH1 0x2 SWAP1 SLOAD SWAP1 PUSH2 0x100 EXP SWAP1 DIV PUSH1 0xFF AND PUSH1 0x1 DUP2 GT ISZERO PUSH2 0x18BB JUMPI PUSH2 0x18BA PUSH2 0x29DE JUMP JUMPDEST JUMPDEST SUB PUSH2 0x18FB JUMPI PUSH1 0x40 MLOAD PUSH32 0x8C379A000000000000000000000000000000000000000000000000000000000 DUP2 MSTORE PUSH1 0x4 ADD PUSH2 0x18F2 SWAP1 PUSH2 0x36DC JUMP JUMPDEST PUSH1 0x40 MLOAD DUP1 SWAP2 SUB SWAP1 REVERT JUMPDEST PUSH0 PUSH1 0x3 DUP2 GT ISZERO PUSH2 0x190E JUMPI PUSH2 0x190D PUSH2 0x29DE JUMP JUMPDEST JUMPDEST PUSH0 PUSH1 0x1 SWAP1 SLOAD SWAP1 PUSH2 0x100 EXP SWAP1 DIV PUSH1 0xFF AND PUSH1 0x3 DUP2 GT ISZERO PUSH2 0x192F JUMPI PUSH2 0x192E PUSH2 0x29DE JUMP JUMPDEST JUMPDEST EQ PUSH2 0x196F JUMPI PUSH1 0x40 MLOAD PUSH32 0x8C379A000000000000000000000000000000000000000000000000000000000 DUP2 MSTORE PUSH1 0x4 ADD PUSH2 0x1966 SWAP1 PUSH2 0x3744 JUMP JUMPDEST PUSH1 0x40 MLOAD DUP1 SWAP2 SUB SWAP1 REVERT JUMPDEST PUSH0 PUSH2 0x1978 PUSH2 0x2269 JUMP JUMPDEST SWAP1 POP PUSH2 0x198E DUP2 PUSH1 0xC0 ADD MLOAD PUSH1 0xE0 ADD MLOAD PUSH0 ADD MLOAD PUSH2 0x25CF JUMP JUMPDEST PUSH1 0x4 PUSH0 DUP3 DUP3 SLOAD PUSH2 0x199E SWAP2 SWAP1 PUSH2 0x3499 JUMP JUMPDEST SWAP3 POP POP DUP2 SWAP1 SSTORE POP DUP1 PUSH1 0xC0 ADD MLOAD PUSH1 0xE0 ADD MLOAD PUSH1 0x40 ADD MLOAD DUP4 LT ISZERO DUP1 ISZERO PUSH2 0x19CD JUMPI POP DUP1 PUSH1 0xC0 ADD MLOAD PUSH1 0xE0 ADD MLOAD PUSH1 0x60 ADD MLOAD DUP4 GT ISZERO JUMPDEST PUSH2 0x1A0C JUMPI PUSH1 0x40 MLOAD PUSH32 0x8C379A000000000000000000000000000000000000000000000000000000000 DUP2 MSTORE PUSH1 0x4 ADD PUSH2 0x1A03 SWAP1 PUSH2 0x37D2 JUMP JUMPDEST PUSH1 0x40 MLOAD DUP1 SWAP2 SUB SWAP1 REVERT JUMPDEST PUSH0 DUP2 PUSH1 0xC0 ADD MLOAD PUSH1 0x40 ADD MLOAD SWAP1 POP PUSH20 0xEEEEEEEEEEEEEEEEEEEEEEEEEEEEEEEEEEEEEEEE PUSH20 0xFFFFFFFFFFFFFFFFFFFFFFFFFFFFFFFFFFFFFFFF AND DUP2 PUSH20 0xFFFFFFFFFFFFFFFFFFFFFFFFFFFFFFFFFFFFFFFF AND SUB PUSH2 0x1AA7 JUMPI DUP4 CALLVALUE LT ISZERO PUSH2 0x1AA2 JUMPI PUSH1 0x40 MLOAD PUSH32 0x8C379A000000000000000000000000000000000000000000000000000000000 DUP2 MSTORE PUSH1 0x4 ADD PUSH2 0x1A99 SWAP1 PUSH2 0x383A JUMP JUMPDEST PUSH1 0x40 MLOAD DUP1 SWAP2 SUB SWAP1 REVERT JUMPDEST PUSH2 0x1B4B JUMP JUMPDEST PUSH0 DUP2 SWAP1 POP DUP1 PUSH20 0xFFFFFFFFFFFFFFFFFFFFFFFFFFFFFFFFFFFFFFFF AND PUSH4 0x23B872DD CALLER PUSH32 0x0 DUP9 PUSH1 0x40 MLOAD DUP5 PUSH4 0xFFFFFFFF AND PUSH1 0xE0 SHL DUP2 MSTORE PUSH1 0x4 ADD PUSH2 0x1B08 SWAP4 SWAP3 SWAP2 SWAP1 PUSH2 0x359C JUMP JUMPDEST PUSH1 0x20 PUSH1 0x40 MLOAD DUP1 DUP4 SUB DUP2 PUSH0 DUP8 GAS CALL ISZERO DUP1 ISZERO PUSH2 0x1B24 JUMPI RETURNDATASIZE PUSH0 PUSH0 RETURNDATACOPY RETURNDATASIZE PUSH0 REVERT JUMPDEST POP POP POP POP PUSH1 0x40 MLOAD RETURNDATASIZE PUSH1 0x1F NOT PUSH1 0x1F DUP3 ADD AND DUP3 ADD DUP1 PUSH1 0x40 MSTORE POP DUP2 ADD SWAP1 PUSH2 0x1B48 SWAP2 SWAP1 PUSH2 0x3239 JUMP JUMPDEST POP POP JUMPDEST DUP4 PUSH1 0x2 PUSH0 DUP3 DUP3 SLOAD PUSH2 0x1B5C SWAP2 SWAP1 PUSH2 0x3499 JUMP JUMPDEST SWAP3 POP POP DUP2 SWAP1 SSTORE POP PUSH1 0x1 PUSH0 DUP2 SLOAD DUP1 SWAP3 SWAP2 SWAP1 PUSH2 0x1B75 SWAP1 PUSH2 0x3858 JUMP JUMPDEST SWAP2 SWAP1 POP SSTORE POP PUSH2 0x1B82 PUSH2 0x2558 JUMP JUMPDEST PUSH2 0x1BB8 PUSH1 0x1 PUSH0 PUSH32 0x0 DUP8 DUP7 PUSH1 0xC0 ADD MLOAD PUSH1 0x40 ADD MLOAD PUSH2 0x23DC JUMP JUMPDEST SWAP3 POP PUSH0 PUSH0 PUSH0 PUSH2 0x100 EXP DUP2 SLOAD DUP2 PUSH1 0xFF MUL NOT AND SWAP1 DUP4 ISZERO ISZERO MUL OR SWAP1 SSTORE POP POP POP SWAP2 SWAP1 POP JUMP JUMPDEST PUSH0 PUSH0 PUSH1 0x3 SWAP1 SLOAD SWAP1 PUSH2 0x100 EXP SWAP1 DIV PUSH20 0xFFFFFFFFFFFFFFFFFFFFFFFFFFFFFFFFFFFFFFFF AND PUSH20 0xFFFFFFFFFFFFFFFFFFFFFFFFFFFFFFFFFFFFFFFF AND PUSH4 0xBF40FAC1 PUSH1 0x40 MLOAD DUP1 PUSH1 0x40 ADD PUSH1 0x40 MSTORE DUP1 PUSH1 0x11 DUP2 MSTORE PUSH1 0x20 ADD PUSH32 0x52455345525645445F4D505F41444D494E000000000000000000000000000000 DUP2 MSTORE POP PUSH1 0x40 MLOAD DUP3 PUSH4 0xFFFFFFFF AND PUSH1 0xE0 SHL DUP2 MSTORE PUSH1 0x4 ADD PUSH2 0x1C69 SWAP2 SWAP1 PUSH2 0x2935 JUMP JUMPDEST PUSH1 0x20 PUSH1 0x40 MLOAD DUP1 DUP4 SUB DUP2 DUP7 GAS STATICCALL ISZERO DUP1 ISZERO PUSH2 0x1C84 JUMPI RETURNDATASIZE PUSH0 PUSH0 RETURNDATACOPY RETURNDATASIZE PUSH0 REVERT JUMPDEST POP POP POP POP PUSH1 0x40 MLOAD RETURNDATASIZE PUSH1 0x1F NOT PUSH1 0x1F DUP3 ADD AND DUP3 ADD DUP1 PUSH1 0x40 MSTORE POP DUP2 ADD SWAP1 PUSH2 0x1CA8 SWAP2 SWAP1 PUSH2 0x2F4E JUMP JUMPDEST PUSH20 0xFFFFFFFFFFFFFFFFFFFFFFFFFFFFFFFFFFFFFFFF AND CALLER PUSH20 0xFFFFFFFFFFFFFFFFFFFFFFFFFFFFFFFFFFFFFFFF AND EQ PUSH2 0x1D15 JUMPI PUSH1 0x40 MLOAD PUSH32 0x8C379A000000000000000000000000000000000000000000000000000000000 DUP2 MSTORE PUSH1 0x4 ADD PUSH2 0x1D0C SWAP1 PUSH2 0x2FC3 JUMP JUMPDEST PUSH1 0x40 MLOAD DUP1 SWAP2 SUB SWAP1 REVERT JUMPDEST PUSH0 PUSH1 0x3 SWAP1 SLOAD SWAP1 PUSH2 0x100 EXP SWAP1 DIV PUSH20 0xFFFFFFFFFFFFFFFFFFFFFFFFFFFFFFFFFFFFFFFF AND PUSH20 0xFFFFFFFFFFFFFFFFFFFFFFFFFFFFFFFFFFFFFFFF AND PUSH4 0xBF40FAC1 PUSH1 0x40 MLOAD DUP1 PUSH1 0x40 ADD PUSH1 0x40 MSTORE DUP1 PUSH1 0x14 DUP2 MSTORE PUSH1 0x20 ADD PUSH32 0x52455345525645445F4D505F5245474953544552000000000000000000000000 DUP2 MSTORE POP PUSH1 0x40 MLOAD DUP3 PUSH4 0xFFFFFFFF AND PUSH1 0xE0 SHL DUP2 MSTORE PUSH1 0x4 ADD PUSH2 0x1DA4 SWAP2 SWAP1 PUSH2 0x2935 JUMP JUMPDEST PUSH1 0x20 PUSH1 0x40 MLOAD DUP1 DUP4 SUB DUP2 DUP7 GAS STATICCALL ISZERO DUP1 ISZERO PUSH2 0x1DBF JUMPI RETURNDATASIZE PUSH0 PUSH0 RETURNDATACOPY RETURNDATASIZE PUSH0 REVERT JUMPDEST POP POP POP POP PUSH1 0x40 MLOAD RETURNDATASIZE PUSH1 0x1F NOT PUSH1 0x1F DUP3 ADD AND DUP3 ADD DUP1 PUSH1 0x40 MSTORE POP DUP2 ADD SWAP1 PUSH2 0x1DE3 SWAP2 SWAP1 PUSH2 0x2F4E JUMP JUMPDEST PUSH0 PUSH1 0x3 PUSH2 0x100 EXP DUP2 SLOAD DUP2 PUSH20 0xFFFFFFFFFFFFFFFFFFFFFFFFFFFFFFFFFFFFFFFF MUL NOT AND SWAP1 DUP4 PUSH20 0xFFFFFFFFFFFFFFFFFFFFFFFFFFFFFFFFFFFFFFFF AND MUL OR SWAP1 SSTORE POP PUSH1 0x1 SWAP1 POP SWAP1 JUMP JUMPDEST PUSH0 PUSH2 0x1E32 PUSH2 0x2269 JUMP JUMPDEST PUSH1 0x40 ADD MLOAD PUSH20 0xFFFFFFFFFFFFFFFFFFFFFFFFFFFFFFFFFFFFFFFF AND CALLER PUSH20 0xFFFFFFFFFFFFFFFFFFFFFFFFFFFFFFFFFFFFFFFF AND EQ PUSH2 0x1EA3 JUMPI PUSH1 0x40 MLOAD PUSH32 0x8C379A000000000000000000000000000000000000000000000000000000000 DUP2 MSTORE PUSH1 0x4 ADD PUSH2 0x1E9A SWAP1 PUSH2 0x38E9 JUMP JUMPDEST PUSH1 0x40 MLOAD DUP1 SWAP2 SUB SWAP1 REVERT JUMPDEST PUSH0 PUSH0 SWAP1 SLOAD SWAP1 PUSH2 0x100 EXP SWAP1 DIV PUSH1 0xFF AND ISZERO PUSH2 0x1EF1 JUMPI PUSH1 0x40 MLOAD PUSH32 0x8C379A000000000000000000000000000000000000000000000000000000000 DUP2 MSTORE PUSH1 0x4 ADD PUSH2 0x1EE8 SWAP1 PUSH2 0x302B JUMP JUMPDEST PUSH1 0x40 MLOAD DUP1 SWAP2 SUB SWAP1 REVERT JUMPDEST PUSH1 0x2 PUSH1 0x3 DUP2 GT ISZERO PUSH2 0x1F05 JUMPI PUSH2 0x1F04 PUSH2 0x29DE JUMP JUMPDEST JUMPDEST PUSH0 PUSH1 0x1 SWAP1 SLOAD SWAP1 PUSH2 0x100 EXP SWAP1 DIV PUSH1 0xFF AND PUSH1 0x3 DUP2 GT ISZERO PUSH2 0x1F26 JUMPI PUSH2 0x1F25 PUSH2 0x29DE JUMP JUMPDEST JUMPDEST SUB PUSH2 0x1F66 JUMPI PUSH1 0x40 MLOAD PUSH32 0x8C379A000000000000000000000000000000000000000000000000000000000 DUP2 MSTORE PUSH1 0x4 ADD PUSH2 0x1F5D SWAP1 PUSH2 0x3093 JUMP JUMPDEST PUSH1 0x40 MLOAD DUP1 SWAP2 SUB SWAP1 REVERT JUMPDEST PUSH0 PUSH2 0x1F6F PUSH2 0x2269 JUMP JUMPDEST SWAP1 POP PUSH1 0x1 PUSH0 PUSH0 PUSH2 0x100 EXP DUP2 SLOAD DUP2 PUSH1 0xFF MUL NOT AND SWAP1 DUP4 ISZERO ISZERO MUL OR SWAP1 SSTORE POP PUSH1 0x1 PUSH1 0x3 DUP2 GT ISZERO PUSH2 0x1F9E JUMPI PUSH2 0x1F9D PUSH2 0x29DE JUMP JUMPDEST JUMPDEST PUSH0 PUSH1 0x1 SWAP1 SLOAD SWAP1 PUSH2 0x100 EXP SWAP1 DIV PUSH1 0xFF AND PUSH1 0x3 DUP2 GT ISZERO PUSH2 0x1FBF JUMPI PUSH2 0x1FBE PUSH2 0x29DE JUMP JUMPDEST JUMPDEST EQ PUSH2 0x1FFF JUMPI PUSH1 0x40 MLOAD PUSH32 0x8C379A000000000000000000000000000000000000000000000000000000000 DUP2 MSTORE PUSH1 0x4 ADD PUSH2 0x1FF6 SWAP1 PUSH2 0x3951 JUMP JUMPDEST PUSH1 0x40 MLOAD DUP1 SWAP2 SUB SWAP1 REVERT JUMPDEST PUSH1 0x1 DUP1 DUP2 GT ISZERO PUSH2 0x2012 JUMPI PUSH2 0x2011 PUSH2 0x29DE JUMP JUMPDEST JUMPDEST PUSH0 PUSH1 0x2 SWAP1 SLOAD SWAP1 PUSH2 0x100 EXP SWAP1 DIV PUSH1 0xFF AND PUSH1 0x1 DUP2 GT ISZERO PUSH2 0x2033 JUMPI PUSH2 0x2032 PUSH2 0x29DE JUMP JUMPDEST JUMPDEST SUB PUSH2 0x2073 JUMPI PUSH1 0x40 MLOAD PUSH32 0x8C379A000000000000000000000000000000000000000000000000000000000 DUP2 MSTORE PUSH1 0x4 ADD PUSH2 0x206A SWAP1 PUSH2 0x39B9 JUMP JUMPDEST PUSH1 0x40 MLOAD DUP1 SWAP2 SUB SWAP1 REVERT JUMPDEST PUSH0 DUP2 PUSH1 0xC0 ADD MLOAD PUSH2 0x100 ADD MLOAD PUSH1 0x40 ADD MLOAD SWAP1 POP DUP1 PUSH1 0x2 SLOAD LT ISZERO PUSH2 0x20C9 JUMPI PUSH1 0x40 MLOAD PUSH32 0x8C379A000000000000000000000000000000000000000000000000000000000 DUP2 MSTORE PUSH1 0x4 ADD PUSH2 0x20C0 SWAP1 PUSH2 0x3A21 JUMP JUMPDEST PUSH1 0x40 MLOAD DUP1 SWAP2 SUB SWAP1 REVERT JUMPDEST PUSH0 DUP3 PUSH1 0x40 ADD MLOAD SWAP1 POP DUP2 PUSH1 0x2 PUSH0 DUP3 DUP3 SLOAD PUSH2 0x20E2 SWAP2 SWAP1 PUSH2 0x35D1 JUMP JUMPDEST SWAP3 POP POP DUP2 SWAP1 SSTORE POP PUSH20 0xEEEEEEEEEEEEEEEEEEEEEEEEEEEEEEEEEEEEEEEE PUSH20 0xFFFFFFFFFFFFFFFFFFFFFFFFFFFFFFFFFFFFFFFF AND DUP4 PUSH1 0xC0 ADD MLOAD PUSH1 0x40 ADD MLOAD PUSH20 0xFFFFFFFFFFFFFFFFFFFFFFFFFFFFFFFFFFFFFFFF AND SUB PUSH2 0x2181 JUMPI DUP1 PUSH20 0xFFFFFFFFFFFFFFFFFFFFFFFFFFFFFFFFFFFFFFFF AND PUSH2 0x8FC DUP4 SWAP1 DUP2 ISZERO MUL SWAP1 PUSH1 0x40 MLOAD PUSH0 PUSH1 0x40 MLOAD DUP1 DUP4 SUB DUP2 DUP6 DUP9 DUP9 CALL SWAP4 POP POP POP POP ISZERO DUP1 ISZERO PUSH2 0x217B JUMPI RETURNDATASIZE PUSH0 PUSH0 RETURNDATACOPY RETURNDATASIZE PUSH0 REVERT JUMPDEST POP PUSH2 0x220B JUMP JUMPDEST PUSH0 DUP4 PUSH1 0xC0 ADD MLOAD PUSH1 0x40 ADD MLOAD SWAP1 POP DUP1 PUSH20 0xFFFFFFFFFFFFFFFFFFFFFFFFFFFFFFFFFFFFFFFF AND PUSH4 0xA9059CBB DUP4 DUP6 PUSH1 0x40 MLOAD DUP4 PUSH4 0xFFFFFFFF AND PUSH1 0xE0 SHL DUP2 MSTORE PUSH1 0x4 ADD PUSH2 0x21C8 SWAP3 SWAP2 SWAP1 PUSH2 0x31E8 JUMP JUMPDEST PUSH1 0x20 PUSH1 0x40 MLOAD DUP1 DUP4 SUB DUP2 PUSH0 DUP8 GAS CALL ISZERO DUP1 ISZERO PUSH2 0x21E4 JUMPI RETURNDATASIZE PUSH0 PUSH0 RETURNDATACOPY RETURNDATASIZE PUSH0 REVERT JUMPDEST POP POP POP POP PUSH1 0x40 MLOAD RETURNDATASIZE PUSH1 0x1F NOT PUSH1 0x1F DUP3 ADD AND DUP3 ADD DUP1 PUSH1 0x40 MSTORE POP DUP2 ADD SWAP1 PUSH2 0x2208 SWAP2 SWAP1 PUSH2 0x3239 JUMP JUMPDEST POP POP JUMPDEST PUSH2 0x2213 PUSH2 0x26BE JUMP JUMPDEST PUSH2 0x2249 PUSH1 0x2 PUSH0 PUSH32 0x0 DUP6 DUP8 PUSH1 0xC0 ADD MLOAD PUSH1 0x40 ADD MLOAD PUSH2 0x23DC JUMP JUMPDEST SWAP4 POP PUSH0 PUSH0 PUSH0 PUSH2 0x100 EXP DUP2 SLOAD DUP2 PUSH1 0xFF MUL NOT AND SWAP1 DUP4 ISZERO ISZERO MUL OR SWAP1 SSTORE POP POP POP POP SWAP1 JUMP JUMPDEST PUSH2 0x2271 PUSH2 0x270D JUMP JUMPDEST PUSH0 PUSH1 0x3 SWAP1 SLOAD SWAP1 PUSH2 0x100 EXP SWAP1 DIV PUSH20 0xFFFFFFFFFFFFFFFFFFFFFFFFFFFFFFFFFFFFFFFF AND PUSH20 0xFFFFFFFFFFFFFFFFFFFFFFFFFFFFFFFFFFFFFFFF AND PUSH4 0xBF40FAC1 PUSH1 0x40 MLOAD DUP1 PUSH1 0x40 ADD PUSH1 0x40 MSTORE DUP1 PUSH1 0x20 DUP2 MSTORE PUSH1 0x20 ADD PUSH32 0x52455345525645445F4D4544414C4C494F4E5F50454E53494F4E535F434F5245 DUP2 MSTORE POP PUSH1 0x40 MLOAD DUP3 PUSH4 0xFFFFFFFF AND PUSH1 0xE0 SHL DUP2 MSTORE PUSH1 0x4 ADD PUSH2 0x2300 SWAP2 SWAP1 PUSH2 0x2935 JUMP JUMPDEST PUSH1 0x20 PUSH1 0x40 MLOAD DUP1 DUP4 SUB DUP2 DUP7 GAS STATICCALL ISZERO DUP1 ISZERO PUSH2 0x231B JUMPI RETURNDATASIZE PUSH0 PUSH0 RETURNDATACOPY RETURNDATASIZE PUSH0 REVERT JUMPDEST POP POP POP POP PUSH1 0x40 MLOAD RETURNDATASIZE PUSH1 0x1F NOT PUSH1 0x1F DUP3 ADD AND DUP3 ADD DUP1 PUSH1 0x40 MSTORE POP DUP2 ADD SWAP1 PUSH2 0x233F SWAP2 SWAP1 PUSH2 0x2F4E JUMP JUMPDEST PUSH20 0xFFFFFFFFFFFFFFFFFFFFFFFFFFFFFFFFFFFFFFFF AND PUSH4 0x77BDFDF2 PUSH32 0x0 PUSH1 0x40 MLOAD DUP3 PUSH4 0xFFFFFFFF AND PUSH1 0xE0 SHL DUP2 MSTORE PUSH1 0x4 ADD PUSH2 0x2397 SWAP2 SWAP1 PUSH2 0x28AC JUMP JUMPDEST PUSH2 0x3C0 PUSH1 0x40 MLOAD DUP1 DUP4 SUB DUP2 DUP7 GAS STATICCALL ISZERO DUP1 ISZERO PUSH2 0x23B3 JUMPI RETURNDATASIZE PUSH0 PUSH0 RETURNDATACOPY RETURNDATASIZE PUSH0 REVERT JUMPDEST POP POP POP POP PUSH1 0x40 MLOAD RETURNDATASIZE PUSH1 0x1F NOT PUSH1 0x1F DUP3 ADD AND DUP3 ADD DUP1 PUSH1 0x40 MSTORE POP DUP2 ADD SWAP1 PUSH2 0x23D7 SWAP2 SWAP1 PUSH2 0x3DD2 JUMP JUMPDEST SWAP1 POP SWAP1 JUMP JUMPDEST PUSH0 PUSH0 PUSH1 0x3 SWAP1 SLOAD SWAP1 PUSH2 0x100 EXP SWAP1 DIV PUSH20 0xFFFFFFFFFFFFFFFFFFFFFFFFFFFFFFFFFFFFFFFF AND PUSH20 0xFFFFFFFFFFFFFFFFFFFFFFFFFFFFFFFFFFFFFFFF AND PUSH4 0xBF40FAC1 PUSH1 0x40 MLOAD DUP1 PUSH1 0x40 ADD PUSH1 0x40 MSTORE DUP1 PUSH1 0x16 DUP2 MSTORE PUSH1 0x20 ADD PUSH32 0x52455345525645445F4D505F54585F4D414E4147455200000000000000000000 DUP2 MSTORE POP PUSH1 0x40 MLOAD DUP3 PUSH4 0xFFFFFFFF AND PUSH1 0xE0 SHL DUP2 MSTORE PUSH1 0x4 ADD PUSH2 0x246C SWAP2 SWAP1 PUSH2 0x2935 JUMP JUMPDEST PUSH1 0x20 PUSH1 0x40 MLOAD DUP1 DUP4 SUB DUP2 DUP7 GAS STATICCALL ISZERO DUP1 ISZERO PUSH2 0x2487 JUMPI RETURNDATASIZE PUSH0 PUSH0 RETURNDATACOPY RETURNDATASIZE PUSH0 REVERT JUMPDEST POP POP POP POP PUSH1 0x40 MLOAD RETURNDATASIZE PUSH1 0x1F NOT PUSH1 0x1F DUP3 ADD AND DUP3 ADD DUP1 PUSH1 0x40 MSTORE POP DUP2 ADD SWAP1 PUSH2 0x24AB SWAP2 SWAP1 PUSH2 0x2F4E JUMP JUMPDEST PUSH20 0xFFFFFFFFFFFFFFFFFFFFFFFFFFFFFFFFFFFFFFFF AND PUSH4 0xEE16E639 DUP8 DUP8 DUP8 PUSH32 0x0 DUP9 DUP9 PUSH1 0x40 MLOAD DUP8 PUSH4 0xFFFFFFFF AND PUSH1 0xE0 SHL DUP2 MSTORE PUSH1 0x4 ADD PUSH2 0x250D SWAP7 SWAP6 SWAP5 SWAP4 SWAP3 SWAP2 SWAP1 PUSH2 0x3E8A JUMP JUMPDEST PUSH1 0x20 PUSH1 0x40 MLOAD DUP1 DUP4 SUB DUP2 PUSH0 DUP8 GAS CALL ISZERO DUP1 ISZERO PUSH2 0x2529 JUMPI RETURNDATASIZE PUSH0 PUSH0 RETURNDATACOPY RETURNDATASIZE PUSH0 REVERT JUMPDEST POP POP POP POP PUSH1 0x40 MLOAD RETURNDATASIZE PUSH1 0x1F NOT PUSH1 0x1F DUP3 ADD AND DUP3 ADD DUP1 PUSH1 0x40 MSTORE POP DUP2 ADD SWAP1 PUSH2 0x254D SWAP2 SWAP1 PUSH2 0x31BD JUMP JUMPDEST SWAP1 POP SWAP6 SWAP5 POP POP POP POP POP JUMP JUMPDEST PUSH0 PUSH2 0x2561 PUSH2 0x2269 JUMP JUMPDEST SWAP1 POP DUP1 PUSH1 0xC0 ADD MLOAD PUSH1 0xE0 ADD MLOAD PUSH1 0xA0 ADD MLOAD PUSH1 0x2 SLOAD LT PUSH2 0x25CC JUMPI PUSH0 PUSH0 PUSH1 0x2 PUSH2 0x100 EXP DUP2 SLOAD DUP2 PUSH1 0xFF MUL NOT AND SWAP1 DUP4 PUSH1 0x1 DUP2 GT ISZERO PUSH2 0x259C JUMPI PUSH2 0x259B PUSH2 0x29DE JUMP JUMPDEST JUMPDEST MUL OR SWAP1 SSTORE POP PUSH1 0x1 PUSH0 PUSH1 0x1 PUSH2 0x100 EXP DUP2 SLOAD DUP2 PUSH1 0xFF MUL NOT AND SWAP1 DUP4 PUSH1 0x3 DUP2 GT ISZERO PUSH2 0x25C6 JUMPI PUSH2 0x25C5 PUSH2 0x29DE JUMP JUMPDEST JUMPDEST MUL OR SWAP1 SSTORE POP JUMPDEST POP JUMP JUMPDEST PUSH0 PUSH3 0x15180 SWAP1 POP PUSH0 PUSH1 0x3 DUP2 GT ISZERO PUSH2 0x25E9 JUMPI PUSH2 0x25E8 PUSH2 0x29DE JUMP JUMPDEST JUMPDEST DUP3 PUSH1 0x3 DUP2 GT ISZERO PUSH2 0x25FC JUMPI PUSH2 0x25FB PUSH2 0x29DE JUMP JUMPDEST JUMPDEST SUB ISZERO PUSH2 0x26B9 JUMPI PUSH1 0x7 DUP2 PUSH2 0x260F SWAP2 SWAP1 PUSH2 0x3EE9 JUMP JUMPDEST SWAP1 POP PUSH1 0x1 PUSH1 0x3 DUP2 GT ISZERO PUSH2 0x2625 JUMPI PUSH2 0x2624 PUSH2 0x29DE JUMP JUMPDEST JUMPDEST DUP3 PUSH1 0x3 DUP2 GT ISZERO PUSH2 0x2638 JUMPI PUSH2 0x2637 PUSH2 0x29DE JUMP JUMPDEST JUMPDEST SUB ISZERO PUSH2 0x26B9 JUMPI PUSH1 0x4 DUP2 PUSH2 0x264B SWAP2 SWAP1 PUSH2 0x3EE9 JUMP JUMPDEST SWAP1 POP PUSH1 0x2 PUSH1 0x3 DUP2 GT ISZERO PUSH2 0x2661 JUMPI PUSH2 0x2660 PUSH2 0x29DE JUMP JUMPDEST JUMPDEST DUP3 PUSH1 0x3 DUP2 GT ISZERO PUSH2 0x2674 JUMPI PUSH2 0x2673 PUSH2 0x29DE JUMP JUMPDEST JUMPDEST SUB ISZERO PUSH2 0x26B9 JUMPI PUSH1 0x3 DUP2 PUSH2 0x2687 SWAP2 SWAP1 PUSH2 0x3EE9 JUMP JUMPDEST SWAP1 POP PUSH1 0x3 DUP1 DUP2 GT ISZERO PUSH2 0x269C JUMPI PUSH2 0x269B PUSH2 0x29DE JUMP JUMPDEST JUMPDEST DUP3 PUSH1 0x3 DUP2 GT ISZERO PUSH2 0x26AF JUMPI PUSH2 0x26AE PUSH2 0x29DE JUMP JUMPDEST JUMPDEST SUB ISZERO PUSH2 0x26B9 JUMPI PUSH0 SWAP1 POP JUMPDEST SWAP2 SWAP1 POP JUMP JUMPDEST PUSH0 PUSH2 0x26C7 PUSH2 0x2269 JUMP JUMPDEST SWAP1 POP DUP1 PUSH1 0xC0 ADD MLOAD PUSH2 0x100 ADD MLOAD PUSH1 0xA0 ADD MLOAD PUSH1 0x3 SLOAD LT PUSH2 0x270A JUMPI PUSH1 0x1 PUSH0 PUSH1 0x2 PUSH2 0x100 EXP DUP2 SLOAD DUP2 PUSH1 0xFF MUL NOT AND SWAP1 DUP4 PUSH1 0x1 DUP2 GT ISZERO PUSH2 0x2704 JUMPI PUSH2 0x2703 PUSH2 0x29DE JUMP JUMPDEST JUMPDEST MUL OR SWAP1 SSTORE POP JUMPDEST POP JUMP JUMPDEST PUSH1 0x40 MLOAD DUP1 PUSH1 0xE0 ADD PUSH1 0x40 MSTORE DUP1 PUSH0 DUP2 MSTORE PUSH1 0x20 ADD PUSH0 PUSH20 0xFFFFFFFFFFFFFFFFFFFFFFFFFFFFFFFFFFFFFFFF AND DUP2 MSTORE PUSH1 0x20 ADD PUSH0 PUSH20 0xFFFFFFFFFFFFFFFFFFFFFFFFFFFFFFFFFFFFFFFF AND DUP2 MSTORE PUSH1 0x20 ADD PUSH0 PUSH20 0xFFFFFFFFFFFFFFFFFFFFFFFFFFFFFFFFFFFFFFFF AND DUP2 MSTORE PUSH1 0x20 ADD PUSH0 DUP2 MSTORE PUSH1 0x20 ADD PUSH0 DUP2 MSTORE PUSH1 0x20 ADD PUSH2 0x2786 PUSH2 0x278C JUMP JUMPDEST DUP2 MSTORE POP SWAP1 JUMP JUMPDEST PUSH1 0x40 MLOAD DUP1 PUSH2 0x1A0 ADD PUSH1 0x40 MSTORE DUP1 PUSH0 DUP2 MSTORE PUSH1 0x20 ADD PUSH0 PUSH20 0xFFFFFFFFFFFFFFFFFFFFFFFFFFFFFFFFFFFFFFFF AND DUP2 MSTORE PUSH1 0x20 ADD PUSH0 PUSH20 0xFFFFFFFFFFFFFFFFFFFFFFFFFFFFFFFFFFFFFFFF AND DUP2 MSTORE PUSH1 0x20 ADD PUSH0 DUP2 MSTORE PUSH1 0x20 ADD PUSH0 DUP2 MSTORE PUSH1 0x20 ADD PUSH0 DUP2 MSTORE PUSH1 0x20 ADD PUSH0 PUSH1 0x2 DUP2 GT ISZERO PUSH2 0x27FB JUMPI PUSH2 0x27FA PUSH2 0x29DE JUMP JUMPDEST JUMPDEST DUP2 MSTORE PUSH1 0x20 ADD PUSH2 0x2808 PUSH2 0x283A JUMP JUMPDEST DUP2 MSTORE PUSH1 0x20 ADD PUSH2 0x2815 PUSH2 0x283A JUMP JUMPDEST DUP2 MSTORE PUSH1 0x20 ADD PUSH2 0x2822 PUSH2 0x287C JUMP JUMPDEST DUP2 MSTORE PUSH1 0x20 ADD PUSH0 DUP2 MSTORE PUSH1 0x20 ADD PUSH0 DUP2 MSTORE PUSH1 0x20 ADD PUSH0 DUP2 MSTORE POP SWAP1 JUMP JUMPDEST PUSH1 0x40 MLOAD DUP1 PUSH1 0xC0 ADD PUSH1 0x40 MSTORE DUP1 PUSH0 PUSH1 0x3 DUP2 GT ISZERO PUSH2 0x2858 JUMPI PUSH2 0x2857 PUSH2 0x29DE JUMP JUMPDEST JUMPDEST DUP2 MSTORE PUSH1 0x20 ADD PUSH0 DUP2 MSTORE PUSH1 0x20 ADD PUSH0 DUP2 MSTORE PUSH1 0x20 ADD PUSH0 DUP2 MSTORE PUSH1 0x20 ADD PUSH0 DUP2 MSTORE PUSH1 0x20 ADD PUSH0 DUP2 MSTORE POP SWAP1 JUMP JUMPDEST PUSH1 0x40 MLOAD DUP1 PUSH1 0x40 ADD PUSH1 0x40 MSTORE DUP1 PUSH0 DUP2 MSTORE PUSH1 0x20 ADD PUSH0 DUP2 MSTORE POP SWAP1 JUMP JUMPDEST PUSH0 DUP2 SWAP1 POP SWAP2 SWAP1 POP JUMP JUMPDEST PUSH2 0x28A6 DUP2 PUSH2 0x2894 JUMP JUMPDEST DUP3 MSTORE POP POP JUMP JUMPDEST PUSH0 PUSH1 0x20 DUP3 ADD SWAP1 POP PUSH2 0x28BF PUSH0 DUP4 ADD DUP5 PUSH2 0x289D JUMP JUMPDEST SWAP3 SWAP2 POP POP JUMP JUMPDEST PUSH0 DUP2 MLOAD SWAP1 POP SWAP2 SWAP1 POP JUMP JUMPDEST PUSH0 DUP3 DUP3 MSTORE PUSH1 0x20 DUP3 ADD SWAP1 POP SWAP3 SWAP2 POP POP JUMP JUMPDEST DUP3 DUP2 DUP4 MCOPY PUSH0 DUP4 DUP4 ADD MSTORE POP POP POP JUMP JUMPDEST PUSH0 PUSH1 0x1F NOT PUSH1 0x1F DUP4 ADD AND SWAP1 POP SWAP2 SWAP1 POP JUMP JUMPDEST PUSH0 PUSH2 0x2907 DUP3 PUSH2 0x28C5 JUMP JUMPDEST PUSH2 0x2911 DUP2 DUP6 PUSH2 0x28CF JUMP JUMPDEST SWAP4 POP PUSH2 0x2921 DUP2 DUP6 PUSH1 0x20 DUP7 ADD PUSH2 0x28DF JUMP JUMPDEST PUSH2 0x292A DUP2 PUSH2 0x28ED JUMP JUMPDEST DUP5 ADD SWAP2 POP POP SWAP3 SWAP2 POP POP JUMP JUMPDEST PUSH0 PUSH1 0x20 DUP3 ADD SWAP1 POP DUP2 DUP2 SUB PUSH0 DUP4 ADD MSTORE PUSH2 0x294D DUP2 DUP5 PUSH2 0x28FD JUMP JUMPDEST SWAP1 POP SWAP3 SWAP2 POP POP JUMP JUMPDEST PUSH0 PUSH1 0x40 MLOAD SWAP1 POP SWAP1 JUMP JUMPDEST PUSH0 PUSH0 REVERT JUMPDEST PUSH2 0x296B DUP2 PUSH2 0x2894 JUMP JUMPDEST DUP2 EQ PUSH2 0x2975 JUMPI PUSH0 PUSH0 REVERT JUMPDEST POP JUMP JUMPDEST PUSH0 DUP2 CALLDATALOAD SWAP1 POP PUSH2 0x2986 DUP2 PUSH2 0x2962 JUMP JUMPDEST SWAP3 SWAP2 POP POP JUMP JUMPDEST PUSH0 PUSH1 0x20 DUP3 DUP5 SUB SLT ISZERO PUSH2 0x29A1 JUMPI PUSH2 0x29A0 PUSH2 0x295E JUMP JUMPDEST JUMPDEST PUSH0 PUSH2 0x29AE DUP5 DUP3 DUP6 ADD PUSH2 0x2978 JUMP JUMPDEST SWAP2 POP POP SWAP3 SWAP2 POP POP JUMP JUMPDEST PUSH0 PUSH1 0x40 DUP3 ADD SWAP1 POP PUSH2 0x29CA PUSH0 DUP4 ADD DUP6 PUSH2 0x289D JUMP JUMPDEST PUSH2 0x29D7 PUSH1 0x20 DUP4 ADD DUP5 PUSH2 0x289D JUMP JUMPDEST SWAP4 SWAP3 POP POP POP JUMP JUMPDEST PUSH32 0x4E487B7100000000000000000000000000000000000000000000000000000000 PUSH0 MSTORE PUSH1 0x21 PUSH1 0x4 MSTORE PUSH1 0x24 PUSH0 REVERT JUMPDEST PUSH1 0x4 DUP2 LT PUSH2 0x2A1C JUMPI PUSH2 0x2A1B PUSH2 0x29DE JUMP JUMPDEST JUMPDEST POP JUMP JUMPDEST PUSH0 DUP2 SWAP1 POP PUSH2 0x2A2C DUP3 PUSH2 0x2A0B JUMP JUMPDEST SWAP2 SWAP1 POP JUMP JUMPDEST PUSH0 PUSH2 0x2A3B DUP3 PUSH2 0x2A1F JUMP JUMPDEST SWAP1 POP SWAP2 SWAP1 POP JUMP JUMPDEST PUSH2 0x2A4B DUP2 PUSH2 0x2A31 JUMP JUMPDEST DUP3 MSTORE POP POP JUMP JUMPDEST PUSH0 PUSH1 0x20 DUP3 ADD SWAP1 POP PUSH2 0x2A64 PUSH0 DUP4 ADD DUP5 PUSH2 0x2A42 JUMP JUMPDEST SWAP3 SWAP2 POP POP JUMP JUMPDEST PUSH0 PUSH20 0xFFFFFFFFFFFFFFFFFFFFFFFFFFFFFFFFFFFFFFFF DUP3 AND SWAP1 POP SWAP2 SWAP1 POP JUMP JUMPDEST PUSH0 PUSH2 0x2A93 DUP3 PUSH2 0x2A6A JUMP JUMPDEST SWAP1 POP SWAP2 SWAP1 POP JUMP JUMPDEST PUSH2 0x2AA3 DUP2 PUSH2 0x2A89 JUMP JUMPDEST DUP2 EQ PUSH2 0x2AAD JUMPI PUSH0 PUSH0 REVERT JUMPDEST POP JUMP JUMPDEST PUSH0 DUP2 CALLDATALOAD SWAP1 POP PUSH2 0x2ABE DUP2 PUSH2 0x2A9A JUMP JUMPDEST SWAP3 SWAP2 POP POP JUMP JUMPDEST PUSH0 PUSH1 0x20 DUP3 DUP5 SUB SLT ISZERO PUSH2 0x2AD9 JUMPI PUSH2 0x2AD8 PUSH2 0x295E JUMP JUMPDEST JUMPDEST PUSH0 PUSH2 0x2AE6 DUP5 DUP3 DUP6 ADD PUSH2 0x2AB0 JUMP JUMPDEST SWAP2 POP POP SWAP3 SWAP2 POP POP JUMP JUMPDEST PUSH2 0x2AF8 DUP2 PUSH2 0x2894 JUMP JUMPDEST DUP3 MSTORE POP POP JUMP JUMPDEST PUSH2 0x2B07 DUP2 PUSH2 0x2A89 JUMP JUMPDEST DUP3 MSTORE POP POP JUMP JUMPDEST PUSH1 0x3 DUP2 LT PUSH2 0x2B1E JUMPI PUSH2 0x2B1D PUSH2 0x29DE JUMP JUMPDEST JUMPDEST POP JUMP JUMPDEST PUSH0 DUP2 SWAP1 POP PUSH2 0x2B2E DUP3 PUSH2 0x2B0D JUMP JUMPDEST SWAP2 SWAP1 POP JUMP JUMPDEST PUSH0 PUSH2 0x2B3D DUP3 PUSH2 0x2B21 JUMP JUMPDEST SWAP1 POP SWAP2 SWAP1 POP JUMP JUMPDEST PUSH2 0x2B4D DUP2 PUSH2 0x2B33 JUMP JUMPDEST DUP3 MSTORE POP POP JUMP JUMPDEST PUSH1 0x4 DUP2 LT PUSH2 0x2B64 JUMPI PUSH2 0x2B63 PUSH2 0x29DE JUMP JUMPDEST JUMPDEST POP JUMP JUMPDEST PUSH0 DUP2 SWAP1 POP PUSH2 0x2B74 DUP3 PUSH2 0x2B53 JUMP JUMPDEST SWAP2 SWAP1 POP JUMP JUMPDEST PUSH0 PUSH2 0x2B83 DUP3 PUSH2 0x2B67 JUMP JUMPDEST SWAP1 POP SWAP2 SWAP1 POP JUMP JUMPDEST PUSH2 0x2B93 DUP2 PUSH2 0x2B79 JUMP JUMPDEST DUP3 MSTORE POP POP JUMP JUMPDEST PUSH1 0xC0 DUP3 ADD PUSH0 DUP3 ADD MLOAD PUSH2 0x2BAD PUSH0 DUP6 ADD DUP3 PUSH2 0x2B8A JUMP JUMPDEST POP PUSH1 0x20 DUP3 ADD MLOAD PUSH2 0x2BC0 PUSH1 0x20 DUP6 ADD DUP3 PUSH2 0x2AEF JUMP JUMPDEST POP PUSH1 0x40 DUP3 ADD MLOAD PUSH2 0x2BD3 PUSH1 0x40 DUP6 ADD DUP3 PUSH2 0x2AEF JUMP JUMPDEST POP PUSH1 0x60 DUP3 ADD MLOAD PUSH2 0x2BE6 PUSH1 0x60 DUP6 ADD DUP3 PUSH2 0x2AEF JUMP JUMPDEST POP PUSH1 0x80 DUP3 ADD MLOAD PUSH2 0x2BF9 PUSH1 0x80 DUP6 ADD DUP3 PUSH2 0x2AEF JUMP JUMPDEST POP PUSH1 0xA0 DUP3 ADD MLOAD PUSH2 0x2C0C PUSH1 0xA0 DUP6 ADD DUP3 PUSH2 0x2AEF JUMP JUMPDEST POP POP POP POP JUMP JUMPDEST PUSH1 0x40 DUP3 ADD PUSH0 DUP3 ADD MLOAD PUSH2 0x2C26 PUSH0 DUP6 ADD DUP3 PUSH2 0x2AEF JUMP JUMPDEST POP PUSH1 0x20 DUP3 ADD MLOAD PUSH2 0x2C39 PUSH1 0x20 DUP6 ADD DUP3 PUSH2 0x2AEF JUMP JUMPDEST POP POP POP POP JUMP JUMPDEST PUSH2 0x300 DUP3 ADD PUSH0 DUP3 ADD MLOAD PUSH2 0x2C54 PUSH0 DUP6 ADD DUP3 PUSH2 0x2AEF JUMP JUMPDEST POP PUSH1 0x20 DUP3 ADD MLOAD PUSH2 0x2C67 PUSH1 0x20 DUP6 ADD DUP3 PUSH2 0x2AFE JUMP JUMPDEST POP PUSH1 0x40 DUP3 ADD MLOAD PUSH2 0x2C7A PUSH1 0x40 DUP6 ADD DUP3 PUSH2 0x2AFE JUMP JUMPDEST POP PUSH1 0x60 DUP3 ADD MLOAD PUSH2 0x2C8D PUSH1 0x60 DUP6 ADD DUP3 PUSH2 0x2AEF JUMP JUMPDEST POP PUSH1 0x80 DUP3 ADD MLOAD PUSH2 0x2CA0 PUSH1 0x80 DUP6 ADD DUP3 PUSH2 0x2AEF JUMP JUMPDEST POP PUSH1 0xA0 DUP3 ADD MLOAD PUSH2 0x2CB3 PUSH1 0xA0 DUP6 ADD DUP3 PUSH2 0x2AEF JUMP JUMPDEST POP PUSH1 0xC0 DUP3 ADD MLOAD PUSH2 0x2CC6 PUSH1 0xC0 DUP6 ADD DUP3 PUSH2 0x2B44 JUMP JUMPDEST POP PUSH1 0xE0 DUP3 ADD MLOAD PUSH2 0x2CD9 PUSH1 0xE0 DUP6 ADD DUP3 PUSH2 0x2B99 JUMP JUMPDEST POP PUSH2 0x100 DUP3 ADD MLOAD PUSH2 0x2CEE PUSH2 0x1A0 DUP6 ADD DUP3 PUSH2 0x2B99 JUMP JUMPDEST POP PUSH2 0x120 DUP3 ADD MLOAD PUSH2 0x2D03 PUSH2 0x260 DUP6 ADD DUP3 PUSH2 0x2C12 JUMP JUMPDEST POP PUSH2 0x140 DUP3 ADD MLOAD PUSH2 0x2D18 PUSH2 0x2A0 DUP6 ADD DUP3 PUSH2 0x2AEF JUMP JUMPDEST POP PUSH2 0x160 DUP3 ADD MLOAD PUSH2 0x2D2D PUSH2 0x2C0 DUP6 ADD DUP3 PUSH2 0x2AEF JUMP JUMPDEST POP PUSH2 0x180 DUP3 ADD MLOAD PUSH2 0x2D42 PUSH2 0x2E0 DUP6 ADD DUP3 PUSH2 0x2AEF JUMP JUMPDEST POP POP POP POP JUMP JUMPDEST PUSH2 0x3C0 DUP3 ADD PUSH0 DUP3 ADD MLOAD PUSH2 0x2D5D PUSH0 DUP6 ADD DUP3 PUSH2 0x2AEF JUMP JUMPDEST POP PUSH1 0x20 DUP3 ADD MLOAD PUSH2 0x2D70 PUSH1 0x20 DUP6 ADD DUP3 PUSH2 0x2AFE JUMP JUMPDEST POP PUSH1 0x40 DUP3 ADD MLOAD PUSH2 0x2D83 PUSH1 0x40 DUP6 ADD DUP3 PUSH2 0x2AFE JUMP JUMPDEST POP PUSH1 0x60 DUP3 ADD MLOAD PUSH2 0x2D96 PUSH1 0x60 DUP6 ADD DUP3 PUSH2 0x2AFE JUMP JUMPDEST POP PUSH1 0x80 DUP3 ADD MLOAD PUSH2 0x2DA9 PUSH1 0x80 DUP6 ADD DUP3 PUSH2 0x2AEF JUMP JUMPDEST POP PUSH1 0xA0 DUP3 ADD MLOAD PUSH2 0x2DBC PUSH1 0xA0 DUP6 ADD DUP3 PUSH2 0x2AEF JUMP JUMPDEST POP PUSH1 0xC0 DUP3 ADD MLOAD PUSH2 0x2DCF PUSH1 0xC0 DUP6 ADD DUP3 PUSH2 0x2C3F JUMP JUMPDEST POP POP POP POP JUMP JUMPDEST PUSH0 PUSH2 0x3C0 DUP3 ADD SWAP1 POP PUSH2 0x2DE9 PUSH0 DUP4 ADD DUP5 PUSH2 0x2D48 JUMP JUMPDEST SWAP3 SWAP2 POP POP JUMP JUMPDEST PUSH0 PUSH0 PUSH0 PUSH1 0x60 DUP5 DUP7 SUB SLT ISZERO PUSH2 0x2E06 JUMPI PUSH2 0x2E05 PUSH2 0x295E JUMP JUMPDEST JUMPDEST PUSH0 PUSH2 0x2E13 DUP7 DUP3 DUP8 ADD PUSH2 0x2978 JUMP JUMPDEST SWAP4 POP POP PUSH1 0x20 PUSH2 0x2E24 DUP7 DUP3 DUP8 ADD PUSH2 0x2978 JUMP JUMPDEST SWAP3 POP POP PUSH1 0x40 PUSH2 0x2E35 DUP7 DUP3 DUP8 ADD PUSH2 0x2978 JUMP JUMPDEST SWAP2 POP POP SWAP3 POP SWAP3 POP SWAP3 JUMP JUMPDEST PUSH0 DUP2 MLOAD SWAP1 POP SWAP2 SWAP1 POP JUMP JUMPDEST PUSH0 DUP3 DUP3 MSTORE PUSH1 0x20 DUP3 ADD SWAP1 POP SWAP3 SWAP2 POP POP JUMP JUMPDEST PUSH0 DUP2 SWAP1 POP PUSH1 0x20 DUP3 ADD SWAP1 POP SWAP2 SWAP1 POP JUMP JUMPDEST PUSH0 PUSH2 0x2E73 DUP4 DUP4 PUSH2 0x2AEF JUMP JUMPDEST PUSH1 0x20 DUP4 ADD SWAP1 POP SWAP3 SWAP2 POP POP JUMP JUMPDEST PUSH0 PUSH1 0x20 DUP3 ADD SWAP1 POP SWAP2 SWAP1 POP JUMP JUMPDEST PUSH0 PUSH2 0x2E95 DUP3 PUSH2 0x2E3F JUMP JUMPDEST PUSH2 0x2E9F DUP2 DUP6 PUSH2 0x2E49 JUMP JUMPDEST SWAP4 POP PUSH2 0x2EAA DUP4 PUSH2 0x2E59 JUMP JUMPDEST DUP1 PUSH0 JUMPDEST DUP4 DUP2 LT ISZERO PUSH2 0x2EDA JUMPI DUP2 MLOAD PUSH2 0x2EC1 DUP9 DUP3 PUSH2 0x2E68 JUMP JUMPDEST SWAP8 POP PUSH2 0x2ECC DUP4 PUSH2 0x2E7F JUMP JUMPDEST SWAP3 POP POP PUSH1 0x1 DUP2 ADD SWAP1 POP PUSH2 0x2EAD JUMP JUMPDEST POP DUP6 SWAP4 POP POP POP POP SWAP3 SWAP2 POP POP JUMP JUMPDEST PUSH0 PUSH1 0x20 DUP3 ADD SWAP1 POP DUP2 DUP2 SUB PUSH0 DUP4 ADD MSTORE PUSH2 0x2EFF DUP2 DUP5 PUSH2 0x2E8B JUMP JUMPDEST SWAP1 POP SWAP3 SWAP2 POP POP JUMP JUMPDEST PUSH0 DUP2 ISZERO ISZERO SWAP1 POP SWAP2 SWAP1 POP JUMP JUMPDEST PUSH2 0x2F1B DUP2 PUSH2 0x2F07 JUMP JUMPDEST DUP3 MSTORE POP POP JUMP JUMPDEST PUSH0 PUSH1 0x20 DUP3 ADD SWAP1 POP PUSH2 0x2F34 PUSH0 DUP4 ADD DUP5 PUSH2 0x2F12 JUMP JUMPDEST SWAP3 SWAP2 POP POP JUMP JUMPDEST PUSH0 DUP2 MLOAD SWAP1 POP PUSH2 0x2F48 DUP2 PUSH2 0x2A9A JUMP JUMPDEST SWAP3 SWAP2 POP POP JUMP JUMPDEST PUSH0 PUSH1 0x20 DUP3 DUP5 SUB SLT ISZERO PUSH2 0x2F63 JUMPI PUSH2 0x2F62 PUSH2 0x295E JUMP JUMPDEST JUMPDEST PUSH0 PUSH2 0x2F70 DUP5 DUP3 DUP6 ADD PUSH2 0x2F3A JUMP JUMPDEST SWAP2 POP POP SWAP3 SWAP2 POP POP JUMP JUMPDEST PUSH32 0x50656E73696F6E2041646D696E204F6E6C790000000000000000000000000000 PUSH0 DUP3 ADD MSTORE POP JUMP JUMPDEST PUSH0 PUSH2 0x2FAD PUSH1 0x12 DUP4 PUSH2 0x28CF JUMP JUMPDEST SWAP2 POP PUSH2 0x2FB8 DUP3 PUSH2 0x2F79 JUMP JUMPDEST PUSH1 0x20 DUP3 ADD SWAP1 POP SWAP2 SWAP1 POP JUMP JUMPDEST PUSH0 PUSH1 0x20 DUP3 ADD SWAP1 POP DUP2 DUP2 SUB PUSH0 DUP4 ADD MSTORE PUSH2 0x2FDA DUP2 PUSH2 0x2FA1 JUMP JUMPDEST SWAP1 POP SWAP2 SWAP1 POP JUMP JUMPDEST PUSH32 0x7661756C74206C6F636B65640000000000000000000000000000000000000000 PUSH0 DUP3 ADD MSTORE POP JUMP JUMPDEST PUSH0 PUSH2 0x3015 PUSH1 0xC DUP4 PUSH2 0x28CF JUMP JUMPDEST SWAP2 POP PUSH2 0x3020 DUP3 PUSH2 0x2FE1 JUMP JUMPDEST PUSH1 0x20 DUP3 ADD SWAP1 POP SWAP2 SWAP1 POP JUMP JUMPDEST PUSH0 PUSH1 0x20 DUP3 ADD SWAP1 POP DUP2 DUP2 SUB PUSH0 DUP4 ADD MSTORE PUSH2 0x3042 DUP2 PUSH2 0x3009 JUMP JUMPDEST SWAP1 POP SWAP2 SWAP1 POP JUMP JUMPDEST PUSH32 0x7661756C7420636C6F7365640000000000000000000000000000000000000000 PUSH0 DUP3 ADD MSTORE POP JUMP JUMPDEST PUSH0 PUSH2 0x307D PUSH1 0xC DUP4 PUSH2 0x28CF JUMP JUMPDEST SWAP2 POP PUSH2 0x3088 DUP3 PUSH2 0x3049 JUMP JUMPDEST PUSH1 0x20 DUP3 ADD SWAP1 POP SWAP2 SWAP1 POP JUMP JUMPDEST PUSH0 PUSH1 0x20 DUP3 ADD SWAP1 POP DUP2 DUP2 SUB PUSH0 DUP4 ADD MSTORE PUSH2 0x30AA DUP2 PUSH2 0x3071 JUMP JUMPDEST SWAP1 POP SWAP2 SWAP1 POP JUMP JUMPDEST PUSH32 0x70656E73696F6E20636C6F736564000000000000000000000000000000000000 PUSH0 DUP3 ADD MSTORE POP JUMP JUMPDEST PUSH0 PUSH2 0x30E5 PUSH1 0xE DUP4 PUSH2 0x28CF JUMP JUMPDEST SWAP2 POP PUSH2 0x30F0 DUP3 PUSH2 0x30B1 JUMP JUMPDEST PUSH1 0x20 DUP3 ADD SWAP1 POP SWAP2 SWAP1 POP JUMP JUMPDEST PUSH0 PUSH1 0x20 DUP3 ADD SWAP1 POP DUP2 DUP2 SUB PUSH0 DUP4 ADD MSTORE PUSH2 0x3112 DUP2 PUSH2 0x30D9 JUMP JUMPDEST SWAP1 POP SWAP2 SWAP1 POP JUMP JUMPDEST PUSH32 0x70656E73696F6E20696E20747265617375727900000000000000000000000000 PUSH0 DUP3 ADD MSTORE POP JUMP JUMPDEST PUSH0 PUSH2 0x314D PUSH1 0x13 DUP4 PUSH2 0x28CF JUMP JUMPDEST SWAP2 POP PUSH2 0x3158 DUP3 PUSH2 0x3119 JUMP JUMPDEST PUSH1 0x20 DUP3 ADD SWAP1 POP SWAP2 SWAP1 POP JUMP JUMPDEST PUSH0 PUSH1 0x20 DUP3 ADD SWAP1 POP DUP2 DUP2 SUB PUSH0 DUP4 ADD MSTORE PUSH2 0x317A DUP2 PUSH2 0x3141 JUMP JUMPDEST SWAP1 POP SWAP2 SWAP1 POP JUMP JUMPDEST PUSH2 0x318A DUP2 PUSH2 0x2A89 JUMP JUMPDEST DUP3 MSTORE POP POP JUMP JUMPDEST PUSH0 PUSH1 0x20 DUP3 ADD SWAP1 POP PUSH2 0x31A3 PUSH0 DUP4 ADD DUP5 PUSH2 0x3181 JUMP JUMPDEST SWAP3 SWAP2 POP POP JUMP JUMPDEST PUSH0 DUP2 MLOAD SWAP1 POP PUSH2 0x31B7 DUP2 PUSH2 0x2962 JUMP JUMPDEST SWAP3 SWAP2 POP POP JUMP JUMPDEST PUSH0 PUSH1 0x20 DUP3 DUP5 SUB SLT ISZERO PUSH2 0x31D2 JUMPI PUSH2 0x31D1 PUSH2 0x295E JUMP JUMPDEST JUMPDEST PUSH0 PUSH2 0x31DF DUP5 DUP3 DUP6 ADD PUSH2 0x31A9 JUMP JUMPDEST SWAP2 POP POP SWAP3 SWAP2 POP POP JUMP JUMPDEST PUSH0 PUSH1 0x40 DUP3 ADD SWAP1 POP PUSH2 0x31FB PUSH0 DUP4 ADD DUP6 PUSH2 0x3181 JUMP JUMPDEST PUSH2 0x3208 PUSH1 0x20 DUP4 ADD DUP5 PUSH2 0x289D JUMP JUMPDEST SWAP4 SWAP3 POP POP POP JUMP JUMPDEST PUSH2 0x3218 DUP2 PUSH2 0x2F07 JUMP JUMPDEST DUP2 EQ PUSH2 0x3222 JUMPI PUSH0 PUSH0 REVERT JUMPDEST POP JUMP JUMPDEST PUSH0 DUP2 MLOAD SWAP1 POP PUSH2 0x3233 DUP2 PUSH2 0x320F JUMP JUMPDEST SWAP3 SWAP2 POP POP JUMP JUMPDEST PUSH0 PUSH1 0x20 DUP3 DUP5 SUB SLT ISZERO PUSH2 0x324E JUMPI PUSH2 0x324D PUSH2 0x295E JUMP JUMPDEST JUMPDEST PUSH0 PUSH2 0x325B DUP5 DUP3 DUP6 ADD PUSH2 0x3225 JUMP JUMPDEST SWAP2 POP POP SWAP3 SWAP2 POP POP JUMP JUMPDEST PUSH32 0x5472656173757279204F6E6C7900000000000000000000000000000000000000 PUSH0 DUP3 ADD MSTORE POP JUMP JUMPDEST PUSH0 PUSH2 0x3298 PUSH1 0xD DUP4 PUSH2 0x28CF JUMP JUMPDEST SWAP2 POP PUSH2 0x32A3 DUP3 PUSH2 0x3264 JUMP JUMPDEST PUSH1 0x20 DUP3 ADD SWAP1 POP SWAP2 SWAP1 POP JUMP JUMPDEST PUSH0 PUSH1 0x20 DUP3 ADD SWAP1 POP DUP2 DUP2 SUB PUSH0 DUP4 ADD MSTORE PUSH2 0x32C5 DUP2 PUSH2 0x328C JUMP JUMPDEST SWAP1 POP SWAP2 SWAP1 POP JUMP JUMPDEST PUSH32 0x696E76616C69642070656E73696F6E2070756C6C207374617465000000000000 PUSH0 DUP3 ADD MSTORE POP JUMP JUMPDEST PUSH0 PUSH2 0x3300 PUSH1 0x1A DUP4 PUSH2 0x28CF JUMP JUMPDEST SWAP2 POP PUSH2 0x330B DUP3 PUSH2 0x32CC JUMP JUMPDEST PUSH1 0x20 DUP3 ADD SWAP1 POP SWAP2 SWAP1 POP JUMP JUMPDEST PUSH0 PUSH1 0x20 DUP3 ADD SWAP1 POP DUP2 DUP2 SUB PUSH0 DUP4 ADD MSTORE PUSH2 0x332D DUP2 PUSH2 0x32F4 JUMP JUMPDEST SWAP1 POP SWAP2 SWAP1 POP JUMP JUMPDEST PUSH32 0x7661756C7420616C72656164792070756C6C6564000000000000000000000000 PUSH0 DUP3 ADD MSTORE POP JUMP JUMPDEST PUSH0 PUSH2 0x3368 PUSH1 0x14 DUP4 PUSH2 0x28CF JUMP JUMPDEST SWAP2 POP PUSH2 0x3373 DUP3 PUSH2 0x3334 JUMP JUMPDEST PUSH1 0x20 DUP3 ADD SWAP1 POP SWAP2 SWAP1 POP JUMP JUMPDEST PUSH0 PUSH1 0x20 DUP3 ADD SWAP1 POP DUP2 DUP2 SUB PUSH0 DUP4 ADD MSTORE PUSH2 0x3395 DUP2 PUSH2 0x335C JUMP JUMPDEST SWAP1 POP SWAP2 SWAP1 POP JUMP JUMPDEST PUSH32 0x70656E73696F6E206E6F7420636C6F7365640000000000000000000000000000 PUSH0 DUP3 ADD MSTORE POP JUMP JUMPDEST PUSH0 PUSH2 0x33D0 PUSH1 0x12 DUP4 PUSH2 0x28CF JUMP JUMPDEST SWAP2 POP PUSH2 0x33DB DUP3 PUSH2 0x339C JUMP JUMPDEST PUSH1 0x20 DUP3 ADD SWAP1 POP SWAP2 SWAP1 POP JUMP JUMPDEST PUSH0 PUSH1 0x20 DUP3 ADD SWAP1 POP DUP2 DUP2 SUB PUSH0 DUP4 ADD MSTORE PUSH2 0x33FD DUP2 PUSH2 0x33C4 JUMP JUMPDEST SWAP1 POP SWAP2 SWAP1 POP JUMP JUMPDEST PUSH32 0x696E73756666696369656E74207072696E636970616C2072657475726E656400 PUSH0 DUP3 ADD MSTORE POP JUMP JUMPDEST PUSH0 PUSH2 0x3438 PUSH1 0x1F DUP4 PUSH2 0x28CF JUMP JUMPDEST SWAP2 POP PUSH2 0x3443 DUP3 PUSH2 0x3404 JUMP JUMPDEST PUSH1 0x20 DUP3 ADD SWAP1 POP SWAP2 SWAP1 POP JUMP JUMPDEST PUSH0 PUSH1 0x20 DUP3 ADD SWAP1 POP DUP2 DUP2 SUB PUSH0 DUP4 ADD MSTORE PUSH2 0x3465 DUP2 PUSH2 0x342C JUMP JUMPDEST SWAP1 POP SWAP2 SWAP1 POP JUMP JUMPDEST PUSH32 0x4E487B7100000000000000000000000000000000000000000000000000000000 PUSH0 MSTORE PUSH1 0x11 PUSH1 0x4 MSTORE PUSH1 0x24 PUSH0 REVERT JUMPDEST PUSH0 PUSH2 0x34A3 DUP3 PUSH2 0x2894 JUMP JUMPDEST SWAP2 POP PUSH2 0x34AE DUP4 PUSH2 0x2894 JUMP JUMPDEST SWAP3 POP DUP3 DUP3 ADD SWAP1 POP DUP1 DUP3 GT ISZERO PUSH2 0x34C6 JUMPI PUSH2 0x34C5 PUSH2 0x346C JUMP JUMPDEST JUMPDEST SWAP3 SWAP2 POP POP JUMP JUMPDEST PUSH32 0x7661756C74206E6F742070756C6C656400000000000000000000000000000000 PUSH0 DUP3 ADD MSTORE POP JUMP JUMPDEST PUSH0 PUSH2 0x3500 PUSH1 0x10 DUP4 PUSH2 0x28CF JUMP JUMPDEST SWAP2 POP PUSH2 0x350B DUP3 PUSH2 0x34CC JUMP JUMPDEST PUSH1 0x20 DUP3 ADD SWAP1 POP SWAP2 SWAP1 POP JUMP JUMPDEST PUSH0 PUSH1 0x20 DUP3 ADD SWAP1 POP DUP2 DUP2 SUB PUSH0 DUP4 ADD MSTORE PUSH2 0x352D DUP2 PUSH2 0x34F4 JUMP JUMPDEST SWAP1 POP SWAP2 SWAP1 POP JUMP JUMPDEST PUSH32 0x696E7375666669656E74207472616E736D69747465642076616C756500000000 PUSH0 DUP3 ADD MSTORE POP JUMP JUMPDEST PUSH0 PUSH2 0x3568 PUSH1 0x1C DUP4 PUSH2 0x28CF JUMP JUMPDEST SWAP2 POP PUSH2 0x3573 DUP3 PUSH2 0x3534 JUMP JUMPDEST PUSH1 0x20 DUP3 ADD SWAP1 POP SWAP2 SWAP1 POP JUMP JUMPDEST PUSH0 PUSH1 0x20 DUP3 ADD SWAP1 POP DUP2 DUP2 SUB PUSH0 DUP4 ADD MSTORE PUSH2 0x3595 DUP2 PUSH2 0x355C JUMP JUMPDEST SWAP1 POP SWAP2 SWAP1 POP JUMP JUMPDEST PUSH0 PUSH1 0x60 DUP3 ADD SWAP1 POP PUSH2 0x35AF PUSH0 DUP4 ADD DUP7 PUSH2 0x3181 JUMP JUMPDEST PUSH2 0x35BC PUSH1 0x20 DUP4 ADD DUP6 PUSH2 0x3181 JUMP JUMPDEST PUSH2 0x35C9 PUSH1 0x40 DUP4 ADD DUP5 PUSH2 0x289D JUMP JUMPDEST SWAP5 SWAP4 POP POP POP POP JUMP JUMPDEST PUSH0 PUSH2 0x35DB DUP3 PUSH2 0x2894 JUMP JUMPDEST SWAP2 POP PUSH2 0x35E6 DUP4 PUSH2 0x2894 JUMP JUMPDEST SWAP3 POP DUP3 DUP3 SUB SWAP1 POP DUP2 DUP2 GT ISZERO PUSH2 0x35FE JUMPI PUSH2 0x35FD PUSH2 0x346C JUMP JUMPDEST JUMPDEST SWAP3 SWAP2 POP POP JUMP JUMPDEST PUSH32 0x636F6E747269627574696F6E7320746F6F206672657175656E74207761697420 PUSH0 DUP3 ADD MSTORE PUSH32 0x7265717569726564200000000000000000000000000000000000000000000000 PUSH1 0x20 DUP3 ADD MSTORE POP JUMP JUMPDEST PUSH0 PUSH2 0x365E PUSH1 0x29 DUP4 PUSH2 0x28CF JUMP JUMPDEST SWAP2 POP PUSH2 0x3669 DUP3 PUSH2 0x3604 JUMP JUMPDEST PUSH1 0x40 DUP3 ADD SWAP1 POP SWAP2 SWAP1 POP JUMP JUMPDEST PUSH0 PUSH1 0x20 DUP3 ADD SWAP1 POP DUP2 DUP2 SUB PUSH0 DUP4 ADD MSTORE PUSH2 0x368B DUP2 PUSH2 0x3652 JUMP JUMPDEST SWAP1 POP SWAP2 SWAP1 POP JUMP JUMPDEST PUSH32 0x70656E73696F6E206D6174757265640000000000000000000000000000000000 PUSH0 DUP3 ADD MSTORE POP JUMP JUMPDEST PUSH0 PUSH2 0x36C6 PUSH1 0xF DUP4 PUSH2 0x28CF JUMP JUMPDEST SWAP2 POP PUSH2 0x36D1 DUP3 PUSH2 0x3692 JUMP JUMPDEST PUSH1 0x20 DUP3 ADD SWAP1 POP SWAP2 SWAP1 POP JUMP JUMPDEST PUSH0 PUSH1 0x20 DUP3 ADD SWAP1 POP DUP2 DUP2 SUB PUSH0 DUP4 ADD MSTORE PUSH2 0x36F3 DUP2 PUSH2 0x36BA JUMP JUMPDEST SWAP1 POP SWAP2 SWAP1 POP JUMP JUMPDEST PUSH32 0x70656E73696F6E206E6F74206F70656E00000000000000000000000000000000 PUSH0 DUP3 ADD MSTORE POP JUMP JUMPDEST PUSH0 PUSH2 0x372E PUSH1 0x10 DUP4 PUSH2 0x28CF JUMP JUMPDEST SWAP2 POP PUSH2 0x3739 DUP3 PUSH2 0x36FA JUMP JUMPDEST PUSH1 0x20 DUP3 ADD SWAP1 POP SWAP2 SWAP1 POP JUMP JUMPDEST PUSH0 PUSH1 0x20 DUP3 ADD SWAP1 POP DUP2 DUP2 SUB PUSH0 DUP4 ADD MSTORE PUSH2 0x375B DUP2 PUSH2 0x3722 JUMP JUMPDEST SWAP1 POP SWAP2 SWAP1 POP JUMP JUMPDEST PUSH32 0x696E76616C696420636F6E747269627574696F6E206569746865722072616973 PUSH0 DUP3 ADD MSTORE PUSH32 0x65206F72206C6F77657220616D6F756E74000000000000000000000000000000 PUSH1 0x20 DUP3 ADD MSTORE POP JUMP JUMPDEST PUSH0 PUSH2 0x37BC PUSH1 0x31 DUP4 PUSH2 0x28CF JUMP JUMPDEST SWAP2 POP PUSH2 0x37C7 DUP3 PUSH2 0x3762 JUMP JUMPDEST PUSH1 0x40 DUP3 ADD SWAP1 POP SWAP2 SWAP1 POP JUMP JUMPDEST PUSH0 PUSH1 0x20 DUP3 ADD SWAP1 POP DUP2 DUP2 SUB PUSH0 DUP4 ADD MSTORE PUSH2 0x37E9 DUP2 PUSH2 0x37B0 JUMP JUMPDEST SWAP1 POP SWAP2 SWAP1 POP JUMP JUMPDEST PUSH32 0x636F6E747269627574696F6E206D69732D6D6174636800000000000000000000 PUSH0 DUP3 ADD MSTORE POP JUMP JUMPDEST PUSH0 PUSH2 0x3824 PUSH1 0x16 DUP4 PUSH2 0x28CF JUMP JUMPDEST SWAP2 POP PUSH2 0x382F DUP3 PUSH2 0x37F0 JUMP JUMPDEST PUSH1 0x20 DUP3 ADD SWAP1 POP SWAP2 SWAP1 POP JUMP JUMPDEST PUSH0 PUSH1 0x20 DUP3 ADD SWAP1 POP DUP2 DUP2 SUB PUSH0 DUP4 ADD MSTORE PUSH2 0x3851 DUP2 PUSH2 0x3818 JUMP JUMPDEST SWAP1 POP SWAP2 SWAP1 POP JUMP JUMPDEST PUSH0 PUSH2 0x3862 DUP3 PUSH2 0x2894 JUMP JUMPDEST SWAP2 POP PUSH32 0xFFFFFFFFFFFFFFFFFFFFFFFFFFFFFFFFFFFFFFFFFFFFFFFFFFFFFFFFFFFFFFFF DUP3 SUB PUSH2 0x3894 JUMPI PUSH2 0x3893 PUSH2 0x346C JUMP JUMPDEST JUMPDEST PUSH1 0x1 DUP3 ADD SWAP1 POP SWAP2 SWAP1 POP JUMP JUMPDEST PUSH32 0x6F776E6572206F6E6C7900000000000000000000000000000000000000000000 PUSH0 DUP3 ADD MSTORE POP JUMP JUMPDEST PUSH0 PUSH2 0x38D3 PUSH1 0xA DUP4 PUSH2 0x28CF JUMP JUMPDEST SWAP2 POP PUSH2 0x38DE DUP3 PUSH2 0x389F JUMP JUMPDEST PUSH1 0x20 DUP3 ADD SWAP1 POP SWAP2 SWAP1 POP JUMP JUMPDEST PUSH0 PUSH1 0x20 DUP3 ADD SWAP1 POP DUP2 DUP2 SUB PUSH0 DUP4 ADD MSTORE PUSH2 0x3900 DUP2 PUSH2 0x38C7 JUMP JUMPDEST SWAP1 POP SWAP2 SWAP1 POP JUMP JUMPDEST PUSH32 0x696E76616C69642070656E73696F6E2073746174757300000000000000000000 PUSH0 DUP3 ADD MSTORE POP JUMP JUMPDEST PUSH0 PUSH2 0x393B PUSH1 0x16 DUP4 PUSH2 0x28CF JUMP JUMPDEST SWAP2 POP PUSH2 0x3946 DUP3 PUSH2 0x3907 JUMP JUMPDEST PUSH1 0x20 DUP3 ADD SWAP1 POP SWAP2 SWAP1 POP JUMP JUMPDEST PUSH0 PUSH1 0x20 DUP3 ADD SWAP1 POP DUP2 DUP2 SUB PUSH0 DUP4 ADD MSTORE PUSH2 0x3968 DUP2 PUSH2 0x392F JUMP JUMPDEST SWAP1 POP SWAP2 SWAP1 POP JUMP JUMPDEST PUSH32 0x70656E73696F6E20736574746C65640000000000000000000000000000000000 PUSH0 DUP3 ADD MSTORE POP JUMP JUMPDEST PUSH0 PUSH2 0x39A3 PUSH1 0xF DUP4 PUSH2 0x28CF JUMP JUMPDEST SWAP2 POP PUSH2 0x39AE DUP3 PUSH2 0x396F JUMP JUMPDEST PUSH1 0x20 DUP3 ADD SWAP1 POP SWAP2 SWAP1 POP JUMP JUMPDEST PUSH0 PUSH1 0x20 DUP3 ADD SWAP1 POP DUP2 DUP2 SUB PUSH0 DUP4 ADD MSTORE PUSH2 0x39D0 DUP2 PUSH2 0x3997 JUMP JUMPDEST SWAP1 POP SWAP2 SWAP1 POP JUMP JUMPDEST PUSH32 0x696E73756666696369656E7420656D6D697373696F6E2062616C616E63650000 PUSH0 DUP3 ADD MSTORE POP JUMP JUMPDEST PUSH0 PUSH2 0x3A0B PUSH1 0x1E DUP4 PUSH2 0x28CF JUMP JUMPDEST SWAP2 POP PUSH2 0x3A16 DUP3 PUSH2 0x39D7 JUMP JUMPDEST PUSH1 0x20 DUP3 ADD SWAP1 POP SWAP2 SWAP1 POP JUMP JUMPDEST PUSH0 PUSH1 0x20 DUP3 ADD SWAP1 POP DUP2 DUP2 SUB PUSH0 DUP4 ADD MSTORE PUSH2 0x3A38 DUP2 PUSH2 0x39FF JUMP JUMPDEST SWAP1 POP SWAP2 SWAP1 POP JUMP JUMPDEST PUSH0 PUSH0 REVERT JUMPDEST PUSH32 0x4E487B7100000000000000000000000000000000000000000000000000000000 PUSH0 MSTORE PUSH1 0x41 PUSH1 0x4 MSTORE PUSH1 0x24 PUSH0 REVERT JUMPDEST PUSH2 0x3A79 DUP3 PUSH2 0x28ED JUMP JUMPDEST DUP2 ADD DUP2 DUP2 LT PUSH8 0xFFFFFFFFFFFFFFFF DUP3 GT OR ISZERO PUSH2 0x3A98 JUMPI PUSH2 0x3A97 PUSH2 0x3A43 JUMP JUMPDEST JUMPDEST DUP1 PUSH1 0x40 MSTORE POP POP POP JUMP JUMPDEST PUSH0 PUSH2 0x3AAA PUSH2 0x2955 JUMP JUMPDEST SWAP1 POP PUSH2 0x3AB6 DUP3 DUP3 PUSH2 0x3A70 JUMP JUMPDEST SWAP2 SWAP1 POP JUMP JUMPDEST PUSH1 0x3 DUP2 LT PUSH2 0x3AC7 JUMPI PUSH0 PUSH0 REVERT JUMPDEST POP JUMP JUMPDEST PUSH0 DUP2 MLOAD SWAP1 POP PUSH2 0x3AD8 DUP2 PUSH2 0x3ABB JUMP JUMPDEST SWAP3 SWAP2 POP POP JUMP JUMPDEST PUSH1 0x4 DUP2 LT PUSH2 0x3AEA JUMPI PUSH0 PUSH0 REVERT JUMPDEST POP JUMP JUMPDEST PUSH0 DUP2 MLOAD SWAP1 POP PUSH2 0x3AFB DUP2 PUSH2 0x3ADE JUMP JUMPDEST SWAP3 SWAP2 POP POP JUMP JUMPDEST PUSH0 PUSH1 0xC0 DUP3 DUP5 SUB SLT ISZERO PUSH2 0x3B16 JUMPI PUSH2 0x3B15 PUSH2 0x3A3F JUMP JUMPDEST JUMPDEST PUSH2 0x3B20 PUSH1 0xC0 PUSH2 0x3AA1 JUMP JUMPDEST SWAP1 POP PUSH0 PUSH2 0x3B2F DUP5 DUP3 DUP6 ADD PUSH2 0x3AED JUMP JUMPDEST PUSH0 DUP4 ADD MSTORE POP PUSH1 0x20 PUSH2 0x3B42 DUP5 DUP3 DUP6 ADD PUSH2 0x31A9 JUMP JUMPDEST PUSH1 0x20 DUP4 ADD MSTORE POP PUSH1 0x40 PUSH2 0x3B56 DUP5 DUP3 DUP6 ADD PUSH2 0x31A9 JUMP JUMPDEST PUSH1 0x40 DUP4 ADD MSTORE POP PUSH1 0x60 PUSH2 0x3B6A DUP5 DUP3 DUP6 ADD PUSH2 0x31A9 JUMP JUMPDEST PUSH1 0x60 DUP4 ADD MSTORE POP PUSH1 0x80 PUSH2 0x3B7E DUP5 DUP3 DUP6 ADD PUSH2 0x31A9 JUMP JUMPDEST PUSH1 0x80 DUP4 ADD MSTORE POP PUSH1 0xA0 PUSH2 0x3B92 DUP5 DUP3 DUP6 ADD PUSH2 0x31A9 JUMP JUMPDEST PUSH1 0xA0 DUP4 ADD MSTORE POP SWAP3 SWAP2 POP POP JUMP JUMPDEST PUSH0 PUSH1 0x40 DUP3 DUP5 SUB SLT ISZERO PUSH2 0x3BB3 JUMPI PUSH2 0x3BB2 PUSH2 0x3A3F JUMP JUMPDEST JUMPDEST PUSH2 0x3BBD PUSH1 0x40 PUSH2 0x3AA1 JUMP JUMPDEST SWAP1 POP PUSH0 PUSH2 0x3BCC DUP5 DUP3 DUP6 ADD PUSH2 0x31A9 JUMP JUMPDEST PUSH0 DUP4 ADD MSTORE POP PUSH1 0x20 PUSH2 0x3BDF DUP5 DUP3 DUP6 ADD PUSH2 0x31A9 JUMP JUMPDEST PUSH1 0x20 DUP4 ADD MSTORE POP SWAP3 SWAP2 POP POP JUMP JUMPDEST PUSH0 PUSH2 0x300 DUP3 DUP5 SUB SLT ISZERO PUSH2 0x3C01 JUMPI PUSH2 0x3C00 PUSH2 0x3A3F JUMP JUMPDEST JUMPDEST PUSH2 0x3C0C PUSH2 0x1A0 PUSH2 0x3AA1 JUMP JUMPDEST SWAP1 POP PUSH0 PUSH2 0x3C1B DUP5 DUP3 DUP6 ADD PUSH2 0x31A9 JUMP JUMPDEST PUSH0 DUP4 ADD MSTORE POP PUSH1 0x20 PUSH2 0x3C2E DUP5 DUP3 DUP6 ADD PUSH2 0x2F3A JUMP JUMPDEST PUSH1 0x20 DUP4 ADD MSTORE POP PUSH1 0x40 PUSH2 0x3C42 DUP5 DUP3 DUP6 ADD PUSH2 0x2F3A JUMP JUMPDEST PUSH1 0x40 DUP4 ADD MSTORE POP PUSH1 0x60 PUSH2 0x3C56 DUP5 DUP3 DUP6 ADD PUSH2 0x31A9 JUMP JUMPDEST PUSH1 0x60 DUP4 ADD MSTORE POP PUSH1 0x80 PUSH2 0x3C6A DUP5 DUP3 DUP6 ADD PUSH2 0x31A9 JUMP JUMPDEST PUSH1 0x80 DUP4 ADD MSTORE POP PUSH1 0xA0 PUSH2 0x3C7E DUP5 DUP3 DUP6 ADD PUSH2 0x31A9 JUMP JUMPDEST PUSH1 0xA0 DUP4 ADD MSTORE POP PUSH1 0xC0 PUSH2 0x3C92 DUP5 DUP3 DUP6 ADD PUSH2 0x3ACA JUMP JUMPDEST PUSH1 0xC0 DUP4 ADD MSTORE POP PUSH1 0xE0 PUSH2 0x3CA6 DUP5 DUP3 DUP6 ADD PUSH2 0x3B01 JUMP JUMPDEST PUSH1 0xE0 DUP4 ADD MSTORE POP PUSH2 0x1A0 PUSH2 0x3CBB DUP5 DUP3 DUP6 ADD PUSH2 0x3B01 JUMP JUMPDEST PUSH2 0x100 DUP4 ADD MSTORE POP PUSH2 0x260 PUSH2 0x3CD1 DUP5 DUP3 DUP6 ADD PUSH2 0x3B9E JUMP JUMPDEST PUSH2 0x120 DUP4 ADD MSTORE POP PUSH2 0x2A0 PUSH2 0x3CE7 DUP5 DUP3 DUP6 ADD PUSH2 0x31A9 JUMP JUMPDEST PUSH2 0x140 DUP4 ADD MSTORE POP PUSH2 0x2C0 PUSH2 0x3CFD DUP5 DUP3 DUP6 ADD PUSH2 0x31A9 JUMP JUMPDEST PUSH2 0x160 DUP4 ADD MSTORE POP PUSH2 0x2E0 PUSH2 0x3D13 DUP5 DUP3 DUP6 ADD PUSH2 0x31A9 JUMP JUMPDEST PUSH2 0x180 DUP4 ADD MSTORE POP SWAP3 SWAP2 POP POP JUMP JUMPDEST PUSH0 PUSH2 0x3C0 DUP3 DUP5 SUB SLT ISZERO PUSH2 0x3D36 JUMPI PUSH2 0x3D35 PUSH2 0x3A3F JUMP JUMPDEST JUMPDEST PUSH2 0x3D40 PUSH1 0xE0 PUSH2 0x3AA1 JUMP JUMPDEST SWAP1 POP PUSH0 PUSH2 0x3D4F DUP5 DUP3 DUP6 ADD PUSH2 0x31A9 JUMP JUMPDEST PUSH0 DUP4 ADD MSTORE POP PUSH1 0x20 PUSH2 0x3D62 DUP5 DUP3 DUP6 ADD PUSH2 0x2F3A JUMP JUMPDEST PUSH1 0x20 DUP4 ADD MSTORE POP PUSH1 0x40 PUSH2 0x3D76 DUP5 DUP3 DUP6 ADD PUSH2 0x2F3A JUMP JUMPDEST PUSH1 0x40 DUP4 ADD MSTORE POP PUSH1 0x60 PUSH2 0x3D8A DUP5 DUP3 DUP6 ADD PUSH2 0x2F3A JUMP JUMPDEST PUSH1 0x60 DUP4 ADD MSTORE POP PUSH1 0x80 PUSH2 0x3D9E DUP5 DUP3 DUP6 ADD PUSH2 0x31A9 JUMP JUMPDEST PUSH1 0x80 DUP4 ADD MSTORE POP PUSH1 0xA0 PUSH2 0x3DB2 DUP5 DUP3 DUP6 ADD PUSH2 0x31A9 JUMP JUMPDEST PUSH1 0xA0 DUP4 ADD MSTORE POP PUSH1 0xC0 PUSH2 0x3DC6 DUP5 DUP3 DUP6 ADD PUSH2 0x3BEB JUMP JUMPDEST PUSH1 0xC0 DUP4 ADD MSTORE POP SWAP3 SWAP2 POP POP JUMP JUMPDEST PUSH0 PUSH2 0x3C0 DUP3 DUP5 SUB SLT ISZERO PUSH2 0x3DE8 JUMPI PUSH2 0x3DE7 PUSH2 0x295E JUMP JUMPDEST JUMPDEST PUSH0 PUSH2 0x3DF5 DUP5 DUP3 DUP6 ADD PUSH2 0x3D20 JUMP JUMPDEST SWAP2 POP POP SWAP3 SWAP2 POP POP JUMP JUMPDEST PUSH1 0xA DUP2 LT PUSH2 0x3E0F JUMPI PUSH2 0x3E0E PUSH2 0x29DE JUMP JUMPDEST JUMPDEST POP JUMP JUMPDEST PUSH0 DUP2 SWAP1 POP PUSH2 0x3E1F DUP3 PUSH2 0x3DFE JUMP JUMPDEST SWAP2 SWAP1 POP JUMP JUMPDEST PUSH0 PUSH2 0x3E2E DUP3 PUSH2 0x3E12 JUMP JUMPDEST SWAP1 POP SWAP2 SWAP1 POP JUMP JUMPDEST PUSH2 0x3E3E DUP2 PUSH2 0x3E24 JUMP JUMPDEST DUP3 MSTORE POP POP JUMP JUMPDEST PUSH1 0x6 DUP2 LT PUSH2 0x3E55 JUMPI PUSH2 0x3E54 PUSH2 0x29DE JUMP JUMPDEST JUMPDEST POP JUMP JUMPDEST PUSH0 DUP2 SWAP1 POP PUSH2 0x3E65 DUP3 PUSH2 0x3E44 JUMP JUMPDEST SWAP2 SWAP1 POP JUMP JUMPDEST PUSH0 PUSH2 0x3E74 DUP3 PUSH2 0x3E58 JUMP JUMPDEST SWAP1 POP SWAP2 SWAP1 POP JUMP JUMPDEST PUSH2 0x3E84 DUP2 PUSH2 0x3E6A JUMP JUMPDEST DUP3 MSTORE POP POP JUMP JUMPDEST PUSH0 PUSH1 0xC0 DUP3 ADD SWAP1 POP PUSH2 0x3E9D PUSH0 DUP4 ADD DUP10 PUSH2 0x3E35 JUMP JUMPDEST PUSH2 0x3EAA PUSH1 0x20 DUP4 ADD DUP9 PUSH2 0x3E7B JUMP JUMPDEST PUSH2 0x3EB7 PUSH1 0x40 DUP4 ADD DUP8 PUSH2 0x289D JUMP JUMPDEST PUSH2 0x3EC4 PUSH1 0x60 DUP4 ADD DUP7 PUSH2 0x3181 JUMP JUMPDEST PUSH2 0x3ED1 PUSH1 0x80 DUP4 ADD DUP6 PUSH2 0x289D JUMP JUMPDEST PUSH2 0x3EDE PUSH1 0xA0 DUP4 ADD DUP5 PUSH2 0x3181 JUMP JUMPDEST SWAP8 SWAP7 POP POP POP POP POP POP POP JUMP JUMPDEST PUSH0 PUSH2 0x3EF3 DUP3 PUSH2 0x2894 JUMP JUMPDEST SWAP2 POP PUSH2 0x3EFE DUP4 PUSH2 0x2894 JUMP JUMPDEST SWAP3 POP DUP3 DUP3 MUL PUSH2 0x3F0C DUP2 PUSH2 0x2894 JUMP JUMPDEST SWAP2 POP DUP3 DUP3 DIV DUP5 EQ DUP4 ISZERO OR PUSH2 0x3F23 JUMPI PUSH2 0x3F22 PUSH2 0x346C JUMP JUMPDEST JUMPDEST POP SWAP3 SWAP2 POP POP JUMP INVALID LOG2 PUSH5 0x6970667358 0x22 SLT KECCAK256 PUSH9 0x81B15A3B982F6295BE XOR 0xA8 EXTSTATICCALL KECCAK256 COINBASE PC 0xDC BYTE 0xBA 0xC0 CODECOPY CODECOPY LOG4 GASPRICE CALLDATALOAD 0xDB JUMPF 0x804A 0xBC 0x22 BALANCE PUSH5 0x736F6C6343 STOP ADDMOD 0x1E STOP CALLER "
				},
				"gasEstimates": {
					"creation": {
						"codeDepositCost": "3244800",
						"executionCost": "infinite",
						"totalCost": "infinite"
					},
					"external": {
						"close()": "infinite",
						"contribute(uint256)": "infinite",
						"drawdown()": "infinite",
						"getBalance()": "2455",
						"getName()": "infinite",
						"getPension()": "infinite",
						"getStatus()": "2722",
						"getTx(uint256)": "infinite",
						"getVersion()": "333",
						"notifyChangeOfAddress()": "infinite",
						"pull(uint256)": "infinite",
						"push(uint256,uint256,uint256)": "infinite",
						"withdraw(address)": "infinite"
					},
					"internal": {
						"addTx(enum TxType,enum ObjType,uint256,uint256,address)": "infinite",
						"checkMaturity()": "infinite",
						"checkSettlement()": "infinite",
						"getPensionInternal()": "infinite",
						"getSeconds(enum Schedule)": "infinite"
					}
				},
				"methodIdentifiers": {
					"close()": "43d726d6",
					"contribute(uint256)": "c1cbbca7",
					"drawdown()": "e77ef21f",
					"getBalance()": "12065fe0",
					"getName()": "17d7de7c",
					"getPension()": "73488018",
					"getStatus()": "4e69d560",
					"getTx(uint256)": "b8c89338",
					"getVersion()": "0d8e6e2c",
					"notifyChangeOfAddress()": "cde4c10c",
					"pull(uint256)": "4d0392a8",
					"push(uint256,uint256,uint256)": "9f08c755",
					"withdraw(address)": "51cff8d9"
				}
			},
			"storageLayout": {
				"storage": [
					{
						"astId": 550,
						"contract": "contracts/core/MPensionVault_flattened.sol:MPensionVault",
						"label": "locked",
						"offset": 0,
						"slot": "0",
						"type": "t_bool"
					},
					{
						"astId": 553,
						"contract": "contracts/core/MPensionVault_flattened.sol:MPensionVault",
						"label": "status",
						"offset": 1,
						"slot": "0",
						"type": "t_enum(MPStatus)6"
					},
					{
						"astId": 556,
						"contract": "contracts/core/MPensionVault_flattened.sol:MPensionVault",
						"label": "scheduleStatus",
						"offset": 2,
						"slot": "0",
						"type": "t_enum(MPScheduleStatus)9"
					},
					{
						"astId": 559,
						"contract": "contracts/core/MPensionVault_flattened.sol:MPensionVault",
						"label": "register",
						"offset": 3,
						"slot": "0",
						"type": "t_contract(IRegister)303"
					},
					{
						"astId": 561,
						"contract": "contracts/core/MPensionVault_flattened.sol:MPensionVault",
						"label": "contributions",
						"offset": 0,
						"slot": "1",
						"type": "t_uint256"
					},
					{
						"astId": 563,
						"contract": "contracts/core/MPensionVault_flattened.sol:MPensionVault",
						"label": "pensionBalance",
						"offset": 0,
						"slot": "2",
						"type": "t_uint256"
					},
					{
						"astId": 565,
						"contract": "contracts/core/MPensionVault_flattened.sol:MPensionVault",
						"label": "emissionBalance",
						"offset": 0,
						"slot": "3",
						"type": "t_uint256"
					},
					{
						"astId": 567,
						"contract": "contracts/core/MPensionVault_flattened.sol:MPensionVault",
						"label": "lastContribution",
						"offset": 0,
						"slot": "4",
						"type": "t_uint256"
					},
					{
						"astId": 569,
						"contract": "contracts/core/MPensionVault_flattened.sol:MPensionVault",
						"label": "lastPull",
						"offset": 0,
						"slot": "5",
						"type": "t_uint256"
					},
					{
						"astId": 571,
						"contract": "contracts/core/MPensionVault_flattened.sol:MPensionVault",
						"label": "issuedPrincipal",
						"offset": 0,
						"slot": "6",
						"type": "t_uint256"
					},
					{
						"astId": 573,
						"contract": "contracts/core/MPensionVault_flattened.sol:MPensionVault",
						"label": "isInTreasury",
						"offset": 0,
						"slot": "7",
						"type": "t_bool"
					},
					{
						"astId": 578,
						"contract": "contracts/core/MPensionVault_flattened.sol:MPensionVault",
						"label": "txIdsByTreasuryId",
						"offset": 0,
						"slot": "8",
						"type": "t_mapping(t_uint256,t_array(t_uint256)dyn_storage)"
					}
				],
				"types": {
					"t_array(t_uint256)dyn_storage": {
						"base": "t_uint256",
						"encoding": "dynamic_array",
						"label": "uint256[]",
						"numberOfBytes": "32"
					},
					"t_bool": {
						"encoding": "inplace",
						"label": "bool",
						"numberOfBytes": "1"
					},
					"t_contract(IRegister)303": {
						"encoding": "inplace",
						"label": "contract IRegister",
						"numberOfBytes": "20"
					},
					"t_enum(MPScheduleStatus)9": {
						"encoding": "inplace",
						"label": "enum MPScheduleStatus",
						"numberOfBytes": "1"
					},
					"t_enum(MPStatus)6": {
						"encoding": "inplace",
						"label": "enum MPStatus",
						"numberOfBytes": "1"
					},
					"t_mapping(t_uint256,t_array(t_uint256)dyn_storage)": {
						"encoding": "mapping",
						"key": "t_uint256",
						"label": "mapping(uint256 => uint256[])",
						"numberOfBytes": "32",
						"value": "t_array(t_uint256)dyn_storage"
					},
					"t_uint256": {
						"encoding": "inplace",
						"label": "uint256",
						"numberOfBytes": "32"
					}
				}
			},
			"userdoc": {
				"kind": "user",
				"methods": {},
				"version": 1
			}
		}
	}
}