{
	"contracts/core/MedallionPensions.sol": {
		"MedallionPensions": {
			"abi": [
				{
					"inputs": [
						{
							"internalType": "address",
							"name": "_registry",
							"type": "address"
						}
					],
					"stateMutability": "nonpayable",
					"type": "constructor"
				},
				{
					"inputs": [
						{
							"components": [
								{
									"internalType": "address",
									"name": "owner",
									"type": "address"
								},
								{
									"internalType": "uint256",
									"name": "productId",
									"type": "uint256"
								}
							],
							"internalType": "struct ProtoPension",
							"name": "_pPension",
							"type": "tuple"
						}
					],
					"name": "createPension",
					"outputs": [
						{
							"internalType": "address",
							"name": "_vault",
							"type": "address"
						},
						{
							"internalType": "uint256",
							"name": "_txId",
							"type": "uint256"
						}
					],
					"stateMutability": "payable",
					"type": "function"
				},
				{
					"inputs": [
						{
							"internalType": "string",
							"name": "_feeName",
							"type": "string"
						}
					],
					"name": "getFee",
					"outputs": [
						{
							"internalType": "uint256",
							"name": "_fee",
							"type": "uint256"
						}
					],
					"stateMutability": "view",
					"type": "function"
				},
				{
					"inputs": [],
					"name": "getFeeToken",
					"outputs": [
						{
							"internalType": "address",
							"name": "_feeToken",
							"type": "address"
						},
						{
							"internalType": "string",
							"name": "_name",
							"type": "string"
						},
						{
							"internalType": "string",
							"name": "_symbol",
							"type": "string"
						}
					],
					"stateMutability": "view",
					"type": "function"
				},
				{
					"inputs": [],
					"name": "getName",
					"outputs": [
						{
							"internalType": "string",
							"name": "_name",
							"type": "string"
						}
					],
					"stateMutability": "pure",
					"type": "function"
				},
				{
					"inputs": [],
					"name": "getPension",
					"outputs": [
						{
							"components": [
								{
									"internalType": "uint256",
									"name": "id",
									"type": "uint256"
								},
								{
									"internalType": "address",
									"name": "creator",
									"type": "address"
								},
								{
									"internalType": "address",
									"name": "owner",
									"type": "address"
								},
								{
									"internalType": "address",
									"name": "vault",
									"type": "address"
								},
								{
									"internalType": "uint256",
									"name": "maturityDate",
									"type": "uint256"
								},
								{
									"internalType": "uint256",
									"name": "dissolutionDate",
									"type": "uint256"
								},
								{
									"components": [
										{
											"internalType": "uint256",
											"name": "id",
											"type": "uint256"
										},
										{
											"internalType": "address",
											"name": "provider",
											"type": "address"
										},
										{
											"internalType": "address",
											"name": "erc20",
											"type": "address"
										},
										{
											"internalType": "uint256",
											"name": "totalContribution",
											"type": "uint256"
										},
										{
											"internalType": "uint256",
											"name": "principalOnMaturity",
											"type": "uint256"
										},
										{
											"internalType": "uint256",
											"name": "interest",
											"type": "uint256"
										},
										{
											"internalType": "enum RiskType",
											"name": "riskType",
											"type": "uint8"
										},
										{
											"components": [
												{
													"internalType": "enum Schedule",
													"name": "schedule",
													"type": "uint8"
												},
												{
													"internalType": "uint256",
													"name": "term",
													"type": "uint256"
												},
												{
													"internalType": "uint256",
													"name": "minimumAmount",
													"type": "uint256"
												},
												{
													"internalType": "uint256",
													"name": "maximumAmount",
													"type": "uint256"
												},
												{
													"internalType": "uint256",
													"name": "totalIntervals",
													"type": "uint256"
												},
												{
													"internalType": "uint256",
													"name": "totalAmount",
													"type": "uint256"
												}
											],
											"internalType": "struct FinancialSchedule",
											"name": "contributionSchedule",
											"type": "tuple"
										},
										{
											"components": [
												{
													"internalType": "enum Schedule",
													"name": "schedule",
													"type": "uint8"
												},
												{
													"internalType": "uint256",
													"name": "term",
													"type": "uint256"
												},
												{
													"internalType": "uint256",
													"name": "minimumAmount",
													"type": "uint256"
												},
												{
													"internalType": "uint256",
													"name": "maximumAmount",
													"type": "uint256"
												},
												{
													"internalType": "uint256",
													"name": "totalIntervals",
													"type": "uint256"
												},
												{
													"internalType": "uint256",
													"name": "totalAmount",
													"type": "uint256"
												}
											],
											"internalType": "struct FinancialSchedule",
											"name": "emissionSchedule",
											"type": "tuple"
										},
										{
											"components": [
												{
													"internalType": "uint256",
													"name": "maxGainPercentage",
													"type": "uint256"
												},
												{
													"internalType": "uint256",
													"name": "maxLossPercentage",
													"type": "uint256"
												}
											],
											"internalType": "struct Tolerance",
											"name": "tolerance",
											"type": "tuple"
										},
										{
											"internalType": "uint256",
											"name": "createdDate",
											"type": "uint256"
										},
										{
											"internalType": "uint256",
											"name": "expiryDate",
											"type": "uint256"
										},
										{
											"internalType": "uint256",
											"name": "units",
											"type": "uint256"
										}
									],
									"internalType": "struct MPProduct",
									"name": "product",
									"type": "tuple"
								}
							],
							"internalType": "struct MPension",
							"name": "_pension",
							"type": "tuple"
						}
					],
					"stateMutability": "view",
					"type": "function"
				},
				{
					"inputs": [
						{
							"internalType": "uint256",
							"name": "_id",
							"type": "uint256"
						}
					],
					"name": "getPension",
					"outputs": [
						{
							"components": [
								{
									"internalType": "uint256",
									"name": "id",
									"type": "uint256"
								},
								{
									"internalType": "address",
									"name": "creator",
									"type": "address"
								},
								{
									"internalType": "address",
									"name": "owner",
									"type": "address"
								},
								{
									"internalType": "address",
									"name": "vault",
									"type": "address"
								},
								{
									"internalType": "uint256",
									"name": "maturityDate",
									"type": "uint256"
								},
								{
									"internalType": "uint256",
									"name": "dissolutionDate",
									"type": "uint256"
								},
								{
									"components": [
										{
											"internalType": "uint256",
											"name": "id",
											"type": "uint256"
										},
										{
											"internalType": "address",
											"name": "provider",
											"type": "address"
										},
										{
											"internalType": "address",
											"name": "erc20",
											"type": "address"
										},
										{
											"internalType": "uint256",
											"name": "totalContribution",
											"type": "uint256"
										},
										{
											"internalType": "uint256",
											"name": "principalOnMaturity",
											"type": "uint256"
										},
										{
											"internalType": "uint256",
											"name": "interest",
											"type": "uint256"
										},
										{
											"internalType": "enum RiskType",
											"name": "riskType",
											"type": "uint8"
										},
										{
											"components": [
												{
													"internalType": "enum Schedule",
													"name": "schedule",
													"type": "uint8"
												},
												{
													"internalType": "uint256",
													"name": "term",
													"type": "uint256"
												},
												{
													"internalType": "uint256",
													"name": "minimumAmount",
													"type": "uint256"
												},
												{
													"internalType": "uint256",
													"name": "maximumAmount",
													"type": "uint256"
												},
												{
													"internalType": "uint256",
													"name": "totalIntervals",
													"type": "uint256"
												},
												{
													"internalType": "uint256",
													"name": "totalAmount",
													"type": "uint256"
												}
											],
											"internalType": "struct FinancialSchedule",
											"name": "contributionSchedule",
											"type": "tuple"
										},
										{
											"components": [
												{
													"internalType": "enum Schedule",
													"name": "schedule",
													"type": "uint8"
												},
												{
													"internalType": "uint256",
													"name": "term",
													"type": "uint256"
												},
												{
													"internalType": "uint256",
													"name": "minimumAmount",
													"type": "uint256"
												},
												{
													"internalType": "uint256",
													"name": "maximumAmount",
													"type": "uint256"
												},
												{
													"internalType": "uint256",
													"name": "totalIntervals",
													"type": "uint256"
												},
												{
													"internalType": "uint256",
													"name": "totalAmount",
													"type": "uint256"
												}
											],
											"internalType": "struct FinancialSchedule",
											"name": "emissionSchedule",
											"type": "tuple"
										},
										{
											"components": [
												{
													"internalType": "uint256",
													"name": "maxGainPercentage",
													"type": "uint256"
												},
												{
													"internalType": "uint256",
													"name": "maxLossPercentage",
													"type": "uint256"
												}
											],
											"internalType": "struct Tolerance",
											"name": "tolerance",
											"type": "tuple"
										},
										{
											"internalType": "uint256",
											"name": "createdDate",
											"type": "uint256"
										},
										{
											"internalType": "uint256",
											"name": "expiryDate",
											"type": "uint256"
										},
										{
											"internalType": "uint256",
											"name": "units",
											"type": "uint256"
										}
									],
									"internalType": "struct MPProduct",
									"name": "product",
									"type": "tuple"
								}
							],
							"internalType": "struct MPension",
							"name": "_pension",
							"type": "tuple"
						}
					],
					"stateMutability": "view",
					"type": "function"
				},
				{
					"inputs": [],
					"name": "getPensionIds",
					"outputs": [
						{
							"internalType": "uint256[]",
							"name": "_pensionIds",
							"type": "uint256[]"
						}
					],
					"stateMutability": "view",
					"type": "function"
				},
				{
					"inputs": [],
					"name": "getVersion",
					"outputs": [
						{
							"internalType": "uint256",
							"name": "_version",
							"type": "uint256"
						}
					],
					"stateMutability": "pure",
					"type": "function"
				},
				{
					"inputs": [],
					"name": "notifyChangeOfAddress",
					"outputs": [
						{
							"internalType": "bool",
							"name": "_acknowledged",
							"type": "bool"
						}
					],
					"stateMutability": "nonpayable",
					"type": "function"
				},
				{
					"inputs": [
						{
							"internalType": "string",
							"name": "_feeName",
							"type": "string"
						},
						{
							"internalType": "uint256",
							"name": "_fee",
							"type": "uint256"
						}
					],
					"name": "setFee",
					"outputs": [
						{
							"internalType": "bool",
							"name": "_set",
							"type": "bool"
						}
					],
					"stateMutability": "nonpayable",
					"type": "function"
				}
			],
			"devdoc": {
				"kind": "dev",
				"methods": {},
				"version": 1
			},
			"evm": {
				"assembly": "    /* \"contracts/core/MedallionPensions.sol\":539:7236  contract MedallionPensions is IMedallionPensions, IVersion { ... */\n  mstore(0x40, 0xa0)\n    /* \"contracts/core/MedallionPensions.sol\":1599:1600  1 */\n  0x01\n    /* \"contracts/core/MedallionPensions.sol\":1583:1600  uint256 index = 1 */\n  dup1\n  sstore\n    /* \"contracts/core/MedallionPensions.sol\":1824:2603  constructor(address _registry) { ... */\n  callvalue\n  dup1\n  iszero\n  tag_1\n  jumpi\n  revert(0x00, 0x00)\ntag_1:\n  pop\n  mload(0x40)\n  sub(codesize, bytecodeSize)\n  dup1\n  bytecodeSize\n  dup4\n  codecopy\n  dup2\n  dup2\n  add\n  0x40\n  mstore\n  dup2\n  add\n  swap1\n  tag_2\n  swap2\n  swap1\n  tag_3\n  jump\t// in\ntag_2:\n    /* \"contracts/core/MedallionPensions.sol\":1888:1897  _registry */\n  dup1\n    /* \"contracts/core/MedallionPensions.sol\":1867:1875  register */\n  0x00\n  0x00\n    /* \"contracts/core/MedallionPensions.sol\":1867:1898  register = IRegister(_registry) */\n  0x0100\n  exp\n  dup2\n  sload\n  dup2\n  0xffffffffffffffffffffffffffffffffffffffff\n  mul\n  not\n  and\n  swap1\n  dup4\n  0xffffffffffffffffffffffffffffffffffffffff\n  and\n  mul\n  or\n  swap1\n  sstore\n  pop\n    /* \"contracts/core/MedallionPensions.sol\":1917:1925  register */\n  0x00\n  0x00\n  swap1\n  sload\n  swap1\n  0x0100\n  exp\n  swap1\n  div\n  0xffffffffffffffffffffffffffffffffffffffff\n  and\n    /* \"contracts/core/MedallionPensions.sol\":1917:1936  register.hasAddress */\n  0xffffffffffffffffffffffffffffffffffffffff\n  and\n  0xe1311ec6\n    /* \"contracts/core/MedallionPensions.sol\":1937:1953  PENSION_ADMIN_CA */\n  mload(0x40)\n  dup1\n  0x40\n  add\n  0x40\n  mstore\n  dup1\n  0x11\n  dup2\n  mstore\n  0x20\n  add\n  0x52455345525645445f4d505f41444d494e000000000000000000000000000000\n  dup2\n  mstore\n  pop\n    /* \"contracts/core/MedallionPensions.sol\":1917:1954  register.hasAddress(PENSION_ADMIN_CA) */\n  mload(0x40)\n  dup3\n  0xffffffff\n  and\n  0xe0\n  shl\n  dup2\n  mstore\n  0x04\n  add\n  tag_6\n  swap2\n  swap1\n  tag_7\n  jump\t// in\ntag_6:\n  0x20\n  mload(0x40)\n  dup1\n  dup4\n  sub\n  dup2\n  dup7\n  gas\n  staticcall\n  iszero\n  dup1\n  iszero\n  tag_9\n  jumpi\n  returndatacopy(0x00, 0x00, returndatasize)\n  revert(0x00, returndatasize)\ntag_9:\n  pop\n  pop\n  pop\n  pop\n  mload(0x40)\n  returndatasize\n  not(0x1f)\n  0x1f\n  dup3\n  add\n  and\n  dup3\n  add\n  dup1\n  0x40\n  mstore\n  pop\n  dup2\n  add\n  swap1\n  tag_10\n  swap2\n  swap1\n  tag_11\n  jump\t// in\ntag_10:\n    /* \"contracts/core/MedallionPensions.sol\":1989:2005  PENSION_ADMIN_CA */\n  mload(0x40)\n  dup1\n  0x40\n  add\n  0x40\n  mstore\n  dup1\n  0x11\n  dup2\n  mstore\n  0x20\n  add\n  0x52455345525645445f4d505f41444d494e000000000000000000000000000000\n  dup2\n  mstore\n  pop\n    /* \"contracts/core/MedallionPensions.sol\":1956:2007  string.concat(\"missing address \",PENSION_ADMIN_CA ) */\n  add(0x20, mload(0x40))\n  tag_12\n  swap2\n  swap1\n  tag_13\n  jump\t// in\ntag_12:\n  mload(0x40)\n  0x20\n  dup2\n  dup4\n  sub\n  sub\n  dup2\n  mstore\n  swap1\n  0x40\n  mstore\n    /* \"contracts/core/MedallionPensions.sol\":1909:2008  require(register.hasAddress(PENSION_ADMIN_CA), string.concat(\"missing address \",PENSION_ADMIN_CA )) */\n  swap1\n  tag_14\n  jumpi\n  mload(0x40)\n  0x08c379a000000000000000000000000000000000000000000000000000000000\n  dup2\n  mstore\n  0x04\n  add\n  tag_15\n  swap2\n  swap1\n  tag_7\n  jump\t// in\ntag_15:\n  mload(0x40)\n  dup1\n  swap2\n  sub\n  swap1\n  revert\ntag_14:\n  pop\n    /* \"contracts/core/MedallionPensions.sol\":2027:2035  register */\n  0x00\n  0x00\n  swap1\n  sload\n  swap1\n  0x0100\n  exp\n  swap1\n  div\n  0xffffffffffffffffffffffffffffffffffffffff\n  and\n    /* \"contracts/core/MedallionPensions.sol\":2027:2046  register.hasAddress */\n  0xffffffffffffffffffffffffffffffffffffffff\n  and\n  0xe1311ec6\n    /* \"contracts/core/MedallionPensions.sol\":2047:2059  FEE_TOKEN_CA */\n  mload(0x40)\n  dup1\n  0x40\n  add\n  0x40\n  mstore\n  dup1\n  0x15\n  dup2\n  mstore\n  0x20\n  add\n  0x52455345525645445f4d505f4645455f544f4b454e0000000000000000000000\n  dup2\n  mstore\n  pop\n    /* \"contracts/core/MedallionPensions.sol\":2027:2060  register.hasAddress(FEE_TOKEN_CA) */\n  mload(0x40)\n  dup3\n  0xffffffff\n  and\n  0xe0\n  shl\n  dup2\n  mstore\n  0x04\n  add\n  tag_16\n  swap2\n  swap1\n  tag_7\n  jump\t// in\ntag_16:\n  0x20\n  mload(0x40)\n  dup1\n  dup4\n  sub\n  dup2\n  dup7\n  gas\n  staticcall\n  iszero\n  dup1\n  iszero\n  tag_18\n  jumpi\n  returndatacopy(0x00, 0x00, returndatasize)\n  revert(0x00, returndatasize)\ntag_18:\n  pop\n  pop\n  pop\n  pop\n  mload(0x40)\n  returndatasize\n  not(0x1f)\n  0x1f\n  dup3\n  add\n  and\n  dup3\n  add\n  dup1\n  0x40\n  mstore\n  pop\n  dup2\n  add\n  swap1\n  tag_19\n  swap2\n  swap1\n  tag_11\n  jump\t// in\ntag_19:\n    /* \"contracts/core/MedallionPensions.sol\":2095:2107  FEE_TOKEN_CA */\n  mload(0x40)\n  dup1\n  0x40\n  add\n  0x40\n  mstore\n  dup1\n  0x15\n  dup2\n  mstore\n  0x20\n  add\n  0x52455345525645445f4d505f4645455f544f4b454e0000000000000000000000\n  dup2\n  mstore\n  pop\n    /* \"contracts/core/MedallionPensions.sol\":2062:2109  string.concat(\"missing address \",FEE_TOKEN_CA ) */\n  add(0x20, mload(0x40))\n  tag_20\n  swap2\n  swap1\n  tag_13\n  jump\t// in\ntag_20:\n  mload(0x40)\n  0x20\n  dup2\n  dup4\n  sub\n  sub\n  dup2\n  mstore\n  swap1\n  0x40\n  mstore\n    /* \"contracts/core/MedallionPensions.sol\":2019:2110  require(register.hasAddress(FEE_TOKEN_CA), string.concat(\"missing address \",FEE_TOKEN_CA )) */\n  swap1\n  tag_21\n  jumpi\n  mload(0x40)\n  0x08c379a000000000000000000000000000000000000000000000000000000000\n  dup2\n  mstore\n  0x04\n  add\n  tag_22\n  swap2\n  swap1\n  tag_7\n  jump\t// in\ntag_22:\n  mload(0x40)\n  dup1\n  swap2\n  sub\n  swap1\n  revert\ntag_21:\n  pop\n    /* \"contracts/core/MedallionPensions.sol\":2129:2137  register */\n  0x00\n  0x00\n  swap1\n  sload\n  swap1\n  0x0100\n  exp\n  swap1\n  div\n  0xffffffffffffffffffffffffffffffffffffffff\n  and\n    /* \"contracts/core/MedallionPensions.sol\":2129:2148  register.hasAddress */\n  0xffffffffffffffffffffffffffffffffffffffff\n  and\n  0xe1311ec6\n    /* \"contracts/core/MedallionPensions.sol\":2149:2164  BANK_ADDRESS_CA */\n  mload(0x40)\n  dup1\n  0x40\n  add\n  0x40\n  mstore\n  dup1\n  0x10\n  dup2\n  mstore\n  0x20\n  add\n  0x52455345525645445f4d505f42414e4b00000000000000000000000000000000\n  dup2\n  mstore\n  pop\n    /* \"contracts/core/MedallionPensions.sol\":2129:2165  register.hasAddress(BANK_ADDRESS_CA) */\n  mload(0x40)\n  dup3\n  0xffffffff\n  and\n  0xe0\n  shl\n  dup2\n  mstore\n  0x04\n  add\n  tag_23\n  swap2\n  swap1\n  tag_7\n  jump\t// in\ntag_23:\n  0x20\n  mload(0x40)\n  dup1\n  dup4\n  sub\n  dup2\n  dup7\n  gas\n  staticcall\n  iszero\n  dup1\n  iszero\n  tag_25\n  jumpi\n  returndatacopy(0x00, 0x00, returndatasize)\n  revert(0x00, returndatasize)\ntag_25:\n  pop\n  pop\n  pop\n  pop\n  mload(0x40)\n  returndatasize\n  not(0x1f)\n  0x1f\n  dup3\n  add\n  and\n  dup3\n  add\n  dup1\n  0x40\n  mstore\n  pop\n  dup2\n  add\n  swap1\n  tag_26\n  swap2\n  swap1\n  tag_11\n  jump\t// in\ntag_26:\n    /* \"contracts/core/MedallionPensions.sol\":2200:2215  BANK_ADDRESS_CA */\n  mload(0x40)\n  dup1\n  0x40\n  add\n  0x40\n  mstore\n  dup1\n  0x10\n  dup2\n  mstore\n  0x20\n  add\n  0x52455345525645445f4d505f42414e4b00000000000000000000000000000000\n  dup2\n  mstore\n  pop\n    /* \"contracts/core/MedallionPensions.sol\":2167:2217  string.concat(\"missing address \",BANK_ADDRESS_CA ) */\n  add(0x20, mload(0x40))\n  tag_27\n  swap2\n  swap1\n  tag_13\n  jump\t// in\ntag_27:\n  mload(0x40)\n  0x20\n  dup2\n  dup4\n  sub\n  sub\n  dup2\n  mstore\n  swap1\n  0x40\n  mstore\n    /* \"contracts/core/MedallionPensions.sol\":2121:2218  require(register.hasAddress(BANK_ADDRESS_CA), string.concat(\"missing address \",BANK_ADDRESS_CA )) */\n  swap1\n  tag_28\n  jumpi\n  mload(0x40)\n  0x08c379a000000000000000000000000000000000000000000000000000000000\n  dup2\n  mstore\n  0x04\n  add\n  tag_29\n  swap2\n  swap1\n  tag_7\n  jump\t// in\ntag_29:\n  mload(0x40)\n  dup1\n  swap2\n  sub\n  swap1\n  revert\ntag_28:\n  pop\n    /* \"contracts/core/MedallionPensions.sol\":2237:2245  register */\n  0x00\n  0x00\n  swap1\n  sload\n  swap1\n  0x0100\n  exp\n  swap1\n  div\n  0xffffffffffffffffffffffffffffffffffffffff\n  and\n    /* \"contracts/core/MedallionPensions.sol\":2237:2256  register.hasAddress */\n  0xffffffffffffffffffffffffffffffffffffffff\n  and\n  0xe1311ec6\n    /* \"contracts/core/MedallionPensions.sol\":2257:2281  PENSION_VAULT_FACTORY_CA */\n  mload(0x40)\n  dup1\n  0x40\n  add\n  0x40\n  mstore\n  dup1\n  0x19\n  dup2\n  mstore\n  0x20\n  add\n  0x52455345525645445f4d505f5641554c545f464143544f525900000000000000\n  dup2\n  mstore\n  pop\n    /* \"contracts/core/MedallionPensions.sol\":2237:2282  register.hasAddress(PENSION_VAULT_FACTORY_CA) */\n  mload(0x40)\n  dup3\n  0xffffffff\n  and\n  0xe0\n  shl\n  dup2\n  mstore\n  0x04\n  add\n  tag_30\n  swap2\n  swap1\n  tag_7\n  jump\t// in\ntag_30:\n  0x20\n  mload(0x40)\n  dup1\n  dup4\n  sub\n  dup2\n  dup7\n  gas\n  staticcall\n  iszero\n  dup1\n  iszero\n  tag_32\n  jumpi\n  returndatacopy(0x00, 0x00, returndatasize)\n  revert(0x00, returndatasize)\ntag_32:\n  pop\n  pop\n  pop\n  pop\n  mload(0x40)\n  returndatasize\n  not(0x1f)\n  0x1f\n  dup3\n  add\n  and\n  dup3\n  add\n  dup1\n  0x40\n  mstore\n  pop\n  dup2\n  add\n  swap1\n  tag_33\n  swap2\n  swap1\n  tag_11\n  jump\t// in\ntag_33:\n    /* \"contracts/core/MedallionPensions.sol\":2317:2341  PENSION_VAULT_FACTORY_CA */\n  mload(0x40)\n  dup1\n  0x40\n  add\n  0x40\n  mstore\n  dup1\n  0x19\n  dup2\n  mstore\n  0x20\n  add\n  0x52455345525645445f4d505f5641554c545f464143544f525900000000000000\n  dup2\n  mstore\n  pop\n    /* \"contracts/core/MedallionPensions.sol\":2284:2343  string.concat(\"missing address \",PENSION_VAULT_FACTORY_CA ) */\n  add(0x20, mload(0x40))\n  tag_34\n  swap2\n  swap1\n  tag_13\n  jump\t// in\ntag_34:\n  mload(0x40)\n  0x20\n  dup2\n  dup4\n  sub\n  sub\n  dup2\n  mstore\n  swap1\n  0x40\n  mstore\n    /* \"contracts/core/MedallionPensions.sol\":2229:2344  require(register.hasAddress(PENSION_VAULT_FACTORY_CA), string.concat(\"missing address \",PENSION_VAULT_FACTORY_CA )) */\n  swap1\n  tag_35\n  jumpi\n  mload(0x40)\n  0x08c379a000000000000000000000000000000000000000000000000000000000\n  dup2\n  mstore\n  0x04\n  add\n  tag_36\n  swap2\n  swap1\n  tag_7\n  jump\t// in\ntag_36:\n  mload(0x40)\n  dup1\n  swap2\n  sub\n  swap1\n  revert\ntag_35:\n  pop\n    /* \"contracts/core/MedallionPensions.sol\":2363:2371  register */\n  0x00\n  0x00\n  swap1\n  sload\n  swap1\n  0x0100\n  exp\n  swap1\n  div\n  0xffffffffffffffffffffffffffffffffffffffff\n  and\n    /* \"contracts/core/MedallionPensions.sol\":2363:2382  register.hasAddress */\n  0xffffffffffffffffffffffffffffffffffffffff\n  and\n  0xe1311ec6\n    /* \"contracts/core/MedallionPensions.sol\":2383:2396  TX_MANAGER_CA */\n  mload(0x40)\n  dup1\n  0x40\n  add\n  0x40\n  mstore\n  dup1\n  0x16\n  dup2\n  mstore\n  0x20\n  add\n  0x52455345525645445f4d505f54585f4d414e4147455200000000000000000000\n  dup2\n  mstore\n  pop\n    /* \"contracts/core/MedallionPensions.sol\":2363:2397  register.hasAddress(TX_MANAGER_CA) */\n  mload(0x40)\n  dup3\n  0xffffffff\n  and\n  0xe0\n  shl\n  dup2\n  mstore\n  0x04\n  add\n  tag_37\n  swap2\n  swap1\n  tag_7\n  jump\t// in\ntag_37:\n  0x20\n  mload(0x40)\n  dup1\n  dup4\n  sub\n  dup2\n  dup7\n  gas\n  staticcall\n  iszero\n  dup1\n  iszero\n  tag_39\n  jumpi\n  returndatacopy(0x00, 0x00, returndatasize)\n  revert(0x00, returndatasize)\ntag_39:\n  pop\n  pop\n  pop\n  pop\n  mload(0x40)\n  returndatasize\n  not(0x1f)\n  0x1f\n  dup3\n  add\n  and\n  dup3\n  add\n  dup1\n  0x40\n  mstore\n  pop\n  dup2\n  add\n  swap1\n  tag_40\n  swap2\n  swap1\n  tag_11\n  jump\t// in\ntag_40:\n    /* \"contracts/core/MedallionPensions.sol\":2432:2445  TX_MANAGER_CA */\n  mload(0x40)\n  dup1\n  0x40\n  add\n  0x40\n  mstore\n  dup1\n  0x16\n  dup2\n  mstore\n  0x20\n  add\n  0x52455345525645445f4d505f54585f4d414e4147455200000000000000000000\n  dup2\n  mstore\n  pop\n    /* \"contracts/core/MedallionPensions.sol\":2399:2447  string.concat(\"missing address \",TX_MANAGER_CA ) */\n  add(0x20, mload(0x40))\n  tag_41\n  swap2\n  swap1\n  tag_13\n  jump\t// in\ntag_41:\n  mload(0x40)\n  0x20\n  dup2\n  dup4\n  sub\n  sub\n  dup2\n  mstore\n  swap1\n  0x40\n  mstore\n    /* \"contracts/core/MedallionPensions.sol\":2355:2448  require(register.hasAddress(TX_MANAGER_CA), string.concat(\"missing address \",TX_MANAGER_CA )) */\n  swap1\n  tag_42\n  jumpi\n  mload(0x40)\n  0x08c379a000000000000000000000000000000000000000000000000000000000\n  dup2\n  mstore\n  0x04\n  add\n  tag_43\n  swap2\n  swap1\n  tag_7\n  jump\t// in\ntag_43:\n  mload(0x40)\n  dup1\n  swap2\n  sub\n  swap1\n  revert\ntag_42:\n  pop\n    /* \"contracts/core/MedallionPensions.sol\":2467:2475  register */\n  0x00\n  0x00\n  swap1\n  sload\n  swap1\n  0x0100\n  exp\n  swap1\n  div\n  0xffffffffffffffffffffffffffffffffffffffff\n  and\n    /* \"contracts/core/MedallionPensions.sol\":2467:2486  register.hasAddress */\n  0xffffffffffffffffffffffffffffffffffffffff\n  and\n  0xe1311ec6\n    /* \"contracts/core/MedallionPensions.sol\":2487:2505  PRODUCT_MANAGER_CA */\n  mload(0x40)\n  dup1\n  0x40\n  add\n  0x40\n  mstore\n  dup1\n  0x1b\n  dup2\n  mstore\n  0x20\n  add\n  0x52455345525645445f4d505f50524f445543545f4d414e414745520000000000\n  dup2\n  mstore\n  pop\n    /* \"contracts/core/MedallionPensions.sol\":2467:2506  register.hasAddress(PRODUCT_MANAGER_CA) */\n  mload(0x40)\n  dup3\n  0xffffffff\n  and\n  0xe0\n  shl\n  dup2\n  mstore\n  0x04\n  add\n  tag_44\n  swap2\n  swap1\n  tag_7\n  jump\t// in\ntag_44:\n  0x20\n  mload(0x40)\n  dup1\n  dup4\n  sub\n  dup2\n  dup7\n  gas\n  staticcall\n  iszero\n  dup1\n  iszero\n  tag_46\n  jumpi\n  returndatacopy(0x00, 0x00, returndatasize)\n  revert(0x00, returndatasize)\ntag_46:\n  pop\n  pop\n  pop\n  pop\n  mload(0x40)\n  returndatasize\n  not(0x1f)\n  0x1f\n  dup3\n  add\n  and\n  dup3\n  add\n  dup1\n  0x40\n  mstore\n  pop\n  dup2\n  add\n  swap1\n  tag_47\n  swap2\n  swap1\n  tag_11\n  jump\t// in\ntag_47:\n    /* \"contracts/core/MedallionPensions.sol\":2541:2559  PRODUCT_MANAGER_CA */\n  mload(0x40)\n  dup1\n  0x40\n  add\n  0x40\n  mstore\n  dup1\n  0x1b\n  dup2\n  mstore\n  0x20\n  add\n  0x52455345525645445f4d505f50524f445543545f4d414e414745520000000000\n  dup2\n  mstore\n  pop\n    /* \"contracts/core/MedallionPensions.sol\":2508:2561  string.concat(\"missing address \",PRODUCT_MANAGER_CA ) */\n  add(0x20, mload(0x40))\n  tag_48\n  swap2\n  swap1\n  tag_13\n  jump\t// in\ntag_48:\n  mload(0x40)\n  0x20\n  dup2\n  dup4\n  sub\n  sub\n  dup2\n  mstore\n  swap1\n  0x40\n  mstore\n    /* \"contracts/core/MedallionPensions.sol\":2459:2562  require(register.hasAddress(PRODUCT_MANAGER_CA), string.concat(\"missing address \",PRODUCT_MANAGER_CA )) */\n  swap1\n  tag_49\n  jumpi\n  mload(0x40)\n  0x08c379a000000000000000000000000000000000000000000000000000000000\n  dup2\n  mstore\n  0x04\n  add\n  tag_50\n  swap2\n  swap1\n  tag_7\n  jump\t// in\ntag_50:\n  mload(0x40)\n  dup1\n  swap2\n  sub\n  swap1\n  revert\ntag_49:\n  pop\n    /* \"contracts/core/MedallionPensions.sol\":2590:2594  this */\n  address\n    /* \"contracts/core/MedallionPensions.sol\":2575:2595  self = address(this) */\n  0xffffffffffffffffffffffffffffffffffffffff\n  and\n  0x80\n  dup2\n  0xffffffffffffffffffffffffffffffffffffffff\n  and\n  dup2\n  mstore\n  pop\n  pop\n    /* \"contracts/core/MedallionPensions.sol\":1824:2603  constructor(address _registry) { ... */\n  pop\n    /* \"contracts/core/MedallionPensions.sol\":539:7236  contract MedallionPensions is IMedallionPensions, IVersion { ... */\n  jump(tag_51)\n    /* \"#utility.yul\":88:205   */\ntag_53:\n    /* \"#utility.yul\":197:198   */\n  0x00\n    /* \"#utility.yul\":194:195   */\n  0x00\n    /* \"#utility.yul\":187:199   */\n  revert\n    /* \"#utility.yul\":334:460   */\ntag_55:\n    /* \"#utility.yul\":371:378   */\n  0x00\n    /* \"#utility.yul\":411:453   */\n  0xffffffffffffffffffffffffffffffffffffffff\n    /* \"#utility.yul\":404:409   */\n  dup3\n    /* \"#utility.yul\":400:454   */\n  and\n    /* \"#utility.yul\":389:454   */\n  swap1\n  pop\n    /* \"#utility.yul\":334:460   */\n  swap2\n  swap1\n  pop\n  jump\t// out\n    /* \"#utility.yul\":466:562   */\ntag_56:\n    /* \"#utility.yul\":503:510   */\n  0x00\n    /* \"#utility.yul\":532:556   */\n  tag_76\n    /* \"#utility.yul\":550:555   */\n  dup3\n    /* \"#utility.yul\":532:556   */\n  tag_55\n  jump\t// in\ntag_76:\n    /* \"#utility.yul\":521:556   */\n  swap1\n  pop\n    /* \"#utility.yul\":466:562   */\n  swap2\n  swap1\n  pop\n  jump\t// out\n    /* \"#utility.yul\":568:690   */\ntag_57:\n    /* \"#utility.yul\":641:665   */\n  tag_78\n    /* \"#utility.yul\":659:664   */\n  dup2\n    /* \"#utility.yul\":641:665   */\n  tag_56\n  jump\t// in\ntag_78:\n    /* \"#utility.yul\":634:639   */\n  dup2\n    /* \"#utility.yul\":631:666   */\n  eq\n    /* \"#utility.yul\":621:684   */\n  tag_79\n  jumpi\n    /* \"#utility.yul\":680:681   */\n  0x00\n    /* \"#utility.yul\":677:678   */\n  0x00\n    /* \"#utility.yul\":670:682   */\n  revert\n    /* \"#utility.yul\":621:684   */\ntag_79:\n    /* \"#utility.yul\":568:690   */\n  pop\n  jump\t// out\n    /* \"#utility.yul\":696:839   */\ntag_58:\n    /* \"#utility.yul\":753:758   */\n  0x00\n    /* \"#utility.yul\":784:790   */\n  dup2\n    /* \"#utility.yul\":778:791   */\n  mload\n    /* \"#utility.yul\":769:791   */\n  swap1\n  pop\n    /* \"#utility.yul\":800:833   */\n  tag_81\n    /* \"#utility.yul\":827:832   */\n  dup2\n    /* \"#utility.yul\":800:833   */\n  tag_57\n  jump\t// in\ntag_81:\n    /* \"#utility.yul\":696:839   */\n  swap3\n  swap2\n  pop\n  pop\n  jump\t// out\n    /* \"#utility.yul\":845:1196   */\ntag_3:\n    /* \"#utility.yul\":915:921   */\n  0x00\n    /* \"#utility.yul\":964:966   */\n  0x20\n    /* \"#utility.yul\":952:961   */\n  dup3\n    /* \"#utility.yul\":943:950   */\n  dup5\n    /* \"#utility.yul\":939:962   */\n  sub\n    /* \"#utility.yul\":935:967   */\n  slt\n    /* \"#utility.yul\":932:1051   */\n  iszero\n  tag_83\n  jumpi\n    /* \"#utility.yul\":970:1049   */\n  tag_84\n  tag_53\n  jump\t// in\ntag_84:\n    /* \"#utility.yul\":932:1051   */\ntag_83:\n    /* \"#utility.yul\":1090:1091   */\n  0x00\n    /* \"#utility.yul\":1115:1179   */\n  tag_85\n    /* \"#utility.yul\":1171:1178   */\n  dup5\n    /* \"#utility.yul\":1162:1168   */\n  dup3\n    /* \"#utility.yul\":1151:1160   */\n  dup6\n    /* \"#utility.yul\":1147:1169   */\n  add\n    /* \"#utility.yul\":1115:1179   */\n  tag_58\n  jump\t// in\ntag_85:\n    /* \"#utility.yul\":1105:1179   */\n  swap2\n  pop\n    /* \"#utility.yul\":1061:1189   */\n  pop\n    /* \"#utility.yul\":845:1196   */\n  swap3\n  swap2\n  pop\n  pop\n  jump\t// out\n    /* \"#utility.yul\":1202:1301   */\ntag_59:\n    /* \"#utility.yul\":1254:1260   */\n  0x00\n    /* \"#utility.yul\":1288:1293   */\n  dup2\n    /* \"#utility.yul\":1282:1294   */\n  mload\n    /* \"#utility.yul\":1272:1294   */\n  swap1\n  pop\n    /* \"#utility.yul\":1202:1301   */\n  swap2\n  swap1\n  pop\n  jump\t// out\n    /* \"#utility.yul\":1307:1476   */\ntag_60:\n    /* \"#utility.yul\":1391:1402   */\n  0x00\n    /* \"#utility.yul\":1425:1431   */\n  dup3\n    /* \"#utility.yul\":1420:1423   */\n  dup3\n    /* \"#utility.yul\":1413:1432   */\n  mstore\n    /* \"#utility.yul\":1465:1469   */\n  0x20\n    /* \"#utility.yul\":1460:1463   */\n  dup3\n    /* \"#utility.yul\":1456:1470   */\n  add\n    /* \"#utility.yul\":1441:1470   */\n  swap1\n  pop\n    /* \"#utility.yul\":1307:1476   */\n  swap3\n  swap2\n  pop\n  pop\n  jump\t// out\n    /* \"#utility.yul\":1482:1621   */\ntag_61:\n    /* \"#utility.yul\":1571:1577   */\n  dup3\n    /* \"#utility.yul\":1566:1569   */\n  dup2\n    /* \"#utility.yul\":1561:1564   */\n  dup4\n    /* \"#utility.yul\":1555:1578   */\n  mcopy\n    /* \"#utility.yul\":1612:1613   */\n  0x00\n    /* \"#utility.yul\":1603:1609   */\n  dup4\n    /* \"#utility.yul\":1598:1601   */\n  dup4\n    /* \"#utility.yul\":1594:1610   */\n  add\n    /* \"#utility.yul\":1587:1614   */\n  mstore\n    /* \"#utility.yul\":1482:1621   */\n  pop\n  pop\n  pop\n  jump\t// out\n    /* \"#utility.yul\":1627:1729   */\ntag_62:\n    /* \"#utility.yul\":1668:1674   */\n  0x00\n    /* \"#utility.yul\":1719:1721   */\n  0x1f\n    /* \"#utility.yul\":1715:1722   */\n  not\n    /* \"#utility.yul\":1710:1712   */\n  0x1f\n    /* \"#utility.yul\":1703:1708   */\n  dup4\n    /* \"#utility.yul\":1699:1713   */\n  add\n    /* \"#utility.yul\":1695:1723   */\n  and\n    /* \"#utility.yul\":1685:1723   */\n  swap1\n  pop\n    /* \"#utility.yul\":1627:1729   */\n  swap2\n  swap1\n  pop\n  jump\t// out\n    /* \"#utility.yul\":1735:2112   */\ntag_63:\n    /* \"#utility.yul\":1823:1826   */\n  0x00\n    /* \"#utility.yul\":1851:1890   */\n  tag_91\n    /* \"#utility.yul\":1884:1889   */\n  dup3\n    /* \"#utility.yul\":1851:1890   */\n  tag_59\n  jump\t// in\ntag_91:\n    /* \"#utility.yul\":1906:1977   */\n  tag_92\n    /* \"#utility.yul\":1970:1976   */\n  dup2\n    /* \"#utility.yul\":1965:1968   */\n  dup6\n    /* \"#utility.yul\":1906:1977   */\n  tag_60\n  jump\t// in\ntag_92:\n    /* \"#utility.yul\":1899:1977   */\n  swap4\n  pop\n    /* \"#utility.yul\":1986:2051   */\n  tag_93\n    /* \"#utility.yul\":2044:2050   */\n  dup2\n    /* \"#utility.yul\":2039:2042   */\n  dup6\n    /* \"#utility.yul\":2032:2036   */\n  0x20\n    /* \"#utility.yul\":2025:2030   */\n  dup7\n    /* \"#utility.yul\":2021:2037   */\n  add\n    /* \"#utility.yul\":1986:2051   */\n  tag_61\n  jump\t// in\ntag_93:\n    /* \"#utility.yul\":2076:2105   */\n  tag_94\n    /* \"#utility.yul\":2098:2104   */\n  dup2\n    /* \"#utility.yul\":2076:2105   */\n  tag_62\n  jump\t// in\ntag_94:\n    /* \"#utility.yul\":2071:2074   */\n  dup5\n    /* \"#utility.yul\":2067:2106   */\n  add\n    /* \"#utility.yul\":2060:2106   */\n  swap2\n  pop\n    /* \"#utility.yul\":1827:2112   */\n  pop\n    /* \"#utility.yul\":1735:2112   */\n  swap3\n  swap2\n  pop\n  pop\n  jump\t// out\n    /* \"#utility.yul\":2118:2431   */\ntag_7:\n    /* \"#utility.yul\":2231:2235   */\n  0x00\n    /* \"#utility.yul\":2269:2271   */\n  0x20\n    /* \"#utility.yul\":2258:2267   */\n  dup3\n    /* \"#utility.yul\":2254:2272   */\n  add\n    /* \"#utility.yul\":2246:2272   */\n  swap1\n  pop\n    /* \"#utility.yul\":2318:2327   */\n  dup2\n    /* \"#utility.yul\":2312:2316   */\n  dup2\n    /* \"#utility.yul\":2308:2328   */\n  sub\n    /* \"#utility.yul\":2304:2305   */\n  0x00\n    /* \"#utility.yul\":2293:2302   */\n  dup4\n    /* \"#utility.yul\":2289:2306   */\n  add\n    /* \"#utility.yul\":2282:2329   */\n  mstore\n    /* \"#utility.yul\":2346:2424   */\n  tag_96\n    /* \"#utility.yul\":2419:2423   */\n  dup2\n    /* \"#utility.yul\":2410:2416   */\n  dup5\n    /* \"#utility.yul\":2346:2424   */\n  tag_63\n  jump\t// in\ntag_96:\n    /* \"#utility.yul\":2338:2424   */\n  swap1\n  pop\n    /* \"#utility.yul\":2118:2431   */\n  swap3\n  swap2\n  pop\n  pop\n  jump\t// out\n    /* \"#utility.yul\":2437:2527   */\ntag_64:\n    /* \"#utility.yul\":2471:2478   */\n  0x00\n    /* \"#utility.yul\":2514:2519   */\n  dup2\n    /* \"#utility.yul\":2507:2520   */\n  iszero\n    /* \"#utility.yul\":2500:2521   */\n  iszero\n    /* \"#utility.yul\":2489:2521   */\n  swap1\n  pop\n    /* \"#utility.yul\":2437:2527   */\n  swap2\n  swap1\n  pop\n  jump\t// out\n    /* \"#utility.yul\":2533:2649   */\ntag_65:\n    /* \"#utility.yul\":2603:2624   */\n  tag_99\n    /* \"#utility.yul\":2618:2623   */\n  dup2\n    /* \"#utility.yul\":2603:2624   */\n  tag_64\n  jump\t// in\ntag_99:\n    /* \"#utility.yul\":2596:2601   */\n  dup2\n    /* \"#utility.yul\":2593:2625   */\n  eq\n    /* \"#utility.yul\":2583:2643   */\n  tag_100\n  jumpi\n    /* \"#utility.yul\":2639:2640   */\n  0x00\n    /* \"#utility.yul\":2636:2637   */\n  0x00\n    /* \"#utility.yul\":2629:2641   */\n  revert\n    /* \"#utility.yul\":2583:2643   */\ntag_100:\n    /* \"#utility.yul\":2533:2649   */\n  pop\n  jump\t// out\n    /* \"#utility.yul\":2655:2792   */\ntag_66:\n    /* \"#utility.yul\":2709:2714   */\n  0x00\n    /* \"#utility.yul\":2740:2746   */\n  dup2\n    /* \"#utility.yul\":2734:2747   */\n  mload\n    /* \"#utility.yul\":2725:2747   */\n  swap1\n  pop\n    /* \"#utility.yul\":2756:2786   */\n  tag_102\n    /* \"#utility.yul\":2780:2785   */\n  dup2\n    /* \"#utility.yul\":2756:2786   */\n  tag_65\n  jump\t// in\ntag_102:\n    /* \"#utility.yul\":2655:2792   */\n  swap3\n  swap2\n  pop\n  pop\n  jump\t// out\n    /* \"#utility.yul\":2798:3143   */\ntag_11:\n    /* \"#utility.yul\":2865:2871   */\n  0x00\n    /* \"#utility.yul\":2914:2916   */\n  0x20\n    /* \"#utility.yul\":2902:2911   */\n  dup3\n    /* \"#utility.yul\":2893:2900   */\n  dup5\n    /* \"#utility.yul\":2889:2912   */\n  sub\n    /* \"#utility.yul\":2885:2917   */\n  slt\n    /* \"#utility.yul\":2882:3001   */\n  iszero\n  tag_104\n  jumpi\n    /* \"#utility.yul\":2920:2999   */\n  tag_105\n  tag_53\n  jump\t// in\ntag_105:\n    /* \"#utility.yul\":2882:3001   */\ntag_104:\n    /* \"#utility.yul\":3040:3041   */\n  0x00\n    /* \"#utility.yul\":3065:3126   */\n  tag_106\n    /* \"#utility.yul\":3118:3125   */\n  dup5\n    /* \"#utility.yul\":3109:3115   */\n  dup3\n    /* \"#utility.yul\":3098:3107   */\n  dup6\n    /* \"#utility.yul\":3094:3116   */\n  add\n    /* \"#utility.yul\":3065:3126   */\n  tag_66\n  jump\t// in\ntag_106:\n    /* \"#utility.yul\":3055:3126   */\n  swap2\n  pop\n    /* \"#utility.yul\":3011:3136   */\n  pop\n    /* \"#utility.yul\":2798:3143   */\n  swap3\n  swap2\n  pop\n  pop\n  jump\t// out\n    /* \"#utility.yul\":3149:3343   */\ntag_67:\n    /* \"#utility.yul\":3318:3336   */\n  0x6d697373696e6720616464726573732000000000000000000000000000000000\n    /* \"#utility.yul\":3313:3316   */\n  dup2\n    /* \"#utility.yul\":3306:3337   */\n  mstore\n    /* \"#utility.yul\":3149:3343   */\n  pop\n  jump\t// out\n    /* \"#utility.yul\":3349:3497   */\ntag_68:\n    /* \"#utility.yul\":3451:3462   */\n  0x00\n    /* \"#utility.yul\":3488:3491   */\n  dup2\n    /* \"#utility.yul\":3473:3491   */\n  swap1\n  pop\n    /* \"#utility.yul\":3349:3497   */\n  swap3\n  swap2\n  pop\n  pop\n  jump\t// out\n    /* \"#utility.yul\":3503:3893   */\ntag_69:\n    /* \"#utility.yul\":3609:3612   */\n  0x00\n    /* \"#utility.yul\":3637:3676   */\n  tag_110\n    /* \"#utility.yul\":3670:3675   */\n  dup3\n    /* \"#utility.yul\":3637:3676   */\n  tag_59\n  jump\t// in\ntag_110:\n    /* \"#utility.yul\":3692:3781   */\n  tag_111\n    /* \"#utility.yul\":3774:3780   */\n  dup2\n    /* \"#utility.yul\":3769:3772   */\n  dup6\n    /* \"#utility.yul\":3692:3781   */\n  tag_68\n  jump\t// in\ntag_111:\n    /* \"#utility.yul\":3685:3781   */\n  swap4\n  pop\n    /* \"#utility.yul\":3790:3855   */\n  tag_112\n    /* \"#utility.yul\":3848:3854   */\n  dup2\n    /* \"#utility.yul\":3843:3846   */\n  dup6\n    /* \"#utility.yul\":3836:3840   */\n  0x20\n    /* \"#utility.yul\":3829:3834   */\n  dup7\n    /* \"#utility.yul\":3825:3841   */\n  add\n    /* \"#utility.yul\":3790:3855   */\n  tag_61\n  jump\t// in\ntag_112:\n    /* \"#utility.yul\":3880:3886   */\n  dup1\n    /* \"#utility.yul\":3875:3878   */\n  dup5\n    /* \"#utility.yul\":3871:3887   */\n  add\n    /* \"#utility.yul\":3864:3887   */\n  swap2\n  pop\n    /* \"#utility.yul\":3613:3893   */\n  pop\n    /* \"#utility.yul\":3503:3893   */\n  swap3\n  swap2\n  pop\n  pop\n  jump\t// out\n    /* \"#utility.yul\":3899:4441   */\ntag_13:\n    /* \"#utility.yul\":4122:4125   */\n  0x00\n    /* \"#utility.yul\":4137:4275   */\n  tag_114\n    /* \"#utility.yul\":4271:4274   */\n  dup3\n    /* \"#utility.yul\":4137:4275   */\n  tag_67\n  jump\t// in\ntag_114:\n    /* \"#utility.yul\":4300:4302   */\n  0x10\n    /* \"#utility.yul\":4295:4298   */\n  dup3\n    /* \"#utility.yul\":4291:4303   */\n  add\n    /* \"#utility.yul\":4284:4303   */\n  swap2\n  pop\n    /* \"#utility.yul\":4320:4415   */\n  tag_115\n    /* \"#utility.yul\":4411:4414   */\n  dup3\n    /* \"#utility.yul\":4402:4408   */\n  dup5\n    /* \"#utility.yul\":4320:4415   */\n  tag_69\n  jump\t// in\ntag_115:\n    /* \"#utility.yul\":4313:4415   */\n  swap2\n  pop\n    /* \"#utility.yul\":4432:4435   */\n  dup2\n    /* \"#utility.yul\":4425:4435   */\n  swap1\n  pop\n    /* \"#utility.yul\":3899:4441   */\n  swap3\n  swap2\n  pop\n  pop\n  jump\t// out\n    /* \"contracts/core/MedallionPensions.sol\":539:7236  contract MedallionPensions is IMedallionPensions, IVersion { ... */\ntag_51:\n  mload(0x80)\n  codecopy(0x00, dataOffset(sub_0), dataSize(sub_0))\n  0x00\n  assignImmutable(\"0x5e376cc68fb9478821ad3c9417bb956a4eb817f7d6df4676d996d0c75c74f80e\")\n  return(0x00, dataSize(sub_0))\nstop\n\nsub_0: assembly {\n        /* \"contracts/core/MedallionPensions.sol\":539:7236  contract MedallionPensions is IMedallionPensions, IVersion { ... */\n      mstore(0x40, 0x80)\n      jumpi(tag_1, lt(calldatasize, 0x04))\n      shr(0xe0, calldataload(0x00))\n      dup1\n      0xbacba5f6\n      gt\n      tag_12\n      jumpi\n      dup1\n      0xbacba5f6\n      eq\n      tag_7\n      jumpi\n      dup1\n      0xca709a25\n      eq\n      tag_8\n      jumpi\n      dup1\n      0xcafe0e90\n      eq\n      tag_9\n      jumpi\n      dup1\n      0xcde4c10c\n      eq\n      tag_10\n      jumpi\n      dup1\n      0xed1eee68\n      eq\n      tag_11\n      jumpi\n      jump(tag_1)\n    tag_12:\n      dup1\n      0x0d8e6e2c\n      eq\n      tag_2\n      jumpi\n      dup1\n      0x17d7de7c\n      eq\n      tag_3\n      jumpi\n      dup1\n      0x42b98f9d\n      eq\n      tag_4\n      jumpi\n      dup1\n      0x73488018\n      eq\n      tag_5\n      jumpi\n      dup1\n      0x77bdfdf2\n      eq\n      tag_6\n      jumpi\n    tag_1:\n      revert(0x00, 0x00)\n        /* \"contracts/core/MedallionPensions.sol\":2714:2811  function getVersion() pure external returns (uint256 _version){ ... */\n    tag_2:\n      callvalue\n      dup1\n      iszero\n      tag_13\n      jumpi\n      revert(0x00, 0x00)\n    tag_13:\n      pop\n      tag_14\n      tag_15\n      jump\t// in\n    tag_14:\n      mload(0x40)\n      tag_16\n      swap2\n      swap1\n      tag_17\n      jump\t// in\n    tag_16:\n      mload(0x40)\n      dup1\n      swap2\n      sub\n      swap1\n      return\n        /* \"contracts/core/MedallionPensions.sol\":2611:2706  function getName() pure external returns (string memory _name) { ... */\n    tag_3:\n      callvalue\n      dup1\n      iszero\n      tag_18\n      jumpi\n      revert(0x00, 0x00)\n    tag_18:\n      pop\n      tag_19\n      tag_20\n      jump\t// in\n    tag_19:\n      mload(0x40)\n      tag_21\n      swap2\n      swap1\n      tag_22\n      jump\t// in\n    tag_21:\n      mload(0x40)\n      dup1\n      swap2\n      sub\n      swap1\n      return\n        /* \"contracts/core/MedallionPensions.sol\":3539:3665  function getPensionIds() adminOnly view external returns (uint256 [] memory _pensionIds) {... */\n    tag_4:\n      callvalue\n      dup1\n      iszero\n      tag_23\n      jumpi\n      revert(0x00, 0x00)\n    tag_23:\n      pop\n      tag_24\n      tag_25\n      jump\t// in\n    tag_24:\n      mload(0x40)\n      tag_26\n      swap2\n      swap1\n      tag_27\n      jump\t// in\n    tag_26:\n      mload(0x40)\n      dup1\n      swap2\n      sub\n      swap1\n      return\n        /* \"contracts/core/MedallionPensions.sol\":3261:3399  function getPension() view external returns (MPension memory _pension){... */\n    tag_5:\n      callvalue\n      dup1\n      iszero\n      tag_28\n      jumpi\n      revert(0x00, 0x00)\n    tag_28:\n      pop\n      tag_29\n      tag_30\n      jump\t// in\n    tag_29:\n      mload(0x40)\n      tag_31\n      swap2\n      swap1\n      tag_32\n      jump\t// in\n    tag_31:\n      mload(0x40)\n      dup1\n      swap2\n      sub\n      swap1\n      return\n        /* \"contracts/core/MedallionPensions.sol\":3407:3531  function getPension(uint256 _id) view external returns (MPension memory _pension){... */\n    tag_6:\n      callvalue\n      dup1\n      iszero\n      tag_33\n      jumpi\n      revert(0x00, 0x00)\n    tag_33:\n      pop\n      tag_34\n      0x04\n      dup1\n      calldatasize\n      sub\n      dup2\n      add\n      swap1\n      tag_35\n      swap2\n      swap1\n      tag_36\n      jump\t// in\n    tag_35:\n      tag_37\n      jump\t// in\n    tag_34:\n      mload(0x40)\n      tag_38\n      swap2\n      swap1\n      tag_32\n      jump\t// in\n    tag_38:\n      mload(0x40)\n      dup1\n      swap2\n      sub\n      swap1\n      return\n        /* \"contracts/core/MedallionPensions.sol\":3673:5047  function createPension(ProtoPension memory _pPension) payable external returns (address _vault, uint256 _txId){... */\n    tag_7:\n      tag_39\n      0x04\n      dup1\n      calldatasize\n      sub\n      dup2\n      add\n      swap1\n      tag_40\n      swap2\n      swap1\n      tag_41\n      jump\t// in\n    tag_40:\n      tag_42\n      jump\t// in\n    tag_39:\n      mload(0x40)\n      tag_43\n      swap3\n      swap2\n      swap1\n      tag_44\n      jump\t// in\n    tag_43:\n      mload(0x40)\n      dup1\n      swap2\n      sub\n      swap1\n      return\n        /* \"contracts/core/MedallionPensions.sol\":2819:3123  function getFeeToken() view external returns (address _feeToken, string memory _name, string memory _symbol){ ... */\n    tag_8:\n      callvalue\n      dup1\n      iszero\n      tag_45\n      jumpi\n      revert(0x00, 0x00)\n    tag_45:\n      pop\n      tag_46\n      tag_47\n      jump\t// in\n    tag_46:\n      mload(0x40)\n      tag_48\n      swap4\n      swap3\n      swap2\n      swap1\n      tag_49\n      jump\t// in\n    tag_48:\n      mload(0x40)\n      dup1\n      swap2\n      sub\n      swap1\n      return\n        /* \"contracts/core/MedallionPensions.sol\":5055:5217  function setFee(string memory _feeName, uint256 _fee) external adminOnly returns (bool _set) {... */\n    tag_9:\n      callvalue\n      dup1\n      iszero\n      tag_50\n      jumpi\n      revert(0x00, 0x00)\n    tag_50:\n      pop\n      tag_51\n      0x04\n      dup1\n      calldatasize\n      sub\n      dup2\n      add\n      swap1\n      tag_52\n      swap2\n      swap1\n      tag_53\n      jump\t// in\n    tag_52:\n      tag_54\n      jump\t// in\n    tag_51:\n      mload(0x40)\n      tag_55\n      swap2\n      swap1\n      tag_56\n      jump\t// in\n    tag_55:\n      mload(0x40)\n      dup1\n      swap2\n      sub\n      swap1\n      return\n        /* \"contracts/core/MedallionPensions.sol\":5226:5404  function notifyChangeOfAddress() external adminOnly returns (bool _acknowledged) { ... */\n    tag_10:\n      callvalue\n      dup1\n      iszero\n      tag_57\n      jumpi\n      revert(0x00, 0x00)\n    tag_57:\n      pop\n      tag_58\n      tag_59\n      jump\t// in\n    tag_58:\n      mload(0x40)\n      tag_60\n      swap2\n      swap1\n      tag_56\n      jump\t// in\n    tag_60:\n      mload(0x40)\n      dup1\n      swap2\n      sub\n      swap1\n      return\n        /* \"contracts/core/MedallionPensions.sol\":3131:3253  function getFee(string memory _feeName) view external returns (uint256 _fee) {... */\n    tag_11:\n      callvalue\n      dup1\n      iszero\n      tag_61\n      jumpi\n      revert(0x00, 0x00)\n    tag_61:\n      pop\n      tag_62\n      0x04\n      dup1\n      calldatasize\n      sub\n      dup2\n      add\n      swap1\n      tag_63\n      swap2\n      swap1\n      tag_64\n      jump\t// in\n    tag_63:\n      tag_65\n      jump\t// in\n    tag_62:\n      mload(0x40)\n      tag_66\n      swap2\n      swap1\n      tag_17\n      jump\t// in\n    tag_66:\n      mload(0x40)\n      dup1\n      swap2\n      sub\n      swap1\n      return\n        /* \"contracts/core/MedallionPensions.sol\":2714:2811  function getVersion() pure external returns (uint256 _version){ ... */\n    tag_15:\n        /* \"contracts/core/MedallionPensions.sol\":2759:2775  uint256 _version */\n      0x00\n        /* \"contracts/core/MedallionPensions.sol\":847:848  2 */\n      0x02\n        /* \"contracts/core/MedallionPensions.sol\":2788:2802  return version */\n      swap1\n      pop\n        /* \"contracts/core/MedallionPensions.sol\":2714:2811  function getVersion() pure external returns (uint256 _version){ ... */\n      swap1\n      jump\t// out\n        /* \"contracts/core/MedallionPensions.sol\":2611:2706  function getName() pure external returns (string memory _name) { ... */\n    tag_20:\n        /* \"contracts/core/MedallionPensions.sol\":2653:2672  string memory _name */\n      0x60\n        /* \"contracts/core/MedallionPensions.sol\":2693:2697  name */\n      mload(0x40)\n      dup1\n      0x40\n      add\n      0x40\n      mstore\n      dup1\n      0x20\n      dup2\n      mstore\n      0x20\n      add\n      0x52455345525645445f4d4544414c4c494f4e5f50454e53494f4e535f434f5245\n      dup2\n      mstore\n      pop\n        /* \"contracts/core/MedallionPensions.sol\":2686:2697  return name */\n      swap1\n      pop\n        /* \"contracts/core/MedallionPensions.sol\":2611:2706  function getName() pure external returns (string memory _name) { ... */\n      swap1\n      jump\t// out\n        /* \"contracts/core/MedallionPensions.sol\":3539:3665  function getPensionIds() adminOnly view external returns (uint256 [] memory _pensionIds) {... */\n    tag_25:\n        /* \"contracts/core/MedallionPensions.sol\":3597:3626  uint256 [] memory _pensionIds */\n      0x60\n        /* \"contracts/core/MedallionPensions.sol\":660:668  register */\n      0x00\n      0x00\n      swap1\n      sload\n      swap1\n      0x0100\n      exp\n      swap1\n      div\n      0xffffffffffffffffffffffffffffffffffffffff\n      and\n        /* \"contracts/core/MedallionPensions.sol\":660:679  register.getAddress */\n      0xffffffffffffffffffffffffffffffffffffffff\n      and\n      0xbf40fac1\n        /* \"contracts/core/MedallionPensions.sol\":680:696  PENSION_ADMIN_CA */\n      mload(0x40)\n      dup1\n      0x40\n      add\n      0x40\n      mstore\n      dup1\n      0x11\n      dup2\n      mstore\n      0x20\n      add\n      0x52455345525645445f4d505f41444d494e000000000000000000000000000000\n      dup2\n      mstore\n      pop\n        /* \"contracts/core/MedallionPensions.sol\":660:697  register.getAddress(PENSION_ADMIN_CA) */\n      mload(0x40)\n      dup3\n      0xffffffff\n      and\n      0xe0\n      shl\n      dup2\n      mstore\n      0x04\n      add\n      tag_70\n      swap2\n      swap1\n      tag_22\n      jump\t// in\n    tag_70:\n      0x20\n      mload(0x40)\n      dup1\n      dup4\n      sub\n      dup2\n      dup7\n      gas\n      staticcall\n      iszero\n      dup1\n      iszero\n      tag_72\n      jumpi\n      returndatacopy(0x00, 0x00, returndatasize)\n      revert(0x00, returndatasize)\n    tag_72:\n      pop\n      pop\n      pop\n      pop\n      mload(0x40)\n      returndatasize\n      not(0x1f)\n      0x1f\n      dup3\n      add\n      and\n      dup3\n      add\n      dup1\n      0x40\n      mstore\n      pop\n      dup2\n      add\n      swap1\n      tag_73\n      swap2\n      swap1\n      tag_74\n      jump\t// in\n    tag_73:\n        /* \"contracts/core/MedallionPensions.sol\":646:697  msg.sender == register.getAddress(PENSION_ADMIN_CA) */\n      0xffffffffffffffffffffffffffffffffffffffff\n      and\n        /* \"contracts/core/MedallionPensions.sol\":646:656  msg.sender */\n      caller\n        /* \"contracts/core/MedallionPensions.sol\":646:697  msg.sender == register.getAddress(PENSION_ADMIN_CA) */\n      0xffffffffffffffffffffffffffffffffffffffff\n      and\n      eq\n        /* \"contracts/core/MedallionPensions.sol\":638:720  require(msg.sender == register.getAddress(PENSION_ADMIN_CA), \"Pension Admin Only\") */\n      tag_75\n      jumpi\n      mload(0x40)\n      0x08c379a000000000000000000000000000000000000000000000000000000000\n      dup2\n      mstore\n      0x04\n      add\n      tag_76\n      swap1\n      tag_77\n      jump\t// in\n    tag_76:\n      mload(0x40)\n      dup1\n      swap2\n      sub\n      swap1\n      revert\n    tag_75:\n        /* \"contracts/core/MedallionPensions.sol\":3646:3656  pensionIds */\n      0x02\n        /* \"contracts/core/MedallionPensions.sol\":3639:3656  return pensionIds */\n      dup1\n      sload\n      dup1\n      0x20\n      mul\n      0x20\n      add\n      mload(0x40)\n      swap1\n      dup2\n      add\n      0x40\n      mstore\n      dup1\n      swap3\n      swap2\n      swap1\n      dup2\n      dup2\n      mstore\n      0x20\n      add\n      dup3\n      dup1\n      sload\n      dup1\n      iszero\n      tag_79\n      jumpi\n      0x20\n      mul\n      dup3\n      add\n      swap2\n      swap1\n      0x00\n      mstore\n      keccak256(0x00, 0x20)\n      swap1\n    tag_80:\n      dup2\n      sload\n      dup2\n      mstore\n      0x20\n      add\n      swap1\n      0x01\n      add\n      swap1\n      dup1\n      dup4\n      gt\n      tag_80\n      jumpi\n    tag_79:\n      pop\n      pop\n      pop\n      pop\n      pop\n      swap1\n      pop\n        /* \"contracts/core/MedallionPensions.sol\":3539:3665  function getPensionIds() adminOnly view external returns (uint256 [] memory _pensionIds) {... */\n      swap1\n      jump\t// out\n        /* \"contracts/core/MedallionPensions.sol\":3261:3399  function getPension() view external returns (MPension memory _pension){... */\n    tag_30:\n        /* \"contracts/core/MedallionPensions.sol\":3306:3330  MPension memory _pension */\n      tag_81\n      tag_82\n      jump\t// in\n    tag_81:\n        /* \"contracts/core/MedallionPensions.sol\":3349:3360  pensionById */\n      0x04\n        /* \"contracts/core/MedallionPensions.sol\":3349:3390  pensionById[pensionIdByOwner[msg.sender]] */\n      0x00\n        /* \"contracts/core/MedallionPensions.sol\":3361:3377  pensionIdByOwner */\n      0x05\n        /* \"contracts/core/MedallionPensions.sol\":3361:3389  pensionIdByOwner[msg.sender] */\n      0x00\n        /* \"contracts/core/MedallionPensions.sol\":3378:3388  msg.sender */\n      caller\n        /* \"contracts/core/MedallionPensions.sol\":3361:3389  pensionIdByOwner[msg.sender] */\n      0xffffffffffffffffffffffffffffffffffffffff\n      and\n      0xffffffffffffffffffffffffffffffffffffffff\n      and\n      dup2\n      mstore\n      0x20\n      add\n      swap1\n      dup2\n      mstore\n      0x20\n      add\n      0x00\n      keccak256\n      sload\n        /* \"contracts/core/MedallionPensions.sol\":3349:3390  pensionById[pensionIdByOwner[msg.sender]] */\n      dup2\n      mstore\n      0x20\n      add\n      swap1\n      dup2\n      mstore\n      0x20\n      add\n      0x00\n      keccak256\n        /* \"contracts/core/MedallionPensions.sol\":3342:3390  return pensionById[pensionIdByOwner[msg.sender]] */\n      mload(0x40)\n      dup1\n      0xe0\n      add\n      0x40\n      mstore\n      swap1\n      dup2\n      0x00\n      dup3\n      add\n      sload\n      dup2\n      mstore\n      0x20\n      add\n      0x01\n      dup3\n      add\n      0x00\n      swap1\n      sload\n      swap1\n      0x0100\n      exp\n      swap1\n      div\n      0xffffffffffffffffffffffffffffffffffffffff\n      and\n      0xffffffffffffffffffffffffffffffffffffffff\n      and\n      0xffffffffffffffffffffffffffffffffffffffff\n      and\n      dup2\n      mstore\n      0x20\n      add\n      0x02\n      dup3\n      add\n      0x00\n      swap1\n      sload\n      swap1\n      0x0100\n      exp\n      swap1\n      div\n      0xffffffffffffffffffffffffffffffffffffffff\n      and\n      0xffffffffffffffffffffffffffffffffffffffff\n      and\n      0xffffffffffffffffffffffffffffffffffffffff\n      and\n      dup2\n      mstore\n      0x20\n      add\n      0x03\n      dup3\n      add\n      0x00\n      swap1\n      sload\n      swap1\n      0x0100\n      exp\n      swap1\n      div\n      0xffffffffffffffffffffffffffffffffffffffff\n      and\n      0xffffffffffffffffffffffffffffffffffffffff\n      and\n      0xffffffffffffffffffffffffffffffffffffffff\n      and\n      dup2\n      mstore\n      0x20\n      add\n      0x04\n      dup3\n      add\n      sload\n      dup2\n      mstore\n      0x20\n      add\n      0x05\n      dup3\n      add\n      sload\n      dup2\n      mstore\n      0x20\n      add\n      0x06\n      dup3\n      add\n      mload(0x40)\n      dup1\n      0x01a0\n      add\n      0x40\n      mstore\n      swap1\n      dup2\n      0x00\n      dup3\n      add\n      sload\n      dup2\n      mstore\n      0x20\n      add\n      0x01\n      dup3\n      add\n      0x00\n      swap1\n      sload\n      swap1\n      0x0100\n      exp\n      swap1\n      div\n      0xffffffffffffffffffffffffffffffffffffffff\n      and\n      0xffffffffffffffffffffffffffffffffffffffff\n      and\n      0xffffffffffffffffffffffffffffffffffffffff\n      and\n      dup2\n      mstore\n      0x20\n      add\n      0x02\n      dup3\n      add\n      0x00\n      swap1\n      sload\n      swap1\n      0x0100\n      exp\n      swap1\n      div\n      0xffffffffffffffffffffffffffffffffffffffff\n      and\n      0xffffffffffffffffffffffffffffffffffffffff\n      and\n      0xffffffffffffffffffffffffffffffffffffffff\n      and\n      dup2\n      mstore\n      0x20\n      add\n      0x03\n      dup3\n      add\n      sload\n      dup2\n      mstore\n      0x20\n      add\n      0x04\n      dup3\n      add\n      sload\n      dup2\n      mstore\n      0x20\n      add\n      0x05\n      dup3\n      add\n      sload\n      dup2\n      mstore\n      0x20\n      add\n      0x06\n      dup3\n      add\n      0x00\n      swap1\n      sload\n      swap1\n      0x0100\n      exp\n      swap1\n      div\n      0xff\n      and\n      0x02\n      dup2\n      gt\n      iszero\n      tag_84\n      jumpi\n      tag_85\n      tag_86\n      jump\t// in\n    tag_85:\n    tag_84:\n      0x02\n      dup2\n      gt\n      iszero\n      tag_87\n      jumpi\n      tag_88\n      tag_86\n      jump\t// in\n    tag_88:\n    tag_87:\n      dup2\n      mstore\n      0x20\n      add\n      0x07\n      dup3\n      add\n      mload(0x40)\n      dup1\n      0xc0\n      add\n      0x40\n      mstore\n      swap1\n      dup2\n      0x00\n      dup3\n      add\n      0x00\n      swap1\n      sload\n      swap1\n      0x0100\n      exp\n      swap1\n      div\n      0xff\n      and\n      0x03\n      dup2\n      gt\n      iszero\n      tag_89\n      jumpi\n      tag_90\n      tag_86\n      jump\t// in\n    tag_90:\n    tag_89:\n      0x03\n      dup2\n      gt\n      iszero\n      tag_91\n      jumpi\n      tag_92\n      tag_86\n      jump\t// in\n    tag_92:\n    tag_91:\n      dup2\n      mstore\n      0x20\n      add\n      0x01\n      dup3\n      add\n      sload\n      dup2\n      mstore\n      0x20\n      add\n      0x02\n      dup3\n      add\n      sload\n      dup2\n      mstore\n      0x20\n      add\n      0x03\n      dup3\n      add\n      sload\n      dup2\n      mstore\n      0x20\n      add\n      0x04\n      dup3\n      add\n      sload\n      dup2\n      mstore\n      0x20\n      add\n      0x05\n      dup3\n      add\n      sload\n      dup2\n      mstore\n      pop\n      pop\n      dup2\n      mstore\n      0x20\n      add\n      0x0d\n      dup3\n      add\n      mload(0x40)\n      dup1\n      0xc0\n      add\n      0x40\n      mstore\n      swap1\n      dup2\n      0x00\n      dup3\n      add\n      0x00\n      swap1\n      sload\n      swap1\n      0x0100\n      exp\n      swap1\n      div\n      0xff\n      and\n      0x03\n      dup2\n      gt\n      iszero\n      tag_93\n      jumpi\n      tag_94\n      tag_86\n      jump\t// in\n    tag_94:\n    tag_93:\n      0x03\n      dup2\n      gt\n      iszero\n      tag_95\n      jumpi\n      tag_96\n      tag_86\n      jump\t// in\n    tag_96:\n    tag_95:\n      dup2\n      mstore\n      0x20\n      add\n      0x01\n      dup3\n      add\n      sload\n      dup2\n      mstore\n      0x20\n      add\n      0x02\n      dup3\n      add\n      sload\n      dup2\n      mstore\n      0x20\n      add\n      0x03\n      dup3\n      add\n      sload\n      dup2\n      mstore\n      0x20\n      add\n      0x04\n      dup3\n      add\n      sload\n      dup2\n      mstore\n      0x20\n      add\n      0x05\n      dup3\n      add\n      sload\n      dup2\n      mstore\n      pop\n      pop\n      dup2\n      mstore\n      0x20\n      add\n      0x13\n      dup3\n      add\n      mload(0x40)\n      dup1\n      0x40\n      add\n      0x40\n      mstore\n      swap1\n      dup2\n      0x00\n      dup3\n      add\n      sload\n      dup2\n      mstore\n      0x20\n      add\n      0x01\n      dup3\n      add\n      sload\n      dup2\n      mstore\n      pop\n      pop\n      dup2\n      mstore\n      0x20\n      add\n      0x15\n      dup3\n      add\n      sload\n      dup2\n      mstore\n      0x20\n      add\n      0x16\n      dup3\n      add\n      sload\n      dup2\n      mstore\n      0x20\n      add\n      0x17\n      dup3\n      add\n      sload\n      dup2\n      mstore\n      pop\n      pop\n      dup2\n      mstore\n      pop\n      pop\n      swap1\n      pop\n        /* \"contracts/core/MedallionPensions.sol\":3261:3399  function getPension() view external returns (MPension memory _pension){... */\n      swap1\n      jump\t// out\n        /* \"contracts/core/MedallionPensions.sol\":3407:3531  function getPension(uint256 _id) view external returns (MPension memory _pension){... */\n    tag_37:\n        /* \"contracts/core/MedallionPensions.sol\":3463:3487  MPension memory _pension */\n      tag_97\n      tag_82\n      jump\t// in\n    tag_97:\n        /* \"contracts/core/MedallionPensions.sol\":3506:3517  pensionById */\n      0x04\n        /* \"contracts/core/MedallionPensions.sol\":3506:3522  pensionById[_id] */\n      0x00\n        /* \"contracts/core/MedallionPensions.sol\":3518:3521  _id */\n      dup4\n        /* \"contracts/core/MedallionPensions.sol\":3506:3522  pensionById[_id] */\n      dup2\n      mstore\n      0x20\n      add\n      swap1\n      dup2\n      mstore\n      0x20\n      add\n      0x00\n      keccak256\n        /* \"contracts/core/MedallionPensions.sol\":3499:3522  return pensionById[_id] */\n      mload(0x40)\n      dup1\n      0xe0\n      add\n      0x40\n      mstore\n      swap1\n      dup2\n      0x00\n      dup3\n      add\n      sload\n      dup2\n      mstore\n      0x20\n      add\n      0x01\n      dup3\n      add\n      0x00\n      swap1\n      sload\n      swap1\n      0x0100\n      exp\n      swap1\n      div\n      0xffffffffffffffffffffffffffffffffffffffff\n      and\n      0xffffffffffffffffffffffffffffffffffffffff\n      and\n      0xffffffffffffffffffffffffffffffffffffffff\n      and\n      dup2\n      mstore\n      0x20\n      add\n      0x02\n      dup3\n      add\n      0x00\n      swap1\n      sload\n      swap1\n      0x0100\n      exp\n      swap1\n      div\n      0xffffffffffffffffffffffffffffffffffffffff\n      and\n      0xffffffffffffffffffffffffffffffffffffffff\n      and\n      0xffffffffffffffffffffffffffffffffffffffff\n      and\n      dup2\n      mstore\n      0x20\n      add\n      0x03\n      dup3\n      add\n      0x00\n      swap1\n      sload\n      swap1\n      0x0100\n      exp\n      swap1\n      div\n      0xffffffffffffffffffffffffffffffffffffffff\n      and\n      0xffffffffffffffffffffffffffffffffffffffff\n      and\n      0xffffffffffffffffffffffffffffffffffffffff\n      and\n      dup2\n      mstore\n      0x20\n      add\n      0x04\n      dup3\n      add\n      sload\n      dup2\n      mstore\n      0x20\n      add\n      0x05\n      dup3\n      add\n      sload\n      dup2\n      mstore\n      0x20\n      add\n      0x06\n      dup3\n      add\n      mload(0x40)\n      dup1\n      0x01a0\n      add\n      0x40\n      mstore\n      swap1\n      dup2\n      0x00\n      dup3\n      add\n      sload\n      dup2\n      mstore\n      0x20\n      add\n      0x01\n      dup3\n      add\n      0x00\n      swap1\n      sload\n      swap1\n      0x0100\n      exp\n      swap1\n      div\n      0xffffffffffffffffffffffffffffffffffffffff\n      and\n      0xffffffffffffffffffffffffffffffffffffffff\n      and\n      0xffffffffffffffffffffffffffffffffffffffff\n      and\n      dup2\n      mstore\n      0x20\n      add\n      0x02\n      dup3\n      add\n      0x00\n      swap1\n      sload\n      swap1\n      0x0100\n      exp\n      swap1\n      div\n      0xffffffffffffffffffffffffffffffffffffffff\n      and\n      0xffffffffffffffffffffffffffffffffffffffff\n      and\n      0xffffffffffffffffffffffffffffffffffffffff\n      and\n      dup2\n      mstore\n      0x20\n      add\n      0x03\n      dup3\n      add\n      sload\n      dup2\n      mstore\n      0x20\n      add\n      0x04\n      dup3\n      add\n      sload\n      dup2\n      mstore\n      0x20\n      add\n      0x05\n      dup3\n      add\n      sload\n      dup2\n      mstore\n      0x20\n      add\n      0x06\n      dup3\n      add\n      0x00\n      swap1\n      sload\n      swap1\n      0x0100\n      exp\n      swap1\n      div\n      0xff\n      and\n      0x02\n      dup2\n      gt\n      iszero\n      tag_99\n      jumpi\n      tag_100\n      tag_86\n      jump\t// in\n    tag_100:\n    tag_99:\n      0x02\n      dup2\n      gt\n      iszero\n      tag_101\n      jumpi\n      tag_102\n      tag_86\n      jump\t// in\n    tag_102:\n    tag_101:\n      dup2\n      mstore\n      0x20\n      add\n      0x07\n      dup3\n      add\n      mload(0x40)\n      dup1\n      0xc0\n      add\n      0x40\n      mstore\n      swap1\n      dup2\n      0x00\n      dup3\n      add\n      0x00\n      swap1\n      sload\n      swap1\n      0x0100\n      exp\n      swap1\n      div\n      0xff\n      and\n      0x03\n      dup2\n      gt\n      iszero\n      tag_103\n      jumpi\n      tag_104\n      tag_86\n      jump\t// in\n    tag_104:\n    tag_103:\n      0x03\n      dup2\n      gt\n      iszero\n      tag_105\n      jumpi\n      tag_106\n      tag_86\n      jump\t// in\n    tag_106:\n    tag_105:\n      dup2\n      mstore\n      0x20\n      add\n      0x01\n      dup3\n      add\n      sload\n      dup2\n      mstore\n      0x20\n      add\n      0x02\n      dup3\n      add\n      sload\n      dup2\n      mstore\n      0x20\n      add\n      0x03\n      dup3\n      add\n      sload\n      dup2\n      mstore\n      0x20\n      add\n      0x04\n      dup3\n      add\n      sload\n      dup2\n      mstore\n      0x20\n      add\n      0x05\n      dup3\n      add\n      sload\n      dup2\n      mstore\n      pop\n      pop\n      dup2\n      mstore\n      0x20\n      add\n      0x0d\n      dup3\n      add\n      mload(0x40)\n      dup1\n      0xc0\n      add\n      0x40\n      mstore\n      swap1\n      dup2\n      0x00\n      dup3\n      add\n      0x00\n      swap1\n      sload\n      swap1\n      0x0100\n      exp\n      swap1\n      div\n      0xff\n      and\n      0x03\n      dup2\n      gt\n      iszero\n      tag_107\n      jumpi\n      tag_108\n      tag_86\n      jump\t// in\n    tag_108:\n    tag_107:\n      0x03\n      dup2\n      gt\n      iszero\n      tag_109\n      jumpi\n      tag_110\n      tag_86\n      jump\t// in\n    tag_110:\n    tag_109:\n      dup2\n      mstore\n      0x20\n      add\n      0x01\n      dup3\n      add\n      sload\n      dup2\n      mstore\n      0x20\n      add\n      0x02\n      dup3\n      add\n      sload\n      dup2\n      mstore\n      0x20\n      add\n      0x03\n      dup3\n      add\n      sload\n      dup2\n      mstore\n      0x20\n      add\n      0x04\n      dup3\n      add\n      sload\n      dup2\n      mstore\n      0x20\n      add\n      0x05\n      dup3\n      add\n      sload\n      dup2\n      mstore\n      pop\n      pop\n      dup2\n      mstore\n      0x20\n      add\n      0x13\n      dup3\n      add\n      mload(0x40)\n      dup1\n      0x40\n      add\n      0x40\n      mstore\n      swap1\n      dup2\n      0x00\n      dup3\n      add\n      sload\n      dup2\n      mstore\n      0x20\n      add\n      0x01\n      dup3\n      add\n      sload\n      dup2\n      mstore\n      pop\n      pop\n      dup2\n      mstore\n      0x20\n      add\n      0x15\n      dup3\n      add\n      sload\n      dup2\n      mstore\n      0x20\n      add\n      0x16\n      dup3\n      add\n      sload\n      dup2\n      mstore\n      0x20\n      add\n      0x17\n      dup3\n      add\n      sload\n      dup2\n      mstore\n      pop\n      pop\n      dup2\n      mstore\n      pop\n      pop\n      swap1\n      pop\n        /* \"contracts/core/MedallionPensions.sol\":3407:3531  function getPension(uint256 _id) view external returns (MPension memory _pension){... */\n      swap2\n      swap1\n      pop\n      jump\t// out\n        /* \"contracts/core/MedallionPensions.sol\":3673:5047  function createPension(ProtoPension memory _pPension) payable external returns (address _vault, uint256 _txId){... */\n    tag_42:\n        /* \"contracts/core/MedallionPensions.sol\":3753:3767  address _vault */\n      0x00\n        /* \"contracts/core/MedallionPensions.sol\":3769:3782  uint256 _txId */\n      0x00\n        /* \"contracts/core/MedallionPensions.sol\":3794:3823  collectFee(PENSION_SETUP_FEE) */\n      tag_112\n        /* \"contracts/core/MedallionPensions.sol\":3805:3822  PENSION_SETUP_FEE */\n      mload(0x40)\n      dup1\n      0x40\n      add\n      0x40\n      mstore\n      dup1\n      0x11\n      dup2\n      mstore\n      0x20\n      add\n      0x50454e53494f4e5f53455455505f464545000000000000000000000000000000\n      dup2\n      mstore\n      pop\n        /* \"contracts/core/MedallionPensions.sol\":3794:3804  collectFee */\n      tag_113\n        /* \"contracts/core/MedallionPensions.sol\":3794:3823  collectFee(PENSION_SETUP_FEE) */\n      jump\t// in\n    tag_112:\n        /* \"contracts/core/MedallionPensions.sol\":3841:3866  MPProduct memory product_ */\n      0x00\n        /* \"contracts/core/MedallionPensions.sol\":3869:3900  getProduct(_pPension.productId) */\n      tag_114\n        /* \"contracts/core/MedallionPensions.sol\":3880:3889  _pPension */\n      dup5\n        /* \"contracts/core/MedallionPensions.sol\":3880:3899  _pPension.productId */\n      0x20\n      add\n      mload\n        /* \"contracts/core/MedallionPensions.sol\":3869:3879  getProduct */\n      tag_115\n        /* \"contracts/core/MedallionPensions.sol\":3869:3900  getProduct(_pPension.productId) */\n      jump\t// in\n    tag_114:\n        /* \"contracts/core/MedallionPensions.sol\":3841:3900  MPProduct memory product_ = getProduct(_pPension.productId) */\n      swap1\n      pop\n        /* \"contracts/core/MedallionPensions.sol\":3914:3932  uint256 pensionId_ */\n      0x00\n        /* \"contracts/core/MedallionPensions.sol\":3935:3945  getIndex() */\n      tag_116\n        /* \"contracts/core/MedallionPensions.sol\":3935:3943  getIndex */\n      tag_117\n        /* \"contracts/core/MedallionPensions.sol\":3935:3945  getIndex() */\n      jump\t// in\n    tag_116:\n        /* \"contracts/core/MedallionPensions.sol\":3914:3945  uint256 pensionId_ = getIndex() */\n      swap1\n      pop\n        /* \"contracts/core/MedallionPensions.sol\":3956:3966  pensionIds */\n      0x02\n        /* \"contracts/core/MedallionPensions.sol\":3972:3982  pensionId_ */\n      dup2\n        /* \"contracts/core/MedallionPensions.sol\":3956:3983  pensionIds.push(pensionId_) */\n      swap1\n      dup1\n      0x01\n      dup2\n      sload\n      add\n      dup1\n      dup3\n      sstore\n      dup1\n      swap2\n      pop\n      pop\n      0x01\n      swap1\n      sub\n      swap1\n      0x00\n      mstore\n      keccak256(0x00, 0x20)\n      add\n      0x00\n      swap1\n      swap2\n      swap1\n      swap2\n      swap1\n      swap2\n      pop\n      sstore\n        /* \"contracts/core/MedallionPensions.sol\":3995:4015  uint256 maturityDate */\n      0x00\n        /* \"contracts/core/MedallionPensions.sol\":4036:4044  product_ */\n      dup3\n        /* \"contracts/core/MedallionPensions.sol\":4036:4065  product_.contributionSchedule */\n      0xe0\n      add\n      mload\n        /* \"contracts/core/MedallionPensions.sol\":4036:4070  product_.contributionSchedule.term */\n      0x20\n      add\n      mload\n        /* \"contracts/core/MedallionPensions.sol\":4018:4033  block.timestamp */\n      timestamp\n        /* \"contracts/core/MedallionPensions.sol\":4018:4070  block.timestamp + product_.contributionSchedule.term */\n      tag_119\n      swap2\n      swap1\n      tag_120\n      jump\t// in\n    tag_119:\n        /* \"contracts/core/MedallionPensions.sol\":3995:4070  uint256 maturityDate = block.timestamp + product_.contributionSchedule.term */\n      swap1\n      pop\n        /* \"contracts/core/MedallionPensions.sol\":4081:4104  uint256 dissolutionDate */\n      0x00\n        /* \"contracts/core/MedallionPensions.sol\":4122:4130  product_ */\n      dup4\n        /* \"contracts/core/MedallionPensions.sol\":4122:4147  product_.emissionSchedule */\n      0x0100\n      add\n      mload\n        /* \"contracts/core/MedallionPensions.sol\":4122:4152  product_.emissionSchedule.term */\n      0x20\n      add\n      mload\n        /* \"contracts/core/MedallionPensions.sol\":4107:4119  maturityDate */\n      dup3\n        /* \"contracts/core/MedallionPensions.sol\":4107:4152  maturityDate + product_.emissionSchedule.term */\n      tag_121\n      swap2\n      swap1\n      tag_120\n      jump\t// in\n    tag_121:\n        /* \"contracts/core/MedallionPensions.sol\":4081:4152  uint256 dissolutionDate = maturityDate + product_.emissionSchedule.term */\n      swap1\n      pop\n        /* \"contracts/core/MedallionPensions.sol\":4173:4193  getVault(pensionId_) */\n      tag_122\n        /* \"contracts/core/MedallionPensions.sol\":4182:4192  pensionId_ */\n      dup4\n        /* \"contracts/core/MedallionPensions.sol\":4173:4181  getVault */\n      tag_123\n        /* \"contracts/core/MedallionPensions.sol\":4173:4193  getVault(pensionId_) */\n      jump\t// in\n    tag_122:\n        /* \"contracts/core/MedallionPensions.sol\":4164:4193  _vault = getVault(pensionId_) */\n      swap6\n      pop\n        /* \"contracts/core/MedallionPensions.sol\":4231:4770  MPension({... */\n      mload(0x40)\n      dup1\n      0xe0\n      add\n      0x40\n      mstore\n      dup1\n        /* \"contracts/core/MedallionPensions.sol\":4292:4302  pensionId_ */\n      dup5\n        /* \"contracts/core/MedallionPensions.sol\":4231:4770  MPension({... */\n      dup2\n      mstore\n      0x20\n      add\n        /* \"contracts/core/MedallionPensions.sol\":4360:4370  msg.sender */\n      caller\n        /* \"contracts/core/MedallionPensions.sol\":4231:4770  MPension({... */\n      0xffffffffffffffffffffffffffffffffffffffff\n      and\n      dup2\n      mstore\n      0x20\n      add\n        /* \"contracts/core/MedallionPensions.sol\":4427:4436  _pPension */\n      dup9\n        /* \"contracts/core/MedallionPensions.sol\":4427:4442  _pPension.owner */\n      0x00\n      add\n      mload\n        /* \"contracts/core/MedallionPensions.sol\":4231:4770  MPension({... */\n      0xffffffffffffffffffffffffffffffffffffffff\n      and\n      dup2\n      mstore\n      0x20\n      add\n        /* \"contracts/core/MedallionPensions.sol\":4498:4504  _vault */\n      dup8\n        /* \"contracts/core/MedallionPensions.sol\":4231:4770  MPension({... */\n      0xffffffffffffffffffffffffffffffffffffffff\n      and\n      dup2\n      mstore\n      0x20\n      add\n        /* \"contracts/core/MedallionPensions.sol\":4567:4579  maturityDate */\n      dup4\n        /* \"contracts/core/MedallionPensions.sol\":4231:4770  MPension({... */\n      dup2\n      mstore\n      0x20\n      add\n        /* \"contracts/core/MedallionPensions.sol\":4645:4660  dissolutionDate */\n      dup3\n        /* \"contracts/core/MedallionPensions.sol\":4231:4770  MPension({... */\n      dup2\n      mstore\n      0x20\n      add\n        /* \"contracts/core/MedallionPensions.sol\":4718:4726  product_ */\n      dup6\n        /* \"contracts/core/MedallionPensions.sol\":4231:4770  MPension({... */\n      dup2\n      mstore\n      pop\n        /* \"contracts/core/MedallionPensions.sol\":4205:4216  pensionById */\n      0x04\n        /* \"contracts/core/MedallionPensions.sol\":4205:4228  pensionById[pensionId_] */\n      0x00\n        /* \"contracts/core/MedallionPensions.sol\":4217:4227  pensionId_ */\n      dup6\n        /* \"contracts/core/MedallionPensions.sol\":4205:4228  pensionById[pensionId_] */\n      dup2\n      mstore\n      0x20\n      add\n      swap1\n      dup2\n      mstore\n      0x20\n      add\n      0x00\n      keccak256\n        /* \"contracts/core/MedallionPensions.sol\":4205:4770  pensionById[pensionId_] = MPension({... */\n      0x00\n      dup3\n      add\n      mload\n      dup2\n      0x00\n      add\n      sstore\n      0x20\n      dup3\n      add\n      mload\n      dup2\n      0x01\n      add\n      exp(0x0100, 0x00)\n      dup2\n      sload\n      dup2\n      0xffffffffffffffffffffffffffffffffffffffff\n      mul\n      not\n      and\n      swap1\n      dup4\n      0xffffffffffffffffffffffffffffffffffffffff\n      and\n      mul\n      or\n      swap1\n      sstore\n      pop\n      0x40\n      dup3\n      add\n      mload\n      dup2\n      0x02\n      add\n      exp(0x0100, 0x00)\n      dup2\n      sload\n      dup2\n      0xffffffffffffffffffffffffffffffffffffffff\n      mul\n      not\n      and\n      swap1\n      dup4\n      0xffffffffffffffffffffffffffffffffffffffff\n      and\n      mul\n      or\n      swap1\n      sstore\n      pop\n      0x60\n      dup3\n      add\n      mload\n      dup2\n      0x03\n      add\n      exp(0x0100, 0x00)\n      dup2\n      sload\n      dup2\n      0xffffffffffffffffffffffffffffffffffffffff\n      mul\n      not\n      and\n      swap1\n      dup4\n      0xffffffffffffffffffffffffffffffffffffffff\n      and\n      mul\n      or\n      swap1\n      sstore\n      pop\n      0x80\n      dup3\n      add\n      mload\n      dup2\n      0x04\n      add\n      sstore\n      0xa0\n      dup3\n      add\n      mload\n      dup2\n      0x05\n      add\n      sstore\n      0xc0\n      dup3\n      add\n      mload\n      dup2\n      0x06\n      add\n      0x00\n      dup3\n      add\n      mload\n      dup2\n      0x00\n      add\n      sstore\n      0x20\n      dup3\n      add\n      mload\n      dup2\n      0x01\n      add\n      exp(0x0100, 0x00)\n      dup2\n      sload\n      dup2\n      0xffffffffffffffffffffffffffffffffffffffff\n      mul\n      not\n      and\n      swap1\n      dup4\n      0xffffffffffffffffffffffffffffffffffffffff\n      and\n      mul\n      or\n      swap1\n      sstore\n      pop\n      0x40\n      dup3\n      add\n      mload\n      dup2\n      0x02\n      add\n      exp(0x0100, 0x00)\n      dup2\n      sload\n      dup2\n      0xffffffffffffffffffffffffffffffffffffffff\n      mul\n      not\n      and\n      swap1\n      dup4\n      0xffffffffffffffffffffffffffffffffffffffff\n      and\n      mul\n      or\n      swap1\n      sstore\n      pop\n      0x60\n      dup3\n      add\n      mload\n      dup2\n      0x03\n      add\n      sstore\n      0x80\n      dup3\n      add\n      mload\n      dup2\n      0x04\n      add\n      sstore\n      0xa0\n      dup3\n      add\n      mload\n      dup2\n      0x05\n      add\n      sstore\n      0xc0\n      dup3\n      add\n      mload\n      dup2\n      0x06\n      add\n      exp(0x0100, 0x00)\n      dup2\n      sload\n      dup2\n      0xff\n      mul\n      not\n      and\n      swap1\n      dup4\n      0x02\n      dup2\n      gt\n      iszero\n      tag_124\n      jumpi\n      tag_125\n      tag_86\n      jump\t// in\n    tag_125:\n    tag_124:\n      mul\n      or\n      swap1\n      sstore\n      pop\n      0xe0\n      dup3\n      add\n      mload\n      dup2\n      0x07\n      add\n      0x00\n      dup3\n      add\n      mload\n      dup2\n      0x00\n      add\n      exp(0x0100, 0x00)\n      dup2\n      sload\n      dup2\n      0xff\n      mul\n      not\n      and\n      swap1\n      dup4\n      0x03\n      dup2\n      gt\n      iszero\n      tag_126\n      jumpi\n      tag_127\n      tag_86\n      jump\t// in\n    tag_127:\n    tag_126:\n      mul\n      or\n      swap1\n      sstore\n      pop\n      0x20\n      dup3\n      add\n      mload\n      dup2\n      0x01\n      add\n      sstore\n      0x40\n      dup3\n      add\n      mload\n      dup2\n      0x02\n      add\n      sstore\n      0x60\n      dup3\n      add\n      mload\n      dup2\n      0x03\n      add\n      sstore\n      0x80\n      dup3\n      add\n      mload\n      dup2\n      0x04\n      add\n      sstore\n      0xa0\n      dup3\n      add\n      mload\n      dup2\n      0x05\n      add\n      sstore\n      pop\n      pop\n      0x0100\n      dup3\n      add\n      mload\n      dup2\n      0x0d\n      add\n      0x00\n      dup3\n      add\n      mload\n      dup2\n      0x00\n      add\n      exp(0x0100, 0x00)\n      dup2\n      sload\n      dup2\n      0xff\n      mul\n      not\n      and\n      swap1\n      dup4\n      0x03\n      dup2\n      gt\n      iszero\n      tag_128\n      jumpi\n      tag_129\n      tag_86\n      jump\t// in\n    tag_129:\n    tag_128:\n      mul\n      or\n      swap1\n      sstore\n      pop\n      0x20\n      dup3\n      add\n      mload\n      dup2\n      0x01\n      add\n      sstore\n      0x40\n      dup3\n      add\n      mload\n      dup2\n      0x02\n      add\n      sstore\n      0x60\n      dup3\n      add\n      mload\n      dup2\n      0x03\n      add\n      sstore\n      0x80\n      dup3\n      add\n      mload\n      dup2\n      0x04\n      add\n      sstore\n      0xa0\n      dup3\n      add\n      mload\n      dup2\n      0x05\n      add\n      sstore\n      pop\n      pop\n      0x0120\n      dup3\n      add\n      mload\n      dup2\n      0x13\n      add\n      0x00\n      dup3\n      add\n      mload\n      dup2\n      0x00\n      add\n      sstore\n      0x20\n      dup3\n      add\n      mload\n      dup2\n      0x01\n      add\n      sstore\n      pop\n      pop\n      0x0140\n      dup3\n      add\n      mload\n      dup2\n      0x15\n      add\n      sstore\n      0x0160\n      dup3\n      add\n      mload\n      dup2\n      0x16\n      add\n      sstore\n      0x0180\n      dup3\n      add\n      mload\n      dup2\n      0x17\n      add\n      sstore\n      pop\n      pop\n      swap1\n      pop\n      pop\n        /* \"contracts/core/MedallionPensions.sol\":4817:4827  pensionId_ */\n      dup3\n        /* \"contracts/core/MedallionPensions.sol\":4781:4797  pensionIdByOwner */\n      0x05\n        /* \"contracts/core/MedallionPensions.sol\":4781:4814  pensionIdByOwner[_pPension.owner] */\n      0x00\n        /* \"contracts/core/MedallionPensions.sol\":4798:4807  _pPension */\n      dup10\n        /* \"contracts/core/MedallionPensions.sol\":4798:4813  _pPension.owner */\n      0x00\n      add\n      mload\n        /* \"contracts/core/MedallionPensions.sol\":4781:4814  pensionIdByOwner[_pPension.owner] */\n      0xffffffffffffffffffffffffffffffffffffffff\n      and\n      0xffffffffffffffffffffffffffffffffffffffff\n      and\n      dup2\n      mstore\n      0x20\n      add\n      swap1\n      dup2\n      mstore\n      0x20\n      add\n      0x00\n      keccak256\n        /* \"contracts/core/MedallionPensions.sol\":4781:4827  pensionIdByOwner[_pPension.owner] = pensionId_ */\n      dup2\n      swap1\n      sstore\n      pop\n        /* \"contracts/core/MedallionPensions.sol\":4891:5005  addTx(TxType.CREATE, ObjType.MPENSION, pensionId_, feeByName[PENSION_SETUP_FEE],register.getAddress(FEE_TOKEN_CA)) */\n      tag_130\n        /* \"contracts/core/MedallionPensions.sol\":4897:4910  TxType.CREATE */\n      0x00\n        /* \"contracts/core/MedallionPensions.sol\":4912:4928  ObjType.MPENSION */\n      0x00\n        /* \"contracts/core/MedallionPensions.sol\":4930:4940  pensionId_ */\n      dup6\n        /* \"contracts/core/MedallionPensions.sol\":4942:4951  feeByName */\n      0x06\n        /* \"contracts/core/MedallionPensions.sol\":4952:4969  PENSION_SETUP_FEE */\n      mload(0x40)\n      dup1\n      0x40\n      add\n      0x40\n      mstore\n      dup1\n      0x11\n      dup2\n      mstore\n      0x20\n      add\n      0x50454e53494f4e5f53455455505f464545000000000000000000000000000000\n      dup2\n      mstore\n      pop\n        /* \"contracts/core/MedallionPensions.sol\":4942:4970  feeByName[PENSION_SETUP_FEE] */\n      mload(0x40)\n      tag_131\n      swap2\n      swap1\n      tag_132\n      jump\t// in\n    tag_131:\n      swap1\n      dup2\n      mstore\n      0x20\n      add\n      mload(0x40)\n      dup1\n      swap2\n      sub\n      swap1\n      keccak256\n      sload\n        /* \"contracts/core/MedallionPensions.sol\":4971:4979  register */\n      0x00\n      0x00\n      swap1\n      sload\n      swap1\n      0x0100\n      exp\n      swap1\n      div\n      0xffffffffffffffffffffffffffffffffffffffff\n      and\n        /* \"contracts/core/MedallionPensions.sol\":4971:4990  register.getAddress */\n      0xffffffffffffffffffffffffffffffffffffffff\n      and\n      0xbf40fac1\n        /* \"contracts/core/MedallionPensions.sol\":4991:5003  FEE_TOKEN_CA */\n      mload(0x40)\n      dup1\n      0x40\n      add\n      0x40\n      mstore\n      dup1\n      0x15\n      dup2\n      mstore\n      0x20\n      add\n      0x52455345525645445f4d505f4645455f544f4b454e0000000000000000000000\n      dup2\n      mstore\n      pop\n        /* \"contracts/core/MedallionPensions.sol\":4971:5004  register.getAddress(FEE_TOKEN_CA) */\n      mload(0x40)\n      dup3\n      0xffffffff\n      and\n      0xe0\n      shl\n      dup2\n      mstore\n      0x04\n      add\n      tag_133\n      swap2\n      swap1\n      tag_22\n      jump\t// in\n    tag_133:\n      0x20\n      mload(0x40)\n      dup1\n      dup4\n      sub\n      dup2\n      dup7\n      gas\n      staticcall\n      iszero\n      dup1\n      iszero\n      tag_135\n      jumpi\n      returndatacopy(0x00, 0x00, returndatasize)\n      revert(0x00, returndatasize)\n    tag_135:\n      pop\n      pop\n      pop\n      pop\n      mload(0x40)\n      returndatasize\n      not(0x1f)\n      0x1f\n      dup3\n      add\n      and\n      dup3\n      add\n      dup1\n      0x40\n      mstore\n      pop\n      dup2\n      add\n      swap1\n      tag_136\n      swap2\n      swap1\n      tag_74\n      jump\t// in\n    tag_136:\n        /* \"contracts/core/MedallionPensions.sol\":4891:4896  addTx */\n      tag_137\n        /* \"contracts/core/MedallionPensions.sol\":4891:5005  addTx(TxType.CREATE, ObjType.MPENSION, pensionId_, feeByName[PENSION_SETUP_FEE],register.getAddress(FEE_TOKEN_CA)) */\n      jump\t// in\n    tag_130:\n        /* \"contracts/core/MedallionPensions.sol\":4883:5005  _txId = addTx(TxType.CREATE, ObjType.MPENSION, pensionId_, feeByName[PENSION_SETUP_FEE],register.getAddress(FEE_TOKEN_CA)) */\n      swap5\n      pop\n        /* \"contracts/core/MedallionPensions.sol\":5016:5038  return (_vault, _txId) */\n      pop\n      pop\n      pop\n      pop\n        /* \"contracts/core/MedallionPensions.sol\":3673:5047  function createPension(ProtoPension memory _pPension) payable external returns (address _vault, uint256 _txId){... */\n      swap2\n      pop\n      swap2\n      jump\t// out\n        /* \"contracts/core/MedallionPensions.sol\":2819:3123  function getFeeToken() view external returns (address _feeToken, string memory _name, string memory _symbol){ ... */\n    tag_47:\n        /* \"contracts/core/MedallionPensions.sol\":2865:2882  address _feeToken */\n      0x00\n        /* \"contracts/core/MedallionPensions.sol\":2884:2903  string memory _name */\n      0x60\n        /* \"contracts/core/MedallionPensions.sol\":2905:2926  string memory _symbol */\n      dup1\n        /* \"contracts/core/MedallionPensions.sol\":2951:2959  register */\n      0x00\n      0x00\n      swap1\n      sload\n      swap1\n      0x0100\n      exp\n      swap1\n      div\n      0xffffffffffffffffffffffffffffffffffffffff\n      and\n        /* \"contracts/core/MedallionPensions.sol\":2951:2970  register.getAddress */\n      0xffffffffffffffffffffffffffffffffffffffff\n      and\n      0xbf40fac1\n        /* \"contracts/core/MedallionPensions.sol\":2971:2983  FEE_TOKEN_CA */\n      mload(0x40)\n      dup1\n      0x40\n      add\n      0x40\n      mstore\n      dup1\n      0x15\n      dup2\n      mstore\n      0x20\n      add\n      0x52455345525645445f4d505f4645455f544f4b454e0000000000000000000000\n      dup2\n      mstore\n      pop\n        /* \"contracts/core/MedallionPensions.sol\":2951:2984  register.getAddress(FEE_TOKEN_CA) */\n      mload(0x40)\n      dup3\n      0xffffffff\n      and\n      0xe0\n      shl\n      dup2\n      mstore\n      0x04\n      add\n      tag_139\n      swap2\n      swap1\n      tag_22\n      jump\t// in\n    tag_139:\n      0x20\n      mload(0x40)\n      dup1\n      dup4\n      sub\n      dup2\n      dup7\n      gas\n      staticcall\n      iszero\n      dup1\n      iszero\n      tag_141\n      jumpi\n      returndatacopy(0x00, 0x00, returndatasize)\n      revert(0x00, returndatasize)\n    tag_141:\n      pop\n      pop\n      pop\n      pop\n      mload(0x40)\n      returndatasize\n      not(0x1f)\n      0x1f\n      dup3\n      add\n      and\n      dup3\n      add\n      dup1\n      0x40\n      mstore\n      pop\n      dup2\n      add\n      swap1\n      tag_142\n      swap2\n      swap1\n      tag_74\n      jump\t// in\n    tag_142:\n        /* \"contracts/core/MedallionPensions.sol\":2939:2984  _feeToken = register.getAddress(FEE_TOKEN_CA) */\n      swap3\n      pop\n        /* \"contracts/core/MedallionPensions.sol\":2995:3019  IERC20Metadata feeToken_ */\n      0x00\n        /* \"contracts/core/MedallionPensions.sol\":3037:3046  _feeToken */\n      dup4\n        /* \"contracts/core/MedallionPensions.sol\":2995:3047  IERC20Metadata feeToken_ = IERC20Metadata(_feeToken) */\n      swap1\n      pop\n        /* \"contracts/core/MedallionPensions.sol\":3066:3075  _feeToken */\n      dup4\n        /* \"contracts/core/MedallionPensions.sol\":3077:3086  feeToken_ */\n      dup2\n        /* \"contracts/core/MedallionPensions.sol\":3077:3091  feeToken_.name */\n      0xffffffffffffffffffffffffffffffffffffffff\n      and\n      0x06fdde03\n        /* \"contracts/core/MedallionPensions.sol\":3077:3093  feeToken_.name() */\n      mload(0x40)\n      dup2\n      0xffffffff\n      and\n      0xe0\n      shl\n      dup2\n      mstore\n      0x04\n      add\n      0x00\n      mload(0x40)\n      dup1\n      dup4\n      sub\n      dup2\n      dup7\n      gas\n      staticcall\n      iszero\n      dup1\n      iszero\n      tag_144\n      jumpi\n      returndatacopy(0x00, 0x00, returndatasize)\n      revert(0x00, returndatasize)\n    tag_144:\n      pop\n      pop\n      pop\n      pop\n      mload(0x40)\n      returndatasize\n      0x00\n      dup3\n      returndatacopy\n      returndatasize\n      not(0x1f)\n      0x1f\n      dup3\n      add\n      and\n      dup3\n      add\n      dup1\n      0x40\n      mstore\n      pop\n      dup2\n      add\n      swap1\n      tag_145\n      swap2\n      swap1\n      tag_146\n      jump\t// in\n    tag_145:\n        /* \"contracts/core/MedallionPensions.sol\":3095:3104  feeToken_ */\n      dup3\n        /* \"contracts/core/MedallionPensions.sol\":3095:3111  feeToken_.symbol */\n      0xffffffffffffffffffffffffffffffffffffffff\n      and\n      0x95d89b41\n        /* \"contracts/core/MedallionPensions.sol\":3095:3113  feeToken_.symbol() */\n      mload(0x40)\n      dup2\n      0xffffffff\n      and\n      0xe0\n      shl\n      dup2\n      mstore\n      0x04\n      add\n      0x00\n      mload(0x40)\n      dup1\n      dup4\n      sub\n      dup2\n      dup7\n      gas\n      staticcall\n      iszero\n      dup1\n      iszero\n      tag_148\n      jumpi\n      returndatacopy(0x00, 0x00, returndatasize)\n      revert(0x00, returndatasize)\n    tag_148:\n      pop\n      pop\n      pop\n      pop\n      mload(0x40)\n      returndatasize\n      0x00\n      dup3\n      returndatacopy\n      returndatasize\n      not(0x1f)\n      0x1f\n      dup3\n      add\n      and\n      dup3\n      add\n      dup1\n      0x40\n      mstore\n      pop\n      dup2\n      add\n      swap1\n      tag_149\n      swap2\n      swap1\n      tag_146\n      jump\t// in\n    tag_149:\n        /* \"contracts/core/MedallionPensions.sol\":3058:3114  return (_feeToken, feeToken_.name(), feeToken_.symbol()) */\n      swap4\n      pop\n      swap4\n      pop\n      swap4\n      pop\n      pop\n        /* \"contracts/core/MedallionPensions.sol\":2819:3123  function getFeeToken() view external returns (address _feeToken, string memory _name, string memory _symbol){ ... */\n      swap1\n      swap2\n      swap3\n      jump\t// out\n        /* \"contracts/core/MedallionPensions.sol\":5055:5217  function setFee(string memory _feeName, uint256 _fee) external adminOnly returns (bool _set) {... */\n    tag_54:\n        /* \"contracts/core/MedallionPensions.sol\":5137:5146  bool _set */\n      0x00\n        /* \"contracts/core/MedallionPensions.sol\":660:668  register */\n      0x00\n      0x00\n      swap1\n      sload\n      swap1\n      0x0100\n      exp\n      swap1\n      div\n      0xffffffffffffffffffffffffffffffffffffffff\n      and\n        /* \"contracts/core/MedallionPensions.sol\":660:679  register.getAddress */\n      0xffffffffffffffffffffffffffffffffffffffff\n      and\n      0xbf40fac1\n        /* \"contracts/core/MedallionPensions.sol\":680:696  PENSION_ADMIN_CA */\n      mload(0x40)\n      dup1\n      0x40\n      add\n      0x40\n      mstore\n      dup1\n      0x11\n      dup2\n      mstore\n      0x20\n      add\n      0x52455345525645445f4d505f41444d494e000000000000000000000000000000\n      dup2\n      mstore\n      pop\n        /* \"contracts/core/MedallionPensions.sol\":660:697  register.getAddress(PENSION_ADMIN_CA) */\n      mload(0x40)\n      dup3\n      0xffffffff\n      and\n      0xe0\n      shl\n      dup2\n      mstore\n      0x04\n      add\n      tag_151\n      swap2\n      swap1\n      tag_22\n      jump\t// in\n    tag_151:\n      0x20\n      mload(0x40)\n      dup1\n      dup4\n      sub\n      dup2\n      dup7\n      gas\n      staticcall\n      iszero\n      dup1\n      iszero\n      tag_153\n      jumpi\n      returndatacopy(0x00, 0x00, returndatasize)\n      revert(0x00, returndatasize)\n    tag_153:\n      pop\n      pop\n      pop\n      pop\n      mload(0x40)\n      returndatasize\n      not(0x1f)\n      0x1f\n      dup3\n      add\n      and\n      dup3\n      add\n      dup1\n      0x40\n      mstore\n      pop\n      dup2\n      add\n      swap1\n      tag_154\n      swap2\n      swap1\n      tag_74\n      jump\t// in\n    tag_154:\n        /* \"contracts/core/MedallionPensions.sol\":646:697  msg.sender == register.getAddress(PENSION_ADMIN_CA) */\n      0xffffffffffffffffffffffffffffffffffffffff\n      and\n        /* \"contracts/core/MedallionPensions.sol\":646:656  msg.sender */\n      caller\n        /* \"contracts/core/MedallionPensions.sol\":646:697  msg.sender == register.getAddress(PENSION_ADMIN_CA) */\n      0xffffffffffffffffffffffffffffffffffffffff\n      and\n      eq\n        /* \"contracts/core/MedallionPensions.sol\":638:720  require(msg.sender == register.getAddress(PENSION_ADMIN_CA), \"Pension Admin Only\") */\n      tag_155\n      jumpi\n      mload(0x40)\n      0x08c379a000000000000000000000000000000000000000000000000000000000\n      dup2\n      mstore\n      0x04\n      add\n      tag_156\n      swap1\n      tag_77\n      jump\t// in\n    tag_156:\n      mload(0x40)\n      dup1\n      swap2\n      sub\n      swap1\n      revert\n    tag_155:\n        /* \"contracts/core/MedallionPensions.sol\":5181:5185  _fee */\n      dup2\n        /* \"contracts/core/MedallionPensions.sol\":5159:5168  feeByName */\n      0x06\n        /* \"contracts/core/MedallionPensions.sol\":5169:5177  _feeName */\n      dup5\n        /* \"contracts/core/MedallionPensions.sol\":5159:5178  feeByName[_feeName] */\n      mload(0x40)\n      tag_158\n      swap2\n      swap1\n      tag_132\n      jump\t// in\n    tag_158:\n      swap1\n      dup2\n      mstore\n      0x20\n      add\n      mload(0x40)\n      dup1\n      swap2\n      sub\n      swap1\n      keccak256\n        /* \"contracts/core/MedallionPensions.sol\":5159:5185  feeByName[_feeName] = _fee */\n      dup2\n      swap1\n      sstore\n      pop\n        /* \"contracts/core/MedallionPensions.sol\":5204:5208  true */\n      0x01\n        /* \"contracts/core/MedallionPensions.sol\":5197:5208  return true */\n      swap1\n      pop\n        /* \"contracts/core/MedallionPensions.sol\":5055:5217  function setFee(string memory _feeName, uint256 _fee) external adminOnly returns (bool _set) {... */\n      swap3\n      swap2\n      pop\n      pop\n      jump\t// out\n        /* \"contracts/core/MedallionPensions.sol\":5226:5404  function notifyChangeOfAddress() external adminOnly returns (bool _acknowledged) { ... */\n    tag_59:\n        /* \"contracts/core/MedallionPensions.sol\":5287:5305  bool _acknowledged */\n      0x00\n        /* \"contracts/core/MedallionPensions.sol\":660:668  register */\n      0x00\n      0x00\n      swap1\n      sload\n      swap1\n      0x0100\n      exp\n      swap1\n      div\n      0xffffffffffffffffffffffffffffffffffffffff\n      and\n        /* \"contracts/core/MedallionPensions.sol\":660:679  register.getAddress */\n      0xffffffffffffffffffffffffffffffffffffffff\n      and\n      0xbf40fac1\n        /* \"contracts/core/MedallionPensions.sol\":680:696  PENSION_ADMIN_CA */\n      mload(0x40)\n      dup1\n      0x40\n      add\n      0x40\n      mstore\n      dup1\n      0x11\n      dup2\n      mstore\n      0x20\n      add\n      0x52455345525645445f4d505f41444d494e000000000000000000000000000000\n      dup2\n      mstore\n      pop\n        /* \"contracts/core/MedallionPensions.sol\":660:697  register.getAddress(PENSION_ADMIN_CA) */\n      mload(0x40)\n      dup3\n      0xffffffff\n      and\n      0xe0\n      shl\n      dup2\n      mstore\n      0x04\n      add\n      tag_160\n      swap2\n      swap1\n      tag_22\n      jump\t// in\n    tag_160:\n      0x20\n      mload(0x40)\n      dup1\n      dup4\n      sub\n      dup2\n      dup7\n      gas\n      staticcall\n      iszero\n      dup1\n      iszero\n      tag_162\n      jumpi\n      returndatacopy(0x00, 0x00, returndatasize)\n      revert(0x00, returndatasize)\n    tag_162:\n      pop\n      pop\n      pop\n      pop\n      mload(0x40)\n      returndatasize\n      not(0x1f)\n      0x1f\n      dup3\n      add\n      and\n      dup3\n      add\n      dup1\n      0x40\n      mstore\n      pop\n      dup2\n      add\n      swap1\n      tag_163\n      swap2\n      swap1\n      tag_74\n      jump\t// in\n    tag_163:\n        /* \"contracts/core/MedallionPensions.sol\":646:697  msg.sender == register.getAddress(PENSION_ADMIN_CA) */\n      0xffffffffffffffffffffffffffffffffffffffff\n      and\n        /* \"contracts/core/MedallionPensions.sol\":646:656  msg.sender */\n      caller\n        /* \"contracts/core/MedallionPensions.sol\":646:697  msg.sender == register.getAddress(PENSION_ADMIN_CA) */\n      0xffffffffffffffffffffffffffffffffffffffff\n      and\n      eq\n        /* \"contracts/core/MedallionPensions.sol\":638:720  require(msg.sender == register.getAddress(PENSION_ADMIN_CA), \"Pension Admin Only\") */\n      tag_164\n      jumpi\n      mload(0x40)\n      0x08c379a000000000000000000000000000000000000000000000000000000000\n      dup2\n      mstore\n      0x04\n      add\n      tag_165\n      swap1\n      tag_77\n      jump\t// in\n    tag_165:\n      mload(0x40)\n      dup1\n      swap2\n      sub\n      swap1\n      revert\n    tag_164:\n        /* \"contracts/core/MedallionPensions.sol\":5340:5348  register */\n      0x00\n      0x00\n      swap1\n      sload\n      swap1\n      0x0100\n      exp\n      swap1\n      div\n      0xffffffffffffffffffffffffffffffffffffffff\n      and\n        /* \"contracts/core/MedallionPensions.sol\":5340:5359  register.getAddress */\n      0xffffffffffffffffffffffffffffffffffffffff\n      and\n      0xbf40fac1\n        /* \"contracts/core/MedallionPensions.sol\":5360:5371  REGISTER_CA */\n      mload(0x40)\n      dup1\n      0x40\n      add\n      0x40\n      mstore\n      dup1\n      0x14\n      dup2\n      mstore\n      0x20\n      add\n      0x52455345525645445f4d505f5245474953544552000000000000000000000000\n      dup2\n      mstore\n      pop\n        /* \"contracts/core/MedallionPensions.sol\":5340:5372  register.getAddress(REGISTER_CA) */\n      mload(0x40)\n      dup3\n      0xffffffff\n      and\n      0xe0\n      shl\n      dup2\n      mstore\n      0x04\n      add\n      tag_167\n      swap2\n      swap1\n      tag_22\n      jump\t// in\n    tag_167:\n      0x20\n      mload(0x40)\n      dup1\n      dup4\n      sub\n      dup2\n      dup7\n      gas\n      staticcall\n      iszero\n      dup1\n      iszero\n      tag_169\n      jumpi\n      returndatacopy(0x00, 0x00, returndatasize)\n      revert(0x00, returndatasize)\n    tag_169:\n      pop\n      pop\n      pop\n      pop\n      mload(0x40)\n      returndatasize\n      not(0x1f)\n      0x1f\n      dup3\n      add\n      and\n      dup3\n      add\n      dup1\n      0x40\n      mstore\n      pop\n      dup2\n      add\n      swap1\n      tag_170\n      swap2\n      swap1\n      tag_74\n      jump\t// in\n    tag_170:\n        /* \"contracts/core/MedallionPensions.sol\":5319:5327  register */\n      0x00\n      0x00\n        /* \"contracts/core/MedallionPensions.sol\":5319:5373  register = IRegister(register.getAddress(REGISTER_CA)) */\n      0x0100\n      exp\n      dup2\n      sload\n      dup2\n      0xffffffffffffffffffffffffffffffffffffffff\n      mul\n      not\n      and\n      swap1\n      dup4\n      0xffffffffffffffffffffffffffffffffffffffff\n      and\n      mul\n      or\n      swap1\n      sstore\n      pop\n        /* \"contracts/core/MedallionPensions.sol\":5391:5395  true */\n      0x01\n        /* \"contracts/core/MedallionPensions.sol\":5384:5395  return true */\n      swap1\n      pop\n        /* \"contracts/core/MedallionPensions.sol\":5226:5404  function notifyChangeOfAddress() external adminOnly returns (bool _acknowledged) { ... */\n      swap1\n      jump\t// out\n        /* \"contracts/core/MedallionPensions.sol\":3131:3253  function getFee(string memory _feeName) view external returns (uint256 _fee) {... */\n    tag_65:\n        /* \"contracts/core/MedallionPensions.sol\":3194:3206  uint256 _fee */\n      0x00\n        /* \"contracts/core/MedallionPensions.sol\":3226:3235  feeByName */\n      0x06\n        /* \"contracts/core/MedallionPensions.sol\":3236:3244  _feeName */\n      dup3\n        /* \"contracts/core/MedallionPensions.sol\":3226:3245  feeByName[_feeName] */\n      mload(0x40)\n      tag_172\n      swap2\n      swap1\n      tag_132\n      jump\t// in\n    tag_172:\n      swap1\n      dup2\n      mstore\n      0x20\n      add\n      mload(0x40)\n      dup1\n      swap2\n      sub\n      swap1\n      keccak256\n      sload\n        /* \"contracts/core/MedallionPensions.sol\":3219:3245  return feeByName[_feeName] */\n      swap1\n      pop\n        /* \"contracts/core/MedallionPensions.sol\":3131:3253  function getFee(string memory _feeName) view external returns (uint256 _fee) {... */\n      swap2\n      swap1\n      pop\n      jump\t// out\n        /* \"contracts/core/MedallionPensions.sol\":6212:6831  function collectFee(string memory _fee) internal { ... */\n    tag_113:\n        /* \"contracts/core/MedallionPensions.sol\":6273:6290  address feeToken_ */\n      0x00\n        /* \"contracts/core/MedallionPensions.sol\":6293:6301  register */\n      0x00\n      0x00\n      swap1\n      sload\n      swap1\n      0x0100\n      exp\n      swap1\n      div\n      0xffffffffffffffffffffffffffffffffffffffff\n      and\n        /* \"contracts/core/MedallionPensions.sol\":6293:6312  register.getAddress */\n      0xffffffffffffffffffffffffffffffffffffffff\n      and\n      0xbf40fac1\n        /* \"contracts/core/MedallionPensions.sol\":6313:6325  FEE_TOKEN_CA */\n      mload(0x40)\n      dup1\n      0x40\n      add\n      0x40\n      mstore\n      dup1\n      0x15\n      dup2\n      mstore\n      0x20\n      add\n      0x52455345525645445f4d505f4645455f544f4b454e0000000000000000000000\n      dup2\n      mstore\n      pop\n        /* \"contracts/core/MedallionPensions.sol\":6293:6326  register.getAddress(FEE_TOKEN_CA) */\n      mload(0x40)\n      dup3\n      0xffffffff\n      and\n      0xe0\n      shl\n      dup2\n      mstore\n      0x04\n      add\n      tag_174\n      swap2\n      swap1\n      tag_22\n      jump\t// in\n    tag_174:\n      0x20\n      mload(0x40)\n      dup1\n      dup4\n      sub\n      dup2\n      dup7\n      gas\n      staticcall\n      iszero\n      dup1\n      iszero\n      tag_176\n      jumpi\n      returndatacopy(0x00, 0x00, returndatasize)\n      revert(0x00, returndatasize)\n    tag_176:\n      pop\n      pop\n      pop\n      pop\n      mload(0x40)\n      returndatasize\n      not(0x1f)\n      0x1f\n      dup3\n      add\n      and\n      dup3\n      add\n      dup1\n      0x40\n      mstore\n      pop\n      dup2\n      add\n      swap1\n      tag_177\n      swap2\n      swap1\n      tag_74\n      jump\t// in\n    tag_177:\n        /* \"contracts/core/MedallionPensions.sol\":6273:6326  address feeToken_ = register.getAddress(FEE_TOKEN_CA) */\n      swap1\n      pop\n        /* \"contracts/core/MedallionPensions.sol\":6337:6357  address bankAddress_ */\n      0x00\n        /* \"contracts/core/MedallionPensions.sol\":6360:6368  register */\n      0x00\n      0x00\n      swap1\n      sload\n      swap1\n      0x0100\n      exp\n      swap1\n      div\n      0xffffffffffffffffffffffffffffffffffffffff\n      and\n        /* \"contracts/core/MedallionPensions.sol\":6360:6379  register.getAddress */\n      0xffffffffffffffffffffffffffffffffffffffff\n      and\n      0xbf40fac1\n        /* \"contracts/core/MedallionPensions.sol\":6380:6395  BANK_ADDRESS_CA */\n      mload(0x40)\n      dup1\n      0x40\n      add\n      0x40\n      mstore\n      dup1\n      0x10\n      dup2\n      mstore\n      0x20\n      add\n      0x52455345525645445f4d505f42414e4b00000000000000000000000000000000\n      dup2\n      mstore\n      pop\n        /* \"contracts/core/MedallionPensions.sol\":6360:6396  register.getAddress(BANK_ADDRESS_CA) */\n      mload(0x40)\n      dup3\n      0xffffffff\n      and\n      0xe0\n      shl\n      dup2\n      mstore\n      0x04\n      add\n      tag_178\n      swap2\n      swap1\n      tag_22\n      jump\t// in\n    tag_178:\n      0x20\n      mload(0x40)\n      dup1\n      dup4\n      sub\n      dup2\n      dup7\n      gas\n      staticcall\n      iszero\n      dup1\n      iszero\n      tag_180\n      jumpi\n      returndatacopy(0x00, 0x00, returndatasize)\n      revert(0x00, returndatasize)\n    tag_180:\n      pop\n      pop\n      pop\n      pop\n      mload(0x40)\n      returndatasize\n      not(0x1f)\n      0x1f\n      dup3\n      add\n      and\n      dup3\n      add\n      dup1\n      0x40\n      mstore\n      pop\n      dup2\n      add\n      swap1\n      tag_181\n      swap2\n      swap1\n      tag_74\n      jump\t// in\n    tag_181:\n        /* \"contracts/core/MedallionPensions.sol\":6337:6396  address bankAddress_ = register.getAddress(BANK_ADDRESS_CA) */\n      swap1\n      pop\n        /* \"contracts/core/MedallionPensions.sol\":6408:6420  uint256 fee_ */\n      0x00\n        /* \"contracts/core/MedallionPensions.sol\":6423:6432  feeByName */\n      0x06\n        /* \"contracts/core/MedallionPensions.sol\":6433:6437  _fee */\n      dup5\n        /* \"contracts/core/MedallionPensions.sol\":6423:6438  feeByName[_fee] */\n      mload(0x40)\n      tag_182\n      swap2\n      swap1\n      tag_132\n      jump\t// in\n    tag_182:\n      swap1\n      dup2\n      mstore\n      0x20\n      add\n      mload(0x40)\n      dup1\n      swap2\n      sub\n      swap1\n      keccak256\n      sload\n        /* \"contracts/core/MedallionPensions.sol\":6408:6438  uint256 fee_ = feeByName[_fee] */\n      swap1\n      pop\n        /* \"contracts/core/MedallionPensions.sol\":884:926  0xEeeeeEeeeEeEeeEeEeEeeEEEeeeeEeeeeeeeEEeE */\n      0xeeeeeeeeeeeeeeeeeeeeeeeeeeeeeeeeeeeeeeee\n        /* \"contracts/core/MedallionPensions.sol\":6454:6473  feeToken_ == NATIVE */\n      0xffffffffffffffffffffffffffffffffffffffff\n      and\n        /* \"contracts/core/MedallionPensions.sol\":6454:6463  feeToken_ */\n      dup4\n        /* \"contracts/core/MedallionPensions.sol\":6454:6473  feeToken_ == NATIVE */\n      0xffffffffffffffffffffffffffffffffffffffff\n      and\n      sub\n        /* \"contracts/core/MedallionPensions.sol\":6451:6824  if(feeToken_ == NATIVE) {... */\n      tag_183\n      jumpi\n        /* \"contracts/core/MedallionPensions.sol\":6511:6520  feeByName */\n      0x06\n        /* \"contracts/core/MedallionPensions.sol\":6521:6538  PENSION_SETUP_FEE */\n      mload(0x40)\n      dup1\n      0x40\n      add\n      0x40\n      mstore\n      dup1\n      0x11\n      dup2\n      mstore\n      0x20\n      add\n      0x50454e53494f4e5f53455455505f464545000000000000000000000000000000\n      dup2\n      mstore\n      pop\n        /* \"contracts/core/MedallionPensions.sol\":6511:6539  feeByName[PENSION_SETUP_FEE] */\n      mload(0x40)\n      tag_184\n      swap2\n      swap1\n      tag_132\n      jump\t// in\n    tag_184:\n      swap1\n      dup2\n      mstore\n      0x20\n      add\n      mload(0x40)\n      dup1\n      swap2\n      sub\n      swap1\n      keccak256\n      sload\n        /* \"contracts/core/MedallionPensions.sol\":6498:6507  msg.value */\n      callvalue\n        /* \"contracts/core/MedallionPensions.sol\":6498:6539  msg.value >= feeByName[PENSION_SETUP_FEE] */\n      lt\n      iszero\n        /* \"contracts/core/MedallionPensions.sol\":6490:6574  require(msg.value >= feeByName[PENSION_SETUP_FEE], \"insufficient pension setup fee\") */\n      tag_185\n      jumpi\n      mload(0x40)\n      0x08c379a000000000000000000000000000000000000000000000000000000000\n      dup2\n      mstore\n      0x04\n      add\n      tag_186\n      swap1\n      tag_187\n      jump\t// in\n    tag_186:\n      mload(0x40)\n      dup1\n      swap2\n      sub\n      swap1\n      revert\n    tag_185:\n        /* \"contracts/core/MedallionPensions.sol\":6598:6610  bankAddress_ */\n      dup2\n        /* \"contracts/core/MedallionPensions.sol\":6590:6620  payable(bankAddress_).transfer */\n      0xffffffffffffffffffffffffffffffffffffffff\n      and\n        /* \"contracts/core/MedallionPensions.sol\":6590:6626  payable(bankAddress_).transfer(fee_) */\n      0x08fc\n        /* \"contracts/core/MedallionPensions.sol\":6621:6625  fee_ */\n      dup3\n        /* \"contracts/core/MedallionPensions.sol\":6590:6626  payable(bankAddress_).transfer(fee_) */\n      swap1\n      dup2\n      iszero\n      mul\n      swap1\n      mload(0x40)\n      0x00\n      mload(0x40)\n      dup1\n      dup4\n      sub\n      dup2\n      dup6\n      dup9\n      dup9\n      call\n      swap4\n      pop\n      pop\n      pop\n      pop\n      iszero\n      dup1\n      iszero\n      tag_189\n      jumpi\n      returndatacopy(0x00, 0x00, returndatasize)\n      revert(0x00, returndatasize)\n    tag_189:\n      pop\n        /* \"contracts/core/MedallionPensions.sol\":6451:6824  if(feeToken_ == NATIVE) {... */\n      jump(tag_190)\n    tag_183:\n        /* \"contracts/core/MedallionPensions.sol\":6670:6683  IERC20 erc20_ */\n      0x00\n        /* \"contracts/core/MedallionPensions.sol\":6693:6702  feeToken_ */\n      dup4\n        /* \"contracts/core/MedallionPensions.sol\":6670:6703  IERC20 erc20_ = IERC20(feeToken_) */\n      swap1\n      pop\n        /* \"contracts/core/MedallionPensions.sol\":6718:6724  erc20_ */\n      dup1\n        /* \"contracts/core/MedallionPensions.sol\":6718:6737  erc20_.transferFrom */\n      0xffffffffffffffffffffffffffffffffffffffff\n      and\n      0x23b872dd\n        /* \"contracts/core/MedallionPensions.sol\":6738:6748  msg.sender */\n      caller\n        /* \"contracts/core/MedallionPensions.sol\":6750:6754  self */\n      immutable(\"0x5e376cc68fb9478821ad3c9417bb956a4eb817f7d6df4676d996d0c75c74f80e\")\n        /* \"contracts/core/MedallionPensions.sol\":6756:6760  fee_ */\n      dup6\n        /* \"contracts/core/MedallionPensions.sol\":6718:6761  erc20_.transferFrom(msg.sender, self, fee_) */\n      mload(0x40)\n      dup5\n      0xffffffff\n      and\n      0xe0\n      shl\n      dup2\n      mstore\n      0x04\n      add\n      tag_191\n      swap4\n      swap3\n      swap2\n      swap1\n      tag_192\n      jump\t// in\n    tag_191:\n      0x20\n      mload(0x40)\n      dup1\n      dup4\n      sub\n      dup2\n      0x00\n      dup8\n      gas\n      call\n      iszero\n      dup1\n      iszero\n      tag_194\n      jumpi\n      returndatacopy(0x00, 0x00, returndatasize)\n      revert(0x00, returndatasize)\n    tag_194:\n      pop\n      pop\n      pop\n      pop\n      mload(0x40)\n      returndatasize\n      not(0x1f)\n      0x1f\n      dup3\n      add\n      and\n      dup3\n      add\n      dup1\n      0x40\n      mstore\n      pop\n      dup2\n      add\n      swap1\n      tag_195\n      swap2\n      swap1\n      tag_196\n      jump\t// in\n    tag_195:\n      pop\n        /* \"contracts/core/MedallionPensions.sol\":6777:6783  erc20_ */\n      dup1\n        /* \"contracts/core/MedallionPensions.sol\":6777:6792  erc20_.transfer */\n      0xffffffffffffffffffffffffffffffffffffffff\n      and\n      0xa9059cbb\n        /* \"contracts/core/MedallionPensions.sol\":6793:6805  bankAddress_ */\n      dup5\n        /* \"contracts/core/MedallionPensions.sol\":6807:6811  fee_ */\n      dup5\n        /* \"contracts/core/MedallionPensions.sol\":6777:6812  erc20_.transfer(bankAddress_, fee_) */\n      mload(0x40)\n      dup4\n      0xffffffff\n      and\n      0xe0\n      shl\n      dup2\n      mstore\n      0x04\n      add\n      tag_197\n      swap3\n      swap2\n      swap1\n      tag_44\n      jump\t// in\n    tag_197:\n      0x20\n      mload(0x40)\n      dup1\n      dup4\n      sub\n      dup2\n      0x00\n      dup8\n      gas\n      call\n      iszero\n      dup1\n      iszero\n      tag_199\n      jumpi\n      returndatacopy(0x00, 0x00, returndatasize)\n      revert(0x00, returndatasize)\n    tag_199:\n      pop\n      pop\n      pop\n      pop\n      mload(0x40)\n      returndatasize\n      not(0x1f)\n      0x1f\n      dup3\n      add\n      and\n      dup3\n      add\n      dup1\n      0x40\n      mstore\n      pop\n      dup2\n      add\n      swap1\n      tag_200\n      swap2\n      swap1\n      tag_196\n      jump\t// in\n    tag_200:\n      pop\n        /* \"contracts/core/MedallionPensions.sol\":6654:6824  { ... */\n      pop\n        /* \"contracts/core/MedallionPensions.sol\":6451:6824  if(feeToken_ == NATIVE) {... */\n    tag_190:\n        /* \"contracts/core/MedallionPensions.sol\":6261:6831  { ... */\n      pop\n      pop\n      pop\n        /* \"contracts/core/MedallionPensions.sol\":6212:6831  function collectFee(string memory _fee) internal { ... */\n      pop\n      jump\t// out\n        /* \"contracts/core/MedallionPensions.sol\":5514:5984  function getProduct(uint256 _productId) internal returns (MPProduct memory _product) {... */\n    tag_115:\n        /* \"contracts/core/MedallionPensions.sol\":5572:5597  MPProduct memory _product */\n      tag_201\n      tag_202\n      jump\t// in\n    tag_201:\n        /* \"contracts/core/MedallionPensions.sol\":5639:5647  register */\n      0x00\n      0x00\n      swap1\n      sload\n      swap1\n      0x0100\n      exp\n      swap1\n      div\n      0xffffffffffffffffffffffffffffffffffffffff\n      and\n        /* \"contracts/core/MedallionPensions.sol\":5639:5658  register.getAddress */\n      0xffffffffffffffffffffffffffffffffffffffff\n      and\n      0xbf40fac1\n        /* \"contracts/core/MedallionPensions.sol\":5659:5677  PRODUCT_MANAGER_CA */\n      mload(0x40)\n      dup1\n      0x40\n      add\n      0x40\n      mstore\n      dup1\n      0x1b\n      dup2\n      mstore\n      0x20\n      add\n      0x52455345525645445f4d505f50524f445543545f4d414e414745520000000000\n      dup2\n      mstore\n      pop\n        /* \"contracts/core/MedallionPensions.sol\":5639:5678  register.getAddress(PRODUCT_MANAGER_CA) */\n      mload(0x40)\n      dup3\n      0xffffffff\n      and\n      0xe0\n      shl\n      dup2\n      mstore\n      0x04\n      add\n      tag_204\n      swap2\n      swap1\n      tag_22\n      jump\t// in\n    tag_204:\n      0x20\n      mload(0x40)\n      dup1\n      dup4\n      sub\n      dup2\n      dup7\n      gas\n      staticcall\n      iszero\n      dup1\n      iszero\n      tag_206\n      jumpi\n      returndatacopy(0x00, 0x00, returndatasize)\n      revert(0x00, returndatasize)\n    tag_206:\n      pop\n      pop\n      pop\n      pop\n      mload(0x40)\n      returndatasize\n      not(0x1f)\n      0x1f\n      dup3\n      add\n      and\n      dup3\n      add\n      dup1\n      0x40\n      mstore\n      pop\n      dup2\n      add\n      swap1\n      tag_207\n      swap2\n      swap1\n      tag_74\n      jump\t// in\n    tag_207:\n        /* \"contracts/core/MedallionPensions.sol\":5621:5690  IMPProductManager(register.getAddress(PRODUCT_MANAGER_CA)).getProduct */\n      0xffffffffffffffffffffffffffffffffffffffff\n      and\n      0xb9db15b4\n        /* \"contracts/core/MedallionPensions.sol\":5691:5701  _productId */\n      dup4\n        /* \"contracts/core/MedallionPensions.sol\":5621:5702  IMPProductManager(register.getAddress(PRODUCT_MANAGER_CA)).getProduct(_productId) */\n      mload(0x40)\n      dup3\n      0xffffffff\n      and\n      0xe0\n      shl\n      dup2\n      mstore\n      0x04\n      add\n      tag_208\n      swap2\n      swap1\n      tag_17\n      jump\t// in\n    tag_208:\n      0x0300\n      mload(0x40)\n      dup1\n      dup4\n      sub\n      dup2\n      dup7\n      gas\n      staticcall\n      iszero\n      dup1\n      iszero\n      tag_210\n      jumpi\n      returndatacopy(0x00, 0x00, returndatasize)\n      revert(0x00, returndatasize)\n    tag_210:\n      pop\n      pop\n      pop\n      pop\n      mload(0x40)\n      returndatasize\n      not(0x1f)\n      0x1f\n      dup3\n      add\n      and\n      dup3\n      add\n      dup1\n      0x40\n      mstore\n      pop\n      dup2\n      add\n      swap1\n      tag_211\n      swap2\n      swap1\n      tag_212\n      jump\t// in\n    tag_211:\n        /* \"contracts/core/MedallionPensions.sol\":5610:5702  _product = IMPProductManager(register.getAddress(PRODUCT_MANAGER_CA)).getProduct(_productId) */\n      swap1\n      pop\n        /* \"contracts/core/MedallionPensions.sol\":5744:5759  block.timestamp */\n      timestamp\n        /* \"contracts/core/MedallionPensions.sol\":5721:5729  _product */\n      dup2\n        /* \"contracts/core/MedallionPensions.sol\":5721:5740  _product.expiryDate */\n      0x0160\n      add\n      mload\n        /* \"contracts/core/MedallionPensions.sol\":5721:5759  _product.expiryDate >= block.timestamp */\n      lt\n      iszero\n        /* \"contracts/core/MedallionPensions.sol\":5713:5779  require(_product.expiryDate >= block.timestamp, \"product expired\") */\n      tag_213\n      jumpi\n      mload(0x40)\n      0x08c379a000000000000000000000000000000000000000000000000000000000\n      dup2\n      mstore\n      0x04\n      add\n      tag_214\n      swap1\n      tag_215\n      jump\t// in\n    tag_214:\n      mload(0x40)\n      dup1\n      swap2\n      sub\n      swap1\n      revert\n    tag_213:\n        /* \"contracts/core/MedallionPensions.sol\":5815:5816  0 */\n      0x00\n        /* \"contracts/core/MedallionPensions.sol\":5798:5806  _product */\n      dup2\n        /* \"contracts/core/MedallionPensions.sol\":5798:5812  _product.units */\n      0x0180\n      add\n      mload\n        /* \"contracts/core/MedallionPensions.sol\":5798:5816  _product.units > 0 */\n      gt\n        /* \"contracts/core/MedallionPensions.sol\":5790:5843  require(_product.units > 0, \"insufficient inventory\") */\n      tag_216\n      jumpi\n      mload(0x40)\n      0x08c379a000000000000000000000000000000000000000000000000000000000\n      dup2\n      mstore\n      0x04\n      add\n      tag_217\n      swap1\n      tag_218\n      jump\t// in\n    tag_217:\n      mload(0x40)\n      dup1\n      swap2\n      sub\n      swap1\n      revert\n    tag_216:\n        /* \"contracts/core/MedallionPensions.sol\":5873:5881  register */\n      0x00\n      0x00\n      swap1\n      sload\n      swap1\n      0x0100\n      exp\n      swap1\n      div\n      0xffffffffffffffffffffffffffffffffffffffff\n      and\n        /* \"contracts/core/MedallionPensions.sol\":5873:5892  register.getAddress */\n      0xffffffffffffffffffffffffffffffffffffffff\n      and\n      0xbf40fac1\n        /* \"contracts/core/MedallionPensions.sol\":5893:5911  PRODUCT_MANAGER_CA */\n      mload(0x40)\n      dup1\n      0x40\n      add\n      0x40\n      mstore\n      dup1\n      0x1b\n      dup2\n      mstore\n      0x20\n      add\n      0x52455345525645445f4d505f50524f445543545f4d414e414745520000000000\n      dup2\n      mstore\n      pop\n        /* \"contracts/core/MedallionPensions.sol\":5873:5912  register.getAddress(PRODUCT_MANAGER_CA) */\n      mload(0x40)\n      dup3\n      0xffffffff\n      and\n      0xe0\n      shl\n      dup2\n      mstore\n      0x04\n      add\n      tag_219\n      swap2\n      swap1\n      tag_22\n      jump\t// in\n    tag_219:\n      0x20\n      mload(0x40)\n      dup1\n      dup4\n      sub\n      dup2\n      dup7\n      gas\n      staticcall\n      iszero\n      dup1\n      iszero\n      tag_221\n      jumpi\n      returndatacopy(0x00, 0x00, returndatasize)\n      revert(0x00, returndatasize)\n    tag_221:\n      pop\n      pop\n      pop\n      pop\n      mload(0x40)\n      returndatasize\n      not(0x1f)\n      0x1f\n      dup3\n      add\n      and\n      dup3\n      add\n      dup1\n      0x40\n      mstore\n      pop\n      dup2\n      add\n      swap1\n      tag_222\n      swap2\n      swap1\n      tag_74\n      jump\t// in\n    tag_222:\n        /* \"contracts/core/MedallionPensions.sol\":5855:5936  IMPProductManager(register.getAddress(PRODUCT_MANAGER_CA)).updateProductInventory */\n      0xffffffffffffffffffffffffffffffffffffffff\n      and\n      0x8d808bcf\n        /* \"contracts/core/MedallionPensions.sol\":5937:5947  _productId */\n      dup4\n        /* \"contracts/core/MedallionPensions.sol\":5855:5948  IMPProductManager(register.getAddress(PRODUCT_MANAGER_CA)).updateProductInventory(_productId) */\n      mload(0x40)\n      dup3\n      0xffffffff\n      and\n      0xe0\n      shl\n      dup2\n      mstore\n      0x04\n      add\n      tag_223\n      swap2\n      swap1\n      tag_17\n      jump\t// in\n    tag_223:\n      0x20\n      mload(0x40)\n      dup1\n      dup4\n      sub\n      dup2\n      0x00\n      dup8\n      gas\n      call\n      iszero\n      dup1\n      iszero\n      tag_225\n      jumpi\n      returndatacopy(0x00, 0x00, returndatasize)\n      revert(0x00, returndatasize)\n    tag_225:\n      pop\n      pop\n      pop\n      pop\n      mload(0x40)\n      returndatasize\n      not(0x1f)\n      0x1f\n      dup3\n      add\n      and\n      dup3\n      add\n      dup1\n      0x40\n      mstore\n      pop\n      dup2\n      add\n      swap1\n      tag_226\n      swap2\n      swap1\n      tag_227\n      jump\t// in\n    tag_226:\n      pop\n        /* \"contracts/core/MedallionPensions.sol\":5514:5984  function getProduct(uint256 _productId) internal returns (MPProduct memory _product) {... */\n      swap2\n      swap1\n      pop\n      jump\t// out\n        /* \"contracts/core/MedallionPensions.sol\":6839:6954  function getIndex() internal returns (uint256 _index) {... */\n    tag_117:\n        /* \"contracts/core/MedallionPensions.sol\":6877:6891  uint256 _index */\n      0x00\n        /* \"contracts/core/MedallionPensions.sol\":6913:6918  index */\n      0x01\n      0x00\n        /* \"contracts/core/MedallionPensions.sol\":6913:6920  index++ */\n      dup2\n      sload\n      dup1\n      swap3\n      swap2\n      swap1\n      tag_229\n      swap1\n      tag_230\n      jump\t// in\n    tag_229:\n      swap2\n      swap1\n      pop\n      sstore\n        /* \"contracts/core/MedallionPensions.sol\":6904:6920  _index = index++ */\n      swap1\n      pop\n        /* \"contracts/core/MedallionPensions.sol\":6839:6954  function getIndex() internal returns (uint256 _index) {... */\n      swap1\n      jump\t// out\n        /* \"contracts/core/MedallionPensions.sol\":5990:6204  function getVault(uint256 _mPensionId) internal returns (address _vault) { ... */\n    tag_123:\n        /* \"contracts/core/MedallionPensions.sol\":6047:6061  address _vault */\n      0x00\n        /* \"contracts/core/MedallionPensions.sol\":6100:6108  register */\n      0x00\n      0x00\n      swap1\n      sload\n      swap1\n      0x0100\n      exp\n      swap1\n      div\n      0xffffffffffffffffffffffffffffffffffffffff\n      and\n        /* \"contracts/core/MedallionPensions.sol\":6100:6119  register.getAddress */\n      0xffffffffffffffffffffffffffffffffffffffff\n      and\n      0xbf40fac1\n        /* \"contracts/core/MedallionPensions.sol\":6120:6144  PENSION_VAULT_FACTORY_CA */\n      mload(0x40)\n      dup1\n      0x40\n      add\n      0x40\n      mstore\n      dup1\n      0x19\n      dup2\n      mstore\n      0x20\n      add\n      0x52455345525645445f4d505f5641554c545f464143544f525900000000000000\n      dup2\n      mstore\n      pop\n        /* \"contracts/core/MedallionPensions.sol\":6100:6145  register.getAddress(PENSION_VAULT_FACTORY_CA) */\n      mload(0x40)\n      dup3\n      0xffffffff\n      and\n      0xe0\n      shl\n      dup2\n      mstore\n      0x04\n      add\n      tag_232\n      swap2\n      swap1\n      tag_22\n      jump\t// in\n    tag_232:\n      0x20\n      mload(0x40)\n      dup1\n      dup4\n      sub\n      dup2\n      dup7\n      gas\n      staticcall\n      iszero\n      dup1\n      iszero\n      tag_234\n      jumpi\n      returndatacopy(0x00, 0x00, returndatasize)\n      revert(0x00, returndatasize)\n    tag_234:\n      pop\n      pop\n      pop\n      pop\n      mload(0x40)\n      returndatasize\n      not(0x1f)\n      0x1f\n      dup3\n      add\n      and\n      dup3\n      add\n      dup1\n      0x40\n      mstore\n      pop\n      dup2\n      add\n      swap1\n      tag_235\n      swap2\n      swap1\n      tag_74\n      jump\t// in\n    tag_235:\n        /* \"contracts/core/MedallionPensions.sol\":6084:6158  IMPVaultFactory(register.getAddress(PENSION_VAULT_FACTORY_CA)).createVault */\n      0xffffffffffffffffffffffffffffffffffffffff\n      and\n      0x9abbdf4b\n        /* \"contracts/core/MedallionPensions.sol\":6159:6170  _mPensionId */\n      dup4\n        /* \"contracts/core/MedallionPensions.sol\":6084:6171  IMPVaultFactory(register.getAddress(PENSION_VAULT_FACTORY_CA)).createVault(_mPensionId) */\n      mload(0x40)\n      dup3\n      0xffffffff\n      and\n      0xe0\n      shl\n      dup2\n      mstore\n      0x04\n      add\n      tag_236\n      swap2\n      swap1\n      tag_17\n      jump\t// in\n    tag_236:\n      0x20\n      mload(0x40)\n      dup1\n      dup4\n      sub\n      dup2\n      0x00\n      dup8\n      gas\n      call\n      iszero\n      dup1\n      iszero\n      tag_238\n      jumpi\n      returndatacopy(0x00, 0x00, returndatasize)\n      revert(0x00, returndatasize)\n    tag_238:\n      pop\n      pop\n      pop\n      pop\n      mload(0x40)\n      returndatasize\n      not(0x1f)\n      0x1f\n      dup3\n      add\n      and\n      dup3\n      add\n      dup1\n      0x40\n      mstore\n      pop\n      dup2\n      add\n      swap1\n      tag_239\n      swap2\n      swap1\n      tag_74\n      jump\t// in\n    tag_239:\n        /* \"contracts/core/MedallionPensions.sol\":6075:6171  _vault = IMPVaultFactory(register.getAddress(PENSION_VAULT_FACTORY_CA)).createVault(_mPensionId) */\n      swap1\n      pop\n        /* \"contracts/core/MedallionPensions.sol\":5990:6204  function getVault(uint256 _mPensionId) internal returns (address _vault) { ... */\n      swap2\n      swap1\n      pop\n      jump\t// out\n        /* \"contracts/core/MedallionPensions.sol\":6962:7233  function addTx(TxType _txType, ObjType _objType, uint256 _pensionId, uint256 _amount, address _erc20) internal returns (uint256 _txId){... */\n    tag_137:\n        /* \"contracts/core/MedallionPensions.sol\":7082:7095  uint256 _txId */\n      0x00\n        /* \"contracts/core/MedallionPensions.sol\":7128:7136  register */\n      0x00\n      0x00\n      swap1\n      sload\n      swap1\n      0x0100\n      exp\n      swap1\n      div\n      0xffffffffffffffffffffffffffffffffffffffff\n      and\n        /* \"contracts/core/MedallionPensions.sol\":7128:7147  register.getAddress */\n      0xffffffffffffffffffffffffffffffffffffffff\n      and\n      0xbf40fac1\n        /* \"contracts/core/MedallionPensions.sol\":7148:7161  TX_MANAGER_CA */\n      mload(0x40)\n      dup1\n      0x40\n      add\n      0x40\n      mstore\n      dup1\n      0x16\n      dup2\n      mstore\n      0x20\n      add\n      0x52455345525645445f4d505f54585f4d414e4147455200000000000000000000\n      dup2\n      mstore\n      pop\n        /* \"contracts/core/MedallionPensions.sol\":7128:7162  register.getAddress(TX_MANAGER_CA) */\n      mload(0x40)\n      dup3\n      0xffffffff\n      and\n      0xe0\n      shl\n      dup2\n      mstore\n      0x04\n      add\n      tag_241\n      swap2\n      swap1\n      tag_22\n      jump\t// in\n    tag_241:\n      0x20\n      mload(0x40)\n      dup1\n      dup4\n      sub\n      dup2\n      dup7\n      gas\n      staticcall\n      iszero\n      dup1\n      iszero\n      tag_243\n      jumpi\n      returndatacopy(0x00, 0x00, returndatasize)\n      revert(0x00, returndatasize)\n    tag_243:\n      pop\n      pop\n      pop\n      pop\n      mload(0x40)\n      returndatasize\n      not(0x1f)\n      0x1f\n      dup3\n      add\n      and\n      dup3\n      add\n      dup1\n      0x40\n      mstore\n      pop\n      dup2\n      add\n      swap1\n      tag_244\n      swap2\n      swap1\n      tag_74\n      jump\t// in\n    tag_244:\n        /* \"contracts/core/MedallionPensions.sol\":7115:7169  IMPTxManager(register.getAddress(TX_MANAGER_CA)).addTx */\n      0xffffffffffffffffffffffffffffffffffffffff\n      and\n      0xee16e639\n        /* \"contracts/core/MedallionPensions.sol\":7170:7177  _txType */\n      dup8\n        /* \"contracts/core/MedallionPensions.sol\":7180:7188  _objType */\n      dup8\n        /* \"contracts/core/MedallionPensions.sol\":7190:7200  _pensionId */\n      dup8\n        /* \"contracts/core/MedallionPensions.sol\":7202:7206  self */\n      immutable(\"0x5e376cc68fb9478821ad3c9417bb956a4eb817f7d6df4676d996d0c75c74f80e\")\n        /* \"contracts/core/MedallionPensions.sol\":7208:7215  _amount */\n      dup9\n        /* \"contracts/core/MedallionPensions.sol\":7217:7223  _erc20 */\n      dup9\n        /* \"contracts/core/MedallionPensions.sol\":7115:7224  IMPTxManager(register.getAddress(TX_MANAGER_CA)).addTx(_txType,  _objType, _pensionId, self, _amount, _erc20) */\n      mload(0x40)\n      dup8\n      0xffffffff\n      and\n      0xe0\n      shl\n      dup2\n      mstore\n      0x04\n      add\n      tag_245\n      swap7\n      swap6\n      swap5\n      swap4\n      swap3\n      swap2\n      swap1\n      tag_246\n      jump\t// in\n    tag_245:\n      0x20\n      mload(0x40)\n      dup1\n      dup4\n      sub\n      dup2\n      0x00\n      dup8\n      gas\n      call\n      iszero\n      dup1\n      iszero\n      tag_248\n      jumpi\n      returndatacopy(0x00, 0x00, returndatasize)\n      revert(0x00, returndatasize)\n    tag_248:\n      pop\n      pop\n      pop\n      pop\n      mload(0x40)\n      returndatasize\n      not(0x1f)\n      0x1f\n      dup3\n      add\n      and\n      dup3\n      add\n      dup1\n      0x40\n      mstore\n      pop\n      dup2\n      add\n      swap1\n      tag_249\n      swap2\n      swap1\n      tag_227\n      jump\t// in\n    tag_249:\n        /* \"contracts/core/MedallionPensions.sol\":7108:7224  return IMPTxManager(register.getAddress(TX_MANAGER_CA)).addTx(_txType,  _objType, _pensionId, self, _amount, _erc20) */\n      swap1\n      pop\n        /* \"contracts/core/MedallionPensions.sol\":6962:7233  function addTx(TxType _txType, ObjType _objType, uint256 _pensionId, uint256 _amount, address _erc20) internal returns (uint256 _txId){... */\n      swap6\n      swap5\n      pop\n      pop\n      pop\n      pop\n      pop\n      jump\t// out\n    tag_82:\n      mload(0x40)\n      dup1\n      0xe0\n      add\n      0x40\n      mstore\n      dup1\n      0x00\n      dup2\n      mstore\n      0x20\n      add\n      and(0xffffffffffffffffffffffffffffffffffffffff, 0x00)\n      dup2\n      mstore\n      0x20\n      add\n      and(0xffffffffffffffffffffffffffffffffffffffff, 0x00)\n      dup2\n      mstore\n      0x20\n      add\n      and(0xffffffffffffffffffffffffffffffffffffffff, 0x00)\n      dup2\n      mstore\n      0x20\n      add\n      0x00\n      dup2\n      mstore\n      0x20\n      add\n      0x00\n      dup2\n      mstore\n      0x20\n      add\n      tag_250\n      tag_202\n      jump\t// in\n    tag_250:\n      dup2\n      mstore\n      pop\n      swap1\n      jump\t// out\n    tag_202:\n      mload(0x40)\n      dup1\n      0x01a0\n      add\n      0x40\n      mstore\n      dup1\n      0x00\n      dup2\n      mstore\n      0x20\n      add\n      and(0xffffffffffffffffffffffffffffffffffffffff, 0x00)\n      dup2\n      mstore\n      0x20\n      add\n      and(0xffffffffffffffffffffffffffffffffffffffff, 0x00)\n      dup2\n      mstore\n      0x20\n      add\n      0x00\n      dup2\n      mstore\n      0x20\n      add\n      0x00\n      dup2\n      mstore\n      0x20\n      add\n      0x00\n      dup2\n      mstore\n      0x20\n      add\n      0x00\n      0x02\n      dup2\n      gt\n      iszero\n      tag_251\n      jumpi\n      tag_252\n      tag_86\n      jump\t// in\n    tag_252:\n    tag_251:\n      dup2\n      mstore\n      0x20\n      add\n      tag_253\n      tag_254\n      jump\t// in\n    tag_253:\n      dup2\n      mstore\n      0x20\n      add\n      tag_255\n      tag_254\n      jump\t// in\n    tag_255:\n      dup2\n      mstore\n      0x20\n      add\n      tag_256\n      tag_257\n      jump\t// in\n    tag_256:\n      dup2\n      mstore\n      0x20\n      add\n      0x00\n      dup2\n      mstore\n      0x20\n      add\n      0x00\n      dup2\n      mstore\n      0x20\n      add\n      0x00\n      dup2\n      mstore\n      pop\n      swap1\n      jump\t// out\n    tag_254:\n      mload(0x40)\n      dup1\n      0xc0\n      add\n      0x40\n      mstore\n      dup1\n      0x00\n      0x03\n      dup2\n      gt\n      iszero\n      tag_258\n      jumpi\n      tag_259\n      tag_86\n      jump\t// in\n    tag_259:\n    tag_258:\n      dup2\n      mstore\n      0x20\n      add\n      0x00\n      dup2\n      mstore\n      0x20\n      add\n      0x00\n      dup2\n      mstore\n      0x20\n      add\n      0x00\n      dup2\n      mstore\n      0x20\n      add\n      0x00\n      dup2\n      mstore\n      0x20\n      add\n      0x00\n      dup2\n      mstore\n      pop\n      swap1\n      jump\t// out\n    tag_257:\n      mload(0x40)\n      dup1\n      0x40\n      add\n      0x40\n      mstore\n      dup1\n      0x00\n      dup2\n      mstore\n      0x20\n      add\n      0x00\n      dup2\n      mstore\n      pop\n      swap1\n      jump\t// out\n        /* \"#utility.yul\":7:84   */\n    tag_260:\n        /* \"#utility.yul\":44:51   */\n      0x00\n        /* \"#utility.yul\":73:78   */\n      dup2\n        /* \"#utility.yul\":62:78   */\n      swap1\n      pop\n        /* \"#utility.yul\":7:84   */\n      swap2\n      swap1\n      pop\n      jump\t// out\n        /* \"#utility.yul\":90:208   */\n    tag_261:\n        /* \"#utility.yul\":177:201   */\n      tag_346\n        /* \"#utility.yul\":195:200   */\n      dup2\n        /* \"#utility.yul\":177:201   */\n      tag_260\n      jump\t// in\n    tag_346:\n        /* \"#utility.yul\":172:175   */\n      dup3\n        /* \"#utility.yul\":165:202   */\n      mstore\n        /* \"#utility.yul\":90:208   */\n      pop\n      pop\n      jump\t// out\n        /* \"#utility.yul\":214:436   */\n    tag_17:\n        /* \"#utility.yul\":307:311   */\n      0x00\n        /* \"#utility.yul\":345:347   */\n      0x20\n        /* \"#utility.yul\":334:343   */\n      dup3\n        /* \"#utility.yul\":330:348   */\n      add\n        /* \"#utility.yul\":322:348   */\n      swap1\n      pop\n        /* \"#utility.yul\":358:429   */\n      tag_348\n        /* \"#utility.yul\":426:427   */\n      0x00\n        /* \"#utility.yul\":415:424   */\n      dup4\n        /* \"#utility.yul\":411:428   */\n      add\n        /* \"#utility.yul\":402:408   */\n      dup5\n        /* \"#utility.yul\":358:429   */\n      tag_261\n      jump\t// in\n    tag_348:\n        /* \"#utility.yul\":214:436   */\n      swap3\n      swap2\n      pop\n      pop\n      jump\t// out\n        /* \"#utility.yul\":442:541   */\n    tag_262:\n        /* \"#utility.yul\":494:500   */\n      0x00\n        /* \"#utility.yul\":528:533   */\n      dup2\n        /* \"#utility.yul\":522:534   */\n      mload\n        /* \"#utility.yul\":512:534   */\n      swap1\n      pop\n        /* \"#utility.yul\":442:541   */\n      swap2\n      swap1\n      pop\n      jump\t// out\n        /* \"#utility.yul\":547:716   */\n    tag_263:\n        /* \"#utility.yul\":631:642   */\n      0x00\n        /* \"#utility.yul\":665:671   */\n      dup3\n        /* \"#utility.yul\":660:663   */\n      dup3\n        /* \"#utility.yul\":653:672   */\n      mstore\n        /* \"#utility.yul\":705:709   */\n      0x20\n        /* \"#utility.yul\":700:703   */\n      dup3\n        /* \"#utility.yul\":696:710   */\n      add\n        /* \"#utility.yul\":681:710   */\n      swap1\n      pop\n        /* \"#utility.yul\":547:716   */\n      swap3\n      swap2\n      pop\n      pop\n      jump\t// out\n        /* \"#utility.yul\":722:861   */\n    tag_264:\n        /* \"#utility.yul\":811:817   */\n      dup3\n        /* \"#utility.yul\":806:809   */\n      dup2\n        /* \"#utility.yul\":801:804   */\n      dup4\n        /* \"#utility.yul\":795:818   */\n      mcopy\n        /* \"#utility.yul\":852:853   */\n      0x00\n        /* \"#utility.yul\":843:849   */\n      dup4\n        /* \"#utility.yul\":838:841   */\n      dup4\n        /* \"#utility.yul\":834:850   */\n      add\n        /* \"#utility.yul\":827:854   */\n      mstore\n        /* \"#utility.yul\":722:861   */\n      pop\n      pop\n      pop\n      jump\t// out\n        /* \"#utility.yul\":867:969   */\n    tag_265:\n        /* \"#utility.yul\":908:914   */\n      0x00\n        /* \"#utility.yul\":959:961   */\n      0x1f\n        /* \"#utility.yul\":955:962   */\n      not\n        /* \"#utility.yul\":950:952   */\n      0x1f\n        /* \"#utility.yul\":943:948   */\n      dup4\n        /* \"#utility.yul\":939:953   */\n      add\n        /* \"#utility.yul\":935:963   */\n      and\n        /* \"#utility.yul\":925:963   */\n      swap1\n      pop\n        /* \"#utility.yul\":867:969   */\n      swap2\n      swap1\n      pop\n      jump\t// out\n        /* \"#utility.yul\":975:1352   */\n    tag_266:\n        /* \"#utility.yul\":1063:1066   */\n      0x00\n        /* \"#utility.yul\":1091:1130   */\n      tag_354\n        /* \"#utility.yul\":1124:1129   */\n      dup3\n        /* \"#utility.yul\":1091:1130   */\n      tag_262\n      jump\t// in\n    tag_354:\n        /* \"#utility.yul\":1146:1217   */\n      tag_355\n        /* \"#utility.yul\":1210:1216   */\n      dup2\n        /* \"#utility.yul\":1205:1208   */\n      dup6\n        /* \"#utility.yul\":1146:1217   */\n      tag_263\n      jump\t// in\n    tag_355:\n        /* \"#utility.yul\":1139:1217   */\n      swap4\n      pop\n        /* \"#utility.yul\":1226:1291   */\n      tag_356\n        /* \"#utility.yul\":1284:1290   */\n      dup2\n        /* \"#utility.yul\":1279:1282   */\n      dup6\n        /* \"#utility.yul\":1272:1276   */\n      0x20\n        /* \"#utility.yul\":1265:1270   */\n      dup7\n        /* \"#utility.yul\":1261:1277   */\n      add\n        /* \"#utility.yul\":1226:1291   */\n      tag_264\n      jump\t// in\n    tag_356:\n        /* \"#utility.yul\":1316:1345   */\n      tag_357\n        /* \"#utility.yul\":1338:1344   */\n      dup2\n        /* \"#utility.yul\":1316:1345   */\n      tag_265\n      jump\t// in\n    tag_357:\n        /* \"#utility.yul\":1311:1314   */\n      dup5\n        /* \"#utility.yul\":1307:1346   */\n      add\n        /* \"#utility.yul\":1300:1346   */\n      swap2\n      pop\n        /* \"#utility.yul\":1067:1352   */\n      pop\n        /* \"#utility.yul\":975:1352   */\n      swap3\n      swap2\n      pop\n      pop\n      jump\t// out\n        /* \"#utility.yul\":1358:1671   */\n    tag_22:\n        /* \"#utility.yul\":1471:1475   */\n      0x00\n        /* \"#utility.yul\":1509:1511   */\n      0x20\n        /* \"#utility.yul\":1498:1507   */\n      dup3\n        /* \"#utility.yul\":1494:1512   */\n      add\n        /* \"#utility.yul\":1486:1512   */\n      swap1\n      pop\n        /* \"#utility.yul\":1558:1567   */\n      dup2\n        /* \"#utility.yul\":1552:1556   */\n      dup2\n        /* \"#utility.yul\":1548:1568   */\n      sub\n        /* \"#utility.yul\":1544:1545   */\n      0x00\n        /* \"#utility.yul\":1533:1542   */\n      dup4\n        /* \"#utility.yul\":1529:1546   */\n      add\n        /* \"#utility.yul\":1522:1569   */\n      mstore\n        /* \"#utility.yul\":1586:1664   */\n      tag_359\n        /* \"#utility.yul\":1659:1663   */\n      dup2\n        /* \"#utility.yul\":1650:1656   */\n      dup5\n        /* \"#utility.yul\":1586:1664   */\n      tag_266\n      jump\t// in\n    tag_359:\n        /* \"#utility.yul\":1578:1664   */\n      swap1\n      pop\n        /* \"#utility.yul\":1358:1671   */\n      swap3\n      swap2\n      pop\n      pop\n      jump\t// out\n        /* \"#utility.yul\":1677:1791   */\n    tag_267:\n        /* \"#utility.yul\":1744:1750   */\n      0x00\n        /* \"#utility.yul\":1778:1783   */\n      dup2\n        /* \"#utility.yul\":1772:1784   */\n      mload\n        /* \"#utility.yul\":1762:1784   */\n      swap1\n      pop\n        /* \"#utility.yul\":1677:1791   */\n      swap2\n      swap1\n      pop\n      jump\t// out\n        /* \"#utility.yul\":1797:1981   */\n    tag_268:\n        /* \"#utility.yul\":1896:1907   */\n      0x00\n        /* \"#utility.yul\":1930:1936   */\n      dup3\n        /* \"#utility.yul\":1925:1928   */\n      dup3\n        /* \"#utility.yul\":1918:1937   */\n      mstore\n        /* \"#utility.yul\":1970:1974   */\n      0x20\n        /* \"#utility.yul\":1965:1968   */\n      dup3\n        /* \"#utility.yul\":1961:1975   */\n      add\n        /* \"#utility.yul\":1946:1975   */\n      swap1\n      pop\n        /* \"#utility.yul\":1797:1981   */\n      swap3\n      swap2\n      pop\n      pop\n      jump\t// out\n        /* \"#utility.yul\":1987:2119   */\n    tag_269:\n        /* \"#utility.yul\":2054:2058   */\n      0x00\n        /* \"#utility.yul\":2077:2080   */\n      dup2\n        /* \"#utility.yul\":2069:2080   */\n      swap1\n      pop\n        /* \"#utility.yul\":2107:2111   */\n      0x20\n        /* \"#utility.yul\":2102:2105   */\n      dup3\n        /* \"#utility.yul\":2098:2112   */\n      add\n        /* \"#utility.yul\":2090:2112   */\n      swap1\n      pop\n        /* \"#utility.yul\":1987:2119   */\n      swap2\n      swap1\n      pop\n      jump\t// out\n        /* \"#utility.yul\":2125:2233   */\n    tag_270:\n        /* \"#utility.yul\":2202:2226   */\n      tag_364\n        /* \"#utility.yul\":2220:2225   */\n      dup2\n        /* \"#utility.yul\":2202:2226   */\n      tag_260\n      jump\t// in\n    tag_364:\n        /* \"#utility.yul\":2197:2200   */\n      dup3\n        /* \"#utility.yul\":2190:2227   */\n      mstore\n        /* \"#utility.yul\":2125:2233   */\n      pop\n      pop\n      jump\t// out\n        /* \"#utility.yul\":2239:2418   */\n    tag_271:\n        /* \"#utility.yul\":2308:2318   */\n      0x00\n        /* \"#utility.yul\":2329:2375   */\n      tag_366\n        /* \"#utility.yul\":2371:2374   */\n      dup4\n        /* \"#utility.yul\":2363:2369   */\n      dup4\n        /* \"#utility.yul\":2329:2375   */\n      tag_270\n      jump\t// in\n    tag_366:\n        /* \"#utility.yul\":2407:2411   */\n      0x20\n        /* \"#utility.yul\":2402:2405   */\n      dup4\n        /* \"#utility.yul\":2398:2412   */\n      add\n        /* \"#utility.yul\":2384:2412   */\n      swap1\n      pop\n        /* \"#utility.yul\":2239:2418   */\n      swap3\n      swap2\n      pop\n      pop\n      jump\t// out\n        /* \"#utility.yul\":2424:2537   */\n    tag_272:\n        /* \"#utility.yul\":2494:2498   */\n      0x00\n        /* \"#utility.yul\":2526:2530   */\n      0x20\n        /* \"#utility.yul\":2521:2524   */\n      dup3\n        /* \"#utility.yul\":2517:2531   */\n      add\n        /* \"#utility.yul\":2509:2531   */\n      swap1\n      pop\n        /* \"#utility.yul\":2424:2537   */\n      swap2\n      swap1\n      pop\n      jump\t// out\n        /* \"#utility.yul\":2573:3305   */\n    tag_273:\n        /* \"#utility.yul\":2692:2695   */\n      0x00\n        /* \"#utility.yul\":2721:2775   */\n      tag_369\n        /* \"#utility.yul\":2769:2774   */\n      dup3\n        /* \"#utility.yul\":2721:2775   */\n      tag_267\n      jump\t// in\n    tag_369:\n        /* \"#utility.yul\":2791:2877   */\n      tag_370\n        /* \"#utility.yul\":2870:2876   */\n      dup2\n        /* \"#utility.yul\":2865:2868   */\n      dup6\n        /* \"#utility.yul\":2791:2877   */\n      tag_268\n      jump\t// in\n    tag_370:\n        /* \"#utility.yul\":2784:2877   */\n      swap4\n      pop\n        /* \"#utility.yul\":2901:2957   */\n      tag_371\n        /* \"#utility.yul\":2951:2956   */\n      dup4\n        /* \"#utility.yul\":2901:2957   */\n      tag_269\n      jump\t// in\n    tag_371:\n        /* \"#utility.yul\":2980:2987   */\n      dup1\n        /* \"#utility.yul\":3011:3012   */\n      0x00\n        /* \"#utility.yul\":2996:3280   */\n    tag_372:\n        /* \"#utility.yul\":3021:3027   */\n      dup4\n        /* \"#utility.yul\":3018:3019   */\n      dup2\n        /* \"#utility.yul\":3015:3028   */\n      lt\n        /* \"#utility.yul\":2996:3280   */\n      iszero\n      tag_374\n      jumpi\n        /* \"#utility.yul\":3097:3103   */\n      dup2\n        /* \"#utility.yul\":3091:3104   */\n      mload\n        /* \"#utility.yul\":3124:3187   */\n      tag_375\n        /* \"#utility.yul\":3183:3186   */\n      dup9\n        /* \"#utility.yul\":3168:3181   */\n      dup3\n        /* \"#utility.yul\":3124:3187   */\n      tag_271\n      jump\t// in\n    tag_375:\n        /* \"#utility.yul\":3117:3187   */\n      swap8\n      pop\n        /* \"#utility.yul\":3210:3270   */\n      tag_376\n        /* \"#utility.yul\":3263:3269   */\n      dup4\n        /* \"#utility.yul\":3210:3270   */\n      tag_272\n      jump\t// in\n    tag_376:\n        /* \"#utility.yul\":3200:3270   */\n      swap3\n      pop\n        /* \"#utility.yul\":3056:3280   */\n      pop\n        /* \"#utility.yul\":3043:3044   */\n      0x01\n        /* \"#utility.yul\":3040:3041   */\n      dup2\n        /* \"#utility.yul\":3036:3045   */\n      add\n        /* \"#utility.yul\":3031:3045   */\n      swap1\n      pop\n        /* \"#utility.yul\":2996:3280   */\n      jump(tag_372)\n    tag_374:\n        /* \"#utility.yul\":3000:3014   */\n      pop\n        /* \"#utility.yul\":3296:3299   */\n      dup6\n        /* \"#utility.yul\":3289:3299   */\n      swap4\n      pop\n        /* \"#utility.yul\":2697:3305   */\n      pop\n      pop\n      pop\n        /* \"#utility.yul\":2573:3305   */\n      swap3\n      swap2\n      pop\n      pop\n      jump\t// out\n        /* \"#utility.yul\":3311:3684   */\n    tag_27:\n        /* \"#utility.yul\":3454:3458   */\n      0x00\n        /* \"#utility.yul\":3492:3494   */\n      0x20\n        /* \"#utility.yul\":3481:3490   */\n      dup3\n        /* \"#utility.yul\":3477:3495   */\n      add\n        /* \"#utility.yul\":3469:3495   */\n      swap1\n      pop\n        /* \"#utility.yul\":3541:3550   */\n      dup2\n        /* \"#utility.yul\":3535:3539   */\n      dup2\n        /* \"#utility.yul\":3531:3551   */\n      sub\n        /* \"#utility.yul\":3527:3528   */\n      0x00\n        /* \"#utility.yul\":3516:3525   */\n      dup4\n        /* \"#utility.yul\":3512:3529   */\n      add\n        /* \"#utility.yul\":3505:3552   */\n      mstore\n        /* \"#utility.yul\":3569:3677   */\n      tag_378\n        /* \"#utility.yul\":3672:3676   */\n      dup2\n        /* \"#utility.yul\":3663:3669   */\n      dup5\n        /* \"#utility.yul\":3569:3677   */\n      tag_273\n      jump\t// in\n    tag_378:\n        /* \"#utility.yul\":3561:3677   */\n      swap1\n      pop\n        /* \"#utility.yul\":3311:3684   */\n      swap3\n      swap2\n      pop\n      pop\n      jump\t// out\n        /* \"#utility.yul\":3690:3816   */\n    tag_274:\n        /* \"#utility.yul\":3727:3734   */\n      0x00\n        /* \"#utility.yul\":3767:3809   */\n      0xffffffffffffffffffffffffffffffffffffffff\n        /* \"#utility.yul\":3760:3765   */\n      dup3\n        /* \"#utility.yul\":3756:3810   */\n      and\n        /* \"#utility.yul\":3745:3810   */\n      swap1\n      pop\n        /* \"#utility.yul\":3690:3816   */\n      swap2\n      swap1\n      pop\n      jump\t// out\n        /* \"#utility.yul\":3822:3918   */\n    tag_275:\n        /* \"#utility.yul\":3859:3866   */\n      0x00\n        /* \"#utility.yul\":3888:3912   */\n      tag_381\n        /* \"#utility.yul\":3906:3911   */\n      dup3\n        /* \"#utility.yul\":3888:3912   */\n      tag_274\n      jump\t// in\n    tag_381:\n        /* \"#utility.yul\":3877:3912   */\n      swap1\n      pop\n        /* \"#utility.yul\":3822:3918   */\n      swap2\n      swap1\n      pop\n      jump\t// out\n        /* \"#utility.yul\":3924:4032   */\n    tag_276:\n        /* \"#utility.yul\":4001:4025   */\n      tag_383\n        /* \"#utility.yul\":4019:4024   */\n      dup2\n        /* \"#utility.yul\":4001:4025   */\n      tag_275\n      jump\t// in\n    tag_383:\n        /* \"#utility.yul\":3996:3999   */\n      dup3\n        /* \"#utility.yul\":3989:4026   */\n      mstore\n        /* \"#utility.yul\":3924:4032   */\n      pop\n      pop\n      jump\t// out\n        /* \"#utility.yul\":4038:4218   */\n    tag_86:\n        /* \"#utility.yul\":4086:4163   */\n      0x4e487b7100000000000000000000000000000000000000000000000000000000\n        /* \"#utility.yul\":4083:4084   */\n      0x00\n        /* \"#utility.yul\":4076:4164   */\n      mstore\n        /* \"#utility.yul\":4183:4187   */\n      0x21\n        /* \"#utility.yul\":4180:4181   */\n      0x04\n        /* \"#utility.yul\":4173:4188   */\n      mstore\n        /* \"#utility.yul\":4207:4211   */\n      0x24\n        /* \"#utility.yul\":4204:4205   */\n      0x00\n        /* \"#utility.yul\":4197:4212   */\n      revert\n        /* \"#utility.yul\":4224:4342   */\n    tag_277:\n        /* \"#utility.yul\":4310:4311   */\n      0x03\n        /* \"#utility.yul\":4303:4308   */\n      dup2\n        /* \"#utility.yul\":4300:4312   */\n      lt\n        /* \"#utility.yul\":4290:4336   */\n      tag_386\n      jumpi\n        /* \"#utility.yul\":4316:4334   */\n      tag_387\n      tag_86\n      jump\t// in\n    tag_387:\n        /* \"#utility.yul\":4290:4336   */\n    tag_386:\n        /* \"#utility.yul\":4224:4342   */\n      pop\n      jump\t// out\n        /* \"#utility.yul\":4348:4485   */\n    tag_278:\n        /* \"#utility.yul\":4398:4405   */\n      0x00\n        /* \"#utility.yul\":4427:4432   */\n      dup2\n        /* \"#utility.yul\":4416:4432   */\n      swap1\n      pop\n        /* \"#utility.yul\":4433:4479   */\n      tag_389\n        /* \"#utility.yul\":4473:4478   */\n      dup3\n        /* \"#utility.yul\":4433:4479   */\n      tag_277\n      jump\t// in\n    tag_389:\n        /* \"#utility.yul\":4348:4485   */\n      swap2\n      swap1\n      pop\n      jump\t// out\n        /* \"#utility.yul\":4491:4628   */\n    tag_279:\n        /* \"#utility.yul\":4552:4561   */\n      0x00\n        /* \"#utility.yul\":4585:4622   */\n      tag_391\n        /* \"#utility.yul\":4616:4621   */\n      dup3\n        /* \"#utility.yul\":4585:4622   */\n      tag_278\n      jump\t// in\n    tag_391:\n        /* \"#utility.yul\":4572:4622   */\n      swap1\n      pop\n        /* \"#utility.yul\":4491:4628   */\n      swap2\n      swap1\n      pop\n      jump\t// out\n        /* \"#utility.yul\":4634:4777   */\n    tag_280:\n        /* \"#utility.yul\":4722:4770   */\n      tag_393\n        /* \"#utility.yul\":4764:4769   */\n      dup2\n        /* \"#utility.yul\":4722:4770   */\n      tag_279\n      jump\t// in\n    tag_393:\n        /* \"#utility.yul\":4717:4720   */\n      dup3\n        /* \"#utility.yul\":4710:4771   */\n      mstore\n        /* \"#utility.yul\":4634:4777   */\n      pop\n      pop\n      jump\t// out\n        /* \"#utility.yul\":4783:4901   */\n    tag_281:\n        /* \"#utility.yul\":4869:4870   */\n      0x04\n        /* \"#utility.yul\":4862:4867   */\n      dup2\n        /* \"#utility.yul\":4859:4871   */\n      lt\n        /* \"#utility.yul\":4849:4895   */\n      tag_395\n      jumpi\n        /* \"#utility.yul\":4875:4893   */\n      tag_396\n      tag_86\n      jump\t// in\n    tag_396:\n        /* \"#utility.yul\":4849:4895   */\n    tag_395:\n        /* \"#utility.yul\":4783:4901   */\n      pop\n      jump\t// out\n        /* \"#utility.yul\":4907:5044   */\n    tag_282:\n        /* \"#utility.yul\":4957:4964   */\n      0x00\n        /* \"#utility.yul\":4986:4991   */\n      dup2\n        /* \"#utility.yul\":4975:4991   */\n      swap1\n      pop\n        /* \"#utility.yul\":4992:5038   */\n      tag_398\n        /* \"#utility.yul\":5032:5037   */\n      dup3\n        /* \"#utility.yul\":4992:5038   */\n      tag_281\n      jump\t// in\n    tag_398:\n        /* \"#utility.yul\":4907:5044   */\n      swap2\n      swap1\n      pop\n      jump\t// out\n        /* \"#utility.yul\":5050:5187   */\n    tag_283:\n        /* \"#utility.yul\":5111:5120   */\n      0x00\n        /* \"#utility.yul\":5144:5181   */\n      tag_400\n        /* \"#utility.yul\":5175:5180   */\n      dup3\n        /* \"#utility.yul\":5144:5181   */\n      tag_282\n      jump\t// in\n    tag_400:\n        /* \"#utility.yul\":5131:5181   */\n      swap1\n      pop\n        /* \"#utility.yul\":5050:5187   */\n      swap2\n      swap1\n      pop\n      jump\t// out\n        /* \"#utility.yul\":5193:5336   */\n    tag_284:\n        /* \"#utility.yul\":5281:5329   */\n      tag_402\n        /* \"#utility.yul\":5323:5328   */\n      dup2\n        /* \"#utility.yul\":5281:5329   */\n      tag_283\n      jump\t// in\n    tag_402:\n        /* \"#utility.yul\":5276:5279   */\n      dup3\n        /* \"#utility.yul\":5269:5330   */\n      mstore\n        /* \"#utility.yul\":5193:5336   */\n      pop\n      pop\n      jump\t// out\n        /* \"#utility.yul\":5402:6665   */\n    tag_285:\n        /* \"#utility.yul\":5559:5563   */\n      0xc0\n        /* \"#utility.yul\":5554:5557   */\n      dup3\n        /* \"#utility.yul\":5550:5564   */\n      add\n        /* \"#utility.yul\":5650:5654   */\n      0x00\n        /* \"#utility.yul\":5643:5648   */\n      dup3\n        /* \"#utility.yul\":5639:5655   */\n      add\n        /* \"#utility.yul\":5633:5656   */\n      mload\n        /* \"#utility.yul\":5669:5743   */\n      tag_404\n        /* \"#utility.yul\":5737:5741   */\n      0x00\n        /* \"#utility.yul\":5732:5735   */\n      dup6\n        /* \"#utility.yul\":5728:5742   */\n      add\n        /* \"#utility.yul\":5714:5726   */\n      dup3\n        /* \"#utility.yul\":5669:5743   */\n      tag_284\n      jump\t// in\n    tag_404:\n        /* \"#utility.yul\":5574:5753   */\n      pop\n        /* \"#utility.yul\":5835:5839   */\n      0x20\n        /* \"#utility.yul\":5828:5833   */\n      dup3\n        /* \"#utility.yul\":5824:5840   */\n      add\n        /* \"#utility.yul\":5818:5841   */\n      mload\n        /* \"#utility.yul\":5854:5917   */\n      tag_405\n        /* \"#utility.yul\":5911:5915   */\n      0x20\n        /* \"#utility.yul\":5906:5909   */\n      dup6\n        /* \"#utility.yul\":5902:5916   */\n      add\n        /* \"#utility.yul\":5888:5900   */\n      dup3\n        /* \"#utility.yul\":5854:5917   */\n      tag_270\n      jump\t// in\n    tag_405:\n        /* \"#utility.yul\":5763:5927   */\n      pop\n        /* \"#utility.yul\":6018:6022   */\n      0x40\n        /* \"#utility.yul\":6011:6016   */\n      dup3\n        /* \"#utility.yul\":6007:6023   */\n      add\n        /* \"#utility.yul\":6001:6024   */\n      mload\n        /* \"#utility.yul\":6037:6100   */\n      tag_406\n        /* \"#utility.yul\":6094:6098   */\n      0x40\n        /* \"#utility.yul\":6089:6092   */\n      dup6\n        /* \"#utility.yul\":6085:6099   */\n      add\n        /* \"#utility.yul\":6071:6083   */\n      dup3\n        /* \"#utility.yul\":6037:6100   */\n      tag_270\n      jump\t// in\n    tag_406:\n        /* \"#utility.yul\":5937:6110   */\n      pop\n        /* \"#utility.yul\":6201:6205   */\n      0x60\n        /* \"#utility.yul\":6194:6199   */\n      dup3\n        /* \"#utility.yul\":6190:6206   */\n      add\n        /* \"#utility.yul\":6184:6207   */\n      mload\n        /* \"#utility.yul\":6220:6283   */\n      tag_407\n        /* \"#utility.yul\":6277:6281   */\n      0x60\n        /* \"#utility.yul\":6272:6275   */\n      dup6\n        /* \"#utility.yul\":6268:6282   */\n      add\n        /* \"#utility.yul\":6254:6266   */\n      dup3\n        /* \"#utility.yul\":6220:6283   */\n      tag_270\n      jump\t// in\n    tag_407:\n        /* \"#utility.yul\":6120:6293   */\n      pop\n        /* \"#utility.yul\":6385:6389   */\n      0x80\n        /* \"#utility.yul\":6378:6383   */\n      dup3\n        /* \"#utility.yul\":6374:6390   */\n      add\n        /* \"#utility.yul\":6368:6391   */\n      mload\n        /* \"#utility.yul\":6404:6467   */\n      tag_408\n        /* \"#utility.yul\":6461:6465   */\n      0x80\n        /* \"#utility.yul\":6456:6459   */\n      dup6\n        /* \"#utility.yul\":6452:6466   */\n      add\n        /* \"#utility.yul\":6438:6450   */\n      dup3\n        /* \"#utility.yul\":6404:6467   */\n      tag_270\n      jump\t// in\n    tag_408:\n        /* \"#utility.yul\":6303:6477   */\n      pop\n        /* \"#utility.yul\":6566:6570   */\n      0xa0\n        /* \"#utility.yul\":6559:6564   */\n      dup3\n        /* \"#utility.yul\":6555:6571   */\n      add\n        /* \"#utility.yul\":6549:6572   */\n      mload\n        /* \"#utility.yul\":6585:6648   */\n      tag_409\n        /* \"#utility.yul\":6642:6646   */\n      0xa0\n        /* \"#utility.yul\":6637:6640   */\n      dup6\n        /* \"#utility.yul\":6633:6647   */\n      add\n        /* \"#utility.yul\":6619:6631   */\n      dup3\n        /* \"#utility.yul\":6585:6648   */\n      tag_270\n      jump\t// in\n    tag_409:\n        /* \"#utility.yul\":6487:6658   */\n      pop\n        /* \"#utility.yul\":5528:6665   */\n      pop\n        /* \"#utility.yul\":5402:6665   */\n      pop\n      pop\n      jump\t// out\n        /* \"#utility.yul\":6715:7242   */\n    tag_286:\n        /* \"#utility.yul\":6856:6860   */\n      0x40\n        /* \"#utility.yul\":6851:6854   */\n      dup3\n        /* \"#utility.yul\":6847:6861   */\n      add\n        /* \"#utility.yul\":6956:6960   */\n      0x00\n        /* \"#utility.yul\":6949:6954   */\n      dup3\n        /* \"#utility.yul\":6945:6961   */\n      add\n        /* \"#utility.yul\":6939:6962   */\n      mload\n        /* \"#utility.yul\":6975:7038   */\n      tag_411\n        /* \"#utility.yul\":7032:7036   */\n      0x00\n        /* \"#utility.yul\":7027:7030   */\n      dup6\n        /* \"#utility.yul\":7023:7037   */\n      add\n        /* \"#utility.yul\":7009:7021   */\n      dup3\n        /* \"#utility.yul\":6975:7038   */\n      tag_270\n      jump\t// in\n    tag_411:\n        /* \"#utility.yul\":6871:7048   */\n      pop\n        /* \"#utility.yul\":7143:7147   */\n      0x20\n        /* \"#utility.yul\":7136:7141   */\n      dup3\n        /* \"#utility.yul\":7132:7148   */\n      add\n        /* \"#utility.yul\":7126:7149   */\n      mload\n        /* \"#utility.yul\":7162:7225   */\n      tag_412\n        /* \"#utility.yul\":7219:7223   */\n      0x20\n        /* \"#utility.yul\":7214:7217   */\n      dup6\n        /* \"#utility.yul\":7210:7224   */\n      add\n        /* \"#utility.yul\":7196:7208   */\n      dup3\n        /* \"#utility.yul\":7162:7225   */\n      tag_270\n      jump\t// in\n    tag_412:\n        /* \"#utility.yul\":7058:7235   */\n      pop\n        /* \"#utility.yul\":6825:7242   */\n      pop\n        /* \"#utility.yul\":6715:7242   */\n      pop\n      pop\n      jump\t// out\n        /* \"#utility.yul\":7292:10018   */\n    tag_287:\n        /* \"#utility.yul\":7431:7437   */\n      0x0300\n        /* \"#utility.yul\":7426:7429   */\n      dup3\n        /* \"#utility.yul\":7422:7438   */\n      add\n        /* \"#utility.yul\":7518:7522   */\n      0x00\n        /* \"#utility.yul\":7511:7516   */\n      dup3\n        /* \"#utility.yul\":7507:7523   */\n      add\n        /* \"#utility.yul\":7501:7524   */\n      mload\n        /* \"#utility.yul\":7537:7600   */\n      tag_414\n        /* \"#utility.yul\":7594:7598   */\n      0x00\n        /* \"#utility.yul\":7589:7592   */\n      dup6\n        /* \"#utility.yul\":7585:7599   */\n      add\n        /* \"#utility.yul\":7571:7583   */\n      dup3\n        /* \"#utility.yul\":7537:7600   */\n      tag_270\n      jump\t// in\n    tag_414:\n        /* \"#utility.yul\":7448:7610   */\n      pop\n        /* \"#utility.yul\":7696:7700   */\n      0x20\n        /* \"#utility.yul\":7689:7694   */\n      dup3\n        /* \"#utility.yul\":7685:7701   */\n      add\n        /* \"#utility.yul\":7679:7702   */\n      mload\n        /* \"#utility.yul\":7715:7778   */\n      tag_415\n        /* \"#utility.yul\":7772:7776   */\n      0x20\n        /* \"#utility.yul\":7767:7770   */\n      dup6\n        /* \"#utility.yul\":7763:7777   */\n      add\n        /* \"#utility.yul\":7749:7761   */\n      dup3\n        /* \"#utility.yul\":7715:7778   */\n      tag_276\n      jump\t// in\n    tag_415:\n        /* \"#utility.yul\":7620:7788   */\n      pop\n        /* \"#utility.yul\":7871:7875   */\n      0x40\n        /* \"#utility.yul\":7864:7869   */\n      dup3\n        /* \"#utility.yul\":7860:7876   */\n      add\n        /* \"#utility.yul\":7854:7877   */\n      mload\n        /* \"#utility.yul\":7890:7953   */\n      tag_416\n        /* \"#utility.yul\":7947:7951   */\n      0x40\n        /* \"#utility.yul\":7942:7945   */\n      dup6\n        /* \"#utility.yul\":7938:7952   */\n      add\n        /* \"#utility.yul\":7924:7936   */\n      dup3\n        /* \"#utility.yul\":7890:7953   */\n      tag_276\n      jump\t// in\n    tag_416:\n        /* \"#utility.yul\":7798:7963   */\n      pop\n        /* \"#utility.yul\":8058:8062   */\n      0x60\n        /* \"#utility.yul\":8051:8056   */\n      dup3\n        /* \"#utility.yul\":8047:8063   */\n      add\n        /* \"#utility.yul\":8041:8064   */\n      mload\n        /* \"#utility.yul\":8077:8140   */\n      tag_417\n        /* \"#utility.yul\":8134:8138   */\n      0x60\n        /* \"#utility.yul\":8129:8132   */\n      dup6\n        /* \"#utility.yul\":8125:8139   */\n      add\n        /* \"#utility.yul\":8111:8123   */\n      dup3\n        /* \"#utility.yul\":8077:8140   */\n      tag_270\n      jump\t// in\n    tag_417:\n        /* \"#utility.yul\":7973:8150   */\n      pop\n        /* \"#utility.yul\":8247:8251   */\n      0x80\n        /* \"#utility.yul\":8240:8245   */\n      dup3\n        /* \"#utility.yul\":8236:8252   */\n      add\n        /* \"#utility.yul\":8230:8253   */\n      mload\n        /* \"#utility.yul\":8266:8329   */\n      tag_418\n        /* \"#utility.yul\":8323:8327   */\n      0x80\n        /* \"#utility.yul\":8318:8321   */\n      dup6\n        /* \"#utility.yul\":8314:8328   */\n      add\n        /* \"#utility.yul\":8300:8312   */\n      dup3\n        /* \"#utility.yul\":8266:8329   */\n      tag_270\n      jump\t// in\n    tag_418:\n        /* \"#utility.yul\":8160:8339   */\n      pop\n        /* \"#utility.yul\":8425:8429   */\n      0xa0\n        /* \"#utility.yul\":8418:8423   */\n      dup3\n        /* \"#utility.yul\":8414:8430   */\n      add\n        /* \"#utility.yul\":8408:8431   */\n      mload\n        /* \"#utility.yul\":8444:8507   */\n      tag_419\n        /* \"#utility.yul\":8501:8505   */\n      0xa0\n        /* \"#utility.yul\":8496:8499   */\n      dup6\n        /* \"#utility.yul\":8492:8506   */\n      add\n        /* \"#utility.yul\":8478:8490   */\n      dup3\n        /* \"#utility.yul\":8444:8507   */\n      tag_270\n      jump\t// in\n    tag_419:\n        /* \"#utility.yul\":8349:8517   */\n      pop\n        /* \"#utility.yul\":8603:8607   */\n      0xc0\n        /* \"#utility.yul\":8596:8601   */\n      dup3\n        /* \"#utility.yul\":8592:8608   */\n      add\n        /* \"#utility.yul\":8586:8609   */\n      mload\n        /* \"#utility.yul\":8622:8696   */\n      tag_420\n        /* \"#utility.yul\":8690:8694   */\n      0xc0\n        /* \"#utility.yul\":8685:8688   */\n      dup6\n        /* \"#utility.yul\":8681:8695   */\n      add\n        /* \"#utility.yul\":8667:8679   */\n      dup3\n        /* \"#utility.yul\":8622:8696   */\n      tag_280\n      jump\t// in\n    tag_420:\n        /* \"#utility.yul\":8527:8706   */\n      pop\n        /* \"#utility.yul\":8804:8808   */\n      0xe0\n        /* \"#utility.yul\":8797:8802   */\n      dup3\n        /* \"#utility.yul\":8793:8809   */\n      add\n        /* \"#utility.yul\":8787:8810   */\n      mload\n        /* \"#utility.yul\":8823:8956   */\n      tag_421\n        /* \"#utility.yul\":8950:8954   */\n      0xe0\n        /* \"#utility.yul\":8945:8948   */\n      dup6\n        /* \"#utility.yul\":8941:8955   */\n      add\n        /* \"#utility.yul\":8927:8939   */\n      dup3\n        /* \"#utility.yul\":8823:8956   */\n      tag_285\n      jump\t// in\n    tag_421:\n        /* \"#utility.yul\":8716:8966   */\n      pop\n        /* \"#utility.yul\":9060:9066   */\n      0x0100\n        /* \"#utility.yul\":9053:9058   */\n      dup3\n        /* \"#utility.yul\":9049:9067   */\n      add\n        /* \"#utility.yul\":9043:9068   */\n      mload\n        /* \"#utility.yul\":9081:9216   */\n      tag_422\n        /* \"#utility.yul\":9208:9214   */\n      0x01a0\n        /* \"#utility.yul\":9203:9206   */\n      dup6\n        /* \"#utility.yul\":9199:9215   */\n      add\n        /* \"#utility.yul\":9185:9197   */\n      dup3\n        /* \"#utility.yul\":9081:9216   */\n      tag_285\n      jump\t// in\n    tag_422:\n        /* \"#utility.yul\":8976:9226   */\n      pop\n        /* \"#utility.yul\":9313:9319   */\n      0x0120\n        /* \"#utility.yul\":9306:9311   */\n      dup3\n        /* \"#utility.yul\":9302:9320   */\n      add\n        /* \"#utility.yul\":9296:9321   */\n      mload\n        /* \"#utility.yul\":9334:9453   */\n      tag_423\n        /* \"#utility.yul\":9445:9451   */\n      0x0260\n        /* \"#utility.yul\":9440:9443   */\n      dup6\n        /* \"#utility.yul\":9436:9452   */\n      add\n        /* \"#utility.yul\":9422:9434   */\n      dup3\n        /* \"#utility.yul\":9334:9453   */\n      tag_286\n      jump\t// in\n    tag_423:\n        /* \"#utility.yul\":9236:9463   */\n      pop\n        /* \"#utility.yul\":9552:9558   */\n      0x0140\n        /* \"#utility.yul\":9545:9550   */\n      dup3\n        /* \"#utility.yul\":9541:9559   */\n      add\n        /* \"#utility.yul\":9535:9560   */\n      mload\n        /* \"#utility.yul\":9573:9638   */\n      tag_424\n        /* \"#utility.yul\":9630:9636   */\n      0x02a0\n        /* \"#utility.yul\":9625:9628   */\n      dup6\n        /* \"#utility.yul\":9621:9637   */\n      add\n        /* \"#utility.yul\":9607:9619   */\n      dup3\n        /* \"#utility.yul\":9573:9638   */\n      tag_270\n      jump\t// in\n    tag_424:\n        /* \"#utility.yul\":9473:9648   */\n      pop\n        /* \"#utility.yul\":9736:9742   */\n      0x0160\n        /* \"#utility.yul\":9729:9734   */\n      dup3\n        /* \"#utility.yul\":9725:9743   */\n      add\n        /* \"#utility.yul\":9719:9744   */\n      mload\n        /* \"#utility.yul\":9757:9822   */\n      tag_425\n        /* \"#utility.yul\":9814:9820   */\n      0x02c0\n        /* \"#utility.yul\":9809:9812   */\n      dup6\n        /* \"#utility.yul\":9805:9821   */\n      add\n        /* \"#utility.yul\":9791:9803   */\n      dup3\n        /* \"#utility.yul\":9757:9822   */\n      tag_270\n      jump\t// in\n    tag_425:\n        /* \"#utility.yul\":9658:9832   */\n      pop\n        /* \"#utility.yul\":9915:9921   */\n      0x0180\n        /* \"#utility.yul\":9908:9913   */\n      dup3\n        /* \"#utility.yul\":9904:9922   */\n      add\n        /* \"#utility.yul\":9898:9923   */\n      mload\n        /* \"#utility.yul\":9936:10001   */\n      tag_426\n        /* \"#utility.yul\":9993:9999   */\n      0x02e0\n        /* \"#utility.yul\":9988:9991   */\n      dup6\n        /* \"#utility.yul\":9984:10000   */\n      add\n        /* \"#utility.yul\":9970:9982   */\n      dup3\n        /* \"#utility.yul\":9936:10001   */\n      tag_270\n      jump\t// in\n    tag_426:\n        /* \"#utility.yul\":9842:10011   */\n      pop\n        /* \"#utility.yul\":7400:10018   */\n      pop\n        /* \"#utility.yul\":7292:10018   */\n      pop\n      pop\n      jump\t// out\n        /* \"#utility.yul\":10066:11522   */\n    tag_288:\n        /* \"#utility.yul\":10213:10219   */\n      0x03c0\n        /* \"#utility.yul\":10208:10211   */\n      dup3\n        /* \"#utility.yul\":10204:10220   */\n      add\n        /* \"#utility.yul\":10300:10304   */\n      0x00\n        /* \"#utility.yul\":10293:10298   */\n      dup3\n        /* \"#utility.yul\":10289:10305   */\n      add\n        /* \"#utility.yul\":10283:10306   */\n      mload\n        /* \"#utility.yul\":10319:10382   */\n      tag_428\n        /* \"#utility.yul\":10376:10380   */\n      0x00\n        /* \"#utility.yul\":10371:10374   */\n      dup6\n        /* \"#utility.yul\":10367:10381   */\n      add\n        /* \"#utility.yul\":10353:10365   */\n      dup3\n        /* \"#utility.yul\":10319:10382   */\n      tag_270\n      jump\t// in\n    tag_428:\n        /* \"#utility.yul\":10230:10392   */\n      pop\n        /* \"#utility.yul\":10477:10481   */\n      0x20\n        /* \"#utility.yul\":10470:10475   */\n      dup3\n        /* \"#utility.yul\":10466:10482   */\n      add\n        /* \"#utility.yul\":10460:10483   */\n      mload\n        /* \"#utility.yul\":10496:10559   */\n      tag_429\n        /* \"#utility.yul\":10553:10557   */\n      0x20\n        /* \"#utility.yul\":10548:10551   */\n      dup6\n        /* \"#utility.yul\":10544:10558   */\n      add\n        /* \"#utility.yul\":10530:10542   */\n      dup3\n        /* \"#utility.yul\":10496:10559   */\n      tag_276\n      jump\t// in\n    tag_429:\n        /* \"#utility.yul\":10402:10569   */\n      pop\n        /* \"#utility.yul\":10652:10656   */\n      0x40\n        /* \"#utility.yul\":10645:10650   */\n      dup3\n        /* \"#utility.yul\":10641:10657   */\n      add\n        /* \"#utility.yul\":10635:10658   */\n      mload\n        /* \"#utility.yul\":10671:10734   */\n      tag_430\n        /* \"#utility.yul\":10728:10732   */\n      0x40\n        /* \"#utility.yul\":10723:10726   */\n      dup6\n        /* \"#utility.yul\":10719:10733   */\n      add\n        /* \"#utility.yul\":10705:10717   */\n      dup3\n        /* \"#utility.yul\":10671:10734   */\n      tag_276\n      jump\t// in\n    tag_430:\n        /* \"#utility.yul\":10579:10744   */\n      pop\n        /* \"#utility.yul\":10827:10831   */\n      0x60\n        /* \"#utility.yul\":10820:10825   */\n      dup3\n        /* \"#utility.yul\":10816:10832   */\n      add\n        /* \"#utility.yul\":10810:10833   */\n      mload\n        /* \"#utility.yul\":10846:10909   */\n      tag_431\n        /* \"#utility.yul\":10903:10907   */\n      0x60\n        /* \"#utility.yul\":10898:10901   */\n      dup6\n        /* \"#utility.yul\":10894:10908   */\n      add\n        /* \"#utility.yul\":10880:10892   */\n      dup3\n        /* \"#utility.yul\":10846:10909   */\n      tag_276\n      jump\t// in\n    tag_431:\n        /* \"#utility.yul\":10754:10919   */\n      pop\n        /* \"#utility.yul\":11009:11013   */\n      0x80\n        /* \"#utility.yul\":11002:11007   */\n      dup3\n        /* \"#utility.yul\":10998:11014   */\n      add\n        /* \"#utility.yul\":10992:11015   */\n      mload\n        /* \"#utility.yul\":11028:11091   */\n      tag_432\n        /* \"#utility.yul\":11085:11089   */\n      0x80\n        /* \"#utility.yul\":11080:11083   */\n      dup6\n        /* \"#utility.yul\":11076:11090   */\n      add\n        /* \"#utility.yul\":11062:11074   */\n      dup3\n        /* \"#utility.yul\":11028:11091   */\n      tag_270\n      jump\t// in\n    tag_432:\n        /* \"#utility.yul\":10929:11101   */\n      pop\n        /* \"#utility.yul\":11194:11198   */\n      0xa0\n        /* \"#utility.yul\":11187:11192   */\n      dup3\n        /* \"#utility.yul\":11183:11199   */\n      add\n        /* \"#utility.yul\":11177:11200   */\n      mload\n        /* \"#utility.yul\":11213:11276   */\n      tag_433\n        /* \"#utility.yul\":11270:11274   */\n      0xa0\n        /* \"#utility.yul\":11265:11268   */\n      dup6\n        /* \"#utility.yul\":11261:11275   */\n      add\n        /* \"#utility.yul\":11247:11259   */\n      dup3\n        /* \"#utility.yul\":11213:11276   */\n      tag_270\n      jump\t// in\n    tag_433:\n        /* \"#utility.yul\":11111:11286   */\n      pop\n        /* \"#utility.yul\":11371:11375   */\n      0xc0\n        /* \"#utility.yul\":11364:11369   */\n      dup3\n        /* \"#utility.yul\":11360:11376   */\n      add\n        /* \"#utility.yul\":11354:11377   */\n      mload\n        /* \"#utility.yul\":11390:11505   */\n      tag_434\n        /* \"#utility.yul\":11499:11503   */\n      0xc0\n        /* \"#utility.yul\":11494:11497   */\n      dup6\n        /* \"#utility.yul\":11490:11504   */\n      add\n        /* \"#utility.yul\":11476:11488   */\n      dup3\n        /* \"#utility.yul\":11390:11505   */\n      tag_287\n      jump\t// in\n    tag_434:\n        /* \"#utility.yul\":11296:11515   */\n      pop\n        /* \"#utility.yul\":10182:11522   */\n      pop\n        /* \"#utility.yul\":10066:11522   */\n      pop\n      pop\n      jump\t// out\n        /* \"#utility.yul\":11528:11851   */\n    tag_32:\n        /* \"#utility.yul\":11671:11675   */\n      0x00\n        /* \"#utility.yul\":11709:11712   */\n      0x03c0\n        /* \"#utility.yul\":11698:11707   */\n      dup3\n        /* \"#utility.yul\":11694:11713   */\n      add\n        /* \"#utility.yul\":11686:11713   */\n      swap1\n      pop\n        /* \"#utility.yul\":11723:11844   */\n      tag_436\n        /* \"#utility.yul\":11841:11842   */\n      0x00\n        /* \"#utility.yul\":11830:11839   */\n      dup4\n        /* \"#utility.yul\":11826:11843   */\n      add\n        /* \"#utility.yul\":11817:11823   */\n      dup5\n        /* \"#utility.yul\":11723:11844   */\n      tag_288\n      jump\t// in\n    tag_436:\n        /* \"#utility.yul\":11528:11851   */\n      swap3\n      swap2\n      pop\n      pop\n      jump\t// out\n        /* \"#utility.yul\":11857:11932   */\n    tag_289:\n        /* \"#utility.yul\":11890:11896   */\n      0x00\n        /* \"#utility.yul\":11923:11925   */\n      0x40\n        /* \"#utility.yul\":11917:11926   */\n      mload\n        /* \"#utility.yul\":11907:11926   */\n      swap1\n      pop\n        /* \"#utility.yul\":11857:11932   */\n      swap1\n      jump\t// out\n        /* \"#utility.yul\":11938:12055   */\n    tag_290:\n        /* \"#utility.yul\":12047:12048   */\n      0x00\n        /* \"#utility.yul\":12044:12045   */\n      0x00\n        /* \"#utility.yul\":12037:12049   */\n      revert\n        /* \"#utility.yul\":12061:12178   */\n    tag_291:\n        /* \"#utility.yul\":12170:12171   */\n      0x00\n        /* \"#utility.yul\":12167:12168   */\n      0x00\n        /* \"#utility.yul\":12160:12172   */\n      revert\n        /* \"#utility.yul\":12184:12306   */\n    tag_292:\n        /* \"#utility.yul\":12257:12281   */\n      tag_441\n        /* \"#utility.yul\":12275:12280   */\n      dup2\n        /* \"#utility.yul\":12257:12281   */\n      tag_260\n      jump\t// in\n    tag_441:\n        /* \"#utility.yul\":12250:12255   */\n      dup2\n        /* \"#utility.yul\":12247:12282   */\n      eq\n        /* \"#utility.yul\":12237:12300   */\n      tag_442\n      jumpi\n        /* \"#utility.yul\":12296:12297   */\n      0x00\n        /* \"#utility.yul\":12293:12294   */\n      0x00\n        /* \"#utility.yul\":12286:12298   */\n      revert\n        /* \"#utility.yul\":12237:12300   */\n    tag_442:\n        /* \"#utility.yul\":12184:12306   */\n      pop\n      jump\t// out\n        /* \"#utility.yul\":12312:12451   */\n    tag_293:\n        /* \"#utility.yul\":12358:12363   */\n      0x00\n        /* \"#utility.yul\":12396:12402   */\n      dup2\n        /* \"#utility.yul\":12383:12403   */\n      calldataload\n        /* \"#utility.yul\":12374:12403   */\n      swap1\n      pop\n        /* \"#utility.yul\":12412:12445   */\n      tag_444\n        /* \"#utility.yul\":12439:12444   */\n      dup2\n        /* \"#utility.yul\":12412:12445   */\n      tag_292\n      jump\t// in\n    tag_444:\n        /* \"#utility.yul\":12312:12451   */\n      swap3\n      swap2\n      pop\n      pop\n      jump\t// out\n        /* \"#utility.yul\":12457:12786   */\n    tag_36:\n        /* \"#utility.yul\":12516:12522   */\n      0x00\n        /* \"#utility.yul\":12565:12567   */\n      0x20\n        /* \"#utility.yul\":12553:12562   */\n      dup3\n        /* \"#utility.yul\":12544:12551   */\n      dup5\n        /* \"#utility.yul\":12540:12563   */\n      sub\n        /* \"#utility.yul\":12536:12568   */\n      slt\n        /* \"#utility.yul\":12533:12652   */\n      iszero\n      tag_446\n      jumpi\n        /* \"#utility.yul\":12571:12650   */\n      tag_447\n      tag_290\n      jump\t// in\n    tag_447:\n        /* \"#utility.yul\":12533:12652   */\n    tag_446:\n        /* \"#utility.yul\":12691:12692   */\n      0x00\n        /* \"#utility.yul\":12716:12769   */\n      tag_448\n        /* \"#utility.yul\":12761:12768   */\n      dup5\n        /* \"#utility.yul\":12752:12758   */\n      dup3\n        /* \"#utility.yul\":12741:12750   */\n      dup6\n        /* \"#utility.yul\":12737:12759   */\n      add\n        /* \"#utility.yul\":12716:12769   */\n      tag_293\n      jump\t// in\n    tag_448:\n        /* \"#utility.yul\":12706:12769   */\n      swap2\n      pop\n        /* \"#utility.yul\":12662:12779   */\n      pop\n        /* \"#utility.yul\":12457:12786   */\n      swap3\n      swap2\n      pop\n      pop\n      jump\t// out\n        /* \"#utility.yul\":12792:12909   */\n    tag_294:\n        /* \"#utility.yul\":12901:12902   */\n      0x00\n        /* \"#utility.yul\":12898:12899   */\n      0x00\n        /* \"#utility.yul\":12891:12903   */\n      revert\n        /* \"#utility.yul\":12915:13095   */\n    tag_295:\n        /* \"#utility.yul\":12963:13040   */\n      0x4e487b7100000000000000000000000000000000000000000000000000000000\n        /* \"#utility.yul\":12960:12961   */\n      0x00\n        /* \"#utility.yul\":12953:13041   */\n      mstore\n        /* \"#utility.yul\":13060:13064   */\n      0x41\n        /* \"#utility.yul\":13057:13058   */\n      0x04\n        /* \"#utility.yul\":13050:13065   */\n      mstore\n        /* \"#utility.yul\":13084:13088   */\n      0x24\n        /* \"#utility.yul\":13081:13082   */\n      0x00\n        /* \"#utility.yul\":13074:13089   */\n      revert\n        /* \"#utility.yul\":13101:13382   */\n    tag_296:\n        /* \"#utility.yul\":13184:13211   */\n      tag_452\n        /* \"#utility.yul\":13206:13210   */\n      dup3\n        /* \"#utility.yul\":13184:13211   */\n      tag_265\n      jump\t// in\n    tag_452:\n        /* \"#utility.yul\":13176:13182   */\n      dup2\n        /* \"#utility.yul\":13172:13212   */\n      add\n        /* \"#utility.yul\":13314:13320   */\n      dup2\n        /* \"#utility.yul\":13302:13312   */\n      dup2\n        /* \"#utility.yul\":13299:13321   */\n      lt\n        /* \"#utility.yul\":13278:13296   */\n      0xffffffffffffffff\n        /* \"#utility.yul\":13266:13276   */\n      dup3\n        /* \"#utility.yul\":13263:13297   */\n      gt\n        /* \"#utility.yul\":13260:13322   */\n      or\n        /* \"#utility.yul\":13257:13345   */\n      iszero\n      tag_453\n      jumpi\n        /* \"#utility.yul\":13325:13343   */\n      tag_454\n      tag_295\n      jump\t// in\n    tag_454:\n        /* \"#utility.yul\":13257:13345   */\n    tag_453:\n        /* \"#utility.yul\":13365:13375   */\n      dup1\n        /* \"#utility.yul\":13361:13363   */\n      0x40\n        /* \"#utility.yul\":13354:13376   */\n      mstore\n        /* \"#utility.yul\":13144:13382   */\n      pop\n        /* \"#utility.yul\":13101:13382   */\n      pop\n      pop\n      jump\t// out\n        /* \"#utility.yul\":13388:13517   */\n    tag_297:\n        /* \"#utility.yul\":13422:13428   */\n      0x00\n        /* \"#utility.yul\":13449:13469   */\n      tag_456\n      tag_289\n      jump\t// in\n    tag_456:\n        /* \"#utility.yul\":13439:13469   */\n      swap1\n      pop\n        /* \"#utility.yul\":13478:13511   */\n      tag_457\n        /* \"#utility.yul\":13506:13510   */\n      dup3\n        /* \"#utility.yul\":13498:13504   */\n      dup3\n        /* \"#utility.yul\":13478:13511   */\n      tag_296\n      jump\t// in\n    tag_457:\n        /* \"#utility.yul\":13388:13517   */\n      swap2\n      swap1\n      pop\n      jump\t// out\n        /* \"#utility.yul\":13646:13768   */\n    tag_299:\n        /* \"#utility.yul\":13719:13743   */\n      tag_460\n        /* \"#utility.yul\":13737:13742   */\n      dup2\n        /* \"#utility.yul\":13719:13743   */\n      tag_275\n      jump\t// in\n    tag_460:\n        /* \"#utility.yul\":13712:13717   */\n      dup2\n        /* \"#utility.yul\":13709:13744   */\n      eq\n        /* \"#utility.yul\":13699:13762   */\n      tag_461\n      jumpi\n        /* \"#utility.yul\":13758:13759   */\n      0x00\n        /* \"#utility.yul\":13755:13756   */\n      0x00\n        /* \"#utility.yul\":13748:13760   */\n      revert\n        /* \"#utility.yul\":13699:13762   */\n    tag_461:\n        /* \"#utility.yul\":13646:13768   */\n      pop\n      jump\t// out\n        /* \"#utility.yul\":13774:13913   */\n    tag_300:\n        /* \"#utility.yul\":13820:13825   */\n      0x00\n        /* \"#utility.yul\":13858:13864   */\n      dup2\n        /* \"#utility.yul\":13845:13865   */\n      calldataload\n        /* \"#utility.yul\":13836:13865   */\n      swap1\n      pop\n        /* \"#utility.yul\":13874:13907   */\n      tag_463\n        /* \"#utility.yul\":13901:13906   */\n      dup2\n        /* \"#utility.yul\":13874:13907   */\n      tag_299\n      jump\t// in\n    tag_463:\n        /* \"#utility.yul\":13774:13913   */\n      swap3\n      swap2\n      pop\n      pop\n      jump\t// out\n        /* \"#utility.yul\":13946:14530   */\n    tag_301:\n        /* \"#utility.yul\":14024:14029   */\n      0x00\n        /* \"#utility.yul\":14068:14072   */\n      0x40\n        /* \"#utility.yul\":14056:14065   */\n      dup3\n        /* \"#utility.yul\":14051:14054   */\n      dup5\n        /* \"#utility.yul\":14047:14066   */\n      sub\n        /* \"#utility.yul\":14043:14073   */\n      slt\n        /* \"#utility.yul\":14040:14157   */\n      iszero\n      tag_465\n      jumpi\n        /* \"#utility.yul\":14076:14155   */\n      tag_466\n      tag_294\n      jump\t// in\n    tag_466:\n        /* \"#utility.yul\":14040:14157   */\n    tag_465:\n        /* \"#utility.yul\":14175:14196   */\n      tag_467\n        /* \"#utility.yul\":14191:14195   */\n      0x40\n        /* \"#utility.yul\":14175:14196   */\n      tag_297\n      jump\t// in\n    tag_467:\n        /* \"#utility.yul\":14166:14196   */\n      swap1\n      pop\n        /* \"#utility.yul\":14256:14257   */\n      0x00\n        /* \"#utility.yul\":14296:14345   */\n      tag_468\n        /* \"#utility.yul\":14341:14344   */\n      dup5\n        /* \"#utility.yul\":14332:14338   */\n      dup3\n        /* \"#utility.yul\":14321:14330   */\n      dup6\n        /* \"#utility.yul\":14317:14339   */\n      add\n        /* \"#utility.yul\":14296:14345   */\n      tag_300\n      jump\t// in\n    tag_468:\n        /* \"#utility.yul\":14289:14293   */\n      0x00\n        /* \"#utility.yul\":14282:14287   */\n      dup4\n        /* \"#utility.yul\":14278:14294   */\n      add\n        /* \"#utility.yul\":14271:14346   */\n      mstore\n        /* \"#utility.yul\":14206:14357   */\n      pop\n        /* \"#utility.yul\":14421:14423   */\n      0x20\n        /* \"#utility.yul\":14462:14511   */\n      tag_469\n        /* \"#utility.yul\":14507:14510   */\n      dup5\n        /* \"#utility.yul\":14498:14504   */\n      dup3\n        /* \"#utility.yul\":14487:14496   */\n      dup6\n        /* \"#utility.yul\":14483:14505   */\n      add\n        /* \"#utility.yul\":14462:14511   */\n      tag_293\n      jump\t// in\n    tag_469:\n        /* \"#utility.yul\":14455:14459   */\n      0x20\n        /* \"#utility.yul\":14448:14453   */\n      dup4\n        /* \"#utility.yul\":14444:14460   */\n      add\n        /* \"#utility.yul\":14437:14512   */\n      mstore\n        /* \"#utility.yul\":14367:14523   */\n      pop\n        /* \"#utility.yul\":13946:14530   */\n      swap3\n      swap2\n      pop\n      pop\n      jump\t// out\n        /* \"#utility.yul\":14536:14923   */\n    tag_41:\n        /* \"#utility.yul\":14624:14630   */\n      0x00\n        /* \"#utility.yul\":14673:14675   */\n      0x40\n        /* \"#utility.yul\":14661:14670   */\n      dup3\n        /* \"#utility.yul\":14652:14659   */\n      dup5\n        /* \"#utility.yul\":14648:14671   */\n      sub\n        /* \"#utility.yul\":14644:14676   */\n      slt\n        /* \"#utility.yul\":14641:14760   */\n      iszero\n      tag_471\n      jumpi\n        /* \"#utility.yul\":14679:14758   */\n      tag_472\n      tag_290\n      jump\t// in\n    tag_472:\n        /* \"#utility.yul\":14641:14760   */\n    tag_471:\n        /* \"#utility.yul\":14799:14800   */\n      0x00\n        /* \"#utility.yul\":14824:14906   */\n      tag_473\n        /* \"#utility.yul\":14898:14905   */\n      dup5\n        /* \"#utility.yul\":14889:14895   */\n      dup3\n        /* \"#utility.yul\":14878:14887   */\n      dup6\n        /* \"#utility.yul\":14874:14896   */\n      add\n        /* \"#utility.yul\":14824:14906   */\n      tag_301\n      jump\t// in\n    tag_473:\n        /* \"#utility.yul\":14814:14906   */\n      swap2\n      pop\n        /* \"#utility.yul\":14770:14916   */\n      pop\n        /* \"#utility.yul\":14536:14923   */\n      swap3\n      swap2\n      pop\n      pop\n      jump\t// out\n        /* \"#utility.yul\":14929:15047   */\n    tag_302:\n        /* \"#utility.yul\":15016:15040   */\n      tag_475\n        /* \"#utility.yul\":15034:15039   */\n      dup2\n        /* \"#utility.yul\":15016:15040   */\n      tag_275\n      jump\t// in\n    tag_475:\n        /* \"#utility.yul\":15011:15014   */\n      dup3\n        /* \"#utility.yul\":15004:15041   */\n      mstore\n        /* \"#utility.yul\":14929:15047   */\n      pop\n      pop\n      jump\t// out\n        /* \"#utility.yul\":15053:15385   */\n    tag_44:\n        /* \"#utility.yul\":15174:15178   */\n      0x00\n        /* \"#utility.yul\":15212:15214   */\n      0x40\n        /* \"#utility.yul\":15201:15210   */\n      dup3\n        /* \"#utility.yul\":15197:15215   */\n      add\n        /* \"#utility.yul\":15189:15215   */\n      swap1\n      pop\n        /* \"#utility.yul\":15225:15296   */\n      tag_477\n        /* \"#utility.yul\":15293:15294   */\n      0x00\n        /* \"#utility.yul\":15282:15291   */\n      dup4\n        /* \"#utility.yul\":15278:15295   */\n      add\n        /* \"#utility.yul\":15269:15275   */\n      dup6\n        /* \"#utility.yul\":15225:15296   */\n      tag_302\n      jump\t// in\n    tag_477:\n        /* \"#utility.yul\":15306:15378   */\n      tag_478\n        /* \"#utility.yul\":15374:15376   */\n      0x20\n        /* \"#utility.yul\":15363:15372   */\n      dup4\n        /* \"#utility.yul\":15359:15377   */\n      add\n        /* \"#utility.yul\":15350:15356   */\n      dup5\n        /* \"#utility.yul\":15306:15378   */\n      tag_261\n      jump\t// in\n    tag_478:\n        /* \"#utility.yul\":15053:15385   */\n      swap4\n      swap3\n      pop\n      pop\n      pop\n      jump\t// out\n        /* \"#utility.yul\":15391:16015   */\n    tag_49:\n        /* \"#utility.yul\":15580:15584   */\n      0x00\n        /* \"#utility.yul\":15618:15620   */\n      0x60\n        /* \"#utility.yul\":15607:15616   */\n      dup3\n        /* \"#utility.yul\":15603:15621   */\n      add\n        /* \"#utility.yul\":15595:15621   */\n      swap1\n      pop\n        /* \"#utility.yul\":15631:15702   */\n      tag_480\n        /* \"#utility.yul\":15699:15700   */\n      0x00\n        /* \"#utility.yul\":15688:15697   */\n      dup4\n        /* \"#utility.yul\":15684:15701   */\n      add\n        /* \"#utility.yul\":15675:15681   */\n      dup7\n        /* \"#utility.yul\":15631:15702   */\n      tag_302\n      jump\t// in\n    tag_480:\n        /* \"#utility.yul\":15749:15758   */\n      dup2\n        /* \"#utility.yul\":15743:15747   */\n      dup2\n        /* \"#utility.yul\":15739:15759   */\n      sub\n        /* \"#utility.yul\":15734:15736   */\n      0x20\n        /* \"#utility.yul\":15723:15732   */\n      dup4\n        /* \"#utility.yul\":15719:15737   */\n      add\n        /* \"#utility.yul\":15712:15760   */\n      mstore\n        /* \"#utility.yul\":15777:15855   */\n      tag_481\n        /* \"#utility.yul\":15850:15854   */\n      dup2\n        /* \"#utility.yul\":15841:15847   */\n      dup6\n        /* \"#utility.yul\":15777:15855   */\n      tag_266\n      jump\t// in\n    tag_481:\n        /* \"#utility.yul\":15769:15855   */\n      swap1\n      pop\n        /* \"#utility.yul\":15902:15911   */\n      dup2\n        /* \"#utility.yul\":15896:15900   */\n      dup2\n        /* \"#utility.yul\":15892:15912   */\n      sub\n        /* \"#utility.yul\":15887:15889   */\n      0x40\n        /* \"#utility.yul\":15876:15885   */\n      dup4\n        /* \"#utility.yul\":15872:15890   */\n      add\n        /* \"#utility.yul\":15865:15913   */\n      mstore\n        /* \"#utility.yul\":15930:16008   */\n      tag_482\n        /* \"#utility.yul\":16003:16007   */\n      dup2\n        /* \"#utility.yul\":15994:16000   */\n      dup5\n        /* \"#utility.yul\":15930:16008   */\n      tag_266\n      jump\t// in\n    tag_482:\n        /* \"#utility.yul\":15922:16008   */\n      swap1\n      pop\n        /* \"#utility.yul\":15391:16015   */\n      swap5\n      swap4\n      pop\n      pop\n      pop\n      pop\n      jump\t// out\n        /* \"#utility.yul\":16021:16138   */\n    tag_303:\n        /* \"#utility.yul\":16130:16131   */\n      0x00\n        /* \"#utility.yul\":16127:16128   */\n      0x00\n        /* \"#utility.yul\":16120:16132   */\n      revert\n        /* \"#utility.yul\":16144:16261   */\n    tag_304:\n        /* \"#utility.yul\":16253:16254   */\n      0x00\n        /* \"#utility.yul\":16250:16251   */\n      0x00\n        /* \"#utility.yul\":16243:16255   */\n      revert\n        /* \"#utility.yul\":16267:16575   */\n    tag_305:\n        /* \"#utility.yul\":16329:16333   */\n      0x00\n        /* \"#utility.yul\":16419:16437   */\n      0xffffffffffffffff\n        /* \"#utility.yul\":16411:16417   */\n      dup3\n        /* \"#utility.yul\":16408:16438   */\n      gt\n        /* \"#utility.yul\":16405:16461   */\n      iszero\n      tag_486\n      jumpi\n        /* \"#utility.yul\":16441:16459   */\n      tag_487\n      tag_295\n      jump\t// in\n    tag_487:\n        /* \"#utility.yul\":16405:16461   */\n    tag_486:\n        /* \"#utility.yul\":16479:16508   */\n      tag_488\n        /* \"#utility.yul\":16501:16507   */\n      dup3\n        /* \"#utility.yul\":16479:16508   */\n      tag_265\n      jump\t// in\n    tag_488:\n        /* \"#utility.yul\":16471:16508   */\n      swap1\n      pop\n        /* \"#utility.yul\":16563:16567   */\n      0x20\n        /* \"#utility.yul\":16557:16561   */\n      dup2\n        /* \"#utility.yul\":16553:16568   */\n      add\n        /* \"#utility.yul\":16545:16568   */\n      swap1\n      pop\n        /* \"#utility.yul\":16267:16575   */\n      swap2\n      swap1\n      pop\n      jump\t// out\n        /* \"#utility.yul\":16581:16729   */\n    tag_306:\n        /* \"#utility.yul\":16679:16685   */\n      dup3\n        /* \"#utility.yul\":16674:16677   */\n      dup2\n        /* \"#utility.yul\":16669:16672   */\n      dup4\n        /* \"#utility.yul\":16656:16686   */\n      calldatacopy\n        /* \"#utility.yul\":16720:16721   */\n      0x00\n        /* \"#utility.yul\":16711:16717   */\n      dup4\n        /* \"#utility.yul\":16706:16709   */\n      dup4\n        /* \"#utility.yul\":16702:16718   */\n      add\n        /* \"#utility.yul\":16695:16722   */\n      mstore\n        /* \"#utility.yul\":16581:16729   */\n      pop\n      pop\n      pop\n      jump\t// out\n        /* \"#utility.yul\":16735:17160   */\n    tag_307:\n        /* \"#utility.yul\":16813:16818   */\n      0x00\n        /* \"#utility.yul\":16838:16904   */\n      tag_491\n        /* \"#utility.yul\":16854:16903   */\n      tag_492\n        /* \"#utility.yul\":16896:16902   */\n      dup5\n        /* \"#utility.yul\":16854:16903   */\n      tag_305\n      jump\t// in\n    tag_492:\n        /* \"#utility.yul\":16838:16904   */\n      tag_297\n      jump\t// in\n    tag_491:\n        /* \"#utility.yul\":16829:16904   */\n      swap1\n      pop\n        /* \"#utility.yul\":16927:16933   */\n      dup3\n        /* \"#utility.yul\":16920:16925   */\n      dup2\n        /* \"#utility.yul\":16913:16934   */\n      mstore\n        /* \"#utility.yul\":16965:16969   */\n      0x20\n        /* \"#utility.yul\":16958:16963   */\n      dup2\n        /* \"#utility.yul\":16954:16970   */\n      add\n        /* \"#utility.yul\":17003:17006   */\n      dup5\n        /* \"#utility.yul\":16994:17000   */\n      dup5\n        /* \"#utility.yul\":16989:16992   */\n      dup5\n        /* \"#utility.yul\":16985:17001   */\n      add\n        /* \"#utility.yul\":16982:17007   */\n      gt\n        /* \"#utility.yul\":16979:17091   */\n      iszero\n      tag_493\n      jumpi\n        /* \"#utility.yul\":17010:17089   */\n      tag_494\n      tag_304\n      jump\t// in\n    tag_494:\n        /* \"#utility.yul\":16979:17091   */\n    tag_493:\n        /* \"#utility.yul\":17100:17154   */\n      tag_495\n        /* \"#utility.yul\":17147:17153   */\n      dup5\n        /* \"#utility.yul\":17142:17145   */\n      dup3\n        /* \"#utility.yul\":17137:17140   */\n      dup6\n        /* \"#utility.yul\":17100:17154   */\n      tag_306\n      jump\t// in\n    tag_495:\n        /* \"#utility.yul\":16819:17160   */\n      pop\n        /* \"#utility.yul\":16735:17160   */\n      swap4\n      swap3\n      pop\n      pop\n      pop\n      jump\t// out\n        /* \"#utility.yul\":17180:17520   */\n    tag_308:\n        /* \"#utility.yul\":17236:17241   */\n      0x00\n        /* \"#utility.yul\":17285:17288   */\n      dup3\n        /* \"#utility.yul\":17278:17282   */\n      0x1f\n        /* \"#utility.yul\":17270:17276   */\n      dup4\n        /* \"#utility.yul\":17266:17283   */\n      add\n        /* \"#utility.yul\":17262:17289   */\n      slt\n        /* \"#utility.yul\":17252:17374   */\n      tag_497\n      jumpi\n        /* \"#utility.yul\":17293:17372   */\n      tag_498\n      tag_303\n      jump\t// in\n    tag_498:\n        /* \"#utility.yul\":17252:17374   */\n    tag_497:\n        /* \"#utility.yul\":17410:17416   */\n      dup2\n        /* \"#utility.yul\":17397:17417   */\n      calldataload\n        /* \"#utility.yul\":17435:17514   */\n      tag_499\n        /* \"#utility.yul\":17510:17513   */\n      dup5\n        /* \"#utility.yul\":17502:17508   */\n      dup3\n        /* \"#utility.yul\":17495:17499   */\n      0x20\n        /* \"#utility.yul\":17487:17493   */\n      dup7\n        /* \"#utility.yul\":17483:17500   */\n      add\n        /* \"#utility.yul\":17435:17514   */\n      tag_307\n      jump\t// in\n    tag_499:\n        /* \"#utility.yul\":17426:17514   */\n      swap2\n      pop\n        /* \"#utility.yul\":17242:17520   */\n      pop\n        /* \"#utility.yul\":17180:17520   */\n      swap3\n      swap2\n      pop\n      pop\n      jump\t// out\n        /* \"#utility.yul\":17526:18180   */\n    tag_53:\n        /* \"#utility.yul\":17604:17610   */\n      0x00\n        /* \"#utility.yul\":17612:17618   */\n      0x00\n        /* \"#utility.yul\":17661:17663   */\n      0x40\n        /* \"#utility.yul\":17649:17658   */\n      dup4\n        /* \"#utility.yul\":17640:17647   */\n      dup6\n        /* \"#utility.yul\":17636:17659   */\n      sub\n        /* \"#utility.yul\":17632:17664   */\n      slt\n        /* \"#utility.yul\":17629:17748   */\n      iszero\n      tag_501\n      jumpi\n        /* \"#utility.yul\":17667:17746   */\n      tag_502\n      tag_290\n      jump\t// in\n    tag_502:\n        /* \"#utility.yul\":17629:17748   */\n    tag_501:\n        /* \"#utility.yul\":17815:17816   */\n      0x00\n        /* \"#utility.yul\":17804:17813   */\n      dup4\n        /* \"#utility.yul\":17800:17817   */\n      add\n        /* \"#utility.yul\":17787:17818   */\n      calldataload\n        /* \"#utility.yul\":17845:17863   */\n      0xffffffffffffffff\n        /* \"#utility.yul\":17837:17843   */\n      dup2\n        /* \"#utility.yul\":17834:17864   */\n      gt\n        /* \"#utility.yul\":17831:17948   */\n      iszero\n      tag_503\n      jumpi\n        /* \"#utility.yul\":17867:17946   */\n      tag_504\n      tag_291\n      jump\t// in\n    tag_504:\n        /* \"#utility.yul\":17831:17948   */\n    tag_503:\n        /* \"#utility.yul\":17972:18035   */\n      tag_505\n        /* \"#utility.yul\":18027:18034   */\n      dup6\n        /* \"#utility.yul\":18018:18024   */\n      dup3\n        /* \"#utility.yul\":18007:18016   */\n      dup7\n        /* \"#utility.yul\":18003:18025   */\n      add\n        /* \"#utility.yul\":17972:18035   */\n      tag_308\n      jump\t// in\n    tag_505:\n        /* \"#utility.yul\":17962:18035   */\n      swap3\n      pop\n        /* \"#utility.yul\":17758:18045   */\n      pop\n        /* \"#utility.yul\":18084:18086   */\n      0x20\n        /* \"#utility.yul\":18110:18163   */\n      tag_506\n        /* \"#utility.yul\":18155:18162   */\n      dup6\n        /* \"#utility.yul\":18146:18152   */\n      dup3\n        /* \"#utility.yul\":18135:18144   */\n      dup7\n        /* \"#utility.yul\":18131:18153   */\n      add\n        /* \"#utility.yul\":18110:18163   */\n      tag_293\n      jump\t// in\n    tag_506:\n        /* \"#utility.yul\":18100:18163   */\n      swap2\n      pop\n        /* \"#utility.yul\":18055:18173   */\n      pop\n        /* \"#utility.yul\":17526:18180   */\n      swap3\n      pop\n      swap3\n      swap1\n      pop\n      jump\t// out\n        /* \"#utility.yul\":18186:18276   */\n    tag_309:\n        /* \"#utility.yul\":18220:18227   */\n      0x00\n        /* \"#utility.yul\":18263:18268   */\n      dup2\n        /* \"#utility.yul\":18256:18269   */\n      iszero\n        /* \"#utility.yul\":18249:18270   */\n      iszero\n        /* \"#utility.yul\":18238:18270   */\n      swap1\n      pop\n        /* \"#utility.yul\":18186:18276   */\n      swap2\n      swap1\n      pop\n      jump\t// out\n        /* \"#utility.yul\":18282:18391   */\n    tag_310:\n        /* \"#utility.yul\":18363:18384   */\n      tag_509\n        /* \"#utility.yul\":18378:18383   */\n      dup2\n        /* \"#utility.yul\":18363:18384   */\n      tag_309\n      jump\t// in\n    tag_509:\n        /* \"#utility.yul\":18358:18361   */\n      dup3\n        /* \"#utility.yul\":18351:18385   */\n      mstore\n        /* \"#utility.yul\":18282:18391   */\n      pop\n      pop\n      jump\t// out\n        /* \"#utility.yul\":18397:18607   */\n    tag_56:\n        /* \"#utility.yul\":18484:18488   */\n      0x00\n        /* \"#utility.yul\":18522:18524   */\n      0x20\n        /* \"#utility.yul\":18511:18520   */\n      dup3\n        /* \"#utility.yul\":18507:18525   */\n      add\n        /* \"#utility.yul\":18499:18525   */\n      swap1\n      pop\n        /* \"#utility.yul\":18535:18600   */\n      tag_511\n        /* \"#utility.yul\":18597:18598   */\n      0x00\n        /* \"#utility.yul\":18586:18595   */\n      dup4\n        /* \"#utility.yul\":18582:18599   */\n      add\n        /* \"#utility.yul\":18573:18579   */\n      dup5\n        /* \"#utility.yul\":18535:18600   */\n      tag_310\n      jump\t// in\n    tag_511:\n        /* \"#utility.yul\":18397:18607   */\n      swap3\n      swap2\n      pop\n      pop\n      jump\t// out\n        /* \"#utility.yul\":18613:19122   */\n    tag_64:\n        /* \"#utility.yul\":18682:18688   */\n      0x00\n        /* \"#utility.yul\":18731:18733   */\n      0x20\n        /* \"#utility.yul\":18719:18728   */\n      dup3\n        /* \"#utility.yul\":18710:18717   */\n      dup5\n        /* \"#utility.yul\":18706:18729   */\n      sub\n        /* \"#utility.yul\":18702:18734   */\n      slt\n        /* \"#utility.yul\":18699:18818   */\n      iszero\n      tag_513\n      jumpi\n        /* \"#utility.yul\":18737:18816   */\n      tag_514\n      tag_290\n      jump\t// in\n    tag_514:\n        /* \"#utility.yul\":18699:18818   */\n    tag_513:\n        /* \"#utility.yul\":18885:18886   */\n      0x00\n        /* \"#utility.yul\":18874:18883   */\n      dup3\n        /* \"#utility.yul\":18870:18887   */\n      add\n        /* \"#utility.yul\":18857:18888   */\n      calldataload\n        /* \"#utility.yul\":18915:18933   */\n      0xffffffffffffffff\n        /* \"#utility.yul\":18907:18913   */\n      dup2\n        /* \"#utility.yul\":18904:18934   */\n      gt\n        /* \"#utility.yul\":18901:19018   */\n      iszero\n      tag_515\n      jumpi\n        /* \"#utility.yul\":18937:19016   */\n      tag_516\n      tag_291\n      jump\t// in\n    tag_516:\n        /* \"#utility.yul\":18901:19018   */\n    tag_515:\n        /* \"#utility.yul\":19042:19105   */\n      tag_517\n        /* \"#utility.yul\":19097:19104   */\n      dup5\n        /* \"#utility.yul\":19088:19094   */\n      dup3\n        /* \"#utility.yul\":19077:19086   */\n      dup6\n        /* \"#utility.yul\":19073:19095   */\n      add\n        /* \"#utility.yul\":19042:19105   */\n      tag_308\n      jump\t// in\n    tag_517:\n        /* \"#utility.yul\":19032:19105   */\n      swap2\n      pop\n        /* \"#utility.yul\":18828:19115   */\n      pop\n        /* \"#utility.yul\":18613:19122   */\n      swap3\n      swap2\n      pop\n      pop\n      jump\t// out\n        /* \"#utility.yul\":19128:19271   */\n    tag_311:\n        /* \"#utility.yul\":19185:19190   */\n      0x00\n        /* \"#utility.yul\":19216:19222   */\n      dup2\n        /* \"#utility.yul\":19210:19223   */\n      mload\n        /* \"#utility.yul\":19201:19223   */\n      swap1\n      pop\n        /* \"#utility.yul\":19232:19265   */\n      tag_519\n        /* \"#utility.yul\":19259:19264   */\n      dup2\n        /* \"#utility.yul\":19232:19265   */\n      tag_299\n      jump\t// in\n    tag_519:\n        /* \"#utility.yul\":19128:19271   */\n      swap3\n      swap2\n      pop\n      pop\n      jump\t// out\n        /* \"#utility.yul\":19277:19628   */\n    tag_74:\n        /* \"#utility.yul\":19347:19353   */\n      0x00\n        /* \"#utility.yul\":19396:19398   */\n      0x20\n        /* \"#utility.yul\":19384:19393   */\n      dup3\n        /* \"#utility.yul\":19375:19382   */\n      dup5\n        /* \"#utility.yul\":19371:19394   */\n      sub\n        /* \"#utility.yul\":19367:19399   */\n      slt\n        /* \"#utility.yul\":19364:19483   */\n      iszero\n      tag_521\n      jumpi\n        /* \"#utility.yul\":19402:19481   */\n      tag_522\n      tag_290\n      jump\t// in\n    tag_522:\n        /* \"#utility.yul\":19364:19483   */\n    tag_521:\n        /* \"#utility.yul\":19522:19523   */\n      0x00\n        /* \"#utility.yul\":19547:19611   */\n      tag_523\n        /* \"#utility.yul\":19603:19610   */\n      dup5\n        /* \"#utility.yul\":19594:19600   */\n      dup3\n        /* \"#utility.yul\":19583:19592   */\n      dup6\n        /* \"#utility.yul\":19579:19601   */\n      add\n        /* \"#utility.yul\":19547:19611   */\n      tag_311\n      jump\t// in\n    tag_523:\n        /* \"#utility.yul\":19537:19611   */\n      swap2\n      pop\n        /* \"#utility.yul\":19493:19621   */\n      pop\n        /* \"#utility.yul\":19277:19628   */\n      swap3\n      swap2\n      pop\n      pop\n      jump\t// out\n        /* \"#utility.yul\":19634:19802   */\n    tag_312:\n        /* \"#utility.yul\":19774:19794   */\n      0x50656e73696f6e2041646d696e204f6e6c790000000000000000000000000000\n        /* \"#utility.yul\":19770:19771   */\n      0x00\n        /* \"#utility.yul\":19762:19768   */\n      dup3\n        /* \"#utility.yul\":19758:19772   */\n      add\n        /* \"#utility.yul\":19751:19795   */\n      mstore\n        /* \"#utility.yul\":19634:19802   */\n      pop\n      jump\t// out\n        /* \"#utility.yul\":19808:20174   */\n    tag_313:\n        /* \"#utility.yul\":19950:19953   */\n      0x00\n        /* \"#utility.yul\":19971:20038   */\n      tag_526\n        /* \"#utility.yul\":20035:20037   */\n      0x12\n        /* \"#utility.yul\":20030:20033   */\n      dup4\n        /* \"#utility.yul\":19971:20038   */\n      tag_263\n      jump\t// in\n    tag_526:\n        /* \"#utility.yul\":19964:20038   */\n      swap2\n      pop\n        /* \"#utility.yul\":20047:20140   */\n      tag_527\n        /* \"#utility.yul\":20136:20139   */\n      dup3\n        /* \"#utility.yul\":20047:20140   */\n      tag_312\n      jump\t// in\n    tag_527:\n        /* \"#utility.yul\":20165:20167   */\n      0x20\n        /* \"#utility.yul\":20160:20163   */\n      dup3\n        /* \"#utility.yul\":20156:20168   */\n      add\n        /* \"#utility.yul\":20149:20168   */\n      swap1\n      pop\n        /* \"#utility.yul\":19808:20174   */\n      swap2\n      swap1\n      pop\n      jump\t// out\n        /* \"#utility.yul\":20180:20599   */\n    tag_77:\n        /* \"#utility.yul\":20346:20350   */\n      0x00\n        /* \"#utility.yul\":20384:20386   */\n      0x20\n        /* \"#utility.yul\":20373:20382   */\n      dup3\n        /* \"#utility.yul\":20369:20387   */\n      add\n        /* \"#utility.yul\":20361:20387   */\n      swap1\n      pop\n        /* \"#utility.yul\":20433:20442   */\n      dup2\n        /* \"#utility.yul\":20427:20431   */\n      dup2\n        /* \"#utility.yul\":20423:20443   */\n      sub\n        /* \"#utility.yul\":20419:20420   */\n      0x00\n        /* \"#utility.yul\":20408:20417   */\n      dup4\n        /* \"#utility.yul\":20404:20421   */\n      add\n        /* \"#utility.yul\":20397:20444   */\n      mstore\n        /* \"#utility.yul\":20461:20592   */\n      tag_529\n        /* \"#utility.yul\":20587:20591   */\n      dup2\n        /* \"#utility.yul\":20461:20592   */\n      tag_313\n      jump\t// in\n    tag_529:\n        /* \"#utility.yul\":20453:20592   */\n      swap1\n      pop\n        /* \"#utility.yul\":20180:20599   */\n      swap2\n      swap1\n      pop\n      jump\t// out\n        /* \"#utility.yul\":20605:20785   */\n    tag_314:\n        /* \"#utility.yul\":20653:20730   */\n      0x4e487b7100000000000000000000000000000000000000000000000000000000\n        /* \"#utility.yul\":20650:20651   */\n      0x00\n        /* \"#utility.yul\":20643:20731   */\n      mstore\n        /* \"#utility.yul\":20750:20754   */\n      0x11\n        /* \"#utility.yul\":20747:20748   */\n      0x04\n        /* \"#utility.yul\":20740:20755   */\n      mstore\n        /* \"#utility.yul\":20774:20778   */\n      0x24\n        /* \"#utility.yul\":20771:20772   */\n      0x00\n        /* \"#utility.yul\":20764:20779   */\n      revert\n        /* \"#utility.yul\":20791:20982   */\n    tag_120:\n        /* \"#utility.yul\":20831:20834   */\n      0x00\n        /* \"#utility.yul\":20850:20870   */\n      tag_532\n        /* \"#utility.yul\":20868:20869   */\n      dup3\n        /* \"#utility.yul\":20850:20870   */\n      tag_260\n      jump\t// in\n    tag_532:\n        /* \"#utility.yul\":20845:20870   */\n      swap2\n      pop\n        /* \"#utility.yul\":20884:20904   */\n      tag_533\n        /* \"#utility.yul\":20902:20903   */\n      dup4\n        /* \"#utility.yul\":20884:20904   */\n      tag_260\n      jump\t// in\n    tag_533:\n        /* \"#utility.yul\":20879:20904   */\n      swap3\n      pop\n        /* \"#utility.yul\":20927:20928   */\n      dup3\n        /* \"#utility.yul\":20924:20925   */\n      dup3\n        /* \"#utility.yul\":20920:20929   */\n      add\n        /* \"#utility.yul\":20913:20929   */\n      swap1\n      pop\n        /* \"#utility.yul\":20948:20951   */\n      dup1\n        /* \"#utility.yul\":20945:20946   */\n      dup3\n        /* \"#utility.yul\":20942:20952   */\n      gt\n        /* \"#utility.yul\":20939:20975   */\n      iszero\n      tag_534\n      jumpi\n        /* \"#utility.yul\":20955:20973   */\n      tag_535\n      tag_314\n      jump\t// in\n    tag_535:\n        /* \"#utility.yul\":20939:20975   */\n    tag_534:\n        /* \"#utility.yul\":20791:20982   */\n      swap3\n      swap2\n      pop\n      pop\n      jump\t// out\n        /* \"#utility.yul\":20988:21136   */\n    tag_315:\n        /* \"#utility.yul\":21090:21101   */\n      0x00\n        /* \"#utility.yul\":21127:21130   */\n      dup2\n        /* \"#utility.yul\":21112:21130   */\n      swap1\n      pop\n        /* \"#utility.yul\":20988:21136   */\n      swap3\n      swap2\n      pop\n      pop\n      jump\t// out\n        /* \"#utility.yul\":21142:21532   */\n    tag_316:\n        /* \"#utility.yul\":21248:21251   */\n      0x00\n        /* \"#utility.yul\":21276:21315   */\n      tag_538\n        /* \"#utility.yul\":21309:21314   */\n      dup3\n        /* \"#utility.yul\":21276:21315   */\n      tag_262\n      jump\t// in\n    tag_538:\n        /* \"#utility.yul\":21331:21420   */\n      tag_539\n        /* \"#utility.yul\":21413:21419   */\n      dup2\n        /* \"#utility.yul\":21408:21411   */\n      dup6\n        /* \"#utility.yul\":21331:21420   */\n      tag_315\n      jump\t// in\n    tag_539:\n        /* \"#utility.yul\":21324:21420   */\n      swap4\n      pop\n        /* \"#utility.yul\":21429:21494   */\n      tag_540\n        /* \"#utility.yul\":21487:21493   */\n      dup2\n        /* \"#utility.yul\":21482:21485   */\n      dup6\n        /* \"#utility.yul\":21475:21479   */\n      0x20\n        /* \"#utility.yul\":21468:21473   */\n      dup7\n        /* \"#utility.yul\":21464:21480   */\n      add\n        /* \"#utility.yul\":21429:21494   */\n      tag_264\n      jump\t// in\n    tag_540:\n        /* \"#utility.yul\":21519:21525   */\n      dup1\n        /* \"#utility.yul\":21514:21517   */\n      dup5\n        /* \"#utility.yul\":21510:21526   */\n      add\n        /* \"#utility.yul\":21503:21526   */\n      swap2\n      pop\n        /* \"#utility.yul\":21252:21532   */\n      pop\n        /* \"#utility.yul\":21142:21532   */\n      swap3\n      swap2\n      pop\n      pop\n      jump\t// out\n        /* \"#utility.yul\":21538:21813   */\n    tag_132:\n        /* \"#utility.yul\":21670:21673   */\n      0x00\n        /* \"#utility.yul\":21692:21787   */\n      tag_542\n        /* \"#utility.yul\":21783:21786   */\n      dup3\n        /* \"#utility.yul\":21774:21780   */\n      dup5\n        /* \"#utility.yul\":21692:21787   */\n      tag_316\n      jump\t// in\n    tag_542:\n        /* \"#utility.yul\":21685:21787   */\n      swap2\n      pop\n        /* \"#utility.yul\":21804:21807   */\n      dup2\n        /* \"#utility.yul\":21797:21807   */\n      swap1\n      pop\n        /* \"#utility.yul\":21538:21813   */\n      swap3\n      swap2\n      pop\n      pop\n      jump\t// out\n        /* \"#utility.yul\":21819:22253   */\n    tag_317:\n        /* \"#utility.yul\":21908:21913   */\n      0x00\n        /* \"#utility.yul\":21933:21999   */\n      tag_544\n        /* \"#utility.yul\":21949:21998   */\n      tag_545\n        /* \"#utility.yul\":21991:21997   */\n      dup5\n        /* \"#utility.yul\":21949:21998   */\n      tag_305\n      jump\t// in\n    tag_545:\n        /* \"#utility.yul\":21933:21999   */\n      tag_297\n      jump\t// in\n    tag_544:\n        /* \"#utility.yul\":21924:21999   */\n      swap1\n      pop\n        /* \"#utility.yul\":22022:22028   */\n      dup3\n        /* \"#utility.yul\":22015:22020   */\n      dup2\n        /* \"#utility.yul\":22008:22029   */\n      mstore\n        /* \"#utility.yul\":22060:22064   */\n      0x20\n        /* \"#utility.yul\":22053:22058   */\n      dup2\n        /* \"#utility.yul\":22049:22065   */\n      add\n        /* \"#utility.yul\":22098:22101   */\n      dup5\n        /* \"#utility.yul\":22089:22095   */\n      dup5\n        /* \"#utility.yul\":22084:22087   */\n      dup5\n        /* \"#utility.yul\":22080:22096   */\n      add\n        /* \"#utility.yul\":22077:22102   */\n      gt\n        /* \"#utility.yul\":22074:22186   */\n      iszero\n      tag_546\n      jumpi\n        /* \"#utility.yul\":22105:22184   */\n      tag_547\n      tag_304\n      jump\t// in\n    tag_547:\n        /* \"#utility.yul\":22074:22186   */\n    tag_546:\n        /* \"#utility.yul\":22195:22247   */\n      tag_548\n        /* \"#utility.yul\":22240:22246   */\n      dup5\n        /* \"#utility.yul\":22235:22238   */\n      dup3\n        /* \"#utility.yul\":22230:22233   */\n      dup6\n        /* \"#utility.yul\":22195:22247   */\n      tag_264\n      jump\t// in\n    tag_548:\n        /* \"#utility.yul\":21914:22253   */\n      pop\n        /* \"#utility.yul\":21819:22253   */\n      swap4\n      swap3\n      pop\n      pop\n      pop\n      jump\t// out\n        /* \"#utility.yul\":22273:22628   */\n    tag_318:\n        /* \"#utility.yul\":22340:22345   */\n      0x00\n        /* \"#utility.yul\":22389:22392   */\n      dup3\n        /* \"#utility.yul\":22382:22386   */\n      0x1f\n        /* \"#utility.yul\":22374:22380   */\n      dup4\n        /* \"#utility.yul\":22370:22387   */\n      add\n        /* \"#utility.yul\":22366:22393   */\n      slt\n        /* \"#utility.yul\":22356:22478   */\n      tag_550\n      jumpi\n        /* \"#utility.yul\":22397:22476   */\n      tag_551\n      tag_303\n      jump\t// in\n    tag_551:\n        /* \"#utility.yul\":22356:22478   */\n    tag_550:\n        /* \"#utility.yul\":22507:22513   */\n      dup2\n        /* \"#utility.yul\":22501:22514   */\n      mload\n        /* \"#utility.yul\":22532:22622   */\n      tag_552\n        /* \"#utility.yul\":22618:22621   */\n      dup5\n        /* \"#utility.yul\":22610:22616   */\n      dup3\n        /* \"#utility.yul\":22603:22607   */\n      0x20\n        /* \"#utility.yul\":22595:22601   */\n      dup7\n        /* \"#utility.yul\":22591:22608   */\n      add\n        /* \"#utility.yul\":22532:22622   */\n      tag_317\n      jump\t// in\n    tag_552:\n        /* \"#utility.yul\":22523:22622   */\n      swap2\n      pop\n        /* \"#utility.yul\":22346:22628   */\n      pop\n        /* \"#utility.yul\":22273:22628   */\n      swap3\n      swap2\n      pop\n      pop\n      jump\t// out\n        /* \"#utility.yul\":22634:23158   */\n    tag_146:\n        /* \"#utility.yul\":22714:22720   */\n      0x00\n        /* \"#utility.yul\":22763:22765   */\n      0x20\n        /* \"#utility.yul\":22751:22760   */\n      dup3\n        /* \"#utility.yul\":22742:22749   */\n      dup5\n        /* \"#utility.yul\":22738:22761   */\n      sub\n        /* \"#utility.yul\":22734:22766   */\n      slt\n        /* \"#utility.yul\":22731:22850   */\n      iszero\n      tag_554\n      jumpi\n        /* \"#utility.yul\":22769:22848   */\n      tag_555\n      tag_290\n      jump\t// in\n    tag_555:\n        /* \"#utility.yul\":22731:22850   */\n    tag_554:\n        /* \"#utility.yul\":22910:22911   */\n      0x00\n        /* \"#utility.yul\":22899:22908   */\n      dup3\n        /* \"#utility.yul\":22895:22912   */\n      add\n        /* \"#utility.yul\":22889:22913   */\n      mload\n        /* \"#utility.yul\":22940:22958   */\n      0xffffffffffffffff\n        /* \"#utility.yul\":22932:22938   */\n      dup2\n        /* \"#utility.yul\":22929:22959   */\n      gt\n        /* \"#utility.yul\":22926:23043   */\n      iszero\n      tag_556\n      jumpi\n        /* \"#utility.yul\":22962:23041   */\n      tag_557\n      tag_291\n      jump\t// in\n    tag_557:\n        /* \"#utility.yul\":22926:23043   */\n    tag_556:\n        /* \"#utility.yul\":23067:23141   */\n      tag_558\n        /* \"#utility.yul\":23133:23140   */\n      dup5\n        /* \"#utility.yul\":23124:23130   */\n      dup3\n        /* \"#utility.yul\":23113:23122   */\n      dup6\n        /* \"#utility.yul\":23109:23131   */\n      add\n        /* \"#utility.yul\":23067:23141   */\n      tag_318\n      jump\t// in\n    tag_558:\n        /* \"#utility.yul\":23057:23141   */\n      swap2\n      pop\n        /* \"#utility.yul\":22860:23151   */\n      pop\n        /* \"#utility.yul\":22634:23158   */\n      swap3\n      swap2\n      pop\n      pop\n      jump\t// out\n        /* \"#utility.yul\":23164:23344   */\n    tag_319:\n        /* \"#utility.yul\":23304:23336   */\n      0x696e73756666696369656e742070656e73696f6e207365747570206665650000\n        /* \"#utility.yul\":23300:23301   */\n      0x00\n        /* \"#utility.yul\":23292:23298   */\n      dup3\n        /* \"#utility.yul\":23288:23302   */\n      add\n        /* \"#utility.yul\":23281:23337   */\n      mstore\n        /* \"#utility.yul\":23164:23344   */\n      pop\n      jump\t// out\n        /* \"#utility.yul\":23350:23716   */\n    tag_320:\n        /* \"#utility.yul\":23492:23495   */\n      0x00\n        /* \"#utility.yul\":23513:23580   */\n      tag_561\n        /* \"#utility.yul\":23577:23579   */\n      0x1e\n        /* \"#utility.yul\":23572:23575   */\n      dup4\n        /* \"#utility.yul\":23513:23580   */\n      tag_263\n      jump\t// in\n    tag_561:\n        /* \"#utility.yul\":23506:23580   */\n      swap2\n      pop\n        /* \"#utility.yul\":23589:23682   */\n      tag_562\n        /* \"#utility.yul\":23678:23681   */\n      dup3\n        /* \"#utility.yul\":23589:23682   */\n      tag_319\n      jump\t// in\n    tag_562:\n        /* \"#utility.yul\":23707:23709   */\n      0x20\n        /* \"#utility.yul\":23702:23705   */\n      dup3\n        /* \"#utility.yul\":23698:23710   */\n      add\n        /* \"#utility.yul\":23691:23710   */\n      swap1\n      pop\n        /* \"#utility.yul\":23350:23716   */\n      swap2\n      swap1\n      pop\n      jump\t// out\n        /* \"#utility.yul\":23722:24141   */\n    tag_187:\n        /* \"#utility.yul\":23888:23892   */\n      0x00\n        /* \"#utility.yul\":23926:23928   */\n      0x20\n        /* \"#utility.yul\":23915:23924   */\n      dup3\n        /* \"#utility.yul\":23911:23929   */\n      add\n        /* \"#utility.yul\":23903:23929   */\n      swap1\n      pop\n        /* \"#utility.yul\":23975:23984   */\n      dup2\n        /* \"#utility.yul\":23969:23973   */\n      dup2\n        /* \"#utility.yul\":23965:23985   */\n      sub\n        /* \"#utility.yul\":23961:23962   */\n      0x00\n        /* \"#utility.yul\":23950:23959   */\n      dup4\n        /* \"#utility.yul\":23946:23963   */\n      add\n        /* \"#utility.yul\":23939:23986   */\n      mstore\n        /* \"#utility.yul\":24003:24134   */\n      tag_564\n        /* \"#utility.yul\":24129:24133   */\n      dup2\n        /* \"#utility.yul\":24003:24134   */\n      tag_320\n      jump\t// in\n    tag_564:\n        /* \"#utility.yul\":23995:24134   */\n      swap1\n      pop\n        /* \"#utility.yul\":23722:24141   */\n      swap2\n      swap1\n      pop\n      jump\t// out\n        /* \"#utility.yul\":24147:24589   */\n    tag_192:\n        /* \"#utility.yul\":24296:24300   */\n      0x00\n        /* \"#utility.yul\":24334:24336   */\n      0x60\n        /* \"#utility.yul\":24323:24332   */\n      dup3\n        /* \"#utility.yul\":24319:24337   */\n      add\n        /* \"#utility.yul\":24311:24337   */\n      swap1\n      pop\n        /* \"#utility.yul\":24347:24418   */\n      tag_566\n        /* \"#utility.yul\":24415:24416   */\n      0x00\n        /* \"#utility.yul\":24404:24413   */\n      dup4\n        /* \"#utility.yul\":24400:24417   */\n      add\n        /* \"#utility.yul\":24391:24397   */\n      dup7\n        /* \"#utility.yul\":24347:24418   */\n      tag_302\n      jump\t// in\n    tag_566:\n        /* \"#utility.yul\":24428:24500   */\n      tag_567\n        /* \"#utility.yul\":24496:24498   */\n      0x20\n        /* \"#utility.yul\":24485:24494   */\n      dup4\n        /* \"#utility.yul\":24481:24499   */\n      add\n        /* \"#utility.yul\":24472:24478   */\n      dup6\n        /* \"#utility.yul\":24428:24500   */\n      tag_302\n      jump\t// in\n    tag_567:\n        /* \"#utility.yul\":24510:24582   */\n      tag_568\n        /* \"#utility.yul\":24578:24580   */\n      0x40\n        /* \"#utility.yul\":24567:24576   */\n      dup4\n        /* \"#utility.yul\":24563:24581   */\n      add\n        /* \"#utility.yul\":24554:24560   */\n      dup5\n        /* \"#utility.yul\":24510:24582   */\n      tag_261\n      jump\t// in\n    tag_568:\n        /* \"#utility.yul\":24147:24589   */\n      swap5\n      swap4\n      pop\n      pop\n      pop\n      pop\n      jump\t// out\n        /* \"#utility.yul\":24595:24711   */\n    tag_321:\n        /* \"#utility.yul\":24665:24686   */\n      tag_570\n        /* \"#utility.yul\":24680:24685   */\n      dup2\n        /* \"#utility.yul\":24665:24686   */\n      tag_309\n      jump\t// in\n    tag_570:\n        /* \"#utility.yul\":24658:24663   */\n      dup2\n        /* \"#utility.yul\":24655:24687   */\n      eq\n        /* \"#utility.yul\":24645:24705   */\n      tag_571\n      jumpi\n        /* \"#utility.yul\":24701:24702   */\n      0x00\n        /* \"#utility.yul\":24698:24699   */\n      0x00\n        /* \"#utility.yul\":24691:24703   */\n      revert\n        /* \"#utility.yul\":24645:24705   */\n    tag_571:\n        /* \"#utility.yul\":24595:24711   */\n      pop\n      jump\t// out\n        /* \"#utility.yul\":24717:24854   */\n    tag_322:\n        /* \"#utility.yul\":24771:24776   */\n      0x00\n        /* \"#utility.yul\":24802:24808   */\n      dup2\n        /* \"#utility.yul\":24796:24809   */\n      mload\n        /* \"#utility.yul\":24787:24809   */\n      swap1\n      pop\n        /* \"#utility.yul\":24818:24848   */\n      tag_573\n        /* \"#utility.yul\":24842:24847   */\n      dup2\n        /* \"#utility.yul\":24818:24848   */\n      tag_321\n      jump\t// in\n    tag_573:\n        /* \"#utility.yul\":24717:24854   */\n      swap3\n      swap2\n      pop\n      pop\n      jump\t// out\n        /* \"#utility.yul\":24860:25205   */\n    tag_196:\n        /* \"#utility.yul\":24927:24933   */\n      0x00\n        /* \"#utility.yul\":24976:24978   */\n      0x20\n        /* \"#utility.yul\":24964:24973   */\n      dup3\n        /* \"#utility.yul\":24955:24962   */\n      dup5\n        /* \"#utility.yul\":24951:24974   */\n      sub\n        /* \"#utility.yul\":24947:24979   */\n      slt\n        /* \"#utility.yul\":24944:25063   */\n      iszero\n      tag_575\n      jumpi\n        /* \"#utility.yul\":24982:25061   */\n      tag_576\n      tag_290\n      jump\t// in\n    tag_576:\n        /* \"#utility.yul\":24944:25063   */\n    tag_575:\n        /* \"#utility.yul\":25102:25103   */\n      0x00\n        /* \"#utility.yul\":25127:25188   */\n      tag_577\n        /* \"#utility.yul\":25180:25187   */\n      dup5\n        /* \"#utility.yul\":25171:25177   */\n      dup3\n        /* \"#utility.yul\":25160:25169   */\n      dup6\n        /* \"#utility.yul\":25156:25178   */\n      add\n        /* \"#utility.yul\":25127:25188   */\n      tag_322\n      jump\t// in\n    tag_577:\n        /* \"#utility.yul\":25117:25188   */\n      swap2\n      pop\n        /* \"#utility.yul\":25073:25198   */\n      pop\n        /* \"#utility.yul\":24860:25205   */\n      swap3\n      swap2\n      pop\n      pop\n      jump\t// out\n        /* \"#utility.yul\":25211:25354   */\n    tag_323:\n        /* \"#utility.yul\":25268:25273   */\n      0x00\n        /* \"#utility.yul\":25299:25305   */\n      dup2\n        /* \"#utility.yul\":25293:25306   */\n      mload\n        /* \"#utility.yul\":25284:25306   */\n      swap1\n      pop\n        /* \"#utility.yul\":25315:25348   */\n      tag_579\n        /* \"#utility.yul\":25342:25347   */\n      dup2\n        /* \"#utility.yul\":25315:25348   */\n      tag_292\n      jump\t// in\n    tag_579:\n        /* \"#utility.yul\":25211:25354   */\n      swap3\n      swap2\n      pop\n      pop\n      jump\t// out\n        /* \"#utility.yul\":25360:25472   */\n    tag_324:\n        /* \"#utility.yul\":25446:25447   */\n      0x03\n        /* \"#utility.yul\":25439:25444   */\n      dup2\n        /* \"#utility.yul\":25436:25448   */\n      lt\n        /* \"#utility.yul\":25426:25466   */\n      tag_581\n      jumpi\n        /* \"#utility.yul\":25462:25463   */\n      0x00\n        /* \"#utility.yul\":25459:25460   */\n      0x00\n        /* \"#utility.yul\":25452:25464   */\n      revert\n        /* \"#utility.yul\":25426:25466   */\n    tag_581:\n        /* \"#utility.yul\":25360:25472   */\n      pop\n      jump\t// out\n        /* \"#utility.yul\":25478:25647   */\n    tag_325:\n        /* \"#utility.yul\":25548:25553   */\n      0x00\n        /* \"#utility.yul\":25579:25585   */\n      dup2\n        /* \"#utility.yul\":25573:25586   */\n      mload\n        /* \"#utility.yul\":25564:25586   */\n      swap1\n      pop\n        /* \"#utility.yul\":25595:25641   */\n      tag_583\n        /* \"#utility.yul\":25635:25640   */\n      dup2\n        /* \"#utility.yul\":25595:25641   */\n      tag_324\n      jump\t// in\n    tag_583:\n        /* \"#utility.yul\":25478:25647   */\n      swap3\n      swap2\n      pop\n      pop\n      jump\t// out\n        /* \"#utility.yul\":25653:25765   */\n    tag_326:\n        /* \"#utility.yul\":25739:25740   */\n      0x04\n        /* \"#utility.yul\":25732:25737   */\n      dup2\n        /* \"#utility.yul\":25729:25741   */\n      lt\n        /* \"#utility.yul\":25719:25759   */\n      tag_585\n      jumpi\n        /* \"#utility.yul\":25755:25756   */\n      0x00\n        /* \"#utility.yul\":25752:25753   */\n      0x00\n        /* \"#utility.yul\":25745:25757   */\n      revert\n        /* \"#utility.yul\":25719:25759   */\n    tag_585:\n        /* \"#utility.yul\":25653:25765   */\n      pop\n      jump\t// out\n        /* \"#utility.yul\":25771:25940   */\n    tag_327:\n        /* \"#utility.yul\":25841:25846   */\n      0x00\n        /* \"#utility.yul\":25872:25878   */\n      dup2\n        /* \"#utility.yul\":25866:25879   */\n      mload\n        /* \"#utility.yul\":25857:25879   */\n      swap1\n      pop\n        /* \"#utility.yul\":25888:25934   */\n      tag_587\n        /* \"#utility.yul\":25928:25933   */\n      dup2\n        /* \"#utility.yul\":25888:25934   */\n      tag_326\n      jump\t// in\n    tag_587:\n        /* \"#utility.yul\":25771:25940   */\n      swap3\n      swap2\n      pop\n      pop\n      jump\t// out\n        /* \"#utility.yul\":25978:27337   */\n    tag_328:\n        /* \"#utility.yul\":26073:26078   */\n      0x00\n        /* \"#utility.yul\":26117:26121   */\n      0xc0\n        /* \"#utility.yul\":26105:26114   */\n      dup3\n        /* \"#utility.yul\":26100:26103   */\n      dup5\n        /* \"#utility.yul\":26096:26115   */\n      sub\n        /* \"#utility.yul\":26092:26122   */\n      slt\n        /* \"#utility.yul\":26089:26206   */\n      iszero\n      tag_589\n      jumpi\n        /* \"#utility.yul\":26125:26204   */\n      tag_590\n      tag_294\n      jump\t// in\n    tag_590:\n        /* \"#utility.yul\":26089:26206   */\n    tag_589:\n        /* \"#utility.yul\":26224:26245   */\n      tag_591\n        /* \"#utility.yul\":26240:26244   */\n      0xc0\n        /* \"#utility.yul\":26224:26245   */\n      tag_297\n      jump\t// in\n    tag_591:\n        /* \"#utility.yul\":26215:26245   */\n      swap1\n      pop\n        /* \"#utility.yul\":26308:26309   */\n      0x00\n        /* \"#utility.yul\":26348:26421   */\n      tag_592\n        /* \"#utility.yul\":26417:26420   */\n      dup5\n        /* \"#utility.yul\":26408:26414   */\n      dup3\n        /* \"#utility.yul\":26397:26406   */\n      dup6\n        /* \"#utility.yul\":26393:26415   */\n      add\n        /* \"#utility.yul\":26348:26421   */\n      tag_327\n      jump\t// in\n    tag_592:\n        /* \"#utility.yul\":26341:26345   */\n      0x00\n        /* \"#utility.yul\":26334:26339   */\n      dup4\n        /* \"#utility.yul\":26330:26346   */\n      add\n        /* \"#utility.yul\":26323:26422   */\n      mstore\n        /* \"#utility.yul\":26255:26433   */\n      pop\n        /* \"#utility.yul\":26492:26494   */\n      0x20\n        /* \"#utility.yul\":26533:26593   */\n      tag_593\n        /* \"#utility.yul\":26589:26592   */\n      dup5\n        /* \"#utility.yul\":26580:26586   */\n      dup3\n        /* \"#utility.yul\":26569:26578   */\n      dup6\n        /* \"#utility.yul\":26565:26587   */\n      add\n        /* \"#utility.yul\":26533:26593   */\n      tag_323\n      jump\t// in\n    tag_593:\n        /* \"#utility.yul\":26526:26530   */\n      0x20\n        /* \"#utility.yul\":26519:26524   */\n      dup4\n        /* \"#utility.yul\":26515:26531   */\n      add\n        /* \"#utility.yul\":26508:26594   */\n      mstore\n        /* \"#utility.yul\":26443:26605   */\n      pop\n        /* \"#utility.yul\":26673:26675   */\n      0x40\n        /* \"#utility.yul\":26714:26774   */\n      tag_594\n        /* \"#utility.yul\":26770:26773   */\n      dup5\n        /* \"#utility.yul\":26761:26767   */\n      dup3\n        /* \"#utility.yul\":26750:26759   */\n      dup6\n        /* \"#utility.yul\":26746:26768   */\n      add\n        /* \"#utility.yul\":26714:26774   */\n      tag_323\n      jump\t// in\n    tag_594:\n        /* \"#utility.yul\":26707:26711   */\n      0x40\n        /* \"#utility.yul\":26700:26705   */\n      dup4\n        /* \"#utility.yul\":26696:26712   */\n      add\n        /* \"#utility.yul\":26689:26775   */\n      mstore\n        /* \"#utility.yul\":26615:26786   */\n      pop\n        /* \"#utility.yul\":26854:26856   */\n      0x60\n        /* \"#utility.yul\":26895:26955   */\n      tag_595\n        /* \"#utility.yul\":26951:26954   */\n      dup5\n        /* \"#utility.yul\":26942:26948   */\n      dup3\n        /* \"#utility.yul\":26931:26940   */\n      dup6\n        /* \"#utility.yul\":26927:26949   */\n      add\n        /* \"#utility.yul\":26895:26955   */\n      tag_323\n      jump\t// in\n    tag_595:\n        /* \"#utility.yul\":26888:26892   */\n      0x60\n        /* \"#utility.yul\":26881:26886   */\n      dup4\n        /* \"#utility.yul\":26877:26893   */\n      add\n        /* \"#utility.yul\":26870:26956   */\n      mstore\n        /* \"#utility.yul\":26796:26967   */\n      pop\n        /* \"#utility.yul\":27036:27039   */\n      0x80\n        /* \"#utility.yul\":27078:27138   */\n      tag_596\n        /* \"#utility.yul\":27134:27137   */\n      dup5\n        /* \"#utility.yul\":27125:27131   */\n      dup3\n        /* \"#utility.yul\":27114:27123   */\n      dup6\n        /* \"#utility.yul\":27110:27132   */\n      add\n        /* \"#utility.yul\":27078:27138   */\n      tag_323\n      jump\t// in\n    tag_596:\n        /* \"#utility.yul\":27071:27075   */\n      0x80\n        /* \"#utility.yul\":27064:27069   */\n      dup4\n        /* \"#utility.yul\":27060:27076   */\n      add\n        /* \"#utility.yul\":27053:27139   */\n      mstore\n        /* \"#utility.yul\":26977:27150   */\n      pop\n        /* \"#utility.yul\":27216:27219   */\n      0xa0\n        /* \"#utility.yul\":27258:27318   */\n      tag_597\n        /* \"#utility.yul\":27314:27317   */\n      dup5\n        /* \"#utility.yul\":27305:27311   */\n      dup3\n        /* \"#utility.yul\":27294:27303   */\n      dup6\n        /* \"#utility.yul\":27290:27312   */\n      add\n        /* \"#utility.yul\":27258:27318   */\n      tag_323\n      jump\t// in\n    tag_597:\n        /* \"#utility.yul\":27251:27255   */\n      0xa0\n        /* \"#utility.yul\":27244:27249   */\n      dup4\n        /* \"#utility.yul\":27240:27256   */\n      add\n        /* \"#utility.yul\":27233:27319   */\n      mstore\n        /* \"#utility.yul\":27160:27330   */\n      pop\n        /* \"#utility.yul\":25978:27337   */\n      swap3\n      swap2\n      pop\n      pop\n      jump\t// out\n        /* \"#utility.yul\":27367:28002   */\n    tag_329:\n        /* \"#utility.yul\":27454:27459   */\n      0x00\n        /* \"#utility.yul\":27498:27502   */\n      0x40\n        /* \"#utility.yul\":27486:27495   */\n      dup3\n        /* \"#utility.yul\":27481:27484   */\n      dup5\n        /* \"#utility.yul\":27477:27496   */\n      sub\n        /* \"#utility.yul\":27473:27503   */\n      slt\n        /* \"#utility.yul\":27470:27587   */\n      iszero\n      tag_599\n      jumpi\n        /* \"#utility.yul\":27506:27585   */\n      tag_600\n      tag_294\n      jump\t// in\n    tag_600:\n        /* \"#utility.yul\":27470:27587   */\n    tag_599:\n        /* \"#utility.yul\":27605:27626   */\n      tag_601\n        /* \"#utility.yul\":27621:27625   */\n      0x40\n        /* \"#utility.yul\":27605:27626   */\n      tag_297\n      jump\t// in\n    tag_601:\n        /* \"#utility.yul\":27596:27626   */\n      swap1\n      pop\n        /* \"#utility.yul\":27698:27699   */\n      0x00\n        /* \"#utility.yul\":27738:27798   */\n      tag_602\n        /* \"#utility.yul\":27794:27797   */\n      dup5\n        /* \"#utility.yul\":27785:27791   */\n      dup3\n        /* \"#utility.yul\":27774:27783   */\n      dup6\n        /* \"#utility.yul\":27770:27792   */\n      add\n        /* \"#utility.yul\":27738:27798   */\n      tag_323\n      jump\t// in\n    tag_602:\n        /* \"#utility.yul\":27731:27735   */\n      0x00\n        /* \"#utility.yul\":27724:27729   */\n      dup4\n        /* \"#utility.yul\":27720:27736   */\n      add\n        /* \"#utility.yul\":27713:27799   */\n      mstore\n        /* \"#utility.yul\":27636:27810   */\n      pop\n        /* \"#utility.yul\":27882:27884   */\n      0x20\n        /* \"#utility.yul\":27923:27983   */\n      tag_603\n        /* \"#utility.yul\":27979:27982   */\n      dup5\n        /* \"#utility.yul\":27970:27976   */\n      dup3\n        /* \"#utility.yul\":27959:27968   */\n      dup6\n        /* \"#utility.yul\":27955:27977   */\n      add\n        /* \"#utility.yul\":27923:27983   */\n      tag_323\n      jump\t// in\n    tag_603:\n        /* \"#utility.yul\":27916:27920   */\n      0x20\n        /* \"#utility.yul\":27909:27914   */\n      dup4\n        /* \"#utility.yul\":27905:27921   */\n      add\n        /* \"#utility.yul\":27898:27984   */\n      mstore\n        /* \"#utility.yul\":27820:27995   */\n      pop\n        /* \"#utility.yul\":27367:28002   */\n      swap3\n      swap2\n      pop\n      pop\n      jump\t// out\n        /* \"#utility.yul\":28032:30751   */\n    tag_330:\n        /* \"#utility.yul\":28118:28123   */\n      0x00\n        /* \"#utility.yul\":28162:28168   */\n      0x0300\n        /* \"#utility.yul\":28150:28159   */\n      dup3\n        /* \"#utility.yul\":28145:28148   */\n      dup5\n        /* \"#utility.yul\":28141:28160   */\n      sub\n        /* \"#utility.yul\":28137:28169   */\n      slt\n        /* \"#utility.yul\":28134:28253   */\n      iszero\n      tag_605\n      jumpi\n        /* \"#utility.yul\":28172:28251   */\n      tag_606\n      tag_294\n      jump\t// in\n    tag_606:\n        /* \"#utility.yul\":28134:28253   */\n    tag_605:\n        /* \"#utility.yul\":28271:28294   */\n      tag_607\n        /* \"#utility.yul\":28287:28293   */\n      0x01a0\n        /* \"#utility.yul\":28271:28294   */\n      tag_297\n      jump\t// in\n    tag_607:\n        /* \"#utility.yul\":28262:28294   */\n      swap1\n      pop\n        /* \"#utility.yul\":28351:28352   */\n      0x00\n        /* \"#utility.yul\":28391:28451   */\n      tag_608\n        /* \"#utility.yul\":28447:28450   */\n      dup5\n        /* \"#utility.yul\":28438:28444   */\n      dup3\n        /* \"#utility.yul\":28427:28436   */\n      dup6\n        /* \"#utility.yul\":28423:28445   */\n      add\n        /* \"#utility.yul\":28391:28451   */\n      tag_323\n      jump\t// in\n    tag_608:\n        /* \"#utility.yul\":28384:28388   */\n      0x00\n        /* \"#utility.yul\":28377:28382   */\n      dup4\n        /* \"#utility.yul\":28373:28389   */\n      add\n        /* \"#utility.yul\":28366:28452   */\n      mstore\n        /* \"#utility.yul\":28304:28463   */\n      pop\n        /* \"#utility.yul\":28526:28528   */\n      0x20\n        /* \"#utility.yul\":28567:28627   */\n      tag_609\n        /* \"#utility.yul\":28623:28626   */\n      dup5\n        /* \"#utility.yul\":28614:28620   */\n      dup3\n        /* \"#utility.yul\":28603:28612   */\n      dup6\n        /* \"#utility.yul\":28599:28621   */\n      add\n        /* \"#utility.yul\":28567:28627   */\n      tag_311\n      jump\t// in\n    tag_609:\n        /* \"#utility.yul\":28560:28564   */\n      0x20\n        /* \"#utility.yul\":28553:28558   */\n      dup4\n        /* \"#utility.yul\":28549:28565   */\n      add\n        /* \"#utility.yul\":28542:28628   */\n      mstore\n        /* \"#utility.yul\":28473:28639   */\n      pop\n        /* \"#utility.yul\":28699:28701   */\n      0x40\n        /* \"#utility.yul\":28740:28800   */\n      tag_610\n        /* \"#utility.yul\":28796:28799   */\n      dup5\n        /* \"#utility.yul\":28787:28793   */\n      dup3\n        /* \"#utility.yul\":28776:28785   */\n      dup6\n        /* \"#utility.yul\":28772:28794   */\n      add\n        /* \"#utility.yul\":28740:28800   */\n      tag_311\n      jump\t// in\n    tag_610:\n        /* \"#utility.yul\":28733:28737   */\n      0x40\n        /* \"#utility.yul\":28726:28731   */\n      dup4\n        /* \"#utility.yul\":28722:28738   */\n      add\n        /* \"#utility.yul\":28715:28801   */\n      mstore\n        /* \"#utility.yul\":28649:28812   */\n      pop\n        /* \"#utility.yul\":28884:28886   */\n      0x60\n        /* \"#utility.yul\":28925:28985   */\n      tag_611\n        /* \"#utility.yul\":28981:28984   */\n      dup5\n        /* \"#utility.yul\":28972:28978   */\n      dup3\n        /* \"#utility.yul\":28961:28970   */\n      dup6\n        /* \"#utility.yul\":28957:28979   */\n      add\n        /* \"#utility.yul\":28925:28985   */\n      tag_323\n      jump\t// in\n    tag_611:\n        /* \"#utility.yul\":28918:28922   */\n      0x60\n        /* \"#utility.yul\":28911:28916   */\n      dup4\n        /* \"#utility.yul\":28907:28923   */\n      add\n        /* \"#utility.yul\":28900:28986   */\n      mstore\n        /* \"#utility.yul\":28822:28997   */\n      pop\n        /* \"#utility.yul\":29071:29074   */\n      0x80\n        /* \"#utility.yul\":29113:29173   */\n      tag_612\n        /* \"#utility.yul\":29169:29172   */\n      dup5\n        /* \"#utility.yul\":29160:29166   */\n      dup3\n        /* \"#utility.yul\":29149:29158   */\n      dup6\n        /* \"#utility.yul\":29145:29167   */\n      add\n        /* \"#utility.yul\":29113:29173   */\n      tag_323\n      jump\t// in\n    tag_612:\n        /* \"#utility.yul\":29106:29110   */\n      0x80\n        /* \"#utility.yul\":29099:29104   */\n      dup4\n        /* \"#utility.yul\":29095:29111   */\n      add\n        /* \"#utility.yul\":29088:29174   */\n      mstore\n        /* \"#utility.yul\":29007:29185   */\n      pop\n        /* \"#utility.yul\":29248:29251   */\n      0xa0\n        /* \"#utility.yul\":29290:29350   */\n      tag_613\n        /* \"#utility.yul\":29346:29349   */\n      dup5\n        /* \"#utility.yul\":29337:29343   */\n      dup3\n        /* \"#utility.yul\":29326:29335   */\n      dup6\n        /* \"#utility.yul\":29322:29344   */\n      add\n        /* \"#utility.yul\":29290:29350   */\n      tag_323\n      jump\t// in\n    tag_613:\n        /* \"#utility.yul\":29283:29287   */\n      0xa0\n        /* \"#utility.yul\":29276:29281   */\n      dup4\n        /* \"#utility.yul\":29272:29288   */\n      add\n        /* \"#utility.yul\":29265:29351   */\n      mstore\n        /* \"#utility.yul\":29195:29362   */\n      pop\n        /* \"#utility.yul\":29425:29428   */\n      0xc0\n        /* \"#utility.yul\":29467:29540   */\n      tag_614\n        /* \"#utility.yul\":29536:29539   */\n      dup5\n        /* \"#utility.yul\":29527:29533   */\n      dup3\n        /* \"#utility.yul\":29516:29525   */\n      dup6\n        /* \"#utility.yul\":29512:29534   */\n      add\n        /* \"#utility.yul\":29467:29540   */\n      tag_325\n      jump\t// in\n    tag_614:\n        /* \"#utility.yul\":29460:29464   */\n      0xc0\n        /* \"#utility.yul\":29453:29458   */\n      dup4\n        /* \"#utility.yul\":29449:29465   */\n      add\n        /* \"#utility.yul\":29442:29541   */\n      mstore\n        /* \"#utility.yul\":29372:29552   */\n      pop\n        /* \"#utility.yul\":29627:29630   */\n      0xe0\n        /* \"#utility.yul\":29669:29764   */\n      tag_615\n        /* \"#utility.yul\":29760:29763   */\n      dup5\n        /* \"#utility.yul\":29751:29757   */\n      dup3\n        /* \"#utility.yul\":29740:29749   */\n      dup6\n        /* \"#utility.yul\":29736:29758   */\n      add\n        /* \"#utility.yul\":29669:29764   */\n      tag_328\n      jump\t// in\n    tag_615:\n        /* \"#utility.yul\":29662:29666   */\n      0xe0\n        /* \"#utility.yul\":29655:29660   */\n      dup4\n        /* \"#utility.yul\":29651:29667   */\n      add\n        /* \"#utility.yul\":29644:29765   */\n      mstore\n        /* \"#utility.yul\":29562:29776   */\n      pop\n        /* \"#utility.yul\":29847:29850   */\n      0x01a0\n        /* \"#utility.yul\":29891:29986   */\n      tag_616\n        /* \"#utility.yul\":29982:29985   */\n      dup5\n        /* \"#utility.yul\":29973:29979   */\n      dup3\n        /* \"#utility.yul\":29962:29971   */\n      dup6\n        /* \"#utility.yul\":29958:29980   */\n      add\n        /* \"#utility.yul\":29891:29986   */\n      tag_328\n      jump\t// in\n    tag_616:\n        /* \"#utility.yul\":29882:29888   */\n      0x0100\n        /* \"#utility.yul\":29875:29880   */\n      dup4\n        /* \"#utility.yul\":29871:29889   */\n      add\n        /* \"#utility.yul\":29864:29987   */\n      mstore\n        /* \"#utility.yul\":29786:29998   */\n      pop\n        /* \"#utility.yul\":30062:30065   */\n      0x0260\n        /* \"#utility.yul\":30106:30193   */\n      tag_617\n        /* \"#utility.yul\":30189:30192   */\n      dup5\n        /* \"#utility.yul\":30180:30186   */\n      dup3\n        /* \"#utility.yul\":30169:30178   */\n      dup6\n        /* \"#utility.yul\":30165:30187   */\n      add\n        /* \"#utility.yul\":30106:30193   */\n      tag_329\n      jump\t// in\n    tag_617:\n        /* \"#utility.yul\":30097:30103   */\n      0x0120\n        /* \"#utility.yul\":30090:30095   */\n      dup4\n        /* \"#utility.yul\":30086:30104   */\n      add\n        /* \"#utility.yul\":30079:30194   */\n      mstore\n        /* \"#utility.yul\":30008:30205   */\n      pop\n        /* \"#utility.yul\":30271:30274   */\n      0x02a0\n        /* \"#utility.yul\":30315:30375   */\n      tag_618\n        /* \"#utility.yul\":30371:30374   */\n      dup5\n        /* \"#utility.yul\":30362:30368   */\n      dup3\n        /* \"#utility.yul\":30351:30360   */\n      dup6\n        /* \"#utility.yul\":30347:30369   */\n      add\n        /* \"#utility.yul\":30315:30375   */\n      tag_323\n      jump\t// in\n    tag_618:\n        /* \"#utility.yul\":30306:30312   */\n      0x0140\n        /* \"#utility.yul\":30299:30304   */\n      dup4\n        /* \"#utility.yul\":30295:30313   */\n      add\n        /* \"#utility.yul\":30288:30376   */\n      mstore\n        /* \"#utility.yul\":30215:30387   */\n      pop\n        /* \"#utility.yul\":30452:30455   */\n      0x02c0\n        /* \"#utility.yul\":30496:30556   */\n      tag_619\n        /* \"#utility.yul\":30552:30555   */\n      dup5\n        /* \"#utility.yul\":30543:30549   */\n      dup3\n        /* \"#utility.yul\":30532:30541   */\n      dup6\n        /* \"#utility.yul\":30528:30550   */\n      add\n        /* \"#utility.yul\":30496:30556   */\n      tag_323\n      jump\t// in\n    tag_619:\n        /* \"#utility.yul\":30487:30493   */\n      0x0160\n        /* \"#utility.yul\":30480:30485   */\n      dup4\n        /* \"#utility.yul\":30476:30494   */\n      add\n        /* \"#utility.yul\":30469:30557   */\n      mstore\n        /* \"#utility.yul\":30397:30568   */\n      pop\n        /* \"#utility.yul\":30628:30631   */\n      0x02e0\n        /* \"#utility.yul\":30672:30732   */\n      tag_620\n        /* \"#utility.yul\":30728:30731   */\n      dup5\n        /* \"#utility.yul\":30719:30725   */\n      dup3\n        /* \"#utility.yul\":30708:30717   */\n      dup6\n        /* \"#utility.yul\":30704:30726   */\n      add\n        /* \"#utility.yul\":30672:30732   */\n      tag_323\n      jump\t// in\n    tag_620:\n        /* \"#utility.yul\":30663:30669   */\n      0x0180\n        /* \"#utility.yul\":30656:30661   */\n      dup4\n        /* \"#utility.yul\":30652:30670   */\n      add\n        /* \"#utility.yul\":30645:30733   */\n      mstore\n        /* \"#utility.yul\":30578:30744   */\n      pop\n        /* \"#utility.yul\":28032:30751   */\n      swap3\n      swap2\n      pop\n      pop\n      jump\t// out\n        /* \"#utility.yul\":30757:31161   */\n    tag_212:\n        /* \"#utility.yul\":30853:30859   */\n      0x00\n        /* \"#utility.yul\":30902:30905   */\n      0x0300\n        /* \"#utility.yul\":30890:30899   */\n      dup3\n        /* \"#utility.yul\":30881:30888   */\n      dup5\n        /* \"#utility.yul\":30877:30900   */\n      sub\n        /* \"#utility.yul\":30873:30906   */\n      slt\n        /* \"#utility.yul\":30870:30990   */\n      iszero\n      tag_622\n      jumpi\n        /* \"#utility.yul\":30909:30988   */\n      tag_623\n      tag_290\n      jump\t// in\n    tag_623:\n        /* \"#utility.yul\":30870:30990   */\n    tag_622:\n        /* \"#utility.yul\":31029:31030   */\n      0x00\n        /* \"#utility.yul\":31054:31144   */\n      tag_624\n        /* \"#utility.yul\":31136:31143   */\n      dup5\n        /* \"#utility.yul\":31127:31133   */\n      dup3\n        /* \"#utility.yul\":31116:31125   */\n      dup6\n        /* \"#utility.yul\":31112:31134   */\n      add\n        /* \"#utility.yul\":31054:31144   */\n      tag_330\n      jump\t// in\n    tag_624:\n        /* \"#utility.yul\":31044:31144   */\n      swap2\n      pop\n        /* \"#utility.yul\":31000:31154   */\n      pop\n        /* \"#utility.yul\":30757:31161   */\n      swap3\n      swap2\n      pop\n      pop\n      jump\t// out\n        /* \"#utility.yul\":31167:31332   */\n    tag_331:\n        /* \"#utility.yul\":31307:31324   */\n      0x70726f6475637420657870697265640000000000000000000000000000000000\n        /* \"#utility.yul\":31303:31304   */\n      0x00\n        /* \"#utility.yul\":31295:31301   */\n      dup3\n        /* \"#utility.yul\":31291:31305   */\n      add\n        /* \"#utility.yul\":31284:31325   */\n      mstore\n        /* \"#utility.yul\":31167:31332   */\n      pop\n      jump\t// out\n        /* \"#utility.yul\":31338:31704   */\n    tag_332:\n        /* \"#utility.yul\":31480:31483   */\n      0x00\n        /* \"#utility.yul\":31501:31568   */\n      tag_627\n        /* \"#utility.yul\":31565:31567   */\n      0x0f\n        /* \"#utility.yul\":31560:31563   */\n      dup4\n        /* \"#utility.yul\":31501:31568   */\n      tag_263\n      jump\t// in\n    tag_627:\n        /* \"#utility.yul\":31494:31568   */\n      swap2\n      pop\n        /* \"#utility.yul\":31577:31670   */\n      tag_628\n        /* \"#utility.yul\":31666:31669   */\n      dup3\n        /* \"#utility.yul\":31577:31670   */\n      tag_331\n      jump\t// in\n    tag_628:\n        /* \"#utility.yul\":31695:31697   */\n      0x20\n        /* \"#utility.yul\":31690:31693   */\n      dup3\n        /* \"#utility.yul\":31686:31698   */\n      add\n        /* \"#utility.yul\":31679:31698   */\n      swap1\n      pop\n        /* \"#utility.yul\":31338:31704   */\n      swap2\n      swap1\n      pop\n      jump\t// out\n        /* \"#utility.yul\":31710:32129   */\n    tag_215:\n        /* \"#utility.yul\":31876:31880   */\n      0x00\n        /* \"#utility.yul\":31914:31916   */\n      0x20\n        /* \"#utility.yul\":31903:31912   */\n      dup3\n        /* \"#utility.yul\":31899:31917   */\n      add\n        /* \"#utility.yul\":31891:31917   */\n      swap1\n      pop\n        /* \"#utility.yul\":31963:31972   */\n      dup2\n        /* \"#utility.yul\":31957:31961   */\n      dup2\n        /* \"#utility.yul\":31953:31973   */\n      sub\n        /* \"#utility.yul\":31949:31950   */\n      0x00\n        /* \"#utility.yul\":31938:31947   */\n      dup4\n        /* \"#utility.yul\":31934:31951   */\n      add\n        /* \"#utility.yul\":31927:31974   */\n      mstore\n        /* \"#utility.yul\":31991:32122   */\n      tag_630\n        /* \"#utility.yul\":32117:32121   */\n      dup2\n        /* \"#utility.yul\":31991:32122   */\n      tag_332\n      jump\t// in\n    tag_630:\n        /* \"#utility.yul\":31983:32122   */\n      swap1\n      pop\n        /* \"#utility.yul\":31710:32129   */\n      swap2\n      swap1\n      pop\n      jump\t// out\n        /* \"#utility.yul\":32135:32307   */\n    tag_333:\n        /* \"#utility.yul\":32275:32299   */\n      0x696e73756666696369656e7420696e76656e746f727900000000000000000000\n        /* \"#utility.yul\":32271:32272   */\n      0x00\n        /* \"#utility.yul\":32263:32269   */\n      dup3\n        /* \"#utility.yul\":32259:32273   */\n      add\n        /* \"#utility.yul\":32252:32300   */\n      mstore\n        /* \"#utility.yul\":32135:32307   */\n      pop\n      jump\t// out\n        /* \"#utility.yul\":32313:32679   */\n    tag_334:\n        /* \"#utility.yul\":32455:32458   */\n      0x00\n        /* \"#utility.yul\":32476:32543   */\n      tag_633\n        /* \"#utility.yul\":32540:32542   */\n      0x16\n        /* \"#utility.yul\":32535:32538   */\n      dup4\n        /* \"#utility.yul\":32476:32543   */\n      tag_263\n      jump\t// in\n    tag_633:\n        /* \"#utility.yul\":32469:32543   */\n      swap2\n      pop\n        /* \"#utility.yul\":32552:32645   */\n      tag_634\n        /* \"#utility.yul\":32641:32644   */\n      dup3\n        /* \"#utility.yul\":32552:32645   */\n      tag_333\n      jump\t// in\n    tag_634:\n        /* \"#utility.yul\":32670:32672   */\n      0x20\n        /* \"#utility.yul\":32665:32668   */\n      dup3\n        /* \"#utility.yul\":32661:32673   */\n      add\n        /* \"#utility.yul\":32654:32673   */\n      swap1\n      pop\n        /* \"#utility.yul\":32313:32679   */\n      swap2\n      swap1\n      pop\n      jump\t// out\n        /* \"#utility.yul\":32685:33104   */\n    tag_218:\n        /* \"#utility.yul\":32851:32855   */\n      0x00\n        /* \"#utility.yul\":32889:32891   */\n      0x20\n        /* \"#utility.yul\":32878:32887   */\n      dup3\n        /* \"#utility.yul\":32874:32892   */\n      add\n        /* \"#utility.yul\":32866:32892   */\n      swap1\n      pop\n        /* \"#utility.yul\":32938:32947   */\n      dup2\n        /* \"#utility.yul\":32932:32936   */\n      dup2\n        /* \"#utility.yul\":32928:32948   */\n      sub\n        /* \"#utility.yul\":32924:32925   */\n      0x00\n        /* \"#utility.yul\":32913:32922   */\n      dup4\n        /* \"#utility.yul\":32909:32926   */\n      add\n        /* \"#utility.yul\":32902:32949   */\n      mstore\n        /* \"#utility.yul\":32966:33097   */\n      tag_636\n        /* \"#utility.yul\":33092:33096   */\n      dup2\n        /* \"#utility.yul\":32966:33097   */\n      tag_334\n      jump\t// in\n    tag_636:\n        /* \"#utility.yul\":32958:33097   */\n      swap1\n      pop\n        /* \"#utility.yul\":32685:33104   */\n      swap2\n      swap1\n      pop\n      jump\t// out\n        /* \"#utility.yul\":33110:33461   */\n    tag_227:\n        /* \"#utility.yul\":33180:33186   */\n      0x00\n        /* \"#utility.yul\":33229:33231   */\n      0x20\n        /* \"#utility.yul\":33217:33226   */\n      dup3\n        /* \"#utility.yul\":33208:33215   */\n      dup5\n        /* \"#utility.yul\":33204:33227   */\n      sub\n        /* \"#utility.yul\":33200:33232   */\n      slt\n        /* \"#utility.yul\":33197:33316   */\n      iszero\n      tag_638\n      jumpi\n        /* \"#utility.yul\":33235:33314   */\n      tag_639\n      tag_290\n      jump\t// in\n    tag_639:\n        /* \"#utility.yul\":33197:33316   */\n    tag_638:\n        /* \"#utility.yul\":33355:33356   */\n      0x00\n        /* \"#utility.yul\":33380:33444   */\n      tag_640\n        /* \"#utility.yul\":33436:33443   */\n      dup5\n        /* \"#utility.yul\":33427:33433   */\n      dup3\n        /* \"#utility.yul\":33416:33425   */\n      dup6\n        /* \"#utility.yul\":33412:33434   */\n      add\n        /* \"#utility.yul\":33380:33444   */\n      tag_323\n      jump\t// in\n    tag_640:\n        /* \"#utility.yul\":33370:33444   */\n      swap2\n      pop\n        /* \"#utility.yul\":33326:33454   */\n      pop\n        /* \"#utility.yul\":33110:33461   */\n      swap3\n      swap2\n      pop\n      pop\n      jump\t// out\n        /* \"#utility.yul\":33467:33700   */\n    tag_230:\n        /* \"#utility.yul\":33506:33509   */\n      0x00\n        /* \"#utility.yul\":33529:33553   */\n      tag_642\n        /* \"#utility.yul\":33547:33552   */\n      dup3\n        /* \"#utility.yul\":33529:33553   */\n      tag_260\n      jump\t// in\n    tag_642:\n        /* \"#utility.yul\":33520:33553   */\n      swap2\n      pop\n        /* \"#utility.yul\":33575:33641   */\n      0xffffffffffffffffffffffffffffffffffffffffffffffffffffffffffffffff\n        /* \"#utility.yul\":33568:33573   */\n      dup3\n        /* \"#utility.yul\":33565:33642   */\n      sub\n        /* \"#utility.yul\":33562:33665   */\n      tag_643\n      jumpi\n        /* \"#utility.yul\":33645:33663   */\n      tag_644\n      tag_314\n      jump\t// in\n    tag_644:\n        /* \"#utility.yul\":33562:33665   */\n    tag_643:\n        /* \"#utility.yul\":33692:33693   */\n      0x01\n        /* \"#utility.yul\":33685:33690   */\n      dup3\n        /* \"#utility.yul\":33681:33694   */\n      add\n        /* \"#utility.yul\":33674:33694   */\n      swap1\n      pop\n        /* \"#utility.yul\":33467:33700   */\n      swap2\n      swap1\n      pop\n      jump\t// out\n        /* \"#utility.yul\":33706:33823   */\n    tag_335:\n        /* \"#utility.yul\":33790:33792   */\n      0x0a\n        /* \"#utility.yul\":33783:33788   */\n      dup2\n        /* \"#utility.yul\":33780:33793   */\n      lt\n        /* \"#utility.yul\":33770:33817   */\n      tag_646\n      jumpi\n        /* \"#utility.yul\":33797:33815   */\n      tag_647\n      tag_86\n      jump\t// in\n    tag_647:\n        /* \"#utility.yul\":33770:33817   */\n    tag_646:\n        /* \"#utility.yul\":33706:33823   */\n      pop\n      jump\t// out\n        /* \"#utility.yul\":33829:33962   */\n    tag_336:\n        /* \"#utility.yul\":33877:33884   */\n      0x00\n        /* \"#utility.yul\":33906:33911   */\n      dup2\n        /* \"#utility.yul\":33895:33911   */\n      swap1\n      pop\n        /* \"#utility.yul\":33912:33956   */\n      tag_649\n        /* \"#utility.yul\":33950:33955   */\n      dup3\n        /* \"#utility.yul\":33912:33956   */\n      tag_335\n      jump\t// in\n    tag_649:\n        /* \"#utility.yul\":33829:33962   */\n      swap2\n      swap1\n      pop\n      jump\t// out\n        /* \"#utility.yul\":33968:34101   */\n    tag_337:\n        /* \"#utility.yul\":34027:34036   */\n      0x00\n        /* \"#utility.yul\":34060:34095   */\n      tag_651\n        /* \"#utility.yul\":34089:34094   */\n      dup3\n        /* \"#utility.yul\":34060:34095   */\n      tag_336\n      jump\t// in\n    tag_651:\n        /* \"#utility.yul\":34047:34095   */\n      swap1\n      pop\n        /* \"#utility.yul\":33968:34101   */\n      swap2\n      swap1\n      pop\n      jump\t// out\n        /* \"#utility.yul\":34107:34256   */\n    tag_338:\n        /* \"#utility.yul\":34203:34249   */\n      tag_653\n        /* \"#utility.yul\":34243:34248   */\n      dup2\n        /* \"#utility.yul\":34203:34249   */\n      tag_337\n      jump\t// in\n    tag_653:\n        /* \"#utility.yul\":34198:34201   */\n      dup3\n        /* \"#utility.yul\":34191:34250   */\n      mstore\n        /* \"#utility.yul\":34107:34256   */\n      pop\n      pop\n      jump\t// out\n        /* \"#utility.yul\":34262:34379   */\n    tag_339:\n        /* \"#utility.yul\":34347:34348   */\n      0x06\n        /* \"#utility.yul\":34340:34345   */\n      dup2\n        /* \"#utility.yul\":34337:34349   */\n      lt\n        /* \"#utility.yul\":34327:34373   */\n      tag_655\n      jumpi\n        /* \"#utility.yul\":34353:34371   */\n      tag_656\n      tag_86\n      jump\t// in\n    tag_656:\n        /* \"#utility.yul\":34327:34373   */\n    tag_655:\n        /* \"#utility.yul\":34262:34379   */\n      pop\n      jump\t// out\n        /* \"#utility.yul\":34385:34520   */\n    tag_340:\n        /* \"#utility.yul\":34434:34441   */\n      0x00\n        /* \"#utility.yul\":34463:34468   */\n      dup2\n        /* \"#utility.yul\":34452:34468   */\n      swap1\n      pop\n        /* \"#utility.yul\":34469:34514   */\n      tag_658\n        /* \"#utility.yul\":34508:34513   */\n      dup3\n        /* \"#utility.yul\":34469:34514   */\n      tag_339\n      jump\t// in\n    tag_658:\n        /* \"#utility.yul\":34385:34520   */\n      swap2\n      swap1\n      pop\n      jump\t// out\n        /* \"#utility.yul\":34526:34661   */\n    tag_341:\n        /* \"#utility.yul\":34586:34595   */\n      0x00\n        /* \"#utility.yul\":34619:34655   */\n      tag_660\n        /* \"#utility.yul\":34649:34654   */\n      dup3\n        /* \"#utility.yul\":34619:34655   */\n      tag_340\n      jump\t// in\n    tag_660:\n        /* \"#utility.yul\":34606:34655   */\n      swap1\n      pop\n        /* \"#utility.yul\":34526:34661   */\n      swap2\n      swap1\n      pop\n      jump\t// out\n        /* \"#utility.yul\":34667:34818   */\n    tag_342:\n        /* \"#utility.yul\":34764:34811   */\n      tag_662\n        /* \"#utility.yul\":34805:34810   */\n      dup2\n        /* \"#utility.yul\":34764:34811   */\n      tag_341\n      jump\t// in\n    tag_662:\n        /* \"#utility.yul\":34759:34762   */\n      dup3\n        /* \"#utility.yul\":34752:34812   */\n      mstore\n        /* \"#utility.yul\":34667:34818   */\n      pop\n      pop\n      jump\t// out\n        /* \"#utility.yul\":34824:35637   */\n    tag_246:\n        /* \"#utility.yul\":35076:35080   */\n      0x00\n        /* \"#utility.yul\":35114:35117   */\n      0xc0\n        /* \"#utility.yul\":35103:35112   */\n      dup3\n        /* \"#utility.yul\":35099:35118   */\n      add\n        /* \"#utility.yul\":35091:35118   */\n      swap1\n      pop\n        /* \"#utility.yul\":35128:35208   */\n      tag_664\n        /* \"#utility.yul\":35205:35206   */\n      0x00\n        /* \"#utility.yul\":35194:35203   */\n      dup4\n        /* \"#utility.yul\":35190:35207   */\n      add\n        /* \"#utility.yul\":35181:35187   */\n      dup10\n        /* \"#utility.yul\":35128:35208   */\n      tag_338\n      jump\t// in\n    tag_664:\n        /* \"#utility.yul\":35218:35300   */\n      tag_665\n        /* \"#utility.yul\":35296:35298   */\n      0x20\n        /* \"#utility.yul\":35285:35294   */\n      dup4\n        /* \"#utility.yul\":35281:35299   */\n      add\n        /* \"#utility.yul\":35272:35278   */\n      dup9\n        /* \"#utility.yul\":35218:35300   */\n      tag_342\n      jump\t// in\n    tag_665:\n        /* \"#utility.yul\":35310:35382   */\n      tag_666\n        /* \"#utility.yul\":35378:35380   */\n      0x40\n        /* \"#utility.yul\":35367:35376   */\n      dup4\n        /* \"#utility.yul\":35363:35381   */\n      add\n        /* \"#utility.yul\":35354:35360   */\n      dup8\n        /* \"#utility.yul\":35310:35382   */\n      tag_261\n      jump\t// in\n    tag_666:\n        /* \"#utility.yul\":35392:35464   */\n      tag_667\n        /* \"#utility.yul\":35460:35462   */\n      0x60\n        /* \"#utility.yul\":35449:35458   */\n      dup4\n        /* \"#utility.yul\":35445:35463   */\n      add\n        /* \"#utility.yul\":35436:35442   */\n      dup7\n        /* \"#utility.yul\":35392:35464   */\n      tag_302\n      jump\t// in\n    tag_667:\n        /* \"#utility.yul\":35474:35547   */\n      tag_668\n        /* \"#utility.yul\":35542:35545   */\n      0x80\n        /* \"#utility.yul\":35531:35540   */\n      dup4\n        /* \"#utility.yul\":35527:35546   */\n      add\n        /* \"#utility.yul\":35518:35524   */\n      dup6\n        /* \"#utility.yul\":35474:35547   */\n      tag_261\n      jump\t// in\n    tag_668:\n        /* \"#utility.yul\":35557:35630   */\n      tag_669\n        /* \"#utility.yul\":35625:35628   */\n      0xa0\n        /* \"#utility.yul\":35614:35623   */\n      dup4\n        /* \"#utility.yul\":35610:35629   */\n      add\n        /* \"#utility.yul\":35601:35607   */\n      dup5\n        /* \"#utility.yul\":35557:35630   */\n      tag_302\n      jump\t// in\n    tag_669:\n        /* \"#utility.yul\":34824:35637   */\n      swap8\n      swap7\n      pop\n      pop\n      pop\n      pop\n      pop\n      pop\n      pop\n      jump\t// out\n\n    auxdata: 0xa26469706673582212206eeed354e1616166f9353f18e0cc5b4f673ee5bde506052dbd5e1e1e26f45ddd64736f6c634300081e0033\n}\n",
				"bytecode": {
					"linkReferences": {},
					"object": "60a060405260018055348015610013575f5ffd5b50604051613e62380380613e6283398181016040528101906100359190610964565b805f5f6101000a81548173ffffffffffffffffffffffffffffffffffffffff021916908373ffffffffffffffffffffffffffffffffffffffff1602179055505f5f9054906101000a900473ffffffffffffffffffffffffffffffffffffffff1673ffffffffffffffffffffffffffffffffffffffff1663e1311ec66040518060400160405280601181526020017f52455345525645445f4d505f41444d494e0000000000000000000000000000008152506040518263ffffffff1660e01b815260040161010291906109ff565b602060405180830381865afa15801561011d573d5f5f3e3d5ffd5b505050506040513d601f19601f820116820180604052508101906101419190610a54565b6040518060400160405280601181526020017f52455345525645445f4d505f41444d494e0000000000000000000000000000008152506040516020016101879190610adf565b604051602081830303815290604052906101d7576040517f08c379a00000000000000000000000000000000000000000000000000000000081526004016101ce91906109ff565b60405180910390fd5b505f5f9054906101000a900473ffffffffffffffffffffffffffffffffffffffff1673ffffffffffffffffffffffffffffffffffffffff1663e1311ec66040518060400160405280601581526020017f52455345525645445f4d505f4645455f544f4b454e00000000000000000000008152506040518263ffffffff1660e01b815260040161026691906109ff565b602060405180830381865afa158015610281573d5f5f3e3d5ffd5b505050506040513d601f19601f820116820180604052508101906102a59190610a54565b6040518060400160405280601581526020017f52455345525645445f4d505f4645455f544f4b454e00000000000000000000008152506040516020016102eb9190610adf565b6040516020818303038152906040529061033b576040517f08c379a000000000000000000000000000000000000000000000000000000000815260040161033291906109ff565b60405180910390fd5b505f5f9054906101000a900473ffffffffffffffffffffffffffffffffffffffff1673ffffffffffffffffffffffffffffffffffffffff1663e1311ec66040518060400160405280601081526020017f52455345525645445f4d505f42414e4b000000000000000000000000000000008152506040518263ffffffff1660e01b81526004016103ca91906109ff565b602060405180830381865afa1580156103e5573d5f5f3e3d5ffd5b505050506040513d601f19601f820116820180604052508101906104099190610a54565b6040518060400160405280601081526020017f52455345525645445f4d505f42414e4b0000000000000000000000000000000081525060405160200161044f9190610adf565b6040516020818303038152906040529061049f576040517f08c379a000000000000000000000000000000000000000000000000000000000815260040161049691906109ff565b60405180910390fd5b505f5f9054906101000a900473ffffffffffffffffffffffffffffffffffffffff1673ffffffffffffffffffffffffffffffffffffffff1663e1311ec66040518060400160405280601981526020017f52455345525645445f4d505f5641554c545f464143544f5259000000000000008152506040518263ffffffff1660e01b815260040161052e91906109ff565b602060405180830381865afa158015610549573d5f5f3e3d5ffd5b505050506040513d601f19601f8201168201806040525081019061056d9190610a54565b6040518060400160405280601981526020017f52455345525645445f4d505f5641554c545f464143544f5259000000000000008152506040516020016105b39190610adf565b60405160208183030381529060405290610603576040517f08c379a00000000000000000000000000000000000000000000000000000000081526004016105fa91906109ff565b60405180910390fd5b505f5f9054906101000a900473ffffffffffffffffffffffffffffffffffffffff1673ffffffffffffffffffffffffffffffffffffffff1663e1311ec66040518060400160405280601681526020017f52455345525645445f4d505f54585f4d414e41474552000000000000000000008152506040518263ffffffff1660e01b815260040161069291906109ff565b602060405180830381865afa1580156106ad573d5f5f3e3d5ffd5b505050506040513d601f19601f820116820180604052508101906106d19190610a54565b6040518060400160405280601681526020017f52455345525645445f4d505f54585f4d414e41474552000000000000000000008152506040516020016107179190610adf565b60405160208183030381529060405290610767576040517f08c379a000000000000000000000000000000000000000000000000000000000815260040161075e91906109ff565b60405180910390fd5b505f5f9054906101000a900473ffffffffffffffffffffffffffffffffffffffff1673ffffffffffffffffffffffffffffffffffffffff1663e1311ec66040518060400160405280601b81526020017f52455345525645445f4d505f50524f445543545f4d414e4147455200000000008152506040518263ffffffff1660e01b81526004016107f691906109ff565b602060405180830381865afa158015610811573d5f5f3e3d5ffd5b505050506040513d601f19601f820116820180604052508101906108359190610a54565b6040518060400160405280601b81526020017f52455345525645445f4d505f50524f445543545f4d414e41474552000000000081525060405160200161087b9190610adf565b604051602081830303815290604052906108cb576040517f08c379a00000000000000000000000000000000000000000000000000000000081526004016108c291906109ff565b60405180910390fd5b503073ffffffffffffffffffffffffffffffffffffffff1660808173ffffffffffffffffffffffffffffffffffffffff168152505050610b04565b5f5ffd5b5f73ffffffffffffffffffffffffffffffffffffffff82169050919050565b5f6109338261090a565b9050919050565b61094381610929565b811461094d575f5ffd5b50565b5f8151905061095e8161093a565b92915050565b5f6020828403121561097957610978610906565b5b5f61098684828501610950565b91505092915050565b5f81519050919050565b5f82825260208201905092915050565b8281835e5f83830152505050565b5f601f19601f8301169050919050565b5f6109d18261098f565b6109db8185610999565b93506109eb8185602086016109a9565b6109f4816109b7565b840191505092915050565b5f6020820190508181035f830152610a1781846109c7565b905092915050565b5f8115159050919050565b610a3381610a1f565b8114610a3d575f5ffd5b50565b5f81519050610a4e81610a2a565b92915050565b5f60208284031215610a6957610a68610906565b5b5f610a7684828501610a40565b91505092915050565b7f6d697373696e6720616464726573732000000000000000000000000000000000815250565b5f81905092915050565b5f610ab98261098f565b610ac38185610aa5565b9350610ad38185602086016109a9565b80840191505092915050565b5f610ae982610a7f565b601082019150610af98284610aaf565b915081905092915050565b60805161333f610b235f395f8181611a3701526120ba015261333f5ff3fe608060405260043610610090575f3560e01c8063bacba5f611610058578063bacba5f614610178578063ca709a25146101a9578063cafe0e90146101d5578063cde4c10c14610211578063ed1eee681461023b57610090565b80630d8e6e2c1461009457806317d7de7c146100be57806342b98f9d146100e8578063734880181461011257806377bdfdf21461013c575b5f5ffd5b34801561009f575f5ffd5b506100a8610277565b6040516100b591906122e6565b60405180910390f35b3480156100c9575f5ffd5b506100d261027f565b6040516100df919061236f565b60405180910390f35b3480156100f3575f5ffd5b506100fc6102bc565b6040516101099190612446565b60405180910390f35b34801561011d575f5ffd5b5061012661044c565b604051610133919061279a565b60405180910390f35b348015610147575f5ffd5b50610162600480360381019061015d91906127ef565b610831565b60405161016f919061279a565b60405180910390f35b610192600480360381019061018d919061290d565b610bdb565b6040516101a0929190612947565b60405180910390f35b3480156101b4575f5ffd5b506101bd61118c565b6040516101cc9392919061296e565b60405180910390f35b3480156101e0575f5ffd5b506101fb60048036038101906101f69190612a65565b611350565b6040516102089190612ad9565b60405180910390f35b34801561021c575f5ffd5b506102256114b8565b6040516102329190612ad9565b60405180910390f35b348015610246575f5ffd5b50610261600480360381019061025c9190612af2565b611705565b60405161026e91906122e6565b60405180910390f35b5f6002905090565b60606040518060400160405280602081526020017f52455345525645445f4d4544414c4c494f4e5f50454e53494f4e535f434f5245815250905090565b60605f5f9054906101000a900473ffffffffffffffffffffffffffffffffffffffff1673ffffffffffffffffffffffffffffffffffffffff1663bf40fac16040518060400160405280601181526020017f52455345525645445f4d505f41444d494e0000000000000000000000000000008152506040518263ffffffff1660e01b815260040161034c919061236f565b602060405180830381865afa158015610367573d5f5f3e3d5ffd5b505050506040513d601f19601f8201168201806040525081019061038b9190612b4d565b73ffffffffffffffffffffffffffffffffffffffff163373ffffffffffffffffffffffffffffffffffffffff16146103f8576040517f08c379a00000000000000000000000000000000000000000000000000000000081526004016103ef90612bc2565b60405180910390fd5b600280548060200260200160405190810160405280929190818152602001828054801561044257602002820191905f5260205f20905b81548152602001906001019080831161042e575b5050505050905090565b610454612147565b60045f60055f3373ffffffffffffffffffffffffffffffffffffffff1673ffffffffffffffffffffffffffffffffffffffff1681526020019081526020015f205481526020019081526020015f206040518060e00160405290815f8201548152602001600182015f9054906101000a900473ffffffffffffffffffffffffffffffffffffffff1673ffffffffffffffffffffffffffffffffffffffff1673ffffffffffffffffffffffffffffffffffffffff168152602001600282015f9054906101000a900473ffffffffffffffffffffffffffffffffffffffff1673ffffffffffffffffffffffffffffffffffffffff1673ffffffffffffffffffffffffffffffffffffffff168152602001600382015f9054906101000a900473ffffffffffffffffffffffffffffffffffffffff1673ffffffffffffffffffffffffffffffffffffffff1673ffffffffffffffffffffffffffffffffffffffff168152602001600482015481526020016005820154815260200160068201604051806101a00160405290815f8201548152602001600182015f9054906101000a900473ffffffffffffffffffffffffffffffffffffffff1673ffffffffffffffffffffffffffffffffffffffff1673ffffffffffffffffffffffffffffffffffffffff168152602001600282015f9054906101000a900473ffffffffffffffffffffffffffffffffffffffff1673ffffffffffffffffffffffffffffffffffffffff1673ffffffffffffffffffffffffffffffffffffffff168152602001600382015481526020016004820154815260200160058201548152602001600682015f9054906101000a900460ff1660028111156106cf576106ce6124a5565b5b60028111156106e1576106e06124a5565b5b8152602001600782016040518060c00160405290815f82015f9054906101000a900460ff166003811115610718576107176124a5565b5b600381111561072a576107296124a5565b5b8152602001600182015481526020016002820154815260200160038201548152602001600482015481526020016005820154815250508152602001600d82016040518060c00160405290815f82015f9054906101000a900460ff166003811115610797576107966124a5565b5b60038111156107a9576107a86124a5565b5b8152602001600182015481526020016002820154815260200160038201548152602001600482015481526020016005820154815250508152602001601382016040518060400160405290815f82015481526020016001820154815250508152602001601582015481526020016016820154815260200160178201548152505081525050905090565b610839612147565b60045f8381526020019081526020015f206040518060e00160405290815f8201548152602001600182015f9054906101000a900473ffffffffffffffffffffffffffffffffffffffff1673ffffffffffffffffffffffffffffffffffffffff1673ffffffffffffffffffffffffffffffffffffffff168152602001600282015f9054906101000a900473ffffffffffffffffffffffffffffffffffffffff1673ffffffffffffffffffffffffffffffffffffffff1673ffffffffffffffffffffffffffffffffffffffff168152602001600382015f9054906101000a900473ffffffffffffffffffffffffffffffffffffffff1673ffffffffffffffffffffffffffffffffffffffff1673ffffffffffffffffffffffffffffffffffffffff168152602001600482015481526020016005820154815260200160068201604051806101a00160405290815f8201548152602001600182015f9054906101000a900473ffffffffffffffffffffffffffffffffffffffff1673ffffffffffffffffffffffffffffffffffffffff1673ffffffffffffffffffffffffffffffffffffffff168152602001600282015f9054906101000a900473ffffffffffffffffffffffffffffffffffffffff1673ffffffffffffffffffffffffffffffffffffffff1673ffffffffffffffffffffffffffffffffffffffff168152602001600382015481526020016004820154815260200160058201548152602001600682015f9054906101000a900460ff166002811115610a7757610a766124a5565b5b6002811115610a8957610a886124a5565b5b8152602001600782016040518060c00160405290815f82015f9054906101000a900460ff166003811115610ac057610abf6124a5565b5b6003811115610ad257610ad16124a5565b5b8152602001600182015481526020016002820154815260200160038201548152602001600482015481526020016005820154815250508152602001600d82016040518060c00160405290815f82015f9054906101000a900460ff166003811115610b3f57610b3e6124a5565b5b6003811115610b5157610b506124a5565b5b8152602001600182015481526020016002820154815260200160038201548152602001600482015481526020016005820154815250508152602001601382016040518060400160405290815f820154815260200160018201548152505081526020016015820154815260200160168201548152602001601782015481525050815250509050919050565b5f5f610c1b6040518060400160405280601181526020017f50454e53494f4e5f53455455505f46454500000000000000000000000000000081525061172c565b5f610c298460200151611b3a565b90505f610c34611e63565b9050600281908060018154018082558091505060019003905f5260205f20015f90919091909150555f8260e001516020015142610c719190612c0d565b90505f8361010001516020015182610c899190612c0d565b9050610c9483611e7f565b95506040518060e001604052808481526020013373ffffffffffffffffffffffffffffffffffffffff168152602001885f015173ffffffffffffffffffffffffffffffffffffffff1681526020018773ffffffffffffffffffffffffffffffffffffffff1681526020018381526020018281526020018581525060045f8581526020019081526020015f205f820151815f01556020820151816001015f6101000a81548173ffffffffffffffffffffffffffffffffffffffff021916908373ffffffffffffffffffffffffffffffffffffffff1602179055506040820151816002015f6101000a81548173ffffffffffffffffffffffffffffffffffffffff021916908373ffffffffffffffffffffffffffffffffffffffff1602179055506060820151816003015f6101000a81548173ffffffffffffffffffffffffffffffffffffffff021916908373ffffffffffffffffffffffffffffffffffffffff1602179055506080820151816004015560a0820151816005015560c0820151816006015f820151815f01556020820151816001015f6101000a81548173ffffffffffffffffffffffffffffffffffffffff021916908373ffffffffffffffffffffffffffffffffffffffff1602179055506040820151816002015f6101000a81548173ffffffffffffffffffffffffffffffffffffffff021916908373ffffffffffffffffffffffffffffffffffffffff160217905550606082015181600301556080820151816004015560a0820151816005015560c0820151816006015f6101000a81548160ff02191690836002811115610ef257610ef16124a5565b5b021790555060e0820151816007015f820151815f015f6101000a81548160ff02191690836003811115610f2857610f276124a5565b5b02179055506020820151816001015560408201518160020155606082015181600301556080820151816004015560a08201518160050155505061010082015181600d015f820151815f015f6101000a81548160ff02191690836003811115610f9357610f926124a5565b5b02179055506020820151816001015560408201518160020155606082015181600301556080820151816004015560a082015181600501555050610120820151816013015f820151815f015560208201518160010155505061014082015181601501556101608201518160160155610180820151816017015550509050508260055f895f015173ffffffffffffffffffffffffffffffffffffffff1673ffffffffffffffffffffffffffffffffffffffff1681526020019081526020015f20819055506111815f5f8560066040518060400160405280601181526020017f50454e53494f4e5f53455455505f4645450000000000000000000000000000008152506040516110a09190612c7a565b9081526020016040518091039020545f5f9054906101000a900473ffffffffffffffffffffffffffffffffffffffff1673ffffffffffffffffffffffffffffffffffffffff1663bf40fac16040518060400160405280601581526020017f52455345525645445f4d505f4645455f544f4b454e00000000000000000000008152506040518263ffffffff1660e01b815260040161113d919061236f565b602060405180830381865afa158015611158573d5f5f3e3d5ffd5b505050506040513d601f19601f8201168201806040525081019061117c9190612b4d565b611fcc565b945050505050915091565b5f6060805f5f9054906101000a900473ffffffffffffffffffffffffffffffffffffffff1673ffffffffffffffffffffffffffffffffffffffff1663bf40fac16040518060400160405280601581526020017f52455345525645445f4d505f4645455f544f4b454e00000000000000000000008152506040518263ffffffff1660e01b815260040161121e919061236f565b602060405180830381865afa158015611239573d5f5f3e3d5ffd5b505050506040513d601f19601f8201168201806040525081019061125d9190612b4d565b92505f839050838173ffffffffffffffffffffffffffffffffffffffff166306fdde036040518163ffffffff1660e01b81526004015f60405180830381865afa1580156112ac573d5f5f3e3d5ffd5b505050506040513d5f823e3d601f19601f820116820180604052508101906112d49190612cfe565b8273ffffffffffffffffffffffffffffffffffffffff166395d89b416040518163ffffffff1660e01b81526004015f60405180830381865afa15801561131c573d5f5f3e3d5ffd5b505050506040513d5f823e3d601f19601f820116820180604052508101906113449190612cfe565b93509350935050909192565b5f5f5f9054906101000a900473ffffffffffffffffffffffffffffffffffffffff1673ffffffffffffffffffffffffffffffffffffffff1663bf40fac16040518060400160405280601181526020017f52455345525645445f4d505f41444d494e0000000000000000000000000000008152506040518263ffffffff1660e01b81526004016113df919061236f565b602060405180830381865afa1580156113fa573d5f5f3e3d5ffd5b505050506040513d601f19601f8201168201806040525081019061141e9190612b4d565b73ffffffffffffffffffffffffffffffffffffffff163373ffffffffffffffffffffffffffffffffffffffff161461148b576040517f08c379a000000000000000000000000000000000000000000000000000000000815260040161148290612bc2565b60405180910390fd5b8160068460405161149c9190612c7a565b9081526020016040518091039020819055506001905092915050565b5f5f5f9054906101000a900473ffffffffffffffffffffffffffffffffffffffff1673ffffffffffffffffffffffffffffffffffffffff1663bf40fac16040518060400160405280601181526020017f52455345525645445f4d505f41444d494e0000000000000000000000000000008152506040518263ffffffff1660e01b8152600401611547919061236f565b602060405180830381865afa158015611562573d5f5f3e3d5ffd5b505050506040513d601f19601f820116820180604052508101906115869190612b4d565b73ffffffffffffffffffffffffffffffffffffffff163373ffffffffffffffffffffffffffffffffffffffff16146115f3576040517f08c379a00000000000000000000000000000000000000000000000000000000081526004016115ea90612bc2565b60405180910390fd5b5f5f9054906101000a900473ffffffffffffffffffffffffffffffffffffffff1673ffffffffffffffffffffffffffffffffffffffff1663bf40fac16040518060400160405280601481526020017f52455345525645445f4d505f52454749535445520000000000000000000000008152506040518263ffffffff1660e01b8152600401611681919061236f565b602060405180830381865afa15801561169c573d5f5f3e3d5ffd5b505050506040513d601f19601f820116820180604052508101906116c09190612b4d565b5f5f6101000a81548173ffffffffffffffffffffffffffffffffffffffff021916908373ffffffffffffffffffffffffffffffffffffffff1602179055506001905090565b5f6006826040516117169190612c7a565b9081526020016040518091039020549050919050565b5f5f5f9054906101000a900473ffffffffffffffffffffffffffffffffffffffff1673ffffffffffffffffffffffffffffffffffffffff1663bf40fac16040518060400160405280601581526020017f52455345525645445f4d505f4645455f544f4b454e00000000000000000000008152506040518263ffffffff1660e01b81526004016117bb919061236f565b602060405180830381865afa1580156117d6573d5f5f3e3d5ffd5b505050506040513d601f19601f820116820180604052508101906117fa9190612b4d565b90505f5f5f9054906101000a900473ffffffffffffffffffffffffffffffffffffffff1673ffffffffffffffffffffffffffffffffffffffff1663bf40fac16040518060400160405280601081526020017f52455345525645445f4d505f42414e4b000000000000000000000000000000008152506040518263ffffffff1660e01b815260040161188b919061236f565b602060405180830381865afa1580156118a6573d5f5f3e3d5ffd5b505050506040513d601f19601f820116820180604052508101906118ca9190612b4d565b90505f6006846040516118dd9190612c7a565b908152602001604051809103902054905073eeeeeeeeeeeeeeeeeeeeeeeeeeeeeeeeeeeeeeee73ffffffffffffffffffffffffffffffffffffffff168373ffffffffffffffffffffffffffffffffffffffff1603611a145760066040518060400160405280601181526020017f50454e53494f4e5f53455455505f46454500000000000000000000000000000081525060405161197a9190612c7a565b9081526020016040518091039020543410156119cb576040517f08c379a00000000000000000000000000000000000000000000000000000000081526004016119c290612d8f565b60405180910390fd5b8173ffffffffffffffffffffffffffffffffffffffff166108fc8290811502906040515f60405180830381858888f19350505050158015611a0e573d5f5f3e3d5ffd5b50611b34565b5f8390508073ffffffffffffffffffffffffffffffffffffffff166323b872dd337f0000000000000000000000000000000000000000000000000000000000000000856040518463ffffffff1660e01b8152600401611a7593929190612dad565b6020604051808303815f875af1158015611a91573d5f5f3e3d5ffd5b505050506040513d601f19601f82011682018060405250810190611ab59190612e0c565b508073ffffffffffffffffffffffffffffffffffffffff1663a9059cbb84846040518363ffffffff1660e01b8152600401611af1929190612947565b6020604051808303815f875af1158015611b0d573d5f5f3e3d5ffd5b505050506040513d601f19601f82011682018060405250810190611b319190612e0c565b50505b50505050565b611b426121c6565b5f5f9054906101000a900473ffffffffffffffffffffffffffffffffffffffff1673ffffffffffffffffffffffffffffffffffffffff1663bf40fac16040518060400160405280601b81526020017f52455345525645445f4d505f50524f445543545f4d414e4147455200000000008152506040518263ffffffff1660e01b8152600401611bd0919061236f565b602060405180830381865afa158015611beb573d5f5f3e3d5ffd5b505050506040513d601f19601f82011682018060405250810190611c0f9190612b4d565b73ffffffffffffffffffffffffffffffffffffffff1663b9db15b4836040518263ffffffff1660e01b8152600401611c4791906122e6565b61030060405180830381865afa158015611c63573d5f5f3e3d5ffd5b505050506040513d601f19601f82011682018060405250810190611c8791906130b0565b9050428161016001511015611cd1576040517f08c379a0000000000000000000000000000000000000000000000000000000008152600401611cc890613126565b60405180910390fd5b5f81610180015111611d18576040517f08c379a0000000000000000000000000000000000000000000000000000000008152600401611d0f9061318e565b60405180910390fd5b5f5f9054906101000a900473ffffffffffffffffffffffffffffffffffffffff1673ffffffffffffffffffffffffffffffffffffffff1663bf40fac16040518060400160405280601b81526020017f52455345525645445f4d505f50524f445543545f4d414e4147455200000000008152506040518263ffffffff1660e01b8152600401611da6919061236f565b602060405180830381865afa158015611dc1573d5f5f3e3d5ffd5b505050506040513d601f19601f82011682018060405250810190611de59190612b4d565b73ffffffffffffffffffffffffffffffffffffffff16638d808bcf836040518263ffffffff1660e01b8152600401611e1d91906122e6565b6020604051808303815f875af1158015611e39573d5f5f3e3d5ffd5b505050506040513d601f19601f82011682018060405250810190611e5d91906131ac565b50919050565b5f60015f815480929190611e76906131d7565b91905055905090565b5f5f5f9054906101000a900473ffffffffffffffffffffffffffffffffffffffff1673ffffffffffffffffffffffffffffffffffffffff1663bf40fac16040518060400160405280601981526020017f52455345525645445f4d505f5641554c545f464143544f5259000000000000008152506040518263ffffffff1660e01b8152600401611f0e919061236f565b602060405180830381865afa158015611f29573d5f5f3e3d5ffd5b505050506040513d601f19601f82011682018060405250810190611f4d9190612b4d565b73ffffffffffffffffffffffffffffffffffffffff16639abbdf4b836040518263ffffffff1660e01b8152600401611f8591906122e6565b6020604051808303815f875af1158015611fa1573d5f5f3e3d5ffd5b505050506040513d601f19601f82011682018060405250810190611fc59190612b4d565b9050919050565b5f5f5f9054906101000a900473ffffffffffffffffffffffffffffffffffffffff1673ffffffffffffffffffffffffffffffffffffffff1663bf40fac16040518060400160405280601681526020017f52455345525645445f4d505f54585f4d414e41474552000000000000000000008152506040518263ffffffff1660e01b815260040161205b919061236f565b602060405180830381865afa158015612076573d5f5f3e3d5ffd5b505050506040513d601f19601f8201168201806040525081019061209a9190612b4d565b73ffffffffffffffffffffffffffffffffffffffff1663ee16e6398787877f000000000000000000000000000000000000000000000000000000000000000088886040518763ffffffff1660e01b81526004016120fc969594939291906132aa565b6020604051808303815f875af1158015612118573d5f5f3e3d5ffd5b505050506040513d601f19601f8201168201806040525081019061213c91906131ac565b905095945050505050565b6040518060e001604052805f81526020015f73ffffffffffffffffffffffffffffffffffffffff1681526020015f73ffffffffffffffffffffffffffffffffffffffff1681526020015f73ffffffffffffffffffffffffffffffffffffffff1681526020015f81526020015f81526020016121c06121c6565b81525090565b604051806101a001604052805f81526020015f73ffffffffffffffffffffffffffffffffffffffff1681526020015f73ffffffffffffffffffffffffffffffffffffffff1681526020015f81526020015f81526020015f81526020015f6002811115612235576122346124a5565b5b8152602001612242612274565b815260200161224f612274565b815260200161225c6122b6565b81526020015f81526020015f81526020015f81525090565b6040518060c001604052805f6003811115612292576122916124a5565b5b81526020015f81526020015f81526020015f81526020015f81526020015f81525090565b60405180604001604052805f81526020015f81525090565b5f819050919050565b6122e0816122ce565b82525050565b5f6020820190506122f95f8301846122d7565b92915050565b5f81519050919050565b5f82825260208201905092915050565b8281835e5f83830152505050565b5f601f19601f8301169050919050565b5f612341826122ff565b61234b8185612309565b935061235b818560208601612319565b61236481612327565b840191505092915050565b5f6020820190508181035f8301526123878184612337565b905092915050565b5f81519050919050565b5f82825260208201905092915050565b5f819050602082019050919050565b6123c1816122ce565b82525050565b5f6123d283836123b8565b60208301905092915050565b5f602082019050919050565b5f6123f48261238f565b6123fe8185612399565b9350612409836123a9565b805f5b8381101561243957815161242088826123c7565b975061242b836123de565b92505060018101905061240c565b5085935050505092915050565b5f6020820190508181035f83015261245e81846123ea565b905092915050565b5f73ffffffffffffffffffffffffffffffffffffffff82169050919050565b5f61248f82612466565b9050919050565b61249f81612485565b82525050565b7f4e487b71000000000000000000000000000000000000000000000000000000005f52602160045260245ffd5b600381106124e3576124e26124a5565b5b50565b5f8190506124f3826124d2565b919050565b5f612502826124e6565b9050919050565b612512816124f8565b82525050565b60048110612529576125286124a5565b5b50565b5f81905061253982612518565b919050565b5f6125488261252c565b9050919050565b6125588161253e565b82525050565b60c082015f8201516125725f85018261254f565b50602082015161258560208501826123b8565b50604082015161259860408501826123b8565b5060608201516125ab60608501826123b8565b5060808201516125be60808501826123b8565b5060a08201516125d160a08501826123b8565b50505050565b604082015f8201516125eb5f8501826123b8565b5060208201516125fe60208501826123b8565b50505050565b61030082015f8201516126195f8501826123b8565b50602082015161262c6020850182612496565b50604082015161263f6040850182612496565b50606082015161265260608501826123b8565b50608082015161266560808501826123b8565b5060a082015161267860a08501826123b8565b5060c082015161268b60c0850182612509565b5060e082015161269e60e085018261255e565b506101008201516126b36101a085018261255e565b506101208201516126c86102608501826125d7565b506101408201516126dd6102a08501826123b8565b506101608201516126f26102c08501826123b8565b506101808201516127076102e08501826123b8565b50505050565b6103c082015f8201516127225f8501826123b8565b5060208201516127356020850182612496565b5060408201516127486040850182612496565b50606082015161275b6060850182612496565b50608082015161276e60808501826123b8565b5060a082015161278160a08501826123b8565b5060c082015161279460c0850182612604565b50505050565b5f6103c0820190506127ae5f83018461270d565b92915050565b5f604051905090565b5f5ffd5b5f5ffd5b6127ce816122ce565b81146127d8575f5ffd5b50565b5f813590506127e9816127c5565b92915050565b5f60208284031215612804576128036127bd565b5b5f612811848285016127db565b91505092915050565b5f5ffd5b7f4e487b71000000000000000000000000000000000000000000000000000000005f52604160045260245ffd5b61285482612327565b810181811067ffffffffffffffff821117156128735761287261281e565b5b80604052505050565b5f6128856127b4565b9050612891828261284b565b919050565b61289f81612485565b81146128a9575f5ffd5b50565b5f813590506128ba81612896565b92915050565b5f604082840312156128d5576128d461281a565b5b6128df604061287c565b90505f6128ee848285016128ac565b5f830152506020612901848285016127db565b60208301525092915050565b5f60408284031215612922576129216127bd565b5b5f61292f848285016128c0565b91505092915050565b61294181612485565b82525050565b5f60408201905061295a5f830185612938565b61296760208301846122d7565b9392505050565b5f6060820190506129815f830186612938565b81810360208301526129938185612337565b905081810360408301526129a78184612337565b9050949350505050565b5f5ffd5b5f5ffd5b5f67ffffffffffffffff8211156129d3576129d261281e565b5b6129dc82612327565b9050602081019050919050565b828183375f83830152505050565b5f612a09612a04846129b9565b61287c565b905082815260208101848484011115612a2557612a246129b5565b5b612a308482856129e9565b509392505050565b5f82601f830112612a4c57612a4b6129b1565b5b8135612a5c8482602086016129f7565b91505092915050565b5f5f60408385031215612a7b57612a7a6127bd565b5b5f83013567ffffffffffffffff811115612a9857612a976127c1565b5b612aa485828601612a38565b9250506020612ab5858286016127db565b9150509250929050565b5f8115159050919050565b612ad381612abf565b82525050565b5f602082019050612aec5f830184612aca565b92915050565b5f60208284031215612b0757612b066127bd565b5b5f82013567ffffffffffffffff811115612b2457612b236127c1565b5b612b3084828501612a38565b91505092915050565b5f81519050612b4781612896565b92915050565b5f60208284031215612b6257612b616127bd565b5b5f612b6f84828501612b39565b91505092915050565b7f50656e73696f6e2041646d696e204f6e6c7900000000000000000000000000005f82015250565b5f612bac601283612309565b9150612bb782612b78565b602082019050919050565b5f6020820190508181035f830152612bd981612ba0565b9050919050565b7f4e487b71000000000000000000000000000000000000000000000000000000005f52601160045260245ffd5b5f612c17826122ce565b9150612c22836122ce565b9250828201905080821115612c3a57612c39612be0565b5b92915050565b5f81905092915050565b5f612c54826122ff565b612c5e8185612c40565b9350612c6e818560208601612319565b80840191505092915050565b5f612c858284612c4a565b915081905092915050565b5f612ca2612c9d846129b9565b61287c565b905082815260208101848484011115612cbe57612cbd6129b5565b5b612cc9848285612319565b509392505050565b5f82601f830112612ce557612ce46129b1565b5b8151612cf5848260208601612c90565b91505092915050565b5f60208284031215612d1357612d126127bd565b5b5f82015167ffffffffffffffff811115612d3057612d2f6127c1565b5b612d3c84828501612cd1565b91505092915050565b7f696e73756666696369656e742070656e73696f6e2073657475702066656500005f82015250565b5f612d79601e83612309565b9150612d8482612d45565b602082019050919050565b5f6020820190508181035f830152612da681612d6d565b9050919050565b5f606082019050612dc05f830186612938565b612dcd6020830185612938565b612dda60408301846122d7565b949350505050565b612deb81612abf565b8114612df5575f5ffd5b50565b5f81519050612e0681612de2565b92915050565b5f60208284031215612e2157612e206127bd565b5b5f612e2e84828501612df8565b91505092915050565b5f81519050612e45816127c5565b92915050565b60038110612e57575f5ffd5b50565b5f81519050612e6881612e4b565b92915050565b60048110612e7a575f5ffd5b50565b5f81519050612e8b81612e6e565b92915050565b5f60c08284031215612ea657612ea561281a565b5b612eb060c061287c565b90505f612ebf84828501612e7d565b5f830152506020612ed284828501612e37565b6020830152506040612ee684828501612e37565b6040830152506060612efa84828501612e37565b6060830152506080612f0e84828501612e37565b60808301525060a0612f2284828501612e37565b60a08301525092915050565b5f60408284031215612f4357612f4261281a565b5b612f4d604061287c565b90505f612f5c84828501612e37565b5f830152506020612f6f84828501612e37565b60208301525092915050565b5f6103008284031215612f9157612f9061281a565b5b612f9c6101a061287c565b90505f612fab84828501612e37565b5f830152506020612fbe84828501612b39565b6020830152506040612fd284828501612b39565b6040830152506060612fe684828501612e37565b6060830152506080612ffa84828501612e37565b60808301525060a061300e84828501612e37565b60a08301525060c061302284828501612e5a565b60c08301525060e061303684828501612e91565b60e0830152506101a061304b84828501612e91565b6101008301525061026061306184828501612f2e565b610120830152506102a061307784828501612e37565b610140830152506102c061308d84828501612e37565b610160830152506102e06130a384828501612e37565b6101808301525092915050565b5f61030082840312156130c6576130c56127bd565b5b5f6130d384828501612f7b565b91505092915050565b7f70726f64756374206578706972656400000000000000000000000000000000005f82015250565b5f613110600f83612309565b915061311b826130dc565b602082019050919050565b5f6020820190508181035f83015261313d81613104565b9050919050565b7f696e73756666696369656e7420696e76656e746f7279000000000000000000005f82015250565b5f613178601683612309565b915061318382613144565b602082019050919050565b5f6020820190508181035f8301526131a58161316c565b9050919050565b5f602082840312156131c1576131c06127bd565b5b5f6131ce84828501612e37565b91505092915050565b5f6131e1826122ce565b91507fffffffffffffffffffffffffffffffffffffffffffffffffffffffffffffffff820361321357613212612be0565b5b600182019050919050565b600a811061322f5761322e6124a5565b5b50565b5f81905061323f8261321e565b919050565b5f61324e82613232565b9050919050565b61325e81613244565b82525050565b60068110613275576132746124a5565b5b50565b5f81905061328582613264565b919050565b5f61329482613278565b9050919050565b6132a48161328a565b82525050565b5f60c0820190506132bd5f830189613255565b6132ca602083018861329b565b6132d760408301876122d7565b6132e46060830186612938565b6132f160808301856122d7565b6132fe60a0830184612938565b97965050505050505056fea26469706673582212206eeed354e1616166f9353f18e0cc5b4f673ee5bde506052dbd5e1e1e26f45ddd64736f6c634300081e0033",
					"opcodes": "PUSH1 0xA0 PUSH1 0x40 MSTORE PUSH1 0x1 DUP1 SSTORE CALLVALUE DUP1 ISZERO PUSH2 0x13 JUMPI PUSH0 PUSH0 REVERT JUMPDEST POP PUSH1 0x40 MLOAD PUSH2 0x3E62 CODESIZE SUB DUP1 PUSH2 0x3E62 DUP4 CODECOPY DUP2 DUP2 ADD PUSH1 0x40 MSTORE DUP2 ADD SWAP1 PUSH2 0x35 SWAP2 SWAP1 PUSH2 0x964 JUMP JUMPDEST DUP1 PUSH0 PUSH0 PUSH2 0x100 EXP DUP2 SLOAD DUP2 PUSH20 0xFFFFFFFFFFFFFFFFFFFFFFFFFFFFFFFFFFFFFFFF MUL NOT AND SWAP1 DUP4 PUSH20 0xFFFFFFFFFFFFFFFFFFFFFFFFFFFFFFFFFFFFFFFF AND MUL OR SWAP1 SSTORE POP PUSH0 PUSH0 SWAP1 SLOAD SWAP1 PUSH2 0x100 EXP SWAP1 DIV PUSH20 0xFFFFFFFFFFFFFFFFFFFFFFFFFFFFFFFFFFFFFFFF AND PUSH20 0xFFFFFFFFFFFFFFFFFFFFFFFFFFFFFFFFFFFFFFFF AND PUSH4 0xE1311EC6 PUSH1 0x40 MLOAD DUP1 PUSH1 0x40 ADD PUSH1 0x40 MSTORE DUP1 PUSH1 0x11 DUP2 MSTORE PUSH1 0x20 ADD PUSH32 0x52455345525645445F4D505F41444D494E000000000000000000000000000000 DUP2 MSTORE POP PUSH1 0x40 MLOAD DUP3 PUSH4 0xFFFFFFFF AND PUSH1 0xE0 SHL DUP2 MSTORE PUSH1 0x4 ADD PUSH2 0x102 SWAP2 SWAP1 PUSH2 0x9FF JUMP JUMPDEST PUSH1 0x20 PUSH1 0x40 MLOAD DUP1 DUP4 SUB DUP2 DUP7 GAS STATICCALL ISZERO DUP1 ISZERO PUSH2 0x11D JUMPI RETURNDATASIZE PUSH0 PUSH0 RETURNDATACOPY RETURNDATASIZE PUSH0 REVERT JUMPDEST POP POP POP POP PUSH1 0x40 MLOAD RETURNDATASIZE PUSH1 0x1F NOT PUSH1 0x1F DUP3 ADD AND DUP3 ADD DUP1 PUSH1 0x40 MSTORE POP DUP2 ADD SWAP1 PUSH2 0x141 SWAP2 SWAP1 PUSH2 0xA54 JUMP JUMPDEST PUSH1 0x40 MLOAD DUP1 PUSH1 0x40 ADD PUSH1 0x40 MSTORE DUP1 PUSH1 0x11 DUP2 MSTORE PUSH1 0x20 ADD PUSH32 0x52455345525645445F4D505F41444D494E000000000000000000000000000000 DUP2 MSTORE POP PUSH1 0x40 MLOAD PUSH1 0x20 ADD PUSH2 0x187 SWAP2 SWAP1 PUSH2 0xADF JUMP JUMPDEST PUSH1 0x40 MLOAD PUSH1 0x20 DUP2 DUP4 SUB SUB DUP2 MSTORE SWAP1 PUSH1 0x40 MSTORE SWAP1 PUSH2 0x1D7 JUMPI PUSH1 0x40 MLOAD PUSH32 0x8C379A000000000000000000000000000000000000000000000000000000000 DUP2 MSTORE PUSH1 0x4 ADD PUSH2 0x1CE SWAP2 SWAP1 PUSH2 0x9FF JUMP JUMPDEST PUSH1 0x40 MLOAD DUP1 SWAP2 SUB SWAP1 REVERT JUMPDEST POP PUSH0 PUSH0 SWAP1 SLOAD SWAP1 PUSH2 0x100 EXP SWAP1 DIV PUSH20 0xFFFFFFFFFFFFFFFFFFFFFFFFFFFFFFFFFFFFFFFF AND PUSH20 0xFFFFFFFFFFFFFFFFFFFFFFFFFFFFFFFFFFFFFFFF AND PUSH4 0xE1311EC6 PUSH1 0x40 MLOAD DUP1 PUSH1 0x40 ADD PUSH1 0x40 MSTORE DUP1 PUSH1 0x15 DUP2 MSTORE PUSH1 0x20 ADD PUSH32 0x52455345525645445F4D505F4645455F544F4B454E0000000000000000000000 DUP2 MSTORE POP PUSH1 0x40 MLOAD DUP3 PUSH4 0xFFFFFFFF AND PUSH1 0xE0 SHL DUP2 MSTORE PUSH1 0x4 ADD PUSH2 0x266 SWAP2 SWAP1 PUSH2 0x9FF JUMP JUMPDEST PUSH1 0x20 PUSH1 0x40 MLOAD DUP1 DUP4 SUB DUP2 DUP7 GAS STATICCALL ISZERO DUP1 ISZERO PUSH2 0x281 JUMPI RETURNDATASIZE PUSH0 PUSH0 RETURNDATACOPY RETURNDATASIZE PUSH0 REVERT JUMPDEST POP POP POP POP PUSH1 0x40 MLOAD RETURNDATASIZE PUSH1 0x1F NOT PUSH1 0x1F DUP3 ADD AND DUP3 ADD DUP1 PUSH1 0x40 MSTORE POP DUP2 ADD SWAP1 PUSH2 0x2A5 SWAP2 SWAP1 PUSH2 0xA54 JUMP JUMPDEST PUSH1 0x40 MLOAD DUP1 PUSH1 0x40 ADD PUSH1 0x40 MSTORE DUP1 PUSH1 0x15 DUP2 MSTORE PUSH1 0x20 ADD PUSH32 0x52455345525645445F4D505F4645455F544F4B454E0000000000000000000000 DUP2 MSTORE POP PUSH1 0x40 MLOAD PUSH1 0x20 ADD PUSH2 0x2EB SWAP2 SWAP1 PUSH2 0xADF JUMP JUMPDEST PUSH1 0x40 MLOAD PUSH1 0x20 DUP2 DUP4 SUB SUB DUP2 MSTORE SWAP1 PUSH1 0x40 MSTORE SWAP1 PUSH2 0x33B JUMPI PUSH1 0x40 MLOAD PUSH32 0x8C379A000000000000000000000000000000000000000000000000000000000 DUP2 MSTORE PUSH1 0x4 ADD PUSH2 0x332 SWAP2 SWAP1 PUSH2 0x9FF JUMP JUMPDEST PUSH1 0x40 MLOAD DUP1 SWAP2 SUB SWAP1 REVERT JUMPDEST POP PUSH0 PUSH0 SWAP1 SLOAD SWAP1 PUSH2 0x100 EXP SWAP1 DIV PUSH20 0xFFFFFFFFFFFFFFFFFFFFFFFFFFFFFFFFFFFFFFFF AND PUSH20 0xFFFFFFFFFFFFFFFFFFFFFFFFFFFFFFFFFFFFFFFF AND PUSH4 0xE1311EC6 PUSH1 0x40 MLOAD DUP1 PUSH1 0x40 ADD PUSH1 0x40 MSTORE DUP1 PUSH1 0x10 DUP2 MSTORE PUSH1 0x20 ADD PUSH32 0x52455345525645445F4D505F42414E4B00000000000000000000000000000000 DUP2 MSTORE POP PUSH1 0x40 MLOAD DUP3 PUSH4 0xFFFFFFFF AND PUSH1 0xE0 SHL DUP2 MSTORE PUSH1 0x4 ADD PUSH2 0x3CA SWAP2 SWAP1 PUSH2 0x9FF JUMP JUMPDEST PUSH1 0x20 PUSH1 0x40 MLOAD DUP1 DUP4 SUB DUP2 DUP7 GAS STATICCALL ISZERO DUP1 ISZERO PUSH2 0x3E5 JUMPI RETURNDATASIZE PUSH0 PUSH0 RETURNDATACOPY RETURNDATASIZE PUSH0 REVERT JUMPDEST POP POP POP POP PUSH1 0x40 MLOAD RETURNDATASIZE PUSH1 0x1F NOT PUSH1 0x1F DUP3 ADD AND DUP3 ADD DUP1 PUSH1 0x40 MSTORE POP DUP2 ADD SWAP1 PUSH2 0x409 SWAP2 SWAP1 PUSH2 0xA54 JUMP JUMPDEST PUSH1 0x40 MLOAD DUP1 PUSH1 0x40 ADD PUSH1 0x40 MSTORE DUP1 PUSH1 0x10 DUP2 MSTORE PUSH1 0x20 ADD PUSH32 0x52455345525645445F4D505F42414E4B00000000000000000000000000000000 DUP2 MSTORE POP PUSH1 0x40 MLOAD PUSH1 0x20 ADD PUSH2 0x44F SWAP2 SWAP1 PUSH2 0xADF JUMP JUMPDEST PUSH1 0x40 MLOAD PUSH1 0x20 DUP2 DUP4 SUB SUB DUP2 MSTORE SWAP1 PUSH1 0x40 MSTORE SWAP1 PUSH2 0x49F JUMPI PUSH1 0x40 MLOAD PUSH32 0x8C379A000000000000000000000000000000000000000000000000000000000 DUP2 MSTORE PUSH1 0x4 ADD PUSH2 0x496 SWAP2 SWAP1 PUSH2 0x9FF JUMP JUMPDEST PUSH1 0x40 MLOAD DUP1 SWAP2 SUB SWAP1 REVERT JUMPDEST POP PUSH0 PUSH0 SWAP1 SLOAD SWAP1 PUSH2 0x100 EXP SWAP1 DIV PUSH20 0xFFFFFFFFFFFFFFFFFFFFFFFFFFFFFFFFFFFFFFFF AND PUSH20 0xFFFFFFFFFFFFFFFFFFFFFFFFFFFFFFFFFFFFFFFF AND PUSH4 0xE1311EC6 PUSH1 0x40 MLOAD DUP1 PUSH1 0x40 ADD PUSH1 0x40 MSTORE DUP1 PUSH1 0x19 DUP2 MSTORE PUSH1 0x20 ADD PUSH32 0x52455345525645445F4D505F5641554C545F464143544F525900000000000000 DUP2 MSTORE POP PUSH1 0x40 MLOAD DUP3 PUSH4 0xFFFFFFFF AND PUSH1 0xE0 SHL DUP2 MSTORE PUSH1 0x4 ADD PUSH2 0x52E SWAP2 SWAP1 PUSH2 0x9FF JUMP JUMPDEST PUSH1 0x20 PUSH1 0x40 MLOAD DUP1 DUP4 SUB DUP2 DUP7 GAS STATICCALL ISZERO DUP1 ISZERO PUSH2 0x549 JUMPI RETURNDATASIZE PUSH0 PUSH0 RETURNDATACOPY RETURNDATASIZE PUSH0 REVERT JUMPDEST POP POP POP POP PUSH1 0x40 MLOAD RETURNDATASIZE PUSH1 0x1F NOT PUSH1 0x1F DUP3 ADD AND DUP3 ADD DUP1 PUSH1 0x40 MSTORE POP DUP2 ADD SWAP1 PUSH2 0x56D SWAP2 SWAP1 PUSH2 0xA54 JUMP JUMPDEST PUSH1 0x40 MLOAD DUP1 PUSH1 0x40 ADD PUSH1 0x40 MSTORE DUP1 PUSH1 0x19 DUP2 MSTORE PUSH1 0x20 ADD PUSH32 0x52455345525645445F4D505F5641554C545F464143544F525900000000000000 DUP2 MSTORE POP PUSH1 0x40 MLOAD PUSH1 0x20 ADD PUSH2 0x5B3 SWAP2 SWAP1 PUSH2 0xADF JUMP JUMPDEST PUSH1 0x40 MLOAD PUSH1 0x20 DUP2 DUP4 SUB SUB DUP2 MSTORE SWAP1 PUSH1 0x40 MSTORE SWAP1 PUSH2 0x603 JUMPI PUSH1 0x40 MLOAD PUSH32 0x8C379A000000000000000000000000000000000000000000000000000000000 DUP2 MSTORE PUSH1 0x4 ADD PUSH2 0x5FA SWAP2 SWAP1 PUSH2 0x9FF JUMP JUMPDEST PUSH1 0x40 MLOAD DUP1 SWAP2 SUB SWAP1 REVERT JUMPDEST POP PUSH0 PUSH0 SWAP1 SLOAD SWAP1 PUSH2 0x100 EXP SWAP1 DIV PUSH20 0xFFFFFFFFFFFFFFFFFFFFFFFFFFFFFFFFFFFFFFFF AND PUSH20 0xFFFFFFFFFFFFFFFFFFFFFFFFFFFFFFFFFFFFFFFF AND PUSH4 0xE1311EC6 PUSH1 0x40 MLOAD DUP1 PUSH1 0x40 ADD PUSH1 0x40 MSTORE DUP1 PUSH1 0x16 DUP2 MSTORE PUSH1 0x20 ADD PUSH32 0x52455345525645445F4D505F54585F4D414E4147455200000000000000000000 DUP2 MSTORE POP PUSH1 0x40 MLOAD DUP3 PUSH4 0xFFFFFFFF AND PUSH1 0xE0 SHL DUP2 MSTORE PUSH1 0x4 ADD PUSH2 0x692 SWAP2 SWAP1 PUSH2 0x9FF JUMP JUMPDEST PUSH1 0x20 PUSH1 0x40 MLOAD DUP1 DUP4 SUB DUP2 DUP7 GAS STATICCALL ISZERO DUP1 ISZERO PUSH2 0x6AD JUMPI RETURNDATASIZE PUSH0 PUSH0 RETURNDATACOPY RETURNDATASIZE PUSH0 REVERT JUMPDEST POP POP POP POP PUSH1 0x40 MLOAD RETURNDATASIZE PUSH1 0x1F NOT PUSH1 0x1F DUP3 ADD AND DUP3 ADD DUP1 PUSH1 0x40 MSTORE POP DUP2 ADD SWAP1 PUSH2 0x6D1 SWAP2 SWAP1 PUSH2 0xA54 JUMP JUMPDEST PUSH1 0x40 MLOAD DUP1 PUSH1 0x40 ADD PUSH1 0x40 MSTORE DUP1 PUSH1 0x16 DUP2 MSTORE PUSH1 0x20 ADD PUSH32 0x52455345525645445F4D505F54585F4D414E4147455200000000000000000000 DUP2 MSTORE POP PUSH1 0x40 MLOAD PUSH1 0x20 ADD PUSH2 0x717 SWAP2 SWAP1 PUSH2 0xADF JUMP JUMPDEST PUSH1 0x40 MLOAD PUSH1 0x20 DUP2 DUP4 SUB SUB DUP2 MSTORE SWAP1 PUSH1 0x40 MSTORE SWAP1 PUSH2 0x767 JUMPI PUSH1 0x40 MLOAD PUSH32 0x8C379A000000000000000000000000000000000000000000000000000000000 DUP2 MSTORE PUSH1 0x4 ADD PUSH2 0x75E SWAP2 SWAP1 PUSH2 0x9FF JUMP JUMPDEST PUSH1 0x40 MLOAD DUP1 SWAP2 SUB SWAP1 REVERT JUMPDEST POP PUSH0 PUSH0 SWAP1 SLOAD SWAP1 PUSH2 0x100 EXP SWAP1 DIV PUSH20 0xFFFFFFFFFFFFFFFFFFFFFFFFFFFFFFFFFFFFFFFF AND PUSH20 0xFFFFFFFFFFFFFFFFFFFFFFFFFFFFFFFFFFFFFFFF AND PUSH4 0xE1311EC6 PUSH1 0x40 MLOAD DUP1 PUSH1 0x40 ADD PUSH1 0x40 MSTORE DUP1 PUSH1 0x1B DUP2 MSTORE PUSH1 0x20 ADD PUSH32 0x52455345525645445F4D505F50524F445543545F4D414E414745520000000000 DUP2 MSTORE POP PUSH1 0x40 MLOAD DUP3 PUSH4 0xFFFFFFFF AND PUSH1 0xE0 SHL DUP2 MSTORE PUSH1 0x4 ADD PUSH2 0x7F6 SWAP2 SWAP1 PUSH2 0x9FF JUMP JUMPDEST PUSH1 0x20 PUSH1 0x40 MLOAD DUP1 DUP4 SUB DUP2 DUP7 GAS STATICCALL ISZERO DUP1 ISZERO PUSH2 0x811 JUMPI RETURNDATASIZE PUSH0 PUSH0 RETURNDATACOPY RETURNDATASIZE PUSH0 REVERT JUMPDEST POP POP POP POP PUSH1 0x40 MLOAD RETURNDATASIZE PUSH1 0x1F NOT PUSH1 0x1F DUP3 ADD AND DUP3 ADD DUP1 PUSH1 0x40 MSTORE POP DUP2 ADD SWAP1 PUSH2 0x835 SWAP2 SWAP1 PUSH2 0xA54 JUMP JUMPDEST PUSH1 0x40 MLOAD DUP1 PUSH1 0x40 ADD PUSH1 0x40 MSTORE DUP1 PUSH1 0x1B DUP2 MSTORE PUSH1 0x20 ADD PUSH32 0x52455345525645445F4D505F50524F445543545F4D414E414745520000000000 DUP2 MSTORE POP PUSH1 0x40 MLOAD PUSH1 0x20 ADD PUSH2 0x87B SWAP2 SWAP1 PUSH2 0xADF JUMP JUMPDEST PUSH1 0x40 MLOAD PUSH1 0x20 DUP2 DUP4 SUB SUB DUP2 MSTORE SWAP1 PUSH1 0x40 MSTORE SWAP1 PUSH2 0x8CB JUMPI PUSH1 0x40 MLOAD PUSH32 0x8C379A000000000000000000000000000000000000000000000000000000000 DUP2 MSTORE PUSH1 0x4 ADD PUSH2 0x8C2 SWAP2 SWAP1 PUSH2 0x9FF JUMP JUMPDEST PUSH1 0x40 MLOAD DUP1 SWAP2 SUB SWAP1 REVERT JUMPDEST POP ADDRESS PUSH20 0xFFFFFFFFFFFFFFFFFFFFFFFFFFFFFFFFFFFFFFFF AND PUSH1 0x80 DUP2 PUSH20 0xFFFFFFFFFFFFFFFFFFFFFFFFFFFFFFFFFFFFFFFF AND DUP2 MSTORE POP POP POP PUSH2 0xB04 JUMP JUMPDEST PUSH0 PUSH0 REVERT JUMPDEST PUSH0 PUSH20 0xFFFFFFFFFFFFFFFFFFFFFFFFFFFFFFFFFFFFFFFF DUP3 AND SWAP1 POP SWAP2 SWAP1 POP JUMP JUMPDEST PUSH0 PUSH2 0x933 DUP3 PUSH2 0x90A JUMP JUMPDEST SWAP1 POP SWAP2 SWAP1 POP JUMP JUMPDEST PUSH2 0x943 DUP2 PUSH2 0x929 JUMP JUMPDEST DUP2 EQ PUSH2 0x94D JUMPI PUSH0 PUSH0 REVERT JUMPDEST POP JUMP JUMPDEST PUSH0 DUP2 MLOAD SWAP1 POP PUSH2 0x95E DUP2 PUSH2 0x93A JUMP JUMPDEST SWAP3 SWAP2 POP POP JUMP JUMPDEST PUSH0 PUSH1 0x20 DUP3 DUP5 SUB SLT ISZERO PUSH2 0x979 JUMPI PUSH2 0x978 PUSH2 0x906 JUMP JUMPDEST JUMPDEST PUSH0 PUSH2 0x986 DUP5 DUP3 DUP6 ADD PUSH2 0x950 JUMP JUMPDEST SWAP2 POP POP SWAP3 SWAP2 POP POP JUMP JUMPDEST PUSH0 DUP2 MLOAD SWAP1 POP SWAP2 SWAP1 POP JUMP JUMPDEST PUSH0 DUP3 DUP3 MSTORE PUSH1 0x20 DUP3 ADD SWAP1 POP SWAP3 SWAP2 POP POP JUMP JUMPDEST DUP3 DUP2 DUP4 MCOPY PUSH0 DUP4 DUP4 ADD MSTORE POP POP POP JUMP JUMPDEST PUSH0 PUSH1 0x1F NOT PUSH1 0x1F DUP4 ADD AND SWAP1 POP SWAP2 SWAP1 POP JUMP JUMPDEST PUSH0 PUSH2 0x9D1 DUP3 PUSH2 0x98F JUMP JUMPDEST PUSH2 0x9DB DUP2 DUP6 PUSH2 0x999 JUMP JUMPDEST SWAP4 POP PUSH2 0x9EB DUP2 DUP6 PUSH1 0x20 DUP7 ADD PUSH2 0x9A9 JUMP JUMPDEST PUSH2 0x9F4 DUP2 PUSH2 0x9B7 JUMP JUMPDEST DUP5 ADD SWAP2 POP POP SWAP3 SWAP2 POP POP JUMP JUMPDEST PUSH0 PUSH1 0x20 DUP3 ADD SWAP1 POP DUP2 DUP2 SUB PUSH0 DUP4 ADD MSTORE PUSH2 0xA17 DUP2 DUP5 PUSH2 0x9C7 JUMP JUMPDEST SWAP1 POP SWAP3 SWAP2 POP POP JUMP JUMPDEST PUSH0 DUP2 ISZERO ISZERO SWAP1 POP SWAP2 SWAP1 POP JUMP JUMPDEST PUSH2 0xA33 DUP2 PUSH2 0xA1F JUMP JUMPDEST DUP2 EQ PUSH2 0xA3D JUMPI PUSH0 PUSH0 REVERT JUMPDEST POP JUMP JUMPDEST PUSH0 DUP2 MLOAD SWAP1 POP PUSH2 0xA4E DUP2 PUSH2 0xA2A JUMP JUMPDEST SWAP3 SWAP2 POP POP JUMP JUMPDEST PUSH0 PUSH1 0x20 DUP3 DUP5 SUB SLT ISZERO PUSH2 0xA69 JUMPI PUSH2 0xA68 PUSH2 0x906 JUMP JUMPDEST JUMPDEST PUSH0 PUSH2 0xA76 DUP5 DUP3 DUP6 ADD PUSH2 0xA40 JUMP JUMPDEST SWAP2 POP POP SWAP3 SWAP2 POP POP JUMP JUMPDEST PUSH32 0x6D697373696E6720616464726573732000000000000000000000000000000000 DUP2 MSTORE POP JUMP JUMPDEST PUSH0 DUP2 SWAP1 POP SWAP3 SWAP2 POP POP JUMP JUMPDEST PUSH0 PUSH2 0xAB9 DUP3 PUSH2 0x98F JUMP JUMPDEST PUSH2 0xAC3 DUP2 DUP6 PUSH2 0xAA5 JUMP JUMPDEST SWAP4 POP PUSH2 0xAD3 DUP2 DUP6 PUSH1 0x20 DUP7 ADD PUSH2 0x9A9 JUMP JUMPDEST DUP1 DUP5 ADD SWAP2 POP POP SWAP3 SWAP2 POP POP JUMP JUMPDEST PUSH0 PUSH2 0xAE9 DUP3 PUSH2 0xA7F JUMP JUMPDEST PUSH1 0x10 DUP3 ADD SWAP2 POP PUSH2 0xAF9 DUP3 DUP5 PUSH2 0xAAF JUMP JUMPDEST SWAP2 POP DUP2 SWAP1 POP SWAP3 SWAP2 POP POP JUMP JUMPDEST PUSH1 0x80 MLOAD PUSH2 0x333F PUSH2 0xB23 PUSH0 CODECOPY PUSH0 DUP2 DUP2 PUSH2 0x1A37 ADD MSTORE PUSH2 0x20BA ADD MSTORE PUSH2 0x333F PUSH0 RETURN INVALID PUSH1 0x80 PUSH1 0x40 MSTORE PUSH1 0x4 CALLDATASIZE LT PUSH2 0x90 JUMPI PUSH0 CALLDATALOAD PUSH1 0xE0 SHR DUP1 PUSH4 0xBACBA5F6 GT PUSH2 0x58 JUMPI DUP1 PUSH4 0xBACBA5F6 EQ PUSH2 0x178 JUMPI DUP1 PUSH4 0xCA709A25 EQ PUSH2 0x1A9 JUMPI DUP1 PUSH4 0xCAFE0E90 EQ PUSH2 0x1D5 JUMPI DUP1 PUSH4 0xCDE4C10C EQ PUSH2 0x211 JUMPI DUP1 PUSH4 0xED1EEE68 EQ PUSH2 0x23B JUMPI PUSH2 0x90 JUMP JUMPDEST DUP1 PUSH4 0xD8E6E2C EQ PUSH2 0x94 JUMPI DUP1 PUSH4 0x17D7DE7C EQ PUSH2 0xBE JUMPI DUP1 PUSH4 0x42B98F9D EQ PUSH2 0xE8 JUMPI DUP1 PUSH4 0x73488018 EQ PUSH2 0x112 JUMPI DUP1 PUSH4 0x77BDFDF2 EQ PUSH2 0x13C JUMPI JUMPDEST PUSH0 PUSH0 REVERT JUMPDEST CALLVALUE DUP1 ISZERO PUSH2 0x9F JUMPI PUSH0 PUSH0 REVERT JUMPDEST POP PUSH2 0xA8 PUSH2 0x277 JUMP JUMPDEST PUSH1 0x40 MLOAD PUSH2 0xB5 SWAP2 SWAP1 PUSH2 0x22E6 JUMP JUMPDEST PUSH1 0x40 MLOAD DUP1 SWAP2 SUB SWAP1 RETURN JUMPDEST CALLVALUE DUP1 ISZERO PUSH2 0xC9 JUMPI PUSH0 PUSH0 REVERT JUMPDEST POP PUSH2 0xD2 PUSH2 0x27F JUMP JUMPDEST PUSH1 0x40 MLOAD PUSH2 0xDF SWAP2 SWAP1 PUSH2 0x236F JUMP JUMPDEST PUSH1 0x40 MLOAD DUP1 SWAP2 SUB SWAP1 RETURN JUMPDEST CALLVALUE DUP1 ISZERO PUSH2 0xF3 JUMPI PUSH0 PUSH0 REVERT JUMPDEST POP PUSH2 0xFC PUSH2 0x2BC JUMP JUMPDEST PUSH1 0x40 MLOAD PUSH2 0x109 SWAP2 SWAP1 PUSH2 0x2446 JUMP JUMPDEST PUSH1 0x40 MLOAD DUP1 SWAP2 SUB SWAP1 RETURN JUMPDEST CALLVALUE DUP1 ISZERO PUSH2 0x11D JUMPI PUSH0 PUSH0 REVERT JUMPDEST POP PUSH2 0x126 PUSH2 0x44C JUMP JUMPDEST PUSH1 0x40 MLOAD PUSH2 0x133 SWAP2 SWAP1 PUSH2 0x279A JUMP JUMPDEST PUSH1 0x40 MLOAD DUP1 SWAP2 SUB SWAP1 RETURN JUMPDEST CALLVALUE DUP1 ISZERO PUSH2 0x147 JUMPI PUSH0 PUSH0 REVERT JUMPDEST POP PUSH2 0x162 PUSH1 0x4 DUP1 CALLDATASIZE SUB DUP2 ADD SWAP1 PUSH2 0x15D SWAP2 SWAP1 PUSH2 0x27EF JUMP JUMPDEST PUSH2 0x831 JUMP JUMPDEST PUSH1 0x40 MLOAD PUSH2 0x16F SWAP2 SWAP1 PUSH2 0x279A JUMP JUMPDEST PUSH1 0x40 MLOAD DUP1 SWAP2 SUB SWAP1 RETURN JUMPDEST PUSH2 0x192 PUSH1 0x4 DUP1 CALLDATASIZE SUB DUP2 ADD SWAP1 PUSH2 0x18D SWAP2 SWAP1 PUSH2 0x290D JUMP JUMPDEST PUSH2 0xBDB JUMP JUMPDEST PUSH1 0x40 MLOAD PUSH2 0x1A0 SWAP3 SWAP2 SWAP1 PUSH2 0x2947 JUMP JUMPDEST PUSH1 0x40 MLOAD DUP1 SWAP2 SUB SWAP1 RETURN JUMPDEST CALLVALUE DUP1 ISZERO PUSH2 0x1B4 JUMPI PUSH0 PUSH0 REVERT JUMPDEST POP PUSH2 0x1BD PUSH2 0x118C JUMP JUMPDEST PUSH1 0x40 MLOAD PUSH2 0x1CC SWAP4 SWAP3 SWAP2 SWAP1 PUSH2 0x296E JUMP JUMPDEST PUSH1 0x40 MLOAD DUP1 SWAP2 SUB SWAP1 RETURN JUMPDEST CALLVALUE DUP1 ISZERO PUSH2 0x1E0 JUMPI PUSH0 PUSH0 REVERT JUMPDEST POP PUSH2 0x1FB PUSH1 0x4 DUP1 CALLDATASIZE SUB DUP2 ADD SWAP1 PUSH2 0x1F6 SWAP2 SWAP1 PUSH2 0x2A65 JUMP JUMPDEST PUSH2 0x1350 JUMP JUMPDEST PUSH1 0x40 MLOAD PUSH2 0x208 SWAP2 SWAP1 PUSH2 0x2AD9 JUMP JUMPDEST PUSH1 0x40 MLOAD DUP1 SWAP2 SUB SWAP1 RETURN JUMPDEST CALLVALUE DUP1 ISZERO PUSH2 0x21C JUMPI PUSH0 PUSH0 REVERT JUMPDEST POP PUSH2 0x225 PUSH2 0x14B8 JUMP JUMPDEST PUSH1 0x40 MLOAD PUSH2 0x232 SWAP2 SWAP1 PUSH2 0x2AD9 JUMP JUMPDEST PUSH1 0x40 MLOAD DUP1 SWAP2 SUB SWAP1 RETURN JUMPDEST CALLVALUE DUP1 ISZERO PUSH2 0x246 JUMPI PUSH0 PUSH0 REVERT JUMPDEST POP PUSH2 0x261 PUSH1 0x4 DUP1 CALLDATASIZE SUB DUP2 ADD SWAP1 PUSH2 0x25C SWAP2 SWAP1 PUSH2 0x2AF2 JUMP JUMPDEST PUSH2 0x1705 JUMP JUMPDEST PUSH1 0x40 MLOAD PUSH2 0x26E SWAP2 SWAP1 PUSH2 0x22E6 JUMP JUMPDEST PUSH1 0x40 MLOAD DUP1 SWAP2 SUB SWAP1 RETURN JUMPDEST PUSH0 PUSH1 0x2 SWAP1 POP SWAP1 JUMP JUMPDEST PUSH1 0x60 PUSH1 0x40 MLOAD DUP1 PUSH1 0x40 ADD PUSH1 0x40 MSTORE DUP1 PUSH1 0x20 DUP2 MSTORE PUSH1 0x20 ADD PUSH32 0x52455345525645445F4D4544414C4C494F4E5F50454E53494F4E535F434F5245 DUP2 MSTORE POP SWAP1 POP SWAP1 JUMP JUMPDEST PUSH1 0x60 PUSH0 PUSH0 SWAP1 SLOAD SWAP1 PUSH2 0x100 EXP SWAP1 DIV PUSH20 0xFFFFFFFFFFFFFFFFFFFFFFFFFFFFFFFFFFFFFFFF AND PUSH20 0xFFFFFFFFFFFFFFFFFFFFFFFFFFFFFFFFFFFFFFFF AND PUSH4 0xBF40FAC1 PUSH1 0x40 MLOAD DUP1 PUSH1 0x40 ADD PUSH1 0x40 MSTORE DUP1 PUSH1 0x11 DUP2 MSTORE PUSH1 0x20 ADD PUSH32 0x52455345525645445F4D505F41444D494E000000000000000000000000000000 DUP2 MSTORE POP PUSH1 0x40 MLOAD DUP3 PUSH4 0xFFFFFFFF AND PUSH1 0xE0 SHL DUP2 MSTORE PUSH1 0x4 ADD PUSH2 0x34C SWAP2 SWAP1 PUSH2 0x236F JUMP JUMPDEST PUSH1 0x20 PUSH1 0x40 MLOAD DUP1 DUP4 SUB DUP2 DUP7 GAS STATICCALL ISZERO DUP1 ISZERO PUSH2 0x367 JUMPI RETURNDATASIZE PUSH0 PUSH0 RETURNDATACOPY RETURNDATASIZE PUSH0 REVERT JUMPDEST POP POP POP POP PUSH1 0x40 MLOAD RETURNDATASIZE PUSH1 0x1F NOT PUSH1 0x1F DUP3 ADD AND DUP3 ADD DUP1 PUSH1 0x40 MSTORE POP DUP2 ADD SWAP1 PUSH2 0x38B SWAP2 SWAP1 PUSH2 0x2B4D JUMP JUMPDEST PUSH20 0xFFFFFFFFFFFFFFFFFFFFFFFFFFFFFFFFFFFFFFFF AND CALLER PUSH20 0xFFFFFFFFFFFFFFFFFFFFFFFFFFFFFFFFFFFFFFFF AND EQ PUSH2 0x3F8 JUMPI PUSH1 0x40 MLOAD PUSH32 0x8C379A000000000000000000000000000000000000000000000000000000000 DUP2 MSTORE PUSH1 0x4 ADD PUSH2 0x3EF SWAP1 PUSH2 0x2BC2 JUMP JUMPDEST PUSH1 0x40 MLOAD DUP1 SWAP2 SUB SWAP1 REVERT JUMPDEST PUSH1 0x2 DUP1 SLOAD DUP1 PUSH1 0x20 MUL PUSH1 0x20 ADD PUSH1 0x40 MLOAD SWAP1 DUP2 ADD PUSH1 0x40 MSTORE DUP1 SWAP3 SWAP2 SWAP1 DUP2 DUP2 MSTORE PUSH1 0x20 ADD DUP3 DUP1 SLOAD DUP1 ISZERO PUSH2 0x442 JUMPI PUSH1 0x20 MUL DUP3 ADD SWAP2 SWAP1 PUSH0 MSTORE PUSH1 0x20 PUSH0 KECCAK256 SWAP1 JUMPDEST DUP2 SLOAD DUP2 MSTORE PUSH1 0x20 ADD SWAP1 PUSH1 0x1 ADD SWAP1 DUP1 DUP4 GT PUSH2 0x42E JUMPI JUMPDEST POP POP POP POP POP SWAP1 POP SWAP1 JUMP JUMPDEST PUSH2 0x454 PUSH2 0x2147 JUMP JUMPDEST PUSH1 0x4 PUSH0 PUSH1 0x5 PUSH0 CALLER PUSH20 0xFFFFFFFFFFFFFFFFFFFFFFFFFFFFFFFFFFFFFFFF AND PUSH20 0xFFFFFFFFFFFFFFFFFFFFFFFFFFFFFFFFFFFFFFFF AND DUP2 MSTORE PUSH1 0x20 ADD SWAP1 DUP2 MSTORE PUSH1 0x20 ADD PUSH0 KECCAK256 SLOAD DUP2 MSTORE PUSH1 0x20 ADD SWAP1 DUP2 MSTORE PUSH1 0x20 ADD PUSH0 KECCAK256 PUSH1 0x40 MLOAD DUP1 PUSH1 0xE0 ADD PUSH1 0x40 MSTORE SWAP1 DUP2 PUSH0 DUP3 ADD SLOAD DUP2 MSTORE PUSH1 0x20 ADD PUSH1 0x1 DUP3 ADD PUSH0 SWAP1 SLOAD SWAP1 PUSH2 0x100 EXP SWAP1 DIV PUSH20 0xFFFFFFFFFFFFFFFFFFFFFFFFFFFFFFFFFFFFFFFF AND PUSH20 0xFFFFFFFFFFFFFFFFFFFFFFFFFFFFFFFFFFFFFFFF AND PUSH20 0xFFFFFFFFFFFFFFFFFFFFFFFFFFFFFFFFFFFFFFFF AND DUP2 MSTORE PUSH1 0x20 ADD PUSH1 0x2 DUP3 ADD PUSH0 SWAP1 SLOAD SWAP1 PUSH2 0x100 EXP SWAP1 DIV PUSH20 0xFFFFFFFFFFFFFFFFFFFFFFFFFFFFFFFFFFFFFFFF AND PUSH20 0xFFFFFFFFFFFFFFFFFFFFFFFFFFFFFFFFFFFFFFFF AND PUSH20 0xFFFFFFFFFFFFFFFFFFFFFFFFFFFFFFFFFFFFFFFF AND DUP2 MSTORE PUSH1 0x20 ADD PUSH1 0x3 DUP3 ADD PUSH0 SWAP1 SLOAD SWAP1 PUSH2 0x100 EXP SWAP1 DIV PUSH20 0xFFFFFFFFFFFFFFFFFFFFFFFFFFFFFFFFFFFFFFFF AND PUSH20 0xFFFFFFFFFFFFFFFFFFFFFFFFFFFFFFFFFFFFFFFF AND PUSH20 0xFFFFFFFFFFFFFFFFFFFFFFFFFFFFFFFFFFFFFFFF AND DUP2 MSTORE PUSH1 0x20 ADD PUSH1 0x4 DUP3 ADD SLOAD DUP2 MSTORE PUSH1 0x20 ADD PUSH1 0x5 DUP3 ADD SLOAD DUP2 MSTORE PUSH1 0x20 ADD PUSH1 0x6 DUP3 ADD PUSH1 0x40 MLOAD DUP1 PUSH2 0x1A0 ADD PUSH1 0x40 MSTORE SWAP1 DUP2 PUSH0 DUP3 ADD SLOAD DUP2 MSTORE PUSH1 0x20 ADD PUSH1 0x1 DUP3 ADD PUSH0 SWAP1 SLOAD SWAP1 PUSH2 0x100 EXP SWAP1 DIV PUSH20 0xFFFFFFFFFFFFFFFFFFFFFFFFFFFFFFFFFFFFFFFF AND PUSH20 0xFFFFFFFFFFFFFFFFFFFFFFFFFFFFFFFFFFFFFFFF AND PUSH20 0xFFFFFFFFFFFFFFFFFFFFFFFFFFFFFFFFFFFFFFFF AND DUP2 MSTORE PUSH1 0x20 ADD PUSH1 0x2 DUP3 ADD PUSH0 SWAP1 SLOAD SWAP1 PUSH2 0x100 EXP SWAP1 DIV PUSH20 0xFFFFFFFFFFFFFFFFFFFFFFFFFFFFFFFFFFFFFFFF AND PUSH20 0xFFFFFFFFFFFFFFFFFFFFFFFFFFFFFFFFFFFFFFFF AND PUSH20 0xFFFFFFFFFFFFFFFFFFFFFFFFFFFFFFFFFFFFFFFF AND DUP2 MSTORE PUSH1 0x20 ADD PUSH1 0x3 DUP3 ADD SLOAD DUP2 MSTORE PUSH1 0x20 ADD PUSH1 0x4 DUP3 ADD SLOAD DUP2 MSTORE PUSH1 0x20 ADD PUSH1 0x5 DUP3 ADD SLOAD DUP2 MSTORE PUSH1 0x20 ADD PUSH1 0x6 DUP3 ADD PUSH0 SWAP1 SLOAD SWAP1 PUSH2 0x100 EXP SWAP1 DIV PUSH1 0xFF AND PUSH1 0x2 DUP2 GT ISZERO PUSH2 0x6CF JUMPI PUSH2 0x6CE PUSH2 0x24A5 JUMP JUMPDEST JUMPDEST PUSH1 0x2 DUP2 GT ISZERO PUSH2 0x6E1 JUMPI PUSH2 0x6E0 PUSH2 0x24A5 JUMP JUMPDEST JUMPDEST DUP2 MSTORE PUSH1 0x20 ADD PUSH1 0x7 DUP3 ADD PUSH1 0x40 MLOAD DUP1 PUSH1 0xC0 ADD PUSH1 0x40 MSTORE SWAP1 DUP2 PUSH0 DUP3 ADD PUSH0 SWAP1 SLOAD SWAP1 PUSH2 0x100 EXP SWAP1 DIV PUSH1 0xFF AND PUSH1 0x3 DUP2 GT ISZERO PUSH2 0x718 JUMPI PUSH2 0x717 PUSH2 0x24A5 JUMP JUMPDEST JUMPDEST PUSH1 0x3 DUP2 GT ISZERO PUSH2 0x72A JUMPI PUSH2 0x729 PUSH2 0x24A5 JUMP JUMPDEST JUMPDEST DUP2 MSTORE PUSH1 0x20 ADD PUSH1 0x1 DUP3 ADD SLOAD DUP2 MSTORE PUSH1 0x20 ADD PUSH1 0x2 DUP3 ADD SLOAD DUP2 MSTORE PUSH1 0x20 ADD PUSH1 0x3 DUP3 ADD SLOAD DUP2 MSTORE PUSH1 0x20 ADD PUSH1 0x4 DUP3 ADD SLOAD DUP2 MSTORE PUSH1 0x20 ADD PUSH1 0x5 DUP3 ADD SLOAD DUP2 MSTORE POP POP DUP2 MSTORE PUSH1 0x20 ADD PUSH1 0xD DUP3 ADD PUSH1 0x40 MLOAD DUP1 PUSH1 0xC0 ADD PUSH1 0x40 MSTORE SWAP1 DUP2 PUSH0 DUP3 ADD PUSH0 SWAP1 SLOAD SWAP1 PUSH2 0x100 EXP SWAP1 DIV PUSH1 0xFF AND PUSH1 0x3 DUP2 GT ISZERO PUSH2 0x797 JUMPI PUSH2 0x796 PUSH2 0x24A5 JUMP JUMPDEST JUMPDEST PUSH1 0x3 DUP2 GT ISZERO PUSH2 0x7A9 JUMPI PUSH2 0x7A8 PUSH2 0x24A5 JUMP JUMPDEST JUMPDEST DUP2 MSTORE PUSH1 0x20 ADD PUSH1 0x1 DUP3 ADD SLOAD DUP2 MSTORE PUSH1 0x20 ADD PUSH1 0x2 DUP3 ADD SLOAD DUP2 MSTORE PUSH1 0x20 ADD PUSH1 0x3 DUP3 ADD SLOAD DUP2 MSTORE PUSH1 0x20 ADD PUSH1 0x4 DUP3 ADD SLOAD DUP2 MSTORE PUSH1 0x20 ADD PUSH1 0x5 DUP3 ADD SLOAD DUP2 MSTORE POP POP DUP2 MSTORE PUSH1 0x20 ADD PUSH1 0x13 DUP3 ADD PUSH1 0x40 MLOAD DUP1 PUSH1 0x40 ADD PUSH1 0x40 MSTORE SWAP1 DUP2 PUSH0 DUP3 ADD SLOAD DUP2 MSTORE PUSH1 0x20 ADD PUSH1 0x1 DUP3 ADD SLOAD DUP2 MSTORE POP POP DUP2 MSTORE PUSH1 0x20 ADD PUSH1 0x15 DUP3 ADD SLOAD DUP2 MSTORE PUSH1 0x20 ADD PUSH1 0x16 DUP3 ADD SLOAD DUP2 MSTORE PUSH1 0x20 ADD PUSH1 0x17 DUP3 ADD SLOAD DUP2 MSTORE POP POP DUP2 MSTORE POP POP SWAP1 POP SWAP1 JUMP JUMPDEST PUSH2 0x839 PUSH2 0x2147 JUMP JUMPDEST PUSH1 0x4 PUSH0 DUP4 DUP2 MSTORE PUSH1 0x20 ADD SWAP1 DUP2 MSTORE PUSH1 0x20 ADD PUSH0 KECCAK256 PUSH1 0x40 MLOAD DUP1 PUSH1 0xE0 ADD PUSH1 0x40 MSTORE SWAP1 DUP2 PUSH0 DUP3 ADD SLOAD DUP2 MSTORE PUSH1 0x20 ADD PUSH1 0x1 DUP3 ADD PUSH0 SWAP1 SLOAD SWAP1 PUSH2 0x100 EXP SWAP1 DIV PUSH20 0xFFFFFFFFFFFFFFFFFFFFFFFFFFFFFFFFFFFFFFFF AND PUSH20 0xFFFFFFFFFFFFFFFFFFFFFFFFFFFFFFFFFFFFFFFF AND PUSH20 0xFFFFFFFFFFFFFFFFFFFFFFFFFFFFFFFFFFFFFFFF AND DUP2 MSTORE PUSH1 0x20 ADD PUSH1 0x2 DUP3 ADD PUSH0 SWAP1 SLOAD SWAP1 PUSH2 0x100 EXP SWAP1 DIV PUSH20 0xFFFFFFFFFFFFFFFFFFFFFFFFFFFFFFFFFFFFFFFF AND PUSH20 0xFFFFFFFFFFFFFFFFFFFFFFFFFFFFFFFFFFFFFFFF AND PUSH20 0xFFFFFFFFFFFFFFFFFFFFFFFFFFFFFFFFFFFFFFFF AND DUP2 MSTORE PUSH1 0x20 ADD PUSH1 0x3 DUP3 ADD PUSH0 SWAP1 SLOAD SWAP1 PUSH2 0x100 EXP SWAP1 DIV PUSH20 0xFFFFFFFFFFFFFFFFFFFFFFFFFFFFFFFFFFFFFFFF AND PUSH20 0xFFFFFFFFFFFFFFFFFFFFFFFFFFFFFFFFFFFFFFFF AND PUSH20 0xFFFFFFFFFFFFFFFFFFFFFFFFFFFFFFFFFFFFFFFF AND DUP2 MSTORE PUSH1 0x20 ADD PUSH1 0x4 DUP3 ADD SLOAD DUP2 MSTORE PUSH1 0x20 ADD PUSH1 0x5 DUP3 ADD SLOAD DUP2 MSTORE PUSH1 0x20 ADD PUSH1 0x6 DUP3 ADD PUSH1 0x40 MLOAD DUP1 PUSH2 0x1A0 ADD PUSH1 0x40 MSTORE SWAP1 DUP2 PUSH0 DUP3 ADD SLOAD DUP2 MSTORE PUSH1 0x20 ADD PUSH1 0x1 DUP3 ADD PUSH0 SWAP1 SLOAD SWAP1 PUSH2 0x100 EXP SWAP1 DIV PUSH20 0xFFFFFFFFFFFFFFFFFFFFFFFFFFFFFFFFFFFFFFFF AND PUSH20 0xFFFFFFFFFFFFFFFFFFFFFFFFFFFFFFFFFFFFFFFF AND PUSH20 0xFFFFFFFFFFFFFFFFFFFFFFFFFFFFFFFFFFFFFFFF AND DUP2 MSTORE PUSH1 0x20 ADD PUSH1 0x2 DUP3 ADD PUSH0 SWAP1 SLOAD SWAP1 PUSH2 0x100 EXP SWAP1 DIV PUSH20 0xFFFFFFFFFFFFFFFFFFFFFFFFFFFFFFFFFFFFFFFF AND PUSH20 0xFFFFFFFFFFFFFFFFFFFFFFFFFFFFFFFFFFFFFFFF AND PUSH20 0xFFFFFFFFFFFFFFFFFFFFFFFFFFFFFFFFFFFFFFFF AND DUP2 MSTORE PUSH1 0x20 ADD PUSH1 0x3 DUP3 ADD SLOAD DUP2 MSTORE PUSH1 0x20 ADD PUSH1 0x4 DUP3 ADD SLOAD DUP2 MSTORE PUSH1 0x20 ADD PUSH1 0x5 DUP3 ADD SLOAD DUP2 MSTORE PUSH1 0x20 ADD PUSH1 0x6 DUP3 ADD PUSH0 SWAP1 SLOAD SWAP1 PUSH2 0x100 EXP SWAP1 DIV PUSH1 0xFF AND PUSH1 0x2 DUP2 GT ISZERO PUSH2 0xA77 JUMPI PUSH2 0xA76 PUSH2 0x24A5 JUMP JUMPDEST JUMPDEST PUSH1 0x2 DUP2 GT ISZERO PUSH2 0xA89 JUMPI PUSH2 0xA88 PUSH2 0x24A5 JUMP JUMPDEST JUMPDEST DUP2 MSTORE PUSH1 0x20 ADD PUSH1 0x7 DUP3 ADD PUSH1 0x40 MLOAD DUP1 PUSH1 0xC0 ADD PUSH1 0x40 MSTORE SWAP1 DUP2 PUSH0 DUP3 ADD PUSH0 SWAP1 SLOAD SWAP1 PUSH2 0x100 EXP SWAP1 DIV PUSH1 0xFF AND PUSH1 0x3 DUP2 GT ISZERO PUSH2 0xAC0 JUMPI PUSH2 0xABF PUSH2 0x24A5 JUMP JUMPDEST JUMPDEST PUSH1 0x3 DUP2 GT ISZERO PUSH2 0xAD2 JUMPI PUSH2 0xAD1 PUSH2 0x24A5 JUMP JUMPDEST JUMPDEST DUP2 MSTORE PUSH1 0x20 ADD PUSH1 0x1 DUP3 ADD SLOAD DUP2 MSTORE PUSH1 0x20 ADD PUSH1 0x2 DUP3 ADD SLOAD DUP2 MSTORE PUSH1 0x20 ADD PUSH1 0x3 DUP3 ADD SLOAD DUP2 MSTORE PUSH1 0x20 ADD PUSH1 0x4 DUP3 ADD SLOAD DUP2 MSTORE PUSH1 0x20 ADD PUSH1 0x5 DUP3 ADD SLOAD DUP2 MSTORE POP POP DUP2 MSTORE PUSH1 0x20 ADD PUSH1 0xD DUP3 ADD PUSH1 0x40 MLOAD DUP1 PUSH1 0xC0 ADD PUSH1 0x40 MSTORE SWAP1 DUP2 PUSH0 DUP3 ADD PUSH0 SWAP1 SLOAD SWAP1 PUSH2 0x100 EXP SWAP1 DIV PUSH1 0xFF AND PUSH1 0x3 DUP2 GT ISZERO PUSH2 0xB3F JUMPI PUSH2 0xB3E PUSH2 0x24A5 JUMP JUMPDEST JUMPDEST PUSH1 0x3 DUP2 GT ISZERO PUSH2 0xB51 JUMPI PUSH2 0xB50 PUSH2 0x24A5 JUMP JUMPDEST JUMPDEST DUP2 MSTORE PUSH1 0x20 ADD PUSH1 0x1 DUP3 ADD SLOAD DUP2 MSTORE PUSH1 0x20 ADD PUSH1 0x2 DUP3 ADD SLOAD DUP2 MSTORE PUSH1 0x20 ADD PUSH1 0x3 DUP3 ADD SLOAD DUP2 MSTORE PUSH1 0x20 ADD PUSH1 0x4 DUP3 ADD SLOAD DUP2 MSTORE PUSH1 0x20 ADD PUSH1 0x5 DUP3 ADD SLOAD DUP2 MSTORE POP POP DUP2 MSTORE PUSH1 0x20 ADD PUSH1 0x13 DUP3 ADD PUSH1 0x40 MLOAD DUP1 PUSH1 0x40 ADD PUSH1 0x40 MSTORE SWAP1 DUP2 PUSH0 DUP3 ADD SLOAD DUP2 MSTORE PUSH1 0x20 ADD PUSH1 0x1 DUP3 ADD SLOAD DUP2 MSTORE POP POP DUP2 MSTORE PUSH1 0x20 ADD PUSH1 0x15 DUP3 ADD SLOAD DUP2 MSTORE PUSH1 0x20 ADD PUSH1 0x16 DUP3 ADD SLOAD DUP2 MSTORE PUSH1 0x20 ADD PUSH1 0x17 DUP3 ADD SLOAD DUP2 MSTORE POP POP DUP2 MSTORE POP POP SWAP1 POP SWAP2 SWAP1 POP JUMP JUMPDEST PUSH0 PUSH0 PUSH2 0xC1B PUSH1 0x40 MLOAD DUP1 PUSH1 0x40 ADD PUSH1 0x40 MSTORE DUP1 PUSH1 0x11 DUP2 MSTORE PUSH1 0x20 ADD PUSH32 0x50454E53494F4E5F53455455505F464545000000000000000000000000000000 DUP2 MSTORE POP PUSH2 0x172C JUMP JUMPDEST PUSH0 PUSH2 0xC29 DUP5 PUSH1 0x20 ADD MLOAD PUSH2 0x1B3A JUMP JUMPDEST SWAP1 POP PUSH0 PUSH2 0xC34 PUSH2 0x1E63 JUMP JUMPDEST SWAP1 POP PUSH1 0x2 DUP2 SWAP1 DUP1 PUSH1 0x1 DUP2 SLOAD ADD DUP1 DUP3 SSTORE DUP1 SWAP2 POP POP PUSH1 0x1 SWAP1 SUB SWAP1 PUSH0 MSTORE PUSH1 0x20 PUSH0 KECCAK256 ADD PUSH0 SWAP1 SWAP2 SWAP1 SWAP2 SWAP1 SWAP2 POP SSTORE PUSH0 DUP3 PUSH1 0xE0 ADD MLOAD PUSH1 0x20 ADD MLOAD TIMESTAMP PUSH2 0xC71 SWAP2 SWAP1 PUSH2 0x2C0D JUMP JUMPDEST SWAP1 POP PUSH0 DUP4 PUSH2 0x100 ADD MLOAD PUSH1 0x20 ADD MLOAD DUP3 PUSH2 0xC89 SWAP2 SWAP1 PUSH2 0x2C0D JUMP JUMPDEST SWAP1 POP PUSH2 0xC94 DUP4 PUSH2 0x1E7F JUMP JUMPDEST SWAP6 POP PUSH1 0x40 MLOAD DUP1 PUSH1 0xE0 ADD PUSH1 0x40 MSTORE DUP1 DUP5 DUP2 MSTORE PUSH1 0x20 ADD CALLER PUSH20 0xFFFFFFFFFFFFFFFFFFFFFFFFFFFFFFFFFFFFFFFF AND DUP2 MSTORE PUSH1 0x20 ADD DUP9 PUSH0 ADD MLOAD PUSH20 0xFFFFFFFFFFFFFFFFFFFFFFFFFFFFFFFFFFFFFFFF AND DUP2 MSTORE PUSH1 0x20 ADD DUP8 PUSH20 0xFFFFFFFFFFFFFFFFFFFFFFFFFFFFFFFFFFFFFFFF AND DUP2 MSTORE PUSH1 0x20 ADD DUP4 DUP2 MSTORE PUSH1 0x20 ADD DUP3 DUP2 MSTORE PUSH1 0x20 ADD DUP6 DUP2 MSTORE POP PUSH1 0x4 PUSH0 DUP6 DUP2 MSTORE PUSH1 0x20 ADD SWAP1 DUP2 MSTORE PUSH1 0x20 ADD PUSH0 KECCAK256 PUSH0 DUP3 ADD MLOAD DUP2 PUSH0 ADD SSTORE PUSH1 0x20 DUP3 ADD MLOAD DUP2 PUSH1 0x1 ADD PUSH0 PUSH2 0x100 EXP DUP2 SLOAD DUP2 PUSH20 0xFFFFFFFFFFFFFFFFFFFFFFFFFFFFFFFFFFFFFFFF MUL NOT AND SWAP1 DUP4 PUSH20 0xFFFFFFFFFFFFFFFFFFFFFFFFFFFFFFFFFFFFFFFF AND MUL OR SWAP1 SSTORE POP PUSH1 0x40 DUP3 ADD MLOAD DUP2 PUSH1 0x2 ADD PUSH0 PUSH2 0x100 EXP DUP2 SLOAD DUP2 PUSH20 0xFFFFFFFFFFFFFFFFFFFFFFFFFFFFFFFFFFFFFFFF MUL NOT AND SWAP1 DUP4 PUSH20 0xFFFFFFFFFFFFFFFFFFFFFFFFFFFFFFFFFFFFFFFF AND MUL OR SWAP1 SSTORE POP PUSH1 0x60 DUP3 ADD MLOAD DUP2 PUSH1 0x3 ADD PUSH0 PUSH2 0x100 EXP DUP2 SLOAD DUP2 PUSH20 0xFFFFFFFFFFFFFFFFFFFFFFFFFFFFFFFFFFFFFFFF MUL NOT AND SWAP1 DUP4 PUSH20 0xFFFFFFFFFFFFFFFFFFFFFFFFFFFFFFFFFFFFFFFF AND MUL OR SWAP1 SSTORE POP PUSH1 0x80 DUP3 ADD MLOAD DUP2 PUSH1 0x4 ADD SSTORE PUSH1 0xA0 DUP3 ADD MLOAD DUP2 PUSH1 0x5 ADD SSTORE PUSH1 0xC0 DUP3 ADD MLOAD DUP2 PUSH1 0x6 ADD PUSH0 DUP3 ADD MLOAD DUP2 PUSH0 ADD SSTORE PUSH1 0x20 DUP3 ADD MLOAD DUP2 PUSH1 0x1 ADD PUSH0 PUSH2 0x100 EXP DUP2 SLOAD DUP2 PUSH20 0xFFFFFFFFFFFFFFFFFFFFFFFFFFFFFFFFFFFFFFFF MUL NOT AND SWAP1 DUP4 PUSH20 0xFFFFFFFFFFFFFFFFFFFFFFFFFFFFFFFFFFFFFFFF AND MUL OR SWAP1 SSTORE POP PUSH1 0x40 DUP3 ADD MLOAD DUP2 PUSH1 0x2 ADD PUSH0 PUSH2 0x100 EXP DUP2 SLOAD DUP2 PUSH20 0xFFFFFFFFFFFFFFFFFFFFFFFFFFFFFFFFFFFFFFFF MUL NOT AND SWAP1 DUP4 PUSH20 0xFFFFFFFFFFFFFFFFFFFFFFFFFFFFFFFFFFFFFFFF AND MUL OR SWAP1 SSTORE POP PUSH1 0x60 DUP3 ADD MLOAD DUP2 PUSH1 0x3 ADD SSTORE PUSH1 0x80 DUP3 ADD MLOAD DUP2 PUSH1 0x4 ADD SSTORE PUSH1 0xA0 DUP3 ADD MLOAD DUP2 PUSH1 0x5 ADD SSTORE PUSH1 0xC0 DUP3 ADD MLOAD DUP2 PUSH1 0x6 ADD PUSH0 PUSH2 0x100 EXP DUP2 SLOAD DUP2 PUSH1 0xFF MUL NOT AND SWAP1 DUP4 PUSH1 0x2 DUP2 GT ISZERO PUSH2 0xEF2 JUMPI PUSH2 0xEF1 PUSH2 0x24A5 JUMP JUMPDEST JUMPDEST MUL OR SWAP1 SSTORE POP PUSH1 0xE0 DUP3 ADD MLOAD DUP2 PUSH1 0x7 ADD PUSH0 DUP3 ADD MLOAD DUP2 PUSH0 ADD PUSH0 PUSH2 0x100 EXP DUP2 SLOAD DUP2 PUSH1 0xFF MUL NOT AND SWAP1 DUP4 PUSH1 0x3 DUP2 GT ISZERO PUSH2 0xF28 JUMPI PUSH2 0xF27 PUSH2 0x24A5 JUMP JUMPDEST JUMPDEST MUL OR SWAP1 SSTORE POP PUSH1 0x20 DUP3 ADD MLOAD DUP2 PUSH1 0x1 ADD SSTORE PUSH1 0x40 DUP3 ADD MLOAD DUP2 PUSH1 0x2 ADD SSTORE PUSH1 0x60 DUP3 ADD MLOAD DUP2 PUSH1 0x3 ADD SSTORE PUSH1 0x80 DUP3 ADD MLOAD DUP2 PUSH1 0x4 ADD SSTORE PUSH1 0xA0 DUP3 ADD MLOAD DUP2 PUSH1 0x5 ADD SSTORE POP POP PUSH2 0x100 DUP3 ADD MLOAD DUP2 PUSH1 0xD ADD PUSH0 DUP3 ADD MLOAD DUP2 PUSH0 ADD PUSH0 PUSH2 0x100 EXP DUP2 SLOAD DUP2 PUSH1 0xFF MUL NOT AND SWAP1 DUP4 PUSH1 0x3 DUP2 GT ISZERO PUSH2 0xF93 JUMPI PUSH2 0xF92 PUSH2 0x24A5 JUMP JUMPDEST JUMPDEST MUL OR SWAP1 SSTORE POP PUSH1 0x20 DUP3 ADD MLOAD DUP2 PUSH1 0x1 ADD SSTORE PUSH1 0x40 DUP3 ADD MLOAD DUP2 PUSH1 0x2 ADD SSTORE PUSH1 0x60 DUP3 ADD MLOAD DUP2 PUSH1 0x3 ADD SSTORE PUSH1 0x80 DUP3 ADD MLOAD DUP2 PUSH1 0x4 ADD SSTORE PUSH1 0xA0 DUP3 ADD MLOAD DUP2 PUSH1 0x5 ADD SSTORE POP POP PUSH2 0x120 DUP3 ADD MLOAD DUP2 PUSH1 0x13 ADD PUSH0 DUP3 ADD MLOAD DUP2 PUSH0 ADD SSTORE PUSH1 0x20 DUP3 ADD MLOAD DUP2 PUSH1 0x1 ADD SSTORE POP POP PUSH2 0x140 DUP3 ADD MLOAD DUP2 PUSH1 0x15 ADD SSTORE PUSH2 0x160 DUP3 ADD MLOAD DUP2 PUSH1 0x16 ADD SSTORE PUSH2 0x180 DUP3 ADD MLOAD DUP2 PUSH1 0x17 ADD SSTORE POP POP SWAP1 POP POP DUP3 PUSH1 0x5 PUSH0 DUP10 PUSH0 ADD MLOAD PUSH20 0xFFFFFFFFFFFFFFFFFFFFFFFFFFFFFFFFFFFFFFFF AND PUSH20 0xFFFFFFFFFFFFFFFFFFFFFFFFFFFFFFFFFFFFFFFF AND DUP2 MSTORE PUSH1 0x20 ADD SWAP1 DUP2 MSTORE PUSH1 0x20 ADD PUSH0 KECCAK256 DUP2 SWAP1 SSTORE POP PUSH2 0x1181 PUSH0 PUSH0 DUP6 PUSH1 0x6 PUSH1 0x40 MLOAD DUP1 PUSH1 0x40 ADD PUSH1 0x40 MSTORE DUP1 PUSH1 0x11 DUP2 MSTORE PUSH1 0x20 ADD PUSH32 0x50454E53494F4E5F53455455505F464545000000000000000000000000000000 DUP2 MSTORE POP PUSH1 0x40 MLOAD PUSH2 0x10A0 SWAP2 SWAP1 PUSH2 0x2C7A JUMP JUMPDEST SWAP1 DUP2 MSTORE PUSH1 0x20 ADD PUSH1 0x40 MLOAD DUP1 SWAP2 SUB SWAP1 KECCAK256 SLOAD PUSH0 PUSH0 SWAP1 SLOAD SWAP1 PUSH2 0x100 EXP SWAP1 DIV PUSH20 0xFFFFFFFFFFFFFFFFFFFFFFFFFFFFFFFFFFFFFFFF AND PUSH20 0xFFFFFFFFFFFFFFFFFFFFFFFFFFFFFFFFFFFFFFFF AND PUSH4 0xBF40FAC1 PUSH1 0x40 MLOAD DUP1 PUSH1 0x40 ADD PUSH1 0x40 MSTORE DUP1 PUSH1 0x15 DUP2 MSTORE PUSH1 0x20 ADD PUSH32 0x52455345525645445F4D505F4645455F544F4B454E0000000000000000000000 DUP2 MSTORE POP PUSH1 0x40 MLOAD DUP3 PUSH4 0xFFFFFFFF AND PUSH1 0xE0 SHL DUP2 MSTORE PUSH1 0x4 ADD PUSH2 0x113D SWAP2 SWAP1 PUSH2 0x236F JUMP JUMPDEST PUSH1 0x20 PUSH1 0x40 MLOAD DUP1 DUP4 SUB DUP2 DUP7 GAS STATICCALL ISZERO DUP1 ISZERO PUSH2 0x1158 JUMPI RETURNDATASIZE PUSH0 PUSH0 RETURNDATACOPY RETURNDATASIZE PUSH0 REVERT JUMPDEST POP POP POP POP PUSH1 0x40 MLOAD RETURNDATASIZE PUSH1 0x1F NOT PUSH1 0x1F DUP3 ADD AND DUP3 ADD DUP1 PUSH1 0x40 MSTORE POP DUP2 ADD SWAP1 PUSH2 0x117C SWAP2 SWAP1 PUSH2 0x2B4D JUMP JUMPDEST PUSH2 0x1FCC JUMP JUMPDEST SWAP5 POP POP POP POP POP SWAP2 POP SWAP2 JUMP JUMPDEST PUSH0 PUSH1 0x60 DUP1 PUSH0 PUSH0 SWAP1 SLOAD SWAP1 PUSH2 0x100 EXP SWAP1 DIV PUSH20 0xFFFFFFFFFFFFFFFFFFFFFFFFFFFFFFFFFFFFFFFF AND PUSH20 0xFFFFFFFFFFFFFFFFFFFFFFFFFFFFFFFFFFFFFFFF AND PUSH4 0xBF40FAC1 PUSH1 0x40 MLOAD DUP1 PUSH1 0x40 ADD PUSH1 0x40 MSTORE DUP1 PUSH1 0x15 DUP2 MSTORE PUSH1 0x20 ADD PUSH32 0x52455345525645445F4D505F4645455F544F4B454E0000000000000000000000 DUP2 MSTORE POP PUSH1 0x40 MLOAD DUP3 PUSH4 0xFFFFFFFF AND PUSH1 0xE0 SHL DUP2 MSTORE PUSH1 0x4 ADD PUSH2 0x121E SWAP2 SWAP1 PUSH2 0x236F JUMP JUMPDEST PUSH1 0x20 PUSH1 0x40 MLOAD DUP1 DUP4 SUB DUP2 DUP7 GAS STATICCALL ISZERO DUP1 ISZERO PUSH2 0x1239 JUMPI RETURNDATASIZE PUSH0 PUSH0 RETURNDATACOPY RETURNDATASIZE PUSH0 REVERT JUMPDEST POP POP POP POP PUSH1 0x40 MLOAD RETURNDATASIZE PUSH1 0x1F NOT PUSH1 0x1F DUP3 ADD AND DUP3 ADD DUP1 PUSH1 0x40 MSTORE POP DUP2 ADD SWAP1 PUSH2 0x125D SWAP2 SWAP1 PUSH2 0x2B4D JUMP JUMPDEST SWAP3 POP PUSH0 DUP4 SWAP1 POP DUP4 DUP2 PUSH20 0xFFFFFFFFFFFFFFFFFFFFFFFFFFFFFFFFFFFFFFFF AND PUSH4 0x6FDDE03 PUSH1 0x40 MLOAD DUP2 PUSH4 0xFFFFFFFF AND PUSH1 0xE0 SHL DUP2 MSTORE PUSH1 0x4 ADD PUSH0 PUSH1 0x40 MLOAD DUP1 DUP4 SUB DUP2 DUP7 GAS STATICCALL ISZERO DUP1 ISZERO PUSH2 0x12AC JUMPI RETURNDATASIZE PUSH0 PUSH0 RETURNDATACOPY RETURNDATASIZE PUSH0 REVERT JUMPDEST POP POP POP POP PUSH1 0x40 MLOAD RETURNDATASIZE PUSH0 DUP3 RETURNDATACOPY RETURNDATASIZE PUSH1 0x1F NOT PUSH1 0x1F DUP3 ADD AND DUP3 ADD DUP1 PUSH1 0x40 MSTORE POP DUP2 ADD SWAP1 PUSH2 0x12D4 SWAP2 SWAP1 PUSH2 0x2CFE JUMP JUMPDEST DUP3 PUSH20 0xFFFFFFFFFFFFFFFFFFFFFFFFFFFFFFFFFFFFFFFF AND PUSH4 0x95D89B41 PUSH1 0x40 MLOAD DUP2 PUSH4 0xFFFFFFFF AND PUSH1 0xE0 SHL DUP2 MSTORE PUSH1 0x4 ADD PUSH0 PUSH1 0x40 MLOAD DUP1 DUP4 SUB DUP2 DUP7 GAS STATICCALL ISZERO DUP1 ISZERO PUSH2 0x131C JUMPI RETURNDATASIZE PUSH0 PUSH0 RETURNDATACOPY RETURNDATASIZE PUSH0 REVERT JUMPDEST POP POP POP POP PUSH1 0x40 MLOAD RETURNDATASIZE PUSH0 DUP3 RETURNDATACOPY RETURNDATASIZE PUSH1 0x1F NOT PUSH1 0x1F DUP3 ADD AND DUP3 ADD DUP1 PUSH1 0x40 MSTORE POP DUP2 ADD SWAP1 PUSH2 0x1344 SWAP2 SWAP1 PUSH2 0x2CFE JUMP JUMPDEST SWAP4 POP SWAP4 POP SWAP4 POP POP SWAP1 SWAP2 SWAP3 JUMP JUMPDEST PUSH0 PUSH0 PUSH0 SWAP1 SLOAD SWAP1 PUSH2 0x100 EXP SWAP1 DIV PUSH20 0xFFFFFFFFFFFFFFFFFFFFFFFFFFFFFFFFFFFFFFFF AND PUSH20 0xFFFFFFFFFFFFFFFFFFFFFFFFFFFFFFFFFFFFFFFF AND PUSH4 0xBF40FAC1 PUSH1 0x40 MLOAD DUP1 PUSH1 0x40 ADD PUSH1 0x40 MSTORE DUP1 PUSH1 0x11 DUP2 MSTORE PUSH1 0x20 ADD PUSH32 0x52455345525645445F4D505F41444D494E000000000000000000000000000000 DUP2 MSTORE POP PUSH1 0x40 MLOAD DUP3 PUSH4 0xFFFFFFFF AND PUSH1 0xE0 SHL DUP2 MSTORE PUSH1 0x4 ADD PUSH2 0x13DF SWAP2 SWAP1 PUSH2 0x236F JUMP JUMPDEST PUSH1 0x20 PUSH1 0x40 MLOAD DUP1 DUP4 SUB DUP2 DUP7 GAS STATICCALL ISZERO DUP1 ISZERO PUSH2 0x13FA JUMPI RETURNDATASIZE PUSH0 PUSH0 RETURNDATACOPY RETURNDATASIZE PUSH0 REVERT JUMPDEST POP POP POP POP PUSH1 0x40 MLOAD RETURNDATASIZE PUSH1 0x1F NOT PUSH1 0x1F DUP3 ADD AND DUP3 ADD DUP1 PUSH1 0x40 MSTORE POP DUP2 ADD SWAP1 PUSH2 0x141E SWAP2 SWAP1 PUSH2 0x2B4D JUMP JUMPDEST PUSH20 0xFFFFFFFFFFFFFFFFFFFFFFFFFFFFFFFFFFFFFFFF AND CALLER PUSH20 0xFFFFFFFFFFFFFFFFFFFFFFFFFFFFFFFFFFFFFFFF AND EQ PUSH2 0x148B JUMPI PUSH1 0x40 MLOAD PUSH32 0x8C379A000000000000000000000000000000000000000000000000000000000 DUP2 MSTORE PUSH1 0x4 ADD PUSH2 0x1482 SWAP1 PUSH2 0x2BC2 JUMP JUMPDEST PUSH1 0x40 MLOAD DUP1 SWAP2 SUB SWAP1 REVERT JUMPDEST DUP2 PUSH1 0x6 DUP5 PUSH1 0x40 MLOAD PUSH2 0x149C SWAP2 SWAP1 PUSH2 0x2C7A JUMP JUMPDEST SWAP1 DUP2 MSTORE PUSH1 0x20 ADD PUSH1 0x40 MLOAD DUP1 SWAP2 SUB SWAP1 KECCAK256 DUP2 SWAP1 SSTORE POP PUSH1 0x1 SWAP1 POP SWAP3 SWAP2 POP POP JUMP JUMPDEST PUSH0 PUSH0 PUSH0 SWAP1 SLOAD SWAP1 PUSH2 0x100 EXP SWAP1 DIV PUSH20 0xFFFFFFFFFFFFFFFFFFFFFFFFFFFFFFFFFFFFFFFF AND PUSH20 0xFFFFFFFFFFFFFFFFFFFFFFFFFFFFFFFFFFFFFFFF AND PUSH4 0xBF40FAC1 PUSH1 0x40 MLOAD DUP1 PUSH1 0x40 ADD PUSH1 0x40 MSTORE DUP1 PUSH1 0x11 DUP2 MSTORE PUSH1 0x20 ADD PUSH32 0x52455345525645445F4D505F41444D494E000000000000000000000000000000 DUP2 MSTORE POP PUSH1 0x40 MLOAD DUP3 PUSH4 0xFFFFFFFF AND PUSH1 0xE0 SHL DUP2 MSTORE PUSH1 0x4 ADD PUSH2 0x1547 SWAP2 SWAP1 PUSH2 0x236F JUMP JUMPDEST PUSH1 0x20 PUSH1 0x40 MLOAD DUP1 DUP4 SUB DUP2 DUP7 GAS STATICCALL ISZERO DUP1 ISZERO PUSH2 0x1562 JUMPI RETURNDATASIZE PUSH0 PUSH0 RETURNDATACOPY RETURNDATASIZE PUSH0 REVERT JUMPDEST POP POP POP POP PUSH1 0x40 MLOAD RETURNDATASIZE PUSH1 0x1F NOT PUSH1 0x1F DUP3 ADD AND DUP3 ADD DUP1 PUSH1 0x40 MSTORE POP DUP2 ADD SWAP1 PUSH2 0x1586 SWAP2 SWAP1 PUSH2 0x2B4D JUMP JUMPDEST PUSH20 0xFFFFFFFFFFFFFFFFFFFFFFFFFFFFFFFFFFFFFFFF AND CALLER PUSH20 0xFFFFFFFFFFFFFFFFFFFFFFFFFFFFFFFFFFFFFFFF AND EQ PUSH2 0x15F3 JUMPI PUSH1 0x40 MLOAD PUSH32 0x8C379A000000000000000000000000000000000000000000000000000000000 DUP2 MSTORE PUSH1 0x4 ADD PUSH2 0x15EA SWAP1 PUSH2 0x2BC2 JUMP JUMPDEST PUSH1 0x40 MLOAD DUP1 SWAP2 SUB SWAP1 REVERT JUMPDEST PUSH0 PUSH0 SWAP1 SLOAD SWAP1 PUSH2 0x100 EXP SWAP1 DIV PUSH20 0xFFFFFFFFFFFFFFFFFFFFFFFFFFFFFFFFFFFFFFFF AND PUSH20 0xFFFFFFFFFFFFFFFFFFFFFFFFFFFFFFFFFFFFFFFF AND PUSH4 0xBF40FAC1 PUSH1 0x40 MLOAD DUP1 PUSH1 0x40 ADD PUSH1 0x40 MSTORE DUP1 PUSH1 0x14 DUP2 MSTORE PUSH1 0x20 ADD PUSH32 0x52455345525645445F4D505F5245474953544552000000000000000000000000 DUP2 MSTORE POP PUSH1 0x40 MLOAD DUP3 PUSH4 0xFFFFFFFF AND PUSH1 0xE0 SHL DUP2 MSTORE PUSH1 0x4 ADD PUSH2 0x1681 SWAP2 SWAP1 PUSH2 0x236F JUMP JUMPDEST PUSH1 0x20 PUSH1 0x40 MLOAD DUP1 DUP4 SUB DUP2 DUP7 GAS STATICCALL ISZERO DUP1 ISZERO PUSH2 0x169C JUMPI RETURNDATASIZE PUSH0 PUSH0 RETURNDATACOPY RETURNDATASIZE PUSH0 REVERT JUMPDEST POP POP POP POP PUSH1 0x40 MLOAD RETURNDATASIZE PUSH1 0x1F NOT PUSH1 0x1F DUP3 ADD AND DUP3 ADD DUP1 PUSH1 0x40 MSTORE POP DUP2 ADD SWAP1 PUSH2 0x16C0 SWAP2 SWAP1 PUSH2 0x2B4D JUMP JUMPDEST PUSH0 PUSH0 PUSH2 0x100 EXP DUP2 SLOAD DUP2 PUSH20 0xFFFFFFFFFFFFFFFFFFFFFFFFFFFFFFFFFFFFFFFF MUL NOT AND SWAP1 DUP4 PUSH20 0xFFFFFFFFFFFFFFFFFFFFFFFFFFFFFFFFFFFFFFFF AND MUL OR SWAP1 SSTORE POP PUSH1 0x1 SWAP1 POP SWAP1 JUMP JUMPDEST PUSH0 PUSH1 0x6 DUP3 PUSH1 0x40 MLOAD PUSH2 0x1716 SWAP2 SWAP1 PUSH2 0x2C7A JUMP JUMPDEST SWAP1 DUP2 MSTORE PUSH1 0x20 ADD PUSH1 0x40 MLOAD DUP1 SWAP2 SUB SWAP1 KECCAK256 SLOAD SWAP1 POP SWAP2 SWAP1 POP JUMP JUMPDEST PUSH0 PUSH0 PUSH0 SWAP1 SLOAD SWAP1 PUSH2 0x100 EXP SWAP1 DIV PUSH20 0xFFFFFFFFFFFFFFFFFFFFFFFFFFFFFFFFFFFFFFFF AND PUSH20 0xFFFFFFFFFFFFFFFFFFFFFFFFFFFFFFFFFFFFFFFF AND PUSH4 0xBF40FAC1 PUSH1 0x40 MLOAD DUP1 PUSH1 0x40 ADD PUSH1 0x40 MSTORE DUP1 PUSH1 0x15 DUP2 MSTORE PUSH1 0x20 ADD PUSH32 0x52455345525645445F4D505F4645455F544F4B454E0000000000000000000000 DUP2 MSTORE POP PUSH1 0x40 MLOAD DUP3 PUSH4 0xFFFFFFFF AND PUSH1 0xE0 SHL DUP2 MSTORE PUSH1 0x4 ADD PUSH2 0x17BB SWAP2 SWAP1 PUSH2 0x236F JUMP JUMPDEST PUSH1 0x20 PUSH1 0x40 MLOAD DUP1 DUP4 SUB DUP2 DUP7 GAS STATICCALL ISZERO DUP1 ISZERO PUSH2 0x17D6 JUMPI RETURNDATASIZE PUSH0 PUSH0 RETURNDATACOPY RETURNDATASIZE PUSH0 REVERT JUMPDEST POP POP POP POP PUSH1 0x40 MLOAD RETURNDATASIZE PUSH1 0x1F NOT PUSH1 0x1F DUP3 ADD AND DUP3 ADD DUP1 PUSH1 0x40 MSTORE POP DUP2 ADD SWAP1 PUSH2 0x17FA SWAP2 SWAP1 PUSH2 0x2B4D JUMP JUMPDEST SWAP1 POP PUSH0 PUSH0 PUSH0 SWAP1 SLOAD SWAP1 PUSH2 0x100 EXP SWAP1 DIV PUSH20 0xFFFFFFFFFFFFFFFFFFFFFFFFFFFFFFFFFFFFFFFF AND PUSH20 0xFFFFFFFFFFFFFFFFFFFFFFFFFFFFFFFFFFFFFFFF AND PUSH4 0xBF40FAC1 PUSH1 0x40 MLOAD DUP1 PUSH1 0x40 ADD PUSH1 0x40 MSTORE DUP1 PUSH1 0x10 DUP2 MSTORE PUSH1 0x20 ADD PUSH32 0x52455345525645445F4D505F42414E4B00000000000000000000000000000000 DUP2 MSTORE POP PUSH1 0x40 MLOAD DUP3 PUSH4 0xFFFFFFFF AND PUSH1 0xE0 SHL DUP2 MSTORE PUSH1 0x4 ADD PUSH2 0x188B SWAP2 SWAP1 PUSH2 0x236F JUMP JUMPDEST PUSH1 0x20 PUSH1 0x40 MLOAD DUP1 DUP4 SUB DUP2 DUP7 GAS STATICCALL ISZERO DUP1 ISZERO PUSH2 0x18A6 JUMPI RETURNDATASIZE PUSH0 PUSH0 RETURNDATACOPY RETURNDATASIZE PUSH0 REVERT JUMPDEST POP POP POP POP PUSH1 0x40 MLOAD RETURNDATASIZE PUSH1 0x1F NOT PUSH1 0x1F DUP3 ADD AND DUP3 ADD DUP1 PUSH1 0x40 MSTORE POP DUP2 ADD SWAP1 PUSH2 0x18CA SWAP2 SWAP1 PUSH2 0x2B4D JUMP JUMPDEST SWAP1 POP PUSH0 PUSH1 0x6 DUP5 PUSH1 0x40 MLOAD PUSH2 0x18DD SWAP2 SWAP1 PUSH2 0x2C7A JUMP JUMPDEST SWAP1 DUP2 MSTORE PUSH1 0x20 ADD PUSH1 0x40 MLOAD DUP1 SWAP2 SUB SWAP1 KECCAK256 SLOAD SWAP1 POP PUSH20 0xEEEEEEEEEEEEEEEEEEEEEEEEEEEEEEEEEEEEEEEE PUSH20 0xFFFFFFFFFFFFFFFFFFFFFFFFFFFFFFFFFFFFFFFF AND DUP4 PUSH20 0xFFFFFFFFFFFFFFFFFFFFFFFFFFFFFFFFFFFFFFFF AND SUB PUSH2 0x1A14 JUMPI PUSH1 0x6 PUSH1 0x40 MLOAD DUP1 PUSH1 0x40 ADD PUSH1 0x40 MSTORE DUP1 PUSH1 0x11 DUP2 MSTORE PUSH1 0x20 ADD PUSH32 0x50454E53494F4E5F53455455505F464545000000000000000000000000000000 DUP2 MSTORE POP PUSH1 0x40 MLOAD PUSH2 0x197A SWAP2 SWAP1 PUSH2 0x2C7A JUMP JUMPDEST SWAP1 DUP2 MSTORE PUSH1 0x20 ADD PUSH1 0x40 MLOAD DUP1 SWAP2 SUB SWAP1 KECCAK256 SLOAD CALLVALUE LT ISZERO PUSH2 0x19CB JUMPI PUSH1 0x40 MLOAD PUSH32 0x8C379A000000000000000000000000000000000000000000000000000000000 DUP2 MSTORE PUSH1 0x4 ADD PUSH2 0x19C2 SWAP1 PUSH2 0x2D8F JUMP JUMPDEST PUSH1 0x40 MLOAD DUP1 SWAP2 SUB SWAP1 REVERT JUMPDEST DUP2 PUSH20 0xFFFFFFFFFFFFFFFFFFFFFFFFFFFFFFFFFFFFFFFF AND PUSH2 0x8FC DUP3 SWAP1 DUP2 ISZERO MUL SWAP1 PUSH1 0x40 MLOAD PUSH0 PUSH1 0x40 MLOAD DUP1 DUP4 SUB DUP2 DUP6 DUP9 DUP9 CALL SWAP4 POP POP POP POP ISZERO DUP1 ISZERO PUSH2 0x1A0E JUMPI RETURNDATASIZE PUSH0 PUSH0 RETURNDATACOPY RETURNDATASIZE PUSH0 REVERT JUMPDEST POP PUSH2 0x1B34 JUMP JUMPDEST PUSH0 DUP4 SWAP1 POP DUP1 PUSH20 0xFFFFFFFFFFFFFFFFFFFFFFFFFFFFFFFFFFFFFFFF AND PUSH4 0x23B872DD CALLER PUSH32 0x0 DUP6 PUSH1 0x40 MLOAD DUP5 PUSH4 0xFFFFFFFF AND PUSH1 0xE0 SHL DUP2 MSTORE PUSH1 0x4 ADD PUSH2 0x1A75 SWAP4 SWAP3 SWAP2 SWAP1 PUSH2 0x2DAD JUMP JUMPDEST PUSH1 0x20 PUSH1 0x40 MLOAD DUP1 DUP4 SUB DUP2 PUSH0 DUP8 GAS CALL ISZERO DUP1 ISZERO PUSH2 0x1A91 JUMPI RETURNDATASIZE PUSH0 PUSH0 RETURNDATACOPY RETURNDATASIZE PUSH0 REVERT JUMPDEST POP POP POP POP PUSH1 0x40 MLOAD RETURNDATASIZE PUSH1 0x1F NOT PUSH1 0x1F DUP3 ADD AND DUP3 ADD DUP1 PUSH1 0x40 MSTORE POP DUP2 ADD SWAP1 PUSH2 0x1AB5 SWAP2 SWAP1 PUSH2 0x2E0C JUMP JUMPDEST POP DUP1 PUSH20 0xFFFFFFFFFFFFFFFFFFFFFFFFFFFFFFFFFFFFFFFF AND PUSH4 0xA9059CBB DUP5 DUP5 PUSH1 0x40 MLOAD DUP4 PUSH4 0xFFFFFFFF AND PUSH1 0xE0 SHL DUP2 MSTORE PUSH1 0x4 ADD PUSH2 0x1AF1 SWAP3 SWAP2 SWAP1 PUSH2 0x2947 JUMP JUMPDEST PUSH1 0x20 PUSH1 0x40 MLOAD DUP1 DUP4 SUB DUP2 PUSH0 DUP8 GAS CALL ISZERO DUP1 ISZERO PUSH2 0x1B0D JUMPI RETURNDATASIZE PUSH0 PUSH0 RETURNDATACOPY RETURNDATASIZE PUSH0 REVERT JUMPDEST POP POP POP POP PUSH1 0x40 MLOAD RETURNDATASIZE PUSH1 0x1F NOT PUSH1 0x1F DUP3 ADD AND DUP3 ADD DUP1 PUSH1 0x40 MSTORE POP DUP2 ADD SWAP1 PUSH2 0x1B31 SWAP2 SWAP1 PUSH2 0x2E0C JUMP JUMPDEST POP POP JUMPDEST POP POP POP POP JUMP JUMPDEST PUSH2 0x1B42 PUSH2 0x21C6 JUMP JUMPDEST PUSH0 PUSH0 SWAP1 SLOAD SWAP1 PUSH2 0x100 EXP SWAP1 DIV PUSH20 0xFFFFFFFFFFFFFFFFFFFFFFFFFFFFFFFFFFFFFFFF AND PUSH20 0xFFFFFFFFFFFFFFFFFFFFFFFFFFFFFFFFFFFFFFFF AND PUSH4 0xBF40FAC1 PUSH1 0x40 MLOAD DUP1 PUSH1 0x40 ADD PUSH1 0x40 MSTORE DUP1 PUSH1 0x1B DUP2 MSTORE PUSH1 0x20 ADD PUSH32 0x52455345525645445F4D505F50524F445543545F4D414E414745520000000000 DUP2 MSTORE POP PUSH1 0x40 MLOAD DUP3 PUSH4 0xFFFFFFFF AND PUSH1 0xE0 SHL DUP2 MSTORE PUSH1 0x4 ADD PUSH2 0x1BD0 SWAP2 SWAP1 PUSH2 0x236F JUMP JUMPDEST PUSH1 0x20 PUSH1 0x40 MLOAD DUP1 DUP4 SUB DUP2 DUP7 GAS STATICCALL ISZERO DUP1 ISZERO PUSH2 0x1BEB JUMPI RETURNDATASIZE PUSH0 PUSH0 RETURNDATACOPY RETURNDATASIZE PUSH0 REVERT JUMPDEST POP POP POP POP PUSH1 0x40 MLOAD RETURNDATASIZE PUSH1 0x1F NOT PUSH1 0x1F DUP3 ADD AND DUP3 ADD DUP1 PUSH1 0x40 MSTORE POP DUP2 ADD SWAP1 PUSH2 0x1C0F SWAP2 SWAP1 PUSH2 0x2B4D JUMP JUMPDEST PUSH20 0xFFFFFFFFFFFFFFFFFFFFFFFFFFFFFFFFFFFFFFFF AND PUSH4 0xB9DB15B4 DUP4 PUSH1 0x40 MLOAD DUP3 PUSH4 0xFFFFFFFF AND PUSH1 0xE0 SHL DUP2 MSTORE PUSH1 0x4 ADD PUSH2 0x1C47 SWAP2 SWAP1 PUSH2 0x22E6 JUMP JUMPDEST PUSH2 0x300 PUSH1 0x40 MLOAD DUP1 DUP4 SUB DUP2 DUP7 GAS STATICCALL ISZERO DUP1 ISZERO PUSH2 0x1C63 JUMPI RETURNDATASIZE PUSH0 PUSH0 RETURNDATACOPY RETURNDATASIZE PUSH0 REVERT JUMPDEST POP POP POP POP PUSH1 0x40 MLOAD RETURNDATASIZE PUSH1 0x1F NOT PUSH1 0x1F DUP3 ADD AND DUP3 ADD DUP1 PUSH1 0x40 MSTORE POP DUP2 ADD SWAP1 PUSH2 0x1C87 SWAP2 SWAP1 PUSH2 0x30B0 JUMP JUMPDEST SWAP1 POP TIMESTAMP DUP2 PUSH2 0x160 ADD MLOAD LT ISZERO PUSH2 0x1CD1 JUMPI PUSH1 0x40 MLOAD PUSH32 0x8C379A000000000000000000000000000000000000000000000000000000000 DUP2 MSTORE PUSH1 0x4 ADD PUSH2 0x1CC8 SWAP1 PUSH2 0x3126 JUMP JUMPDEST PUSH1 0x40 MLOAD DUP1 SWAP2 SUB SWAP1 REVERT JUMPDEST PUSH0 DUP2 PUSH2 0x180 ADD MLOAD GT PUSH2 0x1D18 JUMPI PUSH1 0x40 MLOAD PUSH32 0x8C379A000000000000000000000000000000000000000000000000000000000 DUP2 MSTORE PUSH1 0x4 ADD PUSH2 0x1D0F SWAP1 PUSH2 0x318E JUMP JUMPDEST PUSH1 0x40 MLOAD DUP1 SWAP2 SUB SWAP1 REVERT JUMPDEST PUSH0 PUSH0 SWAP1 SLOAD SWAP1 PUSH2 0x100 EXP SWAP1 DIV PUSH20 0xFFFFFFFFFFFFFFFFFFFFFFFFFFFFFFFFFFFFFFFF AND PUSH20 0xFFFFFFFFFFFFFFFFFFFFFFFFFFFFFFFFFFFFFFFF AND PUSH4 0xBF40FAC1 PUSH1 0x40 MLOAD DUP1 PUSH1 0x40 ADD PUSH1 0x40 MSTORE DUP1 PUSH1 0x1B DUP2 MSTORE PUSH1 0x20 ADD PUSH32 0x52455345525645445F4D505F50524F445543545F4D414E414745520000000000 DUP2 MSTORE POP PUSH1 0x40 MLOAD DUP3 PUSH4 0xFFFFFFFF AND PUSH1 0xE0 SHL DUP2 MSTORE PUSH1 0x4 ADD PUSH2 0x1DA6 SWAP2 SWAP1 PUSH2 0x236F JUMP JUMPDEST PUSH1 0x20 PUSH1 0x40 MLOAD DUP1 DUP4 SUB DUP2 DUP7 GAS STATICCALL ISZERO DUP1 ISZERO PUSH2 0x1DC1 JUMPI RETURNDATASIZE PUSH0 PUSH0 RETURNDATACOPY RETURNDATASIZE PUSH0 REVERT JUMPDEST POP POP POP POP PUSH1 0x40 MLOAD RETURNDATASIZE PUSH1 0x1F NOT PUSH1 0x1F DUP3 ADD AND DUP3 ADD DUP1 PUSH1 0x40 MSTORE POP DUP2 ADD SWAP1 PUSH2 0x1DE5 SWAP2 SWAP1 PUSH2 0x2B4D JUMP JUMPDEST PUSH20 0xFFFFFFFFFFFFFFFFFFFFFFFFFFFFFFFFFFFFFFFF AND PUSH4 0x8D808BCF DUP4 PUSH1 0x40 MLOAD DUP3 PUSH4 0xFFFFFFFF AND PUSH1 0xE0 SHL DUP2 MSTORE PUSH1 0x4 ADD PUSH2 0x1E1D SWAP2 SWAP1 PUSH2 0x22E6 JUMP JUMPDEST PUSH1 0x20 PUSH1 0x40 MLOAD DUP1 DUP4 SUB DUP2 PUSH0 DUP8 GAS CALL ISZERO DUP1 ISZERO PUSH2 0x1E39 JUMPI RETURNDATASIZE PUSH0 PUSH0 RETURNDATACOPY RETURNDATASIZE PUSH0 REVERT JUMPDEST POP POP POP POP PUSH1 0x40 MLOAD RETURNDATASIZE PUSH1 0x1F NOT PUSH1 0x1F DUP3 ADD AND DUP3 ADD DUP1 PUSH1 0x40 MSTORE POP DUP2 ADD SWAP1 PUSH2 0x1E5D SWAP2 SWAP1 PUSH2 0x31AC JUMP JUMPDEST POP SWAP2 SWAP1 POP JUMP JUMPDEST PUSH0 PUSH1 0x1 PUSH0 DUP2 SLOAD DUP1 SWAP3 SWAP2 SWAP1 PUSH2 0x1E76 SWAP1 PUSH2 0x31D7 JUMP JUMPDEST SWAP2 SWAP1 POP SSTORE SWAP1 POP SWAP1 JUMP JUMPDEST PUSH0 PUSH0 PUSH0 SWAP1 SLOAD SWAP1 PUSH2 0x100 EXP SWAP1 DIV PUSH20 0xFFFFFFFFFFFFFFFFFFFFFFFFFFFFFFFFFFFFFFFF AND PUSH20 0xFFFFFFFFFFFFFFFFFFFFFFFFFFFFFFFFFFFFFFFF AND PUSH4 0xBF40FAC1 PUSH1 0x40 MLOAD DUP1 PUSH1 0x40 ADD PUSH1 0x40 MSTORE DUP1 PUSH1 0x19 DUP2 MSTORE PUSH1 0x20 ADD PUSH32 0x52455345525645445F4D505F5641554C545F464143544F525900000000000000 DUP2 MSTORE POP PUSH1 0x40 MLOAD DUP3 PUSH4 0xFFFFFFFF AND PUSH1 0xE0 SHL DUP2 MSTORE PUSH1 0x4 ADD PUSH2 0x1F0E SWAP2 SWAP1 PUSH2 0x236F JUMP JUMPDEST PUSH1 0x20 PUSH1 0x40 MLOAD DUP1 DUP4 SUB DUP2 DUP7 GAS STATICCALL ISZERO DUP1 ISZERO PUSH2 0x1F29 JUMPI RETURNDATASIZE PUSH0 PUSH0 RETURNDATACOPY RETURNDATASIZE PUSH0 REVERT JUMPDEST POP POP POP POP PUSH1 0x40 MLOAD RETURNDATASIZE PUSH1 0x1F NOT PUSH1 0x1F DUP3 ADD AND DUP3 ADD DUP1 PUSH1 0x40 MSTORE POP DUP2 ADD SWAP1 PUSH2 0x1F4D SWAP2 SWAP1 PUSH2 0x2B4D JUMP JUMPDEST PUSH20 0xFFFFFFFFFFFFFFFFFFFFFFFFFFFFFFFFFFFFFFFF AND PUSH4 0x9ABBDF4B DUP4 PUSH1 0x40 MLOAD DUP3 PUSH4 0xFFFFFFFF AND PUSH1 0xE0 SHL DUP2 MSTORE PUSH1 0x4 ADD PUSH2 0x1F85 SWAP2 SWAP1 PUSH2 0x22E6 JUMP JUMPDEST PUSH1 0x20 PUSH1 0x40 MLOAD DUP1 DUP4 SUB DUP2 PUSH0 DUP8 GAS CALL ISZERO DUP1 ISZERO PUSH2 0x1FA1 JUMPI RETURNDATASIZE PUSH0 PUSH0 RETURNDATACOPY RETURNDATASIZE PUSH0 REVERT JUMPDEST POP POP POP POP PUSH1 0x40 MLOAD RETURNDATASIZE PUSH1 0x1F NOT PUSH1 0x1F DUP3 ADD AND DUP3 ADD DUP1 PUSH1 0x40 MSTORE POP DUP2 ADD SWAP1 PUSH2 0x1FC5 SWAP2 SWAP1 PUSH2 0x2B4D JUMP JUMPDEST SWAP1 POP SWAP2 SWAP1 POP JUMP JUMPDEST PUSH0 PUSH0 PUSH0 SWAP1 SLOAD SWAP1 PUSH2 0x100 EXP SWAP1 DIV PUSH20 0xFFFFFFFFFFFFFFFFFFFFFFFFFFFFFFFFFFFFFFFF AND PUSH20 0xFFFFFFFFFFFFFFFFFFFFFFFFFFFFFFFFFFFFFFFF AND PUSH4 0xBF40FAC1 PUSH1 0x40 MLOAD DUP1 PUSH1 0x40 ADD PUSH1 0x40 MSTORE DUP1 PUSH1 0x16 DUP2 MSTORE PUSH1 0x20 ADD PUSH32 0x52455345525645445F4D505F54585F4D414E4147455200000000000000000000 DUP2 MSTORE POP PUSH1 0x40 MLOAD DUP3 PUSH4 0xFFFFFFFF AND PUSH1 0xE0 SHL DUP2 MSTORE PUSH1 0x4 ADD PUSH2 0x205B SWAP2 SWAP1 PUSH2 0x236F JUMP JUMPDEST PUSH1 0x20 PUSH1 0x40 MLOAD DUP1 DUP4 SUB DUP2 DUP7 GAS STATICCALL ISZERO DUP1 ISZERO PUSH2 0x2076 JUMPI RETURNDATASIZE PUSH0 PUSH0 RETURNDATACOPY RETURNDATASIZE PUSH0 REVERT JUMPDEST POP POP POP POP PUSH1 0x40 MLOAD RETURNDATASIZE PUSH1 0x1F NOT PUSH1 0x1F DUP3 ADD AND DUP3 ADD DUP1 PUSH1 0x40 MSTORE POP DUP2 ADD SWAP1 PUSH2 0x209A SWAP2 SWAP1 PUSH2 0x2B4D JUMP JUMPDEST PUSH20 0xFFFFFFFFFFFFFFFFFFFFFFFFFFFFFFFFFFFFFFFF AND PUSH4 0xEE16E639 DUP8 DUP8 DUP8 PUSH32 0x0 DUP9 DUP9 PUSH1 0x40 MLOAD DUP8 PUSH4 0xFFFFFFFF AND PUSH1 0xE0 SHL DUP2 MSTORE PUSH1 0x4 ADD PUSH2 0x20FC SWAP7 SWAP6 SWAP5 SWAP4 SWAP3 SWAP2 SWAP1 PUSH2 0x32AA JUMP JUMPDEST PUSH1 0x20 PUSH1 0x40 MLOAD DUP1 DUP4 SUB DUP2 PUSH0 DUP8 GAS CALL ISZERO DUP1 ISZERO PUSH2 0x2118 JUMPI RETURNDATASIZE PUSH0 PUSH0 RETURNDATACOPY RETURNDATASIZE PUSH0 REVERT JUMPDEST POP POP POP POP PUSH1 0x40 MLOAD RETURNDATASIZE PUSH1 0x1F NOT PUSH1 0x1F DUP3 ADD AND DUP3 ADD DUP1 PUSH1 0x40 MSTORE POP DUP2 ADD SWAP1 PUSH2 0x213C SWAP2 SWAP1 PUSH2 0x31AC JUMP JUMPDEST SWAP1 POP SWAP6 SWAP5 POP POP POP POP POP JUMP JUMPDEST PUSH1 0x40 MLOAD DUP1 PUSH1 0xE0 ADD PUSH1 0x40 MSTORE DUP1 PUSH0 DUP2 MSTORE PUSH1 0x20 ADD PUSH0 PUSH20 0xFFFFFFFFFFFFFFFFFFFFFFFFFFFFFFFFFFFFFFFF AND DUP2 MSTORE PUSH1 0x20 ADD PUSH0 PUSH20 0xFFFFFFFFFFFFFFFFFFFFFFFFFFFFFFFFFFFFFFFF AND DUP2 MSTORE PUSH1 0x20 ADD PUSH0 PUSH20 0xFFFFFFFFFFFFFFFFFFFFFFFFFFFFFFFFFFFFFFFF AND DUP2 MSTORE PUSH1 0x20 ADD PUSH0 DUP2 MSTORE PUSH1 0x20 ADD PUSH0 DUP2 MSTORE PUSH1 0x20 ADD PUSH2 0x21C0 PUSH2 0x21C6 JUMP JUMPDEST DUP2 MSTORE POP SWAP1 JUMP JUMPDEST PUSH1 0x40 MLOAD DUP1 PUSH2 0x1A0 ADD PUSH1 0x40 MSTORE DUP1 PUSH0 DUP2 MSTORE PUSH1 0x20 ADD PUSH0 PUSH20 0xFFFFFFFFFFFFFFFFFFFFFFFFFFFFFFFFFFFFFFFF AND DUP2 MSTORE PUSH1 0x20 ADD PUSH0 PUSH20 0xFFFFFFFFFFFFFFFFFFFFFFFFFFFFFFFFFFFFFFFF AND DUP2 MSTORE PUSH1 0x20 ADD PUSH0 DUP2 MSTORE PUSH1 0x20 ADD PUSH0 DUP2 MSTORE PUSH1 0x20 ADD PUSH0 DUP2 MSTORE PUSH1 0x20 ADD PUSH0 PUSH1 0x2 DUP2 GT ISZERO PUSH2 0x2235 JUMPI PUSH2 0x2234 PUSH2 0x24A5 JUMP JUMPDEST JUMPDEST DUP2 MSTORE PUSH1 0x20 ADD PUSH2 0x2242 PUSH2 0x2274 JUMP JUMPDEST DUP2 MSTORE PUSH1 0x20 ADD PUSH2 0x224F PUSH2 0x2274 JUMP JUMPDEST DUP2 MSTORE PUSH1 0x20 ADD PUSH2 0x225C PUSH2 0x22B6 JUMP JUMPDEST DUP2 MSTORE PUSH1 0x20 ADD PUSH0 DUP2 MSTORE PUSH1 0x20 ADD PUSH0 DUP2 MSTORE PUSH1 0x20 ADD PUSH0 DUP2 MSTORE POP SWAP1 JUMP JUMPDEST PUSH1 0x40 MLOAD DUP1 PUSH1 0xC0 ADD PUSH1 0x40 MSTORE DUP1 PUSH0 PUSH1 0x3 DUP2 GT ISZERO PUSH2 0x2292 JUMPI PUSH2 0x2291 PUSH2 0x24A5 JUMP JUMPDEST JUMPDEST DUP2 MSTORE PUSH1 0x20 ADD PUSH0 DUP2 MSTORE PUSH1 0x20 ADD PUSH0 DUP2 MSTORE PUSH1 0x20 ADD PUSH0 DUP2 MSTORE PUSH1 0x20 ADD PUSH0 DUP2 MSTORE PUSH1 0x20 ADD PUSH0 DUP2 MSTORE POP SWAP1 JUMP JUMPDEST PUSH1 0x40 MLOAD DUP1 PUSH1 0x40 ADD PUSH1 0x40 MSTORE DUP1 PUSH0 DUP2 MSTORE PUSH1 0x20 ADD PUSH0 DUP2 MSTORE POP SWAP1 JUMP JUMPDEST PUSH0 DUP2 SWAP1 POP SWAP2 SWAP1 POP JUMP JUMPDEST PUSH2 0x22E0 DUP2 PUSH2 0x22CE JUMP JUMPDEST DUP3 MSTORE POP POP JUMP JUMPDEST PUSH0 PUSH1 0x20 DUP3 ADD SWAP1 POP PUSH2 0x22F9 PUSH0 DUP4 ADD DUP5 PUSH2 0x22D7 JUMP JUMPDEST SWAP3 SWAP2 POP POP JUMP JUMPDEST PUSH0 DUP2 MLOAD SWAP1 POP SWAP2 SWAP1 POP JUMP JUMPDEST PUSH0 DUP3 DUP3 MSTORE PUSH1 0x20 DUP3 ADD SWAP1 POP SWAP3 SWAP2 POP POP JUMP JUMPDEST DUP3 DUP2 DUP4 MCOPY PUSH0 DUP4 DUP4 ADD MSTORE POP POP POP JUMP JUMPDEST PUSH0 PUSH1 0x1F NOT PUSH1 0x1F DUP4 ADD AND SWAP1 POP SWAP2 SWAP1 POP JUMP JUMPDEST PUSH0 PUSH2 0x2341 DUP3 PUSH2 0x22FF JUMP JUMPDEST PUSH2 0x234B DUP2 DUP6 PUSH2 0x2309 JUMP JUMPDEST SWAP4 POP PUSH2 0x235B DUP2 DUP6 PUSH1 0x20 DUP7 ADD PUSH2 0x2319 JUMP JUMPDEST PUSH2 0x2364 DUP2 PUSH2 0x2327 JUMP JUMPDEST DUP5 ADD SWAP2 POP POP SWAP3 SWAP2 POP POP JUMP JUMPDEST PUSH0 PUSH1 0x20 DUP3 ADD SWAP1 POP DUP2 DUP2 SUB PUSH0 DUP4 ADD MSTORE PUSH2 0x2387 DUP2 DUP5 PUSH2 0x2337 JUMP JUMPDEST SWAP1 POP SWAP3 SWAP2 POP POP JUMP JUMPDEST PUSH0 DUP2 MLOAD SWAP1 POP SWAP2 SWAP1 POP JUMP JUMPDEST PUSH0 DUP3 DUP3 MSTORE PUSH1 0x20 DUP3 ADD SWAP1 POP SWAP3 SWAP2 POP POP JUMP JUMPDEST PUSH0 DUP2 SWAP1 POP PUSH1 0x20 DUP3 ADD SWAP1 POP SWAP2 SWAP1 POP JUMP JUMPDEST PUSH2 0x23C1 DUP2 PUSH2 0x22CE JUMP JUMPDEST DUP3 MSTORE POP POP JUMP JUMPDEST PUSH0 PUSH2 0x23D2 DUP4 DUP4 PUSH2 0x23B8 JUMP JUMPDEST PUSH1 0x20 DUP4 ADD SWAP1 POP SWAP3 SWAP2 POP POP JUMP JUMPDEST PUSH0 PUSH1 0x20 DUP3 ADD SWAP1 POP SWAP2 SWAP1 POP JUMP JUMPDEST PUSH0 PUSH2 0x23F4 DUP3 PUSH2 0x238F JUMP JUMPDEST PUSH2 0x23FE DUP2 DUP6 PUSH2 0x2399 JUMP JUMPDEST SWAP4 POP PUSH2 0x2409 DUP4 PUSH2 0x23A9 JUMP JUMPDEST DUP1 PUSH0 JUMPDEST DUP4 DUP2 LT ISZERO PUSH2 0x2439 JUMPI DUP2 MLOAD PUSH2 0x2420 DUP9 DUP3 PUSH2 0x23C7 JUMP JUMPDEST SWAP8 POP PUSH2 0x242B DUP4 PUSH2 0x23DE JUMP JUMPDEST SWAP3 POP POP PUSH1 0x1 DUP2 ADD SWAP1 POP PUSH2 0x240C JUMP JUMPDEST POP DUP6 SWAP4 POP POP POP POP SWAP3 SWAP2 POP POP JUMP JUMPDEST PUSH0 PUSH1 0x20 DUP3 ADD SWAP1 POP DUP2 DUP2 SUB PUSH0 DUP4 ADD MSTORE PUSH2 0x245E DUP2 DUP5 PUSH2 0x23EA JUMP JUMPDEST SWAP1 POP SWAP3 SWAP2 POP POP JUMP JUMPDEST PUSH0 PUSH20 0xFFFFFFFFFFFFFFFFFFFFFFFFFFFFFFFFFFFFFFFF DUP3 AND SWAP1 POP SWAP2 SWAP1 POP JUMP JUMPDEST PUSH0 PUSH2 0x248F DUP3 PUSH2 0x2466 JUMP JUMPDEST SWAP1 POP SWAP2 SWAP1 POP JUMP JUMPDEST PUSH2 0x249F DUP2 PUSH2 0x2485 JUMP JUMPDEST DUP3 MSTORE POP POP JUMP JUMPDEST PUSH32 0x4E487B7100000000000000000000000000000000000000000000000000000000 PUSH0 MSTORE PUSH1 0x21 PUSH1 0x4 MSTORE PUSH1 0x24 PUSH0 REVERT JUMPDEST PUSH1 0x3 DUP2 LT PUSH2 0x24E3 JUMPI PUSH2 0x24E2 PUSH2 0x24A5 JUMP JUMPDEST JUMPDEST POP JUMP JUMPDEST PUSH0 DUP2 SWAP1 POP PUSH2 0x24F3 DUP3 PUSH2 0x24D2 JUMP JUMPDEST SWAP2 SWAP1 POP JUMP JUMPDEST PUSH0 PUSH2 0x2502 DUP3 PUSH2 0x24E6 JUMP JUMPDEST SWAP1 POP SWAP2 SWAP1 POP JUMP JUMPDEST PUSH2 0x2512 DUP2 PUSH2 0x24F8 JUMP JUMPDEST DUP3 MSTORE POP POP JUMP JUMPDEST PUSH1 0x4 DUP2 LT PUSH2 0x2529 JUMPI PUSH2 0x2528 PUSH2 0x24A5 JUMP JUMPDEST JUMPDEST POP JUMP JUMPDEST PUSH0 DUP2 SWAP1 POP PUSH2 0x2539 DUP3 PUSH2 0x2518 JUMP JUMPDEST SWAP2 SWAP1 POP JUMP JUMPDEST PUSH0 PUSH2 0x2548 DUP3 PUSH2 0x252C JUMP JUMPDEST SWAP1 POP SWAP2 SWAP1 POP JUMP JUMPDEST PUSH2 0x2558 DUP2 PUSH2 0x253E JUMP JUMPDEST DUP3 MSTORE POP POP JUMP JUMPDEST PUSH1 0xC0 DUP3 ADD PUSH0 DUP3 ADD MLOAD PUSH2 0x2572 PUSH0 DUP6 ADD DUP3 PUSH2 0x254F JUMP JUMPDEST POP PUSH1 0x20 DUP3 ADD MLOAD PUSH2 0x2585 PUSH1 0x20 DUP6 ADD DUP3 PUSH2 0x23B8 JUMP JUMPDEST POP PUSH1 0x40 DUP3 ADD MLOAD PUSH2 0x2598 PUSH1 0x40 DUP6 ADD DUP3 PUSH2 0x23B8 JUMP JUMPDEST POP PUSH1 0x60 DUP3 ADD MLOAD PUSH2 0x25AB PUSH1 0x60 DUP6 ADD DUP3 PUSH2 0x23B8 JUMP JUMPDEST POP PUSH1 0x80 DUP3 ADD MLOAD PUSH2 0x25BE PUSH1 0x80 DUP6 ADD DUP3 PUSH2 0x23B8 JUMP JUMPDEST POP PUSH1 0xA0 DUP3 ADD MLOAD PUSH2 0x25D1 PUSH1 0xA0 DUP6 ADD DUP3 PUSH2 0x23B8 JUMP JUMPDEST POP POP POP POP JUMP JUMPDEST PUSH1 0x40 DUP3 ADD PUSH0 DUP3 ADD MLOAD PUSH2 0x25EB PUSH0 DUP6 ADD DUP3 PUSH2 0x23B8 JUMP JUMPDEST POP PUSH1 0x20 DUP3 ADD MLOAD PUSH2 0x25FE PUSH1 0x20 DUP6 ADD DUP3 PUSH2 0x23B8 JUMP JUMPDEST POP POP POP POP JUMP JUMPDEST PUSH2 0x300 DUP3 ADD PUSH0 DUP3 ADD MLOAD PUSH2 0x2619 PUSH0 DUP6 ADD DUP3 PUSH2 0x23B8 JUMP JUMPDEST POP PUSH1 0x20 DUP3 ADD MLOAD PUSH2 0x262C PUSH1 0x20 DUP6 ADD DUP3 PUSH2 0x2496 JUMP JUMPDEST POP PUSH1 0x40 DUP3 ADD MLOAD PUSH2 0x263F PUSH1 0x40 DUP6 ADD DUP3 PUSH2 0x2496 JUMP JUMPDEST POP PUSH1 0x60 DUP3 ADD MLOAD PUSH2 0x2652 PUSH1 0x60 DUP6 ADD DUP3 PUSH2 0x23B8 JUMP JUMPDEST POP PUSH1 0x80 DUP3 ADD MLOAD PUSH2 0x2665 PUSH1 0x80 DUP6 ADD DUP3 PUSH2 0x23B8 JUMP JUMPDEST POP PUSH1 0xA0 DUP3 ADD MLOAD PUSH2 0x2678 PUSH1 0xA0 DUP6 ADD DUP3 PUSH2 0x23B8 JUMP JUMPDEST POP PUSH1 0xC0 DUP3 ADD MLOAD PUSH2 0x268B PUSH1 0xC0 DUP6 ADD DUP3 PUSH2 0x2509 JUMP JUMPDEST POP PUSH1 0xE0 DUP3 ADD MLOAD PUSH2 0x269E PUSH1 0xE0 DUP6 ADD DUP3 PUSH2 0x255E JUMP JUMPDEST POP PUSH2 0x100 DUP3 ADD MLOAD PUSH2 0x26B3 PUSH2 0x1A0 DUP6 ADD DUP3 PUSH2 0x255E JUMP JUMPDEST POP PUSH2 0x120 DUP3 ADD MLOAD PUSH2 0x26C8 PUSH2 0x260 DUP6 ADD DUP3 PUSH2 0x25D7 JUMP JUMPDEST POP PUSH2 0x140 DUP3 ADD MLOAD PUSH2 0x26DD PUSH2 0x2A0 DUP6 ADD DUP3 PUSH2 0x23B8 JUMP JUMPDEST POP PUSH2 0x160 DUP3 ADD MLOAD PUSH2 0x26F2 PUSH2 0x2C0 DUP6 ADD DUP3 PUSH2 0x23B8 JUMP JUMPDEST POP PUSH2 0x180 DUP3 ADD MLOAD PUSH2 0x2707 PUSH2 0x2E0 DUP6 ADD DUP3 PUSH2 0x23B8 JUMP JUMPDEST POP POP POP POP JUMP JUMPDEST PUSH2 0x3C0 DUP3 ADD PUSH0 DUP3 ADD MLOAD PUSH2 0x2722 PUSH0 DUP6 ADD DUP3 PUSH2 0x23B8 JUMP JUMPDEST POP PUSH1 0x20 DUP3 ADD MLOAD PUSH2 0x2735 PUSH1 0x20 DUP6 ADD DUP3 PUSH2 0x2496 JUMP JUMPDEST POP PUSH1 0x40 DUP3 ADD MLOAD PUSH2 0x2748 PUSH1 0x40 DUP6 ADD DUP3 PUSH2 0x2496 JUMP JUMPDEST POP PUSH1 0x60 DUP3 ADD MLOAD PUSH2 0x275B PUSH1 0x60 DUP6 ADD DUP3 PUSH2 0x2496 JUMP JUMPDEST POP PUSH1 0x80 DUP3 ADD MLOAD PUSH2 0x276E PUSH1 0x80 DUP6 ADD DUP3 PUSH2 0x23B8 JUMP JUMPDEST POP PUSH1 0xA0 DUP3 ADD MLOAD PUSH2 0x2781 PUSH1 0xA0 DUP6 ADD DUP3 PUSH2 0x23B8 JUMP JUMPDEST POP PUSH1 0xC0 DUP3 ADD MLOAD PUSH2 0x2794 PUSH1 0xC0 DUP6 ADD DUP3 PUSH2 0x2604 JUMP JUMPDEST POP POP POP POP JUMP JUMPDEST PUSH0 PUSH2 0x3C0 DUP3 ADD SWAP1 POP PUSH2 0x27AE PUSH0 DUP4 ADD DUP5 PUSH2 0x270D JUMP JUMPDEST SWAP3 SWAP2 POP POP JUMP JUMPDEST PUSH0 PUSH1 0x40 MLOAD SWAP1 POP SWAP1 JUMP JUMPDEST PUSH0 PUSH0 REVERT JUMPDEST PUSH0 PUSH0 REVERT JUMPDEST PUSH2 0x27CE DUP2 PUSH2 0x22CE JUMP JUMPDEST DUP2 EQ PUSH2 0x27D8 JUMPI PUSH0 PUSH0 REVERT JUMPDEST POP JUMP JUMPDEST PUSH0 DUP2 CALLDATALOAD SWAP1 POP PUSH2 0x27E9 DUP2 PUSH2 0x27C5 JUMP JUMPDEST SWAP3 SWAP2 POP POP JUMP JUMPDEST PUSH0 PUSH1 0x20 DUP3 DUP5 SUB SLT ISZERO PUSH2 0x2804 JUMPI PUSH2 0x2803 PUSH2 0x27BD JUMP JUMPDEST JUMPDEST PUSH0 PUSH2 0x2811 DUP5 DUP3 DUP6 ADD PUSH2 0x27DB JUMP JUMPDEST SWAP2 POP POP SWAP3 SWAP2 POP POP JUMP JUMPDEST PUSH0 PUSH0 REVERT JUMPDEST PUSH32 0x4E487B7100000000000000000000000000000000000000000000000000000000 PUSH0 MSTORE PUSH1 0x41 PUSH1 0x4 MSTORE PUSH1 0x24 PUSH0 REVERT JUMPDEST PUSH2 0x2854 DUP3 PUSH2 0x2327 JUMP JUMPDEST DUP2 ADD DUP2 DUP2 LT PUSH8 0xFFFFFFFFFFFFFFFF DUP3 GT OR ISZERO PUSH2 0x2873 JUMPI PUSH2 0x2872 PUSH2 0x281E JUMP JUMPDEST JUMPDEST DUP1 PUSH1 0x40 MSTORE POP POP POP JUMP JUMPDEST PUSH0 PUSH2 0x2885 PUSH2 0x27B4 JUMP JUMPDEST SWAP1 POP PUSH2 0x2891 DUP3 DUP3 PUSH2 0x284B JUMP JUMPDEST SWAP2 SWAP1 POP JUMP JUMPDEST PUSH2 0x289F DUP2 PUSH2 0x2485 JUMP JUMPDEST DUP2 EQ PUSH2 0x28A9 JUMPI PUSH0 PUSH0 REVERT JUMPDEST POP JUMP JUMPDEST PUSH0 DUP2 CALLDATALOAD SWAP1 POP PUSH2 0x28BA DUP2 PUSH2 0x2896 JUMP JUMPDEST SWAP3 SWAP2 POP POP JUMP JUMPDEST PUSH0 PUSH1 0x40 DUP3 DUP5 SUB SLT ISZERO PUSH2 0x28D5 JUMPI PUSH2 0x28D4 PUSH2 0x281A JUMP JUMPDEST JUMPDEST PUSH2 0x28DF PUSH1 0x40 PUSH2 0x287C JUMP JUMPDEST SWAP1 POP PUSH0 PUSH2 0x28EE DUP5 DUP3 DUP6 ADD PUSH2 0x28AC JUMP JUMPDEST PUSH0 DUP4 ADD MSTORE POP PUSH1 0x20 PUSH2 0x2901 DUP5 DUP3 DUP6 ADD PUSH2 0x27DB JUMP JUMPDEST PUSH1 0x20 DUP4 ADD MSTORE POP SWAP3 SWAP2 POP POP JUMP JUMPDEST PUSH0 PUSH1 0x40 DUP3 DUP5 SUB SLT ISZERO PUSH2 0x2922 JUMPI PUSH2 0x2921 PUSH2 0x27BD JUMP JUMPDEST JUMPDEST PUSH0 PUSH2 0x292F DUP5 DUP3 DUP6 ADD PUSH2 0x28C0 JUMP JUMPDEST SWAP2 POP POP SWAP3 SWAP2 POP POP JUMP JUMPDEST PUSH2 0x2941 DUP2 PUSH2 0x2485 JUMP JUMPDEST DUP3 MSTORE POP POP JUMP JUMPDEST PUSH0 PUSH1 0x40 DUP3 ADD SWAP1 POP PUSH2 0x295A PUSH0 DUP4 ADD DUP6 PUSH2 0x2938 JUMP JUMPDEST PUSH2 0x2967 PUSH1 0x20 DUP4 ADD DUP5 PUSH2 0x22D7 JUMP JUMPDEST SWAP4 SWAP3 POP POP POP JUMP JUMPDEST PUSH0 PUSH1 0x60 DUP3 ADD SWAP1 POP PUSH2 0x2981 PUSH0 DUP4 ADD DUP7 PUSH2 0x2938 JUMP JUMPDEST DUP2 DUP2 SUB PUSH1 0x20 DUP4 ADD MSTORE PUSH2 0x2993 DUP2 DUP6 PUSH2 0x2337 JUMP JUMPDEST SWAP1 POP DUP2 DUP2 SUB PUSH1 0x40 DUP4 ADD MSTORE PUSH2 0x29A7 DUP2 DUP5 PUSH2 0x2337 JUMP JUMPDEST SWAP1 POP SWAP5 SWAP4 POP POP POP POP JUMP JUMPDEST PUSH0 PUSH0 REVERT JUMPDEST PUSH0 PUSH0 REVERT JUMPDEST PUSH0 PUSH8 0xFFFFFFFFFFFFFFFF DUP3 GT ISZERO PUSH2 0x29D3 JUMPI PUSH2 0x29D2 PUSH2 0x281E JUMP JUMPDEST JUMPDEST PUSH2 0x29DC DUP3 PUSH2 0x2327 JUMP JUMPDEST SWAP1 POP PUSH1 0x20 DUP2 ADD SWAP1 POP SWAP2 SWAP1 POP JUMP JUMPDEST DUP3 DUP2 DUP4 CALLDATACOPY PUSH0 DUP4 DUP4 ADD MSTORE POP POP POP JUMP JUMPDEST PUSH0 PUSH2 0x2A09 PUSH2 0x2A04 DUP5 PUSH2 0x29B9 JUMP JUMPDEST PUSH2 0x287C JUMP JUMPDEST SWAP1 POP DUP3 DUP2 MSTORE PUSH1 0x20 DUP2 ADD DUP5 DUP5 DUP5 ADD GT ISZERO PUSH2 0x2A25 JUMPI PUSH2 0x2A24 PUSH2 0x29B5 JUMP JUMPDEST JUMPDEST PUSH2 0x2A30 DUP5 DUP3 DUP6 PUSH2 0x29E9 JUMP JUMPDEST POP SWAP4 SWAP3 POP POP POP JUMP JUMPDEST PUSH0 DUP3 PUSH1 0x1F DUP4 ADD SLT PUSH2 0x2A4C JUMPI PUSH2 0x2A4B PUSH2 0x29B1 JUMP JUMPDEST JUMPDEST DUP2 CALLDATALOAD PUSH2 0x2A5C DUP5 DUP3 PUSH1 0x20 DUP7 ADD PUSH2 0x29F7 JUMP JUMPDEST SWAP2 POP POP SWAP3 SWAP2 POP POP JUMP JUMPDEST PUSH0 PUSH0 PUSH1 0x40 DUP4 DUP6 SUB SLT ISZERO PUSH2 0x2A7B JUMPI PUSH2 0x2A7A PUSH2 0x27BD JUMP JUMPDEST JUMPDEST PUSH0 DUP4 ADD CALLDATALOAD PUSH8 0xFFFFFFFFFFFFFFFF DUP2 GT ISZERO PUSH2 0x2A98 JUMPI PUSH2 0x2A97 PUSH2 0x27C1 JUMP JUMPDEST JUMPDEST PUSH2 0x2AA4 DUP6 DUP3 DUP7 ADD PUSH2 0x2A38 JUMP JUMPDEST SWAP3 POP POP PUSH1 0x20 PUSH2 0x2AB5 DUP6 DUP3 DUP7 ADD PUSH2 0x27DB JUMP JUMPDEST SWAP2 POP POP SWAP3 POP SWAP3 SWAP1 POP JUMP JUMPDEST PUSH0 DUP2 ISZERO ISZERO SWAP1 POP SWAP2 SWAP1 POP JUMP JUMPDEST PUSH2 0x2AD3 DUP2 PUSH2 0x2ABF JUMP JUMPDEST DUP3 MSTORE POP POP JUMP JUMPDEST PUSH0 PUSH1 0x20 DUP3 ADD SWAP1 POP PUSH2 0x2AEC PUSH0 DUP4 ADD DUP5 PUSH2 0x2ACA JUMP JUMPDEST SWAP3 SWAP2 POP POP JUMP JUMPDEST PUSH0 PUSH1 0x20 DUP3 DUP5 SUB SLT ISZERO PUSH2 0x2B07 JUMPI PUSH2 0x2B06 PUSH2 0x27BD JUMP JUMPDEST JUMPDEST PUSH0 DUP3 ADD CALLDATALOAD PUSH8 0xFFFFFFFFFFFFFFFF DUP2 GT ISZERO PUSH2 0x2B24 JUMPI PUSH2 0x2B23 PUSH2 0x27C1 JUMP JUMPDEST JUMPDEST PUSH2 0x2B30 DUP5 DUP3 DUP6 ADD PUSH2 0x2A38 JUMP JUMPDEST SWAP2 POP POP SWAP3 SWAP2 POP POP JUMP JUMPDEST PUSH0 DUP2 MLOAD SWAP1 POP PUSH2 0x2B47 DUP2 PUSH2 0x2896 JUMP JUMPDEST SWAP3 SWAP2 POP POP JUMP JUMPDEST PUSH0 PUSH1 0x20 DUP3 DUP5 SUB SLT ISZERO PUSH2 0x2B62 JUMPI PUSH2 0x2B61 PUSH2 0x27BD JUMP JUMPDEST JUMPDEST PUSH0 PUSH2 0x2B6F DUP5 DUP3 DUP6 ADD PUSH2 0x2B39 JUMP JUMPDEST SWAP2 POP POP SWAP3 SWAP2 POP POP JUMP JUMPDEST PUSH32 0x50656E73696F6E2041646D696E204F6E6C790000000000000000000000000000 PUSH0 DUP3 ADD MSTORE POP JUMP JUMPDEST PUSH0 PUSH2 0x2BAC PUSH1 0x12 DUP4 PUSH2 0x2309 JUMP JUMPDEST SWAP2 POP PUSH2 0x2BB7 DUP3 PUSH2 0x2B78 JUMP JUMPDEST PUSH1 0x20 DUP3 ADD SWAP1 POP SWAP2 SWAP1 POP JUMP JUMPDEST PUSH0 PUSH1 0x20 DUP3 ADD SWAP1 POP DUP2 DUP2 SUB PUSH0 DUP4 ADD MSTORE PUSH2 0x2BD9 DUP2 PUSH2 0x2BA0 JUMP JUMPDEST SWAP1 POP SWAP2 SWAP1 POP JUMP JUMPDEST PUSH32 0x4E487B7100000000000000000000000000000000000000000000000000000000 PUSH0 MSTORE PUSH1 0x11 PUSH1 0x4 MSTORE PUSH1 0x24 PUSH0 REVERT JUMPDEST PUSH0 PUSH2 0x2C17 DUP3 PUSH2 0x22CE JUMP JUMPDEST SWAP2 POP PUSH2 0x2C22 DUP4 PUSH2 0x22CE JUMP JUMPDEST SWAP3 POP DUP3 DUP3 ADD SWAP1 POP DUP1 DUP3 GT ISZERO PUSH2 0x2C3A JUMPI PUSH2 0x2C39 PUSH2 0x2BE0 JUMP JUMPDEST JUMPDEST SWAP3 SWAP2 POP POP JUMP JUMPDEST PUSH0 DUP2 SWAP1 POP SWAP3 SWAP2 POP POP JUMP JUMPDEST PUSH0 PUSH2 0x2C54 DUP3 PUSH2 0x22FF JUMP JUMPDEST PUSH2 0x2C5E DUP2 DUP6 PUSH2 0x2C40 JUMP JUMPDEST SWAP4 POP PUSH2 0x2C6E DUP2 DUP6 PUSH1 0x20 DUP7 ADD PUSH2 0x2319 JUMP JUMPDEST DUP1 DUP5 ADD SWAP2 POP POP SWAP3 SWAP2 POP POP JUMP JUMPDEST PUSH0 PUSH2 0x2C85 DUP3 DUP5 PUSH2 0x2C4A JUMP JUMPDEST SWAP2 POP DUP2 SWAP1 POP SWAP3 SWAP2 POP POP JUMP JUMPDEST PUSH0 PUSH2 0x2CA2 PUSH2 0x2C9D DUP5 PUSH2 0x29B9 JUMP JUMPDEST PUSH2 0x287C JUMP JUMPDEST SWAP1 POP DUP3 DUP2 MSTORE PUSH1 0x20 DUP2 ADD DUP5 DUP5 DUP5 ADD GT ISZERO PUSH2 0x2CBE JUMPI PUSH2 0x2CBD PUSH2 0x29B5 JUMP JUMPDEST JUMPDEST PUSH2 0x2CC9 DUP5 DUP3 DUP6 PUSH2 0x2319 JUMP JUMPDEST POP SWAP4 SWAP3 POP POP POP JUMP JUMPDEST PUSH0 DUP3 PUSH1 0x1F DUP4 ADD SLT PUSH2 0x2CE5 JUMPI PUSH2 0x2CE4 PUSH2 0x29B1 JUMP JUMPDEST JUMPDEST DUP2 MLOAD PUSH2 0x2CF5 DUP5 DUP3 PUSH1 0x20 DUP7 ADD PUSH2 0x2C90 JUMP JUMPDEST SWAP2 POP POP SWAP3 SWAP2 POP POP JUMP JUMPDEST PUSH0 PUSH1 0x20 DUP3 DUP5 SUB SLT ISZERO PUSH2 0x2D13 JUMPI PUSH2 0x2D12 PUSH2 0x27BD JUMP JUMPDEST JUMPDEST PUSH0 DUP3 ADD MLOAD PUSH8 0xFFFFFFFFFFFFFFFF DUP2 GT ISZERO PUSH2 0x2D30 JUMPI PUSH2 0x2D2F PUSH2 0x27C1 JUMP JUMPDEST JUMPDEST PUSH2 0x2D3C DUP5 DUP3 DUP6 ADD PUSH2 0x2CD1 JUMP JUMPDEST SWAP2 POP POP SWAP3 SWAP2 POP POP JUMP JUMPDEST PUSH32 0x696E73756666696369656E742070656E73696F6E207365747570206665650000 PUSH0 DUP3 ADD MSTORE POP JUMP JUMPDEST PUSH0 PUSH2 0x2D79 PUSH1 0x1E DUP4 PUSH2 0x2309 JUMP JUMPDEST SWAP2 POP PUSH2 0x2D84 DUP3 PUSH2 0x2D45 JUMP JUMPDEST PUSH1 0x20 DUP3 ADD SWAP1 POP SWAP2 SWAP1 POP JUMP JUMPDEST PUSH0 PUSH1 0x20 DUP3 ADD SWAP1 POP DUP2 DUP2 SUB PUSH0 DUP4 ADD MSTORE PUSH2 0x2DA6 DUP2 PUSH2 0x2D6D JUMP JUMPDEST SWAP1 POP SWAP2 SWAP1 POP JUMP JUMPDEST PUSH0 PUSH1 0x60 DUP3 ADD SWAP1 POP PUSH2 0x2DC0 PUSH0 DUP4 ADD DUP7 PUSH2 0x2938 JUMP JUMPDEST PUSH2 0x2DCD PUSH1 0x20 DUP4 ADD DUP6 PUSH2 0x2938 JUMP JUMPDEST PUSH2 0x2DDA PUSH1 0x40 DUP4 ADD DUP5 PUSH2 0x22D7 JUMP JUMPDEST SWAP5 SWAP4 POP POP POP POP JUMP JUMPDEST PUSH2 0x2DEB DUP2 PUSH2 0x2ABF JUMP JUMPDEST DUP2 EQ PUSH2 0x2DF5 JUMPI PUSH0 PUSH0 REVERT JUMPDEST POP JUMP JUMPDEST PUSH0 DUP2 MLOAD SWAP1 POP PUSH2 0x2E06 DUP2 PUSH2 0x2DE2 JUMP JUMPDEST SWAP3 SWAP2 POP POP JUMP JUMPDEST PUSH0 PUSH1 0x20 DUP3 DUP5 SUB SLT ISZERO PUSH2 0x2E21 JUMPI PUSH2 0x2E20 PUSH2 0x27BD JUMP JUMPDEST JUMPDEST PUSH0 PUSH2 0x2E2E DUP5 DUP3 DUP6 ADD PUSH2 0x2DF8 JUMP JUMPDEST SWAP2 POP POP SWAP3 SWAP2 POP POP JUMP JUMPDEST PUSH0 DUP2 MLOAD SWAP1 POP PUSH2 0x2E45 DUP2 PUSH2 0x27C5 JUMP JUMPDEST SWAP3 SWAP2 POP POP JUMP JUMPDEST PUSH1 0x3 DUP2 LT PUSH2 0x2E57 JUMPI PUSH0 PUSH0 REVERT JUMPDEST POP JUMP JUMPDEST PUSH0 DUP2 MLOAD SWAP1 POP PUSH2 0x2E68 DUP2 PUSH2 0x2E4B JUMP JUMPDEST SWAP3 SWAP2 POP POP JUMP JUMPDEST PUSH1 0x4 DUP2 LT PUSH2 0x2E7A JUMPI PUSH0 PUSH0 REVERT JUMPDEST POP JUMP JUMPDEST PUSH0 DUP2 MLOAD SWAP1 POP PUSH2 0x2E8B DUP2 PUSH2 0x2E6E JUMP JUMPDEST SWAP3 SWAP2 POP POP JUMP JUMPDEST PUSH0 PUSH1 0xC0 DUP3 DUP5 SUB SLT ISZERO PUSH2 0x2EA6 JUMPI PUSH2 0x2EA5 PUSH2 0x281A JUMP JUMPDEST JUMPDEST PUSH2 0x2EB0 PUSH1 0xC0 PUSH2 0x287C JUMP JUMPDEST SWAP1 POP PUSH0 PUSH2 0x2EBF DUP5 DUP3 DUP6 ADD PUSH2 0x2E7D JUMP JUMPDEST PUSH0 DUP4 ADD MSTORE POP PUSH1 0x20 PUSH2 0x2ED2 DUP5 DUP3 DUP6 ADD PUSH2 0x2E37 JUMP JUMPDEST PUSH1 0x20 DUP4 ADD MSTORE POP PUSH1 0x40 PUSH2 0x2EE6 DUP5 DUP3 DUP6 ADD PUSH2 0x2E37 JUMP JUMPDEST PUSH1 0x40 DUP4 ADD MSTORE POP PUSH1 0x60 PUSH2 0x2EFA DUP5 DUP3 DUP6 ADD PUSH2 0x2E37 JUMP JUMPDEST PUSH1 0x60 DUP4 ADD MSTORE POP PUSH1 0x80 PUSH2 0x2F0E DUP5 DUP3 DUP6 ADD PUSH2 0x2E37 JUMP JUMPDEST PUSH1 0x80 DUP4 ADD MSTORE POP PUSH1 0xA0 PUSH2 0x2F22 DUP5 DUP3 DUP6 ADD PUSH2 0x2E37 JUMP JUMPDEST PUSH1 0xA0 DUP4 ADD MSTORE POP SWAP3 SWAP2 POP POP JUMP JUMPDEST PUSH0 PUSH1 0x40 DUP3 DUP5 SUB SLT ISZERO PUSH2 0x2F43 JUMPI PUSH2 0x2F42 PUSH2 0x281A JUMP JUMPDEST JUMPDEST PUSH2 0x2F4D PUSH1 0x40 PUSH2 0x287C JUMP JUMPDEST SWAP1 POP PUSH0 PUSH2 0x2F5C DUP5 DUP3 DUP6 ADD PUSH2 0x2E37 JUMP JUMPDEST PUSH0 DUP4 ADD MSTORE POP PUSH1 0x20 PUSH2 0x2F6F DUP5 DUP3 DUP6 ADD PUSH2 0x2E37 JUMP JUMPDEST PUSH1 0x20 DUP4 ADD MSTORE POP SWAP3 SWAP2 POP POP JUMP JUMPDEST PUSH0 PUSH2 0x300 DUP3 DUP5 SUB SLT ISZERO PUSH2 0x2F91 JUMPI PUSH2 0x2F90 PUSH2 0x281A JUMP JUMPDEST JUMPDEST PUSH2 0x2F9C PUSH2 0x1A0 PUSH2 0x287C JUMP JUMPDEST SWAP1 POP PUSH0 PUSH2 0x2FAB DUP5 DUP3 DUP6 ADD PUSH2 0x2E37 JUMP JUMPDEST PUSH0 DUP4 ADD MSTORE POP PUSH1 0x20 PUSH2 0x2FBE DUP5 DUP3 DUP6 ADD PUSH2 0x2B39 JUMP JUMPDEST PUSH1 0x20 DUP4 ADD MSTORE POP PUSH1 0x40 PUSH2 0x2FD2 DUP5 DUP3 DUP6 ADD PUSH2 0x2B39 JUMP JUMPDEST PUSH1 0x40 DUP4 ADD MSTORE POP PUSH1 0x60 PUSH2 0x2FE6 DUP5 DUP3 DUP6 ADD PUSH2 0x2E37 JUMP JUMPDEST PUSH1 0x60 DUP4 ADD MSTORE POP PUSH1 0x80 PUSH2 0x2FFA DUP5 DUP3 DUP6 ADD PUSH2 0x2E37 JUMP JUMPDEST PUSH1 0x80 DUP4 ADD MSTORE POP PUSH1 0xA0 PUSH2 0x300E DUP5 DUP3 DUP6 ADD PUSH2 0x2E37 JUMP JUMPDEST PUSH1 0xA0 DUP4 ADD MSTORE POP PUSH1 0xC0 PUSH2 0x3022 DUP5 DUP3 DUP6 ADD PUSH2 0x2E5A JUMP JUMPDEST PUSH1 0xC0 DUP4 ADD MSTORE POP PUSH1 0xE0 PUSH2 0x3036 DUP5 DUP3 DUP6 ADD PUSH2 0x2E91 JUMP JUMPDEST PUSH1 0xE0 DUP4 ADD MSTORE POP PUSH2 0x1A0 PUSH2 0x304B DUP5 DUP3 DUP6 ADD PUSH2 0x2E91 JUMP JUMPDEST PUSH2 0x100 DUP4 ADD MSTORE POP PUSH2 0x260 PUSH2 0x3061 DUP5 DUP3 DUP6 ADD PUSH2 0x2F2E JUMP JUMPDEST PUSH2 0x120 DUP4 ADD MSTORE POP PUSH2 0x2A0 PUSH2 0x3077 DUP5 DUP3 DUP6 ADD PUSH2 0x2E37 JUMP JUMPDEST PUSH2 0x140 DUP4 ADD MSTORE POP PUSH2 0x2C0 PUSH2 0x308D DUP5 DUP3 DUP6 ADD PUSH2 0x2E37 JUMP JUMPDEST PUSH2 0x160 DUP4 ADD MSTORE POP PUSH2 0x2E0 PUSH2 0x30A3 DUP5 DUP3 DUP6 ADD PUSH2 0x2E37 JUMP JUMPDEST PUSH2 0x180 DUP4 ADD MSTORE POP SWAP3 SWAP2 POP POP JUMP JUMPDEST PUSH0 PUSH2 0x300 DUP3 DUP5 SUB SLT ISZERO PUSH2 0x30C6 JUMPI PUSH2 0x30C5 PUSH2 0x27BD JUMP JUMPDEST JUMPDEST PUSH0 PUSH2 0x30D3 DUP5 DUP3 DUP6 ADD PUSH2 0x2F7B JUMP JUMPDEST SWAP2 POP POP SWAP3 SWAP2 POP POP JUMP JUMPDEST PUSH32 0x70726F6475637420657870697265640000000000000000000000000000000000 PUSH0 DUP3 ADD MSTORE POP JUMP JUMPDEST PUSH0 PUSH2 0x3110 PUSH1 0xF DUP4 PUSH2 0x2309 JUMP JUMPDEST SWAP2 POP PUSH2 0x311B DUP3 PUSH2 0x30DC JUMP JUMPDEST PUSH1 0x20 DUP3 ADD SWAP1 POP SWAP2 SWAP1 POP JUMP JUMPDEST PUSH0 PUSH1 0x20 DUP3 ADD SWAP1 POP DUP2 DUP2 SUB PUSH0 DUP4 ADD MSTORE PUSH2 0x313D DUP2 PUSH2 0x3104 JUMP JUMPDEST SWAP1 POP SWAP2 SWAP1 POP JUMP JUMPDEST PUSH32 0x696E73756666696369656E7420696E76656E746F727900000000000000000000 PUSH0 DUP3 ADD MSTORE POP JUMP JUMPDEST PUSH0 PUSH2 0x3178 PUSH1 0x16 DUP4 PUSH2 0x2309 JUMP JUMPDEST SWAP2 POP PUSH2 0x3183 DUP3 PUSH2 0x3144 JUMP JUMPDEST PUSH1 0x20 DUP3 ADD SWAP1 POP SWAP2 SWAP1 POP JUMP JUMPDEST PUSH0 PUSH1 0x20 DUP3 ADD SWAP1 POP DUP2 DUP2 SUB PUSH0 DUP4 ADD MSTORE PUSH2 0x31A5 DUP2 PUSH2 0x316C JUMP JUMPDEST SWAP1 POP SWAP2 SWAP1 POP JUMP JUMPDEST PUSH0 PUSH1 0x20 DUP3 DUP5 SUB SLT ISZERO PUSH2 0x31C1 JUMPI PUSH2 0x31C0 PUSH2 0x27BD JUMP JUMPDEST JUMPDEST PUSH0 PUSH2 0x31CE DUP5 DUP3 DUP6 ADD PUSH2 0x2E37 JUMP JUMPDEST SWAP2 POP POP SWAP3 SWAP2 POP POP JUMP JUMPDEST PUSH0 PUSH2 0x31E1 DUP3 PUSH2 0x22CE JUMP JUMPDEST SWAP2 POP PUSH32 0xFFFFFFFFFFFFFFFFFFFFFFFFFFFFFFFFFFFFFFFFFFFFFFFFFFFFFFFFFFFFFFFF DUP3 SUB PUSH2 0x3213 JUMPI PUSH2 0x3212 PUSH2 0x2BE0 JUMP JUMPDEST JUMPDEST PUSH1 0x1 DUP3 ADD SWAP1 POP SWAP2 SWAP1 POP JUMP JUMPDEST PUSH1 0xA DUP2 LT PUSH2 0x322F JUMPI PUSH2 0x322E PUSH2 0x24A5 JUMP JUMPDEST JUMPDEST POP JUMP JUMPDEST PUSH0 DUP2 SWAP1 POP PUSH2 0x323F DUP3 PUSH2 0x321E JUMP JUMPDEST SWAP2 SWAP1 POP JUMP JUMPDEST PUSH0 PUSH2 0x324E DUP3 PUSH2 0x3232 JUMP JUMPDEST SWAP1 POP SWAP2 SWAP1 POP JUMP JUMPDEST PUSH2 0x325E DUP2 PUSH2 0x3244 JUMP JUMPDEST DUP3 MSTORE POP POP JUMP JUMPDEST PUSH1 0x6 DUP2 LT PUSH2 0x3275 JUMPI PUSH2 0x3274 PUSH2 0x24A5 JUMP JUMPDEST JUMPDEST POP JUMP JUMPDEST PUSH0 DUP2 SWAP1 POP PUSH2 0x3285 DUP3 PUSH2 0x3264 JUMP JUMPDEST SWAP2 SWAP1 POP JUMP JUMPDEST PUSH0 PUSH2 0x3294 DUP3 PUSH2 0x3278 JUMP JUMPDEST SWAP1 POP SWAP2 SWAP1 POP JUMP JUMPDEST PUSH2 0x32A4 DUP2 PUSH2 0x328A JUMP JUMPDEST DUP3 MSTORE POP POP JUMP JUMPDEST PUSH0 PUSH1 0xC0 DUP3 ADD SWAP1 POP PUSH2 0x32BD PUSH0 DUP4 ADD DUP10 PUSH2 0x3255 JUMP JUMPDEST PUSH2 0x32CA PUSH1 0x20 DUP4 ADD DUP9 PUSH2 0x329B JUMP JUMPDEST PUSH2 0x32D7 PUSH1 0x40 DUP4 ADD DUP8 PUSH2 0x22D7 JUMP JUMPDEST PUSH2 0x32E4 PUSH1 0x60 DUP4 ADD DUP7 PUSH2 0x2938 JUMP JUMPDEST PUSH2 0x32F1 PUSH1 0x80 DUP4 ADD DUP6 PUSH2 0x22D7 JUMP JUMPDEST PUSH2 0x32FE PUSH1 0xA0 DUP4 ADD DUP5 PUSH2 0x2938 JUMP JUMPDEST SWAP8 SWAP7 POP POP POP POP POP POP POP JUMP INVALID LOG2 PUSH5 0x6970667358 0x22 SLT KECCAK256 PUSH15 0xEED354E1616166F9353F18E0CC5B4F PUSH8 0x3EE5BDE506052DBD MCOPY 0x1E 0x1E 0x26 DELEGATECALL TSTORE 0xDD PUSH5 0x736F6C6343 STOP ADDMOD 0x1E STOP CALLER "
				},
				"gasEstimates": {
					"creation": {
						"codeDepositCost": "2623800",
						"executionCost": "infinite",
						"totalCost": "infinite"
					},
					"external": {
						"createPension((address,uint256))": "infinite",
						"getFee(string)": "infinite",
						"getFeeToken()": "infinite",
						"getName()": "infinite",
						"getPension()": "infinite",
						"getPension(uint256)": "infinite",
						"getPensionIds()": "infinite",
						"getVersion()": "333",
						"notifyChangeOfAddress()": "infinite",
						"setFee(string,uint256)": "infinite"
					},
					"internal": {
						"addTx(enum TxType,enum ObjType,uint256,uint256,address)": "infinite",
						"collectFee(string memory)": "infinite",
						"getIndex()": "24371",
						"getProduct(uint256)": "infinite",
						"getVault(uint256)": "infinite"
					}
				},
				"methodIdentifiers": {
					"createPension((address,uint256))": "bacba5f6",
					"getFee(string)": "ed1eee68",
					"getFeeToken()": "ca709a25",
					"getName()": "17d7de7c",
					"getPension()": "73488018",
					"getPension(uint256)": "77bdfdf2",
					"getPensionIds()": "42b98f9d",
					"getVersion()": "0d8e6e2c",
					"notifyChangeOfAddress()": "cde4c10c",
					"setFee(string,uint256)": "cafe0e90"
				}
			},
			"storageLayout": {
				"storage": [
					{
						"astId": 179,
						"contract": "contracts/core/MedallionPensions.sol:MedallionPensions",
						"label": "register",
						"offset": 0,
						"slot": "0",
						"type": "t_contract(IRegister)867"
					},
					{
						"astId": 182,
						"contract": "contracts/core/MedallionPensions.sol:MedallionPensions",
						"label": "index",
						"offset": 0,
						"slot": "1",
						"type": "t_uint256"
					},
					{
						"astId": 185,
						"contract": "contracts/core/MedallionPensions.sol:MedallionPensions",
						"label": "pensionIds",
						"offset": 0,
						"slot": "2",
						"type": "t_array(t_uint256)dyn_storage"
					},
					{
						"astId": 189,
						"contract": "contracts/core/MedallionPensions.sol:MedallionPensions",
						"label": "knownPension",
						"offset": 0,
						"slot": "3",
						"type": "t_mapping(t_uint256,t_bool)"
					},
					{
						"astId": 194,
						"contract": "contracts/core/MedallionPensions.sol:MedallionPensions",
						"label": "pensionById",
						"offset": 0,
						"slot": "4",
						"type": "t_mapping(t_uint256,t_struct(MPension)912_storage)"
					},
					{
						"astId": 198,
						"contract": "contracts/core/MedallionPensions.sol:MedallionPensions",
						"label": "pensionIdByOwner",
						"offset": 0,
						"slot": "5",
						"type": "t_mapping(t_address,t_uint256)"
					},
					{
						"astId": 202,
						"contract": "contracts/core/MedallionPensions.sol:MedallionPensions",
						"label": "feeByName",
						"offset": 0,
						"slot": "6",
						"type": "t_mapping(t_string_memory_ptr,t_uint256)"
					}
				],
				"types": {
					"t_address": {
						"encoding": "inplace",
						"label": "address",
						"numberOfBytes": "20"
					},
					"t_array(t_uint256)dyn_storage": {
						"base": "t_uint256",
						"encoding": "dynamic_array",
						"label": "uint256[]",
						"numberOfBytes": "32"
					},
					"t_bool": {
						"encoding": "inplace",
						"label": "bool",
						"numberOfBytes": "1"
					},
					"t_contract(IRegister)867": {
						"encoding": "inplace",
						"label": "contract IRegister",
						"numberOfBytes": "20"
					},
					"t_enum(RiskType)1033": {
						"encoding": "inplace",
						"label": "enum RiskType",
						"numberOfBytes": "1"
					},
					"t_enum(Schedule)1038": {
						"encoding": "inplace",
						"label": "enum Schedule",
						"numberOfBytes": "1"
					},
					"t_mapping(t_address,t_uint256)": {
						"encoding": "mapping",
						"key": "t_address",
						"label": "mapping(address => uint256)",
						"numberOfBytes": "32",
						"value": "t_uint256"
					},
					"t_mapping(t_string_memory_ptr,t_uint256)": {
						"encoding": "mapping",
						"key": "t_string_memory_ptr",
						"label": "mapping(string => uint256)",
						"numberOfBytes": "32",
						"value": "t_uint256"
					},
					"t_mapping(t_uint256,t_bool)": {
						"encoding": "mapping",
						"key": "t_uint256",
						"label": "mapping(uint256 => bool)",
						"numberOfBytes": "32",
						"value": "t_bool"
					},
					"t_mapping(t_uint256,t_struct(MPension)912_storage)": {
						"encoding": "mapping",
						"key": "t_uint256",
						"label": "mapping(uint256 => struct MPension)",
						"numberOfBytes": "32",
						"value": "t_struct(MPension)912_storage"
					},
					"t_string_memory_ptr": {
						"encoding": "bytes",
						"label": "string",
						"numberOfBytes": "32"
					},
					"t_struct(FinancialSchedule)1052_storage": {
						"encoding": "inplace",
						"label": "struct FinancialSchedule",
						"members": [
							{
								"astId": 1041,
								"contract": "contracts/core/MedallionPensions.sol:MedallionPensions",
								"label": "schedule",
								"offset": 0,
								"slot": "0",
								"type": "t_enum(Schedule)1038"
							},
							{
								"astId": 1043,
								"contract": "contracts/core/MedallionPensions.sol:MedallionPensions",
								"label": "term",
								"offset": 0,
								"slot": "1",
								"type": "t_uint256"
							},
							{
								"astId": 1045,
								"contract": "contracts/core/MedallionPensions.sol:MedallionPensions",
								"label": "minimumAmount",
								"offset": 0,
								"slot": "2",
								"type": "t_uint256"
							},
							{
								"astId": 1047,
								"contract": "contracts/core/MedallionPensions.sol:MedallionPensions",
								"label": "maximumAmount",
								"offset": 0,
								"slot": "3",
								"type": "t_uint256"
							},
							{
								"astId": 1049,
								"contract": "contracts/core/MedallionPensions.sol:MedallionPensions",
								"label": "totalIntervals",
								"offset": 0,
								"slot": "4",
								"type": "t_uint256"
							},
							{
								"astId": 1051,
								"contract": "contracts/core/MedallionPensions.sol:MedallionPensions",
								"label": "totalAmount",
								"offset": 0,
								"slot": "5",
								"type": "t_uint256"
							}
						],
						"numberOfBytes": "192"
					},
					"t_struct(MPProduct)943_storage": {
						"encoding": "inplace",
						"label": "struct MPProduct",
						"members": [
							{
								"astId": 914,
								"contract": "contracts/core/MedallionPensions.sol:MedallionPensions",
								"label": "id",
								"offset": 0,
								"slot": "0",
								"type": "t_uint256"
							},
							{
								"astId": 916,
								"contract": "contracts/core/MedallionPensions.sol:MedallionPensions",
								"label": "provider",
								"offset": 0,
								"slot": "1",
								"type": "t_address"
							},
							{
								"astId": 918,
								"contract": "contracts/core/MedallionPensions.sol:MedallionPensions",
								"label": "erc20",
								"offset": 0,
								"slot": "2",
								"type": "t_address"
							},
							{
								"astId": 920,
								"contract": "contracts/core/MedallionPensions.sol:MedallionPensions",
								"label": "totalContribution",
								"offset": 0,
								"slot": "3",
								"type": "t_uint256"
							},
							{
								"astId": 922,
								"contract": "contracts/core/MedallionPensions.sol:MedallionPensions",
								"label": "principalOnMaturity",
								"offset": 0,
								"slot": "4",
								"type": "t_uint256"
							},
							{
								"astId": 924,
								"contract": "contracts/core/MedallionPensions.sol:MedallionPensions",
								"label": "interest",
								"offset": 0,
								"slot": "5",
								"type": "t_uint256"
							},
							{
								"astId": 927,
								"contract": "contracts/core/MedallionPensions.sol:MedallionPensions",
								"label": "riskType",
								"offset": 0,
								"slot": "6",
								"type": "t_enum(RiskType)1033"
							},
							{
								"astId": 930,
								"contract": "contracts/core/MedallionPensions.sol:MedallionPensions",
								"label": "contributionSchedule",
								"offset": 0,
								"slot": "7",
								"type": "t_struct(FinancialSchedule)1052_storage"
							},
							{
								"astId": 933,
								"contract": "contracts/core/MedallionPensions.sol:MedallionPensions",
								"label": "emissionSchedule",
								"offset": 0,
								"slot": "13",
								"type": "t_struct(FinancialSchedule)1052_storage"
							},
							{
								"astId": 936,
								"contract": "contracts/core/MedallionPensions.sol:MedallionPensions",
								"label": "tolerance",
								"offset": 0,
								"slot": "19",
								"type": "t_struct(Tolerance)1057_storage"
							},
							{
								"astId": 938,
								"contract": "contracts/core/MedallionPensions.sol:MedallionPensions",
								"label": "createdDate",
								"offset": 0,
								"slot": "21",
								"type": "t_uint256"
							},
							{
								"astId": 940,
								"contract": "contracts/core/MedallionPensions.sol:MedallionPensions",
								"label": "expiryDate",
								"offset": 0,
								"slot": "22",
								"type": "t_uint256"
							},
							{
								"astId": 942,
								"contract": "contracts/core/MedallionPensions.sol:MedallionPensions",
								"label": "units",
								"offset": 0,
								"slot": "23",
								"type": "t_uint256"
							}
						],
						"numberOfBytes": "768"
					},
					"t_struct(MPension)912_storage": {
						"encoding": "inplace",
						"label": "struct MPension",
						"members": [
							{
								"astId": 898,
								"contract": "contracts/core/MedallionPensions.sol:MedallionPensions",
								"label": "id",
								"offset": 0,
								"slot": "0",
								"type": "t_uint256"
							},
							{
								"astId": 900,
								"contract": "contracts/core/MedallionPensions.sol:MedallionPensions",
								"label": "creator",
								"offset": 0,
								"slot": "1",
								"type": "t_address"
							},
							{
								"astId": 902,
								"contract": "contracts/core/MedallionPensions.sol:MedallionPensions",
								"label": "owner",
								"offset": 0,
								"slot": "2",
								"type": "t_address"
							},
							{
								"astId": 904,
								"contract": "contracts/core/MedallionPensions.sol:MedallionPensions",
								"label": "vault",
								"offset": 0,
								"slot": "3",
								"type": "t_address"
							},
							{
								"astId": 906,
								"contract": "contracts/core/MedallionPensions.sol:MedallionPensions",
								"label": "maturityDate",
								"offset": 0,
								"slot": "4",
								"type": "t_uint256"
							},
							{
								"astId": 908,
								"contract": "contracts/core/MedallionPensions.sol:MedallionPensions",
								"label": "dissolutionDate",
								"offset": 0,
								"slot": "5",
								"type": "t_uint256"
							},
							{
								"astId": 911,
								"contract": "contracts/core/MedallionPensions.sol:MedallionPensions",
								"label": "product",
								"offset": 0,
								"slot": "6",
								"type": "t_struct(MPProduct)943_storage"
							}
						],
						"numberOfBytes": "960"
					},
					"t_struct(Tolerance)1057_storage": {
						"encoding": "inplace",
						"label": "struct Tolerance",
						"members": [
							{
								"astId": 1054,
								"contract": "contracts/core/MedallionPensions.sol:MedallionPensions",
								"label": "maxGainPercentage",
								"offset": 0,
								"slot": "0",
								"type": "t_uint256"
							},
							{
								"astId": 1056,
								"contract": "contracts/core/MedallionPensions.sol:MedallionPensions",
								"label": "maxLossPercentage",
								"offset": 0,
								"slot": "1",
								"type": "t_uint256"
							}
						],
						"numberOfBytes": "64"
					},
					"t_uint256": {
						"encoding": "inplace",
						"label": "uint256",
						"numberOfBytes": "32"
					}
				}
			},
			"userdoc": {
				"kind": "user",
				"methods": {},
				"version": 1
			}
		}
	}
}